{
  "contractName": "AbsoluteVote",
  "abi": [
    {
      "constant": true,
      "inputs": [
        {
          "name": "",
          "type": "bytes32"
        }
      ],
      "name": "parameters",
      "outputs": [
        {
          "name": "precReq",
          "type": "uint256"
        },
        {
          "name": "voteOnBehalf",
          "type": "address"
        }
      ],
      "payable": false,
      "stateMutability": "view",
      "type": "function"
    },
    {
      "constant": true,
      "inputs": [],
      "name": "proposalsCnt",
      "outputs": [
        {
          "name": "",
          "type": "uint256"
        }
      ],
      "payable": false,
      "stateMutability": "view",
      "type": "function"
    },
    {
      "constant": true,
      "inputs": [
        {
          "name": "",
          "type": "bytes32"
        }
      ],
      "name": "proposals",
      "outputs": [
        {
          "name": "organizationId",
          "type": "bytes32"
        },
        {
          "name": "open",
          "type": "bool"
        },
        {
          "name": "callbacks",
          "type": "address"
        },
        {
          "name": "numOfChoices",
          "type": "uint256"
        },
        {
          "name": "paramsHash",
          "type": "bytes32"
        },
        {
          "name": "totalVotes",
          "type": "uint256"
        }
      ],
      "payable": false,
      "stateMutability": "view",
      "type": "function"
    },
    {
      "constant": true,
      "inputs": [],
      "name": "MAX_NUM_OF_CHOICES",
      "outputs": [
        {
          "name": "",
          "type": "uint256"
        }
      ],
      "payable": false,
      "stateMutability": "view",
      "type": "function"
    },
    {
      "constant": true,
      "inputs": [
        {
          "name": "",
          "type": "bytes32"
        }
      ],
      "name": "organizations",
      "outputs": [
        {
          "name": "",
          "type": "address"
        }
      ],
      "payable": false,
      "stateMutability": "view",
      "type": "function"
    },
    {
      "anonymous": false,
      "inputs": [
        {
          "indexed": true,
          "name": "_proposalId",
          "type": "bytes32"
        },
        {
          "indexed": false,
          "name": "_isProxyVote",
          "type": "bool"
        }
      ],
      "name": "AVVoteProposal",
      "type": "event"
    },
    {
      "anonymous": false,
      "inputs": [
        {
          "indexed": true,
          "name": "_proposalId",
          "type": "bytes32"
        },
        {
          "indexed": true,
          "name": "_organization",
          "type": "address"
        },
        {
          "indexed": false,
          "name": "_numOfChoices",
          "type": "uint256"
        },
        {
          "indexed": false,
          "name": "_proposer",
          "type": "address"
        },
        {
          "indexed": false,
          "name": "_paramsHash",
          "type": "bytes32"
        }
      ],
      "name": "NewProposal",
      "type": "event"
    },
    {
      "anonymous": false,
      "inputs": [
        {
          "indexed": true,
          "name": "_proposalId",
          "type": "bytes32"
        },
        {
          "indexed": true,
          "name": "_organization",
          "type": "address"
        },
        {
          "indexed": false,
          "name": "_decision",
          "type": "uint256"
        },
        {
          "indexed": false,
          "name": "_totalReputation",
          "type": "uint256"
        }
      ],
      "name": "ExecuteProposal",
      "type": "event"
    },
    {
      "anonymous": false,
      "inputs": [
        {
          "indexed": true,
          "name": "_proposalId",
          "type": "bytes32"
        },
        {
          "indexed": true,
          "name": "_organization",
          "type": "address"
        },
        {
          "indexed": true,
          "name": "_voter",
          "type": "address"
        },
        {
          "indexed": false,
          "name": "_vote",
          "type": "uint256"
        },
        {
          "indexed": false,
          "name": "_reputation",
          "type": "uint256"
        }
      ],
      "name": "VoteProposal",
      "type": "event"
    },
    {
      "anonymous": false,
      "inputs": [
        {
          "indexed": true,
          "name": "_proposalId",
          "type": "bytes32"
        },
        {
          "indexed": true,
          "name": "_organization",
          "type": "address"
        }
      ],
      "name": "CancelProposal",
      "type": "event"
    },
    {
      "anonymous": false,
      "inputs": [
        {
          "indexed": true,
          "name": "_proposalId",
          "type": "bytes32"
        },
        {
          "indexed": true,
          "name": "_organization",
          "type": "address"
        },
        {
          "indexed": true,
          "name": "_voter",
          "type": "address"
        }
      ],
      "name": "CancelVoting",
      "type": "event"
    },
    {
      "constant": false,
      "inputs": [
        {
          "name": "_numOfChoices",
          "type": "uint256"
        },
        {
          "name": "_paramsHash",
          "type": "bytes32"
        },
        {
          "name": "",
          "type": "address"
        },
        {
          "name": "_organization",
          "type": "address"
        }
      ],
      "name": "propose",
      "outputs": [
        {
          "name": "",
          "type": "bytes32"
        }
      ],
      "payable": false,
      "stateMutability": "nonpayable",
      "type": "function"
    },
    {
      "constant": false,
      "inputs": [
        {
          "name": "_proposalId",
          "type": "bytes32"
        },
        {
          "name": "_vote",
          "type": "uint256"
        },
        {
          "name": "_amount",
          "type": "uint256"
        },
        {
          "name": "_voter",
          "type": "address"
        }
      ],
      "name": "vote",
      "outputs": [
        {
          "name": "",
          "type": "bool"
        }
      ],
      "payable": false,
      "stateMutability": "nonpayable",
      "type": "function"
    },
    {
      "constant": false,
      "inputs": [
        {
          "name": "_proposalId",
          "type": "bytes32"
        }
      ],
      "name": "cancelVote",
      "outputs": [],
      "payable": false,
      "stateMutability": "nonpayable",
      "type": "function"
    },
    {
      "constant": false,
      "inputs": [
        {
          "name": "_proposalId",
          "type": "bytes32"
        }
      ],
      "name": "execute",
      "outputs": [
        {
          "name": "",
          "type": "bool"
        }
      ],
      "payable": false,
      "stateMutability": "nonpayable",
      "type": "function"
    },
    {
      "constant": true,
      "inputs": [
        {
          "name": "_proposalId",
          "type": "bytes32"
        }
      ],
      "name": "getNumberOfChoices",
      "outputs": [
        {
          "name": "",
          "type": "uint256"
        }
      ],
      "payable": false,
      "stateMutability": "view",
      "type": "function"
    },
    {
      "constant": true,
      "inputs": [
        {
          "name": "_proposalId",
          "type": "bytes32"
        },
        {
          "name": "_voter",
          "type": "address"
        }
      ],
      "name": "voteInfo",
      "outputs": [
        {
          "name": "",
          "type": "uint256"
        },
        {
          "name": "",
          "type": "uint256"
        }
      ],
      "payable": false,
      "stateMutability": "view",
      "type": "function"
    },
    {
      "constant": true,
      "inputs": [
        {
          "name": "_proposalId",
          "type": "bytes32"
        },
        {
          "name": "_choice",
          "type": "uint256"
        }
      ],
      "name": "voteStatus",
      "outputs": [
        {
          "name": "",
          "type": "uint256"
        }
      ],
      "payable": false,
      "stateMutability": "view",
      "type": "function"
    },
    {
      "constant": true,
      "inputs": [
        {
          "name": "_proposalId",
          "type": "bytes32"
        }
      ],
      "name": "isVotable",
      "outputs": [
        {
          "name": "",
          "type": "bool"
        }
      ],
      "payable": false,
      "stateMutability": "view",
      "type": "function"
    },
    {
      "constant": true,
      "inputs": [],
      "name": "isAbstainAllow",
      "outputs": [
        {
          "name": "",
          "type": "bool"
        }
      ],
      "payable": false,
      "stateMutability": "pure",
      "type": "function"
    },
    {
      "constant": true,
      "inputs": [],
      "name": "getAllowedRangeOfChoices",
      "outputs": [
        {
          "name": "min",
          "type": "uint256"
        },
        {
          "name": "max",
          "type": "uint256"
        }
      ],
      "payable": false,
      "stateMutability": "pure",
      "type": "function"
    },
    {
      "constant": false,
      "inputs": [
        {
          "name": "_precReq",
          "type": "uint256"
        },
        {
          "name": "_voteOnBehalf",
          "type": "address"
        }
      ],
      "name": "setParameters",
      "outputs": [
        {
          "name": "",
          "type": "bytes32"
        }
      ],
      "payable": false,
      "stateMutability": "nonpayable",
      "type": "function"
    },
    {
      "constant": true,
      "inputs": [
        {
          "name": "_precReq",
          "type": "uint256"
        },
        {
          "name": "_voteOnBehalf",
          "type": "address"
        }
      ],
      "name": "getParametersHash",
      "outputs": [
        {
          "name": "",
          "type": "bytes32"
        }
      ],
      "payable": false,
      "stateMutability": "pure",
      "type": "function"
    }
  ],
  "bytecode": "0x608060405234801561001057600080fd5b506110ae806100206000396000f3fe608060405234801561001057600080fd5b5060043610610128576000357c01000000000000000000000000000000000000000000000000000000009004806351d997b2116100bf578063a003651d1161008e578063a003651d14610337578063b451291314610354578063ba51b14e14610377578063c0835106146103b0578063e751f271146103cd57610128565b806351d997b2146102ce57806388737b5e146102d65780638d22651e146103105780639525c0cc1461031857610128565b8063289647e4116100fb578063289647e4146101f657806332ed5b1214610222578063359afa491461027a5780635142bc1e146102c657610128565b8063025068041461012d578063119ce91b1461016b57806321b4b3dc146101b057806323d840f5146101ca575b600080fd5b61014a6004803603602081101561014357600080fd5b50356103ea565b60408051928352600160a060020a0390911660208301528051918290030190f35b6101976004803603604081101561018157600080fd5b5080359060200135600160a060020a031661040c565b6040805192835260208301919091528051918290030190f35b6101b861045d565b60408051918252519081900360200190f35b6101b8600480360360408110156101e057600080fd5b5080359060200135600160a060020a0316610463565b6101b86004803603604081101561020c57600080fd5b5080359060200135600160a060020a03166104ee565b61023f6004803603602081101561023857600080fd5b5035610533565b604080519687529415156020870152600160a060020a03909316858501526060850191909152608084015260a0830152519081900360c00190f35b6102b26004803603608081101561029057600080fd5b5080359060208101359060408101359060600135600160a060020a0316610573565b604080519115158252519081900360200190f35b610197610622565b6102b261062a565b6101b8600480360360808110156102ec57600080fd5b50803590602081013590600160a060020a036040820135811691606001351661062f565b6101b8610891565b6103356004803603602081101561032e57600080fd5b5035610896565b005b6101b86004803603602081101561034d57600080fd5b50356108c7565b6101b86004803603604081101561036a57600080fd5b50803590602001356108dc565b6103946004803603602081101561038d57600080fd5b50356108fd565b60408051600160a060020a039092168252519081900360200190f35b6102b2600480360360208110156103c657600080fd5b5035610918565b6102b2600480360360208110156103e357600080fd5b5035610931565b60006020819052908152604090208054600190910154600160a060020a031682565b600080610417611036565b5050506000828152600160208181526040808420600160a060020a0386168552600601825292839020835180850190945280548085529201549201829052909250929050565b60035481565b6000606483111580156104765750600083115b151561048157600080fd5b600061048d84846104ee565b604080518082018252958652600160a060020a0394851660208088019182526000848152908190529190912095518655516001909501805473ffffffffffffffffffffffffffffffffffffffff191695909416949094179092555090919050565b60408051602080820194909452600160a060020a03929092166c0100000000000000000000000002828201528051808303603401815260549092019052805191012090565b60016020819052600091825260409091208054918101546002820154600383015460049093015460ff831693610100909304600160a060020a0316929086565b600084815260016020819052604082200154859060ff16151561059557600080fd5b60008681526001602052604090206105ab611036565b50600381015460009081526020818152604080832081518083019092528054825260010154600160a060020a0316918101829052919015610606576020820151600160a060020a031633146105ff57600080fd5b5084610609565b50335b61061589828a8a610965565b9998505050505050505050565b6000600a9091565b600190565b600083815260208190526040812054811061064957600080fd5b60008511801561065a5750600a8511155b151561066557600080fd5b600354604080516c01000000000000000000000000300260208083019190915260348083018590528351808403909101815260549092019092528051910120906106b690600163ffffffff610c0816565b6003556106c161104d565b606081018781526080820187815233604080850182815281516c01000000000000000000000000938402602082810191909152600160a060020a038b8116909502603483015283516028818403018152604890920184528151918101919091208752600181880181815260008a81528284528581208a5180825592519381018054965189166101000274ffffffffffffffffffffffffffffffffffffffff001995151560ff1990981697909717949094169590951790925596516002808501919091559551600384015560a0880151600490930192909255948152929093529190205416151561082457600160a060020a03841615156107ed5780516000908152600260205260409020805473ffffffffffffffffffffffffffffffffffffffff191633179055610824565b80516000908152600260205260409020805473ffffffffffffffffffffffffffffffffffffffff1916600160a060020a0386161790555b80516000908152600260209081526040918290205482518a815233928101929092528183018990529151600160a060020a039092169184917f75b4ff136cc5de5957574c797de3334eb1c141271922b825eb071e0487ba2c5c919081900360600190a35095945050505050565b600a81565b60008181526001602081905260409091200154819060ff1615156108b957600080fd5b6108c38233610c21565b5050565b60009081526001602052604090206002015490565b60009182526001602090815260408084209284526005909201905290205490565b600260205260009081526040902054600160a060020a031681565b6000908152600160208190526040909120015460ff1690565b600081815260016020819052604082200154829060ff16151561095357600080fd5b61095c83610d26565b91505b50919050565b6000848152600160205260408120600281015484111561098457600080fd5b6001810154604080517f9588378e000000000000000000000000000000000000000000000000000000008152600160a060020a038881166004830152602482018a90529151600093610100900490921691639588378e91604480820192602092909190829003018186803b1580156109fb57600080fd5b505afa158015610a0f573d6000803e3d6000fd5b505050506040513d6020811015610a2557600080fd5b5051905060008111610a9857604080517f08c379a000000000000000000000000000000000000000000000000000000000815260206004820152601b60248201527f5f766f746572206d75737420686176652072657075746174696f6e0000000000604482015290519081900360640190fd5b83811015610aa557600080fd5b83801515610ab05750805b600160a060020a038716600090815260068401602052604090206001015415610add57610add8888610c21565b6000868152600584016020526040902054610aff90829063ffffffff610c0816565b60008781526005850160205260409020556004830154610b2690829063ffffffff610c0816565b60048401556040805180820182528781526020808201848152600160a060020a03808c16600081815260068a0185528681209551865592516001909501949094558754825260028352908490205484518b8152928301869052845193949116928c927f066c061a3792cb3eb64a441a928655fcbafb4a54b49725fe9cd2951df5e7189e92908290030190a460408051600160a060020a0389163314158152905189917fe715e19c865cb724f3c292cc2fffc24d9cdd398e179fb366f008cc73028e1c52919081900360200190a2610bfc88610d26565b98975050505050505050565b600082820183811015610c1a57600080fd5b9392505050565b6000828152600160205260409020610c37611036565b50600160a060020a03821660009081526006820160209081526040808320815180830183528154808252600190920154818501819052918552600586019093529220549091610c8c919063ffffffff610fa516565b815160009081526005840160209081526040909120919091558101516004830154610cbc9163ffffffff610fa516565b6004830155600160a060020a03808416600081815260068501602090815260408083208381556001018390558654835260029091528082205490519293169187917f0ecab23267930de581498fac1af19a95c888ec6583921ee9c47473e16245d3c891a450505050565b600081815260016020819052604082200154829060ff161515610d4857600080fd5b60008381526001602081815260408084209283015481517fb551c373000000000000000000000000000000000000000000000000000000008152600481018990529151939493610100909104600160a060020a03169263b551c3739260248082019391829003018186803b158015610dbf57600080fd5b505afa158015610dd3573d6000803e3d6000fd5b505050506040513d6020811015610de957600080fd5b505160038301546000908152602081905260408120549192505b60028401548111610f985760008181526005850160205260409020546064840483021015610f9057610e3361104d565b506040805160c08101825285548152600186015460ff8116151560208301526101009004600160a060020a0316918101919091526002850154606082015260038501546080820152600485015460a0820152610e8e88610fba565b80516000908152600260209081526040918290205482518581529182018790528251600160a060020a03909116928b927f37471b9c9d295ffb1309ad070b8964700bfb7b555e8e8292d0b6cbc7dba35d10929081900390910190a38060400151600160a060020a0316639d4c162d89846040518363ffffffff167c01000000000000000000000000000000000000000000000000000000000281526004018083815260200182815260200192505050602060405180830381600087803b158015610f5757600080fd5b505af1158015610f6b573d6000803e3d6000fd5b505050506040513d6020811015610f8157600080fd5b5051965061095f945050505050565b600101610e03565b5060009695505050505050565b600082821115610fb457600080fd5b50900390565b6000818152600160205260408120905b60028201548111610fee576000818152600583016020526040812055600101610fca565b505060009081526001602081905260408220828155908101805474ffffffffffffffffffffffffffffffffffffffffff19169055600281018290556003810182905560040155565b604080518082019091526000808252602082015290565b6040805160c081018252600080825260208201819052918101829052606081018290526080810182905260a08101919091529056fea165627a7a72305820ff1c11a11cf3590584d367a53dd17ef3cd7f6895bf5bac1795fcfe740f3889ed0029",
  "source": "pragma solidity ^0.5.4;\n\nimport \"../Reputation.sol\";\nimport \"./IntVoteInterface.sol\";\nimport \"openzeppelin-solidity/contracts/math/SafeMath.sol\";\nimport \"./VotingMachineCallbacksInterface.sol\";\nimport \"./ProposalExecuteInterface.sol\";\n\n\ncontract AbsoluteVote is IntVoteInterface {\n    using SafeMath for uint;\n\n    struct Parameters {\n        uint256 precReq; // how many percentages required for the proposal to be passed\n        address voteOnBehalf; //if this address is set so only this address is allowed\n                              // to vote of behalf of someone else.\n    }\n\n    struct Voter {\n        uint256 vote; // 0 - 'abstain'\n        uint256 reputation; // amount of voter's reputation\n    }\n\n    struct Proposal {\n        bytes32 organizationId; // the organization Id\n        bool open; // voting open flag\n        address callbacks;\n        uint256 numOfChoices;\n        bytes32 paramsHash; // the hash of the parameters of the proposal\n        uint256 totalVotes;\n        mapping(uint=>uint) votes;\n        mapping(address=>Voter) voters;\n    }\n\n    event AVVoteProposal(bytes32 indexed _proposalId, bool _isProxyVote);\n\n    mapping(bytes32=>Parameters) public parameters;  // A mapping from hashes to parameters\n    mapping(bytes32=>Proposal) public proposals; // Mapping from the ID of the proposal to the proposal itself.\n    mapping(bytes32=>address) public organizations;\n\n    uint256 public constant MAX_NUM_OF_CHOICES = 10;\n    uint256 public proposalsCnt; // Total amount of proposals\n\n  /**\n   * @dev Check that the proposal is votable (open and not executed yet)\n   */\n    modifier votable(bytes32 _proposalId) {\n        require(proposals[_proposalId].open);\n        _;\n    }\n\n    /**\n     * @dev register a new proposal with the given parameters. Every proposal has a unique ID which is being\n     * generated by calculating keccak256 of a incremented counter.\n     * @param _numOfChoices number of voting choices\n     * @param _paramsHash defined the parameters of the voting machine used for this proposal\n     * @param _organization address\n     * @return proposal's id.\n     */\n    function propose(uint256 _numOfChoices, bytes32 _paramsHash, address, address _organization)\n        external\n        returns(bytes32)\n    {\n        // Check valid params and number of choices:\n        require(parameters[_paramsHash].precReq > 0);\n        require(_numOfChoices > 0 && _numOfChoices <= MAX_NUM_OF_CHOICES);\n        // Generate a unique ID:\n        bytes32 proposalId = keccak256(abi.encodePacked(this, proposalsCnt));\n        proposalsCnt = proposalsCnt.add(1);\n        // Open proposal:\n        Proposal memory proposal;\n        proposal.numOfChoices = _numOfChoices;\n        proposal.paramsHash = _paramsHash;\n        proposal.callbacks = msg.sender;\n        proposal.organizationId = keccak256(abi.encodePacked(msg.sender, _organization));\n        proposal.open = true;\n        proposals[proposalId] = proposal;\n        if (organizations[proposal.organizationId] == address(0)) {\n            if (_organization == address(0)) {\n                organizations[proposal.organizationId] = msg.sender;\n            } else {\n                organizations[proposal.organizationId] = _organization;\n            }\n        }\n        emit NewProposal(proposalId, organizations[proposal.organizationId], _numOfChoices, msg.sender, _paramsHash);\n        return proposalId;\n    }\n\n    /**\n     * @dev voting function\n     * @param _proposalId id of the proposal\n     * @param _vote a value between 0 to and the proposal number of choices.\n     * @param _amount the reputation amount to vote with . if _amount == 0 it will use all voter reputation.\n     * @param _voter voter address\n     * @return bool true - the proposal has been executed\n     *              false - otherwise.\n     */\n    function vote(\n        bytes32 _proposalId,\n        uint256 _vote,\n        uint256 _amount,\n        address _voter)\n        external\n        votable(_proposalId)\n        returns(bool)\n        {\n\n        Proposal storage proposal = proposals[_proposalId];\n        Parameters memory params = parameters[proposal.paramsHash];\n        address voter;\n        if (params.voteOnBehalf != address(0)) {\n            require(msg.sender == params.voteOnBehalf);\n            voter = _voter;\n        } else {\n            voter = msg.sender;\n        }\n        return internalVote(_proposalId, voter, _vote, _amount);\n    }\n\n  /**\n   * @dev Cancel the vote of the msg.sender: subtract the reputation amount from the votes\n   * and delete the voter from the proposal struct\n   * @param _proposalId id of the proposal\n   */\n    function cancelVote(bytes32 _proposalId) external votable(_proposalId) {\n        cancelVoteInternal(_proposalId, msg.sender);\n    }\n\n    /**\n      * @dev execute check if the proposal has been decided, and if so, execute the proposal\n      * @param _proposalId the id of the proposal\n      * @return bool true - the proposal has been executed\n      *              false - otherwise.\n     */\n    function execute(bytes32 _proposalId) external votable(_proposalId) returns(bool) {\n        return _execute(_proposalId);\n    }\n\n  /**\n   * @dev getNumberOfChoices returns the number of choices possible in this proposal\n   * excluding the abstain vote (0)\n   * @param _proposalId the ID of the proposal\n   * @return uint256 that contains number of choices\n   */\n    function getNumberOfChoices(bytes32 _proposalId) external view returns(uint256) {\n        return proposals[_proposalId].numOfChoices;\n    }\n\n  /**\n   * @dev voteInfo returns the vote and the amount of reputation of the user committed to this proposal\n   * @param _proposalId the ID of the proposal\n   * @param _voter the address of the voter\n   * @return uint256 vote - the voters vote\n   *        uint256 reputation - amount of reputation committed by _voter to _proposalId\n   */\n    function voteInfo(bytes32 _proposalId, address _voter) external view returns(uint, uint) {\n        Voter memory voter = proposals[_proposalId].voters[_voter];\n        return (voter.vote, voter.reputation);\n    }\n\n    /**\n     * @dev voteStatus returns the reputation voted for a proposal for a specific voting choice.\n     * @param _proposalId the ID of the proposal\n     * @param _choice the index in the\n     * @return voted reputation for the given choice\n     */\n    function voteStatus(bytes32 _proposalId, uint256 _choice) external view returns(uint256) {\n        return proposals[_proposalId].votes[_choice];\n    }\n\n    /**\n      * @dev isVotable check if the proposal is votable\n      * @param _proposalId the ID of the proposal\n      * @return bool true or false\n    */\n    function isVotable(bytes32 _proposalId) external view returns(bool) {\n        return  proposals[_proposalId].open;\n    }\n\n    /**\n     * @dev isAbstainAllow returns if the voting machine allow abstain (0)\n     * @return bool true or false\n     */\n    function isAbstainAllow() external pure returns(bool) {\n        return true;\n    }\n\n    /**\n     * @dev getAllowedRangeOfChoices returns the allowed range of choices for a voting machine.\n     * @return min - minimum number of choices\n               max - maximum number of choices\n     */\n    function getAllowedRangeOfChoices() external pure returns(uint256 min, uint256 max) {\n        return (0, MAX_NUM_OF_CHOICES);\n    }\n\n    /**\n     * @dev hash the parameters, save them if necessary, and return the hash value\n    */\n    function setParameters(uint256 _precReq, address _voteOnBehalf) public returns(bytes32) {\n        require(_precReq <= 100 && _precReq > 0);\n        bytes32 hashedParameters = getParametersHash(_precReq, _voteOnBehalf);\n        parameters[hashedParameters] = Parameters({\n            precReq: _precReq,\n            voteOnBehalf: _voteOnBehalf\n        });\n        return hashedParameters;\n    }\n\n    /**\n     * @dev hashParameters returns a hash of the given parameters\n     */\n    function getParametersHash(uint256 _precReq, address _voteOnBehalf) public pure returns(bytes32) {\n        return keccak256(abi.encodePacked(_precReq, _voteOnBehalf));\n    }\n\n    function cancelVoteInternal(bytes32 _proposalId, address _voter) internal {\n        Proposal storage proposal = proposals[_proposalId];\n        Voter memory voter = proposal.voters[_voter];\n        proposal.votes[voter.vote] = (proposal.votes[voter.vote]).sub(voter.reputation);\n        proposal.totalVotes = (proposal.totalVotes).sub(voter.reputation);\n        delete proposal.voters[_voter];\n        emit CancelVoting(_proposalId, organizations[proposal.organizationId], _voter);\n    }\n\n    function deleteProposal(bytes32 _proposalId) internal {\n        Proposal storage proposal = proposals[_proposalId];\n        for (uint256 cnt = 0; cnt <= proposal.numOfChoices; cnt++) {\n            delete proposal.votes[cnt];\n        }\n        delete proposals[_proposalId];\n    }\n\n    /**\n      * @dev execute check if the proposal has been decided, and if so, execute the proposal\n      * @param _proposalId the id of the proposal\n      * @return bool true - the proposal has been executed\n      *              false - otherwise.\n     */\n    function _execute(bytes32 _proposalId) internal votable(_proposalId) returns(bool) {\n        Proposal storage proposal = proposals[_proposalId];\n        uint256 totalReputation =\n        VotingMachineCallbacksInterface(proposal.callbacks).getTotalReputationSupply(_proposalId);\n        uint256 precReq = parameters[proposal.paramsHash].precReq;\n        // Check if someone crossed the bar:\n        for (uint256 cnt = 0; cnt <= proposal.numOfChoices; cnt++) {\n            if (proposal.votes[cnt] > (totalReputation/100)*precReq) {\n                Proposal memory tmpProposal = proposal;\n                deleteProposal(_proposalId);\n                emit ExecuteProposal(_proposalId, organizations[tmpProposal.organizationId], cnt, totalReputation);\n                return ProposalExecuteInterface(tmpProposal.callbacks).executeProposal(_proposalId, int(cnt));\n            }\n        }\n        return false;\n    }\n\n    /**\n     * @dev Vote for a proposal, if the voter already voted, cancel the last vote and set a new one instead\n     * @param _proposalId id of the proposal\n     * @param _voter used in case the vote is cast for someone else\n     * @param _vote a value between 0 to and the proposal's number of choices.\n     * @return true in case of proposal execution otherwise false\n     * throws if proposal is not open or if it has been executed\n     * NB: executes the proposal if a decision has been reached\n     */\n    function internalVote(bytes32 _proposalId, address _voter, uint256 _vote, uint256 _rep) internal returns(bool) {\n        Proposal storage proposal = proposals[_proposalId];\n        // Check valid vote:\n        require(_vote <= proposal.numOfChoices);\n        // Check voter has enough reputation:\n        uint256 reputation = VotingMachineCallbacksInterface(proposal.callbacks).reputationOf(_voter, _proposalId);\n        require(reputation > 0, \"_voter must have reputation\");\n        require(reputation >= _rep);\n        uint256 rep = _rep;\n        if (rep == 0) {\n            rep = reputation;\n        }\n        // If this voter has already voted, first cancel the vote:\n        if (proposal.voters[_voter].reputation != 0) {\n            cancelVoteInternal(_proposalId, _voter);\n        }\n        // The voting itself:\n        proposal.votes[_vote] = rep.add(proposal.votes[_vote]);\n        proposal.totalVotes = rep.add(proposal.totalVotes);\n        proposal.voters[_voter] = Voter({\n            reputation: rep,\n            vote: _vote\n        });\n        // Event:\n        emit VoteProposal(_proposalId, organizations[proposal.organizationId], _voter, _vote, rep);\n        emit AVVoteProposal(_proposalId, (_voter != msg.sender));\n        // execute the proposal if this vote was decisive:\n        return _execute(_proposalId);\n    }\n}\n",
  "sourcePath": "@daostack/infra/contracts/votingMachines/AbsoluteVote.sol",
  "compiler": {
    "name": "solc",
    "version": "0.5.4+commit.9549d8ff.Emscripten.clang"
  },
  "schemaVersion": "3.0.16",
  "updatedAt": "2019-10-24T21:26:22.905Z",
  "devdoc": {
    "methods": {
      "cancelVote(bytes32)": {
        "details": "Cancel the vote of the msg.sender: subtract the reputation amount from the votes and delete the voter from the proposal struct",
        "params": {
          "_proposalId": "id of the proposal"
        }
      },
      "execute(bytes32)": {
        "details": "execute check if the proposal has been decided, and if so, execute the proposal",
        "params": {
          "_proposalId": "the id of the proposal"
        },
        "return": "bool true - the proposal has been executed             false - otherwise."
      },
      "getAllowedRangeOfChoices()": {
        "details": "getAllowedRangeOfChoices returns the allowed range of choices for a voting machine.",
        "return": "min - minimum number of choices max - maximum number of choices"
      },
      "getNumberOfChoices(bytes32)": {
        "details": "getNumberOfChoices returns the number of choices possible in this proposal excluding the abstain vote (0)",
        "params": {
          "_proposalId": "the ID of the proposal"
        },
        "return": "uint256 that contains number of choices"
      },
      "getParametersHash(uint256,address)": {
        "details": "hashParameters returns a hash of the given parameters"
      },
      "isAbstainAllow()": {
        "details": "isAbstainAllow returns if the voting machine allow abstain (0)",
        "return": "bool true or false"
      },
      "isVotable(bytes32)": {
        "details": "isVotable check if the proposal is votable",
        "params": {
          "_proposalId": "the ID of the proposal"
        },
        "return": "bool true or false"
      },
      "propose(uint256,bytes32,address,address)": {
        "details": "register a new proposal with the given parameters. Every proposal has a unique ID which is being generated by calculating keccak256 of a incremented counter.",
        "params": {
          "_numOfChoices": "number of voting choices",
          "_organization": "address",
          "_paramsHash": "defined the parameters of the voting machine used for this proposal"
        },
        "return": "proposal's id."
      },
      "setParameters(uint256,address)": {
        "details": "hash the parameters, save them if necessary, and return the hash value"
      },
      "vote(bytes32,uint256,uint256,address)": {
        "details": "voting function",
        "params": {
          "_amount": "the reputation amount to vote with . if _amount == 0 it will use all voter reputation.",
          "_proposalId": "id of the proposal",
          "_vote": "a value between 0 to and the proposal number of choices.",
          "_voter": "voter address"
        },
        "return": "bool true - the proposal has been executed             false - otherwise."
      },
      "voteInfo(bytes32,address)": {
        "details": "voteInfo returns the vote and the amount of reputation of the user committed to this proposal",
        "params": {
          "_proposalId": "the ID of the proposal",
          "_voter": "the address of the voter"
        },
        "return": "uint256 vote - the voters vote       uint256 reputation - amount of reputation committed by _voter to _proposalId"
      },
      "voteStatus(bytes32,uint256)": {
        "details": "voteStatus returns the reputation voted for a proposal for a specific voting choice.",
        "params": {
          "_choice": "the index in the",
          "_proposalId": "the ID of the proposal"
        },
        "return": "voted reputation for the given choice"
      }
    }
  },
  "userdoc": {
    "methods": {}
  }
}