{
  "contractName": "ActivePeriod",
  "abi": [
    {
      "constant": true,
      "inputs": [],
      "name": "isActive",
      "outputs": [
        {
          "name": "",
          "type": "bool"
        }
      ],
      "payable": false,
      "stateMutability": "view",
      "type": "function"
    },
    {
      "constant": true,
      "inputs": [],
      "name": "periodEnd",
      "outputs": [
        {
          "name": "",
          "type": "uint256"
        }
      ],
      "payable": false,
      "stateMutability": "view",
      "type": "function"
    },
    {
      "constant": true,
      "inputs": [],
      "name": "periodStart",
      "outputs": [
        {
          "name": "",
          "type": "uint256"
        }
      ],
      "payable": false,
      "stateMutability": "view",
      "type": "function"
    },
    {
      "inputs": [
        {
          "name": "_periodStart",
          "type": "uint256"
        },
        {
          "name": "_periodEnd",
          "type": "uint256"
        },
        {
          "name": "_avatar",
          "type": "address"
        }
      ],
      "payable": false,
      "stateMutability": "nonpayable",
      "type": "constructor"
    },
    {
      "anonymous": false,
      "inputs": [
        {
          "indexed": true,
          "name": "by",
          "type": "address"
        },
        {
          "indexed": false,
          "name": "time",
          "type": "uint256"
        }
      ],
      "name": "SchemeStarted",
      "type": "event"
    },
    {
      "anonymous": false,
      "inputs": [
        {
          "indexed": true,
          "name": "by",
          "type": "address"
        },
        {
          "indexed": false,
          "name": "time",
          "type": "uint256"
        }
      ],
      "name": "SchemeEnded",
      "type": "event"
    },
    {
      "constant": false,
      "inputs": [],
      "name": "start",
      "outputs": [],
      "payable": false,
      "stateMutability": "nonpayable",
      "type": "function"
    },
    {
      "constant": false,
      "inputs": [],
      "name": "end",
      "outputs": [],
      "payable": false,
      "stateMutability": "nonpayable",
      "type": "function"
    }
  ],
  "bytecode": "0x608060405234801561001057600080fd5b5060405160608061044a8339810180604052606081101561003057600080fd5b5080516020820151604090920151909190818310610099576040517f08c379a00000000000000000000000000000000000000000000000000000000081526004018080602001828103825260268152602001806104246026913960400191505060405180910390fd5b6000929092556001556002805460ff19600160a060020a039093166101000261010060a860020a031990911617919091169055610349806100db6000396000f3fe608060405234801561001057600080fd5b5060043610610073577c0100000000000000000000000000000000000000000000000000000000600035046322f3e2d48114610078578063506ec09514610094578063be9a6555146100ae578063eda4e6d6146100b8578063efbe1c1c146100c0575b600080fd5b6100806100c8565b604080519115158252519081900360200190f35b61009c6100d1565b60408051918252519081900360200190f35b6100b66100d7565b005b61009c6101e0565b6100b66101e6565b60025460ff1681565b60015481565b60005442101580156100ea575060015442105b1515610140576040805160e560020a62461bcd02815260206004820152600d60248201527f6e6f7420696e20706572696f6400000000000000000000000000000000000000604482015290519081900360640190fd5b60025460ff161561019b576040805160e560020a62461bcd02815260206004820152601260248201527f63616e6e6f742073746172742074776963650000000000000000000000000000604482015290519081900360640190fd5b6002805460ff1916600117905560408051428152905133917f727dd98701807c5fdf715b9f1fd7d87461a558e2ab3e05935add76e42e330fa3919081900360200190a2565b60005481565b600154421015610240576040805160e560020a62461bcd02815260206004820152601460248201527f706572696f6420686173206e6f7420656e646564000000000000000000000000604482015290519081900360640190fd5b60025461026790610100900473ffffffffffffffffffffffffffffffffffffffff16610269565b565b60025460ff1615156102c5576040805160e560020a62461bcd02815260206004820152600d60248201527f6973206e6f742061637469766500000000000000000000000000000000000000604482015290519081900360640190fd5b6002805460ff1916905560408051428152905133917ef689ee9beb942c1c9c0d6642687ace05a9000d5f2979d344163c57829fa779919081900360200190a28073ffffffffffffffffffffffffffffffffffffffff16fffea165627a7a72305820abb710b013e37d3932f11df2615f322f1255e55f9bc2db8e181ee533ff929c8e002973746172742063616e6e6f74206265206166746572206e6f7220657175616c20746f20656e64",
  "source": "pragma solidity 0.5.4;\n\nimport \"@daostack/arc/contracts/controller/Avatar.sol\";\n\n\n/* @title Abstract contract responsible for ensuring a scheme is only usable within a set period\n */\ncontract ActivePeriod {\n    uint256 public periodStart;\n    uint256 public periodEnd;\n\n    bool public isActive;\n\n    Avatar avatar;\n\n    event SchemeStarted(address indexed by, uint256 time);\n    event SchemeEnded(address indexed by, uint256 time);\n\n    /* @dev modifier that requires scheme to be active\n     */\n    modifier requireActive() {\n        require(isActive, \"is not active\");\n        _;\n    }\n\n    /* @dev modifier that requires scheme to not be active\n     */\n    modifier requireNotActive() {\n        require(!isActive, \"cannot start twice\");\n        _;\n    }\n\n    /* @dev modifier that requires current time to be after period start and before period end\n     */\n    modifier requireInPeriod() {\n        require(now >= periodStart && now < periodEnd, \"not in period\");\n        _;\n    }\n\n    /* @dev modifier that requires current time to be after period end\n     */\n    modifier requirePeriodEnd() {\n        require(now >= periodEnd, \"period has not ended\");\n        _;\n    }\n\n    /* @dev Constructor. requires end period to be larger than start period\n     * Sets local period parameters and sets isActive to false\n     * @param _periodStart The time from when the contract can be started\n     * @param _periodEnd The time from when the contract can be ended\n     * @param _avatar DAO avatar\n     */\n    constructor(uint256 _periodStart, uint256 _periodEnd, Avatar _avatar) public {\n        require(_periodStart < _periodEnd, \"start cannot be after nor equal to end\");\n\n        periodStart = _periodStart;\n        periodEnd = _periodEnd;\n        avatar = _avatar;\n\n        isActive = false;\n    }\n\n    /* @dev Function to start scheme. Must be inactive and within period.\n     * Sets isActive to true and emits event with address that started and\n     * current time.\n     */\n    function start() public requireInPeriod requireNotActive {\n        isActive = true;\n        emit SchemeStarted(msg.sender, now);\n    }\n\n    /* @dev Function to end scheme. Must be after assigned period end.\n     * Calls internal function internalEnd, passing along the avatar\n     * @param _avatar the avatar of the dao\n     */\n    function end() public requirePeriodEnd {\n        return internalEnd(avatar);\n    }\n\n    /* @dev internal end function. Must be active to run.\n     * Sets contract to inactive, emits an event with caller and\n     * current time, and self-destructs the contract, transferring any\n     * eth in the contract to the avatar address\n     * @param _avatar the avatar of the dao\n     */\n    function internalEnd(Avatar _avatar) internal requireActive {\n        isActive = false;\n        emit SchemeEnded(msg.sender, now);\n        selfdestruct(address(_avatar));\n    }\n}\n",
  "sourcePath": "/Users/hadar/workspace/GoodDollar/GoodBootstrap/packages/contracts/contracts/dao/schemes/ActivePeriod.sol",
  "compiler": {
    "name": "solc",
    "version": "0.5.4+commit.9549d8ff.Emscripten.clang"
  },
  "schemaVersion": "3.0.16",
  "updatedAt": "2020-07-07T14:28:01.430Z",
  "devdoc": {
    "methods": {}
  },
  "userdoc": {
    "methods": {}
  }
}