{
  "contractName": "ActivePeriod",
  "abi": [
    {
      "constant": true,
      "inputs": [],
      "name": "isActive",
      "outputs": [
        {
          "name": "",
          "type": "bool"
        }
      ],
      "payable": false,
      "stateMutability": "view",
      "type": "function"
    },
    {
      "constant": true,
      "inputs": [],
      "name": "periodEnd",
      "outputs": [
        {
          "name": "",
          "type": "uint256"
        }
      ],
      "payable": false,
      "stateMutability": "view",
      "type": "function"
    },
    {
      "constant": true,
      "inputs": [],
      "name": "periodStart",
      "outputs": [
        {
          "name": "",
          "type": "uint256"
        }
      ],
      "payable": false,
      "stateMutability": "view",
      "type": "function"
    },
    {
      "inputs": [
        {
          "name": "_periodStart",
          "type": "uint256"
        },
        {
          "name": "_periodEnd",
          "type": "uint256"
        }
      ],
      "payable": false,
      "stateMutability": "nonpayable",
      "type": "constructor"
    },
    {
      "anonymous": false,
      "inputs": [
        {
          "indexed": true,
          "name": "by",
          "type": "address"
        },
        {
          "indexed": false,
          "name": "time",
          "type": "uint256"
        }
      ],
      "name": "SchemeStarted",
      "type": "event"
    },
    {
      "anonymous": false,
      "inputs": [
        {
          "indexed": true,
          "name": "by",
          "type": "address"
        },
        {
          "indexed": false,
          "name": "time",
          "type": "uint256"
        }
      ],
      "name": "SchemeEnded",
      "type": "event"
    },
    {
      "constant": false,
      "inputs": [],
      "name": "start",
      "outputs": [],
      "payable": false,
      "stateMutability": "nonpayable",
      "type": "function"
    },
    {
      "constant": false,
      "inputs": [
        {
          "name": "_avatar",
          "type": "address"
        }
      ],
      "name": "end",
      "outputs": [],
      "payable": false,
      "stateMutability": "nonpayable",
      "type": "function"
    }
  ],
  "bytecode": "0x608060405234801561001057600080fd5b506040516040806104308339810180604052604081101561003057600080fd5b508051602090910151808210610091576040517f08c379a000000000000000000000000000000000000000000000000000000000815260040180806020018281038252602681526020018061040a6026913960400191505060405180910390fd5b6000919091556001556002805460ff19169055610357806100b36000396000f3fe608060405234801561001057600080fd5b5060043610610073577c0100000000000000000000000000000000000000000000000000000000600035046322f3e2d48114610078578063506ec095146100945780638c4dd39d146100ae578063be9a6555146100e3578063eda4e6d6146100eb575b600080fd5b6100806100f3565b604080519115158252519081900360200190f35b61009c6100fc565b60408051918252519081900360200190f35b6100e1600480360360208110156100c457600080fd5b503573ffffffffffffffffffffffffffffffffffffffff16610102565b005b6100e1610168565b61009c610271565b60025460ff1681565b60015481565b60015442101561015c576040805160e560020a62461bcd02815260206004820152601460248201527f706572696f6420686173206e6f7420656e646564000000000000000000000000604482015290519081900360640190fd5b61016581610277565b50565b600054421015801561017b575060015442105b15156101d1576040805160e560020a62461bcd02815260206004820152600d60248201527f6e6f7420696e20706572696f6400000000000000000000000000000000000000604482015290519081900360640190fd5b60025460ff161561022c576040805160e560020a62461bcd02815260206004820152601260248201527f63616e6e6f742073746172742074776963650000000000000000000000000000604482015290519081900360640190fd5b6002805460ff1916600117905560408051428152905133917f727dd98701807c5fdf715b9f1fd7d87461a558e2ab3e05935add76e42e330fa3919081900360200190a2565b60005481565b60025460ff1615156102d3576040805160e560020a62461bcd02815260206004820152600d60248201527f6973206e6f742061637469766500000000000000000000000000000000000000604482015290519081900360640190fd5b6002805460ff1916905560408051428152905133917ef689ee9beb942c1c9c0d6642687ace05a9000d5f2979d344163c57829fa779919081900360200190a28073ffffffffffffffffffffffffffffffffffffffff16fffea165627a7a7230582027511fba88369eb69eda146de746bbf26249aab23d1512f5eef3fc30ab252807002973746172742063616e6e6f74206265206166746572206e6f7220657175616c20746f20656e64",
  "source": "pragma solidity 0.5.4;\n\nimport \"@daostack/arc/contracts/controller/Avatar.sol\";\n\n/* @title Abstract contract responsible for ensuring a scheme is only usable within a set period\n */\ncontract ActivePeriod {\n\n    uint public periodStart;\n    uint public periodEnd;\n\n    bool public isActive;\n\n    event SchemeStarted(address indexed by, uint time);\n    event SchemeEnded(address indexed by, uint time);\n\n    /* @dev requires scheme to be active \n     */\n    modifier requireActive() {\n        require(isActive, \"is not active\");\n        _;\n    }\n\n    /* @dev requires scheme to not be active\n     */\n    modifier requireNotActive() {\n        require(!isActive, \"cannot start twice\");\n        _;\n    }\n\n    /* @dev requires current time to be after period start and before period end\n     */\n    modifier requireInPeriod() {\n        require(now >= periodStart && now < periodEnd, \"not in period\");\n        _;\n    }\n\n    /* @dev requires current time to be after period end\n     */\n    modifier requirePeriodEnd() {\n        require(now >= periodEnd, \"period has not ended\");\n        _;\n    }\n\n    /* @dev makes sure that the end period is after the start period\n     * and sets the contract to inactive\n     * @param _periodStart The time from when the contract can be started\n     * @param _periodEnd The time from which the contract can be ended\n     */\n    constructor( uint _periodStart, uint _periodEnd) public {\n        require(_periodStart < _periodEnd, \"start cannot be after nor equal to end\");\n\n        periodStart = _periodStart;\n        periodEnd = _periodEnd;\n\n        isActive = false;\n    }\n\n    /* @dev Sets scheme to active if inactive and within period\n     */\n    function start() public requireInPeriod requireNotActive {\n        isActive = true;\n        emit SchemeStarted(msg.sender, now);\n    }\n\n    /* @dev public end function. Calls internalEnd if after period end\n     */\n    function end(Avatar _avatar) public requirePeriodEnd {\n        return internalEnd(_avatar);\n    }\n\n    /* @dev internal end function. Sets scheme to inactive if active\n     */\n    function internalEnd(Avatar _avatar) internal requireActive {\n        isActive = false;\n        emit SchemeEnded(msg.sender, now);\n        selfdestruct(address(_avatar));\n    }\n}",
  "sourcePath": "/Users/hadar/workspace/GoodDollar/GoodBootstrap/packages/contracts/contracts/dao/schemes/ActivePeriod.sol",
  "compiler": {
    "name": "solc",
    "version": "0.5.4+commit.9549d8ff.Emscripten.clang"
  },
  "schemaVersion": "3.0.16",
  "updatedAt": "2019-10-28T16:40:49.092Z",
  "devdoc": {
    "methods": {}
  },
  "userdoc": {
    "methods": {}
  }
}