{
  "contractName": "ActivePeriodMock",
  "abi": [
    {
      "constant": true,
      "inputs": [],
      "name": "isActive",
      "outputs": [
        {
          "name": "",
          "type": "bool"
        }
      ],
      "payable": false,
      "stateMutability": "view",
      "type": "function"
    },
    {
      "constant": true,
      "inputs": [],
      "name": "periodEnd",
      "outputs": [
        {
          "name": "",
          "type": "uint256"
        }
      ],
      "payable": false,
      "stateMutability": "view",
      "type": "function"
    },
    {
      "constant": true,
      "inputs": [],
      "name": "periodStart",
      "outputs": [
        {
          "name": "",
          "type": "uint256"
        }
      ],
      "payable": false,
      "stateMutability": "view",
      "type": "function"
    },
    {
      "inputs": [
        {
          "name": "_periodStart",
          "type": "uint256"
        },
        {
          "name": "_periodEnd",
          "type": "uint256"
        }
      ],
      "payable": false,
      "stateMutability": "nonpayable",
      "type": "constructor"
    },
    {
      "anonymous": false,
      "inputs": [
        {
          "indexed": true,
          "name": "by",
          "type": "address"
        },
        {
          "indexed": false,
          "name": "time",
          "type": "uint256"
        }
      ],
      "name": "SchemeStarted",
      "type": "event"
    },
    {
      "anonymous": false,
      "inputs": [
        {
          "indexed": true,
          "name": "by",
          "type": "address"
        },
        {
          "indexed": false,
          "name": "time",
          "type": "uint256"
        }
      ],
      "name": "SchemeEnded",
      "type": "event"
    },
    {
      "constant": false,
      "inputs": [],
      "name": "start",
      "outputs": [],
      "payable": false,
      "stateMutability": "nonpayable",
      "type": "function"
    },
    {
      "constant": false,
      "inputs": [
        {
          "name": "_avatar",
          "type": "address"
        }
      ],
      "name": "end",
      "outputs": [],
      "payable": false,
      "stateMutability": "nonpayable",
      "type": "function"
    }
  ],
  "bytecode": "0x608060405234801561001057600080fd5b506040516040806104298339810180604052604081101561003057600080fd5b5080516020909101518181808210610093576040517f08c379a00000000000000000000000000000000000000000000000000000000081526004018080602001828103825260268152602001806104036026913960400191505060405180910390fd5b60009190915560015550506002805460ff1916905561034c806100b76000396000f3fe608060405234801561001057600080fd5b5060043610610073577c0100000000000000000000000000000000000000000000000000000000600035046322f3e2d48114610078578063506ec095146100945780638c4dd39d146100ae578063be9a6555146100e3578063eda4e6d6146100eb575b600080fd5b6100806100f3565b604080519115158252519081900360200190f35b61009c6100fc565b60408051918252519081900360200190f35b6100e1600480360360208110156100c457600080fd5b503573ffffffffffffffffffffffffffffffffffffffff16610102565b005b6100e161010e565b61009c610118565b60025460ff1681565b60015481565b61010b8161011e565b50565b6101166101e9565b565b60005481565b60025460ff16151561019157604080517f08c379a000000000000000000000000000000000000000000000000000000000815260206004820152600d60248201527f6973206e6f742061637469766500000000000000000000000000000000000000604482015290519081900360640190fd5b6002805460ff1916905560408051428152905133917ef689ee9beb942c1c9c0d6642687ace05a9000d5f2979d344163c57829fa779919081900360200190a28073ffffffffffffffffffffffffffffffffffffffff16ff5b60005442101580156101fc575060015442105b151561026957604080517f08c379a000000000000000000000000000000000000000000000000000000000815260206004820152600d60248201527f6e6f7420696e20706572696f6400000000000000000000000000000000000000604482015290519081900360640190fd5b60025460ff16156102db57604080517f08c379a000000000000000000000000000000000000000000000000000000000815260206004820152601260248201527f63616e6e6f742073746172742074776963650000000000000000000000000000604482015290519081900360640190fd5b6002805460ff1916600117905560408051428152905133917f727dd98701807c5fdf715b9f1fd7d87461a558e2ab3e05935add76e42e330fa3919081900360200190a256fea165627a7a72305820a7b246c6db3d8af967ad8d7c2b4863934578fd0619808925fe950a75b93d952e002973746172742063616e6e6f74206265206166746572206e6f7220657175616c20746f20656e64",
  "source": "pragma solidity 0.5.4;\n\nimport \"../dao/schemes/ActivePeriod.sol\";\nimport \"@daostack/arc/contracts/controller/Avatar.sol\";\n\ncontract ActivePeriodMock is ActivePeriod {\n\n    constructor( uint256 _periodStart, uint256 _periodEnd) public ActivePeriod(_periodStart, _periodEnd) {}\n\n    function start() public {\n        super.start();\n    }\n\n    function end(Avatar _avatar) public {\n        super.internalEnd(_avatar);\n    }\n}",
  "sourcePath": "/Users/hadar/workspace/GoodDollar/GoodBootstrap/packages/contracts/contracts/mocks/ActivePeriodMock.sol",
  "compiler": {
    "name": "solc",
    "version": "0.5.4+commit.9549d8ff.Emscripten.clang"
  },
  "schemaVersion": "3.0.16",
  "updatedAt": "2020-03-29T19:34:20.408Z",
  "devdoc": {
    "methods": {}
  },
  "userdoc": {
    "methods": {}
  }
}