{
  "contractName": "ActivePeriodMock",
  "abi": [
    {
      "constant": true,
      "inputs": [],
      "name": "isActive",
      "outputs": [
        {
          "name": "",
          "type": "bool"
        }
      ],
      "payable": false,
      "stateMutability": "view",
      "type": "function"
    },
    {
      "constant": true,
      "inputs": [],
      "name": "periodEnd",
      "outputs": [
        {
          "name": "",
          "type": "uint256"
        }
      ],
      "payable": false,
      "stateMutability": "view",
      "type": "function"
    },
    {
      "constant": true,
      "inputs": [],
      "name": "periodStart",
      "outputs": [
        {
          "name": "",
          "type": "uint256"
        }
      ],
      "payable": false,
      "stateMutability": "view",
      "type": "function"
    },
    {
      "inputs": [
        {
          "name": "_periodStart",
          "type": "uint256"
        },
        {
          "name": "_periodEnd",
          "type": "uint256"
        },
        {
          "name": "_avatar",
          "type": "address"
        }
      ],
      "payable": false,
      "stateMutability": "nonpayable",
      "type": "constructor"
    },
    {
      "anonymous": false,
      "inputs": [
        {
          "indexed": true,
          "name": "by",
          "type": "address"
        },
        {
          "indexed": false,
          "name": "time",
          "type": "uint256"
        }
      ],
      "name": "SchemeStarted",
      "type": "event"
    },
    {
      "anonymous": false,
      "inputs": [
        {
          "indexed": true,
          "name": "by",
          "type": "address"
        },
        {
          "indexed": false,
          "name": "time",
          "type": "uint256"
        }
      ],
      "name": "SchemeEnded",
      "type": "event"
    },
    {
      "constant": false,
      "inputs": [],
      "name": "start",
      "outputs": [],
      "payable": false,
      "stateMutability": "nonpayable",
      "type": "function"
    },
    {
      "constant": false,
      "inputs": [],
      "name": "end",
      "outputs": [],
      "payable": false,
      "stateMutability": "nonpayable",
      "type": "function"
    }
  ],
  "bytecode": "0x608060405234801561001057600080fd5b506040516060806104438339810180604052606081101561003057600080fd5b508051602082015160409092015190919082828281831061009c576040517f08c379a000000000000000000000000000000000000000000000000000000000815260040180806020018281038252602681526020018061041d6026913960400191505060405180910390fd5b6000929092556001556002805460ff19600160a060020a039093166101000261010060a860020a03199091161791909116905550505061033c806100e16000396000f3fe608060405234801561001057600080fd5b5060043610610073577c0100000000000000000000000000000000000000000000000000000000600035046322f3e2d48114610078578063506ec09514610094578063be9a6555146100ae578063eda4e6d6146100b8578063efbe1c1c146100c0575b600080fd5b6100806100c8565b604080519115158252519081900360200190f35b61009c6100d1565b60408051918252519081900360200190f35b6100b66100d7565b005b61009c6100e1565b6100b66100e7565b60025460ff1681565b60015481565b6100df61010e565b565b60005481565b6002546100df90610100900473ffffffffffffffffffffffffffffffffffffffff16610245565b6000544210158015610121575060015442105b151561018e57604080517f08c379a000000000000000000000000000000000000000000000000000000000815260206004820152600d60248201527f6e6f7420696e20706572696f6400000000000000000000000000000000000000604482015290519081900360640190fd5b60025460ff161561020057604080517f08c379a000000000000000000000000000000000000000000000000000000000815260206004820152601260248201527f63616e6e6f742073746172742074776963650000000000000000000000000000604482015290519081900360640190fd5b6002805460ff1916600117905560408051428152905133917f727dd98701807c5fdf715b9f1fd7d87461a558e2ab3e05935add76e42e330fa3919081900360200190a2565b60025460ff1615156102b857604080517f08c379a000000000000000000000000000000000000000000000000000000000815260206004820152600d60248201527f6973206e6f742061637469766500000000000000000000000000000000000000604482015290519081900360640190fd5b6002805460ff1916905560408051428152905133917ef689ee9beb942c1c9c0d6642687ace05a9000d5f2979d344163c57829fa779919081900360200190a28073ffffffffffffffffffffffffffffffffffffffff16fffea165627a7a72305820e1fd5d6d63fa56c11d10b359c345c3f673d98cfc4c9cb26a9b50c46246e7d4a6002973746172742063616e6e6f74206265206166746572206e6f7220657175616c20746f20656e64",
  "source": "pragma solidity 0.5.4;\n\nimport \"../dao/schemes/ActivePeriod.sol\";\nimport \"@daostack/arc/contracts/controller/Avatar.sol\";\n\n\ncontract ActivePeriodMock is ActivePeriod {\n    constructor(uint256 _periodStart, uint256 _periodEnd, Avatar _avatar)\n        public\n        ActivePeriod(_periodStart, _periodEnd, _avatar)\n    {}\n\n    function start() public {\n        super.start();\n    }\n\n    function end() public {\n        super.internalEnd(avatar);\n    }\n}\n",
  "sourcePath": "/Users/hadar/workspace/GoodDollar/GoodBootstrap/packages/contracts/contracts/mocks/ActivePeriodMock.sol",
  "compiler": {
    "name": "solc",
    "version": "0.5.4+commit.9549d8ff.Emscripten.clang"
  },
  "schemaVersion": "3.0.16",
  "updatedAt": "2020-07-07T14:28:01.644Z",
  "devdoc": {
    "methods": {}
  },
  "userdoc": {
    "methods": {}
  }
}