{
  "contractName": "AddAdmin",
  "abi": [
    {
      "constant": false,
      "inputs": [
        {
          "name": "_avatar",
          "type": "address"
        }
      ],
      "name": "setAvatar",
      "outputs": [],
      "payable": false,
      "stateMutability": "nonpayable",
      "type": "function"
    },
    {
      "constant": true,
      "inputs": [],
      "name": "isRegistered",
      "outputs": [
        {
          "name": "",
          "type": "bool"
        }
      ],
      "payable": false,
      "stateMutability": "view",
      "type": "function"
    },
    {
      "constant": true,
      "inputs": [],
      "name": "identity",
      "outputs": [
        {
          "name": "",
          "type": "address"
        }
      ],
      "payable": false,
      "stateMutability": "view",
      "type": "function"
    },
    {
      "constant": false,
      "inputs": [
        {
          "name": "_identity",
          "type": "address"
        }
      ],
      "name": "setIdentity",
      "outputs": [],
      "payable": false,
      "stateMutability": "nonpayable",
      "type": "function"
    },
    {
      "constant": false,
      "inputs": [],
      "name": "renounceOwnership",
      "outputs": [],
      "payable": false,
      "stateMutability": "nonpayable",
      "type": "function"
    },
    {
      "constant": true,
      "inputs": [],
      "name": "owner",
      "outputs": [
        {
          "name": "",
          "type": "address"
        }
      ],
      "payable": false,
      "stateMutability": "view",
      "type": "function"
    },
    {
      "constant": true,
      "inputs": [],
      "name": "isOwner",
      "outputs": [
        {
          "name": "",
          "type": "bool"
        }
      ],
      "payable": false,
      "stateMutability": "view",
      "type": "function"
    },
    {
      "constant": true,
      "inputs": [
        {
          "name": "scheme",
          "type": "address"
        }
      ],
      "name": "isRegistered",
      "outputs": [
        {
          "name": "",
          "type": "bool"
        }
      ],
      "payable": false,
      "stateMutability": "view",
      "type": "function"
    },
    {
      "constant": false,
      "inputs": [
        {
          "name": "newOwner",
          "type": "address"
        }
      ],
      "name": "transferOwnership",
      "outputs": [],
      "payable": false,
      "stateMutability": "nonpayable",
      "type": "function"
    },
    {
      "constant": true,
      "inputs": [],
      "name": "admin",
      "outputs": [
        {
          "name": "",
          "type": "address"
        }
      ],
      "payable": false,
      "stateMutability": "view",
      "type": "function"
    },
    {
      "inputs": [
        {
          "name": "_avatar",
          "type": "address"
        },
        {
          "name": "_identity",
          "type": "address"
        },
        {
          "name": "_admin",
          "type": "address"
        }
      ],
      "payable": false,
      "stateMutability": "nonpayable",
      "type": "constructor"
    },
    {
      "anonymous": false,
      "inputs": [
        {
          "indexed": true,
          "name": "previousOwner",
          "type": "address"
        },
        {
          "indexed": true,
          "name": "newOwner",
          "type": "address"
        }
      ],
      "name": "OwnershipTransferred",
      "type": "event"
    },
    {
      "constant": false,
      "inputs": [],
      "name": "start",
      "outputs": [],
      "payable": false,
      "stateMutability": "nonpayable",
      "type": "function"
    }
  ],
  "bytecode": "0x608060405260028054600160a060020a031916905534801561002057600080fd5b50604051606080610bc38339810180604052606081101561004057600080fd5b508051602082015160409283015160008054600160a060020a0319163317808255945193949293919284928692600160a060020a039290921691907f8be0079c531659141344cd1fd0a4f28419497f9722a3daafe3b4186f6b6457e0908290a360018054600160a060020a031916600160a060020a038381169190911791829055161561017d57600160009054906101000a9004600160a060020a0316600160a060020a0316638da5cb5b6040518163ffffffff167c010000000000000000000000000000000000000000000000000000000002815260040160206040518083038186803b15801561013157600080fd5b505afa158015610145573d6000803e3d6000fd5b505050506040513d602081101561015b57600080fd5b505160028054600160a060020a031916600160a060020a039092169190911790555b50600160a060020a03811615156101f557604080517f08c379a000000000000000000000000000000000000000000000000000000000815260206004820152601960248201527f537570706c696564206964656e74697479206973206e756c6c00000000000000604482015290519081900360640190fd5b60038054600160a060020a031916600160a060020a039283161790558116151561028057604080517f08c379a000000000000000000000000000000000000000000000000000000000815260206004820152601c60248201527f61646d696e2063616e6e6f74206265206e756c6c206164647265737300000000604482015290519081900360640190fd5b60048054600160a060020a03938416600160a060020a0319918216179091556005805492909316911617905550610907806102bc6000396000f3fe608060405234801561001057600080fd5b50600436106100c6576000357c0100000000000000000000000000000000000000000000000000000000900480638da5cb5b1161008e5780638da5cb5b146101615780638f32d59b14610169578063be9a655514610171578063c3c5a54714610179578063f2fde38b1461019f578063f851a440146101c5576100c6565b8063086cfca8146100cb57806322366844146100f35780632c159a1a1461010f5780635d5bf17814610133578063715018a614610159575b600080fd5b6100f1600480360360208110156100e157600080fd5b5035600160a060020a03166101cd565b005b6100fb6102bd565b604080519115158252519081900360200190f35b6101176102cd565b60408051600160a060020a039092168252519081900360200190f35b6100f16004803603602081101561014957600080fd5b5035600160a060020a03166102dc565b6100f161040c565b610117610476565b6100fb610485565b6100f1610496565b6100fb6004803603602081101561018f57600080fd5b5035600160a060020a0316610700565b6100f1600480360360208110156101b557600080fd5b5035600160a060020a0316610830565b61011761084f565b6101d5610485565b15156101e057600080fd5b6001805473ffffffffffffffffffffffffffffffffffffffff1916600160a060020a038381169190911791829055604080517f8da5cb5b00000000000000000000000000000000000000000000000000000000815290519290911691638da5cb5b91600480820192602092909190829003018186803b15801561026257600080fd5b505afa158015610276573d6000803e3d6000fd5b505050506040513d602081101561028c57600080fd5b50516002805473ffffffffffffffffffffffffffffffffffffffff1916600160a060020a0390921691909117905550565b60006102c830610700565b905090565b600454600160a060020a031681565b6102e4610485565b15156102ef57600080fd5b80600160a060020a031663223668446040518163ffffffff167c010000000000000000000000000000000000000000000000000000000002815260040160206040518083038186803b15801561034457600080fd5b505afa158015610358573d6000803e3d6000fd5b505050506040513d602081101561036e57600080fd5b505115156103dd57604080517f08c379a000000000000000000000000000000000000000000000000000000000815260206004820152601a60248201527f4964656e74697479206973206e6f742072656769737465726564000000000000604482015290519081900360640190fd5b6003805473ffffffffffffffffffffffffffffffffffffffff1916600160a060020a0392909216919091179055565b610414610485565b151561041f57600080fd5b60008054604051600160a060020a03909116907f8be0079c531659141344cd1fd0a4f28419497f9722a3daafe3b4186f6b6457e0908390a36000805473ffffffffffffffffffffffffffffffffffffffff19169055565b600054600160a060020a031690565b600054600160a060020a0316331490565b61049e6102bd565b151561050b57604080517f08c379a000000000000000000000000000000000000000000000000000000000815260206004820152601860248201527f536368656d65206973206e6f7420726567697374657265640000000000000000604482015290519081900360640190fd5b6002546004805460055460408051600160a060020a03928316602480830191909152825180830382018152604492830184526020810180517bffffffffffffffffffffffffffffffffffffffffffffffffffffffff167f2b32e46c0000000000000000000000000000000000000000000000000000000017815260015494517fd1b7089a0000000000000000000000000000000000000000000000000000000081529686169787018881529486169387018490526000606488018190526080938801938452825160848901528251969099169863d1b7089a989792969495909490939260a4019190808383885b838110156106105781810151838201526020016105f8565b50505050905090810190601f16801561063d5780820380516001836020036101000a031916815260200191505b5095505050505050600060405180830381600087803b15801561065f57600080fd5b505af1158015610673573d6000803e3d6000fd5b505050506040513d6000823e601f3d908101601f19168201604090815281101561069c57600080fd5b8151602083018051919392830192916401000000008111156106bd57600080fd5b820160208101848111156106d057600080fd5b81516401000000008111828201871017156106ea57600080fd5b5050600154600160a060020a0316945050505050ff5b600154600090600160a060020a0316151561077c57604080517f08c379a000000000000000000000000000000000000000000000000000000000815260206004820152601160248201527f417661746172206973206e6f7420736574000000000000000000000000000000604482015290519081900360640190fd5b600254600154604080517f9be2faed000000000000000000000000000000000000000000000000000000008152600160a060020a038681166004830152928316602482015290519190921691639be2faed916044808301926020929190829003018186803b1580156107ed57600080fd5b505afa158015610801573d6000803e3d6000fd5b505050506040513d602081101561081757600080fd5b505115156108275750600061082b565b5060015b919050565b610838610485565b151561084357600080fd5b61084c8161085e565b50565b600554600160a060020a031681565b600160a060020a038116151561087357600080fd5b60008054604051600160a060020a03808516939216917f8be0079c531659141344cd1fd0a4f28419497f9722a3daafe3b4186f6b6457e091a36000805473ffffffffffffffffffffffffffffffffffffffff1916600160a060020a039290921691909117905556fea165627a7a723058209355e86614de3d8f78dd5eee233ed7a50c141dcc8aa943686ae5fd51c3d028140029",
  "source": "pragma solidity 0.5.4;\n\nimport \"@daostack/arc/contracts/controller/Avatar.sol\";\nimport \"@daostack/arc/contracts/controller/ControllerInterface.sol\";\n\nimport \"../../identity/Identity.sol\";\nimport \"../../identity/IdentityGuard.sol\";\nimport \"./SchemeGuard.sol\";\n\n/* @title Scheme contract responsible for adding address given\n * in constructor to identity admins.\n */\ncontract AddAdmin is SchemeGuard, IdentityGuard {\n\n    Identity public identity;\n    address public admin;\n\n    /* @dev Constructor. Requires given address to be a valid address\n     * @param _avatar The avatar of the DAO\n     * @param _identity The identity contract\n     * @param _admin The address to add to admins\n     */\n    constructor(\n        Avatar _avatar,\n        Identity _identity,\n        address _admin\n    )\n        public\n        SchemeGuard(_avatar)\n        IdentityGuard(_identity)\n    {\n        require(_admin != address(0), \"admin cannot be null address\");\n        identity = _identity;\n        admin = _admin;\n    }\n\n    /* @dev starts scheme if registered by DAO, gets avatar to add the\n     * address to list of identity admins and then self-destructs, sending\n     * all remaining eth to the address of the DAO avatar.\n     */\n    function start() public onlyRegistered {\n        controller.genericCall(\n            address(identity),\n            abi.encodeWithSignature(\"addIdentityAdmin(address)\", admin),\n            avatar,\n            0);\n\n        selfdestruct(address(avatar));\n    }\n}\n",
  "sourcePath": "/Users/hadar/workspace/GoodDollar/GoodBootstrap/packages/contracts/contracts/dao/schemes/AddAdmin.sol",
  "compiler": {
    "name": "solc",
    "version": "0.5.4+commit.9549d8ff.Emscripten.clang"
  },
  "schemaVersion": "3.0.16",
  "updatedAt": "2020-07-09T11:25:13.961Z",
  "devdoc": {
    "methods": {
      "isOwner()": {
        "return": "true if `msg.sender` is the owner of the contract."
      },
      "isRegistered()": {
        "details": "function to see if an avatar has been set and if this scheme is registered",
        "return": "true if scheme is registered"
      },
      "isRegistered(address)": {
        "details": "function to see if an avatar has been set and if this scheme is registered",
        "return": "true if scheme is registered"
      },
      "owner()": {
        "return": "the address of the owner."
      },
      "renounceOwnership()": {
        "details": "Allows the current owner to relinquish control of the contract."
      },
      "setAvatar(address)": {
        "details": "Function to set a new avatar and controller for scheme can only be done by owner of scheme"
      },
      "transferOwnership(address)": {
        "details": "Allows the current owner to transfer control of the contract to a newOwner.",
        "params": {
          "newOwner": "The address to transfer ownership to."
        }
      }
    }
  },
  "userdoc": {
    "methods": {
      "renounceOwnership()": {
        "notice": "Renouncing to ownership will leave the contract without an owner. It will not be possible to call the functions with the `onlyOwner` modifier anymore."
      }
    }
  }
}