{
  "contractName": "AddAdmin",
  "abi": [
    {
      "constant": false,
      "inputs": [
        {
          "name": "_avatar",
          "type": "address"
        }
      ],
      "name": "setAvatar",
      "outputs": [],
      "payable": false,
      "stateMutability": "nonpayable",
      "type": "function"
    },
    {
      "constant": true,
      "inputs": [],
      "name": "isRegistered",
      "outputs": [],
      "payable": false,
      "stateMutability": "view",
      "type": "function"
    },
    {
      "constant": true,
      "inputs": [],
      "name": "identity",
      "outputs": [
        {
          "name": "",
          "type": "address"
        }
      ],
      "payable": false,
      "stateMutability": "view",
      "type": "function"
    },
    {
      "constant": false,
      "inputs": [],
      "name": "renounceOwnership",
      "outputs": [],
      "payable": false,
      "stateMutability": "nonpayable",
      "type": "function"
    },
    {
      "constant": true,
      "inputs": [],
      "name": "owner",
      "outputs": [
        {
          "name": "",
          "type": "address"
        }
      ],
      "payable": false,
      "stateMutability": "view",
      "type": "function"
    },
    {
      "constant": true,
      "inputs": [],
      "name": "isOwner",
      "outputs": [
        {
          "name": "",
          "type": "bool"
        }
      ],
      "payable": false,
      "stateMutability": "view",
      "type": "function"
    },
    {
      "constant": false,
      "inputs": [
        {
          "name": "newOwner",
          "type": "address"
        }
      ],
      "name": "transferOwnership",
      "outputs": [],
      "payable": false,
      "stateMutability": "nonpayable",
      "type": "function"
    },
    {
      "constant": true,
      "inputs": [],
      "name": "admin",
      "outputs": [
        {
          "name": "",
          "type": "address"
        }
      ],
      "payable": false,
      "stateMutability": "view",
      "type": "function"
    },
    {
      "inputs": [
        {
          "name": "_avatar",
          "type": "address"
        },
        {
          "name": "_identity",
          "type": "address"
        },
        {
          "name": "_admin",
          "type": "address"
        }
      ],
      "payable": false,
      "stateMutability": "nonpayable",
      "type": "constructor"
    },
    {
      "anonymous": false,
      "inputs": [
        {
          "indexed": true,
          "name": "previousOwner",
          "type": "address"
        },
        {
          "indexed": true,
          "name": "newOwner",
          "type": "address"
        }
      ],
      "name": "OwnershipTransferred",
      "type": "event"
    },
    {
      "constant": false,
      "inputs": [],
      "name": "start",
      "outputs": [
        {
          "name": "",
          "type": "bool"
        }
      ],
      "payable": false,
      "stateMutability": "nonpayable",
      "type": "function"
    }
  ],
  "bytecode": "0x608060405260028054600160a060020a031916905534801561002057600080fd5b50604051606080610c098339810180604052606081101561004057600080fd5b508051602082015160409283015160008054600160a060020a031916331780825594519394929391928592600160a060020a039190911691907f8be0079c531659141344cd1fd0a4f28419497f9722a3daafe3b4186f6b6457e0908290a360018054600160a060020a031916600160a060020a038381169190911791829055161561017b57600160009054906101000a9004600160a060020a0316600160a060020a0316638da5cb5b6040518163ffffffff167c010000000000000000000000000000000000000000000000000000000002815260040160206040518083038186803b15801561012f57600080fd5b505afa158015610143573d6000803e3d6000fd5b505050506040513d602081101561015957600080fd5b505160028054600160a060020a031916600160a060020a039092169190911790555b50600160a060020a03811615156101f357604080517f08c379a000000000000000000000000000000000000000000000000000000000815260206004820152601c60248201527f61646d696e2063616e6e6f74206265206e756c6c206164647265737300000000604482015290519081900360640190fd5b60038054600160a060020a03938416600160a060020a03199182161790915560048054929093169116179055506109da8061022f6000396000f3fe608060405234801561001057600080fd5b50600436106100975760003560e060020a900480638da5cb5b1161006a5780638da5cb5b146100f85780638f32d59b14610100578063be9a65551461011c578063f2fde38b14610124578063f851a4401461014a57610097565b8063086cfca81461009c57806322366844146100c45780632c159a1a146100cc578063715018a6146100f0575b600080fd5b6100c2600480360360208110156100b257600080fd5b5035600160a060020a0316610152565b005b6100c26103fa565b6100d461054f565b60408051600160a060020a039092168252519081900360200190f35b6100c261055e565b6100d46105c8565b6101086105d7565b604080519115158252519081900360200190f35b6101086105e8565b6100c26004803603602081101561013a57600080fd5b5035600160a060020a03166108da565b6100d46108f9565b8033600160a060020a038216148015610262575030600160a060020a0316638da5cb5b6040518163ffffffff1660e060020a02815260040160206040518083038186803b1580156101a257600080fd5b505afa1580156101b6573d6000803e3d6000fd5b505050506040513d60208110156101cc57600080fd5b5051604080517f8da5cb5b0000000000000000000000000000000000000000000000000000000081529051600160a060020a0392831692841691638da5cb5b916004808301926020929190829003018186803b15801561022b57600080fd5b505afa15801561023f573d6000803e3d6000fd5b505050506040513d602081101561025557600080fd5b5051600160a060020a0316145b806102dc575030600160a060020a0316638da5cb5b6040518163ffffffff1660e060020a02815260040160206040518083038186803b1580156102a457600080fd5b505afa1580156102b8573d6000803e3d6000fd5b505050506040513d60208110156102ce57600080fd5b5051600160a060020a031633145b151561031c5760405160e560020a62461bcd0281526004018080602001828103825260298152602001806109866029913960400191505060405180910390fd5b6001805473ffffffffffffffffffffffffffffffffffffffff1916600160a060020a038481169190911791829055604080517f8da5cb5b00000000000000000000000000000000000000000000000000000000815290519290911691638da5cb5b91600480820192602092909190829003018186803b15801561039e57600080fd5b505afa1580156103b2573d6000803e3d6000fd5b505050506040513d60208110156103c857600080fd5b50516002805473ffffffffffffffffffffffffffffffffffffffff1916600160a060020a039092169190911790555050565b600154600160a060020a0316151561045c576040805160e560020a62461bcd02815260206004820152601160248201527f417661746172206973206e6f7420736574000000000000000000000000000000604482015290519081900360640190fd5b600254600154604080517f9be2faed000000000000000000000000000000000000000000000000000000008152306004820152600160a060020a03928316602482015290519190921691639be2faed916044808301926020929190829003018186803b1580156104cb57600080fd5b505afa1580156104df573d6000803e3d6000fd5b505050506040513d60208110156104f557600080fd5b5051151561054d576040805160e560020a62461bcd02815260206004820152601860248201527f536368656d65206973206e6f7420726567697374657265640000000000000000604482015290519081900360640190fd5b565b600354600160a060020a031681565b6105666105d7565b151561057157600080fd5b60008054604051600160a060020a03909116907f8be0079c531659141344cd1fd0a4f28419497f9722a3daafe3b4186f6b6457e0908390a36000805473ffffffffffffffffffffffffffffffffffffffff19169055565b600054600160a060020a031690565b600054600160a060020a0316331490565b600254600154604080517f9be2faed000000000000000000000000000000000000000000000000000000008152306004820152600160a060020a03928316602482015290516000939290921691639be2faed91604480820192602092909190829003018186803b15801561065b57600080fd5b505afa15801561066f573d6000803e3d6000fd5b505050506040513d602081101561068557600080fd5b505115156106dd576040805160e560020a62461bcd02815260206004820152601860248201527f536368656d65206973206e6f7420726567697374657265640000000000000000604482015290519081900360640190fd5b6002546003546004805460015460408051600160a060020a039384166024808301919091529284166044808301829052835180840382018152606493840185526020810180517bffffffffffffffffffffffffffffffffffffffffffffffffffffffff167f908f3a2f0000000000000000000000000000000000000000000000000000000017815294517fd1b7089a00000000000000000000000000000000000000000000000000000000815298871697890188815291890183905260009389018490526080958901958652805160848a01528051969099169863d1b7089a9890969295939491939260a49091019190808383885b838110156107ea5781810151838201526020016107d2565b50505050905090810190601f1680156108175780820380516001836020036101000a031916815260200191505b5095505050505050600060405180830381600087803b15801561083957600080fd5b505af115801561084d573d6000803e3d6000fd5b505050506040513d6000823e601f3d908101601f19168201604090815281101561087657600080fd5b81516020830180519193928301929164010000000081111561089757600080fd5b820160208101848111156108aa57600080fd5b81516401000000008111828201871017156108c457600080fd5b5050600154600160a060020a0316945050505050ff5b6108e26105d7565b15156108ed57600080fd5b6108f681610908565b50565b600454600160a060020a031681565b600160a060020a038116151561091d57600080fd5b60008054604051600160a060020a03808516939216917f8be0079c531659141344cd1fd0a4f28419497f9722a3daafe3b4186f6b6457e091a36000805473ffffffffffffffffffffffffffffffffffffffff1916600160a060020a039290921691909117905556fe4f6e6c792063616c6c61626c6520627920617661746172206f66206f776e6572206f72206f776e6572a165627a7a72305820c55c47ca5d8c379567cd0f2c239ba19d585a4954d3603d18593f565791e1a3d50029",
  "source": "pragma solidity 0.5.4;\n\nimport \"@daostack/arc/contracts/controller/Avatar.sol\";\nimport \"@daostack/arc/contracts/controller/ControllerInterface.sol\";\n\nimport \"../../identity/Identity.sol\";\nimport \"./SchemeGuard.sol\";\n\n/* @title Scheme contract responsible for adding given address to identity admins\n */\ncontract AddAdmin is SchemeGuard {\n\n    Identity public identity;\n    address public admin;\n\n    /* @dev Constructor. Checks if given address is valid\n     */\n    constructor(\n        Avatar _avatar,\n        Identity _identity,\n        address _admin\n    )\n        public\n        SchemeGuard(_avatar)\n    {\n        require(_admin != address(0), \"admin cannot be null address\");\n        identity = _identity;\n        admin = _admin;\n    }\n\n    /* @dev starts scheme if within period, gets avatar to add the\n     * address to list of admins and then ends even if still within period\n     */\n    function start() onlyRegistered public returns(bool) {\n\n        controller.genericCall(\n            address(identity),\n            abi.encodeWithSignature(\"addIdentityAdmin(address,address)\", admin, address(avatar)),\n            avatar,\n            0);\n\n        selfdestruct(address(avatar));\n    }\n}\n",
  "sourcePath": "/Users/madsjorgensen/Documents/Work/GoodContracts/contracts/dao/schemes/AddAdmin.sol",
  "compiler": {
    "name": "solc",
    "version": "0.5.4+commit.9549d8ff.Emscripten.clang"
  },
  "schemaVersion": "3.0.11",
  "updatedAt": "2019-09-20T12:20:21.547Z",
  "devdoc": {
    "methods": {
      "isOwner()": {
        "return": "true if `msg.sender` is the owner of the contract."
      },
      "owner()": {
        "return": "the address of the owner."
      },
      "renounceOwnership()": {
        "details": "Allows the current owner to relinquish control of the contract."
      },
      "transferOwnership(address)": {
        "details": "Allows the current owner to transfer control of the contract to a newOwner.",
        "params": {
          "newOwner": "The address to transfer ownership to."
        }
      }
    }
  },
  "userdoc": {
    "methods": {
      "renounceOwnership()": {
        "notice": "Renouncing to ownership will leave the contract without an owner. It will not be possible to call the functions with the `onlyOwner` modifier anymore."
      }
    }
  }
}