{
  "contractName": "AddFoundersGoodDollar",
  "abi": [
    {
      "inputs": [
        {
          "name": "_controllerCreatorGoodDollar",
          "type": "address"
        }
      ],
      "payable": false,
      "stateMutability": "nonpayable",
      "type": "constructor"
    },
    {
      "constant": false,
      "inputs": [
        {
          "name": "nativeToken",
          "type": "address"
        },
        {
          "name": "nativeReputation",
          "type": "address"
        },
        {
          "name": "_sender",
          "type": "address"
        },
        {
          "name": "_founders",
          "type": "address[]"
        },
        {
          "name": "_avatarTokenAmount",
          "type": "uint256"
        },
        {
          "name": "_foundersReputationAmount",
          "type": "uint256[]"
        }
      ],
      "name": "addFounders",
      "outputs": [
        {
          "name": "",
          "type": "address"
        }
      ],
      "payable": false,
      "stateMutability": "nonpayable",
      "type": "function"
    }
  ],
  "bytecode": "0x608060405234801561001057600080fd5b50604051602080611c538339810180604052602081101561003057600080fd5b505160008054600160a060020a03909216600160a060020a0319909216919091179055611bf1806100626000396000f3fe608060405234801561001057600080fd5b506004361061002e5760e060020a600035046397af87e08114610033575b600080fd5b610183600480360360c081101561004957600080fd5b600160a060020a038235811692602081013582169260408201359092169181019060808101606082013564010000000081111561008557600080fd5b82018360208201111561009757600080fd5b803590602001918460208302840111640100000000831117156100b957600080fd5b9190808060200260200160405190810160405280939291908181526020018383602002808284376000920191909152509295843595909490935060408101925060200135905064010000000081111561011157600080fd5b82018360208201111561012357600080fd5b8035906020019184602083028401116401000000008311171561014557600080fd5b91908080602002602001604051908101604052809392919081815260200183836020028082843760009201919091525092955061019f945050505050565b60408051600160a060020a039092168252519081900360200190f35b60008087876040516101b09061085f565b600160a060020a03928316602082015291166040808301919091526060808352600a908301527f476f6f64446f6c6c6172000000000000000000000000000000000000000000006080830152519081900360a001906000f08015801561021a573d6000803e3d6000fd5b50905087600160a060020a03166340c10f1982866040518363ffffffff1660e060020a0281526004018083600160a060020a0316600160a060020a0316815260200182815260200192505050602060405180830381600087803b15801561028057600080fd5b505af1158015610294573d6000803e3d6000fd5b505050506040513d60208110156102aa57600080fd5b50600090505b85518110156104305785516000908790839081106102ca57fe5b60209081029091010151600160a060020a0316141561034a57604080517f08c379a000000000000000000000000000000000000000000000000000000000815260206004820152601e60248201527f466f756e6465722063616e6e6f74206265207a65726f20616464726573730000604482015290519081900360640190fd5b6000848281518110151561035a57fe5b9060200190602002015111156104285787600160a060020a03166340c10f19878381518110151561038757fe5b90602001906020020151868481518110151561039f57fe5b906020019060200201516040518363ffffffff1660e060020a0281526004018083600160a060020a0316600160a060020a0316815260200182815260200192505050602060405180830381600087803b1580156103fb57600080fd5b505af115801561040f573d6000803e3d6000fd5b505050506040513d602081101561042557600080fd5b50505b6001016102b0565b5060008054604080517f3e68680a000000000000000000000000000000000000000000000000000000008152600160a060020a03858116600483015233602483015291519190921691633e68680a91604480830192602092919082900301818787803b15801561049f57600080fd5b505af11580156104b3573d6000803e3d6000fd5b505050506040513d60208110156104c957600080fd5b5051604080517fe74b981b000000000000000000000000000000000000000000000000000000008152600160a060020a0385811660048301529151929350908b169163e74b981b9160248082019260009290919082900301818387803b15801561053257600080fd5b505af1158015610546573d6000803e3d6000fd5b5050505081600160a060020a031663f2fde38b826040518263ffffffff1660e060020a0281526004018082600160a060020a0316600160a060020a03168152602001915050600060405180830381600087803b1580156105a557600080fd5b505af11580156105b9573d6000803e3d6000fd5b5050505088600160a060020a031663f2fde38b836040518263ffffffff1660e060020a0281526004018082600160a060020a0316600160a060020a03168152602001915050600060405180830381600087803b15801561061857600080fd5b505af115801561062c573d6000803e3d6000fd5b5050505087600160a060020a031663f2fde38b826040518263ffffffff1660e060020a0281526004018082600160a060020a0316600160a060020a03168152602001915050600060405180830381600087803b15801561068b57600080fd5b505af115801561069f573d6000803e3d6000fd5b5050505088600160a060020a031663983b2d56886040518263ffffffff1660e060020a0281526004018082600160a060020a0316600160a060020a03168152602001915050600060405180830381600087803b1580156106fe57600080fd5b505af1158015610712573d6000803e3d6000fd5b5050505088600160a060020a031663983b2d56836040518263ffffffff1660e060020a0281526004018082600160a060020a0316600160a060020a03168152602001915050600060405180830381600087803b15801561077157600080fd5b505af1158015610785573d6000803e3d6000fd5b5050505088600160a060020a031663983b2d56826040518263ffffffff1660e060020a0281526004018082600160a060020a0316600160a060020a03168152602001915050600060405180830381600087803b1580156107e457600080fd5b505af11580156107f8573d6000803e3d6000fd5b5050505088600160a060020a031663986502756040518163ffffffff1660e060020a028152600401600060405180830381600087803b15801561083a57600080fd5b505af115801561084e573d6000803e3d6000fd5b50939b9a5050505050505050505050565b6113598061086d8339019056fe60806040523480156200001157600080fd5b506040516200135938038062001359833981018060405260608110156200003757600080fd5b8101908080516401000000008111156200005057600080fd5b820160208101848111156200006457600080fd5b81516401000000008111828201871017156200007f57600080fd5b5050602082015160409283015160008054600160a060020a0319163317808255945193965091945092600160a060020a0316917f8be0079c531659141344cd1fd0a4f28419497f9722a3daafe3b4186f6b6457e0908290a38251620000ec90600190602086019062000120565b5060028054600160a060020a03938416600160a060020a0319918216179091556003805492909316911617905550620001c5565b828054600181600116156101000203166002900490600052602060002090601f016020900481019282601f106200016357805160ff191683800117855562000193565b8280016001018555821562000193579182015b828111156200019357825182559160200191906001019062000176565b50620001a1929150620001a5565b5090565b620001c291905b80821115620001a15760008155600101620001ac565b90565b61118480620001d56000396000f3fe6080604052600436106100df576000357c0100000000000000000000000000000000000000000000000000000000900480638f32d59b1161009c578063cb16d4a211610076578063cb16d4a2146104ae578063dab0efff146104e7578063e1758bd81461052a578063f2fde38b1461053f576100df565b80638f32d59b1461040d578063ab751f7114610422578063b756d5a214610465576100df565b80631386dc2d146101175780632bf16458146101a1578063715018a6146102e9578063890ac46c1461030057806389ae1c90146103c75780638da5cb5b146103f8575b60408051348152905133917ff32a9f77675fd5917534c7746608fd3e309eac68fbdcbf5925e24ca97a704396919081900360200190a2005b34801561012357600080fd5b5061012c610572565b6040805160208082528351818301528351919283929083019185019080838360005b8381101561016657818101518382015260200161014e565b50505050905090810190601f1680156101935780820380516001836020036101000a031916815260200191505b509250505060405180910390f35b3480156101ad57600080fd5b50610266600480360360608110156101c457600080fd5b600160a060020a0382351691908101906040810160208201356401000000008111156101ef57600080fd5b82018360208201111561020157600080fd5b8035906020019184600183028401116401000000008311171561022357600080fd5b91908080601f01602080910402602001604051908101604052809392919081815260200183838082843760009201919091525092955050913592506105ff915050565b604051808315151515815260200180602001828103825283818151815260200191508051906020019080838360005b838110156102ad578181015183820152602001610295565b50505050905090810190601f1680156102da5780820380516001836020036101000a031916815260200191505b50935050505060405180910390f35b3480156102f557600080fd5b506102fe610780565b005b34801561030c57600080fd5b506103b36004803603602081101561032357600080fd5b81019060208101813564010000000081111561033e57600080fd5b82018360208201111561035057600080fd5b8035906020019184600183028401116401000000008311171561037257600080fd5b91908080601f0160208091040260200160405190810160405280939291908181526020018383808284376000920191909152509295506107ea945050505050565b604080519115158252519081900360200190f35b3480156103d357600080fd5b506103dc6108a0565b60408051600160a060020a039092168252519081900360200190f35b34801561040457600080fd5b506103dc6108af565b34801561041957600080fd5b506103b36108be565b34801561042e57600080fd5b506103b36004803603606081101561044557600080fd5b50600160a060020a038135811691602081013590911690604001356108cf565b34801561047157600080fd5b506103b36004803603608081101561048857600080fd5b50600160a060020a0381358116916020810135821691604082013516906060013561094e565b3480156104ba57600080fd5b506103b3600480360360408110156104d157600080fd5b5080359060200135600160a060020a03166109d8565b3480156104f357600080fd5b506103b36004803603606081101561050a57600080fd5b50600160a060020a03813581169160208101359091169060400135610a6c565b34801561053657600080fd5b506103dc610af0565b34801561054b57600080fd5b506102fe6004803603602081101561056257600080fd5b5035600160a060020a0316610aff565b60018054604080516020600284861615610100026000190190941693909304601f810184900484028201840190925281815292918301828280156105f75780601f106105cc576101008083540402835291602001916105f7565b820191906000526020600020905b8154815290600101906020018083116105da57829003601f168201915b505050505081565b6000606061060b6108be565b151561061657600080fd5b84600160a060020a031683856040518082805190602001908083835b602083106106515780518252601f199092019160209182019101610632565b6001836020036101000a03801982511681845116808217855250505050505090500191505060006040518083038185875af1925050503d80600081146106b3576040519150601f19603f3d011682016040523d82523d6000602084013e6106b8565b606091505b50809250819350505084600160a060020a03167f534b52c783549f909f9e743120524d0b7154058e4a54cdc895c2c0b587a1c7e0858585604051808060200184815260200183151515158152602001828103825285818151815260200191508051906020019080838360005b8381101561073c578181015183820152602001610724565b50505050905090810190601f1680156107695780820380516001836020036101000a031916815260200191505b5094505050505060405180910390a2935093915050565b6107886108be565b151561079357600080fd5b60008054604051600160a060020a03909116907f8be0079c531659141344cd1fd0a4f28419497f9722a3daafe3b4186f6b6457e0908390a36000805473ffffffffffffffffffffffffffffffffffffffff19169055565b60006107f46108be565b15156107ff57600080fd5b7ff9deba4938ba20070ec5a45ddf59bccba49cf83124215228ec1232182ef0ba2b826040518080602001828103825283818151815260200191508051906020019080838360005b8381101561085e578181015183820152602001610846565b50505050905090810190601f16801561088b5780820380516001836020036101000a031916815260200191505b509250505060405180910390a1506001919050565b600354600160a060020a031681565b600054600160a060020a031690565b600054600160a060020a0316331490565b60006108d96108be565b15156108e457600080fd5b6108fe600160a060020a038516848463ffffffff610b1e16565b60408051600160a060020a038581168252602082018590528251908716927f3a48a4d6253b30fd10e57a347c1f9bcb0604946481fae0b2fdad6e74f2a9cbb3928290030190a25060019392505050565b60006109586108be565b151561096357600080fd5b61097e600160a060020a03861685858563ffffffff610dbf16565b60408051600160a060020a03868116825285811660208301528183018590529151918716917f179c15de44aa7ab84896301974328eb40b5b40fe01cfe0fee2924ea712c3e8439181900360600190a2506001949350505050565b60006109e26108be565b15156109ed57600080fd5b604051600160a060020a0383169084156108fc029085906000818181858888f19350505050158015610a23573d6000803e3d6000fd5b50604080518481529051600160a060020a038416917f22fca66666089f39bc900dd6605b489df4aae6260cc8ea8257594cfb8c84926c919081900360200190a250600192915050565b6000610a766108be565b1515610a8157600080fd5b610a9b600160a060020a038516848463ffffffff610fb716565b82600160a060020a031684600160a060020a03167f49dc2a60d2599a7b6932d78fb694c30dfc596fe4e0282b5d0fd184b52472c04d846040518082815260200191505060405180910390a35060019392505050565b600254600160a060020a031681565b610b076108be565b1515610b1257600080fd5b610b1b816110ae565b50565b610b3083600160a060020a031661112b565b1515610b3b57600080fd5b801580610bda5750604080517fdd62ed3e000000000000000000000000000000000000000000000000000000008152306004820152600160a060020a03848116602483015291519185169163dd62ed3e91604480820192602092909190829003018186803b158015610bac57600080fd5b505afa158015610bc0573d6000803e3d6000fd5b505050506040513d6020811015610bd657600080fd5b5051155b1515610be557600080fd5b604080518082018252601881527f617070726f766528616464726573732c75696e743235362900000000000000006020918201528151600160a060020a0385811660248301526044808301869052845180840390910181526064909201845291810180517bffffffffffffffffffffffffffffffffffffffffffffffffffffffff167f095ea7b3000000000000000000000000000000000000000000000000000000001781529251815160009460609489169392918291908083835b60208310610cc05780518252601f199092019160209182019101610ca1565b6001836020036101000a0380198251168184511680821785525050505050509050019150506000604051808303816000865af19150503d8060008114610d22576040519150601f19603f3d011682016040523d82523d6000602084013e610d27565b606091505b5091509150811515610d3857600080fd5b80511580610dad575080516020148015610dad575080601f815181101515610d5c57fe5b6020910101517f010000000000000000000000000000000000000000000000000000000000000090819004027fff000000000000000000000000000000000000000000000000000000000000001615155b1515610db857600080fd5b5050505050565b610dd184600160a060020a031661112b565b1515610ddc57600080fd5b6000606085600160a060020a03166060604051908101604052806025815260200161113460259139805160209182012060408051600160a060020a03808b166024830152891660448201526064808201899052825180830390910181526084909101825292830180517bffffffffffffffffffffffffffffffffffffffffffffffffffffffff167fffffffff00000000000000000000000000000000000000000000000000000000909316929092178252518251909182918083835b60208310610eb75780518252601f199092019160209182019101610e98565b6001836020036101000a0380198251168184511680821785525050505050509050019150506000604051808303816000865af19150503d8060008114610f19576040519150601f19603f3d011682016040523d82523d6000602084013e610f1e565b606091505b5091509150811515610f2f57600080fd5b80511580610fa4575080516020148015610fa4575080601f815181101515610f5357fe5b6020910101517f010000000000000000000000000000000000000000000000000000000000000090819004027fff000000000000000000000000000000000000000000000000000000000000001615155b1515610faf57600080fd5b505050505050565b610fc983600160a060020a031661112b565b1515610fd457600080fd5b604080518082018252601981527f7472616e7366657228616464726573732c75696e7432353629000000000000006020918201528151600160a060020a0385811660248301526044808301869052845180840390910181526064909201845291810180517bffffffffffffffffffffffffffffffffffffffffffffffffffffffff167fa9059cbb0000000000000000000000000000000000000000000000000000000017815292518151600094606094891693929182919080838360208310610cc05780518252601f199092019160209182019101610ca1565b600160a060020a03811615156110c357600080fd5b60008054604051600160a060020a03808516939216917f8be0079c531659141344cd1fd0a4f28419497f9722a3daafe3b4186f6b6457e091a36000805473ffffffffffffffffffffffffffffffffffffffff1916600160a060020a0392909216919091179055565b6000903b119056fe7472616e7366657246726f6d28616464726573732c616464726573732c75696e7432353629a165627a7a72305820cdf6dc6e12529d68c1fa404ee4463c20ef7d3c761ed57fd0f20032f64ad1ae550029a165627a7a72305820675e4ef076662a2e75a1fc3033283819d24e74365da20f6551c5a5f8abfab5190029",
  "source": "pragma solidity 0.5.4;\n\nimport \"@daostack/arc/contracts/controller/Controller.sol\";\nimport \"@daostack/arc/contracts/universalSchemes/SchemeRegistrar.sol\";\nimport \"@daostack/arc/contracts/universalSchemes/UpgradeScheme.sol\";\n\nimport \"@daostack/infra/contracts/votingMachines/AbsoluteVote.sol\";\nimport \"@daostack/infra/contracts/Reputation.sol\";\n\nimport \"../token/GoodDollar.sol\";\nimport \"../identity/IdentityGuard.sol\";\nimport \"../dao/schemes/FeeFormula.sol\";\n\n\n/**\n * @title ControllerCreator for creating a single controller. Taken from @daostack.\n */\ncontract ControllerCreatorGoodDollar {\n    function create(Avatar _avatar, address _sender) public returns (address) {\n        Controller controller = new Controller(_avatar);\n        controller.registerScheme(\n            _sender,\n            bytes32(0),\n            bytes4(0x0000001f),\n            address(_avatar)\n        );\n        controller.unregisterScheme(address(this), address(_avatar));\n        return address(controller);\n    }\n}\n\n\n/**\n * @title Contract for adding founders to the DAO. Separated from DaoCreator to reduce\n * contract sizes\n */\ncontract AddFoundersGoodDollar {\n    ControllerCreatorGoodDollar private controllerCreatorGoodDollar;\n\n    constructor(ControllerCreatorGoodDollar _controllerCreatorGoodDollar)\n        public\n    {\n        controllerCreatorGoodDollar = _controllerCreatorGoodDollar;\n    }\n\n    /**\n     * @param _founders An array with the addresses of the founders of the organization\n     * @param _avatarTokenAmount Amount of tokens that the avatar receive on new organization\n     * @param _foundersReputationAmount An array of amount of reputation that the\n     *   founders receive in the new organization\n     */\n    function addFounders(\n        GoodDollar nativeToken,\n        Reputation nativeReputation,\n        address _sender,\n        address[] memory _founders,\n        uint256 _avatarTokenAmount,\n        uint256[] memory _foundersReputationAmount\n    ) public returns (Avatar) {\n        Avatar avatar = new Avatar(\"GoodDollar\", nativeToken, nativeReputation);\n\n        //mint token to avatar\n        nativeToken.mint(address(avatar), _avatarTokenAmount);\n\n        // Mint reputation for founders:\n        for (uint256 i = 0; i < _founders.length; i++) {\n            require(\n                _founders[i] != address(0),\n                \"Founder cannot be zero address\"\n            );\n            if (_foundersReputationAmount[i] > 0) {\n                nativeReputation.mint(\n                    _founders[i],\n                    _foundersReputationAmount[i]\n                );\n            }\n        }\n        // Create Controller:\n        ControllerInterface controller = ControllerInterface(\n            controllerCreatorGoodDollar.create(avatar, msg.sender)\n        );\n\n        // Set fee recipient and Transfer ownership:\n        nativeToken.setFeeRecipient(address(avatar));\n\n        avatar.transferOwnership(address(controller));\n        nativeToken.transferOwnership(address(avatar));\n        nativeReputation.transferOwnership(address(controller));\n\n        // Add minters\n        nativeToken.addMinter(_sender);\n        nativeToken.addMinter(address(avatar));\n        nativeToken.addMinter(address(controller));\n        nativeToken.renounceMinter();\n        return (avatar);\n    }\n}\n\n\n/**\n * @title Genesis Scheme that creates organizations. Taken and modified from @daostack.\n */\ncontract DaoCreatorGoodDollar {\n    Avatar public avatar;\n    address public lock;\n\n    event NewOrg(address _avatar);\n    event InitialSchemesSet(address _avatar);\n\n    AddFoundersGoodDollar private addFoundersGoodDollar;\n\n    constructor(AddFoundersGoodDollar _addFoundersGoodDollar) public {\n        addFoundersGoodDollar = _addFoundersGoodDollar;\n    }\n\n    /**\n     * @dev Create a new organization\n     * @param _tokenName The name of the token associated with the organization\n     * @param _tokenSymbol The symbol of the token\n     * @param _founders An array with the addresses of the founders of the organization\n     * @param _avatarTokenAmount Amount of tokens that the avatar receive in the new organization\n     * @param _foundersReputationAmount An array of amount of reputation that the\n     *   founders receive in the new organization\n     * @param  _cap token cap - 0 for no cap.\n     * @return The address of the avatar of the controller\n     */\n    function forgeOrg(\n        string calldata _tokenName,\n        string calldata _tokenSymbol,\n        uint256 _cap,\n        FeeFormula _formula,\n        Identity _identity,\n        address[] calldata _founders,\n        uint256 _avatarTokenAmount,\n        uint256[] calldata _foundersReputationAmount\n    ) external returns (address) {\n        //The call for the private function is needed to bypass a deep stack issues\n        return\n            _forgeOrg(\n                _tokenName,\n                _tokenSymbol,\n                _cap,\n                _formula,\n                _identity,\n                _founders,\n                _avatarTokenAmount,\n                _foundersReputationAmount\n            );\n    }\n\n    /**\n     * @dev Set initial schemes for the organization.\n     * @param _avatar organization avatar (returns from forgeOrg)\n     * @param _schemes the schemes to register for the organization\n     * @param _params the schemes parameters\n     * @param _permissions the schemes permissions.\n     * @param _metaData dao meta data hash\n     */\n    function setSchemes(\n        Avatar _avatar,\n        address[] calldata _schemes,\n        bytes32[] calldata _params,\n        bytes4[] calldata _permissions,\n        string calldata _metaData\n    ) external {\n        // this action can only be executed by the account that holds the lock\n        // for this controller\n        require(lock == msg.sender, \"Message sender is not lock\");\n        // register initial schemes:\n        ControllerInterface controller = ControllerInterface(_avatar.owner());\n        for (uint256 i = 0; i < _schemes.length; i++) {\n            controller.registerScheme(\n                _schemes[i],\n                _params[i],\n                _permissions[i],\n                address(_avatar)\n            );\n        }\n        controller.metaData(_metaData, _avatar);\n        // Unregister self:\n        controller.unregisterScheme(address(this), address(_avatar));\n        // Remove lock:\n        lock = address(0);\n        emit InitialSchemesSet(address(_avatar));\n    }\n\n    /**\n     * @dev Create a new organization\n     * @param _tokenName The name of the token associated with the organization\n     * @param _tokenSymbol The symbol of the token\n     * @param _founders An array with the addresses of the founders of the organization\n     * @param _avatarTokenAmount Amount of tokens that the avatar receive on startup\n     * @param _foundersReputationAmount An array of amount of reputation that the\n     *   founders receive in the new organization\n     * @param  _cap token cap - 0 for no cap.\n     * @return The address of the avatar of the controller\n     */\n    function _forgeOrg(\n        string memory _tokenName,\n        string memory _tokenSymbol,\n        uint256 _cap,\n        FeeFormula _formula,\n        Identity _identity,\n        address[] memory _founders,\n        uint256 _avatarTokenAmount,\n        uint256[] memory _foundersReputationAmount\n    ) private returns (address) {\n        // Create Token, Reputation and Avatar:\n        require(lock == address(0), \"Lock already exists\");\n        require(\n            _founders.length == _foundersReputationAmount.length,\n            \"Founder reputation missing\"\n        );\n        require(_founders.length > 0, \"Must have at least one founder\");\n        GoodDollar nativeToken = new GoodDollar(\n            _tokenName,\n            _tokenSymbol,\n            _cap,\n            _formula,\n            _identity,\n            address(0)\n        );\n        Reputation nativeReputation = new Reputation();\n\n        // renounce minter\n        nativeToken.addMinter(address(addFoundersGoodDollar));\n        nativeToken.renounceMinter();\n\n        nativeToken.transferOwnership(address(addFoundersGoodDollar));\n        nativeReputation.transferOwnership(address(addFoundersGoodDollar));\n\n        avatar = addFoundersGoodDollar.addFounders(\n            nativeToken,\n            nativeReputation,\n            msg.sender,\n            _founders,\n            _avatarTokenAmount,\n            _foundersReputationAmount\n        );\n\n        nativeToken.addPauser(address(avatar));\n\n        lock = msg.sender;\n\n        emit NewOrg(address(avatar));\n        return (address(avatar));\n    }\n}\n",
  "sourcePath": "/Users/hadar/workspace/GoodDollar/GoodBootstrap/packages/contracts/contracts/dao/DaoCreator.sol",
  "compiler": {
    "name": "solc",
    "version": "0.5.4+commit.9549d8ff.Emscripten.clang"
  },
  "schemaVersion": "3.0.16",
  "updatedAt": "2020-04-13T09:07:15.393Z",
  "devdoc": {
    "methods": {
      "addFounders(address,address,address,address[],uint256,uint256[])": {
        "params": {
          "_avatarTokenAmount": "Amount of tokens that the avatar receive on new organization",
          "_founders": "An array with the addresses of the founders of the organization",
          "_foundersReputationAmount": "An array of amount of reputation that the  founders receive in the new organization"
        }
      }
    },
    "title": "Contract for adding founders to the DAO. Separated from DaoCreator to reduce contract sizes"
  },
  "userdoc": {
    "methods": {}
  }
}