{
  "contractName": "AddMinter",
  "abi": [
    {
      "inputs": [
        {
          "internalType": "contract Avatar",
          "name": "_avatar",
          "type": "address"
        },
        {
          "internalType": "address",
          "name": "_minter",
          "type": "address"
        }
      ],
      "payable": false,
      "stateMutability": "nonpayable",
      "type": "constructor"
    },
    {
      "anonymous": false,
      "inputs": [
        {
          "indexed": true,
          "internalType": "address",
          "name": "previousOwner",
          "type": "address"
        },
        {
          "indexed": true,
          "internalType": "address",
          "name": "newOwner",
          "type": "address"
        }
      ],
      "name": "OwnershipTransferred",
      "type": "event"
    },
    {
      "constant": true,
      "inputs": [],
      "name": "isOwner",
      "outputs": [
        {
          "internalType": "bool",
          "name": "",
          "type": "bool"
        }
      ],
      "payable": false,
      "stateMutability": "view",
      "type": "function"
    },
    {
      "constant": true,
      "inputs": [],
      "name": "isRegistered",
      "outputs": [
        {
          "internalType": "bool",
          "name": "",
          "type": "bool"
        }
      ],
      "payable": false,
      "stateMutability": "view",
      "type": "function"
    },
    {
      "constant": true,
      "inputs": [
        {
          "internalType": "address",
          "name": "scheme",
          "type": "address"
        }
      ],
      "name": "isRegistered",
      "outputs": [
        {
          "internalType": "bool",
          "name": "",
          "type": "bool"
        }
      ],
      "payable": false,
      "stateMutability": "view",
      "type": "function"
    },
    {
      "constant": true,
      "inputs": [],
      "name": "minter",
      "outputs": [
        {
          "internalType": "address",
          "name": "",
          "type": "address"
        }
      ],
      "payable": false,
      "stateMutability": "view",
      "type": "function"
    },
    {
      "constant": true,
      "inputs": [],
      "name": "owner",
      "outputs": [
        {
          "internalType": "address",
          "name": "",
          "type": "address"
        }
      ],
      "payable": false,
      "stateMutability": "view",
      "type": "function"
    },
    {
      "constant": false,
      "inputs": [],
      "name": "renounceOwnership",
      "outputs": [],
      "payable": false,
      "stateMutability": "nonpayable",
      "type": "function"
    },
    {
      "constant": false,
      "inputs": [
        {
          "internalType": "contract Avatar",
          "name": "_avatar",
          "type": "address"
        }
      ],
      "name": "setAvatar",
      "outputs": [],
      "payable": false,
      "stateMutability": "nonpayable",
      "type": "function"
    },
    {
      "constant": false,
      "inputs": [
        {
          "internalType": "address",
          "name": "newOwner",
          "type": "address"
        }
      ],
      "name": "transferOwnership",
      "outputs": [],
      "payable": false,
      "stateMutability": "nonpayable",
      "type": "function"
    },
    {
      "constant": false,
      "inputs": [],
      "name": "addMinter",
      "outputs": [],
      "payable": false,
      "stateMutability": "nonpayable",
      "type": "function"
    }
  ],
  "bytecode": "0x6080604052600280546001600160a01b031916905534801561002057600080fd5b506040516109303803806109308339818101604052604081101561004357600080fd5b508051602090910151600080546001600160a01b031916331780825560405184926001600160a01b039290921691907f8be0079c531659141344cd1fd0a4f28419497f9722a3daafe3b4186f6b6457e0908290a3600180546001600160a01b0319166001600160a01b038381169190911791829055161561015857600160009054906101000a90046001600160a01b03166001600160a01b0316638da5cb5b6040518163ffffffff1660e01b815260040160206040518083038186803b15801561010c57600080fd5b505afa158015610120573d6000803e3d6000fd5b505050506040513d602081101561013657600080fd5b5051600280546001600160a01b0319166001600160a01b039092169190911790555b506001600160a01b0381166101b4576040805162461bcd60e51b815260206004820152601760248201527f4d696e746572206d757374206e6f74206265206e756c6c000000000000000000604482015290519081900360640190fd5b600380546001600160a01b0319166001600160a01b03929092169190911790555061074c806101e46000396000f3fe608060405234801561001057600080fd5b50600436106100935760003560e01c8063715018a611610066578063715018a6146101085780638da5cb5b146101105780638f32d59b14610118578063c3c5a54714610120578063f2fde38b1461014657610093565b8063031cf5861461009857806307546172146100a2578063086cfca8146100c657806322366844146100ec575b600080fd5b6100a061016c565b005b6100aa61044a565b604080516001600160a01b039092168252519081900360200190f35b6100a0600480360360208110156100dc57600080fd5b50356001600160a01b0316610459565b6100f4610514565b604080519115158252519081900360200190f35b6100a0610524565b6100aa61057f565b6100f461058e565b6100f46004803603602081101561013657600080fd5b50356001600160a01b031661059f565b6100a06004803603602081101561015c57600080fd5b50356001600160a01b031661068c565b610174610514565b6101c5576040805162461bcd60e51b815260206004820152601860248201527f536368656d65206973206e6f7420726567697374657265640000000000000000604482015290519081900360640190fd5b60025460015460408051631c2eb17b60e31b815290516001600160a01b039384169363d1b7089a93169163e1758bd8916004808301926020929190829003018186803b15801561021457600080fd5b505afa158015610228573d6000803e3d6000fd5b505050506040513d602081101561023e57600080fd5b5051600354604080516001600160a01b03928316602480830191909152825180830382018152604492830184526020810180516001600160e01b0316634c1d96ab60e11b178152600154945160e089901b6001600160e01b03191681528688166004820190815295909616938601849052600060648701819052608093870193845282516084880152825192969495909490939260a49091019190808383885b838110156102f65781810151838201526020016102de565b50505050905090810190601f1680156103235780820380516001836020036101000a031916815260200191505b5095505050505050600060405180830381600087803b15801561034557600080fd5b505af1158015610359573d6000803e3d6000fd5b505050506040513d6000823e601f3d908101601f19168201604090815281101561038257600080fd5b8151602083018051604051929492938301929190846401000000008211156103a957600080fd5b9083019060208201858111156103be57600080fd5b82516401000000008111828201881017156103d857600080fd5b82525081516020918201929091019080838360005b838110156104055781810151838201526020016103ed565b50505050905090810190601f1680156104325780820380516001836020036101000a031916815260200191505b5060405250506001546001600160a01b031692505050ff5b6003546001600160a01b031681565b61046161058e565b61046a57600080fd5b600180546001600160a01b0319166001600160a01b03838116919091179182905560408051638da5cb5b60e01b815290519290911691638da5cb5b91600480820192602092909190829003018186803b1580156104c657600080fd5b505afa1580156104da573d6000803e3d6000fd5b505050506040513d60208110156104f057600080fd5b5051600280546001600160a01b0319166001600160a01b0390921691909117905550565b600061051f3061059f565b905090565b61052c61058e565b61053557600080fd5b600080546040516001600160a01b03909116907f8be0079c531659141344cd1fd0a4f28419497f9722a3daafe3b4186f6b6457e0908390a3600080546001600160a01b0319169055565b6000546001600160a01b031690565b6000546001600160a01b0316331490565b6001546000906001600160a01b03166105f3576040805162461bcd60e51b8152602060048201526011602482015270105d985d185c881a5cc81b9bdd081cd95d607a1b604482015290519081900360640190fd5b60025460015460408051639be2faed60e01b81526001600160a01b038681166004830152928316602482015290519190921691639be2faed916044808301926020929190829003018186803b15801561064b57600080fd5b505afa15801561065f573d6000803e3d6000fd5b505050506040513d602081101561067557600080fd5b505161068357506000610687565b5060015b919050565b61069461058e565b61069d57600080fd5b6106a6816106a9565b50565b6001600160a01b0381166106bc57600080fd5b600080546040516001600160a01b03808516939216917f8be0079c531659141344cd1fd0a4f28419497f9722a3daafe3b4186f6b6457e091a3600080546001600160a01b0319166001600160a01b039290921691909117905556fea265627a7a723158204b56b5e23f5fac2d2fdf858bafc7e0669d168770e68a7224a89b591859df2b9b64736f6c63430005100032",
  "source": "pragma solidity >0.5.4;\n\nimport \"@daostack/arc/contracts/controller/Avatar.sol\";\nimport \"@daostack/arc/contracts/controller/ControllerInterface.sol\";\n\nimport \"../../token/GoodDollar.sol\";\nimport \"./SchemeGuard.sol\";\n\n/* @title Scheme for adding a new minter to minters.\n */\ncontract AddMinter is SchemeGuard {\n    address public minter;\n\n    /* @dev Constructor. Requires the given address to be a valid address\n     * @param _avatar The avatar of the DAO\n     * @param _minter address to grant minter rights\n     */\n    constructor(Avatar _avatar, address _minter) public SchemeGuard(_avatar) {\n        require(_minter != address(0), \"Minter must not be null\");\n        minter = _minter;\n    }\n\n    /* @dev Adds the given address to minters if contract is a registered scheme.\n     * After adding minter, self-destructs contract, transferring any remaining\n     * eth to the address of the avatar.\n     */\n    function addMinter() public onlyRegistered {\n        controller.genericCall(\n            address(avatar.nativeToken()),\n            abi.encodeWithSignature(\"addMinter(address)\", minter),\n            avatar,\n            0\n        );\n\n        selfdestruct(address(avatar));\n    }\n}\n",
  "sourcePath": "/Users/hadar/workspace/GoodDollar/GoodBootstrap/packages/contracts/contracts/dao/schemes/AddMinter.sol",
  "compiler": {
    "name": "solc",
    "version": "0.5.16+commit.9c3226ce.Emscripten.clang"
  },
  "schemaVersion": "3.2.3",
  "updatedAt": "2022-10-27T11:34:11.110Z",
  "devdoc": {
    "methods": {
      "isOwner()": {
        "return": "true if `msg.sender` is the owner of the contract."
      },
      "isRegistered()": {
        "details": "function to see if an avatar has been set and if this scheme is registered",
        "return": "true if scheme is registered"
      },
      "isRegistered(address)": {
        "details": "function to see if an avatar has been set and if this scheme is registered",
        "return": "true if scheme is registered"
      },
      "owner()": {
        "return": "the address of the owner."
      },
      "renounceOwnership()": {
        "details": "Allows the current owner to relinquish control of the contract."
      },
      "setAvatar(address)": {
        "details": "Function to set a new avatar and controller for scheme can only be done by owner of scheme"
      },
      "transferOwnership(address)": {
        "details": "Allows the current owner to transfer control of the contract to a newOwner.",
        "params": {
          "newOwner": "The address to transfer ownership to."
        }
      }
    }
  },
  "userdoc": {
    "methods": {
      "renounceOwnership()": {
        "notice": "Renouncing to ownership will leave the contract without an owner. It will not be possible to call the functions with the `onlyOwner` modifier anymore."
      }
    }
  }
}