{
  "contractName": "AddMinter",
  "abi": [
    {
      "constant": true,
      "inputs": [],
      "name": "minter",
      "outputs": [
        {
          "name": "",
          "type": "address"
        }
      ],
      "payable": false,
      "stateMutability": "view",
      "type": "function"
    },
    {
      "constant": false,
      "inputs": [
        {
          "name": "_avatar",
          "type": "address"
        }
      ],
      "name": "setAvatar",
      "outputs": [],
      "payable": false,
      "stateMutability": "nonpayable",
      "type": "function"
    },
    {
      "constant": true,
      "inputs": [],
      "name": "isRegistered",
      "outputs": [],
      "payable": false,
      "stateMutability": "view",
      "type": "function"
    },
    {
      "constant": false,
      "inputs": [],
      "name": "renounceOwnership",
      "outputs": [],
      "payable": false,
      "stateMutability": "nonpayable",
      "type": "function"
    },
    {
      "constant": true,
      "inputs": [],
      "name": "owner",
      "outputs": [
        {
          "name": "",
          "type": "address"
        }
      ],
      "payable": false,
      "stateMutability": "view",
      "type": "function"
    },
    {
      "constant": true,
      "inputs": [],
      "name": "isOwner",
      "outputs": [
        {
          "name": "",
          "type": "bool"
        }
      ],
      "payable": false,
      "stateMutability": "view",
      "type": "function"
    },
    {
      "constant": false,
      "inputs": [
        {
          "name": "newOwner",
          "type": "address"
        }
      ],
      "name": "transferOwnership",
      "outputs": [],
      "payable": false,
      "stateMutability": "nonpayable",
      "type": "function"
    },
    {
      "inputs": [
        {
          "name": "_avatar",
          "type": "address"
        },
        {
          "name": "_minter",
          "type": "address"
        }
      ],
      "payable": false,
      "stateMutability": "nonpayable",
      "type": "constructor"
    },
    {
      "anonymous": false,
      "inputs": [
        {
          "indexed": true,
          "name": "previousOwner",
          "type": "address"
        },
        {
          "indexed": true,
          "name": "newOwner",
          "type": "address"
        }
      ],
      "name": "OwnershipTransferred",
      "type": "event"
    },
    {
      "constant": false,
      "inputs": [],
      "name": "addMinter",
      "outputs": [],
      "payable": false,
      "stateMutability": "nonpayable",
      "type": "function"
    }
  ],
  "bytecode": "0x608060405260028054600160a060020a031916905534801561002057600080fd5b50604051604080610c368339810180604052604081101561004057600080fd5b50805160209091015160008054600160a060020a03191633178082556040518492600160a060020a039290921691907f8be0079c531659141344cd1fd0a4f28419497f9722a3daafe3b4186f6b6457e0908290a360018054600160a060020a031916600160a060020a038381169190911791829055161561017157600160009054906101000a9004600160a060020a0316600160a060020a0316638da5cb5b6040518163ffffffff167c010000000000000000000000000000000000000000000000000000000002815260040160206040518083038186803b15801561012557600080fd5b505afa158015610139573d6000803e3d6000fd5b505050506040513d602081101561014f57600080fd5b505160028054600160a060020a031916600160a060020a039092169190911790555b50600160a060020a03811615156101e957604080517f08c379a000000000000000000000000000000000000000000000000000000000815260206004820152601760248201527f4d696e746572206d757374206e6f74206265206e756c6c000000000000000000604482015290519081900360640190fd5b60038054600160a060020a031916600160a060020a039290921691909117905550610a1d806102196000396000f3fe608060405234801561001057600080fd5b506004361061008c5760003560e060020a90048063715018a61161005f578063715018a6146100ed5780638da5cb5b146100f55780638f32d59b146100fd578063f2fde38b146101195761008c565b8063031cf58614610091578063075461721461009b578063086cfca8146100bf57806322366844146100e5575b600080fd5b61009961013f565b005b6100a3610496565b60408051600160a060020a039092168252519081900360200190f35b610099600480360360208110156100d557600080fd5b5035600160a060020a03166104a5565b61009961074d565b6100996108a2565b6100a361090c565b61010561091b565b604080519115158252519081900360200190f35b6100996004803603602081101561012f57600080fd5b5035600160a060020a031661092c565b600254600154604080517f9be2faed000000000000000000000000000000000000000000000000000000008152306004820152600160a060020a03928316602482015290519190921691639be2faed916044808301926020929190829003018186803b1580156101ae57600080fd5b505afa1580156101c2573d6000803e3d6000fd5b505050506040513d60208110156101d857600080fd5b50511515610230576040805160e560020a62461bcd02815260206004820152601860248201527f536368656d65206973206e6f7420726567697374657265640000000000000000604482015290519081900360640190fd5b600254600154604080517fe1758bd80000000000000000000000000000000000000000000000000000000081529051600160a060020a039384169363d1b7089a93169163e1758bd8916004808301926020929190829003018186803b15801561029857600080fd5b505afa1580156102ac573d6000803e3d6000fd5b505050506040513d60208110156102c257600080fd5b505160035460408051600160a060020a03928316602480830191909152825180830382018152604492830184526020810180517bffffffffffffffffffffffffffffffffffffffffffffffffffffffff167f983b2d5600000000000000000000000000000000000000000000000000000000178152600154945160e060020a63ffffffff8a160281528688166004820190815295909616938601849052600060648701819052608093870193845282516084880152825192969495909490939260a49091019190808383885b838110156103a657818101518382015260200161038e565b50505050905090810190601f1680156103d35780820380516001836020036101000a031916815260200191505b5095505050505050600060405180830381600087803b1580156103f557600080fd5b505af1158015610409573d6000803e3d6000fd5b505050506040513d6000823e601f3d908101601f19168201604090815281101561043257600080fd5b81516020830180519193928301929164010000000081111561045357600080fd5b8201602081018481111561046657600080fd5b815164010000000081118282018710171561048057600080fd5b5050600154600160a060020a0316945050505050ff5b600354600160a060020a031681565b8033600160a060020a0382161480156105b5575030600160a060020a0316638da5cb5b6040518163ffffffff1660e060020a02815260040160206040518083038186803b1580156104f557600080fd5b505afa158015610509573d6000803e3d6000fd5b505050506040513d602081101561051f57600080fd5b5051604080517f8da5cb5b0000000000000000000000000000000000000000000000000000000081529051600160a060020a0392831692841691638da5cb5b916004808301926020929190829003018186803b15801561057e57600080fd5b505afa158015610592573d6000803e3d6000fd5b505050506040513d60208110156105a857600080fd5b5051600160a060020a0316145b8061062f575030600160a060020a0316638da5cb5b6040518163ffffffff1660e060020a02815260040160206040518083038186803b1580156105f757600080fd5b505afa15801561060b573d6000803e3d6000fd5b505050506040513d602081101561062157600080fd5b5051600160a060020a031633145b151561066f5760405160e560020a62461bcd0281526004018080602001828103825260298152602001806109c96029913960400191505060405180910390fd5b6001805473ffffffffffffffffffffffffffffffffffffffff1916600160a060020a038481169190911791829055604080517f8da5cb5b00000000000000000000000000000000000000000000000000000000815290519290911691638da5cb5b91600480820192602092909190829003018186803b1580156106f157600080fd5b505afa158015610705573d6000803e3d6000fd5b505050506040513d602081101561071b57600080fd5b50516002805473ffffffffffffffffffffffffffffffffffffffff1916600160a060020a039092169190911790555050565b600154600160a060020a031615156107af576040805160e560020a62461bcd02815260206004820152601160248201527f417661746172206973206e6f7420736574000000000000000000000000000000604482015290519081900360640190fd5b600254600154604080517f9be2faed000000000000000000000000000000000000000000000000000000008152306004820152600160a060020a03928316602482015290519190921691639be2faed916044808301926020929190829003018186803b15801561081e57600080fd5b505afa158015610832573d6000803e3d6000fd5b505050506040513d602081101561084857600080fd5b505115156108a0576040805160e560020a62461bcd02815260206004820152601860248201527f536368656d65206973206e6f7420726567697374657265640000000000000000604482015290519081900360640190fd5b565b6108aa61091b565b15156108b557600080fd5b60008054604051600160a060020a03909116907f8be0079c531659141344cd1fd0a4f28419497f9722a3daafe3b4186f6b6457e0908390a36000805473ffffffffffffffffffffffffffffffffffffffff19169055565b600054600160a060020a031690565b600054600160a060020a0316331490565b61093461091b565b151561093f57600080fd5b6109488161094b565b50565b600160a060020a038116151561096057600080fd5b60008054604051600160a060020a03808516939216917f8be0079c531659141344cd1fd0a4f28419497f9722a3daafe3b4186f6b6457e091a36000805473ffffffffffffffffffffffffffffffffffffffff1916600160a060020a039290921691909117905556fe4f6e6c792063616c6c61626c6520627920617661746172206f66206f776e6572206f72206f776e6572a165627a7a72305820f26009658f451f3473e4b7b9619eaf38f27c39640fc01b18d230141d9653d1c90029",
  "source": "pragma solidity 0.5.4;\n\nimport \"@daostack/arc/contracts/controller/Avatar.sol\";\nimport \"@daostack/arc/contracts/controller/ControllerInterface.sol\";\n\nimport \"../../token/GoodDollar.sol\";\nimport \"./SchemeGuard.sol\";\n\n/* @title Scheme for proposing and adding a new minter.\n */\ncontract AddMinter is SchemeGuard {\n\n    address public minter;\n\n    constructor(Avatar _avatar, address _minter) \n        public\n        SchemeGuard(_avatar) \n    {\n        require(_minter != address(0), \"Minter must not be null\");\n        minter = _minter;\n    }\n\n    /* @dev Makes controller add the given minter to minters.\n     * can only be done if scheme has been registered.\n     */\n    function addMinter() public onlyRegistered {\n        controller.genericCall(\n            address(avatar.nativeToken()),\n            abi.encodeWithSignature(\"addMinter(address)\", minter),\n            avatar,\n            0);\n\n        selfdestruct(address(avatar));\n    }\n}",
  "sourcePath": "/Users/hadar/workspace/GoodDollar/GoodBootstrap/packages/contracts/contracts/dao/schemes/AddMinter.sol",
  "compiler": {
    "name": "solc",
    "version": "0.5.4+commit.9549d8ff.Emscripten.clang"
  },
  "schemaVersion": "3.0.9",
  "updatedAt": "2019-09-22T12:47:44.093Z",
  "devdoc": {
    "methods": {
      "isOwner()": {
        "return": "true if `msg.sender` is the owner of the contract."
      },
      "owner()": {
        "return": "the address of the owner."
      },
      "renounceOwnership()": {
        "details": "Allows the current owner to relinquish control of the contract. It will not be possible to call the functions with the `onlyOwner` modifier anymore."
      },
      "transferOwnership(address)": {
        "details": "Allows the current owner to transfer control of the contract to a newOwner.",
        "params": {
          "newOwner": "The address to transfer ownership to."
        }
      }
    }
  },
  "userdoc": {
    "methods": {
      "renounceOwnership()": {
        "notice": "Renouncing ownership will leave the contract without an owner, thereby removing any functionality that is only available to the owner."
      }
    }
  }
}