{
  "contractName": "AdminWallet",
  "abi": [
    {
      "constant": false,
      "inputs": [],
      "name": "renounceOwnership",
      "outputs": [],
      "payable": false,
      "stateMutability": "nonpayable",
      "type": "function"
    },
    {
      "constant": true,
      "inputs": [],
      "name": "owner",
      "outputs": [
        {
          "name": "",
          "type": "address"
        }
      ],
      "payable": false,
      "stateMutability": "view",
      "type": "function"
    },
    {
      "constant": true,
      "inputs": [],
      "name": "isOwner",
      "outputs": [
        {
          "name": "",
          "type": "bool"
        }
      ],
      "payable": false,
      "stateMutability": "view",
      "type": "function"
    },
    {
      "constant": true,
      "inputs": [],
      "name": "lastCalc",
      "outputs": [
        {
          "name": "",
          "type": "uint256"
        }
      ],
      "payable": false,
      "stateMutability": "view",
      "type": "function"
    },
    {
      "constant": true,
      "inputs": [],
      "name": "toppingAmount",
      "outputs": [
        {
          "name": "",
          "type": "uint256"
        }
      ],
      "payable": false,
      "stateMutability": "view",
      "type": "function"
    },
    {
      "constant": false,
      "inputs": [
        {
          "name": "newOwner",
          "type": "address"
        }
      ],
      "name": "transferOwnership",
      "outputs": [],
      "payable": false,
      "stateMutability": "nonpayable",
      "type": "function"
    },
    {
      "constant": true,
      "inputs": [],
      "name": "toppingTimes",
      "outputs": [
        {
          "name": "",
          "type": "uint256"
        }
      ],
      "payable": false,
      "stateMutability": "view",
      "type": "function"
    },
    {
      "inputs": [
        {
          "name": "_admins",
          "type": "address[]"
        },
        {
          "name": "_toppingAmount",
          "type": "uint256"
        },
        {
          "name": "_toppingTimes",
          "type": "uint256"
        },
        {
          "name": "_identity",
          "type": "address"
        }
      ],
      "payable": false,
      "stateMutability": "nonpayable",
      "type": "constructor"
    },
    {
      "payable": true,
      "stateMutability": "payable",
      "type": "fallback"
    },
    {
      "anonymous": false,
      "inputs": [
        {
          "indexed": true,
          "name": "admins",
          "type": "address[]"
        }
      ],
      "name": "AdminsAdded",
      "type": "event"
    },
    {
      "anonymous": false,
      "inputs": [
        {
          "indexed": true,
          "name": "admins",
          "type": "address[]"
        }
      ],
      "name": "AdminsRemoved",
      "type": "event"
    },
    {
      "anonymous": false,
      "inputs": [
        {
          "indexed": true,
          "name": "user",
          "type": "address"
        }
      ],
      "name": "WalletTopped",
      "type": "event"
    },
    {
      "anonymous": false,
      "inputs": [
        {
          "indexed": true,
          "name": "previousOwner",
          "type": "address"
        },
        {
          "indexed": true,
          "name": "newOwner",
          "type": "address"
        }
      ],
      "name": "OwnershipTransferred",
      "type": "event"
    },
    {
      "constant": false,
      "inputs": [
        {
          "name": "_bonus",
          "type": "address"
        }
      ],
      "name": "setBonusContract",
      "outputs": [],
      "payable": false,
      "stateMutability": "nonpayable",
      "type": "function"
    },
    {
      "constant": false,
      "inputs": [
        {
          "name": "_admins",
          "type": "address[]"
        }
      ],
      "name": "addAdmins",
      "outputs": [],
      "payable": false,
      "stateMutability": "nonpayable",
      "type": "function"
    },
    {
      "constant": false,
      "inputs": [
        {
          "name": "_admins",
          "type": "address[]"
        }
      ],
      "name": "removeAdmins",
      "outputs": [],
      "payable": false,
      "stateMutability": "nonpayable",
      "type": "function"
    },
    {
      "constant": false,
      "inputs": [
        {
          "name": "startIndex",
          "type": "uint256"
        }
      ],
      "name": "topAdmins",
      "outputs": [],
      "payable": false,
      "stateMutability": "nonpayable",
      "type": "function"
    },
    {
      "constant": true,
      "inputs": [
        {
          "name": "_user",
          "type": "address"
        }
      ],
      "name": "isAdmin",
      "outputs": [
        {
          "name": "",
          "type": "bool"
        }
      ],
      "payable": false,
      "stateMutability": "view",
      "type": "function"
    },
    {
      "constant": false,
      "inputs": [
        {
          "name": "_user",
          "type": "address"
        },
        {
          "name": "_did",
          "type": "string"
        }
      ],
      "name": "whitelist",
      "outputs": [],
      "payable": false,
      "stateMutability": "nonpayable",
      "type": "function"
    },
    {
      "constant": false,
      "inputs": [
        {
          "name": "_user",
          "type": "address"
        }
      ],
      "name": "removeWhitelist",
      "outputs": [],
      "payable": false,
      "stateMutability": "nonpayable",
      "type": "function"
    },
    {
      "constant": false,
      "inputs": [
        {
          "name": "_user",
          "type": "address"
        }
      ],
      "name": "blacklist",
      "outputs": [],
      "payable": false,
      "stateMutability": "nonpayable",
      "type": "function"
    },
    {
      "constant": false,
      "inputs": [
        {
          "name": "_user",
          "type": "address"
        }
      ],
      "name": "removeBlacklist",
      "outputs": [],
      "payable": false,
      "stateMutability": "nonpayable",
      "type": "function"
    },
    {
      "constant": false,
      "inputs": [
        {
          "name": "_user",
          "type": "address"
        }
      ],
      "name": "topWallet",
      "outputs": [],
      "payable": false,
      "stateMutability": "nonpayable",
      "type": "function"
    },
    {
      "constant": false,
      "inputs": [
        {
          "name": "_user",
          "type": "address"
        },
        {
          "name": "_amount",
          "type": "uint256"
        },
        {
          "name": "_did",
          "type": "string"
        }
      ],
      "name": "whitelistAndAwardUser",
      "outputs": [],
      "payable": false,
      "stateMutability": "nonpayable",
      "type": "function"
    }
  ],
  "bytecode": "0x608060405260048054600160a060020a03191690553480156200002157600080fd5b50604051620017ab380380620017ab833981018060405260808110156200004757600080fd5b8101908080516401000000008111156200006057600080fd5b820160208101848111156200007457600080fd5b81518560208202830111640100000000821117156200009257600080fd5b5050602082015160408084015160609094015160008054600160a060020a0319163317808255925194975092955092600160a060020a039190911691907f8be0079c531659141344cd1fd0a4f28419497f9722a3daafe3b4186f6b6457e0908290a360038054600160a060020a031916600160a060020a038316179055600583905560068290558351600010156200013857620001388464010000000062000142810204565b505050506200030c565b6200015564010000000062000268810204565b15156200016157600080fd5b60005b8151811015620001f957620001a282828151811015156200018157fe5b60209081029091010151600190640100000000620013276200027982021704565b60028282815181101515620001b357fe5b6020908102919091018101518254600180820185556000948552929093209092018054600160a060020a031916600160a060020a03909316929092179091550162000164565b508060405180828051906020019060200280838360005b838110156200022a57818101518382015260200162000210565b505060405194909201849003842095507f45486b220020cc2482ad1a5e0ae4d5f0b5372cea1b48173f6273c616a5047269945060009392505050a250565b600054600160a060020a0316331490565b600160a060020a03811615156200028f57600080fd5b620002a48282640100000000620002d4810204565b15620002af57600080fd5b600160a060020a0316600090815260209190915260409020805460ff19166001179055565b6000600160a060020a0382161515620002ec57600080fd5b50600160a060020a03166000908152602091909152604090205460ff1690565b61148f806200031c6000396000f3fe608060405260043610610126576000357c0100000000000000000000000000000000000000000000000000000000900480639c54df64116100b2578063e6ea393911610081578063e6ea39391461059f578063eb91e651146105b4578063f2fde38b146105e7578063f3da9f051461061a578063f9f92be41461062f57610126565b80639c54df641461046b578063db6268381461051b578063e2166c6414610545578063e6a847a61461057857610126565b8063377e11e0116100f9578063377e11e01461032d578063715018a6146103dd57806378c8cda7146103f25780638da5cb5b146104255780638f32d59b1461045657610126565b80631ff6e09f1461012857806324d7806c146101f05780632beeaca4146102375780633771dcf8146102fa575b005b34801561013457600080fd5b506101266004803603606081101561014b57600080fd5b600160a060020a038235169160208101359181019060608101604082013564010000000081111561017b57600080fd5b82018360208201111561018d57600080fd5b803590602001918460018302840111640100000000831117156101af57600080fd5b91908080601f016020809104026020016040519081016040528093929190818152602001838380828437600092019190915250929550610662945050505050565b3480156101fc57600080fd5b506102236004803603602081101561021357600080fd5b5035600160a060020a0316610895565b604080519115158252519081900360200190f35b34801561024357600080fd5b506101266004803603604081101561025a57600080fd5b600160a060020a03823516919081019060408101602082013564010000000081111561028557600080fd5b82018360208201111561029757600080fd5b803590602001918460018302840111640100000000831117156102b957600080fd5b91908080601f0160208091040260200160405190810160405280939291908181526020018383808284376000920191909152509295506108ae945050505050565b34801561030657600080fd5b506101266004803603602081101561031d57600080fd5b5035600160a060020a0316610a46565b34801561033957600080fd5b506101266004803603602081101561035057600080fd5b81019060208101813564010000000081111561036b57600080fd5b82018360208201111561037d57600080fd5b8035906020019184602083028401116401000000008311171561039f57600080fd5b919080806020026020016040519081016040528093929190818152602001838360200280828437600092019190915250929550610b95945050505050565b3480156103e957600080fd5b50610126610c52565b3480156103fe57600080fd5b506101266004803603602081101561041557600080fd5b5035600160a060020a0316610cbc565b34801561043157600080fd5b5061043a610d9d565b60408051600160a060020a039092168252519081900360200190f35b34801561046257600080fd5b50610223610dac565b34801561047757600080fd5b506101266004803603602081101561048e57600080fd5b8101906020810181356401000000008111156104a957600080fd5b8201836020820111156104bb57600080fd5b803590602001918460208302840111640100000000831117156104dd57600080fd5b919080806020026020016040519081016040528093929190818152602001838360200280828437600092019190915250929550610dbd945050505050565b34801561052757600080fd5b506101266004803603602081101561053e57600080fd5b5035610ed4565b34801561055157600080fd5b506101266004803603602081101561056857600080fd5b5035600160a060020a0316610fb8565b34801561058457600080fd5b5061058d610ffa565b60408051918252519081900360200190f35b3480156105ab57600080fd5b5061058d611000565b3480156105c057600080fd5b50610126600480360360208110156105d757600080fd5b5035600160a060020a0316611006565b3480156105f357600080fd5b506101266004803603602081101561060a57600080fd5b5035600160a060020a03166110ba565b34801561062657600080fd5b5061058d6110d6565b34801561063b57600080fd5b506101266004803603602081101561065257600080fd5b5035600160a060020a03166110dc565b61066b33610895565b15156106af576040805160e560020a62461bcd0281526020600482015260136024820152600080516020611414833981519152604482015290519081900360640190fd5b600454600160a060020a031615156106fb5760405160e560020a62461bcd0281526004018080602001828103825260218152602001806113f36021913960400191505060405180910390fd5b600354604080517f3af32abf000000000000000000000000000000000000000000000000000000008152600160a060020a03868116600483015291519190921691633af32abf916024808301926020929190829003018186803b15801561076157600080fd5b505afa158015610775573d6000803e3d6000fd5b505050506040513d602081101561078b57600080fd5b5051151561079d5761079d83826108ae565b60008211156108315760048054604080517fbd7fbbd6000000000000000000000000000000000000000000000000000000008152600160a060020a0387811694820194909452602481018690529051929091169163bd7fbbd69160448082019260009290919082900301818387803b15801561081857600080fd5b505af115801561082c573d6000803e3d6000fd5b505050505b60055461084590600463ffffffff61119016565b3331116108905760055433906108fc9061086690833163ffffffff6111b416565b6040518115909202916000818181858888f1935050505015801561088e573d6000803e3d6000fd5b505b505050565b60006108a860018363ffffffff6111c916565b92915050565b6108b733610895565b15156108fb576040805160e560020a62461bcd0281526020600482015260136024820152600080516020611414833981519152604482015290519081900360640190fd5b600354604080517f1b027099000000000000000000000000000000000000000000000000000000008152600160a060020a0385811660048301908152602483019384528551604484015285519190941693631b0270999387938793606490910190602085019080838360005b8381101561097f578181015183820152602001610967565b50505050905090810190601f1680156109ac5780820380516001836020036101000a031916815260200191505b509350505050600060405180830381600087803b1580156109cc57600080fd5b505af11580156109e0573d6000803e3d6000fd5b50506005546109f992509050600463ffffffff61119016565b333111610a425760055433906108fc90610a1a90833163ffffffff6111b416565b6040518115909202916000818181858888f19350505050158015610890573d6000803e3d6000fd5b5050565b610a4f33610895565b1515610a93576040805160e560020a62461bcd0281526020600482015260136024820152600080516020611414833981519152604482015290519081900360640190fd5b610a9b611200565b6006546007546000908152600860209081526040808320600160a060020a038616845290915290205410610b035760405160e560020a62461bcd0281526004018080602001828103825260308152602001806114346030913960400191505060405180910390fd5b600554610b1790600463ffffffff61119016565b600160a060020a0382163110610b2c57610b35565b610b3581611236565b600554610b4990600463ffffffff61119016565b333111610b925760055433906108fc90610b6a90833163ffffffff6111b416565b6040518115909202916000818181858888f19350505050158015610a42573d6000803e3d6000fd5b50565b610b9d610dac565b1515610ba857600080fd5b60005b8151811015610be557610bdd8282815181101515610bc557fe5b6020908102909101015160019063ffffffff6112db16565b600101610bab565b508060405180828051906020019060200280838360005b83811015610c14578181015183820152602001610bfc565b505060405194909201849003842095507fd5e6894641b5030a67e637ab2e12da64d8aec689f8bd1328de2b04d6a439c810945060009392505050a250565b610c5a610dac565b1515610c6557600080fd5b60008054604051600160a060020a03909116907f8be0079c531659141344cd1fd0a4f28419497f9722a3daafe3b4186f6b6457e0908390a36000805473ffffffffffffffffffffffffffffffffffffffff19169055565b610cc533610895565b1515610d09576040805160e560020a62461bcd0281526020600482015260136024820152600080516020611414833981519152604482015290519081900360640190fd5b600354604080517f291d9549000000000000000000000000000000000000000000000000000000008152600160a060020a0384811660048301529151919092169163291d954991602480830192600092919082900301818387803b158015610d7057600080fd5b505af1158015610d84573d6000803e3d6000fd5b5050600554610b4992509050600463ffffffff61119016565b600054600160a060020a031690565b600054600160a060020a0316331490565b610dc5610dac565b1515610dd057600080fd5b60005b8151811015610e6757610e058282815181101515610ded57fe5b6020908102909101015160019063ffffffff61132716565b60028282815181101515610e1557fe5b602090810291909101810151825460018082018555600094855292909320909201805473ffffffffffffffffffffffffffffffffffffffff1916600160a060020a039093169290921790915501610dd3565b508060405180828051906020019060200280838360005b83811015610e96578181015183820152602001610e7e565b505060405194909201849003842095507f45486b220020cc2482ad1a5e0ae4d5f0b5372cea1b48173f6273c616a5047269945060009392505050a250565b6002548110610f2d576040805160e560020a62461bcd02815260206004820152601360248201527f41646d696e206c69737420697320656d70747900000000000000000000000000604482015290519081900360640190fd5b805b60025481108015610f4257508160320181105b15610a4257600554610f5b90600463ffffffff61119016565b6002805483908110610f6957fe5b600091825260209091200154600160a060020a03163111610fb057610fb0600282815481101515610f9657fe5b600091825260209091200154600160a060020a0316611236565b600101610f2f565b610fc0610dac565b1515610fcb57600080fd5b6004805473ffffffffffffffffffffffffffffffffffffffff1916600160a060020a0392909216919091179055565b60075481565b60055481565b61100f33610895565b1515611053576040805160e560020a62461bcd0281526020600482015260136024820152600080516020611414833981519152604482015290519081900360640190fd5b600354604080517fc6a276c2000000000000000000000000000000000000000000000000000000008152600160a060020a0384811660048301529151919092169163c6a276c291602480830192600092919082900301818387803b158015610d7057600080fd5b6110c2610dac565b15156110cd57600080fd5b610b9281611375565b60065481565b6110e533610895565b1515611129576040805160e560020a62461bcd0281526020600482015260136024820152600080516020611414833981519152604482015290519081900360640190fd5b600354604080517f188efc16000000000000000000000000000000000000000000000000000000008152600160a060020a0384811660048301529151919092169163188efc1691602480830192600092919082900301818387803b158015610d7057600080fd5b600080821161119e57600080fd5b600082848115156111ab57fe5b04949350505050565b6000828211156111c357600080fd5b50900390565b6000600160a060020a03821615156111e057600080fd5b50600160a060020a03166000908152602091909152604090205460ff1690565b60006201518061121b600754426111b490919063ffffffff16565b81151561122457fe5b04905060018110610b92574260075550565b6007546000908152600860209081526040808320600160a060020a0385168085529252909120805460010190556005546108fc9061127b90833163ffffffff6111b416565b6040518115909202916000818181858888f193505050501580156112a3573d6000803e3d6000fd5b50604051600160a060020a038216907fc295f3ccd59be9e331d4c04df80a02aadddfe452c9e2d085556b125598e6785790600090a250565b600160a060020a03811615156112f057600080fd5b6112fa82826111c9565b151561130557600080fd5b600160a060020a0316600090815260209190915260409020805460ff19169055565b600160a060020a038116151561133c57600080fd5b61134682826111c9565b1561135057600080fd5b600160a060020a0316600090815260209190915260409020805460ff19166001179055565b600160a060020a038116151561138a57600080fd5b60008054604051600160a060020a03808516939216917f8be0079c531659141344cd1fd0a4f28419497f9722a3daafe3b4186f6b6457e091a36000805473ffffffffffffffffffffffffffffffffffffffff1916600160a060020a039290921691909117905556fe5369676e557020626f6e757320686173206e6f74206265656e207365742079657443616c6c6572206973206e6f742061646d696e00000000000000000000000000557365722077616c6c657420686173206265656e20746f7070656420746f6f206d616e792074696d657320746f646179a165627a7a723058202ff1afebe0859581d9263c6793907e68cc0eda1e4fff253c71f8e9691d2206840029",
  "source": "pragma solidity ^0.5.4;\n\nimport \"openzeppelin-solidity/contracts/access/Roles.sol\";\nimport \"openzeppelin-solidity/contracts/ownership/Ownable.sol\";\nimport \"openzeppelin-solidity/contracts/math/SafeMath.sol\";\n\nimport \"../identity/Identity.sol\";\nimport \"../dao/schemes/SignUpBonus.sol\";\n\n/* @title Admin wallet contract allowing whitelisting and topping up of\n * addresses\n */\ncontract AdminWallet is Ownable {\n    using Roles for Roles.Role;\n    using SafeMath for uint256;\n\n    Roles.Role private admins;\n\n    address payable[] adminlist;\n\n    Identity identity;\n\n    SignUpBonus bonus = SignUpBonus(0);\n\n    uint256 public toppingAmount;\n\n    uint256 public toppingTimes;\n    uint256 public lastCalc;\n\n    mapping(uint256 => mapping(address => uint256)) toppings;\n\n    event AdminsAdded(address payable[] indexed admins);\n    event AdminsRemoved(address[] indexed admins);\n    event WalletTopped(address indexed user);\n\n    constructor(\n        address payable[] memory _admins,\n        uint256 _toppingAmount,\n        uint256 _toppingTimes,\n        Identity _identity\n    ) public {\n        identity = _identity;\n\n        toppingAmount = _toppingAmount;\n        toppingTimes = _toppingTimes;\n\n        if (_admins.length > 0) {\n            addAdmins(_admins);\n        }\n    }\n\n    /* @dev Modifier that checks if caller is admin of wallet\n     */\n    modifier onlyAdmin() {\n        require(isAdmin(msg.sender), \"Caller is not admin\");\n        _;\n    }\n\n    modifier reimburseGas() {\n        _;\n        if (msg.sender.balance <= toppingAmount.div(4)) {\n            msg.sender.transfer(toppingAmount.sub(msg.sender.balance));\n        }\n    }\n\n    function() external payable {}\n\n    /* @dev Internal function that sets current day\n     */\n    function setDay() internal {\n        uint256 dayDiff = now.sub(lastCalc) / 1 days;\n\n        if (dayDiff >= 1) {\n            lastCalc = now;\n        }\n    }\n\n    function setBonusContract(SignUpBonus _bonus) public onlyOwner {\n        bonus = _bonus;\n    }\n\n    /* @dev Function to add list of addresses to admins\n     * can only be called by creator of contract\n     * @param _admins the list of addresses to add\n     */\n    function addAdmins(address payable[] memory _admins) public onlyOwner {\n        for (uint256 i = 0; i < _admins.length; i++) {\n            admins.add(_admins[i]);\n\n            adminlist.push(_admins[i]);\n        }\n        emit AdminsAdded(_admins);\n    }\n\n    /* @dev Function to remove list of addresses to admins\n     * can only be called byu creator of contract\n     * @param _admins the list of addresses to remove\n     */\n    function removeAdmins(address[] memory _admins) public onlyOwner {\n        for (uint256 i = 0; i < _admins.length; i++) {\n            admins.remove(_admins[i]);\n        }\n        emit AdminsRemoved(_admins);\n    }\n\n    /* @dev top the first 50 admins\n     */\n    function topAdmins(uint256 startIndex) public {\n        require(adminlist.length > startIndex, \"Admin list is empty\");\n        for (\n            uint256 i = startIndex;\n            (i < adminlist.length && i < startIndex + 50);\n            i++\n        ) {\n            if (adminlist[i].balance <= toppingAmount.div(4)) {\n                _topWallet(adminlist[i]);\n            }\n        }\n    }\n\n    /* @dev Function to check if given address is an admin\n     * @param _user the address to check\n     * @returns A bool indicating if user is an admin\n     */\n    function isAdmin(address _user) public view returns (bool) {\n        return admins.has(_user);\n    }\n\n    /* @dev Function to add given address to whitelist of identity contract\n     * can only be done by admins of wallet and if wallet is an IdentityAdmin\n     */\n    function whitelist(address _user, string memory _did)\n        public\n        onlyAdmin\n        reimburseGas\n    {\n        identity.addWhitelistedWithDID(_user, _did);\n    }\n\n    /* @dev Function to remove given address from whitelist of identity contract\n     * can only be done by admins of wallet and if wallet is an IdentityAdmin\n     */\n    function removeWhitelist(address _user) public onlyAdmin reimburseGas {\n        identity.removeWhitelisted(_user);\n    }\n\n    /* @dev Function to add given address to blacklist of identity contract\n     * can only be done by admins of wallet and if wallet is an IdentityAdmin\n     */\n    function blacklist(address _user) public onlyAdmin reimburseGas {\n        identity.addBlacklisted(_user);\n    }\n\n    /* @dev Function to remove given address from blacklist of identity contract\n     * can only be done by admins of wallet and if wallet is an IdentityAdmin\n     */\n    function removeBlacklist(address _user) public onlyAdmin reimburseGas {\n        identity.removeBlacklisted(_user);\n    }\n\n    /* @dev Function to top given address with amount of G$ given in constructor\n     * can only be done by admin the amount of times specified in constructor per day\n     * @param _user The address to transfer to\n     */\n    function topWallet(address payable _user) public onlyAdmin reimburseGas {\n        setDay();\n        require(\n            toppings[lastCalc][_user] < toppingTimes,\n            \"User wallet has been topped too many times today\"\n        );\n        if (address(_user).balance >= toppingAmount.div(4)) return;\n\n        _topWallet(_user);\n    }\n\n    function _topWallet(address payable _wallet) internal {\n        toppings[lastCalc][_wallet] += 1;\n        _wallet.transfer(toppingAmount.sub(address(_wallet).balance));\n        emit WalletTopped(_wallet);\n    }\n\n    /* @dev Function to whitelist user and also award him pending bonuses, it can be used also later\n     * when user is already whitelisted to just award pending bonuses\n     * can only be done by admin\n     * @param _user The address to transfer to and whitelist\n     * @param _amount the bonus amount to give\n     * @param _did decentralized id of user, pointer to some profile\n     */\n    function whitelistAndAwardUser(\n        address _user,\n        uint256 _amount,\n        string memory _did\n    ) public onlyAdmin reimburseGas {\n        require(bonus != SignUpBonus(0), \"SignUp bonus has not been set yet\");\n\n        if (identity.isWhitelisted(_user) == false) {\n            whitelist(_user, _did);\n        }\n\n        if (_amount > 0) {\n            bonus.awardUser(_user, _amount);\n        }\n    }\n}\n",
  "sourcePath": "/Users/hadar/workspace/GoodDollar/GoodBootstrap/packages/contracts/contracts/wallet/AdminWallet.sol",
  "compiler": {
    "name": "solc",
    "version": "0.5.4+commit.9549d8ff.Emscripten.clang"
  },
  "schemaVersion": "3.0.16",
  "updatedAt": "2020-04-16T01:15:21.418Z",
  "devdoc": {
    "methods": {
      "isOwner()": {
        "return": "true if `msg.sender` is the owner of the contract."
      },
      "owner()": {
        "return": "the address of the owner."
      },
      "renounceOwnership()": {
        "details": "Allows the current owner to relinquish control of the contract."
      },
      "transferOwnership(address)": {
        "details": "Allows the current owner to transfer control of the contract to a newOwner.",
        "params": {
          "newOwner": "The address to transfer ownership to."
        }
      }
    }
  },
  "userdoc": {
    "methods": {
      "renounceOwnership()": {
        "notice": "Renouncing to ownership will leave the contract without an owner. It will not be possible to call the functions with the `onlyOwner` modifier anymore."
      }
    }
  }
}