{
  "contractName": "AdminWallet",
  "abi": [
    {
      "constant": true,
      "inputs": [],
      "name": "currentDay",
      "outputs": [
        {
          "name": "",
          "type": "uint256"
        }
      ],
      "payable": false,
      "stateMutability": "view",
      "type": "function"
    },
    {
      "constant": false,
      "inputs": [],
      "name": "renounceOwnership",
      "outputs": [],
      "payable": false,
      "stateMutability": "nonpayable",
      "type": "function"
    },
    {
      "constant": true,
      "inputs": [],
      "name": "owner",
      "outputs": [
        {
          "name": "",
          "type": "address"
        }
      ],
      "payable": false,
      "stateMutability": "view",
      "type": "function"
    },
    {
      "constant": true,
      "inputs": [],
      "name": "isOwner",
      "outputs": [
        {
          "name": "",
          "type": "bool"
        }
      ],
      "payable": false,
      "stateMutability": "view",
      "type": "function"
    },
    {
      "constant": true,
      "inputs": [],
      "name": "adminToppingAmount",
      "outputs": [
        {
          "name": "",
          "type": "uint256"
        }
      ],
      "payable": false,
      "stateMutability": "view",
      "type": "function"
    },
    {
      "constant": true,
      "inputs": [],
      "name": "toppingAmount",
      "outputs": [
        {
          "name": "",
          "type": "uint256"
        }
      ],
      "payable": false,
      "stateMutability": "view",
      "type": "function"
    },
    {
      "constant": true,
      "inputs": [],
      "name": "periodStart",
      "outputs": [
        {
          "name": "",
          "type": "uint256"
        }
      ],
      "payable": false,
      "stateMutability": "view",
      "type": "function"
    },
    {
      "constant": false,
      "inputs": [
        {
          "name": "newOwner",
          "type": "address"
        }
      ],
      "name": "transferOwnership",
      "outputs": [],
      "payable": false,
      "stateMutability": "nonpayable",
      "type": "function"
    },
    {
      "constant": true,
      "inputs": [],
      "name": "toppingTimes",
      "outputs": [
        {
          "name": "",
          "type": "uint256"
        }
      ],
      "payable": false,
      "stateMutability": "view",
      "type": "function"
    },
    {
      "inputs": [
        {
          "name": "_admins",
          "type": "address[]"
        },
        {
          "name": "_toppingAmount",
          "type": "uint256"
        },
        {
          "name": "_toppingTimes",
          "type": "uint256"
        },
        {
          "name": "_identity",
          "type": "address"
        }
      ],
      "payable": false,
      "stateMutability": "nonpayable",
      "type": "constructor"
    },
    {
      "payable": true,
      "stateMutability": "payable",
      "type": "fallback"
    },
    {
      "anonymous": false,
      "inputs": [
        {
          "indexed": true,
          "name": "admins",
          "type": "address[]"
        }
      ],
      "name": "AdminsAdded",
      "type": "event"
    },
    {
      "anonymous": false,
      "inputs": [
        {
          "indexed": true,
          "name": "admins",
          "type": "address[]"
        }
      ],
      "name": "AdminsRemoved",
      "type": "event"
    },
    {
      "anonymous": false,
      "inputs": [
        {
          "indexed": true,
          "name": "user",
          "type": "address"
        },
        {
          "indexed": false,
          "name": "amount",
          "type": "uint256"
        }
      ],
      "name": "WalletTopped",
      "type": "event"
    },
    {
      "anonymous": false,
      "inputs": [
        {
          "indexed": true,
          "name": "_contract",
          "type": "address"
        },
        {
          "indexed": false,
          "name": "_data",
          "type": "bytes"
        },
        {
          "indexed": false,
          "name": "_value",
          "type": "uint256"
        },
        {
          "indexed": false,
          "name": "_success",
          "type": "bool"
        }
      ],
      "name": "GenericCall",
      "type": "event"
    },
    {
      "anonymous": false,
      "inputs": [
        {
          "indexed": true,
          "name": "previousOwner",
          "type": "address"
        },
        {
          "indexed": true,
          "name": "newOwner",
          "type": "address"
        }
      ],
      "name": "OwnershipTransferred",
      "type": "event"
    },
    {
      "constant": false,
      "inputs": [
        {
          "name": "_bonus",
          "type": "address"
        }
      ],
      "name": "setBonusContract",
      "outputs": [],
      "payable": false,
      "stateMutability": "nonpayable",
      "type": "function"
    },
    {
      "constant": false,
      "inputs": [
        {
          "name": "_admins",
          "type": "address[]"
        }
      ],
      "name": "addAdmins",
      "outputs": [],
      "payable": false,
      "stateMutability": "nonpayable",
      "type": "function"
    },
    {
      "constant": false,
      "inputs": [
        {
          "name": "_admins",
          "type": "address[]"
        }
      ],
      "name": "removeAdmins",
      "outputs": [],
      "payable": false,
      "stateMutability": "nonpayable",
      "type": "function"
    },
    {
      "constant": false,
      "inputs": [
        {
          "name": "startIndex",
          "type": "uint256"
        }
      ],
      "name": "topAdmins",
      "outputs": [],
      "payable": false,
      "stateMutability": "nonpayable",
      "type": "function"
    },
    {
      "constant": false,
      "inputs": [
        {
          "name": "startIndex",
          "type": "uint256"
        },
        {
          "name": "endIndex",
          "type": "uint256"
        }
      ],
      "name": "topAdmins",
      "outputs": [],
      "payable": false,
      "stateMutability": "nonpayable",
      "type": "function"
    },
    {
      "constant": true,
      "inputs": [
        {
          "name": "_user",
          "type": "address"
        }
      ],
      "name": "isAdmin",
      "outputs": [
        {
          "name": "",
          "type": "bool"
        }
      ],
      "payable": false,
      "stateMutability": "view",
      "type": "function"
    },
    {
      "constant": false,
      "inputs": [
        {
          "name": "_user",
          "type": "address"
        },
        {
          "name": "_did",
          "type": "string"
        }
      ],
      "name": "whitelist",
      "outputs": [],
      "payable": false,
      "stateMutability": "nonpayable",
      "type": "function"
    },
    {
      "constant": false,
      "inputs": [
        {
          "name": "_user",
          "type": "address"
        }
      ],
      "name": "removeWhitelist",
      "outputs": [],
      "payable": false,
      "stateMutability": "nonpayable",
      "type": "function"
    },
    {
      "constant": false,
      "inputs": [
        {
          "name": "_user",
          "type": "address"
        }
      ],
      "name": "blacklist",
      "outputs": [],
      "payable": false,
      "stateMutability": "nonpayable",
      "type": "function"
    },
    {
      "constant": false,
      "inputs": [
        {
          "name": "_user",
          "type": "address"
        }
      ],
      "name": "removeBlacklist",
      "outputs": [],
      "payable": false,
      "stateMutability": "nonpayable",
      "type": "function"
    },
    {
      "constant": false,
      "inputs": [
        {
          "name": "_user",
          "type": "address"
        }
      ],
      "name": "topWallet",
      "outputs": [],
      "payable": false,
      "stateMutability": "nonpayable",
      "type": "function"
    },
    {
      "constant": false,
      "inputs": [
        {
          "name": "_user",
          "type": "address"
        },
        {
          "name": "_amount",
          "type": "uint256"
        },
        {
          "name": "_did",
          "type": "string"
        }
      ],
      "name": "whitelistAndAwardUser",
      "outputs": [],
      "payable": false,
      "stateMutability": "nonpayable",
      "type": "function"
    },
    {
      "constant": false,
      "inputs": [
        {
          "name": "_user",
          "type": "address"
        },
        {
          "name": "_amount",
          "type": "uint256"
        }
      ],
      "name": "awardUser",
      "outputs": [],
      "payable": false,
      "stateMutability": "nonpayable",
      "type": "function"
    },
    {
      "constant": false,
      "inputs": [
        {
          "name": "_contract",
          "type": "address"
        },
        {
          "name": "_data",
          "type": "bytes"
        },
        {
          "name": "_value",
          "type": "uint256"
        }
      ],
      "name": "genericCall",
      "outputs": [
        {
          "name": "success",
          "type": "bool"
        },
        {
          "name": "returnValue",
          "type": "bytes"
        }
      ],
      "payable": false,
      "stateMutability": "nonpayable",
      "type": "function"
    },
    {
      "constant": false,
      "inputs": [],
      "name": "destroy",
      "outputs": [],
      "payable": false,
      "stateMutability": "nonpayable",
      "type": "function"
    }
  ],
  "bytecode": "0x608060405260048054600160a060020a03191690553480156200002157600080fd5b5060405162001cfd38038062001cfd833981018060405260808110156200004757600080fd5b8101908080516401000000008111156200006057600080fd5b820160208101848111156200007457600080fd5b81518560208202830111640100000000821117156200009257600080fd5b5050602082015160408084015160609094015160008054600160a060020a0319163317808255925194975092955092600160a060020a039190911691907f8be0079c531659141344cd1fd0a4f28419497f9722a3daafe3b4186f6b6457e0908290a360038054600160a060020a031916600160a060020a0383161790556005839055661ff973cafa80006006556007829055426009558351600010156200014757620001478464010000000062000151810204565b505050506200031b565b6200016464010000000062000277810204565b15156200017057600080fd5b60005b81518110156200020857620001b182828151811015156200019057fe5b60209081029091010151600190640100000000620018556200028882021704565b60028282815181101515620001c257fe5b6020908102919091018101518254600180820185556000948552929093209092018054600160a060020a031916600160a060020a03909316929092179091550162000173565b508060405180828051906020019060200280838360005b83811015620002395781810151838201526020016200021f565b505060405194909201849003842095507f45486b220020cc2482ad1a5e0ae4d5f0b5372cea1b48173f6273c616a5047269945060009392505050a250565b600054600160a060020a0316331490565b600160a060020a03811615156200029e57600080fd5b620002b38282640100000000620002e3810204565b15620002be57600080fd5b600160a060020a0316600090815260209190915260409020805460ff19166001179055565b6000600160a060020a0382161515620002fb57600080fd5b50600160a060020a03166000908152602091909152604090205460ff1690565b6119d2806200032b6000396000f3fe608060405260043610610168576000357c0100000000000000000000000000000000000000000000000000000000900480638f32d59b116100d3578063e6ea39391161008c578063e6ea3939146107bc578063eb91e651146107d1578063eda4e6d614610804578063f2fde38b14610819578063f3da9f051461084c578063f9f92be41461086157610168565b80638f32d59b1461064c5780639c54df6414610661578063bd7fbbd614610711578063c48924961461074a578063db6268381461075f578063e2166c641461078957610168565b80635c9302c9116101255780635c9302c9146105675780635fc944e91461058e578063715018a6146105be57806378c8cda7146105d357806383197ef0146106065780638da5cb5b1461061b57610168565b80631ff6e09f1461016a57806324d7806c146102325780632beeaca4146102795780632bf164581461033c5780633771dcf814610484578063377e11e0146104b7575b005b34801561017657600080fd5b506101686004803603606081101561018d57600080fd5b600160a060020a03823516916020810135918101906060810160408201356401000000008111156101bd57600080fd5b8201836020820111156101cf57600080fd5b803590602001918460018302840111640100000000831117156101f157600080fd5b91908080601f016020809104026020016040519081016040528093929190818152602001838380828437600092019190915250929550610894945050505050565b34801561023e57600080fd5b506102656004803603602081101561025557600080fd5b5035600160a060020a0316610a9e565b604080519115158252519081900360200190f35b34801561028557600080fd5b506101686004803603604081101561029c57600080fd5b600160a060020a0382351691908101906040810160208201356401000000008111156102c757600080fd5b8201836020820111156102d957600080fd5b803590602001918460018302840111640100000000831117156102fb57600080fd5b91908080601f016020809104026020016040519081016040528093929190818152602001838380828437600092019190915250929550610ab7945050505050565b34801561034857600080fd5b506104016004803603606081101561035f57600080fd5b600160a060020a03823516919081019060408101602082013564010000000081111561038a57600080fd5b82018360208201111561039c57600080fd5b803590602001918460018302840111640100000000831117156103be57600080fd5b91908080601f0160208091040260200160405190810160405280939291908181526020018383808284376000920191909152509295505091359250610c28915050565b604051808315151515815260200180602001828103825283818151815260200191508051906020019080838360005b83811015610448578181015183820152602001610430565b50505050905090810190601f1680156104755780820380516001836020036101000a031916815260200191505b50935050505060405180910390f35b34801561049057600080fd5b50610168600480360360208110156104a757600080fd5b5035600160a060020a0316610e19565b3480156104c357600080fd5b50610168600480360360208110156104da57600080fd5b8101906020810181356401000000008111156104f557600080fd5b82018360208201111561050757600080fd5b8035906020019184602083028401116401000000008311171561052957600080fd5b919080806020026020016040519081016040528093929190818152602001838360200280828437600092019190915250929550610f41945050505050565b34801561057357600080fd5b5061057c610ffe565b60408051918252519081900360200190f35b34801561059a57600080fd5b50610168600480360360408110156105b157600080fd5b5080359060200135611004565b3480156105ca57600080fd5b506101686110fa565b3480156105df57600080fd5b50610168600480360360208110156105f657600080fd5b5035600160a060020a0316611164565b34801561061257600080fd5b50610168611245565b34801561062757600080fd5b5061063061125b565b60408051600160a060020a039092168252519081900360200190f35b34801561065857600080fd5b5061026561126a565b34801561066d57600080fd5b506101686004803603602081101561068457600080fd5b81019060208101813564010000000081111561069f57600080fd5b8201836020820111156106b157600080fd5b803590602001918460208302840111640100000000831117156106d357600080fd5b91908080602002602001604051908101604052809392919081815260200183836020028082843760009201919091525092955061127b945050505050565b34801561071d57600080fd5b506101686004803603604081101561073457600080fd5b50600160a060020a038135169060200135611392565b34801561075657600080fd5b5061057c6114ba565b34801561076b57600080fd5b506101686004803603602081101561078257600080fd5b50356114c0565b34801561079557600080fd5b50610168600480360360208110156107ac57600080fd5b5035600160a060020a03166114cd565b3480156107c857600080fd5b5061057c61150f565b3480156107dd57600080fd5b50610168600480360360208110156107f457600080fd5b5035600160a060020a0316611515565b34801561081057600080fd5b5061057c6115c9565b34801561082557600080fd5b506101686004803603602081101561083c57600080fd5b5035600160a060020a03166115cf565b34801561085857600080fd5b5061057c6115eb565b34801561086d57600080fd5b506101686004803603602081101561088457600080fd5b5035600160a060020a03166115f1565b61089d33610a9e565b15156108e1576040805160e560020a62461bcd0281526020600482015260136024820152600080516020611957833981519152604482015290519081900360640190fd5b600454600160a060020a0316151561092d5760405160e560020a62461bcd0281526004018080602001828103825260218152602001806119366021913960400191505060405180910390fd5b600354604080517f3af32abf000000000000000000000000000000000000000000000000000000008152600160a060020a03868116600483015291519190921691633af32abf916024808301926020929190829003018186803b15801561099357600080fd5b505afa1580156109a7573d6000803e3d6000fd5b505050506040513d60208110156109bd57600080fd5b505115156109cf576109cf8382610ab7565b6000821115610a635760048054604080517fbd7fbbd6000000000000000000000000000000000000000000000000000000008152600160a060020a0387811694820194909452602481018690529051929091169163bd7fbbd69160448082019260009290919082900301818387803b158015610a4a57600080fd5b505af1158015610a5e573d6000803e3d6000fd5b505050505b600654610a7790600263ffffffff6116a516565b333111801590610a8b5750610a8b33610a9e565b15610a9957610a99336116c9565b505050565b6000610ab160018363ffffffff6117aa16565b92915050565b610ac033610a9e565b1515610b04576040805160e560020a62461bcd0281526020600482015260136024820152600080516020611957833981519152604482015290519081900360640190fd5b600354604080517f1b027099000000000000000000000000000000000000000000000000000000008152600160a060020a0385811660048301908152602483019384528551604484015285519190941693631b0270999387938793606490910190602085019080838360005b83811015610b88578181015183820152602001610b70565b50505050905090810190601f168015610bb55780820380516001836020036101000a031916815260200191505b509350505050600060405180830381600087803b158015610bd557600080fd5b505af1158015610be9573d6000803e3d6000fd5b5050600654610c0292509050600263ffffffff6116a516565b333111801590610c165750610c1633610a9e565b15610c2457610c24336116c9565b5050565b60006060610c3533610a9e565b1515610c79576040805160e560020a62461bcd0281526020600482015260136024820152600080516020611957833981519152604482015290519081900360640190fd5b84600160a060020a031683856040518082805190602001908083835b60208310610cb45780518252601f199092019160209182019101610c95565b6001836020036101000a03801982511681845116808217855250505050505090500191505060006040518083038185875af1925050503d8060008114610d16576040519150601f19603f3d011682016040523d82523d6000602084013e610d1b565b606091505b50809250819350505084600160a060020a03167f534b52c783549f909f9e743120524d0b7154058e4a54cdc895c2c0b587a1c7e0858585604051808060200184815260200183151515158152602001828103825285818151815260200191508051906020019080838360005b83811015610d9f578181015183820152602001610d87565b50505050905090810190601f168015610dcc5780820380516001836020036101000a031916815260200191505b5094505050505060405180910390a2600654610def90600263ffffffff6116a516565b333111801590610e035750610e0333610a9e565b15610e1157610e11336116c9565b935093915050565b610e2233610a9e565b1515610e66576040805160e560020a62461bcd0281526020600482015260136024820152600080516020611957833981519152604482015290519081900360640190fd5b610e6e6117e1565b6007546008546000908152600a60209081526040808320600160a060020a038616845290915290205410610ed65760405160e560020a62461bcd0281526004018080602001828103825260308152602001806119776030913960400191505060405180910390fd5b600554610eea90600463ffffffff6116a516565b600160a060020a0382163110610eff57610f08565b610f08816116c9565b600654610f1c90600263ffffffff6116a516565b333111801590610f305750610f3033610a9e565b15610f3e57610f3e336116c9565b50565b610f4961126a565b1515610f5457600080fd5b60005b8151811015610f9157610f898282815181101515610f7157fe5b6020908102909101015160019063ffffffff61180916565b600101610f57565b508060405180828051906020019060200280838360005b83811015610fc0578181015183820152602001610fa8565b505060405194909201849003842095507fd5e6894641b5030a67e637ab2e12da64d8aec689f8bd1328de2b04d6a439c810945060009392505050a250565b60085481565b600254821061105d576040805160e560020a62461bcd02815260206004820152601360248201527f41646d696e206c69737420697320656d70747900000000000000000000000000604482015290519081900360640190fd5b815b6002548110801561106f57508181105b156110e55760065461108890600263ffffffff6116a516565b600280548390811061109657fe5b600091825260209091200154600160a060020a031631116110dd576110dd6002828154811015156110c357fe5b600091825260209091200154600160a060020a03166116c9565b60010161105f565b50600654610c0290600263ffffffff6116a516565b61110261126a565b151561110d57600080fd5b60008054604051600160a060020a03909116907f8be0079c531659141344cd1fd0a4f28419497f9722a3daafe3b4186f6b6457e0908390a36000805473ffffffffffffffffffffffffffffffffffffffff19169055565b61116d33610a9e565b15156111b1576040805160e560020a62461bcd0281526020600482015260136024820152600080516020611957833981519152604482015290519081900360640190fd5b600354604080517f291d9549000000000000000000000000000000000000000000000000000000008152600160a060020a0384811660048301529151919092169163291d954991602480830192600092919082900301818387803b15801561121857600080fd5b505af115801561122c573d6000803e3d6000fd5b5050600654610f1c92509050600263ffffffff6116a516565b61124d61126a565b151561125857600080fd5b33ff5b600054600160a060020a031690565b600054600160a060020a0316331490565b61128361126a565b151561128e57600080fd5b60005b8151811015611325576112c382828151811015156112ab57fe5b6020908102909101015160019063ffffffff61185516565b600282828151811015156112d357fe5b602090810291909101810151825460018082018555600094855292909320909201805473ffffffffffffffffffffffffffffffffffffffff1916600160a060020a039093169290921790915501611291565b508060405180828051906020019060200280838360005b8381101561135457818101518382015260200161133c565b505060405194909201849003842095507f45486b220020cc2482ad1a5e0ae4d5f0b5372cea1b48173f6273c616a5047269945060009392505050a250565b61139b33610a9e565b15156113df576040805160e560020a62461bcd0281526020600482015260136024820152600080516020611957833981519152604482015290519081900360640190fd5b600454600160a060020a0316151561142b5760405160e560020a62461bcd0281526004018080602001828103825260218152602001806119366021913960400191505060405180910390fd5b60008111156114a65760048054604080517fbd7fbbd6000000000000000000000000000000000000000000000000000000008152600160a060020a0386811694820194909452602481018590529051929091169163bd7fbbd69160448082019260009290919082900301818387803b158015610bd557600080fd5b600654610c0290600263ffffffff6116a516565b60065481565b610f088182603201611004565b6114d561126a565b15156114e057600080fd5b6004805473ffffffffffffffffffffffffffffffffffffffff1916600160a060020a0392909216919091179055565b60055481565b61151e33610a9e565b1515611562576040805160e560020a62461bcd0281526020600482015260136024820152600080516020611957833981519152604482015290519081900360640190fd5b600354604080517fc6a276c2000000000000000000000000000000000000000000000000000000008152600160a060020a0384811660048301529151919092169163c6a276c291602480830192600092919082900301818387803b15801561121857600080fd5b60095481565b6115d761126a565b15156115e257600080fd5b610f3e816118a3565b60075481565b6115fa33610a9e565b151561163e576040805160e560020a62461bcd0281526020600482015260136024820152600080516020611957833981519152604482015290519081900360640190fd5b600354604080517f188efc16000000000000000000000000000000000000000000000000000000008152600160a060020a0384811660048301529151919092169163188efc1691602480830192600092919082900301818387803b15801561121857600080fd5b60008082116116b357600080fd5b600082848115156116c057fe5b04949350505050565b6008546000908152600a60209081526040808320600160a060020a03851684529091528120805460010190556116fe82610a9e565b61170a5760055461170e565b6006545b9050600061172c82600160a060020a0385163163ffffffff61192016565b604051909150600160a060020a0384169082156108fc029083906000818181858888f19350505050158015611765573d6000803e3d6000fd5b50604080518281529051600160a060020a038516917ff60e56b8021f6ac77bd50d4acdbed9ad9e85107144d43090774a9ebe5ffed985919081900360200190a2505050565b6000600160a060020a03821615156117c157600080fd5b50600160a060020a03166000908152602091909152604090205460ff1690565b620151806117fa6009544261192090919063ffffffff16565b81151561180357fe5b04600855565b600160a060020a038116151561181e57600080fd5b61182882826117aa565b151561183357600080fd5b600160a060020a0316600090815260209190915260409020805460ff19169055565b600160a060020a038116151561186a57600080fd5b61187482826117aa565b1561187e57600080fd5b600160a060020a0316600090815260209190915260409020805460ff19166001179055565b600160a060020a03811615156118b857600080fd5b60008054604051600160a060020a03808516939216917f8be0079c531659141344cd1fd0a4f28419497f9722a3daafe3b4186f6b6457e091a36000805473ffffffffffffffffffffffffffffffffffffffff1916600160a060020a0392909216919091179055565b60008282111561192f57600080fd5b5090039056fe5369676e557020626f6e757320686173206e6f74206265656e207365742079657443616c6c6572206973206e6f742061646d696e00000000000000000000000000557365722077616c6c657420686173206265656e20746f7070656420746f6f206d616e792074696d657320746f646179a165627a7a72305820310d3c53b83c0580849e7729fce981673e432be550939d8a6dbce1217954e9ca0029",
  "source": "pragma solidity 0.5.4;\n\nimport \"openzeppelin-solidity/contracts/access/Roles.sol\";\nimport \"openzeppelin-solidity/contracts/ownership/Ownable.sol\";\nimport \"openzeppelin-solidity/contracts/math/SafeMath.sol\";\n\nimport \"../identity/Identity.sol\";\nimport \"../dao/schemes/SignUpBonus.sol\";\n\n\n/* @title Admin wallet contract allowing whitelisting and topping up of\n * addresses\n */\ncontract AdminWallet is Ownable {\n    using Roles for Roles.Role;\n    using SafeMath for uint256;\n\n    Roles.Role private admins;\n\n    address payable[] adminlist;\n\n    Identity identity;\n\n    SignUpBonus bonus = SignUpBonus(0);\n\n    uint256 public toppingAmount;\n    uint256 public adminToppingAmount;\n\n    uint256 public toppingTimes;\n    uint256 public currentDay;\n    uint256 public periodStart;\n\n    mapping(uint256 => mapping(address => uint256)) toppings;\n\n    event AdminsAdded(address payable[] indexed admins);\n    event AdminsRemoved(address[] indexed admins);\n    event WalletTopped(address indexed user, uint256 amount);\n    event GenericCall(\n        address indexed _contract,\n        bytes _data,\n        uint256 _value,\n        bool _success\n    );\n\n    constructor(\n        address payable[] memory _admins,\n        uint256 _toppingAmount,\n        uint256 _toppingTimes,\n        Identity _identity\n    ) public {\n        identity = _identity;\n\n        toppingAmount = _toppingAmount;\n        adminToppingAmount = 1e9 * 9e6; //1gwei gas price * 9000000 gas limit\n        toppingTimes = _toppingTimes;\n        periodStart = now;\n\n        if (_admins.length > 0) {\n            addAdmins(_admins);\n        }\n    }\n\n    /* @dev Modifier that checks if caller is admin of wallet\n     */\n    modifier onlyAdmin() {\n        require(isAdmin(msg.sender), \"Caller is not admin\");\n        _;\n    }\n\n    modifier reimburseGas() {\n        _;\n        if (\n            msg.sender.balance <= adminToppingAmount.div(2) &&\n            isAdmin(msg.sender)\n        ) {\n            _topWallet(msg.sender);\n        }\n    }\n\n    function() external payable {}\n\n    /* @dev Internal function that sets current day\n     */\n    function setDay() internal {\n        currentDay = (now.sub(periodStart)) / 1 days;\n    }\n\n    function setBonusContract(SignUpBonus _bonus) public onlyOwner {\n        bonus = _bonus;\n    }\n\n    /* @dev Function to add list of addresses to admins\n     * can only be called by creator of contract\n     * @param _admins the list of addresses to add\n     */\n    function addAdmins(address payable[] memory _admins) public onlyOwner {\n        for (uint256 i = 0; i < _admins.length; i++) {\n            admins.add(_admins[i]);\n\n            adminlist.push(_admins[i]);\n        }\n        emit AdminsAdded(_admins);\n    }\n\n    /* @dev Function to remove list of addresses to admins\n     * can only be called by creator of contract\n     * @param _admins the list of addresses to remove\n     */\n    function removeAdmins(address[] memory _admins) public onlyOwner {\n        for (uint256 i = 0; i < _admins.length; i++) {\n            admins.remove(_admins[i]);\n        }\n        emit AdminsRemoved(_admins);\n    }\n\n    /**\n     * @dev top admins\n     */\n    function topAdmins(uint256 startIndex, uint256 endIndex)\n        public\n        reimburseGas\n    {\n        require(adminlist.length > startIndex, \"Admin list is empty\");\n        for (\n            uint256 i = startIndex;\n            (i < adminlist.length && i < endIndex);\n            i++\n        ) {\n            if (adminlist[i].balance <= adminToppingAmount.div(2)) {\n                _topWallet(adminlist[i]);\n            }\n        }\n    }\n\n    /* @dev top the first 50 admins\n     */\n    function topAdmins(uint256 startIndex) public reimburseGas {\n        topAdmins(startIndex, startIndex + 50);\n    }\n\n    /**\n     * @dev Function to check if given address is an admin\n     * @param _user the address to check\n     * @return A bool indicating if user is an admin\n     */\n    function isAdmin(address _user) public view returns (bool) {\n        return admins.has(_user);\n    }\n\n    /* @dev Function to add given address to whitelist of identity contract\n     * can only be done by admins of wallet and if wallet is an IdentityAdmin\n     */\n    function whitelist(address _user, string memory _did)\n        public\n        onlyAdmin\n        reimburseGas\n    {\n        identity.addWhitelistedWithDID(_user, _did);\n    }\n\n    /* @dev Function to remove given address from whitelist of identity contract\n     * can only be done by admins of wallet and if wallet is an IdentityAdmin\n     */\n    function removeWhitelist(address _user) public onlyAdmin reimburseGas {\n        identity.removeWhitelisted(_user);\n    }\n\n    /* @dev Function to add given address to blacklist of identity contract\n     * can only be done by admins of wallet and if wallet is an IdentityAdmin\n     */\n    function blacklist(address _user) public onlyAdmin reimburseGas {\n        identity.addBlacklisted(_user);\n    }\n\n    /* @dev Function to remove given address from blacklist of identity contract\n     * can only be done by admins of wallet and if wallet is an IdentityAdmin\n     */\n    function removeBlacklist(address _user) public onlyAdmin reimburseGas {\n        identity.removeBlacklisted(_user);\n    }\n\n    /* @dev Function to top given address with amount of G$ given in constructor\n     * can only be done by admin the amount of times specified in constructor per day\n     * @param _user The address to transfer to\n     */\n    function topWallet(address payable _user) public onlyAdmin reimburseGas {\n        setDay();\n        require(\n            toppings[currentDay][_user] < toppingTimes,\n            \"User wallet has been topped too many times today\"\n        );\n        if (address(_user).balance >= toppingAmount.div(4)) return;\n\n        _topWallet(_user);\n    }\n\n    function _topWallet(address payable _wallet) internal {\n        toppings[currentDay][_wallet] += 1;\n        uint256 amount = isAdmin(_wallet) ? adminToppingAmount : toppingAmount;\n        uint256 toTop = amount.sub(address(_wallet).balance);\n        _wallet.transfer(toTop);\n        emit WalletTopped(_wallet, toTop);\n    }\n\n    /* @dev Function to whitelist user and also award him pending bonuses, it can be used also later\n     * when user is already whitelisted to just award pending bonuses\n     * can only be done by admin\n     * @param _user The address to transfer to and whitelist\n     * @param _amount the bonus amount to give\n     * @param _did decentralized id of user, pointer to some profile\n     */\n    function whitelistAndAwardUser(\n        address _user,\n        uint256 _amount,\n        string memory _did\n    ) public onlyAdmin reimburseGas {\n        require(bonus != SignUpBonus(0), \"SignUp bonus has not been set yet\");\n\n        if (identity.isWhitelisted(_user) == false) {\n            whitelist(_user, _did);\n        }\n\n        if (_amount > 0) {\n            bonus.awardUser(_user, _amount);\n        }\n    }\n\n    /**\n     * @dev Function to award user with pending bonuses,\n     * can only be done by admin\n     * @param _user The address to transfer to and whitelist\n     * @param _amount the bonus amount to give\n     */\n    function awardUser(address _user, uint256 _amount)\n        public\n        onlyAdmin\n        reimburseGas\n    {\n        require(bonus != SignUpBonus(0), \"SignUp bonus has not been set yet\");\n        if (_amount > 0) {\n            bonus.awardUser(_user, _amount);\n        }\n    }\n\n    /**\n     * @dev perform a generic call to an arbitrary contract\n     * @param _contract  the contract's address to call\n     * @param _data ABI-encoded contract call to call `_contract` address.\n     * @param _value value (ETH) to transfer with the transaction\n     * @return bool    success or fail\n     *         bytes - the return bytes of the called contract's function.\n     */\n    function genericCall(address _contract, bytes memory _data, uint256 _value)\n        public\n        onlyAdmin\n        reimburseGas\n        returns (bool success, bytes memory returnValue)\n    {\n        // solhint-disable-next-line avoid-call-value\n        (success, returnValue) = _contract.call.value(_value)(_data);\n        emit GenericCall(_contract, _data, _value, success);\n    }\n\n    /**\n     * @dev destroy wallet and return funds to owner\n     */\n    function destroy() public onlyOwner {\n        selfdestruct(msg.sender);\n    }\n}\n",
  "sourcePath": "/Users/hadar/workspace/GoodDollar/GoodBootstrap/packages/contracts/contracts/wallet/AdminWallet.sol",
  "compiler": {
    "name": "solc",
    "version": "0.5.4+commit.9549d8ff.Emscripten.clang"
  },
  "schemaVersion": "3.0.16",
  "updatedAt": "2020-04-26T12:11:45.474Z",
  "devdoc": {
    "methods": {
      "awardUser(address,uint256)": {
        "details": "Function to award user with pending bonuses, can only be done by admin",
        "params": {
          "_amount": "the bonus amount to give",
          "_user": "The address to transfer to and whitelist"
        }
      },
      "destroy()": {
        "details": "destroy wallet and return funds to owner"
      },
      "genericCall(address,bytes,uint256)": {
        "details": "perform a generic call to an arbitrary contract",
        "params": {
          "_contract": "the contract's address to call",
          "_data": "ABI-encoded contract call to call `_contract` address.",
          "_value": "value (ETH) to transfer with the transaction"
        },
        "return": "bool    success or fail        bytes - the return bytes of the called contract's function."
      },
      "isAdmin(address)": {
        "details": "Function to check if given address is an admin",
        "params": {
          "_user": "the address to check"
        },
        "return": "A bool indicating if user is an admin"
      },
      "isOwner()": {
        "return": "true if `msg.sender` is the owner of the contract."
      },
      "owner()": {
        "return": "the address of the owner."
      },
      "renounceOwnership()": {
        "details": "Allows the current owner to relinquish control of the contract."
      },
      "topAdmins(uint256,uint256)": {
        "details": "top admins"
      },
      "transferOwnership(address)": {
        "details": "Allows the current owner to transfer control of the contract to a newOwner.",
        "params": {
          "newOwner": "The address to transfer ownership to."
        }
      }
    }
  },
  "userdoc": {
    "methods": {
      "renounceOwnership()": {
        "notice": "Renouncing to ownership will leave the contract without an owner. It will not be possible to call the functions with the `onlyOwner` modifier anymore."
      }
    }
  }
}