{
  "contractName": "AdminWallet",
  "abi": [
    {
      "constant": false,
      "inputs": [],
      "name": "renounceOwnership",
      "outputs": [],
      "payable": false,
      "stateMutability": "nonpayable",
      "type": "function"
    },
    {
      "constant": true,
      "inputs": [],
      "name": "owner",
      "outputs": [
        {
          "name": "",
          "type": "address"
        }
      ],
      "payable": false,
      "stateMutability": "view",
      "type": "function"
    },
    {
      "constant": true,
      "inputs": [],
      "name": "isOwner",
      "outputs": [
        {
          "name": "",
          "type": "bool"
        }
      ],
      "payable": false,
      "stateMutability": "view",
      "type": "function"
    },
    {
      "constant": true,
      "inputs": [],
      "name": "lastCalc",
      "outputs": [
        {
          "name": "",
          "type": "uint256"
        }
      ],
      "payable": false,
      "stateMutability": "view",
      "type": "function"
    },
    {
      "constant": true,
      "inputs": [],
      "name": "toppingAmount",
      "outputs": [
        {
          "name": "",
          "type": "uint256"
        }
      ],
      "payable": false,
      "stateMutability": "view",
      "type": "function"
    },
    {
      "constant": false,
      "inputs": [
        {
          "name": "newOwner",
          "type": "address"
        }
      ],
      "name": "transferOwnership",
      "outputs": [],
      "payable": false,
      "stateMutability": "nonpayable",
      "type": "function"
    },
    {
      "constant": true,
      "inputs": [],
      "name": "toppingTimes",
      "outputs": [
        {
          "name": "",
          "type": "uint256"
        }
      ],
      "payable": false,
      "stateMutability": "view",
      "type": "function"
    },
    {
      "inputs": [
        {
          "name": "_admins",
          "type": "address[]"
        },
        {
          "name": "_toppingAmount",
          "type": "uint256"
        },
        {
          "name": "_toppingTimes",
          "type": "uint256"
        },
        {
          "name": "_identity",
          "type": "address"
        }
      ],
      "payable": false,
      "stateMutability": "nonpayable",
      "type": "constructor"
    },
    {
      "payable": true,
      "stateMutability": "payable",
      "type": "fallback"
    },
    {
      "anonymous": false,
      "inputs": [
        {
          "indexed": true,
          "name": "admins",
          "type": "address[]"
        }
      ],
      "name": "AdminsAdded",
      "type": "event"
    },
    {
      "anonymous": false,
      "inputs": [
        {
          "indexed": true,
          "name": "admins",
          "type": "address[]"
        }
      ],
      "name": "AdminsRemoved",
      "type": "event"
    },
    {
      "anonymous": false,
      "inputs": [
        {
          "indexed": true,
          "name": "user",
          "type": "address"
        }
      ],
      "name": "WalletTopped",
      "type": "event"
    },
    {
      "anonymous": false,
      "inputs": [
        {
          "indexed": true,
          "name": "_contract",
          "type": "address"
        },
        {
          "indexed": false,
          "name": "_data",
          "type": "bytes"
        },
        {
          "indexed": false,
          "name": "_value",
          "type": "uint256"
        },
        {
          "indexed": false,
          "name": "_success",
          "type": "bool"
        }
      ],
      "name": "GenericCall",
      "type": "event"
    },
    {
      "anonymous": false,
      "inputs": [
        {
          "indexed": true,
          "name": "previousOwner",
          "type": "address"
        },
        {
          "indexed": true,
          "name": "newOwner",
          "type": "address"
        }
      ],
      "name": "OwnershipTransferred",
      "type": "event"
    },
    {
      "constant": false,
      "inputs": [
        {
          "name": "_bonus",
          "type": "address"
        }
      ],
      "name": "setBonusContract",
      "outputs": [],
      "payable": false,
      "stateMutability": "nonpayable",
      "type": "function"
    },
    {
      "constant": false,
      "inputs": [
        {
          "name": "_admins",
          "type": "address[]"
        }
      ],
      "name": "addAdmins",
      "outputs": [],
      "payable": false,
      "stateMutability": "nonpayable",
      "type": "function"
    },
    {
      "constant": false,
      "inputs": [
        {
          "name": "_admins",
          "type": "address[]"
        }
      ],
      "name": "removeAdmins",
      "outputs": [],
      "payable": false,
      "stateMutability": "nonpayable",
      "type": "function"
    },
    {
      "constant": false,
      "inputs": [
        {
          "name": "startIndex",
          "type": "uint256"
        }
      ],
      "name": "topAdmins",
      "outputs": [],
      "payable": false,
      "stateMutability": "nonpayable",
      "type": "function"
    },
    {
      "constant": true,
      "inputs": [
        {
          "name": "_user",
          "type": "address"
        }
      ],
      "name": "isAdmin",
      "outputs": [
        {
          "name": "",
          "type": "bool"
        }
      ],
      "payable": false,
      "stateMutability": "view",
      "type": "function"
    },
    {
      "constant": false,
      "inputs": [
        {
          "name": "_user",
          "type": "address"
        },
        {
          "name": "_did",
          "type": "string"
        }
      ],
      "name": "whitelist",
      "outputs": [],
      "payable": false,
      "stateMutability": "nonpayable",
      "type": "function"
    },
    {
      "constant": false,
      "inputs": [
        {
          "name": "_user",
          "type": "address"
        }
      ],
      "name": "removeWhitelist",
      "outputs": [],
      "payable": false,
      "stateMutability": "nonpayable",
      "type": "function"
    },
    {
      "constant": false,
      "inputs": [
        {
          "name": "_user",
          "type": "address"
        }
      ],
      "name": "blacklist",
      "outputs": [],
      "payable": false,
      "stateMutability": "nonpayable",
      "type": "function"
    },
    {
      "constant": false,
      "inputs": [
        {
          "name": "_user",
          "type": "address"
        }
      ],
      "name": "removeBlacklist",
      "outputs": [],
      "payable": false,
      "stateMutability": "nonpayable",
      "type": "function"
    },
    {
      "constant": false,
      "inputs": [
        {
          "name": "_user",
          "type": "address"
        }
      ],
      "name": "topWallet",
      "outputs": [],
      "payable": false,
      "stateMutability": "nonpayable",
      "type": "function"
    },
    {
      "constant": false,
      "inputs": [
        {
          "name": "_user",
          "type": "address"
        },
        {
          "name": "_amount",
          "type": "uint256"
        },
        {
          "name": "_did",
          "type": "string"
        }
      ],
      "name": "whitelistAndAwardUser",
      "outputs": [],
      "payable": false,
      "stateMutability": "nonpayable",
      "type": "function"
    },
    {
      "constant": false,
      "inputs": [
        {
          "name": "_user",
          "type": "address"
        },
        {
          "name": "_amount",
          "type": "uint256"
        }
      ],
      "name": "awardUser",
      "outputs": [],
      "payable": false,
      "stateMutability": "nonpayable",
      "type": "function"
    },
    {
      "constant": false,
      "inputs": [
        {
          "name": "_contract",
          "type": "address"
        },
        {
          "name": "_data",
          "type": "bytes"
        },
        {
          "name": "_value",
          "type": "uint256"
        }
      ],
      "name": "genericCall",
      "outputs": [
        {
          "name": "success",
          "type": "bool"
        },
        {
          "name": "returnValue",
          "type": "bytes"
        }
      ],
      "payable": false,
      "stateMutability": "nonpayable",
      "type": "function"
    }
  ],
  "bytecode": "0x608060405260048054600160a060020a03191690553480156200002157600080fd5b5060405162001c8438038062001c84833981018060405260808110156200004757600080fd5b8101908080516401000000008111156200006057600080fd5b820160208101848111156200007457600080fd5b81518560208202830111640100000000821117156200009257600080fd5b5050602082015160408084015160609094015160008054600160a060020a0319163317808255925194975092955092600160a060020a039190911691907f8be0079c531659141344cd1fd0a4f28419497f9722a3daafe3b4186f6b6457e0908290a360038054600160a060020a031916600160a060020a038316179055600583905560068290558351600010156200013857620001388464010000000062000142810204565b505050506200030c565b6200015564010000000062000268810204565b15156200016157600080fd5b60005b8151811015620001f957620001a282828151811015156200018157fe5b60209081029091010151600190640100000000620018006200027982021704565b60028282815181101515620001b357fe5b6020908102919091018101518254600180820185556000948552929093209092018054600160a060020a031916600160a060020a03909316929092179091550162000164565b508060405180828051906020019060200280838360005b838110156200022a57818101518382015260200162000210565b505060405194909201849003842095507f45486b220020cc2482ad1a5e0ae4d5f0b5372cea1b48173f6273c616a5047269945060009392505050a250565b600054600160a060020a0316331490565b600160a060020a03811615156200028f57600080fd5b620002a48282640100000000620002d4810204565b15620002af57600080fd5b600160a060020a0316600090815260209190915260409020805460ff19166001179055565b6000600160a060020a0382161515620002ec57600080fd5b50600160a060020a03166000908152602091909152604090205460ff1690565b611968806200031c6000396000f3fe60806040526004361061013c576000357c0100000000000000000000000000000000000000000000000000000000900480639c54df64116100bd578063e6ea393911610081578063e6ea393914610736578063eb91e6511461074b578063f2fde38b1461077e578063f3da9f05146107b1578063f9f92be4146107c65761013c565b80639c54df64146105c9578063bd7fbbd614610679578063db626838146106b2578063e2166c64146106dc578063e6a847a61461070f5761013c565b8063377e11e011610104578063377e11e01461048b578063715018a61461053b57806378c8cda7146105505780638da5cb5b146105835780638f32d59b146105b45761013c565b80631ff6e09f1461013e57806324d7806c146102065780632beeaca41461024d5780632bf16458146103105780633771dcf814610458575b005b34801561014a57600080fd5b5061013c6004803603606081101561016157600080fd5b600160a060020a038235169160208101359181019060608101604082013564010000000081111561019157600080fd5b8201836020820111156101a357600080fd5b803590602001918460018302840111640100000000831117156101c557600080fd5b91908080601f0160208091040260200160405190810160405280939291908181526020018383808284376000920191909152509295506107f9945050505050565b34801561021257600080fd5b506102396004803603602081101561022957600080fd5b5035600160a060020a0316610a2c565b604080519115158252519081900360200190f35b34801561025957600080fd5b5061013c6004803603604081101561027057600080fd5b600160a060020a03823516919081019060408101602082013564010000000081111561029b57600080fd5b8201836020820111156102ad57600080fd5b803590602001918460018302840111640100000000831117156102cf57600080fd5b91908080601f016020809104026020016040519081016040528093929190818152602001838380828437600092019190915250929550610a45945050505050565b34801561031c57600080fd5b506103d56004803603606081101561033357600080fd5b600160a060020a03823516919081019060408101602082013564010000000081111561035e57600080fd5b82018360208201111561037057600080fd5b8035906020019184600183028401116401000000008311171561039257600080fd5b91908080601f0160208091040260200160405190810160405280939291908181526020018383808284376000920191909152509295505091359250610bdd915050565b604051808315151515815260200180602001828103825283818151815260200191508051906020019080838360005b8381101561041c578181015183820152602001610404565b50505050905090810190601f1680156104495780820380516001836020036101000a031916815260200191505b50935050505060405180910390f35b34801561046457600080fd5b5061013c6004803603602081101561047b57600080fd5b5035600160a060020a0316610df7565b34801561049757600080fd5b5061013c600480360360208110156104ae57600080fd5b8101906020810181356401000000008111156104c957600080fd5b8201836020820111156104db57600080fd5b803590602001918460208302840111640100000000831117156104fd57600080fd5b919080806020026020016040519081016040528093929190818152602001838360200280828437600092019190915250929550610f46945050505050565b34801561054757600080fd5b5061013c611003565b34801561055c57600080fd5b5061013c6004803603602081101561057357600080fd5b5035600160a060020a031661106d565b34801561058f57600080fd5b5061059861114e565b60408051600160a060020a039092168252519081900360200190f35b3480156105c057600080fd5b5061023961115d565b3480156105d557600080fd5b5061013c600480360360208110156105ec57600080fd5b81019060208101813564010000000081111561060757600080fd5b82018360208201111561061957600080fd5b8035906020019184602083028401116401000000008311171561063b57600080fd5b91908080602002602001604051908101604052809392919081815260200183836020028082843760009201919091525092955061116e945050505050565b34801561068557600080fd5b5061013c6004803603604081101561069c57600080fd5b50600160a060020a038135169060200135611285565b3480156106be57600080fd5b5061013c600480360360208110156106d557600080fd5b50356113ad565b3480156106e857600080fd5b5061013c600480360360208110156106ff57600080fd5b5035600160a060020a0316611491565b34801561071b57600080fd5b506107246114d3565b60408051918252519081900360200190f35b34801561074257600080fd5b506107246114d9565b34801561075757600080fd5b5061013c6004803603602081101561076e57600080fd5b5035600160a060020a03166114df565b34801561078a57600080fd5b5061013c600480360360208110156107a157600080fd5b5035600160a060020a0316611593565b3480156107bd57600080fd5b506107246115af565b3480156107d257600080fd5b5061013c600480360360208110156107e957600080fd5b5035600160a060020a03166115b5565b61080233610a2c565b1515610846576040805160e560020a62461bcd02815260206004820152601360248201526000805160206118ed833981519152604482015290519081900360640190fd5b600454600160a060020a031615156108925760405160e560020a62461bcd0281526004018080602001828103825260218152602001806118cc6021913960400191505060405180910390fd5b600354604080517f3af32abf000000000000000000000000000000000000000000000000000000008152600160a060020a03868116600483015291519190921691633af32abf916024808301926020929190829003018186803b1580156108f857600080fd5b505afa15801561090c573d6000803e3d6000fd5b505050506040513d602081101561092257600080fd5b50511515610934576109348382610a45565b60008211156109c85760048054604080517fbd7fbbd6000000000000000000000000000000000000000000000000000000008152600160a060020a0387811694820194909452602481018690529051929091169163bd7fbbd69160448082019260009290919082900301818387803b1580156109af57600080fd5b505af11580156109c3573d6000803e3d6000fd5b505050505b6005546109dc90600463ffffffff61166916565b333111610a275760055433906108fc906109fd90833163ffffffff61168d16565b6040518115909202916000818181858888f19350505050158015610a25573d6000803e3d6000fd5b505b505050565b6000610a3f60018363ffffffff6116a216565b92915050565b610a4e33610a2c565b1515610a92576040805160e560020a62461bcd02815260206004820152601360248201526000805160206118ed833981519152604482015290519081900360640190fd5b600354604080517f1b027099000000000000000000000000000000000000000000000000000000008152600160a060020a0385811660048301908152602483019384528551604484015285519190941693631b0270999387938793606490910190602085019080838360005b83811015610b16578181015183820152602001610afe565b50505050905090810190601f168015610b435780820380516001836020036101000a031916815260200191505b509350505050600060405180830381600087803b158015610b6357600080fd5b505af1158015610b77573d6000803e3d6000fd5b5050600554610b9092509050600463ffffffff61166916565b333111610bd95760055433906108fc90610bb190833163ffffffff61168d16565b6040518115909202916000818181858888f19350505050158015610a27573d6000803e3d6000fd5b5050565b60006060610bea33610a2c565b1515610c2e576040805160e560020a62461bcd02815260206004820152601360248201526000805160206118ed833981519152604482015290519081900360640190fd5b84600160a060020a031683856040518082805190602001908083835b60208310610c695780518252601f199092019160209182019101610c4a565b6001836020036101000a03801982511681845116808217855250505050505090500191505060006040518083038185875af1925050503d8060008114610ccb576040519150601f19603f3d011682016040523d82523d6000602084013e610cd0565b606091505b50809250819350505084600160a060020a03167f534b52c783549f909f9e743120524d0b7154058e4a54cdc895c2c0b587a1c7e0858585604051808060200184815260200183151515158152602001828103825285818151815260200191508051906020019080838360005b83811015610d54578181015183820152602001610d3c565b50505050905090810190601f168015610d815780820380516001836020036101000a031916815260200191505b5094505050505060405180910390a2600554610da490600463ffffffff61166916565b333111610def5760055433906108fc90610dc590833163ffffffff61168d16565b6040518115909202916000818181858888f19350505050158015610ded573d6000803e3d6000fd5b505b935093915050565b610e0033610a2c565b1515610e44576040805160e560020a62461bcd02815260206004820152601360248201526000805160206118ed833981519152604482015290519081900360640190fd5b610e4c6116d9565b6006546007546000908152600860209081526040808320600160a060020a038616845290915290205410610eb45760405160e560020a62461bcd02815260040180806020018281038252603081526020018061190d6030913960400191505060405180910390fd5b600554610ec890600463ffffffff61166916565b600160a060020a0382163110610edd57610ee6565b610ee68161170f565b600554610efa90600463ffffffff61166916565b333111610f435760055433906108fc90610f1b90833163ffffffff61168d16565b6040518115909202916000818181858888f19350505050158015610bd9573d6000803e3d6000fd5b50565b610f4e61115d565b1515610f5957600080fd5b60005b8151811015610f9657610f8e8282815181101515610f7657fe5b6020908102909101015160019063ffffffff6117b416565b600101610f5c565b508060405180828051906020019060200280838360005b83811015610fc5578181015183820152602001610fad565b505060405194909201849003842095507fd5e6894641b5030a67e637ab2e12da64d8aec689f8bd1328de2b04d6a439c810945060009392505050a250565b61100b61115d565b151561101657600080fd5b60008054604051600160a060020a03909116907f8be0079c531659141344cd1fd0a4f28419497f9722a3daafe3b4186f6b6457e0908390a36000805473ffffffffffffffffffffffffffffffffffffffff19169055565b61107633610a2c565b15156110ba576040805160e560020a62461bcd02815260206004820152601360248201526000805160206118ed833981519152604482015290519081900360640190fd5b600354604080517f291d9549000000000000000000000000000000000000000000000000000000008152600160a060020a0384811660048301529151919092169163291d954991602480830192600092919082900301818387803b15801561112157600080fd5b505af1158015611135573d6000803e3d6000fd5b5050600554610efa92509050600463ffffffff61166916565b600054600160a060020a031690565b600054600160a060020a0316331490565b61117661115d565b151561118157600080fd5b60005b8151811015611218576111b6828281518110151561119e57fe5b6020908102909101015160019063ffffffff61180016565b600282828151811015156111c657fe5b602090810291909101810151825460018082018555600094855292909320909201805473ffffffffffffffffffffffffffffffffffffffff1916600160a060020a039093169290921790915501611184565b508060405180828051906020019060200280838360005b8381101561124757818101518382015260200161122f565b505060405194909201849003842095507f45486b220020cc2482ad1a5e0ae4d5f0b5372cea1b48173f6273c616a5047269945060009392505050a250565b61128e33610a2c565b15156112d2576040805160e560020a62461bcd02815260206004820152601360248201526000805160206118ed833981519152604482015290519081900360640190fd5b600454600160a060020a0316151561131e5760405160e560020a62461bcd0281526004018080602001828103825260218152602001806118cc6021913960400191505060405180910390fd5b60008111156113995760048054604080517fbd7fbbd6000000000000000000000000000000000000000000000000000000008152600160a060020a0386811694820194909452602481018590529051929091169163bd7fbbd69160448082019260009290919082900301818387803b158015610b6357600080fd5b600554610b9090600463ffffffff61166916565b6002548110611406576040805160e560020a62461bcd02815260206004820152601360248201527f41646d696e206c69737420697320656d70747900000000000000000000000000604482015290519081900360640190fd5b805b6002548110801561141b57508160320181105b15610bd95760055461143490600463ffffffff61166916565b600280548390811061144257fe5b600091825260209091200154600160a060020a031631116114895761148960028281548110151561146f57fe5b600091825260209091200154600160a060020a031661170f565b600101611408565b61149961115d565b15156114a457600080fd5b6004805473ffffffffffffffffffffffffffffffffffffffff1916600160a060020a0392909216919091179055565b60075481565b60055481565b6114e833610a2c565b151561152c576040805160e560020a62461bcd02815260206004820152601360248201526000805160206118ed833981519152604482015290519081900360640190fd5b600354604080517fc6a276c2000000000000000000000000000000000000000000000000000000008152600160a060020a0384811660048301529151919092169163c6a276c291602480830192600092919082900301818387803b15801561112157600080fd5b61159b61115d565b15156115a657600080fd5b610f438161184e565b60065481565b6115be33610a2c565b1515611602576040805160e560020a62461bcd02815260206004820152601360248201526000805160206118ed833981519152604482015290519081900360640190fd5b600354604080517f188efc16000000000000000000000000000000000000000000000000000000008152600160a060020a0384811660048301529151919092169163188efc1691602480830192600092919082900301818387803b15801561112157600080fd5b600080821161167757600080fd5b6000828481151561168457fe5b04949350505050565b60008282111561169c57600080fd5b50900390565b6000600160a060020a03821615156116b957600080fd5b50600160a060020a03166000908152602091909152604090205460ff1690565b6000620151806116f46007544261168d90919063ffffffff16565b8115156116fd57fe5b04905060018110610f43574260075550565b6007546000908152600860209081526040808320600160a060020a0385168085529252909120805460010190556005546108fc9061175490833163ffffffff61168d16565b6040518115909202916000818181858888f1935050505015801561177c573d6000803e3d6000fd5b50604051600160a060020a038216907fc295f3ccd59be9e331d4c04df80a02aadddfe452c9e2d085556b125598e6785790600090a250565b600160a060020a03811615156117c957600080fd5b6117d382826116a2565b15156117de57600080fd5b600160a060020a0316600090815260209190915260409020805460ff19169055565b600160a060020a038116151561181557600080fd5b61181f82826116a2565b1561182957600080fd5b600160a060020a0316600090815260209190915260409020805460ff19166001179055565b600160a060020a038116151561186357600080fd5b60008054604051600160a060020a03808516939216917f8be0079c531659141344cd1fd0a4f28419497f9722a3daafe3b4186f6b6457e091a36000805473ffffffffffffffffffffffffffffffffffffffff1916600160a060020a039290921691909117905556fe5369676e557020626f6e757320686173206e6f74206265656e207365742079657443616c6c6572206973206e6f742061646d696e00000000000000000000000000557365722077616c6c657420686173206265656e20746f7070656420746f6f206d616e792074696d657320746f646179a165627a7a7230582051403abc4ac3dc50f4279c4e1ea4e66b7bd798d069b400ec2fa8a82f15e90cf60029",
  "source": "pragma solidity 0.5.4;\n\nimport \"openzeppelin-solidity/contracts/access/Roles.sol\";\nimport \"openzeppelin-solidity/contracts/ownership/Ownable.sol\";\nimport \"openzeppelin-solidity/contracts/math/SafeMath.sol\";\n\nimport \"../identity/Identity.sol\";\nimport \"../dao/schemes/SignUpBonus.sol\";\n\n/* @title Admin wallet contract allowing whitelisting and topping up of\n * addresses\n */\ncontract AdminWallet is Ownable {\n    using Roles for Roles.Role;\n    using SafeMath for uint256;\n\n    Roles.Role private admins;\n\n    address payable[] adminlist;\n\n    Identity identity;\n\n    SignUpBonus bonus = SignUpBonus(0);\n\n    uint256 public toppingAmount;\n\n    uint256 public toppingTimes;\n    uint256 public lastCalc;\n\n    mapping(uint256 => mapping(address => uint256)) toppings;\n\n    event AdminsAdded(address payable[] indexed admins);\n    event AdminsRemoved(address[] indexed admins);\n    event WalletTopped(address indexed user);\n    event GenericCall(\n        address indexed _contract,\n        bytes _data,\n        uint256 _value,\n        bool _success\n    );\n\n    constructor(\n        address payable[] memory _admins,\n        uint256 _toppingAmount,\n        uint256 _toppingTimes,\n        Identity _identity\n    ) public {\n        identity = _identity;\n\n        toppingAmount = _toppingAmount;\n        toppingTimes = _toppingTimes;\n\n        if (_admins.length > 0) {\n            addAdmins(_admins);\n        }\n    }\n\n    /* @dev Modifier that checks if caller is admin of wallet\n     */\n    modifier onlyAdmin() {\n        require(isAdmin(msg.sender), \"Caller is not admin\");\n        _;\n    }\n\n    modifier reimburseGas() {\n        _;\n        if (msg.sender.balance <= toppingAmount.div(4)) {\n            msg.sender.transfer(toppingAmount.sub(msg.sender.balance));\n        }\n    }\n\n    function() external payable {}\n\n    /* @dev Internal function that sets current day\n     */\n    function setDay() internal {\n        uint256 dayDiff = now.sub(lastCalc) / 1 days;\n\n        if (dayDiff >= 1) {\n            lastCalc = now;\n        }\n    }\n\n    function setBonusContract(SignUpBonus _bonus) public onlyOwner {\n        bonus = _bonus;\n    }\n\n    /* @dev Function to add list of addresses to admins\n     * can only be called by creator of contract\n     * @param _admins the list of addresses to add\n     */\n    function addAdmins(address payable[] memory _admins) public onlyOwner {\n        for (uint256 i = 0; i < _admins.length; i++) {\n            admins.add(_admins[i]);\n\n            adminlist.push(_admins[i]);\n        }\n        emit AdminsAdded(_admins);\n    }\n\n    /* @dev Function to remove list of addresses to admins\n     * can only be called by creator of contract\n     * @param _admins the list of addresses to remove\n     */\n    function removeAdmins(address[] memory _admins) public onlyOwner {\n        for (uint256 i = 0; i < _admins.length; i++) {\n            admins.remove(_admins[i]);\n        }\n        emit AdminsRemoved(_admins);\n    }\n\n    /* @dev top the first 50 admins\n     */\n    function topAdmins(uint256 startIndex) public {\n        require(adminlist.length > startIndex, \"Admin list is empty\");\n        for (\n            uint256 i = startIndex;\n            (i < adminlist.length && i < startIndex + 50);\n            i++\n        ) {\n            if (adminlist[i].balance <= toppingAmount.div(4)) {\n                _topWallet(adminlist[i]);\n            }\n        }\n    }\n\n    /** \n     * @dev Function to check if given address is an admin\n     * @param _user the address to check\n     * @return A bool indicating if user is an admin \n     */\n    function isAdmin(address _user) public view returns (bool) {\n        return admins.has(_user);\n    }\n\n    /* @dev Function to add given address to whitelist of identity contract\n     * can only be done by admins of wallet and if wallet is an IdentityAdmin\n     */\n    function whitelist(address _user, string memory _did)\n        public\n        onlyAdmin\n        reimburseGas\n    {\n        identity.addWhitelistedWithDID(_user, _did);\n    }\n\n    /* @dev Function to remove given address from whitelist of identity contract\n     * can only be done by admins of wallet and if wallet is an IdentityAdmin\n     */\n    function removeWhitelist(address _user) public onlyAdmin reimburseGas {\n        identity.removeWhitelisted(_user);\n    }\n\n    /* @dev Function to add given address to blacklist of identity contract\n     * can only be done by admins of wallet and if wallet is an IdentityAdmin\n     */\n    function blacklist(address _user) public onlyAdmin reimburseGas {\n        identity.addBlacklisted(_user);\n    }\n\n    /* @dev Function to remove given address from blacklist of identity contract\n     * can only be done by admins of wallet and if wallet is an IdentityAdmin\n     */\n    function removeBlacklist(address _user) public onlyAdmin reimburseGas {\n        identity.removeBlacklisted(_user);\n    }\n\n    /* @dev Function to top given address with amount of G$ given in constructor\n     * can only be done by admin the amount of times specified in constructor per day\n     * @param _user The address to transfer to\n     */\n    function topWallet(address payable _user) public onlyAdmin reimburseGas {\n        setDay();\n        require(\n            toppings[lastCalc][_user] < toppingTimes,\n            \"User wallet has been topped too many times today\"\n        );\n        if (address(_user).balance >= toppingAmount.div(4)) return;\n\n        _topWallet(_user);\n    }\n\n    function _topWallet(address payable _wallet) internal {\n        toppings[lastCalc][_wallet] += 1;\n        _wallet.transfer(toppingAmount.sub(address(_wallet).balance));\n        emit WalletTopped(_wallet);\n    }\n\n    /* @dev Function to whitelist user and also award him pending bonuses, it can be used also later\n     * when user is already whitelisted to just award pending bonuses\n     * can only be done by admin\n     * @param _user The address to transfer to and whitelist\n     * @param _amount the bonus amount to give\n     * @param _did decentralized id of user, pointer to some profile\n     */\n    function whitelistAndAwardUser(\n        address _user,\n        uint256 _amount,\n        string memory _did\n    ) public onlyAdmin reimburseGas {\n        require(bonus != SignUpBonus(0), \"SignUp bonus has not been set yet\");\n\n        if (identity.isWhitelisted(_user) == false) {\n            whitelist(_user, _did);\n        }\n\n        if (_amount > 0) {\n            bonus.awardUser(_user, _amount);\n        }\n    }\n\n    /**\n     * @dev Function to award user with pending bonuses,\n     * can only be done by admin\n     * @param _user The address to transfer to and whitelist\n     * @param _amount the bonus amount to give\n     */\n    function awardUser(address _user, uint256 _amount)\n        public\n        onlyAdmin\n        reimburseGas\n    {\n        require(bonus != SignUpBonus(0), \"SignUp bonus has not been set yet\");\n        if (_amount > 0) {\n            bonus.awardUser(_user, _amount);\n        }\n    }\n\n    /**\n    * @dev perform a generic call to an arbitrary contract\n    * @param _contract  the contract's address to call\n    * @param _data ABI-encoded contract call to call `_contract` address.\n    * @param _value value (ETH) to transfer with the transaction\n    * @return bool    success or fail\n    *         bytes - the return bytes of the called contract's function.\n    */\n    function genericCall(address _contract, bytes memory _data, uint256 _value)\n        public\n        onlyAdmin\n        reimburseGas\n        returns (bool success, bytes memory returnValue)\n    {\n        // solhint-disable-next-line avoid-call-value\n        (success, returnValue) = _contract.call.value(_value)(_data);\n        emit GenericCall(_contract, _data, _value, success);\n    }\n}\n",
  "sourcePath": "/Users/hadar/workspace/GoodDollar/GoodBootstrap/packages/contracts/contracts/wallet/AdminWallet.sol",
  "compiler": {
    "name": "solc",
    "version": "0.5.4+commit.9549d8ff.Emscripten.clang"
  },
  "schemaVersion": "3.0.16",
  "updatedAt": "2020-03-30T21:32:16.220Z",
  "devdoc": {
    "methods": {
      "awardUser(address,uint256)": {
        "details": "Function to award user with pending bonuses, can only be done by admin",
        "params": {
          "_amount": "the bonus amount to give",
          "_user": "The address to transfer to and whitelist"
        }
      },
      "genericCall(address,bytes,uint256)": {
        "details": "perform a generic call to an arbitrary contract",
        "params": {
          "_contract": "the contract's address to call",
          "_data": "ABI-encoded contract call to call `_contract` address.",
          "_value": "value (ETH) to transfer with the transaction"
        },
        "return": "bool    success or fail        bytes - the return bytes of the called contract's function."
      },
      "isAdmin(address)": {
        "details": "Function to check if given address is an admin",
        "params": {
          "_user": "the address to check"
        },
        "return": "A bool indicating if user is an admin "
      },
      "isOwner()": {
        "return": "true if `msg.sender` is the owner of the contract."
      },
      "owner()": {
        "return": "the address of the owner."
      },
      "renounceOwnership()": {
        "details": "Allows the current owner to relinquish control of the contract."
      },
      "transferOwnership(address)": {
        "details": "Allows the current owner to transfer control of the contract to a newOwner.",
        "params": {
          "newOwner": "The address to transfer ownership to."
        }
      }
    }
  },
  "userdoc": {
    "methods": {
      "renounceOwnership()": {
        "notice": "Renouncing to ownership will leave the contract without an owner. It will not be possible to call the functions with the `onlyOwner` modifier anymore."
      }
    }
  }
}