{
  "contractName": "AdminWallet",
  "abi": [
    {
      "constant": true,
      "inputs": [],
      "name": "identity",
      "outputs": [
        {
          "name": "",
          "type": "address"
        }
      ],
      "payable": false,
      "stateMutability": "view",
      "type": "function"
    },
    {
      "constant": true,
      "inputs": [],
      "name": "currentDay",
      "outputs": [
        {
          "name": "",
          "type": "uint256"
        }
      ],
      "payable": false,
      "stateMutability": "view",
      "type": "function"
    },
    {
      "constant": false,
      "inputs": [
        {
          "name": "_identity",
          "type": "address"
        }
      ],
      "name": "setIdentity",
      "outputs": [],
      "payable": false,
      "stateMutability": "nonpayable",
      "type": "function"
    },
    {
      "constant": false,
      "inputs": [],
      "name": "renounceOwnership",
      "outputs": [],
      "payable": false,
      "stateMutability": "nonpayable",
      "type": "function"
    },
    {
      "constant": true,
      "inputs": [],
      "name": "owner",
      "outputs": [
        {
          "name": "",
          "type": "address"
        }
      ],
      "payable": false,
      "stateMutability": "view",
      "type": "function"
    },
    {
      "constant": true,
      "inputs": [],
      "name": "isOwner",
      "outputs": [
        {
          "name": "",
          "type": "bool"
        }
      ],
      "payable": false,
      "stateMutability": "view",
      "type": "function"
    },
    {
      "constant": true,
      "inputs": [],
      "name": "adminToppingAmount",
      "outputs": [
        {
          "name": "",
          "type": "uint256"
        }
      ],
      "payable": false,
      "stateMutability": "view",
      "type": "function"
    },
    {
      "constant": true,
      "inputs": [],
      "name": "toppingAmount",
      "outputs": [
        {
          "name": "",
          "type": "uint256"
        }
      ],
      "payable": false,
      "stateMutability": "view",
      "type": "function"
    },
    {
      "constant": true,
      "inputs": [],
      "name": "periodStart",
      "outputs": [
        {
          "name": "",
          "type": "uint256"
        }
      ],
      "payable": false,
      "stateMutability": "view",
      "type": "function"
    },
    {
      "constant": false,
      "inputs": [
        {
          "name": "newOwner",
          "type": "address"
        }
      ],
      "name": "transferOwnership",
      "outputs": [],
      "payable": false,
      "stateMutability": "nonpayable",
      "type": "function"
    },
    {
      "constant": true,
      "inputs": [],
      "name": "toppingTimes",
      "outputs": [
        {
          "name": "",
          "type": "uint256"
        }
      ],
      "payable": false,
      "stateMutability": "view",
      "type": "function"
    },
    {
      "inputs": [
        {
          "name": "_admins",
          "type": "address[]"
        },
        {
          "name": "_toppingAmount",
          "type": "uint256"
        },
        {
          "name": "_toppingTimes",
          "type": "uint256"
        },
        {
          "name": "_identity",
          "type": "address"
        }
      ],
      "payable": false,
      "stateMutability": "nonpayable",
      "type": "constructor"
    },
    {
      "payable": true,
      "stateMutability": "payable",
      "type": "fallback"
    },
    {
      "anonymous": false,
      "inputs": [
        {
          "indexed": true,
          "name": "admins",
          "type": "address[]"
        }
      ],
      "name": "AdminsAdded",
      "type": "event"
    },
    {
      "anonymous": false,
      "inputs": [
        {
          "indexed": true,
          "name": "admins",
          "type": "address[]"
        }
      ],
      "name": "AdminsRemoved",
      "type": "event"
    },
    {
      "anonymous": false,
      "inputs": [
        {
          "indexed": true,
          "name": "user",
          "type": "address"
        },
        {
          "indexed": false,
          "name": "amount",
          "type": "uint256"
        }
      ],
      "name": "WalletTopped",
      "type": "event"
    },
    {
      "anonymous": false,
      "inputs": [
        {
          "indexed": true,
          "name": "_contract",
          "type": "address"
        },
        {
          "indexed": false,
          "name": "_data",
          "type": "bytes"
        },
        {
          "indexed": false,
          "name": "_value",
          "type": "uint256"
        },
        {
          "indexed": false,
          "name": "_success",
          "type": "bool"
        }
      ],
      "name": "GenericCall",
      "type": "event"
    },
    {
      "anonymous": false,
      "inputs": [
        {
          "indexed": true,
          "name": "previousOwner",
          "type": "address"
        },
        {
          "indexed": true,
          "name": "newOwner",
          "type": "address"
        }
      ],
      "name": "OwnershipTransferred",
      "type": "event"
    },
    {
      "constant": false,
      "inputs": [
        {
          "name": "_bonus",
          "type": "address"
        }
      ],
      "name": "setBonusContract",
      "outputs": [],
      "payable": false,
      "stateMutability": "nonpayable",
      "type": "function"
    },
    {
      "constant": false,
      "inputs": [
        {
          "name": "_admins",
          "type": "address[]"
        }
      ],
      "name": "addAdmins",
      "outputs": [],
      "payable": false,
      "stateMutability": "nonpayable",
      "type": "function"
    },
    {
      "constant": false,
      "inputs": [
        {
          "name": "_admins",
          "type": "address[]"
        }
      ],
      "name": "removeAdmins",
      "outputs": [],
      "payable": false,
      "stateMutability": "nonpayable",
      "type": "function"
    },
    {
      "constant": false,
      "inputs": [
        {
          "name": "startIndex",
          "type": "uint256"
        }
      ],
      "name": "topAdmins",
      "outputs": [],
      "payable": false,
      "stateMutability": "nonpayable",
      "type": "function"
    },
    {
      "constant": false,
      "inputs": [
        {
          "name": "startIndex",
          "type": "uint256"
        },
        {
          "name": "endIndex",
          "type": "uint256"
        }
      ],
      "name": "topAdmins",
      "outputs": [],
      "payable": false,
      "stateMutability": "nonpayable",
      "type": "function"
    },
    {
      "constant": true,
      "inputs": [
        {
          "name": "_user",
          "type": "address"
        }
      ],
      "name": "isAdmin",
      "outputs": [
        {
          "name": "",
          "type": "bool"
        }
      ],
      "payable": false,
      "stateMutability": "view",
      "type": "function"
    },
    {
      "constant": false,
      "inputs": [
        {
          "name": "_user",
          "type": "address"
        },
        {
          "name": "_did",
          "type": "string"
        }
      ],
      "name": "whitelist",
      "outputs": [],
      "payable": false,
      "stateMutability": "nonpayable",
      "type": "function"
    },
    {
      "constant": false,
      "inputs": [
        {
          "name": "_user",
          "type": "address"
        }
      ],
      "name": "removeWhitelist",
      "outputs": [],
      "payable": false,
      "stateMutability": "nonpayable",
      "type": "function"
    },
    {
      "constant": false,
      "inputs": [
        {
          "name": "_user",
          "type": "address"
        }
      ],
      "name": "blacklist",
      "outputs": [],
      "payable": false,
      "stateMutability": "nonpayable",
      "type": "function"
    },
    {
      "constant": false,
      "inputs": [
        {
          "name": "_user",
          "type": "address"
        }
      ],
      "name": "removeBlacklist",
      "outputs": [],
      "payable": false,
      "stateMutability": "nonpayable",
      "type": "function"
    },
    {
      "constant": false,
      "inputs": [
        {
          "name": "_user",
          "type": "address"
        }
      ],
      "name": "topWallet",
      "outputs": [],
      "payable": false,
      "stateMutability": "nonpayable",
      "type": "function"
    },
    {
      "constant": false,
      "inputs": [
        {
          "name": "_user",
          "type": "address"
        },
        {
          "name": "_amount",
          "type": "uint256"
        },
        {
          "name": "_did",
          "type": "string"
        }
      ],
      "name": "whitelistAndAwardUser",
      "outputs": [],
      "payable": false,
      "stateMutability": "nonpayable",
      "type": "function"
    },
    {
      "constant": false,
      "inputs": [
        {
          "name": "_user",
          "type": "address"
        },
        {
          "name": "_amount",
          "type": "uint256"
        }
      ],
      "name": "awardUser",
      "outputs": [],
      "payable": false,
      "stateMutability": "nonpayable",
      "type": "function"
    },
    {
      "constant": false,
      "inputs": [
        {
          "name": "_contract",
          "type": "address"
        },
        {
          "name": "_data",
          "type": "bytes"
        },
        {
          "name": "_value",
          "type": "uint256"
        }
      ],
      "name": "genericCall",
      "outputs": [
        {
          "name": "success",
          "type": "bool"
        },
        {
          "name": "returnValue",
          "type": "bytes"
        }
      ],
      "payable": false,
      "stateMutability": "nonpayable",
      "type": "function"
    },
    {
      "constant": false,
      "inputs": [],
      "name": "destroy",
      "outputs": [],
      "payable": false,
      "stateMutability": "nonpayable",
      "type": "function"
    }
  ],
  "bytecode": "0x608060405260048054600160a060020a03191690553480156200002157600080fd5b5060405162001f2238038062001f22833981018060405260808110156200004757600080fd5b8101908080516401000000008111156200006057600080fd5b820160208101848111156200007457600080fd5b81518560208202830111640100000000821117156200009257600080fd5b5050602082015160408084015160609094015160008054600160a060020a03191633178082559251949750929550928392600160a060020a039290921691907f8be0079c531659141344cd1fd0a4f28419497f9722a3daafe3b4186f6b6457e0908290a3600160a060020a03811615156200016e57604080517f08c379a000000000000000000000000000000000000000000000000000000000815260206004820152601960248201527f537570706c696564206964656e74697479206973206e756c6c00000000000000604482015290519081900360640190fd5b60018054600160a060020a031916600160a060020a03929092169190911790556005839055661ff973cafa8000600655600782905542600955835160001015620001c657620001c684640100000000620001d0810204565b505050506200039a565b620001e3640100000000620002f6810204565b1515620001ef57600080fd5b60005b815181101562000287576200023082828151811015156200020f57fe5b60209081029091010151600290640100000000620019fb6200030782021704565b600382828151811015156200024157fe5b6020908102919091018101518254600180820185556000948552929093209092018054600160a060020a031916600160a060020a039093169290921790915501620001f2565b508060405180828051906020019060200280838360005b83811015620002b85781810151838201526020016200029e565b505060405194909201849003842095507f45486b220020cc2482ad1a5e0ae4d5f0b5372cea1b48173f6273c616a5047269945060009392505050a250565b600054600160a060020a0316331490565b600160a060020a03811615156200031d57600080fd5b62000332828264010000000062000362810204565b156200033d57600080fd5b600160a060020a0316600090815260209190915260409020805460ff19166001179055565b6000600160a060020a03821615156200037a57600080fd5b50600160a060020a03166000908152602091909152604090205460ff1690565b611b7880620003aa6000396000f3fe60806040526004361061019e576000357c0100000000000000000000000000000000000000000000000000000000900480638da5cb5b116100ee578063e2166c64116100a7578063eda4e6d611610081578063eda4e6d614610882578063f2fde38b14610897578063f3da9f05146108ca578063f9f92be4146108df5761019e565b8063e2166c6414610807578063e6ea39391461083a578063eb91e6511461084f5761019e565b80638da5cb5b146106b55780638f32d59b146106ca5780639c54df64146106df578063bd7fbbd61461078f578063c4892496146107c8578063db626838146107dd5761019e565b8063377e11e01161015b5780635fc944e9116101355780635fc944e914610628578063715018a61461065857806378c8cda71461066d57806383197ef0146106a05761019e565b8063377e11e01461051e5780635c9302c9146105ce5780635d5bf178146105f55761019e565b80631ff6e09f146101a057806324d7806c146102685780632beeaca4146102af5780632bf16458146103725780632c159a1a146104ba5780633771dcf8146104eb575b005b3480156101ac57600080fd5b5061019e600480360360608110156101c357600080fd5b600160a060020a03823516916020810135918101906060810160408201356401000000008111156101f357600080fd5b82018360208201111561020557600080fd5b8035906020019184600183028401116401000000008311171561022757600080fd5b91908080601f016020809104026020016040519081016040528093929190818152602001838380828437600092019190915250929550610912945050505050565b34801561027457600080fd5b5061029b6004803603602081101561028b57600080fd5b5035600160a060020a0316610b1c565b604080519115158252519081900360200190f35b3480156102bb57600080fd5b5061019e600480360360408110156102d257600080fd5b600160a060020a0382351691908101906040810160208201356401000000008111156102fd57600080fd5b82018360208201111561030f57600080fd5b8035906020019184600183028401116401000000008311171561033157600080fd5b91908080601f016020809104026020016040519081016040528093929190818152602001838380828437600092019190915250929550610b35945050505050565b34801561037e57600080fd5b506104376004803603606081101561039557600080fd5b600160a060020a0382351691908101906040810160208201356401000000008111156103c057600080fd5b8201836020820111156103d257600080fd5b803590602001918460018302840111640100000000831117156103f457600080fd5b91908080601f0160208091040260200160405190810160405280939291908181526020018383808284376000920191909152509295505091359250610ca6915050565b604051808315151515815260200180602001828103825283818151815260200191508051906020019080838360005b8381101561047e578181015183820152602001610466565b50505050905090810190601f1680156104ab5780820380516001836020036101000a031916815260200191505b50935050505060405180910390f35b3480156104c657600080fd5b506104cf610e97565b60408051600160a060020a039092168252519081900360200190f35b3480156104f757600080fd5b5061019e6004803603602081101561050e57600080fd5b5035600160a060020a0316610ea6565b34801561052a57600080fd5b5061019e6004803603602081101561054157600080fd5b81019060208101813564010000000081111561055c57600080fd5b82018360208201111561056e57600080fd5b8035906020019184602083028401116401000000008311171561059057600080fd5b919080806020026020016040519081016040528093929190818152602001838360200280828437600092019190915250929550610fce945050505050565b3480156105da57600080fd5b506105e361108b565b60408051918252519081900360200190f35b34801561060157600080fd5b5061019e6004803603602081101561061857600080fd5b5035600160a060020a0316611091565b34801561063457600080fd5b5061019e6004803603604081101561064b57600080fd5b50803590602001356111aa565b34801561066457600080fd5b5061019e6112a0565b34801561067957600080fd5b5061019e6004803603602081101561069057600080fd5b5035600160a060020a031661130a565b3480156106ac57600080fd5b5061019e6113eb565b3480156106c157600080fd5b506104cf611401565b3480156106d657600080fd5b5061029b611410565b3480156106eb57600080fd5b5061019e6004803603602081101561070257600080fd5b81019060208101813564010000000081111561071d57600080fd5b82018360208201111561072f57600080fd5b8035906020019184602083028401116401000000008311171561075157600080fd5b919080806020026020016040519081016040528093929190818152602001838360200280828437600092019190915250929550611421945050505050565b34801561079b57600080fd5b5061019e600480360360408110156107b257600080fd5b50600160a060020a038135169060200135611538565b3480156107d457600080fd5b506105e3611660565b3480156107e957600080fd5b5061019e6004803603602081101561080057600080fd5b5035611666565b34801561081357600080fd5b5061019e6004803603602081101561082a57600080fd5b5035600160a060020a0316611673565b34801561084657600080fd5b506105e36116b5565b34801561085b57600080fd5b5061019e6004803603602081101561087257600080fd5b5035600160a060020a03166116bb565b34801561088e57600080fd5b506105e361176f565b3480156108a357600080fd5b5061019e600480360360208110156108ba57600080fd5b5035600160a060020a0316611775565b3480156108d657600080fd5b506105e3611791565b3480156108eb57600080fd5b5061019e6004803603602081101561090257600080fd5b5035600160a060020a0316611797565b61091b33610b1c565b151561095f576040805160e560020a62461bcd0281526020600482015260136024820152600080516020611afd833981519152604482015290519081900360640190fd5b600454600160a060020a031615156109ab5760405160e560020a62461bcd028152600401808060200182810382526021815260200180611adc6021913960400191505060405180910390fd5b600154604080517f3af32abf000000000000000000000000000000000000000000000000000000008152600160a060020a03868116600483015291519190921691633af32abf916024808301926020929190829003018186803b158015610a1157600080fd5b505afa158015610a25573d6000803e3d6000fd5b505050506040513d6020811015610a3b57600080fd5b50511515610a4d57610a4d8382610b35565b6000821115610ae15760048054604080517fbd7fbbd6000000000000000000000000000000000000000000000000000000008152600160a060020a0387811694820194909452602481018690529051929091169163bd7fbbd69160448082019260009290919082900301818387803b158015610ac857600080fd5b505af1158015610adc573d6000803e3d6000fd5b505050505b600654610af590600263ffffffff61184b16565b333111801590610b095750610b0933610b1c565b15610b1757610b173361186f565b505050565b6000610b2f60028363ffffffff61195016565b92915050565b610b3e33610b1c565b1515610b82576040805160e560020a62461bcd0281526020600482015260136024820152600080516020611afd833981519152604482015290519081900360640190fd5b600154604080517f1b027099000000000000000000000000000000000000000000000000000000008152600160a060020a0385811660048301908152602483019384528551604484015285519190941693631b0270999387938793606490910190602085019080838360005b83811015610c06578181015183820152602001610bee565b50505050905090810190601f168015610c335780820380516001836020036101000a031916815260200191505b509350505050600060405180830381600087803b158015610c5357600080fd5b505af1158015610c67573d6000803e3d6000fd5b5050600654610c8092509050600263ffffffff61184b16565b333111801590610c945750610c9433610b1c565b15610ca257610ca23361186f565b5050565b60006060610cb333610b1c565b1515610cf7576040805160e560020a62461bcd0281526020600482015260136024820152600080516020611afd833981519152604482015290519081900360640190fd5b84600160a060020a031683856040518082805190602001908083835b60208310610d325780518252601f199092019160209182019101610d13565b6001836020036101000a03801982511681845116808217855250505050505090500191505060006040518083038185875af1925050503d8060008114610d94576040519150601f19603f3d011682016040523d82523d6000602084013e610d99565b606091505b50809250819350505084600160a060020a03167f534b52c783549f909f9e743120524d0b7154058e4a54cdc895c2c0b587a1c7e0858585604051808060200184815260200183151515158152602001828103825285818151815260200191508051906020019080838360005b83811015610e1d578181015183820152602001610e05565b50505050905090810190601f168015610e4a5780820380516001836020036101000a031916815260200191505b5094505050505060405180910390a2600654610e6d90600263ffffffff61184b16565b333111801590610e815750610e8133610b1c565b15610e8f57610e8f3361186f565b935093915050565b600154600160a060020a031681565b610eaf33610b1c565b1515610ef3576040805160e560020a62461bcd0281526020600482015260136024820152600080516020611afd833981519152604482015290519081900360640190fd5b610efb611987565b6007546008546000908152600a60209081526040808320600160a060020a038616845290915290205410610f635760405160e560020a62461bcd028152600401808060200182810382526030815260200180611b1d6030913960400191505060405180910390fd5b600554610f7790600463ffffffff61184b16565b600160a060020a0382163110610f8c57610f95565b610f958161186f565b600654610fa990600263ffffffff61184b16565b333111801590610fbd5750610fbd33610b1c565b15610fcb57610fcb3361186f565b50565b610fd6611410565b1515610fe157600080fd5b60005b815181101561101e576110168282815181101515610ffe57fe5b6020908102909101015160029063ffffffff6119af16565b600101610fe4565b508060405180828051906020019060200280838360005b8381101561104d578181015183820152602001611035565b505060405194909201849003842095507fd5e6894641b5030a67e637ab2e12da64d8aec689f8bd1328de2b04d6a439c810945060009392505050a250565b60085481565b611099611410565b15156110a457600080fd5b80600160a060020a031663223668446040518163ffffffff167c010000000000000000000000000000000000000000000000000000000002815260040160206040518083038186803b1580156110f957600080fd5b505afa15801561110d573d6000803e3d6000fd5b505050506040513d602081101561112357600080fd5b5051151561117b576040805160e560020a62461bcd02815260206004820152601a60248201527f4964656e74697479206973206e6f742072656769737465726564000000000000604482015290519081900360640190fd5b6001805473ffffffffffffffffffffffffffffffffffffffff1916600160a060020a0392909216919091179055565b6003548210611203576040805160e560020a62461bcd02815260206004820152601360248201527f41646d696e206c69737420697320656d70747900000000000000000000000000604482015290519081900360640190fd5b815b6003548110801561121557508181105b1561128b5760065461122e90600263ffffffff61184b16565b600380548390811061123c57fe5b600091825260209091200154600160a060020a031631116112835761128360038281548110151561126957fe5b600091825260209091200154600160a060020a031661186f565b600101611205565b50600654610c8090600263ffffffff61184b16565b6112a8611410565b15156112b357600080fd5b60008054604051600160a060020a03909116907f8be0079c531659141344cd1fd0a4f28419497f9722a3daafe3b4186f6b6457e0908390a36000805473ffffffffffffffffffffffffffffffffffffffff19169055565b61131333610b1c565b1515611357576040805160e560020a62461bcd0281526020600482015260136024820152600080516020611afd833981519152604482015290519081900360640190fd5b600154604080517f291d9549000000000000000000000000000000000000000000000000000000008152600160a060020a0384811660048301529151919092169163291d954991602480830192600092919082900301818387803b1580156113be57600080fd5b505af11580156113d2573d6000803e3d6000fd5b5050600654610fa992509050600263ffffffff61184b16565b6113f3611410565b15156113fe57600080fd5b33ff5b600054600160a060020a031690565b600054600160a060020a0316331490565b611429611410565b151561143457600080fd5b60005b81518110156114cb57611469828281518110151561145157fe5b6020908102909101015160029063ffffffff6119fb16565b6003828281518110151561147957fe5b602090810291909101810151825460018082018555600094855292909320909201805473ffffffffffffffffffffffffffffffffffffffff1916600160a060020a039093169290921790915501611437565b508060405180828051906020019060200280838360005b838110156114fa5781810151838201526020016114e2565b505060405194909201849003842095507f45486b220020cc2482ad1a5e0ae4d5f0b5372cea1b48173f6273c616a5047269945060009392505050a250565b61154133610b1c565b1515611585576040805160e560020a62461bcd0281526020600482015260136024820152600080516020611afd833981519152604482015290519081900360640190fd5b600454600160a060020a031615156115d15760405160e560020a62461bcd028152600401808060200182810382526021815260200180611adc6021913960400191505060405180910390fd5b600081111561164c5760048054604080517fbd7fbbd6000000000000000000000000000000000000000000000000000000008152600160a060020a0386811694820194909452602481018590529051929091169163bd7fbbd69160448082019260009290919082900301818387803b158015610c5357600080fd5b600654610c8090600263ffffffff61184b16565b60065481565b610f9581826032016111aa565b61167b611410565b151561168657600080fd5b6004805473ffffffffffffffffffffffffffffffffffffffff1916600160a060020a0392909216919091179055565b60055481565b6116c433610b1c565b1515611708576040805160e560020a62461bcd0281526020600482015260136024820152600080516020611afd833981519152604482015290519081900360640190fd5b600154604080517fc6a276c2000000000000000000000000000000000000000000000000000000008152600160a060020a0384811660048301529151919092169163c6a276c291602480830192600092919082900301818387803b1580156113be57600080fd5b60095481565b61177d611410565b151561178857600080fd5b610fcb81611a49565b60075481565b6117a033610b1c565b15156117e4576040805160e560020a62461bcd0281526020600482015260136024820152600080516020611afd833981519152604482015290519081900360640190fd5b600154604080517f188efc16000000000000000000000000000000000000000000000000000000008152600160a060020a0384811660048301529151919092169163188efc1691602480830192600092919082900301818387803b1580156113be57600080fd5b600080821161185957600080fd5b6000828481151561186657fe5b04949350505050565b6008546000908152600a60209081526040808320600160a060020a03851684529091528120805460010190556118a482610b1c565b6118b0576005546118b4565b6006545b905060006118d282600160a060020a0385163163ffffffff611ac616565b604051909150600160a060020a0384169082156108fc029083906000818181858888f1935050505015801561190b573d6000803e3d6000fd5b50604080518281529051600160a060020a038516917ff60e56b8021f6ac77bd50d4acdbed9ad9e85107144d43090774a9ebe5ffed985919081900360200190a2505050565b6000600160a060020a038216151561196757600080fd5b50600160a060020a03166000908152602091909152604090205460ff1690565b620151806119a060095442611ac690919063ffffffff16565b8115156119a957fe5b04600855565b600160a060020a03811615156119c457600080fd5b6119ce8282611950565b15156119d957600080fd5b600160a060020a0316600090815260209190915260409020805460ff19169055565b600160a060020a0381161515611a1057600080fd5b611a1a8282611950565b15611a2457600080fd5b600160a060020a0316600090815260209190915260409020805460ff19166001179055565b600160a060020a0381161515611a5e57600080fd5b60008054604051600160a060020a03808516939216917f8be0079c531659141344cd1fd0a4f28419497f9722a3daafe3b4186f6b6457e091a36000805473ffffffffffffffffffffffffffffffffffffffff1916600160a060020a0392909216919091179055565b600082821115611ad557600080fd5b5090039056fe5369676e557020626f6e757320686173206e6f74206265656e207365742079657443616c6c6572206973206e6f742061646d696e00000000000000000000000000557365722077616c6c657420686173206265656e20746f7070656420746f6f206d616e792074696d657320746f646179a165627a7a7230582011f5cebf63a105a9b77a5ec63839abf4714b56e7cbde167ebd0e71a280cfd3b40029",
  "source": "pragma solidity 0.5.4;\n\nimport \"openzeppelin-solidity/contracts/access/Roles.sol\";\nimport \"openzeppelin-solidity/contracts/math/SafeMath.sol\";\n\nimport \"../identity/IdentityGuard.sol\";\nimport \"../dao/schemes/SignUpBonus.sol\";\n\n\n/* @title Admin wallet contract allowing whitelisting and topping up of\n * addresses\n */\ncontract AdminWallet is IdentityGuard {\n    using Roles for Roles.Role;\n    using SafeMath for uint256;\n\n    Roles.Role private admins;\n\n    address payable[] adminlist;\n\n    SignUpBonus bonus = SignUpBonus(0);\n\n    uint256 public toppingAmount;\n    uint256 public adminToppingAmount;\n\n    uint256 public toppingTimes;\n    uint256 public currentDay;\n    uint256 public periodStart;\n\n    mapping(uint256 => mapping(address => uint256)) toppings;\n\n    event AdminsAdded(address payable[] indexed admins);\n    event AdminsRemoved(address[] indexed admins);\n    event WalletTopped(address indexed user, uint256 amount);\n    event GenericCall(\n        address indexed _contract,\n        bytes _data,\n        uint256 _value,\n        bool _success\n    );\n\n    constructor(\n        address payable[] memory _admins,\n        uint256 _toppingAmount,\n        uint256 _toppingTimes,\n        Identity _identity\n    ) public IdentityGuard(_identity) {\n        toppingAmount = _toppingAmount;\n        adminToppingAmount = 1e9 * 9e6; //1gwei gas price * 9000000 gas limit\n        toppingTimes = _toppingTimes;\n        periodStart = now;\n\n        if (_admins.length > 0) {\n            addAdmins(_admins);\n        }\n    }\n\n    /* @dev Modifier that checks if caller is admin of wallet\n     */\n    modifier onlyAdmin() {\n        require(isAdmin(msg.sender), \"Caller is not admin\");\n        _;\n    }\n\n    modifier reimburseGas() {\n        _;\n        if (msg.sender.balance <= adminToppingAmount.div(2) && isAdmin(msg.sender)) {\n            _topWallet(msg.sender);\n        }\n    }\n\n    function() external payable {}\n\n    /* @dev Internal function that sets current day\n     */\n    function setDay() internal {\n        currentDay = (now.sub(periodStart)) / 1 days;\n    }\n\n    function setBonusContract(SignUpBonus _bonus) public onlyOwner {\n        bonus = _bonus;\n    }\n\n    /* @dev Function to add list of addresses to admins\n     * can only be called by creator of contract\n     * @param _admins the list of addresses to add\n     */\n    function addAdmins(address payable[] memory _admins) public onlyOwner {\n        for (uint256 i = 0; i < _admins.length; i++) {\n            admins.add(_admins[i]);\n\n            adminlist.push(_admins[i]);\n        }\n        emit AdminsAdded(_admins);\n    }\n\n    /* @dev Function to remove list of addresses to admins\n     * can only be called by creator of contract\n     * @param _admins the list of addresses to remove\n     */\n    function removeAdmins(address[] memory _admins) public onlyOwner {\n        for (uint256 i = 0; i < _admins.length; i++) {\n            admins.remove(_admins[i]);\n        }\n        emit AdminsRemoved(_admins);\n    }\n\n    /**\n     * @dev top admins\n     */\n    function topAdmins(uint256 startIndex, uint256 endIndex) public reimburseGas {\n        require(adminlist.length > startIndex, \"Admin list is empty\");\n        for (uint256 i = startIndex; (i < adminlist.length && i < endIndex); i++) {\n            if (adminlist[i].balance <= adminToppingAmount.div(2)) {\n                _topWallet(adminlist[i]);\n            }\n        }\n    }\n\n    /* @dev top the first 50 admins\n     */\n    function topAdmins(uint256 startIndex) public reimburseGas {\n        topAdmins(startIndex, startIndex + 50);\n    }\n\n    /**\n     * @dev Function to check if given address is an admin\n     * @param _user the address to check\n     * @return A bool indicating if user is an admin\n     */\n    function isAdmin(address _user) public view returns (bool) {\n        return admins.has(_user);\n    }\n\n    /* @dev Function to add given address to whitelist of identity contract\n     * can only be done by admins of wallet and if wallet is an IdentityAdmin\n     */\n    function whitelist(address _user, string memory _did) public onlyAdmin reimburseGas {\n        identity.addWhitelistedWithDID(_user, _did);\n    }\n\n    /* @dev Function to remove given address from whitelist of identity contract\n     * can only be done by admins of wallet and if wallet is an IdentityAdmin\n     */\n    function removeWhitelist(address _user) public onlyAdmin reimburseGas {\n        identity.removeWhitelisted(_user);\n    }\n\n    /* @dev Function to add given address to blacklist of identity contract\n     * can only be done by admins of wallet and if wallet is an IdentityAdmin\n     */\n    function blacklist(address _user) public onlyAdmin reimburseGas {\n        identity.addBlacklisted(_user);\n    }\n\n    /* @dev Function to remove given address from blacklist of identity contract\n     * can only be done by admins of wallet and if wallet is an IdentityAdmin\n     */\n    function removeBlacklist(address _user) public onlyAdmin reimburseGas {\n        identity.removeBlacklisted(_user);\n    }\n\n    /* @dev Function to top given address with amount of G$ given in constructor\n     * can only be done by admin the amount of times specified in constructor per day\n     * @param _user The address to transfer to\n     */\n    function topWallet(address payable _user) public onlyAdmin reimburseGas {\n        setDay();\n        require(\n            toppings[currentDay][_user] < toppingTimes,\n            \"User wallet has been topped too many times today\"\n        );\n        if (address(_user).balance >= toppingAmount.div(4)) return;\n\n        _topWallet(_user);\n    }\n\n    function _topWallet(address payable _wallet) internal {\n        toppings[currentDay][_wallet] += 1;\n        uint256 amount = isAdmin(_wallet) ? adminToppingAmount : toppingAmount;\n        uint256 toTop = amount.sub(address(_wallet).balance);\n        _wallet.transfer(toTop);\n        emit WalletTopped(_wallet, toTop);\n    }\n\n    /* @dev Function to whitelist user and also award him pending bonuses, it can be used also later\n     * when user is already whitelisted to just award pending bonuses\n     * can only be done by admin\n     * @param _user The address to transfer to and whitelist\n     * @param _amount the bonus amount to give\n     * @param _did decentralized id of user, pointer to some profile\n     */\n    function whitelistAndAwardUser(\n        address _user,\n        uint256 _amount,\n        string memory _did\n    ) public onlyAdmin reimburseGas {\n        require(bonus != SignUpBonus(0), \"SignUp bonus has not been set yet\");\n\n        if (identity.isWhitelisted(_user) == false) {\n            whitelist(_user, _did);\n        }\n\n        if (_amount > 0) {\n            bonus.awardUser(_user, _amount);\n        }\n    }\n\n    /**\n     * @dev Function to award user with pending bonuses,\n     * can only be done by admin\n     * @param _user The address to transfer to and whitelist\n     * @param _amount the bonus amount to give\n     */\n    function awardUser(address _user, uint256 _amount) public onlyAdmin reimburseGas {\n        require(bonus != SignUpBonus(0), \"SignUp bonus has not been set yet\");\n        if (_amount > 0) {\n            bonus.awardUser(_user, _amount);\n        }\n    }\n\n    /**\n     * @dev perform a generic call to an arbitrary contract\n     * @param _contract  the contract's address to call\n     * @param _data ABI-encoded contract call to call `_contract` address.\n     * @param _value value (ETH) to transfer with the transaction\n     * @return bool    success or fail\n     *         bytes - the return bytes of the called contract's function.\n     */\n    function genericCall(\n        address _contract,\n        bytes memory _data,\n        uint256 _value\n    ) public onlyAdmin reimburseGas returns (bool success, bytes memory returnValue) {\n        // solhint-disable-next-line avoid-call-value\n        (success, returnValue) = _contract.call.value(_value)(_data);\n        emit GenericCall(_contract, _data, _value, success);\n    }\n\n    /**\n     * @dev destroy wallet and return funds to owner\n     */\n    function destroy() public onlyOwner {\n        selfdestruct(msg.sender);\n    }\n}\n",
  "sourcePath": "/Users/hadar/workspace/GoodDollar/GoodBootstrap/packages/contracts/contracts/wallet/AdminWallet.sol",
  "compiler": {
    "name": "solc",
    "version": "0.5.4+commit.9549d8ff.Emscripten.clang"
  },
  "schemaVersion": "3.0.16",
  "updatedAt": "2020-07-09T12:07:51.274Z",
  "devdoc": {
    "methods": {
      "awardUser(address,uint256)": {
        "details": "Function to award user with pending bonuses, can only be done by admin",
        "params": {
          "_amount": "the bonus amount to give",
          "_user": "The address to transfer to and whitelist"
        }
      },
      "destroy()": {
        "details": "destroy wallet and return funds to owner"
      },
      "genericCall(address,bytes,uint256)": {
        "details": "perform a generic call to an arbitrary contract",
        "params": {
          "_contract": "the contract's address to call",
          "_data": "ABI-encoded contract call to call `_contract` address.",
          "_value": "value (ETH) to transfer with the transaction"
        },
        "return": "bool    success or fail        bytes - the return bytes of the called contract's function."
      },
      "isAdmin(address)": {
        "details": "Function to check if given address is an admin",
        "params": {
          "_user": "the address to check"
        },
        "return": "A bool indicating if user is an admin"
      },
      "isOwner()": {
        "return": "true if `msg.sender` is the owner of the contract."
      },
      "owner()": {
        "return": "the address of the owner."
      },
      "renounceOwnership()": {
        "details": "Allows the current owner to relinquish control of the contract."
      },
      "topAdmins(uint256,uint256)": {
        "details": "top admins"
      },
      "transferOwnership(address)": {
        "details": "Allows the current owner to transfer control of the contract to a newOwner.",
        "params": {
          "newOwner": "The address to transfer ownership to."
        }
      }
    }
  },
  "userdoc": {
    "methods": {
      "renounceOwnership()": {
        "notice": "Renouncing to ownership will leave the contract without an owner. It will not be possible to call the functions with the `onlyOwner` modifier anymore."
      }
    }
  }
}