{
  "contractName": "AdminWallet",
  "abi": [
    {
      "constant": false,
      "inputs": [],
      "name": "renounceOwnership",
      "outputs": [],
      "payable": false,
      "stateMutability": "nonpayable",
      "type": "function"
    },
    {
      "constant": true,
      "inputs": [],
      "name": "owner",
      "outputs": [
        {
          "name": "",
          "type": "address"
        }
      ],
      "payable": false,
      "stateMutability": "view",
      "type": "function"
    },
    {
      "constant": true,
      "inputs": [],
      "name": "isOwner",
      "outputs": [
        {
          "name": "",
          "type": "bool"
        }
      ],
      "payable": false,
      "stateMutability": "view",
      "type": "function"
    },
    {
      "constant": true,
      "inputs": [],
      "name": "lastCalc",
      "outputs": [
        {
          "name": "",
          "type": "uint256"
        }
      ],
      "payable": false,
      "stateMutability": "view",
      "type": "function"
    },
    {
      "constant": true,
      "inputs": [],
      "name": "toppingAmount",
      "outputs": [
        {
          "name": "",
          "type": "uint256"
        }
      ],
      "payable": false,
      "stateMutability": "view",
      "type": "function"
    },
    {
      "constant": false,
      "inputs": [
        {
          "name": "newOwner",
          "type": "address"
        }
      ],
      "name": "transferOwnership",
      "outputs": [],
      "payable": false,
      "stateMutability": "nonpayable",
      "type": "function"
    },
    {
      "constant": true,
      "inputs": [],
      "name": "toppingTimes",
      "outputs": [
        {
          "name": "",
          "type": "uint256"
        }
      ],
      "payable": false,
      "stateMutability": "view",
      "type": "function"
    },
    {
      "inputs": [
        {
          "name": "_admins",
          "type": "address[]"
        },
        {
          "name": "_toppingAmount",
          "type": "uint256"
        },
        {
          "name": "_toppingTimes",
          "type": "uint256"
        },
        {
          "name": "_identity",
          "type": "address"
        }
      ],
      "payable": false,
      "stateMutability": "nonpayable",
      "type": "constructor"
    },
    {
      "payable": true,
      "stateMutability": "payable",
      "type": "fallback"
    },
    {
      "anonymous": false,
      "inputs": [
        {
          "indexed": true,
          "name": "admins",
          "type": "address[]"
        }
      ],
      "name": "AdminsAdded",
      "type": "event"
    },
    {
      "anonymous": false,
      "inputs": [
        {
          "indexed": true,
          "name": "admins",
          "type": "address[]"
        }
      ],
      "name": "AdminsRemoved",
      "type": "event"
    },
    {
      "anonymous": false,
      "inputs": [
        {
          "indexed": true,
          "name": "user",
          "type": "address"
        }
      ],
      "name": "WalletTopped",
      "type": "event"
    },
    {
      "anonymous": false,
      "inputs": [
        {
          "indexed": true,
          "name": "previousOwner",
          "type": "address"
        },
        {
          "indexed": true,
          "name": "newOwner",
          "type": "address"
        }
      ],
      "name": "OwnershipTransferred",
      "type": "event"
    },
    {
      "constant": false,
      "inputs": [
        {
          "name": "_bonus",
          "type": "address"
        }
      ],
      "name": "setBonusContract",
      "outputs": [],
      "payable": false,
      "stateMutability": "nonpayable",
      "type": "function"
    },
    {
      "constant": false,
      "inputs": [
        {
          "name": "_admins",
          "type": "address[]"
        }
      ],
      "name": "addAdmins",
      "outputs": [],
      "payable": false,
      "stateMutability": "nonpayable",
      "type": "function"
    },
    {
      "constant": false,
      "inputs": [
        {
          "name": "_admins",
          "type": "address[]"
        }
      ],
      "name": "removeAdmins",
      "outputs": [],
      "payable": false,
      "stateMutability": "nonpayable",
      "type": "function"
    },
    {
      "constant": false,
      "inputs": [
        {
          "name": "startIndex",
          "type": "uint256"
        }
      ],
      "name": "topAdmins",
      "outputs": [],
      "payable": false,
      "stateMutability": "nonpayable",
      "type": "function"
    },
    {
      "constant": true,
      "inputs": [
        {
          "name": "_user",
          "type": "address"
        }
      ],
      "name": "isAdmin",
      "outputs": [
        {
          "name": "",
          "type": "bool"
        }
      ],
      "payable": false,
      "stateMutability": "view",
      "type": "function"
    },
    {
      "constant": false,
      "inputs": [
        {
          "name": "_user",
          "type": "address"
        }
      ],
      "name": "whitelist",
      "outputs": [],
      "payable": false,
      "stateMutability": "nonpayable",
      "type": "function"
    },
    {
      "constant": false,
      "inputs": [
        {
          "name": "_user",
          "type": "address"
        }
      ],
      "name": "removeWhitelist",
      "outputs": [],
      "payable": false,
      "stateMutability": "nonpayable",
      "type": "function"
    },
    {
      "constant": false,
      "inputs": [
        {
          "name": "_user",
          "type": "address"
        }
      ],
      "name": "blacklist",
      "outputs": [],
      "payable": false,
      "stateMutability": "nonpayable",
      "type": "function"
    },
    {
      "constant": false,
      "inputs": [
        {
          "name": "_user",
          "type": "address"
        }
      ],
      "name": "removeBlacklist",
      "outputs": [],
      "payable": false,
      "stateMutability": "nonpayable",
      "type": "function"
    },
    {
      "constant": false,
      "inputs": [
        {
          "name": "_user",
          "type": "address"
        }
      ],
      "name": "topWallet",
      "outputs": [],
      "payable": false,
      "stateMutability": "nonpayable",
      "type": "function"
    },
    {
      "constant": false,
      "inputs": [
        {
          "name": "_user",
          "type": "address"
        },
        {
          "name": "_amount",
          "type": "uint256"
        }
      ],
      "name": "whitelistAndAwardUser",
      "outputs": [],
      "payable": false,
      "stateMutability": "nonpayable",
      "type": "function"
    }
  ],
  "bytecode": "0x608060405260048054600160a060020a03191690553480156200002157600080fd5b506040516200164a3803806200164a833981018060405260808110156200004757600080fd5b8101908080516401000000008111156200006057600080fd5b820160208101848111156200007457600080fd5b81518560208202830111640100000000821117156200009257600080fd5b5050602082015160408084015160609094015160008054600160a060020a0319163317808255925194975092955092600160a060020a039190911691907f8be0079c531659141344cd1fd0a4f28419497f9722a3daafe3b4186f6b6457e0908290a360038054600160a060020a031916600160a060020a038316179055600583905560068290558351600010156200013857620001388464010000000062000142810204565b505050506200030c565b6200015564010000000062000268810204565b15156200016157600080fd5b60005b8151811015620001f957620001a282828151811015156200018157fe5b60209081029091010151600190640100000000620011c66200027982021704565b60028282815181101515620001b357fe5b6020908102919091018101518254600180820185556000948552929093209092018054600160a060020a031916600160a060020a03909316929092179091550162000164565b508060405180828051906020019060200280838360005b838110156200022a57818101518382015260200162000210565b505060405194909201849003842095507f45486b220020cc2482ad1a5e0ae4d5f0b5372cea1b48173f6273c616a5047269945060009392505050a250565b600054600160a060020a0316331490565b600160a060020a03811615156200028f57600080fd5b620002a48282640100000000620002d4810204565b15620002af57600080fd5b600160a060020a0316600090815260209190915260409020805460ff19166001179055565b6000600160a060020a0382161515620002ec57600080fd5b50600160a060020a03166000908152602091909152604090205460ff1690565b61132e806200031c6000396000f3fe608060405260043610610126576000357c0100000000000000000000000000000000000000000000000000000000900480639c54df64116100b2578063e6ea393911610081578063e6ea393914610480578063eb91e65114610495578063f2fde38b146104c8578063f3da9f05146104fb578063f9f92be41461051057610126565b80639c54df641461034c578063db626838146103fc578063e2166c6414610426578063e6a847a61461045957610126565b8063715018a6116100f9578063715018a61461028b57806378c8cda7146102a05780638da5cb5b146102d35780638f32d59b146103045780639b19251a1461031957610126565b806324d7806c146101285780633771dcf81461016f578063377e11e0146101a2578063531fa75714610252575b005b34801561013457600080fd5b5061015b6004803603602081101561014b57600080fd5b5035600160a060020a0316610543565b604080519115158252519081900360200190f35b34801561017b57600080fd5b506101266004803603602081101561019257600080fd5b5035600160a060020a031661055c565b3480156101ae57600080fd5b50610126600480360360208110156101c557600080fd5b8101906020810181356401000000008111156101e057600080fd5b8201836020820111156101f257600080fd5b8035906020019184602083028401116401000000008311171561021457600080fd5b91908080602002602001604051908101604052809392919081815260200183836020028082843760009201919091525092955061071b945050505050565b34801561025e57600080fd5b506101266004803603604081101561027557600080fd5b50600160a060020a0381351690602001356107d8565b34801561029757600080fd5b50610126610a2a565b3480156102ac57600080fd5b50610126600480360360208110156102c357600080fd5b5035600160a060020a0316610a94565b3480156102df57600080fd5b506102e8610b75565b60408051600160a060020a039092168252519081900360200190f35b34801561031057600080fd5b5061015b610b84565b34801561032557600080fd5b506101266004803603602081101561033c57600080fd5b5035600160a060020a0316610b95565b34801561035857600080fd5b506101266004803603602081101561036f57600080fd5b81019060208101813564010000000081111561038a57600080fd5b82018360208201111561039c57600080fd5b803590602001918460208302840111640100000000831117156103be57600080fd5b919080806020026020016040519081016040528093929190818152602001838360200280828437600092019190915250929550610c49945050505050565b34801561040857600080fd5b506101266004803603602081101561041f57600080fd5b5035610d60565b34801561043257600080fd5b506101266004803603602081101561044957600080fd5b5035600160a060020a0316610e57565b34801561046557600080fd5b5061046e610e99565b60408051918252519081900360200190f35b34801561048c57600080fd5b5061046e610e9f565b3480156104a157600080fd5b50610126600480360360208110156104b857600080fd5b5035600160a060020a0316610ea5565b3480156104d457600080fd5b50610126600480360360208110156104eb57600080fd5b5035600160a060020a0316610f59565b34801561050757600080fd5b5061046e610f75565b34801561051c57600080fd5b506101266004803603602081101561053357600080fd5b5035600160a060020a0316610f7b565b600061055660018363ffffffff61102f16565b92915050565b61056533610543565b15156105a9576040805160e560020a62461bcd02815260206004820152601360248201526000805160206112b3833981519152604482015290519081900360640190fd5b6105b1611066565b6006546007546000908152600860209081526040808320600160a060020a0386168452909152902054106106195760405160e560020a62461bcd0281526004018080602001828103825260308152602001806112d36030913960400191505060405180910390fd5b60055461062d90600463ffffffff61109c16565b600160a060020a03821631111561068e576040805160e560020a62461bcd02815260206004820152601560248201527f557365722062616c616e636520746f6f20686967680000000000000000000000604482015290519081900360640190fd5b610697816110c0565b6005546106ab90600463ffffffff61109c16565b333111610718576007546000908152600860209081526040808320338085529252909120805460010190556005546108fc906106ee90833163ffffffff61116516565b6040518115909202916000818181858888f19350505050158015610716573d6000803e3d6000fd5b505b50565b610723610b84565b151561072e57600080fd5b60005b815181101561076b57610763828281518110151561074b57fe5b6020908102909101015160019063ffffffff61117a16565b600101610731565b508060405180828051906020019060200280838360005b8381101561079a578181015183820152602001610782565b505060405194909201849003842095507fd5e6894641b5030a67e637ab2e12da64d8aec689f8bd1328de2b04d6a439c810945060009392505050a250565b6107e133610543565b1515610825576040805160e560020a62461bcd02815260206004820152601360248201526000805160206112b3833981519152604482015290519081900360640190fd5b600454600160a060020a031615156108715760405160e560020a62461bcd0281526004018080602001828103825260218152602001806112926021913960400191505060405180910390fd5b600354604080517f3af32abf000000000000000000000000000000000000000000000000000000008152600160a060020a03858116600483015291519190921691633af32abf916024808301926020929190829003018186803b1580156108d757600080fd5b505afa1580156108eb573d6000803e3d6000fd5b505050506040513d602081101561090157600080fd5b505115156109125761091282610b95565b60008111156109a65760048054604080517fbd7fbbd6000000000000000000000000000000000000000000000000000000008152600160a060020a0386811694820194909452602481018590529051929091169163bd7fbbd69160448082019260009290919082900301818387803b15801561098d57600080fd5b505af11580156109a1573d6000803e3d6000fd5b505050505b6005546109ba90600463ffffffff61109c16565b333111610716576007546000908152600860209081526040808320338085529252909120805460010190556005546108fc906109fd90833163ffffffff61116516565b6040518115909202916000818181858888f19350505050158015610a25573d6000803e3d6000fd5b505050565b610a32610b84565b1515610a3d57600080fd5b60008054604051600160a060020a03909116907f8be0079c531659141344cd1fd0a4f28419497f9722a3daafe3b4186f6b6457e0908390a36000805473ffffffffffffffffffffffffffffffffffffffff19169055565b610a9d33610543565b1515610ae1576040805160e560020a62461bcd02815260206004820152601360248201526000805160206112b3833981519152604482015290519081900360640190fd5b600354604080517f291d9549000000000000000000000000000000000000000000000000000000008152600160a060020a0384811660048301529151919092169163291d954991602480830192600092919082900301818387803b158015610b4857600080fd5b505af1158015610b5c573d6000803e3d6000fd5b50506005546106ab92509050600463ffffffff61109c16565b600054600160a060020a031690565b600054600160a060020a0316331490565b610b9e33610543565b1515610be2576040805160e560020a62461bcd02815260206004820152601360248201526000805160206112b3833981519152604482015290519081900360640190fd5b600354604080517f10154bad000000000000000000000000000000000000000000000000000000008152600160a060020a038481166004830152915191909216916310154bad91602480830192600092919082900301818387803b158015610b4857600080fd5b610c51610b84565b1515610c5c57600080fd5b60005b8151811015610cf357610c918282815181101515610c7957fe5b6020908102909101015160019063ffffffff6111c616565b60028282815181101515610ca157fe5b602090810291909101810151825460018082018555600094855292909320909201805473ffffffffffffffffffffffffffffffffffffffff1916600160a060020a039093169290921790915501610c5f565b508060405180828051906020019060200280838360005b83811015610d22578181015183820152602001610d0a565b505060405194909201849003842095507f45486b220020cc2482ad1a5e0ae4d5f0b5372cea1b48173f6273c616a5047269945060009392505050a250565b610d68610b84565b1515610d7357600080fd5b6002548110610dcc576040805160e560020a62461bcd02815260206004820152601360248201527f41646d696e206c69737420697320656d70747900000000000000000000000000604482015290519081900360640190fd5b805b60025481108015610de157508160320181105b1561071657600554610dfa90600463ffffffff61109c16565b6002805483908110610e0857fe5b600091825260209091200154600160a060020a03163111610e4f57610e4f600282815481101515610e3557fe5b600091825260209091200154600160a060020a03166110c0565b600101610dce565b610e5f610b84565b1515610e6a57600080fd5b6004805473ffffffffffffffffffffffffffffffffffffffff1916600160a060020a0392909216919091179055565b60075481565b60055481565b610eae33610543565b1515610ef2576040805160e560020a62461bcd02815260206004820152601360248201526000805160206112b3833981519152604482015290519081900360640190fd5b600354604080517fc6a276c2000000000000000000000000000000000000000000000000000000008152600160a060020a0384811660048301529151919092169163c6a276c291602480830192600092919082900301818387803b158015610b4857600080fd5b610f61610b84565b1515610f6c57600080fd5b61071881611214565b60065481565b610f8433610543565b1515610fc8576040805160e560020a62461bcd02815260206004820152601360248201526000805160206112b3833981519152604482015290519081900360640190fd5b600354604080517f188efc16000000000000000000000000000000000000000000000000000000008152600160a060020a0384811660048301529151919092169163188efc1691602480830192600092919082900301818387803b158015610b4857600080fd5b6000600160a060020a038216151561104657600080fd5b50600160a060020a03166000908152602091909152604090205460ff1690565b6000620151806110816007544261116590919063ffffffff16565b81151561108a57fe5b04905060018110610718574260075550565b60008082116110aa57600080fd5b600082848115156110b757fe5b04949350505050565b6007546000908152600860209081526040808320600160a060020a0385168085529252909120805460010190556005546108fc9061110590833163ffffffff61116516565b6040518115909202916000818181858888f1935050505015801561112d573d6000803e3d6000fd5b50604051600160a060020a038216907fc295f3ccd59be9e331d4c04df80a02aadddfe452c9e2d085556b125598e6785790600090a250565b60008282111561117457600080fd5b50900390565b600160a060020a038116151561118f57600080fd5b611199828261102f565b15156111a457600080fd5b600160a060020a0316600090815260209190915260409020805460ff19169055565b600160a060020a03811615156111db57600080fd5b6111e5828261102f565b156111ef57600080fd5b600160a060020a0316600090815260209190915260409020805460ff19166001179055565b600160a060020a038116151561122957600080fd5b60008054604051600160a060020a03808516939216917f8be0079c531659141344cd1fd0a4f28419497f9722a3daafe3b4186f6b6457e091a36000805473ffffffffffffffffffffffffffffffffffffffff1916600160a060020a039290921691909117905556fe5369676e557020626f6e757320686173206e6f74206265656e207365742079657443616c6c6572206973206e6f742061646d696e00000000000000000000000000557365722077616c6c657420686173206265656e20746f7070656420746f6f206d616e792074696d657320746f646179a165627a7a723058209573ec7eff3bf6716144c3e8756587f591217482ec8d8cf800a5eae9021b19700029",
  "source": "\npragma solidity ^0.5.4;\n\nimport \"openzeppelin-solidity/contracts/access/Roles.sol\";\nimport \"openzeppelin-solidity/contracts/ownership/Ownable.sol\";\nimport \"openzeppelin-solidity/contracts/math/SafeMath.sol\";\n\nimport \"../identity/Identity.sol\";\nimport \"../dao/schemes/SignUpBonus.sol\";\n\n/* @title Admin wallet contract allowing whitelisting and topping up of\n * addresses\n */\ncontract AdminWallet is Ownable {\n    using Roles for Roles.Role;\n    using SafeMath for uint256;\n\n    Roles.Role private admins;\n\n    address payable[] adminlist;\n\n    Identity identity;\n\n    SignUpBonus bonus = SignUpBonus(0);\n\n    uint256 public toppingAmount;\n    \n    uint public toppingTimes;\n    uint public lastCalc;\n\n    mapping(uint => mapping(address => uint)) toppings;\n\n    event AdminsAdded(address payable[] indexed admins);\n    event AdminsRemoved(address[] indexed admins);\n    event WalletTopped(address indexed user);\n\n    constructor (\n        address payable[] memory _admins,\n        uint256 _toppingAmount,\n        uint _toppingTimes,\n        Identity _identity\n    )\n        public \n    {\n        identity = _identity;\n\n        toppingAmount = _toppingAmount;\n        toppingTimes = _toppingTimes;\n\n        if (_admins.length > 0) { \n            addAdmins(_admins);\n        }\n    }   \n\n    /* @dev Modifier that checks if caller is admin of wallet\n     */\n    modifier onlyAdmin() {\n        require(isAdmin(msg.sender), \"Caller is not admin\");\n        _;\n    }\n\n    modifier reimburseGas() {\n        _;\n        if (msg.sender.balance <= toppingAmount.div(4)) { \n            toppings[lastCalc][msg.sender] += 1;\n            msg.sender.transfer(toppingAmount.sub(msg.sender.balance));\n        }\n    }\n\n    function () external payable {}\n\n    /* @dev Internal function that sets current day\n     */\n    function setDay() internal {\n        uint dayDiff = now.sub(lastCalc) / 1 days;\n        \n        if (dayDiff >= 1) {\n            lastCalc = now;\n        }\n    }\n\n    function setBonusContract(SignUpBonus _bonus) public onlyOwner {\n        bonus = _bonus;\n    }\n\n    /* @dev Function to add list of addresses to admins\n     * can only be called by creator of contract\n     * @param _admins the list of addresses to add\n     */\n    function addAdmins(address payable[] memory _admins) public onlyOwner {\n        for (uint i = 0; i < _admins.length; i++) {\n            admins.add(_admins[i]);\n            \n            adminlist.push(_admins[i]);\n        }\n        emit AdminsAdded(_admins);\n    }\n\n    /* @dev Function to remove list of addresses to admins\n     * can only be called byu creator of contract\n     * @param _admins the list of addresses to remove\n     */\n    function removeAdmins(address[] memory _admins) public onlyOwner {\n        for (uint i = 0; i < _admins.length; i++) {\n            admins.remove(_admins[i]);\n        }\n        emit AdminsRemoved(_admins);\n    }\n\n    /* @dev top the first 50 admins\n     */\n    function topAdmins(uint256 startIndex) public onlyOwner {\n        require(adminlist.length > startIndex, \"Admin list is empty\");\n        for (uint i = startIndex; (i < adminlist.length && i < startIndex + 50); i++) {\n            if (adminlist[i].balance <= toppingAmount.div(4)) {\n                _topWallet(adminlist[i]);\n            }\n        }\n    }\n\n    /* @dev Function to check if given address is an admin\n     * @param _user the address to check\n     * @returns A bool indicating if user is an admin \n     */\n    function isAdmin(address _user) public view returns(bool) {\n        return admins.has(_user);\n    }\n\n    /* @dev Function to add given address to whitelist of identity contract\n     * can only be done by admins of wallet and if wallet is an IdentityAdmin\n     */\n    function whitelist(address _user) public onlyAdmin reimburseGas {\n        identity.addWhitelisted(_user);\n    }\n\n    /* @dev Function to remove given address from whitelist of identity contract\n     * can only be done by admins of wallet and if wallet is an IdentityAdmin\n     */\n    function removeWhitelist(address _user) public onlyAdmin reimburseGas {\n        identity.removeWhitelisted(_user);\n    }\n\n    /* @dev Function to add given address to blacklist of identity contract\n     * can only be done by admins of wallet and if wallet is an IdentityAdmin\n     */\n    function blacklist(address _user) public onlyAdmin reimburseGas {\n        identity.addBlacklisted(_user);\n    }\n\n    /* @dev Function to remove given address from blacklist of identity contract\n     * can only be done by admins of wallet and if wallet is an IdentityAdmin\n     */\n    function removeBlacklist(address _user) public onlyAdmin reimburseGas {\n        identity.removeBlacklisted(_user);\n    }\n\n    /* @dev Function to top given address with amount of G$ given in constructor\n     * can only be done by admin the amount of times specified in constructor per day\n     * @param _user The address to transfer to \n     */\n    function topWallet(address payable _user) public onlyAdmin reimburseGas {\n        setDay();\n        require(toppings[lastCalc][_user] < toppingTimes, \"User wallet has been topped too many times today\");\n        require(address(_user).balance <= toppingAmount.div(4), \"User balance too high\");\n\n        _topWallet(_user);\n    }\n\n    function _topWallet(address payable _wallet) internal {\n        toppings[lastCalc][_wallet] += 1;\n        _wallet.transfer(toppingAmount.sub(address(_wallet).balance));\n        emit WalletTopped(_wallet);\n    }\n\n    /* @dev Function to whitelist user and also award him pending bonuses, it can be used also later\n     * when user is already whitelisted to just award pending bonuses\n     * can only be done by admin\n     * @param _user The address to transfer to and whitelist\n     * @param _amount the bonus amount to give \n     */\n    function whitelistAndAwardUser(address _user, uint256 _amount) public onlyAdmin reimburseGas {\n        require(bonus != SignUpBonus(0), \"SignUp bonus has not been set yet\");\n\n        if(identity.isWhitelisted(_user) == false) {\n            whitelist(_user);\n        }\n        \n        if(_amount > 0) {\n            bonus.awardUser(_user, _amount);\n        }\n    }\n}\n",
  "sourcePath": "/Users/hadar/workspace/GoodDollar/GoodBootstrap/packages/contracts/contracts/wallet/AdminWallet.sol",
  "compiler": {
    "name": "solc",
    "version": "0.5.4+commit.9549d8ff.Emscripten.clang"
  },
  "schemaVersion": "3.0.16",
  "updatedAt": "2019-11-06T22:00:35.515Z",
  "devdoc": {
    "methods": {
      "isOwner()": {
        "return": "true if `msg.sender` is the owner of the contract."
      },
      "owner()": {
        "return": "the address of the owner."
      },
      "renounceOwnership()": {
        "details": "Allows the current owner to relinquish control of the contract."
      },
      "transferOwnership(address)": {
        "details": "Allows the current owner to transfer control of the contract to a newOwner.",
        "params": {
          "newOwner": "The address to transfer ownership to."
        }
      }
    }
  },
  "userdoc": {
    "methods": {
      "renounceOwnership()": {
        "notice": "Renouncing to ownership will leave the contract without an owner. It will not be possible to call the functions with the `onlyOwner` modifier anymore."
      }
    }
  }
}