{
  "contractName": "AdminWallet",
  "abi": [
    {
      "inputs": [
        {
          "internalType": "address payable[]",
          "name": "_admins",
          "type": "address[]"
        },
        {
          "internalType": "uint256",
          "name": "_toppingAmount",
          "type": "uint256"
        },
        {
          "internalType": "uint256",
          "name": "_toppingTimes",
          "type": "uint256"
        },
        {
          "internalType": "contract Identity",
          "name": "_identity",
          "type": "address"
        }
      ],
      "payable": false,
      "stateMutability": "nonpayable",
      "type": "constructor"
    },
    {
      "anonymous": false,
      "inputs": [
        {
          "indexed": true,
          "internalType": "address payable[]",
          "name": "admins",
          "type": "address[]"
        }
      ],
      "name": "AdminsAdded",
      "type": "event"
    },
    {
      "anonymous": false,
      "inputs": [
        {
          "indexed": true,
          "internalType": "address[]",
          "name": "admins",
          "type": "address[]"
        }
      ],
      "name": "AdminsRemoved",
      "type": "event"
    },
    {
      "anonymous": false,
      "inputs": [
        {
          "indexed": true,
          "internalType": "address",
          "name": "_contract",
          "type": "address"
        },
        {
          "indexed": false,
          "internalType": "bytes",
          "name": "_data",
          "type": "bytes"
        },
        {
          "indexed": false,
          "internalType": "uint256",
          "name": "_value",
          "type": "uint256"
        },
        {
          "indexed": false,
          "internalType": "bool",
          "name": "_success",
          "type": "bool"
        }
      ],
      "name": "GenericCall",
      "type": "event"
    },
    {
      "anonymous": false,
      "inputs": [
        {
          "indexed": true,
          "internalType": "address",
          "name": "previousOwner",
          "type": "address"
        },
        {
          "indexed": true,
          "internalType": "address",
          "name": "newOwner",
          "type": "address"
        }
      ],
      "name": "OwnershipTransferred",
      "type": "event"
    },
    {
      "anonymous": false,
      "inputs": [
        {
          "indexed": true,
          "internalType": "address",
          "name": "user",
          "type": "address"
        },
        {
          "indexed": false,
          "internalType": "uint256",
          "name": "amount",
          "type": "uint256"
        }
      ],
      "name": "WalletTopped",
      "type": "event"
    },
    {
      "payable": true,
      "stateMutability": "payable",
      "type": "fallback"
    },
    {
      "constant": true,
      "inputs": [],
      "name": "adminToppingAmount",
      "outputs": [
        {
          "internalType": "uint256",
          "name": "",
          "type": "uint256"
        }
      ],
      "payable": false,
      "stateMutability": "view",
      "type": "function"
    },
    {
      "constant": true,
      "inputs": [],
      "name": "currentDay",
      "outputs": [
        {
          "internalType": "uint256",
          "name": "",
          "type": "uint256"
        }
      ],
      "payable": false,
      "stateMutability": "view",
      "type": "function"
    },
    {
      "constant": true,
      "inputs": [],
      "name": "identity",
      "outputs": [
        {
          "internalType": "contract Identity",
          "name": "",
          "type": "address"
        }
      ],
      "payable": false,
      "stateMutability": "view",
      "type": "function"
    },
    {
      "constant": true,
      "inputs": [],
      "name": "isOwner",
      "outputs": [
        {
          "internalType": "bool",
          "name": "",
          "type": "bool"
        }
      ],
      "payable": false,
      "stateMutability": "view",
      "type": "function"
    },
    {
      "constant": true,
      "inputs": [],
      "name": "owner",
      "outputs": [
        {
          "internalType": "address",
          "name": "",
          "type": "address"
        }
      ],
      "payable": false,
      "stateMutability": "view",
      "type": "function"
    },
    {
      "constant": true,
      "inputs": [],
      "name": "periodStart",
      "outputs": [
        {
          "internalType": "uint256",
          "name": "",
          "type": "uint256"
        }
      ],
      "payable": false,
      "stateMutability": "view",
      "type": "function"
    },
    {
      "constant": false,
      "inputs": [],
      "name": "renounceOwnership",
      "outputs": [],
      "payable": false,
      "stateMutability": "nonpayable",
      "type": "function"
    },
    {
      "constant": false,
      "inputs": [
        {
          "internalType": "contract Identity",
          "name": "_identity",
          "type": "address"
        }
      ],
      "name": "setIdentity",
      "outputs": [],
      "payable": false,
      "stateMutability": "nonpayable",
      "type": "function"
    },
    {
      "constant": true,
      "inputs": [],
      "name": "toppingAmount",
      "outputs": [
        {
          "internalType": "uint256",
          "name": "",
          "type": "uint256"
        }
      ],
      "payable": false,
      "stateMutability": "view",
      "type": "function"
    },
    {
      "constant": true,
      "inputs": [],
      "name": "toppingTimes",
      "outputs": [
        {
          "internalType": "uint256",
          "name": "",
          "type": "uint256"
        }
      ],
      "payable": false,
      "stateMutability": "view",
      "type": "function"
    },
    {
      "constant": false,
      "inputs": [
        {
          "internalType": "address",
          "name": "newOwner",
          "type": "address"
        }
      ],
      "name": "transferOwnership",
      "outputs": [],
      "payable": false,
      "stateMutability": "nonpayable",
      "type": "function"
    },
    {
      "constant": false,
      "inputs": [
        {
          "internalType": "contract SignUpBonus",
          "name": "_bonus",
          "type": "address"
        }
      ],
      "name": "setBonusContract",
      "outputs": [],
      "payable": false,
      "stateMutability": "nonpayable",
      "type": "function"
    },
    {
      "constant": false,
      "inputs": [
        {
          "internalType": "address payable[]",
          "name": "_admins",
          "type": "address[]"
        }
      ],
      "name": "addAdmins",
      "outputs": [],
      "payable": false,
      "stateMutability": "nonpayable",
      "type": "function"
    },
    {
      "constant": false,
      "inputs": [
        {
          "internalType": "address[]",
          "name": "_admins",
          "type": "address[]"
        }
      ],
      "name": "removeAdmins",
      "outputs": [],
      "payable": false,
      "stateMutability": "nonpayable",
      "type": "function"
    },
    {
      "constant": false,
      "inputs": [
        {
          "internalType": "uint256",
          "name": "startIndex",
          "type": "uint256"
        },
        {
          "internalType": "uint256",
          "name": "endIndex",
          "type": "uint256"
        }
      ],
      "name": "topAdmins",
      "outputs": [],
      "payable": false,
      "stateMutability": "nonpayable",
      "type": "function"
    },
    {
      "constant": false,
      "inputs": [
        {
          "internalType": "uint256",
          "name": "startIndex",
          "type": "uint256"
        }
      ],
      "name": "topAdmins",
      "outputs": [],
      "payable": false,
      "stateMutability": "nonpayable",
      "type": "function"
    },
    {
      "constant": true,
      "inputs": [
        {
          "internalType": "address",
          "name": "_user",
          "type": "address"
        }
      ],
      "name": "isAdmin",
      "outputs": [
        {
          "internalType": "bool",
          "name": "",
          "type": "bool"
        }
      ],
      "payable": false,
      "stateMutability": "view",
      "type": "function"
    },
    {
      "constant": false,
      "inputs": [
        {
          "internalType": "address",
          "name": "_user",
          "type": "address"
        },
        {
          "internalType": "string",
          "name": "_did",
          "type": "string"
        }
      ],
      "name": "whitelist",
      "outputs": [],
      "payable": false,
      "stateMutability": "nonpayable",
      "type": "function"
    },
    {
      "constant": false,
      "inputs": [
        {
          "internalType": "address",
          "name": "_user",
          "type": "address"
        }
      ],
      "name": "removeWhitelist",
      "outputs": [],
      "payable": false,
      "stateMutability": "nonpayable",
      "type": "function"
    },
    {
      "constant": false,
      "inputs": [
        {
          "internalType": "address",
          "name": "_user",
          "type": "address"
        }
      ],
      "name": "blacklist",
      "outputs": [],
      "payable": false,
      "stateMutability": "nonpayable",
      "type": "function"
    },
    {
      "constant": false,
      "inputs": [
        {
          "internalType": "address",
          "name": "_user",
          "type": "address"
        }
      ],
      "name": "removeBlacklist",
      "outputs": [],
      "payable": false,
      "stateMutability": "nonpayable",
      "type": "function"
    },
    {
      "constant": false,
      "inputs": [
        {
          "internalType": "address payable",
          "name": "_user",
          "type": "address"
        }
      ],
      "name": "topWallet",
      "outputs": [],
      "payable": false,
      "stateMutability": "nonpayable",
      "type": "function"
    },
    {
      "constant": false,
      "inputs": [
        {
          "internalType": "address",
          "name": "_user",
          "type": "address"
        },
        {
          "internalType": "uint256",
          "name": "_amount",
          "type": "uint256"
        },
        {
          "internalType": "string",
          "name": "_did",
          "type": "string"
        }
      ],
      "name": "whitelistAndAwardUser",
      "outputs": [],
      "payable": false,
      "stateMutability": "nonpayable",
      "type": "function"
    },
    {
      "constant": false,
      "inputs": [
        {
          "internalType": "address",
          "name": "_user",
          "type": "address"
        },
        {
          "internalType": "uint256",
          "name": "_amount",
          "type": "uint256"
        }
      ],
      "name": "awardUser",
      "outputs": [],
      "payable": false,
      "stateMutability": "nonpayable",
      "type": "function"
    },
    {
      "constant": false,
      "inputs": [
        {
          "internalType": "address",
          "name": "_contract",
          "type": "address"
        },
        {
          "internalType": "bytes",
          "name": "_data",
          "type": "bytes"
        },
        {
          "internalType": "uint256",
          "name": "_value",
          "type": "uint256"
        }
      ],
      "name": "genericCall",
      "outputs": [
        {
          "internalType": "bool",
          "name": "success",
          "type": "bool"
        },
        {
          "internalType": "bytes",
          "name": "returnValue",
          "type": "bytes"
        }
      ],
      "payable": false,
      "stateMutability": "nonpayable",
      "type": "function"
    },
    {
      "constant": false,
      "inputs": [],
      "name": "destroy",
      "outputs": [],
      "payable": false,
      "stateMutability": "nonpayable",
      "type": "function"
    }
  ],
  "bytecode": "0x6080604052600480546001600160a01b03191690553480156200002157600080fd5b5060405162001e5738038062001e57833981810160405260808110156200004757600080fd5b81019080805160405193929190846401000000008211156200006857600080fd5b9083019060208201858111156200007e57600080fd5b82518660208202830111640100000000821117156200009c57600080fd5b82525081516020918201928201910280838360005b83811015620000cb578181015183820152602001620000b1565b50505050919091016040818152602084015190840151606090940151600080546001600160a01b0319163317808255929750949550938493506001600160a01b0391909116917f8be0079c531659141344cd1fd0a4f28419497f9722a3daafe3b4186f6b6457e0908290a36001600160a01b03811662000192576040805162461bcd60e51b815260206004820152601960248201527f537570706c696564206964656e74697479206973206e756c6c00000000000000604482015290519081900360640190fd5b600180546001600160a01b0319166001600160a01b03929092169190911790556005839055661ff973cafa8000600655600782905542600955835115620001e757620001e7846001600160e01b03620001f116565b50505050620003fa565b620002046001600160e01b036200033716565b6200020e57600080fd5b60005b8151811015620002c857620002408282815181106200022c57fe5b60200260200101516200034860201b60201c565b620002bf57620002748282815181106200025657fe5b602002602001015160026200036b60201b620018f81790919060201c565b60038282815181106200028357fe5b60209081029190910181015182546001810184556000938452919092200180546001600160a01b0319166001600160a01b039092169190911790555b60010162000211565b508060405180828051906020019060200280838360005b83811015620002f9578181015183820152602001620002df565b505060405194909201849003842095507f45486b220020cc2482ad1a5e0ae4d5f0b5372cea1b48173f6273c616a5047269945060009392505050a250565b6000546001600160a01b0316331490565b600062000365826002620003c460201b620018551790919060201c565b92915050565b6001600160a01b0381166200037f57600080fd5b6200039482826001600160e01b03620003c416565b156200039f57600080fd5b6001600160a01b0316600090815260209190915260409020805460ff19166001179055565b60006001600160a01b038216620003da57600080fd5b506001600160a01b03166000908152602091909152604090205460ff1690565b611a4d806200040a6000396000f3fe6080604052600436106101815760003560e01c80638da5cb5b116100d1578063e2166c641161008a578063eda4e6d611610064578063eda4e6d61461085b578063f2fde38b14610870578063f3da9f05146108a3578063f9f92be4146108b857610181565b8063e2166c64146107e0578063e6ea393914610813578063eb91e6511461082857610181565b80638da5cb5b146106905780638f32d59b146106a55780639c54df64146106ba578063bd7fbbd614610768578063c4892496146107a1578063db626838146107b657610181565b8063377e11e01161013e5780635fc944e9116101185780635fc944e914610603578063715018a61461063357806378c8cda71461064857806383197ef01461067b57610181565b8063377e11e0146104fb5780635c9302c9146105a95780635d5bf178146105d057610181565b80631ff6e09f1461018357806324d7806c146102495780632beeaca4146102905780632bf16458146103515780632c159a1a146104975780633771dcf8146104c8575b005b34801561018f57600080fd5b50610181600480360360608110156101a657600080fd5b6001600160a01b0382351691602081013591810190606081016040820135600160201b8111156101d557600080fd5b8201836020820111156101e757600080fd5b803590602001918460018302840111600160201b8311171561020857600080fd5b91908080601f0160208091040260200160405190810160405280939291908181526020018383808284376000920191909152509295506108eb945050505050565b34801561025557600080fd5b5061027c6004803603602081101561026c57600080fd5b50356001600160a01b0316610abc565b604080519115158252519081900360200190f35b34801561029c57600080fd5b50610181600480360360408110156102b357600080fd5b6001600160a01b038235169190810190604081016020820135600160201b8111156102dd57600080fd5b8201836020820111156102ef57600080fd5b803590602001918460018302840111600160201b8311171561031057600080fd5b91908080601f016020809104026020016040519081016040528093929190818152602001838380828437600092019190915250929550610ad5945050505050565b34801561035d57600080fd5b506104146004803603606081101561037457600080fd5b6001600160a01b038235169190810190604081016020820135600160201b81111561039e57600080fd5b8201836020820111156103b057600080fd5b803590602001918460018302840111600160201b831117156103d157600080fd5b91908080601f0160208091040260200160405190810160405280939291908181526020018383808284376000920191909152509295505091359250610c30915050565b604051808315151515815260200180602001828103825283818151815260200191508051906020019080838360005b8381101561045b578181015183820152602001610443565b50505050905090810190601f1680156104885780820380516001836020036101000a031916815260200191505b50935050505060405180910390f35b3480156104a357600080fd5b506104ac610e24565b604080516001600160a01b039092168252519081900360200190f35b3480156104d457600080fd5b50610181600480360360208110156104eb57600080fd5b50356001600160a01b0316610e33565b34801561050757600080fd5b506101816004803603602081101561051e57600080fd5b810190602081018135600160201b81111561053857600080fd5b82018360208201111561054a57600080fd5b803590602001918460208302840111600160201b8311171561056b57600080fd5b919080806020026020016040519081016040528093929190818152602001838360200280828437600092019190915250929550610f5b945050505050565b3480156105b557600080fd5b506105be611014565b60408051918252519081900360200190f35b3480156105dc57600080fd5b50610181600480360360208110156105f357600080fd5b50356001600160a01b031661101a565b34801561060f57600080fd5b506101816004803603604081101561062657600080fd5b5080359060200135611103565b34801561063f57600080fd5b5061018161121d565b34801561065457600080fd5b506101816004803603602081101561066b57600080fd5b50356001600160a01b0316611278565b34801561068757600080fd5b50610181611343565b34801561069c57600080fd5b506104ac611357565b3480156106b157600080fd5b5061027c611366565b3480156106c657600080fd5b50610181600480360360208110156106dd57600080fd5b810190602081018135600160201b8111156106f757600080fd5b82018360208201111561070957600080fd5b803590602001918460208302840111600160201b8311171561072a57600080fd5b919080806020026020016040519081016040528093929190818152602001838360200280828437600092019190915250929550611377945050505050565b34801561077457600080fd5b506101816004803603604081101561078b57600080fd5b506001600160a01b03813516906020013561149a565b3480156107ad57600080fd5b506105be6115a4565b3480156107c257600080fd5b50610181600480360360208110156107d957600080fd5b50356115aa565b3480156107ec57600080fd5b506101816004803603602081101561080357600080fd5b50356001600160a01b03166115b7565b34801561081f57600080fd5b506105be6115ea565b34801561083457600080fd5b506101816004803603602081101561084b57600080fd5b50356001600160a01b03166115f0565b34801561086757600080fd5b506105be61168e565b34801561087c57600080fd5b506101816004803603602081101561089357600080fd5b50356001600160a01b0316611694565b3480156108af57600080fd5b506105be6116ae565b3480156108c457600080fd5b50610181600480360360208110156108db57600080fd5b50356001600160a01b03166116b4565b6108f433610abc565b61093b576040805162461bcd60e51b815260206004820152601360248201527221b0b63632b91034b9903737ba1030b236b4b760691b604482015290519081900360640190fd5b6004546001600160a01b03166109825760405162461bcd60e51b81526004018080602001828103825260218152602001806119c86021913960400191505060405180910390fd5b60015460408051633af32abf60e01b81526001600160a01b03868116600483015291519190921691633af32abf916024808301926020929190829003018186803b1580156109cf57600080fd5b505afa1580156109e3573d6000803e3d6000fd5b505050506040513d60208110156109f957600080fd5b5051610a0957610a098382610ad5565b8115610a81576004805460408051635ebfddeb60e11b81526001600160a01b0387811694820194909452602481018690529051929091169163bd7fbbd69160448082019260009290919082900301818387803b158015610a6857600080fd5b505af1158015610a7c573d6000803e3d6000fd5b505050505b600654610a9590600263ffffffff61175216565b333111801590610aa95750610aa933610abc565b15610ab757610ab733611774565b505050565b6000610acf60028363ffffffff61185516565b92915050565b610ade33610abc565b610b25576040805162461bcd60e51b815260206004820152601360248201527221b0b63632b91034b9903737ba1030b236b4b760691b604482015290519081900360640190fd5b60015460408051631b02709960e01b81526001600160a01b0385811660048301908152602483019384528551604484015285519190941693631b0270999387938793606490910190602085019080838360005b83811015610b90578181015183820152602001610b78565b50505050905090810190601f168015610bbd5780820380516001836020036101000a031916815260200191505b509350505050600060405180830381600087803b158015610bdd57600080fd5b505af1158015610bf1573d6000803e3d6000fd5b5050600654610c0a92509050600263ffffffff61175216565b333111801590610c1e5750610c1e33610abc565b15610c2c57610c2c33611774565b5050565b60006060610c3d33610abc565b610c84576040805162461bcd60e51b815260206004820152601360248201527221b0b63632b91034b9903737ba1030b236b4b760691b604482015290519081900360640190fd5b846001600160a01b031683856040518082805190602001908083835b60208310610cbf5780518252601f199092019160209182019101610ca0565b6001836020036101000a03801982511681845116808217855250505050505090500191505060006040518083038185875af1925050503d8060008114610d21576040519150601f19603f3d011682016040523d82523d6000602084013e610d26565b606091505b508092508193505050846001600160a01b03167f534b52c783549f909f9e743120524d0b7154058e4a54cdc895c2c0b587a1c7e0858585604051808060200184815260200183151515158152602001828103825285818151815260200191508051906020019080838360005b83811015610daa578181015183820152602001610d92565b50505050905090810190601f168015610dd75780820380516001836020036101000a031916815260200191505b5094505050505060405180910390a2600654610dfa90600263ffffffff61175216565b333111801590610e0e5750610e0e33610abc565b15610e1c57610e1c33611774565b935093915050565b6001546001600160a01b031681565b610e3c33610abc565b610e83576040805162461bcd60e51b815260206004820152601360248201527221b0b63632b91034b9903737ba1030b236b4b760691b604482015290519081900360640190fd5b610e8b61188a565b6007546008546000908152600a602090815260408083206001600160a01b038616845290915290205410610ef05760405162461bcd60e51b81526004018080602001828103825260308152602001806119e96030913960400191505060405180910390fd5b600554610f0490600463ffffffff61175216565b816001600160a01b03163110610f1957610f22565b610f2281611774565b600654610f3690600263ffffffff61175216565b333111801590610f4a5750610f4a33610abc565b15610f5857610f5833611774565b50565b610f63611366565b610f6c57600080fd5b60005b8151811015610fa757610f9f828281518110610f8757fe5b602002602001015160026118b090919063ffffffff16565b600101610f6f565b508060405180828051906020019060200280838360005b83811015610fd6578181015183820152602001610fbe565b505060405194909201849003842095507fd5e6894641b5030a67e637ab2e12da64d8aec689f8bd1328de2b04d6a439c810945060009392505050a250565b60085481565b611022611366565b61102b57600080fd5b806001600160a01b031663223668446040518163ffffffff1660e01b815260040160206040518083038186803b15801561106457600080fd5b505afa158015611078573d6000803e3d6000fd5b505050506040513d602081101561108e57600080fd5b50516110e1576040805162461bcd60e51b815260206004820152601a60248201527f4964656e74697479206973206e6f742072656769737465726564000000000000604482015290519081900360640190fd5b600180546001600160a01b0319166001600160a01b0392909216919091179055565b600354821061114f576040805162461bcd60e51b815260206004820152601360248201527241646d696e206c69737420697320656d70747960681b604482015290519081900360640190fd5b815b6003548110801561116157508181105b15611208576111906003828154811061117657fe5b6000918252602090912001546001600160a01b0316610abc565b80156111d157506006546111ab90600263ffffffff61175216565b600382815481106111b857fe5b6000918252602090912001546001600160a01b03163111155b1561120057611200600382815481106111e657fe5b6000918252602090912001546001600160a01b0316611774565b600101611151565b50600654610c0a90600263ffffffff61175216565b611225611366565b61122e57600080fd5b600080546040516001600160a01b03909116907f8be0079c531659141344cd1fd0a4f28419497f9722a3daafe3b4186f6b6457e0908390a3600080546001600160a01b0319169055565b61128133610abc565b6112c8576040805162461bcd60e51b815260206004820152601360248201527221b0b63632b91034b9903737ba1030b236b4b760691b604482015290519081900360640190fd5b6001546040805163291d954960e01b81526001600160a01b0384811660048301529151919092169163291d954991602480830192600092919082900301818387803b15801561131657600080fd5b505af115801561132a573d6000803e3d6000fd5b5050600654610f3692509050600263ffffffff61175216565b61134b611366565b61135457600080fd5b33ff5b6000546001600160a01b031690565b6000546001600160a01b0316331490565b61137f611366565b61138857600080fd5b60005b815181101561142d576113b08282815181106113a357fe5b6020026020010151610abc565b611425576113db8282815181106113c357fe5b602002602001015160026118f890919063ffffffff16565b60038282815181106113e957fe5b60209081029190910181015182546001810184556000938452919092200180546001600160a01b0319166001600160a01b039092169190911790555b60010161138b565b508060405180828051906020019060200280838360005b8381101561145c578181015183820152602001611444565b505060405194909201849003842095507f45486b220020cc2482ad1a5e0ae4d5f0b5372cea1b48173f6273c616a5047269945060009392505050a250565b6114a333610abc565b6114ea576040805162461bcd60e51b815260206004820152601360248201527221b0b63632b91034b9903737ba1030b236b4b760691b604482015290519081900360640190fd5b6004546001600160a01b03166115315760405162461bcd60e51b81526004018080602001828103825260218152602001806119c86021913960400191505060405180910390fd5b8015611590576004805460408051635ebfddeb60e11b81526001600160a01b0386811694820194909452602481018590529051929091169163bd7fbbd69160448082019260009290919082900301818387803b158015610bdd57600080fd5b600654610c0a90600263ffffffff61175216565b60065481565b610f228182603201611103565b6115bf611366565b6115c857600080fd5b600480546001600160a01b0319166001600160a01b0392909216919091179055565b60055481565b6115f933610abc565b611640576040805162461bcd60e51b815260206004820152601360248201527221b0b63632b91034b9903737ba1030b236b4b760691b604482015290519081900360640190fd5b600154604080516363513b6160e11b81526001600160a01b0384811660048301529151919092169163c6a276c291602480830192600092919082900301818387803b15801561131657600080fd5b60095481565b61169c611366565b6116a557600080fd5b610f5881611944565b60075481565b6116bd33610abc565b611704576040805162461bcd60e51b815260206004820152601360248201527221b0b63632b91034b9903737ba1030b236b4b760691b604482015290519081900360640190fd5b60015460408051630c477e0b60e11b81526001600160a01b0384811660048301529151919092169163188efc1691602480830192600092919082900301818387803b15801561131657600080fd5b600080821161176057600080fd5b600082848161176b57fe5b04949350505050565b6008546000908152600a602090815260408083206001600160a01b03851684529091528120805460010190556117a982610abc565b6117b5576005546117b9565b6006545b905060006117d7826001600160a01b0385163163ffffffff6119b216565b6040519091506001600160a01b0384169082156108fc029083906000818181858888f19350505050158015611810573d6000803e3d6000fd5b506040805182815290516001600160a01b038516917ff60e56b8021f6ac77bd50d4acdbed9ad9e85107144d43090774a9ebe5ffed985919081900360200190a2505050565b60006001600160a01b03821661186a57600080fd5b506001600160a01b03166000908152602091909152604090205460ff1690565b620151806118a3600954426119b290919063ffffffff16565b816118aa57fe5b04600855565b6001600160a01b0381166118c357600080fd5b6118cd8282611855565b6118d657600080fd5b6001600160a01b0316600090815260209190915260409020805460ff19169055565b6001600160a01b03811661190b57600080fd5b6119158282611855565b1561191f57600080fd5b6001600160a01b0316600090815260209190915260409020805460ff19166001179055565b6001600160a01b03811661195757600080fd5b600080546040516001600160a01b03808516939216917f8be0079c531659141344cd1fd0a4f28419497f9722a3daafe3b4186f6b6457e091a3600080546001600160a01b0319166001600160a01b0392909216919091179055565b6000828211156119c157600080fd5b5090039056fe5369676e557020626f6e757320686173206e6f74206265656e2073657420796574557365722077616c6c657420686173206265656e20746f7070656420746f6f206d616e792074696d657320746f646179a265627a7a723158206acbf882d0e82e1c463f6d2f4f11667c2959ffa1a61d09c4f6b7f09c401e1bb764736f6c63430005100032",
  "source": "pragma solidity >0.5.4;\n\nimport \"openzeppelin-solidity/contracts/access/Roles.sol\";\nimport \"openzeppelin-solidity/contracts/math/SafeMath.sol\";\n\nimport \"../identity/IdentityGuard.sol\";\nimport \"../dao/schemes/SignUpBonus.sol\";\n\n/* @title Admin wallet contract allowing whitelisting and topping up of\n * addresses\n */\ncontract AdminWallet is IdentityGuard {\n    using Roles for Roles.Role;\n    using SafeMath for uint256;\n\n    Roles.Role private admins;\n\n    address payable[] adminlist;\n\n    SignUpBonus bonus = SignUpBonus(0);\n\n    uint256 public toppingAmount;\n    uint256 public adminToppingAmount;\n\n    uint256 public toppingTimes;\n    uint256 public currentDay;\n    uint256 public periodStart;\n\n    mapping(uint256 => mapping(address => uint256)) toppings;\n\n    event AdminsAdded(address payable[] indexed admins);\n    event AdminsRemoved(address[] indexed admins);\n    event WalletTopped(address indexed user, uint256 amount);\n    event GenericCall(\n        address indexed _contract,\n        bytes _data,\n        uint256 _value,\n        bool _success\n    );\n\n    constructor(\n        address payable[] memory _admins,\n        uint256 _toppingAmount,\n        uint256 _toppingTimes,\n        Identity _identity\n    ) public IdentityGuard(_identity) {\n        toppingAmount = _toppingAmount;\n        adminToppingAmount = 1e9 * 9e6; //1gwei gas price * 9000000 gas limit\n        toppingTimes = _toppingTimes;\n        periodStart = now;\n\n        if (_admins.length > 0) {\n            addAdmins(_admins);\n        }\n    }\n\n    /* @dev Modifier that checks if caller is admin of wallet\n     */\n    modifier onlyAdmin() {\n        require(isAdmin(msg.sender), \"Caller is not admin\");\n        _;\n    }\n\n    modifier reimburseGas() {\n        _;\n        if (msg.sender.balance <= adminToppingAmount.div(2) && isAdmin(msg.sender)) {\n            _topWallet(msg.sender);\n        }\n    }\n\n    function() external payable {}\n\n    /* @dev Internal function that sets current day\n     */\n    function setDay() internal {\n        currentDay = (now.sub(periodStart)) / 1 days;\n    }\n\n    function setBonusContract(SignUpBonus _bonus) public onlyOwner {\n        bonus = _bonus;\n    }\n\n    /* @dev Function to add list of addresses to admins\n     * can only be called by creator of contract\n     * @param _admins the list of addresses to add\n     */\n    function addAdmins(address payable[] memory _admins) public onlyOwner {\n        for (uint256 i = 0; i < _admins.length; i++) {\n            if (isAdmin(_admins[i]) == false) {\n                admins.add(_admins[i]);\n                adminlist.push(_admins[i]);\n            }\n        }\n        emit AdminsAdded(_admins);\n    }\n\n    /* @dev Function to remove list of addresses to admins\n     * can only be called by creator of contract\n     * @param _admins the list of addresses to remove\n     */\n    function removeAdmins(address[] memory _admins) public onlyOwner {\n        for (uint256 i = 0; i < _admins.length; i++) {\n            admins.remove(_admins[i]);\n        }\n        emit AdminsRemoved(_admins);\n    }\n\n    /**\n     * @dev top admins\n     */\n    function topAdmins(uint256 startIndex, uint256 endIndex) public reimburseGas {\n        require(adminlist.length > startIndex, \"Admin list is empty\");\n        for (uint256 i = startIndex; (i < adminlist.length && i < endIndex); i++) {\n            if (\n                isAdmin(adminlist[i]) && adminlist[i].balance <= adminToppingAmount.div(2)\n            ) {\n                _topWallet(adminlist[i]);\n            }\n        }\n    }\n\n    /* @dev top the first 50 admins\n     */\n    function topAdmins(uint256 startIndex) public reimburseGas {\n        topAdmins(startIndex, startIndex + 50);\n    }\n\n    /**\n     * @dev Function to check if given address is an admin\n     * @param _user the address to check\n     * @return A bool indicating if user is an admin\n     */\n    function isAdmin(address _user) public view returns (bool) {\n        return admins.has(_user);\n    }\n\n    /* @dev Function to add given address to whitelist of identity contract\n     * can only be done by admins of wallet and if wallet is an IdentityAdmin\n     */\n    function whitelist(address _user, string memory _did) public onlyAdmin reimburseGas {\n        identity.addWhitelistedWithDID(_user, _did);\n    }\n\n    /* @dev Function to remove given address from whitelist of identity contract\n     * can only be done by admins of wallet and if wallet is an IdentityAdmin\n     */\n    function removeWhitelist(address _user) public onlyAdmin reimburseGas {\n        identity.removeWhitelisted(_user);\n    }\n\n    /* @dev Function to add given address to blacklist of identity contract\n     * can only be done by admins of wallet and if wallet is an IdentityAdmin\n     */\n    function blacklist(address _user) public onlyAdmin reimburseGas {\n        identity.addBlacklisted(_user);\n    }\n\n    /* @dev Function to remove given address from blacklist of identity contract\n     * can only be done by admins of wallet and if wallet is an IdentityAdmin\n     */\n    function removeBlacklist(address _user) public onlyAdmin reimburseGas {\n        identity.removeBlacklisted(_user);\n    }\n\n    /* @dev Function to top given address with amount of G$ given in constructor\n     * can only be done by admin the amount of times specified in constructor per day\n     * @param _user The address to transfer to\n     */\n    function topWallet(address payable _user) public onlyAdmin reimburseGas {\n        setDay();\n        require(\n            toppings[currentDay][_user] < toppingTimes,\n            \"User wallet has been topped too many times today\"\n        );\n        if (address(_user).balance >= toppingAmount.div(4)) return;\n\n        _topWallet(_user);\n    }\n\n    function _topWallet(address payable _wallet) internal {\n        toppings[currentDay][_wallet] += 1;\n        uint256 amount = isAdmin(_wallet) ? adminToppingAmount : toppingAmount;\n        uint256 toTop = amount.sub(address(_wallet).balance);\n        _wallet.transfer(toTop);\n        emit WalletTopped(_wallet, toTop);\n    }\n\n    /* @dev Function to whitelist user and also award him pending bonuses, it can be used also later\n     * when user is already whitelisted to just award pending bonuses\n     * can only be done by admin\n     * @param _user The address to transfer to and whitelist\n     * @param _amount the bonus amount to give\n     * @param _did decentralized id of user, pointer to some profile\n     */\n    function whitelistAndAwardUser(\n        address _user,\n        uint256 _amount,\n        string memory _did\n    ) public onlyAdmin reimburseGas {\n        require(bonus != SignUpBonus(0), \"SignUp bonus has not been set yet\");\n\n        if (identity.isWhitelisted(_user) == false) {\n            whitelist(_user, _did);\n        }\n\n        if (_amount > 0) {\n            bonus.awardUser(_user, _amount);\n        }\n    }\n\n    /**\n     * @dev Function to award user with pending bonuses,\n     * can only be done by admin\n     * @param _user The address to transfer to and whitelist\n     * @param _amount the bonus amount to give\n     */\n    function awardUser(address _user, uint256 _amount) public onlyAdmin reimburseGas {\n        require(bonus != SignUpBonus(0), \"SignUp bonus has not been set yet\");\n        if (_amount > 0) {\n            bonus.awardUser(_user, _amount);\n        }\n    }\n\n    /**\n     * @dev perform a generic call to an arbitrary contract\n     * @param _contract  the contract's address to call\n     * @param _data ABI-encoded contract call to call `_contract` address.\n     * @param _value value (ETH) to transfer with the transaction\n     * @return bool    success or fail\n     *         bytes - the return bytes of the called contract's function.\n     */\n    function genericCall(\n        address _contract,\n        bytes memory _data,\n        uint256 _value\n    ) public onlyAdmin reimburseGas returns (bool success, bytes memory returnValue) {\n        // solhint-disable-next-line avoid-call-value\n        (success, returnValue) = _contract.call.value(_value)(_data);\n        emit GenericCall(_contract, _data, _value, success);\n    }\n\n    /**\n     * @dev destroy wallet and return funds to owner\n     */\n    function destroy() public onlyOwner {\n        selfdestruct(msg.sender);\n    }\n}\n",
  "sourcePath": "/Users/hadar/workspace/GoodDollar/GoodBootstrap/packages/contracts/contracts/wallet/AdminWallet.sol",
  "compiler": {
    "name": "solc",
    "version": "0.5.16+commit.9c3226ce.Emscripten.clang"
  },
  "schemaVersion": "3.2.3",
  "updatedAt": "2022-10-27T11:34:11.275Z",
  "devdoc": {
    "methods": {
      "awardUser(address,uint256)": {
        "details": "Function to award user with pending bonuses, can only be done by admin",
        "params": {
          "_amount": "the bonus amount to give",
          "_user": "The address to transfer to and whitelist"
        }
      },
      "destroy()": {
        "details": "destroy wallet and return funds to owner"
      },
      "genericCall(address,bytes,uint256)": {
        "details": "perform a generic call to an arbitrary contract",
        "params": {
          "_contract": "the contract's address to call",
          "_data": "ABI-encoded contract call to call `_contract` address.",
          "_value": "value (ETH) to transfer with the transaction"
        },
        "return": "bool    success or fail        bytes - the return bytes of the called contract's function."
      },
      "isAdmin(address)": {
        "details": "Function to check if given address is an admin",
        "params": {
          "_user": "the address to check"
        },
        "return": "A bool indicating if user is an admin"
      },
      "isOwner()": {
        "return": "true if `msg.sender` is the owner of the contract."
      },
      "owner()": {
        "return": "the address of the owner."
      },
      "renounceOwnership()": {
        "details": "Allows the current owner to relinquish control of the contract."
      },
      "topAdmins(uint256,uint256)": {
        "details": "top admins"
      },
      "transferOwnership(address)": {
        "details": "Allows the current owner to transfer control of the contract to a newOwner.",
        "params": {
          "newOwner": "The address to transfer ownership to."
        }
      }
    }
  },
  "userdoc": {
    "methods": {
      "renounceOwnership()": {
        "notice": "Renouncing to ownership will leave the contract without an owner. It will not be possible to call the functions with the `onlyOwner` modifier anymore."
      }
    }
  }
}