{
  "contractName": "AdminWallet",
  "abi": [
    {
      "constant": false,
      "inputs": [],
      "name": "renounceOwnership",
      "outputs": [],
      "payable": false,
      "stateMutability": "nonpayable",
      "type": "function"
    },
    {
      "constant": true,
      "inputs": [],
      "name": "owner",
      "outputs": [
        {
          "name": "",
          "type": "address"
        }
      ],
      "payable": false,
      "stateMutability": "view",
      "type": "function"
    },
    {
      "constant": true,
      "inputs": [],
      "name": "isOwner",
      "outputs": [
        {
          "name": "",
          "type": "bool"
        }
      ],
      "payable": false,
      "stateMutability": "view",
      "type": "function"
    },
    {
      "constant": true,
      "inputs": [],
      "name": "lastCalc",
      "outputs": [
        {
          "name": "",
          "type": "uint256"
        }
      ],
      "payable": false,
      "stateMutability": "view",
      "type": "function"
    },
    {
      "constant": true,
      "inputs": [],
      "name": "toppingAmount",
      "outputs": [
        {
          "name": "",
          "type": "uint256"
        }
      ],
      "payable": false,
      "stateMutability": "view",
      "type": "function"
    },
    {
      "constant": false,
      "inputs": [
        {
          "name": "newOwner",
          "type": "address"
        }
      ],
      "name": "transferOwnership",
      "outputs": [],
      "payable": false,
      "stateMutability": "nonpayable",
      "type": "function"
    },
    {
      "constant": true,
      "inputs": [],
      "name": "toppingTimes",
      "outputs": [
        {
          "name": "",
          "type": "uint256"
        }
      ],
      "payable": false,
      "stateMutability": "view",
      "type": "function"
    },
    {
      "inputs": [
        {
          "name": "_admins",
          "type": "address[]"
        },
        {
          "name": "_toppingAmount",
          "type": "uint256"
        },
        {
          "name": "_toppingTimes",
          "type": "uint256"
        },
        {
          "name": "_identity",
          "type": "address"
        }
      ],
      "payable": false,
      "stateMutability": "nonpayable",
      "type": "constructor"
    },
    {
      "payable": true,
      "stateMutability": "payable",
      "type": "fallback"
    },
    {
      "anonymous": false,
      "inputs": [
        {
          "indexed": true,
          "name": "admins",
          "type": "address[]"
        }
      ],
      "name": "AdminsAdded",
      "type": "event"
    },
    {
      "anonymous": false,
      "inputs": [
        {
          "indexed": true,
          "name": "admins",
          "type": "address[]"
        }
      ],
      "name": "AdminsRemoved",
      "type": "event"
    },
    {
      "anonymous": false,
      "inputs": [
        {
          "indexed": true,
          "name": "user",
          "type": "address"
        }
      ],
      "name": "WalletTopped",
      "type": "event"
    },
    {
      "anonymous": false,
      "inputs": [
        {
          "indexed": true,
          "name": "previousOwner",
          "type": "address"
        },
        {
          "indexed": true,
          "name": "newOwner",
          "type": "address"
        }
      ],
      "name": "OwnershipTransferred",
      "type": "event"
    },
    {
      "constant": false,
      "inputs": [
        {
          "name": "_bonus",
          "type": "address"
        }
      ],
      "name": "setBonusContract",
      "outputs": [],
      "payable": false,
      "stateMutability": "nonpayable",
      "type": "function"
    },
    {
      "constant": false,
      "inputs": [
        {
          "name": "_admins",
          "type": "address[]"
        }
      ],
      "name": "addAdmins",
      "outputs": [],
      "payable": false,
      "stateMutability": "nonpayable",
      "type": "function"
    },
    {
      "constant": false,
      "inputs": [
        {
          "name": "_admins",
          "type": "address[]"
        }
      ],
      "name": "removeAdmins",
      "outputs": [],
      "payable": false,
      "stateMutability": "nonpayable",
      "type": "function"
    },
    {
      "constant": true,
      "inputs": [
        {
          "name": "_user",
          "type": "address"
        }
      ],
      "name": "isAdmin",
      "outputs": [
        {
          "name": "",
          "type": "bool"
        }
      ],
      "payable": false,
      "stateMutability": "view",
      "type": "function"
    },
    {
      "constant": false,
      "inputs": [
        {
          "name": "_user",
          "type": "address"
        }
      ],
      "name": "whitelist",
      "outputs": [],
      "payable": false,
      "stateMutability": "nonpayable",
      "type": "function"
    },
    {
      "constant": false,
      "inputs": [
        {
          "name": "_user",
          "type": "address"
        }
      ],
      "name": "removeWhitelist",
      "outputs": [],
      "payable": false,
      "stateMutability": "nonpayable",
      "type": "function"
    },
    {
      "constant": false,
      "inputs": [
        {
          "name": "_user",
          "type": "address"
        }
      ],
      "name": "blacklist",
      "outputs": [],
      "payable": false,
      "stateMutability": "nonpayable",
      "type": "function"
    },
    {
      "constant": false,
      "inputs": [
        {
          "name": "_user",
          "type": "address"
        }
      ],
      "name": "removeBlacklist",
      "outputs": [],
      "payable": false,
      "stateMutability": "nonpayable",
      "type": "function"
    },
    {
      "constant": false,
      "inputs": [
        {
          "name": "_user",
          "type": "address"
        }
      ],
      "name": "topWallet",
      "outputs": [],
      "payable": false,
      "stateMutability": "nonpayable",
      "type": "function"
    },
    {
      "constant": false,
      "inputs": [
        {
          "name": "_user",
          "type": "address"
        },
        {
          "name": "_amount",
          "type": "uint256"
        }
      ],
      "name": "whitelistAndAwardUser",
      "outputs": [],
      "payable": false,
      "stateMutability": "nonpayable",
      "type": "function"
    }
  ],
  "bytecode": "0x608060405260038054600160a060020a03191690553480156200002157600080fd5b506040516200145738038062001457833981018060405260808110156200004757600080fd5b8101908080516401000000008111156200006057600080fd5b820160208101848111156200007457600080fd5b81518560208202830111640100000000821117156200009257600080fd5b5050602082015160408084015160609094015160008054600160a060020a0319163317808255925194975092955092600160a060020a039190911691907f8be0079c531659141344cd1fd0a4f28419497f9722a3daafe3b4186f6b6457e0908290a360028054600160a060020a031916600160a060020a038316179055600483905560058290556200012d8464010000000062000137810204565b50505050620002b3565b6200014a6401000000006200020f810204565b15156200015657600080fd5b60005b8151811015620001a0576200019782828151811015156200017657fe5b602090810290910101516001906401000000006200102c6200022082021704565b60010162000159565b508060405180828051906020019060200280838360005b83811015620001d1578181015183820152602001620001b7565b505060405194909201849003842095507f45486b220020cc2482ad1a5e0ae4d5f0b5372cea1b48173f6273c616a5047269945060009392505050a250565b600054600160a060020a0316331490565b600160a060020a03811615156200023657600080fd5b6200024b82826401000000006200027b810204565b156200025657600080fd5b600160a060020a0316600090815260209190915260409020805460ff19166001179055565b6000600160a060020a03821615156200029357600080fd5b50600160a060020a03166000908152602091909152604090205460ff1690565b61119480620002c36000396000f3fe60806040526004361061011b576000357c0100000000000000000000000000000000000000000000000000000000900480639b19251a116100b2578063e6ea393911610081578063e6ea39391461044b578063eb91e65114610460578063f2fde38b14610493578063f3da9f05146104c6578063f9f92be4146104db5761011b565b80639b19251a1461030e5780639c54df6414610341578063e2166c64146103f1578063e6a847a6146104245761011b565b8063715018a6116100ee578063715018a61461028057806378c8cda7146102955780638da5cb5b146102c85780638f32d59b146102f95761011b565b806324d7806c1461011d5780633771dcf814610164578063377e11e014610197578063531fa75714610247575b005b34801561012957600080fd5b506101506004803603602081101561014057600080fd5b5035600160a060020a031661050e565b604080519115158252519081900360200190f35b34801561017057600080fd5b5061011b6004803603602081101561018757600080fd5b5035600160a060020a0316610527565b3480156101a357600080fd5b5061011b600480360360208110156101ba57600080fd5b8101906020810181356401000000008111156101d557600080fd5b8201836020820111156101e757600080fd5b8035906020019184602083028401116401000000008311171561020957600080fd5b91908080602002602001604051908101604052809392919081815260200183836020028082843760009201919091525092955061077d945050505050565b34801561025357600080fd5b5061011b6004803603604081101561026a57600080fd5b50600160a060020a03813516906020013561083a565b34801561028c57600080fd5b5061011b610a87565b3480156102a157600080fd5b5061011b600480360360208110156102b857600080fd5b5035600160a060020a0316610af1565b3480156102d457600080fd5b506102dd610bd1565b60408051600160a060020a039092168252519081900360200190f35b34801561030557600080fd5b50610150610be0565b34801561031a57600080fd5b5061011b6004803603602081101561033157600080fd5b5035600160a060020a0316610bf1565b34801561034d57600080fd5b5061011b6004803603602081101561036457600080fd5b81019060208101813564010000000081111561037f57600080fd5b82018360208201111561039157600080fd5b803590602001918460208302840111640100000000831117156103b357600080fd5b919080806020026020016040519081016040528093929190818152602001838360200280828437600092019190915250929550610ca5945050505050565b3480156103fd57600080fd5b5061011b6004803603602081101561041457600080fd5b5035600160a060020a0316610d62565b34801561043057600080fd5b50610439610da4565b60408051918252519081900360200190f35b34801561045757600080fd5b50610439610daa565b34801561046c57600080fd5b5061011b6004803603602081101561048357600080fd5b5035600160a060020a0316610db0565b34801561049f57600080fd5b5061011b600480360360208110156104b657600080fd5b5035600160a060020a0316610e64565b3480156104d257600080fd5b50610439610e80565b3480156104e757600080fd5b5061011b600480360360208110156104fe57600080fd5b5035600160a060020a0316610e86565b600061052160018363ffffffff610f3a16565b92915050565b6105303361050e565b1515610574576040805160e560020a62461bcd0281526020600482015260136024820152600080516020611119833981519152604482015290519081900360640190fd5b61057c610f71565b6005546006546000908152600760209081526040808320600160a060020a0386168452909152902054106105e45760405160e560020a62461bcd0281526004018080602001828103825260308152602001806111396030913960400191505060405180910390fd5b600480546105f79163ffffffff610fa716565b600160a060020a038216311115610658576040805160e560020a62461bcd02815260206004820152601560248201527f557365722062616c616e636520746f6f20686967680000000000000000000000604482015290519081900360640190fd5b6006546000908152600760209081526040808320600160a060020a0385168085529252909120805460010190556004546108fc9061069d90833163ffffffff610fcb16565b6040518115909202916000818181858888f193505050501580156106c5573d6000803e3d6000fd5b50604051600160a060020a038216907fc295f3ccd59be9e331d4c04df80a02aadddfe452c9e2d085556b125598e6785790600090a26004805461070d9163ffffffff610fa716565b33311161077a576006546000908152600760209081526040808320338085529252909120805460010190556004546108fc9061075090833163ffffffff610fcb16565b6040518115909202916000818181858888f19350505050158015610778573d6000803e3d6000fd5b505b50565b610785610be0565b151561079057600080fd5b60005b81518110156107cd576107c582828151811015156107ad57fe5b6020908102909101015160019063ffffffff610fe016565b600101610793565b508060405180828051906020019060200280838360005b838110156107fc5781810151838201526020016107e4565b505060405194909201849003842095507fd5e6894641b5030a67e637ab2e12da64d8aec689f8bd1328de2b04d6a439c810945060009392505050a250565b6108433361050e565b1515610887576040805160e560020a62461bcd0281526020600482015260136024820152600080516020611119833981519152604482015290519081900360640190fd5b600354600160a060020a031615156108d35760405160e560020a62461bcd0281526004018080602001828103825260218152602001806110f86021913960400191505060405180910390fd5b600254604080517f3af32abf000000000000000000000000000000000000000000000000000000008152600160a060020a03858116600483015291519190921691633af32abf916024808301926020929190829003018186803b15801561093957600080fd5b505afa15801561094d573d6000803e3d6000fd5b505050506040513d602081101561096357600080fd5b505115156109745761097482610bf1565b6000811115610a0457600354604080517fbd7fbbd6000000000000000000000000000000000000000000000000000000008152600160a060020a038581166004830152602482018590529151919092169163bd7fbbd691604480830192600092919082900301818387803b1580156109eb57600080fd5b505af11580156109ff573d6000803e3d6000fd5b505050505b60048054610a179163ffffffff610fa716565b333111610778576006546000908152600760209081526040808320338085529252909120805460010190556004546108fc90610a5a90833163ffffffff610fcb16565b6040518115909202916000818181858888f19350505050158015610a82573d6000803e3d6000fd5b505050565b610a8f610be0565b1515610a9a57600080fd5b60008054604051600160a060020a03909116907f8be0079c531659141344cd1fd0a4f28419497f9722a3daafe3b4186f6b6457e0908390a36000805473ffffffffffffffffffffffffffffffffffffffff19169055565b610afa3361050e565b1515610b3e576040805160e560020a62461bcd0281526020600482015260136024820152600080516020611119833981519152604482015290519081900360640190fd5b600254604080517f291d9549000000000000000000000000000000000000000000000000000000008152600160a060020a0384811660048301529151919092169163291d954991602480830192600092919082900301818387803b158015610ba557600080fd5b505af1158015610bb9573d6000803e3d6000fd5b50506004805461070d9350915063ffffffff610fa716565b600054600160a060020a031690565b600054600160a060020a0316331490565b610bfa3361050e565b1515610c3e576040805160e560020a62461bcd0281526020600482015260136024820152600080516020611119833981519152604482015290519081900360640190fd5b600254604080517f10154bad000000000000000000000000000000000000000000000000000000008152600160a060020a038481166004830152915191909216916310154bad91602480830192600092919082900301818387803b158015610ba557600080fd5b610cad610be0565b1515610cb857600080fd5b60005b8151811015610cf557610ced8282815181101515610cd557fe5b6020908102909101015160019063ffffffff61102c16565b600101610cbb565b508060405180828051906020019060200280838360005b83811015610d24578181015183820152602001610d0c565b505060405194909201849003842095507f45486b220020cc2482ad1a5e0ae4d5f0b5372cea1b48173f6273c616a5047269945060009392505050a250565b610d6a610be0565b1515610d7557600080fd5b6003805473ffffffffffffffffffffffffffffffffffffffff1916600160a060020a0392909216919091179055565b60065481565b60045481565b610db93361050e565b1515610dfd576040805160e560020a62461bcd0281526020600482015260136024820152600080516020611119833981519152604482015290519081900360640190fd5b600254604080517fc6a276c2000000000000000000000000000000000000000000000000000000008152600160a060020a0384811660048301529151919092169163c6a276c291602480830192600092919082900301818387803b158015610ba557600080fd5b610e6c610be0565b1515610e7757600080fd5b61077a8161107a565b60055481565b610e8f3361050e565b1515610ed3576040805160e560020a62461bcd0281526020600482015260136024820152600080516020611119833981519152604482015290519081900360640190fd5b600254604080517f188efc16000000000000000000000000000000000000000000000000000000008152600160a060020a0384811660048301529151919092169163188efc1691602480830192600092919082900301818387803b158015610ba557600080fd5b6000600160a060020a0382161515610f5157600080fd5b50600160a060020a03166000908152602091909152604090205460ff1690565b600062015180610f8c60065442610fcb90919063ffffffff16565b811515610f9557fe5b0490506001811061077a574260065550565b6000808211610fb557600080fd5b60008284811515610fc257fe5b04949350505050565b600082821115610fda57600080fd5b50900390565b600160a060020a0381161515610ff557600080fd5b610fff8282610f3a565b151561100a57600080fd5b600160a060020a0316600090815260209190915260409020805460ff19169055565b600160a060020a038116151561104157600080fd5b61104b8282610f3a565b1561105557600080fd5b600160a060020a0316600090815260209190915260409020805460ff19166001179055565b600160a060020a038116151561108f57600080fd5b60008054604051600160a060020a03808516939216917f8be0079c531659141344cd1fd0a4f28419497f9722a3daafe3b4186f6b6457e091a36000805473ffffffffffffffffffffffffffffffffffffffff1916600160a060020a039290921691909117905556fe5369676e557020626f6e757320686173206e6f74206265656e207365742079657443616c6c6572206973206e6f742061646d696e00000000000000000000000000557365722077616c6c657420686173206265656e20746f7070656420746f6f206d616e792074696d657320746f646179a165627a7a7230582092fa3e7ef5e57606e57163c58fde098f9821f8845874c7d0cecc5950d5570b8c0029",
  "source": "\npragma solidity ^0.5.4;\n\nimport \"openzeppelin-solidity/contracts/access/Roles.sol\";\nimport \"openzeppelin-solidity/contracts/ownership/Ownable.sol\";\nimport \"openzeppelin-solidity/contracts/math/SafeMath.sol\";\n\nimport \"../identity/Identity.sol\";\nimport \"../dao/schemes/SignUpBonus.sol\";\n\n/* @title Admin wallet contract allowing whitelisting and topping up of\n * addresses\n */\ncontract AdminWallet is Ownable {\n    using Roles for Roles.Role;\n    using SafeMath for uint256;\n\n    Roles.Role private admins;\n\n    Identity identity;\n\n    SignUpBonus bonus = SignUpBonus(0);\n\n    uint256 public toppingAmount;\n    \n    uint public toppingTimes;\n    uint public lastCalc;\n\n    mapping(uint => mapping(address => uint)) toppings;\n\n    event AdminsAdded(address[] indexed admins);\n    event AdminsRemoved(address[] indexed admins);\n    event WalletTopped(address indexed user);\n\n    constructor (\n        address[] memory _admins,\n        uint256 _toppingAmount,\n        uint _toppingTimes,\n        Identity _identity\n    )\n        public \n    {\n        identity = _identity;\n\n        toppingAmount = _toppingAmount;\n        toppingTimes = _toppingTimes;\n\n        addAdmins(_admins);\n    }   \n\n    /* @dev Modifier that checks if caller is admin of wallet\n     */\n    modifier onlyAdmin() {\n        require(isAdmin(msg.sender), \"Caller is not admin\");\n        _;\n    }\n\n    modifier reimburseGas() {\n        _;\n        if (msg.sender.balance <= toppingAmount.div(4)) { \n            toppings[lastCalc][msg.sender] += 1;\n            msg.sender.transfer(toppingAmount.sub(msg.sender.balance));\n        }\n    }\n\n    function () external payable {}\n\n    /* @dev Internal function that sets current day\n     */\n    function setDay() internal {\n        uint dayDiff = now.sub(lastCalc) / 1 days;\n        \n        if (dayDiff >= 1) {\n            lastCalc = now;\n        }\n    }\n\n    function setBonusContract(SignUpBonus _bonus) public onlyOwner {\n        bonus = _bonus;\n    }\n\n    /* @dev Function to add list of addresses to admins\n     * can only be called by creator of contract\n     * @param _admins the list of addresses to add\n     */\n    function addAdmins(address[] memory _admins) public onlyOwner {\n        for (uint i = 0; i < _admins.length; i++) {\n            admins.add(_admins[i]);\n        }\n        emit AdminsAdded(_admins);\n    }\n\n    /* @dev Function to remove list of addresses to admins\n     * can only be called byu creator of contract\n     * @param _admins the list of addresses to remove\n     */\n    function removeAdmins(address[] memory _admins) public onlyOwner {\n        for (uint i = 0; i < _admins.length; i++) {\n            admins.remove(_admins[i]);\n        }\n        emit AdminsRemoved(_admins);\n    }\n\n    /* @dev Function to check if given address is an admin\n     * @param _user the address to check\n     * @returns A bool indicating if user is an admin \n     */\n    function isAdmin(address _user) public view returns(bool) {\n        return admins.has(_user);\n    }\n\n    /* @dev Function to add given address to whitelist of identity contract\n     * can only be done by admins of wallet and if wallet is an IdentityAdmin\n     */\n    function whitelist(address _user) public onlyAdmin reimburseGas {\n        identity.addWhitelisted(_user);\n    }\n\n    /* @dev Function to remove given address from whitelist of identity contract\n     * can only be done by admins of wallet and if wallet is an IdentityAdmin\n     */\n    function removeWhitelist(address _user) public onlyAdmin reimburseGas {\n        identity.removeWhitelisted(_user);\n    }\n\n    /* @dev Function to add given address to blacklist of identity contract\n     * can only be done by admins of wallet and if wallet is an IdentityAdmin\n     */\n    function blacklist(address _user) public onlyAdmin reimburseGas {\n        identity.addBlacklisted(_user);\n    }\n\n    /* @dev Function to remove given address from blacklist of identity contract\n     * can only be done by admins of wallet and if wallet is an IdentityAdmin\n     */\n    function removeBlacklist(address _user) public onlyAdmin reimburseGas {\n        identity.removeBlacklisted(_user);\n    }\n\n    /* @dev Function to top given address with amount of G$ given in constructor\n     * can only be done by admin the amount of times specified in constructor per day\n     * @param _user The address to transfer to \n     */\n    function topWallet(address payable _user) public onlyAdmin reimburseGas {\n        setDay();\n        require(toppings[lastCalc][_user] < toppingTimes, \"User wallet has been topped too many times today\");\n        require(address(_user).balance <= toppingAmount.div(4), \"User balance too high\");\n        toppings[lastCalc][_user] += 1;\n\n        _user.transfer(toppingAmount.sub(address(_user).balance));\n        emit WalletTopped(_user);\n    }\n\n    /* @dev Function to whitelist user and also award him pending bonuses, it can be used also later\n     * when user is already whitelisted to just award pending bonuses\n     * can only be done by admin\n     * @param _user The address to transfer to and whitelist\n     * @param _amount the bonus amount to give \n     */\n    function whitelistAndAwardUser(address _user, uint256 _amount) public onlyAdmin reimburseGas {\n        require(bonus != SignUpBonus(0), \"SignUp bonus has not been set yet\");\n\n        if(identity.isWhitelisted(_user) == false) {\n            whitelist(_user);\n        }\n        \n        if(_amount > 0) {\n            bonus.awardUser(_user, _amount);\n        }\n    }\n}\n",
  "sourcePath": "/Users/hadar/workspace/GoodDollar/GoodBootstrap/packages/contracts/contracts/wallet/AdminWallet.sol",
  "compiler": {
    "name": "solc",
    "version": "0.5.4+commit.9549d8ff.Emscripten.clang"
  },
  "schemaVersion": "3.0.16",
  "updatedAt": "2019-10-29T10:43:25.570Z",
  "devdoc": {
    "methods": {
      "isOwner()": {
        "return": "true if `msg.sender` is the owner of the contract."
      },
      "owner()": {
        "return": "the address of the owner."
      },
      "renounceOwnership()": {
        "details": "Allows the current owner to relinquish control of the contract."
      },
      "transferOwnership(address)": {
        "details": "Allows the current owner to transfer control of the contract to a newOwner.",
        "params": {
          "newOwner": "The address to transfer ownership to."
        }
      }
    }
  },
  "userdoc": {
    "methods": {
      "renounceOwnership()": {
        "notice": "Renouncing to ownership will leave the contract without an owner. It will not be possible to call the functions with the `onlyOwner` modifier anymore."
      }
    }
  }
}