{
  "contractName": "AdminWallet",
  "abi": [
    {
      "constant": true,
      "inputs": [],
      "name": "currentDay",
      "outputs": [
        {
          "name": "",
          "type": "uint256"
        }
      ],
      "payable": false,
      "stateMutability": "view",
      "type": "function"
    },
    {
      "constant": false,
      "inputs": [],
      "name": "renounceOwnership",
      "outputs": [],
      "payable": false,
      "stateMutability": "nonpayable",
      "type": "function"
    },
    {
      "constant": true,
      "inputs": [],
      "name": "owner",
      "outputs": [
        {
          "name": "",
          "type": "address"
        }
      ],
      "payable": false,
      "stateMutability": "view",
      "type": "function"
    },
    {
      "constant": true,
      "inputs": [],
      "name": "isOwner",
      "outputs": [
        {
          "name": "",
          "type": "bool"
        }
      ],
      "payable": false,
      "stateMutability": "view",
      "type": "function"
    },
    {
      "constant": true,
      "inputs": [],
      "name": "toppingAmount",
      "outputs": [
        {
          "name": "",
          "type": "uint256"
        }
      ],
      "payable": false,
      "stateMutability": "view",
      "type": "function"
    },
    {
      "constant": true,
      "inputs": [],
      "name": "periodStart",
      "outputs": [
        {
          "name": "",
          "type": "uint256"
        }
      ],
      "payable": false,
      "stateMutability": "view",
      "type": "function"
    },
    {
      "constant": false,
      "inputs": [
        {
          "name": "newOwner",
          "type": "address"
        }
      ],
      "name": "transferOwnership",
      "outputs": [],
      "payable": false,
      "stateMutability": "nonpayable",
      "type": "function"
    },
    {
      "constant": true,
      "inputs": [],
      "name": "toppingTimes",
      "outputs": [
        {
          "name": "",
          "type": "uint256"
        }
      ],
      "payable": false,
      "stateMutability": "view",
      "type": "function"
    },
    {
      "inputs": [
        {
          "name": "_admins",
          "type": "address[]"
        },
        {
          "name": "_toppingAmount",
          "type": "uint256"
        },
        {
          "name": "_toppingTimes",
          "type": "uint256"
        },
        {
          "name": "_identity",
          "type": "address"
        }
      ],
      "payable": false,
      "stateMutability": "nonpayable",
      "type": "constructor"
    },
    {
      "payable": true,
      "stateMutability": "payable",
      "type": "fallback"
    },
    {
      "anonymous": false,
      "inputs": [
        {
          "indexed": true,
          "name": "admins",
          "type": "address[]"
        }
      ],
      "name": "AdminsAdded",
      "type": "event"
    },
    {
      "anonymous": false,
      "inputs": [
        {
          "indexed": true,
          "name": "admins",
          "type": "address[]"
        }
      ],
      "name": "AdminsRemoved",
      "type": "event"
    },
    {
      "anonymous": false,
      "inputs": [
        {
          "indexed": true,
          "name": "user",
          "type": "address"
        },
        {
          "indexed": false,
          "name": "amount",
          "type": "uint256"
        }
      ],
      "name": "WalletTopped",
      "type": "event"
    },
    {
      "anonymous": false,
      "inputs": [
        {
          "indexed": true,
          "name": "_contract",
          "type": "address"
        },
        {
          "indexed": false,
          "name": "_data",
          "type": "bytes"
        },
        {
          "indexed": false,
          "name": "_value",
          "type": "uint256"
        },
        {
          "indexed": false,
          "name": "_success",
          "type": "bool"
        }
      ],
      "name": "GenericCall",
      "type": "event"
    },
    {
      "anonymous": false,
      "inputs": [
        {
          "indexed": true,
          "name": "previousOwner",
          "type": "address"
        },
        {
          "indexed": true,
          "name": "newOwner",
          "type": "address"
        }
      ],
      "name": "OwnershipTransferred",
      "type": "event"
    },
    {
      "constant": false,
      "inputs": [
        {
          "name": "_bonus",
          "type": "address"
        }
      ],
      "name": "setBonusContract",
      "outputs": [],
      "payable": false,
      "stateMutability": "nonpayable",
      "type": "function"
    },
    {
      "constant": false,
      "inputs": [
        {
          "name": "_admins",
          "type": "address[]"
        }
      ],
      "name": "addAdmins",
      "outputs": [],
      "payable": false,
      "stateMutability": "nonpayable",
      "type": "function"
    },
    {
      "constant": false,
      "inputs": [
        {
          "name": "_admins",
          "type": "address[]"
        }
      ],
      "name": "removeAdmins",
      "outputs": [],
      "payable": false,
      "stateMutability": "nonpayable",
      "type": "function"
    },
    {
      "constant": false,
      "inputs": [
        {
          "name": "startIndex",
          "type": "uint256"
        }
      ],
      "name": "topAdmins",
      "outputs": [],
      "payable": false,
      "stateMutability": "nonpayable",
      "type": "function"
    },
    {
      "constant": true,
      "inputs": [
        {
          "name": "_user",
          "type": "address"
        }
      ],
      "name": "isAdmin",
      "outputs": [
        {
          "name": "",
          "type": "bool"
        }
      ],
      "payable": false,
      "stateMutability": "view",
      "type": "function"
    },
    {
      "constant": false,
      "inputs": [
        {
          "name": "_user",
          "type": "address"
        },
        {
          "name": "_did",
          "type": "string"
        }
      ],
      "name": "whitelist",
      "outputs": [],
      "payable": false,
      "stateMutability": "nonpayable",
      "type": "function"
    },
    {
      "constant": false,
      "inputs": [
        {
          "name": "_user",
          "type": "address"
        }
      ],
      "name": "removeWhitelist",
      "outputs": [],
      "payable": false,
      "stateMutability": "nonpayable",
      "type": "function"
    },
    {
      "constant": false,
      "inputs": [
        {
          "name": "_user",
          "type": "address"
        }
      ],
      "name": "blacklist",
      "outputs": [],
      "payable": false,
      "stateMutability": "nonpayable",
      "type": "function"
    },
    {
      "constant": false,
      "inputs": [
        {
          "name": "_user",
          "type": "address"
        }
      ],
      "name": "removeBlacklist",
      "outputs": [],
      "payable": false,
      "stateMutability": "nonpayable",
      "type": "function"
    },
    {
      "constant": false,
      "inputs": [
        {
          "name": "_user",
          "type": "address"
        }
      ],
      "name": "topWallet",
      "outputs": [],
      "payable": false,
      "stateMutability": "nonpayable",
      "type": "function"
    },
    {
      "constant": false,
      "inputs": [
        {
          "name": "_user",
          "type": "address"
        },
        {
          "name": "_amount",
          "type": "uint256"
        },
        {
          "name": "_did",
          "type": "string"
        }
      ],
      "name": "whitelistAndAwardUser",
      "outputs": [],
      "payable": false,
      "stateMutability": "nonpayable",
      "type": "function"
    },
    {
      "constant": false,
      "inputs": [
        {
          "name": "_user",
          "type": "address"
        },
        {
          "name": "_amount",
          "type": "uint256"
        }
      ],
      "name": "awardUser",
      "outputs": [],
      "payable": false,
      "stateMutability": "nonpayable",
      "type": "function"
    },
    {
      "constant": false,
      "inputs": [
        {
          "name": "_contract",
          "type": "address"
        },
        {
          "name": "_data",
          "type": "bytes"
        },
        {
          "name": "_value",
          "type": "uint256"
        }
      ],
      "name": "genericCall",
      "outputs": [
        {
          "name": "success",
          "type": "bool"
        },
        {
          "name": "returnValue",
          "type": "bytes"
        }
      ],
      "payable": false,
      "stateMutability": "nonpayable",
      "type": "function"
    }
  ],
  "bytecode": "0x608060405260048054600160a060020a03191690553480156200002157600080fd5b5060405162001c2c38038062001c2c833981018060405260808110156200004757600080fd5b8101908080516401000000008111156200006057600080fd5b820160208101848111156200007457600080fd5b81518560208202830111640100000000821117156200009257600080fd5b5050602082015160408084015160609094015160008054600160a060020a0319163317808255925194975092955092600160a060020a039190911691907f8be0079c531659141344cd1fd0a4f28419497f9722a3daafe3b4186f6b6457e0908290a360038054600160a060020a031916600160a060020a03831617905560058390556006829055426008558351600010156200013c576200013c8464010000000062000146810204565b5050505062000310565b620001596401000000006200026c810204565b15156200016557600080fd5b60005b8151811015620001fd57620001a682828151811015156200018557fe5b602090810290910101516001906401000000006200178f6200027d82021704565b60028282815181101515620001b757fe5b6020908102919091018101518254600180820185556000948552929093209092018054600160a060020a031916600160a060020a03909316929092179091550162000168565b508060405180828051906020019060200280838360005b838110156200022e57818101518382015260200162000214565b505060405194909201849003842095507f45486b220020cc2482ad1a5e0ae4d5f0b5372cea1b48173f6273c616a5047269945060009392505050a250565b600054600160a060020a0316331490565b600160a060020a03811615156200029357600080fd5b620002a88282640100000000620002d8810204565b15620002b357600080fd5b600160a060020a0316600090815260209190915260409020805460ff19166001179055565b6000600160a060020a0382161515620002f057600080fd5b50600160a060020a03166000908152602091909152604090205460ff1690565b61190c80620003206000396000f3fe608060405260043610610147576000357c0100000000000000000000000000000000000000000000000000000000900480638f32d59b116100c8578063e6ea39391161008c578063e6ea393914610741578063eb91e65114610756578063eda4e6d614610789578063f2fde38b1461079e578063f3da9f05146107d1578063f9f92be4146107e657610147565b80638f32d59b146105e65780639c54df64146105fb578063bd7fbbd6146106ab578063db626838146106e4578063e2166c641461070e57610147565b8063377e11e01161010f578063377e11e0146104965780635c9302c914610546578063715018a61461056d57806378c8cda7146105825780638da5cb5b146105b557610147565b80631ff6e09f1461014957806324d7806c146102115780632beeaca4146102585780632bf164581461031b5780633771dcf814610463575b005b34801561015557600080fd5b506101476004803603606081101561016c57600080fd5b600160a060020a038235169160208101359181019060608101604082013564010000000081111561019c57600080fd5b8201836020820111156101ae57600080fd5b803590602001918460018302840111640100000000831117156101d057600080fd5b91908080601f016020809104026020016040519081016040528093929190818152602001838380828437600092019190915250929550610819945050505050565b34801561021d57600080fd5b506102446004803603602081101561023457600080fd5b5035600160a060020a0316610a23565b604080519115158252519081900360200190f35b34801561026457600080fd5b506101476004803603604081101561027b57600080fd5b600160a060020a0382351691908101906040810160208201356401000000008111156102a657600080fd5b8201836020820111156102b857600080fd5b803590602001918460018302840111640100000000831117156102da57600080fd5b91908080601f016020809104026020016040519081016040528093929190818152602001838380828437600092019190915250929550610a3c945050505050565b34801561032757600080fd5b506103e06004803603606081101561033e57600080fd5b600160a060020a03823516919081019060408101602082013564010000000081111561036957600080fd5b82018360208201111561037b57600080fd5b8035906020019184600183028401116401000000008311171561039d57600080fd5b91908080601f0160208091040260200160405190810160405280939291908181526020018383808284376000920191909152509295505091359250610bad915050565b604051808315151515815260200180602001828103825283818151815260200191508051906020019080838360005b8381101561042757818101518382015260200161040f565b50505050905090810190601f1680156104545780820380516001836020036101000a031916815260200191505b50935050505060405180910390f35b34801561046f57600080fd5b506101476004803603602081101561048657600080fd5b5035600160a060020a0316610d9e565b3480156104a257600080fd5b50610147600480360360208110156104b957600080fd5b8101906020810181356401000000008111156104d457600080fd5b8201836020820111156104e657600080fd5b8035906020019184602083028401116401000000008311171561050857600080fd5b919080806020026020016040519081016040528093929190818152602001838360200280828437600092019190915250929550610ec6945050505050565b34801561055257600080fd5b5061055b610f83565b60408051918252519081900360200190f35b34801561057957600080fd5b50610147610f89565b34801561058e57600080fd5b50610147600480360360208110156105a557600080fd5b5035600160a060020a0316610ff3565b3480156105c157600080fd5b506105ca6110d4565b60408051600160a060020a039092168252519081900360200190f35b3480156105f257600080fd5b506102446110e3565b34801561060757600080fd5b506101476004803603602081101561061e57600080fd5b81019060208101813564010000000081111561063957600080fd5b82018360208201111561064b57600080fd5b8035906020019184602083028401116401000000008311171561066d57600080fd5b9190808060200260200160405190810160405280939291908181526020018383602002808284376000920191909152509295506110f4945050505050565b3480156106b757600080fd5b50610147600480360360408110156106ce57600080fd5b50600160a060020a03813516906020013561120b565b3480156106f057600080fd5b506101476004803603602081101561070757600080fd5b5035611333565b34801561071a57600080fd5b506101476004803603602081101561073157600080fd5b5035600160a060020a031661142c565b34801561074d57600080fd5b5061055b61146e565b34801561076257600080fd5b506101476004803603602081101561077957600080fd5b5035600160a060020a0316611474565b34801561079557600080fd5b5061055b611528565b3480156107aa57600080fd5b50610147600480360360208110156107c157600080fd5b5035600160a060020a031661152e565b3480156107dd57600080fd5b5061055b61154a565b3480156107f257600080fd5b506101476004803603602081101561080957600080fd5b5035600160a060020a0316611550565b61082233610a23565b1515610866576040805160e560020a62461bcd0281526020600482015260136024820152600080516020611891833981519152604482015290519081900360640190fd5b600454600160a060020a031615156108b25760405160e560020a62461bcd0281526004018080602001828103825260218152602001806118706021913960400191505060405180910390fd5b600354604080517f3af32abf000000000000000000000000000000000000000000000000000000008152600160a060020a03868116600483015291519190921691633af32abf916024808301926020929190829003018186803b15801561091857600080fd5b505afa15801561092c573d6000803e3d6000fd5b505050506040513d602081101561094257600080fd5b50511515610954576109548382610a3c565b60008211156109e85760048054604080517fbd7fbbd6000000000000000000000000000000000000000000000000000000008152600160a060020a0387811694820194909452602481018690529051929091169163bd7fbbd69160448082019260009290919082900301818387803b1580156109cf57600080fd5b505af11580156109e3573d6000803e3d6000fd5b505050505b6005546109fc90600463ffffffff61160416565b333111801590610a105750610a1033610a23565b15610a1e57610a1e33611628565b505050565b6000610a3660018363ffffffff6116e416565b92915050565b610a4533610a23565b1515610a89576040805160e560020a62461bcd0281526020600482015260136024820152600080516020611891833981519152604482015290519081900360640190fd5b600354604080517f1b027099000000000000000000000000000000000000000000000000000000008152600160a060020a0385811660048301908152602483019384528551604484015285519190941693631b0270999387938793606490910190602085019080838360005b83811015610b0d578181015183820152602001610af5565b50505050905090810190601f168015610b3a5780820380516001836020036101000a031916815260200191505b509350505050600060405180830381600087803b158015610b5a57600080fd5b505af1158015610b6e573d6000803e3d6000fd5b5050600554610b8792509050600463ffffffff61160416565b333111801590610b9b5750610b9b33610a23565b15610ba957610ba933611628565b5050565b60006060610bba33610a23565b1515610bfe576040805160e560020a62461bcd0281526020600482015260136024820152600080516020611891833981519152604482015290519081900360640190fd5b84600160a060020a031683856040518082805190602001908083835b60208310610c395780518252601f199092019160209182019101610c1a565b6001836020036101000a03801982511681845116808217855250505050505090500191505060006040518083038185875af1925050503d8060008114610c9b576040519150601f19603f3d011682016040523d82523d6000602084013e610ca0565b606091505b50809250819350505084600160a060020a03167f534b52c783549f909f9e743120524d0b7154058e4a54cdc895c2c0b587a1c7e0858585604051808060200184815260200183151515158152602001828103825285818151815260200191508051906020019080838360005b83811015610d24578181015183820152602001610d0c565b50505050905090810190601f168015610d515780820380516001836020036101000a031916815260200191505b5094505050505060405180910390a2600554610d7490600463ffffffff61160416565b333111801590610d885750610d8833610a23565b15610d9657610d9633611628565b935093915050565b610da733610a23565b1515610deb576040805160e560020a62461bcd0281526020600482015260136024820152600080516020611891833981519152604482015290519081900360640190fd5b610df361171b565b6006546007546000908152600960209081526040808320600160a060020a038616845290915290205410610e5b5760405160e560020a62461bcd0281526004018080602001828103825260308152602001806118b16030913960400191505060405180910390fd5b600554610e6f90600463ffffffff61160416565b600160a060020a0382163110610e8457610e8d565b610e8d81611628565b600554610ea190600463ffffffff61160416565b333111801590610eb55750610eb533610a23565b15610ec357610ec333611628565b50565b610ece6110e3565b1515610ed957600080fd5b60005b8151811015610f1657610f0e8282815181101515610ef657fe5b6020908102909101015160019063ffffffff61174316565b600101610edc565b508060405180828051906020019060200280838360005b83811015610f45578181015183820152602001610f2d565b505060405194909201849003842095507fd5e6894641b5030a67e637ab2e12da64d8aec689f8bd1328de2b04d6a439c810945060009392505050a250565b60075481565b610f916110e3565b1515610f9c57600080fd5b60008054604051600160a060020a03909116907f8be0079c531659141344cd1fd0a4f28419497f9722a3daafe3b4186f6b6457e0908390a36000805473ffffffffffffffffffffffffffffffffffffffff19169055565b610ffc33610a23565b1515611040576040805160e560020a62461bcd0281526020600482015260136024820152600080516020611891833981519152604482015290519081900360640190fd5b600354604080517f291d9549000000000000000000000000000000000000000000000000000000008152600160a060020a0384811660048301529151919092169163291d954991602480830192600092919082900301818387803b1580156110a757600080fd5b505af11580156110bb573d6000803e3d6000fd5b5050600554610ea192509050600463ffffffff61160416565b600054600160a060020a031690565b600054600160a060020a0316331490565b6110fc6110e3565b151561110757600080fd5b60005b815181101561119e5761113c828281518110151561112457fe5b6020908102909101015160019063ffffffff61178f16565b6002828281518110151561114c57fe5b602090810291909101810151825460018082018555600094855292909320909201805473ffffffffffffffffffffffffffffffffffffffff1916600160a060020a03909316929092179091550161110a565b508060405180828051906020019060200280838360005b838110156111cd5781810151838201526020016111b5565b505060405194909201849003842095507f45486b220020cc2482ad1a5e0ae4d5f0b5372cea1b48173f6273c616a5047269945060009392505050a250565b61121433610a23565b1515611258576040805160e560020a62461bcd0281526020600482015260136024820152600080516020611891833981519152604482015290519081900360640190fd5b600454600160a060020a031615156112a45760405160e560020a62461bcd0281526004018080602001828103825260218152602001806118706021913960400191505060405180910390fd5b600081111561131f5760048054604080517fbd7fbbd6000000000000000000000000000000000000000000000000000000008152600160a060020a0386811694820194909452602481018590529051929091169163bd7fbbd69160448082019260009290919082900301818387803b158015610b5a57600080fd5b600554610b8790600463ffffffff61160416565b600254811061138c576040805160e560020a62461bcd02815260206004820152601360248201527f41646d696e206c69737420697320656d70747900000000000000000000000000604482015290519081900360640190fd5b805b600254811080156113a157508160320181105b15611417576005546113ba90600463ffffffff61160416565b60028054839081106113c857fe5b600091825260209091200154600160a060020a0316311161140f5761140f6002828154811015156113f557fe5b600091825260209091200154600160a060020a0316611628565b60010161138e565b50600554610ea190600463ffffffff61160416565b6114346110e3565b151561143f57600080fd5b6004805473ffffffffffffffffffffffffffffffffffffffff1916600160a060020a0392909216919091179055565b60055481565b61147d33610a23565b15156114c1576040805160e560020a62461bcd0281526020600482015260136024820152600080516020611891833981519152604482015290519081900360640190fd5b600354604080517fc6a276c2000000000000000000000000000000000000000000000000000000008152600160a060020a0384811660048301529151919092169163c6a276c291602480830192600092919082900301818387803b1580156110a757600080fd5b60085481565b6115366110e3565b151561154157600080fd5b610ec3816117dd565b60065481565b61155933610a23565b151561159d576040805160e560020a62461bcd0281526020600482015260136024820152600080516020611891833981519152604482015290519081900360640190fd5b600354604080517f188efc16000000000000000000000000000000000000000000000000000000008152600160a060020a0384811660048301529151919092169163188efc1691602480830192600092919082900301818387803b1580156110a757600080fd5b600080821161161257600080fd5b6000828481151561161f57fe5b04949350505050565b6007546000908152600960209081526040808320600160a060020a0385168085529252822080546001019055600554611667913163ffffffff61185a16565b604051909150600160a060020a0383169082156108fc029083906000818181858888f193505050501580156116a0573d6000803e3d6000fd5b50604080518281529051600160a060020a038416917ff60e56b8021f6ac77bd50d4acdbed9ad9e85107144d43090774a9ebe5ffed985919081900360200190a25050565b6000600160a060020a03821615156116fb57600080fd5b50600160a060020a03166000908152602091909152604090205460ff1690565b620151806117346008544261185a90919063ffffffff16565b81151561173d57fe5b04600755565b600160a060020a038116151561175857600080fd5b61176282826116e4565b151561176d57600080fd5b600160a060020a0316600090815260209190915260409020805460ff19169055565b600160a060020a03811615156117a457600080fd5b6117ae82826116e4565b156117b857600080fd5b600160a060020a0316600090815260209190915260409020805460ff19166001179055565b600160a060020a03811615156117f257600080fd5b60008054604051600160a060020a03808516939216917f8be0079c531659141344cd1fd0a4f28419497f9722a3daafe3b4186f6b6457e091a36000805473ffffffffffffffffffffffffffffffffffffffff1916600160a060020a0392909216919091179055565b60008282111561186957600080fd5b5090039056fe5369676e557020626f6e757320686173206e6f74206265656e207365742079657443616c6c6572206973206e6f742061646d696e00000000000000000000000000557365722077616c6c657420686173206265656e20746f7070656420746f6f206d616e792074696d657320746f646179a165627a7a72305820cfab04f67c1a2c4e5431b175da1d45cfcf31e56155cf9d36cadbf3302b550e5b0029",
  "source": "pragma solidity 0.5.4;\n\nimport \"openzeppelin-solidity/contracts/access/Roles.sol\";\nimport \"openzeppelin-solidity/contracts/ownership/Ownable.sol\";\nimport \"openzeppelin-solidity/contracts/math/SafeMath.sol\";\n\nimport \"../identity/Identity.sol\";\nimport \"../dao/schemes/SignUpBonus.sol\";\n\n/* @title Admin wallet contract allowing whitelisting and topping up of\n * addresses\n */\ncontract AdminWallet is Ownable {\n    using Roles for Roles.Role;\n    using SafeMath for uint256;\n\n    Roles.Role private admins;\n\n    address payable[] adminlist;\n\n    Identity identity;\n\n    SignUpBonus bonus = SignUpBonus(0);\n\n    uint256 public toppingAmount;\n\n    uint256 public toppingTimes;\n    uint256 public currentDay;\n    uint256 public periodStart;\n\n    mapping(uint256 => mapping(address => uint256)) toppings;\n\n    event AdminsAdded(address payable[] indexed admins);\n    event AdminsRemoved(address[] indexed admins);\n    event WalletTopped(address indexed user, uint256 amount);\n    event GenericCall(\n        address indexed _contract,\n        bytes _data,\n        uint256 _value,\n        bool _success\n    );\n\n    constructor(\n        address payable[] memory _admins,\n        uint256 _toppingAmount,\n        uint256 _toppingTimes,\n        Identity _identity\n    ) public {\n        identity = _identity;\n\n        toppingAmount = _toppingAmount;\n        toppingTimes = _toppingTimes;\n        periodStart = now;\n\n        if (_admins.length > 0) {\n            addAdmins(_admins);\n        }\n    }\n\n    /* @dev Modifier that checks if caller is admin of wallet\n     */\n    modifier onlyAdmin() {\n        require(isAdmin(msg.sender), \"Caller is not admin\");\n        _;\n    }\n\n    modifier reimburseGas() {\n        _;\n        if (msg.sender.balance <= toppingAmount.div(4) && isAdmin(msg.sender)) {\n            _topWallet(msg.sender);\n        }\n    }\n\n    function() external payable {}\n\n    /* @dev Internal function that sets current day\n     */\n    function setDay() internal {\n        currentDay = (now.sub(periodStart)) / 1 days;\n    }\n\n    function setBonusContract(SignUpBonus _bonus) public onlyOwner {\n        bonus = _bonus;\n    }\n\n    /* @dev Function to add list of addresses to admins\n     * can only be called by creator of contract\n     * @param _admins the list of addresses to add\n     */\n    function addAdmins(address payable[] memory _admins) public onlyOwner {\n        for (uint256 i = 0; i < _admins.length; i++) {\n            admins.add(_admins[i]);\n\n            adminlist.push(_admins[i]);\n        }\n        emit AdminsAdded(_admins);\n    }\n\n    /* @dev Function to remove list of addresses to admins\n     * can only be called by creator of contract\n     * @param _admins the list of addresses to remove\n     */\n    function removeAdmins(address[] memory _admins) public onlyOwner {\n        for (uint256 i = 0; i < _admins.length; i++) {\n            admins.remove(_admins[i]);\n        }\n        emit AdminsRemoved(_admins);\n    }\n\n    /* @dev top the first 50 admins\n     */\n    function topAdmins(uint256 startIndex) public reimburseGas {\n        require(adminlist.length > startIndex, \"Admin list is empty\");\n        for (\n            uint256 i = startIndex;\n            (i < adminlist.length && i < startIndex + 50);\n            i++\n        ) {\n            if (adminlist[i].balance <= toppingAmount.div(4)) {\n                _topWallet(adminlist[i]);\n            }\n        }\n    }\n\n    /** \n     * @dev Function to check if given address is an admin\n     * @param _user the address to check\n     * @return A bool indicating if user is an admin \n     */\n    function isAdmin(address _user) public view returns (bool) {\n        return admins.has(_user);\n    }\n\n    /* @dev Function to add given address to whitelist of identity contract\n     * can only be done by admins of wallet and if wallet is an IdentityAdmin\n     */\n    function whitelist(address _user, string memory _did)\n        public\n        onlyAdmin\n        reimburseGas\n    {\n        identity.addWhitelistedWithDID(_user, _did);\n    }\n\n    /* @dev Function to remove given address from whitelist of identity contract\n     * can only be done by admins of wallet and if wallet is an IdentityAdmin\n     */\n    function removeWhitelist(address _user) public onlyAdmin reimburseGas {\n        identity.removeWhitelisted(_user);\n    }\n\n    /* @dev Function to add given address to blacklist of identity contract\n     * can only be done by admins of wallet and if wallet is an IdentityAdmin\n     */\n    function blacklist(address _user) public onlyAdmin reimburseGas {\n        identity.addBlacklisted(_user);\n    }\n\n    /* @dev Function to remove given address from blacklist of identity contract\n     * can only be done by admins of wallet and if wallet is an IdentityAdmin\n     */\n    function removeBlacklist(address _user) public onlyAdmin reimburseGas {\n        identity.removeBlacklisted(_user);\n    }\n\n    /* @dev Function to top given address with amount of G$ given in constructor\n     * can only be done by admin the amount of times specified in constructor per day\n     * @param _user The address to transfer to\n     */\n    function topWallet(address payable _user) public onlyAdmin reimburseGas {\n        setDay();\n        require(\n            toppings[currentDay][_user] < toppingTimes,\n            \"User wallet has been topped too many times today\"\n        );\n        if (address(_user).balance >= toppingAmount.div(4)) return;\n\n        _topWallet(_user);\n    }\n\n    function _topWallet(address payable _wallet) internal {\n        toppings[currentDay][_wallet] += 1;\n        uint256 toTop = toppingAmount.sub(address(_wallet).balance);\n        _wallet.transfer(toTop);\n        emit WalletTopped(_wallet, toTop);\n    }\n\n    /* @dev Function to whitelist user and also award him pending bonuses, it can be used also later\n     * when user is already whitelisted to just award pending bonuses\n     * can only be done by admin\n     * @param _user The address to transfer to and whitelist\n     * @param _amount the bonus amount to give\n     * @param _did decentralized id of user, pointer to some profile\n     */\n    function whitelistAndAwardUser(\n        address _user,\n        uint256 _amount,\n        string memory _did\n    ) public onlyAdmin reimburseGas {\n        require(bonus != SignUpBonus(0), \"SignUp bonus has not been set yet\");\n\n        if (identity.isWhitelisted(_user) == false) {\n            whitelist(_user, _did);\n        }\n\n        if (_amount > 0) {\n            bonus.awardUser(_user, _amount);\n        }\n    }\n\n    /**\n     * @dev Function to award user with pending bonuses,\n     * can only be done by admin\n     * @param _user The address to transfer to and whitelist\n     * @param _amount the bonus amount to give\n     */\n    function awardUser(address _user, uint256 _amount)\n        public\n        onlyAdmin\n        reimburseGas\n    {\n        require(bonus != SignUpBonus(0), \"SignUp bonus has not been set yet\");\n        if (_amount > 0) {\n            bonus.awardUser(_user, _amount);\n        }\n    }\n\n    /**\n    * @dev perform a generic call to an arbitrary contract\n    * @param _contract  the contract's address to call\n    * @param _data ABI-encoded contract call to call `_contract` address.\n    * @param _value value (ETH) to transfer with the transaction\n    * @return bool    success or fail\n    *         bytes - the return bytes of the called contract's function.\n    */\n    function genericCall(address _contract, bytes memory _data, uint256 _value)\n        public\n        onlyAdmin\n        reimburseGas\n        returns (bool success, bytes memory returnValue)\n    {\n        // solhint-disable-next-line avoid-call-value\n        (success, returnValue) = _contract.call.value(_value)(_data);\n        emit GenericCall(_contract, _data, _value, success);\n    }\n}\n",
  "sourcePath": "/Users/hadar/workspace/GoodDollar/GoodBootstrap/packages/contracts/contracts/wallet/AdminWallet.sol",
  "compiler": {
    "name": "solc",
    "version": "0.5.4+commit.9549d8ff.Emscripten.clang"
  },
  "schemaVersion": "3.0.16",
  "updatedAt": "2020-04-01T19:48:55.837Z",
  "devdoc": {
    "methods": {
      "awardUser(address,uint256)": {
        "details": "Function to award user with pending bonuses, can only be done by admin",
        "params": {
          "_amount": "the bonus amount to give",
          "_user": "The address to transfer to and whitelist"
        }
      },
      "genericCall(address,bytes,uint256)": {
        "details": "perform a generic call to an arbitrary contract",
        "params": {
          "_contract": "the contract's address to call",
          "_data": "ABI-encoded contract call to call `_contract` address.",
          "_value": "value (ETH) to transfer with the transaction"
        },
        "return": "bool    success or fail        bytes - the return bytes of the called contract's function."
      },
      "isAdmin(address)": {
        "details": "Function to check if given address is an admin",
        "params": {
          "_user": "the address to check"
        },
        "return": "A bool indicating if user is an admin "
      },
      "isOwner()": {
        "return": "true if `msg.sender` is the owner of the contract."
      },
      "owner()": {
        "return": "the address of the owner."
      },
      "renounceOwnership()": {
        "details": "Allows the current owner to relinquish control of the contract."
      },
      "transferOwnership(address)": {
        "details": "Allows the current owner to transfer control of the contract to a newOwner.",
        "params": {
          "newOwner": "The address to transfer ownership to."
        }
      }
    }
  },
  "userdoc": {
    "methods": {
      "renounceOwnership()": {
        "notice": "Renouncing to ownership will leave the contract without an owner. It will not be possible to call the functions with the `onlyOwner` modifier anymore."
      }
    }
  }
}