{
  "contractName": "BancorFormula",
  "abi": [
    {
      "constant": true,
      "inputs": [],
      "name": "expArray",
      "outputs": [
        {
          "name": "",
          "type": "address"
        }
      ],
      "payable": false,
      "stateMutability": "view",
      "type": "function"
    },
    {
      "constant": true,
      "inputs": [],
      "name": "version",
      "outputs": [
        {
          "name": "",
          "type": "string"
        }
      ],
      "payable": false,
      "stateMutability": "view",
      "type": "function"
    },
    {
      "inputs": [
        {
          "name": "_exp",
          "type": "address"
        }
      ],
      "payable": false,
      "stateMutability": "nonpayable",
      "type": "constructor"
    },
    {
      "constant": true,
      "inputs": [
        {
          "name": "_supply",
          "type": "uint256"
        },
        {
          "name": "_connectorBalance",
          "type": "uint256"
        },
        {
          "name": "_connectorWeight",
          "type": "uint32"
        },
        {
          "name": "_depositAmount",
          "type": "uint256"
        }
      ],
      "name": "calculatePurchaseReturn",
      "outputs": [
        {
          "name": "",
          "type": "uint256"
        }
      ],
      "payable": false,
      "stateMutability": "view",
      "type": "function"
    },
    {
      "constant": true,
      "inputs": [
        {
          "name": "_supply",
          "type": "uint256"
        },
        {
          "name": "_connectorBalance",
          "type": "uint256"
        },
        {
          "name": "_connectorWeight",
          "type": "uint32"
        },
        {
          "name": "_sellAmount",
          "type": "uint256"
        }
      ],
      "name": "calculateSaleReturn",
      "outputs": [
        {
          "name": "",
          "type": "uint256"
        }
      ],
      "payable": false,
      "stateMutability": "view",
      "type": "function"
    }
  ],
  "bytecode": "0x60c0604052600360808190527f302e33000000000000000000000000000000000000000000000000000000000060a090815262000040916000919062000097565b503480156200004e57600080fd5b50604051602080620015b5833981018060405260208110156200007057600080fd5b505160018054600160a060020a031916600160a060020a039092169190911790556200013c565b828054600181600116156101000203166002900490600052602060002090601f016020900481019282601f10620000da57805160ff19168380011785556200010a565b828001600101855582156200010a579182015b828111156200010a578251825591602001919060010190620000ed565b50620001189291506200011c565b5090565b6200013991905b8082111562000118576000815560010162000123565b90565b611469806200014c6000396000f3fe608060405234801561001057600080fd5b5060043610610068577c010000000000000000000000000000000000000000000000000000000060003504630a19951f811461006d57806329a00e7c1461009e57806349f9b0f7146100e557806354fd4d501461011a575b600080fd5b610075610197565b6040805173ffffffffffffffffffffffffffffffffffffffff9092168252519081900360200190f35b6100d3600480360360808110156100b457600080fd5b5080359060208101359063ffffffff60408201351690606001356101b3565b60408051918252519081900360200190f35b6100d3600480360360808110156100fb57600080fd5b5080359060208101359063ffffffff6040820135169060600135610281565b610122610357565b6040805160208082528351818301528351919283929083019185019080838360005b8381101561015c578181015183820152602001610144565b50505050905090810190601f1680156101895780820380516001836020036101000a031916815260200191505b509250505060405180910390f35b60015473ffffffffffffffffffffffffffffffffffffffff1681565b600080851180156101c45750600084115b80156101d6575060008363ffffffff16115b80156101eb5750620f424063ffffffff841611155b15156101f657600080fd5b81151561020557506000610279565b63ffffffff8316620f42401415610232578361022186846103e5565b81151561022a57fe5b049050610279565b60008060006102418588610410565b9050610252818888620f424061041f565b9093509150600060ff83166102678a866103e5565b60029190910a90048990039450505050505b949350505050565b600080851180156102925750600084115b80156102a4575060008363ffffffff16115b80156102b95750620f424063ffffffff841611155b80156102c55750848211155b15156102d057600080fd5b8115156102df57506000610279565b848214156102ee575082610279565b63ffffffff8316620f4240141561030a578461022185846103e5565b60008083870361031f8882620f42408961041f565b9093509150600061033088856103e5565b905060ff831660020a88028481830381151561034857fe5b049a9950505050505050505050565b6000805460408051602060026001851615610100026000190190941693909304601f810184900484028201840190925281815292918301828280156103dd5780601f106103b2576101008083540402835291602001916103dd565b820191906000526020600020905b8154815290600101906020018083116103c057829003601f168201915b505050505081565b600082820283158061040157508284828115156103fe57fe5b04145b151561040957fe5b9392505050565b60008282018381101561040957fe5b600080700200000000000000000000000000000000861061043c57fe5b60008086607f60020a890281151561045057fe5b04905070015bf0a8b1457695355fb8ac404e7a79e381101561047c576104758161050f565b9150610488565b61048581610936565b91505b60008563ffffffff168763ffffffff1684028115156104a357fe5b0490507008000000000000000000000000000000008110156104d6576104c881610a04565b607f94509450505050610506565b60006104e182610e11565b90506104f960ff607f8390031660020a830482610e84565b9550935061050692505050565b94509492505050565b6000808080806fd3094c70f034de4b96ff7d5b6f99fcd8861061055e576f4000000000000000000000000000000093909301926fd3094c70f034de4b96ff7d5b6f99fcd8607f60020a87020495505b6fa45af1e1f40c333b3de1db4dd55f29a786106105a7576f2000000000000000000000000000000093909301926fa45af1e1f40c333b3de1db4dd55f29a7607f60020a87020495505b6f910b022db7ae67ce76b441c27035c6a186106105f0576f1000000000000000000000000000000093909301926f910b022db7ae67ce76b441c27035c6a1607f60020a87020495505b6f88415abbe9a76bead8d00cf112e4d4a88610610639576f0800000000000000000000000000000093909301926f88415abbe9a76bead8d00cf112e4d4a8607f60020a87020495505b6f84102b00893f64c705e841d5d4064bd38610610682576f0400000000000000000000000000000093909301926f84102b00893f64c705e841d5d4064bd3607f60020a87020495505b6f8204055aaef1c8bd5c3259f4822735a286106106cb576f0200000000000000000000000000000093909301926f8204055aaef1c8bd5c3259f4822735a2607f60020a87020495505b6f810100ab00222d861931c15e39b44e998610610714576f0100000000000000000000000000000093909301926f810100ab00222d861931c15e39b44e99607f60020a87020495505b6f808040155aabbbe9451521693554f733861061075c576e80000000000000000000000000000093909301926f808040155aabbbe9451521693554f733607f60020a87020495505b6f7fffffffffffffffffffffffffffffff1986019250829150607f60020a8280020490507001000000000000000000000000000000008381038302049390930192607f60020a8282020491507002000000000000000000000000000000006faaaaaaaaaaaaaaaaaaaaaaaaaaaaaaaa8490038302049390930192607f60020a8282020491507003000000000000000000000000000000006f999999999999999999999999999999998490038302049390930192607f60020a8282020491507004000000000000000000000000000000006f924924924924924924924924924924928490038302049390930192607f60020a8282020491507005000000000000000000000000000000006f8e38e38e38e38e38e38e38e38e38e38e8490038302049390930192607f60020a8282020491507006000000000000000000000000000000006f8ba2e8ba2e8ba2e8ba2e8ba2e8ba2e8b8490038302049390930192607f60020a8282020491507007000000000000000000000000000000006f89d89d89d89d89d89d89d89d89d89d898490038302049390930192607f60020a8282020491507008000000000000000000000000000000006f888888888888888888888888888888888490038302049390930193505050505b919050565b6000807001000000000000000000000000000000008310610978576000610962607f60020a8504611326565b60ff16600281900a90940493607f60020a029150505b607f60020a8311156109d857607f5b60008160ff1611156109d657607f60020a84800204935070010000000000000000000000000000000084106109cd576002938490049360ff600019830116900a91909101905b60001901610987565b505b6f05b9de1d10bf4103d647b0955897ba806f03f80fe03f80fe03f80fe03f80fe03f88202049392505050565b6000670168244fdac78000607f60020a6f0fffffffffffffffffffffffffffffff84168080028290048082028390048083028490049485026710e1b3be415a00009092026705a0913f6b1e000091909102010192909181830204905080664807432bc180000283019250607f60020a828202811515610a7f57fe5b04905080660c0135dca040000283019250607f60020a828202811515610aa157fe5b049050806601b707b1cdc0000283019250607f60020a828202811515610ac357fe5b049050806536e0f639b8000283019250607f60020a828202811515610ae457fe5b04905080650618fee9f8000283019250607f60020a828202811515610b0557fe5b04905080649c197dcc000283019250607f60020a828202811515610b2557fe5b04905080640e30dce4000283019250607f60020a828202811515610b4557fe5b0490508064012ebd13000283019250607f60020a828202811515610b6557fe5b049050806317499f000283019250607f60020a828202811515610b8457fe5b049050806301a9d4800283019250607f60020a828202811515610ba357fe5b04905080621c63800283019250607f60020a828202811515610bc157fe5b049050806201c6380283019250607f60020a828202811515610bdf57fe5b04905080611ab80283019250607f60020a828202811515610bfc57fe5b0490508061017c0283019250607f60020a828202811515610c1957fe5b0490508060140283019250607f60020a828202811515610c3557fe5b6721c3677c82b40000919004938401048201607f60020a019290506f10000000000000000000000000000000851615610c925770018ebef9eac820ae8682b9793ac6d1e7767001c3d6a24ed82218787d624d3e5eba95f984020492505b6f20000000000000000000000000000000851615610cd4577001368b2fc6f9609fe7aceb46aa619baed470018ebef9eac820ae8682b9793ac6d1e77884020492505b6f40000000000000000000000000000000851615610d15576fbc5ab1b16779be3575bd8f0520a9f21f7001368b2fc6f9609fe7aceb46aa619baed584020492505b607f60020a851615610d49576f454aaa8efe072e7f6ddbab84b40a55c96fbc5ab1b16779be3575bd8f0520a9f21e84020492505b700100000000000000000000000000000000851615610d8a576f0960aadc109e7a3bf4578099615711ea6f454aaa8efe072e7f6ddbab84b40a55c584020492505b700200000000000000000000000000000000851615610dca576e2bf84208204f5977f9a8cf01fdce3d6f0960aadc109e7a3bf4578099615711d784020492505b700400000000000000000000000000000000851615610e08576d03c6ab775dd0b95b4cbee7e65d116e2bf84208204f5977f9a8cf01fdc30784020492505b50909392505050565b60006020607f5b8060ff168260010160ff161015610e5357600281830160ff160484610e3c82611391565b10610e4957809250610e4d565b8091505b50610e18565b83610e5d82611391565b10610e6b5791506109319050565b83610e7583611391565b10610e8257509050610931565bfe5b60008083905060008090508360ff16858302908060020a82049150509150816f03442c4e6074a82f1797f72ac000000002810190508360ff16858302908060020a82049150509150816f0116b96f757c380fb287fd0e4000000002810190508360ff16858302908060020a82049150509150816e45ae5bdd5f0e03eca1ff439000000002810190508360ff16858302908060020a82049150509150816e0defabf91302cd95b9ffda5000000002810190508360ff16858302908060020a82049150509150816e02529ca9832b22439efff9b800000002810190508360ff16858302908060020a82049150509150816d54f1cf12bd04e516b6da8800000002810190508360ff16858302908060020a82049150509150816d0a9e39e257a09ca2d6db5100000002810190508360ff16858302908060020a82049150509150816d012e066e7b839fa050c30900000002810190508360ff16858302908060020a82049150509150816c1e33d7d926c329a1ad1a80000002810190508360ff16858302908060020a82049150509150816c02bee513bdb4a6b19b5f80000002810190508360ff16858302908060020a82049150509150816b3a9316fa79b88eccf2a0000002810190508360ff16858302908060020a82049150509150816b048177ebe1fa81237520000002810190508360ff16858302908060020a82049150509150816a5263fe90242dcbacf0000002810190508360ff16858302908060020a82049150509150816a057e22099c030d9410000002810190508360ff16858302908060020a82049150509150816957e22099c030d941000002810190508360ff16858302908060020a820491505091508169052b6b5456997631000002810190508360ff16858302908060020a8204915050915081684985f67696bf74800002810190508360ff16858302908060020a82049150509150816803dea12ea99e49800002810190508360ff16858302908060020a82049150509150816731880f2214b6e00002810190508360ff16858302908060020a820491505091508167025bcff56eb3600002810190508360ff16858302908060020a8204915050915081661b722e10ab100002810190508360ff16858302908060020a82049150509150816601317c7007700002810190508360ff16858302908060020a8204915050915081650cba84aafa0002810190508360ff16858302908060020a82049150509150816482573a0a0002810190508360ff16858302908060020a82049150509150816405035ad90002810190508360ff16858302908060020a8204915050915081632f881b0002810190508360ff16858302908060020a82049150509150816301b2934002810190508360ff16858302908060020a8204915050915081620efc4002810190508360ff16858302908060020a8204915050915081617fe002810190508360ff16858302908060020a820491505091508161042002810190508360ff16858302908060020a8204915050915081602102810190508360ff16858302908060020a8204915050915081600102810190508360ff1660019060020a02856f0688589cc0e9505e2f2fee55800000008381151561131a57fe5b04010195945050505050565b600080610100831015611350575b600183111561134b57600290920491600101611334565b61138b565b60805b60008160ff1611156113895760ff811660020a841061137c5760ff811660020a90930492908117905b600260ff90911604611353565b505b92915050565b600154604080517fef2244c200000000000000000000000000000000000000000000000000000000815260ff841660048201529051600092839273ffffffffffffffffffffffffffffffffffffffff9091169163ef2244c291602480820192602092909190829003018186803b15801561140a57600080fd5b505afa15801561141e573d6000803e3d6000fd5b505050506040513d602081101561143457600080fd5b5051939250505056fea165627a7a7230582012877527e44f44f0d44553128f41fa07cfe7a6797ad91109b8ecc2f41e44f5580029",
  "source": "pragma solidity ^0.5.0;\n\nimport './ExpArray.sol';\n\n/**\n * BancorFormula code copied from\n * the BancorProtocol repo to give\n * full functionality and to prevent\n * need to re-invent the wheel.\n *\n * Had to then break out ExpArray as\n * a separate contract to allow deployment\n * to Ropsten. Removed unused functions.\n *\n * original source: \n * https://github.com/bancorprotocol/contracts/blob/master/solidity/contracts/converter/BancorFormula.sol\n * \n * and\n *\n * https://github.com/bancorprotocol/contracts/blob/master/solidity/contracts/utility/Utils.sol\n *\n * Copyright 2017 Bprotocol Foundation\n *\n * Licensed under the Apache License, Version 2.0 (the \"License\");\n * you may not use this file except in compliance with the License.\n * You may obtain a copy of the License at\n\n * http://www.apache.org/licenses/LICENSE-2.0\n */\n\ncontract BancorFormula {\n    string public version = '0.3';\n\n    uint256 private constant ONE = 1;\n    uint32 private constant MAX_WEIGHT = 1000000;\n    uint8 private constant MIN_PRECISION = 32;\n    uint8 private constant MAX_PRECISION = 127;\n\n    ExpArray public expArray;\n\n    constructor(address _exp) public {\n        expArray = ExpArray(_exp);\n    }\n\n    function safeAdd(uint256 _x, uint256 _y) internal pure returns (uint256) {\n        uint256 z = _x + _y;\n        assert(z >= _x);\n        return z;\n    }\n\n    function safeSub(uint256 _x, uint256 _y) internal pure returns (uint256) {\n        assert(_x >= _y);\n        return _x - _y;\n    }\n\n    function safeMul(uint256 _x, uint256 _y) internal pure returns (uint256) {\n        uint256 z = _x * _y;\n        assert(_x == 0 || z / _x == _y);\n        return z;\n    }\n\n    /**\n        Auto-generated via 'PrintIntScalingFactors.py'\n    */\n    uint256 private constant FIXED_1 = 0x080000000000000000000000000000000;\n    uint256 private constant FIXED_2 = 0x100000000000000000000000000000000;\n    uint256 private constant MAX_NUM = 0x200000000000000000000000000000000;\n    /**\n        Auto-generated via 'PrintLn2ScalingFactors.py'\n    */\n    uint256 private constant LN2_NUMERATOR   = 0x3f80fe03f80fe03f80fe03f80fe03f8;\n    uint256 private constant LN2_DENOMINATOR = 0x5b9de1d10bf4103d647b0955897ba80;\n\n    /**\n        Auto-generated via 'PrintFunctionOptimalLog.py' and 'PrintFunctionOptimalExp.py'\n    */\n    uint256 private constant OPT_LOG_MAX_VAL = 0x15bf0a8b1457695355fb8ac404e7a79e3;\n    uint256 private constant OPT_EXP_MAX_VAL = 0x800000000000000000000000000000000;\n\n\n    /**\n        @dev given a token supply, connector balance, weight and a deposit amount (in the connector token),\n        calculates the return for a given conversion (in the main token)\n        Formula:\n        Return = _supply * ((1 + _depositAmount / _connectorBalance) ^ (_connectorWeight / 1000000) - 1)\n        @param _supply              token total supply\n        @param _connectorBalance    total connector balance\n        @param _connectorWeight     connector weight, represented in ppm, 1-1000000\n        @param _depositAmount       deposit amount, in connector token\n        @return purchase return amount\n    */\n    function calculatePurchaseReturn(uint256 _supply, uint256 _connectorBalance, uint32 _connectorWeight, uint256 _depositAmount) public view returns (uint256) {\n        // validate input\n        require(_supply > 0 && _connectorBalance > 0 && _connectorWeight > 0 && _connectorWeight <= MAX_WEIGHT);\n\n        // special case for 0 deposit amount\n        if (_depositAmount == 0)\n            return 0;\n\n        // special case if the weight = 100%\n        if (_connectorWeight == MAX_WEIGHT)\n            return safeMul(_supply, _depositAmount) / _connectorBalance;\n\n        uint256 result;\n        uint8 precision;\n        uint256 baseN = safeAdd(_depositAmount, _connectorBalance);\n        (result, precision) = power(baseN, _connectorBalance, _connectorWeight, MAX_WEIGHT);\n        uint256 temp = safeMul(_supply, result) >> precision;\n        return temp - _supply;\n    }\n\n    /**\n        @dev given a token supply, connector balance, weight and a sell amount (in the main token),\n        calculates the return for a given conversion (in the connector token)\n        Formula:\n        Return = _connectorBalance * (1 - (1 - _sellAmount / _supply) ^ (1 / (_connectorWeight / 1000000)))\n        @param _supply              token total supply\n        @param _connectorBalance    total connector\n        @param _connectorWeight     constant connector Weight, represented in ppm, 1-1000000\n        @param _sellAmount          sell amount, in the token itself\n        @return sale return amount\n    */\n    function calculateSaleReturn(uint256 _supply, uint256 _connectorBalance, uint32 _connectorWeight, uint256 _sellAmount) public view returns (uint256) {\n        // validate input\n        require(_supply > 0 && _connectorBalance > 0 && _connectorWeight > 0 && _connectorWeight <= MAX_WEIGHT && _sellAmount <= _supply);\n\n        // special case for 0 sell amount\n        if (_sellAmount == 0)\n            return 0;\n\n        // special case for selling the entire supply\n        if (_sellAmount == _supply)\n            return _connectorBalance;\n\n        // special case if the weight = 100%\n        if (_connectorWeight == MAX_WEIGHT)\n            return safeMul(_connectorBalance, _sellAmount) / _supply;\n\n        uint256 result;\n        uint8 precision;\n        uint256 baseD = _supply - _sellAmount;\n        (result, precision) = power(_supply, baseD, MAX_WEIGHT, _connectorWeight);\n        uint256 temp1 = safeMul(_connectorBalance, result);\n        uint256 temp2 = _connectorBalance << precision;\n        return (temp1 - temp2) / result;\n    }\n\n\n    /**\n        General Description:\n            Determine a value of precision.\n            Calculate an integer approximation of (_baseN / _baseD) ^ (_expN / _expD) * 2 ^ precision.\n            Return the result along with the precision used.\n        Detailed Description:\n            Instead of calculating \"base ^ exp\", we calculate \"e ^ (log(base) * exp)\".\n            The value of \"log(base)\" is represented with an integer slightly smaller than \"log(base) * 2 ^ precision\".\n            The larger \"precision\" is, the more accurately this value represents the real value.\n            However, the larger \"precision\" is, the more bits are required in order to store this value.\n            And the exponentiation function, which takes \"x\" and calculates \"e ^ x\", is limited to a maximum exponent (maximum value of \"x\").\n            This maximum exponent depends on the \"precision\" used, and it is given by \"maxExpArray[precision] >> (MAX_PRECISION - precision)\".\n            Hence we need to determine the highest precision which can be used for the given input, before calling the exponentiation function.\n            This allows us to compute \"base ^ exp\" with maximum accuracy and without exceeding 256 bits in any of the intermediate computations.\n            This functions assumes that \"_expN < 2 ^ 256 / log(MAX_NUM - 1)\", otherwise the multiplication should be replaced with a \"safeMul\".\n    */\n    function power(uint256 _baseN, uint256 _baseD, uint32 _expN, uint32 _expD) internal view returns (uint256, uint8) {\n        assert(_baseN < MAX_NUM);\n\n        uint256 baseLog;\n        uint256 base = _baseN * FIXED_1 / _baseD;\n        if (base < OPT_LOG_MAX_VAL) {\n            baseLog = optimalLog(base);\n        }\n        else {\n            baseLog = generalLog(base);\n        }\n\n        uint256 baseLogTimesExp = baseLog * _expN / _expD;\n        if (baseLogTimesExp < OPT_EXP_MAX_VAL) {\n            return (optimalExp(baseLogTimesExp), MAX_PRECISION);\n        }\n        else {\n            uint8 precision = findPositionInMaxExpArray(baseLogTimesExp);\n            return (generalExp(baseLogTimesExp >> (MAX_PRECISION - precision), precision), precision);\n        }\n    }\n\n    /**\n        Compute log(x / FIXED_1) * FIXED_1.\n        This functions assumes that \"x >= FIXED_1\", because the output would be negative otherwise.\n    */\n    function generalLog(uint256 x) internal pure returns (uint256) {\n        uint256 res = 0;\n\n        // If x >= 2, then we compute the integer part of log2(x), which is larger than 0.\n        if (x >= FIXED_2) {\n            uint8 count = floorLog2(x / FIXED_1);\n            x >>= count; // now x < 2\n            res = count * FIXED_1;\n        }\n\n        // If x > 1, then we compute the fraction part of log2(x), which is larger than 0.\n        if (x > FIXED_1) {\n            for (uint8 i = MAX_PRECISION; i > 0; --i) {\n                x = (x * x) / FIXED_1; // now 1 < x < 4\n                if (x >= FIXED_2) {\n                    x >>= 1; // now 1 < x < 2\n                    res += ONE << (i - 1);\n                }\n            }\n        }\n\n        return res * LN2_NUMERATOR / LN2_DENOMINATOR;\n    }\n\n    /**\n        Compute the largest integer smaller than or equal to the binary logarithm of the input.\n    */\n    function floorLog2(uint256 _n) internal pure returns (uint8) {\n        uint8 res = 0;\n\n        if (_n < 256) {\n            // At most 8 iterations\n            while (_n > 1) {\n                _n >>= 1;\n                res += 1;\n            }\n        }\n        else {\n            // Exactly 8 iterations\n            for (uint8 s = 128; s > 0; s >>= 1) {\n                if (_n >= (ONE << s)) {\n                    _n >>= s;\n                    res |= s;\n                }\n            }\n        }\n\n        return res;\n    }\n\n    function maxExpArraySearch(uint8 _val) internal view returns(uint256) {\n        uint256 value = expArray.searchArray(_val);\n        return value;\n    }\n    /**\n        The global \"maxExpArray\" is sorted in descending order, and therefore the following statements are equivalent:\n        - This function finds the position of [the smallest value in \"maxExpArray\" larger than or equal to \"x\"]\n        - This function finds the highest position of [a value in \"maxExpArray\" larger than or equal to \"x\"]\n    */\n    function findPositionInMaxExpArray(uint256 _x) internal view returns (uint8) {\n        uint8 lo = MIN_PRECISION;\n        uint8 hi = MAX_PRECISION;\n\n        while (lo + 1 < hi) {\n            uint8 mid = (lo + hi) / 2;\n            if (maxExpArraySearch(mid) >= _x)\n                lo = mid;\n            else\n                hi = mid;\n        }\n\n        if (maxExpArraySearch(hi) >= _x)\n            return hi;\n        if (maxExpArraySearch(lo) >= _x)\n            return lo;\n\n        assert(false);\n        return 0;\n    }\n\n    /**\n        This function can be auto-generated by the script 'PrintFunctionGeneralExp.py'.\n        It approximates \"e ^ x\" via maclaurin summation: \"(x^0)/0! + (x^1)/1! + ... + (x^n)/n!\".\n        It returns \"e ^ (x / 2 ^ precision) * 2 ^ precision\", that is, the result is upshifted for accuracy.\n        The global \"maxExpArray\" maps each \"precision\" to \"((maximumExponent + 1) << (MAX_PRECISION - precision)) - 1\".\n        The maximum permitted value for \"x\" is therefore given by \"maxExpArray[precision] >> (MAX_PRECISION - precision)\".\n    */\n    function generalExp(uint256 _x, uint8 _precision) internal pure returns (uint256) {\n        uint256 xi = _x;\n        uint256 res = 0;\n\n        xi = (xi * _x) >> _precision; res += xi * 0x3442c4e6074a82f1797f72ac0000000; // add x^02 * (33! / 02!)\n        xi = (xi * _x) >> _precision; res += xi * 0x116b96f757c380fb287fd0e40000000; // add x^03 * (33! / 03!)\n        xi = (xi * _x) >> _precision; res += xi * 0x045ae5bdd5f0e03eca1ff4390000000; // add x^04 * (33! / 04!)\n        xi = (xi * _x) >> _precision; res += xi * 0x00defabf91302cd95b9ffda50000000; // add x^05 * (33! / 05!)\n        xi = (xi * _x) >> _precision; res += xi * 0x002529ca9832b22439efff9b8000000; // add x^06 * (33! / 06!)\n        xi = (xi * _x) >> _precision; res += xi * 0x00054f1cf12bd04e516b6da88000000; // add x^07 * (33! / 07!)\n        xi = (xi * _x) >> _precision; res += xi * 0x0000a9e39e257a09ca2d6db51000000; // add x^08 * (33! / 08!)\n        xi = (xi * _x) >> _precision; res += xi * 0x000012e066e7b839fa050c309000000; // add x^09 * (33! / 09!)\n        xi = (xi * _x) >> _precision; res += xi * 0x000001e33d7d926c329a1ad1a800000; // add x^10 * (33! / 10!)\n        xi = (xi * _x) >> _precision; res += xi * 0x0000002bee513bdb4a6b19b5f800000; // add x^11 * (33! / 11!)\n        xi = (xi * _x) >> _precision; res += xi * 0x00000003a9316fa79b88eccf2a00000; // add x^12 * (33! / 12!)\n        xi = (xi * _x) >> _precision; res += xi * 0x0000000048177ebe1fa812375200000; // add x^13 * (33! / 13!)\n        xi = (xi * _x) >> _precision; res += xi * 0x0000000005263fe90242dcbacf00000; // add x^14 * (33! / 14!)\n        xi = (xi * _x) >> _precision; res += xi * 0x000000000057e22099c030d94100000; // add x^15 * (33! / 15!)\n        xi = (xi * _x) >> _precision; res += xi * 0x0000000000057e22099c030d9410000; // add x^16 * (33! / 16!)\n        xi = (xi * _x) >> _precision; res += xi * 0x00000000000052b6b54569976310000; // add x^17 * (33! / 17!)\n        xi = (xi * _x) >> _precision; res += xi * 0x00000000000004985f67696bf748000; // add x^18 * (33! / 18!)\n        xi = (xi * _x) >> _precision; res += xi * 0x000000000000003dea12ea99e498000; // add x^19 * (33! / 19!)\n        xi = (xi * _x) >> _precision; res += xi * 0x00000000000000031880f2214b6e000; // add x^20 * (33! / 20!)\n        xi = (xi * _x) >> _precision; res += xi * 0x000000000000000025bcff56eb36000; // add x^21 * (33! / 21!)\n        xi = (xi * _x) >> _precision; res += xi * 0x000000000000000001b722e10ab1000; // add x^22 * (33! / 22!)\n        xi = (xi * _x) >> _precision; res += xi * 0x0000000000000000001317c70077000; // add x^23 * (33! / 23!)\n        xi = (xi * _x) >> _precision; res += xi * 0x00000000000000000000cba84aafa00; // add x^24 * (33! / 24!)\n        xi = (xi * _x) >> _precision; res += xi * 0x00000000000000000000082573a0a00; // add x^25 * (33! / 25!)\n        xi = (xi * _x) >> _precision; res += xi * 0x00000000000000000000005035ad900; // add x^26 * (33! / 26!)\n        xi = (xi * _x) >> _precision; res += xi * 0x000000000000000000000002f881b00; // add x^27 * (33! / 27!)\n        xi = (xi * _x) >> _precision; res += xi * 0x0000000000000000000000001b29340; // add x^28 * (33! / 28!)\n        xi = (xi * _x) >> _precision; res += xi * 0x00000000000000000000000000efc40; // add x^29 * (33! / 29!)\n        xi = (xi * _x) >> _precision; res += xi * 0x0000000000000000000000000007fe0; // add x^30 * (33! / 30!)\n        xi = (xi * _x) >> _precision; res += xi * 0x0000000000000000000000000000420; // add x^31 * (33! / 31!)\n        xi = (xi * _x) >> _precision; res += xi * 0x0000000000000000000000000000021; // add x^32 * (33! / 32!)\n        xi = (xi * _x) >> _precision; res += xi * 0x0000000000000000000000000000001; // add x^33 * (33! / 33!)\n\n        return res / 0x688589cc0e9505e2f2fee5580000000 + _x + (ONE << _precision); // divide by 33! and then add x^1 / 1! + x^0 / 0!\n    }\n\n    /**\n        Return log(x / FIXED_1) * FIXED_1\n        Input range: FIXED_1 <= x <= LOG_EXP_MAX_VAL - 1\n        Auto-generated via 'PrintFunctionOptimalLog.py'\n    */\n    function optimalLog(uint256 x) internal pure returns (uint256) {\n        uint256 res = 0;\n\n        uint256 y;\n        uint256 z;\n        uint256 w;\n\n        if (x >= 0xd3094c70f034de4b96ff7d5b6f99fcd8) {res += 0x40000000000000000000000000000000; x = x * FIXED_1 / 0xd3094c70f034de4b96ff7d5b6f99fcd8;}\n        if (x >= 0xa45af1e1f40c333b3de1db4dd55f29a7) {res += 0x20000000000000000000000000000000; x = x * FIXED_1 / 0xa45af1e1f40c333b3de1db4dd55f29a7;}\n        if (x >= 0x910b022db7ae67ce76b441c27035c6a1) {res += 0x10000000000000000000000000000000; x = x * FIXED_1 / 0x910b022db7ae67ce76b441c27035c6a1;}\n        if (x >= 0x88415abbe9a76bead8d00cf112e4d4a8) {res += 0x08000000000000000000000000000000; x = x * FIXED_1 / 0x88415abbe9a76bead8d00cf112e4d4a8;}\n        if (x >= 0x84102b00893f64c705e841d5d4064bd3) {res += 0x04000000000000000000000000000000; x = x * FIXED_1 / 0x84102b00893f64c705e841d5d4064bd3;}\n        if (x >= 0x8204055aaef1c8bd5c3259f4822735a2) {res += 0x02000000000000000000000000000000; x = x * FIXED_1 / 0x8204055aaef1c8bd5c3259f4822735a2;}\n        if (x >= 0x810100ab00222d861931c15e39b44e99) {res += 0x01000000000000000000000000000000; x = x * FIXED_1 / 0x810100ab00222d861931c15e39b44e99;}\n        if (x >= 0x808040155aabbbe9451521693554f733) {res += 0x00800000000000000000000000000000; x = x * FIXED_1 / 0x808040155aabbbe9451521693554f733;}\n\n        z = y = x - FIXED_1;\n        w = y * y / FIXED_1;\n        res += z * (0x100000000000000000000000000000000 - y) / 0x100000000000000000000000000000000; z = z * w / FIXED_1;\n        res += z * (0x0aaaaaaaaaaaaaaaaaaaaaaaaaaaaaaaa - y) / 0x200000000000000000000000000000000; z = z * w / FIXED_1;\n        res += z * (0x099999999999999999999999999999999 - y) / 0x300000000000000000000000000000000; z = z * w / FIXED_1;\n        res += z * (0x092492492492492492492492492492492 - y) / 0x400000000000000000000000000000000; z = z * w / FIXED_1;\n        res += z * (0x08e38e38e38e38e38e38e38e38e38e38e - y) / 0x500000000000000000000000000000000; z = z * w / FIXED_1;\n        res += z * (0x08ba2e8ba2e8ba2e8ba2e8ba2e8ba2e8b - y) / 0x600000000000000000000000000000000; z = z * w / FIXED_1;\n        res += z * (0x089d89d89d89d89d89d89d89d89d89d89 - y) / 0x700000000000000000000000000000000; z = z * w / FIXED_1;\n        res += z * (0x088888888888888888888888888888888 - y) / 0x800000000000000000000000000000000;\n\n        return res;\n    }\n\n    /**\n        Return e ^ (x / FIXED_1) * FIXED_1\n        Input range: 0 <= x <= OPT_EXP_MAX_VAL - 1\n        Auto-generated via 'PrintFunctionOptimalExp.py'\n    */\n    function optimalExp(uint256 x) internal pure returns (uint256) {\n        uint256 res = 0;\n\n        uint256 y;\n        uint256 z;\n\n        z = y = x % 0x10000000000000000000000000000000;\n        z = z * y / FIXED_1; res += z * 0x10e1b3be415a0000; // add y^02 * (20! / 02!)\n        z = z * y / FIXED_1; res += z * 0x05a0913f6b1e0000; // add y^03 * (20! / 03!)\n        z = z * y / FIXED_1; res += z * 0x0168244fdac78000; // add y^04 * (20! / 04!)\n        z = z * y / FIXED_1; res += z * 0x004807432bc18000; // add y^05 * (20! / 05!)\n        z = z * y / FIXED_1; res += z * 0x000c0135dca04000; // add y^06 * (20! / 06!)\n        z = z * y / FIXED_1; res += z * 0x0001b707b1cdc000; // add y^07 * (20! / 07!)\n        z = z * y / FIXED_1; res += z * 0x000036e0f639b800; // add y^08 * (20! / 08!)\n        z = z * y / FIXED_1; res += z * 0x00000618fee9f800; // add y^09 * (20! / 09!)\n        z = z * y / FIXED_1; res += z * 0x0000009c197dcc00; // add y^10 * (20! / 10!)\n        z = z * y / FIXED_1; res += z * 0x0000000e30dce400; // add y^11 * (20! / 11!)\n        z = z * y / FIXED_1; res += z * 0x000000012ebd1300; // add y^12 * (20! / 12!)\n        z = z * y / FIXED_1; res += z * 0x0000000017499f00; // add y^13 * (20! / 13!)\n        z = z * y / FIXED_1; res += z * 0x0000000001a9d480; // add y^14 * (20! / 14!)\n        z = z * y / FIXED_1; res += z * 0x00000000001c6380; // add y^15 * (20! / 15!)\n        z = z * y / FIXED_1; res += z * 0x000000000001c638; // add y^16 * (20! / 16!)\n        z = z * y / FIXED_1; res += z * 0x0000000000001ab8; // add y^17 * (20! / 17!)\n        z = z * y / FIXED_1; res += z * 0x000000000000017c; // add y^18 * (20! / 18!)\n        z = z * y / FIXED_1; res += z * 0x0000000000000014; // add y^19 * (20! / 19!)\n        z = z * y / FIXED_1; res += z * 0x0000000000000001; // add y^20 * (20! / 20!)\n        res = res / 0x21c3677c82b40000 + y + FIXED_1; // divide by 20! and then add y^1 / 1! + y^0 / 0!\n\n        if ((x & 0x010000000000000000000000000000000) != 0) res = res * 0x1c3d6a24ed82218787d624d3e5eba95f9 / 0x18ebef9eac820ae8682b9793ac6d1e776;\n        if ((x & 0x020000000000000000000000000000000) != 0) res = res * 0x18ebef9eac820ae8682b9793ac6d1e778 / 0x1368b2fc6f9609fe7aceb46aa619baed4;\n        if ((x & 0x040000000000000000000000000000000) != 0) res = res * 0x1368b2fc6f9609fe7aceb46aa619baed5 / 0x0bc5ab1b16779be3575bd8f0520a9f21f;\n        if ((x & 0x080000000000000000000000000000000) != 0) res = res * 0x0bc5ab1b16779be3575bd8f0520a9f21e / 0x0454aaa8efe072e7f6ddbab84b40a55c9;\n        if ((x & 0x100000000000000000000000000000000) != 0) res = res * 0x0454aaa8efe072e7f6ddbab84b40a55c5 / 0x00960aadc109e7a3bf4578099615711ea;\n        if ((x & 0x200000000000000000000000000000000) != 0) res = res * 0x00960aadc109e7a3bf4578099615711d7 / 0x0002bf84208204f5977f9a8cf01fdce3d;\n        if ((x & 0x400000000000000000000000000000000) != 0) res = res * 0x0002bf84208204f5977f9a8cf01fdc307 / 0x0000003c6ab775dd0b95b4cbee7e65d11;\n\n        return res;\n    }\n}\n",
  "sourcePath": "/Users/hadar/workspace/GoodDollar/GoodBootstrap/packages/contracts/contracts/BancorFormula.sol",
  "compiler": {
    "name": "solc",
    "version": "0.5.2+commit.1df8f40c.Emscripten.clang"
  },
  "schemaVersion": "3.0.9",
  "updatedAt": "2019-08-13T14:06:31.913Z",
  "devdoc": {
    "methods": {
      "calculatePurchaseReturn(uint256,uint256,uint32,uint256)": {
        "details": "given a token supply, connector balance, weight and a deposit amount (in the connector token), calculates the return for a given conversion (in the main token) Formula: Return = _supply * ((1 + _depositAmount / _connectorBalance) ^ (_connectorWeight / 1000000) - 1)",
        "params": {
          "_connectorBalance": "total connector balance",
          "_connectorWeight": "connector weight, represented in ppm, 1-1000000",
          "_depositAmount": "deposit amount, in connector token",
          "_supply": "token total supply"
        },
        "return": "purchase return amount"
      },
      "calculateSaleReturn(uint256,uint256,uint32,uint256)": {
        "details": "given a token supply, connector balance, weight and a sell amount (in the main token), calculates the return for a given conversion (in the connector token) Formula: Return = _connectorBalance * (1 - (1 - _sellAmount / _supply) ^ (1 / (_connectorWeight / 1000000)))",
        "params": {
          "_connectorBalance": "total connector",
          "_connectorWeight": "constant connector Weight, represented in ppm, 1-1000000",
          "_sellAmount": "sell amount, in the token itself",
          "_supply": "token total supply"
        },
        "return": "sale return amount"
      }
    }
  },
  "userdoc": {
    "methods": {},
    "notice": "BancorFormula code copied from the BancorProtocol repo to give full functionality and to prevent need to re-invent the wheel. * Had to then break out ExpArray as a separate contract to allow deployment to Ropsten. Removed unused functions. * original source:  https://github.com/bancorprotocol/contracts/blob/master/solidity/contracts/converter/BancorFormula.sol  * and * https://github.com/bancorprotocol/contracts/blob/master/solidity/contracts/utility/Utils.sol * Copyright 2017 Bprotocol Foundation * Licensed under the Apache License, Version 2.0 (the \"License\"); you may not use this file except in compliance with the License. You may obtain a copy of the License at http://www.apache.org/licenses/LICENSE-2.0"
  }
}