{
  "contractName": "Controller",
  "abi": [
    {
      "constant": true,
      "inputs": [
        {
          "name": "",
          "type": "address"
        }
      ],
      "name": "globalConstraintsRegisterPre",
      "outputs": [
        {
          "name": "isRegistered",
          "type": "bool"
        },
        {
          "name": "index",
          "type": "uint256"
        }
      ],
      "payable": false,
      "stateMutability": "view",
      "type": "function"
    },
    {
      "constant": true,
      "inputs": [],
      "name": "newController",
      "outputs": [
        {
          "name": "",
          "type": "address"
        }
      ],
      "payable": false,
      "stateMutability": "view",
      "type": "function"
    },
    {
      "constant": true,
      "inputs": [
        {
          "name": "",
          "type": "uint256"
        }
      ],
      "name": "globalConstraintsPre",
      "outputs": [
        {
          "name": "gcAddress",
          "type": "address"
        },
        {
          "name": "params",
          "type": "bytes32"
        }
      ],
      "payable": false,
      "stateMutability": "view",
      "type": "function"
    },
    {
      "constant": true,
      "inputs": [],
      "name": "avatar",
      "outputs": [
        {
          "name": "",
          "type": "address"
        }
      ],
      "payable": false,
      "stateMutability": "view",
      "type": "function"
    },
    {
      "constant": true,
      "inputs": [
        {
          "name": "",
          "type": "address"
        }
      ],
      "name": "globalConstraintsRegisterPost",
      "outputs": [
        {
          "name": "isRegistered",
          "type": "bool"
        },
        {
          "name": "index",
          "type": "uint256"
        }
      ],
      "payable": false,
      "stateMutability": "view",
      "type": "function"
    },
    {
      "constant": true,
      "inputs": [],
      "name": "nativeReputation",
      "outputs": [
        {
          "name": "",
          "type": "address"
        }
      ],
      "payable": false,
      "stateMutability": "view",
      "type": "function"
    },
    {
      "constant": true,
      "inputs": [
        {
          "name": "",
          "type": "address"
        }
      ],
      "name": "schemes",
      "outputs": [
        {
          "name": "paramsHash",
          "type": "bytes32"
        },
        {
          "name": "permissions",
          "type": "bytes4"
        }
      ],
      "payable": false,
      "stateMutability": "view",
      "type": "function"
    },
    {
      "constant": true,
      "inputs": [],
      "name": "nativeToken",
      "outputs": [
        {
          "name": "",
          "type": "address"
        }
      ],
      "payable": false,
      "stateMutability": "view",
      "type": "function"
    },
    {
      "constant": true,
      "inputs": [
        {
          "name": "",
          "type": "uint256"
        }
      ],
      "name": "globalConstraintsPost",
      "outputs": [
        {
          "name": "gcAddress",
          "type": "address"
        },
        {
          "name": "params",
          "type": "bytes32"
        }
      ],
      "payable": false,
      "stateMutability": "view",
      "type": "function"
    },
    {
      "inputs": [
        {
          "name": "_avatar",
          "type": "address"
        }
      ],
      "payable": false,
      "stateMutability": "nonpayable",
      "type": "constructor"
    },
    {
      "payable": false,
      "stateMutability": "nonpayable",
      "type": "fallback"
    },
    {
      "anonymous": false,
      "inputs": [
        {
          "indexed": true,
          "name": "_sender",
          "type": "address"
        },
        {
          "indexed": true,
          "name": "_to",
          "type": "address"
        },
        {
          "indexed": false,
          "name": "_amount",
          "type": "uint256"
        }
      ],
      "name": "MintReputation",
      "type": "event"
    },
    {
      "anonymous": false,
      "inputs": [
        {
          "indexed": true,
          "name": "_sender",
          "type": "address"
        },
        {
          "indexed": true,
          "name": "_from",
          "type": "address"
        },
        {
          "indexed": false,
          "name": "_amount",
          "type": "uint256"
        }
      ],
      "name": "BurnReputation",
      "type": "event"
    },
    {
      "anonymous": false,
      "inputs": [
        {
          "indexed": true,
          "name": "_sender",
          "type": "address"
        },
        {
          "indexed": true,
          "name": "_beneficiary",
          "type": "address"
        },
        {
          "indexed": false,
          "name": "_amount",
          "type": "uint256"
        }
      ],
      "name": "MintTokens",
      "type": "event"
    },
    {
      "anonymous": false,
      "inputs": [
        {
          "indexed": true,
          "name": "_sender",
          "type": "address"
        },
        {
          "indexed": true,
          "name": "_scheme",
          "type": "address"
        }
      ],
      "name": "RegisterScheme",
      "type": "event"
    },
    {
      "anonymous": false,
      "inputs": [
        {
          "indexed": true,
          "name": "_sender",
          "type": "address"
        },
        {
          "indexed": true,
          "name": "_scheme",
          "type": "address"
        }
      ],
      "name": "UnregisterScheme",
      "type": "event"
    },
    {
      "anonymous": false,
      "inputs": [
        {
          "indexed": true,
          "name": "_oldController",
          "type": "address"
        },
        {
          "indexed": false,
          "name": "_newController",
          "type": "address"
        }
      ],
      "name": "UpgradeController",
      "type": "event"
    },
    {
      "anonymous": false,
      "inputs": [
        {
          "indexed": true,
          "name": "_globalConstraint",
          "type": "address"
        },
        {
          "indexed": false,
          "name": "_params",
          "type": "bytes32"
        },
        {
          "indexed": false,
          "name": "_when",
          "type": "uint8"
        }
      ],
      "name": "AddGlobalConstraint",
      "type": "event"
    },
    {
      "anonymous": false,
      "inputs": [
        {
          "indexed": true,
          "name": "_globalConstraint",
          "type": "address"
        },
        {
          "indexed": false,
          "name": "_index",
          "type": "uint256"
        },
        {
          "indexed": false,
          "name": "_isPre",
          "type": "bool"
        }
      ],
      "name": "RemoveGlobalConstraint",
      "type": "event"
    },
    {
      "constant": false,
      "inputs": [
        {
          "name": "_amount",
          "type": "uint256"
        },
        {
          "name": "_to",
          "type": "address"
        },
        {
          "name": "_avatar",
          "type": "address"
        }
      ],
      "name": "mintReputation",
      "outputs": [
        {
          "name": "",
          "type": "bool"
        }
      ],
      "payable": false,
      "stateMutability": "nonpayable",
      "type": "function"
    },
    {
      "constant": false,
      "inputs": [
        {
          "name": "_amount",
          "type": "uint256"
        },
        {
          "name": "_from",
          "type": "address"
        },
        {
          "name": "_avatar",
          "type": "address"
        }
      ],
      "name": "burnReputation",
      "outputs": [
        {
          "name": "",
          "type": "bool"
        }
      ],
      "payable": false,
      "stateMutability": "nonpayable",
      "type": "function"
    },
    {
      "constant": false,
      "inputs": [
        {
          "name": "_amount",
          "type": "uint256"
        },
        {
          "name": "_beneficiary",
          "type": "address"
        },
        {
          "name": "_avatar",
          "type": "address"
        }
      ],
      "name": "mintTokens",
      "outputs": [
        {
          "name": "",
          "type": "bool"
        }
      ],
      "payable": false,
      "stateMutability": "nonpayable",
      "type": "function"
    },
    {
      "constant": false,
      "inputs": [
        {
          "name": "_scheme",
          "type": "address"
        },
        {
          "name": "_paramsHash",
          "type": "bytes32"
        },
        {
          "name": "_permissions",
          "type": "bytes4"
        },
        {
          "name": "_avatar",
          "type": "address"
        }
      ],
      "name": "registerScheme",
      "outputs": [
        {
          "name": "",
          "type": "bool"
        }
      ],
      "payable": false,
      "stateMutability": "nonpayable",
      "type": "function"
    },
    {
      "constant": false,
      "inputs": [
        {
          "name": "_scheme",
          "type": "address"
        },
        {
          "name": "_avatar",
          "type": "address"
        }
      ],
      "name": "unregisterScheme",
      "outputs": [
        {
          "name": "",
          "type": "bool"
        }
      ],
      "payable": false,
      "stateMutability": "nonpayable",
      "type": "function"
    },
    {
      "constant": false,
      "inputs": [
        {
          "name": "_avatar",
          "type": "address"
        }
      ],
      "name": "unregisterSelf",
      "outputs": [
        {
          "name": "",
          "type": "bool"
        }
      ],
      "payable": false,
      "stateMutability": "nonpayable",
      "type": "function"
    },
    {
      "constant": false,
      "inputs": [
        {
          "name": "_globalConstraint",
          "type": "address"
        },
        {
          "name": "_params",
          "type": "bytes32"
        },
        {
          "name": "_avatar",
          "type": "address"
        }
      ],
      "name": "addGlobalConstraint",
      "outputs": [
        {
          "name": "",
          "type": "bool"
        }
      ],
      "payable": false,
      "stateMutability": "nonpayable",
      "type": "function"
    },
    {
      "constant": false,
      "inputs": [
        {
          "name": "_globalConstraint",
          "type": "address"
        },
        {
          "name": "_avatar",
          "type": "address"
        }
      ],
      "name": "removeGlobalConstraint",
      "outputs": [
        {
          "name": "",
          "type": "bool"
        }
      ],
      "payable": false,
      "stateMutability": "nonpayable",
      "type": "function"
    },
    {
      "constant": false,
      "inputs": [
        {
          "name": "_newController",
          "type": "address"
        },
        {
          "name": "_avatar",
          "type": "address"
        }
      ],
      "name": "upgradeController",
      "outputs": [
        {
          "name": "",
          "type": "bool"
        }
      ],
      "payable": false,
      "stateMutability": "nonpayable",
      "type": "function"
    },
    {
      "constant": false,
      "inputs": [
        {
          "name": "_contract",
          "type": "address"
        },
        {
          "name": "_data",
          "type": "bytes"
        },
        {
          "name": "_avatar",
          "type": "address"
        },
        {
          "name": "_value",
          "type": "uint256"
        }
      ],
      "name": "genericCall",
      "outputs": [
        {
          "name": "",
          "type": "bool"
        },
        {
          "name": "",
          "type": "bytes"
        }
      ],
      "payable": false,
      "stateMutability": "nonpayable",
      "type": "function"
    },
    {
      "constant": false,
      "inputs": [
        {
          "name": "_amountInWei",
          "type": "uint256"
        },
        {
          "name": "_to",
          "type": "address"
        },
        {
          "name": "_avatar",
          "type": "address"
        }
      ],
      "name": "sendEther",
      "outputs": [
        {
          "name": "",
          "type": "bool"
        }
      ],
      "payable": false,
      "stateMutability": "nonpayable",
      "type": "function"
    },
    {
      "constant": false,
      "inputs": [
        {
          "name": "_externalToken",
          "type": "address"
        },
        {
          "name": "_to",
          "type": "address"
        },
        {
          "name": "_value",
          "type": "uint256"
        },
        {
          "name": "_avatar",
          "type": "address"
        }
      ],
      "name": "externalTokenTransfer",
      "outputs": [
        {
          "name": "",
          "type": "bool"
        }
      ],
      "payable": false,
      "stateMutability": "nonpayable",
      "type": "function"
    },
    {
      "constant": false,
      "inputs": [
        {
          "name": "_externalToken",
          "type": "address"
        },
        {
          "name": "_from",
          "type": "address"
        },
        {
          "name": "_to",
          "type": "address"
        },
        {
          "name": "_value",
          "type": "uint256"
        },
        {
          "name": "_avatar",
          "type": "address"
        }
      ],
      "name": "externalTokenTransferFrom",
      "outputs": [
        {
          "name": "",
          "type": "bool"
        }
      ],
      "payable": false,
      "stateMutability": "nonpayable",
      "type": "function"
    },
    {
      "constant": false,
      "inputs": [
        {
          "name": "_externalToken",
          "type": "address"
        },
        {
          "name": "_spender",
          "type": "address"
        },
        {
          "name": "_value",
          "type": "uint256"
        },
        {
          "name": "_avatar",
          "type": "address"
        }
      ],
      "name": "externalTokenApproval",
      "outputs": [
        {
          "name": "",
          "type": "bool"
        }
      ],
      "payable": false,
      "stateMutability": "nonpayable",
      "type": "function"
    },
    {
      "constant": false,
      "inputs": [
        {
          "name": "_metaData",
          "type": "string"
        },
        {
          "name": "_avatar",
          "type": "address"
        }
      ],
      "name": "metaData",
      "outputs": [
        {
          "name": "",
          "type": "bool"
        }
      ],
      "payable": false,
      "stateMutability": "nonpayable",
      "type": "function"
    },
    {
      "constant": true,
      "inputs": [
        {
          "name": "_avatar",
          "type": "address"
        }
      ],
      "name": "getNativeReputation",
      "outputs": [
        {
          "name": "",
          "type": "address"
        }
      ],
      "payable": false,
      "stateMutability": "view",
      "type": "function"
    },
    {
      "constant": true,
      "inputs": [
        {
          "name": "_scheme",
          "type": "address"
        },
        {
          "name": "_avatar",
          "type": "address"
        }
      ],
      "name": "isSchemeRegistered",
      "outputs": [
        {
          "name": "",
          "type": "bool"
        }
      ],
      "payable": false,
      "stateMutability": "view",
      "type": "function"
    },
    {
      "constant": true,
      "inputs": [
        {
          "name": "_scheme",
          "type": "address"
        },
        {
          "name": "_avatar",
          "type": "address"
        }
      ],
      "name": "getSchemeParameters",
      "outputs": [
        {
          "name": "",
          "type": "bytes32"
        }
      ],
      "payable": false,
      "stateMutability": "view",
      "type": "function"
    },
    {
      "constant": true,
      "inputs": [
        {
          "name": "_scheme",
          "type": "address"
        },
        {
          "name": "_avatar",
          "type": "address"
        }
      ],
      "name": "getSchemePermissions",
      "outputs": [
        {
          "name": "",
          "type": "bytes4"
        }
      ],
      "payable": false,
      "stateMutability": "view",
      "type": "function"
    },
    {
      "constant": true,
      "inputs": [
        {
          "name": "_globalConstraint",
          "type": "address"
        },
        {
          "name": "",
          "type": "address"
        }
      ],
      "name": "getGlobalConstraintParameters",
      "outputs": [
        {
          "name": "",
          "type": "bytes32"
        }
      ],
      "payable": false,
      "stateMutability": "view",
      "type": "function"
    },
    {
      "constant": true,
      "inputs": [
        {
          "name": "_avatar",
          "type": "address"
        }
      ],
      "name": "globalConstraintsCount",
      "outputs": [
        {
          "name": "",
          "type": "uint256"
        },
        {
          "name": "",
          "type": "uint256"
        }
      ],
      "payable": false,
      "stateMutability": "view",
      "type": "function"
    },
    {
      "constant": true,
      "inputs": [
        {
          "name": "_globalConstraint",
          "type": "address"
        },
        {
          "name": "_avatar",
          "type": "address"
        }
      ],
      "name": "isGlobalConstraintRegistered",
      "outputs": [
        {
          "name": "",
          "type": "bool"
        }
      ],
      "payable": false,
      "stateMutability": "view",
      "type": "function"
    }
  ],
  "bytecode": "0x60806040523480156200001157600080fd5b5060405160208062003f0b833981018060405260208110156200003357600080fd5b505160018054600160a060020a031916600160a060020a038084169190911791829055604080517fe1758bd80000000000000000000000000000000000000000000000000000000081529051929091169163e1758bd891600480820192602092909190829003018186803b158015620000ab57600080fd5b505afa158015620000c0573d6000803e3d6000fd5b505050506040513d6020811015620000d757600080fd5b505160028054600160a060020a031916600160a060020a03928316179055600154604080517f89ae1c90000000000000000000000000000000000000000000000000000000008152905191909216916389ae1c90916004808301926020929190829003018186803b1580156200014c57600080fd5b505afa15801562000161573d6000803e3d6000fd5b505050506040513d60208110156200017857600080fd5b505160038054600160a060020a031916600160a060020a039092169190911790555060408051808201825260008082527c1f000000000000000000000000000000000000000000000000000000006020808401918252338352829052928120915182559151600191909101805463ffffffff19167c0100000000000000000000000000000000000000000000000000000000909204919091179055613ce79081906200022490396000f3fe608060405234801561001057600080fd5b50600436106101e95760003560e060020a9004806389ae1c9011610113578063e08738da116100a6578063e8c98b2211610075578063e8c98b2214610842578063eaf994b21461085f578063f76488be14610893578063fb4856a2146108c1576101e9565b8063e08738da14610792578063e1758bd8146107c0578063e4537a74146107c8578063e869d45f146107fe576101e9565b8063b9a04cdd116100e2578063b9a04cdd14610583578063c9b62eb1146105bf578063d1b7089a14610638578063db6149ce1461074a576101e9565b806389ae1c90146104dc5780638da03997146104e45780639b51e35a1461050a5780639be2faed14610555576101e9565b806351803cd81161018b5780636c525b131161015a5780636c525b131461041d5780636e94d27814610443578063814784f614610477578063824f2f1f1461049d576101e9565b806351803cd8146103715780635aef7de6146103ad578063634965da146103b55780636407e432146103e9576101e9565b80633a02263c116101c75780633a02263c146102b157806342427bf8146102d55780634422d372146103035780634f52b5be14610343576101e9565b8063039de01d146101ee578063177eebb0146102305780631c4d560814610271575b600080fd5b61021c6004803603604081101561020457600080fd5b50600160a060020a0381358116916020013516610907565b604080519115158252519081900360200190f35b6102566004803603602081101561024657600080fd5b5035600160a060020a0316610c60565b60408051921515835260208301919091528051918290030190f35b61029f6004803603604081101561028757600080fd5b50600160a060020a0381358116916020013516610c7f565b60408051918252519081900360200190f35b6102b9610cc1565b60408051600160a060020a039092168252519081900360200190f35b61021c600480360360408110156102eb57600080fd5b50600160a060020a0381358116916020013516610cd0565b6103206004803603602081101561031957600080fd5b5035611243565b60408051600160a060020a03909316835260208301919091528051918290030190f35b61021c6004803603604081101561035957600080fd5b50600160a060020a0381358116916020013516611279565b61021c6004803603608081101561038757600080fd5b50600160a060020a038135811691602081013582169160408201359160600135166116ad565b6102b96119b5565b61021c600480360360608110156103cb57600080fd5b50803590600160a060020a03602082013581169160400135166119c4565b61021c600480360360608110156103ff57600080fd5b50803590600160a060020a0360208201358116916040013516611cc3565b61021c6004803603602081101561043357600080fd5b5035600160a060020a0316611ff9565b61021c6004803603606081101561045957600080fd5b50803590600160a060020a0360208201358116916040013516612082565b6102566004803603602081101561048d57600080fd5b5035600160a060020a03166123b8565b6104c3600480360360208110156104b357600080fd5b5035600160a060020a03166123d7565b6040805192835260208301919091528051918290030190f35b6102b9612409565b6102b9600480360360208110156104fa57600080fd5b5035600160a060020a0316612418565b6105386004803603604081101561052057600080fd5b50600160a060020a038135811691602001351661244a565b60408051600160e060020a03199092168252519081900360200190f35b61021c6004803603604081101561056b57600080fd5b50600160a060020a0381358116916020013516612490565b61021c6004803603608081101561059957600080fd5b50600160a060020a038135811691602081013582169160408201359160600135166124c0565b61021c600480360360408110156105d557600080fd5b8101906020810181356401000000008111156105f057600080fd5b82018360208201111561060257600080fd5b8035906020019184600183028401116401000000008311171561062457600080fd5b919350915035600160a060020a03166127be565b6106c76004803603608081101561064e57600080fd5b600160a060020a03823516919081019060408101602082013564010000000081111561067957600080fd5b82018360208201111561068b57600080fd5b803590602001918460018302840111640100000000831117156106ad57600080fd5b9193509150600160a060020a0381351690602001356128e3565b604051808315151515815260200180602001828103825283818151815260200191508051906020019080838360005b8381101561070e5781810151838201526020016106f6565b50505050905090810190601f16801561073b5780820380516001836020036101000a031916815260200191505b50935050505060405180910390f35b6107706004803603602081101561076057600080fd5b5035600160a060020a0316612ca4565b60408051928352600160e060020a031990911660208301528051918290030190f35b61029f600480360360408110156107a857600080fd5b50600160a060020a0381358116916020013516612cc3565b6102b9612d93565b61021c600480360360608110156107de57600080fd5b50600160a060020a03813581169160208101359160409091013516612da2565b61021c6004803603608081101561081457600080fd5b50600160a060020a038135811691602081013591600160e060020a03196040830135169160600135166131ab565b6103206004803603602081101561085857600080fd5b5035613554565b61021c6004803603606081101561087557600080fd5b50803590600160a060020a0360208201358116916040013516613562565b61021c600480360360408110156108a957600080fd5b50600160a060020a0381358116916020013516613898565b61021c600480360360a08110156108d757600080fd5b50600160a060020a03813581169160208101358216916040820135811691606081013591608090910135166138fa565b3360009081526020819052604081206001015460e060020a027c02000000000000000000000000000000000000000000000000000000009081161461094b57600080fd5b7f756e7265676973746572536368656d650000000000000000000000000000000060005b600554811015610a6557600580548290811061098757fe5b600091825260209091206002909102015460058054600160a060020a039092169163c1786ab2913391859081106109ba57fe5b906000526020600020906002020160010154856040518463ffffffff1660e060020a0281526004018084600160a060020a0316600160a060020a031681526020018381526020018281526020019350505050602060405180830381600087803b158015610a2657600080fd5b505af1158015610a3a573d6000803e3d6000fd5b505050506040513d6020811015610a5057600080fd5b50511515610a5d57600080fd5b60010161096f565b6001548490600160a060020a03808316911614610a8157600080fd5b610a8a86613c0b565b1515610a995760009350610b5c565b33600090815260208190526040808220600190810154600160a060020a038a168452919092209091015460e060020a918202199102167c1f000000000000000000000000000000000000000000000000000000001615610af857600080fd5b604051600160a060020a0387169033907f10bb2cf04cb8b902a8e736d494f1a51003be6d4b16ef6fb95ce62c38445023bf90600090a3600160a060020a03861660009081526020819052604081209081556001908101805463ffffffff1916905593505b50600090505b600654811015610c58576006805482908110610b7a57fe5b600091825260209091206002909102015460068054600160a060020a0390921691638043154d91339185908110610bad57fe5b906000526020600020906002020160010154856040518463ffffffff1660e060020a0281526004018084600160a060020a0316600160a060020a031681526020018381526020018281526020019350505050602060405180830381600087803b158015610c1957600080fd5b505af1158015610c2d573d6000803e3d6000fd5b505050506040513d6020811015610c4357600080fd5b50511515610c5057600080fd5b600101610b62565b505092915050565b6007602052600090815260409020805460019091015460ff9091169082565b6001546000908290600160a060020a03808316911614610c9e57600080fd5b600160a060020a03841660009081526020819052604090205491505b5092915050565b600454600160a060020a031681565b3360009081526020819052604081206001015460e060020a027c080000000000000000000000000000000000000000000000000000000090811614610d1457600080fd5b6001548290600160a060020a03808316911614610d3057600080fd5b600454600160a060020a031615610d4657600080fd5b600160a060020a0384161515610d5b57600080fd5b6004805473ffffffffffffffffffffffffffffffffffffffff1916600160a060020a038681169182178355600154604080517ff2fde38b00000000000000000000000000000000000000000000000000000000815294850193909352915191169163f2fde38b91602480830192600092919082900301818387803b158015610de257600080fd5b505af1158015610df6573d6000803e3d6000fd5b5050505083600160a060020a0316600160009054906101000a9004600160a060020a0316600160a060020a0316638da5cb5b6040518163ffffffff1660e060020a02815260040160206040518083038186803b158015610e5557600080fd5b505afa158015610e69573d6000803e3d6000fd5b505050506040513d6020811015610e7f57600080fd5b5051600160a060020a031614610e9457600080fd5b600254604080517f8da5cb5b00000000000000000000000000000000000000000000000000000000815290513092600160a060020a031691638da5cb5b916004808301926020929190829003018186803b158015610ef157600080fd5b505afa158015610f05573d6000803e3d6000fd5b505050506040513d6020811015610f1b57600080fd5b5051600160a060020a0316141561104557600254604080517ff2fde38b000000000000000000000000000000000000000000000000000000008152600160a060020a0387811660048301529151919092169163f2fde38b91602480830192600092919082900301818387803b158015610f9357600080fd5b505af1158015610fa7573d6000803e3d6000fd5b5050505083600160a060020a0316600260009054906101000a9004600160a060020a0316600160a060020a0316638da5cb5b6040518163ffffffff1660e060020a02815260040160206040518083038186803b15801561100657600080fd5b505afa15801561101a573d6000803e3d6000fd5b505050506040513d602081101561103057600080fd5b5051600160a060020a03161461104557600080fd5b600354604080517f8da5cb5b00000000000000000000000000000000000000000000000000000000815290513092600160a060020a031691638da5cb5b916004808301926020929190829003018186803b1580156110a257600080fd5b505afa1580156110b6573d6000803e3d6000fd5b505050506040513d60208110156110cc57600080fd5b5051600160a060020a031614156111f657600354604080517ff2fde38b000000000000000000000000000000000000000000000000000000008152600160a060020a0387811660048301529151919092169163f2fde38b91602480830192600092919082900301818387803b15801561114457600080fd5b505af1158015611158573d6000803e3d6000fd5b5050505083600160a060020a0316600360009054906101000a9004600160a060020a0316600160a060020a0316638da5cb5b6040518163ffffffff1660e060020a02815260040160206040518083038186803b1580156111b757600080fd5b505afa1580156111cb573d6000803e3d6000fd5b505050506040513d60208110156111e157600080fd5b5051600160a060020a0316146111f657600080fd5b60045460408051600160a060020a039290921682525130917fdb7cbacf8df312d794506c0cc9af07f64d29ca075796ea2e950a3832cc9a63dd919081900360200190a25060019392505050565b600580548290811061125157fe5b600091825260209091206002909102018054600190910154600160a060020a03909116915082565b3360009081526020819052604081206001015460e060020a027c0400000000000000000000000000000000000000000000000000000000908116146112bd57600080fd5b6001548290600160a060020a038083169116146112d957600080fd5b6112e1613c34565b6112e9613c34565b600086600160a060020a031663e2b0caef6040518163ffffffff1660e060020a028152600401602060405180830381600087803b15801561132957600080fd5b505af115801561133d573d6000803e3d6000fd5b505050506040513d602081101561135357600080fd5b5051905060008082600281111561136657fe5b148061137d5750600282600281111561137b57fe5b145b156114ce57600160a060020a0388166000908152600760209081526040918290208251808401909352805460ff161580158452600190910154918301919091529094506114ce576001600580549050038460200151101561148f576005805460001981019081106113ea57fe5b6000918252602091829020604080518082019091526002909202018054600160a060020a03168252600101548183015290850151600580549295508592909190811061143257fe5b60009182526020808320845160029390930201805473ffffffffffffffffffffffffffffffffffffffff1916600160a060020a03938416178155938101516001948501558781015187519092168352600790526040909120909101555b60058054906114a2906000198301613c4b565b5050600160a060020a0387166000908152600760205260408120805460ff191681556001908101919091555b60018260028111156114dc57fe5b14806114f3575060028260028111156114f157fe5b145b1561164457600160a060020a0388166000908152600860209081526040918290208251808401909352805460ff1615801584526001909101549183019190915290945061164457600160068054905003846020015110156116055760068054600019810190811061156057fe5b6000918252602091829020604080518082019091526002909202018054600160a060020a0316825260010154818301529085015160068054929550859290919081106115a857fe5b60009182526020808320845160029390930201805473ffffffffffffffffffffffffffffffffffffffff1916600160a060020a03938416178155938101516001948501558781015187519092168352600890526040909120909101555b6006805490611618906000198301613c4b565b5050600160a060020a0387166000908152600860205260408120805460ff191681556001908101919091555b80156116a2576020840151600160a060020a038916907fcdf1a50ea6b7de555bd409f8a4a53ea43c6dc6b4caa961889da9e005f21bbaa990600085600281111561168a57fe5b60408051938452911460208301528051918290030190a25b979650505050505050565b3360009081526020819052604081206001015460e060020a9081028116146116d457600080fd5b7f65787465726e616c546f6b656e496e637265617365417070726f76616c00000060005b6005548110156117ee57600580548290811061171057fe5b600091825260209091206002909102015460058054600160a060020a039092169163c1786ab29133918590811061174357fe5b906000526020600020906002020160010154856040518463ffffffff1660e060020a0281526004018084600160a060020a0316600160a060020a031681526020018381526020018281526020019350505050602060405180830381600087803b1580156117af57600080fd5b505af11580156117c3573d6000803e3d6000fd5b505050506040513d60208110156117d957600080fd5b505115156117e657600080fd5b6001016116f8565b6001548490600160a060020a0380831691161461180a57600080fd5b600154604080517fab751f71000000000000000000000000000000000000000000000000000000008152600160a060020a038b811660048301528a81166024830152604482018a90529151919092169163ab751f719160648083019260209291908290030181600087803b15801561188157600080fd5b505af1158015611895573d6000803e3d6000fd5b505050506040513d60208110156118ab57600080fd5b5051935050600090505b6006548110156119ab5760068054829081106118cd57fe5b600091825260209091206002909102015460068054600160a060020a0390921691638043154d9133918590811061190057fe5b906000526020600020906002020160010154856040518463ffffffff1660e060020a0281526004018084600160a060020a0316600160a060020a031681526020018381526020018281526020019350505050602060405180830381600087803b15801561196c57600080fd5b505af1158015611980573d6000803e3d6000fd5b505050506040513d602081101561199657600080fd5b505115156119a357600080fd5b6001016118b5565b5050949350505050565b600154600160a060020a031681565b3360009081526020819052604081206001015460e060020a9081028116146119eb57600080fd5b7f73656e644574686572000000000000000000000000000000000000000000000060005b600554811015611b05576005805482908110611a2757fe5b600091825260209091206002909102015460058054600160a060020a039092169163c1786ab291339185908110611a5a57fe5b906000526020600020906002020160010154856040518463ffffffff1660e060020a0281526004018084600160a060020a0316600160a060020a031681526020018381526020018281526020019350505050602060405180830381600087803b158015611ac657600080fd5b505af1158015611ada573d6000803e3d6000fd5b505050506040513d6020811015611af057600080fd5b50511515611afd57600080fd5b600101611a0f565b6001548490600160a060020a03808316911614611b2157600080fd5b600154604080517fcb16d4a2000000000000000000000000000000000000000000000000000000008152600481018a9052600160a060020a0389811660248301529151919092169163cb16d4a29160448083019260209291908290030181600087803b158015611b9057600080fd5b505af1158015611ba4573d6000803e3d6000fd5b505050506040513d6020811015611bba57600080fd5b5051935050600090505b600654811015611cba576006805482908110611bdc57fe5b600091825260209091206002909102015460068054600160a060020a0390921691638043154d91339185908110611c0f57fe5b906000526020600020906002020160010154856040518463ffffffff1660e060020a0281526004018084600160a060020a0316600160a060020a031681526020018381526020018281526020019350505050602060405180830381600087803b158015611c7b57600080fd5b505af1158015611c8f573d6000803e3d6000fd5b505050506040513d6020811015611ca557600080fd5b50511515611cb257600080fd5b600101611bc4565b50509392505050565b3360009081526020819052604081206001015460e060020a908102811614611cea57600080fd5b7f6d696e74546f6b656e730000000000000000000000000000000000000000000060005b600554811015611e04576005805482908110611d2657fe5b600091825260209091206002909102015460058054600160a060020a039092169163c1786ab291339185908110611d5957fe5b906000526020600020906002020160010154856040518463ffffffff1660e060020a0281526004018084600160a060020a0316600160a060020a031681526020018381526020018281526020019350505050602060405180830381600087803b158015611dc557600080fd5b505af1158015611dd9573d6000803e3d6000fd5b505050506040513d6020811015611def57600080fd5b50511515611dfc57600080fd5b600101611d0e565b6001548490600160a060020a03808316911614611e2057600080fd5b604080518881529051600160a060020a0388169133917f21f9c9a1a1f9a311a50f15fec5c1faa9e21fc9edf964f0fdecba5bd490484c5e9181900360200190a3600254604080517f40c10f19000000000000000000000000000000000000000000000000000000008152600160a060020a038981166004830152602482018b9052915191909216916340c10f199160448083019260209291908290030181600087803b158015611ecf57600080fd5b505af1158015611ee3573d6000803e3d6000fd5b505050506040513d6020811015611ef957600080fd5b5051935050600090505b600654811015611cba576006805482908110611f1b57fe5b600091825260209091206002909102015460068054600160a060020a0390921691638043154d91339185908110611f4e57fe5b906000526020600020906002020160010154856040518463ffffffff1660e060020a0281526004018084600160a060020a0316600160a060020a031681526020018381526020018281526020019350505050602060405180830381600087803b158015611fba57600080fd5b505af1158015611fce573d6000803e3d6000fd5b505050506040513d6020811015611fe457600080fd5b50511515611ff157600080fd5b600101611f03565b6001546000908290600160a060020a0380831691161461201857600080fd5b61202133613c0b565b1515612030576000915061207c565b33600081815260208190526040808220828155600101805463ffffffff191690555182917f10bb2cf04cb8b902a8e736d494f1a51003be6d4b16ef6fb95ce62c38445023bf91a3600191505b50919050565b3360009081526020819052604081206001015460e060020a9081028116146120a957600080fd5b7f6275726e52657075746174696f6e00000000000000000000000000000000000060005b6005548110156121c35760058054829081106120e557fe5b600091825260209091206002909102015460058054600160a060020a039092169163c1786ab29133918590811061211857fe5b906000526020600020906002020160010154856040518463ffffffff1660e060020a0281526004018084600160a060020a0316600160a060020a031681526020018381526020018281526020019350505050602060405180830381600087803b15801561218457600080fd5b505af1158015612198573d6000803e3d6000fd5b505050506040513d60208110156121ae57600080fd5b505115156121bb57600080fd5b6001016120cd565b6001548490600160a060020a038083169116146121df57600080fd5b604080518881529051600160a060020a0388169133917f186d8887e1b22f9d9b16849c36baa748950d09d9c9b67a4a6ea140eaad00c21c9181900360200190a3600354604080517f9dc29fac000000000000000000000000000000000000000000000000000000008152600160a060020a038981166004830152602482018b905291519190921691639dc29fac9160448083019260209291908290030181600087803b15801561228e57600080fd5b505af11580156122a2573d6000803e3d6000fd5b505050506040513d60208110156122b857600080fd5b5051935050600090505b600654811015611cba5760068054829081106122da57fe5b600091825260209091206002909102015460068054600160a060020a0390921691638043154d9133918590811061230d57fe5b906000526020600020906002020160010154856040518463ffffffff1660e060020a0281526004018084600160a060020a0316600160a060020a031681526020018381526020018281526020019350505050602060405180830381600087803b15801561237957600080fd5b505af115801561238d573d6000803e3d6000fd5b505050506040513d60208110156123a357600080fd5b505115156123b057600080fd5b6001016122c2565b6008602052600090815260409020805460019091015460ff9091169082565b60015460009081908390600160a060020a038083169116146123f857600080fd5b600554600654909350915050915091565b600354600160a060020a031681565b6001546000908290600160a060020a0380831691161461243757600080fd5b5050600354600160a060020a0316919050565b6001546000908290600160a060020a0380831691161461246957600080fd5b505050600160a060020a031660009081526020819052604090206001015460e060020a0290565b6001546000908290600160a060020a038083169116146124af57600080fd5b6124b884613c0b565b949350505050565b3360009081526020819052604081206001015460e060020a9081028116146124e757600080fd5b7f65787465726e616c546f6b656e5472616e73666572000000000000000000000060005b60055481101561260157600580548290811061252357fe5b600091825260209091206002909102015460058054600160a060020a039092169163c1786ab29133918590811061255657fe5b906000526020600020906002020160010154856040518463ffffffff1660e060020a0281526004018084600160a060020a0316600160a060020a031681526020018381526020018281526020019350505050602060405180830381600087803b1580156125c257600080fd5b505af11580156125d6573d6000803e3d6000fd5b505050506040513d60208110156125ec57600080fd5b505115156125f957600080fd5b60010161250b565b6001548490600160a060020a0380831691161461261d57600080fd5b600154604080517fdab0efff000000000000000000000000000000000000000000000000000000008152600160a060020a038b811660048301528a81166024830152604482018a90529151919092169163dab0efff9160648083019260209291908290030181600087803b15801561269457600080fd5b505af11580156126a8573d6000803e3d6000fd5b505050506040513d60208110156126be57600080fd5b5051935050600090505b6006548110156119ab5760068054829081106126e057fe5b600091825260209091206002909102015460068054600160a060020a0390921691638043154d9133918590811061271357fe5b906000526020600020906002020160010154856040518463ffffffff1660e060020a0281526004018084600160a060020a0316600160a060020a031681526020018381526020018281526020019350505050602060405180830381600087803b15801561277f57600080fd5b505af1158015612793573d6000803e3d6000fd5b505050506040513d60208110156127a957600080fd5b505115156127b657600080fd5b6001016126c8565b3360009081526020819052604081206001015460e060020a027c10000000000000000000000000000000000000000000000000000000009081161461280257600080fd5b6001548290600160a060020a0380831691161461281e57600080fd5b6001546040517f890ac46c00000000000000000000000000000000000000000000000000000000815260206004820190815260248201879052600160a060020a039092169163890ac46c91889188918190604401848480828437600081840152601f19601f8201169050808301925050509350505050602060405180830381600087803b1580156128ae57600080fd5b505af11580156128c2573d6000803e3d6000fd5b505050506040513d60208110156128d857600080fd5b505195945050505050565b3360009081526020819052604081206001015460609060e060020a027c10000000000000000000000000000000000000000000000000000000009081161461292a57600080fd5b7f67656e6572696343616c6c00000000000000000000000000000000000000000060005b600554811015612a4457600580548290811061296657fe5b600091825260209091206002909102015460058054600160a060020a039092169163c1786ab29133918590811061299957fe5b906000526020600020906002020160010154856040518463ffffffff1660e060020a0281526004018084600160a060020a0316600160a060020a031681526020018381526020018281526020019350505050602060405180830381600087803b158015612a0557600080fd5b505af1158015612a19573d6000803e3d6000fd5b505050506040513d6020811015612a2f57600080fd5b50511515612a3c57600080fd5b60010161294e565b6001548690600160a060020a03808316911614612a6057600080fd5b6001546040517f2bf16458000000000000000000000000000000000000000000000000000000008152600160a060020a038c811660048301908152604483018a9052606060248401908152606484018d90529190931692632bf16458928e928e928e928d9290608401858580828437600081840152601f19601f82011690508083019250505095505050505050600060405180830381600087803b158015612b0757600080fd5b505af1158015612b1b573d6000803e3d6000fd5b505050506040513d6000823e601f3d908101601f191682016040908152811015612b4457600080fd5b815160208301805191939283019291640100000000811115612b6557600080fd5b82016020810184811115612b7857600080fd5b8151640100000000811182820187101715612b9257600080fd5b5094995097505050505050600090505b600654811015612c98576006805482908110612bba57fe5b600091825260209091206002909102015460068054600160a060020a0390921691638043154d91339185908110612bed57fe5b906000526020600020906002020160010154856040518463ffffffff1660e060020a0281526004018084600160a060020a0316600160a060020a031681526020018381526020018281526020019350505050602060405180830381600087803b158015612c5957600080fd5b505af1158015612c6d573d6000803e3d6000fd5b505050506040513d6020811015612c8357600080fd5b50511515612c9057600080fd5b600101612ba2565b50509550959350505050565b6000602081905290815260409020805460019091015460e060020a0282565b6000612ccd613c34565b50600160a060020a0383166000908152600760209081526040918290208251808401909352805460ff16158015845260019091015491830191909152612d3a5760058160200151815481101515612d2057fe5b906000526020600020906002020160010154915050612d8d565b50600160a060020a0383166000908152600860209081526040918290208251808401909352805460ff16158015845260019091015491830191909152610cba5760068160200151815481101515612d2057fe5b92915050565b600254600160a060020a031681565b3360009081526020819052604081206001015460e060020a027c040000000000000000000000000000000000000000000000000000000090811614612de657600080fd5b6001548290600160a060020a03808316911614612e0257600080fd5b600085600160a060020a031663e2b0caef6040518163ffffffff1660e060020a028152600401602060405180830381600087803b158015612e4257600080fd5b505af1158015612e56573d6000803e3d6000fd5b505050506040513d6020811015612e6c57600080fd5b505190506000816002811115612e7e57fe5b1480612e9557506002816002811115612e9357fe5b145b15612fdc57600160a060020a03861660009081526007602052604090205460ff161515612f9b57604080518082018252600160a060020a0388811680835260208084018a81526005805460018082018355600083815297517f036b6384b5eca791c62761152d0c79bb0604c104a5fb6f4eb0703f3154bb3db06002909302928301805473ffffffffffffffffffffffffffffffffffffffff1916919098161790965591517f036b6384b5eca791c62761152d0c79bb0604c104a5fb6f4eb0703f3154bb3db190920191909155855180870187528481529054600019018183019081529285526007909152939092209251835460ff19169015151783559051910155612fdc565b600160a060020a038616600090815260076020526040902060010154600580548792908110612fc657fe5b9060005260206000209060020201600101819055505b6001816002811115612fea57fe5b148061300157506002816002811115612fff57fe5b145b1561314857600160a060020a03861660009081526008602052604090205460ff16151561310757604080518082018252600160a060020a0388811680835260208084018a81526006805460018082018355600083815297517ff652222313e28459528d920b65115c16c04f3efc82aaedc97be59f3f377c0d3f6002909302928301805473ffffffffffffffffffffffffffffffffffffffff1916919098161790965591517ff652222313e28459528d920b65115c16c04f3efc82aaedc97be59f3f377c0d4090920191909155855180870187528481529054600019018183019081529285526008909152939092209251835460ff19169015151783559051910155613148565b600160a060020a03861660009081526008602052604090206001015460068054879290811061313257fe5b9060005260206000209060020201600101819055505b85600160a060020a03167f78800d7333b8d0174a0845569e3913b7ce4a3c03ca444dd9904172fc14f2fdad86836040518083815260200182600281111561318b57fe5b60ff1681526020019250505060405180910390a250600195945050505050565b3360009081526020819052604081206001015460e060020a027c0200000000000000000000000000000000000000000000000000000000908116146131ef57600080fd5b7f7265676973746572536368656d6500000000000000000000000000000000000060005b60055481101561330957600580548290811061322b57fe5b600091825260209091206002909102015460058054600160a060020a039092169163c1786ab29133918590811061325e57fe5b906000526020600020906002020160010154856040518463ffffffff1660e060020a0281526004018084600160a060020a0316600160a060020a031681526020018381526020018281526020019350505050602060405180830381600087803b1580156132ca57600080fd5b505af11580156132de573d6000803e3d6000fd5b505050506040513d60208110156132f457600080fd5b5051151561330157600080fd5b600101613213565b6001548490600160a060020a0380831691161461332557600080fd5b61332d613c34565b50600160a060020a0388166000908152602081815260408083208151808301835281548152600191820154600160e060020a031960e060020a918202168286019081523387529486905292909420015491518918910219167c1f0000000000000000000000000000000000000000000000000000000016156133ae57600080fd5b33600090815260208181526040909120600101549082015160e060020a90910219167c1f0000000000000000000000000000000000000000000000000000000016156133f957600080fd5b600160a060020a0389166000818152602081905260408082208b8155600101805463ffffffff191660e060020a8c8117041790555133917f546816e99403df442acb68ef69562682a50762c20a3fb6b472f7af9923736cfc91a3600194505050600090505b6006548110156119ab57600680548290811061347657fe5b600091825260209091206002909102015460068054600160a060020a0390921691638043154d913391859081106134a957fe5b906000526020600020906002020160010154856040518463ffffffff1660e060020a0281526004018084600160a060020a0316600160a060020a031681526020018381526020018281526020019350505050602060405180830381600087803b15801561351557600080fd5b505af1158015613529573d6000803e3d6000fd5b505050506040513d602081101561353f57600080fd5b5051151561354c57600080fd5b60010161345e565b600680548290811061125157fe5b3360009081526020819052604081206001015460e060020a90810281161461358957600080fd5b7f6d696e7452657075746174696f6e00000000000000000000000000000000000060005b6005548110156136a35760058054829081106135c557fe5b600091825260209091206002909102015460058054600160a060020a039092169163c1786ab2913391859081106135f857fe5b906000526020600020906002020160010154856040518463ffffffff1660e060020a0281526004018084600160a060020a0316600160a060020a031681526020018381526020018281526020019350505050602060405180830381600087803b15801561366457600080fd5b505af1158015613678573d6000803e3d6000fd5b505050506040513d602081101561368e57600080fd5b5051151561369b57600080fd5b6001016135ad565b6001548490600160a060020a038083169116146136bf57600080fd5b604080518881529051600160a060020a0388169133917f837f2931e3df0592458212be4e470025f197feb7a8e39deb5b7f1f1d42e6f2629181900360200190a3600354604080517f40c10f19000000000000000000000000000000000000000000000000000000008152600160a060020a038981166004830152602482018b9052915191909216916340c10f199160448083019260209291908290030181600087803b15801561376e57600080fd5b505af1158015613782573d6000803e3d6000fd5b505050506040513d602081101561379857600080fd5b5051935050600090505b600654811015611cba5760068054829081106137ba57fe5b600091825260209091206002909102015460068054600160a060020a0390921691638043154d913391859081106137ed57fe5b906000526020600020906002020160010154856040518463ffffffff1660e060020a0281526004018084600160a060020a0316600160a060020a031681526020018381526020018281526020019350505050602060405180830381600087803b15801561385957600080fd5b505af115801561386d573d6000803e3d6000fd5b505050506040513d602081101561388357600080fd5b5051151561389057600080fd5b6001016137a2565b6001546000908290600160a060020a038083169116146138b757600080fd5b600160a060020a03841660009081526007602052604090205460ff16806124b85750505050600160a060020a031660009081526008602052604090205460ff1690565b3360009081526020819052604081206001015460e060020a90810281161461392157600080fd5b7f65787465726e616c546f6b656e5472616e7366657246726f6d0000000000000060005b600554811015613a3b57600580548290811061395d57fe5b600091825260209091206002909102015460058054600160a060020a039092169163c1786ab29133918590811061399057fe5b906000526020600020906002020160010154856040518463ffffffff1660e060020a0281526004018084600160a060020a0316600160a060020a031681526020018381526020018281526020019350505050602060405180830381600087803b1580156139fc57600080fd5b505af1158015613a10573d6000803e3d6000fd5b505050506040513d6020811015613a2657600080fd5b50511515613a3357600080fd5b600101613945565b6001548490600160a060020a03808316911614613a5757600080fd5b600154604080517fb756d5a2000000000000000000000000000000000000000000000000000000008152600160a060020a038c811660048301528b811660248301528a81166044830152606482018a90529151919092169163b756d5a29160848083019260209291908290030181600087803b158015613ad657600080fd5b505af1158015613aea573d6000803e3d6000fd5b505050506040513d6020811015613b0057600080fd5b5051935050600090505b600654811015613c00576006805482908110613b2257fe5b600091825260209091206002909102015460068054600160a060020a0390921691638043154d91339185908110613b5557fe5b906000526020600020906002020160010154856040518463ffffffff1660e060020a0281526004018084600160a060020a0316600160a060020a031681526020018381526020018281526020019350505050602060405180830381600087803b158015613bc157600080fd5b505af1158015613bd5573d6000803e3d6000fd5b505050506040513d6020811015613beb57600080fd5b50511515613bf857600080fd5b600101613b0a565b505095945050505050565b600160a060020a031660009081526020819052604090206001015460e060020a90810216151590565b604080518082019091526000808252602082015290565b815481835581811115613c7757600202816002028360005260206000209182019101613c779190613c7c565b505050565b613cb891905b80821115613cb457805473ffffffffffffffffffffffffffffffffffffffff1916815560006001820155600201613c82565b5090565b9056fea165627a7a7230582065609c24b6d8d712077fb073f8adcd9fc687f8841814613e8cf2f4c07ba056070029",
  "source": "pragma solidity ^0.5.4;\n\nimport \"./Avatar.sol\";\nimport \"../globalConstraints/GlobalConstraintInterface.sol\";\nimport \"./ControllerInterface.sol\";\n\n\n/**\n * @title Controller contract\n * @dev A controller controls the organizations tokens, reputation and avatar.\n * It is subject to a set of schemes and constraints that determine its behavior.\n * Each scheme has it own parameters and operation permissions.\n */\ncontract Controller is ControllerInterface {\n\n    struct Scheme {\n        bytes32 paramsHash;  // a hash \"configuration\" of the scheme\n        bytes4  permissions; // A bitwise flags of permissions,\n                             // All 0: Not registered,\n                             // 1st bit: Flag if the scheme is registered,\n                             // 2nd bit: Scheme can register other schemes\n                             // 3rd bit: Scheme can add/remove global constraints\n                             // 4th bit: Scheme can upgrade the controller\n                             // 5th bit: Scheme can call genericCall on behalf of\n                             //          the organization avatar\n    }\n\n    struct GlobalConstraint {\n        address gcAddress;\n        bytes32 params;\n    }\n\n    struct GlobalConstraintRegister {\n        bool isRegistered; //is registered\n        uint256 index;    //index at globalConstraints\n    }\n\n    mapping(address=>Scheme) public schemes;\n\n    Avatar public avatar;\n    DAOToken public nativeToken;\n    Reputation public nativeReputation;\n  // newController will point to the new controller after the present controller is upgraded\n    address public newController;\n  // globalConstraintsPre that determine pre conditions for all actions on the controller\n\n    GlobalConstraint[] public globalConstraintsPre;\n  // globalConstraintsPost that determine post conditions for all actions on the controller\n    GlobalConstraint[] public globalConstraintsPost;\n  // globalConstraintsRegisterPre indicate if a globalConstraints is registered as a pre global constraint\n    mapping(address=>GlobalConstraintRegister) public globalConstraintsRegisterPre;\n  // globalConstraintsRegisterPost indicate if a globalConstraints is registered as a post global constraint\n    mapping(address=>GlobalConstraintRegister) public globalConstraintsRegisterPost;\n\n    event MintReputation (address indexed _sender, address indexed _to, uint256 _amount);\n    event BurnReputation (address indexed _sender, address indexed _from, uint256 _amount);\n    event MintTokens (address indexed _sender, address indexed _beneficiary, uint256 _amount);\n    event RegisterScheme (address indexed _sender, address indexed _scheme);\n    event UnregisterScheme (address indexed _sender, address indexed _scheme);\n    event UpgradeController(address indexed _oldController, address _newController);\n\n    event AddGlobalConstraint(\n        address indexed _globalConstraint,\n        bytes32 _params,\n        GlobalConstraintInterface.CallPhase _when);\n\n    event RemoveGlobalConstraint(address indexed _globalConstraint, uint256 _index, bool _isPre);\n\n    constructor( Avatar _avatar) public {\n        avatar = _avatar;\n        nativeToken = avatar.nativeToken();\n        nativeReputation = avatar.nativeReputation();\n        schemes[msg.sender] = Scheme({paramsHash: bytes32(0), permissions: bytes4(0x0000001F)});\n    }\n\n  // Do not allow mistaken calls:\n   // solhint-disable-next-line payable-fallback\n    function() external {\n        revert();\n    }\n\n  // Modifiers:\n    modifier onlyRegisteredScheme() {\n        require(schemes[msg.sender].permissions&bytes4(0x00000001) == bytes4(0x00000001));\n        _;\n    }\n\n    modifier onlyRegisteringSchemes() {\n        require(schemes[msg.sender].permissions&bytes4(0x00000002) == bytes4(0x00000002));\n        _;\n    }\n\n    modifier onlyGlobalConstraintsScheme() {\n        require(schemes[msg.sender].permissions&bytes4(0x00000004) == bytes4(0x00000004));\n        _;\n    }\n\n    modifier onlyUpgradingScheme() {\n        require(schemes[msg.sender].permissions&bytes4(0x00000008) == bytes4(0x00000008));\n        _;\n    }\n\n    modifier onlyGenericCallScheme() {\n        require(schemes[msg.sender].permissions&bytes4(0x00000010) == bytes4(0x00000010));\n        _;\n    }\n\n    modifier onlyMetaDataScheme() {\n        require(schemes[msg.sender].permissions&bytes4(0x00000010) == bytes4(0x00000010));\n        _;\n    }\n\n    modifier onlySubjectToConstraint(bytes32 func) {\n        uint256 idx;\n        for (idx = 0; idx < globalConstraintsPre.length; idx++) {\n            require(\n            (GlobalConstraintInterface(globalConstraintsPre[idx].gcAddress))\n            .pre(msg.sender, globalConstraintsPre[idx].params, func));\n        }\n        _;\n        for (idx = 0; idx < globalConstraintsPost.length; idx++) {\n            require(\n            (GlobalConstraintInterface(globalConstraintsPost[idx].gcAddress))\n            .post(msg.sender, globalConstraintsPost[idx].params, func));\n        }\n    }\n\n    modifier isAvatarValid(address _avatar) {\n        require(_avatar == address(avatar));\n        _;\n    }\n\n    /**\n     * @dev Mint `_amount` of reputation that are assigned to `_to` .\n     * @param  _amount amount of reputation to mint\n     * @param _to beneficiary address\n     * @return bool which represents a success\n     */\n    function mintReputation(uint256 _amount, address _to, address _avatar)\n    external\n    onlyRegisteredScheme\n    onlySubjectToConstraint(\"mintReputation\")\n    isAvatarValid(_avatar)\n    returns(bool)\n    {\n        emit MintReputation(msg.sender, _to, _amount);\n        return nativeReputation.mint(_to, _amount);\n    }\n\n    /**\n     * @dev Burns `_amount` of reputation from `_from`\n     * @param _amount amount of reputation to burn\n     * @param _from The address that will lose the reputation\n     * @return bool which represents a success\n     */\n    function burnReputation(uint256 _amount, address _from, address _avatar)\n    external\n    onlyRegisteredScheme\n    onlySubjectToConstraint(\"burnReputation\")\n    isAvatarValid(_avatar)\n    returns(bool)\n    {\n        emit BurnReputation(msg.sender, _from, _amount);\n        return nativeReputation.burn(_from, _amount);\n    }\n\n    /**\n     * @dev mint tokens .\n     * @param  _amount amount of token to mint\n     * @param _beneficiary beneficiary address\n     * @return bool which represents a success\n     */\n    function mintTokens(uint256 _amount, address _beneficiary, address _avatar)\n    external\n    onlyRegisteredScheme\n    onlySubjectToConstraint(\"mintTokens\")\n    isAvatarValid(_avatar)\n    returns(bool)\n    {\n        emit MintTokens(msg.sender, _beneficiary, _amount);\n        return nativeToken.mint(_beneficiary, _amount);\n    }\n\n  /**\n   * @dev register a scheme\n   * @param _scheme the address of the scheme\n   * @param _paramsHash a hashed configuration of the usage of the scheme\n   * @param _permissions the permissions the new scheme will have\n   * @return bool which represents a success\n   */\n    function registerScheme(address _scheme, bytes32 _paramsHash, bytes4 _permissions, address _avatar)\n    external\n    onlyRegisteringSchemes\n    onlySubjectToConstraint(\"registerScheme\")\n    isAvatarValid(_avatar)\n    returns(bool)\n    {\n\n        Scheme memory scheme = schemes[_scheme];\n\n    // Check scheme has at least the permissions it is changing, and at least the current permissions:\n    // Implementation is a bit messy. One must recall logic-circuits ^^\n\n    // produces non-zero if sender does not have all of the perms that are changing between old and new\n        require(bytes4(0x0000001f)&(_permissions^scheme.permissions)&(~schemes[msg.sender].permissions) == bytes4(0));\n\n    // produces non-zero if sender does not have all of the perms in the old scheme\n        require(bytes4(0x0000001f)&(scheme.permissions&(~schemes[msg.sender].permissions)) == bytes4(0));\n\n    // Add or change the scheme:\n        schemes[_scheme].paramsHash = _paramsHash;\n        schemes[_scheme].permissions = _permissions|bytes4(0x00000001);\n        emit RegisterScheme(msg.sender, _scheme);\n        return true;\n    }\n\n    /**\n     * @dev unregister a scheme\n     * @param _scheme the address of the scheme\n     * @return bool which represents a success\n     */\n    function unregisterScheme( address _scheme, address _avatar)\n    external\n    onlyRegisteringSchemes\n    onlySubjectToConstraint(\"unregisterScheme\")\n    isAvatarValid(_avatar)\n    returns(bool)\n    {\n    //check if the scheme is registered\n        if (_isSchemeRegistered(_scheme) == false) {\n            return false;\n        }\n    // Check the unregistering scheme has enough permissions:\n        require(bytes4(0x0000001f)&(schemes[_scheme].permissions&(~schemes[msg.sender].permissions)) == bytes4(0));\n\n    // Unregister:\n        emit UnregisterScheme(msg.sender, _scheme);\n        delete schemes[_scheme];\n        return true;\n    }\n\n    /**\n     * @dev unregister the caller's scheme\n     * @return bool which represents a success\n     */\n    function unregisterSelf(address _avatar) external isAvatarValid(_avatar) returns(bool) {\n        if (_isSchemeRegistered(msg.sender) == false) {\n            return false;\n        }\n        delete schemes[msg.sender];\n        emit UnregisterScheme(msg.sender, msg.sender);\n        return true;\n    }\n\n    /**\n     * @dev add or update Global Constraint\n     * @param _globalConstraint the address of the global constraint to be added.\n     * @param _params the constraint parameters hash.\n     * @return bool which represents a success\n     */\n    function addGlobalConstraint(address _globalConstraint, bytes32 _params, address _avatar)\n    external\n    onlyGlobalConstraintsScheme\n    isAvatarValid(_avatar)\n    returns(bool)\n    {\n        GlobalConstraintInterface.CallPhase when = GlobalConstraintInterface(_globalConstraint).when();\n        if ((when == GlobalConstraintInterface.CallPhase.Pre)||\n            (when == GlobalConstraintInterface.CallPhase.PreAndPost)) {\n            if (!globalConstraintsRegisterPre[_globalConstraint].isRegistered) {\n                globalConstraintsPre.push(GlobalConstraint(_globalConstraint, _params));\n                globalConstraintsRegisterPre[_globalConstraint] =\n                GlobalConstraintRegister(true, globalConstraintsPre.length-1);\n            }else {\n                globalConstraintsPre[globalConstraintsRegisterPre[_globalConstraint].index].params = _params;\n            }\n        }\n        if ((when == GlobalConstraintInterface.CallPhase.Post)||\n            (when == GlobalConstraintInterface.CallPhase.PreAndPost)) {\n            if (!globalConstraintsRegisterPost[_globalConstraint].isRegistered) {\n                globalConstraintsPost.push(GlobalConstraint(_globalConstraint, _params));\n                globalConstraintsRegisterPost[_globalConstraint] =\n                GlobalConstraintRegister(true, globalConstraintsPost.length-1);\n            }else {\n                globalConstraintsPost[globalConstraintsRegisterPost[_globalConstraint].index].params = _params;\n            }\n        }\n        emit AddGlobalConstraint(_globalConstraint, _params, when);\n        return true;\n    }\n\n    /**\n     * @dev remove Global Constraint\n     * @param _globalConstraint the address of the global constraint to be remove.\n     * @return bool which represents a success\n     */\n     // solhint-disable-next-line code-complexity\n    function removeGlobalConstraint (address _globalConstraint, address _avatar)\n    external\n    onlyGlobalConstraintsScheme\n    isAvatarValid(_avatar)\n    returns(bool)\n    {\n        GlobalConstraintRegister memory globalConstraintRegister;\n        GlobalConstraint memory globalConstraint;\n        GlobalConstraintInterface.CallPhase when = GlobalConstraintInterface(_globalConstraint).when();\n        bool retVal = false;\n\n        if ((when == GlobalConstraintInterface.CallPhase.Pre)||\n            (when == GlobalConstraintInterface.CallPhase.PreAndPost)) {\n            globalConstraintRegister = globalConstraintsRegisterPre[_globalConstraint];\n            if (globalConstraintRegister.isRegistered) {\n                if (globalConstraintRegister.index < globalConstraintsPre.length-1) {\n                    globalConstraint = globalConstraintsPre[globalConstraintsPre.length-1];\n                    globalConstraintsPre[globalConstraintRegister.index] = globalConstraint;\n                    globalConstraintsRegisterPre[globalConstraint.gcAddress].index = globalConstraintRegister.index;\n                }\n                globalConstraintsPre.length--;\n                delete globalConstraintsRegisterPre[_globalConstraint];\n                retVal = true;\n            }\n        }\n        if ((when == GlobalConstraintInterface.CallPhase.Post)||\n            (when == GlobalConstraintInterface.CallPhase.PreAndPost)) {\n            globalConstraintRegister = globalConstraintsRegisterPost[_globalConstraint];\n            if (globalConstraintRegister.isRegistered) {\n                if (globalConstraintRegister.index < globalConstraintsPost.length-1) {\n                    globalConstraint = globalConstraintsPost[globalConstraintsPost.length-1];\n                    globalConstraintsPost[globalConstraintRegister.index] = globalConstraint;\n                    globalConstraintsRegisterPost[globalConstraint.gcAddress].index = globalConstraintRegister.index;\n                }\n                globalConstraintsPost.length--;\n                delete globalConstraintsRegisterPost[_globalConstraint];\n                retVal = true;\n            }\n        }\n        if (retVal) {\n            emit RemoveGlobalConstraint(\n            _globalConstraint,\n            globalConstraintRegister.index,\n            when == GlobalConstraintInterface.CallPhase.Pre\n            );\n        }\n        return retVal;\n    }\n\n  /**\n    * @dev upgrade the Controller\n    *      The function will trigger an event 'UpgradeController'.\n    * @param  _newController the address of the new controller.\n    * @return bool which represents a success\n    */\n    function upgradeController(address _newController, Avatar _avatar)\n    external\n    onlyUpgradingScheme\n    isAvatarValid(address(_avatar))\n    returns(bool)\n    {\n        require(newController == address(0));   // so the upgrade could be done once for a contract.\n        require(_newController != address(0));\n        newController = _newController;\n        avatar.transferOwnership(_newController);\n        require(avatar.owner() == _newController);\n        if (nativeToken.owner() == address(this)) {\n            nativeToken.transferOwnership(_newController);\n            require(nativeToken.owner() == _newController);\n        }\n        if (nativeReputation.owner() == address(this)) {\n            nativeReputation.transferOwnership(_newController);\n            require(nativeReputation.owner() == _newController);\n        }\n        emit UpgradeController(address(this), newController);\n        return true;\n    }\n\n    /**\n    * @dev perform a generic call to an arbitrary contract\n    * @param _contract  the contract's address to call\n    * @param _data ABI-encoded contract call to call `_contract` address.\n    * @param _avatar the controller's avatar address\n    * @param _value value (ETH) to transfer with the transaction\n    * @return bool -success\n    *         bytes  - the return value of the called _contract's function.\n    */\n    function genericCall(address _contract, bytes calldata _data, Avatar _avatar, uint256 _value)\n    external\n    onlyGenericCallScheme\n    onlySubjectToConstraint(\"genericCall\")\n    isAvatarValid(address(_avatar))\n    returns (bool, bytes memory)\n    {\n        return avatar.genericCall(_contract, _data, _value);\n    }\n\n  /**\n   * @dev send some ether\n   * @param _amountInWei the amount of ether (in Wei) to send\n   * @param _to address of the beneficiary\n   * @return bool which represents a success\n   */\n    function sendEther(uint256 _amountInWei, address payable _to, Avatar _avatar)\n    external\n    onlyRegisteredScheme\n    onlySubjectToConstraint(\"sendEther\")\n    isAvatarValid(address(_avatar))\n    returns(bool)\n    {\n        return avatar.sendEther(_amountInWei, _to);\n    }\n\n    /**\n    * @dev send some amount of arbitrary ERC20 Tokens\n    * @param _externalToken the address of the Token Contract\n    * @param _to address of the beneficiary\n    * @param _value the amount of ether (in Wei) to send\n    * @return bool which represents a success\n    */\n    function externalTokenTransfer(IERC20 _externalToken, address _to, uint256 _value, Avatar _avatar)\n    external\n    onlyRegisteredScheme\n    onlySubjectToConstraint(\"externalTokenTransfer\")\n    isAvatarValid(address(_avatar))\n    returns(bool)\n    {\n        return avatar.externalTokenTransfer(_externalToken, _to, _value);\n    }\n\n    /**\n    * @dev transfer token \"from\" address \"to\" address\n    *      One must to approve the amount of tokens which can be spend from the\n    *      \"from\" account.This can be done using externalTokenApprove.\n    * @param _externalToken the address of the Token Contract\n    * @param _from address of the account to send from\n    * @param _to address of the beneficiary\n    * @param _value the amount of ether (in Wei) to send\n    * @return bool which represents a success\n    */\n    function externalTokenTransferFrom(\n    IERC20 _externalToken,\n    address _from,\n    address _to,\n    uint256 _value,\n    Avatar _avatar)\n    external\n    onlyRegisteredScheme\n    onlySubjectToConstraint(\"externalTokenTransferFrom\")\n    isAvatarValid(address(_avatar))\n    returns(bool)\n    {\n        return avatar.externalTokenTransferFrom(_externalToken, _from, _to, _value);\n    }\n\n    /**\n    * @dev externalTokenApproval approve the spender address to spend a specified amount of tokens\n    *      on behalf of msg.sender.\n    * @param _externalToken the address of the Token Contract\n    * @param _spender address\n    * @param _value the amount of ether (in Wei) which the approval is referring to.\n    * @return bool which represents a success\n    */\n    function externalTokenApproval(IERC20 _externalToken, address _spender, uint256 _value, Avatar _avatar)\n    external\n    onlyRegisteredScheme\n    onlySubjectToConstraint(\"externalTokenIncreaseApproval\")\n    isAvatarValid(address(_avatar))\n    returns(bool)\n    {\n        return avatar.externalTokenApproval(_externalToken, _spender, _value);\n    }\n\n    /**\n    * @dev metaData emits an event with a string, should contain the hash of some meta data.\n    * @param _metaData a string representing a hash of the meta data\n    * @param _avatar Avatar\n    * @return bool which represents a success\n    */\n    function metaData(string calldata _metaData, Avatar _avatar)\n        external\n        onlyMetaDataScheme\n        isAvatarValid(address(_avatar))\n        returns(bool)\n        {\n        return avatar.metaData(_metaData);\n    }\n\n    /**\n     * @dev getNativeReputation\n     * @param _avatar the organization avatar.\n     * @return organization native reputation\n     */\n    function getNativeReputation(address _avatar) external isAvatarValid(_avatar) view returns(address) {\n        return address(nativeReputation);\n    }\n\n    function isSchemeRegistered(address _scheme, address _avatar) external isAvatarValid(_avatar) view returns(bool) {\n        return _isSchemeRegistered(_scheme);\n    }\n\n    function getSchemeParameters(address _scheme, address _avatar)\n    external\n    isAvatarValid(_avatar)\n    view\n    returns(bytes32)\n    {\n        return schemes[_scheme].paramsHash;\n    }\n\n    function getSchemePermissions(address _scheme, address _avatar)\n    external\n    isAvatarValid(_avatar)\n    view\n    returns(bytes4)\n    {\n        return schemes[_scheme].permissions;\n    }\n\n    function getGlobalConstraintParameters(address _globalConstraint, address) external view returns(bytes32) {\n\n        GlobalConstraintRegister memory register = globalConstraintsRegisterPre[_globalConstraint];\n\n        if (register.isRegistered) {\n            return globalConstraintsPre[register.index].params;\n        }\n\n        register = globalConstraintsRegisterPost[_globalConstraint];\n\n        if (register.isRegistered) {\n            return globalConstraintsPost[register.index].params;\n        }\n    }\n\n   /**\n    * @dev globalConstraintsCount return the global constraint pre and post count\n    * @return uint256 globalConstraintsPre count.\n    * @return uint256 globalConstraintsPost count.\n    */\n    function globalConstraintsCount(address _avatar)\n        external\n        isAvatarValid(_avatar)\n        view\n        returns(uint, uint)\n        {\n        return (globalConstraintsPre.length, globalConstraintsPost.length);\n    }\n\n    function isGlobalConstraintRegistered(address _globalConstraint, address _avatar)\n        external\n        isAvatarValid(_avatar)\n        view\n        returns(bool)\n        {\n        return (globalConstraintsRegisterPre[_globalConstraint].isRegistered ||\n                globalConstraintsRegisterPost[_globalConstraint].isRegistered);\n    }\n\n    function _isSchemeRegistered(address _scheme) private view returns(bool) {\n        return (schemes[_scheme].permissions&bytes4(0x00000001) != bytes4(0));\n    }\n}\n",
  "sourcePath": "@daostack/arc/contracts/controller/Controller.sol",
  "compiler": {
    "name": "solc",
    "version": "0.5.4+commit.9549d8ff.Emscripten.clang"
  },
  "schemaVersion": "3.0.11",
  "updatedAt": "2019-09-23T08:51:23.504Z",
  "devdoc": {
    "details": "A controller controls the organizations tokens, reputation and avatar. It is subject to a set of schemes and constraints that determine its behavior. Each scheme has it own parameters and operation permissions.",
    "methods": {
      "addGlobalConstraint(address,bytes32,address)": {
        "details": "add or update Global Constraint",
        "params": {
          "_globalConstraint": "the address of the global constraint to be added.",
          "_params": "the constraint parameters hash."
        },
        "return": "bool which represents a success"
      },
      "burnReputation(uint256,address,address)": {
        "details": "Burns `_amount` of reputation from `_from`",
        "params": {
          "_amount": "amount of reputation to burn",
          "_from": "The address that will lose the reputation"
        },
        "return": "bool which represents a success"
      },
      "externalTokenApproval(address,address,uint256,address)": {
        "details": "externalTokenApproval approve the spender address to spend a specified amount of tokens     on behalf of msg.sender.",
        "params": {
          "_externalToken": "the address of the Token Contract",
          "_spender": "address",
          "_value": "the amount of ether (in Wei) which the approval is referring to."
        },
        "return": "bool which represents a success"
      },
      "externalTokenTransfer(address,address,uint256,address)": {
        "details": "send some amount of arbitrary ERC20 Tokens",
        "params": {
          "_externalToken": "the address of the Token Contract",
          "_to": "address of the beneficiary",
          "_value": "the amount of ether (in Wei) to send"
        },
        "return": "bool which represents a success"
      },
      "externalTokenTransferFrom(address,address,address,uint256,address)": {
        "details": "transfer token \"from\" address \"to\" address     One must to approve the amount of tokens which can be spend from the     \"from\" account.This can be done using externalTokenApprove.",
        "params": {
          "_externalToken": "the address of the Token Contract",
          "_from": "address of the account to send from",
          "_to": "address of the beneficiary",
          "_value": "the amount of ether (in Wei) to send"
        },
        "return": "bool which represents a success"
      },
      "genericCall(address,bytes,address,uint256)": {
        "details": "perform a generic call to an arbitrary contract",
        "params": {
          "_avatar": "the controller's avatar address",
          "_contract": "the contract's address to call",
          "_data": "ABI-encoded contract call to call `_contract` address.",
          "_value": "value (ETH) to transfer with the transaction"
        },
        "return": "bool -success        bytes  - the return value of the called _contract's function."
      },
      "getNativeReputation(address)": {
        "details": "getNativeReputation",
        "params": {
          "_avatar": "the organization avatar."
        },
        "return": "organization native reputation"
      },
      "globalConstraintsCount(address)": {
        "details": "globalConstraintsCount return the global constraint pre and post count",
        "return": "uint256 globalConstraintsPre count.uint256 globalConstraintsPost count."
      },
      "metaData(string,address)": {
        "details": "metaData emits an event with a string, should contain the hash of some meta data.",
        "params": {
          "_avatar": "Avatar",
          "_metaData": "a string representing a hash of the meta data"
        },
        "return": "bool which represents a success"
      },
      "mintReputation(uint256,address,address)": {
        "details": "Mint `_amount` of reputation that are assigned to `_to` .",
        "params": {
          "_amount": "amount of reputation to mint",
          "_to": "beneficiary address"
        },
        "return": "bool which represents a success"
      },
      "mintTokens(uint256,address,address)": {
        "details": "mint tokens .",
        "params": {
          "_amount": "amount of token to mint",
          "_beneficiary": "beneficiary address"
        },
        "return": "bool which represents a success"
      },
      "registerScheme(address,bytes32,bytes4,address)": {
        "details": "register a scheme",
        "params": {
          "_paramsHash": "a hashed configuration of the usage of the scheme",
          "_permissions": "the permissions the new scheme will have",
          "_scheme": "the address of the scheme"
        },
        "return": "bool which represents a success"
      },
      "removeGlobalConstraint(address,address)": {
        "details": "remove Global Constraint",
        "params": {
          "_globalConstraint": "the address of the global constraint to be remove."
        },
        "return": "bool which represents a success"
      },
      "sendEther(uint256,address,address)": {
        "details": "send some ether",
        "params": {
          "_amountInWei": "the amount of ether (in Wei) to send",
          "_to": "address of the beneficiary"
        },
        "return": "bool which represents a success"
      },
      "unregisterScheme(address,address)": {
        "details": "unregister a scheme",
        "params": {
          "_scheme": "the address of the scheme"
        },
        "return": "bool which represents a success"
      },
      "unregisterSelf(address)": {
        "details": "unregister the caller's scheme",
        "return": "bool which represents a success"
      },
      "upgradeController(address,address)": {
        "details": "upgrade the Controller     The function will trigger an event 'UpgradeController'.",
        "params": {
          "_newController": "the address of the new controller."
        },
        "return": "bool which represents a success"
      }
    },
    "title": "Controller contract"
  },
  "userdoc": {
    "methods": {}
  }
}