{
  "contractName": "ControllerCreatorGoodDollar",
  "abi": [
    {
      "constant": false,
      "inputs": [
        {
          "internalType": "contract Avatar",
          "name": "_avatar",
          "type": "address"
        },
        {
          "internalType": "address",
          "name": "_sender",
          "type": "address"
        }
      ],
      "name": "create",
      "outputs": [
        {
          "internalType": "address",
          "name": "",
          "type": "address"
        }
      ],
      "payable": false,
      "stateMutability": "nonpayable",
      "type": "function"
    }
  ],
  "bytecode": "0x608060405234801561001057600080fd5b50613d58806100206000396000f3fe608060405234801561001057600080fd5b506004361061002b5760003560e01c80633e68680a14610030575b600080fd5b61005e6004803603604081101561004657600080fd5b506001600160a01b038135811691602001351661007a565b604080516001600160a01b039092168252519081900360200190f35b6000808360405161008a906101d4565b6001600160a01b03909116815260405190819003602001906000f0801580156100b7573d6000803e3d6000fd5b506040805163e869d45f60e01b81526001600160a01b038681166004830152600060248301819052601f60e01b60448401528882166064840152925193945084169263e869d45f92608480840193602093929083900390910190829087803b15801561012257600080fd5b505af1158015610136573d6000803e3d6000fd5b505050506040513d602081101561014c57600080fd5b50506040805163039de01d60e01b81523060048201526001600160a01b03868116602483015291519183169163039de01d916044808201926020929091908290030181600087803b1580156101a057600080fd5b505af11580156101b4573d6000803e3d6000fd5b505050506040513d60208110156101ca57600080fd5b5090949350505050565b613b42806101e28339019056fe60806040523480156200001157600080fd5b5060405162003b4238038062003b42833981810160405260208110156200003757600080fd5b5051600180546001600160a01b0319166001600160a01b03808416919091179182905560408051631c2eb17b60e31b81529051929091169163e1758bd891600480820192602092909190829003018186803b1580156200009657600080fd5b505afa158015620000ab573d6000803e3d6000fd5b505050506040513d6020811015620000c257600080fd5b5051600280546001600160a01b0319166001600160a01b039283161790556001546040805163089ae1c960e41b8152905191909216916389ae1c90916004808301926020929190829003018186803b1580156200011e57600080fd5b505afa15801562000133573d6000803e3d6000fd5b505050506040513d60208110156200014a57600080fd5b5051600380546001600160a01b0319166001600160a01b03909216919091179055506040805180820182526000808252601f60e01b6020808401918252338352829052928120915182559151600191909101805463ffffffff191660e09290921c919091179055613980908190620001c290396000f3fe608060405234801561001057600080fd5b50600436106101e55760003560e01c806389ae1c901161010f578063e08738da116100a2578063e8c98b2211610071578063e8c98b221461083e578063eaf994b21461085b578063f76488be1461088f578063fb4856a2146108bd576101e5565b8063e08738da1461078e578063e1758bd8146107bc578063e4537a74146107c4578063e869d45f146107fa576101e5565b8063b9a04cdd116100de578063b9a04cdd1461057f578063c9b62eb1146105bb578063d1b7089a14610634578063db6149ce14610746576101e5565b806389ae1c90146104d85780638da03997146104e05780639b51e35a146105065780639be2faed14610551576101e5565b806351803cd8116101875780636c525b13116101565780636c525b13146104195780636e94d2781461043f578063814784f614610473578063824f2f1f14610499576101e5565b806351803cd81461036d5780635aef7de6146103a9578063634965da146103b15780636407e432146103e5576101e5565b80633a02263c116101c35780633a02263c146102ad57806342427bf8146102d15780634422d372146102ff5780634f52b5be1461033f576101e5565b8063039de01d146101ea578063177eebb01461022c5780631c4d56081461026d575b600080fd5b6102186004803603604081101561020057600080fd5b506001600160a01b0381358116916020013516610903565b604080519115158252519081900360200190f35b6102526004803603602081101561024257600080fd5b50356001600160a01b0316610c09565b60408051921515835260208301919091528051918290030190f35b61029b6004803603604081101561028357600080fd5b506001600160a01b0381358116916020013516610c28565b60408051918252519081900360200190f35b6102b5610c6a565b604080516001600160a01b039092168252519081900360200190f35b610218600480360360408110156102e757600080fd5b506001600160a01b0381358116916020013516610c79565b61031c6004803603602081101561031557600080fd5b503561113b565b604080516001600160a01b03909316835260208301919091528051918290030190f35b6102186004803603604081101561035557600080fd5b506001600160a01b0381358116916020013516611170565b6102186004803603608081101561038357600080fd5b506001600160a01b0381358116916020810135821691604082013591606001351661156b565b6102b561184f565b610218600480360360608110156103c757600080fd5b508035906001600160a01b036020820135811691604001351661185e565b610218600480360360608110156103fb57600080fd5b508035906001600160a01b0360208201358116916040013516611b25565b6102186004803603602081101561042f57600080fd5b50356001600160a01b0316611e24565b6102186004803603606081101561045557600080fd5b508035906001600160a01b0360208201358116916040013516611eab565b6102526004803603602081101561048957600080fd5b50356001600160a01b03166121ae565b6104bf600480360360208110156104af57600080fd5b50356001600160a01b03166121cd565b6040805192835260208301919091528051918290030190f35b6102b56121ff565b6102b5600480360360208110156104f657600080fd5b50356001600160a01b031661220e565b6105346004803603604081101561051c57600080fd5b506001600160a01b0381358116916020013516612240565b604080516001600160e01b03199092168252519081900360200190f35b6102186004803603604081101561056757600080fd5b506001600160a01b0381358116916020013516612283565b6102186004803603608081101561059557600080fd5b506001600160a01b038135811691602081013582169160408201359160600135166122b3565b610218600480360360408110156105d157600080fd5b8101906020810181356401000000008111156105ec57600080fd5b8201836020820111156105fe57600080fd5b8035906020019184600183028401116401000000008311171561062057600080fd5b9193509150356001600160a01b0316612585565b6106c36004803603608081101561064a57600080fd5b6001600160a01b03823516919081019060408101602082013564010000000081111561067557600080fd5b82018360208201111561068757600080fd5b803590602001918460018302840111640100000000831117156106a957600080fd5b91935091506001600160a01b038135169060200135612675565b604051808315151515815260200180602001828103825283818151815260200191508051906020019080838360005b8381101561070a5781810151838201526020016106f2565b50505050905090810190601f1680156107375780820380516001836020036101000a031916815260200191505b50935050505060405180910390f35b61076c6004803603602081101561075c57600080fd5b50356001600160a01b0316612a46565b604080519283526001600160e01b031990911660208301528051918290030190f35b61029b600480360360408110156107a457600080fd5b506001600160a01b0381358116916020013516612a62565b6102b5612b2e565b610218600480360360608110156107da57600080fd5b506001600160a01b03813581169160208101359160409091013516612b3d565b6102186004803603608081101561081057600080fd5b506001600160a01b0381358116916020810135916001600160e01b0319604083013516916060013516612f09565b61031c6004803603602081101561085457600080fd5b5035613246565b6102186004803603606081101561087157600080fd5b508035906001600160a01b0360208201358116916040013516613253565b610218600480360360408110156108a557600080fd5b506001600160a01b0381358116916020013516613556565b610218600480360360a08110156108d357600080fd5b506001600160a01b03813581169160208101358216916040820135811691606081013591608090910135166135b8565b3360009081526020819052604081206001015460e01b600160e11b9081161461092b57600080fd5b6f756e7265676973746572536368656d6560801b60005b600554811015610a32576005818154811061095957fe5b6000918252602090912060029091020154600580546001600160a01b039092169163c1786ab29133918590811061098c57fe5b906000526020600020906002020160010154856040518463ffffffff1660e01b815260040180846001600160a01b03166001600160a01b031681526020018381526020018281526020019350505050602060405180830381600087803b1580156109f557600080fd5b505af1158015610a09573d6000803e3d6000fd5b505050506040513d6020811015610a1f57600080fd5b5051610a2a57600080fd5b600101610942565b60015484906001600160a01b03808316911614610a4e57600080fd5b610a57866138a5565b610a645760009350610b0b565b336000908152602081905260408082206001908101546001600160a01b038a168452919092209091015460e091821b19911b16601f60e01b1615610aa757600080fd5b6040516001600160a01b0387169033907f10bb2cf04cb8b902a8e736d494f1a51003be6d4b16ef6fb95ce62c38445023bf90600090a36001600160a01b03861660009081526020819052604081209081556001908101805463ffffffff1916905593505b50600090505b600654811015610c015760068181548110610b2857fe5b6000918252602090912060029091020154600680546001600160a01b0390921691638043154d91339185908110610b5b57fe5b906000526020600020906002020160010154856040518463ffffffff1660e01b815260040180846001600160a01b03166001600160a01b031681526020018381526020018281526020019350505050602060405180830381600087803b158015610bc457600080fd5b505af1158015610bd8573d6000803e3d6000fd5b505050506040513d6020811015610bee57600080fd5b5051610bf957600080fd5b600101610b11565b505092915050565b6007602052600090815260409020805460019091015460ff9091169082565b60015460009082906001600160a01b03808316911614610c4757600080fd5b6001600160a01b03841660009081526020819052604090205491505b5092915050565b6004546001600160a01b031681565b3360009081526020819052604081206001015460e01b600160e31b90811614610ca157600080fd5b60015482906001600160a01b03808316911614610cbd57600080fd5b6004546001600160a01b031615610cd357600080fd5b6001600160a01b038416610ce657600080fd5b600480546001600160a01b0319166001600160a01b0386811691821783556001546040805163f2fde38b60e01b815294850193909352915191169163f2fde38b91602480830192600092919082900301818387803b158015610d4757600080fd5b505af1158015610d5b573d6000803e3d6000fd5b50505050836001600160a01b0316600160009054906101000a90046001600160a01b03166001600160a01b0316638da5cb5b6040518163ffffffff1660e01b815260040160206040518083038186803b158015610db757600080fd5b505afa158015610dcb573d6000803e3d6000fd5b505050506040513d6020811015610de157600080fd5b50516001600160a01b031614610df657600080fd5b60025460408051638da5cb5b60e01b8152905130926001600160a01b031691638da5cb5b916004808301926020929190829003018186803b158015610e3a57600080fd5b505afa158015610e4e573d6000803e3d6000fd5b505050506040513d6020811015610e6457600080fd5b50516001600160a01b03161415610f72576002546040805163f2fde38b60e01b81526001600160a01b0387811660048301529151919092169163f2fde38b91602480830192600092919082900301818387803b158015610ec357600080fd5b505af1158015610ed7573d6000803e3d6000fd5b50505050836001600160a01b0316600260009054906101000a90046001600160a01b03166001600160a01b0316638da5cb5b6040518163ffffffff1660e01b815260040160206040518083038186803b158015610f3357600080fd5b505afa158015610f47573d6000803e3d6000fd5b505050506040513d6020811015610f5d57600080fd5b50516001600160a01b031614610f7257600080fd5b60035460408051638da5cb5b60e01b8152905130926001600160a01b031691638da5cb5b916004808301926020929190829003018186803b158015610fb657600080fd5b505afa158015610fca573d6000803e3d6000fd5b505050506040513d6020811015610fe057600080fd5b50516001600160a01b031614156110ee576003546040805163f2fde38b60e01b81526001600160a01b0387811660048301529151919092169163f2fde38b91602480830192600092919082900301818387803b15801561103f57600080fd5b505af1158015611053573d6000803e3d6000fd5b50505050836001600160a01b0316600360009054906101000a90046001600160a01b03166001600160a01b0316638da5cb5b6040518163ffffffff1660e01b815260040160206040518083038186803b1580156110af57600080fd5b505afa1580156110c3573d6000803e3d6000fd5b505050506040513d60208110156110d957600080fd5b50516001600160a01b0316146110ee57600080fd5b600454604080516001600160a01b039290921682525130917fdb7cbacf8df312d794506c0cc9af07f64d29ca075796ea2e950a3832cc9a63dd919081900360200190a25060019392505050565b6005818154811061114857fe5b6000918252602090912060029091020180546001909101546001600160a01b03909116915082565b3360009081526020819052604081206001015460e01b600160e21b9081161461119857600080fd5b60015482906001600160a01b038083169116146111b457600080fd5b6111bc6138d1565b6111c46138d1565b6000866001600160a01b031663e2b0caef6040518163ffffffff1660e01b8152600401602060405180830381600087803b15801561120157600080fd5b505af1158015611215573d6000803e3d6000fd5b505050506040513d602081101561122b57600080fd5b5051905060008082600281111561123e57fe5b14806112555750600282600281111561125357fe5b145b15611399576001600160a01b0388166000908152600760209081526040918290208251808401909352805460ff16158015845260019091015491830191909152909450611399576001600580549050038460200151101561135a576005805460001981019081106112c257fe5b60009182526020918290206040805180820190915260029092020180546001600160a01b03168252600101548183015290850151600580549295508592909190811061130a57fe5b6000918252602080832084516002939093020180546001600160a01b0319166001600160a01b03938416178155938101516001948501558781015187519092168352600790526040909120909101555b600580549061136d9060001983016138e8565b50506001600160a01b0387166000908152600760205260408120805460ff191681556001908101919091555b60018260028111156113a757fe5b14806113be575060028260028111156113bc57fe5b145b15611502576001600160a01b0388166000908152600860209081526040918290208251808401909352805460ff1615801584526001909101549183019190915290945061150257600160068054905003846020015110156114c35760068054600019810190811061142b57fe5b60009182526020918290206040805180820190915260029092020180546001600160a01b03168252600101548183015290850151600680549295508592909190811061147357fe5b6000918252602080832084516002939093020180546001600160a01b0319166001600160a01b03938416178155938101516001948501558781015187519092168352600890526040909120909101555b60068054906114d69060001983016138e8565b50506001600160a01b0387166000908152600860205260408120805460ff191681556001908101919091555b80156115605760208401516001600160a01b038916907fcdf1a50ea6b7de555bd409f8a4a53ea43c6dc6b4caa961889da9e005f21bbaa990600085600281111561154857fe5b60408051938452911460208301528051918290030190a25b979650505050505050565b3360009081526020819052604081206001015460e01b600160e01b9081161461159357600080fd5b7f65787465726e616c546f6b656e496e637265617365417070726f76616c00000060005b6005548110156116a757600581815481106115ce57fe5b6000918252602090912060029091020154600580546001600160a01b039092169163c1786ab29133918590811061160157fe5b906000526020600020906002020160010154856040518463ffffffff1660e01b815260040180846001600160a01b03166001600160a01b031681526020018381526020018281526020019350505050602060405180830381600087803b15801561166a57600080fd5b505af115801561167e573d6000803e3d6000fd5b505050506040513d602081101561169457600080fd5b505161169f57600080fd5b6001016115b7565b60015484906001600160a01b038083169116146116c357600080fd5b6001546040805163ab751f7160e01b81526001600160a01b038b811660048301528a81166024830152604482018a90529151919092169163ab751f719160648083019260209291908290030181600087803b15801561172157600080fd5b505af1158015611735573d6000803e3d6000fd5b505050506040513d602081101561174b57600080fd5b5051935050600090505b600654811015611845576006818154811061176c57fe5b6000918252602090912060029091020154600680546001600160a01b0390921691638043154d9133918590811061179f57fe5b906000526020600020906002020160010154856040518463ffffffff1660e01b815260040180846001600160a01b03166001600160a01b031681526020018381526020018281526020019350505050602060405180830381600087803b15801561180857600080fd5b505af115801561181c573d6000803e3d6000fd5b505050506040513d602081101561183257600080fd5b505161183d57600080fd5b600101611755565b5050949350505050565b6001546001600160a01b031681565b3360009081526020819052604081206001015460e01b600160e01b9081161461188657600080fd5b6839b2b73222ba3432b960b91b60005b60055481101561198657600581815481106118ad57fe5b6000918252602090912060029091020154600580546001600160a01b039092169163c1786ab2913391859081106118e057fe5b906000526020600020906002020160010154856040518463ffffffff1660e01b815260040180846001600160a01b03166001600160a01b031681526020018381526020018281526020019350505050602060405180830381600087803b15801561194957600080fd5b505af115801561195d573d6000803e3d6000fd5b505050506040513d602081101561197357600080fd5b505161197e57600080fd5b600101611896565b60015484906001600160a01b038083169116146119a257600080fd5b6001546040805163658b6a5160e11b8152600481018a90526001600160a01b0389811660248301529151919092169163cb16d4a29160448083019260209291908290030181600087803b1580156119f857600080fd5b505af1158015611a0c573d6000803e3d6000fd5b505050506040513d6020811015611a2257600080fd5b5051935050600090505b600654811015611b1c5760068181548110611a4357fe5b6000918252602090912060029091020154600680546001600160a01b0390921691638043154d91339185908110611a7657fe5b906000526020600020906002020160010154856040518463ffffffff1660e01b815260040180846001600160a01b03166001600160a01b031681526020018381526020018281526020019350505050602060405180830381600087803b158015611adf57600080fd5b505af1158015611af3573d6000803e3d6000fd5b505050506040513d6020811015611b0957600080fd5b5051611b1457600080fd5b600101611a2c565b50509392505050565b3360009081526020819052604081206001015460e01b600160e01b90811614611b4d57600080fd5b696d696e74546f6b656e7360b01b60005b600554811015611c4e5760058181548110611b7557fe5b6000918252602090912060029091020154600580546001600160a01b039092169163c1786ab291339185908110611ba857fe5b906000526020600020906002020160010154856040518463ffffffff1660e01b815260040180846001600160a01b03166001600160a01b031681526020018381526020018281526020019350505050602060405180830381600087803b158015611c1157600080fd5b505af1158015611c25573d6000803e3d6000fd5b505050506040513d6020811015611c3b57600080fd5b5051611c4657600080fd5b600101611b5e565b60015484906001600160a01b03808316911614611c6a57600080fd5b6040805188815290516001600160a01b0388169133917f21f9c9a1a1f9a311a50f15fec5c1faa9e21fc9edf964f0fdecba5bd490484c5e9181900360200190a3600254604080516340c10f1960e01b81526001600160a01b038981166004830152602482018b9052915191909216916340c10f199160448083019260209291908290030181600087803b158015611d0057600080fd5b505af1158015611d14573d6000803e3d6000fd5b505050506040513d6020811015611d2a57600080fd5b5051935050600090505b600654811015611b1c5760068181548110611d4b57fe5b6000918252602090912060029091020154600680546001600160a01b0390921691638043154d91339185908110611d7e57fe5b906000526020600020906002020160010154856040518463ffffffff1660e01b815260040180846001600160a01b03166001600160a01b031681526020018381526020018281526020019350505050602060405180830381600087803b158015611de757600080fd5b505af1158015611dfb573d6000803e3d6000fd5b505050506040513d6020811015611e1157600080fd5b5051611e1c57600080fd5b600101611d34565b60015460009082906001600160a01b03808316911614611e4357600080fd5b611e4c336138a5565b611e595760009150611ea5565b33600081815260208190526040808220828155600101805463ffffffff191690555182917f10bb2cf04cb8b902a8e736d494f1a51003be6d4b16ef6fb95ce62c38445023bf91a3600191505b50919050565b3360009081526020819052604081206001015460e01b600160e01b90811614611ed357600080fd5b6d313ab9372932b83aba30ba34b7b760911b60005b600554811015611fd85760058181548110611eff57fe5b6000918252602090912060029091020154600580546001600160a01b039092169163c1786ab291339185908110611f3257fe5b906000526020600020906002020160010154856040518463ffffffff1660e01b815260040180846001600160a01b03166001600160a01b031681526020018381526020018281526020019350505050602060405180830381600087803b158015611f9b57600080fd5b505af1158015611faf573d6000803e3d6000fd5b505050506040513d6020811015611fc557600080fd5b5051611fd057600080fd5b600101611ee8565b60015484906001600160a01b03808316911614611ff457600080fd5b6040805188815290516001600160a01b0388169133917f186d8887e1b22f9d9b16849c36baa748950d09d9c9b67a4a6ea140eaad00c21c9181900360200190a360035460408051632770a7eb60e21b81526001600160a01b038981166004830152602482018b905291519190921691639dc29fac9160448083019260209291908290030181600087803b15801561208a57600080fd5b505af115801561209e573d6000803e3d6000fd5b505050506040513d60208110156120b457600080fd5b5051935050600090505b600654811015611b1c57600681815481106120d557fe5b6000918252602090912060029091020154600680546001600160a01b0390921691638043154d9133918590811061210857fe5b906000526020600020906002020160010154856040518463ffffffff1660e01b815260040180846001600160a01b03166001600160a01b031681526020018381526020018281526020019350505050602060405180830381600087803b15801561217157600080fd5b505af1158015612185573d6000803e3d6000fd5b505050506040513d602081101561219b57600080fd5b50516121a657600080fd5b6001016120be565b6008602052600090815260409020805460019091015460ff9091169082565b600154600090819083906001600160a01b038083169116146121ee57600080fd5b600554600654909350915050915091565b6003546001600160a01b031681565b60015460009082906001600160a01b0380831691161461222d57600080fd5b50506003546001600160a01b0316919050565b60015460009082906001600160a01b0380831691161461225f57600080fd5b5050506001600160a01b031660009081526020819052604090206001015460e01b90565b60015460009082906001600160a01b038083169116146122a257600080fd5b6122ab846138a5565b949350505050565b3360009081526020819052604081206001015460e01b600160e01b908116146122db57600080fd5b7432bc3a32b93730b62a37b5b2b72a3930b739b332b960591b60005b6005548110156123e7576005818154811061230e57fe5b6000918252602090912060029091020154600580546001600160a01b039092169163c1786ab29133918590811061234157fe5b906000526020600020906002020160010154856040518463ffffffff1660e01b815260040180846001600160a01b03166001600160a01b031681526020018381526020018281526020019350505050602060405180830381600087803b1580156123aa57600080fd5b505af11580156123be573d6000803e3d6000fd5b505050506040513d60208110156123d457600080fd5b50516123df57600080fd5b6001016122f7565b60015484906001600160a01b0380831691161461240357600080fd5b6001546040805163dab0efff60e01b81526001600160a01b038b811660048301528a81166024830152604482018a90529151919092169163dab0efff9160648083019260209291908290030181600087803b15801561246157600080fd5b505af1158015612475573d6000803e3d6000fd5b505050506040513d602081101561248b57600080fd5b5051935050600090505b60065481101561184557600681815481106124ac57fe5b6000918252602090912060029091020154600680546001600160a01b0390921691638043154d913391859081106124df57fe5b906000526020600020906002020160010154856040518463ffffffff1660e01b815260040180846001600160a01b03166001600160a01b031681526020018381526020018281526020019350505050602060405180830381600087803b15801561254857600080fd5b505af115801561255c573d6000803e3d6000fd5b505050506040513d602081101561257257600080fd5b505161257d57600080fd5b600101612495565b3360009081526020819052604081206001015460e01b600160e41b908116146125ad57600080fd5b60015482906001600160a01b038083169116146125c957600080fd5b600154604051632242b11b60e21b8152602060048201908152602482018790526001600160a01b039092169163890ac46c91889188918190604401848480828437600081840152601f19601f8201169050808301925050509350505050602060405180830381600087803b15801561264057600080fd5b505af1158015612654573d6000803e3d6000fd5b505050506040513d602081101561266a57600080fd5b505195945050505050565b3360009081526020819052604081206001015460609060e01b600160e41b908116146126a057600080fd5b6a19d95b995c9a58d0d85b1b60aa1b60005b6005548110156127a257600581815481106126c957fe5b6000918252602090912060029091020154600580546001600160a01b039092169163c1786ab2913391859081106126fc57fe5b906000526020600020906002020160010154856040518463ffffffff1660e01b815260040180846001600160a01b03166001600160a01b031681526020018381526020018281526020019350505050602060405180830381600087803b15801561276557600080fd5b505af1158015612779573d6000803e3d6000fd5b505050506040513d602081101561278f57600080fd5b505161279a57600080fd5b6001016126b2565b60015486906001600160a01b038083169116146127be57600080fd5b60015460405163057e2c8b60e31b81526001600160a01b038c811660048301908152604483018a9052606060248401908152606484018d90529190931692632bf16458928e928e928e928d9290608401858580828437600081840152601f19601f82011690508083019250505095505050505050600060405180830381600087803b15801561284c57600080fd5b505af1158015612860573d6000803e3d6000fd5b505050506040513d6000823e601f3d908101601f19168201604090815281101561288957600080fd5b8151602083018051604051929492938301929190846401000000008211156128b057600080fd5b9083019060208201858111156128c557600080fd5b82516401000000008111828201881017156128df57600080fd5b82525081516020918201929091019080838360005b8381101561290c5781810151838201526020016128f4565b50505050905090810190601f1680156129395780820380516001836020036101000a031916815260200191505b506040525050509450945050600090505b600654811015612a3a576006818154811061296157fe5b6000918252602090912060029091020154600680546001600160a01b0390921691638043154d9133918590811061299457fe5b906000526020600020906002020160010154856040518463ffffffff1660e01b815260040180846001600160a01b03166001600160a01b031681526020018381526020018281526020019350505050602060405180830381600087803b1580156129fd57600080fd5b505af1158015612a11573d6000803e3d6000fd5b505050506040513d6020811015612a2757600080fd5b5051612a3257600080fd5b60010161294a565b50509550959350505050565b6000602081905290815260409020805460019091015460e01b82565b6000612a6c6138d1565b506001600160a01b0383166000908152600760209081526040918290208251808401909352805460ff16158015845260019091015491830191909152612ad7576005816020015181548110612abd57fe5b906000526020600020906002020160010154915050612b28565b506001600160a01b0383166000908152600860209081526040918290208251808401909352805460ff16158015845260019091015491830191909152610c63576006816020015181548110612abd57fe5b92915050565b6002546001600160a01b031681565b3360009081526020819052604081206001015460e01b600160e21b90811614612b6557600080fd5b60015482906001600160a01b03808316911614612b8157600080fd5b6000856001600160a01b031663e2b0caef6040518163ffffffff1660e01b8152600401602060405180830381600087803b158015612bbe57600080fd5b505af1158015612bd2573d6000803e3d6000fd5b505050506040513d6020811015612be857600080fd5b505190506000816002811115612bfa57fe5b1480612c1157506002816002811115612c0f57fe5b145b15612d49576001600160a01b03861660009081526007602052604090205460ff16612d08576040805180820182526001600160a01b0388811680835260208084018a81526005805460018082018355600083815297517f036b6384b5eca791c62761152d0c79bb0604c104a5fb6f4eb0703f3154bb3db0600290930292830180546001600160a01b031916919098161790965591517f036b6384b5eca791c62761152d0c79bb0604c104a5fb6f4eb0703f3154bb3db190920191909155855180870187528481529054600019018183019081529285526007909152939092209251835460ff19169015151783559051910155612d49565b6001600160a01b038616600090815260076020526040902060010154600580548792908110612d3357fe5b9060005260206000209060020201600101819055505b6001816002811115612d5757fe5b1480612d6e57506002816002811115612d6c57fe5b145b15612ea6576001600160a01b03861660009081526008602052604090205460ff16612e65576040805180820182526001600160a01b0388811680835260208084018a81526006805460018082018355600083815297517ff652222313e28459528d920b65115c16c04f3efc82aaedc97be59f3f377c0d3f600290930292830180546001600160a01b031916919098161790965591517ff652222313e28459528d920b65115c16c04f3efc82aaedc97be59f3f377c0d4090920191909155855180870187528481529054600019018183019081529285526008909152939092209251835460ff19169015151783559051910155612ea6565b6001600160a01b038616600090815260086020526040902060010154600680548792908110612e9057fe5b9060005260206000209060020201600101819055505b856001600160a01b03167f78800d7333b8d0174a0845569e3913b7ce4a3c03ca444dd9904172fc14f2fdad868360405180838152602001826002811115612ee957fe5b60ff1681526020019250505060405180910390a250600195945050505050565b3360009081526020819052604081206001015460e01b600160e11b90811614612f3157600080fd5b6d7265676973746572536368656d6560901b60005b6005548110156130365760058181548110612f5d57fe5b6000918252602090912060029091020154600580546001600160a01b039092169163c1786ab291339185908110612f9057fe5b906000526020600020906002020160010154856040518463ffffffff1660e01b815260040180846001600160a01b03166001600160a01b031681526020018381526020018281526020019350505050602060405180830381600087803b158015612ff957600080fd5b505af115801561300d573d6000803e3d6000fd5b505050506040513d602081101561302357600080fd5b505161302e57600080fd5b600101612f46565b60015484906001600160a01b0380831691161461305257600080fd5b61305a6138d1565b506001600160a01b03881660009081526020818152604080832081518083018352815481526001918201546001600160e01b031960e091821b16828601908152338752948690529290942001549151891891901b1916601f60e01b16156130c057600080fd5b336000908152602081815260409091206001015490820151601f60e01b60e09290921b191616156130f057600080fd5b6001600160a01b0389166000818152602081905260408082208b8155600101805463ffffffff1916600160e01b8c1760e01c1790555133917f546816e99403df442acb68ef69562682a50762c20a3fb6b472f7af9923736cfc91a3600194505050600090505b600654811015611845576006818154811061316d57fe5b6000918252602090912060029091020154600680546001600160a01b0390921691638043154d913391859081106131a057fe5b906000526020600020906002020160010154856040518463ffffffff1660e01b815260040180846001600160a01b03166001600160a01b031681526020018381526020018281526020019350505050602060405180830381600087803b15801561320957600080fd5b505af115801561321d573d6000803e3d6000fd5b505050506040513d602081101561323357600080fd5b505161323e57600080fd5b600101613156565b6006818154811061114857fe5b3360009081526020819052604081206001015460e01b600160e01b9081161461327b57600080fd5b6d36b4b73a2932b83aba30ba34b7b760911b60005b60055481101561338057600581815481106132a757fe5b6000918252602090912060029091020154600580546001600160a01b039092169163c1786ab2913391859081106132da57fe5b906000526020600020906002020160010154856040518463ffffffff1660e01b815260040180846001600160a01b03166001600160a01b031681526020018381526020018281526020019350505050602060405180830381600087803b15801561334357600080fd5b505af1158015613357573d6000803e3d6000fd5b505050506040513d602081101561336d57600080fd5b505161337857600080fd5b600101613290565b60015484906001600160a01b0380831691161461339c57600080fd5b6040805188815290516001600160a01b0388169133917f837f2931e3df0592458212be4e470025f197feb7a8e39deb5b7f1f1d42e6f2629181900360200190a3600354604080516340c10f1960e01b81526001600160a01b038981166004830152602482018b9052915191909216916340c10f199160448083019260209291908290030181600087803b15801561343257600080fd5b505af1158015613446573d6000803e3d6000fd5b505050506040513d602081101561345c57600080fd5b5051935050600090505b600654811015611b1c576006818154811061347d57fe5b6000918252602090912060029091020154600680546001600160a01b0390921691638043154d913391859081106134b057fe5b906000526020600020906002020160010154856040518463ffffffff1660e01b815260040180846001600160a01b03166001600160a01b031681526020018381526020018281526020019350505050602060405180830381600087803b15801561351957600080fd5b505af115801561352d573d6000803e3d6000fd5b505050506040513d602081101561354357600080fd5b505161354e57600080fd5b600101613466565b60015460009082906001600160a01b0380831691161461357557600080fd5b6001600160a01b03841660009081526007602052604090205460ff16806122ab57505050506001600160a01b031660009081526008602052604090205460ff1690565b3360009081526020819052604081206001015460e01b600160e01b908116146135e057600080fd5b7f65787465726e616c546f6b656e5472616e7366657246726f6d0000000000000060005b6005548110156136f4576005818154811061361b57fe5b6000918252602090912060029091020154600580546001600160a01b039092169163c1786ab29133918590811061364e57fe5b906000526020600020906002020160010154856040518463ffffffff1660e01b815260040180846001600160a01b03166001600160a01b031681526020018381526020018281526020019350505050602060405180830381600087803b1580156136b757600080fd5b505af11580156136cb573d6000803e3d6000fd5b505050506040513d60208110156136e157600080fd5b50516136ec57600080fd5b600101613604565b60015484906001600160a01b0380831691161461371057600080fd5b60015460408051635bab6ad160e11b81526001600160a01b038c811660048301528b811660248301528a81166044830152606482018a90529151919092169163b756d5a29160848083019260209291908290030181600087803b15801561377657600080fd5b505af115801561378a573d6000803e3d6000fd5b505050506040513d60208110156137a057600080fd5b5051935050600090505b60065481101561389a57600681815481106137c157fe5b6000918252602090912060029091020154600680546001600160a01b0390921691638043154d913391859081106137f457fe5b906000526020600020906002020160010154856040518463ffffffff1660e01b815260040180846001600160a01b03166001600160a01b031681526020018381526020018281526020019350505050602060405180830381600087803b15801561385d57600080fd5b505af1158015613871573d6000803e3d6000fd5b505050506040513d602081101561388757600080fd5b505161389257600080fd5b6001016137aa565b505095945050505050565b6001600160a01b03811660009081526020819052604090206001015460e01b600160e01b161515919050565b604080518082019091526000808252602082015290565b815481835581811115613914576002028160020283600052602060002091820191016139149190613919565b505050565b61394891905b808211156139445780546001600160a01b03191681556000600182015560020161391f565b5090565b9056fea265627a7a72315820a3c13011e9290449e52fc4816400e8b331ad03e97218d4ae7a54ba286ec7251564736f6c63430005100032a265627a7a72315820028ffdb60c4179b9bfe1e0c09a274b27c6137d87b2b37b4c0f84ba3254d66bca64736f6c63430005100032",
  "source": "pragma solidity >0.5.4;\n\nimport \"@daostack/arc/contracts/controller/Controller.sol\";\nimport \"@daostack/arc/contracts/universalSchemes/SchemeRegistrar.sol\";\nimport \"@daostack/arc/contracts/universalSchemes/UpgradeScheme.sol\";\n\nimport \"@daostack/infra/contracts/votingMachines/AbsoluteVote.sol\";\nimport \"@daostack/infra/contracts/Reputation.sol\";\n\nimport \"../token/GoodDollar.sol\";\nimport \"../identity/IdentityGuard.sol\";\nimport \"../dao/schemes/FeeFormula.sol\";\n\n/**\n * @title ControllerCreator for creating a single controller. Taken from @daostack.\n */\ncontract ControllerCreatorGoodDollar {\n\tfunction create(Avatar _avatar, address _sender) public returns (address) {\n\t\tController controller = new Controller(_avatar);\n\t\tcontroller.registerScheme(\n\t\t\t_sender,\n\t\t\tbytes32(0),\n\t\t\tbytes4(0x0000001f),\n\t\t\taddress(_avatar)\n\t\t);\n\t\tcontroller.unregisterScheme(address(this), address(_avatar));\n\t\treturn address(controller);\n\t}\n}\n\n/**\n * @title Contract for adding founders to the DAO. Separated from DaoCreator to reduce\n * contract sizes\n */\ncontract AddFoundersGoodDollar {\n\tfunction create(Avatar _avatar, address _sender)\n\t\tinternal\n\t\treturns (address)\n\t{\n\t\tController controller = new Controller(_avatar);\n\t\tcontroller.registerScheme(\n\t\t\t_sender,\n\t\t\tbytes32(0),\n\t\t\tbytes4(0x0000001f),\n\t\t\taddress(_avatar)\n\t\t);\n\t\tcontroller.unregisterScheme(address(this), address(_avatar));\n\t\treturn address(controller);\n\t}\n\n\t/**\n\t * @param _founders An array with the addresses of the founders of the organization\n\t * @param _avatarTokenAmount Amount of tokens that the avatar receive on new organization\n\t * @param _foundersReputationAmount An array of amount of reputation that the\n\t *   founders receive in the new organization\n\t */\n\tfunction addFounders(\n\t\tGoodDollar nativeToken,\n\t\tReputation nativeReputation,\n\t\taddress _sender,\n\t\taddress[] memory _founders,\n\t\tuint256 _avatarTokenAmount,\n\t\tuint256[] memory _foundersReputationAmount\n\t) public returns (Avatar) {\n\t\tAvatar avatar = new Avatar(\"GoodDollar\", nativeToken, nativeReputation);\n\n\t\t//mint token to avatar\n\t\tnativeToken.mint(address(avatar), _avatarTokenAmount);\n\n\t\t// Mint reputation for founders:\n\t\tfor (uint256 i = 0; i < _founders.length; i++) {\n\t\t\trequire(\n\t\t\t\t_founders[i] != address(0),\n\t\t\t\t\"Founder cannot be zero address\"\n\t\t\t);\n\t\t\tif (_foundersReputationAmount[i] > 0) {\n\t\t\t\tnativeReputation.mint(\n\t\t\t\t\t_founders[i],\n\t\t\t\t\t_foundersReputationAmount[i]\n\t\t\t\t);\n\t\t\t}\n\t\t}\n\t\t// Create Controller:\n\t\tControllerInterface controller = ControllerInterface(\n\t\t\tcreate(avatar, msg.sender)\n\t\t);\n\n\t\t// Set fee recipient and Transfer ownership:\n\t\tnativeToken.setFeeRecipient(address(avatar));\n\n\t\tavatar.transferOwnership(address(controller));\n\t\tnativeToken.transferOwnership(address(avatar));\n\t\tnativeReputation.transferOwnership(address(controller));\n\n\t\t// Add minters\n\t\tnativeToken.addMinter(_sender);\n\t\tnativeToken.addMinter(address(avatar));\n\t\tnativeToken.addMinter(address(controller));\n\t\tnativeToken.renounceMinter();\n\t\treturn (avatar);\n\t}\n}\n\n/**\n * @title Genesis Scheme that creates organizations. Taken and modified from @daostack.\n */\ncontract DaoCreatorGoodDollar {\n\tAvatar public avatar;\n\taddress public lock;\n\n\tevent NewOrg(address _avatar);\n\tevent InitialSchemesSet(address _avatar);\n\n\tAddFoundersGoodDollar private addFoundersGoodDollar;\n\n\tconstructor(AddFoundersGoodDollar _addFoundersGoodDollar) public {\n\t\taddFoundersGoodDollar = _addFoundersGoodDollar;\n\t}\n\n\t/**\n\t * @dev Create a new organization\n\t * @param _tokenName The name of the token associated with the organization\n\t * @param _tokenSymbol The symbol of the token\n\t * @param _founders An array with the addresses of the founders of the organization\n\t * @param _avatarTokenAmount Amount of tokens that the avatar receive in the new organization\n\t * @param _foundersReputationAmount An array of amount of reputation that the\n\t *   founders receive in the new organization\n\t * @param  _cap token cap - 0 for no cap.\n\t * @return The address of the avatar of the controller\n\t */\n\tfunction forgeOrg(\n\t\tstring calldata _tokenName,\n\t\tstring calldata _tokenSymbol,\n\t\tuint256 _cap,\n\t\tFeeFormula _formula,\n\t\tIdentity _identity,\n\t\taddress[] calldata _founders,\n\t\tuint256 _avatarTokenAmount,\n\t\tuint256[] calldata _foundersReputationAmount\n\t) external returns (address) {\n\t\t//The call for the private function is needed to bypass a deep stack issues\n\t\treturn\n\t\t\t_forgeOrg(\n\t\t\t\t_tokenName,\n\t\t\t\t_tokenSymbol,\n\t\t\t\t_cap,\n\t\t\t\t_formula,\n\t\t\t\t_identity,\n\t\t\t\t_founders,\n\t\t\t\t_avatarTokenAmount,\n\t\t\t\t_foundersReputationAmount\n\t\t\t);\n\t}\n\n\t/**\n\t * @dev Set initial schemes for the organization.\n\t * @param _avatar organization avatar (returns from forgeOrg)\n\t * @param _schemes the schemes to register for the organization\n\t * @param _params the schemes parameters\n\t * @param _permissions the schemes permissions.\n\t * @param _metaData dao meta data hash\n\t */\n\tfunction setSchemes(\n\t\tAvatar _avatar,\n\t\taddress[] calldata _schemes,\n\t\tbytes32[] calldata _params,\n\t\tbytes4[] calldata _permissions,\n\t\tstring calldata _metaData\n\t) external {\n\t\t// this action can only be executed by the account that holds the lock\n\t\t// for this controller\n\t\trequire(lock == msg.sender, \"Message sender is not lock\");\n\t\t// register initial schemes:\n\t\tControllerInterface controller = ControllerInterface(_avatar.owner());\n\t\tfor (uint256 i = 0; i < _schemes.length; i++) {\n\t\t\tcontroller.registerScheme(\n\t\t\t\t_schemes[i],\n\t\t\t\t_params[i],\n\t\t\t\t_permissions[i],\n\t\t\t\taddress(_avatar)\n\t\t\t);\n\t\t}\n\t\tcontroller.metaData(_metaData, _avatar);\n\t\t// Unregister self:\n\t\tcontroller.unregisterScheme(address(this), address(_avatar));\n\t\t// Remove lock:\n\t\tlock = address(0);\n\t\temit InitialSchemesSet(address(_avatar));\n\t}\n\n\t/**\n\t * @dev Create a new organization\n\t * @param _tokenName The name of the token associated with the organization\n\t * @param _tokenSymbol The symbol of the token\n\t * @param _founders An array with the addresses of the founders of the organization\n\t * @param _avatarTokenAmount Amount of tokens that the avatar receive on startup\n\t * @param _foundersReputationAmount An array of amount of reputation that the\n\t *   founders receive in the new organization\n\t * @param  _cap token cap - 0 for no cap.\n\t * @return The address of the avatar of the controller\n\t */\n\tfunction _forgeOrg(\n\t\tstring memory _tokenName,\n\t\tstring memory _tokenSymbol,\n\t\tuint256 _cap,\n\t\tFeeFormula _formula,\n\t\tIdentity _identity,\n\t\taddress[] memory _founders,\n\t\tuint256 _avatarTokenAmount,\n\t\tuint256[] memory _foundersReputationAmount\n\t) private returns (address) {\n\t\t// Create Token, Reputation and Avatar:\n\t\trequire(lock == address(0), \"Lock already exists\");\n\t\trequire(\n\t\t\t_founders.length == _foundersReputationAmount.length,\n\t\t\t\"Founder reputation missing\"\n\t\t);\n\t\trequire(_founders.length > 0, \"Must have at least one founder\");\n\t\tGoodDollar nativeToken = new GoodDollar(\n\t\t\t_tokenName,\n\t\t\t_tokenSymbol,\n\t\t\t_cap,\n\t\t\t_formula,\n\t\t\t_identity,\n\t\t\taddress(0)\n\t\t);\n\t\tReputation nativeReputation = new Reputation();\n\n\t\t// renounce minter\n\t\tnativeToken.addMinter(address(addFoundersGoodDollar));\n\t\tnativeToken.renounceMinter();\n\n\t\tnativeToken.transferOwnership(address(addFoundersGoodDollar));\n\t\tnativeReputation.transferOwnership(address(addFoundersGoodDollar));\n\n\t\tavatar = addFoundersGoodDollar.addFounders(\n\t\t\tnativeToken,\n\t\t\tnativeReputation,\n\t\t\tmsg.sender,\n\t\t\t_founders,\n\t\t\t_avatarTokenAmount,\n\t\t\t_foundersReputationAmount\n\t\t);\n\n\t\tnativeToken.addPauser(address(avatar));\n\n\t\tlock = msg.sender;\n\n\t\temit NewOrg(address(avatar));\n\t\treturn (address(avatar));\n\t}\n}\n",
  "sourcePath": "/Users/hadar/workspace/GoodDollar/GoodBootstrap/packages/contracts/contracts/dao/DaoCreator.sol",
  "compiler": {
    "name": "solc",
    "version": "0.5.16+commit.9c3226ce.Emscripten.clang"
  },
  "schemaVersion": "3.2.3",
  "updatedAt": "2022-10-27T11:34:10.994Z",
  "devdoc": {
    "methods": {},
    "title": "ControllerCreator for creating a single controller. Taken from @daostack."
  },
  "userdoc": {
    "methods": {}
  }
}