{
  "contractName": "DaoCreatorGoodDollar",
  "abi": [
    {
      "constant": true,
      "inputs": [],
      "name": "avatar",
      "outputs": [
        {
          "name": "",
          "type": "address"
        }
      ],
      "payable": false,
      "stateMutability": "view",
      "type": "function"
    },
    {
      "constant": true,
      "inputs": [],
      "name": "lock",
      "outputs": [
        {
          "name": "",
          "type": "address"
        }
      ],
      "payable": false,
      "stateMutability": "view",
      "type": "function"
    },
    {
      "inputs": [
        {
          "name": "_addFoundersGoodDollar",
          "type": "address"
        }
      ],
      "payable": false,
      "stateMutability": "nonpayable",
      "type": "constructor"
    },
    {
      "anonymous": false,
      "inputs": [
        {
          "indexed": false,
          "name": "_avatar",
          "type": "address"
        }
      ],
      "name": "NewOrg",
      "type": "event"
    },
    {
      "anonymous": false,
      "inputs": [
        {
          "indexed": false,
          "name": "_avatar",
          "type": "address"
        }
      ],
      "name": "InitialSchemesSet",
      "type": "event"
    },
    {
      "constant": false,
      "inputs": [
        {
          "name": "_tokenName",
          "type": "string"
        },
        {
          "name": "_tokenSymbol",
          "type": "string"
        },
        {
          "name": "_cap",
          "type": "uint256"
        },
        {
          "name": "_formula",
          "type": "address"
        },
        {
          "name": "_identity",
          "type": "address"
        },
        {
          "name": "_founders",
          "type": "address[]"
        },
        {
          "name": "_foundersTokenAmount",
          "type": "uint256[]"
        },
        {
          "name": "_foundersReputationAmount",
          "type": "uint256[]"
        }
      ],
      "name": "forgeOrg",
      "outputs": [
        {
          "name": "",
          "type": "address"
        }
      ],
      "payable": false,
      "stateMutability": "nonpayable",
      "type": "function"
    },
    {
      "constant": false,
      "inputs": [
        {
          "name": "_avatar",
          "type": "address"
        },
        {
          "name": "_schemes",
          "type": "address[]"
        },
        {
          "name": "_params",
          "type": "bytes32[]"
        },
        {
          "name": "_permissions",
          "type": "bytes4[]"
        },
        {
          "name": "_metaData",
          "type": "string"
        }
      ],
      "name": "setSchemes",
      "outputs": [],
      "payable": false,
      "stateMutability": "nonpayable",
      "type": "function"
    }
  ],
  "bytecode": "0x608060405234801561001057600080fd5b506040516020806149c68339810180604052602081101561003057600080fd5b505160028054600160a060020a031916600160a060020a03909216919091179055614966806100606000396000f3fe60806040523480156200001157600080fd5b5060043610620000555760e060020a6000350463064bf38681146200005a5780635aef7de614620001e1578063f756ff521462000207578063f83d08ba14620003f1575b600080fd5b620001df600480360360a08110156200007257600080fd5b600160a060020a0382351691908101906040810160208201356401000000008111156200009e57600080fd5b820183602082011115620000b157600080fd5b80359060200191846020830284011164010000000083111715620000d457600080fd5b919390929091602081019035640100000000811115620000f357600080fd5b8201836020820111156200010657600080fd5b803590602001918460208302840111640100000000831117156200012957600080fd5b9193909290916020810190356401000000008111156200014857600080fd5b8201836020820111156200015b57600080fd5b803590602001918460208302840111640100000000831117156200017e57600080fd5b9193909290916020810190356401000000008111156200019d57600080fd5b820183602082011115620001b057600080fd5b80359060200191846001830284011164010000000083111715620001d357600080fd5b509092509050620003fb565b005b620001eb620007ff565b60408051600160a060020a039092168252519081900360200190f35b620001eb60048036036101008110156200022057600080fd5b8101906020810181356401000000008111156200023c57600080fd5b8201836020820111156200024f57600080fd5b803590602001918460018302840111640100000000831117156200027257600080fd5b9193909290916020810190356401000000008111156200029157600080fd5b820183602082011115620002a457600080fd5b80359060200191846001830284011164010000000083111715620002c757600080fd5b91939092823592600160a060020a03602082013581169360408301359091169290916080810190606001356401000000008111156200030557600080fd5b8201836020820111156200031857600080fd5b803590602001918460208302840111640100000000831117156200033b57600080fd5b9193909290916020810190356401000000008111156200035a57600080fd5b8201836020820111156200036d57600080fd5b803590602001918460208302840111640100000000831117156200039057600080fd5b919390929091602081019035640100000000811115620003af57600080fd5b820183602082011115620003c257600080fd5b80359060200191846020830284011164010000000083111715620003e557600080fd5b5090925090506200080e565b620001eb62000960565b600154600160a060020a031633146200045e576040805160e560020a62461bcd02815260206004820152601a60248201527f4d6573736167652073656e646572206973206e6f74206c6f636b000000000000604482015290519081900360640190fd5b600089600160a060020a0316638da5cb5b6040518163ffffffff1660e060020a02815260040160206040518083038186803b1580156200049d57600080fd5b505afa158015620004b2573d6000803e3d6000fd5b505050506040513d6020811015620004c957600080fd5b5051905060005b888110156200063957600160a060020a03821663e869d45f8b8b84818110620004f557fe5b90506020020135600160a060020a03168a8a8581811015156200051457fe5b9050602002013589898681811015156200052a57fe5b905060200201357bffffffffffffffffffffffffffffffffffffffffffffffffffffffff19168f6040518563ffffffff1660e060020a0281526004018085600160a060020a0316600160a060020a03168152602001848152602001837bffffffffffffffffffffffffffffffffffffffffffffffffffffffff19167bffffffffffffffffffffffffffffffffffffffffffffffffffffffff1916815260200182600160a060020a0316600160a060020a03168152602001945050505050602060405180830381600087803b1580156200060257600080fd5b505af115801562000617573d6000803e3d6000fd5b505050506040513d60208110156200062e57600080fd5b5050600101620004d0565b50604080517fc9b62eb1000000000000000000000000000000000000000000000000000000008152600160a060020a038c81166024830152600482019283526044820185905283169163c9b62eb191869186918f91908190606401858580828437600081840152601f19601f820116905080830192505050945050505050602060405180830381600087803b158015620006d257600080fd5b505af1158015620006e7573d6000803e3d6000fd5b505050506040513d6020811015620006fe57600080fd5b5050604080517f039de01d000000000000000000000000000000000000000000000000000000008152306004820152600160a060020a038c8116602483015291519183169163039de01d916044808201926020929091908290030181600087803b1580156200076c57600080fd5b505af115801562000781573d6000803e3d6000fd5b505050506040513d60208110156200079857600080fd5b50506001805473ffffffffffffffffffffffffffffffffffffffff1916905560408051600160a060020a038c16815290517f9007c9042f12be953f7dbe3909f56c3f088e9fe294dbebbef4a67afa63462b6a9181900360200190a150505050505050505050565b600054600160a060020a031681565b60006200094e8e8e8080601f016020809104026020016040519081016040528093929190818152602001838380828437600081840152601f19601f820116905080830192505050505050508d8d8080601f016020809104026020016040519081016040528093929190818152602001838380828437600081840152601f19601f820116905080830192505050505050508c8c8c8c8c80806020026020016040519081016040528093929190818152602001838360200280828437600081840152601f19601f820116905080830192505050505050508b8b8080602002602001604051908101604052809392919081815260200183836020028082843760009201919091525050604080516020808f0282810182019093528e82529093508e92508d9182918501908490808284376000920191909152506200096f92505050565b9e9d5050505050505050505050505050565b600154600160a060020a031681565b600154600090600160a060020a031615620009d4576040805160e560020a62461bcd02815260206004820152601360248201527f4c6f636b20616c72656164792065786973747300000000000000000000000000604482015290519081900360640190fd5b825184511462000a2e576040805160e560020a62461bcd02815260206004820152601960248201527f4e6f7420656e6f75676820666f756e64657220746f6b656e7300000000000000604482015290519081900360640190fd5b815184511462000a88576040805160e560020a62461bcd02815260206004820152601a60248201527f466f756e6465722072657075746174696f6e206d697373696e67000000000000604482015290519081900360640190fd5b835160001062000ae2576040805160e560020a62461bcd02815260206004820152601e60248201527f4d7573742068617665206174206c65617374206f6e6520666f756e6465720000604482015290519081900360640190fd5b60008989898989600060405162000af99062001037565b60408101859052600160a060020a0380851660608301528381166080830152821660a082015260c08082528751908201528651819060208083019160e08401918b019080838360005b8381101562000b5c57818101518382015260200162000b42565b50505050905090810190601f16801562000b8a5780820380516001836020036101000a031916815260200191505b5083810382528851815288516020918201918a019080838360005b8381101562000bbf57818101518382015260200162000ba5565b50505050905090810190601f16801562000bed5780820380516001836020036101000a031916815260200191505b5098505050505050505050604051809103906000f08015801562000c15573d6000803e3d6000fd5b509050600060405162000c289062001045565b604051809103906000f08015801562000c45573d6000803e3d6000fd5b50600254604080517f983b2d56000000000000000000000000000000000000000000000000000000008152600160a060020a03928316600482015290519293509084169163983b2d569160248082019260009290919082900301818387803b15801562000cb157600080fd5b505af115801562000cc6573d6000803e3d6000fd5b5050505081600160a060020a031663986502756040518163ffffffff1660e060020a028152600401600060405180830381600087803b15801562000d0957600080fd5b505af115801562000d1e573d6000803e3d6000fd5b5050600254604080517ff2fde38b000000000000000000000000000000000000000000000000000000008152600160a060020a0392831660048201529051918616935063f2fde38b925060248082019260009290919082900301818387803b15801562000d8a57600080fd5b505af115801562000d9f573d6000803e3d6000fd5b5050600254604080517ff2fde38b000000000000000000000000000000000000000000000000000000008152600160a060020a0392831660048201529051918516935063f2fde38b925060248082019260009290919082900301818387803b15801562000e0b57600080fd5b505af115801562000e20573d6000803e3d6000fd5b50506002546040517fa769e496000000000000000000000000000000000000000000000000000000008152600160a060020a03868116600483019081528682166024840152336044840181905260c0606485019081528d5160c48601528d5193909516965063a769e49695508894889491938e938e938e939192608482019160a481019160e4909101906020808a01910280838360005b8381101562000ed157818101518382015260200162000eb7565b50505050905001848103835286818151815260200191508051906020019060200280838360005b8381101562000f1257818101518382015260200162000ef8565b50505050905001848103825285818151815260200191508051906020019060200280838360005b8381101562000f5357818101518382015260200162000f39565b505050509050019950505050505050505050602060405180830381600087803b15801562000f8057600080fd5b505af115801562000f95573d6000803e3d6000fd5b505050506040513d602081101562000fac57600080fd5b505160008054600160a060020a0392831673ffffffffffffffffffffffffffffffffffffffff19918216179182905560018054909116331790556040805191909216815290517f244496352f5e67e59ce96b4a53ef9ea7cb88b7db33eb13dc5e771bd04385a60e9181900360200190a15050600054600160a060020a03169998505050505050505050565b612f80806200105483390190565b6109678062003fd48339019056fe60806040523480156200001157600080fd5b5060405162002f8038038062002f80833981018060405260c08110156200003757600080fd5b8101908080516401000000008111156200005057600080fd5b820160208101848111156200006457600080fd5b81516401000000008111828201871017156200007f57600080fd5b505092919060200180516401000000008111156200009c57600080fd5b82016020810184811115620000b057600080fd5b8151640100000000811182820187101715620000cb57600080fd5b50506020820151604080840151606085015160809095015160038054600160a060020a0319163317908190559251949750929550939284918491899189918991849184918491600160a060020a0391909116906000907f8be0079c531659141344cd1fd0a4f28419497f9722a3daafe3b4186f6b6457e0908290a382516200015b906004906020860190620003c3565b50815162000171906005906020850190620003c3565b506006555050505050600160a060020a0381161515620001f257604080517f08c379a000000000000000000000000000000000000000000000000000000000815260206004820152601960248201527f537570706c696564206964656e74697479206973206e756c6c00000000000000604482015290519081900360640190fd5b60078054600160a060020a031916600160a060020a03928316179055811615156200027e57604080517f08c379a000000000000000000000000000000000000000000000000000000000815260206004820152601860248201527f537570706c69656420666f726d756c61206973206e756c6c0000000000000000604482015290519081900360640190fd5b60088054600160a060020a031916600160a060020a0392909216919091179055620002b233640100000000620002de810204565b600a8054600160a060020a031916600160a060020a039290921691909117905550620004689350505050565b620002f9600982640100000000620029986200033082021704565b604051600160a060020a038216907f6ae172837ea30b801fbfcdd4108aa1d5bf8ff775444fd70256b44e6bf3dfc3f690600090a250565b600160a060020a03811615156200034657600080fd5b6200035b82826401000000006200038b810204565b156200036657600080fd5b600160a060020a0316600090815260209190915260409020805460ff19166001179055565b6000600160a060020a0382161515620003a357600080fd5b50600160a060020a03166000908152602091909152604090205460ff1690565b828054600181600116156101000203166002900490600052602060002090601f016020900481019282601f106200040657805160ff191683800117855562000436565b8280016001018555821562000436579182015b828111156200043657825182559160200191906001019062000419565b506200044492915062000448565b5090565b6200046591905b808211156200044457600081556001016200044f565b90565b612b0880620004786000396000f3fe608060405234801561001057600080fd5b50600436106101d35760003560e060020a9004806370a0823111610108578063983b2d56116100a6578063aa271e1a11610075578063aa271e1a146105b5578063d5a06d4c146105db578063dd62ed3e146105f8578063f2fde38b14610626576101d3565b8063983b2d561461052f5780639865027514610555578063a457c2d71461055d578063a9059cbb14610589576101d3565b8063804f1b04116100e2578063804f1b04146104e95780638da5cb5b146105175780638f32d59b1461051f57806395d89b4114610527576101d3565b806370a082311461048f578063715018a6146104b557806379cc6790146104bd576101d3565b8063355274ea1161017557806340c10f191161014f57806340c10f191461041057806342966c681461043c5780634b75f54f1461045957806360ee793814610461576101d3565b8063355274ea14610357578063395093511461035f5780634000aea01461038b576101d3565b806323b872dd116101b157806323b872dd146102af578063270401cb146102e55780632c159a1a14610315578063313ce56714610339576101d3565b806306fdde03146101d8578063095ea7b31461025557806318160ddd14610295575b600080fd5b6101e061064c565b6040805160208082528351818301528351919283929083019185019080838360005b8381101561021a578181015183820152602001610202565b50505050905090810190601f1680156102475780820380516001836020036101000a031916815260200191505b509250505060405180910390f35b6102816004803603604081101561026b57600080fd5b50600160a060020a0381351690602001356106da565b604080519115158252519081900360200190f35b61029d61086b565b60408051918252519081900360200190f35b610281600480360360608110156102c557600080fd5b50600160a060020a03813581169160208101359091169060400135610871565b610313600480360360408110156102fb57600080fd5b50600160a060020a0381358116916020013516610bc1565b005b61031d610dbc565b60408051600160a060020a039092168252519081900360200190f35b610341610dcb565b6040805160ff9092168252519081900360200190f35b61029d610dd0565b6102816004803603604081101561037557600080fd5b50600160a060020a038135169060200135610dd6565b610281600480360360608110156103a157600080fd5b600160a060020a03823516916020810135918101906060810160408201356401000000008111156103d157600080fd5b8201836020820111156103e357600080fd5b8035906020019184600183028401116401000000008311171561040557600080fd5b509092509050610f5f565b6102816004803603604081101561042657600080fd5b50600160a060020a038135169060200135611138565b6103136004803603602081101561045257600080fd5b503561128a565b61031d611353565b6103136004803603604081101561047757600080fd5b50600160a060020a0381358116916020013516611362565b61029d600480360360208110156104a557600080fd5b5035600160a060020a03166115b2565b6103136115cd565b610313600480360360408110156104d357600080fd5b50600160a060020a038135169060200135611637565b610313600480360360408110156104ff57600080fd5b50600160a060020a03813581169160200135166117c5565b61031d611a15565b610281611a24565b6101e0611a35565b6103136004803603602081101561054557600080fd5b5035600160a060020a0316611a90565b610313611aad565b6102816004803603604081101561057357600080fd5b50600160a060020a038135169060200135611ab8565b6102816004803603604081101561059f57600080fd5b50600160a060020a038135169060200135611c41565b610281600480360360208110156105cb57600080fd5b5035600160a060020a0316611ec7565b61029d600480360360208110156105f157600080fd5b5035611ee0565b61029d6004803603604081101561060e57600080fd5b50600160a060020a0381358116916020013516611f77565b6103136004803603602081101561063c57600080fd5b5035600160a060020a0316611fa2565b6004805460408051602060026001851615610100026000190190941693909304601f810184900484028201840190925281815292918301828280156106d25780601f106106a7576101008083540402835291602001916106d2565b820191906000526020600020905b8154815290600101906020018083116106b557829003601f168201915b505050505081565b6007546040805160e060020a63fe575a870281523360048201529051600092600160a060020a03169163fe575a87916024808301926020929190829003018186803b15801561072857600080fd5b505afa15801561073c573d6000803e3d6000fd5b505050506040513d602081101561075257600080fd5b505115610797576040805160e560020a62461bcd0281526020600482015260156024820152600080516020612a54833981519152604482015290519081900360640190fd5b6007546040805160e060020a63fe575a87028152600160a060020a03808716600483015291518693929092169163fe575a8791602480820192602092909190829003018186803b1580156107ea57600080fd5b505afa1580156107fe573d6000803e3d6000fd5b505050506040513d602081101561081457600080fd5b505115610859576040805160e560020a62461bcd0281526020600482015260176024820152600080516020612a9d833981519152604482015290519081900360640190fd5b6108638484611fbe565b949350505050565b60025490565b600754604080517f3af32abf000000000000000000000000000000000000000000000000000000008152600160a060020a038087166004830152915160009387931691633af32abf916024808301926020929190829003018186803b1580156108d957600080fd5b505afa1580156108ed573d6000803e3d6000fd5b505050506040513d602081101561090357600080fd5b5051151561095b576040805160e560020a62461bcd02815260206004820152601260248201527f6973206e6f742077686974656c69737465640000000000000000000000000000604482015290519081900360640190fd5b6007546040805160e060020a63fe575a870281523360048201529051600160a060020a039092169163fe575a8791602480820192602092909190829003018186803b1580156109a957600080fd5b505afa1580156109bd573d6000803e3d6000fd5b505050506040513d60208110156109d357600080fd5b505115610a18576040805160e560020a62461bcd0281526020600482015260156024820152600080516020612a54833981519152604482015290519081900360640190fd5b6007546040805160e060020a63fe575a87028152600160a060020a03808916600483015291518893929092169163fe575a8791602480820192602092909190829003018186803b158015610a6b57600080fd5b505afa158015610a7f573d6000803e3d6000fd5b505050506040513d6020811015610a9557600080fd5b505115610ada576040805160e560020a62461bcd0281526020600482015260176024820152600080516020612a9d833981519152604482015290519081900360640190fd5b6007546040805160e060020a63fe575a87028152600160a060020a03808916600483015291518893929092169163fe575a8791602480820192602092909190829003018186803b158015610b2d57600080fd5b505afa158015610b41573d6000803e3d6000fd5b505050506040513d6020811015610b5757600080fd5b505115610b9c576040805160e560020a62461bcd0281526020600482015260176024820152600080516020612a9d833981519152604482015290519081900360640190fd5b6000610ba8888761202a565b9050610bb5888883612132565b98975050505050505050565b8033600160a060020a038216148015610cd1575030600160a060020a0316638da5cb5b6040518163ffffffff1660e060020a02815260040160206040518083038186803b158015610c1157600080fd5b505afa158015610c25573d6000803e3d6000fd5b505050506040513d6020811015610c3b57600080fd5b5051604080517f8da5cb5b0000000000000000000000000000000000000000000000000000000081529051600160a060020a0392831692841691638da5cb5b916004808301926020929190829003018186803b158015610c9a57600080fd5b505afa158015610cae573d6000803e3d6000fd5b505050506040513d6020811015610cc457600080fd5b5051600160a060020a0316145b80610d4b575030600160a060020a0316638da5cb5b6040518163ffffffff1660e060020a02815260040160206040518083038186803b158015610d1357600080fd5b505afa158015610d27573d6000803e3d6000fd5b505050506040513d6020811015610d3d57600080fd5b5051600160a060020a031633145b1515610d8b5760405160e560020a62461bcd028152600401808060200182810382526029815260200180612a746029913960400191505060405180910390fd5b5050600a805473ffffffffffffffffffffffffffffffffffffffff1916600160a060020a0392909216919091179055565b600754600160a060020a031681565b600281565b60065481565b6007546040805160e060020a63fe575a870281523360048201529051600092600160a060020a03169163fe575a87916024808301926020929190829003018186803b158015610e2457600080fd5b505afa158015610e38573d6000803e3d6000fd5b505050506040513d6020811015610e4e57600080fd5b505115610e93576040805160e560020a62461bcd0281526020600482015260156024820152600080516020612a54833981519152604482015290519081900360640190fd5b6007546040805160e060020a63fe575a87028152600160a060020a03808716600483015291518693929092169163fe575a8791602480820192602092909190829003018186803b158015610ee657600080fd5b505afa158015610efa573d6000803e3d6000fd5b505050506040513d6020811015610f1057600080fd5b505115610f55576040805160e560020a62461bcd0281526020600482015260176024820152600080516020612a9d833981519152604482015290519081900360640190fd5b61086384846121e9565b6007546040805160e060020a63fe575a870281523360048201529051600092600160a060020a03169163fe575a87916024808301926020929190829003018186803b158015610fad57600080fd5b505afa158015610fc1573d6000803e3d6000fd5b505050506040513d6020811015610fd757600080fd5b50511561101c576040805160e560020a62461bcd0281526020600482015260156024820152600080516020612a54833981519152604482015290519081900360640190fd5b6007546040805160e060020a63fe575a87028152600160a060020a03808916600483015291518893929092169163fe575a8791602480820192602092909190829003018186803b15801561106f57600080fd5b505afa158015611083573d6000803e3d6000fd5b505050506040513d602081101561109957600080fd5b5051156110de576040805160e560020a62461bcd0281526020600482015260176024820152600080516020612a9d833981519152604482015290519081900360640190fd5b60006110ea338761202a565b905061112d878287878080601f01602080910402602001604051908101604052809392919081815260200183838082843760009201919091525061228792505050565b979650505050505050565b600061114333611ec7565b151561114e57600080fd5b6007546040805160e060020a63fe575a87028152600160a060020a03808716600483015291518693929092169163fe575a8791602480820192602092909190829003018186803b1580156111a157600080fd5b505afa1580156111b5573d6000803e3d6000fd5b505050506040513d60208110156111cb57600080fd5b505115611210576040805160e560020a62461bcd0281526020600482015260176024820152600080516020612a9d833981519152604482015290519081900360640190fd5b60006006541115611276576006546112368461122a61086b565b9063ffffffff61236d16565b11156112765760405160e560020a62461bcd028152600401808060200182810382526021815260200180612a336021913960400191505060405180910390fd5b6112808484612386565b5060019392505050565b6007546040805160e060020a63fe575a870281523360048201529051600160a060020a039092169163fe575a8791602480820192602092909190829003018186803b1580156112d857600080fd5b505afa1580156112ec573d6000803e3d6000fd5b505050506040513d602081101561130257600080fd5b505115611347576040805160e560020a62461bcd0281526020600482015260156024820152600080516020612a54833981519152604482015290519081900360640190fd5b61135081612430565b50565b600854600160a060020a031681565b8033600160a060020a038216148015611472575030600160a060020a0316638da5cb5b6040518163ffffffff1660e060020a02815260040160206040518083038186803b1580156113b257600080fd5b505afa1580156113c6573d6000803e3d6000fd5b505050506040513d60208110156113dc57600080fd5b5051604080517f8da5cb5b0000000000000000000000000000000000000000000000000000000081529051600160a060020a0392831692841691638da5cb5b916004808301926020929190829003018186803b15801561143b57600080fd5b505afa15801561144f573d6000803e3d6000fd5b505050506040513d602081101561146557600080fd5b5051600160a060020a0316145b806114ec575030600160a060020a0316638da5cb5b6040518163ffffffff1660e060020a02815260040160206040518083038186803b1580156114b457600080fd5b505afa1580156114c8573d6000803e3d6000fd5b505050506040513d60208110156114de57600080fd5b5051600160a060020a031633145b151561152c5760405160e560020a62461bcd028152600401808060200182810382526029815260200180612a746029913960400191505060405180910390fd5b82600160a060020a031663223668446040518163ffffffff1660e060020a02815260040160006040518083038186803b15801561156857600080fd5b505afa15801561157c573d6000803e3d6000fd5b50506007805473ffffffffffffffffffffffffffffffffffffffff1916600160a060020a03969096169590951790945550505050565b600160a060020a031660009081526020819052604090205490565b6115d5611a24565b15156115e057600080fd5b600354604051600091600160a060020a0316907f8be0079c531659141344cd1fd0a4f28419497f9722a3daafe3b4186f6b6457e0908390a36003805473ffffffffffffffffffffffffffffffffffffffff19169055565b6007546040805160e060020a63fe575a870281523360048201529051600160a060020a039092169163fe575a8791602480820192602092909190829003018186803b15801561168557600080fd5b505afa158015611699573d6000803e3d6000fd5b505050506040513d60208110156116af57600080fd5b5051156116f4576040805160e560020a62461bcd0281526020600482015260156024820152600080516020612a54833981519152604482015290519081900360640190fd5b6007546040805160e060020a63fe575a87028152600160a060020a03808616600483015291518593929092169163fe575a8791602480820192602092909190829003018186803b15801561174757600080fd5b505afa15801561175b573d6000803e3d6000fd5b505050506040513d602081101561177157600080fd5b5051156117b6576040805160e560020a62461bcd0281526020600482015260176024820152600080516020612a9d833981519152604482015290519081900360640190fd5b6117c0838361243a565b505050565b8033600160a060020a0382161480156118d5575030600160a060020a0316638da5cb5b6040518163ffffffff1660e060020a02815260040160206040518083038186803b15801561181557600080fd5b505afa158015611829573d6000803e3d6000fd5b505050506040513d602081101561183f57600080fd5b5051604080517f8da5cb5b0000000000000000000000000000000000000000000000000000000081529051600160a060020a0392831692841691638da5cb5b916004808301926020929190829003018186803b15801561189e57600080fd5b505afa1580156118b2573d6000803e3d6000fd5b505050506040513d60208110156118c857600080fd5b5051600160a060020a0316145b8061194f575030600160a060020a0316638da5cb5b6040518163ffffffff1660e060020a02815260040160206040518083038186803b15801561191757600080fd5b505afa15801561192b573d6000803e3d6000fd5b505050506040513d602081101561194157600080fd5b5051600160a060020a031633145b151561198f5760405160e560020a62461bcd028152600401808060200182810382526029815260200180612a746029913960400191505060405180910390fd5b82600160a060020a031663223668446040518163ffffffff1660e060020a02815260040160006040518083038186803b1580156119cb57600080fd5b505afa1580156119df573d6000803e3d6000fd5b50506008805473ffffffffffffffffffffffffffffffffffffffff1916600160a060020a03969096169590951790945550505050565b600354600160a060020a031690565b600354600160a060020a0316331490565b6005805460408051602060026001851615610100026000190190941693909304601f810184900484028201840190925281815292918301828280156106d25780601f106106a7576101008083540402835291602001916106d2565b611a9933611ec7565b1515611aa457600080fd5b61135081612448565b611ab633612490565b565b6007546040805160e060020a63fe575a870281523360048201529051600092600160a060020a03169163fe575a87916024808301926020929190829003018186803b158015611b0657600080fd5b505afa158015611b1a573d6000803e3d6000fd5b505050506040513d6020811015611b3057600080fd5b505115611b75576040805160e560020a62461bcd0281526020600482015260156024820152600080516020612a54833981519152604482015290519081900360640190fd5b6007546040805160e060020a63fe575a87028152600160a060020a03808716600483015291518693929092169163fe575a8791602480820192602092909190829003018186803b158015611bc857600080fd5b505afa158015611bdc573d6000803e3d6000fd5b505050506040513d6020811015611bf257600080fd5b505115611c37576040805160e560020a62461bcd0281526020600482015260176024820152600080516020612a9d833981519152604482015290519081900360640190fd5b61086384846124d8565b600754604080517f3af32abf0000000000000000000000000000000000000000000000000000000081523360048201529051600092600160a060020a031691633af32abf916024808301926020929190829003018186803b158015611ca557600080fd5b505afa158015611cb9573d6000803e3d6000fd5b505050506040513d6020811015611ccf57600080fd5b50511515611d27576040805160e560020a62461bcd02815260206004820152601260248201527f6973206e6f742077686974656c69737465640000000000000000000000000000604482015290519081900360640190fd5b6007546040805160e060020a63fe575a870281523360048201529051600160a060020a039092169163fe575a8791602480820192602092909190829003018186803b158015611d7557600080fd5b505afa158015611d89573d6000803e3d6000fd5b505050506040513d6020811015611d9f57600080fd5b505115611de4576040805160e560020a62461bcd0281526020600482015260156024820152600080516020612a54833981519152604482015290519081900360640190fd5b6007546040805160e060020a63fe575a87028152600160a060020a03808716600483015291518693929092169163fe575a8791602480820192602092909190829003018186803b158015611e3757600080fd5b505afa158015611e4b573d6000803e3d6000fd5b505050506040513d6020811015611e6157600080fd5b505115611ea6576040805160e560020a62461bcd0281526020600482015260176024820152600080516020612a9d833981519152604482015290519081900360640190fd5b6000611eb2338561202a565b9050611ebe8582612523565b95945050505050565b6000611eda60098363ffffffff61253916565b92915050565b600854604080517fcb733bb9000000000000000000000000000000000000000000000000000000008152600481018490529051600092600160a060020a03169163cb733bb9916024808301926020929190829003018186803b158015611f4557600080fd5b505afa158015611f59573d6000803e3d6000fd5b505050506040513d6020811015611f6f57600080fd5b505192915050565b600160a060020a03918216600090815260016020908152604080832093909416825291909152205490565b611faa611a24565b1515611fb557600080fd5b61135081612570565b6000600160a060020a0383161515611fd557600080fd5b336000818152600160209081526040808320600160a060020a0388168085529083529281902086905580518681529051929392600080516020612abd833981519152929181900390910190a350600192915050565b600754604080517fc73cc4ae0000000000000000000000000000000000000000000000000000000081523360048201529051600092600160a060020a03169163c73cc4ae916024808301926020929190829003018186803b15801561208e57600080fd5b505afa1580156120a2573d6000803e3d6000fd5b505050506040513d60208110156120b857600080fd5b5051151561212c5760006120cb83611ee0565b9050600160a060020a0384163314156120fa57600a546120f490600160a060020a031682612523565b50612114565b600a54612112908590600160a060020a031683612132565b505b612124838263ffffffff6125ee16565b915050611eda565b50919050565b600160a060020a0383166000908152600160209081526040808320338452909152812054612166908363ffffffff6125ee16565b600160a060020a0385166000908152600160209081526040808320338452909152902055612195848484612603565b600160a060020a038416600081815260016020908152604080832033808552908352928190205481519081529051929392600080516020612abd833981519152929181900390910190a35060019392505050565b6000600160a060020a038316151561220057600080fd5b336000908152600160209081526040808320600160a060020a0387168452909152902054612234908363ffffffff61236d16565b336000818152600160209081526040808320600160a060020a038916808552908352928190208590558051948552519193600080516020612abd833981519152929081900390910190a350600192915050565b60006122938484612523565b5083600160a060020a031633600160a060020a03167fe19260aff97b920c7df27010903aeb9c8d2be5d310a2c67824cf3f15396e4c1685856040518083815260200180602001828103825283818151815260200191508051906020019080838360005b8381101561230e5781810151838201526020016122f6565b50505050905090810190601f16801561233b5780820380516001836020036101000a031916815260200191505b50935050505060405180910390a3612352846126d0565b15611280576123628484846126d8565b151561128057600080fd5b60008282018381101561237f57600080fd5b9392505050565b600160a060020a038216151561239b57600080fd5b6002546123ae908263ffffffff61236d16565b600255600160a060020a0382166000908152602081905260409020546123da908263ffffffff61236d16565b600160a060020a0383166000818152602081815260408083209490945583518581529351929391927fddf252ad1be2c89b69c2b068fc378daa952ba7f163c4a11628f55a4df523b3ef9281900390910190a35050565b611350338261283f565b61244482826128e8565b5050565b61245960098263ffffffff61299816565b604051600160a060020a038216907f6ae172837ea30b801fbfcdd4108aa1d5bf8ff775444fd70256b44e6bf3dfc3f690600090a250565b6124a160098263ffffffff6129e616565b604051600160a060020a038216907fe94479a9f7e1952cc78f2d6baab678adc1b772d936c6583def489e524cb6669290600090a250565b6000600160a060020a03831615156124ef57600080fd5b336000908152600160209081526040808320600160a060020a0387168452909152902054612234908363ffffffff6125ee16565b6000612530338484612603565b50600192915050565b6000600160a060020a038216151561255057600080fd5b50600160a060020a03166000908152602091909152604090205460ff1690565b600160a060020a038116151561258557600080fd5b600354604051600160a060020a038084169216907f8be0079c531659141344cd1fd0a4f28419497f9722a3daafe3b4186f6b6457e090600090a36003805473ffffffffffffffffffffffffffffffffffffffff1916600160a060020a0392909216919091179055565b6000828211156125fd57600080fd5b50900390565b600160a060020a038216151561261857600080fd5b600160a060020a038316600090815260208190526040902054612641908263ffffffff6125ee16565b600160a060020a038085166000908152602081905260408082209390935590841681522054612676908263ffffffff61236d16565b600160a060020a038084166000818152602081815260409182902094909455805185815290519193928716927fddf252ad1be2c89b69c2b068fc378daa952ba7f163c4a11628f55a4df523b3ef92918290030190a3505050565b6000903b1190565b6040517fa4c0ed360000000000000000000000000000000000000000000000000000000081523360048201818152602483018590526060604484019081528451606485015284516000948894600160a060020a0386169463a4c0ed369491938a938a939160849091019060208501908083838e5b8381101561276457818101518382015260200161274c565b50505050905090810190601f1680156127915780820380516001836020036101000a031916815260200191505b50945050505050602060405180830381600087803b1580156127b257600080fd5b505af11580156127c6573d6000803e3d6000fd5b505050506040513d60208110156127dc57600080fd5b50511515612834576040805160e560020a62461bcd02815260206004820152601860248201527f436f6e74726163742046616c6c6261636b206661696c65640000000000000000604482015290519081900360640190fd5b506001949350505050565b600160a060020a038216151561285457600080fd5b600254612867908263ffffffff6125ee16565b600255600160a060020a038216600090815260208190526040902054612893908263ffffffff6125ee16565b600160a060020a038316600081815260208181526040808320949094558351858152935191937fddf252ad1be2c89b69c2b068fc378daa952ba7f163c4a11628f55a4df523b3ef929081900390910190a35050565b600160a060020a038216600090815260016020908152604080832033845290915290205461291c908263ffffffff6125ee16565b600160a060020a038316600090815260016020908152604080832033845290915290205561294a828261283f565b600160a060020a038216600081815260016020908152604080832033808552908352928190205481519081529051929392600080516020612abd833981519152929181900390910190a35050565b600160a060020a03811615156129ad57600080fd5b6129b78282612539565b156129c157600080fd5b600160a060020a0316600090815260209190915260409020805460ff19166001179055565b600160a060020a03811615156129fb57600080fd5b612a058282612539565b1515612a1057600080fd5b600160a060020a0316600090815260209190915260409020805460ff1916905556fe43616e6e6f7420696e63726561736520737570706c79206265796f6e642063617043616c6c657220697320626c61636b6c697374656400000000000000000000004f6e6c792063616c6c61626c6520627920617661746172206f66206f776e6572206f72206f776e6572526563656976657220697320626c61636b6c69737465640000000000000000008c5be1e5ebec7d5bd14f71427d1e84f3dd0314c0f7b2291e5b200ac8c7c3b925a165627a7a72305820c59fd03d926a09db401943244c7515c428c0e8ebd5f73e5bbb8ba81b79915d8f002960806040526000805460a060020a60ff0219167412000000000000000000000000000000000000000017905534801561003757600080fd5b5060008054600160a060020a0319163317808255604051600160a060020a039190911691907f8be0079c531659141344cd1fd0a4f28419497f9722a3daafe3b4186f6b6457e0908290a36108d7806100906000396000f3fe608060405234801561001057600080fd5b50600436106100c6576000357c010000000000000000000000000000000000000000000000000000000090048063715018a61161008e578063715018a6146101955780638da5cb5b1461019f5780638f32d59b146101c3578063981b24d0146101cb5780639dc29fac146101e8578063f2fde38b14610214576100c6565b806318160ddd146100cb578063313ce567146100e557806340c10f19146101035780634ee2cd7e1461014357806370a082311461016f575b600080fd5b6100d361023a565b60408051918252519081900360200190f35b6100ed61024b565b6040805160ff9092168252519081900360200190f35b61012f6004803603604081101561011957600080fd5b50600160a060020a03813516906020013561026c565b604080519115158252519081900360200190f35b6100d36004803603604081101561015957600080fd5b50600160a060020a038135169060200135610335565b6100d36004803603602081101561018557600080fd5b5035600160a060020a03166103c7565b61019d6103db565b005b6101a7610445565b60408051600160a060020a039092168252519081900360200190f35b61012f610454565b6100d3600480360360208110156101e157600080fd5b5035610465565b61012f600480360360408110156101fe57600080fd5b50600160a060020a0381351690602001356104b9565b61019d6004803603602081101561022a57600080fd5b5035600160a060020a0316610570565b600061024543610465565b90505b90565b60005474010000000000000000000000000000000000000000900460ff1681565b6000610276610454565b151561028157600080fd5b600061028b61023a565b905082810181111561029c57600080fd5b60006102a7856103c7565b90508381018111156102b857600080fd5b6102c5600285840161058f565b600160a060020a03851660009081526001602052604090206102e99082860161058f565b604080518581529051600160a060020a038716917f0f6798a560793a54c3bcfe86a93cde1e73087d944c0ea20544137d4121396885919081900360200190a26001925050505b92915050565b600160a060020a03821660009081526001602052604081205415806103915750600160a060020a03831660009081526001602052604081208054849290811061037a57fe5b6000918252602090912001546001608060020a0316115b1561039e5750600061032f565b600160a060020a03831660009081526001602052604090206103c09083610697565b905061032f565b60006103d38243610335565b90505b919050565b6103e3610454565b15156103ee57600080fd5b60008054604051600160a060020a03909116907f8be0079c531659141344cd1fd0a4f28419497f9722a3daafe3b4186f6b6457e0908390a36000805473ffffffffffffffffffffffffffffffffffffffff19169055565b600054600160a060020a031690565b600054600160a060020a0316331490565b600254600090158061049a5750816002600081548110151561048357fe5b6000918252602090912001546001608060020a0316115b156104a7575060006103d6565b6104b2600283610697565b90506103d6565b60006104c3610454565b15156104ce57600080fd5b60006104d861023a565b90508260006104e6866103c7565b9050818110156104f4578091505b610501600283850361058f565b600160a060020a03861660009081526001602052604090206105259083830361058f565b604080518381529051600160a060020a038816917fcc16f5dbb4873280815c1ee09dbd06736cffcc184412cf7a71a0fdb75d397ca5919081900360200190a250600195945050505050565b610578610454565b151561058357600080fd5b61058c816107e7565b50565b6001608060020a03811681146105a457600080fd5b815415806105d8575081544390839060001981019081106105c157fe5b6000918252602090912001546001608060020a0316105b1561064c57815460009083906105f18260018301610864565b815481106105fb57fe5b600091825260209091200180546001608060020a03848116700100000000000000000000000000000000024382166fffffffffffffffffffffffffffffffff19909316929092171617905550610693565b81546000908390600019810190811061066157fe5b600091825260209091200180546001608060020a03808516700100000000000000000000000000000000029116179055505b5050565b815460009015156106aa5750600061032f565b8254839060001981019081106106bc57fe5b6000918252602090912001546001608060020a03168210610719578254839060001981019081106106e957fe5b60009182526020909120015470010000000000000000000000000000000090046001608060020a0316905061032f565b82600081548110151561072857fe5b6000918252602090912001546001608060020a031682101561074c5750600061032f565b8254600090600019015b818111156107a757845460028383016001010490859087908390811061077857fe5b6000918252602090912001546001608060020a03161161079a578092506107a1565b6001810391505b50610756565b84828154811015156107b557fe5b60009182526020909120015470010000000000000000000000000000000090046001608060020a031695945050505050565b600160a060020a03811615156107fc57600080fd5b60008054604051600160a060020a03808516939216917f8be0079c531659141344cd1fd0a4f28419497f9722a3daafe3b4186f6b6457e091a36000805473ffffffffffffffffffffffffffffffffffffffff1916600160a060020a0392909216919091179055565b8154818355818111156108885760008381526020902061088891810190830161088d565b505050565b61024891905b808211156108a75760008155600101610893565b509056fea165627a7a723058203bca0af92dfcfede9bd26af6f6a767b02b188e0c1c60a9df19141bf497b87ecc0029a165627a7a723058207ebcbaee78bc3258c35fbfd11af647f42d36842bdde2a260dbc5ef4af2aef7320029",
  "source": "pragma solidity 0.5.4;\n\nimport \"@daostack/arc/contracts/controller/Controller.sol\";\nimport \"@daostack/arc/contracts/universalSchemes/SchemeRegistrar.sol\";\nimport \"@daostack/infra/contracts/votingMachines/AbsoluteVote.sol\";\nimport \"@daostack/arc/contracts/universalSchemes/UpgradeScheme.sol\";\n\nimport \"../token/GoodDollar.sol\";\nimport \"../identity/IdentityGuard.sol\";\nimport \"../dao/schemes/FeeFormula.sol\";\n/**\n * @title ControllerCreator for creating a single controller. Taken from @daostack.\n */\ncontract ControllerCreatorGoodDollar {\n\n    function create(Avatar _avatar, address _sender) public returns(address) {\n        Controller controller = new Controller(_avatar);\n        controller.registerScheme(_sender, bytes32(0), bytes4(0x0000001f), address(_avatar));\n        controller.unregisterScheme(address(this), address(_avatar));\n        return address(controller);\n    }\n}\n\ncontract AddFoundersGoodDollar {\n\n    ControllerCreatorGoodDollar private controllerCreatorGoodDollar;\n\n    constructor(ControllerCreatorGoodDollar _controllerCreatorGoodDollar) public {\n        controllerCreatorGoodDollar = _controllerCreatorGoodDollar;\n    }\n\n    /**\n     * @param _founders An array with the addresses of the founders of the organization\n     * @param _foundersTokenAmount An array of amount of tokens that the founders\n     *  receive in the new organization\n     * @param _foundersReputationAmount An array of amount of reputation that the\n     *   founders receive in the new organization\n     */\n    function addFounders(\n        GoodDollar nativeToken,\n        Reputation nativeReputation,\n        address _sender,\n        address[] memory _founders,\n        uint[] memory _foundersTokenAmount,\n        uint[] memory _foundersReputationAmount\n    )\n        public\n        returns(Avatar)\n    {\n        Avatar avatar = new Avatar(\"GoodDollar\", nativeToken, nativeReputation);\n\n        // Mint token and reputation for founders:\n        for (uint256 i = 0; i < _founders.length; i++) {\n            require(_founders[i] != address(0), \"Founder cannot be zero address\");\n            if (_foundersTokenAmount[i] > 0) {\n                nativeToken.mint(_founders[i], _foundersTokenAmount[i]);\n            }\n            if (_foundersReputationAmount[i] > 0) {\n                nativeReputation.mint(_founders[i], _foundersReputationAmount[i]);\n            }\n        }\n        // Create Controller:\n        ControllerInterface controller = ControllerInterface(controllerCreatorGoodDollar.create(avatar, msg.sender));\n\n        // Set fee recipient and Transfer ownership:\n        nativeToken.setFeeRecipient(address(avatar), avatar);\n\n        avatar.transferOwnership(address(controller));\n        nativeToken.transferOwnership(_sender);\n        nativeReputation.transferOwnership(_sender);\n\n        // Add minters\n        nativeToken.addMinter(_sender);\n        nativeToken.addMinter(address(avatar));\n        nativeToken.addMinter(address(controller));\n        nativeToken.renounceMinter();\n        return(avatar);\n    }\n}\n\n/**\n * @title Genesis Scheme that creates organizations. Taken and modified from @daostack.\n */\ncontract DaoCreatorGoodDollar {\n\n    Avatar public avatar;\n    address public lock;\n\n    event NewOrg (address _avatar);\n    event InitialSchemesSet (address _avatar);\n\n    AddFoundersGoodDollar private addFoundersGoodDollar;\n\n    constructor(AddFoundersGoodDollar _addFoundersGoodDollar) public {\n        addFoundersGoodDollar = _addFoundersGoodDollar;\n    }\n\n  /**\n    * @dev Create a new organization\n    * @param _tokenName The name of the token associated with the organization\n    * @param _tokenSymbol The symbol of the token\n    * @param _founders An array with the addresses of the founders of the organization\n    * @param _foundersTokenAmount An array of amount of tokens that the founders\n    *  receive in the new organization\n    * @param _foundersReputationAmount An array of amount of reputation that the\n    *   founders receive in the new organization\n    * @param  _cap token cap - 0 for no cap.\n    * @return The address of the avatar of the controller\n    */\n    function forgeOrg (\n        string calldata _tokenName,\n        string calldata _tokenSymbol,\n        uint256 _cap,\n        FeeFormula _formula,\n        Identity _identity,\n        address[] calldata _founders,\n        uint[] calldata _foundersTokenAmount,\n        uint[] calldata _foundersReputationAmount\n    )\n    external\n    returns(address)\n    {\n        //The call for the private function is needed to bypass a deep stack issues\n        return _forgeOrg(\n            _tokenName,\n            _tokenSymbol,\n            _cap,\n            _formula,\n            _identity,\n            _founders,\n            _foundersTokenAmount,\n            _foundersReputationAmount);\n    }\n\n     /**\n      * @dev Set initial schemes for the organization.\n      * @param _avatar organization avatar (returns from forgeOrg)\n      * @param _schemes the schemes to register for the organization\n      * @param _params the schemes's params\n      * @param _permissions the schemes permissions.\n      * @param _metaData dao meta data hash\n      */\n    function setSchemes (\n        Avatar _avatar,\n        address[] calldata _schemes,\n        bytes32[] calldata _params,\n        bytes4[] calldata _permissions,\n        string calldata _metaData\n    )\n        external\n    {\n        // this action can only be executed by the account that holds the lock\n        // for this controller\n        require(lock == msg.sender, \"Message sender is not lock\");\n        // register initial schemes:\n        ControllerInterface controller = ControllerInterface(_avatar.owner());\n        for (uint256 i = 0; i < _schemes.length; i++) {\n            controller.registerScheme(_schemes[i], _params[i], _permissions[i], address(_avatar));\n        }\n        controller.metaData(_metaData, _avatar);\n        // Unregister self:\n        controller.unregisterScheme(address(this), address(_avatar));\n        // Remove lock:\n        lock = address(0);\n        emit InitialSchemesSet(address(_avatar));\n    }\n\n    /**\n     * @dev Create a new organization\n     * @param _tokenName The name of the token associated with the organization\n     * @param _tokenSymbol The symbol of the token\n     * @param _founders An array with the addresses of the founders of the organization\n     * @param _foundersTokenAmount An array of amount of tokens that the founders\n     *  receive in the new organization\n     * @param _foundersReputationAmount An array of amount of reputation that the\n     *   founders receive in the new organization\n     * @param  _cap token cap - 0 for no cap.\n     * @return The address of the avatar of the controller\n     */\n    function _forgeOrg (\n        string memory _tokenName,\n        string memory _tokenSymbol,\n        uint256 _cap,\n        FeeFormula _formula,\n        Identity _identity,\n        address[] memory _founders,\n        uint[] memory _foundersTokenAmount,\n        uint[] memory _foundersReputationAmount\n    ) private returns(address)\n    {\n        // Create Token, Reputation and Avatar:\n        require(lock == address(0), \"Lock already exists\");\n        require(_founders.length == _foundersTokenAmount.length, \"Not enough founder tokens\");\n        require(_founders.length == _foundersReputationAmount.length, \"Founder reputation missing\");\n        require(_founders.length > 0, \"Must have at least one founder\");\n        GoodDollar nativeToken = new GoodDollar(_tokenName, _tokenSymbol, _cap, _formula, _identity, address(0));\n        Reputation nativeReputation = new Reputation();\n\n        // renounce minter\n        nativeToken.addMinter(address(addFoundersGoodDollar));\n        nativeToken.renounceMinter();\n\n        nativeToken.transferOwnership(address(addFoundersGoodDollar));\n        nativeReputation.transferOwnership(address(addFoundersGoodDollar));\n\n        avatar = addFoundersGoodDollar.addFounders(nativeToken, nativeReputation, msg.sender, _founders, _foundersTokenAmount, _foundersReputationAmount);\n\n        lock = msg.sender;\n\n        emit NewOrg (address(avatar));\n        return (address(avatar));\n    }\n}\n",
  "sourcePath": "/Users/hadar/workspace/GoodDollar/GoodBootstrap/packages/contracts/contracts/dao/DaoCreator.sol",
  "compiler": {
    "name": "solc",
    "version": "0.5.4+commit.9549d8ff.Emscripten.clang"
  },
  "schemaVersion": "3.0.16",
  "updatedAt": "2019-10-27T13:56:05.691Z",
  "devdoc": {
    "methods": {
      "forgeOrg(string,string,uint256,address,address,address[],uint256[],uint256[])": {
        "details": "Create a new organization",
        "params": {
          "_cap": "token cap - 0 for no cap.",
          "_founders": "An array with the addresses of the founders of the organization",
          "_foundersReputationAmount": "An array of amount of reputation that the  founders receive in the new organization",
          "_foundersTokenAmount": "An array of amount of tokens that the founders receive in the new organization",
          "_tokenName": "The name of the token associated with the organization",
          "_tokenSymbol": "The symbol of the token"
        },
        "return": "The address of the avatar of the controller"
      },
      "setSchemes(address,address[],bytes32[],bytes4[],string)": {
        "details": "Set initial schemes for the organization.",
        "params": {
          "_avatar": "organization avatar (returns from forgeOrg)",
          "_metaData": "dao meta data hash",
          "_params": "the schemes's params",
          "_permissions": "the schemes permissions.",
          "_schemes": "the schemes to register for the organization"
        }
      }
    },
    "title": "Genesis Scheme that creates organizations. Taken and modified from @daostack."
  },
  "userdoc": {
    "methods": {}
  }
}