{
  "contractName": "DaoCreatorGoodDollar",
  "abi": [
    {
      "inputs": [
        {
          "internalType": "contract AddFoundersGoodDollar",
          "name": "_addFoundersGoodDollar",
          "type": "address"
        }
      ],
      "payable": false,
      "stateMutability": "nonpayable",
      "type": "constructor"
    },
    {
      "anonymous": false,
      "inputs": [
        {
          "indexed": false,
          "internalType": "address",
          "name": "_avatar",
          "type": "address"
        }
      ],
      "name": "InitialSchemesSet",
      "type": "event"
    },
    {
      "anonymous": false,
      "inputs": [
        {
          "indexed": false,
          "internalType": "address",
          "name": "_avatar",
          "type": "address"
        }
      ],
      "name": "NewOrg",
      "type": "event"
    },
    {
      "constant": true,
      "inputs": [],
      "name": "avatar",
      "outputs": [
        {
          "internalType": "contract Avatar",
          "name": "",
          "type": "address"
        }
      ],
      "payable": false,
      "stateMutability": "view",
      "type": "function"
    },
    {
      "constant": true,
      "inputs": [],
      "name": "lock",
      "outputs": [
        {
          "internalType": "address",
          "name": "",
          "type": "address"
        }
      ],
      "payable": false,
      "stateMutability": "view",
      "type": "function"
    },
    {
      "constant": false,
      "inputs": [
        {
          "internalType": "string",
          "name": "_tokenName",
          "type": "string"
        },
        {
          "internalType": "string",
          "name": "_tokenSymbol",
          "type": "string"
        },
        {
          "internalType": "uint256",
          "name": "_cap",
          "type": "uint256"
        },
        {
          "internalType": "contract FeeFormula",
          "name": "_formula",
          "type": "address"
        },
        {
          "internalType": "contract Identity",
          "name": "_identity",
          "type": "address"
        },
        {
          "internalType": "address[]",
          "name": "_founders",
          "type": "address[]"
        },
        {
          "internalType": "uint256",
          "name": "_avatarTokenAmount",
          "type": "uint256"
        },
        {
          "internalType": "uint256[]",
          "name": "_foundersReputationAmount",
          "type": "uint256[]"
        }
      ],
      "name": "forgeOrg",
      "outputs": [
        {
          "internalType": "address",
          "name": "",
          "type": "address"
        }
      ],
      "payable": false,
      "stateMutability": "nonpayable",
      "type": "function"
    },
    {
      "constant": false,
      "inputs": [
        {
          "internalType": "contract Avatar",
          "name": "_avatar",
          "type": "address"
        },
        {
          "internalType": "address[]",
          "name": "_schemes",
          "type": "address[]"
        },
        {
          "internalType": "bytes32[]",
          "name": "_params",
          "type": "bytes32[]"
        },
        {
          "internalType": "bytes4[]",
          "name": "_permissions",
          "type": "bytes4[]"
        },
        {
          "internalType": "string",
          "name": "_metaData",
          "type": "string"
        }
      ],
      "name": "setSchemes",
      "outputs": [],
      "payable": false,
      "stateMutability": "nonpayable",
      "type": "function"
    }
  ],
  "bytecode": "0x608060405234801561001057600080fd5b50604051613c88380380613c888339818101604052602081101561003357600080fd5b5051600280546001600160a01b0319166001600160a01b03909216919091179055613c25806100636000396000f3fe60806040523480156200001157600080fd5b5060043610620000525760003560e01c8063064bf38614620000575780635aef7de614620001d6578063edc4476e14620001fc578063f83d08ba146200038d575b600080fd5b620001d4600480360360a08110156200006f57600080fd5b6001600160a01b038235169190810190604081016020820135600160201b8111156200009a57600080fd5b820183602082011115620000ad57600080fd5b803590602001918460208302840111600160201b83111715620000cf57600080fd5b919390929091602081019035600160201b811115620000ed57600080fd5b8201836020820111156200010057600080fd5b803590602001918460208302840111600160201b831117156200012257600080fd5b919390929091602081019035600160201b8111156200014057600080fd5b8201836020820111156200015357600080fd5b803590602001918460208302840111600160201b831117156200017557600080fd5b919390929091602081019035600160201b8111156200019357600080fd5b820183602082011115620001a657600080fd5b803590602001918460018302840111600160201b83111715620001c857600080fd5b50909250905062000397565b005b620001e062000710565b604080516001600160a01b039092168252519081900360200190f35b620001e060048036036101008110156200021557600080fd5b810190602081018135600160201b8111156200023057600080fd5b8201836020820111156200024357600080fd5b803590602001918460018302840111600160201b831117156200026557600080fd5b919390929091602081019035600160201b8111156200028357600080fd5b8201836020820111156200029657600080fd5b803590602001918460018302840111600160201b83111715620002b857600080fd5b919390928235926001600160a01b0360208201358116936040830135909116929091608081019060600135600160201b811115620002f557600080fd5b8201836020820111156200030857600080fd5b803590602001918460208302840111600160201b831117156200032a57600080fd5b91939092823592604081019060200135600160201b8111156200034c57600080fd5b8201836020820111156200035f57600080fd5b803590602001918460208302840111600160201b831117156200038157600080fd5b5090925090506200071f565b620001e062000831565b6001546001600160a01b03163314620003f7576040805162461bcd60e51b815260206004820152601a60248201527f4d6573736167652073656e646572206973206e6f74206c6f636b000000000000604482015290519081900360640190fd5b6000896001600160a01b0316638da5cb5b6040518163ffffffff1660e01b815260040160206040518083038186803b1580156200043357600080fd5b505afa15801562000448573d6000803e3d6000fd5b505050506040513d60208110156200045f57600080fd5b5051905060005b888110156200058957816001600160a01b031663e869d45f8b8b848181106200048b57fe5b905060200201356001600160a01b03168a8a85818110620004a857fe5b90506020020135898986818110620004bc57fe5b905060200201356001600160e01b0319168f6040518563ffffffff1660e01b815260040180856001600160a01b03166001600160a01b03168152602001848152602001836001600160e01b0319166001600160e01b0319168152602001826001600160a01b03166001600160a01b03168152602001945050505050602060405180830381600087803b1580156200055257600080fd5b505af115801562000567573d6000803e3d6000fd5b505050506040513d60208110156200057e57600080fd5b505060010162000466565b506040805163c9b62eb160e01b81526001600160a01b038c81166024830152600482019283526044820185905283169163c9b62eb191869186918f91908190606401858580828437600081840152601f19601f820116905080830192505050945050505050602060405180830381600087803b1580156200060957600080fd5b505af11580156200061e573d6000803e3d6000fd5b505050506040513d60208110156200063557600080fd5b50506040805163039de01d60e01b81523060048201526001600160a01b038c8116602483015291519183169163039de01d916044808201926020929091908290030181600087803b1580156200068a57600080fd5b505af11580156200069f573d6000803e3d6000fd5b505050506040513d6020811015620006b657600080fd5b5050600180546001600160a01b0319169055604080516001600160a01b038c16815290517f9007c9042f12be953f7dbe3909f56c3f088e9fe294dbebbef4a67afa63462b6a9181900360200190a150505050505050505050565b6000546001600160a01b031681565b6000620008208d8d8080601f016020809104026020016040519081016040528093929190818152602001838380828437600081840152601f19601f820116905080830192505050505050508c8c8080601f016020809104026020016040519081016040528093929190818152602001838380828437600081840152601f19601f820116905080830192505050505050508b8b8b8b8b8080602002602001604051908101604052809392919081815260200183836020028082843760009201919091525050604080516020808e0282810182019093528d82528f94509092508d918d918291908501908490808284376000920191909152506200084092505050565b9d9c50505050505050505050505050565b6001546001600160a01b031681565b6001546000906001600160a01b03161562000898576040805162461bcd60e51b81526020600482015260136024820152724c6f636b20616c72656164792065786973747360681b604482015290519081900360640190fd5b8151845114620008ef576040805162461bcd60e51b815260206004820152601a60248201527f466f756e6465722072657075746174696f6e206d697373696e67000000000000604482015290519081900360640190fd5b600084511162000946576040805162461bcd60e51b815260206004820152601e60248201527f4d7573742068617665206174206c65617374206f6e6520666f756e6465720000604482015290519081900360640190fd5b6000898989898960006040516200095d9062000e4c565b604081018590526001600160a01b0380851660608301528381166080830152821660a082015260c08082528751908201528651819060208083019160e08401918b019080838360005b83811015620009c0578181015183820152602001620009a6565b50505050905090810190601f168015620009ee5780820380516001836020036101000a031916815260200191505b5083810382528851815288516020918201918a019080838360005b8381101562000a2357818101518382015260200162000a09565b50505050905090810190601f16801562000a515780820380516001836020036101000a031916815260200191505b5098505050505050505050604051809103906000f08015801562000a79573d6000803e3d6000fd5b509050600060405162000a8c9062000e5a565b604051809103906000f08015801562000aa9573d6000803e3d6000fd5b5060025460408051634c1d96ab60e11b81526001600160a01b03928316600482015290519293509084169163983b2d569160248082019260009290919082900301818387803b15801562000afc57600080fd5b505af115801562000b11573d6000803e3d6000fd5b50505050816001600160a01b031663986502756040518163ffffffff1660e01b8152600401600060405180830381600087803b15801562000b5157600080fd5b505af115801562000b66573d6000803e3d6000fd5b50506002546040805163f2fde38b60e01b81526001600160a01b0392831660048201529051918616935063f2fde38b925060248082019260009290919082900301818387803b15801562000bb957600080fd5b505af115801562000bce573d6000803e3d6000fd5b50506002546040805163f2fde38b60e01b81526001600160a01b0392831660048201529051918516935063f2fde38b925060248082019260009290919082900301818387803b15801562000c2157600080fd5b505af115801562000c36573d6000803e3d6000fd5b50506002546040516304bd7c3f60e51b81526001600160a01b038681166004830190815286821660248401523360448401819052608484018c905260c0606485019081528d5160c48601528d519390951696506397af87e095508894889491938e938e938e93919260a482019160e401906020808901910280838360005b8381101562000cce57818101518382015260200162000cb4565b50505050905001838103825284818151815260200191508051906020019060200280838360005b8381101562000d0f57818101518382015260200162000cf5565b5050505090500198505050505050505050602060405180830381600087803b15801562000d3b57600080fd5b505af115801562000d50573d6000803e3d6000fd5b505050506040513d602081101562000d6757600080fd5b5051600080546001600160a01b0319166001600160a01b0392831617808255604080516320b707b160e21b8152918416600483015251928516926382dc1ec49260248084019391929182900301818387803b15801562000dc657600080fd5b505af115801562000ddb573d6000803e3d6000fd5b5050600180546001600160a01b031916331790555050600054604080516001600160a01b03929092168252517f244496352f5e67e59ce96b4a53ef9ea7cb88b7db33eb13dc5e771bd04385a60e9181900360200190a150506000546001600160a01b03169998505050505050505050565b6124bc8062000e6983390190565b6108cc80620033258339019056fe60806040523480156200001157600080fd5b50604051620024bc380380620024bc833981810160405260c08110156200003757600080fd5b81019080805160405193929190846401000000008211156200005857600080fd5b9083019060208201858111156200006e57600080fd5b82516401000000008111828201881017156200008957600080fd5b82525081516020918201929091019080838360005b83811015620000b85781810151838201526020016200009e565b50505050905090810190601f168015620000e65780820380516001836020036101000a031916815260200191505b50604052602001805160405193929190846401000000008211156200010a57600080fd5b9083019060208201858111156200012057600080fd5b82516401000000008111828201881017156200013b57600080fd5b82525081516020918201929091019080838360005b838110156200016a57818101518382015260200162000150565b50505050905090810190601f168015620001985780820380516001836020036101000a031916815260200191505b5060408181526020830151908301516060840151608090940151600380546001600160a01b03191633179081905592965090945091849184918991899189918491849184918491849184916001600160a01b0316906000907f8be0079c531659141344cd1fd0a4f28419497f9722a3daafe3b4186f6b6457e0908290a382516200022a906004906020860190620004b9565b50815162000240906005906020850190620004b9565b50600655506200025b9050336001600160e01b036200038616565b50506008805460ff19169055506200027c336001600160e01b03620003d816565b5050506001600160a01b038116620002db576040805162461bcd60e51b815260206004820152601960248201527f537570706c696564206964656e74697479206973206e756c6c00000000000000604482015290519081900360640190fd5b600b80546001600160a01b0319166001600160a01b0392831617905581166200034b576040805162461bcd60e51b815260206004820152601860248201527f537570706c69656420666f726d756c61206973206e756c6c0000000000000000604482015290519081900360640190fd5b600c80546001600160a01b039283166001600160a01b031991821617909155600d8054939092169216919091179055506200055e9350505050565b620003a18160076200042a60201b62001d621790919060201c565b6040516001600160a01b038216907f6719d08c1888103bea251a4ed56406bd0c3e69723c8a1686e017e7bbe159b6f890600090a250565b620003f38160096200042a60201b62001d621790919060201c565b6040516001600160a01b038216907f6ae172837ea30b801fbfcdd4108aa1d5bf8ff775444fd70256b44e6bf3dfc3f690600090a250565b6001600160a01b0381166200043e57600080fd5b6200045382826001600160e01b036200048316565b156200045e57600080fd5b6001600160a01b0316600090815260209190915260409020805460ff19166001179055565b60006001600160a01b0382166200049957600080fd5b506001600160a01b03166000908152602091909152604090205460ff1690565b828054600181600116156101000203166002900490600052602060002090601f016020900481019282601f10620004fc57805160ff19168380011785556200052c565b828001600101855582156200052c579182015b828111156200052c5782518255916020019190600101906200050f565b506200053a9291506200053e565b5090565b6200055b91905b808211156200053a576000815560010162000545565b90565b611f4e806200056e6000396000f3fe608060405234801561001057600080fd5b50600436106102325760003560e01c806370a082311161013057806398650275116100b8578063d5a06d4c1161007c578063d5a06d4c146106a7578063dd62ed3e146106c4578063e74b981b146106f2578063ecc06c7614610718578063f2fde38b1461073e57610232565b80639865027514610619578063a457c2d714610621578063a9059cbb1461064d578063aa271e1a14610679578063cd5965831461069f57610232565b80638456cb59116100ff5780638456cb59146105d35780638da5cb5b146105db5780638f32d59b146105e357806395d89b41146105eb578063983b2d56146105f357610232565b806370a0823114610553578063715018a61461057957806379cc67901461058157806382dc1ec4146105ad57610232565b806339509351116101be57806346fbf68e1161018257806346fbf68e146104ef5780634b75f54f146105155780635c975abb1461051d5780635d5bf178146105255780636ef8d66d1461054b57610232565b806339509351146103ed5780633f4ba83a146104195780634000aea01461042157806340c10f19146104a657806342966c68146104d257610232565b806323b872dd1161020557806323b872dd146103365780632c159a1a1461036c578063313ce56714610390578063355274ea1461039857806339364fd7146103a057610232565b806306fdde0314610237578063095ea7b3146102b45780630b26cf66146102f457806318160ddd1461031c575b600080fd5b61023f610764565b6040805160208082528351818301528351919283929083019185019080838360005b83811015610279578181015183820152602001610261565b50505050905090810190601f1680156102a65780820380516001836020036101000a031916815260200191505b509250505060405180910390f35b6102e0600480360360408110156102ca57600080fd5b506001600160a01b0381351690602001356107f2565b604080519115158252519081900360200190f35b61031a6004803603602081101561030a57600080fd5b50356001600160a01b0316610805565b005b6103246108a6565b60408051918252519081900360200190f35b6102e06004803603606081101561034c57600080fd5b506001600160a01b038135811691602081013590911690604001356108ac565b6103746108d0565b604080516001600160a01b039092168252519081900360200190f35b6103246108df565b6103246108e4565b6103d4600480360360608110156103b657600080fd5b508035906001600160a01b03602082013581169160400135166108ea565b6040805192835290151560208301528051918290030190f35b6102e06004803603604081101561040357600080fd5b506001600160a01b038135169060200135610985565b61031a610991565b6102e06004803603606081101561043757600080fd5b6001600160a01b038235169160208101359181019060608101604082013564010000000081111561046757600080fd5b82018360208201111561047957600080fd5b8035906020019184600183028401116401000000008311171561049b57600080fd5b5090925090506109f1565b6102e0600480360360408110156104bc57600080fd5b506001600160a01b038135169060200135610a4c565b61031a600480360360208110156104e857600080fd5b5035610b9c565b6102e06004803603602081101561050557600080fd5b50356001600160a01b0316610c69565b610374610c82565b6102e0610c91565b61031a6004803603602081101561053b57600080fd5b50356001600160a01b0316610c9a565b61031a610d83565b6103246004803603602081101561056957600080fd5b50356001600160a01b0316610d8e565b61031a610da9565b61031a6004803603604081101561059757600080fd5b506001600160a01b038135169060200135610e04565b61031a600480360360208110156105c357600080fd5b50356001600160a01b0316610f9c565b61031a610fb7565b61037461101b565b6102e061102a565b61023f61103b565b61031a6004803603602081101561060957600080fd5b50356001600160a01b0316611096565b61031a6110b1565b6102e06004803603604081101561063757600080fd5b506001600160a01b0381351690602001356110ba565b6102e06004803603604081101561066357600080fd5b506001600160a01b0381351690602001356110c6565b6102e06004803603602081101561068f57600080fd5b50356001600160a01b03166110e8565b6103746110fb565b6103d4600480360360208110156106bd57600080fd5b503561110a565b610324600480360360408110156106da57600080fd5b506001600160a01b03813581169160200135166111a2565b61031a6004803603602081101561070857600080fd5b50356001600160a01b03166111cd565b61031a6004803603602081101561072e57600080fd5b50356001600160a01b0316611200565b61031a6004803603602081101561075457600080fd5b50356001600160a01b0316611298565b6004805460408051602060026001851615610100026000190190941693909304601f810184900484028201840190925281815292918301828280156107ea5780601f106107bf576101008083540402835291602001916107ea565b820191906000526020600020905b8154815290600101906020018083116107cd57829003601f168201915b505050505081565b60006107fe83836112b2565b9392505050565b61080e336110e8565b61081757600080fd5b6001600160a01b038116158015906108335750610833816112cf565b610884576040805162461bcd60e51b815260206004820152601760248201527f496e76616c69642062726964676520636f6e7472616374000000000000000000604482015290519081900360640190fd5b600a80546001600160a01b0319166001600160a01b0392909216919091179055565b60025490565b6000806108ba8585856112d5565b90506108c785858361145d565b95945050505050565b600b546001600160a01b031681565b600281565b60065481565b600c5460408051631eed540360e11b8152600481018690526001600160a01b038581166024830152848116604483015282516000948594921692633ddaa806926064808301939192829003018186803b15801561094657600080fd5b505afa15801561095a573d6000803e3d6000fd5b505050506040513d604081101561097057600080fd5b50805160209091015190969095509350505050565b60006107fe838361147b565b61099a33610c69565b6109a357600080fd5b60085460ff166109b257600080fd5b6008805460ff191690556040805133815290517f5db9ee0a495bf2e6ff9c91a7834c1ba4fdd244a5e8aa4e537bd38aeae4b073aa9181900360200190a1565b6000806109ff3387876112d5565b9050610a42868286868080601f01602080910402602001604051908101604052809392919081815260200183838082843760009201919091525061149892505050565b9695505050505050565b6000610a57336110e8565b610a6057600080fd5b600b546040805163fe575a8760e01b81526001600160a01b03808716600483015291518693929092169163fe575a8791602480820192602092909190829003018186803b158015610ab057600080fd5b505afa158015610ac4573d6000803e3d6000fd5b505050506040513d6020811015610ada57600080fd5b505115610b28576040805162461bcd60e51b8152602060048201526017602482015276149958d95a5d995c881a5cc8189b1858dadb1a5cdd1959604a1b604482015290519081900360640190fd5b60065415610b8857600654610b4b84610b3f6108a6565b9063ffffffff6115d816565b1115610b885760405162461bcd60e51b8152600401808060200182810382526021815260200180611ed96021913960400191505060405180910390fd5b610b9284846115ea565b5060019392505050565b600b546040805163fe575a8760e01b815233600482015290516001600160a01b039092169163fe575a8791602480820192602092909190829003018186803b158015610be757600080fd5b505afa158015610bfb573d6000803e3d6000fd5b505050506040513d6020811015610c1157600080fd5b505115610c5d576040805162461bcd60e51b815260206004820152601560248201527410d85b1b195c881a5cc8189b1858dadb1a5cdd1959605a1b604482015290519081900360640190fd5b610c6681611692565b50565b6000610c7c60078363ffffffff61169c16565b92915050565b600c546001600160a01b031681565b60085460ff1690565b610ca261102a565b610cab57600080fd5b806001600160a01b031663223668446040518163ffffffff1660e01b815260040160206040518083038186803b158015610ce457600080fd5b505afa158015610cf8573d6000803e3d6000fd5b505050506040513d6020811015610d0e57600080fd5b5051610d61576040805162461bcd60e51b815260206004820152601a60248201527f4964656e74697479206973206e6f742072656769737465726564000000000000604482015290519081900360640190fd5b600b80546001600160a01b0319166001600160a01b0392909216919091179055565b610d8c336116d1565b565b6001600160a01b031660009081526020819052604090205490565b610db161102a565b610dba57600080fd5b6003546040516000916001600160a01b0316907f8be0079c531659141344cd1fd0a4f28419497f9722a3daafe3b4186f6b6457e0908390a3600380546001600160a01b0319169055565b600b546040805163fe575a8760e01b815233600482015290516001600160a01b039092169163fe575a8791602480820192602092909190829003018186803b158015610e4f57600080fd5b505afa158015610e63573d6000803e3d6000fd5b505050506040513d6020811015610e7957600080fd5b505115610ec5576040805162461bcd60e51b815260206004820152601560248201527410d85b1b195c881a5cc8189b1858dadb1a5cdd1959605a1b604482015290519081900360640190fd5b600b546040805163fe575a8760e01b81526001600160a01b03808616600483015291518593929092169163fe575a8791602480820192602092909190829003018186803b158015610f1557600080fd5b505afa158015610f29573d6000803e3d6000fd5b505050506040513d6020811015610f3f57600080fd5b505115610f8d576040805162461bcd60e51b8152602060048201526017602482015276149958d95a5d995c881a5cc8189b1858dadb1a5cdd1959604a1b604482015290519081900360640190fd5b610f978383611719565b505050565b610fa533610c69565b610fae57600080fd5b610c6681611727565b610fc033610c69565b610fc957600080fd5b60085460ff1615610fd957600080fd5b6008805460ff191660011790556040805133815290517f62e78cea01bee320cd4e420270b5ea74000d11b0c9f74754ebdbfc544b05a2589181900360200190a1565b6003546001600160a01b031690565b6003546001600160a01b0316331490565b6005805460408051602060026001851615610100026000190190941693909304601f810184900484028201840190925281815292918301828280156107ea5780601f106107bf576101008083540402835291602001916107ea565b61109f336110e8565b6110a857600080fd5b610c668161176f565b610d8c336117b7565b60006107fe83836117ff565b6000806110d43385856112d5565b90506110e0848261181c565b949350505050565b6000610c7c60098363ffffffff61169c16565b600a546001600160a01b031681565b600c5460408051631eed540360e11b815260048101849052600060248201819052604482018190528251909384936001600160a01b0390911692633ddaa8069260648083019392829003018186803b15801561116557600080fd5b505afa158015611179573d6000803e3d6000fd5b505050506040513d604081101561118f57600080fd5b5080516020909101519092509050915091565b6001600160a01b03918216600090815260016020908152604080832093909416825291909152205490565b6111d561102a565b6111de57600080fd5b600d80546001600160a01b0319166001600160a01b0392909216919091179055565b61120861102a565b61121157600080fd5b806001600160a01b031663223668446040518163ffffffff1660e01b815260040160206040518083038186803b15801561124a57600080fd5b505afa15801561125e573d6000803e3d6000fd5b505050506040513d602081101561127457600080fd5b5050600c80546001600160a01b0319166001600160a01b0392909216919091179055565b6112a061102a565b6112a957600080fd5b610c6681611839565b60085460009060ff16156112c557600080fd5b6107fe83836118a8565b3b151590565b60008060006112e58487876108ea565b9150915060008211801561136d5750600b546040805163639e625760e11b815233600482015290516001600160a01b039092169163c73cc4ae91602480820192602092909190829003018186803b15801561133f57600080fd5b505afa158015611353573d6000803e3d6000fd5b505050506040513d602081101561136957600080fd5b5051155b1561145357801580611396575061138386610d8e565b611393858463ffffffff6115d816565b11155b6113e7576040805162461bcd60e51b815260206004820181905260248201527f4e6f7420656e6f7567682062616c616e636520746f2070617920545820666565604482015290519081900360640190fd5b6001600160a01b03861633141561141457600d5461140e906001600160a01b03168361181c565b5061142e565b600d5461142c9087906001600160a01b03168461145d565b505b8061144857611443848363ffffffff61191216565b61144a565b835b925050506107fe565b5091949350505050565b60085460009060ff161561147057600080fd5b6110e0848484611927565b60085460009060ff161561148e57600080fd5b6107fe83836119de565b60085460009060ff16156114ab57600080fd5b60006114b7858561181c565b9050846001600160a01b0316336001600160a01b03167fe19260aff97b920c7df27010903aeb9c8d2be5d310a2c67824cf3f15396e4c1686866040518083815260200180602001828103825283818151815260200191508051906020019080838360005b8381101561153357818101518382015260200161151b565b50505050905090810190601f1680156115605780820380516001836020036101000a031916815260200191505b50935050505060405180910390a3611577856112cf565b156110e057611587858585611a7a565b6110e0576040805162461bcd60e51b815260206004820152601860248201527f436f6e74726163742066616c6c6261636b206661696c65640000000000000000604482015290519081900360640190fd5b6000828201838110156107fe57600080fd5b6001600160a01b0382166115fd57600080fd5b600254611610908263ffffffff6115d816565b6002556001600160a01b03821660009081526020819052604090205461163c908263ffffffff6115d816565b6001600160a01b0383166000818152602081815260408083209490945583518581529351929391927fddf252ad1be2c89b69c2b068fc378daa952ba7f163c4a11628f55a4df523b3ef9281900390910190a35050565b610c663382611bc3565b60006001600160a01b0382166116b157600080fd5b506001600160a01b03166000908152602091909152604090205460ff1690565b6116e260078263ffffffff611c6a16565b6040516001600160a01b038216907fcd265ebaf09df2871cc7bd4133404a235ba12eff2041bb89d9c714a2621c7c7e90600090a250565b6117238282611cb2565b5050565b61173860078263ffffffff611d6216565b6040516001600160a01b038216907f6719d08c1888103bea251a4ed56406bd0c3e69723c8a1686e017e7bbe159b6f890600090a250565b61178060098263ffffffff611d6216565b6040516001600160a01b038216907f6ae172837ea30b801fbfcdd4108aa1d5bf8ff775444fd70256b44e6bf3dfc3f690600090a250565b6117c860098263ffffffff611c6a16565b6040516001600160a01b038216907fe94479a9f7e1952cc78f2d6baab678adc1b772d936c6583def489e524cb6669290600090a250565b60085460009060ff161561181257600080fd5b6107fe8383611dae565b60085460009060ff161561182f57600080fd5b6107fe8383611df7565b6001600160a01b03811661184c57600080fd5b6003546040516001600160a01b038084169216907f8be0079c531659141344cd1fd0a4f28419497f9722a3daafe3b4186f6b6457e090600090a3600380546001600160a01b0319166001600160a01b0392909216919091179055565b60006001600160a01b0383166118bd57600080fd5b3360008181526001602090815260408083206001600160a01b0388168085529083529281902086905580518681529051929392600080516020611efa833981519152929181900390910190a350600192915050565b60008282111561192157600080fd5b50900390565b6001600160a01b038316600090815260016020908152604080832033845290915281205461195b908363ffffffff61191216565b6001600160a01b038516600090815260016020908152604080832033845290915290205561198a848484611e0d565b6001600160a01b038416600081815260016020908152604080832033808552908352928190205481519081529051929392600080516020611efa833981519152929181900390910190a35060019392505050565b60006001600160a01b0383166119f357600080fd5b3360009081526001602090815260408083206001600160a01b0387168452909152902054611a27908363ffffffff6115d816565b3360008181526001602090815260408083206001600160a01b038916808552908352928190208590558051948552519193600080516020611efa833981519152929081900390910190a350600192915050565b604051635260769b60e11b815233600482018181526024830185905260606044840190815284516064850152845160009488946001600160a01b0386169463a4c0ed369491938a938a939160849091019060208501908083838e5b83811015611aed578181015183820152602001611ad5565b50505050905090810190601f168015611b1a5780820380516001836020036101000a031916815260200191505b50945050505050602060405180830381600087803b158015611b3b57600080fd5b505af1158015611b4f573d6000803e3d6000fd5b505050506040513d6020811015611b6557600080fd5b5051611bb8576040805162461bcd60e51b815260206004820152601860248201527f436f6e74726163742046616c6c6261636b206661696c65640000000000000000604482015290519081900360640190fd5b506001949350505050565b6001600160a01b038216611bd657600080fd5b600254611be9908263ffffffff61191216565b6002556001600160a01b038216600090815260208190526040902054611c15908263ffffffff61191216565b6001600160a01b038316600081815260208181526040808320949094558351858152935191937fddf252ad1be2c89b69c2b068fc378daa952ba7f163c4a11628f55a4df523b3ef929081900390910190a35050565b6001600160a01b038116611c7d57600080fd5b611c87828261169c565b611c9057600080fd5b6001600160a01b0316600090815260209190915260409020805460ff19169055565b6001600160a01b0382166000908152600160209081526040808320338452909152902054611ce6908263ffffffff61191216565b6001600160a01b0383166000908152600160209081526040808320338452909152902055611d148282611bc3565b6001600160a01b038216600081815260016020908152604080832033808552908352928190205481519081529051929392600080516020611efa833981519152929181900390910190a35050565b6001600160a01b038116611d7557600080fd5b611d7f828261169c565b15611d8957600080fd5b6001600160a01b0316600090815260209190915260409020805460ff19166001179055565b60006001600160a01b038316611dc357600080fd5b3360009081526001602090815260408083206001600160a01b0387168452909152902054611a27908363ffffffff61191216565b6000611e04338484611e0d565b50600192915050565b6001600160a01b038216611e2057600080fd5b6001600160a01b038316600090815260208190526040902054611e49908263ffffffff61191216565b6001600160a01b038085166000908152602081905260408082209390935590841681522054611e7e908263ffffffff6115d816565b6001600160a01b038084166000818152602081815260409182902094909455805185815290519193928716927fddf252ad1be2c89b69c2b068fc378daa952ba7f163c4a11628f55a4df523b3ef92918290030190a350505056fe43616e6e6f7420696e63726561736520737570706c79206265796f6e64206361708c5be1e5ebec7d5bd14f71427d1e84f3dd0314c0f7b2291e5b200ac8c7c3b925a265627a7a72315820377577b98803c2210dfa17f6feaf68d6a856726073543a35d4a8526c1f78cc9f64736f6c6343000510003260806040526000805460ff60a01b1916600960a11b17905534801561002357600080fd5b50600080546001600160a01b03191633178082556040516001600160a01b039190911691907f8be0079c531659141344cd1fd0a4f28419497f9722a3daafe3b4186f6b6457e0908290a36108508061007c6000396000f3fe608060405234801561001057600080fd5b50600436106100a95760003560e01c8063715018a611610071578063715018a6146101785780638da5cb5b146101825780638f32d59b146101a6578063981b24d0146101ae5780639dc29fac146101cb578063f2fde38b146101f7576100a9565b806318160ddd146100ae578063313ce567146100c857806340c10f19146100e65780634ee2cd7e1461012657806370a0823114610152575b600080fd5b6100b661021d565b60408051918252519081900360200190f35b6100d061022e565b6040805160ff9092168252519081900360200190f35b610112600480360360408110156100fc57600080fd5b506001600160a01b03813516906020013561023e565b604080519115158252519081900360200190f35b6100b66004803603604081101561013c57600080fd5b506001600160a01b038135169060200135610305565b6100b66004803603602081101561016857600080fd5b50356001600160a01b0316610395565b6101806103a9565b005b61018a610404565b604080516001600160a01b039092168252519081900360200190f35b610112610413565b6100b6600480360360208110156101c457600080fd5b5035610424565b610112600480360360408110156101e157600080fd5b506001600160a01b038135169060200135610476565b6101806004803603602081101561020d57600080fd5b50356001600160a01b031661052b565b600061022843610424565b90505b90565b600054600160a01b900460ff1681565b6000610248610413565b61025157600080fd5b600061025b61021d565b905080838201101561026c57600080fd5b600061027785610395565b905080848201101561028857600080fd5b6102956002858401610548565b6001600160a01b03851660009081526001602052604090206102b990828601610548565b6040805185815290516001600160a01b038716917f0f6798a560793a54c3bcfe86a93cde1e73087d944c0ea20544137d4121396885919081900360200190a26001925050505b92915050565b6001600160a01b038216600090815260016020526040812054158061035f57506001600160a01b0383166000908152600160205260408120805484929061034857fe5b6000918252602090912001546001600160801b0316115b1561036c575060006102ff565b6001600160a01b038316600090815260016020526040902061038e9083610636565b90506102ff565b60006103a18243610305565b90505b919050565b6103b1610413565b6103ba57600080fd5b600080546040516001600160a01b03909116907f8be0079c531659141344cd1fd0a4f28419497f9722a3daafe3b4186f6b6457e0908390a3600080546001600160a01b0319169055565b6000546001600160a01b031690565b6000546001600160a01b0316331490565b6002546000901580610457575081600260008154811061044057fe5b6000918252602090912001546001600160801b0316115b15610464575060006103a4565b61046f600283610636565b90506103a4565b6000610480610413565b61048957600080fd5b600061049361021d565b90508260006104a186610395565b9050818110156104af578091505b6104bc6002838503610548565b6001600160a01b03861660009081526001602052604090206104e090838303610548565b6040805183815290516001600160a01b038816917fcc16f5dbb4873280815c1ee09dbd06736cffcc184412cf7a71a0fdb75d397ca5919081900360200190a250600195945050505050565b610533610413565b61053c57600080fd5b61054581610766565b50565b80816001600160801b03161461055d57600080fd5b815415806105915750815443908390600019810190811061057a57fe5b6000918252602090912001546001600160801b0316105b156105f857815460009083906105aa82600183016107d4565b815481106105b457fe5b600091825260209091200180546001600160801b03848116600160801b024382166fffffffffffffffffffffffffffffffff19909316929092171617905550610632565b81546000908390600019810190811061060d57fe5b600091825260209091200180546001600160801b03808516600160801b029116179055505b5050565b8154600090610647575060006102ff565b82548390600019810190811061065957fe5b6000918252602090912001546001600160801b031682106106a95782548390600019810190811061068657fe5b600091825260209091200154600160801b90046001600160801b031690506102ff565b826000815481106106b657fe5b6000918252602090912001546001600160801b03168210156106da575060006102ff565b8254600090600019015b8181111561073557600060026001838501010490508486828154811061070657fe5b6000918252602090912001546001600160801b0316116107285780925061072f565b6001810391505b506106e4565b84828154811061074157fe5b600091825260209091200154600160801b90046001600160801b031695945050505050565b6001600160a01b03811661077957600080fd5b600080546040516001600160a01b03808516939216917f8be0079c531659141344cd1fd0a4f28419497f9722a3daafe3b4186f6b6457e091a3600080546001600160a01b0319166001600160a01b0392909216919091179055565b8154818355818111156107f8576000838152602090206107f89181019083016107fd565b505050565b61022b91905b808211156108175760008155600101610803565b509056fea265627a7a72315820eef52360cfb55d4a7a4e0a0476462053eb63c71a61f397940bb0010de8033bcf64736f6c63430005100032a265627a7a72315820f11fae8761b8f4d448627beabf048188e4bb6a9d7e28052263934852409f9f5d64736f6c63430005100032",
  "source": "pragma solidity >0.5.4;\n\nimport \"@daostack/arc/contracts/controller/Controller.sol\";\nimport \"@daostack/arc/contracts/universalSchemes/SchemeRegistrar.sol\";\nimport \"@daostack/arc/contracts/universalSchemes/UpgradeScheme.sol\";\n\nimport \"@daostack/infra/contracts/votingMachines/AbsoluteVote.sol\";\nimport \"@daostack/infra/contracts/Reputation.sol\";\n\nimport \"../token/GoodDollar.sol\";\nimport \"../identity/IdentityGuard.sol\";\nimport \"../dao/schemes/FeeFormula.sol\";\n\n/**\n * @title ControllerCreator for creating a single controller. Taken from @daostack.\n */\ncontract ControllerCreatorGoodDollar {\n\tfunction create(Avatar _avatar, address _sender) public returns (address) {\n\t\tController controller = new Controller(_avatar);\n\t\tcontroller.registerScheme(\n\t\t\t_sender,\n\t\t\tbytes32(0),\n\t\t\tbytes4(0x0000001f),\n\t\t\taddress(_avatar)\n\t\t);\n\t\tcontroller.unregisterScheme(address(this), address(_avatar));\n\t\treturn address(controller);\n\t}\n}\n\n/**\n * @title Contract for adding founders to the DAO. Separated from DaoCreator to reduce\n * contract sizes\n */\ncontract AddFoundersGoodDollar {\n\tfunction create(Avatar _avatar, address _sender)\n\t\tinternal\n\t\treturns (address)\n\t{\n\t\tController controller = new Controller(_avatar);\n\t\tcontroller.registerScheme(\n\t\t\t_sender,\n\t\t\tbytes32(0),\n\t\t\tbytes4(0x0000001f),\n\t\t\taddress(_avatar)\n\t\t);\n\t\tcontroller.unregisterScheme(address(this), address(_avatar));\n\t\treturn address(controller);\n\t}\n\n\t/**\n\t * @param _founders An array with the addresses of the founders of the organization\n\t * @param _avatarTokenAmount Amount of tokens that the avatar receive on new organization\n\t * @param _foundersReputationAmount An array of amount of reputation that the\n\t *   founders receive in the new organization\n\t */\n\tfunction addFounders(\n\t\tGoodDollar nativeToken,\n\t\tReputation nativeReputation,\n\t\taddress _sender,\n\t\taddress[] memory _founders,\n\t\tuint256 _avatarTokenAmount,\n\t\tuint256[] memory _foundersReputationAmount\n\t) public returns (Avatar) {\n\t\tAvatar avatar = new Avatar(\"GoodDollar\", nativeToken, nativeReputation);\n\n\t\t//mint token to avatar\n\t\tnativeToken.mint(address(avatar), _avatarTokenAmount);\n\n\t\t// Mint reputation for founders:\n\t\tfor (uint256 i = 0; i < _founders.length; i++) {\n\t\t\trequire(\n\t\t\t\t_founders[i] != address(0),\n\t\t\t\t\"Founder cannot be zero address\"\n\t\t\t);\n\t\t\tif (_foundersReputationAmount[i] > 0) {\n\t\t\t\tnativeReputation.mint(\n\t\t\t\t\t_founders[i],\n\t\t\t\t\t_foundersReputationAmount[i]\n\t\t\t\t);\n\t\t\t}\n\t\t}\n\t\t// Create Controller:\n\t\tControllerInterface controller = ControllerInterface(\n\t\t\tcreate(avatar, msg.sender)\n\t\t);\n\n\t\t// Set fee recipient and Transfer ownership:\n\t\tnativeToken.setFeeRecipient(address(avatar));\n\n\t\tavatar.transferOwnership(address(controller));\n\t\tnativeToken.transferOwnership(address(avatar));\n\t\tnativeReputation.transferOwnership(address(controller));\n\n\t\t// Add minters\n\t\tnativeToken.addMinter(_sender);\n\t\tnativeToken.addMinter(address(avatar));\n\t\tnativeToken.addMinter(address(controller));\n\t\tnativeToken.renounceMinter();\n\t\treturn (avatar);\n\t}\n}\n\n/**\n * @title Genesis Scheme that creates organizations. Taken and modified from @daostack.\n */\ncontract DaoCreatorGoodDollar {\n\tAvatar public avatar;\n\taddress public lock;\n\n\tevent NewOrg(address _avatar);\n\tevent InitialSchemesSet(address _avatar);\n\n\tAddFoundersGoodDollar private addFoundersGoodDollar;\n\n\tconstructor(AddFoundersGoodDollar _addFoundersGoodDollar) public {\n\t\taddFoundersGoodDollar = _addFoundersGoodDollar;\n\t}\n\n\t/**\n\t * @dev Create a new organization\n\t * @param _tokenName The name of the token associated with the organization\n\t * @param _tokenSymbol The symbol of the token\n\t * @param _founders An array with the addresses of the founders of the organization\n\t * @param _avatarTokenAmount Amount of tokens that the avatar receive in the new organization\n\t * @param _foundersReputationAmount An array of amount of reputation that the\n\t *   founders receive in the new organization\n\t * @param  _cap token cap - 0 for no cap.\n\t * @return The address of the avatar of the controller\n\t */\n\tfunction forgeOrg(\n\t\tstring calldata _tokenName,\n\t\tstring calldata _tokenSymbol,\n\t\tuint256 _cap,\n\t\tFeeFormula _formula,\n\t\tIdentity _identity,\n\t\taddress[] calldata _founders,\n\t\tuint256 _avatarTokenAmount,\n\t\tuint256[] calldata _foundersReputationAmount\n\t) external returns (address) {\n\t\t//The call for the private function is needed to bypass a deep stack issues\n\t\treturn\n\t\t\t_forgeOrg(\n\t\t\t\t_tokenName,\n\t\t\t\t_tokenSymbol,\n\t\t\t\t_cap,\n\t\t\t\t_formula,\n\t\t\t\t_identity,\n\t\t\t\t_founders,\n\t\t\t\t_avatarTokenAmount,\n\t\t\t\t_foundersReputationAmount\n\t\t\t);\n\t}\n\n\t/**\n\t * @dev Set initial schemes for the organization.\n\t * @param _avatar organization avatar (returns from forgeOrg)\n\t * @param _schemes the schemes to register for the organization\n\t * @param _params the schemes parameters\n\t * @param _permissions the schemes permissions.\n\t * @param _metaData dao meta data hash\n\t */\n\tfunction setSchemes(\n\t\tAvatar _avatar,\n\t\taddress[] calldata _schemes,\n\t\tbytes32[] calldata _params,\n\t\tbytes4[] calldata _permissions,\n\t\tstring calldata _metaData\n\t) external {\n\t\t// this action can only be executed by the account that holds the lock\n\t\t// for this controller\n\t\trequire(lock == msg.sender, \"Message sender is not lock\");\n\t\t// register initial schemes:\n\t\tControllerInterface controller = ControllerInterface(_avatar.owner());\n\t\tfor (uint256 i = 0; i < _schemes.length; i++) {\n\t\t\tcontroller.registerScheme(\n\t\t\t\t_schemes[i],\n\t\t\t\t_params[i],\n\t\t\t\t_permissions[i],\n\t\t\t\taddress(_avatar)\n\t\t\t);\n\t\t}\n\t\tcontroller.metaData(_metaData, _avatar);\n\t\t// Unregister self:\n\t\tcontroller.unregisterScheme(address(this), address(_avatar));\n\t\t// Remove lock:\n\t\tlock = address(0);\n\t\temit InitialSchemesSet(address(_avatar));\n\t}\n\n\t/**\n\t * @dev Create a new organization\n\t * @param _tokenName The name of the token associated with the organization\n\t * @param _tokenSymbol The symbol of the token\n\t * @param _founders An array with the addresses of the founders of the organization\n\t * @param _avatarTokenAmount Amount of tokens that the avatar receive on startup\n\t * @param _foundersReputationAmount An array of amount of reputation that the\n\t *   founders receive in the new organization\n\t * @param  _cap token cap - 0 for no cap.\n\t * @return The address of the avatar of the controller\n\t */\n\tfunction _forgeOrg(\n\t\tstring memory _tokenName,\n\t\tstring memory _tokenSymbol,\n\t\tuint256 _cap,\n\t\tFeeFormula _formula,\n\t\tIdentity _identity,\n\t\taddress[] memory _founders,\n\t\tuint256 _avatarTokenAmount,\n\t\tuint256[] memory _foundersReputationAmount\n\t) private returns (address) {\n\t\t// Create Token, Reputation and Avatar:\n\t\trequire(lock == address(0), \"Lock already exists\");\n\t\trequire(\n\t\t\t_founders.length == _foundersReputationAmount.length,\n\t\t\t\"Founder reputation missing\"\n\t\t);\n\t\trequire(_founders.length > 0, \"Must have at least one founder\");\n\t\tGoodDollar nativeToken = new GoodDollar(\n\t\t\t_tokenName,\n\t\t\t_tokenSymbol,\n\t\t\t_cap,\n\t\t\t_formula,\n\t\t\t_identity,\n\t\t\taddress(0)\n\t\t);\n\t\tReputation nativeReputation = new Reputation();\n\n\t\t// renounce minter\n\t\tnativeToken.addMinter(address(addFoundersGoodDollar));\n\t\tnativeToken.renounceMinter();\n\n\t\tnativeToken.transferOwnership(address(addFoundersGoodDollar));\n\t\tnativeReputation.transferOwnership(address(addFoundersGoodDollar));\n\n\t\tavatar = addFoundersGoodDollar.addFounders(\n\t\t\tnativeToken,\n\t\t\tnativeReputation,\n\t\t\tmsg.sender,\n\t\t\t_founders,\n\t\t\t_avatarTokenAmount,\n\t\t\t_foundersReputationAmount\n\t\t);\n\n\t\tnativeToken.addPauser(address(avatar));\n\n\t\tlock = msg.sender;\n\n\t\temit NewOrg(address(avatar));\n\t\treturn (address(avatar));\n\t}\n}\n",
  "sourcePath": "/Users/hadar/workspace/GoodDollar/GoodBootstrap/packages/contracts/contracts/dao/DaoCreator.sol",
  "compiler": {
    "name": "solc",
    "version": "0.5.16+commit.9c3226ce.Emscripten.clang"
  },
  "schemaVersion": "3.2.3",
  "updatedAt": "2022-10-27T11:34:11.006Z",
  "devdoc": {
    "methods": {
      "forgeOrg(string,string,uint256,address,address,address[],uint256,uint256[])": {
        "details": "Create a new organization",
        "params": {
          "_avatarTokenAmount": "Amount of tokens that the avatar receive in the new organization",
          "_cap": "token cap - 0 for no cap.",
          "_founders": "An array with the addresses of the founders of the organization",
          "_foundersReputationAmount": "An array of amount of reputation that the  founders receive in the new organization",
          "_tokenName": "The name of the token associated with the organization",
          "_tokenSymbol": "The symbol of the token"
        },
        "return": "The address of the avatar of the controller"
      },
      "setSchemes(address,address[],bytes32[],bytes4[],string)": {
        "details": "Set initial schemes for the organization.",
        "params": {
          "_avatar": "organization avatar (returns from forgeOrg)",
          "_metaData": "dao meta data hash",
          "_params": "the schemes parameters",
          "_permissions": "the schemes permissions.",
          "_schemes": "the schemes to register for the organization"
        }
      }
    },
    "title": "Genesis Scheme that creates organizations. Taken and modified from @daostack."
  },
  "userdoc": {
    "methods": {}
  }
}