{
  "contractName": "DaoCreatorGoodDollar",
  "abi": [
    {
      "constant": true,
      "inputs": [],
      "name": "avatar",
      "outputs": [
        {
          "name": "",
          "type": "address"
        }
      ],
      "payable": false,
      "stateMutability": "view",
      "type": "function"
    },
    {
      "constant": true,
      "inputs": [],
      "name": "lock",
      "outputs": [
        {
          "name": "",
          "type": "address"
        }
      ],
      "payable": false,
      "stateMutability": "view",
      "type": "function"
    },
    {
      "inputs": [
        {
          "name": "_addFoundersGoodDollar",
          "type": "address"
        }
      ],
      "payable": false,
      "stateMutability": "nonpayable",
      "type": "constructor"
    },
    {
      "anonymous": false,
      "inputs": [
        {
          "indexed": false,
          "name": "_avatar",
          "type": "address"
        }
      ],
      "name": "NewOrg",
      "type": "event"
    },
    {
      "anonymous": false,
      "inputs": [
        {
          "indexed": false,
          "name": "_avatar",
          "type": "address"
        }
      ],
      "name": "InitialSchemesSet",
      "type": "event"
    },
    {
      "constant": false,
      "inputs": [
        {
          "name": "_tokenName",
          "type": "string"
        },
        {
          "name": "_tokenSymbol",
          "type": "string"
        },
        {
          "name": "_cap",
          "type": "uint256"
        },
        {
          "name": "_formula",
          "type": "address"
        },
        {
          "name": "_identity",
          "type": "address"
        },
        {
          "name": "_founders",
          "type": "address[]"
        },
        {
          "name": "_avatarTokenAmount",
          "type": "uint256"
        },
        {
          "name": "_foundersReputationAmount",
          "type": "uint256[]"
        }
      ],
      "name": "forgeOrg",
      "outputs": [
        {
          "name": "",
          "type": "address"
        }
      ],
      "payable": false,
      "stateMutability": "nonpayable",
      "type": "function"
    },
    {
      "constant": false,
      "inputs": [
        {
          "name": "_avatar",
          "type": "address"
        },
        {
          "name": "_schemes",
          "type": "address[]"
        },
        {
          "name": "_params",
          "type": "bytes32[]"
        },
        {
          "name": "_permissions",
          "type": "bytes4[]"
        },
        {
          "name": "_metaData",
          "type": "string"
        }
      ],
      "name": "setSchemes",
      "outputs": [],
      "payable": false,
      "stateMutability": "nonpayable",
      "type": "function"
    }
  ],
  "bytecode": "0x608060405234801561001057600080fd5b506040516020806147ef8339810180604052602081101561003057600080fd5b505160028054600160a060020a031916600160a060020a0390921691909117905561478f806100606000396000f3fe60806040523480156200001157600080fd5b5060043610620000555760e060020a6000350463064bf38681146200005a5780635aef7de614620001e1578063edc4476e1462000207578063f83d08ba14620003a0575b600080fd5b620001df600480360360a08110156200007257600080fd5b600160a060020a0382351691908101906040810160208201356401000000008111156200009e57600080fd5b820183602082011115620000b157600080fd5b80359060200191846020830284011164010000000083111715620000d457600080fd5b919390929091602081019035640100000000811115620000f357600080fd5b8201836020820111156200010657600080fd5b803590602001918460208302840111640100000000831117156200012957600080fd5b9193909290916020810190356401000000008111156200014857600080fd5b8201836020820111156200015b57600080fd5b803590602001918460208302840111640100000000831117156200017e57600080fd5b9193909290916020810190356401000000008111156200019d57600080fd5b820183602082011115620001b057600080fd5b80359060200191846001830284011164010000000083111715620001d357600080fd5b509092509050620003aa565b005b620001eb620007ae565b60408051600160a060020a039092168252519081900360200190f35b620001eb60048036036101008110156200022057600080fd5b8101906020810181356401000000008111156200023c57600080fd5b8201836020820111156200024f57600080fd5b803590602001918460018302840111640100000000831117156200027257600080fd5b9193909290916020810190356401000000008111156200029157600080fd5b820183602082011115620002a457600080fd5b80359060200191846001830284011164010000000083111715620002c757600080fd5b91939092823592600160a060020a03602082013581169360408301359091169290916080810190606001356401000000008111156200030557600080fd5b8201836020820111156200031857600080fd5b803590602001918460208302840111640100000000831117156200033b57600080fd5b919390928235926040810190602001356401000000008111156200035e57600080fd5b8201836020820111156200037157600080fd5b803590602001918460208302840111640100000000831117156200039457600080fd5b509092509050620007bd565b620001eb620008cf565b600154600160a060020a031633146200040d576040805160e560020a62461bcd02815260206004820152601a60248201527f4d6573736167652073656e646572206973206e6f74206c6f636b000000000000604482015290519081900360640190fd5b600089600160a060020a0316638da5cb5b6040518163ffffffff1660e060020a02815260040160206040518083038186803b1580156200044c57600080fd5b505afa15801562000461573d6000803e3d6000fd5b505050506040513d60208110156200047857600080fd5b5051905060005b88811015620005e857600160a060020a03821663e869d45f8b8b84818110620004a457fe5b90506020020135600160a060020a03168a8a858181101515620004c357fe5b905060200201358989868181101515620004d957fe5b905060200201357bffffffffffffffffffffffffffffffffffffffffffffffffffffffff19168f6040518563ffffffff1660e060020a0281526004018085600160a060020a0316600160a060020a03168152602001848152602001837bffffffffffffffffffffffffffffffffffffffffffffffffffffffff19167bffffffffffffffffffffffffffffffffffffffffffffffffffffffff1916815260200182600160a060020a0316600160a060020a03168152602001945050505050602060405180830381600087803b158015620005b157600080fd5b505af1158015620005c6573d6000803e3d6000fd5b505050506040513d6020811015620005dd57600080fd5b50506001016200047f565b50604080517fc9b62eb1000000000000000000000000000000000000000000000000000000008152600160a060020a038c81166024830152600482019283526044820185905283169163c9b62eb191869186918f91908190606401858580828437600081840152601f19601f820116905080830192505050945050505050602060405180830381600087803b1580156200068157600080fd5b505af115801562000696573d6000803e3d6000fd5b505050506040513d6020811015620006ad57600080fd5b5050604080517f039de01d000000000000000000000000000000000000000000000000000000008152306004820152600160a060020a038c8116602483015291519183169163039de01d916044808201926020929091908290030181600087803b1580156200071b57600080fd5b505af115801562000730573d6000803e3d6000fd5b505050506040513d60208110156200074757600080fd5b50506001805473ffffffffffffffffffffffffffffffffffffffff1916905560408051600160a060020a038c16815290517f9007c9042f12be953f7dbe3909f56c3f088e9fe294dbebbef4a67afa63462b6a9181900360200190a150505050505050505050565b600054600160a060020a031681565b6000620008be8d8d8080601f016020809104026020016040519081016040528093929190818152602001838380828437600081840152601f19601f820116905080830192505050505050508c8c8080601f016020809104026020016040519081016040528093929190818152602001838380828437600081840152601f19601f820116905080830192505050505050508b8b8b8b8b8080602002602001604051908101604052809392919081815260200183836020028082843760009201919091525050604080516020808e0282810182019093528d82528f94509092508d918d91829190850190849080828437600092019190915250620008de92505050565b9d9c50505050505050505050505050565b600154600160a060020a031681565b600154600090600160a060020a03161562000943576040805160e560020a62461bcd02815260206004820152601360248201527f4c6f636b20616c72656164792065786973747300000000000000000000000000604482015290519081900360640190fd5b81518451146200099d576040805160e560020a62461bcd02815260206004820152601a60248201527f466f756e6465722072657075746174696f6e206d697373696e67000000000000604482015290519081900360640190fd5b8351600010620009f7576040805160e560020a62461bcd02815260206004820152601e60248201527f4d7573742068617665206174206c65617374206f6e6520666f756e6465720000604482015290519081900360640190fd5b60008989898989600060405162000a0e9062000f97565b60408101859052600160a060020a0380851660608301528381166080830152821660a082015260c08082528751908201528651819060208083019160e08401918b019080838360005b8381101562000a7157818101518382015260200162000a57565b50505050905090810190601f16801562000a9f5780820380516001836020036101000a031916815260200191505b5083810382528851815288516020918201918a019080838360005b8381101562000ad457818101518382015260200162000aba565b50505050905090810190601f16801562000b025780820380516001836020036101000a031916815260200191505b5098505050505050505050604051809103906000f08015801562000b2a573d6000803e3d6000fd5b509050600060405162000b3d9062000fa5565b604051809103906000f08015801562000b5a573d6000803e3d6000fd5b50600254604080517f983b2d56000000000000000000000000000000000000000000000000000000008152600160a060020a03928316600482015290519293509084169163983b2d569160248082019260009290919082900301818387803b15801562000bc657600080fd5b505af115801562000bdb573d6000803e3d6000fd5b5050505081600160a060020a031663986502756040518163ffffffff1660e060020a028152600401600060405180830381600087803b15801562000c1e57600080fd5b505af115801562000c33573d6000803e3d6000fd5b5050600254604080517ff2fde38b000000000000000000000000000000000000000000000000000000008152600160a060020a0392831660048201529051918616935063f2fde38b925060248082019260009290919082900301818387803b15801562000c9f57600080fd5b505af115801562000cb4573d6000803e3d6000fd5b5050600254604080517ff2fde38b000000000000000000000000000000000000000000000000000000008152600160a060020a0392831660048201529051918516935063f2fde38b925060248082019260009290919082900301818387803b15801562000d2057600080fd5b505af115801562000d35573d6000803e3d6000fd5b50506002546040517f97af87e0000000000000000000000000000000000000000000000000000000008152600160a060020a038681166004830190815286821660248401523360448401819052608484018c905260c0606485019081528d5160c48601528d519390951696506397af87e095508894889491938e938e938e93919260a482019160e401906020808901910280838360005b8381101562000de657818101518382015260200162000dcc565b50505050905001838103825284818151815260200191508051906020019060200280838360005b8381101562000e2757818101518382015260200162000e0d565b5050505090500198505050505050505050602060405180830381600087803b15801562000e5357600080fd5b505af115801562000e68573d6000803e3d6000fd5b505050506040513d602081101562000e7f57600080fd5b50516000805473ffffffffffffffffffffffffffffffffffffffff1916600160a060020a0392831617808255604080517f82dc1ec4000000000000000000000000000000000000000000000000000000008152918416600483015251928516926382dc1ec49260248084019391929182900301818387803b15801562000f0457600080fd5b505af115801562000f19573d6000803e3d6000fd5b50506001805473ffffffffffffffffffffffffffffffffffffffff191633179055505060005460408051600160a060020a03929092168252517f244496352f5e67e59ce96b4a53ef9ea7cb88b7db33eb13dc5e771bd04385a60e9181900360200190a15050600054600160a060020a03169998505050505050505050565b612e498062000fb483390190565b6109678062003dfd8339019056fe60806040523480156200001157600080fd5b5060405162002e4938038062002e49833981018060405260c08110156200003757600080fd5b8101908080516401000000008111156200005057600080fd5b820160208101848111156200006457600080fd5b81516401000000008111828201871017156200007f57600080fd5b505092919060200180516401000000008111156200009c57600080fd5b82016020810184811115620000b057600080fd5b8151640100000000811182820187101715620000cb57600080fd5b50506020820151604080840151606085015160809095015160038054600160a060020a0319163317908190559251949750929550939284918491899189918991849184918491849184918491600160a060020a0316906000907f8be0079c531659141344cd1fd0a4f28419497f9722a3daafe3b4186f6b6457e0908290a382516200015e90600490602086019062000429565b5081516200017490600590602085019062000429565b50600655506200018f905033640100000000620002f2810204565b50506008805460ff1916905550620001b03364010000000062000344810204565b505050600160a060020a03811615156200022b57604080517f08c379a000000000000000000000000000000000000000000000000000000000815260206004820152601960248201527f537570706c696564206964656e74697479206973206e756c6c00000000000000604482015290519081900360640190fd5b600b8054600160a060020a031916600160a060020a0392831617905581161515620002b757604080517f08c379a000000000000000000000000000000000000000000000000000000000815260206004820152601860248201527f537570706c69656420666f726d756c61206973206e756c6c0000000000000000604482015290519081900360640190fd5b600c8054600160a060020a03928316600160a060020a031991821617909155600d805493909216921691909117905550620004ce9350505050565b6200030d600782640100000000620027426200039682021704565b604051600160a060020a038216907f6719d08c1888103bea251a4ed56406bd0c3e69723c8a1686e017e7bbe159b6f890600090a250565b6200035f600982640100000000620027426200039682021704565b604051600160a060020a038216907f6ae172837ea30b801fbfcdd4108aa1d5bf8ff775444fd70256b44e6bf3dfc3f690600090a250565b600160a060020a0381161515620003ac57600080fd5b620003c18282640100000000620003f1810204565b15620003cc57600080fd5b600160a060020a0316600090815260209190915260409020805460ff19166001179055565b6000600160a060020a03821615156200040957600080fd5b50600160a060020a03166000908152602091909152604090205460ff1690565b828054600181600116156101000203166002900490600052602060002090601f016020900481019282601f106200046c57805160ff19168380011785556200049c565b828001600101855582156200049c579182015b828111156200049c5782518255916020019190600101906200047f565b50620004aa929150620004ae565b5090565b620004cb91905b80821115620004aa5760008155600101620004b5565b90565b61296b80620004de6000396000f3fe608060405234801561001057600080fd5b506004361061022b5760003560e060020a9004806370a082311161013457806398650275116100bc578063d5a06d4c11610080578063d5a06d4c14610653578063dd62ed3e14610670578063e74b981b1461069e578063ecc06c76146106c4578063f2fde38b146106ea5761022b565b806398650275146105c5578063a457c2d7146105cd578063a9059cbb146105f9578063aa271e1a14610625578063cd5965831461064b5761022b565b80638456cb59116101035780638456cb591461057f5780638da5cb5b146105875780638f32d59b1461058f57806395d89b4114610597578063983b2d561461059f5761022b565b806370a08231146104ff578063715018a61461052557806379cc67901461052d57806382dc1ec4146105595761022b565b80633f4ba83a116101b757806346fbf68e1161018657806346fbf68e1461049b5780634b75f54f146104c15780635c975abb146104c95780635d5bf178146104d15780636ef8d66d146104f75761022b565b80633f4ba83a146103c55780634000aea0146103cd57806340c10f191461045257806342966c681461047e5761022b565b806323b872dd116101fe57806323b872dd1461032f5780632c159a1a14610365578063313ce56714610389578063355274ea1461039157806339509351146103995761022b565b806306fdde0314610230578063095ea7b3146102ad5780630b26cf66146102ed57806318160ddd14610315575b600080fd5b610238610710565b6040805160208082528351818301528351919283929083019185019080838360005b8381101561027257818101518382015260200161025a565b50505050905090810190601f16801561029f5780820380516001836020036101000a031916815260200191505b509250505060405180910390f35b6102d9600480360360408110156102c357600080fd5b50600160a060020a03813516906020013561079e565b604080519115158252519081900360200190f35b6103136004803603602081101561030357600080fd5b5035600160a060020a031661092f565b005b61031d6109e4565b60408051918252519081900360200190f35b6102d96004803603606081101561034557600080fd5b50600160a060020a038135811691602081013590911690604001356109ea565b61036d610d3a565b60408051600160a060020a039092168252519081900360200190f35b61031d610d49565b61031d610d4e565b6102d9600480360360408110156103af57600080fd5b50600160a060020a038135169060200135610d54565b610313610edd565b6102d9600480360360608110156103e357600080fd5b600160a060020a038235169160208101359181019060608101604082013564010000000081111561041357600080fd5b82018360208201111561042557600080fd5b8035906020019184600183028401116401000000008311171561044757600080fd5b509092509050610f41565b6102d96004803603604081101561046857600080fd5b50600160a060020a03813516906020013561111a565b6103136004803603602081101561049457600080fd5b503561126c565b6102d9600480360360208110156104b157600080fd5b5035600160a060020a0316611335565b61036d61134e565b6102d961135d565b610313600480360360208110156104e757600080fd5b5035600160a060020a0316611366565b610313611466565b61031d6004803603602081101561051557600080fd5b5035600160a060020a0316611471565b61031361148c565b6103136004803603604081101561054357600080fd5b50600160a060020a0381351690602001356114f6565b6103136004803603602081101561056f57600080fd5b5035600160a060020a0316611684565b6103136116a1565b61036d611707565b6102d9611716565b610238611727565b610313600480360360208110156105b557600080fd5b5035600160a060020a0316611782565b61031361179f565b6102d9600480360360408110156105e357600080fd5b50600160a060020a0381351690602001356117a8565b6102d96004803603604081101561060f57600080fd5b50600160a060020a038135169060200135611931565b6102d96004803603602081101561063b57600080fd5b5035600160a060020a0316611ad1565b61036d611ae4565b61031d6004803603602081101561066957600080fd5b5035611af3565b61031d6004803603604081101561068657600080fd5b50600160a060020a0381358116916020013516611b8a565b610313600480360360208110156106b457600080fd5b5035600160a060020a0316611bb5565b610313600480360360208110156106da57600080fd5b5035600160a060020a0316611bf7565b6103136004803603602081101561070057600080fd5b5035600160a060020a0316611ca1565b6004805460408051602060026001851615610100026000190190941693909304601f810184900484028201840190925281815292918301828280156107965780601f1061076b57610100808354040283529160200191610796565b820191906000526020600020905b81548152906001019060200180831161077957829003601f168201915b505050505081565b600b546040805160e060020a63fe575a870281523360048201529051600092600160a060020a03169163fe575a87916024808301926020929190829003018186803b1580156107ec57600080fd5b505afa158015610800573d6000803e3d6000fd5b505050506040513d602081101561081657600080fd5b50511561085b576040805160e560020a62461bcd02815260206004820152601560248201526000805160206128e0833981519152604482015290519081900360640190fd5b600b546040805160e060020a63fe575a87028152600160a060020a03808716600483015291518693929092169163fe575a8791602480820192602092909190829003018186803b1580156108ae57600080fd5b505afa1580156108c2573d6000803e3d6000fd5b505050506040513d60208110156108d857600080fd5b50511561091d576040805160e560020a62461bcd0281526020600482015260176024820152600080516020612900833981519152604482015290519081900360640190fd5b6109278484611cbd565b949350505050565b61093833611ad1565b151561094357600080fd5b600160a060020a0381161580159061095f575061095f81611ce1565b15156109b5576040805160e560020a62461bcd02815260206004820152601760248201527f496e76616c69642062726964676520636f6e7472616374000000000000000000604482015290519081900360640190fd5b600a805473ffffffffffffffffffffffffffffffffffffffff1916600160a060020a0392909216919091179055565b60025490565b600b54604080517f3af32abf000000000000000000000000000000000000000000000000000000008152600160a060020a038087166004830152915160009387931691633af32abf916024808301926020929190829003018186803b158015610a5257600080fd5b505afa158015610a66573d6000803e3d6000fd5b505050506040513d6020811015610a7c57600080fd5b50511515610ad4576040805160e560020a62461bcd02815260206004820152601260248201527f6973206e6f742077686974656c69737465640000000000000000000000000000604482015290519081900360640190fd5b600b546040805160e060020a63fe575a870281523360048201529051600160a060020a039092169163fe575a8791602480820192602092909190829003018186803b158015610b2257600080fd5b505afa158015610b36573d6000803e3d6000fd5b505050506040513d6020811015610b4c57600080fd5b505115610b91576040805160e560020a62461bcd02815260206004820152601560248201526000805160206128e0833981519152604482015290519081900360640190fd5b600b546040805160e060020a63fe575a87028152600160a060020a03808916600483015291518893929092169163fe575a8791602480820192602092909190829003018186803b158015610be457600080fd5b505afa158015610bf8573d6000803e3d6000fd5b505050506040513d6020811015610c0e57600080fd5b505115610c53576040805160e560020a62461bcd0281526020600482015260176024820152600080516020612900833981519152604482015290519081900360640190fd5b600b546040805160e060020a63fe575a87028152600160a060020a03808916600483015291518893929092169163fe575a8791602480820192602092909190829003018186803b158015610ca657600080fd5b505afa158015610cba573d6000803e3d6000fd5b505050506040513d6020811015610cd057600080fd5b505115610d15576040805160e560020a62461bcd0281526020600482015260176024820152600080516020612900833981519152604482015290519081900360640190fd5b6000610d218887611ce9565b9050610d2e888883611e00565b98975050505050505050565b600b54600160a060020a031681565b600281565b60065481565b600b546040805160e060020a63fe575a870281523360048201529051600092600160a060020a03169163fe575a87916024808301926020929190829003018186803b158015610da257600080fd5b505afa158015610db6573d6000803e3d6000fd5b505050506040513d6020811015610dcc57600080fd5b505115610e11576040805160e560020a62461bcd02815260206004820152601560248201526000805160206128e0833981519152604482015290519081900360640190fd5b600b546040805160e060020a63fe575a87028152600160a060020a03808716600483015291518693929092169163fe575a8791602480820192602092909190829003018186803b158015610e6457600080fd5b505afa158015610e78573d6000803e3d6000fd5b505050506040513d6020811015610e8e57600080fd5b505115610ed3576040805160e560020a62461bcd0281526020600482015260176024820152600080516020612900833981519152604482015290519081900360640190fd5b6109278484611e1e565b610ee633611335565b1515610ef157600080fd5b60085460ff161515610f0257600080fd5b6008805460ff191690556040805133815290517f5db9ee0a495bf2e6ff9c91a7834c1ba4fdd244a5e8aa4e537bd38aeae4b073aa9181900360200190a1565b600b546040805160e060020a63fe575a870281523360048201529051600092600160a060020a03169163fe575a87916024808301926020929190829003018186803b158015610f8f57600080fd5b505afa158015610fa3573d6000803e3d6000fd5b505050506040513d6020811015610fb957600080fd5b505115610ffe576040805160e560020a62461bcd02815260206004820152601560248201526000805160206128e0833981519152604482015290519081900360640190fd5b600b546040805160e060020a63fe575a87028152600160a060020a03808916600483015291518893929092169163fe575a8791602480820192602092909190829003018186803b15801561105157600080fd5b505afa158015611065573d6000803e3d6000fd5b505050506040513d602081101561107b57600080fd5b5051156110c0576040805160e560020a62461bcd0281526020600482015260176024820152600080516020612900833981519152604482015290519081900360640190fd5b60006110cc3387611ce9565b905061110f878287878080601f016020809104026020016040519081016040528093929190818152602001838380828437600092019190915250611e3b92505050565b979650505050505050565b600061112533611ad1565b151561113057600080fd5b600b546040805160e060020a63fe575a87028152600160a060020a03808716600483015291518693929092169163fe575a8791602480820192602092909190829003018186803b15801561118357600080fd5b505afa158015611197573d6000803e3d6000fd5b505050506040513d60208110156111ad57600080fd5b5051156111f2576040805160e560020a62461bcd0281526020600482015260176024820152600080516020612900833981519152604482015290519081900360640190fd5b60006006541115611258576006546112188461120c6109e4565b9063ffffffff611f7d16565b11156112585760405160e560020a62461bcd0281526004018080602001828103825260218152602001806128bf6021913960400191505060405180910390fd5b6112628484611f8f565b5060019392505050565b600b546040805160e060020a63fe575a870281523360048201529051600160a060020a039092169163fe575a8791602480820192602092909190829003018186803b1580156112ba57600080fd5b505afa1580156112ce573d6000803e3d6000fd5b505050506040513d60208110156112e457600080fd5b505115611329576040805160e560020a62461bcd02815260206004820152601560248201526000805160206128e0833981519152604482015290519081900360640190fd5b61133281612039565b50565b600061134860078363ffffffff61204316565b92915050565b600c54600160a060020a031681565b60085460ff1690565b61136e611716565b151561137957600080fd5b80600160a060020a031663223668446040518163ffffffff1660e060020a02815260040160206040518083038186803b1580156113b557600080fd5b505afa1580156113c9573d6000803e3d6000fd5b505050506040513d60208110156113df57600080fd5b50511515611437576040805160e560020a62461bcd02815260206004820152601a60248201527f4964656e74697479206973206e6f742072656769737465726564000000000000604482015290519081900360640190fd5b600b805473ffffffffffffffffffffffffffffffffffffffff1916600160a060020a0392909216919091179055565b61146f3361207a565b565b600160a060020a031660009081526020819052604090205490565b611494611716565b151561149f57600080fd5b600354604051600091600160a060020a0316907f8be0079c531659141344cd1fd0a4f28419497f9722a3daafe3b4186f6b6457e0908390a36003805473ffffffffffffffffffffffffffffffffffffffff19169055565b600b546040805160e060020a63fe575a870281523360048201529051600160a060020a039092169163fe575a8791602480820192602092909190829003018186803b15801561154457600080fd5b505afa158015611558573d6000803e3d6000fd5b505050506040513d602081101561156e57600080fd5b5051156115b3576040805160e560020a62461bcd02815260206004820152601560248201526000805160206128e0833981519152604482015290519081900360640190fd5b600b546040805160e060020a63fe575a87028152600160a060020a03808616600483015291518593929092169163fe575a8791602480820192602092909190829003018186803b15801561160657600080fd5b505afa15801561161a573d6000803e3d6000fd5b505050506040513d602081101561163057600080fd5b505115611675576040805160e560020a62461bcd0281526020600482015260176024820152600080516020612900833981519152604482015290519081900360640190fd5b61167f83836120c2565b505050565b61168d33611335565b151561169857600080fd5b611332816120d0565b6116aa33611335565b15156116b557600080fd5b60085460ff16156116c557600080fd5b6008805460ff191660011790556040805133815290517f62e78cea01bee320cd4e420270b5ea74000d11b0c9f74754ebdbfc544b05a2589181900360200190a1565b600354600160a060020a031690565b600354600160a060020a0316331490565b6005805460408051602060026001851615610100026000190190941693909304601f810184900484028201840190925281815292918301828280156107965780601f1061076b57610100808354040283529160200191610796565b61178b33611ad1565b151561179657600080fd5b61133281612118565b61146f33612160565b600b546040805160e060020a63fe575a870281523360048201529051600092600160a060020a03169163fe575a87916024808301926020929190829003018186803b1580156117f657600080fd5b505afa15801561180a573d6000803e3d6000fd5b505050506040513d602081101561182057600080fd5b505115611865576040805160e560020a62461bcd02815260206004820152601560248201526000805160206128e0833981519152604482015290519081900360640190fd5b600b546040805160e060020a63fe575a87028152600160a060020a03808716600483015291518693929092169163fe575a8791602480820192602092909190829003018186803b1580156118b857600080fd5b505afa1580156118cc573d6000803e3d6000fd5b505050506040513d60208110156118e257600080fd5b505115611927576040805160e560020a62461bcd0281526020600482015260176024820152600080516020612900833981519152604482015290519081900360640190fd5b61092784846121a8565b600b546040805160e060020a63fe575a870281523360048201529051600092600160a060020a03169163fe575a87916024808301926020929190829003018186803b15801561197f57600080fd5b505afa158015611993573d6000803e3d6000fd5b505050506040513d60208110156119a957600080fd5b5051156119ee576040805160e560020a62461bcd02815260206004820152601560248201526000805160206128e0833981519152604482015290519081900360640190fd5b600b546040805160e060020a63fe575a87028152600160a060020a03808716600483015291518693929092169163fe575a8791602480820192602092909190829003018186803b158015611a4157600080fd5b505afa158015611a55573d6000803e3d6000fd5b505050506040513d6020811015611a6b57600080fd5b505115611ab0576040805160e560020a62461bcd0281526020600482015260176024820152600080516020612900833981519152604482015290519081900360640190fd5b6000611abc3385611ce9565b9050611ac885826121c5565b95945050505050565b600061134860098363ffffffff61204316565b600a54600160a060020a031681565b600c54604080517fcb733bb9000000000000000000000000000000000000000000000000000000008152600481018490529051600092600160a060020a03169163cb733bb9916024808301926020929190829003018186803b158015611b5857600080fd5b505afa158015611b6c573d6000803e3d6000fd5b505050506040513d6020811015611b8257600080fd5b505192915050565b600160a060020a03918216600090815260016020908152604080832093909416825291909152205490565b611bbd611716565b1515611bc857600080fd5b600d805473ffffffffffffffffffffffffffffffffffffffff1916600160a060020a0392909216919091179055565b611bff611716565b1515611c0a57600080fd5b80600160a060020a031663223668446040518163ffffffff1660e060020a02815260040160206040518083038186803b158015611c4657600080fd5b505afa158015611c5a573d6000803e3d6000fd5b505050506040513d6020811015611c7057600080fd5b5050600c805473ffffffffffffffffffffffffffffffffffffffff1916600160a060020a0392909216919091179055565b611ca9611716565b1515611cb457600080fd5b611332816121e2565b60085460009060ff1615611cd057600080fd5b611cda8383612260565b9392505050565b6000903b1190565b600080611cf583611af3565b9050600081118015611d945750600b54604080517fc73cc4ae0000000000000000000000000000000000000000000000000000000081523360048201529051600160a060020a039092169163c73cc4ae91602480820192602092909190829003018186803b158015611d6657600080fd5b505afa158015611d7a573d6000803e3d6000fd5b505050506040513d6020811015611d9057600080fd5b5051155b15611df857600160a060020a038416331415611dc657600d54611dc090600160a060020a0316826121c5565b50611de0565b600d54611dde908590600160a060020a031683611e00565b505b611df0838263ffffffff6122cc16565b915050611348565b509092915050565b60085460009060ff1615611e1357600080fd5b6109278484846122e1565b60085460009060ff1615611e3157600080fd5b611cda8383612398565b60085460009060ff1615611e4e57600080fd5b611e5884846121c5565b5083600160a060020a031633600160a060020a03167fe19260aff97b920c7df27010903aeb9c8d2be5d310a2c67824cf3f15396e4c1685856040518083815260200180602001828103825283818151815260200191508051906020019080838360005b83811015611ed3578181015183820152602001611ebb565b50505050905090810190601f168015611f005780820380516001836020036101000a031916815260200191505b50935050505060405180910390a3611f1784611ce1565b1561126257611f27848484612436565b1515611262576040805160e560020a62461bcd02815260206004820152601860248201527f436f6e74726163742066616c6c6261636b206661696c65640000000000000000604482015290519081900360640190fd5b600082820183811015611cda57600080fd5b600160a060020a0382161515611fa457600080fd5b600254611fb7908263ffffffff611f7d16565b600255600160a060020a038216600090815260208190526040902054611fe3908263ffffffff611f7d16565b600160a060020a0383166000818152602081815260408083209490945583518581529351929391927fddf252ad1be2c89b69c2b068fc378daa952ba7f163c4a11628f55a4df523b3ef9281900390910190a35050565b611332338261259d565b6000600160a060020a038216151561205a57600080fd5b50600160a060020a03166000908152602091909152604090205460ff1690565b61208b60078263ffffffff61264616565b604051600160a060020a038216907fcd265ebaf09df2871cc7bd4133404a235ba12eff2041bb89d9c714a2621c7c7e90600090a250565b6120cc8282612692565b5050565b6120e160078263ffffffff61274216565b604051600160a060020a038216907f6719d08c1888103bea251a4ed56406bd0c3e69723c8a1686e017e7bbe159b6f890600090a250565b61212960098263ffffffff61274216565b604051600160a060020a038216907f6ae172837ea30b801fbfcdd4108aa1d5bf8ff775444fd70256b44e6bf3dfc3f690600090a250565b61217160098263ffffffff61264616565b604051600160a060020a038216907fe94479a9f7e1952cc78f2d6baab678adc1b772d936c6583def489e524cb6669290600090a250565b60085460009060ff16156121bb57600080fd5b611cda8383612790565b60085460009060ff16156121d857600080fd5b611cda83836127db565b600160a060020a03811615156121f757600080fd5b600354604051600160a060020a038084169216907f8be0079c531659141344cd1fd0a4f28419497f9722a3daafe3b4186f6b6457e090600090a36003805473ffffffffffffffffffffffffffffffffffffffff1916600160a060020a0392909216919091179055565b6000600160a060020a038316151561227757600080fd5b336000818152600160209081526040808320600160a060020a0388168085529083529281902086905580518681529051929392600080516020612920833981519152929181900390910190a350600192915050565b6000828211156122db57600080fd5b50900390565b600160a060020a0383166000908152600160209081526040808320338452909152812054612315908363ffffffff6122cc16565b600160a060020a03851660009081526001602090815260408083203384529091529020556123448484846127f1565b600160a060020a038416600081815260016020908152604080832033808552908352928190205481519081529051929392600080516020612920833981519152929181900390910190a35060019392505050565b6000600160a060020a03831615156123af57600080fd5b336000908152600160209081526040808320600160a060020a03871684529091529020546123e3908363ffffffff611f7d16565b336000818152600160209081526040808320600160a060020a038916808552908352928190208590558051948552519193600080516020612920833981519152929081900390910190a350600192915050565b6040517fa4c0ed360000000000000000000000000000000000000000000000000000000081523360048201818152602483018590526060604484019081528451606485015284516000948894600160a060020a0386169463a4c0ed369491938a938a939160849091019060208501908083838e5b838110156124c25781810151838201526020016124aa565b50505050905090810190601f1680156124ef5780820380516001836020036101000a031916815260200191505b50945050505050602060405180830381600087803b15801561251057600080fd5b505af1158015612524573d6000803e3d6000fd5b505050506040513d602081101561253a57600080fd5b50511515612592576040805160e560020a62461bcd02815260206004820152601860248201527f436f6e74726163742046616c6c6261636b206661696c65640000000000000000604482015290519081900360640190fd5b506001949350505050565b600160a060020a03821615156125b257600080fd5b6002546125c5908263ffffffff6122cc16565b600255600160a060020a0382166000908152602081905260409020546125f1908263ffffffff6122cc16565b600160a060020a038316600081815260208181526040808320949094558351858152935191937fddf252ad1be2c89b69c2b068fc378daa952ba7f163c4a11628f55a4df523b3ef929081900390910190a35050565b600160a060020a038116151561265b57600080fd5b6126658282612043565b151561267057600080fd5b600160a060020a0316600090815260209190915260409020805460ff19169055565b600160a060020a03821660009081526001602090815260408083203384529091529020546126c6908263ffffffff6122cc16565b600160a060020a03831660009081526001602090815260408083203384529091529020556126f4828261259d565b600160a060020a038216600081815260016020908152604080832033808552908352928190205481519081529051929392600080516020612920833981519152929181900390910190a35050565b600160a060020a038116151561275757600080fd5b6127618282612043565b1561276b57600080fd5b600160a060020a0316600090815260209190915260409020805460ff19166001179055565b6000600160a060020a03831615156127a757600080fd5b336000908152600160209081526040808320600160a060020a03871684529091529020546123e3908363ffffffff6122cc16565b60006127e83384846127f1565b50600192915050565b600160a060020a038216151561280657600080fd5b600160a060020a03831660009081526020819052604090205461282f908263ffffffff6122cc16565b600160a060020a038085166000908152602081905260408082209390935590841681522054612864908263ffffffff611f7d16565b600160a060020a038084166000818152602081815260409182902094909455805185815290519193928716927fddf252ad1be2c89b69c2b068fc378daa952ba7f163c4a11628f55a4df523b3ef92918290030190a350505056fe43616e6e6f7420696e63726561736520737570706c79206265796f6e642063617043616c6c657220697320626c61636b6c69737465640000000000000000000000526563656976657220697320626c61636b6c69737465640000000000000000008c5be1e5ebec7d5bd14f71427d1e84f3dd0314c0f7b2291e5b200ac8c7c3b925a165627a7a723058206dc5f3979059c302cc25185ed0c5cd66a9608fc39e3074ff822a1319087884db002960806040526000805460a060020a60ff0219167412000000000000000000000000000000000000000017905534801561003757600080fd5b5060008054600160a060020a0319163317808255604051600160a060020a039190911691907f8be0079c531659141344cd1fd0a4f28419497f9722a3daafe3b4186f6b6457e0908290a36108d7806100906000396000f3fe608060405234801561001057600080fd5b50600436106100c6576000357c010000000000000000000000000000000000000000000000000000000090048063715018a61161008e578063715018a6146101955780638da5cb5b1461019f5780638f32d59b146101c3578063981b24d0146101cb5780639dc29fac146101e8578063f2fde38b14610214576100c6565b806318160ddd146100cb578063313ce567146100e557806340c10f19146101035780634ee2cd7e1461014357806370a082311461016f575b600080fd5b6100d361023a565b60408051918252519081900360200190f35b6100ed61024b565b6040805160ff9092168252519081900360200190f35b61012f6004803603604081101561011957600080fd5b50600160a060020a03813516906020013561026c565b604080519115158252519081900360200190f35b6100d36004803603604081101561015957600080fd5b50600160a060020a038135169060200135610335565b6100d36004803603602081101561018557600080fd5b5035600160a060020a03166103c7565b61019d6103db565b005b6101a7610445565b60408051600160a060020a039092168252519081900360200190f35b61012f610454565b6100d3600480360360208110156101e157600080fd5b5035610465565b61012f600480360360408110156101fe57600080fd5b50600160a060020a0381351690602001356104b9565b61019d6004803603602081101561022a57600080fd5b5035600160a060020a0316610570565b600061024543610465565b90505b90565b60005474010000000000000000000000000000000000000000900460ff1681565b6000610276610454565b151561028157600080fd5b600061028b61023a565b905082810181111561029c57600080fd5b60006102a7856103c7565b90508381018111156102b857600080fd5b6102c5600285840161058f565b600160a060020a03851660009081526001602052604090206102e99082860161058f565b604080518581529051600160a060020a038716917f0f6798a560793a54c3bcfe86a93cde1e73087d944c0ea20544137d4121396885919081900360200190a26001925050505b92915050565b600160a060020a03821660009081526001602052604081205415806103915750600160a060020a03831660009081526001602052604081208054849290811061037a57fe5b6000918252602090912001546001608060020a0316115b1561039e5750600061032f565b600160a060020a03831660009081526001602052604090206103c09083610697565b905061032f565b60006103d38243610335565b90505b919050565b6103e3610454565b15156103ee57600080fd5b60008054604051600160a060020a03909116907f8be0079c531659141344cd1fd0a4f28419497f9722a3daafe3b4186f6b6457e0908390a36000805473ffffffffffffffffffffffffffffffffffffffff19169055565b600054600160a060020a031690565b600054600160a060020a0316331490565b600254600090158061049a5750816002600081548110151561048357fe5b6000918252602090912001546001608060020a0316115b156104a7575060006103d6565b6104b2600283610697565b90506103d6565b60006104c3610454565b15156104ce57600080fd5b60006104d861023a565b90508260006104e6866103c7565b9050818110156104f4578091505b610501600283850361058f565b600160a060020a03861660009081526001602052604090206105259083830361058f565b604080518381529051600160a060020a038816917fcc16f5dbb4873280815c1ee09dbd06736cffcc184412cf7a71a0fdb75d397ca5919081900360200190a250600195945050505050565b610578610454565b151561058357600080fd5b61058c816107e7565b50565b6001608060020a03811681146105a457600080fd5b815415806105d8575081544390839060001981019081106105c157fe5b6000918252602090912001546001608060020a0316105b1561064c57815460009083906105f18260018301610864565b815481106105fb57fe5b600091825260209091200180546001608060020a03848116700100000000000000000000000000000000024382166fffffffffffffffffffffffffffffffff19909316929092171617905550610693565b81546000908390600019810190811061066157fe5b600091825260209091200180546001608060020a03808516700100000000000000000000000000000000029116179055505b5050565b815460009015156106aa5750600061032f565b8254839060001981019081106106bc57fe5b6000918252602090912001546001608060020a03168210610719578254839060001981019081106106e957fe5b60009182526020909120015470010000000000000000000000000000000090046001608060020a0316905061032f565b82600081548110151561072857fe5b6000918252602090912001546001608060020a031682101561074c5750600061032f565b8254600090600019015b818111156107a757845460028383016001010490859087908390811061077857fe5b6000918252602090912001546001608060020a03161161079a578092506107a1565b6001810391505b50610756565b84828154811015156107b557fe5b60009182526020909120015470010000000000000000000000000000000090046001608060020a031695945050505050565b600160a060020a03811615156107fc57600080fd5b60008054604051600160a060020a03808516939216917f8be0079c531659141344cd1fd0a4f28419497f9722a3daafe3b4186f6b6457e091a36000805473ffffffffffffffffffffffffffffffffffffffff1916600160a060020a0392909216919091179055565b8154818355818111156108885760008381526020902061088891810190830161088d565b505050565b61024891905b808211156108a75760008155600101610893565b509056fea165627a7a723058203bca0af92dfcfede9bd26af6f6a767b02b188e0c1c60a9df19141bf497b87ecc0029a165627a7a72305820660a40bfd4196eb4fdfdc6d9cafbb1bc0a5ac000452960c49865d11c14fa850e0029",
  "source": "pragma solidity 0.5.4;\n\nimport \"@daostack/arc/contracts/controller/Controller.sol\";\nimport \"@daostack/arc/contracts/universalSchemes/SchemeRegistrar.sol\";\nimport \"@daostack/arc/contracts/universalSchemes/UpgradeScheme.sol\";\n\nimport \"@daostack/infra/contracts/votingMachines/AbsoluteVote.sol\";\nimport \"@daostack/infra/contracts/Reputation.sol\";\n\nimport \"../token/GoodDollar.sol\";\nimport \"../identity/IdentityGuard.sol\";\nimport \"../dao/schemes/FeeFormula.sol\";\n\n\n/**\n * @title ControllerCreator for creating a single controller. Taken from @daostack.\n */\ncontract ControllerCreatorGoodDollar {\n    function create(Avatar _avatar, address _sender) public returns (address) {\n        Controller controller = new Controller(_avatar);\n        controller.registerScheme(\n            _sender,\n            bytes32(0),\n            bytes4(0x0000001f),\n            address(_avatar)\n        );\n        controller.unregisterScheme(address(this), address(_avatar));\n        return address(controller);\n    }\n}\n\n\n/**\n * @title Contract for adding founders to the DAO. Separated from DaoCreator to reduce\n * contract sizes\n */\ncontract AddFoundersGoodDollar {\n    ControllerCreatorGoodDollar private controllerCreatorGoodDollar;\n\n    constructor(ControllerCreatorGoodDollar _controllerCreatorGoodDollar)\n        public\n    {\n        controllerCreatorGoodDollar = _controllerCreatorGoodDollar;\n    }\n\n    /**\n     * @param _founders An array with the addresses of the founders of the organization\n     * @param _avatarTokenAmount Amount of tokens that the avatar receive on new organization\n     * @param _foundersReputationAmount An array of amount of reputation that the\n     *   founders receive in the new organization\n     */\n    function addFounders(\n        GoodDollar nativeToken,\n        Reputation nativeReputation,\n        address _sender,\n        address[] memory _founders,\n        uint256 _avatarTokenAmount,\n        uint256[] memory _foundersReputationAmount\n    ) public returns (Avatar) {\n        Avatar avatar = new Avatar(\"GoodDollar\", nativeToken, nativeReputation);\n\n        //mint token to avatar\n        nativeToken.mint(address(avatar), _avatarTokenAmount);\n\n        // Mint reputation for founders:\n        for (uint256 i = 0; i < _founders.length; i++) {\n            require(\n                _founders[i] != address(0),\n                \"Founder cannot be zero address\"\n            );\n            if (_foundersReputationAmount[i] > 0) {\n                nativeReputation.mint(\n                    _founders[i],\n                    _foundersReputationAmount[i]\n                );\n            }\n        }\n        // Create Controller:\n        ControllerInterface controller = ControllerInterface(\n            controllerCreatorGoodDollar.create(avatar, msg.sender)\n        );\n\n        // Set fee recipient and Transfer ownership:\n        nativeToken.setFeeRecipient(address(avatar));\n\n        avatar.transferOwnership(address(controller));\n        nativeToken.transferOwnership(address(avatar));\n        nativeReputation.transferOwnership(address(controller));\n\n        // Add minters\n        nativeToken.addMinter(_sender);\n        nativeToken.addMinter(address(avatar));\n        nativeToken.addMinter(address(controller));\n        nativeToken.renounceMinter();\n        return (avatar);\n    }\n}\n\n\n/**\n * @title Genesis Scheme that creates organizations. Taken and modified from @daostack.\n */\ncontract DaoCreatorGoodDollar {\n    Avatar public avatar;\n    address public lock;\n\n    event NewOrg(address _avatar);\n    event InitialSchemesSet(address _avatar);\n\n    AddFoundersGoodDollar private addFoundersGoodDollar;\n\n    constructor(AddFoundersGoodDollar _addFoundersGoodDollar) public {\n        addFoundersGoodDollar = _addFoundersGoodDollar;\n    }\n\n    /**\n     * @dev Create a new organization\n     * @param _tokenName The name of the token associated with the organization\n     * @param _tokenSymbol The symbol of the token\n     * @param _founders An array with the addresses of the founders of the organization\n     * @param _avatarTokenAmount Amount of tokens that the avatar receive in the new organization\n     * @param _foundersReputationAmount An array of amount of reputation that the\n     *   founders receive in the new organization\n     * @param  _cap token cap - 0 for no cap.\n     * @return The address of the avatar of the controller\n     */\n    function forgeOrg(\n        string calldata _tokenName,\n        string calldata _tokenSymbol,\n        uint256 _cap,\n        FeeFormula _formula,\n        Identity _identity,\n        address[] calldata _founders,\n        uint256 _avatarTokenAmount,\n        uint256[] calldata _foundersReputationAmount\n    ) external returns (address) {\n        //The call for the private function is needed to bypass a deep stack issues\n        return\n            _forgeOrg(\n                _tokenName,\n                _tokenSymbol,\n                _cap,\n                _formula,\n                _identity,\n                _founders,\n                _avatarTokenAmount,\n                _foundersReputationAmount\n            );\n    }\n\n    /**\n     * @dev Set initial schemes for the organization.\n     * @param _avatar organization avatar (returns from forgeOrg)\n     * @param _schemes the schemes to register for the organization\n     * @param _params the schemes parameters\n     * @param _permissions the schemes permissions.\n     * @param _metaData dao meta data hash\n     */\n    function setSchemes(\n        Avatar _avatar,\n        address[] calldata _schemes,\n        bytes32[] calldata _params,\n        bytes4[] calldata _permissions,\n        string calldata _metaData\n    ) external {\n        // this action can only be executed by the account that holds the lock\n        // for this controller\n        require(lock == msg.sender, \"Message sender is not lock\");\n        // register initial schemes:\n        ControllerInterface controller = ControllerInterface(_avatar.owner());\n        for (uint256 i = 0; i < _schemes.length; i++) {\n            controller.registerScheme(\n                _schemes[i],\n                _params[i],\n                _permissions[i],\n                address(_avatar)\n            );\n        }\n        controller.metaData(_metaData, _avatar);\n        // Unregister self:\n        controller.unregisterScheme(address(this), address(_avatar));\n        // Remove lock:\n        lock = address(0);\n        emit InitialSchemesSet(address(_avatar));\n    }\n\n    /**\n     * @dev Create a new organization\n     * @param _tokenName The name of the token associated with the organization\n     * @param _tokenSymbol The symbol of the token\n     * @param _founders An array with the addresses of the founders of the organization\n     * @param _avatarTokenAmount Amount of tokens that the avatar receive on startup\n     * @param _foundersReputationAmount An array of amount of reputation that the\n     *   founders receive in the new organization\n     * @param  _cap token cap - 0 for no cap.\n     * @return The address of the avatar of the controller\n     */\n    function _forgeOrg(\n        string memory _tokenName,\n        string memory _tokenSymbol,\n        uint256 _cap,\n        FeeFormula _formula,\n        Identity _identity,\n        address[] memory _founders,\n        uint256 _avatarTokenAmount,\n        uint256[] memory _foundersReputationAmount\n    ) private returns (address) {\n        // Create Token, Reputation and Avatar:\n        require(lock == address(0), \"Lock already exists\");\n        require(\n            _founders.length == _foundersReputationAmount.length,\n            \"Founder reputation missing\"\n        );\n        require(_founders.length > 0, \"Must have at least one founder\");\n        GoodDollar nativeToken = new GoodDollar(\n            _tokenName,\n            _tokenSymbol,\n            _cap,\n            _formula,\n            _identity,\n            address(0)\n        );\n        Reputation nativeReputation = new Reputation();\n\n        // renounce minter\n        nativeToken.addMinter(address(addFoundersGoodDollar));\n        nativeToken.renounceMinter();\n\n        nativeToken.transferOwnership(address(addFoundersGoodDollar));\n        nativeReputation.transferOwnership(address(addFoundersGoodDollar));\n\n        avatar = addFoundersGoodDollar.addFounders(\n            nativeToken,\n            nativeReputation,\n            msg.sender,\n            _founders,\n            _avatarTokenAmount,\n            _foundersReputationAmount\n        );\n\n        nativeToken.addPauser(address(avatar));\n\n        lock = msg.sender;\n\n        emit NewOrg(address(avatar));\n        return (address(avatar));\n    }\n}\n",
  "sourcePath": "/Users/hadar/workspace/GoodDollar/GoodBootstrap/packages/contracts/contracts/dao/DaoCreator.sol",
  "compiler": {
    "name": "solc",
    "version": "0.5.4+commit.9549d8ff.Emscripten.clang"
  },
  "schemaVersion": "3.0.16",
  "updatedAt": "2020-04-13T09:07:15.371Z",
  "devdoc": {
    "methods": {
      "forgeOrg(string,string,uint256,address,address,address[],uint256,uint256[])": {
        "details": "Create a new organization",
        "params": {
          "_avatarTokenAmount": "Amount of tokens that the avatar receive in the new organization",
          "_cap": "token cap - 0 for no cap.",
          "_founders": "An array with the addresses of the founders of the organization",
          "_foundersReputationAmount": "An array of amount of reputation that the  founders receive in the new organization",
          "_tokenName": "The name of the token associated with the organization",
          "_tokenSymbol": "The symbol of the token"
        },
        "return": "The address of the avatar of the controller"
      },
      "setSchemes(address,address[],bytes32[],bytes4[],string)": {
        "details": "Set initial schemes for the organization.",
        "params": {
          "_avatar": "organization avatar (returns from forgeOrg)",
          "_metaData": "dao meta data hash",
          "_params": "the schemes parameters",
          "_permissions": "the schemes permissions.",
          "_schemes": "the schemes to register for the organization"
        }
      }
    },
    "title": "Genesis Scheme that creates organizations. Taken and modified from @daostack."
  },
  "userdoc": {
    "methods": {}
  }
}