{
  "contractName": "DeployForeignBridge",
  "abi": [
    {
      "inputs": [
        {
          "internalType": "contract Avatar",
          "name": "_avatar",
          "type": "address"
        },
        {
          "internalType": "address",
          "name": "_factory",
          "type": "address"
        }
      ],
      "payable": false,
      "stateMutability": "nonpayable",
      "type": "constructor"
    },
    {
      "anonymous": false,
      "inputs": [
        {
          "indexed": true,
          "internalType": "address",
          "name": "_foreignBridge",
          "type": "address"
        },
        {
          "indexed": true,
          "internalType": "address",
          "name": "_foreignValidators",
          "type": "address"
        },
        {
          "indexed": false,
          "internalType": "address",
          "name": "_foreignToken",
          "type": "address"
        },
        {
          "indexed": false,
          "internalType": "uint256",
          "name": "_blockNumber",
          "type": "uint256"
        }
      ],
      "name": "ForeignBridgeDeployed",
      "type": "event"
    },
    {
      "constant": true,
      "inputs": [],
      "name": "factory",
      "outputs": [
        {
          "internalType": "address",
          "name": "",
          "type": "address"
        }
      ],
      "payable": false,
      "stateMutability": "view",
      "type": "function"
    },
    {
      "constant": false,
      "inputs": [],
      "name": "setBridge",
      "outputs": [],
      "payable": false,
      "stateMutability": "nonpayable",
      "type": "function"
    }
  ],
  "bytecode": "0x608060405234801561001057600080fd5b5060405161050e38038061050e8339818101604052604081101561003357600080fd5b5080516020909101516001600160a01b038116610097576040805162461bcd60e51b815260206004820152601860248201527f466163746f7279206d757374206e6f74206265206e756c6c0000000000000000604482015290519081900360640190fd5b600080546001600160a01b038084166001600160a01b031992831617909255600180548584169216919091179081905560408051638da5cb5b60e01b815290519190921691638da5cb5b916004808301926020929190829003018186803b15801561010157600080fd5b505afa158015610115573d6000803e3d6000fd5b505050506040513d602081101561012b57600080fd5b5051600280546001600160a01b0319166001600160a01b03909216919091179055506103b090508061015e6000396000f3fe608060405234801561001057600080fd5b50600436106100365760003560e01c8063b886b2b01461003b578063c45a015514610045575b600080fd5b610043610069565b005b61004d610332565b604080516001600160a01b039092168252519081900360200190f35b6002546000805460015460408051631c2eb17b60e31b8152905193946001600160a01b039081169463d1b7089a948216939091169163e1758bd8916004808301926020929190829003018186803b1580156100c357600080fd5b505afa1580156100d7573d6000803e3d6000fd5b505050506040513d60208110156100ed57600080fd5b5051604080516001600160a01b03928316602480830191909152825180830382018152604492830184526020810180516001600160e01b0316631b606b2360e31b178152600154945160e089901b6001600160e01b03191681528787166004820190815295909616938601849052600060648701819052608093870193845282516084880152825192969495909490939260a49091019190808383885b838110156101a257818101518382015260200161018a565b50505050905090810190601f1680156101cf5780820380516001836020036101000a031916815260200191505b5095505050505050600060405180830381600087803b1580156101f157600080fd5b505af1158015610205573d6000803e3d6000fd5b505050506040513d6000823e601f3d908101601f19168201604090815281101561022e57600080fd5b81516020830180516040519294929383019291908464010000000082111561025557600080fd5b90830190602082018581111561026a57600080fd5b825164010000000081118282018810171561028457600080fd5b82525081516020918201929091019080838360005b838110156102b1578181015183820152602001610299565b50505050905090810190601f1680156102de5780820380516001836020036101000a031916815260200191505b50604052505050509050806103245760405162461bcd60e51b815260040180806020018281038252603a815260200180610342603a913960400191505060405180910390fd5b6001546001600160a01b0316ff5b6000546001600160a01b03168156fe43616c6c696e67206465706c6f79466f726569676e42726964676520696e20466f726569676e427269646765466163746f7279206661696c6564a265627a7a7231582063a51883306ba99cb3b226c55af4364efc1623d2336776ee797753181377f21b64736f6c63430005100032",
  "source": "pragma solidity >0.5.4;\n\nimport \"@daostack/arc/contracts/controller/Avatar.sol\";\nimport \"@daostack/arc/contracts/controller/ControllerInterface.sol\";\nimport \"./SchemeGuard.sol\";\n\n/* @title Scheme for deploying a token bridge on a foreign network using the fuseio bridge factory.\n * For more information see https://fuse.io/\n */\ncontract DeployForeignBridge {\n    /* Taken from fuse foreign bridge factory contract.\n     * Must be changed if changed on factory contract\n     */\n    event ForeignBridgeDeployed(\n        address indexed _foreignBridge,\n        address indexed _foreignValidators,\n        address _foreignToken,\n        uint256 _blockNumber\n    );\n\n    address public factory;\n    Avatar avatar;\n    ControllerInterface controller;\n\n    /* @dev constructor. Sets the factory address. Reverts if given address is null\n     * @param _factory The address of the bridge factory\n     */\n    constructor(Avatar _avatar, address _factory) public {\n        require(_factory != address(0), \"Factory must not be null\");\n        factory = _factory;\n        avatar = _avatar;\n        controller = ControllerInterface(avatar.owner());\n    }\n\n    /* @dev Deploys the foreign bridge on current network and then self-destructs, transferring any\n     * ether on the contract to the avatar. Reverts if scheme is not registered\n     */\n    function setBridge() public {\n        (bool ok, ) = controller.genericCall(\n            factory,\n            abi.encodeWithSignature(\n                \"deployForeignBridge(address)\",\n                address(avatar.nativeToken())\n            ),\n            avatar,\n            0\n        );\n        require(ok, \"Calling deployForeignBridge in ForeignBridgeFactory failed\");\n        selfdestruct(address(avatar));\n    }\n}\n",
  "sourcePath": "/Users/hadar/workspace/GoodDollar/GoodBootstrap/packages/contracts/contracts/dao/schemes/DeployForeignBridge.sol",
  "compiler": {
    "name": "solc",
    "version": "0.5.16+commit.9c3226ce.Emscripten.clang"
  },
  "schemaVersion": "3.2.3",
  "updatedAt": "2021-01-27T19:48:05.694Z",
  "networkType": "ethereum",
  "devdoc": {
    "methods": {}
  },
  "userdoc": {
    "methods": {}
  }
}