{
  "contractName": "DeployHomeBridge",
  "abi": [
    {
      "inputs": [
        {
          "internalType": "contract Avatar",
          "name": "_avatar",
          "type": "address"
        },
        {
          "internalType": "address",
          "name": "_factory",
          "type": "address"
        }
      ],
      "payable": false,
      "stateMutability": "nonpayable",
      "type": "constructor"
    },
    {
      "anonymous": false,
      "inputs": [
        {
          "indexed": true,
          "internalType": "address",
          "name": "_homeBridge",
          "type": "address"
        },
        {
          "indexed": true,
          "internalType": "address",
          "name": "_homeValidators",
          "type": "address"
        },
        {
          "indexed": true,
          "internalType": "address",
          "name": "_token",
          "type": "address"
        },
        {
          "indexed": false,
          "internalType": "uint256",
          "name": "_blockNumber",
          "type": "uint256"
        }
      ],
      "name": "HomeBridgeDeployed",
      "type": "event"
    },
    {
      "anonymous": false,
      "inputs": [
        {
          "indexed": true,
          "internalType": "address",
          "name": "previousOwner",
          "type": "address"
        },
        {
          "indexed": true,
          "internalType": "address",
          "name": "newOwner",
          "type": "address"
        }
      ],
      "name": "OwnershipTransferred",
      "type": "event"
    },
    {
      "constant": true,
      "inputs": [],
      "name": "factory",
      "outputs": [
        {
          "internalType": "address",
          "name": "",
          "type": "address"
        }
      ],
      "payable": false,
      "stateMutability": "view",
      "type": "function"
    },
    {
      "constant": true,
      "inputs": [],
      "name": "isOwner",
      "outputs": [
        {
          "internalType": "bool",
          "name": "",
          "type": "bool"
        }
      ],
      "payable": false,
      "stateMutability": "view",
      "type": "function"
    },
    {
      "constant": true,
      "inputs": [],
      "name": "isRegistered",
      "outputs": [
        {
          "internalType": "bool",
          "name": "",
          "type": "bool"
        }
      ],
      "payable": false,
      "stateMutability": "view",
      "type": "function"
    },
    {
      "constant": true,
      "inputs": [
        {
          "internalType": "address",
          "name": "scheme",
          "type": "address"
        }
      ],
      "name": "isRegistered",
      "outputs": [
        {
          "internalType": "bool",
          "name": "",
          "type": "bool"
        }
      ],
      "payable": false,
      "stateMutability": "view",
      "type": "function"
    },
    {
      "constant": true,
      "inputs": [],
      "name": "owner",
      "outputs": [
        {
          "internalType": "address",
          "name": "",
          "type": "address"
        }
      ],
      "payable": false,
      "stateMutability": "view",
      "type": "function"
    },
    {
      "constant": false,
      "inputs": [],
      "name": "renounceOwnership",
      "outputs": [],
      "payable": false,
      "stateMutability": "nonpayable",
      "type": "function"
    },
    {
      "constant": false,
      "inputs": [
        {
          "internalType": "contract Avatar",
          "name": "_avatar",
          "type": "address"
        }
      ],
      "name": "setAvatar",
      "outputs": [],
      "payable": false,
      "stateMutability": "nonpayable",
      "type": "function"
    },
    {
      "constant": false,
      "inputs": [
        {
          "internalType": "address",
          "name": "newOwner",
          "type": "address"
        }
      ],
      "name": "transferOwnership",
      "outputs": [],
      "payable": false,
      "stateMutability": "nonpayable",
      "type": "function"
    },
    {
      "constant": false,
      "inputs": [
        {
          "internalType": "bool",
          "name": "addMinter",
          "type": "bool"
        }
      ],
      "name": "setBridge",
      "outputs": [],
      "payable": false,
      "stateMutability": "nonpayable",
      "type": "function"
    }
  ],
  "bytecode": "0x6080604052600280546001600160a01b031916905534801561002057600080fd5b50604051610cb2380380610cb28339818101604052604081101561004357600080fd5b508051602090910151600080546001600160a01b031916331780825560405184926001600160a01b039290921691907f8be0079c531659141344cd1fd0a4f28419497f9722a3daafe3b4186f6b6457e0908290a3600180546001600160a01b0319166001600160a01b038381169190911791829055161561015857600160009054906101000a90046001600160a01b03166001600160a01b0316638da5cb5b6040518163ffffffff1660e01b815260040160206040518083038186803b15801561010c57600080fd5b505afa158015610120573d6000803e3d6000fd5b505050506040513d602081101561013657600080fd5b5051600280546001600160a01b0319166001600160a01b039092169190911790555b506001600160a01b0381166101b4576040805162461bcd60e51b815260206004820152601860248201527f466163746f7279206d757374206e6f74206265206e756c6c0000000000000000604482015290519081900360640190fd5b600380546001600160a01b0319166001600160a01b039290921691909117905550610ace806101e46000396000f3fe608060405234801561001057600080fd5b50600436106100935760003560e01c80638f32d59b116100665780638f32d59b146101085780639974df2214610110578063c3c5a5471461012f578063c45a015514610155578063f2fde38b1461015d57610093565b8063086cfca81461009857806322366844146100c0578063715018a6146100dc5780638da5cb5b146100e4575b600080fd5b6100be600480360360208110156100ae57600080fd5b50356001600160a01b0316610183565b005b6100c861023e565b604080519115158252519081900360200190f35b6100be61024e565b6100ec6102a9565b604080516001600160a01b039092168252519081900360200190f35b6100c86102b8565b6100be6004803603602081101561012657600080fd5b503515156102c9565b6100c86004803603602081101561014557600080fd5b50356001600160a01b03166108ac565b6100ec610999565b6100be6004803603602081101561017357600080fd5b50356001600160a01b03166109a8565b61018b6102b8565b61019457600080fd5b600180546001600160a01b0319166001600160a01b03838116919091179182905560408051638da5cb5b60e01b815290519290911691638da5cb5b91600480820192602092909190829003018186803b1580156101f057600080fd5b505afa158015610204573d6000803e3d6000fd5b505050506040513d602081101561021a57600080fd5b5051600280546001600160a01b0319166001600160a01b0390921691909117905550565b6000610249306108ac565b905090565b6102566102b8565b61025f57600080fd5b600080546040516001600160a01b03909116907f8be0079c531659141344cd1fd0a4f28419497f9722a3daafe3b4186f6b6457e0908390a3600080546001600160a01b0319169055565b6000546001600160a01b031690565b6000546001600160a01b0316331490565b6102d161023e565b610322576040805162461bcd60e51b815260206004820152601860248201527f536368656d65206973206e6f7420726567697374657265640000000000000000604482015290519081900360640190fd5b80156105e25760025460015460408051631c2eb17b60e31b815290516000936001600160a01b039081169363d1b7089a9391169163e1758bd891600480820192602092909190829003018186803b15801561037c57600080fd5b505afa158015610390573d6000803e3d6000fd5b505050506040513d60208110156103a657600080fd5b5051600354604080516001600160a01b03928316602480830191909152825180830382018152604492830184526020810180516001600160e01b0316634c1d96ab60e11b178152600154945160e089901b6001600160e01b03191681528688166004820190815295909616938601849052600060648701819052608093870193845282516084880152825192969495909490939260a49091019190808383885b8381101561045e578181015183820152602001610446565b50505050905090810190601f16801561048b5780820380516001836020036101000a031916815260200191505b5095505050505050600060405180830381600087803b1580156104ad57600080fd5b505af11580156104c1573d6000803e3d6000fd5b505050506040513d6000823e601f3d908101601f1916820160409081528110156104ea57600080fd5b81516020830180516040519294929383019291908464010000000082111561051157600080fd5b90830190602082018581111561052657600080fd5b825164010000000081118282018810171561054057600080fd5b82525081516020918201929091019080838360005b8381101561056d578181015183820152602001610555565b50505050905090810190601f16801561059a5780820380516001836020036101000a031916815260200191505b50604052505050509050806105e05760405162461bcd60e51b8152600401808060200182810382526029815260200180610a716029913960400191505060405180910390fd5b505b60025460035460015460408051631c2eb17b60e31b815290516000946001600160a01b039081169463d1b7089a949082169391169163e1758bd891600480820192602092909190829003018186803b15801561063d57600080fd5b505afa158015610651573d6000803e3d6000fd5b505050506040513d602081101561066757600080fd5b5051604080516001600160a01b03928316602480830191909152825180830382018152604492830184526020810180516001600160e01b0316635754143960e01b178152600154945160e089901b6001600160e01b03191681528787166004820190815295909616938601849052600060648701819052608093870193845282516084880152825192969495909490939260a49091019190808383885b8381101561071c578181015183820152602001610704565b50505050905090810190601f1680156107495780820380516001836020036101000a031916815260200191505b5095505050505050600060405180830381600087803b15801561076b57600080fd5b505af115801561077f573d6000803e3d6000fd5b505050506040513d6000823e601f3d908101601f1916820160409081528110156107a857600080fd5b8151602083018051604051929492938301929190846401000000008211156107cf57600080fd5b9083019060208201858111156107e457600080fd5b82516401000000008111828201881017156107fe57600080fd5b82525081516020918201929091019080838360005b8381101561082b578181015183820152602001610813565b50505050905090810190601f1680156108585780820380516001836020036101000a031916815260200191505b506040525050505090508061089e5760405162461bcd60e51b815260040180806020018281038252603d815260200180610a34603d913960400191505060405180910390fd5b6001546001600160a01b0316ff5b6001546000906001600160a01b0316610900576040805162461bcd60e51b8152602060048201526011602482015270105d985d185c881a5cc81b9bdd081cd95d607a1b604482015290519081900360640190fd5b60025460015460408051639be2faed60e01b81526001600160a01b038681166004830152928316602482015290519190921691639be2faed916044808301926020929190829003018186803b15801561095857600080fd5b505afa15801561096c573d6000803e3d6000fd5b505050506040513d602081101561098257600080fd5b505161099057506000610994565b5060015b919050565b6003546001600160a01b031681565b6109b06102b8565b6109b957600080fd5b6109c2816109c5565b50565b6001600160a01b0381166109d857600080fd5b600080546040516001600160a01b03808516939216917f8be0079c531659141344cd1fd0a4f28419497f9722a3daafe3b4186f6b6457e091a3600080546001600160a01b0319166001600160a01b039290921691909117905556fe43616c6c696e67206465706c6f79486f6d6542726964676557697468546f6b656e20696e20486f6d65427269646765466163746f7279206661696c6564416464696e6720486f6d65427269646765466163746f7279206173206d696e746572206661696c6564a265627a7a72315820bef55bc124cbb2ade3cd9226dec929276967b5b57b63da9dff3c3e7c8d06ba2964736f6c63430005100032",
  "source": "pragma solidity >0.5.4;\n\nimport \"@daostack/arc/contracts/controller/Avatar.sol\";\nimport \"./SchemeGuard.sol\";\n\n/* @title Scheme for deploying a token bridge on the fuse network using the\n * fuseio bridge factory. For more information see https://fuse.io/\n */\ncontract DeployHomeBridge is SchemeGuard {\n    /* Taken from fuse home bridge factory contract.\n     * Must be changed if changed on factory contract\n     */\n    event HomeBridgeDeployed(\n        address indexed _homeBridge,\n        address indexed _homeValidators,\n        address indexed _token,\n        uint256 _blockNumber\n    );\n\n    address public factory;\n\n    /* @dev constructor. Sets the factory address. Reverts if given address is null\n     * @param _factory The address of the bridge factory\n     */\n    constructor(Avatar _avatar, address _factory) public SchemeGuard(_avatar) {\n        require(_factory != address(0), \"Factory must not be null\");\n        factory = _factory;\n    }\n\n    /* @dev Adds the factory address to minters, deploys the home bridge on\n     * current network, and then self-destructs, transferring any ether on the\n     * contract to the avatar. Reverts if scheme is not registered\n     */\n    function setBridge(bool addMinter) public onlyRegistered {\n        if (addMinter) {\n            (bool ok, ) = controller.genericCall(\n                address(avatar.nativeToken()),\n                abi.encodeWithSignature(\"addMinter(address)\", factory),\n                avatar,\n                0\n            );\n\n            require(ok, \"Adding HomeBridgeFactory as minter failed\");\n        }\n\n        (bool deployOk, ) = controller.genericCall(\n            factory,\n            abi.encodeWithSignature(\n                \"deployHomeBridgeWithToken(address)\",\n                address(avatar.nativeToken())\n            ),\n            avatar,\n            0\n        );\n\n        require(\n            deployOk,\n            \"Calling deployHomeBridgeWithToken in HomeBridgeFactory failed\"\n        );\n\n        selfdestruct(address(avatar));\n    }\n}\n",
  "sourcePath": "/Users/hadar/workspace/GoodDollar/GoodBootstrap/packages/contracts/contracts/dao/schemes/DeployHomeBridge.sol",
  "compiler": {
    "name": "solc",
    "version": "0.5.16+commit.9c3226ce.Emscripten.clang"
  },
  "schemaVersion": "3.2.3",
  "updatedAt": "2022-10-27T11:34:11.115Z",
  "devdoc": {
    "methods": {
      "isOwner()": {
        "return": "true if `msg.sender` is the owner of the contract."
      },
      "isRegistered()": {
        "details": "function to see if an avatar has been set and if this scheme is registered",
        "return": "true if scheme is registered"
      },
      "isRegistered(address)": {
        "details": "function to see if an avatar has been set and if this scheme is registered",
        "return": "true if scheme is registered"
      },
      "owner()": {
        "return": "the address of the owner."
      },
      "renounceOwnership()": {
        "details": "Allows the current owner to relinquish control of the contract."
      },
      "setAvatar(address)": {
        "details": "Function to set a new avatar and controller for scheme can only be done by owner of scheme"
      },
      "transferOwnership(address)": {
        "details": "Allows the current owner to transfer control of the contract to a newOwner.",
        "params": {
          "newOwner": "The address to transfer ownership to."
        }
      }
    }
  },
  "userdoc": {
    "methods": {
      "renounceOwnership()": {
        "notice": "Renouncing to ownership will leave the contract without an owner. It will not be possible to call the functions with the `onlyOwner` modifier anymore."
      }
    }
  }
}