{
  "contractName": "ERC223Token",
  "abi": [
    {
      "constant": false,
      "inputs": [
        {
          "name": "spender",
          "type": "address"
        },
        {
          "name": "value",
          "type": "uint256"
        }
      ],
      "name": "approve",
      "outputs": [
        {
          "name": "",
          "type": "bool"
        }
      ],
      "payable": false,
      "stateMutability": "nonpayable",
      "type": "function"
    },
    {
      "constant": true,
      "inputs": [],
      "name": "totalSupply",
      "outputs": [
        {
          "name": "",
          "type": "uint256"
        }
      ],
      "payable": false,
      "stateMutability": "view",
      "type": "function"
    },
    {
      "constant": false,
      "inputs": [
        {
          "name": "spender",
          "type": "address"
        },
        {
          "name": "addedValue",
          "type": "uint256"
        }
      ],
      "name": "increaseAllowance",
      "outputs": [
        {
          "name": "",
          "type": "bool"
        }
      ],
      "payable": false,
      "stateMutability": "nonpayable",
      "type": "function"
    },
    {
      "constant": true,
      "inputs": [
        {
          "name": "owner",
          "type": "address"
        }
      ],
      "name": "balanceOf",
      "outputs": [
        {
          "name": "",
          "type": "uint256"
        }
      ],
      "payable": false,
      "stateMutability": "view",
      "type": "function"
    },
    {
      "constant": false,
      "inputs": [
        {
          "name": "spender",
          "type": "address"
        },
        {
          "name": "subtractedValue",
          "type": "uint256"
        }
      ],
      "name": "decreaseAllowance",
      "outputs": [
        {
          "name": "",
          "type": "bool"
        }
      ],
      "payable": false,
      "stateMutability": "nonpayable",
      "type": "function"
    },
    {
      "constant": true,
      "inputs": [
        {
          "name": "owner",
          "type": "address"
        },
        {
          "name": "spender",
          "type": "address"
        }
      ],
      "name": "allowance",
      "outputs": [
        {
          "name": "",
          "type": "uint256"
        }
      ],
      "payable": false,
      "stateMutability": "view",
      "type": "function"
    },
    {
      "anonymous": false,
      "inputs": [
        {
          "indexed": true,
          "name": "from",
          "type": "address"
        },
        {
          "indexed": true,
          "name": "to",
          "type": "address"
        },
        {
          "indexed": false,
          "name": "value",
          "type": "uint256"
        }
      ],
      "name": "Transfer",
      "type": "event"
    },
    {
      "anonymous": false,
      "inputs": [
        {
          "indexed": true,
          "name": "owner",
          "type": "address"
        },
        {
          "indexed": true,
          "name": "spender",
          "type": "address"
        },
        {
          "indexed": false,
          "name": "value",
          "type": "uint256"
        }
      ],
      "name": "Approval",
      "type": "event"
    },
    {
      "constant": false,
      "inputs": [
        {
          "name": "_to",
          "type": "address"
        },
        {
          "name": "_value",
          "type": "uint256"
        }
      ],
      "name": "transfer",
      "outputs": [
        {
          "name": "success",
          "type": "bool"
        }
      ],
      "payable": false,
      "stateMutability": "nonpayable",
      "type": "function"
    },
    {
      "constant": false,
      "inputs": [
        {
          "name": "_to",
          "type": "address"
        },
        {
          "name": "_value",
          "type": "uint256"
        },
        {
          "name": "_data",
          "type": "bytes"
        }
      ],
      "name": "transfer",
      "outputs": [
        {
          "name": "success",
          "type": "bool"
        }
      ],
      "payable": false,
      "stateMutability": "nonpayable",
      "type": "function"
    },
    {
      "constant": false,
      "inputs": [
        {
          "name": "_from",
          "type": "address"
        },
        {
          "name": "_to",
          "type": "address"
        },
        {
          "name": "_value",
          "type": "uint256"
        }
      ],
      "name": "transferFrom",
      "outputs": [
        {
          "name": "success",
          "type": "bool"
        }
      ],
      "payable": false,
      "stateMutability": "nonpayable",
      "type": "function"
    },
    {
      "constant": false,
      "inputs": [
        {
          "name": "_from",
          "type": "address"
        },
        {
          "name": "_to",
          "type": "address"
        },
        {
          "name": "_value",
          "type": "uint256"
        },
        {
          "name": "_data",
          "type": "bytes"
        }
      ],
      "name": "transferFrom",
      "outputs": [
        {
          "name": "success",
          "type": "bool"
        }
      ],
      "payable": false,
      "stateMutability": "nonpayable",
      "type": "function"
    }
  ],
  "bytecode": "0x608060405234801561001057600080fd5b50610a8c806100206000396000f3fe6080604052600436106100a35763ffffffff7c0100000000000000000000000000000000000000000000000000000000600035041663095ea7b381146100a857806318160ddd146100f557806323b872dd1461011c578063395093511461015f57806370a0823114610198578063a457c2d7146101cb578063a9059cbb14610204578063ab67aa581461023d578063be45fd6214610310578063dd62ed3e146103d8575b600080fd5b3480156100b457600080fd5b506100e1600480360360408110156100cb57600080fd5b50600160a060020a038135169060200135610413565b604080519115158252519081900360200190f35b34801561010157600080fd5b5061010a610491565b60408051918252519081900360200190f35b34801561012857600080fd5b506100e16004803603606081101561013f57600080fd5b50600160a060020a03813581169160208101359091169060400135610497565b34801561016b57600080fd5b506100e16004803603604081101561018257600080fd5b50600160a060020a0381351690602001356104c0565b3480156101a457600080fd5b5061010a600480360360208110156101bb57600080fd5b5035600160a060020a0316610570565b3480156101d757600080fd5b506100e1600480360360408110156101ee57600080fd5b50600160a060020a03813516906020013561058b565b34801561021057600080fd5b506100e16004803603604081101561022757600080fd5b50600160a060020a0381351690602001356105d6565b34801561024957600080fd5b506100e16004803603608081101561026057600080fd5b600160a060020a0382358116926020810135909116916040820135919081019060808101606082013564010000000081111561029b57600080fd5b8201836020820111156102ad57600080fd5b803590602001918460018302840111640100000000831117156102cf57600080fd5b91908080601f0160208091040260200160405190810160405280939291908181526020018383808284376000920191909152509295506105f3945050505050565b34801561031c57600080fd5b506100e16004803603606081101561033357600080fd5b600160a060020a038235169160208101359181019060608101604082013564010000000081111561036357600080fd5b82018360208201111561037557600080fd5b8035906020019184600183028401116401000000008311171561039757600080fd5b91908080601f01602080910402602001604051908101604052809392919081815260200183838082843760009201919091525092955061069a945050505050565b3480156103e457600080fd5b5061010a600480360360408110156103fb57600080fd5b50600160a060020a038135811691602001351661073e565b6000600160a060020a038316151561042a57600080fd5b336000818152600160209081526040808320600160a060020a03881680855290835292819020869055805186815290519293927f8c5be1e5ebec7d5bd14f71427d1e84f3dd0314c0f7b2291e5b200ac8c7c3b925929181900390910190a350600192915050565b60025490565b604080516000808252602082019092526104b6908590859085906105f3565b90505b9392505050565b6000600160a060020a03831615156104d757600080fd5b336000908152600160209081526040808320600160a060020a038716845290915290205461050b908363ffffffff61076916565b336000818152600160209081526040808320600160a060020a0389168085529083529281902085905580519485525191937f8c5be1e5ebec7d5bd14f71427d1e84f3dd0314c0f7b2291e5b200ac8c7c3b925929081900390910190a350600192915050565b600160a060020a031660009081526020819052604090205490565b6000600160a060020a03831615156105a257600080fd5b336000908152600160209081526040808320600160a060020a038716845290915290205461050b908363ffffffff61077b16565b604080516000808252602082019092526104b9908490849061069a565b6000610600858585610790565b151561066d57604080517f08c379a000000000000000000000000000000000000000000000000000000000815260206004820152601660248201527f756e61626c6520746f207472616e7366657246726f6d00000000000000000000604482015290519081900360640190fd5b61067684610859565b1561068e5761068785858585610861565b9050610692565b5060015b949350505050565b60006106a6848461097d565b151561071357604080517f08c379a000000000000000000000000000000000000000000000000000000000815260206004820152601260248201527f756e61626c6520746f207472616e736665720000000000000000000000000000604482015290519081900360640190fd5b61071c84610859565b156107345761072d33858585610861565b90506104b9565b5060019392505050565b600160a060020a03918216600090815260016020908152604080832093909416825291909152205490565b6000828201838110156104b957600080fd5b60008282111561078a57600080fd5b50900390565b600160a060020a03831660009081526001602090815260408083203384529091528120546107c4908363ffffffff61077b16565b600160a060020a03851660009081526001602090815260408083203384529091529020556107f3848484610993565b600160a060020a0384166000818152600160209081526040808320338085529083529281902054815190815290519293927f8c5be1e5ebec7d5bd14f71427d1e84f3dd0314c0f7b2291e5b200ac8c7c3b925929181900390910190a35060019392505050565b6000903b1190565b6040517f4c1230190000000000000000000000000000000000000000000000000000000081523360048201818152600160a060020a03878116602485015260448401869052608060648501908152855160848601528551600095899593861694634c12301994938c938b938b93929160a49091019060208501908083838f5b838110156108f85781810151838201526020016108e0565b50505050905090810190601f1680156109255780820380516001836020036101000a031916815260200191505b5095505050505050602060405180830381600087803b15801561094757600080fd5b505af115801561095b573d6000803e3d6000fd5b505050506040513d602081101561097157600080fd5b50519695505050505050565b600061098a338484610993565b50600192915050565b600160a060020a03821615156109a857600080fd5b600160a060020a0383166000908152602081905260409020546109d1908263ffffffff61077b16565b600160a060020a038085166000908152602081905260408082209390935590841681522054610a06908263ffffffff61076916565b600160a060020a038084166000818152602081815260409182902094909455805185815290519193928716927fddf252ad1be2c89b69c2b068fc378daa952ba7f163c4a11628f55a4df523b3ef92918290030190a350505056fea165627a7a72305820080f6c36b453c60a67f3843e7237c0c21aa486329a67d277cc8e35810faa83a50029",
  "source": "pragma solidity ^0.5.0;\r\n\r\n /* ERC223 additions to ERC20 */\r\n\r\nimport \"./ERC223.sol\";\r\nimport \"./ERC223Receiver.sol\";\r\n\r\nimport \"openzeppelin-solidity/contracts/token/ERC20/ERC20.sol\";\r\n\r\ncontract ERC223Token is ERC223 {\r\n  //function that is called when a user or another contract wants to transfer funds\r\n  function transfer(address _to, uint _value, bytes memory _data) public returns (bool success) {\r\n    //filtering if the target is a contract with bytecode inside it\r\n    require(super.transfer(_to, _value),\"unable to transfer\"); // do a normal token transfer\r\n    if (isContract(_to)) return contractFallback(msg.sender, _to, _value, _data);\r\n    return true;\r\n  }\r\n\r\n  function transferFrom(address _from, address _to, uint _value, bytes memory _data) public returns (bool success) {\r\n    require(super.transferFrom(_from, _to, _value), \"unable to transferFrom\"); // do a normal token transfer\r\n    if (isContract(_to)) return contractFallback(_from, _to, _value, _data);\r\n    return true;\r\n  }\r\n\r\n  function transfer(address _to, uint _value) public returns (bool success) {\r\n    return transfer(_to, _value, new bytes(0));\r\n  }\r\n\r\n  function transferFrom(address _from, address _to, uint _value) public returns (bool success) {\r\n    return transferFrom(_from, _to, _value, new bytes(0));\r\n  }\r\n\r\n  //function that is called when transaction target is a contract\r\n  function contractFallback(address _origin, address _to, uint _value, bytes memory _data) private returns (bool success) {\r\n    ERC223Receiver reciever = ERC223Receiver(_to);\r\n    return reciever.tokenFallback(msg.sender, _origin, _value, _data);\r\n  }\r\n\r\n  //assemble the given address bytecode. If bytecode exists then the _addr is a contract.\r\n  function isContract(address _addr) private view returns (bool is_contract) {\r\n    // retrieve the size of the code on target address, this needs assembly\r\n    uint length;\r\n    assembly { length := extcodesize(_addr) }\r\n    return length > 0;\r\n  }\r\n}",
  "sourcePath": "C:/Users/hadarro/Documents/GoodDollar/GoodBootstrap/packages/contracts/contracts/token/ERC223Token.sol",
  "compiler": {
    "name": "solc",
    "version": "0.5.0+commit.1d4f565a.Emscripten.clang"
  },
  "schemaVersion": "3.0.2",
  "updatedAt": "2019-03-07T09:52:41.640Z",
  "devdoc": {
    "methods": {
      "allowance(address,address)": {
        "details": "Function to check the amount of tokens that an owner allowed to a spender.",
        "params": {
          "owner": "address The address which owns the funds.",
          "spender": "address The address which will spend the funds."
        },
        "return": "A uint256 specifying the amount of tokens still available for the spender."
      },
      "approve(address,uint256)": {
        "details": "Approve the passed address to spend the specified amount of tokens on behalf of msg.sender. Beware that changing an allowance with this method brings the risk that someone may use both the old and the new allowance by unfortunate transaction ordering. One possible solution to mitigate this race condition is to first reduce the spender's allowance to 0 and set the desired value afterwards: https://github.com/ethereum/EIPs/issues/20#issuecomment-263524729",
        "params": {
          "spender": "The address which will spend the funds.",
          "value": "The amount of tokens to be spent."
        }
      },
      "balanceOf(address)": {
        "details": "Gets the balance of the specified address.",
        "params": {
          "owner": "The address to query the balance of."
        },
        "return": "An uint256 representing the amount owned by the passed address."
      },
      "decreaseAllowance(address,uint256)": {
        "details": "Decrease the amount of tokens that an owner allowed to a spender. approve should be called when allowed_[_spender] == 0. To decrement allowed value is better to use this function to avoid 2 calls (and wait until the first transaction is mined) From MonolithDAO Token.sol Emits an Approval event.",
        "params": {
          "spender": "The address which will spend the funds.",
          "subtractedValue": "The amount of tokens to decrease the allowance by."
        }
      },
      "increaseAllowance(address,uint256)": {
        "details": "Increase the amount of tokens that an owner allowed to a spender. approve should be called when allowed_[_spender] == 0. To increment allowed value is better to use this function to avoid 2 calls (and wait until the first transaction is mined) From MonolithDAO Token.sol Emits an Approval event.",
        "params": {
          "addedValue": "The amount of tokens to increase the allowance by.",
          "spender": "The address which will spend the funds."
        }
      },
      "totalSupply()": {
        "details": "Total number of tokens in existence"
      }
    }
  },
  "userdoc": {
    "methods": {}
  }
}