{
  "contractName": "ERC677BridgeToken",
  "abi": [
    {
      "constant": true,
      "inputs": [],
      "name": "name",
      "outputs": [
        {
          "name": "",
          "type": "string"
        }
      ],
      "payable": false,
      "stateMutability": "view",
      "type": "function"
    },
    {
      "constant": false,
      "inputs": [
        {
          "name": "spender",
          "type": "address"
        },
        {
          "name": "value",
          "type": "uint256"
        }
      ],
      "name": "approve",
      "outputs": [
        {
          "name": "",
          "type": "bool"
        }
      ],
      "payable": false,
      "stateMutability": "nonpayable",
      "type": "function"
    },
    {
      "constant": true,
      "inputs": [],
      "name": "totalSupply",
      "outputs": [
        {
          "name": "",
          "type": "uint256"
        }
      ],
      "payable": false,
      "stateMutability": "view",
      "type": "function"
    },
    {
      "constant": false,
      "inputs": [
        {
          "name": "sender",
          "type": "address"
        },
        {
          "name": "recipient",
          "type": "address"
        },
        {
          "name": "amount",
          "type": "uint256"
        }
      ],
      "name": "transferFrom",
      "outputs": [
        {
          "name": "",
          "type": "bool"
        }
      ],
      "payable": false,
      "stateMutability": "nonpayable",
      "type": "function"
    },
    {
      "constant": true,
      "inputs": [],
      "name": "decimals",
      "outputs": [
        {
          "name": "",
          "type": "uint8"
        }
      ],
      "payable": false,
      "stateMutability": "view",
      "type": "function"
    },
    {
      "constant": false,
      "inputs": [
        {
          "name": "spender",
          "type": "address"
        },
        {
          "name": "addedValue",
          "type": "uint256"
        }
      ],
      "name": "increaseAllowance",
      "outputs": [
        {
          "name": "",
          "type": "bool"
        }
      ],
      "payable": false,
      "stateMutability": "nonpayable",
      "type": "function"
    },
    {
      "constant": false,
      "inputs": [
        {
          "name": "account",
          "type": "address"
        },
        {
          "name": "amount",
          "type": "uint256"
        }
      ],
      "name": "mint",
      "outputs": [
        {
          "name": "",
          "type": "bool"
        }
      ],
      "payable": false,
      "stateMutability": "nonpayable",
      "type": "function"
    },
    {
      "constant": false,
      "inputs": [
        {
          "name": "amount",
          "type": "uint256"
        }
      ],
      "name": "burn",
      "outputs": [],
      "payable": false,
      "stateMutability": "nonpayable",
      "type": "function"
    },
    {
      "constant": true,
      "inputs": [
        {
          "name": "account",
          "type": "address"
        }
      ],
      "name": "balanceOf",
      "outputs": [
        {
          "name": "",
          "type": "uint256"
        }
      ],
      "payable": false,
      "stateMutability": "view",
      "type": "function"
    },
    {
      "constant": false,
      "inputs": [
        {
          "name": "account",
          "type": "address"
        },
        {
          "name": "amount",
          "type": "uint256"
        }
      ],
      "name": "burnFrom",
      "outputs": [],
      "payable": false,
      "stateMutability": "nonpayable",
      "type": "function"
    },
    {
      "constant": true,
      "inputs": [],
      "name": "owner",
      "outputs": [
        {
          "name": "",
          "type": "address"
        }
      ],
      "payable": false,
      "stateMutability": "view",
      "type": "function"
    },
    {
      "constant": true,
      "inputs": [],
      "name": "isOwner",
      "outputs": [
        {
          "name": "",
          "type": "bool"
        }
      ],
      "payable": false,
      "stateMutability": "view",
      "type": "function"
    },
    {
      "constant": true,
      "inputs": [],
      "name": "symbol",
      "outputs": [
        {
          "name": "",
          "type": "string"
        }
      ],
      "payable": false,
      "stateMutability": "view",
      "type": "function"
    },
    {
      "constant": false,
      "inputs": [
        {
          "name": "account",
          "type": "address"
        }
      ],
      "name": "addMinter",
      "outputs": [],
      "payable": false,
      "stateMutability": "nonpayable",
      "type": "function"
    },
    {
      "constant": false,
      "inputs": [],
      "name": "renounceMinter",
      "outputs": [],
      "payable": false,
      "stateMutability": "nonpayable",
      "type": "function"
    },
    {
      "constant": false,
      "inputs": [
        {
          "name": "spender",
          "type": "address"
        },
        {
          "name": "subtractedValue",
          "type": "uint256"
        }
      ],
      "name": "decreaseAllowance",
      "outputs": [
        {
          "name": "",
          "type": "bool"
        }
      ],
      "payable": false,
      "stateMutability": "nonpayable",
      "type": "function"
    },
    {
      "constant": true,
      "inputs": [
        {
          "name": "account",
          "type": "address"
        }
      ],
      "name": "isMinter",
      "outputs": [
        {
          "name": "",
          "type": "bool"
        }
      ],
      "payable": false,
      "stateMutability": "view",
      "type": "function"
    },
    {
      "constant": true,
      "inputs": [],
      "name": "bridgeContract",
      "outputs": [
        {
          "name": "",
          "type": "address"
        }
      ],
      "payable": false,
      "stateMutability": "view",
      "type": "function"
    },
    {
      "constant": true,
      "inputs": [
        {
          "name": "owner",
          "type": "address"
        },
        {
          "name": "spender",
          "type": "address"
        }
      ],
      "name": "allowance",
      "outputs": [
        {
          "name": "",
          "type": "uint256"
        }
      ],
      "payable": false,
      "stateMutability": "view",
      "type": "function"
    },
    {
      "constant": false,
      "inputs": [
        {
          "name": "newOwner",
          "type": "address"
        }
      ],
      "name": "transferOwnership",
      "outputs": [],
      "payable": false,
      "stateMutability": "nonpayable",
      "type": "function"
    },
    {
      "inputs": [
        {
          "name": "_name",
          "type": "string"
        },
        {
          "name": "_symbol",
          "type": "string"
        },
        {
          "name": "_decimals",
          "type": "uint8"
        }
      ],
      "payable": false,
      "stateMutability": "nonpayable",
      "type": "constructor"
    },
    {
      "anonymous": false,
      "inputs": [
        {
          "indexed": false,
          "name": "from",
          "type": "address"
        },
        {
          "indexed": false,
          "name": "to",
          "type": "address"
        },
        {
          "indexed": false,
          "name": "value",
          "type": "uint256"
        }
      ],
      "name": "ContractFallbackCallFailed",
      "type": "event"
    },
    {
      "anonymous": false,
      "inputs": [
        {
          "indexed": true,
          "name": "previousOwner",
          "type": "address"
        },
        {
          "indexed": true,
          "name": "newOwner",
          "type": "address"
        }
      ],
      "name": "OwnershipTransferred",
      "type": "event"
    },
    {
      "anonymous": false,
      "inputs": [
        {
          "indexed": true,
          "name": "account",
          "type": "address"
        }
      ],
      "name": "MinterAdded",
      "type": "event"
    },
    {
      "anonymous": false,
      "inputs": [
        {
          "indexed": true,
          "name": "account",
          "type": "address"
        }
      ],
      "name": "MinterRemoved",
      "type": "event"
    },
    {
      "anonymous": false,
      "inputs": [
        {
          "indexed": true,
          "name": "from",
          "type": "address"
        },
        {
          "indexed": true,
          "name": "to",
          "type": "address"
        },
        {
          "indexed": false,
          "name": "value",
          "type": "uint256"
        },
        {
          "indexed": false,
          "name": "data",
          "type": "bytes"
        }
      ],
      "name": "Transfer",
      "type": "event"
    },
    {
      "anonymous": false,
      "inputs": [
        {
          "indexed": true,
          "name": "from",
          "type": "address"
        },
        {
          "indexed": true,
          "name": "to",
          "type": "address"
        },
        {
          "indexed": false,
          "name": "value",
          "type": "uint256"
        }
      ],
      "name": "Transfer",
      "type": "event"
    },
    {
      "anonymous": false,
      "inputs": [
        {
          "indexed": true,
          "name": "owner",
          "type": "address"
        },
        {
          "indexed": true,
          "name": "spender",
          "type": "address"
        },
        {
          "indexed": false,
          "name": "value",
          "type": "uint256"
        }
      ],
      "name": "Approval",
      "type": "event"
    },
    {
      "constant": false,
      "inputs": [
        {
          "name": "_bridgeContract",
          "type": "address"
        }
      ],
      "name": "setBridgeContract",
      "outputs": [],
      "payable": false,
      "stateMutability": "nonpayable",
      "type": "function"
    },
    {
      "constant": false,
      "inputs": [
        {
          "name": "_to",
          "type": "address"
        },
        {
          "name": "_value",
          "type": "uint256"
        },
        {
          "name": "_data",
          "type": "bytes"
        }
      ],
      "name": "transferAndCall",
      "outputs": [
        {
          "name": "",
          "type": "bool"
        }
      ],
      "payable": false,
      "stateMutability": "nonpayable",
      "type": "function"
    },
    {
      "constant": true,
      "inputs": [],
      "name": "getTokenInterfacesVersion",
      "outputs": [
        {
          "name": "major",
          "type": "uint64"
        },
        {
          "name": "minor",
          "type": "uint64"
        },
        {
          "name": "patch",
          "type": "uint64"
        }
      ],
      "payable": false,
      "stateMutability": "pure",
      "type": "function"
    },
    {
      "constant": false,
      "inputs": [
        {
          "name": "_to",
          "type": "address"
        },
        {
          "name": "_value",
          "type": "uint256"
        }
      ],
      "name": "transfer",
      "outputs": [
        {
          "name": "",
          "type": "bool"
        }
      ],
      "payable": false,
      "stateMutability": "nonpayable",
      "type": "function"
    },
    {
      "constant": false,
      "inputs": [],
      "name": "finishMinting",
      "outputs": [
        {
          "name": "",
          "type": "bool"
        }
      ],
      "payable": false,
      "stateMutability": "nonpayable",
      "type": "function"
    },
    {
      "constant": false,
      "inputs": [],
      "name": "renounceOwnership",
      "outputs": [],
      "payable": false,
      "stateMutability": "nonpayable",
      "type": "function"
    },
    {
      "constant": false,
      "inputs": [
        {
          "name": "_token",
          "type": "address"
        },
        {
          "name": "_to",
          "type": "address"
        }
      ],
      "name": "claimTokens",
      "outputs": [],
      "payable": false,
      "stateMutability": "nonpayable",
      "type": "function"
    }
  ],
  "bytecode": "0x60806040523480156200001157600080fd5b5060405162001def38038062001def833981018060405260608110156200003757600080fd5b8101908080516401000000008111156200005057600080fd5b820160208101848111156200006457600080fd5b81516401000000008111828201871017156200007f57600080fd5b505092919060200180516401000000008111156200009c57600080fd5b82016020810184811115620000b057600080fd5b8151640100000000811182820187101715620000cb57600080fd5b505060209182015185519194509250849184918491620000f19160039186019062000306565b5081516200010790600490602085019062000306565b506005805460ff191660ff92909216919091179055506200013390503364010000000062000188810204565b60078054600160a060020a031916331790819055604051600160a060020a0391909116906000907f8be0079c531659141344cd1fd0a4f28419497f9722a3daafe3b4186f6b6457e0908290a3505050620003ab565b620001a360068264010000000062001781620001da82021704565b604051600160a060020a038216907f6ae172837ea30b801fbfcdd4108aa1d5bf8ff775444fd70256b44e6bf3dfc3f690600090a250565b620001ef828264010000000062000281810204565b156200025c57604080517f08c379a000000000000000000000000000000000000000000000000000000000815260206004820152601f60248201527f526f6c65733a206163636f756e7420616c72656164792068617320726f6c6500604482015290519081900360640190fd5b600160a060020a0316600090815260209190915260409020805460ff19166001179055565b6000600160a060020a0382161515620002e6576040517f08c379a000000000000000000000000000000000000000000000000000000000815260040180806020018281038252602281526020018062001dcd6022913960400191505060405180910390fd5b50600160a060020a03166000908152602091909152604090205460ff1690565b828054600181600116156101000203166002900490600052602060002090601f016020900481019282601f106200034957805160ff191683800117855562000379565b8280016001018555821562000379579182015b82811115620003795782518255916020019190600101906200035c565b50620003879291506200038b565b5090565b620003a891905b8082111562000387576000815560010162000392565b90565b611a1280620003bb6000396000f3fe608060405234801561001057600080fd5b50600436106101c6576000357c01000000000000000000000000000000000000000000000000000000009004806379cc67901161011657806398650275116100b4578063aa271e1a1161008e578063aa271e1a14610596578063cd596583146105bc578063dd62ed3e146105c4578063f2fde38b146105f2576101c6565b80639865027514610536578063a457c2d71461053e578063a9059cbb1461056a576101c6565b80638da5cb5b116100f05780638da5cb5b146104dc5780638f32d59b1461050057806395d89b4114610508578063983b2d5614610510576101c6565b806379cc6790146104745780637d64bcb4146104a0578063859ba28c146104a8576101c6565b8063395093511161018357806342966c681161015d57806342966c68146103fb57806369ffa08a1461041857806370a0823114610446578063715018a61461046c576101c6565b8063395093511461031e5780634000aea01461034a57806340c10f19146103cf576101c6565b806306fdde03146101cb578063095ea7b3146102485780630b26cf661461028857806318160ddd146102b057806323b872dd146102ca578063313ce56714610300575b600080fd5b6101d3610618565b6040805160208082528351818301528351919283929083019185019080838360005b8381101561020d5781810151838201526020016101f5565b50505050905090810190601f16801561023a5780820380516001836020036101000a031916815260200191505b509250505060405180910390f35b6102746004803603604081101561025e57600080fd5b50600160a060020a0381351690602001356106ae565b604080519115158252519081900360200190f35b6102ae6004803603602081101561029e57600080fd5b5035600160a060020a03166106c4565b005b6102b8610766565b60408051918252519081900360200190f35b610274600480360360608110156102e057600080fd5b50600160a060020a0381358116916020810135909116906040013561076c565b6103086107c3565b6040805160ff9092168252519081900360200190f35b6102746004803603604081101561033457600080fd5b50600160a060020a0381351690602001356107cc565b6102746004803603606081101561036057600080fd5b600160a060020a038235169160208101359181019060608101604082013564010000000081111561039057600080fd5b8201836020820111156103a257600080fd5b803590602001918460018302840111640100000000831117156103c457600080fd5b509092509050610808565b610274600480360360408110156103e557600080fd5b50600160a060020a038135169060200135610882565b6102ae6004803603602081101561041157600080fd5b50356108d7565b6102ae6004803603604081101561042e57600080fd5b50600160a060020a03813581169160200135166108e4565b6102b86004803603602081101561045c57600080fd5b5035600160a060020a0316610ad1565b6102ae610aec565b6102ae6004803603604081101561048a57600080fd5b50600160a060020a038135169060200135610b38565b610274610b42565b6104b0610b49565b6040805167ffffffffffffffff9485168152928416602084015292168183015290519081900360600190f35b6104e4610b53565b60408051600160a060020a039092168252519081900360200190f35b610274610b62565b6101d3610b73565b6102ae6004803603602081101561052657600080fd5b5035600160a060020a0316610bd4565b6102ae610c26565b6102746004803603604081101561055457600080fd5b50600160a060020a038135169060200135610c31565b6102746004803603604081101561058057600080fd5b50600160a060020a038135169060200135610c6d565b610274600480360360208110156105ac57600080fd5b5035600160a060020a0316610d23565b6104e4610d3c565b6102b8600480360360408110156105da57600080fd5b50600160a060020a0381358116916020013516610d4b565b6102ae6004803603602081101561060857600080fd5b5035600160a060020a0316610d76565b60038054604080516020601f60026000196101006001881615020190951694909404938401819004810282018101909252828152606093909290918301828280156106a45780601f10610679576101008083540402835291602001916106a4565b820191906000526020600020905b81548152906001019060200180831161068757829003601f168201915b5050505050905090565b60006106bb338484610dcb565b50600192915050565b6106cc610b62565b1515610710576040805160e560020a62461bcd028152602060048201819052602482015260008051602061193b833981519152604482015290519081900360640190fd5b600160a060020a0381161580159061072c575061072c81610ec1565b151561073757600080fd5b6008805473ffffffffffffffffffffffffffffffffffffffff1916600160a060020a0392909216919091179055565b60025490565b6000610779848484610ec9565b600160a060020a0384166000908152600160209081526040808320338085529252909120546107b99186916107b4908663ffffffff61101516565b610dcb565b5060019392505050565b60055460ff1690565b336000818152600160209081526040808320600160a060020a038716845290915281205490916106bb9185906107b4908663ffffffff61107516565b600084600160a060020a0381161580159061082c5750600160a060020a0381163014155b151561083757600080fd5b610878868686868080601f0160208091040260200160405190810160405280939291908181526020018383808284376000920191909152506110d992505050565b9695505050505050565b600061088d33610d23565b15156108cd5760405160e560020a62461bcd0281526004018080602001828103825260308152602001806118ea6030913960400191505060405180910390fd5b6106bb8383611214565b6108e13382611309565b50565b6108ec610b62565b1515610930576040805160e560020a62461bcd028152602060048201819052602482015260008051602061193b833981519152604482015290519081900360640190fd5b600160a060020a038116151561094557600080fd5b600160a060020a0382161515610994576040518190600160a060020a03821690303180156108fc02916000818181858888f1935050505015801561098d573d6000803e3d6000fd5b5050610acd565b604080517f70a0823100000000000000000000000000000000000000000000000000000000815230600482015290518391600091600160a060020a038416916370a08231916024808301926020929190829003018186803b1580156109f857600080fd5b505afa158015610a0c573d6000803e3d6000fd5b505050506040513d6020811015610a2257600080fd5b5051604080517fa9059cbb000000000000000000000000000000000000000000000000000000008152600160a060020a0386811660048301526024820184905291519293509084169163a9059cbb916044808201926020929091908290030181600087803b158015610a9357600080fd5b505af1158015610aa7573d6000803e3d6000fd5b505050506040513d6020811015610abd57600080fd5b50511515610aca57600080fd5b50505b5050565b600160a060020a031660009081526020819052604090205490565b610af4610b62565b15156101c6576040805160e560020a62461bcd028152602060048201819052602482015260008051602061193b833981519152604482015290519081900360640190fd5b610acd82826113e7565b6000806000fd5b6002600080909192565b600754600160a060020a031690565b600754600160a060020a0316331490565b60048054604080516020601f60026000196101006001881615020190951694909404938401819004810282018101909252828152606093909290918301828280156106a45780601f10610679576101008083540402835291602001916106a4565b610bdd33610d23565b1515610c1d5760405160e560020a62461bcd0281526004018080602001828103825260308152602001806118ea6030913960400191505060405180910390fd5b6108e18161142c565b610c2f33611474565b565b336000818152600160209081526040808320600160a060020a038716845290915281205490916106bb9185906107b4908663ffffffff61101516565b6000610c7983836114bc565b1515610c8457600080fd5b610c8d83610ec1565b8015610cb25750604080516000815260208101909152610cb090849084906114c8565b155b156106bb57600854600160a060020a0384811691161415610cd257600080fd5b60408051338152600160a060020a038516602082015280820184905290517f11249f0fc79fc134a15a10d1da8291b79515bf987e036ced05b9ec119614070b9181900360600190a150600192915050565b6000610d3660068363ffffffff61166216565b92915050565b600854600160a060020a031681565b600160a060020a03918216600090815260016020908152604080832093909416825291909152205490565b610d7e610b62565b1515610dc2576040805160e560020a62461bcd028152602060048201819052602482015260008051602061193b833981519152604482015290519081900360640190fd5b6108e1816116ce565b600160a060020a0383161515610e155760405160e560020a62461bcd0281526004018080602001828103825260248152602001806119c36024913960400191505060405180910390fd5b600160a060020a0382161515610e5f5760405160e560020a62461bcd0281526004018080602001828103825260228152602001806118c86022913960400191505060405180910390fd5b600160a060020a03808416600081815260016020908152604080832094871680845294825291829020859055815185815291517f8c5be1e5ebec7d5bd14f71427d1e84f3dd0314c0f7b2291e5b200ac8c7c3b9259281900390910190a3505050565b6000903b1190565b600160a060020a0383161515610f135760405160e560020a62461bcd02815260040180806020018281038252602581526020018061199e6025913960400191505060405180910390fd5b600160a060020a0382161515610f5d5760405160e560020a62461bcd02815260040180806020018281038252602381526020018061187f6023913960400191505060405180910390fd5b600160a060020a038316600090815260208190526040902054610f86908263ffffffff61101516565b600160a060020a038085166000908152602081905260408082209390935590841681522054610fbb908263ffffffff61107516565b600160a060020a038084166000818152602081815260409182902094909455805185815290519193928716927fddf252ad1be2c89b69c2b068fc378daa952ba7f163c4a11628f55a4df523b3ef92918290030190a3505050565b60008282111561106f576040805160e560020a62461bcd02815260206004820152601e60248201527f536166654d6174683a207375627472616374696f6e206f766572666c6f770000604482015290519081900360640190fd5b50900390565b6000828201838110156110d2576040805160e560020a62461bcd02815260206004820152601b60248201527f536166654d6174683a206164646974696f6e206f766572666c6f770000000000604482015290519081900360640190fd5b9392505050565b60006110e584846114bc565b15156110f057600080fd5b83600160a060020a031633600160a060020a03167fe19260aff97b920c7df27010903aeb9c8d2be5d310a2c67824cf3f15396e4c1685856040518083815260200180602001828103825283818151815260200191508051906020019080838360005b8381101561116a578181015183820152602001611152565b50505050905090810190601f1680156111975780820380516001836020036101000a031916815260200191505b50935050505060405180910390a36111ae84610ec1565b156107b9576111be8484846114c8565b15156107b9576040805160e560020a62461bcd02815260206004820152601860248201527f436f6e74726163742066616c6c6261636b206661696c65640000000000000000604482015290519081900360640190fd5b600160a060020a0382161515611274576040805160e560020a62461bcd02815260206004820152601f60248201527f45524332303a206d696e7420746f20746865207a65726f206164647265737300604482015290519081900360640190fd5b600254611287908263ffffffff61107516565b600255600160a060020a0382166000908152602081905260409020546112b3908263ffffffff61107516565b600160a060020a0383166000818152602081815260408083209490945583518581529351929391927fddf252ad1be2c89b69c2b068fc378daa952ba7f163c4a11628f55a4df523b3ef9281900390910190a35050565b600160a060020a03821615156113535760405160e560020a62461bcd02815260040180806020018281038252602181526020018061197d6021913960400191505060405180910390fd5b600254611366908263ffffffff61101516565b600255600160a060020a038216600090815260208190526040902054611392908263ffffffff61101516565b600160a060020a038316600081815260208181526040808320949094558351858152935191937fddf252ad1be2c89b69c2b068fc378daa952ba7f163c4a11628f55a4df523b3ef929081900390910190a35050565b6113f18282611309565b600160a060020a038216600090815260016020908152604080832033808552925290912054610acd9184916107b4908563ffffffff61101516565b61143d60068263ffffffff61178116565b604051600160a060020a038216907f6ae172837ea30b801fbfcdd4108aa1d5bf8ff775444fd70256b44e6bf3dfc3f690600090a250565b61148560068263ffffffff61180516565b604051600160a060020a038216907fe94479a9f7e1952cc78f2d6baab678adc1b772d936c6583def489e524cb6669290600090a250565b60006110d28383611871565b60008084600160a060020a03163385856040516024018084600160a060020a0316600160a060020a0316815260200183815260200180602001828103825283818151815260200191508051906020019080838360005b8381101561153657818101518382015260200161151e565b50505050905090810190601f1680156115635780820380516001836020036101000a031916815260200191505b5060408051601f198184030181529181526020820180517bffffffffffffffffffffffffffffffffffffffffffffffffffffffff167fa4c0ed3600000000000000000000000000000000000000000000000000000000178152905182519297509550859450925090508083835b602083106115ef5780518252601f1990920191602091820191016115d0565b6001836020036101000a0380198251168184511680821785525050505050509050019150506000604051808303816000865af19150503d8060008114611651576040519150601f19603f3d011682016040523d82523d6000602084013e611656565b606091505b50909695505050505050565b6000600160a060020a03821615156116ae5760405160e560020a62461bcd02815260040180806020018281038252602281526020018061195b6022913960400191505060405180910390fd5b50600160a060020a03166000908152602091909152604090205460ff1690565b600160a060020a03811615156117185760405160e560020a62461bcd0281526004018080602001828103825260268152602001806118a26026913960400191505060405180910390fd5b600754604051600160a060020a038084169216907f8be0079c531659141344cd1fd0a4f28419497f9722a3daafe3b4186f6b6457e090600090a36007805473ffffffffffffffffffffffffffffffffffffffff1916600160a060020a0392909216919091179055565b61178b8282611662565b156117e0576040805160e560020a62461bcd02815260206004820152601f60248201527f526f6c65733a206163636f756e7420616c72656164792068617320726f6c6500604482015290519081900360640190fd5b600160a060020a0316600090815260209190915260409020805460ff19166001179055565b61180f8282611662565b151561184f5760405160e560020a62461bcd02815260040180806020018281038252602181526020018061191a6021913960400191505060405180910390fd5b600160a060020a0316600090815260209190915260409020805460ff19169055565b60006106bb338484610ec956fe45524332303a207472616e7366657220746f20746865207a65726f20616464726573734f776e61626c653a206e6577206f776e657220697320746865207a65726f206164647265737345524332303a20617070726f766520746f20746865207a65726f20616464726573734d696e746572526f6c653a2063616c6c657220646f6573206e6f74206861766520746865204d696e74657220726f6c65526f6c65733a206163636f756e7420646f6573206e6f74206861766520726f6c654f776e61626c653a2063616c6c6572206973206e6f7420746865206f776e6572526f6c65733a206163636f756e7420697320746865207a65726f206164647265737345524332303a206275726e2066726f6d20746865207a65726f206164647265737345524332303a207472616e736665722066726f6d20746865207a65726f206164647265737345524332303a20617070726f76652066726f6d20746865207a65726f2061646472657373a165627a7a723058201f5fe5d32c2ff70cd0ae06ac856a26dc29d341fcd78a33a93ed756acb2cbf3020029526f6c65733a206163636f756e7420697320746865207a65726f2061646472657373",
  "source": "pragma solidity ^0.5.0;\n\nimport \"openzeppelin-solidity/contracts/token/ERC20/ERC20Detailed.sol\";\nimport \"openzeppelin-solidity/contracts/token/ERC20/ERC20Mintable.sol\";\nimport \"openzeppelin-solidity/contracts/token/ERC20/ERC20Burnable.sol\";\nimport \"openzeppelin-solidity/contracts/ownership/Ownable.sol\";\nimport \"./IBurnableMintableERC677Token.sol\";\nimport \"./ERC677Receiver.sol\";\n\n\ncontract ERC677BridgeToken is\n    IBurnableMintableERC677Token,\n    ERC20Detailed,\n    ERC20Burnable,\n    ERC20Mintable,\n    Ownable {\n    \n    address public bridgeContract;\n\n    event ContractFallbackCallFailed(address from, address to, uint value);\n\n    constructor(\n        string memory _name,\n        string memory _symbol,\n        uint8 _decimals) \n    public ERC20Detailed(_name, _symbol, _decimals) {}\n\n    function setBridgeContract(address _bridgeContract) onlyOwner public {\n        require(_bridgeContract != address(0) && isContract(_bridgeContract));\n        bridgeContract = _bridgeContract;\n    }\n\n    modifier validRecipient(address _recipient) {\n        require(_recipient != address(0) && _recipient != address(this));\n        _;\n    }\n\n    function transferAndCall(address _to, uint _value, bytes calldata _data)\n        external validRecipient(_to) returns (bool)\n    {        \n        return _transferAndCall(_to,_value,_data);\n        \n    }\n    function _transferAndCall(address _to, uint _value, bytes memory _data)\n        internal returns (bool)\n    {           \n        require(superTransfer(_to, _value));\n        emit Transfer(msg.sender, _to, _value, _data);\n        if (isContract(_to)) {\n            require(contractFallback(_to, _value, _data), \"Contract fallback failed\");\n        }\n        return true;\n    }\n    function getTokenInterfacesVersion() public pure returns(uint64 major, uint64 minor, uint64 patch) {\n        return (2, 0, 0);\n    }\n\n    function superTransfer(address _to, uint256 _value) internal returns(bool)\n    {\n        return super.transfer(_to, _value);\n    }\n\n    function transfer(address _to, uint256 _value) public returns (bool)\n    {\n        require(superTransfer(_to, _value));\n        if (isContract(_to) && !contractFallback(_to, _value, new bytes(0))) {\n            if (_to == bridgeContract) {\n                revert();\n            } else {\n                emit ContractFallbackCallFailed(msg.sender, _to, _value);\n            }\n        }\n        return true;\n    }\n\n    function contractFallback(address _to, uint _value, bytes memory _data)\n        private\n        returns(bool)\n    {\n        (bool res,) = _to.call(abi.encodeWithSignature(\"onTokenTransfer(address,uint256,bytes)\",  msg.sender, _value, _data));\n        return res;\n    }\n\n    function isContract(address _addr)\n        private\n        view\n        returns (bool)\n    {\n        uint length;\n        assembly { length := extcodesize(_addr) }\n        return length > 0;\n    }\n\n    function finishMinting() public returns (bool) {\n        revert();\n    }\n\n    function renounceOwnership() public onlyOwner {\n        revert();\n    }\n\n    function claimTokens(address _token, address _to) public onlyOwner {\n        require(_to != address(0));\n        if (_token == address(0)) {\n            address payable to = address(uint160(_to));\n\t\t\tto.transfer(address(this).balance);\n\t\t\treturn;\n        }\n\n        ERC20Detailed token = ERC20Detailed(_token);\n        uint256 balance = token.balanceOf(address(this));\n        require(token.transfer(_to, balance));\n    }\n\n\n}\n",
  "sourcePath": "/Users/hadar/workspace/GoodDollar/GoodBootstrap/packages/contracts/contracts/token/ERC677BridgeToken.sol",
  "compiler": {
    "name": "solc",
    "version": "0.5.2+commit.1df8f40c.Emscripten.clang"
  },
  "schemaVersion": "3.0.10",
  "updatedAt": "2019-09-24T20:34:20.030Z",
  "devdoc": {
    "methods": {
      "allowance(address,address)": {
        "details": "See `IERC20.allowance`."
      },
      "approve(address,uint256)": {
        "details": "See `IERC20.approve`.     * Requirements:     * - `spender` cannot be the zero address."
      },
      "balanceOf(address)": {
        "details": "See `IERC20.balanceOf`."
      },
      "burn(uint256)": {
        "details": "Destoys `amount` tokens from the caller.     * See `ERC20._burn`."
      },
      "burnFrom(address,uint256)": {
        "details": "See `ERC20._burnFrom`."
      },
      "decimals()": {
        "details": "Returns the number of decimals used to get its user representation. For example, if `decimals` equals `2`, a balance of `505` tokens should be displayed to a user as `5,05` (`505 / 10 ** 2`).     * Tokens usually opt for a value of 18, imitating the relationship between Ether and Wei.     * > Note that this information is only used for _display_ purposes: it in no way affects any of the arithmetic of the contract, including `IERC20.balanceOf` and `IERC20.transfer`."
      },
      "decreaseAllowance(address,uint256)": {
        "details": "Atomically decreases the allowance granted to `spender` by the caller.     * This is an alternative to `approve` that can be used as a mitigation for problems described in `IERC20.approve`.     * Emits an `Approval` event indicating the updated allowance.     * Requirements:     * - `spender` cannot be the zero address. - `spender` must have allowance for the caller of at least `subtractedValue`."
      },
      "increaseAllowance(address,uint256)": {
        "details": "Atomically increases the allowance granted to `spender` by the caller.     * This is an alternative to `approve` that can be used as a mitigation for problems described in `IERC20.approve`.     * Emits an `Approval` event indicating the updated allowance.     * Requirements:     * - `spender` cannot be the zero address."
      },
      "isOwner()": {
        "details": "Returns true if the caller is the current owner."
      },
      "mint(address,uint256)": {
        "details": "See `ERC20._mint`.     * Requirements:     * - the caller must have the `MinterRole`."
      },
      "name()": {
        "details": "Returns the name of the token."
      },
      "owner()": {
        "details": "Returns the address of the current owner."
      },
      "symbol()": {
        "details": "Returns the symbol of the token, usually a shorter version of the name."
      },
      "totalSupply()": {
        "details": "See `IERC20.totalSupply`."
      },
      "transferFrom(address,address,uint256)": {
        "details": "See `IERC20.transferFrom`.     * Emits an `Approval` event indicating the updated allowance. This is not required by the EIP. See the note at the beginning of `ERC20`;     * Requirements: - `sender` and `recipient` cannot be the zero address. - `sender` must have a balance of at least `value`. - the caller must have allowance for `sender`'s tokens of at least `amount`."
      },
      "transferOwnership(address)": {
        "details": "Transfers ownership of the contract to a new account (`newOwner`). Can only be called by the current owner."
      }
    }
  },
  "userdoc": {
    "methods": {}
  }
}