{
  "contractName": "ERC677BridgeToken",
  "abi": [
    {
      "constant": true,
      "inputs": [],
      "name": "name",
      "outputs": [
        {
          "name": "",
          "type": "string"
        }
      ],
      "payable": false,
      "stateMutability": "view",
      "type": "function"
    },
    {
      "constant": false,
      "inputs": [
        {
          "name": "spender",
          "type": "address"
        },
        {
          "name": "value",
          "type": "uint256"
        }
      ],
      "name": "approve",
      "outputs": [
        {
          "name": "",
          "type": "bool"
        }
      ],
      "payable": false,
      "stateMutability": "nonpayable",
      "type": "function"
    },
    {
      "constant": true,
      "inputs": [],
      "name": "totalSupply",
      "outputs": [
        {
          "name": "",
          "type": "uint256"
        }
      ],
      "payable": false,
      "stateMutability": "view",
      "type": "function"
    },
    {
      "constant": false,
      "inputs": [
        {
          "name": "from",
          "type": "address"
        },
        {
          "name": "to",
          "type": "address"
        },
        {
          "name": "value",
          "type": "uint256"
        }
      ],
      "name": "transferFrom",
      "outputs": [
        {
          "name": "",
          "type": "bool"
        }
      ],
      "payable": false,
      "stateMutability": "nonpayable",
      "type": "function"
    },
    {
      "constant": true,
      "inputs": [],
      "name": "decimals",
      "outputs": [
        {
          "name": "",
          "type": "uint8"
        }
      ],
      "payable": false,
      "stateMutability": "view",
      "type": "function"
    },
    {
      "constant": false,
      "inputs": [
        {
          "name": "spender",
          "type": "address"
        },
        {
          "name": "addedValue",
          "type": "uint256"
        }
      ],
      "name": "increaseAllowance",
      "outputs": [
        {
          "name": "",
          "type": "bool"
        }
      ],
      "payable": false,
      "stateMutability": "nonpayable",
      "type": "function"
    },
    {
      "constant": false,
      "inputs": [
        {
          "name": "to",
          "type": "address"
        },
        {
          "name": "value",
          "type": "uint256"
        }
      ],
      "name": "mint",
      "outputs": [
        {
          "name": "",
          "type": "bool"
        }
      ],
      "payable": false,
      "stateMutability": "nonpayable",
      "type": "function"
    },
    {
      "constant": false,
      "inputs": [
        {
          "name": "value",
          "type": "uint256"
        }
      ],
      "name": "burn",
      "outputs": [],
      "payable": false,
      "stateMutability": "nonpayable",
      "type": "function"
    },
    {
      "constant": true,
      "inputs": [
        {
          "name": "owner",
          "type": "address"
        }
      ],
      "name": "balanceOf",
      "outputs": [
        {
          "name": "",
          "type": "uint256"
        }
      ],
      "payable": false,
      "stateMutability": "view",
      "type": "function"
    },
    {
      "constant": false,
      "inputs": [
        {
          "name": "from",
          "type": "address"
        },
        {
          "name": "value",
          "type": "uint256"
        }
      ],
      "name": "burnFrom",
      "outputs": [],
      "payable": false,
      "stateMutability": "nonpayable",
      "type": "function"
    },
    {
      "constant": true,
      "inputs": [],
      "name": "owner",
      "outputs": [
        {
          "name": "",
          "type": "address"
        }
      ],
      "payable": false,
      "stateMutability": "view",
      "type": "function"
    },
    {
      "constant": true,
      "inputs": [],
      "name": "isOwner",
      "outputs": [
        {
          "name": "",
          "type": "bool"
        }
      ],
      "payable": false,
      "stateMutability": "view",
      "type": "function"
    },
    {
      "constant": true,
      "inputs": [],
      "name": "symbol",
      "outputs": [
        {
          "name": "",
          "type": "string"
        }
      ],
      "payable": false,
      "stateMutability": "view",
      "type": "function"
    },
    {
      "constant": false,
      "inputs": [
        {
          "name": "account",
          "type": "address"
        }
      ],
      "name": "addMinter",
      "outputs": [],
      "payable": false,
      "stateMutability": "nonpayable",
      "type": "function"
    },
    {
      "constant": false,
      "inputs": [],
      "name": "renounceMinter",
      "outputs": [],
      "payable": false,
      "stateMutability": "nonpayable",
      "type": "function"
    },
    {
      "constant": false,
      "inputs": [
        {
          "name": "spender",
          "type": "address"
        },
        {
          "name": "subtractedValue",
          "type": "uint256"
        }
      ],
      "name": "decreaseAllowance",
      "outputs": [
        {
          "name": "",
          "type": "bool"
        }
      ],
      "payable": false,
      "stateMutability": "nonpayable",
      "type": "function"
    },
    {
      "constant": true,
      "inputs": [
        {
          "name": "account",
          "type": "address"
        }
      ],
      "name": "isMinter",
      "outputs": [
        {
          "name": "",
          "type": "bool"
        }
      ],
      "payable": false,
      "stateMutability": "view",
      "type": "function"
    },
    {
      "constant": true,
      "inputs": [],
      "name": "bridgeContract",
      "outputs": [
        {
          "name": "",
          "type": "address"
        }
      ],
      "payable": false,
      "stateMutability": "view",
      "type": "function"
    },
    {
      "constant": true,
      "inputs": [
        {
          "name": "owner",
          "type": "address"
        },
        {
          "name": "spender",
          "type": "address"
        }
      ],
      "name": "allowance",
      "outputs": [
        {
          "name": "",
          "type": "uint256"
        }
      ],
      "payable": false,
      "stateMutability": "view",
      "type": "function"
    },
    {
      "constant": false,
      "inputs": [
        {
          "name": "newOwner",
          "type": "address"
        }
      ],
      "name": "transferOwnership",
      "outputs": [],
      "payable": false,
      "stateMutability": "nonpayable",
      "type": "function"
    },
    {
      "inputs": [
        {
          "name": "_name",
          "type": "string"
        },
        {
          "name": "_symbol",
          "type": "string"
        },
        {
          "name": "_decimals",
          "type": "uint8"
        }
      ],
      "payable": false,
      "stateMutability": "nonpayable",
      "type": "constructor"
    },
    {
      "anonymous": false,
      "inputs": [
        {
          "indexed": false,
          "name": "from",
          "type": "address"
        },
        {
          "indexed": false,
          "name": "to",
          "type": "address"
        },
        {
          "indexed": false,
          "name": "value",
          "type": "uint256"
        }
      ],
      "name": "ContractFallbackCallFailed",
      "type": "event"
    },
    {
      "anonymous": false,
      "inputs": [
        {
          "indexed": true,
          "name": "previousOwner",
          "type": "address"
        },
        {
          "indexed": true,
          "name": "newOwner",
          "type": "address"
        }
      ],
      "name": "OwnershipTransferred",
      "type": "event"
    },
    {
      "anonymous": false,
      "inputs": [
        {
          "indexed": true,
          "name": "account",
          "type": "address"
        }
      ],
      "name": "MinterAdded",
      "type": "event"
    },
    {
      "anonymous": false,
      "inputs": [
        {
          "indexed": true,
          "name": "account",
          "type": "address"
        }
      ],
      "name": "MinterRemoved",
      "type": "event"
    },
    {
      "anonymous": false,
      "inputs": [
        {
          "indexed": true,
          "name": "from",
          "type": "address"
        },
        {
          "indexed": true,
          "name": "to",
          "type": "address"
        },
        {
          "indexed": false,
          "name": "value",
          "type": "uint256"
        },
        {
          "indexed": false,
          "name": "data",
          "type": "bytes"
        }
      ],
      "name": "Transfer",
      "type": "event"
    },
    {
      "anonymous": false,
      "inputs": [
        {
          "indexed": true,
          "name": "from",
          "type": "address"
        },
        {
          "indexed": true,
          "name": "to",
          "type": "address"
        },
        {
          "indexed": false,
          "name": "value",
          "type": "uint256"
        }
      ],
      "name": "Transfer",
      "type": "event"
    },
    {
      "anonymous": false,
      "inputs": [
        {
          "indexed": true,
          "name": "owner",
          "type": "address"
        },
        {
          "indexed": true,
          "name": "spender",
          "type": "address"
        },
        {
          "indexed": false,
          "name": "value",
          "type": "uint256"
        }
      ],
      "name": "Approval",
      "type": "event"
    },
    {
      "constant": false,
      "inputs": [
        {
          "name": "_bridgeContract",
          "type": "address"
        }
      ],
      "name": "setBridgeContract",
      "outputs": [],
      "payable": false,
      "stateMutability": "nonpayable",
      "type": "function"
    },
    {
      "constant": false,
      "inputs": [
        {
          "name": "_to",
          "type": "address"
        },
        {
          "name": "_value",
          "type": "uint256"
        },
        {
          "name": "_data",
          "type": "bytes"
        }
      ],
      "name": "transferAndCall",
      "outputs": [
        {
          "name": "",
          "type": "bool"
        }
      ],
      "payable": false,
      "stateMutability": "nonpayable",
      "type": "function"
    },
    {
      "constant": true,
      "inputs": [],
      "name": "getTokenInterfacesVersion",
      "outputs": [
        {
          "name": "major",
          "type": "uint64"
        },
        {
          "name": "minor",
          "type": "uint64"
        },
        {
          "name": "patch",
          "type": "uint64"
        }
      ],
      "payable": false,
      "stateMutability": "pure",
      "type": "function"
    },
    {
      "constant": false,
      "inputs": [
        {
          "name": "_to",
          "type": "address"
        },
        {
          "name": "_value",
          "type": "uint256"
        }
      ],
      "name": "transfer",
      "outputs": [
        {
          "name": "",
          "type": "bool"
        }
      ],
      "payable": false,
      "stateMutability": "nonpayable",
      "type": "function"
    },
    {
      "constant": false,
      "inputs": [],
      "name": "finishMinting",
      "outputs": [
        {
          "name": "",
          "type": "bool"
        }
      ],
      "payable": false,
      "stateMutability": "nonpayable",
      "type": "function"
    },
    {
      "constant": false,
      "inputs": [],
      "name": "renounceOwnership",
      "outputs": [],
      "payable": false,
      "stateMutability": "nonpayable",
      "type": "function"
    },
    {
      "constant": false,
      "inputs": [
        {
          "name": "_token",
          "type": "address"
        },
        {
          "name": "_to",
          "type": "address"
        }
      ],
      "name": "claimTokens",
      "outputs": [],
      "payable": false,
      "stateMutability": "nonpayable",
      "type": "function"
    }
  ],
  "bytecode": "0x60806040523480156200001157600080fd5b5060405162001a0638038062001a06833981018060405260608110156200003757600080fd5b8101908080516401000000008111156200005057600080fd5b820160208101848111156200006457600080fd5b81516401000000008111828201871017156200007f57600080fd5b505092919060200180516401000000008111156200009c57600080fd5b82016020810184811115620000b057600080fd5b8151640100000000811182820187101715620000cb57600080fd5b505060209182015185519194509250849184918491620000f1916003918601906200026d565b508151620001079060049060208501906200026d565b506005805460ff191660ff92909216919091179055506200013390503364010000000062000188810204565b60078054600160a060020a031916331790819055604051600160a060020a0391909116906000907f8be0079c531659141344cd1fd0a4f28419497f9722a3daafe3b4186f6b6457e0908290a350505062000312565b620001a3600682640100000000620015f1620001da82021704565b604051600160a060020a038216907f6ae172837ea30b801fbfcdd4108aa1d5bf8ff775444fd70256b44e6bf3dfc3f690600090a250565b600160a060020a0381161515620001f057600080fd5b62000205828264010000000062000235810204565b156200021057600080fd5b600160a060020a0316600090815260209190915260409020805460ff19166001179055565b6000600160a060020a03821615156200024d57600080fd5b50600160a060020a03166000908152602091909152604090205460ff1690565b828054600181600116156101000203166002900490600052602060002090601f016020900481019282601f10620002b057805160ff1916838001178555620002e0565b82800160010185558215620002e0579182015b82811115620002e0578251825591602001919060010190620002c3565b50620002ee929150620002f2565b5090565b6200030f91905b80821115620002ee5760008155600101620002f9565b90565b6116e480620003226000396000f3fe60806040526004361061015e5763ffffffff7c010000000000000000000000000000000000000000000000000000000060003504166306fdde038114610163578063095ea7b3146101ed5780630b26cf661461023a57806318160ddd1461026f57806323b872dd14610296578063313ce567146102d957806339509351146103045780634000aea01461033d57806340c10f19146103cf57806342966c681461040857806369ffa08a1461043257806370a082311461046d578063715018a6146104a057806379cc6790146104b55780637d64bcb4146104ee578063859ba28c146105035780638da5cb5b146105445780638f32d59b1461057557806395d89b411461058a578063983b2d561461059f57806398650275146105d2578063a457c2d7146105e7578063a9059cbb14610620578063aa271e1a14610659578063cd5965831461068c578063dd62ed3e146106a1578063f2fde38b146106dc575b600080fd5b34801561016f57600080fd5b5061017861070f565b6040805160208082528351818301528351919283929083019185019080838360005b838110156101b257818101518382015260200161019a565b50505050905090810190601f1680156101df5780820380516001836020036101000a031916815260200191505b509250505060405180910390f35b3480156101f957600080fd5b506102266004803603604081101561021057600080fd5b50600160a060020a0381351690602001356107a5565b604080519115158252519081900360200190f35b34801561024657600080fd5b5061026d6004803603602081101561025d57600080fd5b5035600160a060020a0316610811565b005b34801561027b57600080fd5b5061028461087a565b60408051918252519081900360200190f35b3480156102a257600080fd5b50610226600480360360608110156102b957600080fd5b50600160a060020a03813581169160208101359091169060400135610880565b3480156102e557600080fd5b506102ee610937565b6040805160ff9092168252519081900360200190f35b34801561031057600080fd5b506102266004803603604081101561032757600080fd5b50600160a060020a038135169060200135610940565b34801561034957600080fd5b506102266004803603606081101561036057600080fd5b600160a060020a038235169160208101359181019060608101604082013564010000000081111561039057600080fd5b8201836020820111156103a257600080fd5b803590602001918460018302840111640100000000831117156103c457600080fd5b5090925090506109de565b3480156103db57600080fd5b50610226600480360360408110156103f257600080fd5b50600160a060020a038135169060200135610a58565b34801561041457600080fd5b5061026d6004803603602081101561042b57600080fd5b5035610a81565b34801561043e57600080fd5b5061026d6004803603604081101561045557600080fd5b50600160a060020a0381358116916020013516610a8e565b34801561047957600080fd5b506102846004803603602081101561049057600080fd5b5035600160a060020a0316610c42565b3480156104ac57600080fd5b5061026d610c5d565b3480156104c157600080fd5b5061026d600480360360408110156104d857600080fd5b50600160a060020a038135169060200135610c70565b3480156104fa57600080fd5b50610226610c7a565b34801561050f57600080fd5b50610518610c81565b6040805167ffffffffffffffff9485168152928416602084015292168183015290519081900360600190f35b34801561055057600080fd5b50610559610c8b565b60408051600160a060020a039092168252519081900360200190f35b34801561058157600080fd5b50610226610c9a565b34801561059657600080fd5b50610178610cab565b3480156105ab57600080fd5b5061026d600480360360208110156105c257600080fd5b5035600160a060020a0316610d0c565b3480156105de57600080fd5b5061026d610d29565b3480156105f357600080fd5b506102266004803603604081101561060a57600080fd5b50600160a060020a038135169060200135610d34565b34801561062c57600080fd5b506102266004803603604081101561064357600080fd5b50600160a060020a038135169060200135610d7f565b34801561066557600080fd5b506102266004803603602081101561067c57600080fd5b5035600160a060020a0316610e35565b34801561069857600080fd5b50610559610e4e565b3480156106ad57600080fd5b50610284600480360360408110156106c457600080fd5b50600160a060020a0381358116916020013516610e5d565b3480156106e857600080fd5b5061026d600480360360208110156106ff57600080fd5b5035600160a060020a0316610e88565b60038054604080516020601f600260001961010060018816150201909516949094049384018190048102820181019092528281526060939092909183018282801561079b5780601f106107705761010080835404028352916020019161079b565b820191906000526020600020905b81548152906001019060200180831161077e57829003601f168201915b5050505050905090565b6000600160a060020a03831615156107bc57600080fd5b336000818152600160209081526040808320600160a060020a0388168085529083529281902086905580518681529051929392600080516020611699833981519152929181900390910190a350600192915050565b610819610c9a565b151561082457600080fd5b600160a060020a03811615801590610840575061084081610ea4565b151561084b57600080fd5b6008805473ffffffffffffffffffffffffffffffffffffffff1916600160a060020a0392909216919091179055565b60025490565b600160a060020a03831660009081526001602090815260408083203384529091528120546108b4908363ffffffff610eac16565b600160a060020a03851660009081526001602090815260408083203384529091529020556108e3848484610ec1565b600160a060020a038416600081815260016020908152604080832033808552908352928190205481519081529051929392600080516020611699833981519152929181900390910190a35060019392505050565b60055460ff1690565b6000600160a060020a038316151561095757600080fd5b336000908152600160209081526040808320600160a060020a038716845290915290205461098b908363ffffffff610f8e16565b336000818152600160209081526040808320600160a060020a038916808552908352928190208590558051948552519193600080516020611699833981519152929081900390910190a350600192915050565b600084600160a060020a03811615801590610a025750600160a060020a0381163014155b1515610a0d57600080fd5b610a4e868686868080601f016020809104026020016040519081016040528093929190818152602001838380828437600092019190915250610fa792505050565b9695505050505050565b6000610a6333610e35565b1515610a6e57600080fd5b610a788383611103565b50600192915050565b610a8b33826111ad565b50565b610a96610c9a565b1515610aa157600080fd5b600160a060020a0381161515610ab657600080fd5b600160a060020a0382161515610b05576040518190600160a060020a03821690303180156108fc02916000818181858888f19350505050158015610afe573d6000803e3d6000fd5b5050610c3e565b604080517f70a0823100000000000000000000000000000000000000000000000000000000815230600482015290518391600091600160a060020a038416916370a08231916024808301926020929190829003018186803b158015610b6957600080fd5b505afa158015610b7d573d6000803e3d6000fd5b505050506040513d6020811015610b9357600080fd5b5051604080517fa9059cbb000000000000000000000000000000000000000000000000000000008152600160a060020a0386811660048301526024820184905291519293509084169163a9059cbb916044808201926020929091908290030181600087803b158015610c0457600080fd5b505af1158015610c18573d6000803e3d6000fd5b505050506040513d6020811015610c2e57600080fd5b50511515610c3b57600080fd5b50505b5050565b600160a060020a031660009081526020819052604090205490565b610c65610c9a565b151561015e57600080fd5b610c3e8282611256565b6000806000fd5b6002600080909192565b600754600160a060020a031690565b600754600160a060020a0316331490565b60048054604080516020601f600260001961010060018816150201909516949094049384018190048102820181019092528281526060939092909183018282801561079b5780601f106107705761010080835404028352916020019161079b565b610d1533610e35565b1515610d2057600080fd5b610a8b81611306565b610d323361134e565b565b6000600160a060020a0383161515610d4b57600080fd5b336000908152600160209081526040808320600160a060020a038716845290915290205461098b908363ffffffff610eac16565b6000610d8b8383611396565b1515610d9657600080fd5b610d9f83610ea4565b8015610dc45750604080516000815260208101909152610dc290849084906113a2565b155b15610a7857600854600160a060020a0384811691161415610de457600080fd5b60408051338152600160a060020a038516602082015280820184905290517f11249f0fc79fc134a15a10d1da8291b79515bf987e036ced05b9ec119614070b9181900360600190a150600192915050565b6000610e4860068363ffffffff61153c16565b92915050565b600854600160a060020a031681565b600160a060020a03918216600090815260016020908152604080832093909416825291909152205490565b610e90610c9a565b1515610e9b57600080fd5b610a8b81611573565b6000903b1190565b600082821115610ebb57600080fd5b50900390565b600160a060020a0382161515610ed657600080fd5b600160a060020a038316600090815260208190526040902054610eff908263ffffffff610eac16565b600160a060020a038085166000908152602081905260408082209390935590841681522054610f34908263ffffffff610f8e16565b600160a060020a038084166000818152602081815260409182902094909455805185815290519193928716927fddf252ad1be2c89b69c2b068fc378daa952ba7f163c4a11628f55a4df523b3ef92918290030190a3505050565b600082820183811015610fa057600080fd5b9392505050565b6000610fb38484611396565b1515610fbe57600080fd5b83600160a060020a031633600160a060020a03167fe19260aff97b920c7df27010903aeb9c8d2be5d310a2c67824cf3f15396e4c1685856040518083815260200180602001828103825283818151815260200191508051906020019080838360005b83811015611038578181015183820152602001611020565b50505050905090810190601f1680156110655780820380516001836020036101000a031916815260200191505b50935050505060405180910390a361107c84610ea4565b156110f95761108c8484846113a2565b15156110f957604080517f08c379a000000000000000000000000000000000000000000000000000000000815260206004820152601860248201527f436f6e74726163742066616c6c6261636b206661696c65640000000000000000604482015290519081900360640190fd5b5060019392505050565b600160a060020a038216151561111857600080fd5b60025461112b908263ffffffff610f8e16565b600255600160a060020a038216600090815260208190526040902054611157908263ffffffff610f8e16565b600160a060020a0383166000818152602081815260408083209490945583518581529351929391927fddf252ad1be2c89b69c2b068fc378daa952ba7f163c4a11628f55a4df523b3ef9281900390910190a35050565b600160a060020a03821615156111c257600080fd5b6002546111d5908263ffffffff610eac16565b600255600160a060020a038216600090815260208190526040902054611201908263ffffffff610eac16565b600160a060020a038316600081815260208181526040808320949094558351858152935191937fddf252ad1be2c89b69c2b068fc378daa952ba7f163c4a11628f55a4df523b3ef929081900390910190a35050565b600160a060020a038216600090815260016020908152604080832033845290915290205461128a908263ffffffff610eac16565b600160a060020a03831660009081526001602090815260408083203384529091529020556112b882826111ad565b600160a060020a038216600081815260016020908152604080832033808552908352928190205481519081529051929392600080516020611699833981519152929181900390910190a35050565b61131760068263ffffffff6115f116565b604051600160a060020a038216907f6ae172837ea30b801fbfcdd4108aa1d5bf8ff775444fd70256b44e6bf3dfc3f690600090a250565b61135f60068263ffffffff61163f16565b604051600160a060020a038216907fe94479a9f7e1952cc78f2d6baab678adc1b772d936c6583def489e524cb6669290600090a250565b6000610fa0838361168b565b60008084600160a060020a03163385856040516024018084600160a060020a0316600160a060020a0316815260200183815260200180602001828103825283818151815260200191508051906020019080838360005b838110156114105781810151838201526020016113f8565b50505050905090810190601f16801561143d5780820380516001836020036101000a031916815260200191505b5060408051601f198184030181529181526020820180517bffffffffffffffffffffffffffffffffffffffffffffffffffffffff167fa4c0ed3600000000000000000000000000000000000000000000000000000000178152905182519297509550859450925090508083835b602083106114c95780518252601f1990920191602091820191016114aa565b6001836020036101000a0380198251168184511680821785525050505050509050019150506000604051808303816000865af19150503d806000811461152b576040519150601f19603f3d011682016040523d82523d6000602084013e611530565b606091505b50909695505050505050565b6000600160a060020a038216151561155357600080fd5b50600160a060020a03166000908152602091909152604090205460ff1690565b600160a060020a038116151561158857600080fd5b600754604051600160a060020a038084169216907f8be0079c531659141344cd1fd0a4f28419497f9722a3daafe3b4186f6b6457e090600090a36007805473ffffffffffffffffffffffffffffffffffffffff1916600160a060020a0392909216919091179055565b600160a060020a038116151561160657600080fd5b611610828261153c565b1561161a57600080fd5b600160a060020a0316600090815260209190915260409020805460ff19166001179055565b600160a060020a038116151561165457600080fd5b61165e828261153c565b151561166957600080fd5b600160a060020a0316600090815260209190915260409020805460ff19169055565b6000610a78338484610ec156fe8c5be1e5ebec7d5bd14f71427d1e84f3dd0314c0f7b2291e5b200ac8c7c3b925a165627a7a72305820c2bf8d0d6fcdbba711170f48c60ccd6ce46dba6ba114d4e69fcd54ff519d33a30029",
  "source": "pragma solidity ^0.5.0;\r\n\r\nimport \"openzeppelin-solidity/contracts/token/ERC20/ERC20Detailed.sol\";\r\nimport \"openzeppelin-solidity/contracts/token/ERC20/ERC20Mintable.sol\";\r\nimport \"openzeppelin-solidity/contracts/token/ERC20/ERC20Burnable.sol\";\r\nimport \"openzeppelin-solidity/contracts/ownership/Ownable.sol\";\r\nimport \"./IBurnableMintableERC677Token.sol\";\r\nimport \"./ERC677Receiver.sol\";\r\n\r\n\r\ncontract ERC677BridgeToken is\r\n    IBurnableMintableERC677Token,\r\n    ERC20Detailed,\r\n    ERC20Burnable,\r\n    ERC20Mintable,\r\n    Ownable {\r\n    \r\n    address public bridgeContract;\r\n\r\n    event ContractFallbackCallFailed(address from, address to, uint value);\r\n\r\n    constructor(\r\n        string memory _name,\r\n        string memory _symbol,\r\n        uint8 _decimals) \r\n    public ERC20Detailed(_name, _symbol, _decimals) {}\r\n\r\n    function setBridgeContract(address _bridgeContract) onlyOwner public {\r\n        require(_bridgeContract != address(0) && isContract(_bridgeContract));\r\n        bridgeContract = _bridgeContract;\r\n    }\r\n\r\n    modifier validRecipient(address _recipient) {\r\n        require(_recipient != address(0) && _recipient != address(this));\r\n        _;\r\n    }\r\n\r\n    function transferAndCall(address _to, uint _value, bytes calldata _data)\r\n        external validRecipient(_to) returns (bool)\r\n    {        \r\n        return _transferAndCall(_to,_value,_data);\r\n        \r\n    }\r\n    function _transferAndCall(address _to, uint _value, bytes memory _data)\r\n        internal returns (bool)\r\n    {           \r\n        require(superTransfer(_to, _value));\r\n        emit Transfer(msg.sender, _to, _value, _data);\r\n        if (isContract(_to)) {\r\n            require(contractFallback(_to, _value, _data), \"Contract fallback failed\");\r\n        }\r\n        return true;\r\n    }\r\n    function getTokenInterfacesVersion() public pure returns(uint64 major, uint64 minor, uint64 patch) {\r\n        return (2, 0, 0);\r\n    }\r\n\r\n    function superTransfer(address _to, uint256 _value) internal returns(bool)\r\n    {\r\n        return super.transfer(_to, _value);\r\n    }\r\n\r\n    function transfer(address _to, uint256 _value) public returns (bool)\r\n    {\r\n        require(superTransfer(_to, _value));\r\n        if (isContract(_to) && !contractFallback(_to, _value, new bytes(0))) {\r\n            if (_to == bridgeContract) {\r\n                revert();\r\n            } else {\r\n                emit ContractFallbackCallFailed(msg.sender, _to, _value);\r\n            }\r\n        }\r\n        return true;\r\n    }\r\n\r\n    function contractFallback(address _to, uint _value, bytes memory _data)\r\n        private\r\n        returns(bool)\r\n    {\r\n        (bool res,) = _to.call(abi.encodeWithSignature(\"onTokenTransfer(address,uint256,bytes)\",  msg.sender, _value, _data));\r\n        return res;\r\n    }\r\n\r\n    function isContract(address _addr)\r\n        private\r\n        view\r\n        returns (bool)\r\n    {\r\n        uint length;\r\n        assembly { length := extcodesize(_addr) }\r\n        return length > 0;\r\n    }\r\n\r\n    function finishMinting() public returns (bool) {\r\n        revert();\r\n    }\r\n\r\n    function renounceOwnership() public onlyOwner {\r\n        revert();\r\n    }\r\n\r\n    function claimTokens(address _token, address _to) public onlyOwner {\r\n        require(_to != address(0));\r\n        if (_token == address(0)) {\r\n            address payable to = address(uint160(_to));\r\n\t\t\tto.transfer(address(this).balance);\r\n\t\t\treturn;\r\n        }\r\n\r\n        ERC20Detailed token = ERC20Detailed(_token);\r\n        uint256 balance = token.balanceOf(address(this));\r\n        require(token.transfer(_to, balance));\r\n    }\r\n\r\n\r\n}\r\n",
  "sourcePath": "C:\\Users\\hadarro\\Documents\\GoodDollar\\GoodBootstrap\\packages\\contracts\\contracts\\token\\ERC677BridgeToken.sol",
  "compiler": {
    "name": "solc",
    "version": "0.5.0+commit.1d4f565a.Emscripten.clang"
  },
  "schemaVersion": "3.0.1",
  "updatedAt": "2019-03-28T11:44:49.169Z",
  "devdoc": {
    "methods": {
      "allowance(address,address)": {
        "details": "Function to check the amount of tokens that an owner allowed to a spender.",
        "params": {
          "owner": "address The address which owns the funds.",
          "spender": "address The address which will spend the funds."
        },
        "return": "A uint256 specifying the amount of tokens still available for the spender."
      },
      "approve(address,uint256)": {
        "details": "Approve the passed address to spend the specified amount of tokens on behalf of msg.sender. Beware that changing an allowance with this method brings the risk that someone may use both the old and the new allowance by unfortunate transaction ordering. One possible solution to mitigate this race condition is to first reduce the spender's allowance to 0 and set the desired value afterwards: https://github.com/ethereum/EIPs/issues/20#issuecomment-263524729",
        "params": {
          "spender": "The address which will spend the funds.",
          "value": "The amount of tokens to be spent."
        }
      },
      "balanceOf(address)": {
        "details": "Gets the balance of the specified address.",
        "params": {
          "owner": "The address to query the balance of."
        },
        "return": "An uint256 representing the amount owned by the passed address."
      },
      "burn(uint256)": {
        "details": "Burns a specific amount of tokens.",
        "params": {
          "value": "The amount of token to be burned."
        }
      },
      "burnFrom(address,uint256)": {
        "details": "Burns a specific amount of tokens from the target address and decrements allowance",
        "params": {
          "from": "address The address which you want to send tokens from",
          "value": "uint256 The amount of token to be burned"
        }
      },
      "decimals()": {
        "return": "the number of decimals of the token."
      },
      "decreaseAllowance(address,uint256)": {
        "details": "Decrease the amount of tokens that an owner allowed to a spender. approve should be called when allowed_[_spender] == 0. To decrement allowed value is better to use this function to avoid 2 calls (and wait until the first transaction is mined) From MonolithDAO Token.sol Emits an Approval event.",
        "params": {
          "spender": "The address which will spend the funds.",
          "subtractedValue": "The amount of tokens to decrease the allowance by."
        }
      },
      "increaseAllowance(address,uint256)": {
        "details": "Increase the amount of tokens that an owner allowed to a spender. approve should be called when allowed_[_spender] == 0. To increment allowed value is better to use this function to avoid 2 calls (and wait until the first transaction is mined) From MonolithDAO Token.sol Emits an Approval event.",
        "params": {
          "addedValue": "The amount of tokens to increase the allowance by.",
          "spender": "The address which will spend the funds."
        }
      },
      "isOwner()": {
        "return": "true if `msg.sender` is the owner of the contract."
      },
      "mint(address,uint256)": {
        "details": "Function to mint tokens",
        "params": {
          "to": "The address that will receive the minted tokens.",
          "value": "The amount of tokens to mint."
        },
        "return": "A boolean that indicates if the operation was successful."
      },
      "name()": {
        "return": "the name of the token."
      },
      "owner()": {
        "return": "the address of the owner."
      },
      "symbol()": {
        "return": "the symbol of the token."
      },
      "totalSupply()": {
        "details": "Total number of tokens in existence"
      },
      "transferFrom(address,address,uint256)": {
        "details": "Transfer tokens from one address to another. Note that while this function emits an Approval event, this is not required as per the specification, and other compliant implementations may not emit the event.",
        "params": {
          "from": "address The address which you want to send tokens from",
          "to": "address The address which you want to transfer to",
          "value": "uint256 the amount of tokens to be transferred"
        }
      },
      "transferOwnership(address)": {
        "details": "Allows the current owner to transfer control of the contract to a newOwner.",
        "params": {
          "newOwner": "The address to transfer ownership to."
        }
      }
    }
  },
  "userdoc": {
    "methods": {}
  }
}