{
  "contractName": "ExpArray",
  "abi": [
    {
      "inputs": [],
      "payable": false,
      "stateMutability": "nonpayable",
      "type": "constructor"
    },
    {
      "constant": true,
      "inputs": [
        {
          "name": "_val",
          "type": "uint8"
        }
      ],
      "name": "searchArray",
      "outputs": [
        {
          "name": "",
          "type": "uint256"
        }
      ],
      "payable": false,
      "stateMutability": "view",
      "type": "function"
    }
  ],
  "bytecode": "0x608060405234801561001057600080fd5b506001606060020a641c35fedd1502036020556001605e60020a646c3390ecc902036021556001606160020a640cf801476102036022556001605f60020a6431bdb23e1d02036023556001605b60020a6502fb1d8fe08302036024556001605a60020a6505b771955b3702036025556001605960020a650af67a93bb5102036026556001605860020a6515060c256cb302036027556001605860020a651428a2f98d7302036028556001605660020a654d515663970902036029556001605560020a65944620b0e70f0203602a557011c592761c666fffffffffffffffffffff602b5570110a688680a757ffffffffffffffffffff602c55701056f1b5bedf77ffffffffffffffffffff602d55700faadceceeff8bffffffffffffffffffff602e55700f05dc6b27edadffffffffffffffffffff602f55700e67a5a25da4107fffffffffffffffffff603055700dcff115b14eedffffffffffffffffffff603155700d3e7a392431239fffffffffffffffffff603255700cb2ff529eb71e4fffffffffffffffffff603355700c2d415c3db974afffffffffffffffffff603455700bad03e7d883f69bffffffffffffffffff603555700b320d03b2c343d5ffffffffffffffffff603655700abc25204e02828dffffffffffffffffff603755700a4b16f74ee4bb207fffffffffffffffff6038557009deaf736ac1f569ffffffffffffffffff603955700976bd9952c7aa957fffffffffffffffff603a557009131271922eaa606fffffffffffffffff603b557008b380f3558668c46fffffffffffffffff603c55700857ddf0117efa215bffffffffffffffff603d556001608360020a03603e557007abbf6f6abb9d087fffffffffffffffff603f5570075af62cbac95f7dfa7fffffffffffffff60405570070d7fb7452e187ac13fffffffffffffff6041557006c3390ecc8af379295fffffffffffffff60425570067c00a3b07ffc01fd6fffffffffffffff604355700637b647c39cbb9d3d27ffffffffffffff6044557005f63b1fc104dbd39587ffffffffffffff6045557005b771955b36e12f7235ffffffffffffff60465570057b3d49dda84556d6f6ffffffffffffff60475570054183095b2c8ececf30ffffffffffffff60485570050a28be635ca2b888f77fffffffffffff6049557004d5156639708c9db33c3fffffffffffff604a557004a23105873875bd52dfdfffffffffffff604b55700471649d87199aa990756fffffffffffff604c557004429a21a029d4c1457cfbffffffffffff604d5560bc806103c16000396000f3fe6080604052348015600f57600080fd5b50600436106044577c01000000000000000000000000000000000000000000000000000000006000350463ef2244c281146049575b600080fd5b606660048036036020811015605d57600080fd5b503560ff166078565b60408051918252519081900360200190f35b60008060ff8316604e8110608857fe5b01549291505056fea165627a7a723058200f0fb5b86bdc764ccef75ea11282c3c6210c118997a4296d6f16c0da9a5eebec0029",
  "source": "pragma solidity ^0.5.0;\n\ncontract ExpArray {\n    uint256[78] private maxExpArray;\n    constructor() public {\n        maxExpArray[ 32] = 0x1c35fedd14ffffffffffffffffffffffff;\n        maxExpArray[ 33] = 0x1b0ce43b323fffffffffffffffffffffff;\n        maxExpArray[ 34] = 0x19f0028ec1ffffffffffffffffffffffff;\n        maxExpArray[ 35] = 0x18ded91f0e7fffffffffffffffffffffff;\n        maxExpArray[ 36] = 0x17d8ec7f0417ffffffffffffffffffffff;\n        maxExpArray[ 37] = 0x16ddc6556cdbffffffffffffffffffffff;\n        maxExpArray[ 38] = 0x15ecf52776a1ffffffffffffffffffffff;\n        maxExpArray[ 39] = 0x15060c256cb2ffffffffffffffffffffff;\n        maxExpArray[ 40] = 0x1428a2f98d72ffffffffffffffffffffff;\n        maxExpArray[ 41] = 0x13545598e5c23fffffffffffffffffffff;\n        maxExpArray[ 42] = 0x1288c4161ce1dfffffffffffffffffffff;\n        maxExpArray[ 43] = 0x11c592761c666fffffffffffffffffffff;\n        maxExpArray[ 44] = 0x110a688680a757ffffffffffffffffffff;\n        maxExpArray[ 45] = 0x1056f1b5bedf77ffffffffffffffffffff;\n        maxExpArray[ 46] = 0x0faadceceeff8bffffffffffffffffffff;\n        maxExpArray[ 47] = 0x0f05dc6b27edadffffffffffffffffffff;\n        maxExpArray[ 48] = 0x0e67a5a25da4107fffffffffffffffffff;\n        maxExpArray[ 49] = 0x0dcff115b14eedffffffffffffffffffff;\n        maxExpArray[ 50] = 0x0d3e7a392431239fffffffffffffffffff;\n        maxExpArray[ 51] = 0x0cb2ff529eb71e4fffffffffffffffffff;\n        maxExpArray[ 52] = 0x0c2d415c3db974afffffffffffffffffff;\n        maxExpArray[ 53] = 0x0bad03e7d883f69bffffffffffffffffff;\n        maxExpArray[ 54] = 0x0b320d03b2c343d5ffffffffffffffffff;\n        maxExpArray[ 55] = 0x0abc25204e02828dffffffffffffffffff;\n        maxExpArray[ 56] = 0x0a4b16f74ee4bb207fffffffffffffffff;\n        maxExpArray[ 57] = 0x09deaf736ac1f569ffffffffffffffffff;\n        maxExpArray[ 58] = 0x0976bd9952c7aa957fffffffffffffffff;\n        maxExpArray[ 59] = 0x09131271922eaa606fffffffffffffffff;\n        maxExpArray[ 60] = 0x08b380f3558668c46fffffffffffffffff;\n        maxExpArray[ 61] = 0x0857ddf0117efa215bffffffffffffffff;\n        maxExpArray[ 62] = 0x07ffffffffffffffffffffffffffffffff;\n        maxExpArray[ 63] = 0x07abbf6f6abb9d087fffffffffffffffff;\n        maxExpArray[ 64] = 0x075af62cbac95f7dfa7fffffffffffffff;\n        maxExpArray[ 65] = 0x070d7fb7452e187ac13fffffffffffffff;\n        maxExpArray[ 66] = 0x06c3390ecc8af379295fffffffffffffff;\n        maxExpArray[ 67] = 0x067c00a3b07ffc01fd6fffffffffffffff;\n        maxExpArray[ 68] = 0x0637b647c39cbb9d3d27ffffffffffffff;\n        maxExpArray[ 69] = 0x05f63b1fc104dbd39587ffffffffffffff;\n        maxExpArray[ 70] = 0x05b771955b36e12f7235ffffffffffffff;\n        maxExpArray[ 71] = 0x057b3d49dda84556d6f6ffffffffffffff;\n        maxExpArray[ 72] = 0x054183095b2c8ececf30ffffffffffffff;\n        maxExpArray[ 73] = 0x050a28be635ca2b888f77fffffffffffff;\n        maxExpArray[ 74] = 0x04d5156639708c9db33c3fffffffffffff;\n        maxExpArray[ 75] = 0x04a23105873875bd52dfdfffffffffffff;\n        maxExpArray[ 76] = 0x0471649d87199aa990756fffffffffffff;\n        maxExpArray[ 77] = 0x04429a21a029d4c1457cfbffffffffffff;\n    }\n\n    function searchArray(uint8 _val) public view returns(uint256) {\n        return maxExpArray[_val];\n    }\n}\n",
  "sourcePath": "/Users/hadar/workspace/GoodDollar/GoodBootstrap/packages/contracts/contracts/ExpArray.sol",
  "compiler": {
    "name": "solc",
    "version": "0.5.2+commit.1df8f40c.Emscripten.clang"
  },
  "schemaVersion": "3.0.9",
  "updatedAt": "2019-08-11T06:29:10.831Z",
  "devdoc": {
    "methods": {}
  },
  "userdoc": {
    "methods": {}
  }
}