{
  "contractName": "FeeFormula",
  "abi": [
    {
      "inputs": [
        {
          "internalType": "uint256",
          "name": "_percentage",
          "type": "uint256"
        }
      ],
      "payable": false,
      "stateMutability": "nonpayable",
      "type": "constructor"
    },
    {
      "anonymous": false,
      "inputs": [
        {
          "indexed": true,
          "internalType": "address",
          "name": "previousOwner",
          "type": "address"
        },
        {
          "indexed": true,
          "internalType": "address",
          "name": "newOwner",
          "type": "address"
        }
      ],
      "name": "OwnershipTransferred",
      "type": "event"
    },
    {
      "constant": true,
      "inputs": [],
      "name": "isOwner",
      "outputs": [
        {
          "internalType": "bool",
          "name": "",
          "type": "bool"
        }
      ],
      "payable": false,
      "stateMutability": "view",
      "type": "function"
    },
    {
      "constant": true,
      "inputs": [],
      "name": "isRegistered",
      "outputs": [
        {
          "internalType": "bool",
          "name": "",
          "type": "bool"
        }
      ],
      "payable": false,
      "stateMutability": "view",
      "type": "function"
    },
    {
      "constant": true,
      "inputs": [
        {
          "internalType": "address",
          "name": "scheme",
          "type": "address"
        }
      ],
      "name": "isRegistered",
      "outputs": [
        {
          "internalType": "bool",
          "name": "",
          "type": "bool"
        }
      ],
      "payable": false,
      "stateMutability": "view",
      "type": "function"
    },
    {
      "constant": true,
      "inputs": [],
      "name": "owner",
      "outputs": [
        {
          "internalType": "address",
          "name": "",
          "type": "address"
        }
      ],
      "payable": false,
      "stateMutability": "view",
      "type": "function"
    },
    {
      "constant": true,
      "inputs": [],
      "name": "percentage",
      "outputs": [
        {
          "internalType": "uint256",
          "name": "",
          "type": "uint256"
        }
      ],
      "payable": false,
      "stateMutability": "view",
      "type": "function"
    },
    {
      "constant": false,
      "inputs": [],
      "name": "renounceOwnership",
      "outputs": [],
      "payable": false,
      "stateMutability": "nonpayable",
      "type": "function"
    },
    {
      "constant": true,
      "inputs": [],
      "name": "senderPays",
      "outputs": [
        {
          "internalType": "bool",
          "name": "",
          "type": "bool"
        }
      ],
      "payable": false,
      "stateMutability": "view",
      "type": "function"
    },
    {
      "constant": false,
      "inputs": [
        {
          "internalType": "contract Avatar",
          "name": "_avatar",
          "type": "address"
        }
      ],
      "name": "setAvatar",
      "outputs": [],
      "payable": false,
      "stateMutability": "nonpayable",
      "type": "function"
    },
    {
      "constant": false,
      "inputs": [
        {
          "internalType": "address",
          "name": "newOwner",
          "type": "address"
        }
      ],
      "name": "transferOwnership",
      "outputs": [],
      "payable": false,
      "stateMutability": "nonpayable",
      "type": "function"
    },
    {
      "constant": true,
      "inputs": [
        {
          "internalType": "uint256",
          "name": "_value",
          "type": "uint256"
        },
        {
          "internalType": "address",
          "name": "_sender",
          "type": "address"
        },
        {
          "internalType": "address",
          "name": "_recipient",
          "type": "address"
        }
      ],
      "name": "getTxFees",
      "outputs": [
        {
          "internalType": "uint256",
          "name": "",
          "type": "uint256"
        },
        {
          "internalType": "bool",
          "name": "",
          "type": "bool"
        }
      ],
      "payable": false,
      "stateMutability": "view",
      "type": "function"
    }
  ],
  "bytecode": "0x6080604052600280546001600160a01b031916905534801561002057600080fd5b506040516107133803806107138339818101604052602081101561004357600080fd5b5051600080546001600160a01b03191633178082556040516001600160a01b03919091169082907f8be0079c531659141344cd1fd0a4f28419497f9722a3daafe3b4186f6b6457e0908290a3600180546001600160a01b0319166001600160a01b038381169190911791829055161561015057600160009054906101000a90046001600160a01b03166001600160a01b0316638da5cb5b6040518163ffffffff1660e01b815260040160206040518083038186803b15801561010457600080fd5b505afa158015610118573d6000803e3d6000fd5b505050506040513d602081101561012e57600080fd5b5051600280546001600160a01b0319166001600160a01b039092169190911790555b50606481106101a6576040805162461bcd60e51b815260206004820152601960248201527f50657263656e746167652073686f756c64206265203c31303000000000000000604482015290519081900360640190fd5b60035561055b806101b86000396000f3fe608060405234801561001057600080fd5b506004361061009e5760003560e01c80638f32d59b116100665780638f32d59b14610160578063c3c5a54714610168578063c78ad77f1461018e578063e662c7f5146101a8578063f2fde38b146101b05761009e565b8063086cfca8146100a357806322366844146100cb5780633ddaa806146100e7578063715018a6146101345780638da5cb5b1461013c575b600080fd5b6100c9600480360360208110156100b957600080fd5b50356001600160a01b03166101d6565b005b6100d3610291565b604080519115158252519081900360200190f35b61011b600480360360608110156100fd57600080fd5b508035906001600160a01b03602082013581169160400135166102a1565b6040805192835290151560208301528051918290030190f35b6100c96102d6565b610144610331565b604080516001600160a01b039092168252519081900360200190f35b6100d3610340565b6100d36004803603602081101561017e57600080fd5b50356001600160a01b0316610351565b61019661043e565b60408051918252519081900360200190f35b6100d3610444565b6100c9600480360360208110156101c657600080fd5b50356001600160a01b0316610449565b6101de610340565b6101e757600080fd5b600180546001600160a01b0319166001600160a01b03838116919091179182905560408051638da5cb5b60e01b815290519290911691638da5cb5b91600480820192602092909190829003018186803b15801561024357600080fd5b505afa158015610257573d6000803e3d6000fd5b505050506040513d602081101561026d57600080fd5b5051600280546001600160a01b0319166001600160a01b0390921691909117905550565b600061029c30610351565b905090565b6000806102ca60646102be6003548861046690919063ffffffff16565b9063ffffffff61049616565b95600095509350505050565b6102de610340565b6102e757600080fd5b600080546040516001600160a01b03909116907f8be0079c531659141344cd1fd0a4f28419497f9722a3daafe3b4186f6b6457e0908390a3600080546001600160a01b0319169055565b6000546001600160a01b031690565b6000546001600160a01b0316331490565b6001546000906001600160a01b03166103a5576040805162461bcd60e51b8152602060048201526011602482015270105d985d185c881a5cc81b9bdd081cd95d607a1b604482015290519081900360640190fd5b60025460015460408051639be2faed60e01b81526001600160a01b038681166004830152928316602482015290519190921691639be2faed916044808301926020929190829003018186803b1580156103fd57600080fd5b505afa158015610411573d6000803e3d6000fd5b505050506040513d602081101561042757600080fd5b505161043557506000610439565b5060015b919050565b60035481565b600081565b610451610340565b61045a57600080fd5b610463816104b8565b50565b60008261047557506000610490565b8282028284828161048257fe5b041461048d57600080fd5b90505b92915050565b60008082116104a457600080fd5b60008284816104af57fe5b04949350505050565b6001600160a01b0381166104cb57600080fd5b600080546040516001600160a01b03808516939216917f8be0079c531659141344cd1fd0a4f28419497f9722a3daafe3b4186f6b6457e091a3600080546001600160a01b0319166001600160a01b039290921691909117905556fea265627a7a723158208f9e0c964e64b10f9b4413e278aa30d08a5a9985418ca73f70294e2d4c36543464736f6c63430005100032",
  "source": "pragma solidity >0.5.4;\n\nimport \"openzeppelin-solidity/contracts/math/SafeMath.sol\";\nimport \"@daostack/arc/contracts/controller/Avatar.sol\";\n\nimport \"./SchemeGuard.sol\";\n\n/**\n * @title Fee formula abstract contract\n */\ncontract AbstractFees is SchemeGuard {\n    constructor() public SchemeGuard(Avatar(0)) {}\n\n    function getTxFees(\n        uint256 _value,\n        address _sender,\n        address _recipient\n    ) public view returns (uint256, bool);\n}\n\n/**\n * @title Fee formula contract\n * contract that provides a function to calculate\n * fees as a percentage of any given value\n */\ncontract FeeFormula is AbstractFees {\n    using SafeMath for uint256;\n\n    uint256 public percentage;\n    bool public constant senderPays = false;\n\n    /**\n     * @dev Constructor. Requires the given percentage parameter\n     * to be less than 100.\n     * @param _percentage the percentage to calculate fees of\n     */\n    constructor(uint256 _percentage) public {\n        require(_percentage < 100, \"Percentage should be <100\");\n        percentage = _percentage;\n    }\n\n    /**  @dev calculates the fee of given value.\n     * @param _value the value of the transaction to calculate fees from\n     * @param _sender address sending.\n     *  @param _recipient address receiving.\n     * @return the transactional fee for given value\n     */\n    function getTxFees(\n        uint256 _value,\n        address _sender,\n        address _recipient\n    ) public view returns (uint256, bool) {\n        return (_value.mul(percentage).div(100), senderPays);\n    }\n}\n",
  "sourcePath": "/Users/hadar/workspace/GoodDollar/GoodBootstrap/packages/contracts/contracts/dao/schemes/FeeFormula.sol",
  "compiler": {
    "name": "solc",
    "version": "0.5.16+commit.9c3226ce.Emscripten.clang"
  },
  "schemaVersion": "3.2.3",
  "updatedAt": "2021-01-27T19:47:37.772Z",
  "networkType": "ethereum",
  "devdoc": {
    "methods": {
      "constructor": {
        "details": "Constructor. Requires the given percentage parameter to be less than 100.",
        "params": {
          "_percentage": "the percentage to calculate fees of"
        }
      },
      "getTxFees(uint256,address,address)": {
        "details": "calculates the fee of given value.",
        "params": {
          "_recipient": "address receiving.",
          "_sender": "address sending.",
          "_value": "the value of the transaction to calculate fees from"
        },
        "return": "the transactional fee for given value"
      },
      "isOwner()": {
        "return": "true if `msg.sender` is the owner of the contract."
      },
      "isRegistered()": {
        "details": "function to see if an avatar has been set and if this scheme is registered",
        "return": "true if scheme is registered"
      },
      "isRegistered(address)": {
        "details": "function to see if an avatar has been set and if this scheme is registered",
        "return": "true if scheme is registered"
      },
      "owner()": {
        "return": "the address of the owner."
      },
      "renounceOwnership()": {
        "details": "Allows the current owner to relinquish control of the contract."
      },
      "setAvatar(address)": {
        "details": "Function to set a new avatar and controller for scheme can only be done by owner of scheme"
      },
      "transferOwnership(address)": {
        "details": "Allows the current owner to transfer control of the contract to a newOwner.",
        "params": {
          "newOwner": "The address to transfer ownership to."
        }
      }
    },
    "title": "Fee formula contract contract that provides a function to calculate fees as a percentage of any given value"
  },
  "userdoc": {
    "methods": {
      "renounceOwnership()": {
        "notice": "Renouncing to ownership will leave the contract without an owner. It will not be possible to call the functions with the `onlyOwner` modifier anymore."
      }
    }
  }
}