{
  "contractName": "FeeFormula",
  "abi": [
    {
      "constant": false,
      "inputs": [
        {
          "name": "_avatar",
          "type": "address"
        }
      ],
      "name": "setAvatar",
      "outputs": [],
      "payable": false,
      "stateMutability": "nonpayable",
      "type": "function"
    },
    {
      "constant": true,
      "inputs": [],
      "name": "isRegistered",
      "outputs": [],
      "payable": false,
      "stateMutability": "view",
      "type": "function"
    },
    {
      "constant": false,
      "inputs": [],
      "name": "renounceOwnership",
      "outputs": [],
      "payable": false,
      "stateMutability": "nonpayable",
      "type": "function"
    },
    {
      "constant": true,
      "inputs": [],
      "name": "owner",
      "outputs": [
        {
          "name": "",
          "type": "address"
        }
      ],
      "payable": false,
      "stateMutability": "view",
      "type": "function"
    },
    {
      "constant": true,
      "inputs": [],
      "name": "isOwner",
      "outputs": [
        {
          "name": "",
          "type": "bool"
        }
      ],
      "payable": false,
      "stateMutability": "view",
      "type": "function"
    },
    {
      "constant": false,
      "inputs": [
        {
          "name": "newOwner",
          "type": "address"
        }
      ],
      "name": "transferOwnership",
      "outputs": [],
      "payable": false,
      "stateMutability": "nonpayable",
      "type": "function"
    },
    {
      "anonymous": false,
      "inputs": [
        {
          "indexed": true,
          "name": "previousOwner",
          "type": "address"
        },
        {
          "indexed": true,
          "name": "newOwner",
          "type": "address"
        }
      ],
      "name": "OwnershipTransferred",
      "type": "event"
    },
    {
      "constant": true,
      "inputs": [
        {
          "name": "_value",
          "type": "uint256"
        }
      ],
      "name": "getTxFees",
      "outputs": [
        {
          "name": "",
          "type": "uint256"
        }
      ],
      "payable": false,
      "stateMutability": "view",
      "type": "function"
    }
  ],
  "bytecode": "0x6080604081905260028054600160a060020a03199081169091556000805490911633178082559091600160a060020a03919091169082907f8be0079c531659141344cd1fd0a4f28419497f9722a3daafe3b4186f6b6457e0908290a360018054600160a060020a031916600160a060020a038381169190911791829055161561013857600160009054906101000a9004600160a060020a0316600160a060020a0316638da5cb5b6040518163ffffffff167c010000000000000000000000000000000000000000000000000000000002815260040160206040518083038186803b1580156100ec57600080fd5b505afa158015610100573d6000803e3d6000fd5b505050506040513d602081101561011657600080fd5b505160028054600160a060020a031916600160a060020a039092169190911790555b5061074d806101486000396000f3fe608060405234801561001057600080fd5b50600436106100815760003560e060020a900480638da5cb5b1161005f5780638da5cb5b146100be5780638f32d59b146100e2578063cb733bb9146100fe578063f2fde38b1461012d57610081565b8063086cfca81461008657806322366844146100ae578063715018a6146100b6575b600080fd5b6100ac6004803603602081101561009c57600080fd5b5035600160a060020a0316610153565b005b6100ac610412565b6100ac610595565b6100c66105ff565b60408051600160a060020a039092168252519081900360200190f35b6100ea61060e565b604080519115158252519081900360200190f35b61011b6004803603602081101561011457600080fd5b503561061f565b60408051918252519081900360200190f35b6100ac6004803603602081101561014357600080fd5b5035600160a060020a0316610638565b8033600160a060020a038216148015610263575030600160a060020a0316638da5cb5b6040518163ffffffff1660e060020a02815260040160206040518083038186803b1580156101a357600080fd5b505afa1580156101b7573d6000803e3d6000fd5b505050506040513d60208110156101cd57600080fd5b5051604080517f8da5cb5b0000000000000000000000000000000000000000000000000000000081529051600160a060020a0392831692841691638da5cb5b916004808301926020929190829003018186803b15801561022c57600080fd5b505afa158015610240573d6000803e3d6000fd5b505050506040513d602081101561025657600080fd5b5051600160a060020a0316145b806102dd575030600160a060020a0316638da5cb5b6040518163ffffffff1660e060020a02815260040160206040518083038186803b1580156102a557600080fd5b505afa1580156102b9573d6000803e3d6000fd5b505050506040513d60208110156102cf57600080fd5b5051600160a060020a031633145b1515610334576040517f08c379a00000000000000000000000000000000000000000000000000000000081526004018080602001828103825260298152602001806106f96029913960400191505060405180910390fd5b6001805473ffffffffffffffffffffffffffffffffffffffff1916600160a060020a038481169190911791829055604080517f8da5cb5b00000000000000000000000000000000000000000000000000000000815290519290911691638da5cb5b91600480820192602092909190829003018186803b1580156103b657600080fd5b505afa1580156103ca573d6000803e3d6000fd5b505050506040513d60208110156103e057600080fd5b50516002805473ffffffffffffffffffffffffffffffffffffffff1916600160a060020a039092169190911790555050565b600154600160a060020a0316151561048b57604080517f08c379a000000000000000000000000000000000000000000000000000000000815260206004820152601160248201527f417661746172206973206e6f7420736574000000000000000000000000000000604482015290519081900360640190fd5b600254600154604080517f9be2faed000000000000000000000000000000000000000000000000000000008152306004820152600160a060020a03928316602482015290519190921691639be2faed916044808301926020929190829003018186803b1580156104fa57600080fd5b505afa15801561050e573d6000803e3d6000fd5b505050506040513d602081101561052457600080fd5b5051151561059357604080517f08c379a000000000000000000000000000000000000000000000000000000000815260206004820152601860248201527f536368656d65206973206e6f7420726567697374657265640000000000000000604482015290519081900360640190fd5b565b61059d61060e565b15156105a857600080fd5b60008054604051600160a060020a03909116907f8be0079c531659141344cd1fd0a4f28419497f9722a3daafe3b4186f6b6457e0908390a36000805473ffffffffffffffffffffffffffffffffffffffff19169055565b600054600160a060020a031690565b600054600160a060020a0316331490565b600061063282606463ffffffff61065716565b92915050565b61064061060e565b151561064b57600080fd5b6106548161067b565b50565b600080821161066557600080fd5b6000828481151561067257fe5b04949350505050565b600160a060020a038116151561069057600080fd5b60008054604051600160a060020a03808516939216917f8be0079c531659141344cd1fd0a4f28419497f9722a3daafe3b4186f6b6457e091a36000805473ffffffffffffffffffffffffffffffffffffffff1916600160a060020a039290921691909117905556fe4f6e6c792063616c6c61626c6520627920617661746172206f66206f776e6572206f72206f776e6572a165627a7a72305820105c7488ef12495f6b8a850a9fe0845d5ac9282a9d75707a20142134ac294c1c0029",
  "source": "pragma solidity 0.5.4;\n\nimport \"openzeppelin-solidity/contracts/math/SafeMath.sol\";\nimport \"@daostack/arc/contracts/controller/Avatar.sol\";\n\nimport \"./SchemeGuard.sol\";\n\n/* @title Fee formula contract\n * GoodDollar token is always initiated with a given fee formula, \n * whereof getTxFees is the only assumed function\n */\ncontract AbstractFees is SchemeGuard {\n    constructor () public SchemeGuard(Avatar(0)) {}\n\n    function getTxFees(uint256 _value) public view returns (uint256);\n}\n\ncontract FeeFormula is AbstractFees {\n    using SafeMath for uint256;\n\n    /* @dev calculates 1 percentage fee of given value. Must be registered as a scheme.\n     * @param _value the value to calculate fees from\n     * @return the transactional fee for given value\n     */\n    function getTxFees(uint256 _value) public view returns (uint256) {\n        return _value.div(100);\n    }\n}",
  "sourcePath": "/Users/madsjorgensen/Documents/Work/GoodContracts/contracts/dao/schemes/FeeFormula.sol",
  "compiler": {
    "name": "solc",
    "version": "0.5.4+commit.9549d8ff.Emscripten.clang"
  },
  "schemaVersion": "3.0.11",
  "updatedAt": "2019-09-23T09:00:37.438Z",
  "devdoc": {
    "methods": {
      "isOwner()": {
        "return": "true if `msg.sender` is the owner of the contract."
      },
      "owner()": {
        "return": "the address of the owner."
      },
      "renounceOwnership()": {
        "details": "Allows the current owner to relinquish control of the contract."
      },
      "transferOwnership(address)": {
        "details": "Allows the current owner to transfer control of the contract to a newOwner.",
        "params": {
          "newOwner": "The address to transfer ownership to."
        }
      }
    }
  },
  "userdoc": {
    "methods": {
      "renounceOwnership()": {
        "notice": "Renouncing to ownership will leave the contract without an owner. It will not be possible to call the functions with the `onlyOwner` modifier anymore."
      }
    }
  }
}