{
  "contractName": "FeeFormula",
  "abi": [
    {
      "constant": false,
      "inputs": [
        {
          "name": "_avatar",
          "type": "address"
        }
      ],
      "name": "setAvatar",
      "outputs": [],
      "payable": false,
      "stateMutability": "nonpayable",
      "type": "function"
    },
    {
      "constant": true,
      "inputs": [],
      "name": "isRegistered",
      "outputs": [
        {
          "name": "",
          "type": "bool"
        }
      ],
      "payable": false,
      "stateMutability": "view",
      "type": "function"
    },
    {
      "constant": false,
      "inputs": [],
      "name": "renounceOwnership",
      "outputs": [],
      "payable": false,
      "stateMutability": "nonpayable",
      "type": "function"
    },
    {
      "constant": true,
      "inputs": [],
      "name": "owner",
      "outputs": [
        {
          "name": "",
          "type": "address"
        }
      ],
      "payable": false,
      "stateMutability": "view",
      "type": "function"
    },
    {
      "constant": true,
      "inputs": [],
      "name": "isOwner",
      "outputs": [
        {
          "name": "",
          "type": "bool"
        }
      ],
      "payable": false,
      "stateMutability": "view",
      "type": "function"
    },
    {
      "constant": true,
      "inputs": [
        {
          "name": "scheme",
          "type": "address"
        }
      ],
      "name": "isRegistered",
      "outputs": [
        {
          "name": "",
          "type": "bool"
        }
      ],
      "payable": false,
      "stateMutability": "view",
      "type": "function"
    },
    {
      "constant": true,
      "inputs": [],
      "name": "percentage",
      "outputs": [
        {
          "name": "",
          "type": "uint256"
        }
      ],
      "payable": false,
      "stateMutability": "view",
      "type": "function"
    },
    {
      "constant": true,
      "inputs": [],
      "name": "senderPays",
      "outputs": [
        {
          "name": "",
          "type": "bool"
        }
      ],
      "payable": false,
      "stateMutability": "view",
      "type": "function"
    },
    {
      "constant": false,
      "inputs": [
        {
          "name": "newOwner",
          "type": "address"
        }
      ],
      "name": "transferOwnership",
      "outputs": [],
      "payable": false,
      "stateMutability": "nonpayable",
      "type": "function"
    },
    {
      "inputs": [
        {
          "name": "_percentage",
          "type": "uint256"
        }
      ],
      "payable": false,
      "stateMutability": "nonpayable",
      "type": "constructor"
    },
    {
      "anonymous": false,
      "inputs": [
        {
          "indexed": true,
          "name": "previousOwner",
          "type": "address"
        },
        {
          "indexed": true,
          "name": "newOwner",
          "type": "address"
        }
      ],
      "name": "OwnershipTransferred",
      "type": "event"
    },
    {
      "constant": true,
      "inputs": [
        {
          "name": "_value",
          "type": "uint256"
        },
        {
          "name": "_sender",
          "type": "address"
        },
        {
          "name": "_recipient",
          "type": "address"
        }
      ],
      "name": "getTxFees",
      "outputs": [
        {
          "name": "",
          "type": "uint256"
        },
        {
          "name": "",
          "type": "bool"
        }
      ],
      "payable": false,
      "stateMutability": "view",
      "type": "function"
    }
  ],
  "bytecode": "0x608060405260028054600160a060020a031916905534801561002057600080fd5b506040516020806107f88339810180604052602081101561004057600080fd5b505160008054600160a060020a0319163317808255604051600160a060020a03919091169082907f8be0079c531659141344cd1fd0a4f28419497f9722a3daafe3b4186f6b6457e0908290a360018054600160a060020a031916600160a060020a038381169190911791829055161561016957600160009054906101000a9004600160a060020a0316600160a060020a0316638da5cb5b6040518163ffffffff167c010000000000000000000000000000000000000000000000000000000002815260040160206040518083038186803b15801561011d57600080fd5b505afa158015610131573d6000803e3d6000fd5b505050506040513d602081101561014757600080fd5b505160028054600160a060020a031916600160a060020a039092169190911790555b50606481106101d957604080517f08c379a000000000000000000000000000000000000000000000000000000000815260206004820152601960248201527f50657263656e746167652073686f756c64206265203c31303000000000000000604482015290519081900360640190fd5b60035561060d806101eb6000396000f3fe608060405234801561001057600080fd5b50600436106100bb576000357c0100000000000000000000000000000000000000000000000000000000900480638f32d59b116100835780638f32d59b1461017d578063c3c5a54714610185578063c78ad77f146101ab578063e662c7f5146101c5578063f2fde38b146101cd576100bb565b8063086cfca8146100c057806322366844146100e85780633ddaa80614610104578063715018a6146101515780638da5cb5b14610159575b600080fd5b6100e6600480360360208110156100d657600080fd5b5035600160a060020a03166101f3565b005b6100f06102e3565b604080519115158252519081900360200190f35b6101386004803603606081101561011a57600080fd5b50803590600160a060020a03602082013581169160400135166102f3565b6040805192835290151560208301528051918290030190f35b6100e6610328565b610161610392565b60408051600160a060020a039092168252519081900360200190f35b6100f06103a1565b6100f06004803603602081101561019b57600080fd5b5035600160a060020a03166103b2565b6101b36104e2565b60408051918252519081900360200190f35b6100f06104e8565b6100e6600480360360208110156101e357600080fd5b5035600160a060020a03166104ed565b6101fb6103a1565b151561020657600080fd5b6001805473ffffffffffffffffffffffffffffffffffffffff1916600160a060020a038381169190911791829055604080517f8da5cb5b00000000000000000000000000000000000000000000000000000000815290519290911691638da5cb5b91600480820192602092909190829003018186803b15801561028857600080fd5b505afa15801561029c573d6000803e3d6000fd5b505050506040513d60208110156102b257600080fd5b50516002805473ffffffffffffffffffffffffffffffffffffffff1916600160a060020a0390921691909117905550565b60006102ee306103b2565b905090565b60008061031c60035461031060648861050c90919063ffffffff16565b9063ffffffff61053216565b95600095509350505050565b6103306103a1565b151561033b57600080fd5b60008054604051600160a060020a03909116907f8be0079c531659141344cd1fd0a4f28419497f9722a3daafe3b4186f6b6457e0908390a36000805473ffffffffffffffffffffffffffffffffffffffff19169055565b600054600160a060020a031690565b600054600160a060020a0316331490565b600154600090600160a060020a0316151561042e57604080517f08c379a000000000000000000000000000000000000000000000000000000000815260206004820152601160248201527f417661746172206973206e6f7420736574000000000000000000000000000000604482015290519081900360640190fd5b600254600154604080517f9be2faed000000000000000000000000000000000000000000000000000000008152600160a060020a038681166004830152928316602482015290519190921691639be2faed916044808301926020929190829003018186803b15801561049f57600080fd5b505afa1580156104b3573d6000803e3d6000fd5b505050506040513d60208110156104c957600080fd5b505115156104d9575060006104dd565b5060015b919050565b60035481565b600081565b6104f56103a1565b151561050057600080fd5b61050981610564565b50565b600080821161051a57600080fd5b6000828481151561052757fe5b049150505b92915050565b60008215156105435750600061052c565b82820282848281151561055257fe5b041461055d57600080fd5b9392505050565b600160a060020a038116151561057957600080fd5b60008054604051600160a060020a03808516939216917f8be0079c531659141344cd1fd0a4f28419497f9722a3daafe3b4186f6b6457e091a36000805473ffffffffffffffffffffffffffffffffffffffff1916600160a060020a039290921691909117905556fea165627a7a7230582000782e7f834ba1707691d49473a13f8441552945314fe5604bc166438f1742f60029",
  "source": "pragma solidity 0.5.4;\n\nimport \"openzeppelin-solidity/contracts/math/SafeMath.sol\";\nimport \"@daostack/arc/contracts/controller/Avatar.sol\";\n\nimport \"./SchemeGuard.sol\";\n\n\n/**\n * @title Fee formula abstract contract\n */\ncontract AbstractFees is SchemeGuard {\n    constructor() public SchemeGuard(Avatar(0)) {}\n\n    function getTxFees(uint256 _value, address _sender, address _recipient)\n        public\n        view\n        returns (uint256, bool);\n}\n\n\n/**\n * @title Fee formula contract\n * contract that provides a function to calculate\n * fees as a percentage of any given value\n */\ncontract FeeFormula is AbstractFees {\n    using SafeMath for uint256;\n\n    uint256 public percentage;\n    bool public constant senderPays = false;\n\n    /**\n     * @dev Constructor. Requires the given percentage parameter\n     * to be less than 100.\n     * @param _percentage the percentage to calculate fees of\n     */\n    constructor(uint256 _percentage) public {\n        require(_percentage < 100, \"Percentage should be <100\");\n        percentage = _percentage;\n    }\n\n    /**  @dev calculates the fee of given value.\n     * @param _value the value of the transaction to calculate fees from\n     * @param _sender address sending.\n     *  @param _recipient address receiving.\n     * @return the transactional fee for given value\n     */\n    function getTxFees(uint256 _value, address _sender, address _recipient)\n        public\n        view\n        returns (uint256, bool)\n    {\n        return (_value.div(100).mul(percentage), senderPays);\n    }\n}\n",
  "sourcePath": "/Users/hadar/workspace/GoodDollar/GoodBootstrap/packages/contracts/contracts/dao/schemes/FeeFormula.sol",
  "compiler": {
    "name": "solc",
    "version": "0.5.4+commit.9549d8ff.Emscripten.clang"
  },
  "schemaVersion": "3.0.16",
  "updatedAt": "2020-07-09T12:07:37.976Z",
  "devdoc": {
    "methods": {
      "constructor": {
        "details": "Constructor. Requires the given percentage parameter to be less than 100.",
        "params": {
          "_percentage": "the percentage to calculate fees of"
        }
      },
      "getTxFees(uint256,address,address)": {
        "details": "calculates the fee of given value.",
        "params": {
          "_recipient": "address receiving.",
          "_sender": "address sending.",
          "_value": "the value of the transaction to calculate fees from"
        },
        "return": "the transactional fee for given value"
      },
      "isOwner()": {
        "return": "true if `msg.sender` is the owner of the contract."
      },
      "isRegistered()": {
        "details": "function to see if an avatar has been set and if this scheme is registered",
        "return": "true if scheme is registered"
      },
      "isRegistered(address)": {
        "details": "function to see if an avatar has been set and if this scheme is registered",
        "return": "true if scheme is registered"
      },
      "owner()": {
        "return": "the address of the owner."
      },
      "renounceOwnership()": {
        "details": "Allows the current owner to relinquish control of the contract."
      },
      "setAvatar(address)": {
        "details": "Function to set a new avatar and controller for scheme can only be done by owner of scheme"
      },
      "transferOwnership(address)": {
        "details": "Allows the current owner to transfer control of the contract to a newOwner.",
        "params": {
          "newOwner": "The address to transfer ownership to."
        }
      }
    },
    "title": "Fee formula contract contract that provides a function to calculate fees as a percentage of any given value"
  },
  "userdoc": {
    "methods": {
      "renounceOwnership()": {
        "notice": "Renouncing to ownership will leave the contract without an owner. It will not be possible to call the functions with the `onlyOwner` modifier anymore."
      }
    }
  }
}