{
  "contractName": "FeeFormula",
  "abi": [
    {
      "constant": false,
      "inputs": [
        {
          "name": "_avatar",
          "type": "address"
        }
      ],
      "name": "setAvatar",
      "outputs": [],
      "payable": false,
      "stateMutability": "nonpayable",
      "type": "function"
    },
    {
      "constant": true,
      "inputs": [],
      "name": "isRegistered",
      "outputs": [],
      "payable": false,
      "stateMutability": "view",
      "type": "function"
    },
    {
      "constant": false,
      "inputs": [],
      "name": "renounceOwnership",
      "outputs": [],
      "payable": false,
      "stateMutability": "nonpayable",
      "type": "function"
    },
    {
      "constant": true,
      "inputs": [],
      "name": "owner",
      "outputs": [
        {
          "name": "",
          "type": "address"
        }
      ],
      "payable": false,
      "stateMutability": "view",
      "type": "function"
    },
    {
      "constant": true,
      "inputs": [],
      "name": "isOwner",
      "outputs": [
        {
          "name": "",
          "type": "bool"
        }
      ],
      "payable": false,
      "stateMutability": "view",
      "type": "function"
    },
    {
      "constant": true,
      "inputs": [],
      "name": "percentage",
      "outputs": [
        {
          "name": "",
          "type": "uint256"
        }
      ],
      "payable": false,
      "stateMutability": "view",
      "type": "function"
    },
    {
      "constant": false,
      "inputs": [
        {
          "name": "newOwner",
          "type": "address"
        }
      ],
      "name": "transferOwnership",
      "outputs": [],
      "payable": false,
      "stateMutability": "nonpayable",
      "type": "function"
    },
    {
      "inputs": [
        {
          "name": "_percentage",
          "type": "uint256"
        }
      ],
      "payable": false,
      "stateMutability": "nonpayable",
      "type": "constructor"
    },
    {
      "anonymous": false,
      "inputs": [
        {
          "indexed": true,
          "name": "previousOwner",
          "type": "address"
        },
        {
          "indexed": true,
          "name": "newOwner",
          "type": "address"
        }
      ],
      "name": "OwnershipTransferred",
      "type": "event"
    },
    {
      "constant": true,
      "inputs": [
        {
          "name": "_value",
          "type": "uint256"
        }
      ],
      "name": "getTxFees",
      "outputs": [
        {
          "name": "",
          "type": "uint256"
        }
      ],
      "payable": false,
      "stateMutability": "view",
      "type": "function"
    }
  ],
  "bytecode": "0x608060405260028054600160a060020a031916905534801561002057600080fd5b506040516020806109978339810180604052602081101561004057600080fd5b505160008054600160a060020a0319163317808255604051600160a060020a03919091169082907f8be0079c531659141344cd1fd0a4f28419497f9722a3daafe3b4186f6b6457e0908290a360018054600160a060020a031916600160a060020a038381169190911791829055161561016957600160009054906101000a9004600160a060020a0316600160a060020a0316638da5cb5b6040518163ffffffff167c010000000000000000000000000000000000000000000000000000000002815260040160206040518083038186803b15801561011d57600080fd5b505afa158015610131573d6000803e3d6000fd5b505050506040513d602081101561014757600080fd5b505160028054600160a060020a031916600160a060020a039092169190911790555b50606481106101d957604080517f08c379a000000000000000000000000000000000000000000000000000000000815260206004820152601960248201527f50657263656e746167652073686f756c64206265203c31303000000000000000604482015290519081900360640190fd5b6003556107ac806101eb6000396000f3fe608060405234801561001057600080fd5b506004361061008c5760003560e060020a900480638f32d59b1161005f5780638f32d59b146100ed578063c78ad77f14610109578063cb733bb914610123578063f2fde38b146101405761008c565b8063086cfca81461009157806322366844146100b9578063715018a6146100c15780638da5cb5b146100c9575b600080fd5b6100b7600480360360208110156100a757600080fd5b5035600160a060020a0316610166565b005b6100b7610425565b6100b76105a8565b6100d1610612565b60408051600160a060020a039092168252519081900360200190f35b6100f5610621565b604080519115158252519081900360200190f35b610111610632565b60408051918252519081900360200190f35b6101116004803603602081101561013957600080fd5b5035610638565b6100b76004803603602081101561015657600080fd5b5035600160a060020a0316610665565b8033600160a060020a038216148015610276575030600160a060020a0316638da5cb5b6040518163ffffffff1660e060020a02815260040160206040518083038186803b1580156101b657600080fd5b505afa1580156101ca573d6000803e3d6000fd5b505050506040513d60208110156101e057600080fd5b5051604080517f8da5cb5b0000000000000000000000000000000000000000000000000000000081529051600160a060020a0392831692841691638da5cb5b916004808301926020929190829003018186803b15801561023f57600080fd5b505afa158015610253573d6000803e3d6000fd5b505050506040513d602081101561026957600080fd5b5051600160a060020a0316145b806102f0575030600160a060020a0316638da5cb5b6040518163ffffffff1660e060020a02815260040160206040518083038186803b1580156102b857600080fd5b505afa1580156102cc573d6000803e3d6000fd5b505050506040513d60208110156102e257600080fd5b5051600160a060020a031633145b1515610347576040517f08c379a00000000000000000000000000000000000000000000000000000000081526004018080602001828103825260298152602001806107586029913960400191505060405180910390fd5b6001805473ffffffffffffffffffffffffffffffffffffffff1916600160a060020a038481169190911791829055604080517f8da5cb5b00000000000000000000000000000000000000000000000000000000815290519290911691638da5cb5b91600480820192602092909190829003018186803b1580156103c957600080fd5b505afa1580156103dd573d6000803e3d6000fd5b505050506040513d60208110156103f357600080fd5b50516002805473ffffffffffffffffffffffffffffffffffffffff1916600160a060020a039092169190911790555050565b600154600160a060020a0316151561049e57604080517f08c379a000000000000000000000000000000000000000000000000000000000815260206004820152601160248201527f417661746172206973206e6f7420736574000000000000000000000000000000604482015290519081900360640190fd5b600254600154604080517f9be2faed000000000000000000000000000000000000000000000000000000008152306004820152600160a060020a03928316602482015290519190921691639be2faed916044808301926020929190829003018186803b15801561050d57600080fd5b505afa158015610521573d6000803e3d6000fd5b505050506040513d602081101561053757600080fd5b505115156105a657604080517f08c379a000000000000000000000000000000000000000000000000000000000815260206004820152601860248201527f536368656d65206973206e6f7420726567697374657265640000000000000000604482015290519081900360640190fd5b565b6105b0610621565b15156105bb57600080fd5b60008054604051600160a060020a03909116907f8be0079c531659141344cd1fd0a4f28419497f9722a3daafe3b4186f6b6457e0908390a36000805473ffffffffffffffffffffffffffffffffffffffff19169055565b600054600160a060020a031690565b600054600160a060020a0316331490565b60035481565b60035460009061065f9061065384606463ffffffff61068416565b9063ffffffff6106a816565b92915050565b61066d610621565b151561067857600080fd5b610681816106da565b50565b600080821161069257600080fd5b6000828481151561069f57fe5b04949350505050565b60008215156106b95750600061065f565b8282028284828115156106c857fe5b04146106d357600080fd5b9392505050565b600160a060020a03811615156106ef57600080fd5b60008054604051600160a060020a03808516939216917f8be0079c531659141344cd1fd0a4f28419497f9722a3daafe3b4186f6b6457e091a36000805473ffffffffffffffffffffffffffffffffffffffff1916600160a060020a039290921691909117905556fe4f6e6c792063616c6c61626c6520627920617661746172206f66206f776e6572206f72206f776e6572a165627a7a72305820a5b441c301bf20b56783ffec90effb260fd3845a804b21f6bbbf10632e25b8300029",
  "source": "pragma solidity 0.5.4;\n\nimport \"openzeppelin-solidity/contracts/math/SafeMath.sol\";\nimport \"@daostack/arc/contracts/controller/Avatar.sol\";\n\nimport \"./SchemeGuard.sol\";\n\n/* @title Fee formula contract\n * GoodDollar token is always initiated with a given fee formula, \n * whereof getTxFees is the only assumed function\n */\ncontract AbstractFees is SchemeGuard {\n    constructor () public SchemeGuard(Avatar(0)) {}\n\n    function getTxFees(uint256 _value) public view returns (uint256);\n}\n\ncontract FeeFormula is AbstractFees {\n    using SafeMath for uint256;\n\n    uint256 public percentage;\n    \n    constructor (uint256 _percentage) public {\n        require(_percentage<100, \"Percentage should be <100\");\n        percentage = _percentage;\n    }\n\n    /* @dev calculates 1 percentage fee of given value. Must be registered as a scheme.\n     * @param _value the value to calculate fees from\n     * @return the transactional fee for given value\n     */\n    function getTxFees(uint256 _value) public view returns (uint256) {\n        return _value.div(100).mul(percentage);\n    }\n}",
  "sourcePath": "/Users/hadar/workspace/GoodDollar/GoodBootstrap/packages/contracts/contracts/dao/schemes/FeeFormula.sol",
  "compiler": {
    "name": "solc",
    "version": "0.5.4+commit.9549d8ff.Emscripten.clang"
  },
  "schemaVersion": "3.0.16",
  "updatedAt": "2019-11-05T12:48:05.454Z",
  "devdoc": {
    "methods": {
      "isOwner()": {
        "return": "true if `msg.sender` is the owner of the contract."
      },
      "owner()": {
        "return": "the address of the owner."
      },
      "renounceOwnership()": {
        "details": "Allows the current owner to relinquish control of the contract."
      },
      "transferOwnership(address)": {
        "details": "Allows the current owner to transfer control of the contract to a newOwner.",
        "params": {
          "newOwner": "The address to transfer ownership to."
        }
      }
    }
  },
  "userdoc": {
    "methods": {
      "renounceOwnership()": {
        "notice": "Renouncing to ownership will leave the contract without an owner. It will not be possible to call the functions with the `onlyOwner` modifier anymore."
      }
    }
  }
}