{
  "contractName": "FeeFormula",
  "abi": [
    {
      "constant": false,
      "inputs": [
        {
          "name": "_avatar",
          "type": "address"
        }
      ],
      "name": "setAvatar",
      "outputs": [],
      "payable": false,
      "stateMutability": "nonpayable",
      "type": "function"
    },
    {
      "constant": true,
      "inputs": [],
      "name": "isRegistered",
      "outputs": [
        {
          "name": "",
          "type": "bool"
        }
      ],
      "payable": false,
      "stateMutability": "view",
      "type": "function"
    },
    {
      "constant": false,
      "inputs": [],
      "name": "renounceOwnership",
      "outputs": [],
      "payable": false,
      "stateMutability": "nonpayable",
      "type": "function"
    },
    {
      "constant": true,
      "inputs": [],
      "name": "owner",
      "outputs": [
        {
          "name": "",
          "type": "address"
        }
      ],
      "payable": false,
      "stateMutability": "view",
      "type": "function"
    },
    {
      "constant": true,
      "inputs": [],
      "name": "isOwner",
      "outputs": [
        {
          "name": "",
          "type": "bool"
        }
      ],
      "payable": false,
      "stateMutability": "view",
      "type": "function"
    },
    {
      "constant": true,
      "inputs": [],
      "name": "percentage",
      "outputs": [
        {
          "name": "",
          "type": "uint256"
        }
      ],
      "payable": false,
      "stateMutability": "view",
      "type": "function"
    },
    {
      "constant": false,
      "inputs": [
        {
          "name": "newOwner",
          "type": "address"
        }
      ],
      "name": "transferOwnership",
      "outputs": [],
      "payable": false,
      "stateMutability": "nonpayable",
      "type": "function"
    },
    {
      "inputs": [
        {
          "name": "_percentage",
          "type": "uint256"
        }
      ],
      "payable": false,
      "stateMutability": "nonpayable",
      "type": "constructor"
    },
    {
      "anonymous": false,
      "inputs": [
        {
          "indexed": true,
          "name": "previousOwner",
          "type": "address"
        },
        {
          "indexed": true,
          "name": "newOwner",
          "type": "address"
        }
      ],
      "name": "OwnershipTransferred",
      "type": "event"
    },
    {
      "constant": true,
      "inputs": [
        {
          "name": "_value",
          "type": "uint256"
        }
      ],
      "name": "getTxFees",
      "outputs": [
        {
          "name": "",
          "type": "uint256"
        }
      ],
      "payable": false,
      "stateMutability": "view",
      "type": "function"
    }
  ],
  "bytecode": "0x608060405260028054600160a060020a031916905534801561002057600080fd5b506040516020806107618339810180604052602081101561004057600080fd5b505160008054600160a060020a0319163317808255604051600160a060020a03919091169082907f8be0079c531659141344cd1fd0a4f28419497f9722a3daafe3b4186f6b6457e0908290a360018054600160a060020a031916600160a060020a038381169190911791829055161561016957600160009054906101000a9004600160a060020a0316600160a060020a0316638da5cb5b6040518163ffffffff167c010000000000000000000000000000000000000000000000000000000002815260040160206040518083038186803b15801561011d57600080fd5b505afa158015610131573d6000803e3d6000fd5b505050506040513d602081101561014757600080fd5b505160028054600160a060020a031916600160a060020a039092169190911790555b50606481106101d957604080517f08c379a000000000000000000000000000000000000000000000000000000000815260206004820152601960248201527f50657263656e746167652073686f756c64206265203c31303000000000000000604482015290519081900360640190fd5b600355610576806101eb6000396000f3fe608060405234801561001057600080fd5b50600436106100a5576000357c0100000000000000000000000000000000000000000000000000000000900480638f32d59b116100785780638f32d59b1461011a578063c78ad77f14610122578063cb733bb91461013c578063f2fde38b14610159576100a5565b8063086cfca8146100aa57806322366844146100d2578063715018a6146100ee5780638da5cb5b146100f6575b600080fd5b6100d0600480360360208110156100c057600080fd5b5035600160a060020a031661017f565b005b6100da61026f565b604080519115158252519081900360200190f35b6100d061039b565b6100fe610405565b60408051600160a060020a039092168252519081900360200190f35b6100da610414565b61012a610425565b60408051918252519081900360200190f35b61012a6004803603602081101561015257600080fd5b503561042b565b6100d06004803603602081101561016f57600080fd5b5035600160a060020a0316610458565b610187610414565b151561019257600080fd5b6001805473ffffffffffffffffffffffffffffffffffffffff1916600160a060020a038381169190911791829055604080517f8da5cb5b00000000000000000000000000000000000000000000000000000000815290519290911691638da5cb5b91600480820192602092909190829003018186803b15801561021457600080fd5b505afa158015610228573d6000803e3d6000fd5b505050506040513d602081101561023e57600080fd5b50516002805473ffffffffffffffffffffffffffffffffffffffff1916600160a060020a0390921691909117905550565b600154600090600160a060020a031615156102eb57604080517f08c379a000000000000000000000000000000000000000000000000000000000815260206004820152601160248201527f417661746172206973206e6f7420736574000000000000000000000000000000604482015290519081900360640190fd5b600254600154604080517f9be2faed000000000000000000000000000000000000000000000000000000008152306004820152600160a060020a03928316602482015290519190921691639be2faed916044808301926020929190829003018186803b15801561035a57600080fd5b505afa15801561036e573d6000803e3d6000fd5b505050506040513d602081101561038457600080fd5b5051151561039457506000610398565b5060015b90565b6103a3610414565b15156103ae57600080fd5b60008054604051600160a060020a03909116907f8be0079c531659141344cd1fd0a4f28419497f9722a3daafe3b4186f6b6457e0908390a36000805473ffffffffffffffffffffffffffffffffffffffff19169055565b600054600160a060020a031690565b600054600160a060020a0316331490565b60035481565b6003546000906104529061044684606463ffffffff61047716565b9063ffffffff61049b16565b92915050565b610460610414565b151561046b57600080fd5b610474816104cd565b50565b600080821161048557600080fd5b6000828481151561049257fe5b04949350505050565b60008215156104ac57506000610452565b8282028284828115156104bb57fe5b04146104c657600080fd5b9392505050565b600160a060020a03811615156104e257600080fd5b60008054604051600160a060020a03808516939216917f8be0079c531659141344cd1fd0a4f28419497f9722a3daafe3b4186f6b6457e091a36000805473ffffffffffffffffffffffffffffffffffffffff1916600160a060020a039290921691909117905556fea165627a7a72305820498fa1417d748aa01dccfc40c4a73ff5611f989a821486d326d5bb7d38a297810029",
  "source": "pragma solidity 0.5.4;\n\nimport \"openzeppelin-solidity/contracts/math/SafeMath.sol\";\nimport \"@daostack/arc/contracts/controller/Avatar.sol\";\n\nimport \"./SchemeGuard.sol\";\n\n/* @title Fee formula abstract contract\n */\ncontract AbstractFees is SchemeGuard {\n    constructor () public SchemeGuard(Avatar(0)) {}\n\n    function getTxFees(uint256 _value) public view returns (uint256);\n}\n\n/* @title Fee formula contract\n * contract that provides a function to calculate\n * fees as a percentage of any given value\n */\ncontract FeeFormula is AbstractFees {\n    using SafeMath for uint256;\n\n    uint256 public percentage;\n    \n    /* @dev Constructor. Requires the given percentage parameter\n     * to be less than 100.\n     * @param _percentage the percentage to calculate fees of\n     */\n    constructor (uint256 _percentage) public {\n        require(_percentage<100, \"Percentage should be <100\");\n        percentage = _percentage;\n    }\n\n    /* @dev calculates the fee of given value.\n     * @param _value the value of the transaction to calculate fees from\n     * @return the transactional fee for given value\n     */\n    function getTxFees(uint256 _value) public view returns (uint256) {\n        return _value.div(100).mul(percentage);\n    }\n}",
  "sourcePath": "/Users/hadar/workspace/GoodDollar/GoodBootstrap/packages/contracts/contracts/dao/schemes/FeeFormula.sol",
  "compiler": {
    "name": "solc",
    "version": "0.5.4+commit.9549d8ff.Emscripten.clang"
  },
  "schemaVersion": "3.0.16",
  "updatedAt": "2020-04-26T12:10:05.377Z",
  "devdoc": {
    "methods": {
      "isOwner()": {
        "return": "true if `msg.sender` is the owner of the contract."
      },
      "owner()": {
        "return": "the address of the owner."
      },
      "renounceOwnership()": {
        "details": "Allows the current owner to relinquish control of the contract."
      },
      "transferOwnership(address)": {
        "details": "Allows the current owner to transfer control of the contract to a newOwner.",
        "params": {
          "newOwner": "The address to transfer ownership to."
        }
      }
    }
  },
  "userdoc": {
    "methods": {
      "renounceOwnership()": {
        "notice": "Renouncing to ownership will leave the contract without an owner. It will not be possible to call the functions with the `onlyOwner` modifier anymore."
      }
    }
  }
}