{
  "contractName": "FeelessScheme",
  "abi": [
    {
      "constant": false,
      "inputs": [
        {
          "name": "_avatar",
          "type": "address"
        }
      ],
      "name": "setAvatar",
      "outputs": [],
      "payable": false,
      "stateMutability": "nonpayable",
      "type": "function"
    },
    {
      "constant": true,
      "inputs": [],
      "name": "isRegistered",
      "outputs": [
        {
          "name": "",
          "type": "bool"
        }
      ],
      "payable": false,
      "stateMutability": "view",
      "type": "function"
    },
    {
      "constant": true,
      "inputs": [],
      "name": "identity",
      "outputs": [
        {
          "name": "",
          "type": "address"
        }
      ],
      "payable": false,
      "stateMutability": "view",
      "type": "function"
    },
    {
      "constant": false,
      "inputs": [
        {
          "name": "_identity",
          "type": "address"
        }
      ],
      "name": "setIdentity",
      "outputs": [],
      "payable": false,
      "stateMutability": "nonpayable",
      "type": "function"
    },
    {
      "constant": false,
      "inputs": [],
      "name": "renounceOwnership",
      "outputs": [],
      "payable": false,
      "stateMutability": "nonpayable",
      "type": "function"
    },
    {
      "constant": true,
      "inputs": [],
      "name": "owner",
      "outputs": [
        {
          "name": "",
          "type": "address"
        }
      ],
      "payable": false,
      "stateMutability": "view",
      "type": "function"
    },
    {
      "constant": true,
      "inputs": [],
      "name": "isOwner",
      "outputs": [
        {
          "name": "",
          "type": "bool"
        }
      ],
      "payable": false,
      "stateMutability": "view",
      "type": "function"
    },
    {
      "constant": false,
      "inputs": [
        {
          "name": "newOwner",
          "type": "address"
        }
      ],
      "name": "transferOwnership",
      "outputs": [],
      "payable": false,
      "stateMutability": "nonpayable",
      "type": "function"
    },
    {
      "inputs": [
        {
          "name": "_identity",
          "type": "address"
        },
        {
          "name": "_avatar",
          "type": "address"
        }
      ],
      "payable": false,
      "stateMutability": "nonpayable",
      "type": "constructor"
    },
    {
      "anonymous": false,
      "inputs": [
        {
          "indexed": true,
          "name": "previousOwner",
          "type": "address"
        },
        {
          "indexed": true,
          "name": "newOwner",
          "type": "address"
        }
      ],
      "name": "OwnershipTransferred",
      "type": "event"
    }
  ],
  "bytecode": "0x608060405260028054600160a060020a031916905534801561002057600080fd5b5060405160408061083c8339810180604052604081101561004057600080fd5b50805160209091015160008054600160a060020a031916331780825560405184928492600160a060020a0316917f8be0079c531659141344cd1fd0a4f28419497f9722a3daafe3b4186f6b6457e0908290a360018054600160a060020a031916600160a060020a038381169190911791829055161561016f57600160009054906101000a9004600160a060020a0316600160a060020a0316638da5cb5b6040518163ffffffff167c010000000000000000000000000000000000000000000000000000000002815260040160206040518083038186803b15801561012357600080fd5b505afa158015610137573d6000803e3d6000fd5b505050506040513d602081101561014d57600080fd5b505160028054600160a060020a031916600160a060020a039092169190911790555b50600160a060020a03811615156101e757604080517f08c379a000000000000000000000000000000000000000000000000000000000815260206004820152601960248201527f537570706c696564206964656e74697479206973206e756c6c00000000000000604482015290519081900360640190fd5b60038054600160a060020a03909216600160a060020a03199092169190911790555050610623806102196000396000f3fe608060405234801561001057600080fd5b50600436106100a5576000357c010000000000000000000000000000000000000000000000000000000090048063715018a611610078578063715018a6146101385780638da5cb5b146101405780638f32d59b14610148578063f2fde38b14610150576100a5565b8063086cfca8146100aa57806322366844146100d25780632c159a1a146100ee5780635d5bf17814610112575b600080fd5b6100d0600480360360208110156100c057600080fd5b5035600160a060020a0316610176565b005b6100da610266565b604080519115158252519081900360200190f35b6100f6610392565b60408051600160a060020a039092168252519081900360200190f35b6100d06004803603602081101561012857600080fd5b5035600160a060020a03166103a1565b6100d06104d1565b6100f661053b565b6100da61054a565b6100d06004803603602081101561016657600080fd5b5035600160a060020a031661055b565b61017e61054a565b151561018957600080fd5b6001805473ffffffffffffffffffffffffffffffffffffffff1916600160a060020a038381169190911791829055604080517f8da5cb5b00000000000000000000000000000000000000000000000000000000815290519290911691638da5cb5b91600480820192602092909190829003018186803b15801561020b57600080fd5b505afa15801561021f573d6000803e3d6000fd5b505050506040513d602081101561023557600080fd5b50516002805473ffffffffffffffffffffffffffffffffffffffff1916600160a060020a0390921691909117905550565b600154600090600160a060020a031615156102e257604080517f08c379a000000000000000000000000000000000000000000000000000000000815260206004820152601160248201527f417661746172206973206e6f7420736574000000000000000000000000000000604482015290519081900360640190fd5b600254600154604080517f9be2faed000000000000000000000000000000000000000000000000000000008152306004820152600160a060020a03928316602482015290519190921691639be2faed916044808301926020929190829003018186803b15801561035157600080fd5b505afa158015610365573d6000803e3d6000fd5b505050506040513d602081101561037b57600080fd5b5051151561038b5750600061038f565b5060015b90565b600354600160a060020a031681565b6103a961054a565b15156103b457600080fd5b80600160a060020a031663223668446040518163ffffffff167c010000000000000000000000000000000000000000000000000000000002815260040160206040518083038186803b15801561040957600080fd5b505afa15801561041d573d6000803e3d6000fd5b505050506040513d602081101561043357600080fd5b505115156104a257604080517f08c379a000000000000000000000000000000000000000000000000000000000815260206004820152601a60248201527f4964656e74697479206973206e6f742072656769737465726564000000000000604482015290519081900360640190fd5b6003805473ffffffffffffffffffffffffffffffffffffffff1916600160a060020a0392909216919091179055565b6104d961054a565b15156104e457600080fd5b60008054604051600160a060020a03909116907f8be0079c531659141344cd1fd0a4f28419497f9722a3daafe3b4186f6b6457e0908390a36000805473ffffffffffffffffffffffffffffffffffffffff19169055565b600054600160a060020a031690565b600054600160a060020a0316331490565b61056361054a565b151561056e57600080fd5b6105778161057a565b50565b600160a060020a038116151561058f57600080fd5b60008054604051600160a060020a03808516939216917f8be0079c531659141344cd1fd0a4f28419497f9722a3daafe3b4186f6b6457e091a36000805473ffffffffffffffffffffffffffffffffffffffff1916600160a060020a039290921691909117905556fea165627a7a72305820048f274aa57d66385005d53f3cb92f0d4e51e00c6a28b391958034f3481ad5190029",
  "source": "pragma solidity 0.5.4;\n\nimport \"@daostack/arc/contracts/controller/Avatar.sol\";\nimport \"./SchemeGuard.sol\";\nimport \"../../identity/Identity.sol\";\nimport \"../../identity/IdentityGuard.sol\";\n\n/* @title Contract for letting scheme add itself to identity\n * to allow transferring GoodDollar without paying fees\n */\ncontract FeelessScheme is SchemeGuard, IdentityGuard {\n\n    /* @dev Constructor\n     * @param _identity The identity contract\n     * @param _avatar The avatar of the DAO\n     */\n    constructor(Identity _identity, Avatar _avatar)\n        public\n        SchemeGuard(_avatar)\n        IdentityGuard(_identity)\n    {}\n\n    /* @dev Internal function to add contract to identity.\n     * Can only be called if scheme is registered.\n     */\n    function addRights() internal onlyRegistered {\n        controller.genericCall(\n            address(identity),\n            abi.encodeWithSignature(\"addContract(address)\", address(this)),\n            avatar,\n            0);\n    }\n\n    /* @dev Internal function to remove contract from identity.\n     * Can only be called if scheme is registered.\n     */\n    function removeRights() internal onlyRegistered {\n        controller.genericCall(\n            address(identity),\n            abi.encodeWithSignature(\"removeContract(address)\", address(this)),\n            avatar,\n            0);    \n    }\n}",
  "sourcePath": "/Users/hadar/workspace/GoodDollar/GoodBootstrap/packages/contracts/contracts/dao/schemes/FeelessScheme.sol",
  "compiler": {
    "name": "solc",
    "version": "0.5.4+commit.9549d8ff.Emscripten.clang"
  },
  "schemaVersion": "3.0.16",
  "updatedAt": "2020-03-31T10:47:14.473Z",
  "devdoc": {
    "methods": {
      "isOwner()": {
        "return": "true if `msg.sender` is the owner of the contract."
      },
      "owner()": {
        "return": "the address of the owner."
      },
      "renounceOwnership()": {
        "details": "Allows the current owner to relinquish control of the contract."
      },
      "transferOwnership(address)": {
        "details": "Allows the current owner to transfer control of the contract to a newOwner.",
        "params": {
          "newOwner": "The address to transfer ownership to."
        }
      }
    }
  },
  "userdoc": {
    "methods": {
      "renounceOwnership()": {
        "notice": "Renouncing to ownership will leave the contract without an owner. It will not be possible to call the functions with the `onlyOwner` modifier anymore."
      }
    }
  }
}