{
  "contractName": "FeelessScheme",
  "abi": [
    {
      "constant": false,
      "inputs": [
        {
          "name": "_avatar",
          "type": "address"
        }
      ],
      "name": "setAvatar",
      "outputs": [],
      "payable": false,
      "stateMutability": "nonpayable",
      "type": "function"
    },
    {
      "constant": true,
      "inputs": [],
      "name": "isRegistered",
      "outputs": [],
      "payable": false,
      "stateMutability": "view",
      "type": "function"
    },
    {
      "constant": true,
      "inputs": [],
      "name": "identity",
      "outputs": [
        {
          "name": "",
          "type": "address"
        }
      ],
      "payable": false,
      "stateMutability": "view",
      "type": "function"
    },
    {
      "constant": false,
      "inputs": [],
      "name": "renounceOwnership",
      "outputs": [],
      "payable": false,
      "stateMutability": "nonpayable",
      "type": "function"
    },
    {
      "constant": true,
      "inputs": [],
      "name": "owner",
      "outputs": [
        {
          "name": "",
          "type": "address"
        }
      ],
      "payable": false,
      "stateMutability": "view",
      "type": "function"
    },
    {
      "constant": true,
      "inputs": [],
      "name": "isOwner",
      "outputs": [
        {
          "name": "",
          "type": "bool"
        }
      ],
      "payable": false,
      "stateMutability": "view",
      "type": "function"
    },
    {
      "constant": false,
      "inputs": [
        {
          "name": "newOwner",
          "type": "address"
        }
      ],
      "name": "transferOwnership",
      "outputs": [],
      "payable": false,
      "stateMutability": "nonpayable",
      "type": "function"
    },
    {
      "inputs": [
        {
          "name": "_identity",
          "type": "address"
        },
        {
          "name": "_avatar",
          "type": "address"
        }
      ],
      "payable": false,
      "stateMutability": "nonpayable",
      "type": "constructor"
    },
    {
      "anonymous": false,
      "inputs": [
        {
          "indexed": true,
          "name": "previousOwner",
          "type": "address"
        },
        {
          "indexed": true,
          "name": "newOwner",
          "type": "address"
        }
      ],
      "name": "OwnershipTransferred",
      "type": "event"
    }
  ],
  "bytecode": "0x608060405260028054600160a060020a031916905534801561002057600080fd5b5060405160408061089a8339810180604052604081101561004057600080fd5b50805160209091015160008054600160a060020a03191633178082556040518392600160a060020a039290921691907f8be0079c531659141344cd1fd0a4f28419497f9722a3daafe3b4186f6b6457e0908290a360018054600160a060020a031916600160a060020a038381169190911791829055161561017157600160009054906101000a9004600160a060020a0316600160a060020a0316638da5cb5b6040518163ffffffff167c010000000000000000000000000000000000000000000000000000000002815260040160206040518083038186803b15801561012557600080fd5b505afa158015610139573d6000803e3d6000fd5b505050506040513d602081101561014f57600080fd5b505160028054600160a060020a031916600160a060020a039092169190911790555b505060038054600160a060020a031916600160a060020a03929092169190911790556106f8806101a26000396000f3fe608060405234801561001057600080fd5b50600436106100815760003560e060020a90048063715018a61161005f578063715018a6146100da5780638da5cb5b146100e25780638f32d59b146100ea578063f2fde38b1461010657610081565b8063086cfca81461008657806322366844146100ae5780632c159a1a146100b6575b600080fd5b6100ac6004803603602081101561009c57600080fd5b5035600160a060020a031661012c565b005b6100ac6103eb565b6100be61056e565b60408051600160a060020a039092168252519081900360200190f35b6100ac61057d565b6100be6105e7565b6100f26105f6565b604080519115158252519081900360200190f35b6100ac6004803603602081101561011c57600080fd5b5035600160a060020a0316610607565b8033600160a060020a03821614801561023c575030600160a060020a0316638da5cb5b6040518163ffffffff1660e060020a02815260040160206040518083038186803b15801561017c57600080fd5b505afa158015610190573d6000803e3d6000fd5b505050506040513d60208110156101a657600080fd5b5051604080517f8da5cb5b0000000000000000000000000000000000000000000000000000000081529051600160a060020a0392831692841691638da5cb5b916004808301926020929190829003018186803b15801561020557600080fd5b505afa158015610219573d6000803e3d6000fd5b505050506040513d602081101561022f57600080fd5b5051600160a060020a0316145b806102b6575030600160a060020a0316638da5cb5b6040518163ffffffff1660e060020a02815260040160206040518083038186803b15801561027e57600080fd5b505afa158015610292573d6000803e3d6000fd5b505050506040513d60208110156102a857600080fd5b5051600160a060020a031633145b151561030d576040517f08c379a00000000000000000000000000000000000000000000000000000000081526004018080602001828103825260298152602001806106a46029913960400191505060405180910390fd5b6001805473ffffffffffffffffffffffffffffffffffffffff1916600160a060020a038481169190911791829055604080517f8da5cb5b00000000000000000000000000000000000000000000000000000000815290519290911691638da5cb5b91600480820192602092909190829003018186803b15801561038f57600080fd5b505afa1580156103a3573d6000803e3d6000fd5b505050506040513d60208110156103b957600080fd5b50516002805473ffffffffffffffffffffffffffffffffffffffff1916600160a060020a039092169190911790555050565b600154600160a060020a0316151561046457604080517f08c379a000000000000000000000000000000000000000000000000000000000815260206004820152601160248201527f417661746172206973206e6f7420736574000000000000000000000000000000604482015290519081900360640190fd5b600254600154604080517f9be2faed000000000000000000000000000000000000000000000000000000008152306004820152600160a060020a03928316602482015290519190921691639be2faed916044808301926020929190829003018186803b1580156104d357600080fd5b505afa1580156104e7573d6000803e3d6000fd5b505050506040513d60208110156104fd57600080fd5b5051151561056c57604080517f08c379a000000000000000000000000000000000000000000000000000000000815260206004820152601860248201527f536368656d65206973206e6f7420726567697374657265640000000000000000604482015290519081900360640190fd5b565b600354600160a060020a031681565b6105856105f6565b151561059057600080fd5b60008054604051600160a060020a03909116907f8be0079c531659141344cd1fd0a4f28419497f9722a3daafe3b4186f6b6457e0908390a36000805473ffffffffffffffffffffffffffffffffffffffff19169055565b600054600160a060020a031690565b600054600160a060020a0316331490565b61060f6105f6565b151561061a57600080fd5b61062381610626565b50565b600160a060020a038116151561063b57600080fd5b60008054604051600160a060020a03808516939216917f8be0079c531659141344cd1fd0a4f28419497f9722a3daafe3b4186f6b6457e091a36000805473ffffffffffffffffffffffffffffffffffffffff1916600160a060020a039290921691909117905556fe4f6e6c792063616c6c61626c6520627920617661746172206f66206f776e6572206f72206f776e6572a165627a7a723058207c4b69b7d4535a6678504fd5ea322bc676aa872977ebf3ff8f5ecfb1d17b5a750029",
  "source": "pragma solidity 0.5.4;\n\nimport \"@daostack/arc/contracts/controller/Avatar.sol\";\nimport \"./SchemeGuard.sol\";\nimport \"../../identity/Identity.sol\";\n\ncontract FeelessScheme is SchemeGuard {\n\n    Identity public identity;\n\n    constructor(Identity _identity, Avatar _avatar)\n        public\n        SchemeGuard(_avatar)\n    {\n        identity = _identity;\n    }\n\n    function addRights() internal onlyRegistered {\n        controller.genericCall(\n            address(identity),\n            abi.encodeWithSignature(\"addContract(address)\", address(this)),\n            avatar,\n            0);\n    }\n\n    function removeRights() internal onlyRegistered {\n        controller.genericCall(\n            address(identity),\n            abi.encodeWithSignature(\"removeContract(address)\", address(this)),\n            avatar,\n            0);    \n    }\n}",
  "sourcePath": "/Users/madsjorgensen/Documents/Work/GoodContracts/contracts/dao/schemes/FeelessScheme.sol",
  "compiler": {
    "name": "solc",
    "version": "0.5.4+commit.9549d8ff.Emscripten.clang"
  },
  "schemaVersion": "3.0.11",
  "updatedAt": "2019-09-24T14:14:41.646Z",
  "devdoc": {
    "methods": {
      "isOwner()": {
        "return": "true if `msg.sender` is the owner of the contract."
      },
      "owner()": {
        "return": "the address of the owner."
      },
      "renounceOwnership()": {
        "details": "Allows the current owner to relinquish control of the contract."
      },
      "transferOwnership(address)": {
        "details": "Allows the current owner to transfer control of the contract to a newOwner.",
        "params": {
          "newOwner": "The address to transfer ownership to."
        }
      }
    }
  },
  "userdoc": {
    "methods": {
      "renounceOwnership()": {
        "notice": "Renouncing to ownership will leave the contract without an owner. It will not be possible to call the functions with the `onlyOwner` modifier anymore."
      }
    }
  }
}