{
  "contractName": "FixedUBI",
  "abi": [
    {
      "constant": true,
      "inputs": [
        {
          "name": "",
          "type": "address"
        }
      ],
      "name": "lastClaimed",
      "outputs": [
        {
          "name": "",
          "type": "uint256"
        }
      ],
      "payable": false,
      "stateMutability": "view",
      "type": "function"
    },
    {
      "constant": true,
      "inputs": [],
      "name": "getDailyStats",
      "outputs": [
        {
          "name": "count",
          "type": "uint256"
        },
        {
          "name": "amount",
          "type": "uint256"
        }
      ],
      "payable": false,
      "stateMutability": "view",
      "type": "function"
    },
    {
      "constant": false,
      "inputs": [
        {
          "name": "_avatar",
          "type": "address"
        }
      ],
      "name": "setAvatar",
      "outputs": [],
      "payable": false,
      "stateMutability": "nonpayable",
      "type": "function"
    },
    {
      "constant": true,
      "inputs": [],
      "name": "isRegistered",
      "outputs": [
        {
          "name": "",
          "type": "bool"
        }
      ],
      "payable": false,
      "stateMutability": "view",
      "type": "function"
    },
    {
      "constant": true,
      "inputs": [],
      "name": "isActive",
      "outputs": [
        {
          "name": "",
          "type": "bool"
        }
      ],
      "payable": false,
      "stateMutability": "view",
      "type": "function"
    },
    {
      "constant": true,
      "inputs": [],
      "name": "identity",
      "outputs": [
        {
          "name": "",
          "type": "address"
        }
      ],
      "payable": false,
      "stateMutability": "view",
      "type": "function"
    },
    {
      "constant": true,
      "inputs": [],
      "name": "periodEnd",
      "outputs": [
        {
          "name": "",
          "type": "uint256"
        }
      ],
      "payable": false,
      "stateMutability": "view",
      "type": "function"
    },
    {
      "constant": true,
      "inputs": [],
      "name": "currentDay",
      "outputs": [
        {
          "name": "",
          "type": "uint256"
        }
      ],
      "payable": false,
      "stateMutability": "view",
      "type": "function"
    },
    {
      "constant": false,
      "inputs": [
        {
          "name": "_identity",
          "type": "address"
        }
      ],
      "name": "setIdentity",
      "outputs": [],
      "payable": false,
      "stateMutability": "nonpayable",
      "type": "function"
    },
    {
      "constant": false,
      "inputs": [],
      "name": "renounceOwnership",
      "outputs": [],
      "payable": false,
      "stateMutability": "nonpayable",
      "type": "function"
    },
    {
      "constant": true,
      "inputs": [],
      "name": "claimDistribution",
      "outputs": [
        {
          "name": "",
          "type": "uint256"
        }
      ],
      "payable": false,
      "stateMutability": "view",
      "type": "function"
    },
    {
      "constant": true,
      "inputs": [],
      "name": "owner",
      "outputs": [
        {
          "name": "",
          "type": "address"
        }
      ],
      "payable": false,
      "stateMutability": "view",
      "type": "function"
    },
    {
      "constant": true,
      "inputs": [],
      "name": "isOwner",
      "outputs": [
        {
          "name": "",
          "type": "bool"
        }
      ],
      "payable": false,
      "stateMutability": "view",
      "type": "function"
    },
    {
      "constant": false,
      "inputs": [],
      "name": "start",
      "outputs": [],
      "payable": false,
      "stateMutability": "nonpayable",
      "type": "function"
    },
    {
      "constant": true,
      "inputs": [
        {
          "name": "scheme",
          "type": "address"
        }
      ],
      "name": "isRegistered",
      "outputs": [
        {
          "name": "",
          "type": "bool"
        }
      ],
      "payable": false,
      "stateMutability": "view",
      "type": "function"
    },
    {
      "constant": true,
      "inputs": [
        {
          "name": "day",
          "type": "uint256"
        }
      ],
      "name": "getClaimerCount",
      "outputs": [
        {
          "name": "",
          "type": "uint256"
        }
      ],
      "payable": false,
      "stateMutability": "view",
      "type": "function"
    },
    {
      "constant": true,
      "inputs": [
        {
          "name": "day",
          "type": "uint256"
        }
      ],
      "name": "getClaimAmount",
      "outputs": [
        {
          "name": "",
          "type": "uint256"
        }
      ],
      "payable": false,
      "stateMutability": "view",
      "type": "function"
    },
    {
      "constant": true,
      "inputs": [],
      "name": "periodStart",
      "outputs": [
        {
          "name": "",
          "type": "uint256"
        }
      ],
      "payable": false,
      "stateMutability": "view",
      "type": "function"
    },
    {
      "constant": false,
      "inputs": [],
      "name": "end",
      "outputs": [],
      "payable": false,
      "stateMutability": "nonpayable",
      "type": "function"
    },
    {
      "constant": false,
      "inputs": [
        {
          "name": "newOwner",
          "type": "address"
        }
      ],
      "name": "transferOwnership",
      "outputs": [],
      "payable": false,
      "stateMutability": "nonpayable",
      "type": "function"
    },
    {
      "inputs": [
        {
          "name": "_avatar",
          "type": "address"
        },
        {
          "name": "_identity",
          "type": "address"
        },
        {
          "name": "_initialReserve",
          "type": "uint256"
        },
        {
          "name": "_periodStart",
          "type": "uint256"
        },
        {
          "name": "_periodEnd",
          "type": "uint256"
        },
        {
          "name": "_claimDistribution",
          "type": "uint256"
        }
      ],
      "payable": false,
      "stateMutability": "nonpayable",
      "type": "constructor"
    },
    {
      "anonymous": false,
      "inputs": [
        {
          "indexed": false,
          "name": "balance",
          "type": "uint256"
        },
        {
          "indexed": false,
          "name": "time",
          "type": "uint256"
        }
      ],
      "name": "UBIStarted",
      "type": "event"
    },
    {
      "anonymous": false,
      "inputs": [
        {
          "indexed": true,
          "name": "claimer",
          "type": "address"
        },
        {
          "indexed": false,
          "name": "amount",
          "type": "uint256"
        }
      ],
      "name": "UBIClaimed",
      "type": "event"
    },
    {
      "anonymous": false,
      "inputs": [
        {
          "indexed": false,
          "name": "claimers",
          "type": "uint256"
        },
        {
          "indexed": false,
          "name": "claimamount",
          "type": "uint256"
        }
      ],
      "name": "UBIEnded",
      "type": "event"
    },
    {
      "anonymous": false,
      "inputs": [
        {
          "indexed": true,
          "name": "previousOwner",
          "type": "address"
        },
        {
          "indexed": true,
          "name": "newOwner",
          "type": "address"
        }
      ],
      "name": "OwnershipTransferred",
      "type": "event"
    },
    {
      "anonymous": false,
      "inputs": [
        {
          "indexed": true,
          "name": "by",
          "type": "address"
        },
        {
          "indexed": false,
          "name": "time",
          "type": "uint256"
        }
      ],
      "name": "SchemeStarted",
      "type": "event"
    },
    {
      "anonymous": false,
      "inputs": [
        {
          "indexed": true,
          "name": "by",
          "type": "address"
        },
        {
          "indexed": false,
          "name": "time",
          "type": "uint256"
        }
      ],
      "name": "SchemeEnded",
      "type": "event"
    },
    {
      "constant": true,
      "inputs": [],
      "name": "checkEntitlement",
      "outputs": [
        {
          "name": "",
          "type": "uint256"
        }
      ],
      "payable": false,
      "stateMutability": "view",
      "type": "function"
    },
    {
      "constant": false,
      "inputs": [],
      "name": "claim",
      "outputs": [
        {
          "name": "",
          "type": "bool"
        }
      ],
      "payable": false,
      "stateMutability": "nonpayable",
      "type": "function"
    }
  ],
  "bytecode": "0x608060405260058054600160a060020a03191690553480156200002157600080fd5b5060405160c08062002110833981018060405260c08110156200004357600080fd5b508051602082015160408301516060840151608085015160a0909501519394929391929091858585858583858181858582818310620000ce576040517f08c379a0000000000000000000000000000000000000000000000000000000008152600401808060200182810382526026815260200180620020ea6026913960400191505060405180910390fd5b60009283556001919091556002805461010060a860020a031916610100600160a060020a03938416021760ff191690556003805433600160a060020a03199091161790819055604051911691907f8be0079c531659141344cd1fd0a4f28419497f9722a3daafe3b4186f6b6457e0908290a360048054600160a060020a031916600160a060020a0383811691909117918290551615620002125760048054604080517f8da5cb5b0000000000000000000000000000000000000000000000000000000081529051600160a060020a0390921692638da5cb5b928282019260209290829003018186803b158015620001c457600080fd5b505afa158015620001d9573d6000803e3d6000fd5b505050506040513d6020811015620001f057600080fd5b505160058054600160a060020a031916600160a060020a039092169190911790555b50600160a060020a03811615156200028b57604080517f08c379a000000000000000000000000000000000000000000000000000000000815260206004820152601960248201527f537570706c696564206964656e74697479206973206e756c6c00000000000000604482015290519081900360640190fd5b60068054600160a060020a031916600160a060020a039290921691909117905550505060079190915550506000821190506200032857604080517f08c379a000000000000000000000000000000000000000000000000000000000815260206004820152601b60248201527f446973747269627574696f6e2063616e6e6f74206265207a65726f0000000000604482015290519081900360640190fd5b6008555050505050611daa80620003406000396000f3fe608060405234801561001057600080fd5b50600436106101465760003560e060020a90048063884a41be116100bc578063c3c5a54711610080578063c3c5a54714610282578063c7a76adf146102a8578063cef63600146102c5578063eda4e6d6146102e2578063efbe1c1c146102ea578063f2fde38b146102f257610146565b8063884a41be1461025a5780638da5cb5b146102625780638f32d59b1461026a57806398d6621b14610272578063be9a65551461027a57610146565b80632c159a1a1161010e5780632c159a1a146101f05780634e71d92d14610214578063506ec0951461021c5780635c9302c9146102245780635d5bf1781461022c578063715018a61461025257610146565b8063013eba921461014b578063069786ea14610183578063086cfca8146101a457806322366844146101cc57806322f3e2d4146101e8575b600080fd5b6101716004803603602081101561016157600080fd5b5035600160a060020a0316610318565b60408051918252519081900360200190f35b61018b61032a565b6040805192835260208301919091528051918290030190f35b6101ca600480360360208110156101ba57600080fd5b5035600160a060020a031661036f565b005b6101d461045b565b604080519115158252519081900360200190f35b6101d461046b565b6101f8610474565b60408051600160a060020a039092168252519081900360200190f35b6101d4610483565b610171610826565b61017161082c565b6101ca6004803603602081101561024257600080fd5b5035600160a060020a0316610832565b6101ca610932565b61017161099c565b6101f86109a2565b6101d46109b1565b6101716109c2565b6101ca610be1565b6101d46004803603602081101561029857600080fd5b5035600160a060020a03166110ae565b610171600480360360208110156102be57600080fd5b50356111c9565b610171600480360360208110156102db57600080fd5b50356111de565b6101716111f3565b6101ca6111f9565b6101ca6004803603602081101561030857600080fd5b5035600160a060020a0316611474565b600a6020526000908152604090205481565b6000806000620151806103486000544261149390919063ffffffff16565b81151561035157fe5b04905061035d816111c9565b610366826111de565b92509250509091565b6103776109b1565b151561038257600080fd5b6004805473ffffffffffffffffffffffffffffffffffffffff1916600160a060020a0383811691909117808355604080517f8da5cb5b00000000000000000000000000000000000000000000000000000000815290519190921692638da5cb5b92808201926020929091829003018186803b15801561040057600080fd5b505afa158015610414573d6000803e3d6000fd5b505050506040513d602081101561042a57600080fd5b50516005805473ffffffffffffffffffffffffffffffffffffffff1916600160a060020a0390921691909117905550565b6000610466306110ae565b905090565b60025460ff1681565b600654600160a060020a031681565b60025460009060ff1615156104e2576040805160e560020a62461bcd02815260206004820152600d60248201527f6973206e6f742061637469766500000000000000000000000000000000000000604482015290519081900360640190fd5b600654604080517f3af32abf0000000000000000000000000000000000000000000000000000000081523360048201529051600160a060020a0390921691633af32abf91602480820192602092909190829003018186803b15801561054657600080fd5b505afa15801561055a573d6000803e3d6000fd5b505050506040513d602081101561057057600080fd5b505115156105c8576040805160e560020a62461bcd02815260206004820152601260248201527f6973206e6f742077686974656c69737465640000000000000000000000000000604482015290519081900360640190fd5b60006105d6600854336114a8565b336000908152600a6020526040902042905590506105f26115e9565b6000600460009054906101000a9004600160a060020a0316600160a060020a031663e1758bd86040518163ffffffff1660e060020a02815260040160206040518083038186803b15801561064557600080fd5b505afa158015610659573d6000803e3d6000fd5b505050506040513d602081101561066f57600080fd5b5051905061067b611d67565b50600b546000908152600960209081526040918290208251808401909352600180820154808552600290920154928401929092526106be9163ffffffff61161116565b815260208101516106d5908463ffffffff61161116565b6020808301918252600b54600090815260098252604080822085516001820155935160029094019390935582517fa9059cbb000000000000000000000000000000000000000000000000000000008152336004820152602481018790529251600160a060020a0386169363a9059cbb936044808301949193928390030190829087803b15801561076457600080fd5b505af1158015610778573d6000803e3d6000fd5b505050506040513d602081101561078e57600080fd5b505115156107e6576040805160e560020a62461bcd02815260206004820152601360248201527f756269207472616e73666572206661696c656400000000000000000000000000604482015290519081900360640190fd5b60408051848152905133917f89ed24731df6b066e4c5186901fffdba18cd9a10f07494aff900bdee260d1304919081900360200190a26001935050505090565b60015481565b600b5481565b61083a6109b1565b151561084557600080fd5b80600160a060020a031663223668446040518163ffffffff1660e060020a02815260040160206040518083038186803b15801561088157600080fd5b505afa158015610895573d6000803e3d6000fd5b505050506040513d60208110156108ab57600080fd5b50511515610903576040805160e560020a62461bcd02815260206004820152601a60248201527f4964656e74697479206973206e6f742072656769737465726564000000000000604482015290519081900360640190fd5b6006805473ffffffffffffffffffffffffffffffffffffffff1916600160a060020a0392909216919091179055565b61093a6109b1565b151561094557600080fd5b600354604051600091600160a060020a0316907f8be0079c531659141344cd1fd0a4f28419497f9722a3daafe3b4186f6b6457e0908390a36003805473ffffffffffffffffffffffffffffffffffffffff19169055565b60085481565b600354600160a060020a031690565b600354600160a060020a0316331490565b60025460009060ff161515610a21576040805160e560020a62461bcd02815260206004820152600d60248201527f6973206e6f742061637469766500000000000000000000000000000000000000604482015290519081900360640190fd5b336000908152600a60205260408120548110610b8e57600654604080517f2ef1afc90000000000000000000000000000000000000000000000000000000081523360048201529051600092600160a060020a031691632ef1afc9916024808301926020929190829003018186803b158015610a9b57600080fd5b505afa158015610aaf573d6000803e3d6000fd5b505050506040513d6020811015610ac557600080fd5b505111610ae457610adf426201518063ffffffff61149316565b610b89565b600654604080517f2ef1afc90000000000000000000000000000000000000000000000000000000081523360048201529051610b89926201518092600160a060020a0390911691632ef1afc991602480820192602092909190829003018186803b158015610b5157600080fd5b505afa158015610b65573d6000803e3d6000fd5b505050506040513d6020811015610b7b57600080fd5b50519063ffffffff61149316565b610b9f565b336000908152600a60205260409020545b9050600062015180610bb7428463ffffffff61149316565b811515610bc057fe5b04905060006001821015610bd5576000610bd9565b6008545b935050505090565b610be961045b565b1515610c3f576040805160e560020a62461bcd02815260206004820152601860248201527f536368656d65206973206e6f7420726567697374657265640000000000000000604482015290519081900360640190fd5b610c4761162a565b610c4f611733565b62015180610c686000544261149390919063ffffffff16565b811515610c7157fe5b04600b5560048054604080517fe1758bd80000000000000000000000000000000000000000000000000000000081529051600093600160a060020a039093169263e1758bd892808201926020929091829003018186803b158015610cd457600080fd5b505afa158015610ce8573d6000803e3d6000fd5b505050506040513d6020811015610cfe57600080fd5b505160075490915060001015610fe75760048054604080517f70a08231000000000000000000000000000000000000000000000000000000008152600160a060020a039283169381019390935251908316916370a08231916024808301926020929190829003018186803b158015610d7557600080fd5b505afa158015610d89573d6000803e3d6000fd5b505050506040513d6020811015610d9f57600080fd5b50516007541115610dfa576040805160e560020a62461bcd02815260206004820152601960248201527f4e6f7420656e6f7567682066756e647320746f20737461727400000000000000604482015290519081900360640190fd5b6005546007546040805130602480830191909152604480830194909452825180830385018152606492830184526020810180517bffffffffffffffffffffffffffffffffffffffffffffffffffffffff167fa9059cbb000000000000000000000000000000000000000000000000000000001781526004805495517fd1b7089a000000000000000000000000000000000000000000000000000000008152600160a060020a038a811692820192835296871697810188905260009581018690526080948101948552835160848201528351969098169763d1b7089a978a979496909590949293909260a490920191808383885b83811015610f05578181015183820152602001610eed565b50505050905090810190601f168015610f325780820380516001836020036101000a031916815260200191505b5095505050505050600060405180830381600087803b158015610f5457600080fd5b505af1158015610f68573d6000803e3d6000fd5b505050506040513d6000823e601f3d908101601f191682016040908152811015610f9157600080fd5b815160208301805191939283019291640100000000811115610fb257600080fd5b82016020810184811115610fc557600080fd5b8151640100000000811182820187101715610fdf57600080fd5b505050505050505b604080517f70a0823100000000000000000000000000000000000000000000000000000000815230600482015290517faaf5e5cfa7e44b7c9cfc845d0cc96adc1c5a4c802d3572523f740424a3ce4fb291600160a060020a038416916370a0823191602480820192602092909190829003018186803b15801561106957600080fd5b505afa15801561107d573d6000803e3d6000fd5b505050506040513d602081101561109357600080fd5b5051604080519182524260208301528051918290030190a150565b600454600090600160a060020a03161515611113576040805160e560020a62461bcd02815260206004820152601160248201527f417661746172206973206e6f7420736574000000000000000000000000000000604482015290519081900360640190fd5b60055460048054604080517f9be2faed000000000000000000000000000000000000000000000000000000008152600160a060020a03878116948201949094529183166024830152519190921691639be2faed916044808301926020929190829003018186803b15801561118657600080fd5b505afa15801561119a573d6000803e3d6000fd5b505050506040513d60208110156111b057600080fd5b505115156111c0575060006111c4565b5060015b919050565b60009081526009602052604090206001015490565b60009081526009602052604090206002015490565b60005481565b600154421015611253576040805160e560020a62461bcd02815260206004820152601460248201527f706572696f6420686173206e6f7420656e646564000000000000000000000000604482015290519081900360640190fd5b6000600460009054906101000a9004600160a060020a0316600160a060020a031663e1758bd86040518163ffffffff1660e060020a02815260040160206040518083038186803b1580156112a657600080fd5b505afa1580156112ba573d6000803e3d6000fd5b505050506040513d60208110156112d057600080fd5b5051604080517f70a082310000000000000000000000000000000000000000000000000000000081523060048201529051919250600091600160a060020a038416916370a08231916024808301926020929190829003018186803b15801561133757600080fd5b505afa15801561134b573d6000803e3d6000fd5b505050506040513d602081101561136157600080fd5b5051905060008111156114605760048054604080517fa9059cbb000000000000000000000000000000000000000000000000000000008152600160a060020a039283169381019390935260248301849052519084169163a9059cbb9160448083019260209291908290030181600087803b1580156113de57600080fd5b505af11580156113f2573d6000803e3d6000fd5b505050506040513d602081101561140857600080fd5b50511515611460576040805160e560020a62461bcd02815260206004820152601360248201527f656e64207472616e73666572206661696c656400000000000000000000000000604482015290519081900360640190fd5b61146861198c565b611470611bce565b5050565b61147c6109b1565b151561148757600080fd5b61149081611c42565b50565b6000828211156114a257600080fd5b50900390565b600160a060020a0381166000908152600a6020526040812054151561154d57600654604080517f2ef1afc9000000000000000000000000000000000000000000000000000000008152600160a060020a03858116600483015291516115339362015180931691632ef1afc9916024808301926020929190829003018186803b158015610b5157600080fd5b600160a060020a0383166000908152600a60205260409020555b600160a060020a0382166000908152600a6020526040812054620151809061157c90429063ffffffff61149316565b81151561158557fe5b04905060018110156115e1576040805160e560020a62461bcd02815260206004820152601860248201527f48617320636c61696d65642077697468696e2061206461790000000000000000604482015290519081900360640190fd5b509192915050565b620151806116026000544261149390919063ffffffff16565b81151561160b57fe5b04600b55565b60008282018381101561162357600080fd5b9392505050565b600054421015801561163d575060015442105b1515611693576040805160e560020a62461bcd02815260206004820152600d60248201527f6e6f7420696e20706572696f6400000000000000000000000000000000000000604482015290519081900360640190fd5b60025460ff16156116ee576040805160e560020a62461bcd02815260206004820152601260248201527f63616e6e6f742073746172742074776963650000000000000000000000000000604482015290519081900360640190fd5b6002805460ff1916600117905560408051428152905133917f727dd98701807c5fdf715b9f1fd7d87461a558e2ab3e05935add76e42e330fa3919081900360200190a2565b61173b61045b565b1515611791576040805160e560020a62461bcd02815260206004820152601860248201527f536368656d65206973206e6f7420726567697374657265640000000000000000604482015290519081900360640190fd5b6005546006546040805130602480830191909152825180830382018152604492830184526020810180517bffffffffffffffffffffffffffffffffffffffffffffffffffffffff167f5f539d69000000000000000000000000000000000000000000000000000000001781526004805495517fd1b7089a000000000000000000000000000000000000000000000000000000008152600160a060020a039788169181018281529688169581018690526000606482018190526080958201958652845160848301528451989099169863d1b7089a989297949695909493909260a490920191808383885b8381101561189257818101518382015260200161187a565b50505050905090810190601f1680156118bf5780820380516001836020036101000a031916815260200191505b5095505050505050600060405180830381600087803b1580156118e157600080fd5b505af11580156118f5573d6000803e3d6000fd5b505050506040513d6000823e601f3d908101601f19168201604090815281101561191e57600080fd5b81516020830180519193928301929164010000000081111561193f57600080fd5b8201602081018481111561195257600080fd5b815164010000000081118282018710171561196c57600080fd5b505060045461198a9550600160a060020a0316935061147492505050565b565b61199461045b565b15156119ea576040805160e560020a62461bcd02815260206004820152601860248201527f536368656d65206973206e6f7420726567697374657265640000000000000000604482015290519081900360640190fd5b6005546006546040805130602480830191909152825180830382018152604492830184526020810180517bffffffffffffffffffffffffffffffffffffffffffffffffffffffff167fc375c2ef000000000000000000000000000000000000000000000000000000001781526004805495517fd1b7089a000000000000000000000000000000000000000000000000000000008152600160a060020a039788169181018281529688169581018690526000606482018190526080958201958652845160848301528451989099169863d1b7089a989297949695909493909260a490920191808383885b83811015611aeb578181015183820152602001611ad3565b50505050905090810190601f168015611b185780820380516001836020036101000a031916815260200191505b5095505050505050600060405180830381600087803b158015611b3a57600080fd5b505af1158015611b4e573d6000803e3d6000fd5b505050506040513d6000823e601f3d908101601f191682016040908152811015611b7757600080fd5b815160208301805191939283019291640100000000811115611b9857600080fd5b82016020810184811115611bab57600080fd5b8151640100000000811182820187101715611bc557600080fd5b50505050505050565b600154421015611c28576040805160e560020a62461bcd02815260206004820152601460248201527f706572696f6420686173206e6f7420656e646564000000000000000000000000604482015290519081900360640190fd5b60025461198a906101009004600160a060020a0316611cc0565b600160a060020a0381161515611c5757600080fd5b600354604051600160a060020a038084169216907f8be0079c531659141344cd1fd0a4f28419497f9722a3daafe3b4186f6b6457e090600090a36003805473ffffffffffffffffffffffffffffffffffffffff1916600160a060020a0392909216919091179055565b60025460ff161515611d1c576040805160e560020a62461bcd02815260206004820152600d60248201527f6973206e6f742061637469766500000000000000000000000000000000000000604482015290519081900360640190fd5b6002805460ff1916905560408051428152905133917ef689ee9beb942c1c9c0d6642687ace05a9000d5f2979d344163c57829fa779919081900360200190a280600160a060020a0316ff5b60408051808201909152600080825260208201529056fea165627a7a72305820184c836545db768ae6897f9384c419252eb4a941775d41f7fbad3f803b348260002973746172742063616e6e6f74206265206166746572206e6f7220657175616c20746f20656e64",
  "source": "pragma solidity 0.5.4;\n\nimport \"./UBI.sol\";\nimport \"openzeppelin-solidity/contracts/math/SafeMath.sol\";\n\n\n/* @title Fixed amount-per-day UBI scheme allowing multiple claims\n * during a longer period\n */\ncontract FixedUBI is AbstractUBI {\n    using SafeMath for uint256;\n\n    /* @dev Constructor\n     * @param _avatar The avatar of the DAO\n     * @param _identity The identity contract\n     * @param _initialReserve The initial amount to transfer to this contract\n     * @param _periodStart The time from when the contract can start\n     * @param _periodEnd The time from when the contract can end\n     * @param _claimDistribution The amount to claim per day\n     */\n    constructor(\n        Avatar _avatar,\n        Identity _identity,\n        uint256 _initialReserve,\n        uint256 _periodStart,\n        uint256 _periodEnd,\n        uint256 _claimDistribution\n    ) public AbstractUBI(_avatar, _identity, _initialReserve, _periodStart, _periodEnd) {\n        require(_claimDistribution > 0, \"Distribution cannot be zero\");\n\n        claimDistribution = _claimDistribution;\n    }\n\n    /* @dev The claim calculation formula. Checks to see how many days\n     * the given address can claim for, with days 7 being the maximum.\n     * If the user has not claimed yet, they will be eligible to claim for\n     * The amount of days they have been whitelisted, up to seven.\n     * @param amount the amount per day one can claim\n     * @param user the claiming address\n     * @return the amount of GoodDollar the user can claim\n     */\n    function distributionFormula(uint256 amount, address user)\n        internal\n        returns (uint256)\n    {\n        if (lastClaimed[user] == 0) {\n            lastClaimed[user] = identity.dateAuthenticated(user).sub(1 days);\n        }\n\n        uint256 claimDays = now.sub(lastClaimed[user]) / 1 days;\n\n        require(claimDays >= 1, \"Has claimed within a day\");\n        return amount;\n    }\n\n    /* @dev Sets the currentDay variable to amount of days\n     * since start of contract. Internal function\n     */\n    function setDay() internal {\n        currentDay = (now.sub(periodStart)) / 1 days;\n    }\n\n    /* @dev Checks amount address is eligible to claim for, regardless if they have been\n     * whitelisted or not. If they have not been whitelisted, they are eligible to claim for one day.\n     * @return The amount of GoodDollar the address can claim.\n     */\n    function checkEntitlement() public view requireActive returns (uint256) {\n        uint256 lastClaimed = lastClaimed[msg.sender] > 0\n            ? lastClaimed[msg.sender]\n            : (\n                identity.dateAuthenticated(msg.sender) > 0\n                    ? identity.dateAuthenticated(msg.sender).sub(1 days)\n                    : now.sub(1 days)\n            );\n\n        uint256 claimDays = now.sub(lastClaimed) / 1 days;\n        uint256 claimAmount = claimDays >= 1 ? claimDistribution : 0;\n\n        return claimAmount;\n    }\n\n    /* @dev Function for claiming UBI. Requires contract to be active and claimer to be whitelisted.\n     * Calls distributionFormula, calculating the amount the caller can claim, and transfers the amount\n     * to the caller. Emits the address of caller and amount claimed.\n     * @return A bool indicating if UBI was claimed\n     */\n    function claim() public requireActive onlyWhitelisted returns (bool) {\n        uint256 newDistribution = distributionFormula(claimDistribution, msg.sender);\n        lastClaimed[msg.sender] = now;\n        setDay();\n\n        GoodDollar token = GoodDollar(address(avatar.nativeToken()));\n\n        Day memory day = claimDay[currentDay];\n\n        day.amountOfClaimers = day.amountOfClaimers.add(1);\n        day.claimAmount = day.claimAmount.add(newDistribution);\n\n        claimDay[currentDay] = day;\n        require(token.transfer(msg.sender, newDistribution), \"ubi transfer failed\");\n        emit UBIClaimed(msg.sender, newDistribution);\n\n        return true;\n    }\n}\n",
  "sourcePath": "/Users/hadar/workspace/GoodDollar/GoodBootstrap/packages/contracts/contracts/dao/schemes/FixedUBI.sol",
  "compiler": {
    "name": "solc",
    "version": "0.5.4+commit.9549d8ff.Emscripten.clang"
  },
  "schemaVersion": "3.0.16",
  "updatedAt": "2020-07-09T12:07:45.488Z",
  "devdoc": {
    "methods": {
      "end()": {
        "details": "Function that ends the claiming period. Can only be done if Contract has been started and periodEnd is passed. Sends the remaining funds on contract back to the avatar contract address"
      },
      "isOwner()": {
        "return": "true if `msg.sender` is the owner of the contract."
      },
      "isRegistered()": {
        "details": "function to see if an avatar has been set and if this scheme is registered",
        "return": "true if scheme is registered"
      },
      "isRegistered(address)": {
        "details": "function to see if an avatar has been set and if this scheme is registered",
        "return": "true if scheme is registered"
      },
      "owner()": {
        "return": "the address of the owner."
      },
      "renounceOwnership()": {
        "details": "Allows the current owner to relinquish control of the contract."
      },
      "setAvatar(address)": {
        "details": "Function to set a new avatar and controller for scheme can only be done by owner of scheme"
      },
      "transferOwnership(address)": {
        "details": "Allows the current owner to transfer control of the contract to a newOwner.",
        "params": {
          "newOwner": "The address to transfer ownership to."
        }
      }
    }
  },
  "userdoc": {
    "methods": {
      "renounceOwnership()": {
        "notice": "Renouncing to ownership will leave the contract without an owner. It will not be possible to call the functions with the `onlyOwner` modifier anymore."
      }
    }
  }
}