{
  "contractName": "FixedUBI",
  "abi": [
    {
      "inputs": [
        {
          "internalType": "contract Avatar",
          "name": "_avatar",
          "type": "address"
        },
        {
          "internalType": "contract Identity",
          "name": "_identity",
          "type": "address"
        },
        {
          "internalType": "uint256",
          "name": "_initialReserve",
          "type": "uint256"
        },
        {
          "internalType": "uint256",
          "name": "_periodStart",
          "type": "uint256"
        },
        {
          "internalType": "uint256",
          "name": "_periodEnd",
          "type": "uint256"
        },
        {
          "internalType": "uint256",
          "name": "_claimDistribution",
          "type": "uint256"
        }
      ],
      "payable": false,
      "stateMutability": "nonpayable",
      "type": "constructor"
    },
    {
      "anonymous": false,
      "inputs": [
        {
          "indexed": true,
          "internalType": "address",
          "name": "previousOwner",
          "type": "address"
        },
        {
          "indexed": true,
          "internalType": "address",
          "name": "newOwner",
          "type": "address"
        }
      ],
      "name": "OwnershipTransferred",
      "type": "event"
    },
    {
      "anonymous": false,
      "inputs": [
        {
          "indexed": true,
          "internalType": "address",
          "name": "by",
          "type": "address"
        },
        {
          "indexed": false,
          "internalType": "uint256",
          "name": "time",
          "type": "uint256"
        }
      ],
      "name": "SchemeEnded",
      "type": "event"
    },
    {
      "anonymous": false,
      "inputs": [
        {
          "indexed": true,
          "internalType": "address",
          "name": "by",
          "type": "address"
        },
        {
          "indexed": false,
          "internalType": "uint256",
          "name": "time",
          "type": "uint256"
        }
      ],
      "name": "SchemeStarted",
      "type": "event"
    },
    {
      "anonymous": false,
      "inputs": [
        {
          "indexed": true,
          "internalType": "address",
          "name": "claimer",
          "type": "address"
        },
        {
          "indexed": false,
          "internalType": "uint256",
          "name": "amount",
          "type": "uint256"
        }
      ],
      "name": "UBIClaimed",
      "type": "event"
    },
    {
      "anonymous": false,
      "inputs": [
        {
          "indexed": false,
          "internalType": "uint256",
          "name": "claimers",
          "type": "uint256"
        },
        {
          "indexed": false,
          "internalType": "uint256",
          "name": "claimamount",
          "type": "uint256"
        }
      ],
      "name": "UBIEnded",
      "type": "event"
    },
    {
      "anonymous": false,
      "inputs": [
        {
          "indexed": false,
          "internalType": "uint256",
          "name": "balance",
          "type": "uint256"
        },
        {
          "indexed": false,
          "internalType": "uint256",
          "name": "time",
          "type": "uint256"
        }
      ],
      "name": "UBIStarted",
      "type": "event"
    },
    {
      "constant": true,
      "inputs": [],
      "name": "claimDistribution",
      "outputs": [
        {
          "internalType": "uint256",
          "name": "",
          "type": "uint256"
        }
      ],
      "payable": false,
      "stateMutability": "view",
      "type": "function"
    },
    {
      "constant": true,
      "inputs": [],
      "name": "currentDay",
      "outputs": [
        {
          "internalType": "uint256",
          "name": "",
          "type": "uint256"
        }
      ],
      "payable": false,
      "stateMutability": "view",
      "type": "function"
    },
    {
      "constant": false,
      "inputs": [],
      "name": "end",
      "outputs": [],
      "payable": false,
      "stateMutability": "nonpayable",
      "type": "function"
    },
    {
      "constant": true,
      "inputs": [
        {
          "internalType": "uint256",
          "name": "day",
          "type": "uint256"
        }
      ],
      "name": "getClaimAmount",
      "outputs": [
        {
          "internalType": "uint256",
          "name": "",
          "type": "uint256"
        }
      ],
      "payable": false,
      "stateMutability": "view",
      "type": "function"
    },
    {
      "constant": true,
      "inputs": [
        {
          "internalType": "uint256",
          "name": "day",
          "type": "uint256"
        }
      ],
      "name": "getClaimerCount",
      "outputs": [
        {
          "internalType": "uint256",
          "name": "",
          "type": "uint256"
        }
      ],
      "payable": false,
      "stateMutability": "view",
      "type": "function"
    },
    {
      "constant": true,
      "inputs": [],
      "name": "getDailyStats",
      "outputs": [
        {
          "internalType": "uint256",
          "name": "count",
          "type": "uint256"
        },
        {
          "internalType": "uint256",
          "name": "amount",
          "type": "uint256"
        }
      ],
      "payable": false,
      "stateMutability": "view",
      "type": "function"
    },
    {
      "constant": true,
      "inputs": [],
      "name": "identity",
      "outputs": [
        {
          "internalType": "contract Identity",
          "name": "",
          "type": "address"
        }
      ],
      "payable": false,
      "stateMutability": "view",
      "type": "function"
    },
    {
      "constant": true,
      "inputs": [],
      "name": "isActive",
      "outputs": [
        {
          "internalType": "bool",
          "name": "",
          "type": "bool"
        }
      ],
      "payable": false,
      "stateMutability": "view",
      "type": "function"
    },
    {
      "constant": true,
      "inputs": [],
      "name": "isOwner",
      "outputs": [
        {
          "internalType": "bool",
          "name": "",
          "type": "bool"
        }
      ],
      "payable": false,
      "stateMutability": "view",
      "type": "function"
    },
    {
      "constant": true,
      "inputs": [],
      "name": "isRegistered",
      "outputs": [
        {
          "internalType": "bool",
          "name": "",
          "type": "bool"
        }
      ],
      "payable": false,
      "stateMutability": "view",
      "type": "function"
    },
    {
      "constant": true,
      "inputs": [
        {
          "internalType": "address",
          "name": "scheme",
          "type": "address"
        }
      ],
      "name": "isRegistered",
      "outputs": [
        {
          "internalType": "bool",
          "name": "",
          "type": "bool"
        }
      ],
      "payable": false,
      "stateMutability": "view",
      "type": "function"
    },
    {
      "constant": true,
      "inputs": [
        {
          "internalType": "address",
          "name": "",
          "type": "address"
        }
      ],
      "name": "lastClaimed",
      "outputs": [
        {
          "internalType": "uint256",
          "name": "",
          "type": "uint256"
        }
      ],
      "payable": false,
      "stateMutability": "view",
      "type": "function"
    },
    {
      "constant": true,
      "inputs": [],
      "name": "owner",
      "outputs": [
        {
          "internalType": "address",
          "name": "",
          "type": "address"
        }
      ],
      "payable": false,
      "stateMutability": "view",
      "type": "function"
    },
    {
      "constant": true,
      "inputs": [],
      "name": "periodEnd",
      "outputs": [
        {
          "internalType": "uint256",
          "name": "",
          "type": "uint256"
        }
      ],
      "payable": false,
      "stateMutability": "view",
      "type": "function"
    },
    {
      "constant": true,
      "inputs": [],
      "name": "periodStart",
      "outputs": [
        {
          "internalType": "uint256",
          "name": "",
          "type": "uint256"
        }
      ],
      "payable": false,
      "stateMutability": "view",
      "type": "function"
    },
    {
      "constant": false,
      "inputs": [],
      "name": "renounceOwnership",
      "outputs": [],
      "payable": false,
      "stateMutability": "nonpayable",
      "type": "function"
    },
    {
      "constant": false,
      "inputs": [
        {
          "internalType": "contract Avatar",
          "name": "_avatar",
          "type": "address"
        }
      ],
      "name": "setAvatar",
      "outputs": [],
      "payable": false,
      "stateMutability": "nonpayable",
      "type": "function"
    },
    {
      "constant": false,
      "inputs": [
        {
          "internalType": "contract Identity",
          "name": "_identity",
          "type": "address"
        }
      ],
      "name": "setIdentity",
      "outputs": [],
      "payable": false,
      "stateMutability": "nonpayable",
      "type": "function"
    },
    {
      "constant": false,
      "inputs": [],
      "name": "start",
      "outputs": [],
      "payable": false,
      "stateMutability": "nonpayable",
      "type": "function"
    },
    {
      "constant": false,
      "inputs": [
        {
          "internalType": "address",
          "name": "newOwner",
          "type": "address"
        }
      ],
      "name": "transferOwnership",
      "outputs": [],
      "payable": false,
      "stateMutability": "nonpayable",
      "type": "function"
    },
    {
      "constant": true,
      "inputs": [],
      "name": "checkEntitlement",
      "outputs": [
        {
          "internalType": "uint256",
          "name": "",
          "type": "uint256"
        }
      ],
      "payable": false,
      "stateMutability": "view",
      "type": "function"
    },
    {
      "constant": false,
      "inputs": [],
      "name": "claim",
      "outputs": [
        {
          "internalType": "bool",
          "name": "",
          "type": "bool"
        }
      ],
      "payable": false,
      "stateMutability": "nonpayable",
      "type": "function"
    }
  ],
  "bytecode": "0x6080604052600580546001600160a01b03191690553480156200002157600080fd5b5060405162001e8f38038062001e8f833981810160405260c08110156200004757600080fd5b508051602082015160408301516060840151608085015160a0909501519394929391929091858585858583858181858582818310620000b85760405162461bcd60e51b815260040180806020018281038252602681526020018062001e696026913960400191505060405180910390fd5b600092835560019190915560028054610100600160a81b0319166101006001600160a01b03938416021760ff1916905560038054336001600160a01b03199091161790819055604051911691907f8be0079c531659141344cd1fd0a4f28419497f9722a3daafe3b4186f6b6457e0908290a3600480546001600160a01b0319166001600160a01b0383811691909117918290551615620001e3576004805460408051638da5cb5b60e01b815290516001600160a01b0390921692638da5cb5b928282019260209290829003018186803b1580156200019557600080fd5b505afa158015620001aa573d6000803e3d6000fd5b505050506040513d6020811015620001c157600080fd5b5051600580546001600160a01b0319166001600160a01b039092169190911790555b506001600160a01b03811662000240576040805162461bcd60e51b815260206004820152601960248201527f537570706c696564206964656e74697479206973206e756c6c00000000000000604482015290519081900360640190fd5b600680546001600160a01b039092166001600160a01b031990921691909117905550505060079190915550505080620002c0576040805162461bcd60e51b815260206004820152601b60248201527f446973747269627574696f6e2063616e6e6f74206265207a65726f0000000000604482015290519081900360640190fd5b6008555050505050611b9180620002d86000396000f3fe608060405234801561001057600080fd5b50600436106101425760003560e01c8063884a41be116100b8578063c3c5a5471161007c578063c3c5a5471461027e578063c7a76adf146102a4578063cef63600146102c1578063eda4e6d6146102de578063efbe1c1c146102e6578063f2fde38b146102ee57610142565b8063884a41be146102565780638da5cb5b1461025e5780638f32d59b1461026657806398d6621b1461026e578063be9a65551461027657610142565b80632c159a1a1161010a5780632c159a1a146101ec5780634e71d92d14610210578063506ec095146102185780635c9302c9146102205780635d5bf17814610228578063715018a61461024e57610142565b8063013eba9214610147578063069786ea1461017f578063086cfca8146101a057806322366844146101c857806322f3e2d4146101e4575b600080fd5b61016d6004803603602081101561015d57600080fd5b50356001600160a01b0316610314565b60408051918252519081900360200190f35b610187610326565b6040805192835260208301919091528051918290030190f35b6101c6600480360360208110156101b657600080fd5b50356001600160a01b0316610369565b005b6101d0610420565b604080519115158252519081900360200190f35b6101d0610430565b6101f4610439565b604080516001600160a01b039092168252519081900360200190f35b6101d0610448565b61016d610782565b61016d610788565b6101c66004803603602081101561023e57600080fd5b50356001600160a01b031661078e565b6101c6610877565b61016d6108d2565b6101f46108d8565b6101d06108e7565b61016d6108f8565b6101c6610acc565b6101d06004803603602081101561029457600080fd5b50356001600160a01b0316610f59565b61016d600480360360208110156102ba57600080fd5b5035611048565b61016d600480360360208110156102d757600080fd5b503561105d565b61016d611072565b6101c6611078565b6101c66004803603602081101561030457600080fd5b50356001600160a01b03166112a0565b600a6020526000908152604090205481565b600080600062015180610344600054426112bd90919063ffffffff16565b8161034b57fe5b04905061035781611048565b6103608261105d565b92509250509091565b6103716108e7565b61037a57600080fd5b600480546001600160a01b0319166001600160a01b038381169190911780835560408051638da5cb5b60e01b815290519190921692638da5cb5b92808201926020929091829003018186803b1580156103d257600080fd5b505afa1580156103e6573d6000803e3d6000fd5b505050506040513d60208110156103fc57600080fd5b5051600580546001600160a01b0319166001600160a01b0390921691909117905550565b600061042b30610f59565b905090565b60025460ff1681565b6006546001600160a01b031681565b60025460009060ff16610492576040805162461bcd60e51b815260206004820152600d60248201526c6973206e6f742061637469766560981b604482015290519081900360640190fd5b60065460408051633af32abf60e01b815233600482015290516001600160a01b0390921691633af32abf91602480820192602092909190829003018186803b1580156104dd57600080fd5b505afa1580156104f1573d6000803e3d6000fd5b505050506040513d602081101561050757600080fd5b505161054f576040805162461bcd60e51b81526020600482015260126024820152711a5cc81b9bdd081dda1a5d195b1a5cdd195960721b604482015290519081900360640190fd5b600061055d600854336112d2565b336000908152600a6020526040902042905590506105796113f3565b6000600460009054906101000a90046001600160a01b03166001600160a01b031663e1758bd86040518163ffffffff1660e01b815260040160206040518083038186803b1580156105c957600080fd5b505afa1580156105dd573d6000803e3d6000fd5b505050506040513d60208110156105f357600080fd5b505190506105ff611b42565b50600b546000908152600960209081526040918290208251808401909352600180820154808552600290920154928401929092526106429163ffffffff61141916565b81526020810151610659908463ffffffff61141916565b6020808301918252600b546000908152600982526040808220855160018201559351600290940193909355825163a9059cbb60e01b81523360048201526024810187905292516001600160a01b0386169363a9059cbb936044808301949193928390030190829087803b1580156106cf57600080fd5b505af11580156106e3573d6000803e3d6000fd5b505050506040513d60208110156106f957600080fd5b5051610742576040805162461bcd60e51b81526020600482015260136024820152721d589a481d1c985b9cd9995c8819985a5b1959606a1b604482015290519081900360640190fd5b60408051848152905133917f89ed24731df6b066e4c5186901fffdba18cd9a10f07494aff900bdee260d1304919081900360200190a26001935050505090565b60015481565b600b5481565b6107966108e7565b61079f57600080fd5b806001600160a01b031663223668446040518163ffffffff1660e01b815260040160206040518083038186803b1580156107d857600080fd5b505afa1580156107ec573d6000803e3d6000fd5b505050506040513d602081101561080257600080fd5b5051610855576040805162461bcd60e51b815260206004820152601a60248201527f4964656e74697479206973206e6f742072656769737465726564000000000000604482015290519081900360640190fd5b600680546001600160a01b0319166001600160a01b0392909216919091179055565b61087f6108e7565b61088857600080fd5b6003546040516000916001600160a01b0316907f8be0079c531659141344cd1fd0a4f28419497f9722a3daafe3b4186f6b6457e0908390a3600380546001600160a01b0319169055565b60085481565b6003546001600160a01b031690565b6003546001600160a01b0316331490565b60025460009060ff16610942576040805162461bcd60e51b815260206004820152600d60248201526c6973206e6f742061637469766560981b604482015290519081900360640190fd5b336000908152600a6020526040812054610a7b5760065460408051632ef1afc960e01b815233600482015290516000926001600160a01b031691632ef1afc9916024808301926020929190829003018186803b1580156109a157600080fd5b505afa1580156109b5573d6000803e3d6000fd5b505050506040513d60208110156109cb57600080fd5b5051116109ea576109e5426201518063ffffffff6112bd16565b610a76565b60065460408051632ef1afc960e01b81523360048201529051610a769262015180926001600160a01b0390911691632ef1afc991602480820192602092909190829003018186803b158015610a3e57600080fd5b505afa158015610a52573d6000803e3d6000fd5b505050506040513d6020811015610a6857600080fd5b50519063ffffffff6112bd16565b610a8c565b336000908152600a60205260409020545b9050600062015180610aa4428463ffffffff6112bd16565b81610aab57fe5b04905060006001821015610ac0576000610ac4565b6008545b935050505090565b610ad4610420565b610b20576040805162461bcd60e51b815260206004820152601860248201527714d8da195b59481a5cc81b9bdd081c9959da5cdd195c995960421b604482015290519081900360640190fd5b610b28611432565b610b30611518565b62015180610b49600054426112bd90919063ffffffff16565b81610b5057fe5b04600b556004805460408051631c2eb17b60e31b815290516000936001600160a01b039093169263e1758bd892808201926020929091829003018186803b158015610b9a57600080fd5b505afa158015610bae573d6000803e3d6000fd5b505050506040513d6020811015610bc457600080fd5b505160075490915015610eab5760048054604080516370a0823160e01b81526001600160a01b039283169381019390935251908316916370a08231916024808301926020929190829003018186803b158015610c1f57600080fd5b505afa158015610c33573d6000803e3d6000fd5b505050506040513d6020811015610c4957600080fd5b50516007541115610ca1576040805162461bcd60e51b815260206004820152601960248201527f4e6f7420656e6f7567682066756e647320746f20737461727400000000000000604482015290519081900360640190fd5b6005546007546040805130602480830191909152604480830194909452825180830385018152606492830184526020810180516001600160e01b031663a9059cbb60e01b1781526004805495516368db844d60e11b81526001600160a01b038a811692820192835296871697810188905260009581018690526080948101948552835160848201528351969098169763d1b7089a978a979496909590949293909260a490920191808383885b83811015610d65578181015183820152602001610d4d565b50505050905090810190601f168015610d925780820380516001836020036101000a031916815260200191505b5095505050505050600060405180830381600087803b158015610db457600080fd5b505af1158015610dc8573d6000803e3d6000fd5b505050506040513d6000823e601f3d908101601f191682016040908152811015610df157600080fd5b815160208301805160405192949293830192919084640100000000821115610e1857600080fd5b908301906020820185811115610e2d57600080fd5b8251640100000000811182820188101715610e4757600080fd5b82525081516020918201929091019080838360005b83811015610e74578181015183820152602001610e5c565b50505050905090810190601f168015610ea15780820380516001836020036101000a031916815260200191505b5060405250505050505b604080516370a0823160e01b815230600482015290517faaf5e5cfa7e44b7c9cfc845d0cc96adc1c5a4c802d3572523f740424a3ce4fb2916001600160a01b038416916370a0823191602480820192602092909190829003018186803b158015610f1457600080fd5b505afa158015610f28573d6000803e3d6000fd5b505050506040513d6020811015610f3e57600080fd5b5051604080519182524260208301528051918290030190a150565b6004546000906001600160a01b0316610fad576040805162461bcd60e51b8152602060048201526011602482015270105d985d185c881a5cc81b9bdd081cd95d607a1b604482015290519081900360640190fd5b6005546004805460408051639be2faed60e01b81526001600160a01b03878116948201949094529183166024830152519190921691639be2faed916044808301926020929190829003018186803b15801561100757600080fd5b505afa15801561101b573d6000803e3d6000fd5b505050506040513d602081101561103157600080fd5b505161103f57506000611043565b5060015b919050565b60009081526009602052604090206001015490565b60009081526009602052604090206002015490565b60005481565b6001544210156110c6576040805162461bcd60e51b81526020600482015260146024820152731c195c9a5bd9081a185cc81b9bdd08195b99195960621b604482015290519081900360640190fd5b6000600460009054906101000a90046001600160a01b03166001600160a01b031663e1758bd86040518163ffffffff1660e01b815260040160206040518083038186803b15801561111657600080fd5b505afa15801561112a573d6000803e3d6000fd5b505050506040513d602081101561114057600080fd5b5051604080516370a0823160e01b815230600482015290519192506000916001600160a01b038416916370a08231916024808301926020929190829003018186803b15801561118e57600080fd5b505afa1580156111a2573d6000803e3d6000fd5b505050506040513d60208110156111b857600080fd5b50519050801561128c57600480546040805163a9059cbb60e01b81526001600160a01b039283169381019390935260248301849052519084169163a9059cbb9160448083019260209291908290030181600087803b15801561121957600080fd5b505af115801561122d573d6000803e3d6000fd5b505050506040513d602081101561124357600080fd5b505161128c576040805162461bcd60e51b8152602060048201526013602482015272195b99081d1c985b9cd9995c8819985a5b1959606a1b604482015290519081900360640190fd5b611294611784565b61129c6119d9565b5050565b6112a86108e7565b6112b157600080fd5b6112ba81611a41565b50565b6000828211156112cc57600080fd5b50900390565b6001600160a01b0381166000908152600a602052604081205461135c5760065460408051632ef1afc960e01b81526001600160a01b03858116600483015291516113429362015180931691632ef1afc9916024808301926020929190829003018186803b158015610a3e57600080fd5b6001600160a01b0383166000908152600a60205260409020555b6001600160a01b0382166000908152600a6020526040812054620151809061138b90429063ffffffff6112bd16565b8161139257fe5b04905060018110156113eb576040805162461bcd60e51b815260206004820152601860248201527f48617320636c61696d65642077697468696e2061206461790000000000000000604482015290519081900360640190fd5b509192915050565b6201518061140c600054426112bd90919063ffffffff16565b8161141357fe5b04600b55565b60008282018381101561142b57600080fd5b9392505050565b6000544210158015611445575060015442105b611486576040805162461bcd60e51b815260206004820152600d60248201526c1b9bdd081a5b881c195c9a5bd9609a1b604482015290519081900360640190fd5b60025460ff16156114d3576040805162461bcd60e51b815260206004820152601260248201527163616e6e6f7420737461727420747769636560701b604482015290519081900360640190fd5b6002805460ff1916600117905560408051428152905133917f727dd98701807c5fdf715b9f1fd7d87461a558e2ab3e05935add76e42e330fa3919081900360200190a2565b611520610420565b61156c576040805162461bcd60e51b815260206004820152601860248201527714d8da195b59481a5cc81b9bdd081c9959da5cdd195c995960421b604482015290519081900360640190fd5b6005546006546040805130602480830191909152825180830382018152604492830184526020810180516001600160e01b0316635f539d6960e01b1781526004805495516368db844d60e11b81526001600160a01b039788169181018281529688169581018690526000606482018190526080958201958652845160848301528451989099169863d1b7089a989297949695909493909260a490920191808383885b8381101561162657818101518382015260200161160e565b50505050905090810190601f1680156116535780820380516001836020036101000a031916815260200191505b5095505050505050600060405180830381600087803b15801561167557600080fd5b505af1158015611689573d6000803e3d6000fd5b505050506040513d6000823e601f3d908101601f1916820160409081528110156116b257600080fd5b8151602083018051604051929492938301929190846401000000008211156116d957600080fd5b9083019060208201858111156116ee57600080fd5b825164010000000081118282018810171561170857600080fd5b82525081516020918201929091019080838360005b8381101561173557818101518382015260200161171d565b50505050905090810190601f1680156117625780820380516001836020036101000a031916815260200191505b50604052505060045461178293506001600160a01b031691506112a09050565b565b61178c610420565b6117d8576040805162461bcd60e51b815260206004820152601860248201527714d8da195b59481a5cc81b9bdd081c9959da5cdd195c995960421b604482015290519081900360640190fd5b6005546006546040805130602480830191909152825180830382018152604492830184526020810180516001600160e01b031663c375c2ef60e01b1781526004805495516368db844d60e11b81526001600160a01b039788169181018281529688169581018690526000606482018190526080958201958652845160848301528451989099169863d1b7089a989297949695909493909260a490920191808383885b8381101561189257818101518382015260200161187a565b50505050905090810190601f1680156118bf5780820380516001836020036101000a031916815260200191505b5095505050505050600060405180830381600087803b1580156118e157600080fd5b505af11580156118f5573d6000803e3d6000fd5b505050506040513d6000823e601f3d908101601f19168201604090815281101561191e57600080fd5b81516020830180516040519294929383019291908464010000000082111561194557600080fd5b90830190602082018581111561195a57600080fd5b825164010000000081118282018810171561197457600080fd5b82525081516020918201929091019080838360005b838110156119a1578181015183820152602001611989565b50505050905090810190601f1680156119ce5780820380516001836020036101000a031916815260200191505b506040525050505050565b600154421015611a27576040805162461bcd60e51b81526020600482015260146024820152731c195c9a5bd9081a185cc81b9bdd08195b99195960621b604482015290519081900360640190fd5b6002546117829061010090046001600160a01b0316611ab0565b6001600160a01b038116611a5457600080fd5b6003546040516001600160a01b038084169216907f8be0079c531659141344cd1fd0a4f28419497f9722a3daafe3b4186f6b6457e090600090a3600380546001600160a01b0319166001600160a01b0392909216919091179055565b60025460ff16611af7576040805162461bcd60e51b815260206004820152600d60248201526c6973206e6f742061637469766560981b604482015290519081900360640190fd5b6002805460ff1916905560408051428152905133917ef689ee9beb942c1c9c0d6642687ace05a9000d5f2979d344163c57829fa779919081900360200190a2806001600160a01b0316ff5b60405180604001604052806000815260200160008152509056fea265627a7a723158201aea8a9ebce4b6780b1d65779fbe0bda2c38b553c7a95b2022d4f610af2b01cf64736f6c6343000510003273746172742063616e6e6f74206265206166746572206e6f7220657175616c20746f20656e64",
  "source": "pragma solidity >0.5.4;\n\nimport \"./UBI.sol\";\nimport \"openzeppelin-solidity/contracts/math/SafeMath.sol\";\n\n/* @title Fixed amount-per-day UBI scheme allowing multiple claims\n * during a longer period\n */\ncontract FixedUBI is AbstractUBI {\n    using SafeMath for uint256;\n\n    /* @dev Constructor\n     * @param _avatar The avatar of the DAO\n     * @param _identity The identity contract\n     * @param _initialReserve The initial amount to transfer to this contract\n     * @param _periodStart The time from when the contract can start\n     * @param _periodEnd The time from when the contract can end\n     * @param _claimDistribution The amount to claim per day\n     */\n    constructor(\n        Avatar _avatar,\n        Identity _identity,\n        uint256 _initialReserve,\n        uint256 _periodStart,\n        uint256 _periodEnd,\n        uint256 _claimDistribution\n    ) public AbstractUBI(_avatar, _identity, _initialReserve, _periodStart, _periodEnd) {\n        require(_claimDistribution > 0, \"Distribution cannot be zero\");\n\n        claimDistribution = _claimDistribution;\n    }\n\n    /* @dev The claim calculation formula. Checks to see how many days\n     * the given address can claim for, with days 7 being the maximum.\n     * If the user has not claimed yet, they will be eligible to claim for\n     * The amount of days they have been whitelisted, up to seven.\n     * @param amount the amount per day one can claim\n     * @param user the claiming address\n     * @return the amount of GoodDollar the user can claim\n     */\n    function distributionFormula(uint256 amount, address user)\n        internal\n        returns (uint256)\n    {\n        if (lastClaimed[user] == 0) {\n            lastClaimed[user] = identity.dateAuthenticated(user).sub(1 days);\n        }\n\n        uint256 claimDays = now.sub(lastClaimed[user]) / 1 days;\n\n        require(claimDays >= 1, \"Has claimed within a day\");\n        return amount;\n    }\n\n    /* @dev Sets the currentDay variable to amount of days\n     * since start of contract. Internal function\n     */\n    function setDay() internal {\n        currentDay = (now.sub(periodStart)) / 1 days;\n    }\n\n    /* @dev Checks amount address is eligible to claim for, regardless if they have been\n     * whitelisted or not. If they have not been whitelisted, they are eligible to claim for one day.\n     * @return The amount of GoodDollar the address can claim.\n     */\n    function checkEntitlement() public view requireActive returns (uint256) {\n        uint256 lastClaimed = lastClaimed[msg.sender] > 0\n            ? lastClaimed[msg.sender]\n            : (\n                identity.dateAuthenticated(msg.sender) > 0\n                    ? identity.dateAuthenticated(msg.sender).sub(1 days)\n                    : now.sub(1 days)\n            );\n\n        uint256 claimDays = now.sub(lastClaimed) / 1 days;\n        uint256 claimAmount = claimDays >= 1 ? claimDistribution : 0;\n\n        return claimAmount;\n    }\n\n    /* @dev Function for claiming UBI. Requires contract to be active and claimer to be whitelisted.\n     * Calls distributionFormula, calculating the amount the caller can claim, and transfers the amount\n     * to the caller. Emits the address of caller and amount claimed.\n     * @return A bool indicating if UBI was claimed\n     */\n    function claim() public requireActive onlyWhitelisted returns (bool) {\n        uint256 newDistribution = distributionFormula(claimDistribution, msg.sender);\n        lastClaimed[msg.sender] = now;\n        setDay();\n\n        GoodDollar token = GoodDollar(address(avatar.nativeToken()));\n\n        Day memory day = claimDay[currentDay];\n\n        day.amountOfClaimers = day.amountOfClaimers.add(1);\n        day.claimAmount = day.claimAmount.add(newDistribution);\n\n        claimDay[currentDay] = day;\n        require(token.transfer(msg.sender, newDistribution), \"ubi transfer failed\");\n        emit UBIClaimed(msg.sender, newDistribution);\n\n        return true;\n    }\n}\n",
  "sourcePath": "/Users/hadar/workspace/GoodDollar/GoodBootstrap/packages/contracts/contracts/dao/schemes/FixedUBI.sol",
  "compiler": {
    "name": "solc",
    "version": "0.5.16+commit.9c3226ce.Emscripten.clang"
  },
  "schemaVersion": "3.2.3",
  "updatedAt": "2022-10-27T11:34:11.129Z",
  "devdoc": {
    "methods": {
      "end()": {
        "details": "Function that ends the claiming period. Can only be done if Contract has been started and periodEnd is passed. Sends the remaining funds on contract back to the avatar contract address"
      },
      "isOwner()": {
        "return": "true if `msg.sender` is the owner of the contract."
      },
      "isRegistered()": {
        "details": "function to see if an avatar has been set and if this scheme is registered",
        "return": "true if scheme is registered"
      },
      "isRegistered(address)": {
        "details": "function to see if an avatar has been set and if this scheme is registered",
        "return": "true if scheme is registered"
      },
      "owner()": {
        "return": "the address of the owner."
      },
      "renounceOwnership()": {
        "details": "Allows the current owner to relinquish control of the contract."
      },
      "setAvatar(address)": {
        "details": "Function to set a new avatar and controller for scheme can only be done by owner of scheme"
      },
      "transferOwnership(address)": {
        "details": "Allows the current owner to transfer control of the contract to a newOwner.",
        "params": {
          "newOwner": "The address to transfer ownership to."
        }
      }
    }
  },
  "userdoc": {
    "methods": {
      "renounceOwnership()": {
        "notice": "Renouncing to ownership will leave the contract without an owner. It will not be possible to call the functions with the `onlyOwner` modifier anymore."
      }
    }
  }
}