{
  "contractName": "FixedUBI",
  "abi": [
    {
      "constant": true,
      "inputs": [
        {
          "name": "",
          "type": "address"
        }
      ],
      "name": "lastClaimed",
      "outputs": [
        {
          "name": "",
          "type": "uint256"
        }
      ],
      "payable": false,
      "stateMutability": "view",
      "type": "function"
    },
    {
      "constant": true,
      "inputs": [],
      "name": "getDailyStats",
      "outputs": [
        {
          "name": "count",
          "type": "uint256"
        },
        {
          "name": "amount",
          "type": "uint256"
        }
      ],
      "payable": false,
      "stateMutability": "view",
      "type": "function"
    },
    {
      "constant": false,
      "inputs": [
        {
          "name": "_avatar",
          "type": "address"
        }
      ],
      "name": "setAvatar",
      "outputs": [],
      "payable": false,
      "stateMutability": "nonpayable",
      "type": "function"
    },
    {
      "constant": true,
      "inputs": [],
      "name": "isRegistered",
      "outputs": [],
      "payable": false,
      "stateMutability": "view",
      "type": "function"
    },
    {
      "constant": true,
      "inputs": [],
      "name": "isActive",
      "outputs": [
        {
          "name": "",
          "type": "bool"
        }
      ],
      "payable": false,
      "stateMutability": "view",
      "type": "function"
    },
    {
      "constant": true,
      "inputs": [],
      "name": "identity",
      "outputs": [
        {
          "name": "",
          "type": "address"
        }
      ],
      "payable": false,
      "stateMutability": "view",
      "type": "function"
    },
    {
      "constant": true,
      "inputs": [],
      "name": "periodEnd",
      "outputs": [
        {
          "name": "",
          "type": "uint256"
        }
      ],
      "payable": false,
      "stateMutability": "view",
      "type": "function"
    },
    {
      "constant": true,
      "inputs": [],
      "name": "currentDay",
      "outputs": [
        {
          "name": "",
          "type": "uint256"
        }
      ],
      "payable": false,
      "stateMutability": "view",
      "type": "function"
    },
    {
      "constant": false,
      "inputs": [
        {
          "name": "_identity",
          "type": "address"
        },
        {
          "name": "_avatar",
          "type": "address"
        }
      ],
      "name": "setIdentity",
      "outputs": [],
      "payable": false,
      "stateMutability": "nonpayable",
      "type": "function"
    },
    {
      "constant": false,
      "inputs": [],
      "name": "renounceOwnership",
      "outputs": [],
      "payable": false,
      "stateMutability": "nonpayable",
      "type": "function"
    },
    {
      "constant": true,
      "inputs": [],
      "name": "claimDistribution",
      "outputs": [
        {
          "name": "",
          "type": "uint256"
        }
      ],
      "payable": false,
      "stateMutability": "view",
      "type": "function"
    },
    {
      "constant": false,
      "inputs": [
        {
          "name": "",
          "type": "address"
        }
      ],
      "name": "end",
      "outputs": [],
      "payable": false,
      "stateMutability": "nonpayable",
      "type": "function"
    },
    {
      "constant": true,
      "inputs": [],
      "name": "owner",
      "outputs": [
        {
          "name": "",
          "type": "address"
        }
      ],
      "payable": false,
      "stateMutability": "view",
      "type": "function"
    },
    {
      "constant": true,
      "inputs": [],
      "name": "isOwner",
      "outputs": [
        {
          "name": "",
          "type": "bool"
        }
      ],
      "payable": false,
      "stateMutability": "view",
      "type": "function"
    },
    {
      "constant": false,
      "inputs": [],
      "name": "start",
      "outputs": [],
      "payable": false,
      "stateMutability": "nonpayable",
      "type": "function"
    },
    {
      "constant": true,
      "inputs": [
        {
          "name": "day",
          "type": "uint256"
        }
      ],
      "name": "getClaimerCount",
      "outputs": [
        {
          "name": "",
          "type": "uint256"
        }
      ],
      "payable": false,
      "stateMutability": "view",
      "type": "function"
    },
    {
      "constant": true,
      "inputs": [
        {
          "name": "day",
          "type": "uint256"
        }
      ],
      "name": "getClaimAmount",
      "outputs": [
        {
          "name": "",
          "type": "uint256"
        }
      ],
      "payable": false,
      "stateMutability": "view",
      "type": "function"
    },
    {
      "constant": true,
      "inputs": [],
      "name": "lastCalc",
      "outputs": [
        {
          "name": "",
          "type": "uint256"
        }
      ],
      "payable": false,
      "stateMutability": "view",
      "type": "function"
    },
    {
      "constant": true,
      "inputs": [],
      "name": "periodStart",
      "outputs": [
        {
          "name": "",
          "type": "uint256"
        }
      ],
      "payable": false,
      "stateMutability": "view",
      "type": "function"
    },
    {
      "constant": false,
      "inputs": [
        {
          "name": "newOwner",
          "type": "address"
        }
      ],
      "name": "transferOwnership",
      "outputs": [],
      "payable": false,
      "stateMutability": "nonpayable",
      "type": "function"
    },
    {
      "inputs": [
        {
          "name": "_avatar",
          "type": "address"
        },
        {
          "name": "_identity",
          "type": "address"
        },
        {
          "name": "_initialReserve",
          "type": "uint256"
        },
        {
          "name": "_periodStart",
          "type": "uint256"
        },
        {
          "name": "_periodEnd",
          "type": "uint256"
        },
        {
          "name": "_claimDistribution",
          "type": "uint256"
        }
      ],
      "payable": false,
      "stateMutability": "nonpayable",
      "type": "constructor"
    },
    {
      "anonymous": false,
      "inputs": [
        {
          "indexed": false,
          "name": "balance",
          "type": "uint256"
        },
        {
          "indexed": false,
          "name": "time",
          "type": "uint256"
        }
      ],
      "name": "UBIStarted",
      "type": "event"
    },
    {
      "anonymous": false,
      "inputs": [
        {
          "indexed": true,
          "name": "claimer",
          "type": "address"
        },
        {
          "indexed": false,
          "name": "amount",
          "type": "uint256"
        }
      ],
      "name": "UBIClaimed",
      "type": "event"
    },
    {
      "anonymous": false,
      "inputs": [
        {
          "indexed": false,
          "name": "claimers",
          "type": "uint256"
        },
        {
          "indexed": false,
          "name": "claimamount",
          "type": "uint256"
        }
      ],
      "name": "UBIEnded",
      "type": "event"
    },
    {
      "anonymous": false,
      "inputs": [
        {
          "indexed": true,
          "name": "previousOwner",
          "type": "address"
        },
        {
          "indexed": true,
          "name": "newOwner",
          "type": "address"
        }
      ],
      "name": "OwnershipTransferred",
      "type": "event"
    },
    {
      "anonymous": false,
      "inputs": [
        {
          "indexed": true,
          "name": "by",
          "type": "address"
        },
        {
          "indexed": false,
          "name": "time",
          "type": "uint256"
        }
      ],
      "name": "SchemeStarted",
      "type": "event"
    },
    {
      "anonymous": false,
      "inputs": [
        {
          "indexed": true,
          "name": "by",
          "type": "address"
        },
        {
          "indexed": false,
          "name": "time",
          "type": "uint256"
        }
      ],
      "name": "SchemeEnded",
      "type": "event"
    },
    {
      "constant": true,
      "inputs": [],
      "name": "checkEntitlement",
      "outputs": [
        {
          "name": "",
          "type": "uint256"
        }
      ],
      "payable": false,
      "stateMutability": "view",
      "type": "function"
    },
    {
      "constant": false,
      "inputs": [],
      "name": "claim",
      "outputs": [
        {
          "name": "",
          "type": "bool"
        }
      ],
      "payable": false,
      "stateMutability": "nonpayable",
      "type": "function"
    }
  ],
  "bytecode": "0x608060405260048054600160a060020a03191690553480156200002157600080fd5b5060405160c08062002289833981018060405260c08110156200004357600080fd5b508051602082015160408301516060840151608085015160a09095015193949293919290918585858585838581818585808210620000cd576040517f08c379a0000000000000000000000000000000000000000000000000000000008152600401808060200182810382526026815260200180620022636026913960400191505060405180910390fd5b600091825560015560028054600160a860020a0319166101003381029190911791829055604051600160a060020a03919092041691907f8be0079c531659141344cd1fd0a4f28419497f9722a3daafe3b4186f6b6457e0908290a360038054600160a060020a031916600160a060020a03838116919091179182905516156200020957600360009054906101000a9004600160a060020a0316600160a060020a0316638da5cb5b6040518163ffffffff167c010000000000000000000000000000000000000000000000000000000002815260040160206040518083038186803b158015620001bb57600080fd5b505afa158015620001d0573d6000803e3d6000fd5b505050506040513d6020811015620001e757600080fd5b505160048054600160a060020a031916600160a060020a039092169190911790555b50600160a060020a03811615156200028257604080517f08c379a000000000000000000000000000000000000000000000000000000000815260206004820152601960248201527f537570706c696564206964656e74697479206973206e756c6c00000000000000604482015290519081900360640190fd5b60058054600160a060020a03909216600160a060020a03199092169190911790555050506006919091555050506007555050505050611f9c80620002c76000396000f3fe608060405234801561001057600080fd5b50600436106101465760003560e060020a90048063884a41be116100bc578063be9a655511610080578063be9a6555146102a8578063c7a76adf146102b0578063cef63600146102cd578063e6a847a6146102ea578063eda4e6d6146102f2578063f2fde38b146102fa57610146565b8063884a41be146102625780638c4dd39d1461026a5780638da5cb5b146102905780638f32d59b1461029857806398d6621b146102a057610146565b80632c159a1a1161010e5780632c159a1a146101f05780634e71d92d14610214578063506ec0951461021c5780635c9302c91461022457806360ee79381461022c578063715018a61461025a57610146565b8063013eba921461014b578063069786ea14610183578063086cfca8146101a457806322366844146101cc57806322f3e2d4146101d4575b600080fd5b6101716004803603602081101561016157600080fd5b5035600160a060020a0316610320565b60408051918252519081900360200190f35b61018b610332565b6040805192835260208301919091528051918290030190f35b6101ca600480360360208110156101ba57600080fd5b5035600160a060020a0316610353565b005b6101ca6105fb565b6101dc610728565b604080519115158252519081900360200190f35b6101f8610731565b60408051600160a060020a039092168252519081900360200190f35b6101dc610740565b610171610a9c565b610171610aa2565b6101ca6004803603604081101561024257600080fd5b50600160a060020a0381358116916020013516610aa8565b6101ca610cf8565b610171610d68565b6101ca6004803603602081101561028057600080fd5b5035600160a060020a0316610d6e565b6101f8610fac565b6101dc610fc0565b610171610fd6565b6101ca6110e7565b610171600480360360208110156102c657600080fd5b5035611601565b610171600480360360208110156102e357600080fd5b5035611616565b61017161162b565b610171611631565b6101ca6004803603602081101561031057600080fd5b5035600160a060020a0316611637565b60096020526000908152604090205481565b600080610340600a54611601565b61034b600a54611616565b915091509091565b8033600160a060020a038216148015610463575030600160a060020a0316638da5cb5b6040518163ffffffff1660e060020a02815260040160206040518083038186803b1580156103a357600080fd5b505afa1580156103b7573d6000803e3d6000fd5b505050506040513d60208110156103cd57600080fd5b5051604080517f8da5cb5b0000000000000000000000000000000000000000000000000000000081529051600160a060020a0392831692841691638da5cb5b916004808301926020929190829003018186803b15801561042c57600080fd5b505afa158015610440573d6000803e3d6000fd5b505050506040513d602081101561045657600080fd5b5051600160a060020a0316145b806104dd575030600160a060020a0316638da5cb5b6040518163ffffffff1660e060020a02815260040160206040518083038186803b1580156104a557600080fd5b505afa1580156104b9573d6000803e3d6000fd5b505050506040513d60208110156104cf57600080fd5b5051600160a060020a031633145b151561051d5760405160e560020a62461bcd028152600401808060200182810382526029815260200180611f486029913960400191505060405180910390fd5b6003805473ffffffffffffffffffffffffffffffffffffffff1916600160a060020a038481169190911791829055604080517f8da5cb5b00000000000000000000000000000000000000000000000000000000815290519290911691638da5cb5b91600480820192602092909190829003018186803b15801561059f57600080fd5b505afa1580156105b3573d6000803e3d6000fd5b505050506040513d60208110156105c957600080fd5b50516004805473ffffffffffffffffffffffffffffffffffffffff1916600160a060020a039092169190911790555050565b600354600160a060020a0316151561065d576040805160e560020a62461bcd02815260206004820152601160248201527f417661746172206973206e6f7420736574000000000000000000000000000000604482015290519081900360640190fd5b600480546003546040805160e060020a639be2faed0281523094810194909452600160a060020a03918216602485015251911691639be2faed916044808301926020929190829003018186803b1580156106b657600080fd5b505afa1580156106ca573d6000803e3d6000fd5b505050506040513d60208110156106e057600080fd5b50511515610726576040805160e560020a62461bcd0281526020600482015260186024820152600080516020611f28833981519152604482015290519081900360640190fd5b565b60025460ff1681565b600554600160a060020a031681565b60025460009060ff16151561079f576040805160e560020a62461bcd02815260206004820152600d60248201527f6973206e6f742061637469766500000000000000000000000000000000000000604482015290519081900360640190fd5b600554604080517f3af32abf0000000000000000000000000000000000000000000000000000000081523360048201529051600160a060020a0390921691633af32abf91602480820192602092909190829003018186803b15801561080357600080fd5b505afa158015610817573d6000803e3d6000fd5b505050506040513d602081101561082d57600080fd5b50511515610885576040805160e560020a62461bcd02815260206004820152601260248201527f6973206e6f742077686974656c69737465640000000000000000000000000000604482015290519081900360640190fd5b600061089360075433611656565b33600090815260096020526040902042905590506108af611767565b600354604080517fe1758bd80000000000000000000000000000000000000000000000000000000081529051600092600160a060020a03169163e1758bd8916004808301926020929190829003018186803b15801561090d57600080fd5b505afa158015610921573d6000803e3d6000fd5b505050506040513d602081101561093757600080fd5b5051604080517fa9059cbb000000000000000000000000000000000000000000000000000000008152336004820152602481018590529051919250600160a060020a0383169163a9059cbb916044808201926020929091908290030181600087803b1580156109a557600080fd5b505af11580156109b9573d6000803e3d6000fd5b505050506040513d60208110156109cf57600080fd5b506109da9050611f10565b50600a54600090815260086020908152604091829020825180840190935260018082015480855260029092015492840192909252610a1d9163ffffffff6117a316565b81526020810151610a34908463ffffffff6117a316565b6020808301918252600a546000908152600882526040908190208451600182015592516002909301929092558151858152915133927f89ed24731df6b066e4c5186901fffdba18cd9a10f07494aff900bdee260d130492908290030190a26001935050505090565b60015481565b600a5481565b8033600160a060020a038216148015610bb8575030600160a060020a0316638da5cb5b6040518163ffffffff1660e060020a02815260040160206040518083038186803b158015610af857600080fd5b505afa158015610b0c573d6000803e3d6000fd5b505050506040513d6020811015610b2257600080fd5b5051604080517f8da5cb5b0000000000000000000000000000000000000000000000000000000081529051600160a060020a0392831692841691638da5cb5b916004808301926020929190829003018186803b158015610b8157600080fd5b505afa158015610b95573d6000803e3d6000fd5b505050506040513d6020811015610bab57600080fd5b5051600160a060020a0316145b80610c32575030600160a060020a0316638da5cb5b6040518163ffffffff1660e060020a02815260040160206040518083038186803b158015610bfa57600080fd5b505afa158015610c0e573d6000803e3d6000fd5b505050506040513d6020811015610c2457600080fd5b5051600160a060020a031633145b1515610c725760405160e560020a62461bcd028152600401808060200182810382526029815260200180611f486029913960400191505060405180910390fd5b82600160a060020a031663223668446040518163ffffffff1660e060020a02815260040160006040518083038186803b158015610cae57600080fd5b505afa158015610cc2573d6000803e3d6000fd5b50506005805473ffffffffffffffffffffffffffffffffffffffff1916600160a060020a03969096169590951790945550505050565b610d00610fc0565b1515610d0b57600080fd5b6002546040516000916101009004600160a060020a0316907f8be0079c531659141344cd1fd0a4f28419497f9722a3daafe3b4186f6b6457e0908390a36002805474ffffffffffffffffffffffffffffffffffffffff0019169055565b60075481565b600154421015610dc8576040805160e560020a62461bcd02815260206004820152601460248201527f706572696f6420686173206e6f7420656e646564000000000000000000000000604482015290519081900360640190fd5b600354604080517fe1758bd80000000000000000000000000000000000000000000000000000000081529051600092600160a060020a03169163e1758bd8916004808301926020929190829003018186803b158015610e2657600080fd5b505afa158015610e3a573d6000803e3d6000fd5b505050506040513d6020811015610e5057600080fd5b5051604080517f70a082310000000000000000000000000000000000000000000000000000000081523060048201529051919250600091600160a060020a038416916370a08231916024808301926020929190829003018186803b158015610eb757600080fd5b505afa158015610ecb573d6000803e3d6000fd5b505050506040513d6020811015610ee157600080fd5b505190506000811115610f8a57600354604080517fa9059cbb000000000000000000000000000000000000000000000000000000008152600160a060020a0392831660048201526024810184905290519184169163a9059cbb916044808201926020929091908290030181600087803b158015610f5d57600080fd5b505af1158015610f71573d6000803e3d6000fd5b505050506040513d6020811015610f8757600080fd5b50505b610f926117bc565b600354610fa790600160a060020a0316611a6a565b505050565b6002546101009004600160a060020a031690565b6002546101009004600160a060020a0316331490565b60025460009060ff161515611035576040805160e560020a62461bcd02815260206004820152600d60248201527f6973206e6f742061637469766500000000000000000000000000000000000000604482015290519081900360640190fd5b6000805433825260096020526040822054106110805733600090815260096020526040902054620151809061107190429063ffffffff611acd16565b81151561107a57fe5b046110b7565b620151806110ac61109f62015180600054611acd90919063ffffffff16565b429063ffffffff611acd16565b8115156110b557fe5b045b9050600781116110c757806110ca565b60075b6007549091506110e0818363ffffffff611ae216565b9250505090565b600480546003546040805160e060020a639be2faed0281523094810194909452600160a060020a03918216602485015251911691639be2faed916044808301926020929190829003018186803b15801561114057600080fd5b505afa158015611154573d6000803e3d6000fd5b505050506040513d602081101561116a57600080fd5b505115156111b0576040805160e560020a62461bcd0281526020600482015260186024820152600080516020611f28833981519152604482015290519081900360640190fd5b6111b8611b0d565b6111c0611c16565b6000600a81905542600b55600354604080517fe1758bd80000000000000000000000000000000000000000000000000000000081529051600160a060020a039092169163e1758bd891600480820192602092909190829003018186803b15801561122957600080fd5b505afa15801561123d573d6000803e3d6000fd5b505050506040513d602081101561125357600080fd5b50516006549091506000101561153a57600354604080517f70a08231000000000000000000000000000000000000000000000000000000008152600160a060020a0392831660048201529051918316916370a0823191602480820192602092909190829003018186803b1580156112c957600080fd5b505afa1580156112dd573d6000803e3d6000fd5b505050506040513d60208110156112f357600080fd5b5051600654111561134e576040805160e560020a62461bcd02815260206004820152601960248201527f4e6f7420656e6f7567682066756e647320746f20737461727400000000000000604482015290519081900360640190fd5b600480546006546040805130602480830191909152604480830194909452825180830385018152606492830184526020810180517bffffffffffffffffffffffffffffffffffffffffffffffffffffffff167fa9059cbb0000000000000000000000000000000000000000000000000000000017815260035494517fd1b7089a000000000000000000000000000000000000000000000000000000008152600160a060020a038a8116998201998a5295861696810187905260009481018590526080938101938452825160848201528251959097169763d1b7089a978a9793969395949193919260a490910191808383885b83811015611458578181015183820152602001611440565b50505050905090810190601f1680156114855780820380516001836020036101000a031916815260200191505b5095505050505050600060405180830381600087803b1580156114a757600080fd5b505af11580156114bb573d6000803e3d6000fd5b505050506040513d6000823e601f3d908101601f1916820160409081528110156114e457600080fd5b81516020830180519193928301929164010000000081111561150557600080fd5b8201602081018481111561151857600080fd5b815164010000000081118282018710171561153257600080fd5b505050505050505b604080517f70a0823100000000000000000000000000000000000000000000000000000000815230600482015290517faaf5e5cfa7e44b7c9cfc845d0cc96adc1c5a4c802d3572523f740424a3ce4fb291600160a060020a038416916370a0823191602480820192602092909190829003018186803b1580156115bc57600080fd5b505afa1580156115d0573d6000803e3d6000fd5b505050506040513d60208110156115e657600080fd5b5051604080519182524260208301528051918290030190a150565b60009081526008602052604090206001015490565b60009081526008602052604090206002015490565b600b5481565b60005481565b61163f610fc0565b151561164a57600080fd5b61165381611de0565b50565b60008054600160a060020a03831682526009602052604082205410156116a65760005461168c906201518063ffffffff611acd16565b600160a060020a0383166000908152600960205260409020555b600160a060020a03821660009081526009602052604081205462015180906116d590429063ffffffff611acd16565b8115156116de57fe5b049050600781116116ef57806116f2565b60075b9050600181101561174d576040805160e560020a62461bcd02815260206004820152601860248201527f48617320636c61696d65642077697468696e2061206461790000000000000000604482015290519081900360640190fd5b61175d848263ffffffff611ae216565b9150505b92915050565b600061177e600b5442611acd90919063ffffffff16565b42600b55905061179d6201518082600a5491900463ffffffff6117a316565b600a5550565b6000828201838110156117b557600080fd5b9392505050565b600480546003546040805160e060020a639be2faed0281523094810194909452600160a060020a03918216602485015251911691639be2faed916044808301926020929190829003018186803b15801561181557600080fd5b505afa158015611829573d6000803e3d6000fd5b505050506040513d602081101561183f57600080fd5b50511515611885576040805160e560020a62461bcd0281526020600482015260186024820152600080516020611f28833981519152604482015290519081900360640190fd5b600480546005546040805130602480830191909152825180830382018152604492830184526020810180517bffffffffffffffffffffffffffffffffffffffffffffffffffffffff167fc375c2ef0000000000000000000000000000000000000000000000000000000017815260035494517fd1b7089a000000000000000000000000000000000000000000000000000000008152600160a060020a039687169881018981529587169481018590526000606482018190526080948201948552835160848301528351979098169863d1b7089a989097939690949093909260a49092019190808383885b8381101561198757818101518382015260200161196f565b50505050905090810190601f1680156119b45780820380516001836020036101000a031916815260200191505b5095505050505050600060405180830381600087803b1580156119d657600080fd5b505af11580156119ea573d6000803e3d6000fd5b505050506040513d6000823e601f3d908101601f191682016040908152811015611a1357600080fd5b815160208301805191939283019291640100000000811115611a3457600080fd5b82016020810184811115611a4757600080fd5b8151640100000000811182820187101715611a6157600080fd5b50505050505050565b600154421015611ac4576040805160e560020a62461bcd02815260206004820152601460248201527f706572696f6420686173206e6f7420656e646564000000000000000000000000604482015290519081900360640190fd5b61165381611e69565b600082821115611adc57600080fd5b50900390565b6000821515611af357506000611761565b828202828482811515611b0257fe5b04146117b557600080fd5b6000544210158015611b20575060015442105b1515611b76576040805160e560020a62461bcd02815260206004820152600d60248201527f6e6f7420696e20706572696f6400000000000000000000000000000000000000604482015290519081900360640190fd5b60025460ff1615611bd1576040805160e560020a62461bcd02815260206004820152601260248201527f63616e6e6f742073746172742074776963650000000000000000000000000000604482015290519081900360640190fd5b6002805460ff1916600117905560408051428152905133917f727dd98701807c5fdf715b9f1fd7d87461a558e2ab3e05935add76e42e330fa3919081900360200190a2565b600480546003546040805160e060020a639be2faed0281523094810194909452600160a060020a03918216602485015251911691639be2faed916044808301926020929190829003018186803b158015611c6f57600080fd5b505afa158015611c83573d6000803e3d6000fd5b505050506040513d6020811015611c9957600080fd5b50511515611cdf576040805160e560020a62461bcd0281526020600482015260186024820152600080516020611f28833981519152604482015290519081900360640190fd5b600480546005546040805130602480830191909152825180830382018152604492830184526020810180517bffffffffffffffffffffffffffffffffffffffffffffffffffffffff167f5f539d690000000000000000000000000000000000000000000000000000000017815260035494517fd1b7089a000000000000000000000000000000000000000000000000000000008152600160a060020a039687169881018981529587169481018590526000606482018190526080948201948552835160848301528351979098169863d1b7089a989097939690949093909260a49092019190808383888381101561198757818101518382015260200161196f565b600160a060020a0381161515611df557600080fd5b600254604051600160a060020a0380841692610100900416907f8be0079c531659141344cd1fd0a4f28419497f9722a3daafe3b4186f6b6457e090600090a360028054600160a060020a039092166101000274ffffffffffffffffffffffffffffffffffffffff0019909216919091179055565b60025460ff161515611ec5576040805160e560020a62461bcd02815260206004820152600d60248201527f6973206e6f742061637469766500000000000000000000000000000000000000604482015290519081900360640190fd5b6002805460ff1916905560408051428152905133917ef689ee9beb942c1c9c0d6642687ace05a9000d5f2979d344163c57829fa779919081900360200190a280600160a060020a0316ff5b60408051808201909152600080825260208201529056fe536368656d65206973206e6f74207265676973746572656400000000000000004f6e6c792063616c6c61626c6520627920617661746172206f66206f776e6572206f72206f776e6572a165627a7a723058201769e10c15b1168e616aba338e22951aeb47099a0c12bcc0a726372503fff3d3002973746172742063616e6e6f74206265206166746572206e6f7220657175616c20746f20656e64",
  "source": "pragma solidity 0.5.4;\n\nimport \"./UBI.sol\";\nimport \"openzeppelin-solidity/contracts/math/SafeMath.sol\";\n\n/* @title Fixed amount-per-day UBI scheme allowing multiple claims\n * across a longer period\n */\ncontract FixedUBI is AbstractUBI {\n    using SafeMath for uint256;\n\n    constructor(\n        Avatar _avatar,\n        Identity _identity,\n        uint256 _initialReserve,\n        uint _periodStart,\n        uint _periodEnd,\n        uint256 _claimDistribution\n    )\n        public\n        AbstractUBI(_avatar, _identity, _initialReserve, _periodStart, _periodEnd)\n    {\n        claimDistribution = _claimDistribution;\n    }\n\n    /* @dev the claim calculation formula. Checks to see how many days\n     * the given address can claim for, with 7 being the maximum\n     * @param amount the amount per day one can claim\n     * @param user the claiming address\n     */\n    function distributionFormula(uint256 amount, address user) internal returns(uint256)\n    {\n        if(lastClaimed[user] < periodStart) {\n            lastClaimed[user] = periodStart.sub(1 days);\n        }\n\n        uint claimDays = now.sub(lastClaimed[user]) / 1 days; \n        \n        claimDays = claimDays > 7 ? 7 : claimDays;\n\n        require(claimDays >= 1, \"Has claimed within a day\");\n        return amount.mul(claimDays);\n    }\n\n    /* @dev Sets the currentDay variable. Internal function\n     */\n    function setDay() internal {\n        uint dayDiff = now.sub(lastCalc);\n        lastCalc = now;\n\n        currentDay = currentDay.add(dayDiff / 1 days);\n    }\n\n    /* @dev Checks amount user is eligble to claim for\n     * @returns an uint256 indicating the amount the user can claim for\n     */\n    function checkEntitlement() public requireActive view returns (uint256) \n    {\n        uint claimDays = lastClaimed[msg.sender] < periodStart ?\n            now.sub(periodStart.sub(1 days)) / 1 days :\n            now.sub(lastClaimed[msg.sender]) / 1 days; \n        \n        claimDays = claimDays > 7 ? 7 : claimDays;\n        uint256 claimAmount = claimDistribution;\n\n        return claimAmount.mul(claimDays);\n    }\n\n    /* @dev Claiming function. Calculates how many days one can claim for and logs\n     * new claim and amount for the day.\n     * @returns A bool indicating if UBI was claimed\n     */\n    function claim()\n        public\n        requireActive\n        onlyWhitelisted\n        returns (bool)\n    {\n        uint256 newDistribution = distributionFormula(claimDistribution, msg.sender);\n        lastClaimed[msg.sender] = now;\n        setDay();\n\n        GoodDollar token = GoodDollar(address(avatar.nativeToken()));\n        token.transfer(msg.sender, newDistribution);\n\n        Day memory day = claimDay[currentDay];\n        \n        day.amountOfClaimers = day.amountOfClaimers.add(1);\n        day.claimAmount = day.claimAmount.add(newDistribution);\n        \n        claimDay[currentDay] = day;\n\n        emit UBIClaimed(msg.sender, newDistribution);\n\n        return true;\n    }\n}\n",
  "sourcePath": "/Users/hadar/workspace/GoodDollar/GoodBootstrap/packages/contracts/contracts/dao/schemes/FixedUBI.sol",
  "compiler": {
    "name": "solc",
    "version": "0.5.4+commit.9549d8ff.Emscripten.clang"
  },
  "schemaVersion": "3.0.16",
  "updatedAt": "2019-10-24T19:56:47.429Z",
  "devdoc": {
    "methods": {
      "end(address)": {
        "details": "Function that ends the claiming period. Can only be done if Contract has been started and periodEnd is passed. Sends the remaining funds on contract back to the avatar contract address"
      },
      "isOwner()": {
        "return": "true if `msg.sender` is the owner of the contract."
      },
      "owner()": {
        "return": "the address of the owner."
      },
      "renounceOwnership()": {
        "details": "Allows the current owner to relinquish control of the contract."
      },
      "transferOwnership(address)": {
        "details": "Allows the current owner to transfer control of the contract to a newOwner.",
        "params": {
          "newOwner": "The address to transfer ownership to."
        }
      }
    }
  },
  "userdoc": {
    "methods": {
      "renounceOwnership()": {
        "notice": "Renouncing to ownership will leave the contract without an owner. It will not be possible to call the functions with the `onlyOwner` modifier anymore."
      }
    }
  }
}