{
  "contractName": "FixedUBI",
  "abi": [
    {
      "constant": true,
      "inputs": [
        {
          "name": "",
          "type": "address"
        }
      ],
      "name": "lastClaimed",
      "outputs": [
        {
          "name": "",
          "type": "uint256"
        }
      ],
      "payable": false,
      "stateMutability": "view",
      "type": "function"
    },
    {
      "constant": true,
      "inputs": [],
      "name": "getDailyStats",
      "outputs": [
        {
          "name": "count",
          "type": "uint256"
        },
        {
          "name": "amount",
          "type": "uint256"
        }
      ],
      "payable": false,
      "stateMutability": "view",
      "type": "function"
    },
    {
      "constant": false,
      "inputs": [
        {
          "name": "_avatar",
          "type": "address"
        }
      ],
      "name": "setAvatar",
      "outputs": [],
      "payable": false,
      "stateMutability": "nonpayable",
      "type": "function"
    },
    {
      "constant": true,
      "inputs": [],
      "name": "isRegistered",
      "outputs": [
        {
          "name": "",
          "type": "bool"
        }
      ],
      "payable": false,
      "stateMutability": "view",
      "type": "function"
    },
    {
      "constant": true,
      "inputs": [],
      "name": "isActive",
      "outputs": [
        {
          "name": "",
          "type": "bool"
        }
      ],
      "payable": false,
      "stateMutability": "view",
      "type": "function"
    },
    {
      "constant": true,
      "inputs": [],
      "name": "identity",
      "outputs": [
        {
          "name": "",
          "type": "address"
        }
      ],
      "payable": false,
      "stateMutability": "view",
      "type": "function"
    },
    {
      "constant": true,
      "inputs": [],
      "name": "periodEnd",
      "outputs": [
        {
          "name": "",
          "type": "uint256"
        }
      ],
      "payable": false,
      "stateMutability": "view",
      "type": "function"
    },
    {
      "constant": true,
      "inputs": [],
      "name": "currentDay",
      "outputs": [
        {
          "name": "",
          "type": "uint256"
        }
      ],
      "payable": false,
      "stateMutability": "view",
      "type": "function"
    },
    {
      "constant": false,
      "inputs": [
        {
          "name": "_identity",
          "type": "address"
        }
      ],
      "name": "setIdentity",
      "outputs": [],
      "payable": false,
      "stateMutability": "nonpayable",
      "type": "function"
    },
    {
      "constant": false,
      "inputs": [],
      "name": "renounceOwnership",
      "outputs": [],
      "payable": false,
      "stateMutability": "nonpayable",
      "type": "function"
    },
    {
      "constant": true,
      "inputs": [],
      "name": "claimDistribution",
      "outputs": [
        {
          "name": "",
          "type": "uint256"
        }
      ],
      "payable": false,
      "stateMutability": "view",
      "type": "function"
    },
    {
      "constant": false,
      "inputs": [
        {
          "name": "",
          "type": "address"
        }
      ],
      "name": "end",
      "outputs": [],
      "payable": false,
      "stateMutability": "nonpayable",
      "type": "function"
    },
    {
      "constant": true,
      "inputs": [],
      "name": "owner",
      "outputs": [
        {
          "name": "",
          "type": "address"
        }
      ],
      "payable": false,
      "stateMutability": "view",
      "type": "function"
    },
    {
      "constant": true,
      "inputs": [],
      "name": "isOwner",
      "outputs": [
        {
          "name": "",
          "type": "bool"
        }
      ],
      "payable": false,
      "stateMutability": "view",
      "type": "function"
    },
    {
      "constant": false,
      "inputs": [],
      "name": "start",
      "outputs": [],
      "payable": false,
      "stateMutability": "nonpayable",
      "type": "function"
    },
    {
      "constant": true,
      "inputs": [
        {
          "name": "day",
          "type": "uint256"
        }
      ],
      "name": "getClaimerCount",
      "outputs": [
        {
          "name": "",
          "type": "uint256"
        }
      ],
      "payable": false,
      "stateMutability": "view",
      "type": "function"
    },
    {
      "constant": true,
      "inputs": [
        {
          "name": "day",
          "type": "uint256"
        }
      ],
      "name": "getClaimAmount",
      "outputs": [
        {
          "name": "",
          "type": "uint256"
        }
      ],
      "payable": false,
      "stateMutability": "view",
      "type": "function"
    },
    {
      "constant": true,
      "inputs": [],
      "name": "periodStart",
      "outputs": [
        {
          "name": "",
          "type": "uint256"
        }
      ],
      "payable": false,
      "stateMutability": "view",
      "type": "function"
    },
    {
      "constant": false,
      "inputs": [
        {
          "name": "newOwner",
          "type": "address"
        }
      ],
      "name": "transferOwnership",
      "outputs": [],
      "payable": false,
      "stateMutability": "nonpayable",
      "type": "function"
    },
    {
      "inputs": [
        {
          "name": "_avatar",
          "type": "address"
        },
        {
          "name": "_identity",
          "type": "address"
        },
        {
          "name": "_initialReserve",
          "type": "uint256"
        },
        {
          "name": "_periodStart",
          "type": "uint256"
        },
        {
          "name": "_periodEnd",
          "type": "uint256"
        },
        {
          "name": "_claimDistribution",
          "type": "uint256"
        }
      ],
      "payable": false,
      "stateMutability": "nonpayable",
      "type": "constructor"
    },
    {
      "anonymous": false,
      "inputs": [
        {
          "indexed": false,
          "name": "balance",
          "type": "uint256"
        },
        {
          "indexed": false,
          "name": "time",
          "type": "uint256"
        }
      ],
      "name": "UBIStarted",
      "type": "event"
    },
    {
      "anonymous": false,
      "inputs": [
        {
          "indexed": true,
          "name": "claimer",
          "type": "address"
        },
        {
          "indexed": false,
          "name": "amount",
          "type": "uint256"
        }
      ],
      "name": "UBIClaimed",
      "type": "event"
    },
    {
      "anonymous": false,
      "inputs": [
        {
          "indexed": false,
          "name": "claimers",
          "type": "uint256"
        },
        {
          "indexed": false,
          "name": "claimamount",
          "type": "uint256"
        }
      ],
      "name": "UBIEnded",
      "type": "event"
    },
    {
      "anonymous": false,
      "inputs": [
        {
          "indexed": true,
          "name": "previousOwner",
          "type": "address"
        },
        {
          "indexed": true,
          "name": "newOwner",
          "type": "address"
        }
      ],
      "name": "OwnershipTransferred",
      "type": "event"
    },
    {
      "anonymous": false,
      "inputs": [
        {
          "indexed": true,
          "name": "by",
          "type": "address"
        },
        {
          "indexed": false,
          "name": "time",
          "type": "uint256"
        }
      ],
      "name": "SchemeStarted",
      "type": "event"
    },
    {
      "anonymous": false,
      "inputs": [
        {
          "indexed": true,
          "name": "by",
          "type": "address"
        },
        {
          "indexed": false,
          "name": "time",
          "type": "uint256"
        }
      ],
      "name": "SchemeEnded",
      "type": "event"
    },
    {
      "constant": true,
      "inputs": [],
      "name": "checkEntitlement",
      "outputs": [
        {
          "name": "",
          "type": "uint256"
        }
      ],
      "payable": false,
      "stateMutability": "view",
      "type": "function"
    },
    {
      "constant": false,
      "inputs": [],
      "name": "claim",
      "outputs": [
        {
          "name": "",
          "type": "bool"
        }
      ],
      "payable": false,
      "stateMutability": "nonpayable",
      "type": "function"
    }
  ],
  "bytecode": "0x608060405260048054600160a060020a03191690553480156200002157600080fd5b5060405160c08062001fdb833981018060405260c08110156200004357600080fd5b508051602082015160408301516060840151608085015160a09095015193949293919290918585858585838581818585808210620000cd576040517f08c379a000000000000000000000000000000000000000000000000000000000815260040180806020018281038252602681526020018062001fb56026913960400191505060405180910390fd5b600091825560015560028054600160a860020a0319166101003381029190911791829055604051600160a060020a03919092041691907f8be0079c531659141344cd1fd0a4f28419497f9722a3daafe3b4186f6b6457e0908290a360038054600160a060020a031916600160a060020a03838116919091179182905516156200020957600360009054906101000a9004600160a060020a0316600160a060020a0316638da5cb5b6040518163ffffffff167c010000000000000000000000000000000000000000000000000000000002815260040160206040518083038186803b158015620001bb57600080fd5b505afa158015620001d0573d6000803e3d6000fd5b505050506040513d6020811015620001e757600080fd5b505160048054600160a060020a031916600160a060020a039092169190911790555b50600160a060020a03811615156200028257604080517f08c379a000000000000000000000000000000000000000000000000000000000815260206004820152601960248201527f537570706c696564206964656e74697479206973206e756c6c00000000000000604482015290519081900360640190fd5b60058054600160a060020a031916600160a060020a039290921691909117905550505060069190915550506000821190506200031f57604080517f08c379a000000000000000000000000000000000000000000000000000000000815260206004820152601b60248201527f446973747269627574696f6e2063616e6e6f74206265207a65726f0000000000604482015290519081900360640190fd5b6007555050505050611c7e80620003376000396000f3fe608060405234801561001057600080fd5b5060043610610154576000357c010000000000000000000000000000000000000000000000000000000090048063715018a6116100d557806398d6621b1161009957806398d6621b146102a6578063be9a6555146102ae578063c7a76adf146102b6578063cef63600146102d3578063eda4e6d6146102f0578063f2fde38b146102f857610154565b8063715018a614610260578063884a41be146102685780638c4dd39d146102705780638da5cb5b146102965780638f32d59b1461029e57610154565b80632c159a1a1161011c5780632c159a1a146101fe5780634e71d92d14610222578063506ec0951461022a5780635c9302c9146102325780635d5bf1781461023a57610154565b8063013eba9214610159578063069786ea14610191578063086cfca8146101b257806322366844146101da57806322f3e2d4146101f6575b600080fd5b61017f6004803603602081101561016f57600080fd5b5035600160a060020a031661031e565b60408051918252519081900360200190f35b610199610330565b6040805192835260208301919091528051918290030190f35b6101d8600480360360208110156101c857600080fd5b5035600160a060020a0316610351565b005b6101e2610441565b604080519115158252519081900360200190f35b6101e2610556565b61020661055f565b60408051600160a060020a039092168252519081900360200190f35b6101e261056e565b61017f6108ca565b61017f6108d0565b6101d86004803603602081101561025057600080fd5b5035600160a060020a03166108d6565b6101d86109ef565b61017f610a5f565b6101d86004803603602081101561028657600080fd5b5035600160a060020a0316610a65565b610206610ca3565b6101e2610cb7565b61017f610ccd565b6101d8610efd565b61017f600480360360208110156102cc57600080fd5b50356113c7565b61017f600480360360208110156102e957600080fd5b50356113dc565b61017f6113f1565b6101d86004803603602081101561030e57600080fd5b5035600160a060020a03166113f7565b60096020526000908152604090205481565b60008061033e600a546113c7565b610349600a546113dc565b915091509091565b610359610cb7565b151561036457600080fd5b6003805473ffffffffffffffffffffffffffffffffffffffff1916600160a060020a038381169190911791829055604080517f8da5cb5b00000000000000000000000000000000000000000000000000000000815290519290911691638da5cb5b91600480820192602092909190829003018186803b1580156103e657600080fd5b505afa1580156103fa573d6000803e3d6000fd5b505050506040513d602081101561041057600080fd5b50516004805473ffffffffffffffffffffffffffffffffffffffff1916600160a060020a0390921691909117905550565b600354600090600160a060020a031615156104a6576040805160e560020a62461bcd02815260206004820152601160248201527f417661746172206973206e6f7420736574000000000000000000000000000000604482015290519081900360640190fd5b60048054600354604080517f9be2faed0000000000000000000000000000000000000000000000000000000081523094810194909452600160a060020a03918216602485015251911691639be2faed916044808301926020929190829003018186803b15801561051557600080fd5b505afa158015610529573d6000803e3d6000fd5b505050506040513d602081101561053f57600080fd5b5051151561054f57506000610553565b5060015b90565b60025460ff1681565b600554600160a060020a031681565b60025460009060ff1615156105cd576040805160e560020a62461bcd02815260206004820152600d60248201527f6973206e6f742061637469766500000000000000000000000000000000000000604482015290519081900360640190fd5b600554604080517f3af32abf0000000000000000000000000000000000000000000000000000000081523360048201529051600160a060020a0390921691633af32abf91602480820192602092909190829003018186803b15801561063157600080fd5b505afa158015610645573d6000803e3d6000fd5b505050506040513d602081101561065b57600080fd5b505115156106b3576040805160e560020a62461bcd02815260206004820152601260248201527f6973206e6f742077686974656c69737465640000000000000000000000000000604482015290519081900360640190fd5b60006106c160075433611416565b33600090815260096020526040902042905590506106dd61157c565b600354604080517fe1758bd80000000000000000000000000000000000000000000000000000000081529051600092600160a060020a03169163e1758bd8916004808301926020929190829003018186803b15801561073b57600080fd5b505afa15801561074f573d6000803e3d6000fd5b505050506040513d602081101561076557600080fd5b5051604080517fa9059cbb000000000000000000000000000000000000000000000000000000008152336004820152602481018590529051919250600160a060020a0383169163a9059cbb916044808201926020929091908290030181600087803b1580156107d357600080fd5b505af11580156107e7573d6000803e3d6000fd5b505050506040513d60208110156107fd57600080fd5b506108089050611c3b565b50600a5460009081526008602090815260409182902082518084019093526001808201548085526002909201549284019290925261084b9163ffffffff6115a416565b81526020810151610862908463ffffffff6115a416565b6020808301918252600a546000908152600882526040908190208451600182015592516002909301929092558151858152915133927f89ed24731df6b066e4c5186901fffdba18cd9a10f07494aff900bdee260d130492908290030190a26001935050505090565b60015481565b600a5481565b6108de610cb7565b15156108e957600080fd5b80600160a060020a031663223668446040518163ffffffff167c010000000000000000000000000000000000000000000000000000000002815260040160206040518083038186803b15801561093e57600080fd5b505afa158015610952573d6000803e3d6000fd5b505050506040513d602081101561096857600080fd5b505115156109c0576040805160e560020a62461bcd02815260206004820152601a60248201527f4964656e74697479206973206e6f742072656769737465726564000000000000604482015290519081900360640190fd5b6005805473ffffffffffffffffffffffffffffffffffffffff1916600160a060020a0392909216919091179055565b6109f7610cb7565b1515610a0257600080fd5b6002546040516000916101009004600160a060020a0316907f8be0079c531659141344cd1fd0a4f28419497f9722a3daafe3b4186f6b6457e0908390a36002805474ffffffffffffffffffffffffffffffffffffffff0019169055565b60075481565b600154421015610abf576040805160e560020a62461bcd02815260206004820152601460248201527f706572696f6420686173206e6f7420656e646564000000000000000000000000604482015290519081900360640190fd5b600354604080517fe1758bd80000000000000000000000000000000000000000000000000000000081529051600092600160a060020a03169163e1758bd8916004808301926020929190829003018186803b158015610b1d57600080fd5b505afa158015610b31573d6000803e3d6000fd5b505050506040513d6020811015610b4757600080fd5b5051604080517f70a082310000000000000000000000000000000000000000000000000000000081523060048201529051919250600091600160a060020a038416916370a08231916024808301926020929190829003018186803b158015610bae57600080fd5b505afa158015610bc2573d6000803e3d6000fd5b505050506040513d6020811015610bd857600080fd5b505190506000811115610c8157600354604080517fa9059cbb000000000000000000000000000000000000000000000000000000008152600160a060020a0392831660048201526024810184905290519184169163a9059cbb916044808201926020929091908290030181600087803b158015610c5457600080fd5b505af1158015610c68573d6000803e3d6000fd5b505050506040513d6020811015610c7e57600080fd5b50505b610c896115bd565b600354610c9e90600160a060020a0316611800565b505050565b6002546101009004600160a060020a031690565b6002546101009004600160a060020a0316331490565b60025460009060ff161515610d2c576040805160e560020a62461bcd02815260206004820152600d60248201527f6973206e6f742061637469766500000000000000000000000000000000000000604482015290519081900360640190fd5b336000908152600960205260408120548110610e9957600554604080517f2bc298ac0000000000000000000000000000000000000000000000000000000081523360048201529051600092600160a060020a031691632bc298ac916024808301926020929190829003018186803b158015610da657600080fd5b505afa158015610dba573d6000803e3d6000fd5b505050506040513d6020811015610dd057600080fd5b505111610def57610dea426201518063ffffffff61186316565b610e94565b600554604080517f2bc298ac0000000000000000000000000000000000000000000000000000000081523360048201529051610e94926201518092600160a060020a0390911691632bc298ac91602480820192602092909190829003018186803b158015610e5c57600080fd5b505afa158015610e70573d6000803e3d6000fd5b505050506040513d6020811015610e8657600080fd5b50519063ffffffff61186316565b610eaa565b336000908152600960205260409020545b9050600062015180610ec2428463ffffffff61186316565b811515610ecb57fe5b04905060078111610edc5780610edf565b60075b600754909150610ef5818363ffffffff61187816565b935050505090565b610f05610441565b1515610f5b576040805160e560020a62461bcd02815260206004820152601860248201527f536368656d65206973206e6f7420726567697374657265640000000000000000604482015290519081900360640190fd5b610f636118a3565b610f6b6119ac565b62015180610f846000544261186390919063ffffffff16565b811515610f8d57fe5b04600a55600354604080517fe1758bd80000000000000000000000000000000000000000000000000000000081529051600092600160a060020a03169163e1758bd8916004808301926020929190829003018186803b158015610fef57600080fd5b505afa158015611003573d6000803e3d6000fd5b505050506040513d602081101561101957600080fd5b50516006549091506000101561130057600354604080517f70a08231000000000000000000000000000000000000000000000000000000008152600160a060020a0392831660048201529051918316916370a0823191602480820192602092909190829003018186803b15801561108f57600080fd5b505afa1580156110a3573d6000803e3d6000fd5b505050506040513d60208110156110b957600080fd5b50516006541115611114576040805160e560020a62461bcd02815260206004820152601960248201527f4e6f7420656e6f7567682066756e647320746f20737461727400000000000000604482015290519081900360640190fd5b600480546006546040805130602480830191909152604480830194909452825180830385018152606492830184526020810180517bffffffffffffffffffffffffffffffffffffffffffffffffffffffff167fa9059cbb0000000000000000000000000000000000000000000000000000000017815260035494517fd1b7089a000000000000000000000000000000000000000000000000000000008152600160a060020a038a8116998201998a5295861696810187905260009481018590526080938101938452825160848201528251959097169763d1b7089a978a9793969395949193919260a490910191808383885b8381101561121e578181015183820152602001611206565b50505050905090810190601f16801561124b5780820380516001836020036101000a031916815260200191505b5095505050505050600060405180830381600087803b15801561126d57600080fd5b505af1158015611281573d6000803e3d6000fd5b505050506040513d6000823e601f3d908101601f1916820160409081528110156112aa57600080fd5b8151602083018051919392830192916401000000008111156112cb57600080fd5b820160208101848111156112de57600080fd5b81516401000000008111828201871017156112f857600080fd5b505050505050505b604080517f70a0823100000000000000000000000000000000000000000000000000000000815230600482015290517faaf5e5cfa7e44b7c9cfc845d0cc96adc1c5a4c802d3572523f740424a3ce4fb291600160a060020a038416916370a0823191602480820192602092909190829003018186803b15801561138257600080fd5b505afa158015611396573d6000803e3d6000fd5b505050506040513d60208110156113ac57600080fd5b5051604080519182524260208301528051918290030190a150565b60009081526008602052604090206001015490565b60009081526008602052604090206002015490565b60005481565b6113ff610cb7565b151561140a57600080fd5b61141381611b0b565b50565b600160a060020a03811660009081526009602052604081205415156114bb57600554604080517f2bc298ac000000000000000000000000000000000000000000000000000000008152600160a060020a03858116600483015291516114a19362015180931691632bc298ac916024808301926020929190829003018186803b158015610e5c57600080fd5b600160a060020a0383166000908152600960205260409020555b600160a060020a03821660009081526009602052604081205462015180906114ea90429063ffffffff61186316565b8115156114f357fe5b049050600781116115045780611507565b60075b90506001811015611562576040805160e560020a62461bcd02815260206004820152601860248201527f48617320636c61696d65642077697468696e2061206461790000000000000000604482015290519081900360640190fd5b611572848263ffffffff61187816565b9150505b92915050565b620151806115956000544261186390919063ffffffff16565b81151561159e57fe5b04600a55565b6000828201838110156115b657600080fd5b9392505050565b6115c5610441565b151561161b576040805160e560020a62461bcd02815260206004820152601860248201527f536368656d65206973206e6f7420726567697374657265640000000000000000604482015290519081900360640190fd5b600480546005546040805130602480830191909152825180830382018152604492830184526020810180517bffffffffffffffffffffffffffffffffffffffffffffffffffffffff167fc375c2ef0000000000000000000000000000000000000000000000000000000017815260035494517fd1b7089a000000000000000000000000000000000000000000000000000000008152600160a060020a039687169881018981529587169481018590526000606482018190526080948201948552835160848301528351979098169863d1b7089a989097939690949093909260a49092019190808383885b8381101561171d578181015183820152602001611705565b50505050905090810190601f16801561174a5780820380516001836020036101000a031916815260200191505b5095505050505050600060405180830381600087803b15801561176c57600080fd5b505af1158015611780573d6000803e3d6000fd5b505050506040513d6000823e601f3d908101601f1916820160409081528110156117a957600080fd5b8151602083018051919392830192916401000000008111156117ca57600080fd5b820160208101848111156117dd57600080fd5b81516401000000008111828201871017156117f757600080fd5b50505050505050565b60015442101561185a576040805160e560020a62461bcd02815260206004820152601460248201527f706572696f6420686173206e6f7420656e646564000000000000000000000000604482015290519081900360640190fd5b61141381611b94565b60008282111561187257600080fd5b50900390565b600082151561188957506000611576565b82820282848281151561189857fe5b04146115b657600080fd5b60005442101580156118b6575060015442105b151561190c576040805160e560020a62461bcd02815260206004820152600d60248201527f6e6f7420696e20706572696f6400000000000000000000000000000000000000604482015290519081900360640190fd5b60025460ff1615611967576040805160e560020a62461bcd02815260206004820152601260248201527f63616e6e6f742073746172742074776963650000000000000000000000000000604482015290519081900360640190fd5b6002805460ff1916600117905560408051428152905133917f727dd98701807c5fdf715b9f1fd7d87461a558e2ab3e05935add76e42e330fa3919081900360200190a2565b6119b4610441565b1515611a0a576040805160e560020a62461bcd02815260206004820152601860248201527f536368656d65206973206e6f7420726567697374657265640000000000000000604482015290519081900360640190fd5b600480546005546040805130602480830191909152825180830382018152604492830184526020810180517bffffffffffffffffffffffffffffffffffffffffffffffffffffffff167f5f539d690000000000000000000000000000000000000000000000000000000017815260035494517fd1b7089a000000000000000000000000000000000000000000000000000000008152600160a060020a039687169881018981529587169481018590526000606482018190526080948201948552835160848301528351979098169863d1b7089a989097939690949093909260a49092019190808383888381101561171d578181015183820152602001611705565b600160a060020a0381161515611b2057600080fd5b600254604051600160a060020a0380841692610100900416907f8be0079c531659141344cd1fd0a4f28419497f9722a3daafe3b4186f6b6457e090600090a360028054600160a060020a039092166101000274ffffffffffffffffffffffffffffffffffffffff0019909216919091179055565b60025460ff161515611bf0576040805160e560020a62461bcd02815260206004820152600d60248201527f6973206e6f742061637469766500000000000000000000000000000000000000604482015290519081900360640190fd5b6002805460ff1916905560408051428152905133917ef689ee9beb942c1c9c0d6642687ace05a9000d5f2979d344163c57829fa779919081900360200190a280600160a060020a0316ff5b60408051808201909152600080825260208201529056fea165627a7a723058202f1ba8fbb561dfb25c526119fbdf4e63802e10ee9e8eb212ecc4a6631fe735d9002973746172742063616e6e6f74206265206166746572206e6f7220657175616c20746f20656e64",
  "source": "pragma solidity 0.5.4;\n\nimport \"./UBI.sol\";\nimport \"openzeppelin-solidity/contracts/math/SafeMath.sol\";\n\n/* @title Fixed amount-per-day UBI scheme allowing multiple claims\n * during a longer period\n */\ncontract FixedUBI is AbstractUBI {\n    using SafeMath for uint256;\n\n    /* @dev Constructor\n     * @param _avatar The avatar of the DAO\n     * @param _identity The identity contract\n     * @param _initialReserve The initial amount to transfer to this contract\n     * @param _periodStart The time from when the contract can start\n     * @param _periodEnd The time from when the contract can end\n     * @param _claimDistribution The amount to claim per day\n     */\n    constructor(\n        Avatar _avatar,\n        Identity _identity,\n        uint256 _initialReserve,\n        uint256 _periodStart,\n        uint256 _periodEnd,\n        uint256 _claimDistribution\n    )\n        public\n        AbstractUBI(_avatar, _identity, _initialReserve, _periodStart, _periodEnd)\n    {\n        require(_claimDistribution > 0, \"Distribution cannot be zero\");\n\n        claimDistribution = _claimDistribution;\n    }\n\n    /* @dev The claim calculation formula. Checks to see how many days\n     * the given address can claim for, with days 7 being the maximum.\n     * If the user has not claimed yet, they will be eligible to claim for\n     * The amount of days they have been whitelisted, up to seven.\n     * @param amount the amount per day one can claim\n     * @param user the claiming address\n     * @return the amount of GoodDollar the user can claim\n     */\n    function distributionFormula(uint256 amount, address user) internal returns(uint256)\n    {\n        if(lastClaimed[user] == 0) {\n            lastClaimed[user] = identity.dateAdded(user).sub(1 days);\n        }\n\n        uint256 claimDays = now.sub(lastClaimed[user]) / 1 days; \n        \n        claimDays = claimDays > 7 ? 7 : claimDays;\n\n        require(claimDays >= 1, \"Has claimed within a day\");\n        return amount.mul(claimDays);\n    }\n\n    /* @dev Sets the currentDay variable to amount of days\n     * since start of contract. Internal function\n     */\n    function setDay() internal {\n        currentDay = (now.sub(periodStart)) / 1 days;\n    }\n\n    /* @dev Checks amount address is eligible to claim for, regardless if they have been\n     * whitelisted or not. If they have not been whitelisted, they are eligible to claim for one day.\n     * @return The amount of GoodDollar the address can claim.\n     */\n    function checkEntitlement() public view requireActive returns (uint256) \n    {\n        uint256 lastClaimed = lastClaimed[msg.sender] > 0 ?\n            lastClaimed[msg.sender] :\n            (identity.dateAdded(msg.sender) > 0 ? identity.dateAdded(msg.sender).sub(1 days) : now.sub(1 days));\n\n        uint256 claimDays = now.sub(lastClaimed) / 1 days;\n        claimDays = claimDays > 7 ? 7 : claimDays;\n        uint256 claimAmount = claimDistribution;\n\n        return claimAmount.mul(claimDays);\n    }\n\n    /* @dev Function for claiming UBI. Requires contract to be active and claimer to be whitelisted.\n     * Calls distributionFormula, calculating the amount the caller can claim, and transfers the amount\n     * to the caller. Emits the address of caller and amount claimed.\n     * @return A bool indicating if UBI was claimed\n     */\n    function claim()\n        public\n        requireActive\n        onlyWhitelisted\n        returns (bool)\n    {\n        uint256 newDistribution = distributionFormula(claimDistribution, msg.sender);\n        lastClaimed[msg.sender] = now;\n        setDay();\n\n        GoodDollar token = GoodDollar(address(avatar.nativeToken()));\n        token.transfer(msg.sender, newDistribution);\n\n        Day memory day = claimDay[currentDay];\n        \n        day.amountOfClaimers = day.amountOfClaimers.add(1);\n        day.claimAmount = day.claimAmount.add(newDistribution);\n        \n        claimDay[currentDay] = day;\n\n        emit UBIClaimed(msg.sender, newDistribution);\n\n        return true;\n    }\n}\n",
  "sourcePath": "/Users/hadar/workspace/GoodDollar/GoodBootstrap/packages/contracts/contracts/dao/schemes/FixedUBI.sol",
  "compiler": {
    "name": "solc",
    "version": "0.5.4+commit.9549d8ff.Emscripten.clang"
  },
  "schemaVersion": "3.0.16",
  "updatedAt": "2020-03-30T09:59:31.003Z",
  "devdoc": {
    "methods": {
      "end(address)": {
        "details": "Function that ends the claiming period. Can only be done if Contract has been started and periodEnd is passed. Sends the remaining funds on contract back to the avatar contract address"
      },
      "isOwner()": {
        "return": "true if `msg.sender` is the owner of the contract."
      },
      "owner()": {
        "return": "the address of the owner."
      },
      "renounceOwnership()": {
        "details": "Allows the current owner to relinquish control of the contract."
      },
      "transferOwnership(address)": {
        "details": "Allows the current owner to transfer control of the contract to a newOwner.",
        "params": {
          "newOwner": "The address to transfer ownership to."
        }
      }
    }
  },
  "userdoc": {
    "methods": {
      "renounceOwnership()": {
        "notice": "Renouncing to ownership will leave the contract without an owner. It will not be possible to call the functions with the `onlyOwner` modifier anymore."
      }
    }
  }
}