{
  "contractName": "FixedUBI",
  "abi": [
    {
      "constant": true,
      "inputs": [],
      "name": "getDailyStats",
      "outputs": [
        {
          "name": "count",
          "type": "uint256"
        },
        {
          "name": "amount",
          "type": "uint256"
        }
      ],
      "payable": false,
      "stateMutability": "view",
      "type": "function"
    },
    {
      "constant": false,
      "inputs": [
        {
          "name": "_avatar",
          "type": "address"
        }
      ],
      "name": "setAvatar",
      "outputs": [],
      "payable": false,
      "stateMutability": "nonpayable",
      "type": "function"
    },
    {
      "constant": true,
      "inputs": [],
      "name": "isRegistered",
      "outputs": [],
      "payable": false,
      "stateMutability": "view",
      "type": "function"
    },
    {
      "constant": true,
      "inputs": [],
      "name": "isActive",
      "outputs": [
        {
          "name": "",
          "type": "bool"
        }
      ],
      "payable": false,
      "stateMutability": "view",
      "type": "function"
    },
    {
      "constant": true,
      "inputs": [],
      "name": "identity",
      "outputs": [
        {
          "name": "",
          "type": "address"
        }
      ],
      "payable": false,
      "stateMutability": "view",
      "type": "function"
    },
    {
      "constant": true,
      "inputs": [],
      "name": "periodEnd",
      "outputs": [
        {
          "name": "",
          "type": "uint256"
        }
      ],
      "payable": false,
      "stateMutability": "view",
      "type": "function"
    },
    {
      "constant": true,
      "inputs": [],
      "name": "currentDay",
      "outputs": [
        {
          "name": "",
          "type": "uint256"
        }
      ],
      "payable": false,
      "stateMutability": "view",
      "type": "function"
    },
    {
      "constant": false,
      "inputs": [
        {
          "name": "_identity",
          "type": "address"
        },
        {
          "name": "_avatar",
          "type": "address"
        }
      ],
      "name": "setIdentity",
      "outputs": [],
      "payable": false,
      "stateMutability": "nonpayable",
      "type": "function"
    },
    {
      "constant": false,
      "inputs": [],
      "name": "renounceOwnership",
      "outputs": [],
      "payable": false,
      "stateMutability": "nonpayable",
      "type": "function"
    },
    {
      "constant": true,
      "inputs": [],
      "name": "claimDistribution",
      "outputs": [
        {
          "name": "",
          "type": "uint256"
        }
      ],
      "payable": false,
      "stateMutability": "view",
      "type": "function"
    },
    {
      "constant": false,
      "inputs": [
        {
          "name": "",
          "type": "address"
        }
      ],
      "name": "end",
      "outputs": [],
      "payable": false,
      "stateMutability": "nonpayable",
      "type": "function"
    },
    {
      "constant": true,
      "inputs": [],
      "name": "owner",
      "outputs": [
        {
          "name": "",
          "type": "address"
        }
      ],
      "payable": false,
      "stateMutability": "view",
      "type": "function"
    },
    {
      "constant": true,
      "inputs": [],
      "name": "isOwner",
      "outputs": [
        {
          "name": "",
          "type": "bool"
        }
      ],
      "payable": false,
      "stateMutability": "view",
      "type": "function"
    },
    {
      "constant": false,
      "inputs": [],
      "name": "start",
      "outputs": [
        {
          "name": "",
          "type": "bool"
        }
      ],
      "payable": false,
      "stateMutability": "nonpayable",
      "type": "function"
    },
    {
      "constant": true,
      "inputs": [
        {
          "name": "day",
          "type": "uint256"
        }
      ],
      "name": "getClaimerCount",
      "outputs": [
        {
          "name": "",
          "type": "uint256"
        }
      ],
      "payable": false,
      "stateMutability": "view",
      "type": "function"
    },
    {
      "constant": true,
      "inputs": [
        {
          "name": "day",
          "type": "uint256"
        }
      ],
      "name": "getClaimAmount",
      "outputs": [
        {
          "name": "",
          "type": "uint256"
        }
      ],
      "payable": false,
      "stateMutability": "view",
      "type": "function"
    },
    {
      "constant": true,
      "inputs": [],
      "name": "lastCalc",
      "outputs": [
        {
          "name": "",
          "type": "uint256"
        }
      ],
      "payable": false,
      "stateMutability": "view",
      "type": "function"
    },
    {
      "constant": true,
      "inputs": [],
      "name": "periodStart",
      "outputs": [
        {
          "name": "",
          "type": "uint256"
        }
      ],
      "payable": false,
      "stateMutability": "view",
      "type": "function"
    },
    {
      "constant": false,
      "inputs": [
        {
          "name": "newOwner",
          "type": "address"
        }
      ],
      "name": "transferOwnership",
      "outputs": [],
      "payable": false,
      "stateMutability": "nonpayable",
      "type": "function"
    },
    {
      "inputs": [
        {
          "name": "_avatar",
          "type": "address"
        },
        {
          "name": "_identity",
          "type": "address"
        },
        {
          "name": "_initialReserve",
          "type": "uint256"
        },
        {
          "name": "_periodStart",
          "type": "uint256"
        },
        {
          "name": "_periodEnd",
          "type": "uint256"
        },
        {
          "name": "_claimDistribution",
          "type": "uint256"
        }
      ],
      "payable": false,
      "stateMutability": "nonpayable",
      "type": "constructor"
    },
    {
      "anonymous": false,
      "inputs": [
        {
          "indexed": true,
          "name": "claimer",
          "type": "address"
        },
        {
          "indexed": false,
          "name": "amount",
          "type": "uint256"
        }
      ],
      "name": "UBIClaimed",
      "type": "event"
    },
    {
      "anonymous": false,
      "inputs": [
        {
          "indexed": false,
          "name": "claimers",
          "type": "uint256"
        },
        {
          "indexed": false,
          "name": "claimamount",
          "type": "uint256"
        }
      ],
      "name": "UBIEnded",
      "type": "event"
    },
    {
      "anonymous": false,
      "inputs": [
        {
          "indexed": true,
          "name": "by",
          "type": "address"
        },
        {
          "indexed": false,
          "name": "time",
          "type": "uint256"
        }
      ],
      "name": "SchemeStarted",
      "type": "event"
    },
    {
      "anonymous": false,
      "inputs": [
        {
          "indexed": true,
          "name": "by",
          "type": "address"
        },
        {
          "indexed": false,
          "name": "time",
          "type": "uint256"
        }
      ],
      "name": "SchemeEnded",
      "type": "event"
    },
    {
      "anonymous": false,
      "inputs": [
        {
          "indexed": true,
          "name": "previousOwner",
          "type": "address"
        },
        {
          "indexed": true,
          "name": "newOwner",
          "type": "address"
        }
      ],
      "name": "OwnershipTransferred",
      "type": "event"
    },
    {
      "constant": true,
      "inputs": [],
      "name": "checkEntitlement",
      "outputs": [
        {
          "name": "",
          "type": "uint256"
        }
      ],
      "payable": false,
      "stateMutability": "view",
      "type": "function"
    },
    {
      "constant": false,
      "inputs": [],
      "name": "claim",
      "outputs": [
        {
          "name": "",
          "type": "bool"
        }
      ],
      "payable": false,
      "stateMutability": "nonpayable",
      "type": "function"
    }
  ],
  "bytecode": "0x608060405260058054600160a060020a03191690553480156200002157600080fd5b5060405160c08062001d37833981018060405260c08110156200004357600080fd5b50805160208201516040808401516060850151608086015160a09096015160008054600160a060020a03191633178082559451969795969395929492939192889288928892889288928792859285928992600160a060020a0316917f8be0079c531659141344cd1fd0a4f28419497f9722a3daafe3b4186f6b6457e0908290a3600160a060020a03811615156200013b57604080517f08c379a000000000000000000000000000000000000000000000000000000000815260206004820152601960248201527f537570706c696564206964656e74697479206973206e756c6c00000000000000604482015290519081900360640190fd5b60018054600160a060020a031916600160a060020a0392909216919091179055808210620001b5576040517f08c379a000000000000000000000000000000000000000000000000000000000815260040180806020018281038252602681526020018062001d116026913960400191505060405180910390fd5b60029190915560035560048054600160a860020a031916610100600160a060020a03848116820292909217928390559091041615620002a757600460019054906101000a9004600160a060020a0316600160a060020a0316638da5cb5b6040518163ffffffff167c010000000000000000000000000000000000000000000000000000000002815260040160206040518083038186803b1580156200025957600080fd5b505afa1580156200026e573d6000803e3d6000fd5b505050506040513d60208110156200028557600080fd5b505160058054600160a060020a031916600160a060020a039092169190911790555b50505060065550506007555050505050611a4a80620002c76000396000f3fe608060405234801561001057600080fd5b506004361061013b5760003560e060020a90048063884a41be116100bc578063be9a655511610080578063be9a655514610277578063c7a76adf1461027f578063cef636001461029c578063e6a847a6146102b9578063eda4e6d6146102c1578063f2fde38b146102c95761013b565b8063884a41be146102315780638c4dd39d146102395780638da5cb5b1461025f5780638f32d59b1461026757806398d6621b1461026f5761013b565b80634e71d92d116101035780634e71d92d146101d1578063506ec095146101d95780635c9302c9146101f357806360ee7938146101fb578063715018a6146102295761013b565b8063069786ea14610140578063086cfca814610161578063223668441461018957806322f3e2d4146101915780632c159a1a146101ad575b600080fd5b6101486102ef565b6040805192835260208301919091528051918290030190f35b6101876004803603602081101561017757600080fd5b5035600160a060020a0316610310565b005b6101876105bd565b61019961071d565b604080519115158252519081900360200190f35b6101b5610726565b60408051600160a060020a039092168252519081900360200190f35b610199610735565b6101e1610a86565b60408051918252519081900360200190f35b6101e1610a8c565b6101876004803603604081101561021157600080fd5b50600160a060020a0381358116916020013516610a92565b610187610ce2565b6101e1610d4c565b6101876004803603602081101561024f57600080fd5b5035600160a060020a0316610d52565b6101b5610f88565b610199610f97565b6101e1610fa8565b6101996110aa565b6101e16004803603602081101561029557600080fd5b5035611549565b6101e1600480360360208110156102b257600080fd5b503561155e565b6101e1611573565b6101e1611579565b610187600480360360208110156102df57600080fd5b5035600160a060020a031661157f565b6000806102fd600954611549565b61030860095461155e565b915091509091565b8033600160a060020a038216148015610420575030600160a060020a0316638da5cb5b6040518163ffffffff1660e060020a02815260040160206040518083038186803b15801561036057600080fd5b505afa158015610374573d6000803e3d6000fd5b505050506040513d602081101561038a57600080fd5b5051604080517f8da5cb5b0000000000000000000000000000000000000000000000000000000081529051600160a060020a0392831692841691638da5cb5b916004808301926020929190829003018186803b1580156103e957600080fd5b505afa1580156103fd573d6000803e3d6000fd5b505050506040513d602081101561041357600080fd5b5051600160a060020a0316145b8061049a575030600160a060020a0316638da5cb5b6040518163ffffffff1660e060020a02815260040160206040518083038186803b15801561046257600080fd5b505afa158015610476573d6000803e3d6000fd5b505050506040513d602081101561048c57600080fd5b5051600160a060020a031633145b15156104da5760405160e560020a62461bcd0281526004018080602001828103825260298152602001806119f66029913960400191505060405180910390fd5b6004805474ffffffffffffffffffffffffffffffffffffffff001916610100600160a060020a03858116820292909217808455604080517f8da5cb5b00000000000000000000000000000000000000000000000000000000815290519290910490921692638da5cb5b92808201926020929091829003018186803b15801561056157600080fd5b505afa158015610575573d6000803e3d6000fd5b505050506040513d602081101561058b57600080fd5b50516005805473ffffffffffffffffffffffffffffffffffffffff1916600160a060020a039092169190911790555050565b6004546101009004600160a060020a03161515610624576040805160e560020a62461bcd02815260206004820152601160248201527f417661746172206973206e6f7420736574000000000000000000000000000000604482015290519081900360640190fd5b60055460048054604080517f9be2faed0000000000000000000000000000000000000000000000000000000081523093810193909352600160a060020a036101009092048216602484015251921691639be2faed91604480820192602092909190829003018186803b15801561069957600080fd5b505afa1580156106ad573d6000803e3d6000fd5b505050506040513d60208110156106c357600080fd5b5051151561071b576040805160e560020a62461bcd02815260206004820152601860248201527f536368656d65206973206e6f7420726567697374657265640000000000000000604482015290519081900360640190fd5b565b60045460ff1681565b600154600160a060020a031681565b60045460009060ff161515610794576040805160e560020a62461bcd02815260206004820152600d60248201527f6973206e6f742061637469766500000000000000000000000000000000000000604482015290519081900360640190fd5b600154604080517f10a8aecd0000000000000000000000000000000000000000000000000000000081523360048201529051600160a060020a03909216916310a8aecd91602480820192602092909190829003018186803b1580156107f857600080fd5b505afa15801561080c573d6000803e3d6000fd5b505050506040513d602081101561082257600080fd5b5051151561087a576040805160e560020a62461bcd02815260206004820152600e60248201527f6973206e6f7420636c61696d6572000000000000000000000000000000000000604482015290519081900360640190fd5b60006108886007543361159e565b336000908152600b6020526040902042905590506108a46116b3565b6000600460019054906101000a9004600160a060020a0316600160a060020a031663e1758bd86040518163ffffffff1660e060020a02815260040160206040518083038186803b1580156108f757600080fd5b505afa15801561090b573d6000803e3d6000fd5b505050506040513d602081101561092157600080fd5b5051604080517fa9059cbb000000000000000000000000000000000000000000000000000000008152336004820152602481018590529051919250600160a060020a0383169163a9059cbb916044808201926020929091908290030181600087803b15801561098f57600080fd5b505af11580156109a3573d6000803e3d6000fd5b505050506040513d60208110156109b957600080fd5b506109c490506119de565b50600954600090815260086020908152604091829020825180840190935260018082015480855260029092015492840192909252610a079163ffffffff6116ef16565b81526020810151610a1e908463ffffffff6116ef16565b60208083019182526009546000908152600882526040908190208451600182015592516002909301929092558151858152915133927f89ed24731df6b066e4c5186901fffdba18cd9a10f07494aff900bdee260d130492908290030190a26001935050505090565b60035481565b60095481565b8033600160a060020a038216148015610ba2575030600160a060020a0316638da5cb5b6040518163ffffffff1660e060020a02815260040160206040518083038186803b158015610ae257600080fd5b505afa158015610af6573d6000803e3d6000fd5b505050506040513d6020811015610b0c57600080fd5b5051604080517f8da5cb5b0000000000000000000000000000000000000000000000000000000081529051600160a060020a0392831692841691638da5cb5b916004808301926020929190829003018186803b158015610b6b57600080fd5b505afa158015610b7f573d6000803e3d6000fd5b505050506040513d6020811015610b9557600080fd5b5051600160a060020a0316145b80610c1c575030600160a060020a0316638da5cb5b6040518163ffffffff1660e060020a02815260040160206040518083038186803b158015610be457600080fd5b505afa158015610bf8573d6000803e3d6000fd5b505050506040513d6020811015610c0e57600080fd5b5051600160a060020a031633145b1515610c5c5760405160e560020a62461bcd0281526004018080602001828103825260298152602001806119f66029913960400191505060405180910390fd5b82600160a060020a031663223668446040518163ffffffff1660e060020a02815260040160006040518083038186803b158015610c9857600080fd5b505afa158015610cac573d6000803e3d6000fd5b50506001805473ffffffffffffffffffffffffffffffffffffffff1916600160a060020a03969096169590951790945550505050565b610cea610f97565b1515610cf557600080fd5b60008054604051600160a060020a03909116907f8be0079c531659141344cd1fd0a4f28419497f9722a3daafe3b4186f6b6457e0908390a36000805473ffffffffffffffffffffffffffffffffffffffff19169055565b60075481565b600354421015610dac576040805160e560020a62461bcd02815260206004820152601460248201527f706572696f6420686173206e6f7420656e646564000000000000000000000000604482015290519081900360640190fd5b6000600460019054906101000a9004600160a060020a0316600160a060020a031663e1758bd86040518163ffffffff1660e060020a02815260040160206040518083038186803b158015610dff57600080fd5b505afa158015610e13573d6000803e3d6000fd5b505050506040513d6020811015610e2957600080fd5b5051604080517f70a082310000000000000000000000000000000000000000000000000000000081523060048201529051919250600091600160a060020a038416916370a08231916024808301926020929190829003018186803b158015610e9057600080fd5b505afa158015610ea4573d6000803e3d6000fd5b505050506040513d6020811015610eba57600080fd5b505190506000811115610f695760048054604080517fa9059cbb000000000000000000000000000000000000000000000000000000008152600160a060020a0361010090930483169381019390935260248301849052519084169163a9059cbb9160448083019260209291908290030181600087803b158015610f3c57600080fd5b505af1158015610f50573d6000803e3d6000fd5b505050506040513d6020811015610f6657600080fd5b50505b600454610f83906101009004600160a060020a0316611708565b505050565b600054600160a060020a031690565b600054600160a060020a0316331490565b60045460009060ff161515611007576040805160e560020a62461bcd02815260206004820152600d60248201527f6973206e6f742061637469766500000000000000000000000000000000000000604482015290519081900360640190fd5b600254336000908152600b602052604081205490911161105657336000908152600b6020526040902054620151809061104790429063ffffffff61176b16565b81151561105057fe5b0461107a565b6201518061106f6002544261176b90919063ffffffff16565b81151561107857fe5b045b90506007811161108a578061108d565b60075b6007549091506110a3818363ffffffff61178016565b9250505090565b60055460048054604080517f9be2faed0000000000000000000000000000000000000000000000000000000081523093810193909352600160a060020a0361010090920482166024840152516000939190911691639be2faed916044808301926020929190829003018186803b15801561112357600080fd5b505afa158015611137573d6000803e3d6000fd5b505050506040513d602081101561114d57600080fd5b505115156111a5576040805160e560020a62461bcd02815260206004820152601860248201527f536368656d65206973206e6f7420726567697374657265640000000000000000604482015290519081900360640190fd5b6111ad6117ab565b15156111b857600080fd5b6000600981905542600a5560048054604080517fe1758bd80000000000000000000000000000000000000000000000000000000081529051610100909204600160a060020a03169263e1758bd8928282019260209290829003018186803b15801561122257600080fd5b505afa158015611236573d6000803e3d6000fd5b505050506040513d602081101561124c57600080fd5b5051600654909150600010156115415780600160a060020a03166370a08231600460019054906101000a9004600160a060020a03166040518263ffffffff1660e060020a0281526004018082600160a060020a0316600160a060020a0316815260200191505060206040518083038186803b1580156112ca57600080fd5b505afa1580156112de573d6000803e3d6000fd5b505050506040513d60208110156112f457600080fd5b5051600654111561134f576040805160e560020a62461bcd02815260206004820152601960248201527f4e6f7420656e6f7567682066756e647320746f20737461727400000000000000604482015290519081900360640190fd5b6005546006546040805130602480830191909152604480830194909452825180830385018152606492830184526020810180517bffffffffffffffffffffffffffffffffffffffffffffffffffffffff167fa9059cbb000000000000000000000000000000000000000000000000000000001781526004805495517fd1b7089a000000000000000000000000000000000000000000000000000000008152600160a060020a038a8116928201928352610100909704871697810188905260009581018690526080948101948552835160848201528351969098169763d1b7089a978a979496909590949293909260a490920191808383885b8381101561145f578181015183820152602001611447565b50505050905090810190601f16801561148c5780820380516001836020036101000a031916815260200191505b5095505050505050600060405180830381600087803b1580156114ae57600080fd5b505af11580156114c2573d6000803e3d6000fd5b505050506040513d6000823e601f3d908101601f1916820160409081528110156114eb57600080fd5b81516020830180519193928301929164010000000081111561150c57600080fd5b8201602081018481111561151f57600080fd5b815164010000000081118282018710171561153957600080fd5b505050505050505b600191505090565b60009081526008602052604090206001015490565b60009081526008602052604090206002015490565b600a5481565b60025481565b611587610f97565b151561159257600080fd5b61159b816118ba565b50565b600254600160a060020a0382166000908152600b6020526040812054909111156115f2576002546115d8906201518063ffffffff61176b16565b600160a060020a0383166000908152600b60205260409020555b600160a060020a0382166000908152600b6020526040812054620151809061162190429063ffffffff61176b16565b81151561162a57fe5b0490506007811161163b578061163e565b60075b90506001811015611699576040805160e560020a62461bcd02815260206004820152601860248201527f48617320636c61696d65642077697468696e2061206461790000000000000000604482015290519081900360640190fd5b6116a9848263ffffffff61178016565b9150505b92915050565b60006116ca600a544261176b90919063ffffffff16565b42600a5590506116e9620151808260095491900463ffffffff6116ef16565b60095550565b60008282018381101561170157600080fd5b9392505050565b600354421015611762576040805160e560020a62461bcd02815260206004820152601460248201527f706572696f6420686173206e6f7420656e646564000000000000000000000000604482015290519081900360640190fd5b61159b81611937565b60008282111561177a57600080fd5b50900390565b6000821515611791575060006116ad565b8282028284828115156117a057fe5b041461170157600080fd5b600060025442101580156117c0575060035442105b1515611816576040805160e560020a62461bcd02815260206004820152600d60248201527f6e6f7420696e20706572696f6400000000000000000000000000000000000000604482015290519081900360640190fd5b60045460ff1615611871576040805160e560020a62461bcd02815260206004820152601260248201527f63616e6e6f742073746172742074776963650000000000000000000000000000604482015290519081900360640190fd5b6004805460ff1916600117905560408051428152905133917f727dd98701807c5fdf715b9f1fd7d87461a558e2ab3e05935add76e42e330fa3919081900360200190a250600190565b600160a060020a03811615156118cf57600080fd5b60008054604051600160a060020a03808516939216917f8be0079c531659141344cd1fd0a4f28419497f9722a3daafe3b4186f6b6457e091a36000805473ffffffffffffffffffffffffffffffffffffffff1916600160a060020a0392909216919091179055565b60045460ff161515611993576040805160e560020a62461bcd02815260206004820152600d60248201527f6973206e6f742061637469766500000000000000000000000000000000000000604482015290519081900360640190fd5b6004805460ff1916905560408051428152905133917ef689ee9beb942c1c9c0d6642687ace05a9000d5f2979d344163c57829fa779919081900360200190a280600160a060020a0316ff5b60408051808201909152600080825260208201529056fe4f6e6c792063616c6c61626c6520627920617661746172206f66206f776e6572206f72206f776e6572a165627a7a723058202c441857ad09be24c086485da60e6b149c7bdd82011d43d983e500ad69a426bc002973746172742063616e6e6f74206265206166746572206e6f7220657175616c20746f20656e64",
  "source": "pragma solidity 0.5.4;\n\nimport \"./UBI.sol\";\nimport \"openzeppelin-solidity/contracts/math/SafeMath.sol\";\n\n/* @title Fixed amount-per-day UBI scheme allowing multiple claims\n * across a longer period\n */\ncontract FixedUBI is AbstractUBI {\n    using SafeMath for uint256;\n\n    mapping (address => uint) lastClaimed;\n\n    constructor(\n        Avatar _avatar,\n        Identity _identity,\n        uint256 _initialReserve,\n        uint _periodStart,\n        uint _periodEnd,\n        uint256 _claimDistribution\n    )\n        public\n        AbstractUBI(_avatar, _identity, _initialReserve, _periodStart, _periodEnd)\n    {\n        claimDistribution = _claimDistribution;\n    }\n\n    /* @dev the claim calculation formula. Checks to see how many days\n     * the given address can claim for, with 7 being the maximum\n     * @param amount the amount per day one can claim\n     * @param user the claiming address\n     */\n    function distributionFormula(uint256 amount, address user) internal returns(uint256)\n    {\n        if(lastClaimed[user] < periodStart) {\n            lastClaimed[user] = periodStart.sub(1 days);\n        }\n\n        uint claimDays = now.sub(lastClaimed[user]) / 1 days; \n        \n        claimDays = claimDays > 7 ? 7 : claimDays;\n\n        require(claimDays >= 1, \"Has claimed within a day\");\n        return amount.mul(claimDays);\n    }\n\n    /* @dev Sets the currentDay variable. Internal function\n     */\n    function setDay() internal {\n        uint dayDiff = now.sub(lastCalc);\n        lastCalc = now;\n\n        currentDay = currentDay.add(dayDiff / 1 days);\n    }\n\n    /* @dev Checks amount user is eligble to claim for\n     * @returns an uint256 indicating the amount the user can claim for\n     */\n    function checkEntitlement() public requireActive view returns (uint256) \n    {\n        uint claimDays = lastClaimed[msg.sender] < periodStart ?\n            now.sub(periodStart) / 1 days :\n            now.sub(lastClaimed[msg.sender]) / 1 days; \n        \n        claimDays = claimDays > 7 ? 7 : claimDays;\n        uint256 claimAmount = claimDistribution;\n\n        return claimAmount.mul(claimDays);\n    }\n\n    /* @dev Claiming function. Calculates how many days one can claim for and logs\n     * new claim and amount for the day.\n     * @returns A bool indicating if UBI was claimed\n     */\n    function claim()\n        public\n        requireActive\n        onlyClaimer\n        returns (bool)\n    {\n        uint256 newDistribution = distributionFormula(claimDistribution, msg.sender);\n        lastClaimed[msg.sender] = now;\n        setDay();\n\n        GoodDollar token = GoodDollar(address(avatar.nativeToken()));\n        token.transfer(msg.sender, newDistribution);\n\n        Day memory day = claimDay[currentDay];\n        \n        day.amountOfClaimers = day.amountOfClaimers.add(1);\n        day.claimAmount = day.claimAmount.add(newDistribution);\n        \n        claimDay[currentDay] = day;\n\n        emit UBIClaimed(msg.sender, newDistribution);\n        \n        return true;\n    }\n}\n",
  "sourcePath": "/Users/madsjorgensen/Documents/Work/GoodContracts/contracts/dao/schemes/FixedUBI.sol",
  "compiler": {
    "name": "solc",
    "version": "0.5.4+commit.9549d8ff.Emscripten.clang"
  },
  "schemaVersion": "3.0.11",
  "updatedAt": "2019-09-23T09:22:14.737Z",
  "devdoc": {
    "methods": {
      "end(address)": {
        "details": "Function that ends the claiming period. Can only be done if Contract has been started and periodEnd is passed. Sends the remaining funds on contract back to the avatar contract address"
      },
      "isOwner()": {
        "return": "true if `msg.sender` is the owner of the contract."
      },
      "owner()": {
        "return": "the address of the owner."
      },
      "renounceOwnership()": {
        "details": "Allows the current owner to relinquish control of the contract."
      },
      "transferOwnership(address)": {
        "details": "Allows the current owner to transfer control of the contract to a newOwner.",
        "params": {
          "newOwner": "The address to transfer ownership to."
        }
      }
    }
  },
  "userdoc": {
    "methods": {
      "renounceOwnership()": {
        "notice": "Renouncing to ownership will leave the contract without an owner. It will not be possible to call the functions with the `onlyOwner` modifier anymore."
      }
    }
  }
}