{
  "contractName": "FormulaHolderMock",
  "abi": [
    {
      "inputs": [
        {
          "internalType": "contract FeeFormula",
          "name": "_formula",
          "type": "address"
        }
      ],
      "payable": false,
      "stateMutability": "nonpayable",
      "type": "constructor"
    },
    {
      "anonymous": false,
      "inputs": [
        {
          "indexed": true,
          "internalType": "address",
          "name": "previousOwner",
          "type": "address"
        },
        {
          "indexed": true,
          "internalType": "address",
          "name": "newOwner",
          "type": "address"
        }
      ],
      "name": "OwnershipTransferred",
      "type": "event"
    },
    {
      "constant": true,
      "inputs": [],
      "name": "formula",
      "outputs": [
        {
          "internalType": "contract AbstractFees",
          "name": "",
          "type": "address"
        }
      ],
      "payable": false,
      "stateMutability": "view",
      "type": "function"
    },
    {
      "constant": true,
      "inputs": [],
      "name": "isOwner",
      "outputs": [
        {
          "internalType": "bool",
          "name": "",
          "type": "bool"
        }
      ],
      "payable": false,
      "stateMutability": "view",
      "type": "function"
    },
    {
      "constant": true,
      "inputs": [],
      "name": "owner",
      "outputs": [
        {
          "internalType": "address",
          "name": "",
          "type": "address"
        }
      ],
      "payable": false,
      "stateMutability": "view",
      "type": "function"
    },
    {
      "constant": false,
      "inputs": [],
      "name": "renounceOwnership",
      "outputs": [],
      "payable": false,
      "stateMutability": "nonpayable",
      "type": "function"
    },
    {
      "constant": false,
      "inputs": [
        {
          "internalType": "contract AbstractFees",
          "name": "_formula",
          "type": "address"
        }
      ],
      "name": "setFormula",
      "outputs": [],
      "payable": false,
      "stateMutability": "nonpayable",
      "type": "function"
    },
    {
      "constant": false,
      "inputs": [
        {
          "internalType": "address",
          "name": "newOwner",
          "type": "address"
        }
      ],
      "name": "transferOwnership",
      "outputs": [],
      "payable": false,
      "stateMutability": "nonpayable",
      "type": "function"
    }
  ],
  "bytecode": "0x608060405234801561001057600080fd5b506040516103f23803806103f28339818101604052602081101561003357600080fd5b5051600080546001600160a01b031916331780825560405183926001600160a01b039290921691907f8be0079c531659141344cd1fd0a4f28419497f9722a3daafe3b4186f6b6457e0908290a36001600160a01b0381166100db576040805162461bcd60e51b815260206004820152601860248201527f537570706c69656420666f726d756c61206973206e756c6c0000000000000000604482015290519081900360640190fd5b600180546001600160a01b0319166001600160a01b0392909216919091179055506102e78061010b6000396000f3fe608060405234801561001057600080fd5b50600436106100625760003560e01c80634b75f54f14610067578063715018a61461008b5780638da5cb5b146100955780638f32d59b1461009d578063ecc06c76146100b9578063f2fde38b146100df575b600080fd5b61006f610105565b604080516001600160a01b039092168252519081900360200190f35b610093610114565b005b61006f61016f565b6100a561017e565b604080519115158252519081900360200190f35b610093600480360360208110156100cf57600080fd5b50356001600160a01b031661018f565b610093600480360360208110156100f557600080fd5b50356001600160a01b0316610227565b6001546001600160a01b031681565b61011c61017e565b61012557600080fd5b600080546040516001600160a01b03909116907f8be0079c531659141344cd1fd0a4f28419497f9722a3daafe3b4186f6b6457e0908390a3600080546001600160a01b0319169055565b6000546001600160a01b031690565b6000546001600160a01b0316331490565b61019761017e565b6101a057600080fd5b806001600160a01b031663223668446040518163ffffffff1660e01b815260040160206040518083038186803b1580156101d957600080fd5b505afa1580156101ed573d6000803e3d6000fd5b505050506040513d602081101561020357600080fd5b5050600180546001600160a01b0319166001600160a01b0392909216919091179055565b61022f61017e565b61023857600080fd5b61024181610244565b50565b6001600160a01b03811661025757600080fd5b600080546040516001600160a01b03808516939216917f8be0079c531659141344cd1fd0a4f28419497f9722a3daafe3b4186f6b6457e091a3600080546001600160a01b0319166001600160a01b039290921691909117905556fea265627a7a723158202eb6afded8455b44e2485a29f2568b3e3d1b4f47d641cf46bbb17a6406ccfca264736f6c63430005100032",
  "source": "pragma solidity >0.5.4;\n\nimport \"../dao/schemes/FormulaHolder.sol\";\nimport \"../dao/schemes/FeeFormula.sol\";\n\ncontract FormulaHolderMock is FormulaHolder {\n    constructor(FeeFormula _formula) public FormulaHolder(_formula) {}\n}\n",
  "sourcePath": "/Users/hadar/workspace/GoodDollar/GoodBootstrap/packages/contracts/contracts/mocks/FormulaHolderMock.sol",
  "compiler": {
    "name": "solc",
    "version": "0.5.16+commit.9c3226ce.Emscripten.clang"
  },
  "schemaVersion": "3.2.3",
  "updatedAt": "2021-01-27T19:47:05.841Z",
  "devdoc": {
    "methods": {
      "isOwner()": {
        "return": "true if `msg.sender` is the owner of the contract."
      },
      "owner()": {
        "return": "the address of the owner."
      },
      "renounceOwnership()": {
        "details": "Allows the current owner to relinquish control of the contract."
      },
      "transferOwnership(address)": {
        "details": "Allows the current owner to transfer control of the contract to a newOwner.",
        "params": {
          "newOwner": "The address to transfer ownership to."
        }
      }
    }
  },
  "userdoc": {
    "methods": {
      "renounceOwnership()": {
        "notice": "Renouncing to ownership will leave the contract without an owner. It will not be possible to call the functions with the `onlyOwner` modifier anymore."
      }
    }
  }
}