{
  "contractName": "FormulaHolderMock",
  "abi": [
    {
      "constant": true,
      "inputs": [],
      "name": "formula",
      "outputs": [
        {
          "name": "",
          "type": "address"
        }
      ],
      "payable": false,
      "stateMutability": "view",
      "type": "function"
    },
    {
      "constant": false,
      "inputs": [],
      "name": "renounceOwnership",
      "outputs": [],
      "payable": false,
      "stateMutability": "nonpayable",
      "type": "function"
    },
    {
      "constant": false,
      "inputs": [
        {
          "name": "_formula",
          "type": "address"
        },
        {
          "name": "_avatar",
          "type": "address"
        }
      ],
      "name": "setFormula",
      "outputs": [],
      "payable": false,
      "stateMutability": "nonpayable",
      "type": "function"
    },
    {
      "constant": true,
      "inputs": [],
      "name": "owner",
      "outputs": [
        {
          "name": "",
          "type": "address"
        }
      ],
      "payable": false,
      "stateMutability": "view",
      "type": "function"
    },
    {
      "constant": true,
      "inputs": [],
      "name": "isOwner",
      "outputs": [
        {
          "name": "",
          "type": "bool"
        }
      ],
      "payable": false,
      "stateMutability": "view",
      "type": "function"
    },
    {
      "constant": false,
      "inputs": [
        {
          "name": "newOwner",
          "type": "address"
        }
      ],
      "name": "transferOwnership",
      "outputs": [],
      "payable": false,
      "stateMutability": "nonpayable",
      "type": "function"
    },
    {
      "inputs": [],
      "payable": false,
      "stateMutability": "nonpayable",
      "type": "constructor"
    },
    {
      "anonymous": false,
      "inputs": [
        {
          "indexed": true,
          "name": "previousOwner",
          "type": "address"
        },
        {
          "indexed": true,
          "name": "newOwner",
          "type": "address"
        }
      ],
      "name": "OwnershipTransferred",
      "type": "event"
    }
  ],
  "bytecode": "0x608060405234801561001057600080fd5b5060008054600160a060020a0319163317808255604051600160a060020a03919091169082907f8be0079c531659141344cd1fd0a4f28419497f9722a3daafe3b4186f6b6457e0908290a3600160a060020a03811615156100d257604080517f08c379a000000000000000000000000000000000000000000000000000000000815260206004820152601860248201527f537570706c69656420666f726d756c61206973206e756c6c0000000000000000604482015290519081900360640190fd5b60018054600160a060020a031916600160a060020a0392909216919091179055610501806101016000396000f3fe608060405234801561001057600080fd5b50600436106100655760e060020a60003504634b75f54f811461006a578063715018a61461008e578063804f1b04146100985780638da5cb5b146100c65780638f32d59b146100ce578063f2fde38b146100ea575b600080fd5b610072610110565b60408051600160a060020a039092168252519081900360200190f35b61009661011f565b005b610096600480360360408110156100ae57600080fd5b50600160a060020a0381358116916020013516610189565b6100726103f0565b6100d66103ff565b604080519115158252519081900360200190f35b6100966004803603602081101561010057600080fd5b5035600160a060020a0316610410565b600154600160a060020a031681565b6101276103ff565b151561013257600080fd5b60008054604051600160a060020a03909116907f8be0079c531659141344cd1fd0a4f28419497f9722a3daafe3b4186f6b6457e0908390a36000805473ffffffffffffffffffffffffffffffffffffffff19169055565b8033600160a060020a038216148015610299575030600160a060020a0316638da5cb5b6040518163ffffffff1660e060020a02815260040160206040518083038186803b1580156101d957600080fd5b505afa1580156101ed573d6000803e3d6000fd5b505050506040513d602081101561020357600080fd5b5051604080517f8da5cb5b0000000000000000000000000000000000000000000000000000000081529051600160a060020a0392831692841691638da5cb5b916004808301926020929190829003018186803b15801561026257600080fd5b505afa158015610276573d6000803e3d6000fd5b505050506040513d602081101561028c57600080fd5b5051600160a060020a0316145b80610313575030600160a060020a0316638da5cb5b6040518163ffffffff1660e060020a02815260040160206040518083038186803b1580156102db57600080fd5b505afa1580156102ef573d6000803e3d6000fd5b505050506040513d602081101561030557600080fd5b5051600160a060020a031633145b151561036a576040517f08c379a00000000000000000000000000000000000000000000000000000000081526004018080602001828103825260298152602001806104ad6029913960400191505060405180910390fd5b82600160a060020a031663223668446040518163ffffffff1660e060020a02815260040160006040518083038186803b1580156103a657600080fd5b505afa1580156103ba573d6000803e3d6000fd5b50506001805473ffffffffffffffffffffffffffffffffffffffff1916600160a060020a03969096169590951790945550505050565b600054600160a060020a031690565b600054600160a060020a0316331490565b6104186103ff565b151561042357600080fd5b61042c8161042f565b50565b600160a060020a038116151561044457600080fd5b60008054604051600160a060020a03808516939216917f8be0079c531659141344cd1fd0a4f28419497f9722a3daafe3b4186f6b6457e091a36000805473ffffffffffffffffffffffffffffffffffffffff1916600160a060020a039290921691909117905556fe4f6e6c792063616c6c61626c6520627920617661746172206f66206f776e6572206f72206f776e6572a165627a7a72305820e3ed9f9fa62f8b05dffb135e66812f52bf4232172bb9b4927fe477e01b63fce10029",
  "source": "pragma solidity 0.5.4;\n\nimport \"../dao/schemes/FormulaHolder.sol\";\nimport \"../dao/schemes/FeeFormula.sol\";\n\ncontract FormulaHolderMock is FormulaHolder {\n\n    constructor() public FormulaHolder(FeeFormula(0)) {}\n}",
  "sourcePath": "/Users/hadar/workspace/GoodDollar/GoodBootstrap/packages/contracts/contracts/mocks/FormulaHolderMock.sol",
  "compiler": {
    "name": "solc",
    "version": "0.5.4+commit.9549d8ff.Emscripten.clang"
  },
  "schemaVersion": "3.0.9",
  "updatedAt": "2019-09-22T12:47:44.222Z",
  "devdoc": {
    "methods": {
      "isOwner()": {
        "return": "true if `msg.sender` is the owner of the contract."
      },
      "owner()": {
        "return": "the address of the owner."
      },
      "renounceOwnership()": {
        "details": "Allows the current owner to relinquish control of the contract. It will not be possible to call the functions with the `onlyOwner` modifier anymore."
      },
      "transferOwnership(address)": {
        "details": "Allows the current owner to transfer control of the contract to a newOwner.",
        "params": {
          "newOwner": "The address to transfer ownership to."
        }
      }
    }
  },
  "userdoc": {
    "methods": {
      "renounceOwnership()": {
        "notice": "Renouncing ownership will leave the contract without an owner, thereby removing any functionality that is only available to the owner."
      }
    }
  }
}