{
  "contractName": "FuseFaucet",
  "abi": [
    {
      "inputs": [
        {
          "internalType": "address payable[]",
          "name": "_admins",
          "type": "address[]"
        },
        {
          "internalType": "uint256",
          "name": "_toppingAmount",
          "type": "uint256"
        },
        {
          "internalType": "uint256",
          "name": "_toppingTimes",
          "type": "uint256"
        },
        {
          "internalType": "contract Identity",
          "name": "_identity",
          "type": "address"
        }
      ],
      "payable": false,
      "stateMutability": "nonpayable",
      "type": "constructor"
    },
    {
      "anonymous": false,
      "inputs": [
        {
          "indexed": true,
          "internalType": "address payable[]",
          "name": "admins",
          "type": "address[]"
        }
      ],
      "name": "AdminsAdded",
      "type": "event"
    },
    {
      "anonymous": false,
      "inputs": [
        {
          "indexed": true,
          "internalType": "address[]",
          "name": "admins",
          "type": "address[]"
        }
      ],
      "name": "AdminsRemoved",
      "type": "event"
    },
    {
      "anonymous": false,
      "inputs": [
        {
          "indexed": true,
          "internalType": "address",
          "name": "_contract",
          "type": "address"
        },
        {
          "indexed": false,
          "internalType": "bytes",
          "name": "_data",
          "type": "bytes"
        },
        {
          "indexed": false,
          "internalType": "uint256",
          "name": "_value",
          "type": "uint256"
        },
        {
          "indexed": false,
          "internalType": "bool",
          "name": "_success",
          "type": "bool"
        }
      ],
      "name": "GenericCall",
      "type": "event"
    },
    {
      "anonymous": false,
      "inputs": [
        {
          "indexed": true,
          "internalType": "address",
          "name": "previousOwner",
          "type": "address"
        },
        {
          "indexed": true,
          "internalType": "address",
          "name": "newOwner",
          "type": "address"
        }
      ],
      "name": "OwnershipTransferred",
      "type": "event"
    },
    {
      "anonymous": false,
      "inputs": [
        {
          "indexed": true,
          "internalType": "address",
          "name": "user",
          "type": "address"
        },
        {
          "indexed": false,
          "internalType": "uint256",
          "name": "amount",
          "type": "uint256"
        }
      ],
      "name": "WalletTopped",
      "type": "event"
    },
    {
      "payable": true,
      "stateMutability": "payable",
      "type": "fallback"
    },
    {
      "constant": true,
      "inputs": [],
      "name": "adminToppingAmount",
      "outputs": [
        {
          "internalType": "uint256",
          "name": "",
          "type": "uint256"
        }
      ],
      "payable": false,
      "stateMutability": "view",
      "type": "function"
    },
    {
      "constant": true,
      "inputs": [],
      "name": "currentDay",
      "outputs": [
        {
          "internalType": "uint256",
          "name": "",
          "type": "uint256"
        }
      ],
      "payable": false,
      "stateMutability": "view",
      "type": "function"
    },
    {
      "constant": true,
      "inputs": [],
      "name": "isOwner",
      "outputs": [
        {
          "internalType": "bool",
          "name": "",
          "type": "bool"
        }
      ],
      "payable": false,
      "stateMutability": "view",
      "type": "function"
    },
    {
      "constant": true,
      "inputs": [],
      "name": "owner",
      "outputs": [
        {
          "internalType": "address",
          "name": "",
          "type": "address"
        }
      ],
      "payable": false,
      "stateMutability": "view",
      "type": "function"
    },
    {
      "constant": true,
      "inputs": [],
      "name": "periodStart",
      "outputs": [
        {
          "internalType": "uint256",
          "name": "",
          "type": "uint256"
        }
      ],
      "payable": false,
      "stateMutability": "view",
      "type": "function"
    },
    {
      "constant": false,
      "inputs": [],
      "name": "renounceOwnership",
      "outputs": [],
      "payable": false,
      "stateMutability": "nonpayable",
      "type": "function"
    },
    {
      "constant": true,
      "inputs": [],
      "name": "toppingAmount",
      "outputs": [
        {
          "internalType": "uint256",
          "name": "",
          "type": "uint256"
        }
      ],
      "payable": false,
      "stateMutability": "view",
      "type": "function"
    },
    {
      "constant": true,
      "inputs": [],
      "name": "toppingTimes",
      "outputs": [
        {
          "internalType": "uint256",
          "name": "",
          "type": "uint256"
        }
      ],
      "payable": false,
      "stateMutability": "view",
      "type": "function"
    },
    {
      "constant": false,
      "inputs": [
        {
          "internalType": "address",
          "name": "newOwner",
          "type": "address"
        }
      ],
      "name": "transferOwnership",
      "outputs": [],
      "payable": false,
      "stateMutability": "nonpayable",
      "type": "function"
    },
    {
      "constant": false,
      "inputs": [
        {
          "internalType": "contract SignUpBonus",
          "name": "_bonus",
          "type": "address"
        }
      ],
      "name": "setBonusContract",
      "outputs": [],
      "payable": false,
      "stateMutability": "nonpayable",
      "type": "function"
    },
    {
      "constant": false,
      "inputs": [
        {
          "internalType": "address payable[]",
          "name": "_admins",
          "type": "address[]"
        }
      ],
      "name": "addAdmins",
      "outputs": [],
      "payable": false,
      "stateMutability": "nonpayable",
      "type": "function"
    },
    {
      "constant": false,
      "inputs": [
        {
          "internalType": "address[]",
          "name": "_admins",
          "type": "address[]"
        }
      ],
      "name": "removeAdmins",
      "outputs": [],
      "payable": false,
      "stateMutability": "nonpayable",
      "type": "function"
    },
    {
      "constant": false,
      "inputs": [
        {
          "internalType": "uint256",
          "name": "startIndex",
          "type": "uint256"
        }
      ],
      "name": "topAdmins",
      "outputs": [],
      "payable": false,
      "stateMutability": "nonpayable",
      "type": "function"
    },
    {
      "constant": false,
      "inputs": [
        {
          "internalType": "uint256",
          "name": "startIndex",
          "type": "uint256"
        },
        {
          "internalType": "uint256",
          "name": "endIndex",
          "type": "uint256"
        }
      ],
      "name": "topAdmins",
      "outputs": [],
      "payable": false,
      "stateMutability": "nonpayable",
      "type": "function"
    },
    {
      "constant": true,
      "inputs": [
        {
          "internalType": "address",
          "name": "_user",
          "type": "address"
        }
      ],
      "name": "isAdmin",
      "outputs": [
        {
          "internalType": "bool",
          "name": "",
          "type": "bool"
        }
      ],
      "payable": false,
      "stateMutability": "view",
      "type": "function"
    },
    {
      "constant": false,
      "inputs": [
        {
          "internalType": "address",
          "name": "_user",
          "type": "address"
        },
        {
          "internalType": "string",
          "name": "_did",
          "type": "string"
        }
      ],
      "name": "whitelist",
      "outputs": [],
      "payable": false,
      "stateMutability": "nonpayable",
      "type": "function"
    },
    {
      "constant": false,
      "inputs": [
        {
          "internalType": "address",
          "name": "_user",
          "type": "address"
        }
      ],
      "name": "removeWhitelist",
      "outputs": [],
      "payable": false,
      "stateMutability": "nonpayable",
      "type": "function"
    },
    {
      "constant": false,
      "inputs": [
        {
          "internalType": "address",
          "name": "_user",
          "type": "address"
        }
      ],
      "name": "blacklist",
      "outputs": [],
      "payable": false,
      "stateMutability": "nonpayable",
      "type": "function"
    },
    {
      "constant": false,
      "inputs": [
        {
          "internalType": "address",
          "name": "_user",
          "type": "address"
        }
      ],
      "name": "removeBlacklist",
      "outputs": [],
      "payable": false,
      "stateMutability": "nonpayable",
      "type": "function"
    },
    {
      "constant": false,
      "inputs": [
        {
          "internalType": "address payable",
          "name": "_user",
          "type": "address"
        }
      ],
      "name": "topWallet",
      "outputs": [],
      "payable": false,
      "stateMutability": "nonpayable",
      "type": "function"
    },
    {
      "constant": false,
      "inputs": [
        {
          "internalType": "address",
          "name": "_user",
          "type": "address"
        },
        {
          "internalType": "uint256",
          "name": "_amount",
          "type": "uint256"
        },
        {
          "internalType": "string",
          "name": "_did",
          "type": "string"
        }
      ],
      "name": "whitelistAndAwardUser",
      "outputs": [],
      "payable": false,
      "stateMutability": "nonpayable",
      "type": "function"
    },
    {
      "constant": false,
      "inputs": [
        {
          "internalType": "address",
          "name": "_user",
          "type": "address"
        },
        {
          "internalType": "uint256",
          "name": "_amount",
          "type": "uint256"
        }
      ],
      "name": "awardUser",
      "outputs": [],
      "payable": false,
      "stateMutability": "nonpayable",
      "type": "function"
    },
    {
      "constant": false,
      "inputs": [
        {
          "internalType": "address",
          "name": "_contract",
          "type": "address"
        },
        {
          "internalType": "bytes",
          "name": "_data",
          "type": "bytes"
        },
        {
          "internalType": "uint256",
          "name": "_value",
          "type": "uint256"
        }
      ],
      "name": "genericCall",
      "outputs": [
        {
          "internalType": "bool",
          "name": "success",
          "type": "bool"
        },
        {
          "internalType": "bytes",
          "name": "returnValue",
          "type": "bytes"
        }
      ],
      "payable": false,
      "stateMutability": "nonpayable",
      "type": "function"
    },
    {
      "constant": false,
      "inputs": [],
      "name": "destroy",
      "outputs": [],
      "payable": false,
      "stateMutability": "nonpayable",
      "type": "function"
    }
  ],
  "bytecode": "0x6080604052600480546001600160a01b03191690553480156200002157600080fd5b5060405162001be038038062001be0833981810160405260808110156200004757600080fd5b81019080805160405193929190846401000000008211156200006857600080fd5b9083019060208201858111156200007e57600080fd5b82518660208202830111640100000000821117156200009c57600080fd5b82525081516020918201928201910280838360005b83811015620000cb578181015183820152602001620000b1565b50505050919091016040818152602084015190840151606090940151600080546001600160a01b0319163317808255929750949550936001600160a01b03919091169250907f8be0079c531659141344cd1fd0a4f28419497f9722a3daafe3b4186f6b6457e0908290a3600380546001600160a01b0319166001600160a01b0383161790556005839055661ff973cafa8000600655600782905542600955835115620001855762000185846001600160e01b036200018f16565b505050506200034c565b620001a26001600160e01b03620002ac16565b620001ac57600080fd5b60005b81518110156200023d57620001e8828281518110620001ca57fe5b60200260200101516001620002bd60201b6200172f1790919060201c565b6002828281518110620001f757fe5b60209081029190910181015182546001808201855560009485529290932090920180546001600160a01b0319166001600160a01b039093169290921790915501620001af565b508060405180828051906020019060200280838360005b838110156200026e57818101518382015260200162000254565b505060405194909201849003842095507f45486b220020cc2482ad1a5e0ae4d5f0b5372cea1b48173f6273c616a5047269945060009392505050a250565b6000546001600160a01b0316331490565b6001600160a01b038116620002d157600080fd5b620002e682826001600160e01b036200031616565b15620002f157600080fd5b6001600160a01b0316600090815260209190915260409020805460ff19166001179055565b60006001600160a01b0382166200032c57600080fd5b506001600160a01b03166000908152602091909152604090205460ff1690565b611884806200035c6000396000f3fe60806040526004361061014b5760003560e01c80638f32d59b116100b6578063e6ea39391161006f578063e6ea393914610795578063eb91e651146107aa578063eda4e6d6146107dd578063f2fde38b146107f2578063f3da9f0514610825578063f9f92be41461083a5761014b565b80638f32d59b146106275780639c54df641461063c578063bd7fbbd6146106ea578063c489249614610723578063db62683814610738578063e2166c64146107625761014b565b80635c9302c9116101085780635c9302c9146105425780635fc944e914610569578063715018a61461059957806378c8cda7146105ae57806383197ef0146105e15780638da5cb5b146105f65761014b565b80631ff6e09f1461014d57806324d7806c146102135780632beeaca41461025a5780632bf164581461031b5780633771dcf814610461578063377e11e014610494575b005b34801561015957600080fd5b5061014b6004803603606081101561017057600080fd5b6001600160a01b0382351691602081013591810190606081016040820135600160201b81111561019f57600080fd5b8201836020820111156101b157600080fd5b803590602001918460018302840111600160201b831117156101d257600080fd5b91908080601f01602080910402602001604051908101604052809392919081815260200183838082843760009201919091525092955061086d945050505050565b34801561021f57600080fd5b506102466004803603602081101561023657600080fd5b50356001600160a01b0316610a3e565b604080519115158252519081900360200190f35b34801561026657600080fd5b5061014b6004803603604081101561027d57600080fd5b6001600160a01b038235169190810190604081016020820135600160201b8111156102a757600080fd5b8201836020820111156102b957600080fd5b803590602001918460018302840111600160201b831117156102da57600080fd5b91908080601f016020809104026020016040519081016040528093929190818152602001838380828437600092019190915250929550610a57945050505050565b34801561032757600080fd5b506103de6004803603606081101561033e57600080fd5b6001600160a01b038235169190810190604081016020820135600160201b81111561036857600080fd5b82018360208201111561037a57600080fd5b803590602001918460018302840111600160201b8311171561039b57600080fd5b91908080601f0160208091040260200160405190810160405280939291908181526020018383808284376000920191909152509295505091359250610bb2915050565b604051808315151515815260200180602001828103825283818151815260200191508051906020019080838360005b8381101561042557818101518382015260200161040d565b50505050905090810190601f1680156104525780820380516001836020036101000a031916815260200191505b50935050505060405180910390f35b34801561046d57600080fd5b5061014b6004803603602081101561048457600080fd5b50356001600160a01b0316610da6565b3480156104a057600080fd5b5061014b600480360360208110156104b757600080fd5b810190602081018135600160201b8111156104d157600080fd5b8201836020820111156104e357600080fd5b803590602001918460208302840111600160201b8311171561050457600080fd5b919080806020026020016040519081016040528093929190818152602001838360200280828437600092019190915250929550610ece945050505050565b34801561054e57600080fd5b50610557610f87565b60408051918252519081900360200190f35b34801561057557600080fd5b5061014b6004803603604081101561058c57600080fd5b5080359060200135610f8d565b3480156105a557600080fd5b5061014b611073565b3480156105ba57600080fd5b5061014b600480360360208110156105d157600080fd5b50356001600160a01b03166110ce565b3480156105ed57600080fd5b5061014b611199565b34801561060257600080fd5b5061060b6111ad565b604080516001600160a01b039092168252519081900360200190f35b34801561063357600080fd5b506102466111bc565b34801561064857600080fd5b5061014b6004803603602081101561065f57600080fd5b810190602081018135600160201b81111561067957600080fd5b82018360208201111561068b57600080fd5b803590602001918460208302840111600160201b831117156106ac57600080fd5b9190808060200260200160405190810160405280939291908181526020018383602002808284376000920191909152509295506111cd945050505050565b3480156106f657600080fd5b5061014b6004803603604081101561070d57600080fd5b506001600160a01b0381351690602001356112d1565b34801561072f57600080fd5b506105576113db565b34801561074457600080fd5b5061014b6004803603602081101561075b57600080fd5b50356113e1565b34801561076e57600080fd5b5061014b6004803603602081101561078557600080fd5b50356001600160a01b03166113ee565b3480156107a157600080fd5b50610557611421565b3480156107b657600080fd5b5061014b600480360360208110156107cd57600080fd5b50356001600160a01b0316611427565b3480156107e957600080fd5b506105576114c5565b3480156107fe57600080fd5b5061014b6004803603602081101561081557600080fd5b50356001600160a01b03166114cb565b34801561083157600080fd5b506105576114e5565b34801561084657600080fd5b5061014b6004803603602081101561085d57600080fd5b50356001600160a01b03166114eb565b61087633610a3e565b6108bd576040805162461bcd60e51b815260206004820152601360248201527221b0b63632b91034b9903737ba1030b236b4b760691b604482015290519081900360640190fd5b6004546001600160a01b03166109045760405162461bcd60e51b81526004018080602001828103825260218152602001806117ff6021913960400191505060405180910390fd5b60035460408051633af32abf60e01b81526001600160a01b03868116600483015291519190921691633af32abf916024808301926020929190829003018186803b15801561095157600080fd5b505afa158015610965573d6000803e3d6000fd5b505050506040513d602081101561097b57600080fd5b505161098b5761098b8382610a57565b8115610a03576004805460408051635ebfddeb60e11b81526001600160a01b0387811694820194909452602481018690529051929091169163bd7fbbd69160448082019260009290919082900301818387803b1580156109ea57600080fd5b505af11580156109fe573d6000803e3d6000fd5b505050505b600654610a1790600263ffffffff61158916565b333111801590610a2b5750610a2b33610a3e565b15610a3957610a39336115ab565b505050565b6000610a5160018363ffffffff61168c16565b92915050565b610a6033610a3e565b610aa7576040805162461bcd60e51b815260206004820152601360248201527221b0b63632b91034b9903737ba1030b236b4b760691b604482015290519081900360640190fd5b60035460408051631b02709960e01b81526001600160a01b0385811660048301908152602483019384528551604484015285519190941693631b0270999387938793606490910190602085019080838360005b83811015610b12578181015183820152602001610afa565b50505050905090810190601f168015610b3f5780820380516001836020036101000a031916815260200191505b509350505050600060405180830381600087803b158015610b5f57600080fd5b505af1158015610b73573d6000803e3d6000fd5b5050600654610b8c92509050600263ffffffff61158916565b333111801590610ba05750610ba033610a3e565b15610bae57610bae336115ab565b5050565b60006060610bbf33610a3e565b610c06576040805162461bcd60e51b815260206004820152601360248201527221b0b63632b91034b9903737ba1030b236b4b760691b604482015290519081900360640190fd5b846001600160a01b031683856040518082805190602001908083835b60208310610c415780518252601f199092019160209182019101610c22565b6001836020036101000a03801982511681845116808217855250505050505090500191505060006040518083038185875af1925050503d8060008114610ca3576040519150601f19603f3d011682016040523d82523d6000602084013e610ca8565b606091505b508092508193505050846001600160a01b03167f534b52c783549f909f9e743120524d0b7154058e4a54cdc895c2c0b587a1c7e0858585604051808060200184815260200183151515158152602001828103825285818151815260200191508051906020019080838360005b83811015610d2c578181015183820152602001610d14565b50505050905090810190601f168015610d595780820380516001836020036101000a031916815260200191505b5094505050505060405180910390a2600654610d7c90600263ffffffff61158916565b333111801590610d905750610d9033610a3e565b15610d9e57610d9e336115ab565b935093915050565b610daf33610a3e565b610df6576040805162461bcd60e51b815260206004820152601360248201527221b0b63632b91034b9903737ba1030b236b4b760691b604482015290519081900360640190fd5b610dfe6116c1565b6007546008546000908152600a602090815260408083206001600160a01b038616845290915290205410610e635760405162461bcd60e51b81526004018080602001828103825260308152602001806118206030913960400191505060405180910390fd5b600554610e7790600463ffffffff61158916565b816001600160a01b03163110610e8c57610e95565b610e95816115ab565b600654610ea990600263ffffffff61158916565b333111801590610ebd5750610ebd33610a3e565b15610ecb57610ecb336115ab565b50565b610ed66111bc565b610edf57600080fd5b60005b8151811015610f1a57610f12828281518110610efa57fe5b602002602001015160016116e790919063ffffffff16565b600101610ee2565b508060405180828051906020019060200280838360005b83811015610f49578181015183820152602001610f31565b505060405194909201849003842095507fd5e6894641b5030a67e637ab2e12da64d8aec689f8bd1328de2b04d6a439c810945060009392505050a250565b60085481565b6002548210610fd9576040805162461bcd60e51b815260206004820152601360248201527241646d696e206c69737420697320656d70747960681b604482015290519081900360640190fd5b815b60025481108015610feb57508181105b1561105e5760065461100490600263ffffffff61158916565b6002828154811061101157fe5b6000918252602090912001546001600160a01b03163111611056576110566002828154811061103c57fe5b6000918252602090912001546001600160a01b03166115ab565b600101610fdb565b50600654610b8c90600263ffffffff61158916565b61107b6111bc565b61108457600080fd5b600080546040516001600160a01b03909116907f8be0079c531659141344cd1fd0a4f28419497f9722a3daafe3b4186f6b6457e0908390a3600080546001600160a01b0319169055565b6110d733610a3e565b61111e576040805162461bcd60e51b815260206004820152601360248201527221b0b63632b91034b9903737ba1030b236b4b760691b604482015290519081900360640190fd5b6003546040805163291d954960e01b81526001600160a01b0384811660048301529151919092169163291d954991602480830192600092919082900301818387803b15801561116c57600080fd5b505af1158015611180573d6000803e3d6000fd5b5050600654610ea992509050600263ffffffff61158916565b6111a16111bc565b6111aa57600080fd5b33ff5b6000546001600160a01b031690565b6000546001600160a01b0316331490565b6111d56111bc565b6111de57600080fd5b60005b8151811015611264576112118282815181106111f957fe5b6020026020010151600161172f90919063ffffffff16565b600282828151811061121f57fe5b60209081029190910181015182546001808201855560009485529290932090920180546001600160a01b0319166001600160a01b0390931692909217909155016111e1565b508060405180828051906020019060200280838360005b8381101561129357818101518382015260200161127b565b505060405194909201849003842095507f45486b220020cc2482ad1a5e0ae4d5f0b5372cea1b48173f6273c616a5047269945060009392505050a250565b6112da33610a3e565b611321576040805162461bcd60e51b815260206004820152601360248201527221b0b63632b91034b9903737ba1030b236b4b760691b604482015290519081900360640190fd5b6004546001600160a01b03166113685760405162461bcd60e51b81526004018080602001828103825260218152602001806117ff6021913960400191505060405180910390fd5b80156113c7576004805460408051635ebfddeb60e11b81526001600160a01b0386811694820194909452602481018590529051929091169163bd7fbbd69160448082019260009290919082900301818387803b158015610b5f57600080fd5b600654610b8c90600263ffffffff61158916565b60065481565b610e958182603201610f8d565b6113f66111bc565b6113ff57600080fd5b600480546001600160a01b0319166001600160a01b0392909216919091179055565b60055481565b61143033610a3e565b611477576040805162461bcd60e51b815260206004820152601360248201527221b0b63632b91034b9903737ba1030b236b4b760691b604482015290519081900360640190fd5b600354604080516363513b6160e11b81526001600160a01b0384811660048301529151919092169163c6a276c291602480830192600092919082900301818387803b15801561116c57600080fd5b60095481565b6114d36111bc565b6114dc57600080fd5b610ecb8161177b565b60075481565b6114f433610a3e565b61153b576040805162461bcd60e51b815260206004820152601360248201527221b0b63632b91034b9903737ba1030b236b4b760691b604482015290519081900360640190fd5b60035460408051630c477e0b60e11b81526001600160a01b0384811660048301529151919092169163188efc1691602480830192600092919082900301818387803b15801561116c57600080fd5b600080821161159757600080fd5b60008284816115a257fe5b04949350505050565b6008546000908152600a602090815260408083206001600160a01b03851684529091528120805460010190556115e082610a3e565b6115ec576005546115f0565b6006545b9050600061160e826001600160a01b0385163163ffffffff6117e916565b6040519091506001600160a01b0384169082156108fc029083906000818181858888f19350505050158015611647573d6000803e3d6000fd5b506040805182815290516001600160a01b038516917ff60e56b8021f6ac77bd50d4acdbed9ad9e85107144d43090774a9ebe5ffed985919081900360200190a2505050565b60006001600160a01b0382166116a157600080fd5b506001600160a01b03166000908152602091909152604090205460ff1690565b620151806116da600954426117e990919063ffffffff16565b816116e157fe5b04600855565b6001600160a01b0381166116fa57600080fd5b611704828261168c565b61170d57600080fd5b6001600160a01b0316600090815260209190915260409020805460ff19169055565b6001600160a01b03811661174257600080fd5b61174c828261168c565b1561175657600080fd5b6001600160a01b0316600090815260209190915260409020805460ff19166001179055565b6001600160a01b03811661178e57600080fd5b600080546040516001600160a01b03808516939216917f8be0079c531659141344cd1fd0a4f28419497f9722a3daafe3b4186f6b6457e091a3600080546001600160a01b0319166001600160a01b0392909216919091179055565b6000828211156117f857600080fd5b5090039056fe5369676e557020626f6e757320686173206e6f74206265656e2073657420796574557365722077616c6c657420686173206265656e20746f7070656420746f6f206d616e792074696d657320746f646179a265627a7a723158207ac10bf4b08da9e4e2e639b0468ad91e097f630a3598ddd5532390ec324e8bb664736f6c63430005100032",
  "source": "pragma solidity >0.5.4;\n\nimport \"openzeppelin-solidity/contracts/access/Roles.sol\";\nimport \"openzeppelin-solidity/contracts/ownership/Ownable.sol\";\nimport \"openzeppelin-solidity/contracts/math/SafeMath.sol\";\n\nimport \"../identity/Identity.sol\";\nimport \"../dao/schemes/SignUpBonus.sol\";\n\n/* @title Admin wallet contract allowing whitelisting and topping up of\n * addresses\n */\ncontract FuseFaucet is Ownable {\n    using Roles for Roles.Role;\n    using SafeMath for uint256;\n\n    Roles.Role private admins;\n\n    address payable[] adminlist;\n\n    Identity identity;\n\n    SignUpBonus bonus = SignUpBonus(0);\n\n    uint256 public toppingAmount;\n    uint256 public adminToppingAmount;\n\n    uint256 public toppingTimes;\n    uint256 public currentDay;\n    uint256 public periodStart;\n\n    mapping(uint256 => mapping(address => uint256)) toppings;\n\n    event AdminsAdded(address payable[] indexed admins);\n    event AdminsRemoved(address[] indexed admins);\n    event WalletTopped(address indexed user, uint256 amount);\n    event GenericCall(\n        address indexed _contract,\n        bytes _data,\n        uint256 _value,\n        bool _success\n    );\n\n    constructor(\n        address payable[] memory _admins,\n        uint256 _toppingAmount,\n        uint256 _toppingTimes,\n        Identity _identity\n    ) public {\n        identity = _identity;\n\n        toppingAmount = _toppingAmount;\n        adminToppingAmount = 1e9 * 9e6; //1gwei gas price * 9000000 gas limit\n        toppingTimes = _toppingTimes;\n        periodStart = now;\n\n        if (_admins.length > 0) {\n            addAdmins(_admins);\n        }\n    }\n\n    /* @dev Modifier that checks if caller is admin of wallet\n     */\n    modifier onlyAdmin() {\n        require(isAdmin(msg.sender), \"Caller is not admin\");\n        _;\n    }\n\n    modifier reimburseGas() {\n        _;\n        if (msg.sender.balance <= adminToppingAmount.div(2) && isAdmin(msg.sender)) {\n            _topWallet(msg.sender);\n        }\n    }\n\n    function() external payable {}\n\n    /* @dev Internal function that sets current day\n     */\n    function setDay() internal {\n        currentDay = (now.sub(periodStart)) / 1 days;\n    }\n\n    function setBonusContract(SignUpBonus _bonus) public onlyOwner {\n        bonus = _bonus;\n    }\n\n    /* @dev Function to add list of addresses to admins\n     * can only be called by creator of contract\n     * @param _admins the list of addresses to add\n     */\n    function addAdmins(address payable[] memory _admins) public onlyOwner {\n        for (uint256 i = 0; i < _admins.length; i++) {\n            admins.add(_admins[i]);\n\n            adminlist.push(_admins[i]);\n        }\n        emit AdminsAdded(_admins);\n    }\n\n    /* @dev Function to remove list of addresses to admins\n     * can only be called by creator of contract\n     * @param _admins the list of addresses to remove\n     */\n    function removeAdmins(address[] memory _admins) public onlyOwner {\n        for (uint256 i = 0; i < _admins.length; i++) {\n            admins.remove(_admins[i]);\n        }\n        emit AdminsRemoved(_admins);\n    }\n\n    /**\n     * @dev top admins\n     */\n    function topAdmins(uint256 startIndex, uint256 endIndex) public reimburseGas {\n        require(adminlist.length > startIndex, \"Admin list is empty\");\n        for (uint256 i = startIndex; (i < adminlist.length && i < endIndex); i++) {\n            if (adminlist[i].balance <= adminToppingAmount.div(2)) {\n                _topWallet(adminlist[i]);\n            }\n        }\n    }\n\n    /* @dev top the first 50 admins\n     */\n    function topAdmins(uint256 startIndex) public reimburseGas {\n        topAdmins(startIndex, startIndex + 50);\n    }\n\n    /**\n     * @dev Function to check if given address is an admin\n     * @param _user the address to check\n     * @return A bool indicating if user is an admin\n     */\n    function isAdmin(address _user) public view returns (bool) {\n        return admins.has(_user);\n    }\n\n    /* @dev Function to add given address to whitelist of identity contract\n     * can only be done by admins of wallet and if wallet is an IdentityAdmin\n     */\n    function whitelist(address _user, string memory _did) public onlyAdmin reimburseGas {\n        identity.addWhitelistedWithDID(_user, _did);\n    }\n\n    /* @dev Function to remove given address from whitelist of identity contract\n     * can only be done by admins of wallet and if wallet is an IdentityAdmin\n     */\n    function removeWhitelist(address _user) public onlyAdmin reimburseGas {\n        identity.removeWhitelisted(_user);\n    }\n\n    /* @dev Function to add given address to blacklist of identity contract\n     * can only be done by admins of wallet and if wallet is an IdentityAdmin\n     */\n    function blacklist(address _user) public onlyAdmin reimburseGas {\n        identity.addBlacklisted(_user);\n    }\n\n    /* @dev Function to remove given address from blacklist of identity contract\n     * can only be done by admins of wallet and if wallet is an IdentityAdmin\n     */\n    function removeBlacklist(address _user) public onlyAdmin reimburseGas {\n        identity.removeBlacklisted(_user);\n    }\n\n    /* @dev Function to top given address with amount of G$ given in constructor\n     * can only be done by admin the amount of times specified in constructor per day\n     * @param _user The address to transfer to\n     */\n    function topWallet(address payable _user) public onlyAdmin reimburseGas {\n        setDay();\n        require(\n            toppings[currentDay][_user] < toppingTimes,\n            \"User wallet has been topped too many times today\"\n        );\n        if (address(_user).balance >= toppingAmount.div(4)) return;\n\n        _topWallet(_user);\n    }\n\n    function _topWallet(address payable _wallet) internal {\n        toppings[currentDay][_wallet] += 1;\n        uint256 amount = isAdmin(_wallet) ? adminToppingAmount : toppingAmount;\n        uint256 toTop = amount.sub(address(_wallet).balance);\n        _wallet.transfer(toTop);\n        emit WalletTopped(_wallet, toTop);\n    }\n\n    /* @dev Function to whitelist user and also award him pending bonuses, it can be used also later\n     * when user is already whitelisted to just award pending bonuses\n     * can only be done by admin\n     * @param _user The address to transfer to and whitelist\n     * @param _amount the bonus amount to give\n     * @param _did decentralized id of user, pointer to some profile\n     */\n    function whitelistAndAwardUser(\n        address _user,\n        uint256 _amount,\n        string memory _did\n    ) public onlyAdmin reimburseGas {\n        require(bonus != SignUpBonus(0), \"SignUp bonus has not been set yet\");\n\n        if (identity.isWhitelisted(_user) == false) {\n            whitelist(_user, _did);\n        }\n\n        if (_amount > 0) {\n            bonus.awardUser(_user, _amount);\n        }\n    }\n\n    /**\n     * @dev Function to award user with pending bonuses,\n     * can only be done by admin\n     * @param _user The address to transfer to and whitelist\n     * @param _amount the bonus amount to give\n     */\n    function awardUser(address _user, uint256 _amount) public onlyAdmin reimburseGas {\n        require(bonus != SignUpBonus(0), \"SignUp bonus has not been set yet\");\n        if (_amount > 0) {\n            bonus.awardUser(_user, _amount);\n        }\n    }\n\n    /**\n     * @dev perform a generic call to an arbitrary contract\n     * @param _contract  the contract's address to call\n     * @param _data ABI-encoded contract call to call `_contract` address.\n     * @param _value value (ETH) to transfer with the transaction\n     * @return bool    success or fail\n     *         bytes - the return bytes of the called contract's function.\n     */\n    function genericCall(\n        address _contract,\n        bytes memory _data,\n        uint256 _value\n    ) public onlyAdmin reimburseGas returns (bool success, bytes memory returnValue) {\n        // solhint-disable-next-line avoid-call-value\n        (success, returnValue) = _contract.call.value(_value)(_data);\n        emit GenericCall(_contract, _data, _value, success);\n    }\n\n    /**\n     * @dev destroy wallet and return funds to owner\n     */\n    function destroy() public onlyOwner {\n        selfdestruct(msg.sender);\n    }\n}\n",
  "sourcePath": "/Users/hadar/workspace/GoodDollar/GoodBootstrap/packages/contracts/contracts/fuseFaucet/FuseFaucet.sol",
  "compiler": {
    "name": "solc",
    "version": "0.5.16+commit.9c3226ce.Emscripten.clang"
  },
  "schemaVersion": "3.2.3",
  "updatedAt": "2021-01-10T16:57:18.607Z",
  "devdoc": {
    "methods": {
      "awardUser(address,uint256)": {
        "details": "Function to award user with pending bonuses, can only be done by admin",
        "params": {
          "_amount": "the bonus amount to give",
          "_user": "The address to transfer to and whitelist"
        }
      },
      "destroy()": {
        "details": "destroy wallet and return funds to owner"
      },
      "genericCall(address,bytes,uint256)": {
        "details": "perform a generic call to an arbitrary contract",
        "params": {
          "_contract": "the contract's address to call",
          "_data": "ABI-encoded contract call to call `_contract` address.",
          "_value": "value (ETH) to transfer with the transaction"
        },
        "return": "bool    success or fail        bytes - the return bytes of the called contract's function."
      },
      "isAdmin(address)": {
        "details": "Function to check if given address is an admin",
        "params": {
          "_user": "the address to check"
        },
        "return": "A bool indicating if user is an admin"
      },
      "isOwner()": {
        "return": "true if `msg.sender` is the owner of the contract."
      },
      "owner()": {
        "return": "the address of the owner."
      },
      "renounceOwnership()": {
        "details": "Allows the current owner to relinquish control of the contract."
      },
      "topAdmins(uint256,uint256)": {
        "details": "top admins"
      },
      "transferOwnership(address)": {
        "details": "Allows the current owner to transfer control of the contract to a newOwner.",
        "params": {
          "newOwner": "The address to transfer ownership to."
        }
      }
    }
  },
  "userdoc": {
    "methods": {
      "renounceOwnership()": {
        "notice": "Renouncing to ownership will leave the contract without an owner. It will not be possible to call the functions with the `onlyOwner` modifier anymore."
      }
    }
  }
}