{
  "contractName": "GoodDollar",
  "abi": [
    {
      "constant": true,
      "inputs": [],
      "name": "name",
      "outputs": [
        {
          "name": "",
          "type": "string"
        }
      ],
      "payable": false,
      "stateMutability": "view",
      "type": "function"
    },
    {
      "constant": false,
      "inputs": [
        {
          "name": "_bridgeContract",
          "type": "address"
        }
      ],
      "name": "setBridgeContract",
      "outputs": [],
      "payable": false,
      "stateMutability": "nonpayable",
      "type": "function"
    },
    {
      "constant": true,
      "inputs": [],
      "name": "totalSupply",
      "outputs": [
        {
          "name": "",
          "type": "uint256"
        }
      ],
      "payable": false,
      "stateMutability": "view",
      "type": "function"
    },
    {
      "constant": true,
      "inputs": [],
      "name": "identity",
      "outputs": [
        {
          "name": "",
          "type": "address"
        }
      ],
      "payable": false,
      "stateMutability": "view",
      "type": "function"
    },
    {
      "constant": true,
      "inputs": [],
      "name": "decimals",
      "outputs": [
        {
          "name": "",
          "type": "uint256"
        }
      ],
      "payable": false,
      "stateMutability": "view",
      "type": "function"
    },
    {
      "constant": true,
      "inputs": [],
      "name": "cap",
      "outputs": [
        {
          "name": "",
          "type": "uint256"
        }
      ],
      "payable": false,
      "stateMutability": "view",
      "type": "function"
    },
    {
      "constant": false,
      "inputs": [],
      "name": "unpause",
      "outputs": [],
      "payable": false,
      "stateMutability": "nonpayable",
      "type": "function"
    },
    {
      "constant": true,
      "inputs": [
        {
          "name": "account",
          "type": "address"
        }
      ],
      "name": "isPauser",
      "outputs": [
        {
          "name": "",
          "type": "bool"
        }
      ],
      "payable": false,
      "stateMutability": "view",
      "type": "function"
    },
    {
      "constant": true,
      "inputs": [],
      "name": "formula",
      "outputs": [
        {
          "name": "",
          "type": "address"
        }
      ],
      "payable": false,
      "stateMutability": "view",
      "type": "function"
    },
    {
      "constant": true,
      "inputs": [],
      "name": "paused",
      "outputs": [
        {
          "name": "",
          "type": "bool"
        }
      ],
      "payable": false,
      "stateMutability": "view",
      "type": "function"
    },
    {
      "constant": false,
      "inputs": [
        {
          "name": "_identity",
          "type": "address"
        }
      ],
      "name": "setIdentity",
      "outputs": [],
      "payable": false,
      "stateMutability": "nonpayable",
      "type": "function"
    },
    {
      "constant": false,
      "inputs": [],
      "name": "renouncePauser",
      "outputs": [],
      "payable": false,
      "stateMutability": "nonpayable",
      "type": "function"
    },
    {
      "constant": true,
      "inputs": [
        {
          "name": "owner",
          "type": "address"
        }
      ],
      "name": "balanceOf",
      "outputs": [
        {
          "name": "",
          "type": "uint256"
        }
      ],
      "payable": false,
      "stateMutability": "view",
      "type": "function"
    },
    {
      "constant": false,
      "inputs": [],
      "name": "renounceOwnership",
      "outputs": [],
      "payable": false,
      "stateMutability": "nonpayable",
      "type": "function"
    },
    {
      "constant": false,
      "inputs": [
        {
          "name": "account",
          "type": "address"
        }
      ],
      "name": "addPauser",
      "outputs": [],
      "payable": false,
      "stateMutability": "nonpayable",
      "type": "function"
    },
    {
      "constant": false,
      "inputs": [],
      "name": "pause",
      "outputs": [],
      "payable": false,
      "stateMutability": "nonpayable",
      "type": "function"
    },
    {
      "constant": true,
      "inputs": [],
      "name": "owner",
      "outputs": [
        {
          "name": "",
          "type": "address"
        }
      ],
      "payable": false,
      "stateMutability": "view",
      "type": "function"
    },
    {
      "constant": true,
      "inputs": [],
      "name": "isOwner",
      "outputs": [
        {
          "name": "",
          "type": "bool"
        }
      ],
      "payable": false,
      "stateMutability": "view",
      "type": "function"
    },
    {
      "constant": true,
      "inputs": [],
      "name": "symbol",
      "outputs": [
        {
          "name": "",
          "type": "string"
        }
      ],
      "payable": false,
      "stateMutability": "view",
      "type": "function"
    },
    {
      "constant": false,
      "inputs": [
        {
          "name": "account",
          "type": "address"
        }
      ],
      "name": "addMinter",
      "outputs": [],
      "payable": false,
      "stateMutability": "nonpayable",
      "type": "function"
    },
    {
      "constant": false,
      "inputs": [],
      "name": "renounceMinter",
      "outputs": [],
      "payable": false,
      "stateMutability": "nonpayable",
      "type": "function"
    },
    {
      "constant": true,
      "inputs": [
        {
          "name": "account",
          "type": "address"
        }
      ],
      "name": "isMinter",
      "outputs": [
        {
          "name": "",
          "type": "bool"
        }
      ],
      "payable": false,
      "stateMutability": "view",
      "type": "function"
    },
    {
      "constant": true,
      "inputs": [],
      "name": "bridgeContract",
      "outputs": [
        {
          "name": "",
          "type": "address"
        }
      ],
      "payable": false,
      "stateMutability": "view",
      "type": "function"
    },
    {
      "constant": true,
      "inputs": [
        {
          "name": "owner",
          "type": "address"
        },
        {
          "name": "spender",
          "type": "address"
        }
      ],
      "name": "allowance",
      "outputs": [
        {
          "name": "",
          "type": "uint256"
        }
      ],
      "payable": false,
      "stateMutability": "view",
      "type": "function"
    },
    {
      "constant": false,
      "inputs": [
        {
          "name": "_formula",
          "type": "address"
        }
      ],
      "name": "setFormula",
      "outputs": [],
      "payable": false,
      "stateMutability": "nonpayable",
      "type": "function"
    },
    {
      "constant": false,
      "inputs": [
        {
          "name": "newOwner",
          "type": "address"
        }
      ],
      "name": "transferOwnership",
      "outputs": [],
      "payable": false,
      "stateMutability": "nonpayable",
      "type": "function"
    },
    {
      "inputs": [
        {
          "name": "_name",
          "type": "string"
        },
        {
          "name": "_symbol",
          "type": "string"
        },
        {
          "name": "_cap",
          "type": "uint256"
        },
        {
          "name": "_formula",
          "type": "address"
        },
        {
          "name": "_identity",
          "type": "address"
        },
        {
          "name": "_feeRecipient",
          "type": "address"
        }
      ],
      "payable": false,
      "stateMutability": "nonpayable",
      "type": "constructor"
    },
    {
      "anonymous": false,
      "inputs": [
        {
          "indexed": true,
          "name": "account",
          "type": "address"
        }
      ],
      "name": "MinterAdded",
      "type": "event"
    },
    {
      "anonymous": false,
      "inputs": [
        {
          "indexed": true,
          "name": "account",
          "type": "address"
        }
      ],
      "name": "MinterRemoved",
      "type": "event"
    },
    {
      "anonymous": false,
      "inputs": [
        {
          "indexed": false,
          "name": "account",
          "type": "address"
        }
      ],
      "name": "Paused",
      "type": "event"
    },
    {
      "anonymous": false,
      "inputs": [
        {
          "indexed": false,
          "name": "account",
          "type": "address"
        }
      ],
      "name": "Unpaused",
      "type": "event"
    },
    {
      "anonymous": false,
      "inputs": [
        {
          "indexed": true,
          "name": "account",
          "type": "address"
        }
      ],
      "name": "PauserAdded",
      "type": "event"
    },
    {
      "anonymous": false,
      "inputs": [
        {
          "indexed": true,
          "name": "account",
          "type": "address"
        }
      ],
      "name": "PauserRemoved",
      "type": "event"
    },
    {
      "anonymous": false,
      "inputs": [
        {
          "indexed": true,
          "name": "previousOwner",
          "type": "address"
        },
        {
          "indexed": true,
          "name": "newOwner",
          "type": "address"
        }
      ],
      "name": "OwnershipTransferred",
      "type": "event"
    },
    {
      "anonymous": false,
      "inputs": [
        {
          "indexed": true,
          "name": "from",
          "type": "address"
        },
        {
          "indexed": true,
          "name": "to",
          "type": "address"
        },
        {
          "indexed": false,
          "name": "value",
          "type": "uint256"
        }
      ],
      "name": "Transfer",
      "type": "event"
    },
    {
      "anonymous": false,
      "inputs": [
        {
          "indexed": true,
          "name": "owner",
          "type": "address"
        },
        {
          "indexed": true,
          "name": "spender",
          "type": "address"
        },
        {
          "indexed": false,
          "name": "value",
          "type": "uint256"
        }
      ],
      "name": "Approval",
      "type": "event"
    },
    {
      "anonymous": false,
      "inputs": [
        {
          "indexed": true,
          "name": "from",
          "type": "address"
        },
        {
          "indexed": true,
          "name": "to",
          "type": "address"
        },
        {
          "indexed": false,
          "name": "value",
          "type": "uint256"
        },
        {
          "indexed": false,
          "name": "data",
          "type": "bytes"
        }
      ],
      "name": "Transfer",
      "type": "event"
    },
    {
      "constant": false,
      "inputs": [
        {
          "name": "to",
          "type": "address"
        },
        {
          "name": "value",
          "type": "uint256"
        }
      ],
      "name": "transfer",
      "outputs": [
        {
          "name": "",
          "type": "bool"
        }
      ],
      "payable": false,
      "stateMutability": "nonpayable",
      "type": "function"
    },
    {
      "constant": false,
      "inputs": [
        {
          "name": "spender",
          "type": "address"
        },
        {
          "name": "value",
          "type": "uint256"
        }
      ],
      "name": "approve",
      "outputs": [
        {
          "name": "",
          "type": "bool"
        }
      ],
      "payable": false,
      "stateMutability": "nonpayable",
      "type": "function"
    },
    {
      "constant": false,
      "inputs": [
        {
          "name": "from",
          "type": "address"
        },
        {
          "name": "to",
          "type": "address"
        },
        {
          "name": "value",
          "type": "uint256"
        }
      ],
      "name": "transferFrom",
      "outputs": [
        {
          "name": "",
          "type": "bool"
        }
      ],
      "payable": false,
      "stateMutability": "nonpayable",
      "type": "function"
    },
    {
      "constant": false,
      "inputs": [
        {
          "name": "to",
          "type": "address"
        },
        {
          "name": "value",
          "type": "uint256"
        },
        {
          "name": "data",
          "type": "bytes"
        }
      ],
      "name": "transferAndCall",
      "outputs": [
        {
          "name": "",
          "type": "bool"
        }
      ],
      "payable": false,
      "stateMutability": "nonpayable",
      "type": "function"
    },
    {
      "constant": false,
      "inputs": [
        {
          "name": "to",
          "type": "address"
        },
        {
          "name": "value",
          "type": "uint256"
        }
      ],
      "name": "mint",
      "outputs": [
        {
          "name": "",
          "type": "bool"
        }
      ],
      "payable": false,
      "stateMutability": "nonpayable",
      "type": "function"
    },
    {
      "constant": false,
      "inputs": [
        {
          "name": "value",
          "type": "uint256"
        }
      ],
      "name": "burn",
      "outputs": [],
      "payable": false,
      "stateMutability": "nonpayable",
      "type": "function"
    },
    {
      "constant": false,
      "inputs": [
        {
          "name": "from",
          "type": "address"
        },
        {
          "name": "value",
          "type": "uint256"
        }
      ],
      "name": "burnFrom",
      "outputs": [],
      "payable": false,
      "stateMutability": "nonpayable",
      "type": "function"
    },
    {
      "constant": false,
      "inputs": [
        {
          "name": "spender",
          "type": "address"
        },
        {
          "name": "addedValue",
          "type": "uint256"
        }
      ],
      "name": "increaseAllowance",
      "outputs": [
        {
          "name": "",
          "type": "bool"
        }
      ],
      "payable": false,
      "stateMutability": "nonpayable",
      "type": "function"
    },
    {
      "constant": false,
      "inputs": [
        {
          "name": "spender",
          "type": "address"
        },
        {
          "name": "subtractedValue",
          "type": "uint256"
        }
      ],
      "name": "decreaseAllowance",
      "outputs": [
        {
          "name": "",
          "type": "bool"
        }
      ],
      "payable": false,
      "stateMutability": "nonpayable",
      "type": "function"
    },
    {
      "constant": true,
      "inputs": [
        {
          "name": "value",
          "type": "uint256"
        },
        {
          "name": "sender",
          "type": "address"
        },
        {
          "name": "recipient",
          "type": "address"
        }
      ],
      "name": "getFees",
      "outputs": [
        {
          "name": "",
          "type": "uint256"
        },
        {
          "name": "",
          "type": "bool"
        }
      ],
      "payable": false,
      "stateMutability": "view",
      "type": "function"
    },
    {
      "constant": true,
      "inputs": [
        {
          "name": "value",
          "type": "uint256"
        }
      ],
      "name": "getFees",
      "outputs": [
        {
          "name": "",
          "type": "uint256"
        },
        {
          "name": "",
          "type": "bool"
        }
      ],
      "payable": false,
      "stateMutability": "view",
      "type": "function"
    },
    {
      "constant": false,
      "inputs": [
        {
          "name": "_feeRecipient",
          "type": "address"
        }
      ],
      "name": "setFeeRecipient",
      "outputs": [],
      "payable": false,
      "stateMutability": "nonpayable",
      "type": "function"
    }
  ],
  "bytecode": "0x60806040523480156200001157600080fd5b506040516200256238038062002562833981018060405260c08110156200003757600080fd5b8101908080516401000000008111156200005057600080fd5b820160208101848111156200006457600080fd5b81516401000000008111828201871017156200007f57600080fd5b505092919060200180516401000000008111156200009c57600080fd5b82016020810184811115620000b057600080fd5b8151640100000000811182820187101715620000cb57600080fd5b50506020820151604080840151606085015160809095015160038054600160a060020a0319163317908190559251949750929550939284918491899189918991849184918491849184918491600160a060020a0316906000907f8be0079c531659141344cd1fd0a4f28419497f9722a3daafe3b4186f6b6457e0908290a382516200015e90600490602086019062000429565b5081516200017490600590602085019062000429565b50600655506200018f905033640100000000620002f2810204565b50506008805460ff1916905550620001b03364010000000062000344810204565b505050600160a060020a03811615156200022b57604080517f08c379a000000000000000000000000000000000000000000000000000000000815260206004820152601960248201527f537570706c696564206964656e74697479206973206e756c6c00000000000000604482015290519081900360640190fd5b600b8054600160a060020a031916600160a060020a0392831617905581161515620002b757604080517f08c379a000000000000000000000000000000000000000000000000000000000815260206004820152601860248201527f537570706c69656420666f726d756c61206973206e756c6c0000000000000000604482015290519081900360640190fd5b600c8054600160a060020a03928316600160a060020a031991821617909155600d805493909216921691909117905550620004ce9350505050565b6200030d60078264010000000062001e9b6200039682021704565b604051600160a060020a038216907f6719d08c1888103bea251a4ed56406bd0c3e69723c8a1686e017e7bbe159b6f890600090a250565b6200035f60098264010000000062001e9b6200039682021704565b604051600160a060020a038216907f6ae172837ea30b801fbfcdd4108aa1d5bf8ff775444fd70256b44e6bf3dfc3f690600090a250565b600160a060020a0381161515620003ac57600080fd5b620003c18282640100000000620003f1810204565b15620003cc57600080fd5b600160a060020a0316600090815260209190915260409020805460ff19166001179055565b6000600160a060020a03821615156200040957600080fd5b50600160a060020a03166000908152602091909152604090205460ff1690565b828054600181600116156101000203166002900490600052602060002090601f016020900481019282601f106200046c57805160ff19168380011785556200049c565b828001600101855582156200049c579182015b828111156200049c5782518255916020019190600101906200047f565b50620004aa929150620004ae565b5090565b620004cb91905b80821115620004aa5760008155600101620004b5565b90565b61208480620004de6000396000f3fe608060405234801561001057600080fd5b50600436106102365760003560e060020a9004806370a082311161013457806398650275116100bc578063d5a06d4c11610080578063d5a06d4c146106ab578063dd62ed3e146106c8578063e74b981b146106f6578063ecc06c761461071c578063f2fde38b1461074257610236565b8063986502751461061d578063a457c2d714610625578063a9059cbb14610651578063aa271e1a1461067d578063cd596583146106a357610236565b80638456cb59116101035780638456cb59146105d75780638da5cb5b146105df5780638f32d59b146105e757806395d89b41146105ef578063983b2d56146105f757610236565b806370a0823114610557578063715018a61461057d57806379cc67901461058557806382dc1ec4146105b157610236565b806339509351116101c257806346fbf68e1161018657806346fbf68e146104f35780634b75f54f146105195780635c975abb146105215780635d5bf178146105295780636ef8d66d1461054f57610236565b806339509351146103f15780633f4ba83a1461041d5780634000aea01461042557806340c10f19146104aa57806342966c68146104d657610236565b806323b872dd1161020957806323b872dd1461033a5780632c159a1a14610370578063313ce56714610394578063355274ea1461039c57806339364fd7146103a457610236565b806306fdde031461023b578063095ea7b3146102b85780630b26cf66146102f857806318160ddd14610320575b600080fd5b610243610768565b6040805160208082528351818301528351919283929083019185019080838360005b8381101561027d578181015183820152602001610265565b50505050905090810190601f1680156102aa5780820380516001836020036101000a031916815260200191505b509250505060405180910390f35b6102e4600480360360408110156102ce57600080fd5b50600160a060020a0381351690602001356107f6565b604080519115158252519081900360200190f35b61031e6004803603602081101561030e57600080fd5b5035600160a060020a0316610809565b005b6103286108be565b60408051918252519081900360200190f35b6102e46004803603606081101561035057600080fd5b50600160a060020a038135811691602081013590911690604001356108c4565b6103786108e8565b60408051600160a060020a039092168252519081900360200190f35b6103286108f7565b6103286108fc565b6103d8600480360360608110156103ba57600080fd5b50803590600160a060020a0360208201358116916040013516610902565b6040805192835290151560208301528051918290030190f35b6102e46004803603604081101561040757600080fd5b50600160a060020a0381351690602001356109b6565b61031e6109c2565b6102e46004803603606081101561043b57600080fd5b600160a060020a038235169160208101359181019060608101604082013564010000000081111561046b57600080fd5b82018360208201111561047d57600080fd5b8035906020019184600183028401116401000000008311171561049f57600080fd5b509092509050610a26565b6102e4600480360360408110156104c057600080fd5b50600160a060020a038135169060200135610a81565b61031e600480360360208110156104ec57600080fd5b5035610be5565b6102e46004803603602081101561050957600080fd5b5035600160a060020a0316610cc0565b610378610cd9565b6102e4610ce8565b61031e6004803603602081101561053f57600080fd5b5035600160a060020a0316610cf1565b61031e610df1565b6103286004803603602081101561056d57600080fd5b5035600160a060020a0316610dfc565b61031e610e17565b61031e6004803603604081101561059b57600080fd5b50600160a060020a038135169060200135610e81565b61031e600480360360208110156105c757600080fd5b5035600160a060020a0316611033565b61031e611050565b6103786110b6565b6102e46110c5565b6102436110d6565b61031e6004803603602081101561060d57600080fd5b5035600160a060020a0316611131565b61031e61114e565b6102e46004803603604081101561063b57600080fd5b50600160a060020a038135169060200135611157565b6102e46004803603604081101561066757600080fd5b50600160a060020a038135169060200135611163565b6102e46004803603602081101561069357600080fd5b5035600160a060020a0316611185565b610378611198565b6103d8600480360360208110156106c157600080fd5b50356111a7565b610328600480360360408110156106de57600080fd5b50600160a060020a0381358116916020013516611258565b61031e6004803603602081101561070c57600080fd5b5035600160a060020a0316611283565b61031e6004803603602081101561073257600080fd5b5035600160a060020a03166112c5565b61031e6004803603602081101561075857600080fd5b5035600160a060020a031661136f565b6004805460408051602060026001851615610100026000190190941693909304601f810184900484028201840190925281815292918301828280156107ee5780601f106107c3576101008083540402835291602001916107ee565b820191906000526020600020905b8154815290600101906020018083116107d157829003601f168201915b505050505081565b6000610802838361138b565b9392505050565b61081233611185565b151561081d57600080fd5b600160a060020a038116158015906108395750610839816113a8565b151561088f576040805160e560020a62461bcd02815260206004820152601760248201527f496e76616c69642062726964676520636f6e7472616374000000000000000000604482015290519081900360640190fd5b600a805473ffffffffffffffffffffffffffffffffffffffff1916600160a060020a0392909216919091179055565b60025490565b6000806108d28585856113b0565b90506108df858583611556565b95945050505050565b600b54600160a060020a031681565b600281565b60065481565b600c54604080517f3ddaa80600000000000000000000000000000000000000000000000000000000815260048101869052600160a060020a038581166024830152848116604483015282516000948594921692633ddaa806926064808301939192829003018186803b15801561097757600080fd5b505afa15801561098b573d6000803e3d6000fd5b505050506040513d60408110156109a157600080fd5b50805160209091015190969095509350505050565b60006108028383611574565b6109cb33610cc0565b15156109d657600080fd5b60085460ff1615156109e757600080fd5b6008805460ff191690556040805133815290517f5db9ee0a495bf2e6ff9c91a7834c1ba4fdd244a5e8aa4e537bd38aeae4b073aa9181900360200190a1565b600080610a343387876113b0565b9050610a77868286868080601f01602080910402602001604051908101604052809392919081815260200183838082843760009201919091525061159192505050565b9695505050505050565b6000610a8c33611185565b1515610a9757600080fd5b600b546040805160e060020a63fe575a87028152600160a060020a03808716600483015291518693929092169163fe575a8791602480820192602092909190829003018186803b158015610aea57600080fd5b505afa158015610afe573d6000803e3d6000fd5b505050506040513d6020811015610b1457600080fd5b505115610b6b576040805160e560020a62461bcd02815260206004820152601760248201527f526563656976657220697320626c61636b6c6973746564000000000000000000604482015290519081900360640190fd5b60006006541115610bd157600654610b9184610b856108be565b9063ffffffff6116d616565b1115610bd15760405160e560020a62461bcd0281526004018080602001828103825260218152602001806120186021913960400191505060405180910390fd5b610bdb84846116e8565b5060019392505050565b600b546040805160e060020a63fe575a870281523360048201529051600160a060020a039092169163fe575a8791602480820192602092909190829003018186803b158015610c3357600080fd5b505afa158015610c47573d6000803e3d6000fd5b505050506040513d6020811015610c5d57600080fd5b505115610cb4576040805160e560020a62461bcd02815260206004820152601560248201527f43616c6c657220697320626c61636b6c69737465640000000000000000000000604482015290519081900360640190fd5b610cbd81611792565b50565b6000610cd360078363ffffffff61179c16565b92915050565b600c54600160a060020a031681565b60085460ff1690565b610cf96110c5565b1515610d0457600080fd5b80600160a060020a031663223668446040518163ffffffff1660e060020a02815260040160206040518083038186803b158015610d4057600080fd5b505afa158015610d54573d6000803e3d6000fd5b505050506040513d6020811015610d6a57600080fd5b50511515610dc2576040805160e560020a62461bcd02815260206004820152601a60248201527f4964656e74697479206973206e6f742072656769737465726564000000000000604482015290519081900360640190fd5b600b805473ffffffffffffffffffffffffffffffffffffffff1916600160a060020a0392909216919091179055565b610dfa336117d3565b565b600160a060020a031660009081526020819052604090205490565b610e1f6110c5565b1515610e2a57600080fd5b600354604051600091600160a060020a0316907f8be0079c531659141344cd1fd0a4f28419497f9722a3daafe3b4186f6b6457e0908390a36003805473ffffffffffffffffffffffffffffffffffffffff19169055565b600b546040805160e060020a63fe575a870281523360048201529051600160a060020a039092169163fe575a8791602480820192602092909190829003018186803b158015610ecf57600080fd5b505afa158015610ee3573d6000803e3d6000fd5b505050506040513d6020811015610ef957600080fd5b505115610f50576040805160e560020a62461bcd02815260206004820152601560248201527f43616c6c657220697320626c61636b6c69737465640000000000000000000000604482015290519081900360640190fd5b600b546040805160e060020a63fe575a87028152600160a060020a03808616600483015291518593929092169163fe575a8791602480820192602092909190829003018186803b158015610fa357600080fd5b505afa158015610fb7573d6000803e3d6000fd5b505050506040513d6020811015610fcd57600080fd5b505115611024576040805160e560020a62461bcd02815260206004820152601760248201527f526563656976657220697320626c61636b6c6973746564000000000000000000604482015290519081900360640190fd5b61102e838361181b565b505050565b61103c33610cc0565b151561104757600080fd5b610cbd81611829565b61105933610cc0565b151561106457600080fd5b60085460ff161561107457600080fd5b6008805460ff191660011790556040805133815290517f62e78cea01bee320cd4e420270b5ea74000d11b0c9f74754ebdbfc544b05a2589181900360200190a1565b600354600160a060020a031690565b600354600160a060020a0316331490565b6005805460408051602060026001851615610100026000190190941693909304601f810184900484028201840190925281815292918301828280156107ee5780601f106107c3576101008083540402835291602001916107ee565b61113a33611185565b151561114557600080fd5b610cbd81611871565b610dfa336118b9565b60006108028383611901565b6000806111713385856113b0565b905061117d848261191e565b949350505050565b6000610cd360098363ffffffff61179c16565b600a54600160a060020a031681565b600c54604080517f3ddaa8060000000000000000000000000000000000000000000000000000000081526004810184905260006024820181905260448201819052825190938493600160a060020a0390911692633ddaa8069260648083019392829003018186803b15801561121b57600080fd5b505afa15801561122f573d6000803e3d6000fd5b505050506040513d604081101561124557600080fd5b5080516020909101519092509050915091565b600160a060020a03918216600090815260016020908152604080832093909416825291909152205490565b61128b6110c5565b151561129657600080fd5b600d805473ffffffffffffffffffffffffffffffffffffffff1916600160a060020a0392909216919091179055565b6112cd6110c5565b15156112d857600080fd5b80600160a060020a031663223668446040518163ffffffff1660e060020a02815260040160206040518083038186803b15801561131457600080fd5b505afa158015611328573d6000803e3d6000fd5b505050506040513d602081101561133e57600080fd5b5050600c805473ffffffffffffffffffffffffffffffffffffffff1916600160a060020a0392909216919091179055565b6113776110c5565b151561138257600080fd5b610cbd8161193b565b60085460009060ff161561139e57600080fd5b61080283836119b9565b6000903b1190565b60008060006113c0848787610902565b915091506000821180156114615750600b54604080517fc73cc4ae0000000000000000000000000000000000000000000000000000000081523360048201529051600160a060020a039092169163c73cc4ae91602480820192602092909190829003018186803b15801561143357600080fd5b505afa158015611447573d6000803e3d6000fd5b505050506040513d602081101561145d57600080fd5b5051155b1561154c5780158061148a575061147786610dfc565b611487858463ffffffff6116d616565b11155b15156114e0576040805160e560020a62461bcd02815260206004820181905260248201527f4e6f7420656e6f7567682062616c616e636520746f2070617920545820666565604482015290519081900360640190fd5b600160a060020a03861633141561150d57600d5461150790600160a060020a03168361191e565b50611527565b600d54611525908790600160a060020a031684611556565b505b806115415761153c848363ffffffff611a2516565b611543565b835b92505050610802565b5091949350505050565b60085460009060ff161561156957600080fd5b61117d848484611a3a565b60085460009060ff161561158757600080fd5b6108028383611af1565b60085460009060ff16156115a457600080fd5b60006115b0858561191e565b905084600160a060020a031633600160a060020a03167fe19260aff97b920c7df27010903aeb9c8d2be5d310a2c67824cf3f15396e4c1686866040518083815260200180602001828103825283818151815260200191508051906020019080838360005b8381101561162c578181015183820152602001611614565b50505050905090810190601f1680156116595780820380516001836020036101000a031916815260200191505b50935050505060405180910390a3611670856113a8565b1561117d57611680858585611b8f565b151561117d576040805160e560020a62461bcd02815260206004820152601860248201527f436f6e74726163742066616c6c6261636b206661696c65640000000000000000604482015290519081900360640190fd5b60008282018381101561080257600080fd5b600160a060020a03821615156116fd57600080fd5b600254611710908263ffffffff6116d616565b600255600160a060020a03821660009081526020819052604090205461173c908263ffffffff6116d616565b600160a060020a0383166000818152602081815260408083209490945583518581529351929391927fddf252ad1be2c89b69c2b068fc378daa952ba7f163c4a11628f55a4df523b3ef9281900390910190a35050565b610cbd3382611cf6565b6000600160a060020a03821615156117b357600080fd5b50600160a060020a03166000908152602091909152604090205460ff1690565b6117e460078263ffffffff611d9f16565b604051600160a060020a038216907fcd265ebaf09df2871cc7bd4133404a235ba12eff2041bb89d9c714a2621c7c7e90600090a250565b6118258282611deb565b5050565b61183a60078263ffffffff611e9b16565b604051600160a060020a038216907f6719d08c1888103bea251a4ed56406bd0c3e69723c8a1686e017e7bbe159b6f890600090a250565b61188260098263ffffffff611e9b16565b604051600160a060020a038216907f6ae172837ea30b801fbfcdd4108aa1d5bf8ff775444fd70256b44e6bf3dfc3f690600090a250565b6118ca60098263ffffffff611d9f16565b604051600160a060020a038216907fe94479a9f7e1952cc78f2d6baab678adc1b772d936c6583def489e524cb6669290600090a250565b60085460009060ff161561191457600080fd5b6108028383611ee9565b60085460009060ff161561193157600080fd5b6108028383611f34565b600160a060020a038116151561195057600080fd5b600354604051600160a060020a038084169216907f8be0079c531659141344cd1fd0a4f28419497f9722a3daafe3b4186f6b6457e090600090a36003805473ffffffffffffffffffffffffffffffffffffffff1916600160a060020a0392909216919091179055565b6000600160a060020a03831615156119d057600080fd5b336000818152600160209081526040808320600160a060020a0388168085529083529281902086905580518681529051929392600080516020612039833981519152929181900390910190a350600192915050565b600082821115611a3457600080fd5b50900390565b600160a060020a0383166000908152600160209081526040808320338452909152812054611a6e908363ffffffff611a2516565b600160a060020a0385166000908152600160209081526040808320338452909152902055611a9d848484611f4a565b600160a060020a038416600081815260016020908152604080832033808552908352928190205481519081529051929392600080516020612039833981519152929181900390910190a35060019392505050565b6000600160a060020a0383161515611b0857600080fd5b336000908152600160209081526040808320600160a060020a0387168452909152902054611b3c908363ffffffff6116d616565b336000818152600160209081526040808320600160a060020a038916808552908352928190208590558051948552519193600080516020612039833981519152929081900390910190a350600192915050565b6040517fa4c0ed360000000000000000000000000000000000000000000000000000000081523360048201818152602483018590526060604484019081528451606485015284516000948894600160a060020a0386169463a4c0ed369491938a938a939160849091019060208501908083838e5b83811015611c1b578181015183820152602001611c03565b50505050905090810190601f168015611c485780820380516001836020036101000a031916815260200191505b50945050505050602060405180830381600087803b158015611c6957600080fd5b505af1158015611c7d573d6000803e3d6000fd5b505050506040513d6020811015611c9357600080fd5b50511515611ceb576040805160e560020a62461bcd02815260206004820152601860248201527f436f6e74726163742046616c6c6261636b206661696c65640000000000000000604482015290519081900360640190fd5b506001949350505050565b600160a060020a0382161515611d0b57600080fd5b600254611d1e908263ffffffff611a2516565b600255600160a060020a038216600090815260208190526040902054611d4a908263ffffffff611a2516565b600160a060020a038316600081815260208181526040808320949094558351858152935191937fddf252ad1be2c89b69c2b068fc378daa952ba7f163c4a11628f55a4df523b3ef929081900390910190a35050565b600160a060020a0381161515611db457600080fd5b611dbe828261179c565b1515611dc957600080fd5b600160a060020a0316600090815260209190915260409020805460ff19169055565b600160a060020a0382166000908152600160209081526040808320338452909152902054611e1f908263ffffffff611a2516565b600160a060020a0383166000908152600160209081526040808320338452909152902055611e4d8282611cf6565b600160a060020a038216600081815260016020908152604080832033808552908352928190205481519081529051929392600080516020612039833981519152929181900390910190a35050565b600160a060020a0381161515611eb057600080fd5b611eba828261179c565b15611ec457600080fd5b600160a060020a0316600090815260209190915260409020805460ff19166001179055565b6000600160a060020a0383161515611f0057600080fd5b336000908152600160209081526040808320600160a060020a0387168452909152902054611b3c908363ffffffff611a2516565b6000611f41338484611f4a565b50600192915050565b600160a060020a0382161515611f5f57600080fd5b600160a060020a038316600090815260208190526040902054611f88908263ffffffff611a2516565b600160a060020a038085166000908152602081905260408082209390935590841681522054611fbd908263ffffffff6116d616565b600160a060020a038084166000818152602081815260409182902094909455805185815290519193928716927fddf252ad1be2c89b69c2b068fc378daa952ba7f163c4a11628f55a4df523b3ef92918290030190a350505056fe43616e6e6f7420696e63726561736520737570706c79206265796f6e64206361708c5be1e5ebec7d5bd14f71427d1e84f3dd0314c0f7b2291e5b200ac8c7c3b925a165627a7a723058204f2238c4d6b999ca1e36b313ba773b15cbe66771c5c98fc2dfbd7749949eb34a0029",
  "source": "pragma solidity 0.5.4;\n\nimport \"../identity/IdentityGuard.sol\";\nimport \"../dao/schemes/FormulaHolder.sol\";\nimport \"./ERC677BridgeToken.sol\";\n\n\n/**\n * @title The GoodDollar ERC677 token contract\n */\ncontract GoodDollar is ERC677BridgeToken, IdentityGuard, FormulaHolder {\n    address feeRecipient;\n\n    // Overrides hard-coded decimal in DAOToken\n    uint256 public constant decimals = 2;\n\n    /**\n     * @dev constructor\n     * @param _name The name of the token\n     * @param _symbol The symbol of the token\n     * @param _cap the cap of the token. no cap if 0\n     * @param _formula the fee formula contract\n     * @param _identity the identity contract\n     * @param _feeRecipient the address that receives transaction fees\n     */\n    constructor(\n        string memory _name,\n        string memory _symbol,\n        uint256 _cap,\n        AbstractFees _formula,\n        Identity _identity,\n        address _feeRecipient\n    )\n        public\n        ERC677BridgeToken(_name, _symbol, _cap)\n        IdentityGuard(_identity)\n        FormulaHolder(_formula)\n    {\n        feeRecipient = _feeRecipient;\n    }\n\n    /**\n     * @dev Processes fees from given value and sends\n     * remainder to given address\n     * @param to the address to be sent to\n     * @param value the value to be processed and then\n     * transferred\n     * @return a boolean that indicates if the operation was successful\n     */\n    function transfer(address to, uint256 value) public returns (bool) {\n        uint256 bruttoValue = processFees(msg.sender, to, value);\n        return super.transfer(to, bruttoValue);\n    }\n\n    /**\n     * @dev Approve the passed address to spend the specified\n     * amount of tokens on behalf of msg.sender\n     * @param spender The address which will spend the funds\n     * @param value The amount of tokens to be spent\n     * @return a boolean that indicates if the operation was successful\n     */\n    function approve(address spender, uint256 value) public returns (bool) {\n        return super.approve(spender, value);\n    }\n\n    /**\n     * @dev Transfer tokens from one address to another\n     * @param from The address which you want to send tokens from\n     * @param to The address which you want to transfer to\n     * @param value the amount of tokens to be transferred\n     * @return a boolean that indicates if the operation was successful\n     */\n    function transferFrom(address from, address to, uint256 value)\n        public\n        returns (bool)\n    {\n        uint256 bruttoValue = processFees(from, to, value);\n        return super.transferFrom(from, to, bruttoValue);\n    }\n\n    /**\n     * @dev Processes transfer fees and calls ERC677Token transferAndCall function\n     * @param to address to transfer to\n     * @param value the amount to transfer\n     * @param data The data to pass to transferAndCall\n     * @return a bool indicating if transfer function succeeded\n     */\n    function transferAndCall(address to, uint256 value, bytes calldata data)\n        external\n        returns (bool)\n    {\n        uint256 bruttoValue = processFees(msg.sender, to, value);\n        return super._transferAndCall(to, bruttoValue, data);\n    }\n\n    /**\n     * @dev Minting function\n     * @param to the address that will receive the minted tokens\n     * @param value the amount of tokens to mint\n     * @return a boolean that indicated if the operation was successful\n     */\n    function mint(address to, uint256 value)\n        public\n        onlyMinter\n        requireNotBlacklisted(to)\n        returns (bool)\n    {\n        if (cap > 0) {\n            require(\n                totalSupply().add(value) <= cap,\n                \"Cannot increase supply beyond cap\"\n            );\n        }\n        super._mint(to, value);\n        return true;\n    }\n\n    /**\n     * @dev Burns a specific amount of tokens.\n     * @param value The amount of token to be burned.\n     */\n    function burn(uint256 value) public onlyNotBlacklisted {\n        super.burn(value);\n    }\n\n    /**\n     * @dev Burns a specific amount of tokens from the target address and decrements allowance\n     * @param from address The address which you want to send tokens from\n     * @param value uint256 The amount of token to be burned\n     */\n    function burnFrom(address from, uint256 value)\n        public\n        onlyNotBlacklisted\n        requireNotBlacklisted(from)\n    {\n        super.burnFrom(from, value);\n    }\n\n    /**\n     * @dev Increase the amount of tokens that an owner allows a spender\n     * @param spender The address which will spend the funds\n     * @param addedValue The amount of tokens to increase the allowance by\n     * @return a boolean that indicated if the operation was successful\n     */\n    function increaseAllowance(address spender, uint256 addedValue)\n        public\n        returns (bool)\n    {\n        return super.increaseAllowance(spender, addedValue);\n    }\n\n    /**\n     * @dev Decrease the amount of tokens that an owner allowed to a spender\n     * @param spender The address which will spend the funds\n     * @param subtractedValue The amount of tokens to decrease the allowance by\n     * @return a boolean that indicated if the operation was successful\n     */\n    function decreaseAllowance(address spender, uint256 subtractedValue)\n        public\n        returns (bool)\n    {\n        return super.decreaseAllowance(spender, subtractedValue);\n    }\n\n    /**\n     * @dev Gets the current transaction fees\n     * @return an uint256 that represents\n     * the current transaction fees\n     */\n    function getFees(uint256 value) public view returns (uint256, bool) {\n        return formula.getTxFees(value, address(0), address(0));\n    }\n\n    /**\n     * @dev Gets the current transaction fees\n     * @return an uint256 that represents\n     * the current transaction fees\n     */\n    function getFees(uint256 value, address sender, address recipient)\n        public\n        view\n        returns (uint256, bool)\n    {\n        return formula.getTxFees(value, sender, recipient);\n    }\n\n    /**\n     * @dev Sets the address that receives the transactional fees.\n     * can only be called by owner\n     * @param _feeRecipient The new address to receive transactional fees\n     */\n    function setFeeRecipient(address _feeRecipient) public onlyOwner {\n        feeRecipient = _feeRecipient;\n    }\n\n    /**\n     * @dev Sends transactional fees to feeRecipient address from given address\n     * @param account The account that sends the fees\n     * @param value The amount to subtract fees from\n     * @return an uint256 that represents the given value minus the transactional fees\n     */\n    function processFees(address account, address recipient, uint256 value)\n        internal\n        returns (uint256)\n    {\n        (uint256 txFees, bool senderPays) = getFees(value, account, recipient);\n        if (txFees > 0 && !identity.isDAOContract(msg.sender)) {\n            require(\n                senderPays == false || value.add(txFees) <= balanceOf(account),\n                \"Not enough balance to pay TX fee\"\n            );\n            if (account == msg.sender) {\n                super.transfer(feeRecipient, txFees);\n            } else {\n                super.transferFrom(account, feeRecipient, txFees);\n            }\n\n            return senderPays ? value : value.sub(txFees);\n        }\n        return value;\n    }\n}\n",
  "sourcePath": "/Users/hadar/workspace/GoodDollar/GoodBootstrap/packages/contracts/contracts/token/GoodDollar.sol",
  "compiler": {
    "name": "solc",
    "version": "0.5.4+commit.9549d8ff.Emscripten.clang"
  },
  "schemaVersion": "3.0.16",
  "updatedAt": "2020-07-09T12:13:19.504Z",
  "devdoc": {
    "methods": {
      "allowance(address,address)": {
        "details": "Function to check the amount of tokens that an owner allowed to a spender.",
        "params": {
          "owner": "address The address which owns the funds.",
          "spender": "address The address which will spend the funds."
        },
        "return": "A uint256 specifying the amount of tokens still available for the spender."
      },
      "approve(address,uint256)": {
        "details": "Approve the passed address to spend the specified amount of tokens on behalf of msg.sender",
        "params": {
          "spender": "The address which will spend the funds",
          "value": "The amount of tokens to be spent"
        },
        "return": "a boolean that indicates if the operation was successful"
      },
      "balanceOf(address)": {
        "details": "Gets the balance of the specified address.",
        "params": {
          "owner": "The address to query the balance of."
        },
        "return": "An uint256 representing the amount owned by the passed address."
      },
      "burn(uint256)": {
        "details": "Burns a specific amount of tokens.",
        "params": {
          "value": "The amount of token to be burned."
        }
      },
      "burnFrom(address,uint256)": {
        "details": "Burns a specific amount of tokens from the target address and decrements allowance",
        "params": {
          "from": "address The address which you want to send tokens from",
          "value": "uint256 The amount of token to be burned"
        }
      },
      "constructor": {
        "details": "constructor",
        "params": {
          "_cap": "the cap of the token. no cap if 0",
          "_feeRecipient": "the address that receives transaction fees",
          "_formula": "the fee formula contract",
          "_identity": "the identity contract",
          "_name": "The name of the token",
          "_symbol": "The symbol of the token"
        }
      },
      "decreaseAllowance(address,uint256)": {
        "details": "Decrease the amount of tokens that an owner allowed to a spender",
        "params": {
          "spender": "The address which will spend the funds",
          "subtractedValue": "The amount of tokens to decrease the allowance by"
        },
        "return": "a boolean that indicated if the operation was successful"
      },
      "getFees(uint256)": {
        "details": "Gets the current transaction fees",
        "return": "an uint256 that represents the current transaction fees"
      },
      "getFees(uint256,address,address)": {
        "details": "Gets the current transaction fees",
        "return": "an uint256 that represents the current transaction fees"
      },
      "increaseAllowance(address,uint256)": {
        "details": "Increase the amount of tokens that an owner allows a spender",
        "params": {
          "addedValue": "The amount of tokens to increase the allowance by",
          "spender": "The address which will spend the funds"
        },
        "return": "a boolean that indicated if the operation was successful"
      },
      "isOwner()": {
        "return": "true if `msg.sender` is the owner of the contract."
      },
      "mint(address,uint256)": {
        "details": "Minting function",
        "params": {
          "to": "the address that will receive the minted tokens",
          "value": "the amount of tokens to mint"
        },
        "return": "a boolean that indicated if the operation was successful"
      },
      "owner()": {
        "return": "the address of the owner."
      },
      "pause()": {
        "details": "called by the owner to pause, triggers stopped state"
      },
      "paused()": {
        "return": "true if the contract is paused, false otherwise."
      },
      "renounceOwnership()": {
        "details": "Allows the current owner to relinquish control of the contract."
      },
      "setFeeRecipient(address)": {
        "details": "Sets the address that receives the transactional fees. can only be called by owner",
        "params": {
          "_feeRecipient": "The new address to receive transactional fees"
        }
      },
      "totalSupply()": {
        "details": "Total number of tokens in existence"
      },
      "transfer(address,uint256)": {
        "details": "Processes fees from given value and sends remainder to given address",
        "params": {
          "to": "the address to be sent to",
          "value": "the value to be processed and then transferred"
        },
        "return": "a boolean that indicates if the operation was successful"
      },
      "transferAndCall(address,uint256,bytes)": {
        "details": "Processes transfer fees and calls ERC677Token transferAndCall function",
        "params": {
          "data": "The data to pass to transferAndCall",
          "to": "address to transfer to",
          "value": "the amount to transfer"
        },
        "return": "a bool indicating if transfer function succeeded"
      },
      "transferFrom(address,address,uint256)": {
        "details": "Transfer tokens from one address to another",
        "params": {
          "from": "The address which you want to send tokens from",
          "to": "The address which you want to transfer to",
          "value": "the amount of tokens to be transferred"
        },
        "return": "a boolean that indicates if the operation was successful"
      },
      "transferOwnership(address)": {
        "details": "Allows the current owner to transfer control of the contract to a newOwner.",
        "params": {
          "newOwner": "The address to transfer ownership to."
        }
      },
      "unpause()": {
        "details": "called by the owner to unpause, returns to normal state"
      }
    },
    "title": "The GoodDollar ERC677 token contract"
  },
  "userdoc": {
    "methods": {
      "renounceOwnership()": {
        "notice": "Renouncing to ownership will leave the contract without an owner. It will not be possible to call the functions with the `onlyOwner` modifier anymore."
      }
    }
  }
}