{
  "contractName": "GoodDollar",
  "abi": [
    {
      "constant": true,
      "inputs": [],
      "name": "populatedMarket",
      "outputs": [
        {
          "name": "",
          "type": "bool"
        }
      ],
      "payable": false,
      "stateMutability": "view",
      "type": "function",
      "signature": "0x02a033fc"
    },
    {
      "constant": true,
      "inputs": [],
      "name": "name",
      "outputs": [
        {
          "name": "",
          "type": "string"
        }
      ],
      "payable": false,
      "stateMutability": "view",
      "type": "function",
      "signature": "0x06fdde03"
    },
    {
      "constant": false,
      "inputs": [
        {
          "name": "spender",
          "type": "address"
        },
        {
          "name": "value",
          "type": "uint256"
        }
      ],
      "name": "approve",
      "outputs": [
        {
          "name": "",
          "type": "bool"
        }
      ],
      "payable": false,
      "stateMutability": "nonpayable",
      "type": "function",
      "signature": "0x095ea7b3"
    },
    {
      "constant": true,
      "inputs": [],
      "name": "totalSupply",
      "outputs": [
        {
          "name": "",
          "type": "uint256"
        }
      ],
      "payable": false,
      "stateMutability": "view",
      "type": "function",
      "signature": "0x18160ddd"
    },
    {
      "constant": true,
      "inputs": [],
      "name": "decimals",
      "outputs": [
        {
          "name": "",
          "type": "uint8"
        }
      ],
      "payable": false,
      "stateMutability": "view",
      "type": "function",
      "signature": "0x313ce567"
    },
    {
      "constant": false,
      "inputs": [
        {
          "name": "spender",
          "type": "address"
        },
        {
          "name": "addedValue",
          "type": "uint256"
        }
      ],
      "name": "increaseAllowance",
      "outputs": [
        {
          "name": "",
          "type": "bool"
        }
      ],
      "payable": false,
      "stateMutability": "nonpayable",
      "type": "function",
      "signature": "0x39509351"
    },
    {
      "constant": false,
      "inputs": [
        {
          "name": "_to",
          "type": "address"
        },
        {
          "name": "_value",
          "type": "uint256"
        },
        {
          "name": "_data",
          "type": "bytes"
        }
      ],
      "name": "transferAndCall",
      "outputs": [
        {
          "name": "",
          "type": "bool"
        }
      ],
      "payable": true,
      "stateMutability": "payable",
      "type": "function",
      "signature": "0x4000aea0"
    },
    {
      "constant": false,
      "inputs": [
        {
          "name": "to",
          "type": "address"
        },
        {
          "name": "value",
          "type": "uint256"
        }
      ],
      "name": "mint",
      "outputs": [
        {
          "name": "",
          "type": "bool"
        }
      ],
      "payable": false,
      "stateMutability": "nonpayable",
      "type": "function",
      "signature": "0x40c10f19"
    },
    {
      "constant": false,
      "inputs": [
        {
          "name": "value",
          "type": "uint256"
        }
      ],
      "name": "burn",
      "outputs": [],
      "payable": false,
      "stateMutability": "nonpayable",
      "type": "function",
      "signature": "0x42966c68"
    },
    {
      "constant": true,
      "inputs": [
        {
          "name": "",
          "type": "address"
        }
      ],
      "name": "last_claimed",
      "outputs": [
        {
          "name": "",
          "type": "uint256"
        }
      ],
      "payable": false,
      "stateMutability": "view",
      "type": "function",
      "signature": "0x59447f54"
    },
    {
      "constant": true,
      "inputs": [
        {
          "name": "owner",
          "type": "address"
        }
      ],
      "name": "balanceOf",
      "outputs": [
        {
          "name": "",
          "type": "uint256"
        }
      ],
      "payable": false,
      "stateMutability": "view",
      "type": "function",
      "signature": "0x70a08231"
    },
    {
      "constant": false,
      "inputs": [],
      "name": "renounceOwnership",
      "outputs": [],
      "payable": false,
      "stateMutability": "nonpayable",
      "type": "function",
      "signature": "0x715018a6"
    },
    {
      "constant": false,
      "inputs": [
        {
          "name": "from",
          "type": "address"
        },
        {
          "name": "value",
          "type": "uint256"
        }
      ],
      "name": "burnFrom",
      "outputs": [],
      "payable": false,
      "stateMutability": "nonpayable",
      "type": "function",
      "signature": "0x79cc6790"
    },
    {
      "constant": true,
      "inputs": [],
      "name": "owner",
      "outputs": [
        {
          "name": "",
          "type": "address"
        }
      ],
      "payable": false,
      "stateMutability": "view",
      "type": "function",
      "signature": "0x8da5cb5b"
    },
    {
      "constant": true,
      "inputs": [],
      "name": "isOwner",
      "outputs": [
        {
          "name": "",
          "type": "bool"
        }
      ],
      "payable": false,
      "stateMutability": "view",
      "type": "function",
      "signature": "0x8f32d59b"
    },
    {
      "constant": false,
      "inputs": [
        {
          "name": "_spender",
          "type": "address"
        },
        {
          "name": "_addedValue",
          "type": "uint256"
        },
        {
          "name": "_data",
          "type": "bytes"
        }
      ],
      "name": "increaseApprovalAndCall",
      "outputs": [
        {
          "name": "",
          "type": "bool"
        }
      ],
      "payable": true,
      "stateMutability": "payable",
      "type": "function",
      "signature": "0x90db623f"
    },
    {
      "constant": true,
      "inputs": [],
      "name": "symbol",
      "outputs": [
        {
          "name": "",
          "type": "string"
        }
      ],
      "payable": false,
      "stateMutability": "view",
      "type": "function",
      "signature": "0x95d89b41"
    },
    {
      "constant": false,
      "inputs": [
        {
          "name": "account",
          "type": "address"
        }
      ],
      "name": "addMinter",
      "outputs": [],
      "payable": false,
      "stateMutability": "nonpayable",
      "type": "function",
      "signature": "0x983b2d56"
    },
    {
      "constant": false,
      "inputs": [],
      "name": "renounceMinter",
      "outputs": [],
      "payable": false,
      "stateMutability": "nonpayable",
      "type": "function",
      "signature": "0x98650275"
    },
    {
      "constant": false,
      "inputs": [
        {
          "name": "spender",
          "type": "address"
        },
        {
          "name": "subtractedValue",
          "type": "uint256"
        }
      ],
      "name": "decreaseAllowance",
      "outputs": [
        {
          "name": "",
          "type": "bool"
        }
      ],
      "payable": false,
      "stateMutability": "nonpayable",
      "type": "function",
      "signature": "0xa457c2d7"
    },
    {
      "constant": true,
      "inputs": [
        {
          "name": "account",
          "type": "address"
        }
      ],
      "name": "isMinter",
      "outputs": [
        {
          "name": "",
          "type": "bool"
        }
      ],
      "payable": false,
      "stateMutability": "view",
      "type": "function",
      "signature": "0xaa271e1a"
    },
    {
      "constant": false,
      "inputs": [
        {
          "name": "_from",
          "type": "address"
        },
        {
          "name": "_to",
          "type": "address"
        },
        {
          "name": "_value",
          "type": "uint256"
        },
        {
          "name": "_data",
          "type": "bytes"
        }
      ],
      "name": "transferFromAndCall",
      "outputs": [
        {
          "name": "",
          "type": "bool"
        }
      ],
      "payable": true,
      "stateMutability": "payable",
      "type": "function",
      "signature": "0xc1d34b89"
    },
    {
      "constant": false,
      "inputs": [
        {
          "name": "_spender",
          "type": "address"
        },
        {
          "name": "_value",
          "type": "uint256"
        },
        {
          "name": "_data",
          "type": "bytes"
        }
      ],
      "name": "approveAndCall",
      "outputs": [
        {
          "name": "",
          "type": "bool"
        }
      ],
      "payable": true,
      "stateMutability": "payable",
      "type": "function",
      "signature": "0xcae9ca51"
    },
    {
      "constant": false,
      "inputs": [
        {
          "name": "_spender",
          "type": "address"
        },
        {
          "name": "_subtractedValue",
          "type": "uint256"
        },
        {
          "name": "_data",
          "type": "bytes"
        }
      ],
      "name": "decreaseApprovalAndCall",
      "outputs": [
        {
          "name": "",
          "type": "bool"
        }
      ],
      "payable": true,
      "stateMutability": "payable",
      "type": "function",
      "signature": "0xcb3993be"
    },
    {
      "constant": true,
      "inputs": [],
      "name": "reserve",
      "outputs": [
        {
          "name": "",
          "type": "address"
        }
      ],
      "payable": false,
      "stateMutability": "view",
      "type": "function",
      "signature": "0xcd3293de"
    },
    {
      "constant": true,
      "inputs": [
        {
          "name": "owner",
          "type": "address"
        },
        {
          "name": "spender",
          "type": "address"
        }
      ],
      "name": "allowance",
      "outputs": [
        {
          "name": "",
          "type": "uint256"
        }
      ],
      "payable": false,
      "stateMutability": "view",
      "type": "function",
      "signature": "0xdd62ed3e"
    },
    {
      "constant": false,
      "inputs": [
        {
          "name": "newOwner",
          "type": "address"
        }
      ],
      "name": "transferOwnership",
      "outputs": [],
      "payable": false,
      "stateMutability": "nonpayable",
      "type": "function",
      "signature": "0xf2fde38b"
    },
    {
      "inputs": [
        {
          "name": "name",
          "type": "string"
        },
        {
          "name": "symbol",
          "type": "string"
        },
        {
          "name": "decimals",
          "type": "uint8"
        },
        {
          "name": "minters",
          "type": "address[]"
        }
      ],
      "payable": false,
      "stateMutability": "nonpayable",
      "type": "constructor",
      "signature": "constructor"
    },
    {
      "anonymous": false,
      "inputs": [],
      "name": "PopulatedMarket",
      "type": "event",
      "signature": "0x4bd9691b23890469e070218632e0f2ccd47ffa720ac3619fb14ad9dc504cc42e"
    },
    {
      "anonymous": false,
      "inputs": [
        {
          "indexed": false,
          "name": "fee",
          "type": "uint256"
        },
        {
          "indexed": false,
          "name": "burned",
          "type": "uint256"
        }
      ],
      "name": "TransactionFees",
      "type": "event",
      "signature": "0xef7af6e51256bf51a7b8493b0203021594d917541ba435ee24cf0bf320deb02d"
    },
    {
      "anonymous": false,
      "inputs": [
        {
          "indexed": true,
          "name": "previousOwner",
          "type": "address"
        },
        {
          "indexed": true,
          "name": "newOwner",
          "type": "address"
        }
      ],
      "name": "OwnershipTransferred",
      "type": "event",
      "signature": "0x8be0079c531659141344cd1fd0a4f28419497f9722a3daafe3b4186f6b6457e0"
    },
    {
      "anonymous": false,
      "inputs": [
        {
          "indexed": true,
          "name": "account",
          "type": "address"
        }
      ],
      "name": "MinterAdded",
      "type": "event",
      "signature": "0x6ae172837ea30b801fbfcdd4108aa1d5bf8ff775444fd70256b44e6bf3dfc3f6"
    },
    {
      "anonymous": false,
      "inputs": [
        {
          "indexed": true,
          "name": "account",
          "type": "address"
        }
      ],
      "name": "MinterRemoved",
      "type": "event",
      "signature": "0xe94479a9f7e1952cc78f2d6baab678adc1b772d936c6583def489e524cb66692"
    },
    {
      "anonymous": false,
      "inputs": [
        {
          "indexed": true,
          "name": "from",
          "type": "address"
        },
        {
          "indexed": true,
          "name": "to",
          "type": "address"
        },
        {
          "indexed": false,
          "name": "value",
          "type": "uint256"
        }
      ],
      "name": "Transfer",
      "type": "event",
      "signature": "0xddf252ad1be2c89b69c2b068fc378daa952ba7f163c4a11628f55a4df523b3ef"
    },
    {
      "anonymous": false,
      "inputs": [
        {
          "indexed": true,
          "name": "owner",
          "type": "address"
        },
        {
          "indexed": true,
          "name": "spender",
          "type": "address"
        },
        {
          "indexed": false,
          "name": "value",
          "type": "uint256"
        }
      ],
      "name": "Approval",
      "type": "event",
      "signature": "0x8c5be1e5ebec7d5bd14f71427d1e84f3dd0314c0f7b2291e5b200ac8c7c3b925"
    },
    {
      "constant": false,
      "inputs": [
        {
          "name": "_gcm",
          "type": "address"
        },
        {
          "name": "_amount",
          "type": "uint256"
        }
      ],
      "name": "initialMove",
      "outputs": [
        {
          "name": "",
          "type": "bool"
        }
      ],
      "payable": false,
      "stateMutability": "nonpayable",
      "type": "function",
      "signature": "0x6fbb553f"
    },
    {
      "constant": false,
      "inputs": [
        {
          "name": "_reserve",
          "type": "address"
        }
      ],
      "name": "setMonetaryPolicy",
      "outputs": [],
      "payable": false,
      "stateMutability": "nonpayable",
      "type": "function",
      "signature": "0x8b5a6a08"
    },
    {
      "constant": false,
      "inputs": [
        {
          "name": "to",
          "type": "address"
        },
        {
          "name": "value",
          "type": "uint256"
        }
      ],
      "name": "transfer",
      "outputs": [
        {
          "name": "",
          "type": "bool"
        }
      ],
      "payable": false,
      "stateMutability": "nonpayable",
      "type": "function",
      "signature": "0xa9059cbb"
    },
    {
      "constant": false,
      "inputs": [
        {
          "name": "from",
          "type": "address"
        },
        {
          "name": "to",
          "type": "address"
        },
        {
          "name": "value",
          "type": "uint256"
        }
      ],
      "name": "transferFrom",
      "outputs": [
        {
          "name": "",
          "type": "bool"
        }
      ],
      "payable": false,
      "stateMutability": "nonpayable",
      "type": "function",
      "signature": "0x23b872dd"
    }
  ],
  "bytecode": "0x60806040526007805460a060020a60ff02191690553480156200002157600080fd5b5060405162001e2838038062001e28833981018060405260808110156200004757600080fd5b8101908080516401000000008111156200006057600080fd5b820160208101848111156200007457600080fd5b81516401000000008111828201871017156200008f57600080fd5b50509291906020018051640100000000811115620000ac57600080fd5b82016020810184811115620000c057600080fd5b8151640100000000811182820187101715620000db57600080fd5b505060208201516040909201805191949293916401000000008111156200010157600080fd5b820160208101848111156200011557600080fd5b81518560208202830111640100000000821117156200013357600080fd5b5050865190935086925085915084906200015590600390602086019062000375565b5081516200016b90600490602085019062000375565b506005805460ff191660ff92909216919091179055506200019790503364010000000062000236810204565b60078054600160a060020a031916331790819055604051600160a060020a0391909116906000907f8be0079c531659141344cd1fd0a4f28419497f9722a3daafe3b4186f6b6457e0908290a360005b81518110156200022b576200022282828151811015156200020357fe5b9060200190602002015162000288640100000000026401000000009004565b600101620001e6565b50505050506200041a565b6200025160068264010000000062001918620002bf82021704565b604051600160a060020a038216907f6ae172837ea30b801fbfcdd4108aa1d5bf8ff775444fd70256b44e6bf3dfc3f690600090a250565b6200029c336401000000006200031a810204565b1515620002a857600080fd5b620002bc8164010000000062000236810204565b50565b600160a060020a0381161515620002d557600080fd5b620002ea82826401000000006200033d810204565b15620002f557600080fd5b600160a060020a0316600090815260209190915260409020805460ff19166001179055565b600062000337600683640100000000620018636200033d82021704565b92915050565b6000600160a060020a03821615156200035557600080fd5b50600160a060020a03166000908152602091909152604090205460ff1690565b828054600181600116156101000203166002900490600052602060002090601f016020900481019282601f10620003b857805160ff1916838001178555620003e8565b82800160010185558215620003e8579182015b82811115620003e8578251825591602001919060010190620003cb565b50620003f6929150620003fa565b5090565b6200041791905b80821115620003f6576000815560010162000401565b90565b6119fe806200042a6000396000f3fe60806040526004361061018a5763ffffffff7c010000000000000000000000000000000000000000000000000000000060003504166302a033fc811461018f57806306fdde03146101b8578063095ea7b31461024257806318160ddd1461027b57806323b872dd146102a2578063313ce567146102e557806339509351146103105780634000aea01461034957806340c10f191461040457806342966c681461043d57806359447f54146104695780636fbb553f1461049c57806370a08231146104d5578063715018a61461050857806379cc67901461051d5780638b5a6a08146105565780638da5cb5b146105895780638f32d59b146105ba57806390db623f146105cf57806395d89b411461068a578063983b2d561461069f57806398650275146106d2578063a457c2d7146106e7578063a9059cbb14610720578063aa271e1a14610759578063c1d34b891461078c578063cae9ca5114610852578063cb3993be1461090d578063cd3293de146109c8578063dd62ed3e146109dd578063f2fde38b14610a18575b600080fd5b34801561019b57600080fd5b506101a4610a4b565b604080519115158252519081900360200190f35b3480156101c457600080fd5b506101cd610a6c565b6040805160208082528351818301528351919283929083019185019080838360005b838110156102075781810151838201526020016101ef565b50505050905090810190601f1680156102345780820380516001836020036101000a031916815260200191505b509250505060405180910390f35b34801561024e57600080fd5b506101a46004803603604081101561026557600080fd5b50600160a060020a038135169060200135610b02565b34801561028757600080fd5b50610290610b6e565b60408051918252519081900360200190f35b3480156102ae57600080fd5b506101a4600480360360608110156102c557600080fd5b50600160a060020a03813581169160208101359091169060400135610b74565b3480156102f157600080fd5b506102fa610c13565b6040805160ff9092168252519081900360200190f35b34801561031c57600080fd5b506101a46004803603604081101561033357600080fd5b50600160a060020a038135169060200135610c1c565b6101a46004803603606081101561035f57600080fd5b600160a060020a038235169160208101359181019060608101604082013564010000000081111561038f57600080fd5b8201836020820111156103a157600080fd5b803590602001918460018302840111640100000000831117156103c357600080fd5b91908080601f016020809104026020016040519081016040528093929190818152602001838380828437600092019190915250929550610cba945050505050565b34801561041057600080fd5b506101a46004803603604081101561042757600080fd5b50600160a060020a038135169060200135610d9c565b34801561044957600080fd5b506104676004803603602081101561046057600080fd5b5035610dc5565b005b34801561047557600080fd5b506102906004803603602081101561048c57600080fd5b5035600160a060020a0316610dd2565b3480156104a857600080fd5b506101a4600480360360408110156104bf57600080fd5b50600160a060020a038135169060200135610de4565b3480156104e157600080fd5b50610290600480360360208110156104f857600080fd5b5035600160a060020a0316610f0e565b34801561051457600080fd5b50610467610f29565b34801561052957600080fd5b506104676004803603604081101561054057600080fd5b50600160a060020a038135169060200135610f93565b34801561056257600080fd5b506104676004803603602081101561057957600080fd5b5035600160a060020a0316610fa1565b34801561059557600080fd5b5061059e610fe3565b60408051600160a060020a039092168252519081900360200190f35b3480156105c657600080fd5b506101a4610ff2565b6101a4600480360360608110156105e557600080fd5b600160a060020a038235169160208101359181019060608101604082013564010000000081111561061557600080fd5b82018360208201111561062757600080fd5b8035906020019184600183028401116401000000008311171561064957600080fd5b91908080601f016020809104026020016040519081016040528093929190818152602001838380828437600092019190915250929550611003945050505050565b34801561069657600080fd5b506101cd611025565b3480156106ab57600080fd5b50610467600480360360208110156106c257600080fd5b5035600160a060020a0316611086565b3480156106de57600080fd5b506104676110a3565b3480156106f357600080fd5b506101a46004803603604081101561070a57600080fd5b50600160a060020a0381351690602001356110ae565b34801561072c57600080fd5b506101a46004803603604081101561074357600080fd5b50600160a060020a0381351690602001356110f9565b34801561076557600080fd5b506101a46004803603602081101561077c57600080fd5b5035600160a060020a031661111e565b6101a4600480360360808110156107a257600080fd5b600160a060020a038235811692602081013590911691604082013591908101906080810160608201356401000000008111156107dd57600080fd5b8201836020820111156107ef57600080fd5b8035906020019184600183028401116401000000008311171561081157600080fd5b91908080601f016020809104026020016040519081016040528093929190818152602001838380828437600092019190915250929550611137945050505050565b6101a46004803603606081101561086857600080fd5b600160a060020a038235169160208101359181019060608101604082013564010000000081111561089857600080fd5b8201836020820111156108aa57600080fd5b803590602001918460018302840111640100000000831117156108cc57600080fd5b91908080601f01602080910402602001604051908101604052809392919081815260200183838082843760009201919091525092955061121b945050505050565b6101a46004803603606081101561092357600080fd5b600160a060020a038235169160208101359181019060608101604082013564010000000081111561095357600080fd5b82018360208201111561096557600080fd5b8035906020019184600183028401116401000000008311171561098757600080fd5b91908080601f01602080910402602001604051908101604052809392919081815260200183838082843760009201919091525092955061123d945050505050565b3480156109d457600080fd5b5061059e61125f565b3480156109e957600080fd5b5061029060048036036040811015610a0057600080fd5b50600160a060020a038135811691602001351661126e565b348015610a2457600080fd5b5061046760048036036020811015610a3b57600080fd5b5035600160a060020a0316611299565b60075474010000000000000000000000000000000000000000900460ff1681565b60038054604080516020601f6002600019610100600188161502019095169490940493840181900481028201810190925282815260609390929091830182828015610af85780601f10610acd57610100808354040283529160200191610af8565b820191906000526020600020905b815481529060010190602001808311610adb57829003601f168201915b5050505050905090565b6000600160a060020a0383161515610b1957600080fd5b336000818152600160209081526040808320600160a060020a03881680855290835292819020869055805186815290519293926000805160206119b3833981519152929181900390910190a350600192915050565b60025490565b6000610b80843361126e565b821115610bee57604080517f08c379a000000000000000000000000000000000000000000000000000000000815260206004820152601b60248201527f76616c7565206c6172676572207468616e20616c6c6f77616e63650000000000604482015290519081900360640190fd5b6000610bfb8585856112b5565b9050610c08858583611418565b9150505b9392505050565b60055460ff1690565b6000600160a060020a0383161515610c3357600080fd5b336000908152600160209081526040808320600160a060020a0387168452909152902054610c67908363ffffffff6114cf16565b336000818152600160209081526040808320600160a060020a0389168085529083529281902085905580519485525191936000805160206119b3833981519152929081900390910190a350600192915050565b6000600160a060020a038416301415610cd257600080fd5b610cdc84846114e1565b50600084600160a060020a031634846040518082805190602001908083835b60208310610d1a5780518252601f199092019160209182019101610cfb565b6001836020036101000a03801982511681845116808217855250505050505090500191505060006040518083038185875af1925050503d8060008114610d7c576040519150601f19603f3d011682016040523d82523d6000602084013e610d81565b606091505b50509050801515610d9157600080fd5b506001949350505050565b6000610da73361111e565b1515610db257600080fd5b610dbc83836114ee565b50600192915050565b610dcf3382611598565b50565b60096020526000908152604090205481565b60075460009074010000000000000000000000000000000000000000900460ff1615610e7157604080517f08c379a000000000000000000000000000000000000000000000000000000000815260206004820152601e60248201527f476f6f64446f6c6c617220616c726561647920696e697469616c697a65640000604482015290519081900360640190fd5b610e79610ff2565b1515610e8457600080fd5b6000610e8e610c13565b60ff169050600a81900a8302610ea48582610d9c565b506007805474ff00000000000000000000000000000000000000001916740100000000000000000000000000000000000000001790556040517f4bd9691b23890469e070218632e0f2ccd47ffa720ac3619fb14ad9dc504cc42e90600090a1506001949350505050565b600160a060020a031660009081526020819052604090205490565b610f31610ff2565b1515610f3c57600080fd5b600754604051600091600160a060020a0316907f8be0079c531659141344cd1fd0a4f28419497f9722a3daafe3b4186f6b6457e0908390a36007805473ffffffffffffffffffffffffffffffffffffffff19169055565b610f9d8282611641565b5050565b610fa9610ff2565b1515610fb457600080fd5b6008805473ffffffffffffffffffffffffffffffffffffffff1916600160a060020a0392909216919091179055565b600754600160a060020a031690565b600754600160a060020a0316331490565b6000600160a060020a03841630141561101b57600080fd5b610cdc8484610c1c565b60048054604080516020601f6002600019610100600188161502019095169490940493840181900481028201810190925282815260609390929091830182828015610af85780601f10610acd57610100808354040283529160200191610af8565b61108f3361111e565b151561109a57600080fd5b610dcf816116f1565b6110ac33611739565b565b6000600160a060020a03831615156110c557600080fd5b336000908152600160209081526040808320600160a060020a0387168452909152902054610c67908363ffffffff61178116565b6000806111073385856112b5565b9050611114338583611796565b5060019392505050565b600061113160068363ffffffff61186316565b92915050565b6000600160a060020a03841630141561114f57600080fd5b61115a858585611418565b50600084600160a060020a031634846040518082805190602001908083835b602083106111985780518252601f199092019160209182019101611179565b6001836020036101000a03801982511681845116808217855250505050505090500191505060006040518083038185875af1925050503d80600081146111fa576040519150601f19603f3d011682016040523d82523d6000602084013e6111ff565b606091505b5050905080151561120f57600080fd5b50600195945050505050565b6000600160a060020a03841630141561123357600080fd5b610cdc8484610b02565b6000600160a060020a03841630141561125557600080fd5b610cdc84846110ae565b600854600160a060020a031681565b600160a060020a03918216600090815260016020908152604080832093909416825291909152205490565b6112a1610ff2565b15156112ac57600080fd5b610dcf8161189a565b600854600090600160a060020a031615156112d1575080610c0c565b600854604080517fc07ff054000000000000000000000000000000000000000000000000000000008152600160a060020a0387811660048301528681166024830152604482018690528251600094859492169263c07ff05492606480830193919282900301818787803b15801561134757600080fd5b505af115801561135b573d6000803e3d6000fd5b505050506040513d604081101561137157600080fd5b50805160209091015190925090506000611391838363ffffffff6114cf16565b6008549091506113ac908890600160a060020a031683611796565b6008546113c290600160a060020a031683611598565b604080518481526020810184905281517fef7af6e51256bf51a7b8493b0203021594d917541ba435ee24cf0bf320deb02d929181900390910190a161140d858263ffffffff61178116565b979650505050505050565b600160a060020a038316600090815260016020908152604080832033845290915281205461144c908363ffffffff61178116565b600160a060020a038516600090815260016020908152604080832033845290915290205561147b848484611796565b600160a060020a0384166000818152600160209081526040808320338085529083529281902054815190815290519293926000805160206119b3833981519152929181900390910190a35060019392505050565b600082820183811015610c0c57600080fd5b6000610dbc338484611796565b600160a060020a038216151561150357600080fd5b600254611516908263ffffffff6114cf16565b600255600160a060020a038216600090815260208190526040902054611542908263ffffffff6114cf16565b600160a060020a0383166000818152602081815260408083209490945583518581529351929391927fddf252ad1be2c89b69c2b068fc378daa952ba7f163c4a11628f55a4df523b3ef9281900390910190a35050565b600160a060020a03821615156115ad57600080fd5b6002546115c0908263ffffffff61178116565b600255600160a060020a0382166000908152602081905260409020546115ec908263ffffffff61178116565b600160a060020a038316600081815260208181526040808320949094558351858152935191937fddf252ad1be2c89b69c2b068fc378daa952ba7f163c4a11628f55a4df523b3ef929081900390910190a35050565b600160a060020a0382166000908152600160209081526040808320338452909152902054611675908263ffffffff61178116565b600160a060020a03831660009081526001602090815260408083203384529091529020556116a38282611598565b600160a060020a0382166000818152600160209081526040808320338085529083529281902054815190815290519293926000805160206119b3833981519152929181900390910190a35050565b61170260068263ffffffff61191816565b604051600160a060020a038216907f6ae172837ea30b801fbfcdd4108aa1d5bf8ff775444fd70256b44e6bf3dfc3f690600090a250565b61174a60068263ffffffff61196616565b604051600160a060020a038216907fe94479a9f7e1952cc78f2d6baab678adc1b772d936c6583def489e524cb6669290600090a250565b60008282111561179057600080fd5b50900390565b600160a060020a03821615156117ab57600080fd5b600160a060020a0383166000908152602081905260409020546117d4908263ffffffff61178116565b600160a060020a038085166000908152602081905260408082209390935590841681522054611809908263ffffffff6114cf16565b600160a060020a038084166000818152602081815260409182902094909455805185815290519193928716927fddf252ad1be2c89b69c2b068fc378daa952ba7f163c4a11628f55a4df523b3ef92918290030190a3505050565b6000600160a060020a038216151561187a57600080fd5b50600160a060020a03166000908152602091909152604090205460ff1690565b600160a060020a03811615156118af57600080fd5b600754604051600160a060020a038084169216907f8be0079c531659141344cd1fd0a4f28419497f9722a3daafe3b4186f6b6457e090600090a36007805473ffffffffffffffffffffffffffffffffffffffff1916600160a060020a0392909216919091179055565b600160a060020a038116151561192d57600080fd5b6119378282611863565b1561194157600080fd5b600160a060020a0316600090815260209190915260409020805460ff19166001179055565b600160a060020a038116151561197b57600080fd5b6119858282611863565b151561199057600080fd5b600160a060020a0316600090815260209190915260409020805460ff1916905556fe8c5be1e5ebec7d5bd14f71427d1e84f3dd0314c0f7b2291e5b200ac8c7c3b925a165627a7a72305820bfaeb0c441be42c2dd494407355a15c1957426829fbc11b32b8e160de45c38890029",
  "source": "pragma solidity ^0.5.0;\r\n\r\nimport \"openzeppelin-solidity/contracts/math/SafeMath.sol\";\r\nimport \"openzeppelin-solidity/contracts/token/ERC20/ERC20Detailed.sol\";\r\nimport \"openzeppelin-solidity/contracts/token/ERC20/ERC20Mintable.sol\";\r\nimport \"openzeppelin-solidity/contracts/token/ERC20/ERC20Burnable.sol\";\r\nimport \"openzeppelin-solidity/contracts/ownership/Ownable.sol\";\r\nimport \"./token/ERC827Token.sol\";\r\nimport \"./IMonetaryPolicy.sol\";\r\n\r\ncontract GoodDollar is ERC827Token,ERC20Detailed,ERC20Mintable,ERC20Burnable, Ownable {\r\n  using SafeMath for uint256;\r\n\r\n  event PopulatedMarket();\r\n  event TransactionFees(uint256 fee, uint256 burned);\r\n\r\n  bool public populatedMarket = false;\r\n\r\n  IMonetaryPolicy public reserve;\r\n\r\n  mapping (address => uint) public last_claimed;\r\n\r\n  modifier canPopulate() {\r\n    require(!populatedMarket,\"GoodDollar already initialized\");\r\n    _;\r\n  }\r\n\r\n  constructor (\r\n    string memory name,\r\n    string memory symbol,\r\n    uint8 decimals,\r\n    address[] memory minters\r\n  ) public\r\n    ERC20Burnable()\r\n    ERC20Mintable()\r\n    ERC20Detailed(name, symbol, decimals)\r\n    ERC20()\r\n  {\r\n    for(uint i = 0;i<minters.length;i++)\r\n      addMinter(minters[i]);\r\n  }\r\n\r\n  // Creats initial amount of this coin (GoodDollar) in the market\r\n  // Amount is 100 coins for a start (of the GoodDollar market)\r\n  function initialMove(address _gcm,uint _amount) canPopulate public onlyOwner returns(bool) {\r\n    // amount is 100 * 10^18 as each token seems to be viewed as\r\n    // a wei-like equivalent in the bancor formulas\r\n    \r\n    // should be: uint256 amount = 100*(10**decimals);\r\n    // replace \"18\" in the number of decimals. \r\n    //Don't replace in decimals var itself; it is uint8 and wiil cause inaccuracy. Should not change to uint256 also.\r\n    uint256 _decimals = uint256(decimals());\r\n    uint256 amount = _amount*(10**_decimals); // ** is math.power\r\n\r\n    mint(_gcm, amount);\r\n\r\n    populatedMarket = true;\r\n    emit PopulatedMarket();\r\n\r\n    return true;\r\n  }\r\n\r\n  function setMonetaryPolicy(IMonetaryPolicy _reserve) public onlyOwner\r\n  {\r\n    reserve = _reserve;\r\n  }\r\n\r\n    /**\r\n  * @dev Transfer token for a specified address\r\n  * @param to The address to transfer to.\r\n  * @param value The amount to be transferred.\r\n  */\r\n  function transfer(address to, uint256 value) public returns (bool) {\r\n    uint256 newValue = _processTX(msg.sender, to, value);    \r\n    _transfer(msg.sender, to, newValue);\r\n    return true;\r\n  }\r\n\r\n  /**\r\n   * @dev Transfer tokens from one address to another\r\n   * @param from address The address which you want to send tokens from\r\n   * @param to address The address which you want to transfer to\r\n   * @param value uint256 the amount of tokens to be transferred\r\n   */\r\n  function transferFrom(\r\n    address from,\r\n    address to,\r\n    uint256 value\r\n  )\r\n    public\r\n    returns (bool)\r\n  {\r\n    require(value <= allowance(from,msg.sender),\"value larger than allowance\");\r\n    uint256 newValue = _processTX(from, to, value);\r\n    return super.transferFrom(from, to, newValue);\r\n  }\r\n\r\n  /**\r\n  * @dev Process transaction for transaction fees and burn fees\r\n   */\r\n  function _processTX(address from, address to, uint256 value) internal returns (uint256) {\r\n    if(address(reserve) == address(0))\r\n      return value;\r\n\r\n    (uint256 txFee, uint256 toBurn) = reserve.processTX(from,to,value);\r\n    uint256 totalFees = txFee.add(toBurn);\r\n    _transfer(from, address(reserve), totalFees);\r\n    _burn(address(reserve), toBurn);\r\n    emit TransactionFees(txFee,toBurn);\r\n    return value.sub(totalFees);\r\n  }\r\n  \r\n}",
  "sourcePath": "C:\\Users\\hadarro\\Documents\\GoodDollar\\GoodContracts\\contracts\\GoodDollar.sol",
  "compiler": {
    "name": "solc",
    "version": "0.5.0+commit.1d4f565a.Emscripten.clang"
  },
  "schemaVersion": "3.0.1",
  "updatedAt": "2019-02-20T10:52:46.453Z",
  "devdoc": {
    "methods": {
      "allowance(address,address)": {
        "details": "Function to check the amount of tokens that an owner allowed to a spender.",
        "params": {
          "owner": "address The address which owns the funds.",
          "spender": "address The address which will spend the funds."
        },
        "return": "A uint256 specifying the amount of tokens still available for the spender."
      },
      "approve(address,uint256)": {
        "details": "Approve the passed address to spend the specified amount of tokens on behalf of msg.sender. Beware that changing an allowance with this method brings the risk that someone may use both the old and the new allowance by unfortunate transaction ordering. One possible solution to mitigate this race condition is to first reduce the spender's allowance to 0 and set the desired value afterwards: https://github.com/ethereum/EIPs/issues/20#issuecomment-263524729",
        "params": {
          "spender": "The address which will spend the funds.",
          "value": "The amount of tokens to be spent."
        }
      },
      "approveAndCall(address,uint256,bytes)": {
        "details": "Addition to IERC20 token methods. It allows to\r approve the transfer of value and execute a call with the sent data.\r Beware that changing an allowance with this method brings the risk that\r someone may use both the old and the new allowance by unfortunate\r transaction ordering. One possible solution to mitigate this race condition\r is to first reduce the spender's allowance to 0 and set the desired value\r afterwards:\r https://github.com/ethereum/EIPs/issues/20#issuecomment-263524729\r",
        "params": {
          "_data": "ABI-encoded contract call to call `_spender` address.\r",
          "_spender": "The address that will spend the funds.\r",
          "_value": "The amount of tokens to be spent.\r"
        },
        "return": "true if the call function was executed successfully\r"
      },
      "balanceOf(address)": {
        "details": "Gets the balance of the specified address.",
        "params": {
          "owner": "The address to query the balance of."
        },
        "return": "An uint256 representing the amount owned by the passed address."
      },
      "burn(uint256)": {
        "details": "Burns a specific amount of tokens.",
        "params": {
          "value": "The amount of token to be burned."
        }
      },
      "burnFrom(address,uint256)": {
        "details": "Burns a specific amount of tokens from the target address and decrements allowance",
        "params": {
          "from": "address The address which you want to send tokens from",
          "value": "uint256 The amount of token to be burned"
        }
      },
      "decimals()": {
        "return": "the number of decimals of the token."
      },
      "decreaseAllowance(address,uint256)": {
        "details": "Decrease the amount of tokens that an owner allowed to a spender. approve should be called when allowed_[_spender] == 0. To decrement allowed value is better to use this function to avoid 2 calls (and wait until the first transaction is mined) From MonolithDAO Token.sol Emits an Approval event.",
        "params": {
          "spender": "The address which will spend the funds.",
          "subtractedValue": "The amount of tokens to decrease the allowance by."
        }
      },
      "decreaseApprovalAndCall(address,uint256,bytes)": {
        "details": "Addition to IERC20 methods. Decrease the amount of tokens that\r an owner allowed to a spender and execute a call with the sent data.\r approve should be called when allowed[_spender] == 0. To decrement\r allowed value is better to use this function to avoid 2 calls (and wait until\r the first transaction is mined)\r From MonolithDAO Token.sol\r",
        "params": {
          "_data": "ABI-encoded contract call to call `_spender` address.\r",
          "_spender": "The address which will spend the funds.\r",
          "_subtractedValue": "The amount of tokens to decrease the allowance by.\r"
        }
      },
      "increaseAllowance(address,uint256)": {
        "details": "Increase the amount of tokens that an owner allowed to a spender. approve should be called when allowed_[_spender] == 0. To increment allowed value is better to use this function to avoid 2 calls (and wait until the first transaction is mined) From MonolithDAO Token.sol Emits an Approval event.",
        "params": {
          "addedValue": "The amount of tokens to increase the allowance by.",
          "spender": "The address which will spend the funds."
        }
      },
      "increaseApprovalAndCall(address,uint256,bytes)": {
        "details": "Addition to IERC20 methods. Increase the amount of tokens that\r an owner allowed to a spender and execute a call with the sent data.\r approve should be called when allowed[_spender] == 0. To increment\r allowed value is better to use this function to avoid 2 calls (and wait until\r the first transaction is mined)\r From MonolithDAO Token.sol\r",
        "params": {
          "_addedValue": "The amount of tokens to increase the allowance by.\r",
          "_data": "ABI-encoded contract call to call `_spender` address.\r",
          "_spender": "The address which will spend the funds.\r"
        }
      },
      "isOwner()": {
        "return": "true if `msg.sender` is the owner of the contract."
      },
      "mint(address,uint256)": {
        "details": "Function to mint tokens",
        "params": {
          "to": "The address that will receive the minted tokens.",
          "value": "The amount of tokens to mint."
        },
        "return": "A boolean that indicates if the operation was successful."
      },
      "name()": {
        "return": "the name of the token."
      },
      "owner()": {
        "return": "the address of the owner."
      },
      "renounceOwnership()": {
        "details": "Allows the current owner to relinquish control of the contract."
      },
      "symbol()": {
        "return": "the symbol of the token."
      },
      "totalSupply()": {
        "details": "Total number of tokens in existence"
      },
      "transfer(address,uint256)": {
        "details": "Transfer token for a specified address\r",
        "params": {
          "to": "The address to transfer to.\r",
          "value": "The amount to be transferred.\r"
        }
      },
      "transferAndCall(address,uint256,bytes)": {
        "details": "Addition to IERC20 token methods. Transfer tokens to a specified\r address and execute a call with the sent data on the same transaction\r",
        "params": {
          "_data": "ABI-encoded contract call to call `_to` address.\r",
          "_to": "address The address which you want to transfer to\r",
          "_value": "uint256 the amout of tokens to be transfered\r"
        },
        "return": "true if the call function was executed successfully\r"
      },
      "transferFrom(address,address,uint256)": {
        "details": "Transfer tokens from one address to another\r",
        "params": {
          "from": "address The address which you want to send tokens from\r",
          "to": "address The address which you want to transfer to\r",
          "value": "uint256 the amount of tokens to be transferred\r"
        }
      },
      "transferFromAndCall(address,address,uint256,bytes)": {
        "details": "Addition to IERC20 token methods. Transfer tokens from one address to\r another and make a contract call on the same transaction\r",
        "params": {
          "_data": "ABI-encoded contract call to call `_to` address.\r",
          "_from": "The address which you want to send tokens from\r",
          "_to": "The address which you want to transfer to\r",
          "_value": "The amout of tokens to be transferred\r"
        },
        "return": "true if the call function was executed successfully\r"
      },
      "transferOwnership(address)": {
        "details": "Allows the current owner to transfer control of the contract to a newOwner.",
        "params": {
          "newOwner": "The address to transfer ownership to."
        }
      }
    }
  },
  "userdoc": {
    "methods": {
      "renounceOwnership()": {
        "notice": "Renouncing to ownership will leave the contract without an owner. It will not be possible to call the functions with the `onlyOwner` modifier anymore."
      }
    }
  }
}