{
  "contractName": "GoodDollarReserve",
  "abi": [
    {
      "constant": true,
      "inputs": [],
      "name": "reserveRatio",
      "outputs": [
        {
          "name": "",
          "type": "uint32"
        }
      ],
      "payable": false,
      "stateMutability": "view",
      "type": "function",
      "signature": "0x0c7d5cd8"
    },
    {
      "constant": true,
      "inputs": [],
      "name": "inflationRate",
      "outputs": [
        {
          "name": "",
          "type": "uint256"
        }
      ],
      "payable": false,
      "stateMutability": "view",
      "type": "function",
      "signature": "0x31f9e35b"
    },
    {
      "constant": true,
      "inputs": [],
      "name": "formula",
      "outputs": [
        {
          "name": "",
          "type": "address"
        }
      ],
      "payable": false,
      "stateMutability": "view",
      "type": "function",
      "signature": "0x4b75f54f"
    },
    {
      "constant": false,
      "inputs": [],
      "name": "renounceOwnership",
      "outputs": [],
      "payable": false,
      "stateMutability": "nonpayable",
      "type": "function",
      "signature": "0x715018a6"
    },
    {
      "constant": true,
      "inputs": [],
      "name": "owner",
      "outputs": [
        {
          "name": "",
          "type": "address"
        }
      ],
      "payable": false,
      "stateMutability": "view",
      "type": "function",
      "signature": "0x8da5cb5b"
    },
    {
      "constant": true,
      "inputs": [],
      "name": "isOwner",
      "outputs": [
        {
          "name": "",
          "type": "bool"
        }
      ],
      "payable": false,
      "stateMutability": "view",
      "type": "function",
      "signature": "0x8f32d59b"
    },
    {
      "constant": false,
      "inputs": [
        {
          "name": "newOwner",
          "type": "address"
        }
      ],
      "name": "transferOwnership",
      "outputs": [],
      "payable": false,
      "stateMutability": "nonpayable",
      "type": "function",
      "signature": "0xf2fde38b"
    },
    {
      "constant": true,
      "inputs": [],
      "name": "token",
      "outputs": [
        {
          "name": "",
          "type": "address"
        }
      ],
      "payable": false,
      "stateMutability": "view",
      "type": "function",
      "signature": "0xfc0c546a"
    },
    {
      "inputs": [
        {
          "name": "_token",
          "type": "address"
        },
        {
          "name": "_formula",
          "type": "address"
        }
      ],
      "payable": true,
      "stateMutability": "payable",
      "type": "constructor",
      "signature": "constructor"
    },
    {
      "anonymous": false,
      "inputs": [
        {
          "indexed": true,
          "name": "previousOwner",
          "type": "address"
        },
        {
          "indexed": true,
          "name": "newOwner",
          "type": "address"
        }
      ],
      "name": "OwnershipTransferred",
      "type": "event",
      "signature": "0x8be0079c531659141344cd1fd0a4f28419497f9722a3daafe3b4186f6b6457e0"
    },
    {
      "constant": true,
      "inputs": [
        {
          "name": "_eth",
          "type": "uint256"
        }
      ],
      "name": "calculateAmountPurchased",
      "outputs": [
        {
          "name": "",
          "type": "uint256"
        }
      ],
      "payable": false,
      "stateMutability": "view",
      "type": "function",
      "signature": "0x3967ce0b"
    },
    {
      "constant": true,
      "inputs": [
        {
          "name": "_sellAmount",
          "type": "uint256"
        }
      ],
      "name": "calculatePriceForSale",
      "outputs": [
        {
          "name": "",
          "type": "uint256"
        }
      ],
      "payable": false,
      "stateMutability": "view",
      "type": "function",
      "signature": "0xe1dee0d7"
    },
    {
      "constant": false,
      "inputs": [],
      "name": "buy",
      "outputs": [
        {
          "name": "",
          "type": "bool"
        }
      ],
      "payable": true,
      "stateMutability": "payable",
      "type": "function",
      "signature": "0xa6f2ae3a"
    },
    {
      "constant": false,
      "inputs": [
        {
          "name": "_sellAmount",
          "type": "uint256"
        }
      ],
      "name": "sell",
      "outputs": [
        {
          "name": "",
          "type": "bool"
        }
      ],
      "payable": false,
      "stateMutability": "nonpayable",
      "type": "function",
      "signature": "0xe4849b32"
    },
    {
      "constant": true,
      "inputs": [],
      "name": "totalSupply",
      "outputs": [
        {
          "name": "",
          "type": "uint256"
        }
      ],
      "payable": false,
      "stateMutability": "view",
      "type": "function",
      "signature": "0x18160ddd"
    },
    {
      "constant": false,
      "inputs": [
        {
          "name": "_account",
          "type": "address"
        },
        {
          "name": "_amount",
          "type": "uint256"
        }
      ],
      "name": "mint",
      "outputs": [
        {
          "name": "",
          "type": "bool"
        }
      ],
      "payable": false,
      "stateMutability": "nonpayable",
      "type": "function",
      "signature": "0x40c10f19"
    }
  ],
  "bytecode": "0x608060408181526002805460a060020a63ffffffff021916760186a00000000000000000000000000000000000000000179055600160035580610a80833981016040819052815160209092015160008054600160a060020a03191633178082559192600160a060020a0392909216917f8be0079c531659141344cd1fd0a4f28419497f9722a3daafe3b4186f6b6457e0908290a360018054600160a060020a03938416600160a060020a031991821617909155600280549290931691161790556109b2806100ce6000396000f3006080604052600436106100b65763ffffffff60e060020a6000350416630c7d5cd881146100bb57806318160ddd146100e957806331f9e35b146101105780633967ce0b1461012557806340c10f191461013d5780634b75f54f14610175578063715018a6146101a65780638da5cb5b146101bd5780638f32d59b146101d2578063a6f2ae3a146101e7578063e1dee0d7146101ef578063e4849b3214610207578063f2fde38b1461021f578063fc0c546a14610240575b600080fd5b3480156100c757600080fd5b506100d0610255565b6040805163ffffffff9092168252519081900360200190f35b3480156100f557600080fd5b506100fe610279565b60408051918252519081900360200190f35b34801561011c57600080fd5b506100fe610309565b34801561013157600080fd5b506100fe60043561030f565b34801561014957600080fd5b50610161600160a060020a03600435166024356103d6565b604080519115158252519081900360200190f35b34801561018157600080fd5b5061018a61048f565b60408051600160a060020a039092168252519081900360200190f35b3480156101b257600080fd5b506101bb61049e565b005b3480156101c957600080fd5b5061018a610508565b3480156101de57600080fd5b50610161610517565b610161610528565b3480156101fb57600080fd5b506100fe600435610698565b34801561021357600080fd5b506101616004356106b6565b34801561022b57600080fd5b506101bb600160a060020a03600435166108d6565b34801561024c57600080fd5b5061018a6108f5565b60025474010000000000000000000000000000000000000000900463ffffffff1681565b600154604080517f18160ddd0000000000000000000000000000000000000000000000000000000081529051600092600160a060020a0316916318160ddd91600480830192602092919082900301818787803b1580156102d857600080fd5b505af11580156102ec573d6000803e3d6000fd5b505050506040513d602081101561030257600080fd5b5051905090565b60035481565b6002546000908190600160a060020a03166329a00e7c61032d610279565b610335610904565b600260149054906101000a900463ffffffff16876040518563ffffffff1660e060020a028152600401808581526020018481526020018363ffffffff1663ffffffff168152602001828152602001945050505050602060405180830381600087803b1580156103a357600080fd5b505af11580156103b7573d6000803e3d6000fd5b505050506040513d60208110156103cd57600080fd5b50519392505050565b60006103e0610517565b15156103eb57600080fd5b600154604080517f40c10f19000000000000000000000000000000000000000000000000000000008152600160a060020a03868116600483015260248201869052915191909216916340c10f199160448083019260209291908290030181600087803b15801561045a57600080fd5b505af115801561046e573d6000803e3d6000fd5b505050506040513d602081101561048457600080fd5b506001949350505050565b600254600160a060020a031681565b6104a6610517565b15156104b157600080fd5b60008054604051600160a060020a03909116907f8be0079c531659141344cd1fd0a4f28419497f9722a3daafe3b4186f6b6457e0908390a36000805473ffffffffffffffffffffffffffffffffffffffff19169055565b600054600160a060020a031690565b600054600160a060020a0316331490565b60008034811061053757600080fd5b600254600160a060020a03166329a00e7c610550610279565b34610559610904565b03600260149054906101000a900463ffffffff16346040518563ffffffff1660e060020a028152600401808581526020018481526020018363ffffffff1663ffffffff168152602001828152602001945050505050602060405180830381600087803b1580156105c857600080fd5b505af11580156105dc573d6000803e3d6000fd5b505050506040513d60208110156105f257600080fd5b5051600154604080517f40c10f19000000000000000000000000000000000000000000000000000000008152336004820152602481018490529051929350600160a060020a03909116916340c10f19916044808201926020929091908290030181600087803b15801561066457600080fd5b505af1158015610678573d6000803e3d6000fd5b505050506040513d602081101561068e57600080fd5b5060019250505090565b6002546000908190600160a060020a03166349f9b0f761032d610279565b6000806000831180156107585750600154604080517f70a0823100000000000000000000000000000000000000000000000000000000815233600482015290518592600160a060020a0316916370a082319160248083019260209291908290030181600087803b15801561072957600080fd5b505af115801561073d573d6000803e3d6000fd5b505050506040513d602081101561075357600080fd5b505110155b151561076357600080fd5b600254600160a060020a03166349f9b0f761077c610279565b610784610904565b600260149054906101000a900463ffffffff16876040518563ffffffff1660e060020a028152600401808581526020018481526020018363ffffffff1663ffffffff168152602001828152602001945050505050602060405180830381600087803b1580156107f257600080fd5b505af1158015610806573d6000803e3d6000fd5b505050506040513d602081101561081c57600080fd5b5051600154604080517f42966c68000000000000000000000000000000000000000000000000000000008152600481018790529051929350600160a060020a03909116916342966c689160248082019260009290919082900301818387803b15801561088757600080fd5b505af115801561089b573d6000803e3d6000fd5b505060405133925083156108fc02915083906000818181858888f193505050501580156108cc573d6000803e3d6000fd5b5060019392505050565b6108de610517565b15156108e957600080fd5b6108f281610909565b50565b600154600160a060020a031681565b303190565b600160a060020a038116151561091e57600080fd5b60008054604051600160a060020a03808516939216917f8be0079c531659141344cd1fd0a4f28419497f9722a3daafe3b4186f6b6457e091a36000805473ffffffffffffffffffffffffffffffffffffffff1916600160a060020a03929092169190911790555600a165627a7a723058206c0331a188b13f4bde833d03766cb1c12b686040aca3924428edb6b2128102d90029",
  "source": "pragma solidity ^0.4.24;\n\nimport \"openzeppelin-solidity/contracts/math/SafeMath.sol\";\nimport \"openzeppelin-solidity/contracts/ownership/Ownable.sol\";\n\nimport \"./BancorFormula.sol\";\nimport \"./GoodDollar.sol\";\n\ncontract GoodDollarReserve is Ownable {\n    using SafeMath for uint256;\n\n    GoodDollar public token;\n    BancorFormula public formula;\n\n    // Members\n    // =======\n    // totalSupply(): The GoodDollar (GTC coins) amount the contract supervise (the whole GTC coins ever exists are documented here). Initiated on \"InitialMove()\"\n    // poolBalance(): The ethers (ETH coins) amount the GoodDollarReserve as a contract has in the accounthas. Initiated in the deployment of the contract.\n\n    // Reserve ratio, represented in value between\n    // 1 and 1,000,000. So 0.1 = 100000.\n    uint32 public reserveRatio = 100000;\n\n    uint256 public inflationRate = 1;\n\n    constructor(address _token, address _formula) public payable {\n        token = GoodDollar(_token);\n        formula = BancorFormula(_formula);\n    }\n\n    // The etherium amount the GoodDollarReserve has. Initiated in the deployment of the contract.\n    function poolBalance() private view returns(uint256) {\n        return address(this).balance;\n    }\n\n    function calculateAmountPurchased(uint256 _eth) public view returns(uint256) {\n        uint256 tokensForPrice = formula.calculatePurchaseReturn(\n            totalSupply(),\n            poolBalance(),\n            reserveRatio,\n            _eth\n        );\n\n        return tokensForPrice;\n    }\n\n    function calculatePriceForSale(uint256 _sellAmount) public view returns(uint256) {\n        uint256 ethAmount = formula.calculateSaleReturn(\n            totalSupply(),\n            poolBalance(),\n            reserveRatio,\n            _sellAmount\n        );\n\n        return ethAmount;\n    }\n\n    function buy() public payable returns(bool) {\n        require(msg.value > 0);\n        uint256 tokensToMint = formula.calculatePurchaseReturn(\n            totalSupply(),\n\n            // the function is payable. Means the money sent was *already reflected* in the poolBalance! (eth)\n            // But the user requested to buy according to the amount of poolBalance before he/she made the payment and changeed the formula\n             //when purchasing with eth the poolbalance is changed before this calculation\n\n            //so we have to consider this\n            poolBalance()-msg.value,\n            reserveRatio,\n            msg.value\n        );\n        token.mint(msg.sender, tokensToMint);\n\n        return true;\n    }\n\n    function sell(uint256 _sellAmount) public returns(bool){\n        require(_sellAmount > 0 && token.balanceOf(msg.sender) >= _sellAmount);\n        uint256 ethAmount = formula.calculateSaleReturn(\n            totalSupply(),\n            poolBalance(),\n            reserveRatio,\n            _sellAmount\n        );\n\n        token.burn(_sellAmount);\n        msg.sender.transfer(ethAmount);\n\n        return true;\n    }\n\n    function totalSupply() public view returns (uint256) {\n        return token.totalSupply();\n    }\n\n    function mint(\n        address _account,\n        uint256 _amount\n    ) onlyOwner public returns (bool) {\n        token.mint(_account, _amount);\n\n        return true;\n    }\n}\n",
  "sourcePath": "/home/sirpy/workspace/gooddollar/GoodContracts/contracts/GoodDollarReserve.sol",
  "compiler": {
    "name": "solc",
    "version": "0.4.25+commit.59dbf8f1.Emscripten.clang"
  },
  "schemaVersion": "3.0.0",
  "updatedAt": "2018-12-19T13:12:28.751Z",
  "devdoc": {
    "methods": {
      "isOwner()": {
        "return": "true if `msg.sender` is the owner of the contract."
      },
      "owner()": {
        "return": "the address of the owner."
      },
      "renounceOwnership()": {
        "details": "Allows the current owner to relinquish control of the contract."
      },
      "transferOwnership(address)": {
        "details": "Allows the current owner to transfer control of the contract to a newOwner.",
        "params": {
          "newOwner": "The address to transfer ownership to."
        }
      }
    }
  },
  "userdoc": {
    "methods": {
      "renounceOwnership()": {
        "notice": "Renouncing to ownership will leave the contract without an owner. It will not be possible to call the functions with the `onlyOwner` modifier anymore."
      }
    }
  }
}