{
  "contractName": "GoodDollar",
  "abi": [
    {
      "constant": true,
      "inputs": [],
      "name": "name",
      "outputs": [
        {
          "name": "",
          "type": "string"
        }
      ],
      "payable": false,
      "stateMutability": "view",
      "type": "function"
    },
    {
      "constant": true,
      "inputs": [],
      "name": "totalSupply",
      "outputs": [
        {
          "name": "",
          "type": "uint256"
        }
      ],
      "payable": false,
      "stateMutability": "view",
      "type": "function"
    },
    {
      "constant": true,
      "inputs": [],
      "name": "identity",
      "outputs": [
        {
          "name": "",
          "type": "address"
        }
      ],
      "payable": false,
      "stateMutability": "view",
      "type": "function"
    },
    {
      "constant": true,
      "inputs": [],
      "name": "decimals",
      "outputs": [
        {
          "name": "",
          "type": "uint8"
        }
      ],
      "payable": false,
      "stateMutability": "view",
      "type": "function"
    },
    {
      "constant": true,
      "inputs": [],
      "name": "cap",
      "outputs": [
        {
          "name": "",
          "type": "uint256"
        }
      ],
      "payable": false,
      "stateMutability": "view",
      "type": "function"
    },
    {
      "constant": true,
      "inputs": [],
      "name": "formula",
      "outputs": [
        {
          "name": "",
          "type": "address"
        }
      ],
      "payable": false,
      "stateMutability": "view",
      "type": "function"
    },
    {
      "constant": false,
      "inputs": [
        {
          "name": "_identity",
          "type": "address"
        },
        {
          "name": "_avatar",
          "type": "address"
        }
      ],
      "name": "setIdentity",
      "outputs": [],
      "payable": false,
      "stateMutability": "nonpayable",
      "type": "function"
    },
    {
      "constant": true,
      "inputs": [
        {
          "name": "owner",
          "type": "address"
        }
      ],
      "name": "balanceOf",
      "outputs": [
        {
          "name": "",
          "type": "uint256"
        }
      ],
      "payable": false,
      "stateMutability": "view",
      "type": "function"
    },
    {
      "constant": false,
      "inputs": [],
      "name": "renounceOwnership",
      "outputs": [],
      "payable": false,
      "stateMutability": "nonpayable",
      "type": "function"
    },
    {
      "constant": false,
      "inputs": [
        {
          "name": "_formula",
          "type": "address"
        },
        {
          "name": "_avatar",
          "type": "address"
        }
      ],
      "name": "setFormula",
      "outputs": [],
      "payable": false,
      "stateMutability": "nonpayable",
      "type": "function"
    },
    {
      "constant": true,
      "inputs": [],
      "name": "owner",
      "outputs": [
        {
          "name": "",
          "type": "address"
        }
      ],
      "payable": false,
      "stateMutability": "view",
      "type": "function"
    },
    {
      "constant": true,
      "inputs": [],
      "name": "isOwner",
      "outputs": [
        {
          "name": "",
          "type": "bool"
        }
      ],
      "payable": false,
      "stateMutability": "view",
      "type": "function"
    },
    {
      "constant": true,
      "inputs": [],
      "name": "symbol",
      "outputs": [
        {
          "name": "",
          "type": "string"
        }
      ],
      "payable": false,
      "stateMutability": "view",
      "type": "function"
    },
    {
      "constant": false,
      "inputs": [
        {
          "name": "account",
          "type": "address"
        }
      ],
      "name": "addMinter",
      "outputs": [],
      "payable": false,
      "stateMutability": "nonpayable",
      "type": "function"
    },
    {
      "constant": false,
      "inputs": [],
      "name": "renounceMinter",
      "outputs": [],
      "payable": false,
      "stateMutability": "nonpayable",
      "type": "function"
    },
    {
      "constant": true,
      "inputs": [
        {
          "name": "account",
          "type": "address"
        }
      ],
      "name": "isMinter",
      "outputs": [
        {
          "name": "",
          "type": "bool"
        }
      ],
      "payable": false,
      "stateMutability": "view",
      "type": "function"
    },
    {
      "constant": true,
      "inputs": [
        {
          "name": "owner",
          "type": "address"
        },
        {
          "name": "spender",
          "type": "address"
        }
      ],
      "name": "allowance",
      "outputs": [
        {
          "name": "",
          "type": "uint256"
        }
      ],
      "payable": false,
      "stateMutability": "view",
      "type": "function"
    },
    {
      "constant": false,
      "inputs": [
        {
          "name": "newOwner",
          "type": "address"
        }
      ],
      "name": "transferOwnership",
      "outputs": [],
      "payable": false,
      "stateMutability": "nonpayable",
      "type": "function"
    },
    {
      "inputs": [
        {
          "name": "name",
          "type": "string"
        },
        {
          "name": "symbol",
          "type": "string"
        },
        {
          "name": "cap",
          "type": "uint256"
        },
        {
          "name": "formula",
          "type": "address"
        },
        {
          "name": "identity",
          "type": "address"
        },
        {
          "name": "feeRecipient",
          "type": "address"
        }
      ],
      "payable": false,
      "stateMutability": "nonpayable",
      "type": "constructor"
    },
    {
      "anonymous": false,
      "inputs": [
        {
          "indexed": true,
          "name": "account",
          "type": "address"
        }
      ],
      "name": "MinterAdded",
      "type": "event"
    },
    {
      "anonymous": false,
      "inputs": [
        {
          "indexed": true,
          "name": "account",
          "type": "address"
        }
      ],
      "name": "MinterRemoved",
      "type": "event"
    },
    {
      "anonymous": false,
      "inputs": [
        {
          "indexed": true,
          "name": "previousOwner",
          "type": "address"
        },
        {
          "indexed": true,
          "name": "newOwner",
          "type": "address"
        }
      ],
      "name": "OwnershipTransferred",
      "type": "event"
    },
    {
      "anonymous": false,
      "inputs": [
        {
          "indexed": true,
          "name": "from",
          "type": "address"
        },
        {
          "indexed": true,
          "name": "to",
          "type": "address"
        },
        {
          "indexed": false,
          "name": "value",
          "type": "uint256"
        }
      ],
      "name": "Transfer",
      "type": "event"
    },
    {
      "anonymous": false,
      "inputs": [
        {
          "indexed": true,
          "name": "owner",
          "type": "address"
        },
        {
          "indexed": true,
          "name": "spender",
          "type": "address"
        },
        {
          "indexed": false,
          "name": "value",
          "type": "uint256"
        }
      ],
      "name": "Approval",
      "type": "event"
    },
    {
      "anonymous": false,
      "inputs": [
        {
          "indexed": true,
          "name": "from",
          "type": "address"
        },
        {
          "indexed": true,
          "name": "to",
          "type": "address"
        },
        {
          "indexed": false,
          "name": "value",
          "type": "uint256"
        },
        {
          "indexed": false,
          "name": "data",
          "type": "bytes"
        }
      ],
      "name": "Transfer",
      "type": "event"
    },
    {
      "constant": false,
      "inputs": [
        {
          "name": "to",
          "type": "address"
        },
        {
          "name": "value",
          "type": "uint256"
        }
      ],
      "name": "transfer",
      "outputs": [
        {
          "name": "",
          "type": "bool"
        }
      ],
      "payable": false,
      "stateMutability": "nonpayable",
      "type": "function"
    },
    {
      "constant": false,
      "inputs": [
        {
          "name": "spender",
          "type": "address"
        },
        {
          "name": "value",
          "type": "uint256"
        }
      ],
      "name": "approve",
      "outputs": [
        {
          "name": "",
          "type": "bool"
        }
      ],
      "payable": false,
      "stateMutability": "nonpayable",
      "type": "function"
    },
    {
      "constant": false,
      "inputs": [
        {
          "name": "from",
          "type": "address"
        },
        {
          "name": "to",
          "type": "address"
        },
        {
          "name": "value",
          "type": "uint256"
        }
      ],
      "name": "transferFrom",
      "outputs": [
        {
          "name": "",
          "type": "bool"
        }
      ],
      "payable": false,
      "stateMutability": "nonpayable",
      "type": "function"
    },
    {
      "constant": false,
      "inputs": [
        {
          "name": "to",
          "type": "address"
        },
        {
          "name": "value",
          "type": "uint256"
        },
        {
          "name": "data",
          "type": "bytes"
        }
      ],
      "name": "transferAndCall",
      "outputs": [
        {
          "name": "",
          "type": "bool"
        }
      ],
      "payable": false,
      "stateMutability": "nonpayable",
      "type": "function"
    },
    {
      "constant": false,
      "inputs": [
        {
          "name": "to",
          "type": "address"
        },
        {
          "name": "value",
          "type": "uint256"
        }
      ],
      "name": "mint",
      "outputs": [
        {
          "name": "",
          "type": "bool"
        }
      ],
      "payable": false,
      "stateMutability": "nonpayable",
      "type": "function"
    },
    {
      "constant": false,
      "inputs": [
        {
          "name": "value",
          "type": "uint256"
        }
      ],
      "name": "burn",
      "outputs": [],
      "payable": false,
      "stateMutability": "nonpayable",
      "type": "function"
    },
    {
      "constant": false,
      "inputs": [
        {
          "name": "from",
          "type": "address"
        },
        {
          "name": "value",
          "type": "uint256"
        }
      ],
      "name": "burnFrom",
      "outputs": [],
      "payable": false,
      "stateMutability": "nonpayable",
      "type": "function"
    },
    {
      "constant": false,
      "inputs": [
        {
          "name": "spender",
          "type": "address"
        },
        {
          "name": "addedValue",
          "type": "uint256"
        }
      ],
      "name": "increaseAllowance",
      "outputs": [
        {
          "name": "",
          "type": "bool"
        }
      ],
      "payable": false,
      "stateMutability": "nonpayable",
      "type": "function"
    },
    {
      "constant": false,
      "inputs": [
        {
          "name": "spender",
          "type": "address"
        },
        {
          "name": "subtractedValue",
          "type": "uint256"
        }
      ],
      "name": "decreaseAllowance",
      "outputs": [
        {
          "name": "",
          "type": "bool"
        }
      ],
      "payable": false,
      "stateMutability": "nonpayable",
      "type": "function"
    },
    {
      "constant": true,
      "inputs": [
        {
          "name": "value",
          "type": "uint256"
        }
      ],
      "name": "getFees",
      "outputs": [
        {
          "name": "",
          "type": "uint256"
        }
      ],
      "payable": false,
      "stateMutability": "view",
      "type": "function"
    },
    {
      "constant": false,
      "inputs": [
        {
          "name": "feeRecipient",
          "type": "address"
        },
        {
          "name": "avatar",
          "type": "address"
        }
      ],
      "name": "setFeeRecipient",
      "outputs": [],
      "payable": false,
      "stateMutability": "nonpayable",
      "type": "function"
    }
  ],
  "bytecode": "0x60806040523480156200001157600080fd5b5060405162002f8f38038062002f8f833981018060405260c08110156200003757600080fd5b8101908080516401000000008111156200005057600080fd5b820160208101848111156200006457600080fd5b81516401000000008111828201871017156200007f57600080fd5b505092919060200180516401000000008111156200009c57600080fd5b82016020810184811115620000b057600080fd5b8151640100000000811182820187101715620000cb57600080fd5b50506020820151604080840151606085015160809095015160038054600160a060020a0319163317908190559251949750929550939284918491899189918991849184918491600160a060020a0391909116906000907f8be0079c531659141344cd1fd0a4f28419497f9722a3daafe3b4186f6b6457e0908290a382516200015b906004906020860190620003c3565b50815162000171906005906020850190620003c3565b506006555050505050600160a060020a0381161515620001f257604080517f08c379a000000000000000000000000000000000000000000000000000000000815260206004820152601960248201527f537570706c696564206964656e74697479206973206e756c6c00000000000000604482015290519081900360640190fd5b60078054600160a060020a031916600160a060020a03928316179055811615156200027e57604080517f08c379a000000000000000000000000000000000000000000000000000000000815260206004820152601860248201527f537570706c69656420666f726d756c61206973206e756c6c0000000000000000604482015290519081900360640190fd5b60088054600160a060020a031916600160a060020a0392909216919091179055620002b233640100000000620002de810204565b600a8054600160a060020a031916600160a060020a039290921691909117905550620004689350505050565b620002f9600982640100000000620029a76200033082021704565b604051600160a060020a038216907f6ae172837ea30b801fbfcdd4108aa1d5bf8ff775444fd70256b44e6bf3dfc3f690600090a250565b600160a060020a03811615156200034657600080fd5b6200035b82826401000000006200038b810204565b156200036657600080fd5b600160a060020a0316600090815260209190915260409020805460ff19166001179055565b6000600160a060020a0382161515620003a357600080fd5b50600160a060020a03166000908152602091909152604090205460ff1690565b828054600181600116156101000203166002900490600052602060002090601f016020900481019282601f106200040657805160ff191683800117855562000436565b8280016001018555821562000436579182015b828111156200043657825182559160200191906001019062000419565b506200044492915062000448565b5090565b6200046591905b808211156200044457600081556001016200044f565b90565b612b1780620004786000396000f3fe608060405234801561001057600080fd5b50600436106101d35760003560e060020a9004806370a0823111610108578063983b2d56116100a6578063aa271e1a11610075578063aa271e1a146105b5578063d5a06d4c146105db578063dd62ed3e146105f8578063f2fde38b14610626576101d3565b8063983b2d561461052f5780639865027514610555578063a457c2d71461055d578063a9059cbb14610589576101d3565b8063804f1b04116100e2578063804f1b04146104e95780638da5cb5b146105175780638f32d59b1461051f57806395d89b4114610527576101d3565b806370a082311461048f578063715018a6146104b557806379cc6790146104bd576101d3565b8063355274ea1161017557806340c10f191161014f57806340c10f191461041057806342966c681461043c5780634b75f54f1461045957806360ee793814610461576101d3565b8063355274ea14610357578063395093511461035f5780634000aea01461038b576101d3565b806323b872dd116101b157806323b872dd146102af578063270401cb146102e55780632c159a1a14610315578063313ce56714610339576101d3565b806306fdde03146101d8578063095ea7b31461025557806318160ddd14610295575b600080fd5b6101e061064c565b6040805160208082528351818301528351919283929083019185019080838360005b8381101561021a578181015183820152602001610202565b50505050905090810190601f1680156102475780820380516001836020036101000a031916815260200191505b509250505060405180910390f35b6102816004803603604081101561026b57600080fd5b50600160a060020a0381351690602001356106da565b604080519115158252519081900360200190f35b61029d61086b565b60408051918252519081900360200190f35b610281600480360360608110156102c557600080fd5b50600160a060020a03813581169160208101359091169060400135610871565b610313600480360360408110156102fb57600080fd5b50600160a060020a0381358116916020013516610bc1565b005b61031d610dbc565b60408051600160a060020a039092168252519081900360200190f35b610341610dcb565b6040805160ff9092168252519081900360200190f35b61029d610dd0565b6102816004803603604081101561037557600080fd5b50600160a060020a038135169060200135610dd6565b610281600480360360608110156103a157600080fd5b600160a060020a03823516916020810135918101906060810160408201356401000000008111156103d157600080fd5b8201836020820111156103e357600080fd5b8035906020019184600183028401116401000000008311171561040557600080fd5b509092509050610f5f565b6102816004803603604081101561042657600080fd5b50600160a060020a038135169060200135611138565b6103136004803603602081101561045257600080fd5b503561128a565b61031d611353565b6103136004803603604081101561047757600080fd5b50600160a060020a0381358116916020013516611362565b61029d600480360360208110156104a557600080fd5b5035600160a060020a03166115b2565b6103136115cd565b610313600480360360408110156104d357600080fd5b50600160a060020a038135169060200135611637565b610313600480360360408110156104ff57600080fd5b50600160a060020a03813581169160200135166117c5565b61031d611a15565b610281611a24565b6101e0611a35565b6103136004803603602081101561054557600080fd5b5035600160a060020a0316611a90565b610313611aad565b6102816004803603604081101561057357600080fd5b50600160a060020a038135169060200135611ab8565b6102816004803603604081101561059f57600080fd5b50600160a060020a038135169060200135611c41565b610281600480360360208110156105cb57600080fd5b5035600160a060020a0316611ec7565b61029d600480360360208110156105f157600080fd5b5035611ee0565b61029d6004803603604081101561060e57600080fd5b50600160a060020a0381358116916020013516611f77565b6103136004803603602081101561063c57600080fd5b5035600160a060020a0316611fa2565b6004805460408051602060026001851615610100026000190190941693909304601f810184900484028201840190925281815292918301828280156106d25780601f106106a7576101008083540402835291602001916106d2565b820191906000526020600020905b8154815290600101906020018083116106b557829003601f168201915b505050505081565b6007546040805160e060020a63fe575a870281523360048201529051600092600160a060020a03169163fe575a87916024808301926020929190829003018186803b15801561072857600080fd5b505afa15801561073c573d6000803e3d6000fd5b505050506040513d602081101561075257600080fd5b505115610797576040805160e560020a62461bcd0281526020600482015260156024820152600080516020612a63833981519152604482015290519081900360640190fd5b6007546040805160e060020a63fe575a87028152600160a060020a03808716600483015291518693929092169163fe575a8791602480820192602092909190829003018186803b1580156107ea57600080fd5b505afa1580156107fe573d6000803e3d6000fd5b505050506040513d602081101561081457600080fd5b505115610859576040805160e560020a62461bcd0281526020600482015260176024820152600080516020612aac833981519152604482015290519081900360640190fd5b6108638484611fbe565b949350505050565b60025490565b600754604080517f3af32abf000000000000000000000000000000000000000000000000000000008152600160a060020a038087166004830152915160009387931691633af32abf916024808301926020929190829003018186803b1580156108d957600080fd5b505afa1580156108ed573d6000803e3d6000fd5b505050506040513d602081101561090357600080fd5b5051151561095b576040805160e560020a62461bcd02815260206004820152601260248201527f6973206e6f742077686974656c69737465640000000000000000000000000000604482015290519081900360640190fd5b6007546040805160e060020a63fe575a870281523360048201529051600160a060020a039092169163fe575a8791602480820192602092909190829003018186803b1580156109a957600080fd5b505afa1580156109bd573d6000803e3d6000fd5b505050506040513d60208110156109d357600080fd5b505115610a18576040805160e560020a62461bcd0281526020600482015260156024820152600080516020612a63833981519152604482015290519081900360640190fd5b6007546040805160e060020a63fe575a87028152600160a060020a03808916600483015291518893929092169163fe575a8791602480820192602092909190829003018186803b158015610a6b57600080fd5b505afa158015610a7f573d6000803e3d6000fd5b505050506040513d6020811015610a9557600080fd5b505115610ada576040805160e560020a62461bcd0281526020600482015260176024820152600080516020612aac833981519152604482015290519081900360640190fd5b6007546040805160e060020a63fe575a87028152600160a060020a03808916600483015291518893929092169163fe575a8791602480820192602092909190829003018186803b158015610b2d57600080fd5b505afa158015610b41573d6000803e3d6000fd5b505050506040513d6020811015610b5757600080fd5b505115610b9c576040805160e560020a62461bcd0281526020600482015260176024820152600080516020612aac833981519152604482015290519081900360640190fd5b6000610ba8888761202a565b9050610bb5888883612141565b98975050505050505050565b8033600160a060020a038216148015610cd1575030600160a060020a0316638da5cb5b6040518163ffffffff1660e060020a02815260040160206040518083038186803b158015610c1157600080fd5b505afa158015610c25573d6000803e3d6000fd5b505050506040513d6020811015610c3b57600080fd5b5051604080517f8da5cb5b0000000000000000000000000000000000000000000000000000000081529051600160a060020a0392831692841691638da5cb5b916004808301926020929190829003018186803b158015610c9a57600080fd5b505afa158015610cae573d6000803e3d6000fd5b505050506040513d6020811015610cc457600080fd5b5051600160a060020a0316145b80610d4b575030600160a060020a0316638da5cb5b6040518163ffffffff1660e060020a02815260040160206040518083038186803b158015610d1357600080fd5b505afa158015610d27573d6000803e3d6000fd5b505050506040513d6020811015610d3d57600080fd5b5051600160a060020a031633145b1515610d8b5760405160e560020a62461bcd028152600401808060200182810382526029815260200180612a836029913960400191505060405180910390fd5b5050600a805473ffffffffffffffffffffffffffffffffffffffff1916600160a060020a0392909216919091179055565b600754600160a060020a031681565b600281565b60065481565b6007546040805160e060020a63fe575a870281523360048201529051600092600160a060020a03169163fe575a87916024808301926020929190829003018186803b158015610e2457600080fd5b505afa158015610e38573d6000803e3d6000fd5b505050506040513d6020811015610e4e57600080fd5b505115610e93576040805160e560020a62461bcd0281526020600482015260156024820152600080516020612a63833981519152604482015290519081900360640190fd5b6007546040805160e060020a63fe575a87028152600160a060020a03808716600483015291518693929092169163fe575a8791602480820192602092909190829003018186803b158015610ee657600080fd5b505afa158015610efa573d6000803e3d6000fd5b505050506040513d6020811015610f1057600080fd5b505115610f55576040805160e560020a62461bcd0281526020600482015260176024820152600080516020612aac833981519152604482015290519081900360640190fd5b61086384846121f8565b6007546040805160e060020a63fe575a870281523360048201529051600092600160a060020a03169163fe575a87916024808301926020929190829003018186803b158015610fad57600080fd5b505afa158015610fc1573d6000803e3d6000fd5b505050506040513d6020811015610fd757600080fd5b50511561101c576040805160e560020a62461bcd0281526020600482015260156024820152600080516020612a63833981519152604482015290519081900360640190fd5b6007546040805160e060020a63fe575a87028152600160a060020a03808916600483015291518893929092169163fe575a8791602480820192602092909190829003018186803b15801561106f57600080fd5b505afa158015611083573d6000803e3d6000fd5b505050506040513d602081101561109957600080fd5b5051156110de576040805160e560020a62461bcd0281526020600482015260176024820152600080516020612aac833981519152604482015290519081900360640190fd5b60006110ea338761202a565b905061112d878287878080601f01602080910402602001604051908101604052809392919081815260200183838082843760009201919091525061229692505050565b979650505050505050565b600061114333611ec7565b151561114e57600080fd5b6007546040805160e060020a63fe575a87028152600160a060020a03808716600483015291518693929092169163fe575a8791602480820192602092909190829003018186803b1580156111a157600080fd5b505afa1580156111b5573d6000803e3d6000fd5b505050506040513d60208110156111cb57600080fd5b505115611210576040805160e560020a62461bcd0281526020600482015260176024820152600080516020612aac833981519152604482015290519081900360640190fd5b60006006541115611276576006546112368461122a61086b565b9063ffffffff61237c16565b11156112765760405160e560020a62461bcd028152600401808060200182810382526021815260200180612a426021913960400191505060405180910390fd5b6112808484612395565b5060019392505050565b6007546040805160e060020a63fe575a870281523360048201529051600160a060020a039092169163fe575a8791602480820192602092909190829003018186803b1580156112d857600080fd5b505afa1580156112ec573d6000803e3d6000fd5b505050506040513d602081101561130257600080fd5b505115611347576040805160e560020a62461bcd0281526020600482015260156024820152600080516020612a63833981519152604482015290519081900360640190fd5b6113508161243f565b50565b600854600160a060020a031681565b8033600160a060020a038216148015611472575030600160a060020a0316638da5cb5b6040518163ffffffff1660e060020a02815260040160206040518083038186803b1580156113b257600080fd5b505afa1580156113c6573d6000803e3d6000fd5b505050506040513d60208110156113dc57600080fd5b5051604080517f8da5cb5b0000000000000000000000000000000000000000000000000000000081529051600160a060020a0392831692841691638da5cb5b916004808301926020929190829003018186803b15801561143b57600080fd5b505afa15801561144f573d6000803e3d6000fd5b505050506040513d602081101561146557600080fd5b5051600160a060020a0316145b806114ec575030600160a060020a0316638da5cb5b6040518163ffffffff1660e060020a02815260040160206040518083038186803b1580156114b457600080fd5b505afa1580156114c8573d6000803e3d6000fd5b505050506040513d60208110156114de57600080fd5b5051600160a060020a031633145b151561152c5760405160e560020a62461bcd028152600401808060200182810382526029815260200180612a836029913960400191505060405180910390fd5b82600160a060020a031663223668446040518163ffffffff1660e060020a02815260040160006040518083038186803b15801561156857600080fd5b505afa15801561157c573d6000803e3d6000fd5b50506007805473ffffffffffffffffffffffffffffffffffffffff1916600160a060020a03969096169590951790945550505050565b600160a060020a031660009081526020819052604090205490565b6115d5611a24565b15156115e057600080fd5b600354604051600091600160a060020a0316907f8be0079c531659141344cd1fd0a4f28419497f9722a3daafe3b4186f6b6457e0908390a36003805473ffffffffffffffffffffffffffffffffffffffff19169055565b6007546040805160e060020a63fe575a870281523360048201529051600160a060020a039092169163fe575a8791602480820192602092909190829003018186803b15801561168557600080fd5b505afa158015611699573d6000803e3d6000fd5b505050506040513d60208110156116af57600080fd5b5051156116f4576040805160e560020a62461bcd0281526020600482015260156024820152600080516020612a63833981519152604482015290519081900360640190fd5b6007546040805160e060020a63fe575a87028152600160a060020a03808616600483015291518593929092169163fe575a8791602480820192602092909190829003018186803b15801561174757600080fd5b505afa15801561175b573d6000803e3d6000fd5b505050506040513d602081101561177157600080fd5b5051156117b6576040805160e560020a62461bcd0281526020600482015260176024820152600080516020612aac833981519152604482015290519081900360640190fd5b6117c08383612449565b505050565b8033600160a060020a0382161480156118d5575030600160a060020a0316638da5cb5b6040518163ffffffff1660e060020a02815260040160206040518083038186803b15801561181557600080fd5b505afa158015611829573d6000803e3d6000fd5b505050506040513d602081101561183f57600080fd5b5051604080517f8da5cb5b0000000000000000000000000000000000000000000000000000000081529051600160a060020a0392831692841691638da5cb5b916004808301926020929190829003018186803b15801561189e57600080fd5b505afa1580156118b2573d6000803e3d6000fd5b505050506040513d60208110156118c857600080fd5b5051600160a060020a0316145b8061194f575030600160a060020a0316638da5cb5b6040518163ffffffff1660e060020a02815260040160206040518083038186803b15801561191757600080fd5b505afa15801561192b573d6000803e3d6000fd5b505050506040513d602081101561194157600080fd5b5051600160a060020a031633145b151561198f5760405160e560020a62461bcd028152600401808060200182810382526029815260200180612a836029913960400191505060405180910390fd5b82600160a060020a031663223668446040518163ffffffff1660e060020a02815260040160006040518083038186803b1580156119cb57600080fd5b505afa1580156119df573d6000803e3d6000fd5b50506008805473ffffffffffffffffffffffffffffffffffffffff1916600160a060020a03969096169590951790945550505050565b600354600160a060020a031690565b600354600160a060020a0316331490565b6005805460408051602060026001851615610100026000190190941693909304601f810184900484028201840190925281815292918301828280156106d25780601f106106a7576101008083540402835291602001916106d2565b611a9933611ec7565b1515611aa457600080fd5b61135081612457565b611ab63361249f565b565b6007546040805160e060020a63fe575a870281523360048201529051600092600160a060020a03169163fe575a87916024808301926020929190829003018186803b158015611b0657600080fd5b505afa158015611b1a573d6000803e3d6000fd5b505050506040513d6020811015611b3057600080fd5b505115611b75576040805160e560020a62461bcd0281526020600482015260156024820152600080516020612a63833981519152604482015290519081900360640190fd5b6007546040805160e060020a63fe575a87028152600160a060020a03808716600483015291518693929092169163fe575a8791602480820192602092909190829003018186803b158015611bc857600080fd5b505afa158015611bdc573d6000803e3d6000fd5b505050506040513d6020811015611bf257600080fd5b505115611c37576040805160e560020a62461bcd0281526020600482015260176024820152600080516020612aac833981519152604482015290519081900360640190fd5b61086384846124e7565b600754604080517f3af32abf0000000000000000000000000000000000000000000000000000000081523360048201529051600092600160a060020a031691633af32abf916024808301926020929190829003018186803b158015611ca557600080fd5b505afa158015611cb9573d6000803e3d6000fd5b505050506040513d6020811015611ccf57600080fd5b50511515611d27576040805160e560020a62461bcd02815260206004820152601260248201527f6973206e6f742077686974656c69737465640000000000000000000000000000604482015290519081900360640190fd5b6007546040805160e060020a63fe575a870281523360048201529051600160a060020a039092169163fe575a8791602480820192602092909190829003018186803b158015611d7557600080fd5b505afa158015611d89573d6000803e3d6000fd5b505050506040513d6020811015611d9f57600080fd5b505115611de4576040805160e560020a62461bcd0281526020600482015260156024820152600080516020612a63833981519152604482015290519081900360640190fd5b6007546040805160e060020a63fe575a87028152600160a060020a03808716600483015291518693929092169163fe575a8791602480820192602092909190829003018186803b158015611e3757600080fd5b505afa158015611e4b573d6000803e3d6000fd5b505050506040513d6020811015611e6157600080fd5b505115611ea6576040805160e560020a62461bcd0281526020600482015260176024820152600080516020612aac833981519152604482015290519081900360640190fd5b6000611eb2338561202a565b9050611ebe8582612532565b95945050505050565b6000611eda60098363ffffffff61254816565b92915050565b600854604080517fcb733bb9000000000000000000000000000000000000000000000000000000008152600481018490529051600092600160a060020a03169163cb733bb9916024808301926020929190829003018186803b158015611f4557600080fd5b505afa158015611f59573d6000803e3d6000fd5b505050506040513d6020811015611f6f57600080fd5b505192915050565b600160a060020a03918216600090815260016020908152604080832093909416825291909152205490565b611faa611a24565b1515611fb557600080fd5b6113508161257f565b6000600160a060020a0383161515611fd557600080fd5b336000818152600160209081526040808320600160a060020a0388168085529083529281902086905580518681529051929392600080516020612acc833981519152929181900390910190a350600192915050565b60008061203683611ee0565b90506000811180156120d55750600754604080517fc73cc4ae0000000000000000000000000000000000000000000000000000000081523360048201529051600160a060020a039092169163c73cc4ae91602480820192602092909190829003018186803b1580156120a757600080fd5b505afa1580156120bb573d6000803e3d6000fd5b505050506040513d60208110156120d157600080fd5b5051155b1561213957600160a060020a03841633141561210757600a5461210190600160a060020a031682612532565b50612121565b600a5461211f908590600160a060020a031683612141565b505b612131838263ffffffff6125fd16565b915050611eda565b509092915050565b600160a060020a0383166000908152600160209081526040808320338452909152812054612175908363ffffffff6125fd16565b600160a060020a03851660009081526001602090815260408083203384529091529020556121a4848484612612565b600160a060020a038416600081815260016020908152604080832033808552908352928190205481519081529051929392600080516020612acc833981519152929181900390910190a35060019392505050565b6000600160a060020a038316151561220f57600080fd5b336000908152600160209081526040808320600160a060020a0387168452909152902054612243908363ffffffff61237c16565b336000818152600160209081526040808320600160a060020a038916808552908352928190208590558051948552519193600080516020612acc833981519152929081900390910190a350600192915050565b60006122a28484612532565b5083600160a060020a031633600160a060020a03167fe19260aff97b920c7df27010903aeb9c8d2be5d310a2c67824cf3f15396e4c1685856040518083815260200180602001828103825283818151815260200191508051906020019080838360005b8381101561231d578181015183820152602001612305565b50505050905090810190601f16801561234a5780820380516001836020036101000a031916815260200191505b50935050505060405180910390a3612361846126df565b15611280576123718484846126e7565b151561128057600080fd5b60008282018381101561238e57600080fd5b9392505050565b600160a060020a03821615156123aa57600080fd5b6002546123bd908263ffffffff61237c16565b600255600160a060020a0382166000908152602081905260409020546123e9908263ffffffff61237c16565b600160a060020a0383166000818152602081815260408083209490945583518581529351929391927fddf252ad1be2c89b69c2b068fc378daa952ba7f163c4a11628f55a4df523b3ef9281900390910190a35050565b611350338261284e565b61245382826128f7565b5050565b61246860098263ffffffff6129a716565b604051600160a060020a038216907f6ae172837ea30b801fbfcdd4108aa1d5bf8ff775444fd70256b44e6bf3dfc3f690600090a250565b6124b060098263ffffffff6129f516565b604051600160a060020a038216907fe94479a9f7e1952cc78f2d6baab678adc1b772d936c6583def489e524cb6669290600090a250565b6000600160a060020a03831615156124fe57600080fd5b336000908152600160209081526040808320600160a060020a0387168452909152902054612243908363ffffffff6125fd16565b600061253f338484612612565b50600192915050565b6000600160a060020a038216151561255f57600080fd5b50600160a060020a03166000908152602091909152604090205460ff1690565b600160a060020a038116151561259457600080fd5b600354604051600160a060020a038084169216907f8be0079c531659141344cd1fd0a4f28419497f9722a3daafe3b4186f6b6457e090600090a36003805473ffffffffffffffffffffffffffffffffffffffff1916600160a060020a0392909216919091179055565b60008282111561260c57600080fd5b50900390565b600160a060020a038216151561262757600080fd5b600160a060020a038316600090815260208190526040902054612650908263ffffffff6125fd16565b600160a060020a038085166000908152602081905260408082209390935590841681522054612685908263ffffffff61237c16565b600160a060020a038084166000818152602081815260409182902094909455805185815290519193928716927fddf252ad1be2c89b69c2b068fc378daa952ba7f163c4a11628f55a4df523b3ef92918290030190a3505050565b6000903b1190565b6040517fa4c0ed360000000000000000000000000000000000000000000000000000000081523360048201818152602483018590526060604484019081528451606485015284516000948894600160a060020a0386169463a4c0ed369491938a938a939160849091019060208501908083838e5b8381101561277357818101518382015260200161275b565b50505050905090810190601f1680156127a05780820380516001836020036101000a031916815260200191505b50945050505050602060405180830381600087803b1580156127c157600080fd5b505af11580156127d5573d6000803e3d6000fd5b505050506040513d60208110156127eb57600080fd5b50511515612843576040805160e560020a62461bcd02815260206004820152601860248201527f436f6e74726163742046616c6c6261636b206661696c65640000000000000000604482015290519081900360640190fd5b506001949350505050565b600160a060020a038216151561286357600080fd5b600254612876908263ffffffff6125fd16565b600255600160a060020a0382166000908152602081905260409020546128a2908263ffffffff6125fd16565b600160a060020a038316600081815260208181526040808320949094558351858152935191937fddf252ad1be2c89b69c2b068fc378daa952ba7f163c4a11628f55a4df523b3ef929081900390910190a35050565b600160a060020a038216600090815260016020908152604080832033845290915290205461292b908263ffffffff6125fd16565b600160a060020a0383166000908152600160209081526040808320338452909152902055612959828261284e565b600160a060020a038216600081815260016020908152604080832033808552908352928190205481519081529051929392600080516020612acc833981519152929181900390910190a35050565b600160a060020a03811615156129bc57600080fd5b6129c68282612548565b156129d057600080fd5b600160a060020a0316600090815260209190915260409020805460ff19166001179055565b600160a060020a0381161515612a0a57600080fd5b612a148282612548565b1515612a1f57600080fd5b600160a060020a0316600090815260209190915260409020805460ff1916905556fe43616e6e6f7420696e63726561736520737570706c79206265796f6e642063617043616c6c657220697320626c61636b6c697374656400000000000000000000004f6e6c792063616c6c61626c6520627920617661746172206f66206f776e6572206f72206f776e6572526563656976657220697320626c61636b6c69737465640000000000000000008c5be1e5ebec7d5bd14f71427d1e84f3dd0314c0f7b2291e5b200ac8c7c3b925a165627a7a723058204a2634aa2e349062ae14f7c4e9ac6a4025f575387d188518b4568ced399fed650029",
  "source": "pragma solidity ^0.5.2;\nimport \"openzeppelin-solidity/contracts/access/roles/MinterRole.sol\";\n\nimport \"../identity/IdentityGuard.sol\";\nimport \"../dao/schemes/FormulaHolder.sol\";\n\nimport \"./ERC677Token.sol\";\n\n\n/** @title The GoodDollar contract */\ncontract GoodDollar is ERC677Token, IdentityGuard, FormulaHolder, MinterRole {\n\n    address _feeRecipient;\n    uint8 public constant decimals = 2;\n\n    /**\n     * @param name The name of the token\n     * @param symbol The symbol of the token\n     * @param cap the cap of the token. no cap if 0\n     * @param identity the identity contract\n     * @param feeRecipient the address that recieves transaction fees\n     */\n    constructor(\n        string memory name,\n        string memory symbol,\n        uint256 cap,\n        FeeFormula formula,\n        Identity identity,\n        address feeRecipient\n    )\n        public\n        ERC677Token(name, symbol, cap)\n        IdentityGuard(identity)\n        FormulaHolder(formula)\n    {\n        _feeRecipient = feeRecipient;\n    }\n\n    /**\n     * @dev Processes fees from given value and sends\n     * remainder to given address\n     * @param to the address to be sent to\n     * @param value the value to be processed and then\n     * transferred\n     * @return a boolean that indicates if the operation was successful\n     */\n    function transfer(address to, uint256 value)\n        public\n        onlyWhitelisted\n        onlyNotBlacklisted\n        requireNotBlacklisted(to)\n        returns (bool)\n    {\n        uint256 bruttoValue = processFees(msg.sender, value);\n        return super.transfer(to, bruttoValue);\n    }\n\n    /**\n     * @dev Approve the passed address to spend the specified\n     * amount of tokens on behalf of msg.sender\n     * @param spender The address which will spend the funds\n     * @param value The amount of tokens to be spent\n     * @return a boolean that indicates if the operation was successful\n     */\n    function approve(\n        address spender,\n        uint256 value\n    )\n        public\n        onlyNotBlacklisted\n        requireNotBlacklisted(spender)\n        returns (bool)\n    {\n        return super.approve(spender, value);\n    }\n\n    /**\n     * @dev Transfer tokens from one address to another\n     * @param from The address which you want to send tokens from\n     * @param to The address which you want to transfer to\n     * @param value the amount of tokens to be transferred\n     * @return a boolean that indicates if the operation was successful\n     */\n    function transferFrom(\n        address from,\n        address to,\n        uint256 value\n    )\n        public\n        requireWhitelisted(from)\n        onlyNotBlacklisted\n        requireNotBlacklisted(from)\n        requireNotBlacklisted(to)\n        returns (bool)\n    {\n        uint256 bruttoValue = processFees(from, value);\n        return super.transferFrom(from, to, bruttoValue);\n    }\n\n    function transferAndCall(address to, uint value, bytes calldata data)\n        external\n        onlyNotBlacklisted\n        requireNotBlacklisted(to)\n        returns (bool)\n    {\n        uint256 bruttoValue = processFees(msg.sender, value);\n        return super._transferAndCall(to, bruttoValue, data);\n    }\n\n    /**\n     * @dev Minting function\n     * @param to the address that will receive the minted tokens\n     * @param value the amount of tokens to mint\n     * @return a boolean that indicated if the operation was successful\n     */\n    function mint(address to, uint256 value)\n        public\n        onlyMinter\n        requireNotBlacklisted(to)\n        returns (bool)\n    {\n        if (cap > 0)\n            require(totalSupply().add(value) <= cap, \"Cannot increase supply beyond cap\");\n        super._mint(to, value);\n        return true;\n    }\n\n    /**\n     * @dev Burns a specific amount of tokens.\n     * @param value The amount of token to be burned.\n     */\n    function burn(uint256 value) public onlyNotBlacklisted {\n        super.burn(value);\n    }\n\n    /**\n     * @dev Burns a specific amount of tokens from the target address and decrements allowance\n     * @param from address The address which you want to send tokens from\n     * @param value uint256 The amount of token to be burned\n     */\n    function burnFrom(address from, uint256 value)\n        public\n        onlyNotBlacklisted\n        requireNotBlacklisted(from)\n    {\n        super.burnFrom(from, value);\n    }\n\n    /**\n     * @dev Increase the amount of tokens that an owner allows a spender\n     * @param spender The address which will spend the funds\n     * @param addedValue The amount of tokens to increase the allowance by\n     * @return a boolean that indicated if the operation was successful\n     */\n    function increaseAllowance(address spender, uint256 addedValue)\n        public\n        onlyNotBlacklisted\n        requireNotBlacklisted(spender)\n        returns (bool)\n    {\n        return super.increaseAllowance(spender, addedValue);\n    }\n\n    /**\n     * @dev Decrease the amount of tokens that an owner allowed to a spender\n     * @param spender The address which will spend the funds\n     * @param subtractedValue The amount of tokens to decrease the allowance by\n     * @return a boolean that indicated if the operation was successful\n     */\n    function decreaseAllowance(address spender, uint256 subtractedValue)\n        public\n        onlyNotBlacklisted\n        requireNotBlacklisted(spender)\n        returns (bool)\n    {\n        return super.decreaseAllowance(spender, subtractedValue);\n    }\n\n    /**\n     * @dev Gets the current transaction fees\n     * @return an uint256 that represents\n     * the current transaction fees\n     */\n    function getFees(uint256 value)\n        public\n        view\n        returns (uint256)\n    {\n        return formula.getTxFees(value);\n    }\n\n    /**\n     * @dev Sets the address that receives the transactional fees\n     * @param feeRecipient The new address to receive transactional fees\n     */\n    function setFeeRecipient(address feeRecipient, Avatar avatar)\n        public\n        onlyOwnerOrAvatar(avatar)\n    {\n        _feeRecipient = feeRecipient;\n    }\n\n    /**\n     * @dev Sends transactional fees to _feeRecipient address from given address\n     * @param account The account that sends the fees\n     * @param value The amount to subtract fees from\n     * @return an uint256 that represents the given value minus the transactional fees\n     */\n    function processFees(address account, uint256 value)\n        internal\n        returns (uint256)\n    {\n        uint256 txFees = getFees(value);\n        if (txFees > 0 && !identity.isDAOContract(msg.sender)) {\n            if (account == msg.sender) {\n                super.transfer(_feeRecipient, txFees);\n            } else {\n                super.transferFrom(account, _feeRecipient, txFees);\n            }\n            return value.sub(txFees);\n        }\n        return value;\n    }\n}",
  "sourcePath": "/Users/hadar/workspace/GoodDollar/GoodBootstrap/packages/contracts/contracts/token/GoodDollar.sol",
  "compiler": {
    "name": "solc",
    "version": "0.5.4+commit.9549d8ff.Emscripten.clang"
  },
  "schemaVersion": "3.0.16",
  "updatedAt": "2019-10-28T16:48:55.969Z",
  "devdoc": {
    "methods": {
      "allowance(address,address)": {
        "details": "Function to check the amount of tokens that an owner allowed to a spender.",
        "params": {
          "owner": "address The address which owns the funds.",
          "spender": "address The address which will spend the funds."
        },
        "return": "A uint256 specifying the amount of tokens still available for the spender."
      },
      "approve(address,uint256)": {
        "details": "Approve the passed address to spend the specified amount of tokens on behalf of msg.sender",
        "params": {
          "spender": "The address which will spend the funds",
          "value": "The amount of tokens to be spent"
        },
        "return": "a boolean that indicates if the operation was successful"
      },
      "balanceOf(address)": {
        "details": "Gets the balance of the specified address.",
        "params": {
          "owner": "The address to query the balance of."
        },
        "return": "An uint256 representing the amount owned by the passed address."
      },
      "burn(uint256)": {
        "details": "Burns a specific amount of tokens.",
        "params": {
          "value": "The amount of token to be burned."
        }
      },
      "burnFrom(address,uint256)": {
        "details": "Burns a specific amount of tokens from the target address and decrements allowance",
        "params": {
          "from": "address The address which you want to send tokens from",
          "value": "uint256 The amount of token to be burned"
        }
      },
      "constructor": {
        "params": {
          "cap": "the cap of the token. no cap if 0",
          "feeRecipient": "the address that recieves transaction fees",
          "identity": "the identity contract",
          "name": "The name of the token",
          "symbol": "The symbol of the token"
        }
      },
      "decreaseAllowance(address,uint256)": {
        "details": "Decrease the amount of tokens that an owner allowed to a spender",
        "params": {
          "spender": "The address which will spend the funds",
          "subtractedValue": "The amount of tokens to decrease the allowance by"
        },
        "return": "a boolean that indicated if the operation was successful"
      },
      "getFees(uint256)": {
        "details": "Gets the current transaction fees",
        "return": "an uint256 that represents the current transaction fees"
      },
      "increaseAllowance(address,uint256)": {
        "details": "Increase the amount of tokens that an owner allows a spender",
        "params": {
          "addedValue": "The amount of tokens to increase the allowance by",
          "spender": "The address which will spend the funds"
        },
        "return": "a boolean that indicated if the operation was successful"
      },
      "isOwner()": {
        "return": "true if `msg.sender` is the owner of the contract."
      },
      "mint(address,uint256)": {
        "details": "Minting function",
        "params": {
          "to": "the address that will receive the minted tokens",
          "value": "the amount of tokens to mint"
        },
        "return": "a boolean that indicated if the operation was successful"
      },
      "owner()": {
        "return": "the address of the owner."
      },
      "renounceOwnership()": {
        "details": "Allows the current owner to relinquish control of the contract."
      },
      "setFeeRecipient(address,address)": {
        "details": "Sets the address that receives the transactional fees",
        "params": {
          "feeRecipient": "The new address to receive transactional fees"
        }
      },
      "totalSupply()": {
        "details": "Total number of tokens in existence"
      },
      "transfer(address,uint256)": {
        "details": "Processes fees from given value and sends remainder to given address",
        "params": {
          "to": "the address to be sent to",
          "value": "the value to be processed and then transferred"
        },
        "return": "a boolean that indicates if the operation was successful"
      },
      "transferFrom(address,address,uint256)": {
        "details": "Transfer tokens from one address to another",
        "params": {
          "from": "The address which you want to send tokens from",
          "to": "The address which you want to transfer to",
          "value": "the amount of tokens to be transferred"
        },
        "return": "a boolean that indicates if the operation was successful"
      },
      "transferOwnership(address)": {
        "details": "Allows the current owner to transfer control of the contract to a newOwner.",
        "params": {
          "newOwner": "The address to transfer ownership to."
        }
      }
    },
    "title": "The GoodDollar contract "
  },
  "userdoc": {
    "methods": {
      "renounceOwnership()": {
        "notice": "Renouncing to ownership will leave the contract without an owner. It will not be possible to call the functions with the `onlyOwner` modifier anymore."
      }
    }
  }
}