{
  "contractName": "GoodDollarReserve",
  "abi": [
    {
      "constant": true,
      "inputs": [],
      "name": "reserveRatio",
      "outputs": [
        {
          "name": "",
          "type": "uint32"
        }
      ],
      "payable": false,
      "stateMutability": "view",
      "type": "function",
      "signature": "0x0c7d5cd8"
    },
    {
      "constant": true,
      "inputs": [],
      "name": "identity",
      "outputs": [
        {
          "name": "",
          "type": "address"
        }
      ],
      "payable": false,
      "stateMutability": "view",
      "type": "function",
      "signature": "0x2c159a1a"
    },
    {
      "constant": true,
      "inputs": [],
      "name": "inflationRate",
      "outputs": [
        {
          "name": "",
          "type": "uint256"
        }
      ],
      "payable": false,
      "stateMutability": "view",
      "type": "function",
      "signature": "0x31f9e35b"
    },
    {
      "constant": true,
      "inputs": [],
      "name": "formula",
      "outputs": [
        {
          "name": "",
          "type": "address"
        }
      ],
      "payable": false,
      "stateMutability": "view",
      "type": "function",
      "signature": "0x4b75f54f"
    },
    {
      "constant": false,
      "inputs": [],
      "name": "renounceOwnership",
      "outputs": [],
      "payable": false,
      "stateMutability": "nonpayable",
      "type": "function",
      "signature": "0x715018a6"
    },
    {
      "constant": true,
      "inputs": [
        {
          "name": "account",
          "type": "address"
        }
      ],
      "name": "isSigner",
      "outputs": [
        {
          "name": "",
          "type": "bool"
        }
      ],
      "payable": false,
      "stateMutability": "view",
      "type": "function",
      "signature": "0x7df73e27"
    },
    {
      "constant": true,
      "inputs": [],
      "name": "owner",
      "outputs": [
        {
          "name": "",
          "type": "address"
        }
      ],
      "payable": false,
      "stateMutability": "view",
      "type": "function",
      "signature": "0x8da5cb5b"
    },
    {
      "constant": true,
      "inputs": [],
      "name": "isOwner",
      "outputs": [
        {
          "name": "",
          "type": "bool"
        }
      ],
      "payable": false,
      "stateMutability": "view",
      "type": "function",
      "signature": "0x8f32d59b"
    },
    {
      "constant": false,
      "inputs": [],
      "name": "renounceSigner",
      "outputs": [],
      "payable": false,
      "stateMutability": "nonpayable",
      "type": "function",
      "signature": "0xe5c8b03d"
    },
    {
      "constant": false,
      "inputs": [
        {
          "name": "account",
          "type": "address"
        }
      ],
      "name": "addSigner",
      "outputs": [],
      "payable": false,
      "stateMutability": "nonpayable",
      "type": "function",
      "signature": "0xeb12d61e"
    },
    {
      "constant": false,
      "inputs": [
        {
          "name": "newOwner",
          "type": "address"
        }
      ],
      "name": "transferOwnership",
      "outputs": [],
      "payable": false,
      "stateMutability": "nonpayable",
      "type": "function",
      "signature": "0xf2fde38b"
    },
    {
      "constant": true,
      "inputs": [],
      "name": "token",
      "outputs": [
        {
          "name": "",
          "type": "address"
        }
      ],
      "payable": false,
      "stateMutability": "view",
      "type": "function",
      "signature": "0xfc0c546a"
    },
    {
      "inputs": [
        {
          "name": "_token",
          "type": "address"
        },
        {
          "name": "_formula",
          "type": "address"
        },
        {
          "name": "_identity",
          "type": "address"
        },
        {
          "name": "ratio",
          "type": "uint32"
        }
      ],
      "payable": true,
      "stateMutability": "payable",
      "type": "constructor",
      "signature": "constructor"
    },
    {
      "anonymous": false,
      "inputs": [
        {
          "indexed": true,
          "name": "account",
          "type": "address"
        }
      ],
      "name": "SignerAdded",
      "type": "event",
      "signature": "0x47d1c22a25bb3a5d4e481b9b1e6944c2eade3181a0a20b495ed61d35b5323f24"
    },
    {
      "anonymous": false,
      "inputs": [
        {
          "indexed": true,
          "name": "account",
          "type": "address"
        }
      ],
      "name": "SignerRemoved",
      "type": "event",
      "signature": "0x3525e22824a8a7df2c9a6029941c824cf95b6447f1e13d5128fd3826d35afe8b"
    },
    {
      "anonymous": false,
      "inputs": [
        {
          "indexed": true,
          "name": "previousOwner",
          "type": "address"
        },
        {
          "indexed": true,
          "name": "newOwner",
          "type": "address"
        }
      ],
      "name": "OwnershipTransferred",
      "type": "event",
      "signature": "0x8be0079c531659141344cd1fd0a4f28419497f9722a3daafe3b4186f6b6457e0"
    },
    {
      "constant": false,
      "inputs": [
        {
          "name": "_txFee",
          "type": "uint256"
        },
        {
          "name": "_burnFee",
          "type": "uint256"
        }
      ],
      "name": "setFees",
      "outputs": [],
      "payable": false,
      "stateMutability": "nonpayable",
      "type": "function",
      "signature": "0x0b78f9c0"
    },
    {
      "constant": true,
      "inputs": [
        {
          "name": "_value",
          "type": "uint256"
        }
      ],
      "name": "calcFees",
      "outputs": [
        {
          "name": "txFee",
          "type": "uint256"
        },
        {
          "name": "burn",
          "type": "uint256"
        }
      ],
      "payable": false,
      "stateMutability": "view",
      "type": "function",
      "signature": "0x6239277c"
    },
    {
      "constant": false,
      "inputs": [
        {
          "name": "_from",
          "type": "address"
        },
        {
          "name": "_to",
          "type": "address"
        },
        {
          "name": "_value",
          "type": "uint256"
        }
      ],
      "name": "processTX",
      "outputs": [
        {
          "name": "txFee",
          "type": "uint256"
        },
        {
          "name": "burn",
          "type": "uint256"
        }
      ],
      "payable": false,
      "stateMutability": "nonpayable",
      "type": "function",
      "signature": "0xc07ff054"
    },
    {
      "constant": true,
      "inputs": [],
      "name": "poolBalance",
      "outputs": [
        {
          "name": "",
          "type": "uint256"
        }
      ],
      "payable": false,
      "stateMutability": "view",
      "type": "function",
      "signature": "0x96365d44"
    },
    {
      "constant": true,
      "inputs": [
        {
          "name": "_eth",
          "type": "uint256"
        }
      ],
      "name": "calculateAmountPurchased",
      "outputs": [
        {
          "name": "",
          "type": "uint256"
        }
      ],
      "payable": false,
      "stateMutability": "view",
      "type": "function",
      "signature": "0x3967ce0b"
    },
    {
      "constant": true,
      "inputs": [
        {
          "name": "_sellAmount",
          "type": "uint256"
        }
      ],
      "name": "calculatePriceForSale",
      "outputs": [
        {
          "name": "",
          "type": "uint256"
        }
      ],
      "payable": false,
      "stateMutability": "view",
      "type": "function",
      "signature": "0xe1dee0d7"
    },
    {
      "constant": false,
      "inputs": [],
      "name": "buy",
      "outputs": [
        {
          "name": "",
          "type": "bool"
        }
      ],
      "payable": true,
      "stateMutability": "payable",
      "type": "function",
      "signature": "0xa6f2ae3a"
    },
    {
      "constant": false,
      "inputs": [
        {
          "name": "_sellAmount",
          "type": "uint256"
        }
      ],
      "name": "sell",
      "outputs": [
        {
          "name": "",
          "type": "bool"
        }
      ],
      "payable": false,
      "stateMutability": "nonpayable",
      "type": "function",
      "signature": "0xe4849b32"
    },
    {
      "constant": true,
      "inputs": [],
      "name": "totalSupply",
      "outputs": [
        {
          "name": "",
          "type": "uint256"
        }
      ],
      "payable": false,
      "stateMutability": "view",
      "type": "function",
      "signature": "0x18160ddd"
    },
    {
      "constant": false,
      "inputs": [
        {
          "name": "_account",
          "type": "address"
        },
        {
          "name": "_amount",
          "type": "uint256"
        }
      ],
      "name": "mint",
      "outputs": [
        {
          "name": "",
          "type": "bool"
        }
      ],
      "payable": false,
      "stateMutability": "nonpayable",
      "type": "function",
      "signature": "0x40c10f19"
    }
  ],
  "bytecode": "0x608060408190526004805460a060020a63ffffffff02191675271000000000000000000000000000000000000000001790556001600555612710600655600060075580806112588139810180604052608081101561005c57600080fd5b508051602082015160408084015160609094015160008054600160a060020a03191633178082559251949593949192600160a060020a0316917f8be0079c531659141344cd1fd0a4f28419497f9722a3daafe3b4186f6b6457e0908290a36100cc3364010000000061013b810204565b6004805460028054600160a060020a03978816600160a060020a03199182161790915593861663ffffffff909316740100000000000000000000000000000000000000000260a060020a63ffffffff021990911617831691909117905560038054929093169116179055610218565b610153600182640100000000610fb761018a82021704565b604051600160a060020a038216907f47d1c22a25bb3a5d4e481b9b1e6944c2eade3181a0a20b495ed61d35b5323f2490600090a250565b600160a060020a038116151561019f57600080fd5b6101b282826401000000006101e1810204565b156101bc57600080fd5b600160a060020a0316600090815260209190915260409020805460ff19166001179055565b6000600160a060020a03821615156101f857600080fd5b50600160a060020a03166000908152602091909152604090205460ff1690565b611031806102276000396000f3fe60806040526004361061010e5763ffffffff60e060020a6000350416630b78f9c081146101135780630c7d5cd81461014557806318160ddd146101735780632c159a1a1461019a57806331f9e35b146101cb5780633967ce0b146101e057806340c10f191461020a5780634b75f54f146102575780636239277c1461026c578063715018a6146102af5780637df73e27146102c45780638da5cb5b146102f75780638f32d59b1461030c57806396365d4414610321578063a6f2ae3a14610336578063c07ff0541461033e578063e1dee0d714610381578063e4849b32146103ab578063e5c8b03d146103d5578063eb12d61e146103ea578063f2fde38b1461041d578063fc0c546a14610450575b600080fd5b34801561011f57600080fd5b506101436004803603604081101561013657600080fd5b5080359060200135610465565b005b34801561015157600080fd5b5061015a610484565b6040805163ffffffff9092168252519081900360200190f35b34801561017f57600080fd5b506101886104a8565b60408051918252519081900360200190f35b3480156101a657600080fd5b506101af610537565b60408051600160a060020a039092168252519081900360200190f35b3480156101d757600080fd5b50610188610546565b3480156101ec57600080fd5b506101886004803603602081101561020357600080fd5b503561054c565b34801561021657600080fd5b506102436004803603604081101561022d57600080fd5b50600160a060020a038135169060200135610611565b604080519115158252519081900360200190f35b34801561026357600080fd5b506101af6106cc565b34801561027857600080fd5b506102966004803603602081101561028f57600080fd5b50356106db565b6040805192835260208301919091528051918290030190f35b3480156102bb57600080fd5b5061014361072b565b3480156102d057600080fd5b50610243600480360360208110156102e757600080fd5b5035600160a060020a0316610795565b34801561030357600080fd5b506101af6107a8565b34801561031857600080fd5b506102436107b7565b34801561032d57600080fd5b506101886107c8565b6102436107cd565b34801561034a57600080fd5b506102966004803603606081101561036157600080fd5b50600160a060020a0381358116916020810135909116906040013561099f565b34801561038d57600080fd5b50610188600480360360208110156103a457600080fd5b5035610ade565b3480156103b757600080fd5b50610243600480360360208110156103ce57600080fd5b5035610afc565b3480156103e157600080fd5b50610143610d7b565b3480156103f657600080fd5b506101436004803603602081101561040d57600080fd5b5035600160a060020a0316610d86565b34801561042957600080fd5b506101436004803603602081101561044057600080fd5b5035600160a060020a0316610da6565b34801561045c57600080fd5b506101af610dc2565b61046e33610795565b151561047957600080fd5b600691909155600755565b60045474010000000000000000000000000000000000000000900463ffffffff1681565b600254604080517f18160ddd0000000000000000000000000000000000000000000000000000000081529051600092600160a060020a0316916318160ddd916004808301926020929190829003018186803b15801561050657600080fd5b505afa15801561051a573d6000803e3d6000fd5b505050506040513d602081101561053057600080fd5b5051905090565b600454600160a060020a031681565b60055481565b6003546000908190600160a060020a03166329a00e7c61056a6104a8565b6105726107c8565b600480546040805163ffffffff87811660e060020a02825293810195909552602485019390935274010000000000000000000000000000000000000000900416604483015260648201879052516084808301926020929190829003018186803b1580156105de57600080fd5b505afa1580156105f2573d6000803e3d6000fd5b505050506040513d602081101561060857600080fd5b50519392505050565b600061061b6107b7565b151561062657600080fd5b600254604080517f40c10f19000000000000000000000000000000000000000000000000000000008152600160a060020a03868116600483015260248201869052915191909216916340c10f199160448083019260209291908290030181600087803b15801561069557600080fd5b505af11580156106a9573d6000803e3d6000fd5b505050506040513d60208110156106bf57600080fd5b5060019150505b92915050565b600354600160a060020a031681565b600080610706620f42406106fa60065486610dd190919063ffffffff16565b9063ffffffff610e0316565b9150610724620f42406106fa60075486610dd190919063ffffffff16565b9050915091565b6107336107b7565b151561073e57600080fd5b60008054604051600160a060020a03909116907f8be0079c531659141344cd1fd0a4f28419497f9722a3daafe3b4186f6b6457e0908390a36000805473ffffffffffffffffffffffffffffffffffffffff19169055565b60006106c660018363ffffffff610e2716565b600054600160a060020a031690565b600054600160a060020a0316331490565b303190565b600034811061083d57604080517f08c379a000000000000000000000000000000000000000000000000000000000815260206004820152601060248201527f76616c75652063616e2774206265203000000000000000000000000000000000604482015290519081900360640190fd5b600354600090600160a060020a03166329a00e7c6108596104a8565b346108626107c8565b600480546040805163ffffffff88811660e060020a0282529381019690965293909203602485015274010000000000000000000000000000000000000000909104166044830152346064830152516084808301926020929190829003018186803b1580156108cf57600080fd5b505afa1580156108e3573d6000803e3d6000fd5b505050506040513d60208110156108f957600080fd5b5051600254604080517f40c10f19000000000000000000000000000000000000000000000000000000008152336004820152602481018490529051929350600160a060020a03909116916340c10f19916044808201926020929091908290030181600087803b15801561096b57600080fd5b505af115801561097f573d6000803e3d6000fd5b505050506040513d602081101561099557600080fd5b5060019250505090565b60048054604080517fb9209e33000000000000000000000000000000000000000000000000000000008152600160a060020a038781169482019490945290516000938493169163b9209e33916024808301926020929190829003018186803b158015610a0a57600080fd5b505afa158015610a1e573d6000803e3d6000fd5b505050506040513d6020811015610a3457600080fd5b50511515610ac957604080517f08c379a000000000000000000000000000000000000000000000000000000000815260206004820152602660248201527f4e6f6e20766572696669656420636974697a656e732063616e27742073656e6460448201527f2066756e64730000000000000000000000000000000000000000000000000000606482015290519081900360840190fd5b610ad2836106db565b91509150935093915050565b6003546000908190600160a060020a03166349f9b0f761056a6104a8565b60008082118015610b9a5750600254604080517f70a0823100000000000000000000000000000000000000000000000000000000815233600482015290518492600160a060020a0316916370a08231916024808301926020929190829003018186803b158015610b6b57600080fd5b505afa158015610b7f573d6000803e3d6000fd5b505050506040513d6020811015610b9557600080fd5b505110155b1515610c0757604080517f08c379a000000000000000000000000000000000000000000000000000000000815260206004820152601e60248201527f4e6f7420656e6f7567682062616c616e6365206f7220616d6f756e7420300000604482015290519081900360640190fd5b600354600090600160a060020a03166349f9b0f7610c236104a8565b610c2b6107c8565b600480546040805163ffffffff87811660e060020a02825293810195909552602485019390935274010000000000000000000000000000000000000000900416604483015260648201879052516084808301926020929190829003018186803b158015610c9757600080fd5b505afa158015610cab573d6000803e3d6000fd5b505050506040513d6020811015610cc157600080fd5b5051600254604080517f42966c68000000000000000000000000000000000000000000000000000000008152600481018790529051929350600160a060020a03909116916342966c689160248082019260009290919082900301818387803b158015610d2c57600080fd5b505af1158015610d40573d6000803e3d6000fd5b505060405133925083156108fc02915083906000818181858888f19350505050158015610d71573d6000803e3d6000fd5b5060019392505050565b610d8433610e5e565b565b610d8f33610795565b1515610d9a57600080fd5b610da381610ea6565b50565b610dae6107b7565b1515610db957600080fd5b610da381610eee565b600254600160a060020a031681565b6000821515610de2575060006106c6565b828202828482811515610df157fe5b0414610dfc57600080fd5b9392505050565b6000808211610e1157600080fd5b60008284811515610e1e57fe5b04949350505050565b6000600160a060020a0382161515610e3e57600080fd5b50600160a060020a03166000908152602091909152604090205460ff1690565b610e6f60018263ffffffff610f6b16565b604051600160a060020a038216907f3525e22824a8a7df2c9a6029941c824cf95b6447f1e13d5128fd3826d35afe8b90600090a250565b610eb760018263ffffffff610fb716565b604051600160a060020a038216907f47d1c22a25bb3a5d4e481b9b1e6944c2eade3181a0a20b495ed61d35b5323f2490600090a250565b600160a060020a0381161515610f0357600080fd5b60008054604051600160a060020a03808516939216917f8be0079c531659141344cd1fd0a4f28419497f9722a3daafe3b4186f6b6457e091a36000805473ffffffffffffffffffffffffffffffffffffffff1916600160a060020a0392909216919091179055565b600160a060020a0381161515610f8057600080fd5b610f8a8282610e27565b1515610f9557600080fd5b600160a060020a0316600090815260209190915260409020805460ff19169055565b600160a060020a0381161515610fcc57600080fd5b610fd68282610e27565b15610fe057600080fd5b600160a060020a0316600090815260209190915260409020805460ff1916600117905556fea165627a7a723058200f52e48fb3d8a4192d4ffb05aef018b3b39cf6b46b87a2c6b77e41fdbc34c66c0029",
  "source": "pragma solidity ^0.5.0;\r\n\r\nimport \"openzeppelin-solidity/contracts/math/SafeMath.sol\";\r\nimport \"openzeppelin-solidity/contracts/ownership/Ownable.sol\";\r\nimport \"openzeppelin-solidity/contracts/access/roles/SignerRole.sol\";\r\n\r\nimport \"./BancorFormula.sol\";\r\nimport \"./GoodDollar.sol\";\r\nimport \"./IMonetaryPolicy.sol\";\r\nimport \"./Identity.sol\";\r\n\r\ncontract GoodDollarReserve is IMonetaryPolicy, Ownable, SignerRole {\r\n  using SafeMath for uint256;\r\n  using SafeMath for uint;\r\n\r\n  GoodDollar public token;\r\n  BancorFormula public formula;\r\n  Identity public identity;\r\n\r\n  // Members\r\n  // =======\r\n  // totalSupply(): The GoodDollar (GTC coins) amount the contract supervise (the whole GTC coins ever exists are documented here). Initiated on \"InitialMove()\"\r\n  // poolBalance(): The ethers (ETH coins) amount the GoodDollarReserve as a contract has in the accounthas. Initiated in the deployment of the contract.\r\n\r\n  // Reserve ratio, represented in value between\r\n  // 1 and 1,000,000. So 0.1 = 100000.\r\n  uint32 public reserveRatio = 10000;\r\n\r\n  uint256 public inflationRate = 1;\r\n\r\n  //1% tx fee as default\r\n  uint transactionFee = 10000 ;\r\n  uint burnFee = 0;\r\n\r\n  constructor(GoodDollar _token, BancorFormula _formula,Identity _identity, uint32 ratio) public payable {\r\n    reserveRatio = ratio;\r\n    token = _token;\r\n    identity = _identity;\r\n    formula = _formula;\r\n  }\r\n\r\n  function setFees(uint _txFee, uint _burnFee) external onlySigner {\r\n    transactionFee = _txFee;\r\n    burnFee = _burnFee;\r\n  }\r\n\r\n  function calcFees(uint _value) public view returns (uint txFee, uint burn) {\r\n    txFee = _value.mul(transactionFee).div(1000000);\r\n    burn = _value.mul(burnFee).div(1000000);\r\n  }\r\n  function processTX(address _from, address _to, uint256 _value) external returns (uint txFee, uint burn) {\r\n    //enforce sender is verified\r\n    require(identity.isVerified(_from),\"Non verified citizens can't send funds\");\r\n    return calcFees(_value);\r\n  }\r\n\r\n  // The etherium amount the GoodDollarReserve has. Initiated in the deployment of the contract.\r\n  function poolBalance() public view returns(uint256) {\r\n    return address(this).balance;\r\n  }\r\n\r\n  function calculateAmountPurchased(uint256 _eth) public view returns(uint256) {\r\n    uint256 tokensForPrice = formula.calculatePurchaseReturn(\r\n        totalSupply(),\r\n        poolBalance(),\r\n        reserveRatio,\r\n        _eth\r\n    );\r\n\r\n    return tokensForPrice;\r\n  }\r\n\r\n  function calculatePriceForSale(uint256 _sellAmount) public view returns(uint256) {\r\n    uint256 ethAmount = formula.calculateSaleReturn(\r\n        totalSupply(),\r\n        poolBalance(),\r\n        reserveRatio,\r\n        _sellAmount\r\n    );\r\n\r\n    return ethAmount;\r\n  }\r\n\r\n  function buy() public payable returns(bool) {\r\n    require(msg.value > 0,\"value can't be 0\");\r\n    uint256 tokensToMint = formula.calculatePurchaseReturn(\r\n        totalSupply(),\r\n\r\n        // the function is payable. Means the money sent was *already reflected* in the poolBalance! (eth)\r\n        // But the user requested to buy according to the amount of poolBalance before he/she made the payment and changeed the formula\r\n          //when purchasing with eth the poolbalance is changed before this calculation\r\n\r\n        //so we have to consider this\r\n        poolBalance()-msg.value,\r\n        reserveRatio,\r\n        msg.value\r\n    );\r\n    token.mint(msg.sender, tokensToMint);\r\n\r\n    return true;\r\n  }\r\n\r\n  function sell(uint256 _sellAmount) public returns(bool){\r\n    require(_sellAmount > 0 && token.balanceOf(msg.sender) >= _sellAmount, \"Not enough balance or amount 0\");\r\n    uint256 ethAmount = formula.calculateSaleReturn(\r\n        totalSupply(),\r\n        poolBalance(),\r\n        reserveRatio,\r\n        _sellAmount\r\n    );\r\n\r\n    token.burn(_sellAmount);\r\n    msg.sender.transfer(ethAmount);\r\n\r\n    return true;\r\n  }\r\n\r\n  function totalSupply() public view returns (uint256) {\r\n    return token.totalSupply();\r\n  }\r\n\r\n  function mint(\r\n    address _account,\r\n    uint256 _amount\r\n  ) onlyOwner public returns (bool) {\r\n    token.mint(_account, _amount);\r\n\r\n    return true;\r\n  }\r\n}\r\n",
  "sourcePath": "C:\\Users\\hadarro\\Documents\\GoodDollar\\GoodContracts\\contracts\\GoodDollarReserve.sol",
  "compiler": {
    "name": "solc",
    "version": "0.5.0+commit.1d4f565a.Emscripten.clang"
  },
  "schemaVersion": "3.0.1",
  "updatedAt": "2019-02-20T10:52:46.463Z",
  "devdoc": {
    "methods": {
      "isOwner()": {
        "return": "true if `msg.sender` is the owner of the contract."
      },
      "owner()": {
        "return": "the address of the owner."
      },
      "renounceOwnership()": {
        "details": "Allows the current owner to relinquish control of the contract."
      },
      "transferOwnership(address)": {
        "details": "Allows the current owner to transfer control of the contract to a newOwner.",
        "params": {
          "newOwner": "The address to transfer ownership to."
        }
      }
    }
  },
  "userdoc": {
    "methods": {
      "renounceOwnership()": {
        "notice": "Renouncing to ownership will leave the contract without an owner. It will not be possible to call the functions with the `onlyOwner` modifier anymore."
      }
    }
  }
}