{
  "contractName": "GoodDollar",
  "abi": [
    {
      "constant": true,
      "inputs": [],
      "name": "name",
      "outputs": [
        {
          "name": "",
          "type": "string"
        }
      ],
      "payable": false,
      "stateMutability": "view",
      "type": "function"
    },
    {
      "constant": true,
      "inputs": [],
      "name": "totalSupply",
      "outputs": [
        {
          "name": "",
          "type": "uint256"
        }
      ],
      "payable": false,
      "stateMutability": "view",
      "type": "function"
    },
    {
      "constant": true,
      "inputs": [],
      "name": "identity",
      "outputs": [
        {
          "name": "",
          "type": "address"
        }
      ],
      "payable": false,
      "stateMutability": "view",
      "type": "function"
    },
    {
      "constant": true,
      "inputs": [],
      "name": "decimals",
      "outputs": [
        {
          "name": "",
          "type": "uint8"
        }
      ],
      "payable": false,
      "stateMutability": "view",
      "type": "function"
    },
    {
      "constant": true,
      "inputs": [],
      "name": "cap",
      "outputs": [
        {
          "name": "",
          "type": "uint256"
        }
      ],
      "payable": false,
      "stateMutability": "view",
      "type": "function"
    },
    {
      "constant": true,
      "inputs": [],
      "name": "formula",
      "outputs": [
        {
          "name": "",
          "type": "address"
        }
      ],
      "payable": false,
      "stateMutability": "view",
      "type": "function"
    },
    {
      "constant": false,
      "inputs": [
        {
          "name": "_identity",
          "type": "address"
        },
        {
          "name": "_avatar",
          "type": "address"
        }
      ],
      "name": "setIdentity",
      "outputs": [],
      "payable": false,
      "stateMutability": "nonpayable",
      "type": "function"
    },
    {
      "constant": true,
      "inputs": [
        {
          "name": "owner",
          "type": "address"
        }
      ],
      "name": "balanceOf",
      "outputs": [
        {
          "name": "",
          "type": "uint256"
        }
      ],
      "payable": false,
      "stateMutability": "view",
      "type": "function"
    },
    {
      "constant": false,
      "inputs": [],
      "name": "renounceOwnership",
      "outputs": [],
      "payable": false,
      "stateMutability": "nonpayable",
      "type": "function"
    },
    {
      "constant": false,
      "inputs": [
        {
          "name": "_formula",
          "type": "address"
        },
        {
          "name": "_avatar",
          "type": "address"
        }
      ],
      "name": "setFormula",
      "outputs": [],
      "payable": false,
      "stateMutability": "nonpayable",
      "type": "function"
    },
    {
      "constant": true,
      "inputs": [],
      "name": "owner",
      "outputs": [
        {
          "name": "",
          "type": "address"
        }
      ],
      "payable": false,
      "stateMutability": "view",
      "type": "function"
    },
    {
      "constant": true,
      "inputs": [],
      "name": "isOwner",
      "outputs": [
        {
          "name": "",
          "type": "bool"
        }
      ],
      "payable": false,
      "stateMutability": "view",
      "type": "function"
    },
    {
      "constant": true,
      "inputs": [],
      "name": "symbol",
      "outputs": [
        {
          "name": "",
          "type": "string"
        }
      ],
      "payable": false,
      "stateMutability": "view",
      "type": "function"
    },
    {
      "constant": false,
      "inputs": [
        {
          "name": "account",
          "type": "address"
        }
      ],
      "name": "addMinter",
      "outputs": [],
      "payable": false,
      "stateMutability": "nonpayable",
      "type": "function"
    },
    {
      "constant": false,
      "inputs": [],
      "name": "renounceMinter",
      "outputs": [],
      "payable": false,
      "stateMutability": "nonpayable",
      "type": "function"
    },
    {
      "constant": true,
      "inputs": [
        {
          "name": "account",
          "type": "address"
        }
      ],
      "name": "isMinter",
      "outputs": [
        {
          "name": "",
          "type": "bool"
        }
      ],
      "payable": false,
      "stateMutability": "view",
      "type": "function"
    },
    {
      "constant": true,
      "inputs": [
        {
          "name": "owner",
          "type": "address"
        },
        {
          "name": "spender",
          "type": "address"
        }
      ],
      "name": "allowance",
      "outputs": [
        {
          "name": "",
          "type": "uint256"
        }
      ],
      "payable": false,
      "stateMutability": "view",
      "type": "function"
    },
    {
      "constant": false,
      "inputs": [
        {
          "name": "newOwner",
          "type": "address"
        }
      ],
      "name": "transferOwnership",
      "outputs": [],
      "payable": false,
      "stateMutability": "nonpayable",
      "type": "function"
    },
    {
      "inputs": [
        {
          "name": "name",
          "type": "string"
        },
        {
          "name": "symbol",
          "type": "string"
        },
        {
          "name": "cap",
          "type": "uint256"
        },
        {
          "name": "formula",
          "type": "address"
        },
        {
          "name": "identity",
          "type": "address"
        },
        {
          "name": "feeRecipient",
          "type": "address"
        }
      ],
      "payable": false,
      "stateMutability": "nonpayable",
      "type": "constructor"
    },
    {
      "anonymous": false,
      "inputs": [
        {
          "indexed": true,
          "name": "account",
          "type": "address"
        }
      ],
      "name": "MinterAdded",
      "type": "event"
    },
    {
      "anonymous": false,
      "inputs": [
        {
          "indexed": true,
          "name": "account",
          "type": "address"
        }
      ],
      "name": "MinterRemoved",
      "type": "event"
    },
    {
      "anonymous": false,
      "inputs": [
        {
          "indexed": true,
          "name": "previousOwner",
          "type": "address"
        },
        {
          "indexed": true,
          "name": "newOwner",
          "type": "address"
        }
      ],
      "name": "OwnershipTransferred",
      "type": "event"
    },
    {
      "anonymous": false,
      "inputs": [
        {
          "indexed": true,
          "name": "from",
          "type": "address"
        },
        {
          "indexed": true,
          "name": "to",
          "type": "address"
        },
        {
          "indexed": false,
          "name": "value",
          "type": "uint256"
        }
      ],
      "name": "Transfer",
      "type": "event"
    },
    {
      "anonymous": false,
      "inputs": [
        {
          "indexed": true,
          "name": "owner",
          "type": "address"
        },
        {
          "indexed": true,
          "name": "spender",
          "type": "address"
        },
        {
          "indexed": false,
          "name": "value",
          "type": "uint256"
        }
      ],
      "name": "Approval",
      "type": "event"
    },
    {
      "anonymous": false,
      "inputs": [
        {
          "indexed": true,
          "name": "from",
          "type": "address"
        },
        {
          "indexed": true,
          "name": "to",
          "type": "address"
        },
        {
          "indexed": false,
          "name": "value",
          "type": "uint256"
        },
        {
          "indexed": false,
          "name": "data",
          "type": "bytes"
        }
      ],
      "name": "Transfer",
      "type": "event"
    },
    {
      "constant": false,
      "inputs": [
        {
          "name": "to",
          "type": "address"
        },
        {
          "name": "value",
          "type": "uint256"
        }
      ],
      "name": "transfer",
      "outputs": [
        {
          "name": "",
          "type": "bool"
        }
      ],
      "payable": false,
      "stateMutability": "nonpayable",
      "type": "function"
    },
    {
      "constant": false,
      "inputs": [
        {
          "name": "spender",
          "type": "address"
        },
        {
          "name": "value",
          "type": "uint256"
        }
      ],
      "name": "approve",
      "outputs": [
        {
          "name": "",
          "type": "bool"
        }
      ],
      "payable": false,
      "stateMutability": "nonpayable",
      "type": "function"
    },
    {
      "constant": false,
      "inputs": [
        {
          "name": "from",
          "type": "address"
        },
        {
          "name": "to",
          "type": "address"
        },
        {
          "name": "value",
          "type": "uint256"
        }
      ],
      "name": "transferFrom",
      "outputs": [
        {
          "name": "",
          "type": "bool"
        }
      ],
      "payable": false,
      "stateMutability": "nonpayable",
      "type": "function"
    },
    {
      "constant": false,
      "inputs": [
        {
          "name": "to",
          "type": "address"
        },
        {
          "name": "value",
          "type": "uint256"
        },
        {
          "name": "data",
          "type": "bytes"
        }
      ],
      "name": "transferAndCall",
      "outputs": [
        {
          "name": "",
          "type": "bool"
        }
      ],
      "payable": false,
      "stateMutability": "nonpayable",
      "type": "function"
    },
    {
      "constant": false,
      "inputs": [
        {
          "name": "to",
          "type": "address"
        },
        {
          "name": "value",
          "type": "uint256"
        }
      ],
      "name": "mint",
      "outputs": [
        {
          "name": "",
          "type": "bool"
        }
      ],
      "payable": false,
      "stateMutability": "nonpayable",
      "type": "function"
    },
    {
      "constant": false,
      "inputs": [
        {
          "name": "value",
          "type": "uint256"
        }
      ],
      "name": "burn",
      "outputs": [],
      "payable": false,
      "stateMutability": "nonpayable",
      "type": "function"
    },
    {
      "constant": false,
      "inputs": [
        {
          "name": "from",
          "type": "address"
        },
        {
          "name": "value",
          "type": "uint256"
        }
      ],
      "name": "burnFrom",
      "outputs": [],
      "payable": false,
      "stateMutability": "nonpayable",
      "type": "function"
    },
    {
      "constant": false,
      "inputs": [
        {
          "name": "spender",
          "type": "address"
        },
        {
          "name": "addedValue",
          "type": "uint256"
        }
      ],
      "name": "increaseAllowance",
      "outputs": [
        {
          "name": "",
          "type": "bool"
        }
      ],
      "payable": false,
      "stateMutability": "nonpayable",
      "type": "function"
    },
    {
      "constant": false,
      "inputs": [
        {
          "name": "spender",
          "type": "address"
        },
        {
          "name": "subtractedValue",
          "type": "uint256"
        }
      ],
      "name": "decreaseAllowance",
      "outputs": [
        {
          "name": "",
          "type": "bool"
        }
      ],
      "payable": false,
      "stateMutability": "nonpayable",
      "type": "function"
    },
    {
      "constant": true,
      "inputs": [
        {
          "name": "value",
          "type": "uint256"
        }
      ],
      "name": "getFees",
      "outputs": [
        {
          "name": "",
          "type": "uint256"
        }
      ],
      "payable": false,
      "stateMutability": "view",
      "type": "function"
    },
    {
      "constant": false,
      "inputs": [
        {
          "name": "feeRecipient",
          "type": "address"
        },
        {
          "name": "avatar",
          "type": "address"
        }
      ],
      "name": "setFeeRecipient",
      "outputs": [],
      "payable": false,
      "stateMutability": "nonpayable",
      "type": "function"
    }
  ],
  "bytecode": "0x60806040523480156200001157600080fd5b5060405162002d1f38038062002d1f833981018060405260c08110156200003757600080fd5b8101908080516401000000008111156200005057600080fd5b820160208101848111156200006457600080fd5b81516401000000008111828201871017156200007f57600080fd5b505092919060200180516401000000008111156200009c57600080fd5b82016020810184811115620000b057600080fd5b8151640100000000811182820187101715620000cb57600080fd5b50506020820151604080840151606085015160809095015160038054600160a060020a0319163317908190559251949750929550939284918491899189918991849184918491600160a060020a0391909116906000907f8be0079c531659141344cd1fd0a4f28419497f9722a3daafe3b4186f6b6457e0908290a382516200015b906004906020860190620003c3565b50815162000171906005906020850190620003c3565b506006555050505050600160a060020a0381161515620001f257604080517f08c379a000000000000000000000000000000000000000000000000000000000815260206004820152601960248201527f537570706c696564206964656e74697479206973206e756c6c00000000000000604482015290519081900360640190fd5b60078054600160a060020a031916600160a060020a03928316179055811615156200027e57604080517f08c379a000000000000000000000000000000000000000000000000000000000815260206004820152601860248201527f537570706c69656420666f726d756c61206973206e756c6c0000000000000000604482015290519081900360640190fd5b60088054600160a060020a031916600160a060020a0392909216919091179055620002b233640100000000620002de810204565b600a8054600160a060020a031916600160a060020a039290921691909117905550620004689350505050565b620002f9600982640100000000620027376200033082021704565b604051600160a060020a038216907f6ae172837ea30b801fbfcdd4108aa1d5bf8ff775444fd70256b44e6bf3dfc3f690600090a250565b600160a060020a03811615156200034657600080fd5b6200035b82826401000000006200038b810204565b156200036657600080fd5b600160a060020a0316600090815260209190915260409020805460ff19166001179055565b6000600160a060020a0382161515620003a357600080fd5b50600160a060020a03166000908152602091909152604090205460ff1690565b828054600181600116156101000203166002900490600052602060002090601f016020900481019282601f106200040657805160ff191683800117855562000436565b8280016001018555821562000436579182015b828111156200043657825182559160200191906001019062000419565b506200044492915062000448565b5090565b6200046591905b808211156200044457600081556001016200044f565b90565b6128a780620004786000396000f3fe608060405234801561001057600080fd5b50600436106101d35760003560e060020a9004806370a0823111610108578063983b2d56116100a6578063aa271e1a11610075578063aa271e1a146105b5578063d5a06d4c146105db578063dd62ed3e146105f8578063f2fde38b14610626576101d3565b8063983b2d561461052f5780639865027514610555578063a457c2d71461055d578063a9059cbb14610589576101d3565b8063804f1b04116100e2578063804f1b04146104e95780638da5cb5b146105175780638f32d59b1461051f57806395d89b4114610527576101d3565b806370a082311461048f578063715018a6146104b557806379cc6790146104bd576101d3565b8063355274ea1161017557806340c10f191161014f57806340c10f191461041057806342966c681461043c5780634b75f54f1461045957806360ee793814610461576101d3565b8063355274ea14610357578063395093511461035f5780634000aea01461038b576101d3565b806323b872dd116101b157806323b872dd146102af578063270401cb146102e55780632c159a1a14610315578063313ce56714610339576101d3565b806306fdde03146101d8578063095ea7b31461025557806318160ddd14610295575b600080fd5b6101e061064c565b6040805160208082528351818301528351919283929083019185019080838360005b8381101561021a578181015183820152602001610202565b50505050905090810190601f1680156102475780820380516001836020036101000a031916815260200191505b509250505060405180910390f35b6102816004803603604081101561026b57600080fd5b50600160a060020a0381351690602001356106da565b604080519115158252519081900360200190f35b61029d61086b565b60408051918252519081900360200190f35b610281600480360360608110156102c557600080fd5b50600160a060020a03813581169160208101359091169060400135610871565b610313600480360360408110156102fb57600080fd5b50600160a060020a0381358116916020013516610ad6565b005b61031d610cd1565b60408051600160a060020a039092168252519081900360200190f35b610341610ce0565b6040805160ff9092168252519081900360200190f35b61029d610ce5565b6102816004803603604081101561037557600080fd5b50600160a060020a038135169060200135610ceb565b610281600480360360608110156103a157600080fd5b600160a060020a03823516916020810135918101906060810160408201356401000000008111156103d157600080fd5b8201836020820111156103e357600080fd5b8035906020019184600183028401116401000000008311171561040557600080fd5b509092509050610e74565b6102816004803603604081101561042657600080fd5b50600160a060020a038135169060200135611042565b6103136004803603602081101561045257600080fd5b5035611194565b61031d61125d565b6103136004803603604081101561047757600080fd5b50600160a060020a038135811691602001351661126c565b61029d600480360360208110156104a557600080fd5b5035600160a060020a03166114bc565b6103136114d7565b610313600480360360408110156104d357600080fd5b50600160a060020a038135169060200135611541565b610313600480360360408110156104ff57600080fd5b50600160a060020a03813581169160200135166116cf565b61031d61191f565b61028161192e565b6101e061193f565b6103136004803603602081101561054557600080fd5b5035600160a060020a031661199a565b6103136119b7565b6102816004803603604081101561057357600080fd5b50600160a060020a0381351690602001356119c2565b6102816004803603604081101561059f57600080fd5b50600160a060020a038135169060200135611b4b565b610281600480360360208110156105cb57600080fd5b5035600160a060020a0316611ceb565b61029d600480360360208110156105f157600080fd5b5035611d04565b61029d6004803603604081101561060e57600080fd5b50600160a060020a0381358116916020013516611d9b565b6103136004803603602081101561063c57600080fd5b5035600160a060020a0316611dc6565b6004805460408051602060026001851615610100026000190190941693909304601f810184900484028201840190925281815292918301828280156106d25780601f106106a7576101008083540402835291602001916106d2565b820191906000526020600020905b8154815290600101906020018083116106b557829003601f168201915b505050505081565b6007546040805160e060020a63fe575a870281523360048201529051600092600160a060020a03169163fe575a87916024808301926020929190829003018186803b15801561072857600080fd5b505afa15801561073c573d6000803e3d6000fd5b505050506040513d602081101561075257600080fd5b505115610797576040805160e560020a62461bcd02815260206004820152601560248201526000805160206127f3833981519152604482015290519081900360640190fd5b6007546040805160e060020a63fe575a87028152600160a060020a03808716600483015291518693929092169163fe575a8791602480820192602092909190829003018186803b1580156107ea57600080fd5b505afa1580156107fe573d6000803e3d6000fd5b505050506040513d602081101561081457600080fd5b505115610859576040805160e560020a62461bcd028152602060048201526017602482015260008051602061283c833981519152604482015290519081900360640190fd5b6108638484611de2565b949350505050565b60025490565b6007546040805160e060020a63fe575a870281523360048201529051600092600160a060020a03169163fe575a87916024808301926020929190829003018186803b1580156108bf57600080fd5b505afa1580156108d3573d6000803e3d6000fd5b505050506040513d60208110156108e957600080fd5b50511561092e576040805160e560020a62461bcd02815260206004820152601560248201526000805160206127f3833981519152604482015290519081900360640190fd5b6007546040805160e060020a63fe575a87028152600160a060020a03808816600483015291518793929092169163fe575a8791602480820192602092909190829003018186803b15801561098157600080fd5b505afa158015610995573d6000803e3d6000fd5b505050506040513d60208110156109ab57600080fd5b5051156109f0576040805160e560020a62461bcd028152602060048201526017602482015260008051602061283c833981519152604482015290519081900360640190fd5b6007546040805160e060020a63fe575a87028152600160a060020a03808816600483015291518793929092169163fe575a8791602480820192602092909190829003018186803b158015610a4357600080fd5b505afa158015610a57573d6000803e3d6000fd5b505050506040513d6020811015610a6d57600080fd5b505115610ab2576040805160e560020a62461bcd028152602060048201526017602482015260008051602061283c833981519152604482015290519081900360640190fd5b6000610abe8786611e4e565b9050610acb878783611ed1565b979650505050505050565b8033600160a060020a038216148015610be6575030600160a060020a0316638da5cb5b6040518163ffffffff1660e060020a02815260040160206040518083038186803b158015610b2657600080fd5b505afa158015610b3a573d6000803e3d6000fd5b505050506040513d6020811015610b5057600080fd5b5051604080517f8da5cb5b0000000000000000000000000000000000000000000000000000000081529051600160a060020a0392831692841691638da5cb5b916004808301926020929190829003018186803b158015610baf57600080fd5b505afa158015610bc3573d6000803e3d6000fd5b505050506040513d6020811015610bd957600080fd5b5051600160a060020a0316145b80610c60575030600160a060020a0316638da5cb5b6040518163ffffffff1660e060020a02815260040160206040518083038186803b158015610c2857600080fd5b505afa158015610c3c573d6000803e3d6000fd5b505050506040513d6020811015610c5257600080fd5b5051600160a060020a031633145b1515610ca05760405160e560020a62461bcd0281526004018080602001828103825260298152602001806128136029913960400191505060405180910390fd5b5050600a805473ffffffffffffffffffffffffffffffffffffffff1916600160a060020a0392909216919091179055565b600754600160a060020a031681565b600281565b60065481565b6007546040805160e060020a63fe575a870281523360048201529051600092600160a060020a03169163fe575a87916024808301926020929190829003018186803b158015610d3957600080fd5b505afa158015610d4d573d6000803e3d6000fd5b505050506040513d6020811015610d6357600080fd5b505115610da8576040805160e560020a62461bcd02815260206004820152601560248201526000805160206127f3833981519152604482015290519081900360640190fd5b6007546040805160e060020a63fe575a87028152600160a060020a03808716600483015291518693929092169163fe575a8791602480820192602092909190829003018186803b158015610dfb57600080fd5b505afa158015610e0f573d6000803e3d6000fd5b505050506040513d6020811015610e2557600080fd5b505115610e6a576040805160e560020a62461bcd028152602060048201526017602482015260008051602061283c833981519152604482015290519081900360640190fd5b6108638484611f88565b6007546040805160e060020a63fe575a870281523360048201529051600092600160a060020a03169163fe575a87916024808301926020929190829003018186803b158015610ec257600080fd5b505afa158015610ed6573d6000803e3d6000fd5b505050506040513d6020811015610eec57600080fd5b505115610f31576040805160e560020a62461bcd02815260206004820152601560248201526000805160206127f3833981519152604482015290519081900360640190fd5b6007546040805160e060020a63fe575a87028152600160a060020a03808916600483015291518893929092169163fe575a8791602480820192602092909190829003018186803b158015610f8457600080fd5b505afa158015610f98573d6000803e3d6000fd5b505050506040513d6020811015610fae57600080fd5b505115610ff3576040805160e560020a62461bcd028152602060048201526017602482015260008051602061283c833981519152604482015290519081900360640190fd5b6000610fff3387611e4e565b9050610acb878287878080601f01602080910402602001604051908101604052809392919081815260200183838082843760009201919091525061202692505050565b600061104d33611ceb565b151561105857600080fd5b6007546040805160e060020a63fe575a87028152600160a060020a03808716600483015291518693929092169163fe575a8791602480820192602092909190829003018186803b1580156110ab57600080fd5b505afa1580156110bf573d6000803e3d6000fd5b505050506040513d60208110156110d557600080fd5b50511561111a576040805160e560020a62461bcd028152602060048201526017602482015260008051602061283c833981519152604482015290519081900360640190fd5b60006006541115611180576006546111408461113461086b565b9063ffffffff61210c16565b11156111805760405160e560020a62461bcd0281526004018080602001828103825260218152602001806127d26021913960400191505060405180910390fd5b61118a8484612125565b5060019392505050565b6007546040805160e060020a63fe575a870281523360048201529051600160a060020a039092169163fe575a8791602480820192602092909190829003018186803b1580156111e257600080fd5b505afa1580156111f6573d6000803e3d6000fd5b505050506040513d602081101561120c57600080fd5b505115611251576040805160e560020a62461bcd02815260206004820152601560248201526000805160206127f3833981519152604482015290519081900360640190fd5b61125a816121cf565b50565b600854600160a060020a031681565b8033600160a060020a03821614801561137c575030600160a060020a0316638da5cb5b6040518163ffffffff1660e060020a02815260040160206040518083038186803b1580156112bc57600080fd5b505afa1580156112d0573d6000803e3d6000fd5b505050506040513d60208110156112e657600080fd5b5051604080517f8da5cb5b0000000000000000000000000000000000000000000000000000000081529051600160a060020a0392831692841691638da5cb5b916004808301926020929190829003018186803b15801561134557600080fd5b505afa158015611359573d6000803e3d6000fd5b505050506040513d602081101561136f57600080fd5b5051600160a060020a0316145b806113f6575030600160a060020a0316638da5cb5b6040518163ffffffff1660e060020a02815260040160206040518083038186803b1580156113be57600080fd5b505afa1580156113d2573d6000803e3d6000fd5b505050506040513d60208110156113e857600080fd5b5051600160a060020a031633145b15156114365760405160e560020a62461bcd0281526004018080602001828103825260298152602001806128136029913960400191505060405180910390fd5b82600160a060020a031663223668446040518163ffffffff1660e060020a02815260040160006040518083038186803b15801561147257600080fd5b505afa158015611486573d6000803e3d6000fd5b50506007805473ffffffffffffffffffffffffffffffffffffffff1916600160a060020a03969096169590951790945550505050565b600160a060020a031660009081526020819052604090205490565b6114df61192e565b15156114ea57600080fd5b600354604051600091600160a060020a0316907f8be0079c531659141344cd1fd0a4f28419497f9722a3daafe3b4186f6b6457e0908390a36003805473ffffffffffffffffffffffffffffffffffffffff19169055565b6007546040805160e060020a63fe575a870281523360048201529051600160a060020a039092169163fe575a8791602480820192602092909190829003018186803b15801561158f57600080fd5b505afa1580156115a3573d6000803e3d6000fd5b505050506040513d60208110156115b957600080fd5b5051156115fe576040805160e560020a62461bcd02815260206004820152601560248201526000805160206127f3833981519152604482015290519081900360640190fd5b6007546040805160e060020a63fe575a87028152600160a060020a03808616600483015291518593929092169163fe575a8791602480820192602092909190829003018186803b15801561165157600080fd5b505afa158015611665573d6000803e3d6000fd5b505050506040513d602081101561167b57600080fd5b5051156116c0576040805160e560020a62461bcd028152602060048201526017602482015260008051602061283c833981519152604482015290519081900360640190fd5b6116ca83836121d9565b505050565b8033600160a060020a0382161480156117df575030600160a060020a0316638da5cb5b6040518163ffffffff1660e060020a02815260040160206040518083038186803b15801561171f57600080fd5b505afa158015611733573d6000803e3d6000fd5b505050506040513d602081101561174957600080fd5b5051604080517f8da5cb5b0000000000000000000000000000000000000000000000000000000081529051600160a060020a0392831692841691638da5cb5b916004808301926020929190829003018186803b1580156117a857600080fd5b505afa1580156117bc573d6000803e3d6000fd5b505050506040513d60208110156117d257600080fd5b5051600160a060020a0316145b80611859575030600160a060020a0316638da5cb5b6040518163ffffffff1660e060020a02815260040160206040518083038186803b15801561182157600080fd5b505afa158015611835573d6000803e3d6000fd5b505050506040513d602081101561184b57600080fd5b5051600160a060020a031633145b15156118995760405160e560020a62461bcd0281526004018080602001828103825260298152602001806128136029913960400191505060405180910390fd5b82600160a060020a031663223668446040518163ffffffff1660e060020a02815260040160006040518083038186803b1580156118d557600080fd5b505afa1580156118e9573d6000803e3d6000fd5b50506008805473ffffffffffffffffffffffffffffffffffffffff1916600160a060020a03969096169590951790945550505050565b600354600160a060020a031690565b600354600160a060020a0316331490565b6005805460408051602060026001851615610100026000190190941693909304601f810184900484028201840190925281815292918301828280156106d25780601f106106a7576101008083540402835291602001916106d2565b6119a333611ceb565b15156119ae57600080fd5b61125a816121e7565b6119c03361222f565b565b6007546040805160e060020a63fe575a870281523360048201529051600092600160a060020a03169163fe575a87916024808301926020929190829003018186803b158015611a1057600080fd5b505afa158015611a24573d6000803e3d6000fd5b505050506040513d6020811015611a3a57600080fd5b505115611a7f576040805160e560020a62461bcd02815260206004820152601560248201526000805160206127f3833981519152604482015290519081900360640190fd5b6007546040805160e060020a63fe575a87028152600160a060020a03808716600483015291518693929092169163fe575a8791602480820192602092909190829003018186803b158015611ad257600080fd5b505afa158015611ae6573d6000803e3d6000fd5b505050506040513d6020811015611afc57600080fd5b505115611b41576040805160e560020a62461bcd028152602060048201526017602482015260008051602061283c833981519152604482015290519081900360640190fd5b6108638484612277565b6007546040805160e060020a63fe575a870281523360048201529051600092600160a060020a03169163fe575a87916024808301926020929190829003018186803b158015611b9957600080fd5b505afa158015611bad573d6000803e3d6000fd5b505050506040513d6020811015611bc357600080fd5b505115611c08576040805160e560020a62461bcd02815260206004820152601560248201526000805160206127f3833981519152604482015290519081900360640190fd5b6007546040805160e060020a63fe575a87028152600160a060020a03808716600483015291518693929092169163fe575a8791602480820192602092909190829003018186803b158015611c5b57600080fd5b505afa158015611c6f573d6000803e3d6000fd5b505050506040513d6020811015611c8557600080fd5b505115611cca576040805160e560020a62461bcd028152602060048201526017602482015260008051602061283c833981519152604482015290519081900360640190fd5b6000611cd63385611e4e565b9050611ce285826122c2565b95945050505050565b6000611cfe60098363ffffffff6122d816565b92915050565b600854604080517fcb733bb9000000000000000000000000000000000000000000000000000000008152600481018490529051600092600160a060020a03169163cb733bb9916024808301926020929190829003018186803b158015611d6957600080fd5b505afa158015611d7d573d6000803e3d6000fd5b505050506040513d6020811015611d9357600080fd5b505192915050565b600160a060020a03918216600090815260016020908152604080832093909416825291909152205490565b611dce61192e565b1515611dd957600080fd5b61125a8161230f565b6000600160a060020a0383161515611df957600080fd5b336000818152600160209081526040808320600160a060020a038816808552908352928190208690558051868152905192939260008051602061285c833981519152929181900390910190a350600192915050565b6000611e593361238d565b1515611ecb576000611e6a83611d04565b9050600160a060020a038416331415611e9957600a54611e9390600160a060020a0316826122c2565b50611eb3565b600a54611eb1908590600160a060020a031683611ed1565b505b611ec3838263ffffffff61239516565b915050611cfe565b50919050565b600160a060020a0383166000908152600160209081526040808320338452909152812054611f05908363ffffffff61239516565b600160a060020a0385166000908152600160209081526040808320338452909152902055611f348484846123aa565b600160a060020a03841660008181526001602090815260408083203380855290835292819020548151908152905192939260008051602061285c833981519152929181900390910190a35060019392505050565b6000600160a060020a0383161515611f9f57600080fd5b336000908152600160209081526040808320600160a060020a0387168452909152902054611fd3908363ffffffff61210c16565b336000818152600160209081526040808320600160a060020a03891680855290835292819020859055805194855251919360008051602061285c833981519152929081900390910190a350600192915050565b600061203284846122c2565b5083600160a060020a031633600160a060020a03167fe19260aff97b920c7df27010903aeb9c8d2be5d310a2c67824cf3f15396e4c1685856040518083815260200180602001828103825283818151815260200191508051906020019080838360005b838110156120ad578181015183820152602001612095565b50505050905090810190601f1680156120da5780820380516001836020036101000a031916815260200191505b50935050505060405180910390a36120f18461238d565b1561118a57612101848484612477565b151561118a57600080fd5b60008282018381101561211e57600080fd5b9392505050565b600160a060020a038216151561213a57600080fd5b60025461214d908263ffffffff61210c16565b600255600160a060020a038216600090815260208190526040902054612179908263ffffffff61210c16565b600160a060020a0383166000818152602081815260408083209490945583518581529351929391927fddf252ad1be2c89b69c2b068fc378daa952ba7f163c4a11628f55a4df523b3ef9281900390910190a35050565b61125a33826125de565b6121e38282612687565b5050565b6121f860098263ffffffff61273716565b604051600160a060020a038216907f6ae172837ea30b801fbfcdd4108aa1d5bf8ff775444fd70256b44e6bf3dfc3f690600090a250565b61224060098263ffffffff61278516565b604051600160a060020a038216907fe94479a9f7e1952cc78f2d6baab678adc1b772d936c6583def489e524cb6669290600090a250565b6000600160a060020a038316151561228e57600080fd5b336000908152600160209081526040808320600160a060020a0387168452909152902054611fd3908363ffffffff61239516565b60006122cf3384846123aa565b50600192915050565b6000600160a060020a03821615156122ef57600080fd5b50600160a060020a03166000908152602091909152604090205460ff1690565b600160a060020a038116151561232457600080fd5b600354604051600160a060020a038084169216907f8be0079c531659141344cd1fd0a4f28419497f9722a3daafe3b4186f6b6457e090600090a36003805473ffffffffffffffffffffffffffffffffffffffff1916600160a060020a0392909216919091179055565b6000903b1190565b6000828211156123a457600080fd5b50900390565b600160a060020a03821615156123bf57600080fd5b600160a060020a0383166000908152602081905260409020546123e8908263ffffffff61239516565b600160a060020a03808516600090815260208190526040808220939093559084168152205461241d908263ffffffff61210c16565b600160a060020a038084166000818152602081815260409182902094909455805185815290519193928716927fddf252ad1be2c89b69c2b068fc378daa952ba7f163c4a11628f55a4df523b3ef92918290030190a3505050565b6040517fa4c0ed360000000000000000000000000000000000000000000000000000000081523360048201818152602483018590526060604484019081528451606485015284516000948894600160a060020a0386169463a4c0ed369491938a938a939160849091019060208501908083838e5b838110156125035781810151838201526020016124eb565b50505050905090810190601f1680156125305780820380516001836020036101000a031916815260200191505b50945050505050602060405180830381600087803b15801561255157600080fd5b505af1158015612565573d6000803e3d6000fd5b505050506040513d602081101561257b57600080fd5b505115156125d3576040805160e560020a62461bcd02815260206004820152601860248201527f436f6e74726163742046616c6c6261636b206661696c65640000000000000000604482015290519081900360640190fd5b506001949350505050565b600160a060020a03821615156125f357600080fd5b600254612606908263ffffffff61239516565b600255600160a060020a038216600090815260208190526040902054612632908263ffffffff61239516565b600160a060020a038316600081815260208181526040808320949094558351858152935191937fddf252ad1be2c89b69c2b068fc378daa952ba7f163c4a11628f55a4df523b3ef929081900390910190a35050565b600160a060020a03821660009081526001602090815260408083203384529091529020546126bb908263ffffffff61239516565b600160a060020a03831660009081526001602090815260408083203384529091529020556126e982826125de565b600160a060020a03821660008181526001602090815260408083203380855290835292819020548151908152905192939260008051602061285c833981519152929181900390910190a35050565b600160a060020a038116151561274c57600080fd5b61275682826122d8565b1561276057600080fd5b600160a060020a0316600090815260209190915260409020805460ff19166001179055565b600160a060020a038116151561279a57600080fd5b6127a482826122d8565b15156127af57600080fd5b600160a060020a0316600090815260209190915260409020805460ff1916905556fe43616e6e6f7420696e63726561736520737570706c79206265796f6e642063617043616c6c657220697320626c61636b6c697374656400000000000000000000004f6e6c792063616c6c61626c6520627920617661746172206f66206f776e6572206f72206f776e6572526563656976657220697320626c61636b6c69737465640000000000000000008c5be1e5ebec7d5bd14f71427d1e84f3dd0314c0f7b2291e5b200ac8c7c3b925a165627a7a72305820c5e4ba4c2e7b904bc9d8b1daad75b8a635085dadec70d4247db519b975e2a6ed0029",
  "source": "pragma solidity ^0.5.2;\nimport \"openzeppelin-solidity/contracts/access/roles/MinterRole.sol\";\n\nimport \"../identity/IdentityGuard.sol\";\nimport \"../dao/schemes/FormulaHolder.sol\";\n\nimport \"./ERC677Token.sol\";\n\n\n/** @title The GoodDollar contract */\ncontract GoodDollar is ERC677Token, IdentityGuard, FormulaHolder, MinterRole {\n\n    address _feeRecipient;\n    uint8 public constant decimals = 2;\n\n    /**\n     * @param name The name of the token\n     * @param symbol The symbol of the token\n     * @param cap the cap of the token. no cap if 0\n     * @param identity the identity contract\n     * @param feeRecipient the address that recieves transaction fees\n     */\n    constructor(\n        string memory name,\n        string memory symbol,\n        uint256 cap,\n        FeeFormula formula,\n        Identity identity,\n        address feeRecipient\n    )\n        public\n        ERC677Token(name, symbol, cap)\n        IdentityGuard(identity)\n        FormulaHolder(formula)\n    {\n        _feeRecipient = feeRecipient;\n    }\n\n    /**\n     * @dev Processes fees from given value and sends\n     * remainder to given address\n     * @param to the address to be sent to\n     * @param value the value to be processed and then\n     * transferred\n     * @return a boolean that indicates if the operation was successful\n     */\n    function transfer(address to, uint256 value)\n        public\n        onlyNotBlacklisted\n        requireNotBlacklisted(to)\n        returns (bool)\n    {\n        uint256 bruttoValue = processFees(msg.sender, value);\n        return super.transfer(to, bruttoValue);\n    }\n\n    /**\n     * @dev Approve the passed address to spend the specified\n     * amount of tokens on behalf of msg.sender\n     * @param spender The address which will spend the funds\n     * @param value The amount of tokens to be spent\n     * @return a boolean that indicates if the operation was successful\n     */\n    function approve(\n        address spender,\n        uint256 value\n    )\n        public\n        onlyNotBlacklisted\n        requireNotBlacklisted(spender)\n        returns (bool)\n    {\n        return super.approve(spender, value);\n    }\n\n    /**\n     * @dev Transfer tokens from one address to another\n     * @param from The address which you want to send tokens from\n     * @param to The address which you want to transfer to\n     * @param value the amount of tokens to be transferred\n     * @return a boolean that indicates if the operation was successful\n     */\n    function transferFrom(\n        address from,\n        address to,\n        uint256 value\n    )\n        public\n        onlyNotBlacklisted\n        requireNotBlacklisted(from)\n        requireNotBlacklisted(to)\n        returns (bool)\n    {\n        uint256 bruttoValue = processFees(from, value);\n        return super.transferFrom(from, to, bruttoValue);\n    }\n\n    function transferAndCall(address to, uint value, bytes calldata data)\n        external\n        onlyNotBlacklisted\n        requireNotBlacklisted(to)\n        returns (bool)\n    {\n        uint256 bruttoValue = processFees(msg.sender, value);\n        return super._transferAndCall(to, bruttoValue, data);\n    }\n\n    /**\n     * @dev Minting function\n     * @param to the address that will receive the minted tokens\n     * @param value the amount of tokens to mint\n     * @return a boolean that indicated if the operation was successful\n     */\n    function mint(address to, uint256 value)\n        public\n        onlyMinter\n        requireNotBlacklisted(to)\n        returns (bool)\n    {\n        if (cap > 0)\n            require(totalSupply().add(value) <= cap, \"Cannot increase supply beyond cap\");\n        super._mint(to, value);\n        return true;\n    }\n\n    /**\n     * @dev Burns a specific amount of tokens.\n     * @param value The amount of token to be burned.\n     */\n    function burn(uint256 value) public onlyNotBlacklisted {\n        super.burn(value);\n    }\n\n    /**\n     * @dev Burns a specific amount of tokens from the target address and decrements allowance\n     * @param from address The address which you want to send tokens from\n     * @param value uint256 The amount of token to be burned\n     */\n    function burnFrom(address from, uint256 value)\n        public\n        onlyNotBlacklisted\n        requireNotBlacklisted(from)\n    {\n        super.burnFrom(from, value);\n    }\n\n    /**\n     * @dev Increase the amount of tokens that an owner allows a spender\n     * @param spender The address which will spend the funds\n     * @param addedValue The amount of tokens to increase the allowance by\n     * @return a boolean that indicated if the operation was successful\n     */\n    function increaseAllowance(address spender, uint256 addedValue)\n        public\n        onlyNotBlacklisted\n        requireNotBlacklisted(spender)\n        returns (bool)\n    {\n        return super.increaseAllowance(spender, addedValue);\n    }\n\n    /**\n     * @dev Decrease the amount of tokens that an owner allowed to a spender\n     * @param spender The address which will spend the funds\n     * @param subtractedValue The amount of tokens to decrease the allowance by\n     * @return a boolean that indicated if the operation was successful\n     */\n    function decreaseAllowance(address spender, uint256 subtractedValue)\n        public\n        onlyNotBlacklisted\n        requireNotBlacklisted(spender)\n        returns (bool)\n    {\n        return super.decreaseAllowance(spender, subtractedValue);\n    }\n\n    /**\n     * @dev Gets the current transaction fees\n     * @return an uint256 that represents\n     * the current transaction fees\n     */\n    function getFees(uint256 value)\n        public\n        view\n        returns (uint256)\n    {\n        return formula.getTxFees(value);\n    }\n\n    /**\n     * @dev Sets the address that receives the transactional fees\n     * @param feeRecipient The new address to receive transactional fees\n     */\n    function setFeeRecipient(address feeRecipient, Avatar avatar)\n        public\n        onlyOwnerOrAvatar(avatar)\n    {\n        _feeRecipient = feeRecipient;\n    }\n\n    /**\n     * @dev Sends transactional fees to _feeRecipient address from given address\n     * @param account The account that sends the fees\n     * @param value The amount to subtract fees from\n     * @return an uint256 that represents the given value minus the transactional fees\n     */\n    function processFees(address account, uint256 value)\n        internal\n        returns (uint256)\n    {\n        if (!super.isContract(msg.sender)) {\n            uint256 txFees = getFees(value);\n            if (account == msg.sender) {\n                super.transfer(_feeRecipient, txFees);\n            } else {\n                super.transferFrom(account, _feeRecipient, txFees);\n            }\n            return value.sub(txFees);\n        }\n        return value;\n    }\n}",
  "sourcePath": "/Users/madsjorgensen/Documents/Work/GoodContracts/contracts/token/GoodDollar.sol",
  "compiler": {
    "name": "solc",
    "version": "0.5.4+commit.9549d8ff.Emscripten.clang"
  },
  "schemaVersion": "3.0.11",
  "updatedAt": "2019-09-23T09:22:14.783Z",
  "devdoc": {
    "methods": {
      "allowance(address,address)": {
        "details": "Function to check the amount of tokens that an owner allowed to a spender.",
        "params": {
          "owner": "address The address which owns the funds.",
          "spender": "address The address which will spend the funds."
        },
        "return": "A uint256 specifying the amount of tokens still available for the spender."
      },
      "approve(address,uint256)": {
        "details": "Approve the passed address to spend the specified amount of tokens on behalf of msg.sender",
        "params": {
          "spender": "The address which will spend the funds",
          "value": "The amount of tokens to be spent"
        },
        "return": "a boolean that indicates if the operation was successful"
      },
      "balanceOf(address)": {
        "details": "Gets the balance of the specified address.",
        "params": {
          "owner": "The address to query the balance of."
        },
        "return": "An uint256 representing the amount owned by the passed address."
      },
      "burn(uint256)": {
        "details": "Burns a specific amount of tokens.",
        "params": {
          "value": "The amount of token to be burned."
        }
      },
      "burnFrom(address,uint256)": {
        "details": "Burns a specific amount of tokens from the target address and decrements allowance",
        "params": {
          "from": "address The address which you want to send tokens from",
          "value": "uint256 The amount of token to be burned"
        }
      },
      "constructor": {
        "params": {
          "cap": "the cap of the token. no cap if 0",
          "feeRecipient": "the address that recieves transaction fees",
          "identity": "the identity contract",
          "name": "The name of the token",
          "symbol": "The symbol of the token"
        }
      },
      "decreaseAllowance(address,uint256)": {
        "details": "Decrease the amount of tokens that an owner allowed to a spender",
        "params": {
          "spender": "The address which will spend the funds",
          "subtractedValue": "The amount of tokens to decrease the allowance by"
        },
        "return": "a boolean that indicated if the operation was successful"
      },
      "getFees(uint256)": {
        "details": "Gets the current transaction fees",
        "return": "an uint256 that represents the current transaction fees"
      },
      "increaseAllowance(address,uint256)": {
        "details": "Increase the amount of tokens that an owner allows a spender",
        "params": {
          "addedValue": "The amount of tokens to increase the allowance by",
          "spender": "The address which will spend the funds"
        },
        "return": "a boolean that indicated if the operation was successful"
      },
      "isOwner()": {
        "return": "true if `msg.sender` is the owner of the contract."
      },
      "mint(address,uint256)": {
        "details": "Minting function",
        "params": {
          "to": "the address that will receive the minted tokens",
          "value": "the amount of tokens to mint"
        },
        "return": "a boolean that indicated if the operation was successful"
      },
      "owner()": {
        "return": "the address of the owner."
      },
      "renounceOwnership()": {
        "details": "Allows the current owner to relinquish control of the contract."
      },
      "setFeeRecipient(address,address)": {
        "details": "Sets the address that receives the transactional fees",
        "params": {
          "feeRecipient": "The new address to receive transactional fees"
        }
      },
      "totalSupply()": {
        "details": "Total number of tokens in existence"
      },
      "transfer(address,uint256)": {
        "details": "Processes fees from given value and sends remainder to given address",
        "params": {
          "to": "the address to be sent to",
          "value": "the value to be processed and then transferred"
        },
        "return": "a boolean that indicates if the operation was successful"
      },
      "transferFrom(address,address,uint256)": {
        "details": "Transfer tokens from one address to another",
        "params": {
          "from": "The address which you want to send tokens from",
          "to": "The address which you want to transfer to",
          "value": "the amount of tokens to be transferred"
        },
        "return": "a boolean that indicates if the operation was successful"
      },
      "transferOwnership(address)": {
        "details": "Allows the current owner to transfer control of the contract to a newOwner.",
        "params": {
          "newOwner": "The address to transfer ownership to."
        }
      }
    },
    "title": "The GoodDollar contract "
  },
  "userdoc": {
    "methods": {
      "renounceOwnership()": {
        "notice": "Renouncing to ownership will leave the contract without an owner. It will not be possible to call the functions with the `onlyOwner` modifier anymore."
      }
    }
  }
}