{
  "contractName": "GoodDollar",
  "abi": [
    {
      "constant": true,
      "inputs": [],
      "name": "populatedMarket",
      "outputs": [
        {
          "name": "",
          "type": "bool"
        }
      ],
      "payable": false,
      "stateMutability": "view",
      "type": "function"
    },
    {
      "constant": true,
      "inputs": [],
      "name": "name",
      "outputs": [
        {
          "name": "",
          "type": "string"
        }
      ],
      "payable": false,
      "stateMutability": "view",
      "type": "function"
    },
    {
      "constant": false,
      "inputs": [
        {
          "name": "spender",
          "type": "address"
        },
        {
          "name": "value",
          "type": "uint256"
        }
      ],
      "name": "approve",
      "outputs": [
        {
          "name": "",
          "type": "bool"
        }
      ],
      "payable": false,
      "stateMutability": "nonpayable",
      "type": "function"
    },
    {
      "constant": true,
      "inputs": [],
      "name": "totalSupply",
      "outputs": [
        {
          "name": "",
          "type": "uint256"
        }
      ],
      "payable": false,
      "stateMutability": "view",
      "type": "function"
    },
    {
      "constant": false,
      "inputs": [
        {
          "name": "from",
          "type": "address"
        },
        {
          "name": "to",
          "type": "address"
        },
        {
          "name": "value",
          "type": "uint256"
        }
      ],
      "name": "transferFrom",
      "outputs": [
        {
          "name": "",
          "type": "bool"
        }
      ],
      "payable": false,
      "stateMutability": "nonpayable",
      "type": "function"
    },
    {
      "constant": true,
      "inputs": [],
      "name": "decimals",
      "outputs": [
        {
          "name": "",
          "type": "uint8"
        }
      ],
      "payable": false,
      "stateMutability": "view",
      "type": "function"
    },
    {
      "constant": false,
      "inputs": [
        {
          "name": "spender",
          "type": "address"
        },
        {
          "name": "addedValue",
          "type": "uint256"
        }
      ],
      "name": "increaseAllowance",
      "outputs": [
        {
          "name": "",
          "type": "bool"
        }
      ],
      "payable": false,
      "stateMutability": "nonpayable",
      "type": "function"
    },
    {
      "constant": false,
      "inputs": [
        {
          "name": "_to",
          "type": "address"
        },
        {
          "name": "_value",
          "type": "uint256"
        },
        {
          "name": "_data",
          "type": "bytes"
        }
      ],
      "name": "transferAndCall",
      "outputs": [
        {
          "name": "",
          "type": "bool"
        }
      ],
      "payable": true,
      "stateMutability": "payable",
      "type": "function"
    },
    {
      "constant": false,
      "inputs": [
        {
          "name": "to",
          "type": "address"
        },
        {
          "name": "value",
          "type": "uint256"
        }
      ],
      "name": "mint",
      "outputs": [
        {
          "name": "",
          "type": "bool"
        }
      ],
      "payable": false,
      "stateMutability": "nonpayable",
      "type": "function"
    },
    {
      "constant": false,
      "inputs": [
        {
          "name": "value",
          "type": "uint256"
        }
      ],
      "name": "burn",
      "outputs": [],
      "payable": false,
      "stateMutability": "nonpayable",
      "type": "function"
    },
    {
      "constant": true,
      "inputs": [
        {
          "name": "",
          "type": "address"
        }
      ],
      "name": "last_claimed",
      "outputs": [
        {
          "name": "",
          "type": "uint256"
        }
      ],
      "payable": false,
      "stateMutability": "view",
      "type": "function"
    },
    {
      "constant": true,
      "inputs": [
        {
          "name": "owner",
          "type": "address"
        }
      ],
      "name": "balanceOf",
      "outputs": [
        {
          "name": "",
          "type": "uint256"
        }
      ],
      "payable": false,
      "stateMutability": "view",
      "type": "function"
    },
    {
      "constant": false,
      "inputs": [],
      "name": "renounceOwnership",
      "outputs": [],
      "payable": false,
      "stateMutability": "nonpayable",
      "type": "function"
    },
    {
      "constant": false,
      "inputs": [
        {
          "name": "from",
          "type": "address"
        },
        {
          "name": "value",
          "type": "uint256"
        }
      ],
      "name": "burnFrom",
      "outputs": [],
      "payable": false,
      "stateMutability": "nonpayable",
      "type": "function"
    },
    {
      "constant": true,
      "inputs": [],
      "name": "owner",
      "outputs": [
        {
          "name": "",
          "type": "address"
        }
      ],
      "payable": false,
      "stateMutability": "view",
      "type": "function"
    },
    {
      "constant": true,
      "inputs": [],
      "name": "isOwner",
      "outputs": [
        {
          "name": "",
          "type": "bool"
        }
      ],
      "payable": false,
      "stateMutability": "view",
      "type": "function"
    },
    {
      "constant": false,
      "inputs": [
        {
          "name": "_spender",
          "type": "address"
        },
        {
          "name": "_addedValue",
          "type": "uint256"
        },
        {
          "name": "_data",
          "type": "bytes"
        }
      ],
      "name": "increaseApprovalAndCall",
      "outputs": [
        {
          "name": "",
          "type": "bool"
        }
      ],
      "payable": true,
      "stateMutability": "payable",
      "type": "function"
    },
    {
      "constant": true,
      "inputs": [],
      "name": "symbol",
      "outputs": [
        {
          "name": "",
          "type": "string"
        }
      ],
      "payable": false,
      "stateMutability": "view",
      "type": "function"
    },
    {
      "constant": false,
      "inputs": [
        {
          "name": "account",
          "type": "address"
        }
      ],
      "name": "addMinter",
      "outputs": [],
      "payable": false,
      "stateMutability": "nonpayable",
      "type": "function"
    },
    {
      "constant": false,
      "inputs": [],
      "name": "renounceMinter",
      "outputs": [],
      "payable": false,
      "stateMutability": "nonpayable",
      "type": "function"
    },
    {
      "constant": false,
      "inputs": [
        {
          "name": "spender",
          "type": "address"
        },
        {
          "name": "subtractedValue",
          "type": "uint256"
        }
      ],
      "name": "decreaseAllowance",
      "outputs": [
        {
          "name": "",
          "type": "bool"
        }
      ],
      "payable": false,
      "stateMutability": "nonpayable",
      "type": "function"
    },
    {
      "constant": false,
      "inputs": [
        {
          "name": "to",
          "type": "address"
        },
        {
          "name": "value",
          "type": "uint256"
        }
      ],
      "name": "transfer",
      "outputs": [
        {
          "name": "",
          "type": "bool"
        }
      ],
      "payable": false,
      "stateMutability": "nonpayable",
      "type": "function"
    },
    {
      "constant": true,
      "inputs": [
        {
          "name": "account",
          "type": "address"
        }
      ],
      "name": "isMinter",
      "outputs": [
        {
          "name": "",
          "type": "bool"
        }
      ],
      "payable": false,
      "stateMutability": "view",
      "type": "function"
    },
    {
      "constant": false,
      "inputs": [
        {
          "name": "_from",
          "type": "address"
        },
        {
          "name": "_to",
          "type": "address"
        },
        {
          "name": "_value",
          "type": "uint256"
        },
        {
          "name": "_data",
          "type": "bytes"
        }
      ],
      "name": "transferFromAndCall",
      "outputs": [
        {
          "name": "",
          "type": "bool"
        }
      ],
      "payable": true,
      "stateMutability": "payable",
      "type": "function"
    },
    {
      "constant": false,
      "inputs": [
        {
          "name": "_spender",
          "type": "address"
        },
        {
          "name": "_value",
          "type": "uint256"
        },
        {
          "name": "_data",
          "type": "bytes"
        }
      ],
      "name": "approveAndCall",
      "outputs": [
        {
          "name": "",
          "type": "bool"
        }
      ],
      "payable": true,
      "stateMutability": "payable",
      "type": "function"
    },
    {
      "constant": false,
      "inputs": [
        {
          "name": "_spender",
          "type": "address"
        },
        {
          "name": "_subtractedValue",
          "type": "uint256"
        },
        {
          "name": "_data",
          "type": "bytes"
        }
      ],
      "name": "decreaseApprovalAndCall",
      "outputs": [
        {
          "name": "",
          "type": "bool"
        }
      ],
      "payable": true,
      "stateMutability": "payable",
      "type": "function"
    },
    {
      "constant": true,
      "inputs": [
        {
          "name": "owner",
          "type": "address"
        },
        {
          "name": "spender",
          "type": "address"
        }
      ],
      "name": "allowance",
      "outputs": [
        {
          "name": "",
          "type": "uint256"
        }
      ],
      "payable": false,
      "stateMutability": "view",
      "type": "function"
    },
    {
      "constant": false,
      "inputs": [
        {
          "name": "newOwner",
          "type": "address"
        }
      ],
      "name": "transferOwnership",
      "outputs": [],
      "payable": false,
      "stateMutability": "nonpayable",
      "type": "function"
    },
    {
      "inputs": [
        {
          "name": "name",
          "type": "string"
        },
        {
          "name": "symbol",
          "type": "string"
        },
        {
          "name": "decimals",
          "type": "uint8"
        },
        {
          "name": "minters",
          "type": "address[]"
        }
      ],
      "payable": false,
      "stateMutability": "nonpayable",
      "type": "constructor"
    },
    {
      "anonymous": false,
      "inputs": [],
      "name": "PopulatedMarket",
      "type": "event"
    },
    {
      "anonymous": false,
      "inputs": [
        {
          "indexed": true,
          "name": "previousOwner",
          "type": "address"
        },
        {
          "indexed": true,
          "name": "newOwner",
          "type": "address"
        }
      ],
      "name": "OwnershipTransferred",
      "type": "event"
    },
    {
      "anonymous": false,
      "inputs": [
        {
          "indexed": true,
          "name": "account",
          "type": "address"
        }
      ],
      "name": "MinterAdded",
      "type": "event"
    },
    {
      "anonymous": false,
      "inputs": [
        {
          "indexed": true,
          "name": "account",
          "type": "address"
        }
      ],
      "name": "MinterRemoved",
      "type": "event"
    },
    {
      "anonymous": false,
      "inputs": [
        {
          "indexed": true,
          "name": "from",
          "type": "address"
        },
        {
          "indexed": true,
          "name": "to",
          "type": "address"
        },
        {
          "indexed": false,
          "name": "value",
          "type": "uint256"
        }
      ],
      "name": "Transfer",
      "type": "event"
    },
    {
      "anonymous": false,
      "inputs": [
        {
          "indexed": true,
          "name": "owner",
          "type": "address"
        },
        {
          "indexed": true,
          "name": "spender",
          "type": "address"
        },
        {
          "indexed": false,
          "name": "value",
          "type": "uint256"
        }
      ],
      "name": "Approval",
      "type": "event"
    },
    {
      "constant": false,
      "inputs": [
        {
          "name": "_gcm",
          "type": "address"
        }
      ],
      "name": "initialMove",
      "outputs": [
        {
          "name": "",
          "type": "bool"
        }
      ],
      "payable": false,
      "stateMutability": "nonpayable",
      "type": "function"
    }
  ],
  "bytecode": "0x60806040526007805460a060020a60ff02191690553480156200002157600080fd5b5060405162001b3f38038062001b3f833981018060405260808110156200004757600080fd5b8101908080516401000000008111156200006057600080fd5b820160208101848111156200007457600080fd5b81516401000000008111828201871017156200008f57600080fd5b50509291906020018051640100000000811115620000ac57600080fd5b82016020810184811115620000c057600080fd5b8151640100000000811182820187101715620000db57600080fd5b505060208201516040909201805191949293916401000000008111156200010157600080fd5b820160208101848111156200011557600080fd5b81518560208202830111640100000000821117156200013357600080fd5b5050865190935086925085915084906200015590600390602086019062000375565b5081516200016b90600490602085019062000375565b506005805460ff191660ff92909216919091179055506200019790503364010000000062000236810204565b60078054600160a060020a031916331790819055604051600160a060020a0391909116906000907f8be0079c531659141344cd1fd0a4f28419497f9722a3daafe3b4186f6b6457e0908290a360005b81518110156200022b576200022282828151811015156200020357fe5b9060200190602002015162000288640100000000026401000000009004565b600101620001e6565b50505050506200041a565b620002516006826401000000006200162f620002bf82021704565b604051600160a060020a038216907f6ae172837ea30b801fbfcdd4108aa1d5bf8ff775444fd70256b44e6bf3dfc3f690600090a250565b6200029c336401000000006200031a810204565b1515620002a857600080fd5b620002bc8164010000000062000236810204565b50565b600160a060020a0381161515620002d557600080fd5b620002ea82826401000000006200033d810204565b15620002f557600080fd5b600160a060020a0316600090815260209190915260409020805460ff19166001179055565b6000620003376006836401000000006200157a6200033d82021704565b92915050565b6000600160a060020a03821615156200035557600080fd5b50600160a060020a03166000908152602091909152604090205460ff1690565b828054600181600116156101000203166002900490600052602060002090601f016020900481019282601f10620003b857805160ff1916838001178555620003e8565b82800160010185558215620003e8579182015b82811115620003e8578251825591602001919060010190620003cb565b50620003f6929150620003fa565b5090565b6200041791905b80821115620003f6576000815560010162000401565b90565b611715806200042a6000396000f3fe6080604052600436106101745763ffffffff7c010000000000000000000000000000000000000000000000000000000060003504166302a033fc811461017957806306fdde03146101a2578063095ea7b31461022c57806318160ddd1461026557806323b872dd1461028c578063313ce567146102cf57806339509351146102fa5780634000aea01461033357806340c10f19146103ee57806342966c681461042757806359447f541461045357806370a0823114610486578063715018a6146104b957806379cc6790146104ce5780637c4fdcd1146105075780638da5cb5b1461053a5780638f32d59b1461056b57806390db623f1461058057806395d89b411461063b578063983b2d56146106505780639865027514610683578063a457c2d714610698578063a9059cbb146106d1578063aa271e1a1461070a578063c1d34b891461073d578063cae9ca5114610803578063cb3993be146108be578063dd62ed3e14610979578063f2fde38b146109b4575b600080fd5b34801561018557600080fd5b5061018e6109e7565b604080519115158252519081900360200190f35b3480156101ae57600080fd5b506101b7610a08565b6040805160208082528351818301528351919283929083019185019080838360005b838110156101f15781810151838201526020016101d9565b50505050905090810190601f16801561021e5780820380516001836020036101000a031916815260200191505b509250505060405180910390f35b34801561023857600080fd5b5061018e6004803603604081101561024f57600080fd5b50600160a060020a038135169060200135610a9e565b34801561027157600080fd5b5061027a610b0a565b60408051918252519081900360200190f35b34801561029857600080fd5b5061018e600480360360608110156102af57600080fd5b50600160a060020a03813581169160208101359091169060400135610b10565b3480156102db57600080fd5b506102e4610bc7565b6040805160ff9092168252519081900360200190f35b34801561030657600080fd5b5061018e6004803603604081101561031d57600080fd5b50600160a060020a038135169060200135610bd0565b61018e6004803603606081101561034957600080fd5b600160a060020a038235169160208101359181019060608101604082013564010000000081111561037957600080fd5b82018360208201111561038b57600080fd5b803590602001918460018302840111640100000000831117156103ad57600080fd5b91908080601f016020809104026020016040519081016040528093929190818152602001838380828437600092019190915250929550610c6e945050505050565b3480156103fa57600080fd5b5061018e6004803603604081101561041157600080fd5b50600160a060020a038135169060200135610d50565b34801561043357600080fd5b506104516004803603602081101561044a57600080fd5b5035610d79565b005b34801561045f57600080fd5b5061027a6004803603602081101561047657600080fd5b5035600160a060020a0316610d86565b34801561049257600080fd5b5061027a600480360360208110156104a957600080fd5b5035600160a060020a0316610d98565b3480156104c557600080fd5b50610451610db3565b3480156104da57600080fd5b50610451600480360360408110156104f157600080fd5b50600160a060020a038135169060200135610e1d565b34801561051357600080fd5b5061018e6004803603602081101561052a57600080fd5b5035600160a060020a0316610e2b565b34801561054657600080fd5b5061054f610f41565b60408051600160a060020a039092168252519081900360200190f35b34801561057757600080fd5b5061018e610f50565b61018e6004803603606081101561059657600080fd5b600160a060020a03823516916020810135918101906060810160408201356401000000008111156105c657600080fd5b8201836020820111156105d857600080fd5b803590602001918460018302840111640100000000831117156105fa57600080fd5b91908080601f016020809104026020016040519081016040528093929190818152602001838380828437600092019190915250929550610f61945050505050565b34801561064757600080fd5b506101b7610f83565b34801561065c57600080fd5b506104516004803603602081101561067357600080fd5b5035600160a060020a0316610fe4565b34801561068f57600080fd5b50610451611001565b3480156106a457600080fd5b5061018e600480360360408110156106bb57600080fd5b50600160a060020a03813516906020013561100c565b3480156106dd57600080fd5b5061018e600480360360408110156106f457600080fd5b50600160a060020a038135169060200135611057565b34801561071657600080fd5b5061018e6004803603602081101561072d57600080fd5b5035600160a060020a0316611064565b61018e6004803603608081101561075357600080fd5b600160a060020a0382358116926020810135909116916040820135919081019060808101606082013564010000000081111561078e57600080fd5b8201836020820111156107a057600080fd5b803590602001918460018302840111640100000000831117156107c257600080fd5b91908080601f01602080910402602001604051908101604052809392919081815260200183838082843760009201919091525092955061107d945050505050565b61018e6004803603606081101561081957600080fd5b600160a060020a038235169160208101359181019060608101604082013564010000000081111561084957600080fd5b82018360208201111561085b57600080fd5b8035906020019184600183028401116401000000008311171561087d57600080fd5b91908080601f016020809104026020016040519081016040528093929190818152602001838380828437600092019190915250929550611161945050505050565b61018e600480360360608110156108d457600080fd5b600160a060020a038235169160208101359181019060608101604082013564010000000081111561090457600080fd5b82018360208201111561091657600080fd5b8035906020019184600183028401116401000000008311171561093857600080fd5b91908080601f016020809104026020016040519081016040528093929190818152602001838380828437600092019190915250929550611183945050505050565b34801561098557600080fd5b5061027a6004803603604081101561099c57600080fd5b50600160a060020a03813581169160200135166111a5565b3480156109c057600080fd5b50610451600480360360208110156109d757600080fd5b5035600160a060020a03166111d0565b60075474010000000000000000000000000000000000000000900460ff1681565b60038054604080516020601f6002600019610100600188161502019095169490940493840181900481028201810190925282815260609390929091830182828015610a945780601f10610a6957610100808354040283529160200191610a94565b820191906000526020600020905b815481529060010190602001808311610a7757829003601f168201915b5050505050905090565b6000600160a060020a0383161515610ab557600080fd5b336000818152600160209081526040808320600160a060020a03881680855290835292819020869055805186815290519293926000805160206116ca833981519152929181900390910190a350600192915050565b60025490565b600160a060020a0383166000908152600160209081526040808320338452909152812054610b44908363ffffffff6111ec16565b600160a060020a0385166000908152600160209081526040808320338452909152902055610b73848484611201565b600160a060020a0384166000818152600160209081526040808320338085529083529281902054815190815290519293926000805160206116ca833981519152929181900390910190a35060019392505050565b60055460ff1690565b6000600160a060020a0383161515610be757600080fd5b336000908152600160209081526040808320600160a060020a0387168452909152902054610c1b908363ffffffff6112ce16565b336000818152600160209081526040808320600160a060020a0389168085529083529281902085905580519485525191936000805160206116ca833981519152929081900390910190a350600192915050565b6000600160a060020a038416301415610c8657600080fd5b610c908484611057565b50600084600160a060020a031634846040518082805190602001908083835b60208310610cce5780518252601f199092019160209182019101610caf565b6001836020036101000a03801982511681845116808217855250505050505090500191505060006040518083038185875af1925050503d8060008114610d30576040519150601f19603f3d011682016040523d82523d6000602084013e610d35565b606091505b50509050801515610d4557600080fd5b506001949350505050565b6000610d5b33611064565b1515610d6657600080fd5b610d7083836112e7565b50600192915050565b610d833382611391565b50565b60086020526000908152604090205481565b600160a060020a031660009081526020819052604090205490565b610dbb610f50565b1515610dc657600080fd5b600754604051600091600160a060020a0316907f8be0079c531659141344cd1fd0a4f28419497f9722a3daafe3b4186f6b6457e0908390a36007805473ffffffffffffffffffffffffffffffffffffffff19169055565b610e27828261143a565b5050565b60075460009074010000000000000000000000000000000000000000900460ff1615610eb857604080517f08c379a000000000000000000000000000000000000000000000000000000000815260206004820152601e60248201527f476f6f64446f6c6c617220616c726561647920696e697469616c697a65640000604482015290519081900360640190fd5b610ec0610f50565b1515610ecb57600080fd5b620f4240610ed98382610d50565b506007805474ff00000000000000000000000000000000000000001916740100000000000000000000000000000000000000001790556040517f4bd9691b23890469e070218632e0f2ccd47ffa720ac3619fb14ad9dc504cc42e90600090a150600192915050565b600754600160a060020a031690565b600754600160a060020a0316331490565b6000600160a060020a038416301415610f7957600080fd5b610c908484610bd0565b60048054604080516020601f6002600019610100600188161502019095169490940493840181900481028201810190925282815260609390929091830182828015610a945780601f10610a6957610100808354040283529160200191610a94565b610fed33611064565b1515610ff857600080fd5b610d83816114ea565b61100a33611532565b565b6000600160a060020a038316151561102357600080fd5b336000908152600160209081526040808320600160a060020a0387168452909152902054610c1b908363ffffffff6111ec16565b6000610d70338484611201565b600061107760068363ffffffff61157a16565b92915050565b6000600160a060020a03841630141561109557600080fd5b6110a0858585610b10565b50600084600160a060020a031634846040518082805190602001908083835b602083106110de5780518252601f1990920191602091820191016110bf565b6001836020036101000a03801982511681845116808217855250505050505090500191505060006040518083038185875af1925050503d8060008114611140576040519150601f19603f3d011682016040523d82523d6000602084013e611145565b606091505b5050905080151561115557600080fd5b50600195945050505050565b6000600160a060020a03841630141561117957600080fd5b610c908484610a9e565b6000600160a060020a03841630141561119b57600080fd5b610c90848461100c565b600160a060020a03918216600090815260016020908152604080832093909416825291909152205490565b6111d8610f50565b15156111e357600080fd5b610d83816115b1565b6000828211156111fb57600080fd5b50900390565b600160a060020a038216151561121657600080fd5b600160a060020a03831660009081526020819052604090205461123f908263ffffffff6111ec16565b600160a060020a038085166000908152602081905260408082209390935590841681522054611274908263ffffffff6112ce16565b600160a060020a038084166000818152602081815260409182902094909455805185815290519193928716927fddf252ad1be2c89b69c2b068fc378daa952ba7f163c4a11628f55a4df523b3ef92918290030190a3505050565b6000828201838110156112e057600080fd5b9392505050565b600160a060020a03821615156112fc57600080fd5b60025461130f908263ffffffff6112ce16565b600255600160a060020a03821660009081526020819052604090205461133b908263ffffffff6112ce16565b600160a060020a0383166000818152602081815260408083209490945583518581529351929391927fddf252ad1be2c89b69c2b068fc378daa952ba7f163c4a11628f55a4df523b3ef9281900390910190a35050565b600160a060020a03821615156113a657600080fd5b6002546113b9908263ffffffff6111ec16565b600255600160a060020a0382166000908152602081905260409020546113e5908263ffffffff6111ec16565b600160a060020a038316600081815260208181526040808320949094558351858152935191937fddf252ad1be2c89b69c2b068fc378daa952ba7f163c4a11628f55a4df523b3ef929081900390910190a35050565b600160a060020a038216600090815260016020908152604080832033845290915290205461146e908263ffffffff6111ec16565b600160a060020a038316600090815260016020908152604080832033845290915290205561149c8282611391565b600160a060020a0382166000818152600160209081526040808320338085529083529281902054815190815290519293926000805160206116ca833981519152929181900390910190a35050565b6114fb60068263ffffffff61162f16565b604051600160a060020a038216907f6ae172837ea30b801fbfcdd4108aa1d5bf8ff775444fd70256b44e6bf3dfc3f690600090a250565b61154360068263ffffffff61167d16565b604051600160a060020a038216907fe94479a9f7e1952cc78f2d6baab678adc1b772d936c6583def489e524cb6669290600090a250565b6000600160a060020a038216151561159157600080fd5b50600160a060020a03166000908152602091909152604090205460ff1690565b600160a060020a03811615156115c657600080fd5b600754604051600160a060020a038084169216907f8be0079c531659141344cd1fd0a4f28419497f9722a3daafe3b4186f6b6457e090600090a36007805473ffffffffffffffffffffffffffffffffffffffff1916600160a060020a0392909216919091179055565b600160a060020a038116151561164457600080fd5b61164e828261157a565b1561165857600080fd5b600160a060020a0316600090815260209190915260409020805460ff19166001179055565b600160a060020a038116151561169257600080fd5b61169c828261157a565b15156116a757600080fd5b600160a060020a0316600090815260209190915260409020805460ff1916905556fe8c5be1e5ebec7d5bd14f71427d1e84f3dd0314c0f7b2291e5b200ac8c7c3b925a165627a7a723058201a04921b60a18ebc539c0e14454a704bbbedb660302cd5be5f25c69789bd47570029",
  "source": "pragma solidity ^0.5.0;\n\nimport \"openzeppelin-solidity/contracts/math/SafeMath.sol\";\nimport \"openzeppelin-solidity/contracts/token/ERC20/ERC20Detailed.sol\";\nimport \"openzeppelin-solidity/contracts/token/ERC20/ERC20Mintable.sol\";\nimport \"openzeppelin-solidity/contracts/token/ERC20/ERC20Burnable.sol\";\nimport \"openzeppelin-solidity/contracts/ownership/Ownable.sol\";\nimport \"./token/ERC827Token.sol\";\n\ncontract GoodDollar is ERC827Token,ERC20Detailed,ERC20Mintable,ERC20Burnable, Ownable {\n    using SafeMath for uint256;\n\n    event PopulatedMarket();\n\n    bool public populatedMarket = false;\n\n    mapping (address => uint) public last_claimed;\n\n    modifier canPopulate() {\n      require(!populatedMarket,\"GoodDollar already initialized\");\n      _;\n    }\n\n    constructor (\n        string memory name,\n        string memory symbol,\n        uint8 decimals,\n        address[] memory minters\n    ) public\n        ERC20Burnable()\n        ERC20Mintable()\n        ERC20Detailed(name, symbol, decimals)\n        ERC20()\n    {\n      for(uint i = 0;i<minters.length;i++)\n        addMinter(minters[i]);\n    }\n\n    // Creats initial amount of this coin (GoodDollar) in the market\n    // Amount is 100 coins for a start (of the GoodDollar market)\n    function initialMove(address _gcm) canPopulate public onlyOwner returns(bool) {\n      // amount is 100 * 10^18 as each token seems to be viewed as\n      // a wei-like equivalent in the bancor formulas\n      \n      // should be: uint256 amount = 100*(10**decimals);\n      // replace \"18\" in the number of decimals. \n      //Don't replace in decimals var itself; it is uint8 and wiil cause inaccuracy. Should not change to uint256 also.\n      uint256 amount = 100*(10**4); // ** is math.power\n\n      mint(_gcm, amount);\n\n      populatedMarket = true;\n      emit PopulatedMarket();\n\n      return true;\n    }\n  \n}",
  "sourcePath": "C:\\Users\\hadarro\\Documents\\GoodDollar\\GoodContracts\\contracts\\GoodDollar.sol",
  "compiler": {
    "name": "solc",
    "version": "0.5.0+commit.1d4f565a.Emscripten.clang"
  },
  "schemaVersion": "3.0.1",
  "updatedAt": "2019-02-05T13:03:12.769Z",
  "devdoc": {
    "methods": {
      "allowance(address,address)": {
        "details": "Function to check the amount of tokens that an owner allowed to a spender.",
        "params": {
          "owner": "address The address which owns the funds.",
          "spender": "address The address which will spend the funds."
        },
        "return": "A uint256 specifying the amount of tokens still available for the spender."
      },
      "approve(address,uint256)": {
        "details": "Approve the passed address to spend the specified amount of tokens on behalf of msg.sender. Beware that changing an allowance with this method brings the risk that someone may use both the old and the new allowance by unfortunate transaction ordering. One possible solution to mitigate this race condition is to first reduce the spender's allowance to 0 and set the desired value afterwards: https://github.com/ethereum/EIPs/issues/20#issuecomment-263524729",
        "params": {
          "spender": "The address which will spend the funds.",
          "value": "The amount of tokens to be spent."
        }
      },
      "approveAndCall(address,uint256,bytes)": {
        "details": "Addition to IERC20 token methods. It allows to approve the transfer of value and execute a call with the sent data. Beware that changing an allowance with this method brings the risk that someone may use both the old and the new allowance by unfortunate transaction ordering. One possible solution to mitigate this race condition is to first reduce the spender's allowance to 0 and set the desired value afterwards: https://github.com/ethereum/EIPs/issues/20#issuecomment-263524729",
        "params": {
          "_data": "ABI-encoded contract call to call `_spender` address.",
          "_spender": "The address that will spend the funds.",
          "_value": "The amount of tokens to be spent."
        },
        "return": "true if the call function was executed successfully"
      },
      "balanceOf(address)": {
        "details": "Gets the balance of the specified address.",
        "params": {
          "owner": "The address to query the balance of."
        },
        "return": "An uint256 representing the amount owned by the passed address."
      },
      "burn(uint256)": {
        "details": "Burns a specific amount of tokens.",
        "params": {
          "value": "The amount of token to be burned."
        }
      },
      "burnFrom(address,uint256)": {
        "details": "Burns a specific amount of tokens from the target address and decrements allowance",
        "params": {
          "from": "address The address which you want to send tokens from",
          "value": "uint256 The amount of token to be burned"
        }
      },
      "decimals()": {
        "return": "the number of decimals of the token."
      },
      "decreaseAllowance(address,uint256)": {
        "details": "Decrease the amount of tokens that an owner allowed to a spender. approve should be called when allowed_[_spender] == 0. To decrement allowed value is better to use this function to avoid 2 calls (and wait until the first transaction is mined) From MonolithDAO Token.sol Emits an Approval event.",
        "params": {
          "spender": "The address which will spend the funds.",
          "subtractedValue": "The amount of tokens to decrease the allowance by."
        }
      },
      "decreaseApprovalAndCall(address,uint256,bytes)": {
        "details": "Addition to IERC20 methods. Decrease the amount of tokens that an owner allowed to a spender and execute a call with the sent data. approve should be called when allowed[_spender] == 0. To decrement allowed value is better to use this function to avoid 2 calls (and wait until the first transaction is mined) From MonolithDAO Token.sol",
        "params": {
          "_data": "ABI-encoded contract call to call `_spender` address.",
          "_spender": "The address which will spend the funds.",
          "_subtractedValue": "The amount of tokens to decrease the allowance by."
        }
      },
      "increaseAllowance(address,uint256)": {
        "details": "Increase the amount of tokens that an owner allowed to a spender. approve should be called when allowed_[_spender] == 0. To increment allowed value is better to use this function to avoid 2 calls (and wait until the first transaction is mined) From MonolithDAO Token.sol Emits an Approval event.",
        "params": {
          "addedValue": "The amount of tokens to increase the allowance by.",
          "spender": "The address which will spend the funds."
        }
      },
      "increaseApprovalAndCall(address,uint256,bytes)": {
        "details": "Addition to IERC20 methods. Increase the amount of tokens that an owner allowed to a spender and execute a call with the sent data. approve should be called when allowed[_spender] == 0. To increment allowed value is better to use this function to avoid 2 calls (and wait until the first transaction is mined) From MonolithDAO Token.sol",
        "params": {
          "_addedValue": "The amount of tokens to increase the allowance by.",
          "_data": "ABI-encoded contract call to call `_spender` address.",
          "_spender": "The address which will spend the funds."
        }
      },
      "isOwner()": {
        "return": "true if `msg.sender` is the owner of the contract."
      },
      "mint(address,uint256)": {
        "details": "Function to mint tokens",
        "params": {
          "to": "The address that will receive the minted tokens.",
          "value": "The amount of tokens to mint."
        },
        "return": "A boolean that indicates if the operation was successful."
      },
      "name()": {
        "return": "the name of the token."
      },
      "owner()": {
        "return": "the address of the owner."
      },
      "renounceOwnership()": {
        "details": "Allows the current owner to relinquish control of the contract."
      },
      "symbol()": {
        "return": "the symbol of the token."
      },
      "totalSupply()": {
        "details": "Total number of tokens in existence"
      },
      "transfer(address,uint256)": {
        "details": "Transfer token for a specified address",
        "params": {
          "to": "The address to transfer to.",
          "value": "The amount to be transferred."
        }
      },
      "transferAndCall(address,uint256,bytes)": {
        "details": "Addition to IERC20 token methods. Transfer tokens to a specified address and execute a call with the sent data on the same transaction",
        "params": {
          "_data": "ABI-encoded contract call to call `_to` address.",
          "_to": "address The address which you want to transfer to",
          "_value": "uint256 the amout of tokens to be transfered"
        },
        "return": "true if the call function was executed successfully"
      },
      "transferFrom(address,address,uint256)": {
        "details": "Transfer tokens from one address to another. Note that while this function emits an Approval event, this is not required as per the specification, and other compliant implementations may not emit the event.",
        "params": {
          "from": "address The address which you want to send tokens from",
          "to": "address The address which you want to transfer to",
          "value": "uint256 the amount of tokens to be transferred"
        }
      },
      "transferFromAndCall(address,address,uint256,bytes)": {
        "details": "Addition to IERC20 token methods. Transfer tokens from one address to another and make a contract call on the same transaction",
        "params": {
          "_data": "ABI-encoded contract call to call `_to` address.",
          "_from": "The address which you want to send tokens from",
          "_to": "The address which you want to transfer to",
          "_value": "The amout of tokens to be transferred"
        },
        "return": "true if the call function was executed successfully"
      },
      "transferOwnership(address)": {
        "details": "Allows the current owner to transfer control of the contract to a newOwner.",
        "params": {
          "newOwner": "The address to transfer ownership to."
        }
      }
    }
  },
  "userdoc": {
    "methods": {
      "renounceOwnership()": {
        "notice": "Renouncing to ownership will leave the contract without an owner. It will not be possible to call the functions with the `onlyOwner` modifier anymore."
      }
    }
  }
}