{
  "contractName": "GoodDollar",
  "abi": [
    {
      "constant": true,
      "inputs": [],
      "name": "populatedMarket",
      "outputs": [
        {
          "name": "",
          "type": "bool"
        }
      ],
      "payable": false,
      "stateMutability": "view",
      "type": "function"
    },
    {
      "constant": true,
      "inputs": [],
      "name": "name",
      "outputs": [
        {
          "name": "",
          "type": "string"
        }
      ],
      "payable": false,
      "stateMutability": "view",
      "type": "function"
    },
    {
      "constant": false,
      "inputs": [
        {
          "name": "spender",
          "type": "address"
        },
        {
          "name": "value",
          "type": "uint256"
        }
      ],
      "name": "approve",
      "outputs": [
        {
          "name": "",
          "type": "bool"
        }
      ],
      "payable": false,
      "stateMutability": "nonpayable",
      "type": "function"
    },
    {
      "constant": false,
      "inputs": [
        {
          "name": "_bridgeContract",
          "type": "address"
        }
      ],
      "name": "setBridgeContract",
      "outputs": [],
      "payable": false,
      "stateMutability": "nonpayable",
      "type": "function"
    },
    {
      "constant": true,
      "inputs": [],
      "name": "totalSupply",
      "outputs": [
        {
          "name": "",
          "type": "uint256"
        }
      ],
      "payable": false,
      "stateMutability": "view",
      "type": "function"
    },
    {
      "constant": true,
      "inputs": [],
      "name": "decimals",
      "outputs": [
        {
          "name": "",
          "type": "uint8"
        }
      ],
      "payable": false,
      "stateMutability": "view",
      "type": "function"
    },
    {
      "constant": false,
      "inputs": [
        {
          "name": "spender",
          "type": "address"
        },
        {
          "name": "addedValue",
          "type": "uint256"
        }
      ],
      "name": "increaseAllowance",
      "outputs": [
        {
          "name": "",
          "type": "bool"
        }
      ],
      "payable": false,
      "stateMutability": "nonpayable",
      "type": "function"
    },
    {
      "constant": false,
      "inputs": [
        {
          "name": "to",
          "type": "address"
        },
        {
          "name": "value",
          "type": "uint256"
        }
      ],
      "name": "mint",
      "outputs": [
        {
          "name": "",
          "type": "bool"
        }
      ],
      "payable": false,
      "stateMutability": "nonpayable",
      "type": "function"
    },
    {
      "constant": false,
      "inputs": [
        {
          "name": "value",
          "type": "uint256"
        }
      ],
      "name": "burn",
      "outputs": [],
      "payable": false,
      "stateMutability": "nonpayable",
      "type": "function"
    },
    {
      "constant": true,
      "inputs": [
        {
          "name": "",
          "type": "address"
        }
      ],
      "name": "last_claimed",
      "outputs": [
        {
          "name": "",
          "type": "uint256"
        }
      ],
      "payable": false,
      "stateMutability": "view",
      "type": "function"
    },
    {
      "constant": false,
      "inputs": [
        {
          "name": "_token",
          "type": "address"
        },
        {
          "name": "_to",
          "type": "address"
        }
      ],
      "name": "claimTokens",
      "outputs": [],
      "payable": false,
      "stateMutability": "nonpayable",
      "type": "function"
    },
    {
      "constant": true,
      "inputs": [
        {
          "name": "owner",
          "type": "address"
        }
      ],
      "name": "balanceOf",
      "outputs": [
        {
          "name": "",
          "type": "uint256"
        }
      ],
      "payable": false,
      "stateMutability": "view",
      "type": "function"
    },
    {
      "constant": false,
      "inputs": [],
      "name": "renounceOwnership",
      "outputs": [],
      "payable": false,
      "stateMutability": "nonpayable",
      "type": "function"
    },
    {
      "constant": false,
      "inputs": [
        {
          "name": "from",
          "type": "address"
        },
        {
          "name": "value",
          "type": "uint256"
        }
      ],
      "name": "burnFrom",
      "outputs": [],
      "payable": false,
      "stateMutability": "nonpayable",
      "type": "function"
    },
    {
      "constant": false,
      "inputs": [],
      "name": "finishMinting",
      "outputs": [
        {
          "name": "",
          "type": "bool"
        }
      ],
      "payable": false,
      "stateMutability": "nonpayable",
      "type": "function"
    },
    {
      "constant": true,
      "inputs": [],
      "name": "getTokenInterfacesVersion",
      "outputs": [
        {
          "name": "major",
          "type": "uint64"
        },
        {
          "name": "minor",
          "type": "uint64"
        },
        {
          "name": "patch",
          "type": "uint64"
        }
      ],
      "payable": false,
      "stateMutability": "pure",
      "type": "function"
    },
    {
      "constant": true,
      "inputs": [],
      "name": "owner",
      "outputs": [
        {
          "name": "",
          "type": "address"
        }
      ],
      "payable": false,
      "stateMutability": "view",
      "type": "function"
    },
    {
      "constant": true,
      "inputs": [],
      "name": "isOwner",
      "outputs": [
        {
          "name": "",
          "type": "bool"
        }
      ],
      "payable": false,
      "stateMutability": "view",
      "type": "function"
    },
    {
      "constant": true,
      "inputs": [],
      "name": "symbol",
      "outputs": [
        {
          "name": "",
          "type": "string"
        }
      ],
      "payable": false,
      "stateMutability": "view",
      "type": "function"
    },
    {
      "constant": false,
      "inputs": [
        {
          "name": "account",
          "type": "address"
        }
      ],
      "name": "addMinter",
      "outputs": [],
      "payable": false,
      "stateMutability": "nonpayable",
      "type": "function"
    },
    {
      "constant": false,
      "inputs": [],
      "name": "renounceMinter",
      "outputs": [],
      "payable": false,
      "stateMutability": "nonpayable",
      "type": "function"
    },
    {
      "constant": false,
      "inputs": [
        {
          "name": "spender",
          "type": "address"
        },
        {
          "name": "subtractedValue",
          "type": "uint256"
        }
      ],
      "name": "decreaseAllowance",
      "outputs": [
        {
          "name": "",
          "type": "bool"
        }
      ],
      "payable": false,
      "stateMutability": "nonpayable",
      "type": "function"
    },
    {
      "constant": true,
      "inputs": [
        {
          "name": "account",
          "type": "address"
        }
      ],
      "name": "isMinter",
      "outputs": [
        {
          "name": "",
          "type": "bool"
        }
      ],
      "payable": false,
      "stateMutability": "view",
      "type": "function"
    },
    {
      "constant": true,
      "inputs": [],
      "name": "reserve",
      "outputs": [
        {
          "name": "",
          "type": "address"
        }
      ],
      "payable": false,
      "stateMutability": "view",
      "type": "function"
    },
    {
      "constant": true,
      "inputs": [],
      "name": "bridgeContract",
      "outputs": [
        {
          "name": "",
          "type": "address"
        }
      ],
      "payable": false,
      "stateMutability": "view",
      "type": "function"
    },
    {
      "constant": true,
      "inputs": [
        {
          "name": "owner",
          "type": "address"
        },
        {
          "name": "spender",
          "type": "address"
        }
      ],
      "name": "allowance",
      "outputs": [
        {
          "name": "",
          "type": "uint256"
        }
      ],
      "payable": false,
      "stateMutability": "view",
      "type": "function"
    },
    {
      "constant": false,
      "inputs": [
        {
          "name": "newOwner",
          "type": "address"
        }
      ],
      "name": "transferOwnership",
      "outputs": [],
      "payable": false,
      "stateMutability": "nonpayable",
      "type": "function"
    },
    {
      "inputs": [
        {
          "name": "name",
          "type": "string"
        },
        {
          "name": "symbol",
          "type": "string"
        },
        {
          "name": "decimals",
          "type": "uint8"
        },
        {
          "name": "minters",
          "type": "address[]"
        }
      ],
      "payable": false,
      "stateMutability": "nonpayable",
      "type": "constructor"
    },
    {
      "anonymous": false,
      "inputs": [],
      "name": "PopulatedMarket",
      "type": "event"
    },
    {
      "anonymous": false,
      "inputs": [
        {
          "indexed": false,
          "name": "fee",
          "type": "uint256"
        },
        {
          "indexed": false,
          "name": "burned",
          "type": "uint256"
        }
      ],
      "name": "TransactionFees",
      "type": "event"
    },
    {
      "anonymous": false,
      "inputs": [
        {
          "indexed": false,
          "name": "from",
          "type": "address"
        },
        {
          "indexed": false,
          "name": "to",
          "type": "address"
        },
        {
          "indexed": false,
          "name": "value",
          "type": "uint256"
        }
      ],
      "name": "ContractFallbackCallFailed",
      "type": "event"
    },
    {
      "anonymous": false,
      "inputs": [
        {
          "indexed": true,
          "name": "previousOwner",
          "type": "address"
        },
        {
          "indexed": true,
          "name": "newOwner",
          "type": "address"
        }
      ],
      "name": "OwnershipTransferred",
      "type": "event"
    },
    {
      "anonymous": false,
      "inputs": [
        {
          "indexed": true,
          "name": "account",
          "type": "address"
        }
      ],
      "name": "MinterAdded",
      "type": "event"
    },
    {
      "anonymous": false,
      "inputs": [
        {
          "indexed": true,
          "name": "account",
          "type": "address"
        }
      ],
      "name": "MinterRemoved",
      "type": "event"
    },
    {
      "anonymous": false,
      "inputs": [
        {
          "indexed": true,
          "name": "from",
          "type": "address"
        },
        {
          "indexed": true,
          "name": "to",
          "type": "address"
        },
        {
          "indexed": false,
          "name": "value",
          "type": "uint256"
        },
        {
          "indexed": false,
          "name": "data",
          "type": "bytes"
        }
      ],
      "name": "Transfer",
      "type": "event"
    },
    {
      "anonymous": false,
      "inputs": [
        {
          "indexed": true,
          "name": "from",
          "type": "address"
        },
        {
          "indexed": true,
          "name": "to",
          "type": "address"
        },
        {
          "indexed": false,
          "name": "value",
          "type": "uint256"
        }
      ],
      "name": "Transfer",
      "type": "event"
    },
    {
      "anonymous": false,
      "inputs": [
        {
          "indexed": true,
          "name": "owner",
          "type": "address"
        },
        {
          "indexed": true,
          "name": "spender",
          "type": "address"
        },
        {
          "indexed": false,
          "name": "value",
          "type": "uint256"
        }
      ],
      "name": "Approval",
      "type": "event"
    },
    {
      "constant": false,
      "inputs": [
        {
          "name": "_gcm",
          "type": "address"
        },
        {
          "name": "_amount",
          "type": "uint256"
        }
      ],
      "name": "initialMove",
      "outputs": [
        {
          "name": "",
          "type": "bool"
        }
      ],
      "payable": false,
      "stateMutability": "nonpayable",
      "type": "function"
    },
    {
      "constant": false,
      "inputs": [
        {
          "name": "_reserve",
          "type": "address"
        }
      ],
      "name": "setMonetaryPolicy",
      "outputs": [],
      "payable": false,
      "stateMutability": "nonpayable",
      "type": "function"
    },
    {
      "constant": false,
      "inputs": [
        {
          "name": "to",
          "type": "address"
        },
        {
          "name": "value",
          "type": "uint256"
        }
      ],
      "name": "transfer",
      "outputs": [
        {
          "name": "",
          "type": "bool"
        }
      ],
      "payable": false,
      "stateMutability": "nonpayable",
      "type": "function"
    },
    {
      "constant": false,
      "inputs": [
        {
          "name": "from",
          "type": "address"
        },
        {
          "name": "to",
          "type": "address"
        },
        {
          "name": "value",
          "type": "uint256"
        }
      ],
      "name": "transferFrom",
      "outputs": [
        {
          "name": "",
          "type": "bool"
        }
      ],
      "payable": false,
      "stateMutability": "nonpayable",
      "type": "function"
    },
    {
      "constant": false,
      "inputs": [
        {
          "name": "_to",
          "type": "address"
        },
        {
          "name": "_value",
          "type": "uint256"
        },
        {
          "name": "_data",
          "type": "bytes"
        }
      ],
      "name": "transferAndCall",
      "outputs": [
        {
          "name": "",
          "type": "bool"
        }
      ],
      "payable": false,
      "stateMutability": "nonpayable",
      "type": "function"
    }
  ],
  "bytecode": "0x60806040526008805460a060020a60ff02191690553480156200002157600080fd5b5060405162001df738038062001df7833981018060405260808110156200004757600080fd5b8101908080516401000000008111156200006057600080fd5b820160208101848111156200007457600080fd5b81516401000000008111828201871017156200008f57600080fd5b50509291906020018051640100000000811115620000ac57600080fd5b82016020810184811115620000c057600080fd5b8151640100000000811182820187101715620000db57600080fd5b505060208201516040909201805191949293916401000000008111156200010157600080fd5b820160208101848111156200011557600080fd5b81518560208202830111640100000000821117156200013357600080fd5b50509291905050508383838282828260039080519060200190620001599291906200037d565b5081516200016f9060049060208501906200037d565b506005805460ff191660ff92909216919091179055506200019b9050336401000000006200023e810204565b60078054600160a060020a031916331790819055604051600160a060020a0391909116906000907f8be0079c531659141344cd1fd0a4f28419497f9722a3daafe3b4186f6b6457e0908290a35060009150505b815181101562000233576200022a82828151811015156200020b57fe5b9060200190602002015162000290640100000000026401000000009004565b600101620001ee565b505050505062000422565b62000259600682640100000000620018cf620002c782021704565b604051600160a060020a038216907f6ae172837ea30b801fbfcdd4108aa1d5bf8ff775444fd70256b44e6bf3dfc3f690600090a250565b620002a43364010000000062000322810204565b1515620002b057600080fd5b620002c4816401000000006200023e810204565b50565b600160a060020a0381161515620002dd57600080fd5b620002f2828264010000000062000345810204565b15620002fd57600080fd5b600160a060020a0316600090815260209190915260409020805460ff19166001179055565b60006200033f600683640100000000620015a76200034582021704565b92915050565b6000600160a060020a03821615156200035d57600080fd5b50600160a060020a03166000908152602091909152604090205460ff1690565b828054600181600116156101000203166002900490600052602060002090601f016020900481019282601f10620003c057805160ff1916838001178555620003f0565b82800160010185558215620003f0579182015b82811115620003f0578251825591602001919060010190620003d3565b50620003fe92915062000402565b5090565b6200041f91905b80821115620003fe576000815560010162000409565b90565b6119c580620004326000396000f3fe608060405234801561001057600080fd5b506004361061020d576000357c01000000000000000000000000000000000000000000000000000000009004806379cc67901161012c57806398650275116100bf578063cd3293de1161008e578063cd3293de14610683578063cd5965831461068b578063dd62ed3e14610693578063f2fde38b146106c15761020d565b806398650275146105fd578063a457c2d714610605578063a9059cbb14610631578063aa271e1a1461065d5761020d565b80638da5cb5b116100fb5780638da5cb5b146105a35780638f32d59b146105c757806395d89b41146105cf578063983b2d56146105d75761020d565b806379cc6790146105155780637d64bcb414610541578063859ba28c146105495780638b5a6a081461057d5761020d565b80634000aea0116101a457806369ffa08a1161017357806369ffa08a1461048d5780636fbb553f146104bb57806370a08231146104e7578063715018a61461050d5761020d565b80634000aea01461039957806340c10f191461041e57806342966c681461044a57806359447f54146104675761020d565b806318160ddd116101e057806318160ddd146102ff57806323b872dd14610319578063313ce5671461034f578063395093511461036d5761020d565b806302a033fc1461021257806306fdde031461022e578063095ea7b3146102ab5780630b26cf66146102d7575b600080fd5b61021a6106e7565b604080519115158252519081900360200190f35b610236610708565b6040805160208082528351818301528351919283929083019185019080838360005b83811015610270578181015183820152602001610258565b50505050905090810190601f16801561029d5780820380516001836020036101000a031916815260200191505b509250505060405180910390f35b61021a600480360360408110156102c157600080fd5b50600160a060020a03813516906020013561079e565b6102fd600480360360208110156102ed57600080fd5b5035600160a060020a03166107b4565b005b61030761081d565b60408051918252519081900360200190f35b61021a6004803603606081101561032f57600080fd5b50600160a060020a03813581169160208101359091169060400135610823565b6103576108ab565b6040805160ff9092168252519081900360200190f35b61021a6004803603604081101561038357600080fd5b50600160a060020a0381351690602001356108b4565b61021a600480360360608110156103af57600080fd5b600160a060020a03823516916020810135918101906060810160408201356401000000008111156103df57600080fd5b8201836020820111156103f157600080fd5b8035906020019184600183028401116401000000008311171561041357600080fd5b5090925090506108f5565b61021a6004803603604081101561043457600080fd5b50600160a060020a0381351690602001356109ab565b6102fd6004803603602081101561046057600080fd5b50356109cb565b6103076004803603602081101561047d57600080fd5b5035600160a060020a03166109d8565b6102fd600480360360408110156104a357600080fd5b50600160a060020a03813581169160200135166109ea565b61021a600480360360408110156104d157600080fd5b50600160a060020a038135169060200135610b9e565b610307600480360360208110156104fd57600080fd5b5035600160a060020a0316610cb1565b6102fd610ccc565b6102fd6004803603604081101561052b57600080fd5b50600160a060020a038135169060200135610cdf565b61021a610ce9565b610551610cf0565b6040805167ffffffffffffffff9485168152928416602084015292168183015290519081900360600190f35b6102fd6004803603602081101561059357600080fd5b5035600160a060020a0316610cfa565b6105ab610d3c565b60408051600160a060020a039092168252519081900360200190f35b61021a610d4b565b610236610d5c565b6102fd600480360360208110156105ed57600080fd5b5035600160a060020a0316610dbd565b6102fd610dda565b61021a6004803603604081101561061b57600080fd5b50600160a060020a038135169060200135610de5565b61021a6004803603604081101561064757600080fd5b50600160a060020a038135169060200135610e21565b61021a6004803603602081101561067357600080fd5b5035600160a060020a0316610e46565b6105ab610e5f565b6105ab610e6e565b610307600480360360408110156106a957600080fd5b50600160a060020a0381358116916020013516610e7d565b6102fd600480360360208110156106d757600080fd5b5035600160a060020a0316610ea8565b60085474010000000000000000000000000000000000000000900460ff1681565b60038054604080516020601f60026000196101006001881615020190951694909404938401819004810282018101909252828152606093909290918301828280156107945780601f1061076957610100808354040283529160200191610794565b820191906000526020600020905b81548152906001019060200180831161077757829003601f168201915b5050505050905090565b60006107ab338484610ec4565b50600192915050565b6107bc610d4b565b15156107c757600080fd5b600160a060020a038116158015906107e357506107e381610f50565b15156107ee57600080fd5b6008805473ffffffffffffffffffffffffffffffffffffffff1916600160a060020a0392909216919091179055565b60025490565b600061082f8433610e7d565b821115610886576040805160e560020a62461bcd02815260206004820152601b60248201527f76616c7565206c6172676572207468616e20616c6c6f77616e63650000000000604482015290519081900360640190fd5b6000610893858585610f58565b90506108a0858583611115565b9150505b9392505050565b60055460ff1690565b336000818152600160209081526040808320600160a060020a038716845290915281205490916107ab9185906108f0908663ffffffff61116716565b610ec4565b600080610903338787610f58565b90506000610948878387878080601f01602080910402602001604051908101604052809392919081815260200183838082843760009201919091525061117992505050565b90508015156109a1576040805160e560020a62461bcd02815260206004820152601860248201527f5472616e7366657220416e642043616c6c204661696c65640000000000000000604482015290519081900360640190fd5b9695505050505050565b60006109b633610e46565b15156109c157600080fd5b6107ab83836112b4565b6109d5338261135e565b50565b600a6020526000908152604090205481565b6109f2610d4b565b15156109fd57600080fd5b600160a060020a0381161515610a1257600080fd5b600160a060020a0382161515610a61576040518190600160a060020a03821690303180156108fc02916000818181858888f19350505050158015610a5a573d6000803e3d6000fd5b5050610b9a565b604080517f70a0823100000000000000000000000000000000000000000000000000000000815230600482015290518391600091600160a060020a038416916370a08231916024808301926020929190829003018186803b158015610ac557600080fd5b505afa158015610ad9573d6000803e3d6000fd5b505050506040513d6020811015610aef57600080fd5b5051604080517fa9059cbb000000000000000000000000000000000000000000000000000000008152600160a060020a0386811660048301526024820184905291519293509084169163a9059cbb916044808201926020929091908290030181600087803b158015610b6057600080fd5b505af1158015610b74573d6000803e3d6000fd5b505050506040513d6020811015610b8a57600080fd5b50511515610b9757600080fd5b50505b5050565b60085460009074010000000000000000000000000000000000000000900460ff1615610c14576040805160e560020a62461bcd02815260206004820152601e60248201527f476f6f64446f6c6c617220616c726561647920696e697469616c697a65640000604482015290519081900360640190fd5b610c1c610d4b565b1515610c2757600080fd5b6000610c316108ab565b60ff169050600a81900a8302610c4785826109ab565b506008805474ff00000000000000000000000000000000000000001916740100000000000000000000000000000000000000001790556040517f4bd9691b23890469e070218632e0f2ccd47ffa720ac3619fb14ad9dc504cc42e90600090a1506001949350505050565b600160a060020a031660009081526020819052604090205490565b610cd4610d4b565b151561020d57600080fd5b610b9a8282611407565b6000806000fd5b6002600080909192565b610d02610d4b565b1515610d0d57600080fd5b6009805473ffffffffffffffffffffffffffffffffffffffff1916600160a060020a0392909216919091179055565b600754600160a060020a031690565b600754600160a060020a0316331490565b60048054604080516020601f60026000196101006001881615020190951694909404938401819004810282018101909252828152606093909290918301828280156107945780601f1061076957610100808354040283529160200191610794565b610dc633610e46565b1515610dd157600080fd5b6109d58161144c565b610de333611494565b565b336000818152600160209081526040808320600160a060020a038716845290915281205490916107ab9185906108f0908663ffffffff6114dc16565b600080610e2f338585610f58565b9050610e3b84826114f1565b506001949350505050565b6000610e5960068363ffffffff6115a716565b92915050565b600954600160a060020a031681565b600854600160a060020a031681565b600160a060020a03918216600090815260016020908152604080832093909416825291909152205490565b610eb0610d4b565b1515610ebb57600080fd5b6109d5816115de565b600160a060020a0382161515610ed957600080fd5b600160a060020a0383161515610eee57600080fd5b600160a060020a03808416600081815260016020908152604080832094871680845294825291829020859055815185815291517f8c5be1e5ebec7d5bd14f71427d1e84f3dd0314c0f7b2291e5b200ac8c7c3b9259281900390910190a3505050565b6000903b1190565b600954600090600160a060020a03161515610f745750806108a4565b600954604080517fc07ff054000000000000000000000000000000000000000000000000000000008152600160a060020a0387811660048301528681166024830152604482018690528251600094859492169263c07ff05492606480830193919282900301818787803b158015610fea57600080fd5b505af1158015610ffe573d6000803e3d6000fd5b505050506040513d604081101561101457600080fd5b50805160209091015190925090506000611034838363ffffffff61116716565b9050611046858263ffffffff61116716565b61104f88610cb1565b101561108f5760405160e560020a62461bcd0281526004018080602001828103825260238152602001806119776023913960400191505060405180910390fd5b60008111156110b0576009546110b0908890600160a060020a03168361165c565b60008211156110cf576009546110cf90600160a060020a03168361135e565b604080518481526020810184905281517fef7af6e51256bf51a7b8493b0203021594d917541ba435ee24cf0bf320deb02d929181900390910190a1509295945050505050565b600061112284848461165c565b600160a060020a03841660009081526001602090815260408083203380855292529091205461115d9186916108f0908663ffffffff6114dc16565b5060019392505050565b6000828201838110156108a457600080fd5b60006111858484611729565b151561119057600080fd5b83600160a060020a031633600160a060020a03167fe19260aff97b920c7df27010903aeb9c8d2be5d310a2c67824cf3f15396e4c1685856040518083815260200180602001828103825283818151815260200191508051906020019080838360005b8381101561120a5781810151838201526020016111f2565b50505050905090810190601f1680156112375780820380516001836020036101000a031916815260200191505b50935050505060405180910390a361124e84610f50565b1561115d5761125e848484611735565b151561115d576040805160e560020a62461bcd02815260206004820152601860248201527f436f6e74726163742066616c6c6261636b206661696c65640000000000000000604482015290519081900360640190fd5b600160a060020a03821615156112c957600080fd5b6002546112dc908263ffffffff61116716565b600255600160a060020a038216600090815260208190526040902054611308908263ffffffff61116716565b600160a060020a0383166000818152602081815260408083209490945583518581529351929391927fddf252ad1be2c89b69c2b068fc378daa952ba7f163c4a11628f55a4df523b3ef9281900390910190a35050565b600160a060020a038216151561137357600080fd5b600254611386908263ffffffff6114dc16565b600255600160a060020a0382166000908152602081905260409020546113b2908263ffffffff6114dc16565b600160a060020a038316600081815260208181526040808320949094558351858152935191937fddf252ad1be2c89b69c2b068fc378daa952ba7f163c4a11628f55a4df523b3ef929081900390910190a35050565b611411828261135e565b600160a060020a038216600090815260016020908152604080832033808552925290912054610b9a9184916108f0908563ffffffff6114dc16565b61145d60068263ffffffff6118cf16565b604051600160a060020a038216907f6ae172837ea30b801fbfcdd4108aa1d5bf8ff775444fd70256b44e6bf3dfc3f690600090a250565b6114a560068263ffffffff61191d16565b604051600160a060020a038216907fe94479a9f7e1952cc78f2d6baab678adc1b772d936c6583def489e524cb6669290600090a250565b6000828211156114eb57600080fd5b50900390565b60006114fd8383611729565b151561150857600080fd5b61151183610f50565b801561153657506040805160008152602081019091526115349084908490611735565b155b156107ab57600854600160a060020a038481169116141561155657600080fd5b60408051338152600160a060020a038516602082015280820184905290517f11249f0fc79fc134a15a10d1da8291b79515bf987e036ced05b9ec119614070b9181900360600190a150600192915050565b6000600160a060020a03821615156115be57600080fd5b50600160a060020a03166000908152602091909152604090205460ff1690565b600160a060020a03811615156115f357600080fd5b600754604051600160a060020a038084169216907f8be0079c531659141344cd1fd0a4f28419497f9722a3daafe3b4186f6b6457e090600090a36007805473ffffffffffffffffffffffffffffffffffffffff1916600160a060020a0392909216919091179055565b600160a060020a038216151561167157600080fd5b600160a060020a03831660009081526020819052604090205461169a908263ffffffff6114dc16565b600160a060020a0380851660009081526020819052604080822093909355908416815220546116cf908263ffffffff61116716565b600160a060020a038084166000818152602081815260409182902094909455805185815290519193928716927fddf252ad1be2c89b69c2b068fc378daa952ba7f163c4a11628f55a4df523b3ef92918290030190a3505050565b60006108a48383611969565b60008084600160a060020a03163385856040516024018084600160a060020a0316600160a060020a0316815260200183815260200180602001828103825283818151815260200191508051906020019080838360005b838110156117a357818101518382015260200161178b565b50505050905090810190601f1680156117d05780820380516001836020036101000a031916815260200191505b5060408051601f198184030181529181526020820180517bffffffffffffffffffffffffffffffffffffffffffffffffffffffff167fa4c0ed3600000000000000000000000000000000000000000000000000000000178152905182519297509550859450925090508083835b6020831061185c5780518252601f19909201916020918201910161183d565b6001836020036101000a0380198251168184511680821785525050505050509050019150506000604051808303816000865af19150503d80600081146118be576040519150601f19603f3d011682016040523d82523d6000602084013e6118c3565b606091505b50909695505050505050565b600160a060020a03811615156118e457600080fd5b6118ee82826115a7565b156118f857600080fd5b600160a060020a0316600090815260209190915260409020805460ff19166001179055565b600160a060020a038116151561193257600080fd5b61193c82826115a7565b151561194757600080fd5b600160a060020a0316600090815260209190915260409020805460ff19169055565b60006107ab33848461165c56fe4e6f7420656e6f7567682062616c616e636520746f20636f7665722054582066656573a165627a7a7230582065cf403cf28c9192e16e35f15e1623d570314d87c808afeac722a504389e97f30029",
  "source": "pragma solidity ^0.5.0;\n\nimport \"openzeppelin-solidity/contracts/math/SafeMath.sol\";\nimport \"./token/ERC677BridgeToken.sol\";\nimport \"./IMonetaryPolicy.sol\";\n\ncontract GoodDollar is ERC677BridgeToken {\n    using SafeMath for uint256;\n\n    event PopulatedMarket();\n    event TransactionFees(uint256 fee, uint256 burned);\n\n    bool public populatedMarket = false;\n\n    IMonetaryPolicy public reserve;\n\n    mapping (address => uint) public last_claimed;\n\n    modifier canPopulate() {\n        require(!populatedMarket,\"GoodDollar already initialized\");\n        _;\n    }\n\n    constructor (\n        string memory name,\n        string memory symbol,\n        uint8 decimals,\n        address[] memory minters\n    ) public\n        ERC677BridgeToken(name, symbol, decimals)\n        ERC20Burnable()\n        ERC20Mintable()\n        ERC20()\n    {\n        for(uint i = 0;i<minters.length;i++)\n        addMinter(minters[i]);\n    }\n\n    // Creats initial amount of this coin (GoodDollar) in the market\n    // Amount is 100 coins for a start (of the GoodDollar market)\n    function initialMove(address _gcm,uint _amount) canPopulate public onlyOwner returns(bool) {\n        // amount is 100 * 10^18 as each token seems to be viewed as\n        // a wei-like equivalent in the bancor formulas\n\n        // should be: uint256 amount = 100*(10**decimals);\n        // replace \"18\" in the number of decimals.\n        //Don't replace in decimals var itself; it is uint8 and wiil cause inaccuracy. Should not change to uint256 also.\n        uint256 _decimals = uint256(decimals());\n        uint256 amount = _amount*(10**_decimals); // ** is math.power\n\n        mint(_gcm, amount);\n\n        populatedMarket = true;\n        emit PopulatedMarket();\n\n        return true;\n    }\n\n    function setMonetaryPolicy(IMonetaryPolicy _reserve) public onlyOwner\n    {\n        reserve = _reserve;\n    }\n\n        /**\n    * @dev Transfer token for a specified address\n    * @param to The address to transfer to.\n    * @param value The amount to be transferred.\n    */\n    function transfer(address to, uint256 value) public returns (bool) {\n        uint256 newValue = _processTX(msg.sender, to, value);\n        super.transfer(to, newValue);\n        return true;\n    }\n\n    /**\n    * @dev Transfer tokens from one address to another\n    * @param from address The address which you want to send tokens from\n    * @param to address The address which you want to transfer to\n    * @param value uint256 the amount of tokens to be transferred\n    */\n    function transferFrom(\n        address from,\n        address to,\n        uint256 value\n    )\n        public\n        returns (bool)\n    {\n        require(value <= allowance(from,msg.sender),\"value larger than allowance\");\n        uint256 newValue = _processTX(from, to, value);\n        return super.transferFrom(from, to, newValue);\n    }\n\n    function transferAndCall(address _to, uint _value, bytes calldata _data) external returns (bool)\n    {\n        uint256 newValue = _processTX(msg.sender, _to, _value);\n        bool res = _transferAndCall(_to,newValue,_data);\n        require(res,\"Transfer And Call Failed\");\n        return res;\n        // return ERC677BridgeToken.transferAndCall(_to, newValue, _data);\n    }\n    /**\n    * @dev Process transaction for transaction fees and burn fees\n    */\n    function _processTX(address from, address to, uint256 value) internal returns (uint256) {\n        if(address(reserve) == address(0))  return value;\n        (uint256 txFee, uint256 toBurn) = reserve.processTX(from,to,value);\n        uint256 totalFees = txFee.add(toBurn);\n        require(balanceOf(from)>=value.add(totalFees),\"Not enough balance to cover TX fees\");\n        if(totalFees>0) _transfer(from, address(reserve), totalFees);\n        if(toBurn>0) _burn(address(reserve), toBurn);\n        emit TransactionFees(txFee,toBurn);\n        return value;\n    }\n\n}",
  "sourcePath": "/Users/hadar/workspace/GoodDollar/GoodBootstrap/packages/contracts/contracts/GoodDollar.sol",
  "compiler": {
    "name": "solc",
    "version": "0.5.2+commit.1df8f40c.Emscripten.clang"
  },
  "schemaVersion": "3.0.10",
  "updatedAt": "2019-08-13T14:13:05.399Z",
  "devdoc": {
    "methods": {
      "allowance(address,address)": {
        "details": "Function to check the amount of tokens that an owner allowed to a spender.",
        "params": {
          "owner": "address The address which owns the funds.",
          "spender": "address The address which will spend the funds."
        },
        "return": "A uint256 specifying the amount of tokens still available for the spender."
      },
      "approve(address,uint256)": {
        "details": "Approve the passed address to spend the specified amount of tokens on behalf of msg.sender. Beware that changing an allowance with this method brings the risk that someone may use both the old and the new allowance by unfortunate transaction ordering. One possible solution to mitigate this race condition is to first reduce the spender's allowance to 0 and set the desired value afterwards: https://github.com/ethereum/EIPs/issues/20#issuecomment-263524729",
        "params": {
          "spender": "The address which will spend the funds.",
          "value": "The amount of tokens to be spent."
        }
      },
      "balanceOf(address)": {
        "details": "Gets the balance of the specified address.",
        "params": {
          "owner": "The address to query the balance of."
        },
        "return": "A uint256 representing the amount owned by the passed address."
      },
      "burn(uint256)": {
        "details": "Burns a specific amount of tokens.",
        "params": {
          "value": "The amount of token to be burned."
        }
      },
      "burnFrom(address,uint256)": {
        "details": "Burns a specific amount of tokens from the target address and decrements allowance",
        "params": {
          "from": "address The account whose tokens will be burned.",
          "value": "uint256 The amount of token to be burned."
        }
      },
      "decimals()": {
        "return": "the number of decimals of the token."
      },
      "decreaseAllowance(address,uint256)": {
        "details": "Decrease the amount of tokens that an owner allowed to a spender. approve should be called when _allowed[msg.sender][spender] == 0. To decrement allowed value is better to use this function to avoid 2 calls (and wait until the first transaction is mined) From MonolithDAO Token.sol Emits an Approval event.",
        "params": {
          "spender": "The address which will spend the funds.",
          "subtractedValue": "The amount of tokens to decrease the allowance by."
        }
      },
      "increaseAllowance(address,uint256)": {
        "details": "Increase the amount of tokens that an owner allowed to a spender. approve should be called when _allowed[msg.sender][spender] == 0. To increment allowed value is better to use this function to avoid 2 calls (and wait until the first transaction is mined) From MonolithDAO Token.sol Emits an Approval event.",
        "params": {
          "addedValue": "The amount of tokens to increase the allowance by.",
          "spender": "The address which will spend the funds."
        }
      },
      "isOwner()": {
        "return": "true if `msg.sender` is the owner of the contract."
      },
      "mint(address,uint256)": {
        "details": "Function to mint tokens",
        "params": {
          "to": "The address that will receive the minted tokens.",
          "value": "The amount of tokens to mint."
        },
        "return": "A boolean that indicates if the operation was successful."
      },
      "name()": {
        "return": "the name of the token."
      },
      "owner()": {
        "return": "the address of the owner."
      },
      "symbol()": {
        "return": "the symbol of the token."
      },
      "totalSupply()": {
        "details": "Total number of tokens in existence"
      },
      "transfer(address,uint256)": {
        "details": "Transfer token for a specified address",
        "params": {
          "to": "The address to transfer to.",
          "value": "The amount to be transferred."
        }
      },
      "transferFrom(address,address,uint256)": {
        "details": "Transfer tokens from one address to another",
        "params": {
          "from": "address The address which you want to send tokens from",
          "to": "address The address which you want to transfer to",
          "value": "uint256 the amount of tokens to be transferred"
        }
      },
      "transferOwnership(address)": {
        "details": "Allows the current owner to transfer control of the contract to a newOwner.",
        "params": {
          "newOwner": "The address to transfer ownership to."
        }
      }
    }
  },
  "userdoc": {
    "methods": {}
  }
}