{
  "contractName": "GoodDollarReserve",
  "abi": [
    {
      "constant": true,
      "inputs": [],
      "name": "reserveRatio",
      "outputs": [
        {
          "name": "",
          "type": "uint32"
        }
      ],
      "payable": false,
      "stateMutability": "view",
      "type": "function"
    },
    {
      "constant": true,
      "inputs": [],
      "name": "identity",
      "outputs": [
        {
          "name": "",
          "type": "address"
        }
      ],
      "payable": false,
      "stateMutability": "view",
      "type": "function"
    },
    {
      "constant": true,
      "inputs": [],
      "name": "inflationRate",
      "outputs": [
        {
          "name": "",
          "type": "uint256"
        }
      ],
      "payable": false,
      "stateMutability": "view",
      "type": "function"
    },
    {
      "constant": true,
      "inputs": [],
      "name": "formula",
      "outputs": [
        {
          "name": "",
          "type": "address"
        }
      ],
      "payable": false,
      "stateMutability": "view",
      "type": "function"
    },
    {
      "constant": false,
      "inputs": [],
      "name": "renounceOwnership",
      "outputs": [],
      "payable": false,
      "stateMutability": "nonpayable",
      "type": "function"
    },
    {
      "constant": true,
      "inputs": [
        {
          "name": "account",
          "type": "address"
        }
      ],
      "name": "isSigner",
      "outputs": [
        {
          "name": "",
          "type": "bool"
        }
      ],
      "payable": false,
      "stateMutability": "view",
      "type": "function"
    },
    {
      "constant": true,
      "inputs": [],
      "name": "owner",
      "outputs": [
        {
          "name": "",
          "type": "address"
        }
      ],
      "payable": false,
      "stateMutability": "view",
      "type": "function"
    },
    {
      "constant": true,
      "inputs": [],
      "name": "isOwner",
      "outputs": [
        {
          "name": "",
          "type": "bool"
        }
      ],
      "payable": false,
      "stateMutability": "view",
      "type": "function"
    },
    {
      "constant": true,
      "inputs": [],
      "name": "transactionFee",
      "outputs": [
        {
          "name": "",
          "type": "uint256"
        }
      ],
      "payable": false,
      "stateMutability": "view",
      "type": "function"
    },
    {
      "constant": false,
      "inputs": [],
      "name": "renounceSigner",
      "outputs": [],
      "payable": false,
      "stateMutability": "nonpayable",
      "type": "function"
    },
    {
      "constant": false,
      "inputs": [
        {
          "name": "account",
          "type": "address"
        }
      ],
      "name": "addSigner",
      "outputs": [],
      "payable": false,
      "stateMutability": "nonpayable",
      "type": "function"
    },
    {
      "constant": false,
      "inputs": [
        {
          "name": "newOwner",
          "type": "address"
        }
      ],
      "name": "transferOwnership",
      "outputs": [],
      "payable": false,
      "stateMutability": "nonpayable",
      "type": "function"
    },
    {
      "constant": true,
      "inputs": [],
      "name": "token",
      "outputs": [
        {
          "name": "",
          "type": "address"
        }
      ],
      "payable": false,
      "stateMutability": "view",
      "type": "function"
    },
    {
      "constant": true,
      "inputs": [],
      "name": "burnFee",
      "outputs": [
        {
          "name": "",
          "type": "uint256"
        }
      ],
      "payable": false,
      "stateMutability": "view",
      "type": "function"
    },
    {
      "inputs": [
        {
          "name": "_token",
          "type": "address"
        },
        {
          "name": "_formula",
          "type": "address"
        },
        {
          "name": "_identity",
          "type": "address"
        },
        {
          "name": "oneTimePaymentLinks",
          "type": "address"
        },
        {
          "name": "ratio",
          "type": "uint32"
        }
      ],
      "payable": true,
      "stateMutability": "payable",
      "type": "constructor"
    },
    {
      "anonymous": false,
      "inputs": [
        {
          "indexed": true,
          "name": "account",
          "type": "address"
        }
      ],
      "name": "SignerAdded",
      "type": "event"
    },
    {
      "anonymous": false,
      "inputs": [
        {
          "indexed": true,
          "name": "account",
          "type": "address"
        }
      ],
      "name": "SignerRemoved",
      "type": "event"
    },
    {
      "anonymous": false,
      "inputs": [
        {
          "indexed": true,
          "name": "previousOwner",
          "type": "address"
        },
        {
          "indexed": true,
          "name": "newOwner",
          "type": "address"
        }
      ],
      "name": "OwnershipTransferred",
      "type": "event"
    },
    {
      "constant": false,
      "inputs": [
        {
          "name": "_txFee",
          "type": "uint256"
        },
        {
          "name": "_burnFee",
          "type": "uint256"
        }
      ],
      "name": "setFees",
      "outputs": [],
      "payable": false,
      "stateMutability": "nonpayable",
      "type": "function"
    },
    {
      "constant": true,
      "inputs": [
        {
          "name": "_value",
          "type": "uint256"
        }
      ],
      "name": "calcFees",
      "outputs": [
        {
          "name": "txFee",
          "type": "uint256"
        },
        {
          "name": "burn",
          "type": "uint256"
        }
      ],
      "payable": false,
      "stateMutability": "view",
      "type": "function"
    },
    {
      "constant": false,
      "inputs": [
        {
          "name": "to",
          "type": "address"
        },
        {
          "name": "exclude",
          "type": "bool"
        }
      ],
      "name": "setExcludeFromPolicy",
      "outputs": [],
      "payable": false,
      "stateMutability": "nonpayable",
      "type": "function"
    },
    {
      "constant": false,
      "inputs": [
        {
          "name": "_from",
          "type": "address"
        },
        {
          "name": "_to",
          "type": "address"
        },
        {
          "name": "_value",
          "type": "uint256"
        }
      ],
      "name": "processTX",
      "outputs": [
        {
          "name": "txFee",
          "type": "uint256"
        },
        {
          "name": "burn",
          "type": "uint256"
        }
      ],
      "payable": false,
      "stateMutability": "nonpayable",
      "type": "function"
    },
    {
      "constant": true,
      "inputs": [],
      "name": "poolBalance",
      "outputs": [
        {
          "name": "",
          "type": "uint256"
        }
      ],
      "payable": false,
      "stateMutability": "view",
      "type": "function"
    },
    {
      "constant": true,
      "inputs": [
        {
          "name": "_eth",
          "type": "uint256"
        }
      ],
      "name": "calculateAmountPurchased",
      "outputs": [
        {
          "name": "",
          "type": "uint256"
        }
      ],
      "payable": false,
      "stateMutability": "view",
      "type": "function"
    },
    {
      "constant": true,
      "inputs": [
        {
          "name": "_sellAmount",
          "type": "uint256"
        }
      ],
      "name": "calculatePriceForSale",
      "outputs": [
        {
          "name": "",
          "type": "uint256"
        }
      ],
      "payable": false,
      "stateMutability": "view",
      "type": "function"
    },
    {
      "constant": false,
      "inputs": [],
      "name": "buy",
      "outputs": [
        {
          "name": "",
          "type": "bool"
        }
      ],
      "payable": true,
      "stateMutability": "payable",
      "type": "function"
    },
    {
      "constant": false,
      "inputs": [
        {
          "name": "_sellAmount",
          "type": "uint256"
        }
      ],
      "name": "sell",
      "outputs": [
        {
          "name": "",
          "type": "bool"
        }
      ],
      "payable": false,
      "stateMutability": "nonpayable",
      "type": "function"
    },
    {
      "constant": true,
      "inputs": [],
      "name": "totalSupply",
      "outputs": [
        {
          "name": "",
          "type": "uint256"
        }
      ],
      "payable": false,
      "stateMutability": "view",
      "type": "function"
    },
    {
      "constant": false,
      "inputs": [
        {
          "name": "_account",
          "type": "address"
        },
        {
          "name": "_amount",
          "type": "uint256"
        }
      ],
      "name": "mint",
      "outputs": [
        {
          "name": "",
          "type": "bool"
        }
      ],
      "payable": false,
      "stateMutability": "nonpayable",
      "type": "function"
    }
  ],
  "bytecode": "0x608060408190526004805460a060020a63ffffffff02191675271000000000000000000000000000000000000000001790556001600555612710600655600060075560a08062001422833981018060405260a08110156200005f57600080fd5b5080516020820151604080840151606085015160809095015160008054600160a060020a03191633178082559351959694959294939192600160a060020a0392909216917f8be0079c531659141344cd1fd0a4f28419497f9722a3daafe3b4186f6b6457e0908290a3620000dc336401000000006200016a810204565b6004805460028054600160a060020a0319908116600160a060020a038a81169190911790925560a060020a63ffffffff02199092167401000000000000000000000000000000000000000063ffffffff86160217821686821617909255600380549091169186169190911790556200015f826001640100000000620001bc810204565b5050505050620002bd565b62000185600182640100000000620010b56200020782021704565b604051600160a060020a038216907f47d1c22a25bb3a5d4e481b9b1e6944c2eade3181a0a20b495ed61d35b5323f2490600090a250565b620001d03364010000000062000262810204565b1515620001dc57600080fd5b600160a060020a03919091166000908152600860205260409020805460ff1916911515919091179055565b600160a060020a03811615156200021d57600080fd5b62000232828264010000000062000285810204565b156200023d57600080fd5b600160a060020a0316600090815260209190915260409020805460ff19166001179055565b60006200027f60018364010000000062000f256200028582021704565b92915050565b6000600160a060020a03821615156200029d57600080fd5b50600160a060020a03166000908152602091909152604090205460ff1690565b61115580620002cd6000396000f3fe60806040526004361061016a5760003560e060020a900480638da5cb5b116100d5578063e1dee0d71161008e578063eb12d61e11610068578063eb12d61e14610496578063f2fde38b146104c9578063fc0c546a146104fc578063fce589d8146105115761016a565b8063e1dee0d71461042d578063e4849b3214610457578063e5c8b03d146104815761016a565b80638da5cb5b1461038e5780638f32d59b146103a357806396365d44146103b85780639ed3edf0146103cd578063a6f2ae3a146103e2578063c07ff054146103ea5761016a565b806340c10f191161012757806340c10f19146102665780634b75f54f146102b35780636239277c146102c8578063715018a61461030b5780637df73e2714610320578063864be5dd146103535761016a565b80630b78f9c01461016f5780630c7d5cd8146101a157806318160ddd146101cf5780632c159a1a146101f657806331f9e35b146102275780633967ce0b1461023c575b600080fd5b34801561017b57600080fd5b5061019f6004803603604081101561019257600080fd5b5080359060200135610526565b005b3480156101ad57600080fd5b506101b6610545565b6040805163ffffffff9092168252519081900360200190f35b3480156101db57600080fd5b506101e4610569565b60408051918252519081900360200190f35b34801561020257600080fd5b5061020b6105f8565b60408051600160a060020a039092168252519081900360200190f35b34801561023357600080fd5b506101e4610607565b34801561024857600080fd5b506101e46004803603602081101561025f57600080fd5b503561060d565b34801561027257600080fd5b5061029f6004803603604081101561028957600080fd5b50600160a060020a0381351690602001356106d2565b604080519115158252519081900360200190f35b3480156102bf57600080fd5b5061020b61078d565b3480156102d457600080fd5b506102f2600480360360208110156102eb57600080fd5b503561079c565b6040805192835260208301919091528051918290030190f35b34801561031757600080fd5b5061019f6107ec565b34801561032c57600080fd5b5061029f6004803603602081101561034357600080fd5b5035600160a060020a0316610856565b34801561035f57600080fd5b5061019f6004803603604081101561037657600080fd5b50600160a060020a0381351690602001351515610869565b34801561039a57600080fd5b5061020b6108a8565b3480156103af57600080fd5b5061029f6108b7565b3480156103c457600080fd5b506101e46108c8565b3480156103d957600080fd5b506101e46108cd565b61029f6108d3565b3480156103f657600080fd5b506102f26004803603606081101561040d57600080fd5b50600160a060020a03813581169160208101359091169060400135610aa5565b34801561043957600080fd5b506101e46004803603602081101561045057600080fd5b5035610bd6565b34801561046357600080fd5b5061029f6004803603602081101561047a57600080fd5b5035610bf4565b34801561048d57600080fd5b5061019f610e73565b3480156104a257600080fd5b5061019f600480360360208110156104b957600080fd5b5035600160a060020a0316610e7e565b3480156104d557600080fd5b5061019f600480360360208110156104ec57600080fd5b5035600160a060020a0316610e9e565b34801561050857600080fd5b5061020b610eba565b34801561051d57600080fd5b506101e4610ec9565b61052f33610856565b151561053a57600080fd5b600691909155600755565b60045474010000000000000000000000000000000000000000900463ffffffff1681565b600254604080517f18160ddd0000000000000000000000000000000000000000000000000000000081529051600092600160a060020a0316916318160ddd916004808301926020929190829003018186803b1580156105c757600080fd5b505afa1580156105db573d6000803e3d6000fd5b505050506040513d60208110156105f157600080fd5b5051905090565b600454600160a060020a031681565b60055481565b6003546000908190600160a060020a03166329a00e7c61062b610569565b6106336108c8565b600480546040805163ffffffff87811660e060020a02825293810195909552602485019390935274010000000000000000000000000000000000000000900416604483015260648201879052516084808301926020929190829003018186803b15801561069f57600080fd5b505afa1580156106b3573d6000803e3d6000fd5b505050506040513d60208110156106c957600080fd5b50519392505050565b60006106dc6108b7565b15156106e757600080fd5b600254604080517f40c10f19000000000000000000000000000000000000000000000000000000008152600160a060020a03868116600483015260248201869052915191909216916340c10f199160448083019260209291908290030181600087803b15801561075657600080fd5b505af115801561076a573d6000803e3d6000fd5b505050506040513d602081101561078057600080fd5b5060019150505b92915050565b600354600160a060020a031681565b6000806107c7620f42406107bb60065486610ecf90919063ffffffff16565b9063ffffffff610f0116565b91506107e5620f42406107bb60075486610ecf90919063ffffffff16565b9050915091565b6107f46108b7565b15156107ff57600080fd5b60008054604051600160a060020a03909116907f8be0079c531659141344cd1fd0a4f28419497f9722a3daafe3b4186f6b6457e0908390a36000805473ffffffffffffffffffffffffffffffffffffffff19169055565b600061078760018363ffffffff610f2516565b61087233610856565b151561087d57600080fd5b600160a060020a03919091166000908152600860205260409020805460ff1916911515919091179055565b600054600160a060020a031690565b600054600160a060020a0316331490565b303190565b60065481565b600034811061094357604080517f08c379a000000000000000000000000000000000000000000000000000000000815260206004820152601060248201527f76616c75652063616e2774206265203000000000000000000000000000000000604482015290519081900360640190fd5b600354600090600160a060020a03166329a00e7c61095f610569565b346109686108c8565b600480546040805163ffffffff88811660e060020a0282529381019690965293909203602485015274010000000000000000000000000000000000000000909104166044830152346064830152516084808301926020929190829003018186803b1580156109d557600080fd5b505afa1580156109e9573d6000803e3d6000fd5b505050506040513d60208110156109ff57600080fd5b5051600254604080517f40c10f19000000000000000000000000000000000000000000000000000000008152336004820152602481018490529051929350600160a060020a03909116916340c10f19916044808201926020929091908290030181600087803b158015610a7157600080fd5b505af1158015610a85573d6000803e3d6000fd5b505050506040513d6020811015610a9b57600080fd5b5060019250505090565b600160a060020a038316600090815260086020526040812054819060ff1615610ad357506000905080610bce565b60048054604080517fb9209e33000000000000000000000000000000000000000000000000000000008152600160a060020a03898116948201949094529051929091169163b9209e3391602480820192602092909190829003018186803b158015610b3d57600080fd5b505afa158015610b51573d6000803e3d6000fd5b505050506040513d6020811015610b6757600080fd5b50511515610bc0576040517f08c379a00000000000000000000000000000000000000000000000000000000081526004018080602001828103825260268152602001806111046026913960400191505060405180910390fd5b610bc98361079c565b915091505b935093915050565b6003546000908190600160a060020a03166349f9b0f761062b610569565b60008082118015610c925750600254604080517f70a0823100000000000000000000000000000000000000000000000000000000815233600482015290518492600160a060020a0316916370a08231916024808301926020929190829003018186803b158015610c6357600080fd5b505afa158015610c77573d6000803e3d6000fd5b505050506040513d6020811015610c8d57600080fd5b505110155b1515610cff57604080517f08c379a000000000000000000000000000000000000000000000000000000000815260206004820152601e60248201527f4e6f7420656e6f7567682062616c616e6365206f7220616d6f756e7420300000604482015290519081900360640190fd5b600354600090600160a060020a03166349f9b0f7610d1b610569565b610d236108c8565b600480546040805163ffffffff87811660e060020a02825293810195909552602485019390935274010000000000000000000000000000000000000000900416604483015260648201879052516084808301926020929190829003018186803b158015610d8f57600080fd5b505afa158015610da3573d6000803e3d6000fd5b505050506040513d6020811015610db957600080fd5b5051600254604080517f42966c68000000000000000000000000000000000000000000000000000000008152600481018790529051929350600160a060020a03909116916342966c689160248082019260009290919082900301818387803b158015610e2457600080fd5b505af1158015610e38573d6000803e3d6000fd5b505060405133925083156108fc02915083906000818181858888f19350505050158015610e69573d6000803e3d6000fd5b5060019392505050565b610e7c33610f5c565b565b610e8733610856565b1515610e9257600080fd5b610e9b81610fa4565b50565b610ea66108b7565b1515610eb157600080fd5b610e9b81610fec565b600254600160a060020a031681565b60075481565b6000821515610ee057506000610787565b828202828482811515610eef57fe5b0414610efa57600080fd5b9392505050565b6000808211610f0f57600080fd5b60008284811515610f1c57fe5b04949350505050565b6000600160a060020a0382161515610f3c57600080fd5b50600160a060020a03166000908152602091909152604090205460ff1690565b610f6d60018263ffffffff61106916565b604051600160a060020a038216907f3525e22824a8a7df2c9a6029941c824cf95b6447f1e13d5128fd3826d35afe8b90600090a250565b610fb560018263ffffffff6110b516565b604051600160a060020a038216907f47d1c22a25bb3a5d4e481b9b1e6944c2eade3181a0a20b495ed61d35b5323f2490600090a250565b600160a060020a038116151561100157600080fd5b60008054604051600160a060020a03808516939216917f8be0079c531659141344cd1fd0a4f28419497f9722a3daafe3b4186f6b6457e091a36000805473ffffffffffffffffffffffffffffffffffffffff1916600160a060020a0392909216919091179055565b600160a060020a038116151561107e57600080fd5b6110888282610f25565b151561109357600080fd5b600160a060020a0316600090815260209190915260409020805460ff19169055565b600160a060020a03811615156110ca57600080fd5b6110d48282610f25565b156110de57600080fd5b600160a060020a0316600090815260209190915260409020805460ff1916600117905556fe4e6f6e20766572696669656420636974697a656e732063616e27742073656e642066756e6473a165627a7a72305820c27aa190eddbf56f78087ab347f5c4f2ac1599baa058690b5de207e14cab25250029",
  "source": "pragma solidity ^0.5.0;\n\nimport \"openzeppelin-solidity/contracts/math/SafeMath.sol\";\nimport \"openzeppelin-solidity/contracts/ownership/Ownable.sol\";\nimport \"openzeppelin-solidity/contracts/access/roles/SignerRole.sol\";\n\nimport \"./BancorFormula.sol\";\nimport \"./GoodDollar.sol\";\nimport \"./IMonetaryPolicy.sol\";\nimport \"./Identity.sol\";\n\ncontract GoodDollarReserve is IMonetaryPolicy, Ownable, SignerRole {\n  using SafeMath for uint256;\n  using SafeMath for uint;\n\n  GoodDollar public token;\n  BancorFormula public formula;\n  Identity public identity;\n\n  // Members\n  // =======\n  // totalSupply(): The GoodDollar (GTC coins) amount the contract supervise (the whole GTC coins ever exists are documented here). Initiated on \"InitialMove()\"\n  // poolBalance(): The ethers (ETH coins) amount the GoodDollarReserve as a contract has in the accounthas. Initiated in the deployment of the contract.\n\n  // Reserve ratio, represented in value between\n  // 1 and 1,000,000. So 0.1 = 100000.\n  uint32 public reserveRatio = 10000;\n\n  uint256 public inflationRate = 1;\n\n  //1% tx fee as default\n  uint public transactionFee = 10000 ;\n  uint public burnFee = 0;\n\n  mapping (address => bool) excludedFromPolicy;\n\n  constructor(GoodDollar _token, BancorFormula _formula,Identity _identity,address oneTimePaymentLinks, uint32 ratio) public payable {\n    reserveRatio = ratio;\n    token = _token;\n    identity = _identity;\n    formula = _formula;\n    setExcludeFromPolicy(oneTimePaymentLinks, true);\n  }\n\n  function setFees(uint _txFee, uint _burnFee) external onlySigner {\n    transactionFee = _txFee;\n    burnFee = _burnFee;\n  }\n\n  function calcFees(uint _value) public view returns (uint txFee, uint burn) {\n    txFee = _value.mul(transactionFee).div(1000000);\n    burn = _value.mul(burnFee).div(1000000);\n  }\n\n  function setExcludeFromPolicy(address to, bool exclude) public onlySigner {\n    excludedFromPolicy[to] = exclude;\n  }\n\n  function processTX(address _from, address _to, uint256 _value) external returns (uint txFee, uint burn) {\n    if(excludedFromPolicy[_from])\n      return (0,0);\n    //enforce sender is verified\n    require(identity.isVerified(_from),\"Non verified citizens can't send funds\");\n    return calcFees(_value);\n  }\n\n  // The etherium amount the GoodDollarReserve has. Initiated in the deployment of the contract.\n  function poolBalance() public view returns(uint256) {\n    return address(this).balance;\n  }\n\n  function calculateAmountPurchased(uint256 _eth) public view returns(uint256) {\n    uint256 tokensForPrice = formula.calculatePurchaseReturn(\n        totalSupply(),\n        poolBalance(),\n        reserveRatio,\n        _eth\n    );\n\n    return tokensForPrice;\n  }\n\n  function calculatePriceForSale(uint256 _sellAmount) public view returns(uint256) {\n    uint256 ethAmount = formula.calculateSaleReturn(\n        totalSupply(),\n        poolBalance(),\n        reserveRatio,\n        _sellAmount\n    );\n\n    return ethAmount;\n  }\n\n  function buy() public payable returns(bool) {\n    require(msg.value > 0,\"value can't be 0\");\n    uint256 tokensToMint = formula.calculatePurchaseReturn(\n        totalSupply(),\n\n        // the function is payable. Means the money sent was *already reflected* in the poolBalance! (eth)\n        // But the user requested to buy according to the amount of poolBalance before he/she made the payment and changeed the formula\n          //when purchasing with eth the poolbalance is changed before this calculation\n\n        //so we have to consider this\n        poolBalance()-msg.value,\n        reserveRatio,\n        msg.value\n    );\n    token.mint(msg.sender, tokensToMint);\n\n    return true;\n  }\n\n  function sell(uint256 _sellAmount) public returns(bool){\n    require(_sellAmount > 0 && token.balanceOf(msg.sender) >= _sellAmount, \"Not enough balance or amount 0\");\n    uint256 ethAmount = formula.calculateSaleReturn(\n        totalSupply(),\n        poolBalance(),\n        reserveRatio,\n        _sellAmount\n    );\n\n    token.burn(_sellAmount);\n    msg.sender.transfer(ethAmount);\n\n    return true;\n  }\n\n  function totalSupply() public view returns (uint256) {\n    return token.totalSupply();\n  }\n\n  function mint(\n    address _account,\n    uint256 _amount\n  ) onlyOwner public returns (bool) {\n    token.mint(_account, _amount);\n\n    return true;\n  }\n}\n",
  "sourcePath": "/Users/hadar/workspace/GoodDollar/GoodBootstrap/packages/contracts/contracts/GoodDollarReserve.sol",
  "compiler": {
    "name": "solc",
    "version": "0.5.2+commit.1df8f40c.Emscripten.clang"
  },
  "schemaVersion": "3.0.9",
  "updatedAt": "2019-08-11T06:29:10.884Z",
  "devdoc": {
    "methods": {
      "isOwner()": {
        "return": "true if `msg.sender` is the owner of the contract."
      },
      "owner()": {
        "return": "the address of the owner."
      },
      "renounceOwnership()": {
        "details": "Allows the current owner to relinquish control of the contract. It will not be possible to call the functions with the `onlyOwner` modifier anymore."
      },
      "transferOwnership(address)": {
        "details": "Allows the current owner to transfer control of the contract to a newOwner.",
        "params": {
          "newOwner": "The address to transfer ownership to."
        }
      }
    }
  },
  "userdoc": {
    "methods": {
      "renounceOwnership()": {
        "notice": "Renouncing ownership will leave the contract without an owner, thereby removing any functionality that is only available to the owner."
      }
    }
  }
}