{
  "contractName": "GoodDollarReserve",
  "abi": [
    {
      "constant": true,
      "inputs": [],
      "name": "reserveRatio",
      "outputs": [
        {
          "name": "",
          "type": "uint32"
        }
      ],
      "payable": false,
      "stateMutability": "view",
      "type": "function",
      "signature": "0x0c7d5cd8"
    },
    {
      "constant": true,
      "inputs": [],
      "name": "inflationRate",
      "outputs": [
        {
          "name": "",
          "type": "uint256"
        }
      ],
      "payable": false,
      "stateMutability": "view",
      "type": "function",
      "signature": "0x31f9e35b"
    },
    {
      "constant": true,
      "inputs": [],
      "name": "formula",
      "outputs": [
        {
          "name": "",
          "type": "address"
        }
      ],
      "payable": false,
      "stateMutability": "view",
      "type": "function",
      "signature": "0x4b75f54f"
    },
    {
      "constant": false,
      "inputs": [],
      "name": "renounceOwnership",
      "outputs": [],
      "payable": false,
      "stateMutability": "nonpayable",
      "type": "function",
      "signature": "0x715018a6"
    },
    {
      "constant": true,
      "inputs": [],
      "name": "owner",
      "outputs": [
        {
          "name": "",
          "type": "address"
        }
      ],
      "payable": false,
      "stateMutability": "view",
      "type": "function",
      "signature": "0x8da5cb5b"
    },
    {
      "constant": true,
      "inputs": [],
      "name": "isOwner",
      "outputs": [
        {
          "name": "",
          "type": "bool"
        }
      ],
      "payable": false,
      "stateMutability": "view",
      "type": "function",
      "signature": "0x8f32d59b"
    },
    {
      "constant": false,
      "inputs": [
        {
          "name": "newOwner",
          "type": "address"
        }
      ],
      "name": "transferOwnership",
      "outputs": [],
      "payable": false,
      "stateMutability": "nonpayable",
      "type": "function",
      "signature": "0xf2fde38b"
    },
    {
      "constant": true,
      "inputs": [],
      "name": "token",
      "outputs": [
        {
          "name": "",
          "type": "address"
        }
      ],
      "payable": false,
      "stateMutability": "view",
      "type": "function",
      "signature": "0xfc0c546a"
    },
    {
      "inputs": [
        {
          "name": "_token",
          "type": "address"
        },
        {
          "name": "_formula",
          "type": "address"
        },
        {
          "name": "ratio",
          "type": "uint32"
        }
      ],
      "payable": true,
      "stateMutability": "payable",
      "type": "constructor",
      "signature": "constructor"
    },
    {
      "anonymous": false,
      "inputs": [
        {
          "indexed": true,
          "name": "previousOwner",
          "type": "address"
        },
        {
          "indexed": true,
          "name": "newOwner",
          "type": "address"
        }
      ],
      "name": "OwnershipTransferred",
      "type": "event",
      "signature": "0x8be0079c531659141344cd1fd0a4f28419497f9722a3daafe3b4186f6b6457e0"
    },
    {
      "constant": true,
      "inputs": [],
      "name": "poolBalance",
      "outputs": [
        {
          "name": "",
          "type": "uint256"
        }
      ],
      "payable": false,
      "stateMutability": "view",
      "type": "function",
      "signature": "0x96365d44"
    },
    {
      "constant": true,
      "inputs": [
        {
          "name": "_eth",
          "type": "uint256"
        }
      ],
      "name": "calculateAmountPurchased",
      "outputs": [
        {
          "name": "",
          "type": "uint256"
        }
      ],
      "payable": false,
      "stateMutability": "view",
      "type": "function",
      "signature": "0x3967ce0b"
    },
    {
      "constant": true,
      "inputs": [
        {
          "name": "_sellAmount",
          "type": "uint256"
        }
      ],
      "name": "calculatePriceForSale",
      "outputs": [
        {
          "name": "",
          "type": "uint256"
        }
      ],
      "payable": false,
      "stateMutability": "view",
      "type": "function",
      "signature": "0xe1dee0d7"
    },
    {
      "constant": false,
      "inputs": [],
      "name": "buy",
      "outputs": [
        {
          "name": "",
          "type": "bool"
        }
      ],
      "payable": true,
      "stateMutability": "payable",
      "type": "function",
      "signature": "0xa6f2ae3a"
    },
    {
      "constant": false,
      "inputs": [
        {
          "name": "_sellAmount",
          "type": "uint256"
        }
      ],
      "name": "sell",
      "outputs": [
        {
          "name": "",
          "type": "bool"
        }
      ],
      "payable": false,
      "stateMutability": "nonpayable",
      "type": "function",
      "signature": "0xe4849b32"
    },
    {
      "constant": true,
      "inputs": [],
      "name": "totalSupply",
      "outputs": [
        {
          "name": "",
          "type": "uint256"
        }
      ],
      "payable": false,
      "stateMutability": "view",
      "type": "function",
      "signature": "0x18160ddd"
    },
    {
      "constant": false,
      "inputs": [
        {
          "name": "_account",
          "type": "address"
        },
        {
          "name": "_amount",
          "type": "uint256"
        }
      ],
      "name": "mint",
      "outputs": [
        {
          "name": "",
          "type": "bool"
        }
      ],
      "payable": false,
      "stateMutability": "nonpayable",
      "type": "function",
      "signature": "0x40c10f19"
    }
  ],
  "bytecode": "0x608060408190526002805460a060020a63ffffffff021916760186a000000000000000000000000000000000000000001790556001600355606080610b438339810180604052606081101561005357600080fd5b508051602082015160409283015160008054600160a060020a03191633178082559451939492939192600160a060020a0316917f8be0079c531659141344cd1fd0a4f28419497f9722a3daafe3b4186f6b6457e0908290a36002805460018054600160a060020a03968716600160a060020a0319918216179091559390941663ffffffff909216740100000000000000000000000000000000000000000260a060020a63ffffffff02199094169390931791909116179055610a298061011a6000396000f3fe6080604052600436106100c15763ffffffff60e060020a6000350416630c7d5cd881146100c657806318160ddd146100f457806331f9e35b1461011b5780633967ce0b1461013057806340c10f191461015a5780634b75f54f146101a7578063715018a6146101d85780638da5cb5b146101ef5780638f32d59b1461020457806396365d4414610219578063a6f2ae3a1461022e578063e1dee0d714610236578063e4849b3214610260578063f2fde38b1461028a578063fc0c546a146102bd575b600080fd5b3480156100d257600080fd5b506100db6102d2565b6040805163ffffffff9092168252519081900360200190f35b34801561010057600080fd5b506101096102f6565b60408051918252519081900360200190f35b34801561012757600080fd5b50610109610385565b34801561013c57600080fd5b506101096004803603602081101561015357600080fd5b503561038b565b34801561016657600080fd5b506101936004803603604081101561017d57600080fd5b50600160a060020a038135169060200135610450565b604080519115158252519081900360200190f35b3480156101b357600080fd5b506101bc610509565b60408051600160a060020a039092168252519081900360200190f35b3480156101e457600080fd5b506101ed610518565b005b3480156101fb57600080fd5b506101bc610582565b34801561021057600080fd5b50610193610591565b34801561022557600080fd5b506101096105a2565b6101936105a7565b34801561024257600080fd5b506101096004803603602081101561025957600080fd5b5035610717565b34801561026c57600080fd5b506101936004803603602081101561028357600080fd5b5035610735565b34801561029657600080fd5b506101ed600480360360208110156102ad57600080fd5b5035600160a060020a0316610952565b3480156102c957600080fd5b506101bc610971565b60025474010000000000000000000000000000000000000000900463ffffffff1681565b600154604080517f18160ddd0000000000000000000000000000000000000000000000000000000081529051600092600160a060020a0316916318160ddd916004808301926020929190829003018186803b15801561035457600080fd5b505afa158015610368573d6000803e3d6000fd5b505050506040513d602081101561037e57600080fd5b5051905090565b60035481565b6002546000908190600160a060020a03166329a00e7c6103a96102f6565b6103b16105a2565b600260149054906101000a900463ffffffff16876040518563ffffffff1660e060020a028152600401808581526020018481526020018363ffffffff1663ffffffff16815260200182815260200194505050505060206040518083038186803b15801561041d57600080fd5b505afa158015610431573d6000803e3d6000fd5b505050506040513d602081101561044757600080fd5b50519392505050565b600061045a610591565b151561046557600080fd5b600154604080517f40c10f19000000000000000000000000000000000000000000000000000000008152600160a060020a03868116600483015260248201869052915191909216916340c10f199160448083019260209291908290030181600087803b1580156104d457600080fd5b505af11580156104e8573d6000803e3d6000fd5b505050506040513d60208110156104fe57600080fd5b506001949350505050565b600254600160a060020a031681565b610520610591565b151561052b57600080fd5b60008054604051600160a060020a03909116907f8be0079c531659141344cd1fd0a4f28419497f9722a3daafe3b4186f6b6457e0908390a36000805473ffffffffffffffffffffffffffffffffffffffff19169055565b600054600160a060020a031690565b600054600160a060020a0316331490565b303190565b60003481106105b557600080fd5b600254600090600160a060020a03166329a00e7c6105d16102f6565b346105da6105a2565b03600260149054906101000a900463ffffffff16346040518563ffffffff1660e060020a028152600401808581526020018481526020018363ffffffff1663ffffffff16815260200182815260200194505050505060206040518083038186803b15801561064757600080fd5b505afa15801561065b573d6000803e3d6000fd5b505050506040513d602081101561067157600080fd5b5051600154604080517f40c10f19000000000000000000000000000000000000000000000000000000008152336004820152602481018490529051929350600160a060020a03909116916340c10f19916044808201926020929091908290030181600087803b1580156106e357600080fd5b505af11580156106f7573d6000803e3d6000fd5b505050506040513d602081101561070d57600080fd5b5060019250505090565b6002546000908190600160a060020a03166349f9b0f76103a96102f6565b600080821180156107d35750600154604080517f70a0823100000000000000000000000000000000000000000000000000000000815233600482015290518492600160a060020a0316916370a08231916024808301926020929190829003018186803b1580156107a457600080fd5b505afa1580156107b8573d6000803e3d6000fd5b505050506040513d60208110156107ce57600080fd5b505110155b15156107de57600080fd5b600254600090600160a060020a03166349f9b0f76107fa6102f6565b6108026105a2565b600260149054906101000a900463ffffffff16876040518563ffffffff1660e060020a028152600401808581526020018481526020018363ffffffff1663ffffffff16815260200182815260200194505050505060206040518083038186803b15801561086e57600080fd5b505afa158015610882573d6000803e3d6000fd5b505050506040513d602081101561089857600080fd5b5051600154604080517f42966c68000000000000000000000000000000000000000000000000000000008152600481018790529051929350600160a060020a03909116916342966c689160248082019260009290919082900301818387803b15801561090357600080fd5b505af1158015610917573d6000803e3d6000fd5b505060405133925083156108fc02915083906000818181858888f19350505050158015610948573d6000803e3d6000fd5b5060019392505050565b61095a610591565b151561096557600080fd5b61096e81610980565b50565b600154600160a060020a031681565b600160a060020a038116151561099557600080fd5b60008054604051600160a060020a03808516939216917f8be0079c531659141344cd1fd0a4f28419497f9722a3daafe3b4186f6b6457e091a36000805473ffffffffffffffffffffffffffffffffffffffff1916600160a060020a039290921691909117905556fea165627a7a72305820dda0a3569fd00066500df69a006171071d6d2d9edca717fd3cc5d802b47f7de60029",
  "source": "pragma solidity ^0.5.0;\r\n\r\nimport \"openzeppelin-solidity/contracts/math/SafeMath.sol\";\r\nimport \"openzeppelin-solidity/contracts/ownership/Ownable.sol\";\r\n\r\nimport \"./BancorFormula.sol\";\r\nimport \"./GoodDollar.sol\";\r\n\r\ncontract GoodDollarReserve is Ownable {\r\n    using SafeMath for uint256;\r\n\r\n    GoodDollar public token;\r\n    BancorFormula public formula;\r\n\r\n    // Members\r\n    // =======\r\n    // totalSupply(): The GoodDollar (GTC coins) amount the contract supervise (the whole GTC coins ever exists are documented here). Initiated on \"InitialMove()\"\r\n    // poolBalance(): The ethers (ETH coins) amount the GoodDollarReserve as a contract has in the accounthas. Initiated in the deployment of the contract.\r\n\r\n    // Reserve ratio, represented in value between\r\n    // 1 and 1,000,000. So 0.1 = 100000.\r\n    uint32 public reserveRatio = 100000;\r\n\r\n    uint256 public inflationRate = 1;\r\n\r\n    constructor(address _token, address _formula, uint32 ratio) public payable {\r\n        reserveRatio = ratio;\r\n        token = GoodDollar(_token);\r\n        formula = BancorFormula(_formula);\r\n    }\r\n\r\n    // The etherium amount the GoodDollarReserve has. Initiated in the deployment of the contract.\r\n    function poolBalance() public view returns(uint256) {\r\n        return address(this).balance;\r\n    }\r\n\r\n    function calculateAmountPurchased(uint256 _eth) public view returns(uint256) {\r\n        uint256 tokensForPrice = formula.calculatePurchaseReturn(\r\n            totalSupply(),\r\n            poolBalance(),\r\n            reserveRatio,\r\n            _eth\r\n        );\r\n\r\n        return tokensForPrice;\r\n    }\r\n\r\n    function calculatePriceForSale(uint256 _sellAmount) public view returns(uint256) {\r\n        uint256 ethAmount = formula.calculateSaleReturn(\r\n            totalSupply(),\r\n            poolBalance(),\r\n            reserveRatio,\r\n            _sellAmount\r\n        );\r\n\r\n        return ethAmount;\r\n    }\r\n\r\n    function buy() public payable returns(bool) {\r\n        require(msg.value > 0);\r\n        uint256 tokensToMint = formula.calculatePurchaseReturn(\r\n            totalSupply(),\r\n\r\n            // the function is payable. Means the money sent was *already reflected* in the poolBalance! (eth)\r\n            // But the user requested to buy according to the amount of poolBalance before he/she made the payment and changeed the formula\r\n             //when purchasing with eth the poolbalance is changed before this calculation\r\n\r\n            //so we have to consider this\r\n            poolBalance()-msg.value,\r\n            reserveRatio,\r\n            msg.value\r\n        );\r\n        token.mint(msg.sender, tokensToMint);\r\n\r\n        return true;\r\n    }\r\n\r\n    function sell(uint256 _sellAmount) public returns(bool){\r\n        require(_sellAmount > 0 && token.balanceOf(msg.sender) >= _sellAmount);\r\n        uint256 ethAmount = formula.calculateSaleReturn(\r\n            totalSupply(),\r\n            poolBalance(),\r\n            reserveRatio,\r\n            _sellAmount\r\n        );\r\n\r\n        token.burn(_sellAmount);\r\n        msg.sender.transfer(ethAmount);\r\n\r\n        return true;\r\n    }\r\n\r\n    function totalSupply() public view returns (uint256) {\r\n        return token.totalSupply();\r\n    }\r\n\r\n    function mint(\r\n        address _account,\r\n        uint256 _amount\r\n    ) onlyOwner public returns (bool) {\r\n        token.mint(_account, _amount);\r\n\r\n        return true;\r\n    }\r\n}\r\n",
  "sourcePath": "C:\\Users\\hadarro\\Documents\\GoodDollar\\GoodContracts\\contracts\\GoodDollarReserve.sol",
  "compiler": {
    "name": "solc",
    "version": "0.5.0+commit.1d4f565a.Emscripten.clang"
  },
  "schemaVersion": "3.0.1",
  "updatedAt": "2019-01-29T15:55:34.191Z",
  "devdoc": {
    "methods": {
      "isOwner()": {
        "return": "true if `msg.sender` is the owner of the contract."
      },
      "owner()": {
        "return": "the address of the owner."
      },
      "renounceOwnership()": {
        "details": "Allows the current owner to relinquish control of the contract."
      },
      "transferOwnership(address)": {
        "details": "Allows the current owner to transfer control of the contract to a newOwner.",
        "params": {
          "newOwner": "The address to transfer ownership to."
        }
      }
    }
  },
  "userdoc": {
    "methods": {
      "renounceOwnership()": {
        "notice": "Renouncing to ownership will leave the contract without an owner. It will not be possible to call the functions with the `onlyOwner` modifier anymore."
      }
    }
  }
}