{
  "contractName": "GoodDollar",
  "abi": [
    {
      "constant": true,
      "inputs": [],
      "name": "name",
      "outputs": [
        {
          "name": "",
          "type": "string"
        }
      ],
      "payable": false,
      "stateMutability": "view",
      "type": "function"
    },
    {
      "constant": false,
      "inputs": [
        {
          "name": "_bridgeContract",
          "type": "address"
        }
      ],
      "name": "setBridgeContract",
      "outputs": [],
      "payable": false,
      "stateMutability": "nonpayable",
      "type": "function"
    },
    {
      "constant": true,
      "inputs": [],
      "name": "totalSupply",
      "outputs": [
        {
          "name": "",
          "type": "uint256"
        }
      ],
      "payable": false,
      "stateMutability": "view",
      "type": "function"
    },
    {
      "constant": true,
      "inputs": [],
      "name": "identity",
      "outputs": [
        {
          "name": "",
          "type": "address"
        }
      ],
      "payable": false,
      "stateMutability": "view",
      "type": "function"
    },
    {
      "constant": true,
      "inputs": [],
      "name": "decimals",
      "outputs": [
        {
          "name": "",
          "type": "uint256"
        }
      ],
      "payable": false,
      "stateMutability": "view",
      "type": "function"
    },
    {
      "constant": true,
      "inputs": [],
      "name": "cap",
      "outputs": [
        {
          "name": "",
          "type": "uint256"
        }
      ],
      "payable": false,
      "stateMutability": "view",
      "type": "function"
    },
    {
      "constant": false,
      "inputs": [],
      "name": "unpause",
      "outputs": [],
      "payable": false,
      "stateMutability": "nonpayable",
      "type": "function"
    },
    {
      "constant": true,
      "inputs": [
        {
          "name": "account",
          "type": "address"
        }
      ],
      "name": "isPauser",
      "outputs": [
        {
          "name": "",
          "type": "bool"
        }
      ],
      "payable": false,
      "stateMutability": "view",
      "type": "function"
    },
    {
      "constant": true,
      "inputs": [],
      "name": "formula",
      "outputs": [
        {
          "name": "",
          "type": "address"
        }
      ],
      "payable": false,
      "stateMutability": "view",
      "type": "function"
    },
    {
      "constant": true,
      "inputs": [],
      "name": "paused",
      "outputs": [
        {
          "name": "",
          "type": "bool"
        }
      ],
      "payable": false,
      "stateMutability": "view",
      "type": "function"
    },
    {
      "constant": false,
      "inputs": [
        {
          "name": "_identity",
          "type": "address"
        }
      ],
      "name": "setIdentity",
      "outputs": [],
      "payable": false,
      "stateMutability": "nonpayable",
      "type": "function"
    },
    {
      "constant": false,
      "inputs": [],
      "name": "renouncePauser",
      "outputs": [],
      "payable": false,
      "stateMutability": "nonpayable",
      "type": "function"
    },
    {
      "constant": true,
      "inputs": [
        {
          "name": "owner",
          "type": "address"
        }
      ],
      "name": "balanceOf",
      "outputs": [
        {
          "name": "",
          "type": "uint256"
        }
      ],
      "payable": false,
      "stateMutability": "view",
      "type": "function"
    },
    {
      "constant": false,
      "inputs": [],
      "name": "renounceOwnership",
      "outputs": [],
      "payable": false,
      "stateMutability": "nonpayable",
      "type": "function"
    },
    {
      "constant": false,
      "inputs": [
        {
          "name": "account",
          "type": "address"
        }
      ],
      "name": "addPauser",
      "outputs": [],
      "payable": false,
      "stateMutability": "nonpayable",
      "type": "function"
    },
    {
      "constant": false,
      "inputs": [],
      "name": "pause",
      "outputs": [],
      "payable": false,
      "stateMutability": "nonpayable",
      "type": "function"
    },
    {
      "constant": true,
      "inputs": [],
      "name": "owner",
      "outputs": [
        {
          "name": "",
          "type": "address"
        }
      ],
      "payable": false,
      "stateMutability": "view",
      "type": "function"
    },
    {
      "constant": true,
      "inputs": [],
      "name": "isOwner",
      "outputs": [
        {
          "name": "",
          "type": "bool"
        }
      ],
      "payable": false,
      "stateMutability": "view",
      "type": "function"
    },
    {
      "constant": true,
      "inputs": [],
      "name": "symbol",
      "outputs": [
        {
          "name": "",
          "type": "string"
        }
      ],
      "payable": false,
      "stateMutability": "view",
      "type": "function"
    },
    {
      "constant": false,
      "inputs": [
        {
          "name": "account",
          "type": "address"
        }
      ],
      "name": "addMinter",
      "outputs": [],
      "payable": false,
      "stateMutability": "nonpayable",
      "type": "function"
    },
    {
      "constant": false,
      "inputs": [],
      "name": "renounceMinter",
      "outputs": [],
      "payable": false,
      "stateMutability": "nonpayable",
      "type": "function"
    },
    {
      "constant": true,
      "inputs": [
        {
          "name": "account",
          "type": "address"
        }
      ],
      "name": "isMinter",
      "outputs": [
        {
          "name": "",
          "type": "bool"
        }
      ],
      "payable": false,
      "stateMutability": "view",
      "type": "function"
    },
    {
      "constant": true,
      "inputs": [],
      "name": "bridgeContract",
      "outputs": [
        {
          "name": "",
          "type": "address"
        }
      ],
      "payable": false,
      "stateMutability": "view",
      "type": "function"
    },
    {
      "constant": true,
      "inputs": [
        {
          "name": "owner",
          "type": "address"
        },
        {
          "name": "spender",
          "type": "address"
        }
      ],
      "name": "allowance",
      "outputs": [
        {
          "name": "",
          "type": "uint256"
        }
      ],
      "payable": false,
      "stateMutability": "view",
      "type": "function"
    },
    {
      "constant": false,
      "inputs": [
        {
          "name": "_formula",
          "type": "address"
        }
      ],
      "name": "setFormula",
      "outputs": [],
      "payable": false,
      "stateMutability": "nonpayable",
      "type": "function"
    },
    {
      "constant": false,
      "inputs": [
        {
          "name": "newOwner",
          "type": "address"
        }
      ],
      "name": "transferOwnership",
      "outputs": [],
      "payable": false,
      "stateMutability": "nonpayable",
      "type": "function"
    },
    {
      "inputs": [
        {
          "name": "_name",
          "type": "string"
        },
        {
          "name": "_symbol",
          "type": "string"
        },
        {
          "name": "_cap",
          "type": "uint256"
        },
        {
          "name": "_formula",
          "type": "address"
        },
        {
          "name": "_identity",
          "type": "address"
        },
        {
          "name": "_feeRecipient",
          "type": "address"
        }
      ],
      "payable": false,
      "stateMutability": "nonpayable",
      "type": "constructor"
    },
    {
      "anonymous": false,
      "inputs": [
        {
          "indexed": true,
          "name": "account",
          "type": "address"
        }
      ],
      "name": "MinterAdded",
      "type": "event"
    },
    {
      "anonymous": false,
      "inputs": [
        {
          "indexed": true,
          "name": "account",
          "type": "address"
        }
      ],
      "name": "MinterRemoved",
      "type": "event"
    },
    {
      "anonymous": false,
      "inputs": [
        {
          "indexed": false,
          "name": "account",
          "type": "address"
        }
      ],
      "name": "Paused",
      "type": "event"
    },
    {
      "anonymous": false,
      "inputs": [
        {
          "indexed": false,
          "name": "account",
          "type": "address"
        }
      ],
      "name": "Unpaused",
      "type": "event"
    },
    {
      "anonymous": false,
      "inputs": [
        {
          "indexed": true,
          "name": "account",
          "type": "address"
        }
      ],
      "name": "PauserAdded",
      "type": "event"
    },
    {
      "anonymous": false,
      "inputs": [
        {
          "indexed": true,
          "name": "account",
          "type": "address"
        }
      ],
      "name": "PauserRemoved",
      "type": "event"
    },
    {
      "anonymous": false,
      "inputs": [
        {
          "indexed": true,
          "name": "previousOwner",
          "type": "address"
        },
        {
          "indexed": true,
          "name": "newOwner",
          "type": "address"
        }
      ],
      "name": "OwnershipTransferred",
      "type": "event"
    },
    {
      "anonymous": false,
      "inputs": [
        {
          "indexed": true,
          "name": "from",
          "type": "address"
        },
        {
          "indexed": true,
          "name": "to",
          "type": "address"
        },
        {
          "indexed": false,
          "name": "value",
          "type": "uint256"
        }
      ],
      "name": "Transfer",
      "type": "event"
    },
    {
      "anonymous": false,
      "inputs": [
        {
          "indexed": true,
          "name": "owner",
          "type": "address"
        },
        {
          "indexed": true,
          "name": "spender",
          "type": "address"
        },
        {
          "indexed": false,
          "name": "value",
          "type": "uint256"
        }
      ],
      "name": "Approval",
      "type": "event"
    },
    {
      "anonymous": false,
      "inputs": [
        {
          "indexed": true,
          "name": "from",
          "type": "address"
        },
        {
          "indexed": true,
          "name": "to",
          "type": "address"
        },
        {
          "indexed": false,
          "name": "value",
          "type": "uint256"
        },
        {
          "indexed": false,
          "name": "data",
          "type": "bytes"
        }
      ],
      "name": "Transfer",
      "type": "event"
    },
    {
      "constant": false,
      "inputs": [
        {
          "name": "to",
          "type": "address"
        },
        {
          "name": "value",
          "type": "uint256"
        }
      ],
      "name": "transfer",
      "outputs": [
        {
          "name": "",
          "type": "bool"
        }
      ],
      "payable": false,
      "stateMutability": "nonpayable",
      "type": "function"
    },
    {
      "constant": false,
      "inputs": [
        {
          "name": "spender",
          "type": "address"
        },
        {
          "name": "value",
          "type": "uint256"
        }
      ],
      "name": "approve",
      "outputs": [
        {
          "name": "",
          "type": "bool"
        }
      ],
      "payable": false,
      "stateMutability": "nonpayable",
      "type": "function"
    },
    {
      "constant": false,
      "inputs": [
        {
          "name": "from",
          "type": "address"
        },
        {
          "name": "to",
          "type": "address"
        },
        {
          "name": "value",
          "type": "uint256"
        }
      ],
      "name": "transferFrom",
      "outputs": [
        {
          "name": "",
          "type": "bool"
        }
      ],
      "payable": false,
      "stateMutability": "nonpayable",
      "type": "function"
    },
    {
      "constant": false,
      "inputs": [
        {
          "name": "to",
          "type": "address"
        },
        {
          "name": "value",
          "type": "uint256"
        },
        {
          "name": "data",
          "type": "bytes"
        }
      ],
      "name": "transferAndCall",
      "outputs": [
        {
          "name": "",
          "type": "bool"
        }
      ],
      "payable": false,
      "stateMutability": "nonpayable",
      "type": "function"
    },
    {
      "constant": false,
      "inputs": [
        {
          "name": "to",
          "type": "address"
        },
        {
          "name": "value",
          "type": "uint256"
        }
      ],
      "name": "mint",
      "outputs": [
        {
          "name": "",
          "type": "bool"
        }
      ],
      "payable": false,
      "stateMutability": "nonpayable",
      "type": "function"
    },
    {
      "constant": false,
      "inputs": [
        {
          "name": "value",
          "type": "uint256"
        }
      ],
      "name": "burn",
      "outputs": [],
      "payable": false,
      "stateMutability": "nonpayable",
      "type": "function"
    },
    {
      "constant": false,
      "inputs": [
        {
          "name": "from",
          "type": "address"
        },
        {
          "name": "value",
          "type": "uint256"
        }
      ],
      "name": "burnFrom",
      "outputs": [],
      "payable": false,
      "stateMutability": "nonpayable",
      "type": "function"
    },
    {
      "constant": false,
      "inputs": [
        {
          "name": "spender",
          "type": "address"
        },
        {
          "name": "addedValue",
          "type": "uint256"
        }
      ],
      "name": "increaseAllowance",
      "outputs": [
        {
          "name": "",
          "type": "bool"
        }
      ],
      "payable": false,
      "stateMutability": "nonpayable",
      "type": "function"
    },
    {
      "constant": false,
      "inputs": [
        {
          "name": "spender",
          "type": "address"
        },
        {
          "name": "subtractedValue",
          "type": "uint256"
        }
      ],
      "name": "decreaseAllowance",
      "outputs": [
        {
          "name": "",
          "type": "bool"
        }
      ],
      "payable": false,
      "stateMutability": "nonpayable",
      "type": "function"
    },
    {
      "constant": true,
      "inputs": [
        {
          "name": "value",
          "type": "uint256"
        }
      ],
      "name": "getFees",
      "outputs": [
        {
          "name": "",
          "type": "uint256"
        }
      ],
      "payable": false,
      "stateMutability": "view",
      "type": "function"
    },
    {
      "constant": false,
      "inputs": [
        {
          "name": "_feeRecipient",
          "type": "address"
        }
      ],
      "name": "setFeeRecipient",
      "outputs": [],
      "payable": false,
      "stateMutability": "nonpayable",
      "type": "function"
    }
  ],
  "bytecode": "0x60806040523480156200001157600080fd5b5060405162002e4938038062002e49833981018060405260c08110156200003757600080fd5b8101908080516401000000008111156200005057600080fd5b820160208101848111156200006457600080fd5b81516401000000008111828201871017156200007f57600080fd5b505092919060200180516401000000008111156200009c57600080fd5b82016020810184811115620000b057600080fd5b8151640100000000811182820187101715620000cb57600080fd5b50506020820151604080840151606085015160809095015160038054600160a060020a0319163317908190559251949750929550939284918491899189918991849184918491849184918491600160a060020a0316906000907f8be0079c531659141344cd1fd0a4f28419497f9722a3daafe3b4186f6b6457e0908290a382516200015e90600490602086019062000429565b5081516200017490600590602085019062000429565b50600655506200018f905033640100000000620002f2810204565b50506008805460ff1916905550620001b03364010000000062000344810204565b505050600160a060020a03811615156200022b57604080517f08c379a000000000000000000000000000000000000000000000000000000000815260206004820152601960248201527f537570706c696564206964656e74697479206973206e756c6c00000000000000604482015290519081900360640190fd5b600b8054600160a060020a031916600160a060020a0392831617905581161515620002b757604080517f08c379a000000000000000000000000000000000000000000000000000000000815260206004820152601860248201527f537570706c69656420666f726d756c61206973206e756c6c0000000000000000604482015290519081900360640190fd5b600c8054600160a060020a03928316600160a060020a031991821617909155600d805493909216921691909117905550620004ce9350505050565b6200030d600782640100000000620027426200039682021704565b604051600160a060020a038216907f6719d08c1888103bea251a4ed56406bd0c3e69723c8a1686e017e7bbe159b6f890600090a250565b6200035f600982640100000000620027426200039682021704565b604051600160a060020a038216907f6ae172837ea30b801fbfcdd4108aa1d5bf8ff775444fd70256b44e6bf3dfc3f690600090a250565b600160a060020a0381161515620003ac57600080fd5b620003c18282640100000000620003f1810204565b15620003cc57600080fd5b600160a060020a0316600090815260209190915260409020805460ff19166001179055565b6000600160a060020a03821615156200040957600080fd5b50600160a060020a03166000908152602091909152604090205460ff1690565b828054600181600116156101000203166002900490600052602060002090601f016020900481019282601f106200046c57805160ff19168380011785556200049c565b828001600101855582156200049c579182015b828111156200049c5782518255916020019190600101906200047f565b50620004aa929150620004ae565b5090565b620004cb91905b80821115620004aa5760008155600101620004b5565b90565b61296b80620004de6000396000f3fe608060405234801561001057600080fd5b506004361061022b5760003560e060020a9004806370a082311161013457806398650275116100bc578063d5a06d4c11610080578063d5a06d4c14610653578063dd62ed3e14610670578063e74b981b1461069e578063ecc06c76146106c4578063f2fde38b146106ea5761022b565b806398650275146105c5578063a457c2d7146105cd578063a9059cbb146105f9578063aa271e1a14610625578063cd5965831461064b5761022b565b80638456cb59116101035780638456cb591461057f5780638da5cb5b146105875780638f32d59b1461058f57806395d89b4114610597578063983b2d561461059f5761022b565b806370a08231146104ff578063715018a61461052557806379cc67901461052d57806382dc1ec4146105595761022b565b80633f4ba83a116101b757806346fbf68e1161018657806346fbf68e1461049b5780634b75f54f146104c15780635c975abb146104c95780635d5bf178146104d15780636ef8d66d146104f75761022b565b80633f4ba83a146103c55780634000aea0146103cd57806340c10f191461045257806342966c681461047e5761022b565b806323b872dd116101fe57806323b872dd1461032f5780632c159a1a14610365578063313ce56714610389578063355274ea1461039157806339509351146103995761022b565b806306fdde0314610230578063095ea7b3146102ad5780630b26cf66146102ed57806318160ddd14610315575b600080fd5b610238610710565b6040805160208082528351818301528351919283929083019185019080838360005b8381101561027257818101518382015260200161025a565b50505050905090810190601f16801561029f5780820380516001836020036101000a031916815260200191505b509250505060405180910390f35b6102d9600480360360408110156102c357600080fd5b50600160a060020a03813516906020013561079e565b604080519115158252519081900360200190f35b6103136004803603602081101561030357600080fd5b5035600160a060020a031661092f565b005b61031d6109e4565b60408051918252519081900360200190f35b6102d96004803603606081101561034557600080fd5b50600160a060020a038135811691602081013590911690604001356109ea565b61036d610d3a565b60408051600160a060020a039092168252519081900360200190f35b61031d610d49565b61031d610d4e565b6102d9600480360360408110156103af57600080fd5b50600160a060020a038135169060200135610d54565b610313610edd565b6102d9600480360360608110156103e357600080fd5b600160a060020a038235169160208101359181019060608101604082013564010000000081111561041357600080fd5b82018360208201111561042557600080fd5b8035906020019184600183028401116401000000008311171561044757600080fd5b509092509050610f41565b6102d96004803603604081101561046857600080fd5b50600160a060020a03813516906020013561111a565b6103136004803603602081101561049457600080fd5b503561126c565b6102d9600480360360208110156104b157600080fd5b5035600160a060020a0316611335565b61036d61134e565b6102d961135d565b610313600480360360208110156104e757600080fd5b5035600160a060020a0316611366565b610313611466565b61031d6004803603602081101561051557600080fd5b5035600160a060020a0316611471565b61031361148c565b6103136004803603604081101561054357600080fd5b50600160a060020a0381351690602001356114f6565b6103136004803603602081101561056f57600080fd5b5035600160a060020a0316611684565b6103136116a1565b61036d611707565b6102d9611716565b610238611727565b610313600480360360208110156105b557600080fd5b5035600160a060020a0316611782565b61031361179f565b6102d9600480360360408110156105e357600080fd5b50600160a060020a0381351690602001356117a8565b6102d96004803603604081101561060f57600080fd5b50600160a060020a038135169060200135611931565b6102d96004803603602081101561063b57600080fd5b5035600160a060020a0316611ad1565b61036d611ae4565b61031d6004803603602081101561066957600080fd5b5035611af3565b61031d6004803603604081101561068657600080fd5b50600160a060020a0381358116916020013516611b8a565b610313600480360360208110156106b457600080fd5b5035600160a060020a0316611bb5565b610313600480360360208110156106da57600080fd5b5035600160a060020a0316611bf7565b6103136004803603602081101561070057600080fd5b5035600160a060020a0316611ca1565b6004805460408051602060026001851615610100026000190190941693909304601f810184900484028201840190925281815292918301828280156107965780601f1061076b57610100808354040283529160200191610796565b820191906000526020600020905b81548152906001019060200180831161077957829003601f168201915b505050505081565b600b546040805160e060020a63fe575a870281523360048201529051600092600160a060020a03169163fe575a87916024808301926020929190829003018186803b1580156107ec57600080fd5b505afa158015610800573d6000803e3d6000fd5b505050506040513d602081101561081657600080fd5b50511561085b576040805160e560020a62461bcd02815260206004820152601560248201526000805160206128e0833981519152604482015290519081900360640190fd5b600b546040805160e060020a63fe575a87028152600160a060020a03808716600483015291518693929092169163fe575a8791602480820192602092909190829003018186803b1580156108ae57600080fd5b505afa1580156108c2573d6000803e3d6000fd5b505050506040513d60208110156108d857600080fd5b50511561091d576040805160e560020a62461bcd0281526020600482015260176024820152600080516020612900833981519152604482015290519081900360640190fd5b6109278484611cbd565b949350505050565b61093833611ad1565b151561094357600080fd5b600160a060020a0381161580159061095f575061095f81611ce1565b15156109b5576040805160e560020a62461bcd02815260206004820152601760248201527f496e76616c69642062726964676520636f6e7472616374000000000000000000604482015290519081900360640190fd5b600a805473ffffffffffffffffffffffffffffffffffffffff1916600160a060020a0392909216919091179055565b60025490565b600b54604080517f3af32abf000000000000000000000000000000000000000000000000000000008152600160a060020a038087166004830152915160009387931691633af32abf916024808301926020929190829003018186803b158015610a5257600080fd5b505afa158015610a66573d6000803e3d6000fd5b505050506040513d6020811015610a7c57600080fd5b50511515610ad4576040805160e560020a62461bcd02815260206004820152601260248201527f6973206e6f742077686974656c69737465640000000000000000000000000000604482015290519081900360640190fd5b600b546040805160e060020a63fe575a870281523360048201529051600160a060020a039092169163fe575a8791602480820192602092909190829003018186803b158015610b2257600080fd5b505afa158015610b36573d6000803e3d6000fd5b505050506040513d6020811015610b4c57600080fd5b505115610b91576040805160e560020a62461bcd02815260206004820152601560248201526000805160206128e0833981519152604482015290519081900360640190fd5b600b546040805160e060020a63fe575a87028152600160a060020a03808916600483015291518893929092169163fe575a8791602480820192602092909190829003018186803b158015610be457600080fd5b505afa158015610bf8573d6000803e3d6000fd5b505050506040513d6020811015610c0e57600080fd5b505115610c53576040805160e560020a62461bcd0281526020600482015260176024820152600080516020612900833981519152604482015290519081900360640190fd5b600b546040805160e060020a63fe575a87028152600160a060020a03808916600483015291518893929092169163fe575a8791602480820192602092909190829003018186803b158015610ca657600080fd5b505afa158015610cba573d6000803e3d6000fd5b505050506040513d6020811015610cd057600080fd5b505115610d15576040805160e560020a62461bcd0281526020600482015260176024820152600080516020612900833981519152604482015290519081900360640190fd5b6000610d218887611ce9565b9050610d2e888883611e00565b98975050505050505050565b600b54600160a060020a031681565b600281565b60065481565b600b546040805160e060020a63fe575a870281523360048201529051600092600160a060020a03169163fe575a87916024808301926020929190829003018186803b158015610da257600080fd5b505afa158015610db6573d6000803e3d6000fd5b505050506040513d6020811015610dcc57600080fd5b505115610e11576040805160e560020a62461bcd02815260206004820152601560248201526000805160206128e0833981519152604482015290519081900360640190fd5b600b546040805160e060020a63fe575a87028152600160a060020a03808716600483015291518693929092169163fe575a8791602480820192602092909190829003018186803b158015610e6457600080fd5b505afa158015610e78573d6000803e3d6000fd5b505050506040513d6020811015610e8e57600080fd5b505115610ed3576040805160e560020a62461bcd0281526020600482015260176024820152600080516020612900833981519152604482015290519081900360640190fd5b6109278484611e1e565b610ee633611335565b1515610ef157600080fd5b60085460ff161515610f0257600080fd5b6008805460ff191690556040805133815290517f5db9ee0a495bf2e6ff9c91a7834c1ba4fdd244a5e8aa4e537bd38aeae4b073aa9181900360200190a1565b600b546040805160e060020a63fe575a870281523360048201529051600092600160a060020a03169163fe575a87916024808301926020929190829003018186803b158015610f8f57600080fd5b505afa158015610fa3573d6000803e3d6000fd5b505050506040513d6020811015610fb957600080fd5b505115610ffe576040805160e560020a62461bcd02815260206004820152601560248201526000805160206128e0833981519152604482015290519081900360640190fd5b600b546040805160e060020a63fe575a87028152600160a060020a03808916600483015291518893929092169163fe575a8791602480820192602092909190829003018186803b15801561105157600080fd5b505afa158015611065573d6000803e3d6000fd5b505050506040513d602081101561107b57600080fd5b5051156110c0576040805160e560020a62461bcd0281526020600482015260176024820152600080516020612900833981519152604482015290519081900360640190fd5b60006110cc3387611ce9565b905061110f878287878080601f016020809104026020016040519081016040528093929190818152602001838380828437600092019190915250611e3b92505050565b979650505050505050565b600061112533611ad1565b151561113057600080fd5b600b546040805160e060020a63fe575a87028152600160a060020a03808716600483015291518693929092169163fe575a8791602480820192602092909190829003018186803b15801561118357600080fd5b505afa158015611197573d6000803e3d6000fd5b505050506040513d60208110156111ad57600080fd5b5051156111f2576040805160e560020a62461bcd0281526020600482015260176024820152600080516020612900833981519152604482015290519081900360640190fd5b60006006541115611258576006546112188461120c6109e4565b9063ffffffff611f7d16565b11156112585760405160e560020a62461bcd0281526004018080602001828103825260218152602001806128bf6021913960400191505060405180910390fd5b6112628484611f8f565b5060019392505050565b600b546040805160e060020a63fe575a870281523360048201529051600160a060020a039092169163fe575a8791602480820192602092909190829003018186803b1580156112ba57600080fd5b505afa1580156112ce573d6000803e3d6000fd5b505050506040513d60208110156112e457600080fd5b505115611329576040805160e560020a62461bcd02815260206004820152601560248201526000805160206128e0833981519152604482015290519081900360640190fd5b61133281612039565b50565b600061134860078363ffffffff61204316565b92915050565b600c54600160a060020a031681565b60085460ff1690565b61136e611716565b151561137957600080fd5b80600160a060020a031663223668446040518163ffffffff1660e060020a02815260040160206040518083038186803b1580156113b557600080fd5b505afa1580156113c9573d6000803e3d6000fd5b505050506040513d60208110156113df57600080fd5b50511515611437576040805160e560020a62461bcd02815260206004820152601a60248201527f4964656e74697479206973206e6f742072656769737465726564000000000000604482015290519081900360640190fd5b600b805473ffffffffffffffffffffffffffffffffffffffff1916600160a060020a0392909216919091179055565b61146f3361207a565b565b600160a060020a031660009081526020819052604090205490565b611494611716565b151561149f57600080fd5b600354604051600091600160a060020a0316907f8be0079c531659141344cd1fd0a4f28419497f9722a3daafe3b4186f6b6457e0908390a36003805473ffffffffffffffffffffffffffffffffffffffff19169055565b600b546040805160e060020a63fe575a870281523360048201529051600160a060020a039092169163fe575a8791602480820192602092909190829003018186803b15801561154457600080fd5b505afa158015611558573d6000803e3d6000fd5b505050506040513d602081101561156e57600080fd5b5051156115b3576040805160e560020a62461bcd02815260206004820152601560248201526000805160206128e0833981519152604482015290519081900360640190fd5b600b546040805160e060020a63fe575a87028152600160a060020a03808616600483015291518593929092169163fe575a8791602480820192602092909190829003018186803b15801561160657600080fd5b505afa15801561161a573d6000803e3d6000fd5b505050506040513d602081101561163057600080fd5b505115611675576040805160e560020a62461bcd0281526020600482015260176024820152600080516020612900833981519152604482015290519081900360640190fd5b61167f83836120c2565b505050565b61168d33611335565b151561169857600080fd5b611332816120d0565b6116aa33611335565b15156116b557600080fd5b60085460ff16156116c557600080fd5b6008805460ff191660011790556040805133815290517f62e78cea01bee320cd4e420270b5ea74000d11b0c9f74754ebdbfc544b05a2589181900360200190a1565b600354600160a060020a031690565b600354600160a060020a0316331490565b6005805460408051602060026001851615610100026000190190941693909304601f810184900484028201840190925281815292918301828280156107965780601f1061076b57610100808354040283529160200191610796565b61178b33611ad1565b151561179657600080fd5b61133281612118565b61146f33612160565b600b546040805160e060020a63fe575a870281523360048201529051600092600160a060020a03169163fe575a87916024808301926020929190829003018186803b1580156117f657600080fd5b505afa15801561180a573d6000803e3d6000fd5b505050506040513d602081101561182057600080fd5b505115611865576040805160e560020a62461bcd02815260206004820152601560248201526000805160206128e0833981519152604482015290519081900360640190fd5b600b546040805160e060020a63fe575a87028152600160a060020a03808716600483015291518693929092169163fe575a8791602480820192602092909190829003018186803b1580156118b857600080fd5b505afa1580156118cc573d6000803e3d6000fd5b505050506040513d60208110156118e257600080fd5b505115611927576040805160e560020a62461bcd0281526020600482015260176024820152600080516020612900833981519152604482015290519081900360640190fd5b61092784846121a8565b600b546040805160e060020a63fe575a870281523360048201529051600092600160a060020a03169163fe575a87916024808301926020929190829003018186803b15801561197f57600080fd5b505afa158015611993573d6000803e3d6000fd5b505050506040513d60208110156119a957600080fd5b5051156119ee576040805160e560020a62461bcd02815260206004820152601560248201526000805160206128e0833981519152604482015290519081900360640190fd5b600b546040805160e060020a63fe575a87028152600160a060020a03808716600483015291518693929092169163fe575a8791602480820192602092909190829003018186803b158015611a4157600080fd5b505afa158015611a55573d6000803e3d6000fd5b505050506040513d6020811015611a6b57600080fd5b505115611ab0576040805160e560020a62461bcd0281526020600482015260176024820152600080516020612900833981519152604482015290519081900360640190fd5b6000611abc3385611ce9565b9050611ac885826121c5565b95945050505050565b600061134860098363ffffffff61204316565b600a54600160a060020a031681565b600c54604080517fcb733bb9000000000000000000000000000000000000000000000000000000008152600481018490529051600092600160a060020a03169163cb733bb9916024808301926020929190829003018186803b158015611b5857600080fd5b505afa158015611b6c573d6000803e3d6000fd5b505050506040513d6020811015611b8257600080fd5b505192915050565b600160a060020a03918216600090815260016020908152604080832093909416825291909152205490565b611bbd611716565b1515611bc857600080fd5b600d805473ffffffffffffffffffffffffffffffffffffffff1916600160a060020a0392909216919091179055565b611bff611716565b1515611c0a57600080fd5b80600160a060020a031663223668446040518163ffffffff1660e060020a02815260040160206040518083038186803b158015611c4657600080fd5b505afa158015611c5a573d6000803e3d6000fd5b505050506040513d6020811015611c7057600080fd5b5050600c805473ffffffffffffffffffffffffffffffffffffffff1916600160a060020a0392909216919091179055565b611ca9611716565b1515611cb457600080fd5b611332816121e2565b60085460009060ff1615611cd057600080fd5b611cda8383612260565b9392505050565b6000903b1190565b600080611cf583611af3565b9050600081118015611d945750600b54604080517fc73cc4ae0000000000000000000000000000000000000000000000000000000081523360048201529051600160a060020a039092169163c73cc4ae91602480820192602092909190829003018186803b158015611d6657600080fd5b505afa158015611d7a573d6000803e3d6000fd5b505050506040513d6020811015611d9057600080fd5b5051155b15611df857600160a060020a038416331415611dc657600d54611dc090600160a060020a0316826121c5565b50611de0565b600d54611dde908590600160a060020a031683611e00565b505b611df0838263ffffffff6122cc16565b915050611348565b509092915050565b60085460009060ff1615611e1357600080fd5b6109278484846122e1565b60085460009060ff1615611e3157600080fd5b611cda8383612398565b60085460009060ff1615611e4e57600080fd5b611e5884846121c5565b5083600160a060020a031633600160a060020a03167fe19260aff97b920c7df27010903aeb9c8d2be5d310a2c67824cf3f15396e4c1685856040518083815260200180602001828103825283818151815260200191508051906020019080838360005b83811015611ed3578181015183820152602001611ebb565b50505050905090810190601f168015611f005780820380516001836020036101000a031916815260200191505b50935050505060405180910390a3611f1784611ce1565b1561126257611f27848484612436565b1515611262576040805160e560020a62461bcd02815260206004820152601860248201527f436f6e74726163742066616c6c6261636b206661696c65640000000000000000604482015290519081900360640190fd5b600082820183811015611cda57600080fd5b600160a060020a0382161515611fa457600080fd5b600254611fb7908263ffffffff611f7d16565b600255600160a060020a038216600090815260208190526040902054611fe3908263ffffffff611f7d16565b600160a060020a0383166000818152602081815260408083209490945583518581529351929391927fddf252ad1be2c89b69c2b068fc378daa952ba7f163c4a11628f55a4df523b3ef9281900390910190a35050565b611332338261259d565b6000600160a060020a038216151561205a57600080fd5b50600160a060020a03166000908152602091909152604090205460ff1690565b61208b60078263ffffffff61264616565b604051600160a060020a038216907fcd265ebaf09df2871cc7bd4133404a235ba12eff2041bb89d9c714a2621c7c7e90600090a250565b6120cc8282612692565b5050565b6120e160078263ffffffff61274216565b604051600160a060020a038216907f6719d08c1888103bea251a4ed56406bd0c3e69723c8a1686e017e7bbe159b6f890600090a250565b61212960098263ffffffff61274216565b604051600160a060020a038216907f6ae172837ea30b801fbfcdd4108aa1d5bf8ff775444fd70256b44e6bf3dfc3f690600090a250565b61217160098263ffffffff61264616565b604051600160a060020a038216907fe94479a9f7e1952cc78f2d6baab678adc1b772d936c6583def489e524cb6669290600090a250565b60085460009060ff16156121bb57600080fd5b611cda8383612790565b60085460009060ff16156121d857600080fd5b611cda83836127db565b600160a060020a03811615156121f757600080fd5b600354604051600160a060020a038084169216907f8be0079c531659141344cd1fd0a4f28419497f9722a3daafe3b4186f6b6457e090600090a36003805473ffffffffffffffffffffffffffffffffffffffff1916600160a060020a0392909216919091179055565b6000600160a060020a038316151561227757600080fd5b336000818152600160209081526040808320600160a060020a0388168085529083529281902086905580518681529051929392600080516020612920833981519152929181900390910190a350600192915050565b6000828211156122db57600080fd5b50900390565b600160a060020a0383166000908152600160209081526040808320338452909152812054612315908363ffffffff6122cc16565b600160a060020a03851660009081526001602090815260408083203384529091529020556123448484846127f1565b600160a060020a038416600081815260016020908152604080832033808552908352928190205481519081529051929392600080516020612920833981519152929181900390910190a35060019392505050565b6000600160a060020a03831615156123af57600080fd5b336000908152600160209081526040808320600160a060020a03871684529091529020546123e3908363ffffffff611f7d16565b336000818152600160209081526040808320600160a060020a038916808552908352928190208590558051948552519193600080516020612920833981519152929081900390910190a350600192915050565b6040517fa4c0ed360000000000000000000000000000000000000000000000000000000081523360048201818152602483018590526060604484019081528451606485015284516000948894600160a060020a0386169463a4c0ed369491938a938a939160849091019060208501908083838e5b838110156124c25781810151838201526020016124aa565b50505050905090810190601f1680156124ef5780820380516001836020036101000a031916815260200191505b50945050505050602060405180830381600087803b15801561251057600080fd5b505af1158015612524573d6000803e3d6000fd5b505050506040513d602081101561253a57600080fd5b50511515612592576040805160e560020a62461bcd02815260206004820152601860248201527f436f6e74726163742046616c6c6261636b206661696c65640000000000000000604482015290519081900360640190fd5b506001949350505050565b600160a060020a03821615156125b257600080fd5b6002546125c5908263ffffffff6122cc16565b600255600160a060020a0382166000908152602081905260409020546125f1908263ffffffff6122cc16565b600160a060020a038316600081815260208181526040808320949094558351858152935191937fddf252ad1be2c89b69c2b068fc378daa952ba7f163c4a11628f55a4df523b3ef929081900390910190a35050565b600160a060020a038116151561265b57600080fd5b6126658282612043565b151561267057600080fd5b600160a060020a0316600090815260209190915260409020805460ff19169055565b600160a060020a03821660009081526001602090815260408083203384529091529020546126c6908263ffffffff6122cc16565b600160a060020a03831660009081526001602090815260408083203384529091529020556126f4828261259d565b600160a060020a038216600081815260016020908152604080832033808552908352928190205481519081529051929392600080516020612920833981519152929181900390910190a35050565b600160a060020a038116151561275757600080fd5b6127618282612043565b1561276b57600080fd5b600160a060020a0316600090815260209190915260409020805460ff19166001179055565b6000600160a060020a03831615156127a757600080fd5b336000908152600160209081526040808320600160a060020a03871684529091529020546123e3908363ffffffff6122cc16565b60006127e83384846127f1565b50600192915050565b600160a060020a038216151561280657600080fd5b600160a060020a03831660009081526020819052604090205461282f908263ffffffff6122cc16565b600160a060020a038085166000908152602081905260408082209390935590841681522054612864908263ffffffff611f7d16565b600160a060020a038084166000818152602081815260409182902094909455805185815290519193928716927fddf252ad1be2c89b69c2b068fc378daa952ba7f163c4a11628f55a4df523b3ef92918290030190a350505056fe43616e6e6f7420696e63726561736520737570706c79206265796f6e642063617043616c6c657220697320626c61636b6c69737465640000000000000000000000526563656976657220697320626c61636b6c69737465640000000000000000008c5be1e5ebec7d5bd14f71427d1e84f3dd0314c0f7b2291e5b200ac8c7c3b925a165627a7a723058206dc5f3979059c302cc25185ed0c5cd66a9608fc39e3074ff822a1319087884db0029",
  "source": "pragma solidity 0.5.4;\n\nimport \"../identity/IdentityGuard.sol\";\nimport \"../dao/schemes/FormulaHolder.sol\";\nimport \"./ERC677BridgeToken.sol\";\n\n/**\n * @title The GoodDollar ERC677 token contract\n */\ncontract GoodDollar is ERC677BridgeToken, IdentityGuard, FormulaHolder {\n    address feeRecipient;\n\n    // Overrides hard-coded decimal in DAOToken\n    uint256 public constant decimals = 2;\n\n    /**\n     * @dev constructor\n     * @param _name The name of the token\n     * @param _symbol The symbol of the token\n     * @param _cap the cap of the token. no cap if 0\n     * @param _formula the fee formula contract\n     * @param _identity the identity contract\n     * @param _feeRecipient the address that receives transaction fees\n     */\n    constructor(\n        string memory _name,\n        string memory _symbol,\n        uint256 _cap,\n        FeeFormula _formula,\n        Identity _identity,\n        address _feeRecipient\n    )\n        public\n        ERC677BridgeToken(_name, _symbol, _cap)\n        IdentityGuard(_identity)\n        FormulaHolder(_formula)\n    {\n        feeRecipient = _feeRecipient;\n    }\n\n    /**\n     * @dev Processes fees from given value and sends\n     * remainder to given address\n     * @param to the address to be sent to\n     * @param value the value to be processed and then\n     * transferred\n     * @return a boolean that indicates if the operation was successful\n     */\n    function transfer(address to, uint256 value)\n        public\n        onlyNotBlacklisted\n        requireNotBlacklisted(to)\n        returns (bool)\n    {\n        uint256 bruttoValue = processFees(msg.sender, value);\n        return super.transfer(to, bruttoValue);\n    }\n\n    /**\n     * @dev Approve the passed address to spend the specified\n     * amount of tokens on behalf of msg.sender\n     * @param spender The address which will spend the funds\n     * @param value The amount of tokens to be spent\n     * @return a boolean that indicates if the operation was successful\n     */\n    function approve(address spender, uint256 value)\n        public\n        onlyNotBlacklisted\n        requireNotBlacklisted(spender)\n        returns (bool)\n    {\n        return super.approve(spender, value);\n    }\n\n    /**\n     * @dev Transfer tokens from one address to another\n     * @param from The address which you want to send tokens from\n     * @param to The address which you want to transfer to\n     * @param value the amount of tokens to be transferred\n     * @return a boolean that indicates if the operation was successful\n     */\n    function transferFrom(address from, address to, uint256 value)\n        public\n        requireWhitelisted(from)\n        onlyNotBlacklisted\n        requireNotBlacklisted(from)\n        requireNotBlacklisted(to)\n        returns (bool)\n    {\n        uint256 bruttoValue = processFees(from, value);\n        return super.transferFrom(from, to, bruttoValue);\n    }\n\n    /**\n     * @dev Processes transfer fees and calls ERC677Token transferAndCall function\n     * @param to address to transfer to\n     * @param value the amount to transfer\n     * @param data The data to pass to transferAndCall\n     * @return a bool indicating if transfer function succeeded\n     */\n    function transferAndCall(address to, uint256 value, bytes calldata data)\n        external\n        onlyNotBlacklisted\n        requireNotBlacklisted(to)\n        returns (bool)\n    {\n        uint256 bruttoValue = processFees(msg.sender, value);\n        return super._transferAndCall(to, bruttoValue, data);\n    }\n\n    /**\n     * @dev Minting function\n     * @param to the address that will receive the minted tokens\n     * @param value the amount of tokens to mint\n     * @return a boolean that indicated if the operation was successful\n     */\n    function mint(address to, uint256 value)\n        public\n        onlyMinter\n        requireNotBlacklisted(to)\n        returns (bool)\n    {\n        if (cap > 0) {\n            require(\n                totalSupply().add(value) <= cap,\n                \"Cannot increase supply beyond cap\"\n            );\n        }\n        super._mint(to, value);\n        return true;\n    }\n\n    /**\n     * @dev Burns a specific amount of tokens.\n     * @param value The amount of token to be burned.\n     */\n    function burn(uint256 value) public onlyNotBlacklisted {\n        super.burn(value);\n    }\n\n    /**\n     * @dev Burns a specific amount of tokens from the target address and decrements allowance\n     * @param from address The address which you want to send tokens from\n     * @param value uint256 The amount of token to be burned\n     */\n    function burnFrom(address from, uint256 value)\n        public\n        onlyNotBlacklisted\n        requireNotBlacklisted(from)\n    {\n        super.burnFrom(from, value);\n    }\n\n    /**\n     * @dev Increase the amount of tokens that an owner allows a spender\n     * @param spender The address which will spend the funds\n     * @param addedValue The amount of tokens to increase the allowance by\n     * @return a boolean that indicated if the operation was successful\n     */\n    function increaseAllowance(address spender, uint256 addedValue)\n        public\n        onlyNotBlacklisted\n        requireNotBlacklisted(spender)\n        returns (bool)\n    {\n        return super.increaseAllowance(spender, addedValue);\n    }\n\n    /**\n     * @dev Decrease the amount of tokens that an owner allowed to a spender\n     * @param spender The address which will spend the funds\n     * @param subtractedValue The amount of tokens to decrease the allowance by\n     * @return a boolean that indicated if the operation was successful\n     */\n    function decreaseAllowance(address spender, uint256 subtractedValue)\n        public\n        onlyNotBlacklisted\n        requireNotBlacklisted(spender)\n        returns (bool)\n    {\n        return super.decreaseAllowance(spender, subtractedValue);\n    }\n\n    /**\n     * @dev Gets the current transaction fees\n     * @return an uint256 that represents\n     * the current transaction fees\n     */\n    function getFees(uint256 value) public view returns (uint256) {\n        return formula.getTxFees(value);\n    }\n\n    /**\n     * @dev Sets the address that receives the transactional fees.\n     * can only be called by owner\n     * @param _feeRecipient The new address to receive transactional fees\n     */\n    function setFeeRecipient(address _feeRecipient) public onlyOwner {\n        feeRecipient = _feeRecipient;\n    }\n\n    /**\n     * @dev Sends transactional fees to feeRecipient address from given address\n     * @param account The account that sends the fees\n     * @param value The amount to subtract fees from\n     * @return an uint256 that represents the given value minus the transactional fees\n     */\n    function processFees(address account, uint256 value)\n        internal\n        returns (uint256)\n    {\n        uint256 txFees = getFees(value);\n        if (txFees > 0 && !identity.isDAOContract(msg.sender)) {\n            if (account == msg.sender) {\n                super.transfer(feeRecipient, txFees);\n            } else {\n                super.transferFrom(account, feeRecipient, txFees);\n            }\n            return value.sub(txFees);\n        }\n        return value;\n    }\n}\n",
  "sourcePath": "/Users/hadar/workspace/GoodDollar/GoodBootstrap/packages/contracts/contracts/token/GoodDollar.sol",
  "compiler": {
    "name": "solc",
    "version": "0.5.4+commit.9549d8ff.Emscripten.clang"
  },
  "schemaVersion": "3.0.16",
  "updatedAt": "2020-04-26T12:12:31.065Z",
  "devdoc": {
    "methods": {
      "allowance(address,address)": {
        "details": "Function to check the amount of tokens that an owner allowed to a spender.",
        "params": {
          "owner": "address The address which owns the funds.",
          "spender": "address The address which will spend the funds."
        },
        "return": "A uint256 specifying the amount of tokens still available for the spender."
      },
      "approve(address,uint256)": {
        "details": "Approve the passed address to spend the specified amount of tokens on behalf of msg.sender",
        "params": {
          "spender": "The address which will spend the funds",
          "value": "The amount of tokens to be spent"
        },
        "return": "a boolean that indicates if the operation was successful"
      },
      "balanceOf(address)": {
        "details": "Gets the balance of the specified address.",
        "params": {
          "owner": "The address to query the balance of."
        },
        "return": "An uint256 representing the amount owned by the passed address."
      },
      "burn(uint256)": {
        "details": "Burns a specific amount of tokens.",
        "params": {
          "value": "The amount of token to be burned."
        }
      },
      "burnFrom(address,uint256)": {
        "details": "Burns a specific amount of tokens from the target address and decrements allowance",
        "params": {
          "from": "address The address which you want to send tokens from",
          "value": "uint256 The amount of token to be burned"
        }
      },
      "constructor": {
        "details": "constructor",
        "params": {
          "_cap": "the cap of the token. no cap if 0",
          "_feeRecipient": "the address that receives transaction fees",
          "_formula": "the fee formula contract",
          "_identity": "the identity contract",
          "_name": "The name of the token",
          "_symbol": "The symbol of the token"
        }
      },
      "decreaseAllowance(address,uint256)": {
        "details": "Decrease the amount of tokens that an owner allowed to a spender",
        "params": {
          "spender": "The address which will spend the funds",
          "subtractedValue": "The amount of tokens to decrease the allowance by"
        },
        "return": "a boolean that indicated if the operation was successful"
      },
      "getFees(uint256)": {
        "details": "Gets the current transaction fees",
        "return": "an uint256 that represents the current transaction fees"
      },
      "increaseAllowance(address,uint256)": {
        "details": "Increase the amount of tokens that an owner allows a spender",
        "params": {
          "addedValue": "The amount of tokens to increase the allowance by",
          "spender": "The address which will spend the funds"
        },
        "return": "a boolean that indicated if the operation was successful"
      },
      "isOwner()": {
        "return": "true if `msg.sender` is the owner of the contract."
      },
      "mint(address,uint256)": {
        "details": "Minting function",
        "params": {
          "to": "the address that will receive the minted tokens",
          "value": "the amount of tokens to mint"
        },
        "return": "a boolean that indicated if the operation was successful"
      },
      "owner()": {
        "return": "the address of the owner."
      },
      "pause()": {
        "details": "called by the owner to pause, triggers stopped state"
      },
      "paused()": {
        "return": "true if the contract is paused, false otherwise."
      },
      "renounceOwnership()": {
        "details": "Allows the current owner to relinquish control of the contract."
      },
      "setFeeRecipient(address)": {
        "details": "Sets the address that receives the transactional fees. can only be called by owner",
        "params": {
          "_feeRecipient": "The new address to receive transactional fees"
        }
      },
      "totalSupply()": {
        "details": "Total number of tokens in existence"
      },
      "transfer(address,uint256)": {
        "details": "Processes fees from given value and sends remainder to given address",
        "params": {
          "to": "the address to be sent to",
          "value": "the value to be processed and then transferred"
        },
        "return": "a boolean that indicates if the operation was successful"
      },
      "transferAndCall(address,uint256,bytes)": {
        "details": "Processes transfer fees and calls ERC677Token transferAndCall function",
        "params": {
          "data": "The data to pass to transferAndCall",
          "to": "address to transfer to",
          "value": "the amount to transfer"
        },
        "return": "a bool indicating if transfer function succeeded"
      },
      "transferFrom(address,address,uint256)": {
        "details": "Transfer tokens from one address to another",
        "params": {
          "from": "The address which you want to send tokens from",
          "to": "The address which you want to transfer to",
          "value": "the amount of tokens to be transferred"
        },
        "return": "a boolean that indicates if the operation was successful"
      },
      "transferOwnership(address)": {
        "details": "Allows the current owner to transfer control of the contract to a newOwner.",
        "params": {
          "newOwner": "The address to transfer ownership to."
        }
      },
      "unpause()": {
        "details": "called by the owner to unpause, returns to normal state"
      }
    },
    "title": "The GoodDollar ERC677 token contract"
  },
  "userdoc": {
    "methods": {
      "renounceOwnership()": {
        "notice": "Renouncing to ownership will leave the contract without an owner. It will not be possible to call the functions with the `onlyOwner` modifier anymore."
      }
    }
  }
}