{
  "contractName": "GoodDollar",
  "abi": [
    {
      "inputs": [
        {
          "internalType": "string",
          "name": "_name",
          "type": "string"
        },
        {
          "internalType": "string",
          "name": "_symbol",
          "type": "string"
        },
        {
          "internalType": "uint256",
          "name": "_cap",
          "type": "uint256"
        },
        {
          "internalType": "contract AbstractFees",
          "name": "_formula",
          "type": "address"
        },
        {
          "internalType": "contract Identity",
          "name": "_identity",
          "type": "address"
        },
        {
          "internalType": "address",
          "name": "_feeRecipient",
          "type": "address"
        }
      ],
      "payable": false,
      "stateMutability": "nonpayable",
      "type": "constructor"
    },
    {
      "anonymous": false,
      "inputs": [
        {
          "indexed": true,
          "internalType": "address",
          "name": "owner",
          "type": "address"
        },
        {
          "indexed": true,
          "internalType": "address",
          "name": "spender",
          "type": "address"
        },
        {
          "indexed": false,
          "internalType": "uint256",
          "name": "value",
          "type": "uint256"
        }
      ],
      "name": "Approval",
      "type": "event"
    },
    {
      "anonymous": false,
      "inputs": [
        {
          "indexed": true,
          "internalType": "address",
          "name": "account",
          "type": "address"
        }
      ],
      "name": "MinterAdded",
      "type": "event"
    },
    {
      "anonymous": false,
      "inputs": [
        {
          "indexed": true,
          "internalType": "address",
          "name": "account",
          "type": "address"
        }
      ],
      "name": "MinterRemoved",
      "type": "event"
    },
    {
      "anonymous": false,
      "inputs": [
        {
          "indexed": true,
          "internalType": "address",
          "name": "previousOwner",
          "type": "address"
        },
        {
          "indexed": true,
          "internalType": "address",
          "name": "newOwner",
          "type": "address"
        }
      ],
      "name": "OwnershipTransferred",
      "type": "event"
    },
    {
      "anonymous": false,
      "inputs": [
        {
          "indexed": false,
          "internalType": "address",
          "name": "account",
          "type": "address"
        }
      ],
      "name": "Paused",
      "type": "event"
    },
    {
      "anonymous": false,
      "inputs": [
        {
          "indexed": true,
          "internalType": "address",
          "name": "account",
          "type": "address"
        }
      ],
      "name": "PauserAdded",
      "type": "event"
    },
    {
      "anonymous": false,
      "inputs": [
        {
          "indexed": true,
          "internalType": "address",
          "name": "account",
          "type": "address"
        }
      ],
      "name": "PauserRemoved",
      "type": "event"
    },
    {
      "anonymous": false,
      "inputs": [
        {
          "indexed": true,
          "internalType": "address",
          "name": "from",
          "type": "address"
        },
        {
          "indexed": true,
          "internalType": "address",
          "name": "to",
          "type": "address"
        },
        {
          "indexed": false,
          "internalType": "uint256",
          "name": "value",
          "type": "uint256"
        }
      ],
      "name": "Transfer",
      "type": "event"
    },
    {
      "anonymous": false,
      "inputs": [
        {
          "indexed": true,
          "internalType": "address",
          "name": "from",
          "type": "address"
        },
        {
          "indexed": true,
          "internalType": "address",
          "name": "to",
          "type": "address"
        },
        {
          "indexed": false,
          "internalType": "uint256",
          "name": "value",
          "type": "uint256"
        },
        {
          "indexed": false,
          "internalType": "bytes",
          "name": "data",
          "type": "bytes"
        }
      ],
      "name": "Transfer",
      "type": "event"
    },
    {
      "anonymous": false,
      "inputs": [
        {
          "indexed": false,
          "internalType": "address",
          "name": "account",
          "type": "address"
        }
      ],
      "name": "Unpaused",
      "type": "event"
    },
    {
      "constant": false,
      "inputs": [
        {
          "internalType": "address",
          "name": "account",
          "type": "address"
        }
      ],
      "name": "addMinter",
      "outputs": [],
      "payable": false,
      "stateMutability": "nonpayable",
      "type": "function"
    },
    {
      "constant": false,
      "inputs": [
        {
          "internalType": "address",
          "name": "account",
          "type": "address"
        }
      ],
      "name": "addPauser",
      "outputs": [],
      "payable": false,
      "stateMutability": "nonpayable",
      "type": "function"
    },
    {
      "constant": true,
      "inputs": [
        {
          "internalType": "address",
          "name": "owner",
          "type": "address"
        },
        {
          "internalType": "address",
          "name": "spender",
          "type": "address"
        }
      ],
      "name": "allowance",
      "outputs": [
        {
          "internalType": "uint256",
          "name": "",
          "type": "uint256"
        }
      ],
      "payable": false,
      "stateMutability": "view",
      "type": "function"
    },
    {
      "constant": true,
      "inputs": [
        {
          "internalType": "address",
          "name": "owner",
          "type": "address"
        }
      ],
      "name": "balanceOf",
      "outputs": [
        {
          "internalType": "uint256",
          "name": "",
          "type": "uint256"
        }
      ],
      "payable": false,
      "stateMutability": "view",
      "type": "function"
    },
    {
      "constant": true,
      "inputs": [],
      "name": "bridgeContract",
      "outputs": [
        {
          "internalType": "address",
          "name": "",
          "type": "address"
        }
      ],
      "payable": false,
      "stateMutability": "view",
      "type": "function"
    },
    {
      "constant": true,
      "inputs": [],
      "name": "cap",
      "outputs": [
        {
          "internalType": "uint256",
          "name": "",
          "type": "uint256"
        }
      ],
      "payable": false,
      "stateMutability": "view",
      "type": "function"
    },
    {
      "constant": true,
      "inputs": [],
      "name": "decimals",
      "outputs": [
        {
          "internalType": "uint256",
          "name": "",
          "type": "uint256"
        }
      ],
      "payable": false,
      "stateMutability": "view",
      "type": "function"
    },
    {
      "constant": true,
      "inputs": [],
      "name": "formula",
      "outputs": [
        {
          "internalType": "contract AbstractFees",
          "name": "",
          "type": "address"
        }
      ],
      "payable": false,
      "stateMutability": "view",
      "type": "function"
    },
    {
      "constant": true,
      "inputs": [],
      "name": "identity",
      "outputs": [
        {
          "internalType": "contract Identity",
          "name": "",
          "type": "address"
        }
      ],
      "payable": false,
      "stateMutability": "view",
      "type": "function"
    },
    {
      "constant": true,
      "inputs": [
        {
          "internalType": "address",
          "name": "account",
          "type": "address"
        }
      ],
      "name": "isMinter",
      "outputs": [
        {
          "internalType": "bool",
          "name": "",
          "type": "bool"
        }
      ],
      "payable": false,
      "stateMutability": "view",
      "type": "function"
    },
    {
      "constant": true,
      "inputs": [],
      "name": "isOwner",
      "outputs": [
        {
          "internalType": "bool",
          "name": "",
          "type": "bool"
        }
      ],
      "payable": false,
      "stateMutability": "view",
      "type": "function"
    },
    {
      "constant": true,
      "inputs": [
        {
          "internalType": "address",
          "name": "account",
          "type": "address"
        }
      ],
      "name": "isPauser",
      "outputs": [
        {
          "internalType": "bool",
          "name": "",
          "type": "bool"
        }
      ],
      "payable": false,
      "stateMutability": "view",
      "type": "function"
    },
    {
      "constant": true,
      "inputs": [],
      "name": "name",
      "outputs": [
        {
          "internalType": "string",
          "name": "",
          "type": "string"
        }
      ],
      "payable": false,
      "stateMutability": "view",
      "type": "function"
    },
    {
      "constant": true,
      "inputs": [],
      "name": "owner",
      "outputs": [
        {
          "internalType": "address",
          "name": "",
          "type": "address"
        }
      ],
      "payable": false,
      "stateMutability": "view",
      "type": "function"
    },
    {
      "constant": false,
      "inputs": [],
      "name": "pause",
      "outputs": [],
      "payable": false,
      "stateMutability": "nonpayable",
      "type": "function"
    },
    {
      "constant": true,
      "inputs": [],
      "name": "paused",
      "outputs": [
        {
          "internalType": "bool",
          "name": "",
          "type": "bool"
        }
      ],
      "payable": false,
      "stateMutability": "view",
      "type": "function"
    },
    {
      "constant": false,
      "inputs": [],
      "name": "renounceMinter",
      "outputs": [],
      "payable": false,
      "stateMutability": "nonpayable",
      "type": "function"
    },
    {
      "constant": false,
      "inputs": [],
      "name": "renounceOwnership",
      "outputs": [],
      "payable": false,
      "stateMutability": "nonpayable",
      "type": "function"
    },
    {
      "constant": false,
      "inputs": [],
      "name": "renouncePauser",
      "outputs": [],
      "payable": false,
      "stateMutability": "nonpayable",
      "type": "function"
    },
    {
      "constant": false,
      "inputs": [
        {
          "internalType": "address",
          "name": "_bridgeContract",
          "type": "address"
        }
      ],
      "name": "setBridgeContract",
      "outputs": [],
      "payable": false,
      "stateMutability": "nonpayable",
      "type": "function"
    },
    {
      "constant": false,
      "inputs": [
        {
          "internalType": "contract AbstractFees",
          "name": "_formula",
          "type": "address"
        }
      ],
      "name": "setFormula",
      "outputs": [],
      "payable": false,
      "stateMutability": "nonpayable",
      "type": "function"
    },
    {
      "constant": false,
      "inputs": [
        {
          "internalType": "contract Identity",
          "name": "_identity",
          "type": "address"
        }
      ],
      "name": "setIdentity",
      "outputs": [],
      "payable": false,
      "stateMutability": "nonpayable",
      "type": "function"
    },
    {
      "constant": true,
      "inputs": [],
      "name": "symbol",
      "outputs": [
        {
          "internalType": "string",
          "name": "",
          "type": "string"
        }
      ],
      "payable": false,
      "stateMutability": "view",
      "type": "function"
    },
    {
      "constant": true,
      "inputs": [],
      "name": "totalSupply",
      "outputs": [
        {
          "internalType": "uint256",
          "name": "",
          "type": "uint256"
        }
      ],
      "payable": false,
      "stateMutability": "view",
      "type": "function"
    },
    {
      "constant": false,
      "inputs": [
        {
          "internalType": "address",
          "name": "newOwner",
          "type": "address"
        }
      ],
      "name": "transferOwnership",
      "outputs": [],
      "payable": false,
      "stateMutability": "nonpayable",
      "type": "function"
    },
    {
      "constant": false,
      "inputs": [],
      "name": "unpause",
      "outputs": [],
      "payable": false,
      "stateMutability": "nonpayable",
      "type": "function"
    },
    {
      "constant": false,
      "inputs": [
        {
          "internalType": "address",
          "name": "to",
          "type": "address"
        },
        {
          "internalType": "uint256",
          "name": "value",
          "type": "uint256"
        }
      ],
      "name": "transfer",
      "outputs": [
        {
          "internalType": "bool",
          "name": "",
          "type": "bool"
        }
      ],
      "payable": false,
      "stateMutability": "nonpayable",
      "type": "function"
    },
    {
      "constant": false,
      "inputs": [
        {
          "internalType": "address",
          "name": "spender",
          "type": "address"
        },
        {
          "internalType": "uint256",
          "name": "value",
          "type": "uint256"
        }
      ],
      "name": "approve",
      "outputs": [
        {
          "internalType": "bool",
          "name": "",
          "type": "bool"
        }
      ],
      "payable": false,
      "stateMutability": "nonpayable",
      "type": "function"
    },
    {
      "constant": false,
      "inputs": [
        {
          "internalType": "address",
          "name": "from",
          "type": "address"
        },
        {
          "internalType": "address",
          "name": "to",
          "type": "address"
        },
        {
          "internalType": "uint256",
          "name": "value",
          "type": "uint256"
        }
      ],
      "name": "transferFrom",
      "outputs": [
        {
          "internalType": "bool",
          "name": "",
          "type": "bool"
        }
      ],
      "payable": false,
      "stateMutability": "nonpayable",
      "type": "function"
    },
    {
      "constant": false,
      "inputs": [
        {
          "internalType": "address",
          "name": "to",
          "type": "address"
        },
        {
          "internalType": "uint256",
          "name": "value",
          "type": "uint256"
        },
        {
          "internalType": "bytes",
          "name": "data",
          "type": "bytes"
        }
      ],
      "name": "transferAndCall",
      "outputs": [
        {
          "internalType": "bool",
          "name": "",
          "type": "bool"
        }
      ],
      "payable": false,
      "stateMutability": "nonpayable",
      "type": "function"
    },
    {
      "constant": false,
      "inputs": [
        {
          "internalType": "address",
          "name": "to",
          "type": "address"
        },
        {
          "internalType": "uint256",
          "name": "value",
          "type": "uint256"
        }
      ],
      "name": "mint",
      "outputs": [
        {
          "internalType": "bool",
          "name": "",
          "type": "bool"
        }
      ],
      "payable": false,
      "stateMutability": "nonpayable",
      "type": "function"
    },
    {
      "constant": false,
      "inputs": [
        {
          "internalType": "uint256",
          "name": "value",
          "type": "uint256"
        }
      ],
      "name": "burn",
      "outputs": [],
      "payable": false,
      "stateMutability": "nonpayable",
      "type": "function"
    },
    {
      "constant": false,
      "inputs": [
        {
          "internalType": "address",
          "name": "from",
          "type": "address"
        },
        {
          "internalType": "uint256",
          "name": "value",
          "type": "uint256"
        }
      ],
      "name": "burnFrom",
      "outputs": [],
      "payable": false,
      "stateMutability": "nonpayable",
      "type": "function"
    },
    {
      "constant": false,
      "inputs": [
        {
          "internalType": "address",
          "name": "spender",
          "type": "address"
        },
        {
          "internalType": "uint256",
          "name": "addedValue",
          "type": "uint256"
        }
      ],
      "name": "increaseAllowance",
      "outputs": [
        {
          "internalType": "bool",
          "name": "",
          "type": "bool"
        }
      ],
      "payable": false,
      "stateMutability": "nonpayable",
      "type": "function"
    },
    {
      "constant": false,
      "inputs": [
        {
          "internalType": "address",
          "name": "spender",
          "type": "address"
        },
        {
          "internalType": "uint256",
          "name": "subtractedValue",
          "type": "uint256"
        }
      ],
      "name": "decreaseAllowance",
      "outputs": [
        {
          "internalType": "bool",
          "name": "",
          "type": "bool"
        }
      ],
      "payable": false,
      "stateMutability": "nonpayable",
      "type": "function"
    },
    {
      "constant": true,
      "inputs": [
        {
          "internalType": "uint256",
          "name": "value",
          "type": "uint256"
        },
        {
          "internalType": "address",
          "name": "sender",
          "type": "address"
        },
        {
          "internalType": "address",
          "name": "recipient",
          "type": "address"
        }
      ],
      "name": "getFees",
      "outputs": [
        {
          "internalType": "uint256",
          "name": "",
          "type": "uint256"
        },
        {
          "internalType": "bool",
          "name": "",
          "type": "bool"
        }
      ],
      "payable": false,
      "stateMutability": "view",
      "type": "function"
    },
    {
      "constant": true,
      "inputs": [
        {
          "internalType": "uint256",
          "name": "value",
          "type": "uint256"
        }
      ],
      "name": "getFees",
      "outputs": [
        {
          "internalType": "uint256",
          "name": "",
          "type": "uint256"
        },
        {
          "internalType": "bool",
          "name": "",
          "type": "bool"
        }
      ],
      "payable": false,
      "stateMutability": "view",
      "type": "function"
    },
    {
      "constant": false,
      "inputs": [
        {
          "internalType": "address",
          "name": "_feeRecipient",
          "type": "address"
        }
      ],
      "name": "setFeeRecipient",
      "outputs": [],
      "payable": false,
      "stateMutability": "nonpayable",
      "type": "function"
    }
  ],
  "bytecode": "0x60806040523480156200001157600080fd5b50604051620024bc380380620024bc833981810160405260c08110156200003757600080fd5b81019080805160405193929190846401000000008211156200005857600080fd5b9083019060208201858111156200006e57600080fd5b82516401000000008111828201881017156200008957600080fd5b82525081516020918201929091019080838360005b83811015620000b85781810151838201526020016200009e565b50505050905090810190601f168015620000e65780820380516001836020036101000a031916815260200191505b50604052602001805160405193929190846401000000008211156200010a57600080fd5b9083019060208201858111156200012057600080fd5b82516401000000008111828201881017156200013b57600080fd5b82525081516020918201929091019080838360005b838110156200016a57818101518382015260200162000150565b50505050905090810190601f168015620001985780820380516001836020036101000a031916815260200191505b5060408181526020830151908301516060840151608090940151600380546001600160a01b03191633179081905592965090945091849184918991899189918491849184918491849184916001600160a01b0316906000907f8be0079c531659141344cd1fd0a4f28419497f9722a3daafe3b4186f6b6457e0908290a382516200022a906004906020860190620004b9565b50815162000240906005906020850190620004b9565b50600655506200025b9050336001600160e01b036200038616565b50506008805460ff19169055506200027c336001600160e01b03620003d816565b5050506001600160a01b038116620002db576040805162461bcd60e51b815260206004820152601960248201527f537570706c696564206964656e74697479206973206e756c6c00000000000000604482015290519081900360640190fd5b600b80546001600160a01b0319166001600160a01b0392831617905581166200034b576040805162461bcd60e51b815260206004820152601860248201527f537570706c69656420666f726d756c61206973206e756c6c0000000000000000604482015290519081900360640190fd5b600c80546001600160a01b039283166001600160a01b031991821617909155600d8054939092169216919091179055506200055e9350505050565b620003a18160076200042a60201b62001d621790919060201c565b6040516001600160a01b038216907f6719d08c1888103bea251a4ed56406bd0c3e69723c8a1686e017e7bbe159b6f890600090a250565b620003f38160096200042a60201b62001d621790919060201c565b6040516001600160a01b038216907f6ae172837ea30b801fbfcdd4108aa1d5bf8ff775444fd70256b44e6bf3dfc3f690600090a250565b6001600160a01b0381166200043e57600080fd5b6200045382826001600160e01b036200048316565b156200045e57600080fd5b6001600160a01b0316600090815260209190915260409020805460ff19166001179055565b60006001600160a01b0382166200049957600080fd5b506001600160a01b03166000908152602091909152604090205460ff1690565b828054600181600116156101000203166002900490600052602060002090601f016020900481019282601f10620004fc57805160ff19168380011785556200052c565b828001600101855582156200052c579182015b828111156200052c5782518255916020019190600101906200050f565b506200053a9291506200053e565b5090565b6200055b91905b808211156200053a576000815560010162000545565b90565b611f4e806200056e6000396000f3fe608060405234801561001057600080fd5b50600436106102325760003560e01c806370a082311161013057806398650275116100b8578063d5a06d4c1161007c578063d5a06d4c146106a7578063dd62ed3e146106c4578063e74b981b146106f2578063ecc06c7614610718578063f2fde38b1461073e57610232565b80639865027514610619578063a457c2d714610621578063a9059cbb1461064d578063aa271e1a14610679578063cd5965831461069f57610232565b80638456cb59116100ff5780638456cb59146105d35780638da5cb5b146105db5780638f32d59b146105e357806395d89b41146105eb578063983b2d56146105f357610232565b806370a0823114610553578063715018a61461057957806379cc67901461058157806382dc1ec4146105ad57610232565b806339509351116101be57806346fbf68e1161018257806346fbf68e146104ef5780634b75f54f146105155780635c975abb1461051d5780635d5bf178146105255780636ef8d66d1461054b57610232565b806339509351146103ed5780633f4ba83a146104195780634000aea01461042157806340c10f19146104a657806342966c68146104d257610232565b806323b872dd1161020557806323b872dd146103365780632c159a1a1461036c578063313ce56714610390578063355274ea1461039857806339364fd7146103a057610232565b806306fdde0314610237578063095ea7b3146102b45780630b26cf66146102f457806318160ddd1461031c575b600080fd5b61023f610764565b6040805160208082528351818301528351919283929083019185019080838360005b83811015610279578181015183820152602001610261565b50505050905090810190601f1680156102a65780820380516001836020036101000a031916815260200191505b509250505060405180910390f35b6102e0600480360360408110156102ca57600080fd5b506001600160a01b0381351690602001356107f2565b604080519115158252519081900360200190f35b61031a6004803603602081101561030a57600080fd5b50356001600160a01b0316610805565b005b6103246108a6565b60408051918252519081900360200190f35b6102e06004803603606081101561034c57600080fd5b506001600160a01b038135811691602081013590911690604001356108ac565b6103746108d0565b604080516001600160a01b039092168252519081900360200190f35b6103246108df565b6103246108e4565b6103d4600480360360608110156103b657600080fd5b508035906001600160a01b03602082013581169160400135166108ea565b6040805192835290151560208301528051918290030190f35b6102e06004803603604081101561040357600080fd5b506001600160a01b038135169060200135610985565b61031a610991565b6102e06004803603606081101561043757600080fd5b6001600160a01b038235169160208101359181019060608101604082013564010000000081111561046757600080fd5b82018360208201111561047957600080fd5b8035906020019184600183028401116401000000008311171561049b57600080fd5b5090925090506109f1565b6102e0600480360360408110156104bc57600080fd5b506001600160a01b038135169060200135610a4c565b61031a600480360360208110156104e857600080fd5b5035610b9c565b6102e06004803603602081101561050557600080fd5b50356001600160a01b0316610c69565b610374610c82565b6102e0610c91565b61031a6004803603602081101561053b57600080fd5b50356001600160a01b0316610c9a565b61031a610d83565b6103246004803603602081101561056957600080fd5b50356001600160a01b0316610d8e565b61031a610da9565b61031a6004803603604081101561059757600080fd5b506001600160a01b038135169060200135610e04565b61031a600480360360208110156105c357600080fd5b50356001600160a01b0316610f9c565b61031a610fb7565b61037461101b565b6102e061102a565b61023f61103b565b61031a6004803603602081101561060957600080fd5b50356001600160a01b0316611096565b61031a6110b1565b6102e06004803603604081101561063757600080fd5b506001600160a01b0381351690602001356110ba565b6102e06004803603604081101561066357600080fd5b506001600160a01b0381351690602001356110c6565b6102e06004803603602081101561068f57600080fd5b50356001600160a01b03166110e8565b6103746110fb565b6103d4600480360360208110156106bd57600080fd5b503561110a565b610324600480360360408110156106da57600080fd5b506001600160a01b03813581169160200135166111a2565b61031a6004803603602081101561070857600080fd5b50356001600160a01b03166111cd565b61031a6004803603602081101561072e57600080fd5b50356001600160a01b0316611200565b61031a6004803603602081101561075457600080fd5b50356001600160a01b0316611298565b6004805460408051602060026001851615610100026000190190941693909304601f810184900484028201840190925281815292918301828280156107ea5780601f106107bf576101008083540402835291602001916107ea565b820191906000526020600020905b8154815290600101906020018083116107cd57829003601f168201915b505050505081565b60006107fe83836112b2565b9392505050565b61080e336110e8565b61081757600080fd5b6001600160a01b038116158015906108335750610833816112cf565b610884576040805162461bcd60e51b815260206004820152601760248201527f496e76616c69642062726964676520636f6e7472616374000000000000000000604482015290519081900360640190fd5b600a80546001600160a01b0319166001600160a01b0392909216919091179055565b60025490565b6000806108ba8585856112d5565b90506108c785858361145d565b95945050505050565b600b546001600160a01b031681565b600281565b60065481565b600c5460408051631eed540360e11b8152600481018690526001600160a01b038581166024830152848116604483015282516000948594921692633ddaa806926064808301939192829003018186803b15801561094657600080fd5b505afa15801561095a573d6000803e3d6000fd5b505050506040513d604081101561097057600080fd5b50805160209091015190969095509350505050565b60006107fe838361147b565b61099a33610c69565b6109a357600080fd5b60085460ff166109b257600080fd5b6008805460ff191690556040805133815290517f5db9ee0a495bf2e6ff9c91a7834c1ba4fdd244a5e8aa4e537bd38aeae4b073aa9181900360200190a1565b6000806109ff3387876112d5565b9050610a42868286868080601f01602080910402602001604051908101604052809392919081815260200183838082843760009201919091525061149892505050565b9695505050505050565b6000610a57336110e8565b610a6057600080fd5b600b546040805163fe575a8760e01b81526001600160a01b03808716600483015291518693929092169163fe575a8791602480820192602092909190829003018186803b158015610ab057600080fd5b505afa158015610ac4573d6000803e3d6000fd5b505050506040513d6020811015610ada57600080fd5b505115610b28576040805162461bcd60e51b8152602060048201526017602482015276149958d95a5d995c881a5cc8189b1858dadb1a5cdd1959604a1b604482015290519081900360640190fd5b60065415610b8857600654610b4b84610b3f6108a6565b9063ffffffff6115d816565b1115610b885760405162461bcd60e51b8152600401808060200182810382526021815260200180611ed96021913960400191505060405180910390fd5b610b9284846115ea565b5060019392505050565b600b546040805163fe575a8760e01b815233600482015290516001600160a01b039092169163fe575a8791602480820192602092909190829003018186803b158015610be757600080fd5b505afa158015610bfb573d6000803e3d6000fd5b505050506040513d6020811015610c1157600080fd5b505115610c5d576040805162461bcd60e51b815260206004820152601560248201527410d85b1b195c881a5cc8189b1858dadb1a5cdd1959605a1b604482015290519081900360640190fd5b610c6681611692565b50565b6000610c7c60078363ffffffff61169c16565b92915050565b600c546001600160a01b031681565b60085460ff1690565b610ca261102a565b610cab57600080fd5b806001600160a01b031663223668446040518163ffffffff1660e01b815260040160206040518083038186803b158015610ce457600080fd5b505afa158015610cf8573d6000803e3d6000fd5b505050506040513d6020811015610d0e57600080fd5b5051610d61576040805162461bcd60e51b815260206004820152601a60248201527f4964656e74697479206973206e6f742072656769737465726564000000000000604482015290519081900360640190fd5b600b80546001600160a01b0319166001600160a01b0392909216919091179055565b610d8c336116d1565b565b6001600160a01b031660009081526020819052604090205490565b610db161102a565b610dba57600080fd5b6003546040516000916001600160a01b0316907f8be0079c531659141344cd1fd0a4f28419497f9722a3daafe3b4186f6b6457e0908390a3600380546001600160a01b0319169055565b600b546040805163fe575a8760e01b815233600482015290516001600160a01b039092169163fe575a8791602480820192602092909190829003018186803b158015610e4f57600080fd5b505afa158015610e63573d6000803e3d6000fd5b505050506040513d6020811015610e7957600080fd5b505115610ec5576040805162461bcd60e51b815260206004820152601560248201527410d85b1b195c881a5cc8189b1858dadb1a5cdd1959605a1b604482015290519081900360640190fd5b600b546040805163fe575a8760e01b81526001600160a01b03808616600483015291518593929092169163fe575a8791602480820192602092909190829003018186803b158015610f1557600080fd5b505afa158015610f29573d6000803e3d6000fd5b505050506040513d6020811015610f3f57600080fd5b505115610f8d576040805162461bcd60e51b8152602060048201526017602482015276149958d95a5d995c881a5cc8189b1858dadb1a5cdd1959604a1b604482015290519081900360640190fd5b610f978383611719565b505050565b610fa533610c69565b610fae57600080fd5b610c6681611727565b610fc033610c69565b610fc957600080fd5b60085460ff1615610fd957600080fd5b6008805460ff191660011790556040805133815290517f62e78cea01bee320cd4e420270b5ea74000d11b0c9f74754ebdbfc544b05a2589181900360200190a1565b6003546001600160a01b031690565b6003546001600160a01b0316331490565b6005805460408051602060026001851615610100026000190190941693909304601f810184900484028201840190925281815292918301828280156107ea5780601f106107bf576101008083540402835291602001916107ea565b61109f336110e8565b6110a857600080fd5b610c668161176f565b610d8c336117b7565b60006107fe83836117ff565b6000806110d43385856112d5565b90506110e0848261181c565b949350505050565b6000610c7c60098363ffffffff61169c16565b600a546001600160a01b031681565b600c5460408051631eed540360e11b815260048101849052600060248201819052604482018190528251909384936001600160a01b0390911692633ddaa8069260648083019392829003018186803b15801561116557600080fd5b505afa158015611179573d6000803e3d6000fd5b505050506040513d604081101561118f57600080fd5b5080516020909101519092509050915091565b6001600160a01b03918216600090815260016020908152604080832093909416825291909152205490565b6111d561102a565b6111de57600080fd5b600d80546001600160a01b0319166001600160a01b0392909216919091179055565b61120861102a565b61121157600080fd5b806001600160a01b031663223668446040518163ffffffff1660e01b815260040160206040518083038186803b15801561124a57600080fd5b505afa15801561125e573d6000803e3d6000fd5b505050506040513d602081101561127457600080fd5b5050600c80546001600160a01b0319166001600160a01b0392909216919091179055565b6112a061102a565b6112a957600080fd5b610c6681611839565b60085460009060ff16156112c557600080fd5b6107fe83836118a8565b3b151590565b60008060006112e58487876108ea565b9150915060008211801561136d5750600b546040805163639e625760e11b815233600482015290516001600160a01b039092169163c73cc4ae91602480820192602092909190829003018186803b15801561133f57600080fd5b505afa158015611353573d6000803e3d6000fd5b505050506040513d602081101561136957600080fd5b5051155b1561145357801580611396575061138386610d8e565b611393858463ffffffff6115d816565b11155b6113e7576040805162461bcd60e51b815260206004820181905260248201527f4e6f7420656e6f7567682062616c616e636520746f2070617920545820666565604482015290519081900360640190fd5b6001600160a01b03861633141561141457600d5461140e906001600160a01b03168361181c565b5061142e565b600d5461142c9087906001600160a01b03168461145d565b505b8061144857611443848363ffffffff61191216565b61144a565b835b925050506107fe565b5091949350505050565b60085460009060ff161561147057600080fd5b6110e0848484611927565b60085460009060ff161561148e57600080fd5b6107fe83836119de565b60085460009060ff16156114ab57600080fd5b60006114b7858561181c565b9050846001600160a01b0316336001600160a01b03167fe19260aff97b920c7df27010903aeb9c8d2be5d310a2c67824cf3f15396e4c1686866040518083815260200180602001828103825283818151815260200191508051906020019080838360005b8381101561153357818101518382015260200161151b565b50505050905090810190601f1680156115605780820380516001836020036101000a031916815260200191505b50935050505060405180910390a3611577856112cf565b156110e057611587858585611a7a565b6110e0576040805162461bcd60e51b815260206004820152601860248201527f436f6e74726163742066616c6c6261636b206661696c65640000000000000000604482015290519081900360640190fd5b6000828201838110156107fe57600080fd5b6001600160a01b0382166115fd57600080fd5b600254611610908263ffffffff6115d816565b6002556001600160a01b03821660009081526020819052604090205461163c908263ffffffff6115d816565b6001600160a01b0383166000818152602081815260408083209490945583518581529351929391927fddf252ad1be2c89b69c2b068fc378daa952ba7f163c4a11628f55a4df523b3ef9281900390910190a35050565b610c663382611bc3565b60006001600160a01b0382166116b157600080fd5b506001600160a01b03166000908152602091909152604090205460ff1690565b6116e260078263ffffffff611c6a16565b6040516001600160a01b038216907fcd265ebaf09df2871cc7bd4133404a235ba12eff2041bb89d9c714a2621c7c7e90600090a250565b6117238282611cb2565b5050565b61173860078263ffffffff611d6216565b6040516001600160a01b038216907f6719d08c1888103bea251a4ed56406bd0c3e69723c8a1686e017e7bbe159b6f890600090a250565b61178060098263ffffffff611d6216565b6040516001600160a01b038216907f6ae172837ea30b801fbfcdd4108aa1d5bf8ff775444fd70256b44e6bf3dfc3f690600090a250565b6117c860098263ffffffff611c6a16565b6040516001600160a01b038216907fe94479a9f7e1952cc78f2d6baab678adc1b772d936c6583def489e524cb6669290600090a250565b60085460009060ff161561181257600080fd5b6107fe8383611dae565b60085460009060ff161561182f57600080fd5b6107fe8383611df7565b6001600160a01b03811661184c57600080fd5b6003546040516001600160a01b038084169216907f8be0079c531659141344cd1fd0a4f28419497f9722a3daafe3b4186f6b6457e090600090a3600380546001600160a01b0319166001600160a01b0392909216919091179055565b60006001600160a01b0383166118bd57600080fd5b3360008181526001602090815260408083206001600160a01b0388168085529083529281902086905580518681529051929392600080516020611efa833981519152929181900390910190a350600192915050565b60008282111561192157600080fd5b50900390565b6001600160a01b038316600090815260016020908152604080832033845290915281205461195b908363ffffffff61191216565b6001600160a01b038516600090815260016020908152604080832033845290915290205561198a848484611e0d565b6001600160a01b038416600081815260016020908152604080832033808552908352928190205481519081529051929392600080516020611efa833981519152929181900390910190a35060019392505050565b60006001600160a01b0383166119f357600080fd5b3360009081526001602090815260408083206001600160a01b0387168452909152902054611a27908363ffffffff6115d816565b3360008181526001602090815260408083206001600160a01b038916808552908352928190208590558051948552519193600080516020611efa833981519152929081900390910190a350600192915050565b604051635260769b60e11b815233600482018181526024830185905260606044840190815284516064850152845160009488946001600160a01b0386169463a4c0ed369491938a938a939160849091019060208501908083838e5b83811015611aed578181015183820152602001611ad5565b50505050905090810190601f168015611b1a5780820380516001836020036101000a031916815260200191505b50945050505050602060405180830381600087803b158015611b3b57600080fd5b505af1158015611b4f573d6000803e3d6000fd5b505050506040513d6020811015611b6557600080fd5b5051611bb8576040805162461bcd60e51b815260206004820152601860248201527f436f6e74726163742046616c6c6261636b206661696c65640000000000000000604482015290519081900360640190fd5b506001949350505050565b6001600160a01b038216611bd657600080fd5b600254611be9908263ffffffff61191216565b6002556001600160a01b038216600090815260208190526040902054611c15908263ffffffff61191216565b6001600160a01b038316600081815260208181526040808320949094558351858152935191937fddf252ad1be2c89b69c2b068fc378daa952ba7f163c4a11628f55a4df523b3ef929081900390910190a35050565b6001600160a01b038116611c7d57600080fd5b611c87828261169c565b611c9057600080fd5b6001600160a01b0316600090815260209190915260409020805460ff19169055565b6001600160a01b0382166000908152600160209081526040808320338452909152902054611ce6908263ffffffff61191216565b6001600160a01b0383166000908152600160209081526040808320338452909152902055611d148282611bc3565b6001600160a01b038216600081815260016020908152604080832033808552908352928190205481519081529051929392600080516020611efa833981519152929181900390910190a35050565b6001600160a01b038116611d7557600080fd5b611d7f828261169c565b15611d8957600080fd5b6001600160a01b0316600090815260209190915260409020805460ff19166001179055565b60006001600160a01b038316611dc357600080fd5b3360009081526001602090815260408083206001600160a01b0387168452909152902054611a27908363ffffffff61191216565b6000611e04338484611e0d565b50600192915050565b6001600160a01b038216611e2057600080fd5b6001600160a01b038316600090815260208190526040902054611e49908263ffffffff61191216565b6001600160a01b038085166000908152602081905260408082209390935590841681522054611e7e908263ffffffff6115d816565b6001600160a01b038084166000818152602081815260409182902094909455805185815290519193928716927fddf252ad1be2c89b69c2b068fc378daa952ba7f163c4a11628f55a4df523b3ef92918290030190a350505056fe43616e6e6f7420696e63726561736520737570706c79206265796f6e64206361708c5be1e5ebec7d5bd14f71427d1e84f3dd0314c0f7b2291e5b200ac8c7c3b925a265627a7a72315820377577b98803c2210dfa17f6feaf68d6a856726073543a35d4a8526c1f78cc9f64736f6c63430005100032",
  "source": "pragma solidity >0.5.4;\n\nimport \"../identity/IdentityGuard.sol\";\nimport \"../dao/schemes/FormulaHolder.sol\";\nimport \"./ERC677BridgeToken.sol\";\n\n/**\n * @title The GoodDollar ERC677 token contract\n */\ncontract GoodDollar is ERC677BridgeToken, IdentityGuard, FormulaHolder {\n    address feeRecipient;\n\n    // Overrides hard-coded decimal in DAOToken\n    uint256 public constant decimals = 2;\n\n    /**\n     * @dev constructor\n     * @param _name The name of the token\n     * @param _symbol The symbol of the token\n     * @param _cap the cap of the token. no cap if 0\n     * @param _formula the fee formula contract\n     * @param _identity the identity contract\n     * @param _feeRecipient the address that receives transaction fees\n     */\n    constructor(\n        string memory _name,\n        string memory _symbol,\n        uint256 _cap,\n        AbstractFees _formula,\n        Identity _identity,\n        address _feeRecipient\n    )\n        public\n        ERC677BridgeToken(_name, _symbol, _cap)\n        IdentityGuard(_identity)\n        FormulaHolder(_formula)\n    {\n        feeRecipient = _feeRecipient;\n    }\n\n    /**\n     * @dev Processes fees from given value and sends\n     * remainder to given address\n     * @param to the address to be sent to\n     * @param value the value to be processed and then\n     * transferred\n     * @return a boolean that indicates if the operation was successful\n     */\n    function transfer(address to, uint256 value) public returns (bool) {\n        uint256 bruttoValue = processFees(msg.sender, to, value);\n        return super.transfer(to, bruttoValue);\n    }\n\n    /**\n     * @dev Approve the passed address to spend the specified\n     * amount of tokens on behalf of msg.sender\n     * @param spender The address which will spend the funds\n     * @param value The amount of tokens to be spent\n     * @return a boolean that indicates if the operation was successful\n     */\n    function approve(address spender, uint256 value) public returns (bool) {\n        return super.approve(spender, value);\n    }\n\n    /**\n     * @dev Transfer tokens from one address to another\n     * @param from The address which you want to send tokens from\n     * @param to The address which you want to transfer to\n     * @param value the amount of tokens to be transferred\n     * @return a boolean that indicates if the operation was successful\n     */\n    function transferFrom(\n        address from,\n        address to,\n        uint256 value\n    ) public returns (bool) {\n        uint256 bruttoValue = processFees(from, to, value);\n        return super.transferFrom(from, to, bruttoValue);\n    }\n\n    /**\n     * @dev Processes transfer fees and calls ERC677Token transferAndCall function\n     * @param to address to transfer to\n     * @param value the amount to transfer\n     * @param data The data to pass to transferAndCall\n     * @return a bool indicating if transfer function succeeded\n     */\n    function transferAndCall(\n        address to,\n        uint256 value,\n        bytes calldata data\n    ) external returns (bool) {\n        uint256 bruttoValue = processFees(msg.sender, to, value);\n        return super._transferAndCall(to, bruttoValue, data);\n    }\n\n    /**\n     * @dev Minting function\n     * @param to the address that will receive the minted tokens\n     * @param value the amount of tokens to mint\n     * @return a boolean that indicated if the operation was successful\n     */\n    function mint(address to, uint256 value)\n        public\n        onlyMinter\n        requireNotBlacklisted(to)\n        returns (bool)\n    {\n        if (cap > 0) {\n            require(totalSupply().add(value) <= cap, \"Cannot increase supply beyond cap\");\n        }\n        super._mint(to, value);\n        return true;\n    }\n\n    /**\n     * @dev Burns a specific amount of tokens.\n     * @param value The amount of token to be burned.\n     */\n    function burn(uint256 value) public onlyNotBlacklisted {\n        super.burn(value);\n    }\n\n    /**\n     * @dev Burns a specific amount of tokens from the target address and decrements allowance\n     * @param from address The address which you want to send tokens from\n     * @param value uint256 The amount of token to be burned\n     */\n    function burnFrom(address from, uint256 value)\n        public\n        onlyNotBlacklisted\n        requireNotBlacklisted(from)\n    {\n        super.burnFrom(from, value);\n    }\n\n    /**\n     * @dev Increase the amount of tokens that an owner allows a spender\n     * @param spender The address which will spend the funds\n     * @param addedValue The amount of tokens to increase the allowance by\n     * @return a boolean that indicated if the operation was successful\n     */\n    function increaseAllowance(address spender, uint256 addedValue)\n        public\n        returns (bool)\n    {\n        return super.increaseAllowance(spender, addedValue);\n    }\n\n    /**\n     * @dev Decrease the amount of tokens that an owner allowed to a spender\n     * @param spender The address which will spend the funds\n     * @param subtractedValue The amount of tokens to decrease the allowance by\n     * @return a boolean that indicated if the operation was successful\n     */\n    function decreaseAllowance(address spender, uint256 subtractedValue)\n        public\n        returns (bool)\n    {\n        return super.decreaseAllowance(spender, subtractedValue);\n    }\n\n    /**\n     * @dev Gets the current transaction fees\n     * @return an uint256 that represents\n     * the current transaction fees\n     */\n    function getFees(uint256 value) public view returns (uint256, bool) {\n        return formula.getTxFees(value, address(0), address(0));\n    }\n\n    /**\n     * @dev Gets the current transaction fees\n     * @return an uint256 that represents\n     * the current transaction fees\n     */\n    function getFees(\n        uint256 value,\n        address sender,\n        address recipient\n    ) public view returns (uint256, bool) {\n        return formula.getTxFees(value, sender, recipient);\n    }\n\n    /**\n     * @dev Sets the address that receives the transactional fees.\n     * can only be called by owner\n     * @param _feeRecipient The new address to receive transactional fees\n     */\n    function setFeeRecipient(address _feeRecipient) public onlyOwner {\n        feeRecipient = _feeRecipient;\n    }\n\n    /**\n     * @dev Sends transactional fees to feeRecipient address from given address\n     * @param account The account that sends the fees\n     * @param value The amount to subtract fees from\n     * @return an uint256 that represents the given value minus the transactional fees\n     */\n    function processFees(\n        address account,\n        address recipient,\n        uint256 value\n    ) internal returns (uint256) {\n        (uint256 txFees, bool senderPays) = getFees(value, account, recipient);\n        if (txFees > 0 && !identity.isDAOContract(msg.sender)) {\n            require(\n                senderPays == false || value.add(txFees) <= balanceOf(account),\n                \"Not enough balance to pay TX fee\"\n            );\n            if (account == msg.sender) {\n                super.transfer(feeRecipient, txFees);\n            } else {\n                super.transferFrom(account, feeRecipient, txFees);\n            }\n\n            return senderPays ? value : value.sub(txFees);\n        }\n        return value;\n    }\n}\n",
  "sourcePath": "/Users/hadar/workspace/GoodDollar/GoodBootstrap/packages/contracts/contracts/token/GoodDollar.sol",
  "compiler": {
    "name": "solc",
    "version": "0.5.16+commit.9c3226ce.Emscripten.clang"
  },
  "schemaVersion": "3.2.3",
  "updatedAt": "2021-01-27T19:48:05.705Z",
  "networkType": "ethereum",
  "devdoc": {
    "methods": {
      "allowance(address,address)": {
        "details": "Function to check the amount of tokens that an owner allowed to a spender.",
        "params": {
          "owner": "address The address which owns the funds.",
          "spender": "address The address which will spend the funds."
        },
        "return": "A uint256 specifying the amount of tokens still available for the spender."
      },
      "approve(address,uint256)": {
        "details": "Approve the passed address to spend the specified amount of tokens on behalf of msg.sender",
        "params": {
          "spender": "The address which will spend the funds",
          "value": "The amount of tokens to be spent"
        },
        "return": "a boolean that indicates if the operation was successful"
      },
      "balanceOf(address)": {
        "details": "Gets the balance of the specified address.",
        "params": {
          "owner": "The address to query the balance of."
        },
        "return": "An uint256 representing the amount owned by the passed address."
      },
      "burn(uint256)": {
        "details": "Burns a specific amount of tokens.",
        "params": {
          "value": "The amount of token to be burned."
        }
      },
      "burnFrom(address,uint256)": {
        "details": "Burns a specific amount of tokens from the target address and decrements allowance",
        "params": {
          "from": "address The address which you want to send tokens from",
          "value": "uint256 The amount of token to be burned"
        }
      },
      "constructor": {
        "details": "constructor",
        "params": {
          "_cap": "the cap of the token. no cap if 0",
          "_feeRecipient": "the address that receives transaction fees",
          "_formula": "the fee formula contract",
          "_identity": "the identity contract",
          "_name": "The name of the token",
          "_symbol": "The symbol of the token"
        }
      },
      "decreaseAllowance(address,uint256)": {
        "details": "Decrease the amount of tokens that an owner allowed to a spender",
        "params": {
          "spender": "The address which will spend the funds",
          "subtractedValue": "The amount of tokens to decrease the allowance by"
        },
        "return": "a boolean that indicated if the operation was successful"
      },
      "getFees(uint256)": {
        "details": "Gets the current transaction fees",
        "return": "an uint256 that represents the current transaction fees"
      },
      "getFees(uint256,address,address)": {
        "details": "Gets the current transaction fees",
        "return": "an uint256 that represents the current transaction fees"
      },
      "increaseAllowance(address,uint256)": {
        "details": "Increase the amount of tokens that an owner allows a spender",
        "params": {
          "addedValue": "The amount of tokens to increase the allowance by",
          "spender": "The address which will spend the funds"
        },
        "return": "a boolean that indicated if the operation was successful"
      },
      "isOwner()": {
        "return": "true if `msg.sender` is the owner of the contract."
      },
      "mint(address,uint256)": {
        "details": "Minting function",
        "params": {
          "to": "the address that will receive the minted tokens",
          "value": "the amount of tokens to mint"
        },
        "return": "a boolean that indicated if the operation was successful"
      },
      "owner()": {
        "return": "the address of the owner."
      },
      "pause()": {
        "details": "called by the owner to pause, triggers stopped state"
      },
      "paused()": {
        "return": "true if the contract is paused, false otherwise."
      },
      "renounceOwnership()": {
        "details": "Allows the current owner to relinquish control of the contract."
      },
      "setFeeRecipient(address)": {
        "details": "Sets the address that receives the transactional fees. can only be called by owner",
        "params": {
          "_feeRecipient": "The new address to receive transactional fees"
        }
      },
      "totalSupply()": {
        "details": "Total number of tokens in existence"
      },
      "transfer(address,uint256)": {
        "details": "Processes fees from given value and sends remainder to given address",
        "params": {
          "to": "the address to be sent to",
          "value": "the value to be processed and then transferred"
        },
        "return": "a boolean that indicates if the operation was successful"
      },
      "transferAndCall(address,uint256,bytes)": {
        "details": "Processes transfer fees and calls ERC677Token transferAndCall function",
        "params": {
          "data": "The data to pass to transferAndCall",
          "to": "address to transfer to",
          "value": "the amount to transfer"
        },
        "return": "a bool indicating if transfer function succeeded"
      },
      "transferFrom(address,address,uint256)": {
        "details": "Transfer tokens from one address to another",
        "params": {
          "from": "The address which you want to send tokens from",
          "to": "The address which you want to transfer to",
          "value": "the amount of tokens to be transferred"
        },
        "return": "a boolean that indicates if the operation was successful"
      },
      "transferOwnership(address)": {
        "details": "Allows the current owner to transfer control of the contract to a newOwner.",
        "params": {
          "newOwner": "The address to transfer ownership to."
        }
      },
      "unpause()": {
        "details": "called by the owner to unpause, returns to normal state"
      }
    },
    "title": "The GoodDollar ERC677 token contract"
  },
  "userdoc": {
    "methods": {
      "renounceOwnership()": {
        "notice": "Renouncing to ownership will leave the contract without an owner. It will not be possible to call the functions with the `onlyOwner` modifier anymore."
      }
    }
  }
}