{
  "contractName": "GoodDollar",
  "abi": [
    {
      "constant": true,
      "inputs": [],
      "name": "populatedMarket",
      "outputs": [
        {
          "name": "",
          "type": "bool"
        }
      ],
      "payable": false,
      "stateMutability": "view",
      "type": "function",
      "signature": "0x02a033fc"
    },
    {
      "constant": true,
      "inputs": [],
      "name": "name",
      "outputs": [
        {
          "name": "",
          "type": "string"
        }
      ],
      "payable": false,
      "stateMutability": "view",
      "type": "function",
      "signature": "0x06fdde03"
    },
    {
      "constant": false,
      "inputs": [
        {
          "name": "spender",
          "type": "address"
        },
        {
          "name": "value",
          "type": "uint256"
        }
      ],
      "name": "approve",
      "outputs": [
        {
          "name": "",
          "type": "bool"
        }
      ],
      "payable": false,
      "stateMutability": "nonpayable",
      "type": "function",
      "signature": "0x095ea7b3"
    },
    {
      "constant": true,
      "inputs": [],
      "name": "totalSupply",
      "outputs": [
        {
          "name": "",
          "type": "uint256"
        }
      ],
      "payable": false,
      "stateMutability": "view",
      "type": "function",
      "signature": "0x18160ddd"
    },
    {
      "constant": false,
      "inputs": [
        {
          "name": "from",
          "type": "address"
        },
        {
          "name": "to",
          "type": "address"
        },
        {
          "name": "value",
          "type": "uint256"
        }
      ],
      "name": "transferFrom",
      "outputs": [
        {
          "name": "",
          "type": "bool"
        }
      ],
      "payable": false,
      "stateMutability": "nonpayable",
      "type": "function",
      "signature": "0x23b872dd"
    },
    {
      "constant": true,
      "inputs": [],
      "name": "decimals",
      "outputs": [
        {
          "name": "",
          "type": "uint8"
        }
      ],
      "payable": false,
      "stateMutability": "view",
      "type": "function",
      "signature": "0x313ce567"
    },
    {
      "constant": false,
      "inputs": [
        {
          "name": "spender",
          "type": "address"
        },
        {
          "name": "addedValue",
          "type": "uint256"
        }
      ],
      "name": "increaseAllowance",
      "outputs": [
        {
          "name": "",
          "type": "bool"
        }
      ],
      "payable": false,
      "stateMutability": "nonpayable",
      "type": "function",
      "signature": "0x39509351"
    },
    {
      "constant": false,
      "inputs": [
        {
          "name": "to",
          "type": "address"
        },
        {
          "name": "value",
          "type": "uint256"
        }
      ],
      "name": "mint",
      "outputs": [
        {
          "name": "",
          "type": "bool"
        }
      ],
      "payable": false,
      "stateMutability": "nonpayable",
      "type": "function",
      "signature": "0x40c10f19"
    },
    {
      "constant": false,
      "inputs": [
        {
          "name": "value",
          "type": "uint256"
        }
      ],
      "name": "burn",
      "outputs": [],
      "payable": false,
      "stateMutability": "nonpayable",
      "type": "function",
      "signature": "0x42966c68"
    },
    {
      "constant": true,
      "inputs": [
        {
          "name": "",
          "type": "address"
        }
      ],
      "name": "last_claimed",
      "outputs": [
        {
          "name": "",
          "type": "uint256"
        }
      ],
      "payable": false,
      "stateMutability": "view",
      "type": "function",
      "signature": "0x59447f54"
    },
    {
      "constant": true,
      "inputs": [
        {
          "name": "owner",
          "type": "address"
        }
      ],
      "name": "balanceOf",
      "outputs": [
        {
          "name": "",
          "type": "uint256"
        }
      ],
      "payable": false,
      "stateMutability": "view",
      "type": "function",
      "signature": "0x70a08231"
    },
    {
      "constant": false,
      "inputs": [],
      "name": "renounceOwnership",
      "outputs": [],
      "payable": false,
      "stateMutability": "nonpayable",
      "type": "function",
      "signature": "0x715018a6"
    },
    {
      "constant": false,
      "inputs": [
        {
          "name": "from",
          "type": "address"
        },
        {
          "name": "value",
          "type": "uint256"
        }
      ],
      "name": "burnFrom",
      "outputs": [],
      "payable": false,
      "stateMutability": "nonpayable",
      "type": "function",
      "signature": "0x79cc6790"
    },
    {
      "constant": true,
      "inputs": [],
      "name": "owner",
      "outputs": [
        {
          "name": "",
          "type": "address"
        }
      ],
      "payable": false,
      "stateMutability": "view",
      "type": "function",
      "signature": "0x8da5cb5b"
    },
    {
      "constant": true,
      "inputs": [],
      "name": "isOwner",
      "outputs": [
        {
          "name": "",
          "type": "bool"
        }
      ],
      "payable": false,
      "stateMutability": "view",
      "type": "function",
      "signature": "0x8f32d59b"
    },
    {
      "constant": true,
      "inputs": [],
      "name": "symbol",
      "outputs": [
        {
          "name": "",
          "type": "string"
        }
      ],
      "payable": false,
      "stateMutability": "view",
      "type": "function",
      "signature": "0x95d89b41"
    },
    {
      "constant": false,
      "inputs": [
        {
          "name": "account",
          "type": "address"
        }
      ],
      "name": "addMinter",
      "outputs": [],
      "payable": false,
      "stateMutability": "nonpayable",
      "type": "function",
      "signature": "0x983b2d56"
    },
    {
      "constant": false,
      "inputs": [],
      "name": "renounceMinter",
      "outputs": [],
      "payable": false,
      "stateMutability": "nonpayable",
      "type": "function",
      "signature": "0x98650275"
    },
    {
      "constant": false,
      "inputs": [
        {
          "name": "spender",
          "type": "address"
        },
        {
          "name": "subtractedValue",
          "type": "uint256"
        }
      ],
      "name": "decreaseAllowance",
      "outputs": [
        {
          "name": "",
          "type": "bool"
        }
      ],
      "payable": false,
      "stateMutability": "nonpayable",
      "type": "function",
      "signature": "0xa457c2d7"
    },
    {
      "constant": false,
      "inputs": [
        {
          "name": "to",
          "type": "address"
        },
        {
          "name": "value",
          "type": "uint256"
        }
      ],
      "name": "transfer",
      "outputs": [
        {
          "name": "",
          "type": "bool"
        }
      ],
      "payable": false,
      "stateMutability": "nonpayable",
      "type": "function",
      "signature": "0xa9059cbb"
    },
    {
      "constant": true,
      "inputs": [
        {
          "name": "account",
          "type": "address"
        }
      ],
      "name": "isMinter",
      "outputs": [
        {
          "name": "",
          "type": "bool"
        }
      ],
      "payable": false,
      "stateMutability": "view",
      "type": "function",
      "signature": "0xaa271e1a"
    },
    {
      "constant": true,
      "inputs": [
        {
          "name": "owner",
          "type": "address"
        },
        {
          "name": "spender",
          "type": "address"
        }
      ],
      "name": "allowance",
      "outputs": [
        {
          "name": "",
          "type": "uint256"
        }
      ],
      "payable": false,
      "stateMutability": "view",
      "type": "function",
      "signature": "0xdd62ed3e"
    },
    {
      "constant": false,
      "inputs": [
        {
          "name": "newOwner",
          "type": "address"
        }
      ],
      "name": "transferOwnership",
      "outputs": [],
      "payable": false,
      "stateMutability": "nonpayable",
      "type": "function",
      "signature": "0xf2fde38b"
    },
    {
      "inputs": [
        {
          "name": "name",
          "type": "string"
        },
        {
          "name": "symbol",
          "type": "string"
        },
        {
          "name": "decimals",
          "type": "uint8"
        },
        {
          "name": "minters",
          "type": "address[]"
        }
      ],
      "payable": false,
      "stateMutability": "nonpayable",
      "type": "constructor",
      "signature": "constructor"
    },
    {
      "anonymous": false,
      "inputs": [],
      "name": "PopulatedMarket",
      "type": "event",
      "signature": "0x4bd9691b23890469e070218632e0f2ccd47ffa720ac3619fb14ad9dc504cc42e"
    },
    {
      "anonymous": false,
      "inputs": [
        {
          "indexed": true,
          "name": "previousOwner",
          "type": "address"
        },
        {
          "indexed": true,
          "name": "newOwner",
          "type": "address"
        }
      ],
      "name": "OwnershipTransferred",
      "type": "event",
      "signature": "0x8be0079c531659141344cd1fd0a4f28419497f9722a3daafe3b4186f6b6457e0"
    },
    {
      "anonymous": false,
      "inputs": [
        {
          "indexed": true,
          "name": "account",
          "type": "address"
        }
      ],
      "name": "MinterAdded",
      "type": "event",
      "signature": "0x6ae172837ea30b801fbfcdd4108aa1d5bf8ff775444fd70256b44e6bf3dfc3f6"
    },
    {
      "anonymous": false,
      "inputs": [
        {
          "indexed": true,
          "name": "account",
          "type": "address"
        }
      ],
      "name": "MinterRemoved",
      "type": "event",
      "signature": "0xe94479a9f7e1952cc78f2d6baab678adc1b772d936c6583def489e524cb66692"
    },
    {
      "anonymous": false,
      "inputs": [
        {
          "indexed": true,
          "name": "from",
          "type": "address"
        },
        {
          "indexed": true,
          "name": "to",
          "type": "address"
        },
        {
          "indexed": false,
          "name": "value",
          "type": "uint256"
        }
      ],
      "name": "Transfer",
      "type": "event",
      "signature": "0xddf252ad1be2c89b69c2b068fc378daa952ba7f163c4a11628f55a4df523b3ef"
    },
    {
      "anonymous": false,
      "inputs": [
        {
          "indexed": true,
          "name": "owner",
          "type": "address"
        },
        {
          "indexed": true,
          "name": "spender",
          "type": "address"
        },
        {
          "indexed": false,
          "name": "value",
          "type": "uint256"
        }
      ],
      "name": "Approval",
      "type": "event",
      "signature": "0x8c5be1e5ebec7d5bd14f71427d1e84f3dd0314c0f7b2291e5b200ac8c7c3b925"
    },
    {
      "constant": false,
      "inputs": [
        {
          "name": "_gcm",
          "type": "address"
        }
      ],
      "name": "initialMove",
      "outputs": [
        {
          "name": "",
          "type": "bool"
        }
      ],
      "payable": false,
      "stateMutability": "nonpayable",
      "type": "function",
      "signature": "0x7c4fdcd1"
    }
  ],
  "bytecode": "0x60806040526007805460a060020a60ff02191690553480156200002157600080fd5b506040516200152f3803806200152f833981018060405260808110156200004757600080fd5b8101908080516401000000008111156200006057600080fd5b820160208101848111156200007457600080fd5b81516401000000008111828201871017156200008f57600080fd5b50509291906020018051640100000000811115620000ac57600080fd5b82016020810184811115620000c057600080fd5b8151640100000000811182820187101715620000db57600080fd5b505060208201516040909201805191949293916401000000008111156200010157600080fd5b820160208101848111156200011557600080fd5b81518560208202830111640100000000821117156200013357600080fd5b5050865190935086925085915084906200015590600090602086019062000375565b5081516200016b90600190602085019062000375565b506002805460ff191660ff92909216919091179055506200019790503364010000000062000236810204565b60078054600160a060020a031916331790819055604051600160a060020a0391909116906000907f8be0079c531659141344cd1fd0a4f28419497f9722a3daafe3b4186f6b6457e0908290a360005b81518110156200022b576200022282828151811015156200020357fe5b9060200190602002015162000288640100000000026401000000009004565b600101620001e6565b50505050506200041a565b620002516006826401000000006200101f620002bf82021704565b604051600160a060020a038216907f6ae172837ea30b801fbfcdd4108aa1d5bf8ff775444fd70256b44e6bf3dfc3f690600090a250565b6200029c336401000000006200031a810204565b1515620002a857600080fd5b620002bc8164010000000062000236810204565b50565b600160a060020a0381161515620002d557600080fd5b620002ea82826401000000006200033d810204565b15620002f557600080fd5b600160a060020a0316600090815260209190915260409020805460ff19166001179055565b60006200033760068364010000000062000f6a6200033d82021704565b92915050565b6000600160a060020a03821615156200035557600080fd5b50600160a060020a03166000908152602091909152604090205460ff1690565b828054600181600116156101000203166002900490600052602060002090601f016020900481019282601f10620003b857805160ff1916838001178555620003e8565b82800160010185558215620003e8579182015b82811115620003e8578251825591602001919060010190620003cb565b50620003f6929150620003fa565b5090565b6200041791905b80821115620003f6576000815560010162000401565b90565b611105806200042a6000396000f3fe60806040526004361061013d5763ffffffff7c010000000000000000000000000000000000000000000000000000000060003504166302a033fc811461014257806306fdde031461016b578063095ea7b3146101f557806318160ddd1461022e57806323b872dd14610255578063313ce5671461029857806339509351146102c357806340c10f19146102fc57806342966c681461033557806359447f541461036157806370a0823114610394578063715018a6146103c757806379cc6790146103dc5780637c4fdcd1146104155780638da5cb5b146104485780638f32d59b1461047957806395d89b411461048e578063983b2d56146104a357806398650275146104d6578063a457c2d7146104eb578063a9059cbb14610524578063aa271e1a1461055d578063dd62ed3e14610590578063f2fde38b146105cb575b600080fd5b34801561014e57600080fd5b506101576105fe565b604080519115158252519081900360200190f35b34801561017757600080fd5b5061018061061f565b6040805160208082528351818301528351919283929083019185019080838360005b838110156101ba5781810151838201526020016101a2565b50505050905090810190601f1680156101e75780820380516001836020036101000a031916815260200191505b509250505060405180910390f35b34801561020157600080fd5b506101576004803603604081101561021857600080fd5b50600160a060020a0381351690602001356106b5565b34801561023a57600080fd5b50610243610721565b60408051918252519081900360200190f35b34801561026157600080fd5b506101576004803603606081101561027857600080fd5b50600160a060020a03813581169160208101359091169060400135610727565b3480156102a457600080fd5b506102ad6107de565b6040805160ff9092168252519081900360200190f35b3480156102cf57600080fd5b50610157600480360360408110156102e657600080fd5b50600160a060020a0381351690602001356107e7565b34801561030857600080fd5b506101576004803603604081101561031f57600080fd5b50600160a060020a038135169060200135610885565b34801561034157600080fd5b5061035f6004803603602081101561035857600080fd5b50356108ae565b005b34801561036d57600080fd5b506102436004803603602081101561038457600080fd5b5035600160a060020a03166108bb565b3480156103a057600080fd5b50610243600480360360208110156103b757600080fd5b5035600160a060020a03166108cd565b3480156103d357600080fd5b5061035f6108e8565b3480156103e857600080fd5b5061035f600480360360408110156103ff57600080fd5b50600160a060020a038135169060200135610952565b34801561042157600080fd5b506101576004803603602081101561043857600080fd5b5035600160a060020a0316610960565b34801561045457600080fd5b5061045d610a76565b60408051600160a060020a039092168252519081900360200190f35b34801561048557600080fd5b50610157610a85565b34801561049a57600080fd5b50610180610a96565b3480156104af57600080fd5b5061035f600480360360208110156104c657600080fd5b5035600160a060020a0316610af6565b3480156104e257600080fd5b5061035f610b13565b3480156104f757600080fd5b506101576004803603604081101561050e57600080fd5b50600160a060020a038135169060200135610b1e565b34801561053057600080fd5b506101576004803603604081101561054757600080fd5b50600160a060020a038135169060200135610b69565b34801561056957600080fd5b506101576004803603602081101561058057600080fd5b5035600160a060020a0316610b76565b34801561059c57600080fd5b50610243600480360360408110156105b357600080fd5b50600160a060020a0381358116916020013516610b8f565b3480156105d757600080fd5b5061035f600480360360208110156105ee57600080fd5b5035600160a060020a0316610bba565b60075474010000000000000000000000000000000000000000900460ff1681565b60008054604080516020601f60026000196101006001881615020190951694909404938401819004810282018101909252828152606093909290918301828280156106ab5780601f10610680576101008083540402835291602001916106ab565b820191906000526020600020905b81548152906001019060200180831161068e57829003601f168201915b5050505050905090565b6000600160a060020a03831615156106cc57600080fd5b336000818152600460209081526040808320600160a060020a03881680855290835292819020869055805186815290519293926000805160206110ba833981519152929181900390910190a350600192915050565b60055490565b600160a060020a038316600090815260046020908152604080832033845290915281205461075b908363ffffffff610bd616565b600160a060020a038516600090815260046020908152604080832033845290915290205561078a848484610beb565b600160a060020a0384166000818152600460209081526040808320338085529083529281902054815190815290519293926000805160206110ba833981519152929181900390910190a35060019392505050565b60025460ff1690565b6000600160a060020a03831615156107fe57600080fd5b336000908152600460209081526040808320600160a060020a0387168452909152902054610832908363ffffffff610cba16565b336000818152600460209081526040808320600160a060020a0389168085529083529281902085905580519485525191936000805160206110ba833981519152929081900390910190a350600192915050565b600061089033610b76565b151561089b57600080fd5b6108a58383610cd3565b50600192915050565b6108b83382610d7f565b50565b60086020526000908152604090205481565b600160a060020a031660009081526003602052604090205490565b6108f0610a85565b15156108fb57600080fd5b600754604051600091600160a060020a0316907f8be0079c531659141344cd1fd0a4f28419497f9722a3daafe3b4186f6b6457e0908390a36007805473ffffffffffffffffffffffffffffffffffffffff19169055565b61095c8282610e2a565b5050565b60075460009074010000000000000000000000000000000000000000900460ff16156109ed57604080517f08c379a000000000000000000000000000000000000000000000000000000000815260206004820152601e60248201527f476f6f64446f6c6c617220616c726561647920696e697469616c697a65640000604482015290519081900360640190fd5b6109f5610a85565b1515610a0057600080fd5b620f4240610a0e8382610885565b506007805474ff00000000000000000000000000000000000000001916740100000000000000000000000000000000000000001790556040517f4bd9691b23890469e070218632e0f2ccd47ffa720ac3619fb14ad9dc504cc42e90600090a150600192915050565b600754600160a060020a031690565b600754600160a060020a0316331490565b60018054604080516020601f600260001961010087891615020190951694909404938401819004810282018101909252828152606093909290918301828280156106ab5780601f10610680576101008083540402835291602001916106ab565b610aff33610b76565b1515610b0a57600080fd5b6108b881610eda565b610b1c33610f22565b565b6000600160a060020a0383161515610b3557600080fd5b336000908152600460209081526040808320600160a060020a0387168452909152902054610832908363ffffffff610bd616565b60006108a5338484610beb565b6000610b8960068363ffffffff610f6a16565b92915050565b600160a060020a03918216600090815260046020908152604080832093909416825291909152205490565b610bc2610a85565b1515610bcd57600080fd5b6108b881610fa1565b600082821115610be557600080fd5b50900390565b600160a060020a0382161515610c0057600080fd5b600160a060020a038316600090815260036020526040902054610c29908263ffffffff610bd616565b600160a060020a038085166000908152600360205260408082209390935590841681522054610c5e908263ffffffff610cba16565b600160a060020a0380841660008181526003602090815260409182902094909455805185815290519193928716927fddf252ad1be2c89b69c2b068fc378daa952ba7f163c4a11628f55a4df523b3ef92918290030190a3505050565b600082820183811015610ccc57600080fd5b9392505050565b600160a060020a0382161515610ce857600080fd5b600554610cfb908263ffffffff610cba16565b600555600160a060020a038216600090815260036020526040902054610d27908263ffffffff610cba16565b600160a060020a03831660008181526003602090815260408083209490945583518581529351929391927fddf252ad1be2c89b69c2b068fc378daa952ba7f163c4a11628f55a4df523b3ef9281900390910190a35050565b600160a060020a0382161515610d9457600080fd5b600554610da7908263ffffffff610bd616565b600555600160a060020a038216600090815260036020526040902054610dd3908263ffffffff610bd616565b600160a060020a0383166000818152600360209081526040808320949094558351858152935191937fddf252ad1be2c89b69c2b068fc378daa952ba7f163c4a11628f55a4df523b3ef929081900390910190a35050565b600160a060020a0382166000908152600460209081526040808320338452909152902054610e5e908263ffffffff610bd616565b600160a060020a0383166000908152600460209081526040808320338452909152902055610e8c8282610d7f565b600160a060020a0382166000818152600460209081526040808320338085529083529281902054815190815290519293926000805160206110ba833981519152929181900390910190a35050565b610eeb60068263ffffffff61101f16565b604051600160a060020a038216907f6ae172837ea30b801fbfcdd4108aa1d5bf8ff775444fd70256b44e6bf3dfc3f690600090a250565b610f3360068263ffffffff61106d16565b604051600160a060020a038216907fe94479a9f7e1952cc78f2d6baab678adc1b772d936c6583def489e524cb6669290600090a250565b6000600160a060020a0382161515610f8157600080fd5b50600160a060020a03166000908152602091909152604090205460ff1690565b600160a060020a0381161515610fb657600080fd5b600754604051600160a060020a038084169216907f8be0079c531659141344cd1fd0a4f28419497f9722a3daafe3b4186f6b6457e090600090a36007805473ffffffffffffffffffffffffffffffffffffffff1916600160a060020a0392909216919091179055565b600160a060020a038116151561103457600080fd5b61103e8282610f6a565b1561104857600080fd5b600160a060020a0316600090815260209190915260409020805460ff19166001179055565b600160a060020a038116151561108257600080fd5b61108c8282610f6a565b151561109757600080fd5b600160a060020a0316600090815260209190915260409020805460ff1916905556fe8c5be1e5ebec7d5bd14f71427d1e84f3dd0314c0f7b2291e5b200ac8c7c3b925a165627a7a72305820f85fbc72489d42d57d7383b272ca15ae12ba5cc53d44a5f5bdd883b1c1385df30029",
  "source": "pragma solidity ^0.5.0;\r\n\r\nimport \"openzeppelin-solidity/contracts/math/SafeMath.sol\";\r\nimport \"openzeppelin-solidity/contracts/token/ERC20/ERC20Detailed.sol\";\r\nimport \"openzeppelin-solidity/contracts/token/ERC20/ERC20Mintable.sol\";\r\nimport \"openzeppelin-solidity/contracts/token/ERC20/ERC20Burnable.sol\";\r\nimport \"openzeppelin-solidity/contracts/ownership/Ownable.sol\";\r\n\r\ncontract GoodDollar is ERC20Detailed,ERC20Mintable,ERC20Burnable,Ownable {\r\n    using SafeMath for uint256;\r\n\r\n    event PopulatedMarket();\r\n\r\n    bool public populatedMarket = false;\r\n\r\n    mapping (address => uint) public last_claimed;\r\n\r\n    modifier canPopulate() {\r\n      require(!populatedMarket,\"GoodDollar already initialized\");\r\n      _;\r\n    }\r\n\r\n    constructor (\r\n        string memory name,\r\n        string memory symbol,\r\n        uint8 decimals,\r\n        address[] memory minters\r\n    ) public\r\n        ERC20Burnable()\r\n        ERC20Mintable()\r\n        ERC20Detailed(name, symbol, decimals)\r\n        ERC20()\r\n    {\r\n      for(uint i = 0;i<minters.length;i++)\r\n        addMinter(minters[i]);\r\n    }\r\n\r\n    // Creats initial amount of this coin (GoodDollar) in the market\r\n    // Amount is 100 coins for a start (of the GoodDollar market)\r\n    function initialMove(address _gcm) canPopulate public onlyOwner returns(bool) {\r\n      // amount is 100 * 10^18 as each token seems to be viewed as\r\n      // a wei-like equivalent in the bancor formulas\r\n      \r\n      // should be: uint256 amount = 100*(10**decimals);\r\n      // replace \"18\" in the number of decimals. \r\n      //Don't replace in decimals var itself; it is uint8 and wiil cause inaccuracy. Should not change to uint256 also.\r\n      uint256 amount = 100*(10**4); // ** is math.power\r\n\r\n      mint(_gcm, amount);\r\n\r\n      populatedMarket = true;\r\n      emit PopulatedMarket();\r\n\r\n      return true;\r\n    }\r\n  \r\n}",
  "sourcePath": "C:\\Users\\hadarro\\Documents\\GoodDollar\\GoodContracts\\contracts\\GoodDollar.sol",
  "compiler": {
    "name": "solc",
    "version": "0.5.0+commit.1d4f565a.Emscripten.clang"
  },
  "schemaVersion": "3.0.1",
  "updatedAt": "2019-01-29T15:55:34.186Z",
  "devdoc": {
    "methods": {
      "allowance(address,address)": {
        "details": "Function to check the amount of tokens that an owner allowed to a spender.",
        "params": {
          "owner": "address The address which owns the funds.",
          "spender": "address The address which will spend the funds."
        },
        "return": "A uint256 specifying the amount of tokens still available for the spender."
      },
      "approve(address,uint256)": {
        "details": "Approve the passed address to spend the specified amount of tokens on behalf of msg.sender. Beware that changing an allowance with this method brings the risk that someone may use both the old and the new allowance by unfortunate transaction ordering. One possible solution to mitigate this race condition is to first reduce the spender's allowance to 0 and set the desired value afterwards: https://github.com/ethereum/EIPs/issues/20#issuecomment-263524729",
        "params": {
          "spender": "The address which will spend the funds.",
          "value": "The amount of tokens to be spent."
        }
      },
      "balanceOf(address)": {
        "details": "Gets the balance of the specified address.",
        "params": {
          "owner": "The address to query the balance of."
        },
        "return": "An uint256 representing the amount owned by the passed address."
      },
      "burn(uint256)": {
        "details": "Burns a specific amount of tokens.",
        "params": {
          "value": "The amount of token to be burned."
        }
      },
      "burnFrom(address,uint256)": {
        "details": "Burns a specific amount of tokens from the target address and decrements allowance",
        "params": {
          "from": "address The address which you want to send tokens from",
          "value": "uint256 The amount of token to be burned"
        }
      },
      "decimals()": {
        "return": "the number of decimals of the token."
      },
      "decreaseAllowance(address,uint256)": {
        "details": "Decrease the amount of tokens that an owner allowed to a spender. approve should be called when allowed_[_spender] == 0. To decrement allowed value is better to use this function to avoid 2 calls (and wait until the first transaction is mined) From MonolithDAO Token.sol Emits an Approval event.",
        "params": {
          "spender": "The address which will spend the funds.",
          "subtractedValue": "The amount of tokens to decrease the allowance by."
        }
      },
      "increaseAllowance(address,uint256)": {
        "details": "Increase the amount of tokens that an owner allowed to a spender. approve should be called when allowed_[_spender] == 0. To increment allowed value is better to use this function to avoid 2 calls (and wait until the first transaction is mined) From MonolithDAO Token.sol Emits an Approval event.",
        "params": {
          "addedValue": "The amount of tokens to increase the allowance by.",
          "spender": "The address which will spend the funds."
        }
      },
      "isOwner()": {
        "return": "true if `msg.sender` is the owner of the contract."
      },
      "mint(address,uint256)": {
        "details": "Function to mint tokens",
        "params": {
          "to": "The address that will receive the minted tokens.",
          "value": "The amount of tokens to mint."
        },
        "return": "A boolean that indicates if the operation was successful."
      },
      "name()": {
        "return": "the name of the token."
      },
      "owner()": {
        "return": "the address of the owner."
      },
      "renounceOwnership()": {
        "details": "Allows the current owner to relinquish control of the contract."
      },
      "symbol()": {
        "return": "the symbol of the token."
      },
      "totalSupply()": {
        "details": "Total number of tokens in existence"
      },
      "transfer(address,uint256)": {
        "details": "Transfer token for a specified address",
        "params": {
          "to": "The address to transfer to.",
          "value": "The amount to be transferred."
        }
      },
      "transferFrom(address,address,uint256)": {
        "details": "Transfer tokens from one address to another. Note that while this function emits an Approval event, this is not required as per the specification, and other compliant implementations may not emit the event.",
        "params": {
          "from": "address The address which you want to send tokens from",
          "to": "address The address which you want to transfer to",
          "value": "uint256 the amount of tokens to be transferred"
        }
      },
      "transferOwnership(address)": {
        "details": "Allows the current owner to transfer control of the contract to a newOwner.",
        "params": {
          "newOwner": "The address to transfer ownership to."
        }
      }
    }
  },
  "userdoc": {
    "methods": {
      "renounceOwnership()": {
        "notice": "Renouncing to ownership will leave the contract without an owner. It will not be possible to call the functions with the `onlyOwner` modifier anymore."
      }
    }
  }
}