{
  "contractName": "Identity",
  "abi": [
    {
      "constant": true,
      "inputs": [],
      "name": "whiteListedUserCount",
      "outputs": [
        {
          "name": "",
          "type": "uint8"
        }
      ],
      "payable": false,
      "stateMutability": "view",
      "type": "function",
      "signature": "0x58e0bef4"
    },
    {
      "constant": false,
      "inputs": [],
      "name": "renounceOwnership",
      "outputs": [],
      "payable": false,
      "stateMutability": "nonpayable",
      "type": "function",
      "signature": "0x715018a6"
    },
    {
      "constant": true,
      "inputs": [],
      "name": "owner",
      "outputs": [
        {
          "name": "",
          "type": "address"
        }
      ],
      "payable": false,
      "stateMutability": "view",
      "type": "function",
      "signature": "0x8da5cb5b"
    },
    {
      "constant": true,
      "inputs": [],
      "name": "isOwner",
      "outputs": [
        {
          "name": "",
          "type": "bool"
        }
      ],
      "payable": false,
      "stateMutability": "view",
      "type": "function",
      "signature": "0x8f32d59b"
    },
    {
      "constant": false,
      "inputs": [
        {
          "name": "newOwner",
          "type": "address"
        }
      ],
      "name": "transferOwnership",
      "outputs": [],
      "payable": false,
      "stateMutability": "nonpayable",
      "type": "function",
      "signature": "0xf2fde38b"
    },
    {
      "inputs": [],
      "payable": false,
      "stateMutability": "nonpayable",
      "type": "constructor",
      "signature": "constructor"
    },
    {
      "anonymous": false,
      "inputs": [
        {
          "indexed": true,
          "name": "previousOwner",
          "type": "address"
        },
        {
          "indexed": true,
          "name": "newOwner",
          "type": "address"
        }
      ],
      "name": "OwnershipTransferred",
      "type": "event",
      "signature": "0x8be0079c531659141344cd1fd0a4f28419497f9722a3daafe3b4186f6b6457e0"
    },
    {
      "constant": true,
      "inputs": [
        {
          "name": "_account",
          "type": "address"
        }
      ],
      "name": "isVerified",
      "outputs": [
        {
          "name": "",
          "type": "bool"
        }
      ],
      "payable": false,
      "stateMutability": "view",
      "type": "function",
      "signature": "0xb9209e33"
    },
    {
      "constant": false,
      "inputs": [
        {
          "name": "_account",
          "type": "address"
        }
      ],
      "name": "whiteListUser",
      "outputs": [
        {
          "name": "",
          "type": "bool"
        }
      ],
      "payable": false,
      "stateMutability": "nonpayable",
      "type": "function",
      "signature": "0x1536ca40"
    },
    {
      "constant": false,
      "inputs": [
        {
          "name": "_account",
          "type": "address"
        }
      ],
      "name": "blackListUser",
      "outputs": [
        {
          "name": "",
          "type": "bool"
        }
      ],
      "payable": false,
      "stateMutability": "nonpayable",
      "type": "function",
      "signature": "0x16f3a12d"
    }
  ],
  "bytecode": "0x608060405234801561001057600080fd5b5060008054600160a060020a0319163317808255604051600160a060020a039190911691907f8be0079c531659141344cd1fd0a4f28419497f9722a3daafe3b4186f6b6457e0908290a36002805460ff19908116600190811790925533600090815260208390526040902080549091169091179055610424806100946000396000f3fe60806040526004361061008d5763ffffffff7c01000000000000000000000000000000000000000000000000000000006000350416631536ca40811461009257806316f3a12d146100d957806358e0bef41461010c578063715018a6146101375780638da5cb5b1461014e5780638f32d59b1461017f578063b9209e3314610194578063f2fde38b146101c7575b600080fd5b34801561009e57600080fd5b506100c5600480360360208110156100b557600080fd5b5035600160a060020a03166101fa565b604080519115158252519081900360200190f35b3480156100e557600080fd5b506100c5600480360360208110156100fc57600080fd5b5035600160a060020a0316610254565b34801561011857600080fd5b506101216102ab565b6040805160ff9092168252519081900360200190f35b34801561014357600080fd5b5061014c6102b4565b005b34801561015a57600080fd5b5061016361031e565b60408051600160a060020a039092168252519081900360200190f35b34801561018b57600080fd5b506100c561032d565b3480156101a057600080fd5b506100c5600480360360208110156101b757600080fd5b5035600160a060020a031661033e565b3480156101d357600080fd5b5061014c600480360360208110156101ea57600080fd5b5035600160a060020a031661035c565b6000806102063361033e565b905080151561021457600080fd5b5050600160a060020a03166000908152600160208190526040909120805460ff1990811683179091556002805460ff808216850116921691909117905590565b600061025e61032d565b151561026957600080fd5b50600160a060020a03166000908152600160208190526040909120805460ff199081169091556002805491821660ff9283166000190190921691909117905590565b60025460ff1681565b6102bc61032d565b15156102c757600080fd5b60008054604051600160a060020a03909116907f8be0079c531659141344cd1fd0a4f28419497f9722a3daafe3b4186f6b6457e0908390a36000805473ffffffffffffffffffffffffffffffffffffffff19169055565b600054600160a060020a031690565b600054600160a060020a0316331490565b600160a060020a031660009081526001602052604090205460ff1690565b61036461032d565b151561036f57600080fd5b6103788161037b565b50565b600160a060020a038116151561039057600080fd5b60008054604051600160a060020a03808516939216917f8be0079c531659141344cd1fd0a4f28419497f9722a3daafe3b4186f6b6457e091a36000805473ffffffffffffffffffffffffffffffffffffffff1916600160a060020a039290921691909117905556fea165627a7a72305820aff5b38cb35eaf1757f296b865764dc30765e15e4c5d10078eff153e3bdf946a0029",
  "source": "pragma solidity ^0.5.0;\r\n\r\nimport 'openzeppelin-solidity/contracts/ownership/Ownable.sol';\r\n\r\ncontract Identity is Ownable {\r\n    \r\n    mapping(address => bool) private white_listed;\r\n\r\n    uint8 public whiteListedUserCount;\r\n\r\n\r\n    constructor() public {\r\n        whiteListedUserCount = 1;\r\n        white_listed[msg.sender] = true;\r\n    }\r\n\r\n    modifier whiteListed() {\r\n        bool check = isVerified(msg.sender);\r\n        require(check);\r\n        _;\r\n    }   \r\n    \r\n    function isVerified(\r\n        address _account\r\n    ) public view returns(bool) {\r\n        return white_listed[_account];\r\n    }\r\n\r\n    /*\r\n        whitelisted users can white list others.\r\n    */\r\n    function whiteListUser(\r\n        address _account\r\n    ) public whiteListed returns(bool) {\r\n        white_listed[_account] = true;\r\n        whiteListedUserCount = whiteListedUserCount + 1;\r\n        return true;\r\n    }\r\n\r\n    function blackListUser(\r\n        address _account\r\n    ) public onlyOwner returns(bool) {\r\n        white_listed[_account] = false;\r\n        whiteListedUserCount = whiteListedUserCount - 1;\r\n        return true;\r\n    }\r\n\r\n     \r\n}\r\n",
  "sourcePath": "C:\\Users\\hadarro\\Documents\\GoodDollar\\GoodContracts\\contracts\\Identity.sol",
  "compiler": {
    "name": "solc",
    "version": "0.5.0+commit.1d4f565a.Emscripten.clang"
  },
  "schemaVersion": "3.0.1",
  "updatedAt": "2019-01-29T15:55:34.184Z",
  "devdoc": {
    "methods": {
      "isOwner()": {
        "return": "true if `msg.sender` is the owner of the contract."
      },
      "owner()": {
        "return": "the address of the owner."
      },
      "renounceOwnership()": {
        "details": "Allows the current owner to relinquish control of the contract."
      },
      "transferOwnership(address)": {
        "details": "Allows the current owner to transfer control of the contract to a newOwner.",
        "params": {
          "newOwner": "The address to transfer ownership to."
        }
      }
    }
  },
  "userdoc": {
    "methods": {
      "renounceOwnership()": {
        "notice": "Renouncing to ownership will leave the contract without an owner. It will not be possible to call the functions with the `onlyOwner` modifier anymore."
      }
    }
  }
}