{
  "contractName": "Identity",
  "abi": [
    {
      "constant": false,
      "inputs": [
        {
          "name": "_avatar",
          "type": "address"
        }
      ],
      "name": "setAvatar",
      "outputs": [],
      "payable": false,
      "stateMutability": "nonpayable",
      "type": "function"
    },
    {
      "constant": false,
      "inputs": [],
      "name": "renounceIdentityAdmin",
      "outputs": [],
      "payable": false,
      "stateMutability": "nonpayable",
      "type": "function"
    },
    {
      "constant": true,
      "inputs": [],
      "name": "isRegistered",
      "outputs": [],
      "payable": false,
      "stateMutability": "view",
      "type": "function"
    },
    {
      "constant": true,
      "inputs": [
        {
          "name": "",
          "type": "address"
        }
      ],
      "name": "dateAdded",
      "outputs": [
        {
          "name": "",
          "type": "uint256"
        }
      ],
      "payable": false,
      "stateMutability": "view",
      "type": "function"
    },
    {
      "constant": true,
      "inputs": [
        {
          "name": "",
          "type": "address"
        }
      ],
      "name": "addrToDID",
      "outputs": [
        {
          "name": "",
          "type": "string"
        }
      ],
      "payable": false,
      "stateMutability": "view",
      "type": "function"
    },
    {
      "constant": true,
      "inputs": [
        {
          "name": "",
          "type": "bytes32"
        }
      ],
      "name": "didHashToAddress",
      "outputs": [
        {
          "name": "",
          "type": "address"
        }
      ],
      "payable": false,
      "stateMutability": "view",
      "type": "function"
    },
    {
      "constant": false,
      "inputs": [],
      "name": "renounceOwnership",
      "outputs": [],
      "payable": false,
      "stateMutability": "nonpayable",
      "type": "function"
    },
    {
      "constant": false,
      "inputs": [
        {
          "name": "account",
          "type": "address"
        },
        {
          "name": "_avatar",
          "type": "address"
        }
      ],
      "name": "removeIdentityAdmin",
      "outputs": [
        {
          "name": "",
          "type": "bool"
        }
      ],
      "payable": false,
      "stateMutability": "nonpayable",
      "type": "function"
    },
    {
      "constant": true,
      "inputs": [],
      "name": "owner",
      "outputs": [
        {
          "name": "",
          "type": "address"
        }
      ],
      "payable": false,
      "stateMutability": "view",
      "type": "function"
    },
    {
      "constant": true,
      "inputs": [],
      "name": "isOwner",
      "outputs": [
        {
          "name": "",
          "type": "bool"
        }
      ],
      "payable": false,
      "stateMutability": "view",
      "type": "function"
    },
    {
      "constant": false,
      "inputs": [
        {
          "name": "account",
          "type": "address"
        },
        {
          "name": "_avatar",
          "type": "address"
        }
      ],
      "name": "addIdentityAdmin",
      "outputs": [
        {
          "name": "",
          "type": "bool"
        }
      ],
      "payable": false,
      "stateMutability": "nonpayable",
      "type": "function"
    },
    {
      "constant": true,
      "inputs": [
        {
          "name": "account",
          "type": "address"
        }
      ],
      "name": "isIdentityAdmin",
      "outputs": [
        {
          "name": "",
          "type": "bool"
        }
      ],
      "payable": false,
      "stateMutability": "view",
      "type": "function"
    },
    {
      "constant": false,
      "inputs": [
        {
          "name": "newOwner",
          "type": "address"
        }
      ],
      "name": "transferOwnership",
      "outputs": [],
      "payable": false,
      "stateMutability": "nonpayable",
      "type": "function"
    },
    {
      "inputs": [],
      "payable": false,
      "stateMutability": "nonpayable",
      "type": "constructor"
    },
    {
      "anonymous": false,
      "inputs": [
        {
          "indexed": true,
          "name": "account",
          "type": "address"
        }
      ],
      "name": "BlacklistAdded",
      "type": "event"
    },
    {
      "anonymous": false,
      "inputs": [
        {
          "indexed": true,
          "name": "account",
          "type": "address"
        }
      ],
      "name": "BlacklistRemoved",
      "type": "event"
    },
    {
      "anonymous": false,
      "inputs": [
        {
          "indexed": true,
          "name": "account",
          "type": "address"
        }
      ],
      "name": "WhitelistedAdded",
      "type": "event"
    },
    {
      "anonymous": false,
      "inputs": [
        {
          "indexed": true,
          "name": "account",
          "type": "address"
        }
      ],
      "name": "WhitelistedRemoved",
      "type": "event"
    },
    {
      "anonymous": false,
      "inputs": [
        {
          "indexed": true,
          "name": "account",
          "type": "address"
        }
      ],
      "name": "ContractAdded",
      "type": "event"
    },
    {
      "anonymous": false,
      "inputs": [
        {
          "indexed": true,
          "name": "account",
          "type": "address"
        }
      ],
      "name": "ContractRemoved",
      "type": "event"
    },
    {
      "anonymous": false,
      "inputs": [
        {
          "indexed": true,
          "name": "account",
          "type": "address"
        }
      ],
      "name": "IdentityAdminAdded",
      "type": "event"
    },
    {
      "anonymous": false,
      "inputs": [
        {
          "indexed": true,
          "name": "account",
          "type": "address"
        }
      ],
      "name": "IdentityAdminRemoved",
      "type": "event"
    },
    {
      "anonymous": false,
      "inputs": [
        {
          "indexed": true,
          "name": "previousOwner",
          "type": "address"
        },
        {
          "indexed": true,
          "name": "newOwner",
          "type": "address"
        }
      ],
      "name": "OwnershipTransferred",
      "type": "event"
    },
    {
      "constant": false,
      "inputs": [
        {
          "name": "account",
          "type": "address"
        }
      ],
      "name": "addWhitelisted",
      "outputs": [],
      "payable": false,
      "stateMutability": "nonpayable",
      "type": "function"
    },
    {
      "constant": false,
      "inputs": [
        {
          "name": "account",
          "type": "address"
        },
        {
          "name": "did",
          "type": "string"
        }
      ],
      "name": "addWhitelistedWithDID",
      "outputs": [],
      "payable": false,
      "stateMutability": "nonpayable",
      "type": "function"
    },
    {
      "constant": false,
      "inputs": [
        {
          "name": "account",
          "type": "address"
        }
      ],
      "name": "removeWhitelisted",
      "outputs": [],
      "payable": false,
      "stateMutability": "nonpayable",
      "type": "function"
    },
    {
      "constant": false,
      "inputs": [],
      "name": "renounceWhitelisted",
      "outputs": [],
      "payable": false,
      "stateMutability": "nonpayable",
      "type": "function"
    },
    {
      "constant": true,
      "inputs": [
        {
          "name": "account",
          "type": "address"
        }
      ],
      "name": "isWhitelisted",
      "outputs": [
        {
          "name": "",
          "type": "bool"
        }
      ],
      "payable": false,
      "stateMutability": "view",
      "type": "function"
    },
    {
      "constant": true,
      "inputs": [],
      "name": "getWhitelistedCount",
      "outputs": [
        {
          "name": "",
          "type": "uint256"
        }
      ],
      "payable": false,
      "stateMutability": "view",
      "type": "function"
    },
    {
      "constant": true,
      "inputs": [
        {
          "name": "account",
          "type": "address"
        }
      ],
      "name": "wasAdded",
      "outputs": [
        {
          "name": "",
          "type": "uint256"
        }
      ],
      "payable": false,
      "stateMutability": "view",
      "type": "function"
    },
    {
      "constant": false,
      "inputs": [
        {
          "name": "account",
          "type": "address"
        }
      ],
      "name": "transferAccount",
      "outputs": [],
      "payable": false,
      "stateMutability": "nonpayable",
      "type": "function"
    },
    {
      "constant": false,
      "inputs": [
        {
          "name": "account",
          "type": "address"
        }
      ],
      "name": "addBlacklisted",
      "outputs": [],
      "payable": false,
      "stateMutability": "nonpayable",
      "type": "function"
    },
    {
      "constant": false,
      "inputs": [
        {
          "name": "account",
          "type": "address"
        }
      ],
      "name": "removeBlacklisted",
      "outputs": [],
      "payable": false,
      "stateMutability": "nonpayable",
      "type": "function"
    },
    {
      "constant": false,
      "inputs": [
        {
          "name": "account",
          "type": "address"
        }
      ],
      "name": "addContract",
      "outputs": [],
      "payable": false,
      "stateMutability": "nonpayable",
      "type": "function"
    },
    {
      "constant": false,
      "inputs": [
        {
          "name": "account",
          "type": "address"
        }
      ],
      "name": "removeContract",
      "outputs": [],
      "payable": false,
      "stateMutability": "nonpayable",
      "type": "function"
    },
    {
      "constant": true,
      "inputs": [
        {
          "name": "account",
          "type": "address"
        }
      ],
      "name": "isDAOContract",
      "outputs": [
        {
          "name": "",
          "type": "bool"
        }
      ],
      "payable": false,
      "stateMutability": "view",
      "type": "function"
    },
    {
      "constant": true,
      "inputs": [
        {
          "name": "account",
          "type": "address"
        }
      ],
      "name": "isBlacklisted",
      "outputs": [
        {
          "name": "",
          "type": "bool"
        }
      ],
      "payable": false,
      "stateMutability": "view",
      "type": "function"
    }
  ],
  "bytecode": "0x608060405260038054600160a060020a03191690553480156200002157600080fd5b5060008054600160a060020a0319163317808255604051600160a060020a03919091169082907f8be0079c531659141344cd1fd0a4f28419497f9722a3daafe3b4186f6b6457e0908290a3620000803364010000000062000168810204565b60028054600160a060020a031916600160a060020a03838116919091179182905516156200016157600260009054906101000a9004600160a060020a0316600160a060020a0316638da5cb5b6040518163ffffffff167c010000000000000000000000000000000000000000000000000000000002815260040160206040518083038186803b1580156200011357600080fd5b505afa15801562000128573d6000803e3d6000fd5b505050506040513d60208110156200013f57600080fd5b505160038054600160a060020a031916600160a060020a039092169190911790555b506200024d565b6200018360018264010000000062001ad5620001ba82021704565b604051600160a060020a038216907f3505858ac30c166c603cb64de4a970615e36a4ed8fea37ba93bc5f11a38dd30990600090a250565b600160a060020a0381161515620001d057600080fd5b620001e5828264010000000062000215810204565b15620001f057600080fd5b600160a060020a0316600090815260209190915260409020805460ff19166001179055565b6000600160a060020a03821615156200022d57600080fd5b50600160a060020a03166000908152602091909152604090205460ff1690565b611fa3806200025d6000396000f3fe608060405234801561001057600080fd5b50600436106101ad5760003560e060020a90048063715018a6116100fd578063c6a276c21161009b578063e4852b9b11610075578063e4852b9b1461059a578063e5ecaf59146105c0578063f2fde38b146105e6578063fe575a871461060c576101ad565b8063c6a276c214610546578063c73cc4ae1461056c578063d6cd947314610592576101ad565b80638f32d59b116100d75780638f32d59b146104c4578063908f3a2f146104cc578063993d2226146104fa578063c375c2ef14610520576101ad565b8063715018a6146104865780638bd60aa81461048e5780638da5cb5b146104bc576101ad565b8063291d95491161016a57806354f9f7a31161014457806354f9f7a3146103845780635f539d691461041f57806367c7593714610445578063681a06d71461047e576101ad565b8063291d9549146102ec5780632bc298ac146103125780633af32abf1461034a576101ad565b8063086cfca8146101b25780630f10a8b8146101da57806310154bad146101e2578063188efc16146102085780631b0270991461022e57806322366844146102e4575b600080fd5b6101d8600480360360208110156101c857600080fd5b5035600160a060020a0316610632565b005b6101d86108ae565b6101d8600480360360208110156101f857600080fd5b5035600160a060020a03166108b9565b6101d86004803603602081101561021e57600080fd5b5035600160a060020a03166109db565b6101d86004803603604081101561024457600080fd5b600160a060020a03823516919081019060408101602082013564010000000081111561026f57600080fd5b82018360208201111561028157600080fd5b803590602001918460018302840111640100000000831117156102a357600080fd5b91908080601f016020809104026020016040519081016040528093929190818152602001838380828437600092019190915250929550610b39945050505050565b6101d8610cc6565b6101d86004803603602081101561030257600080fd5b5035600160a060020a0316610df1565b6103386004803603602081101561032857600080fd5b5035600160a060020a0316610f10565b60408051918252519081900360200190f35b6103706004803603602081101561036057600080fd5b5035600160a060020a0316610f22565b604080519115158252519081900360200190f35b6103aa6004803603602081101561039a57600080fd5b5035600160a060020a0316610f3b565b6040805160208082528351818301528351919283929083019185019080838360005b838110156103e45781810151838201526020016103cc565b50505050905090810190601f1680156104115780820380516001836020036101000a031916815260200191505b509250505060405180910390f35b6101d86004803603602081101561043557600080fd5b5035600160a060020a0316610fd6565b6104626004803603602081101561045b57600080fd5b503561119c565b60408051600160a060020a039092168252519081900360200190f35b6103386111b7565b6101d86111be565b610370600480360360408110156104a457600080fd5b50600160a060020a0381358116916020013516611228565b6104626113f1565b610370611400565b610370600480360360408110156104e257600080fd5b50600160a060020a0381358116916020013516611411565b6103386004803603602081101561051057600080fd5b5035600160a060020a03166115d0565b6101d86004803603602081101561053657600080fd5b5035600160a060020a03166115eb565b6101d86004803603602081101561055c57600080fd5b5035600160a060020a0316611712565b6103706004803603602081101561058257600080fd5b5035600160a060020a0316611870565b6101d8611883565b6101d8600480360360208110156105b057600080fd5b5035600160a060020a031661188c565b610370600480360360208110156105d657600080fd5b5035600160a060020a03166119ce565b6101d8600480360360208110156105fc57600080fd5b5035600160a060020a03166119e1565b6103706004803603602081101561062257600080fd5b5035600160a060020a03166119fd565b8033600160a060020a03821614801561072c575030600160a060020a0316638da5cb5b6040518163ffffffff1660e060020a02815260040160206040518083038186803b15801561068257600080fd5b505afa158015610696573d6000803e3d6000fd5b505050506040513d60208110156106ac57600080fd5b50516040805160e060020a638da5cb5b0281529051600160a060020a0392831692841691638da5cb5b916004808301926020929190829003018186803b1580156106f557600080fd5b505afa158015610709573d6000803e3d6000fd5b505050506040513d602081101561071f57600080fd5b5051600160a060020a0316145b806107a6575030600160a060020a0316638da5cb5b6040518163ffffffff1660e060020a02815260040160206040518083038186803b15801561076e57600080fd5b505afa158015610782573d6000803e3d6000fd5b505050506040513d602081101561079857600080fd5b5051600160a060020a031633145b15156107e65760405160e560020a62461bcd028152600401808060200182810382526029815260200180611f2f6029913960400191505060405180910390fd5b6002805473ffffffffffffffffffffffffffffffffffffffff1916600160a060020a0384811691909117918290556040805160e060020a638da5cb5b02815290519290911691638da5cb5b91600480820192602092909190829003018186803b15801561085257600080fd5b505afa158015610866573d6000803e3d6000fd5b505050506040513d602081101561087c57600080fd5b50516003805473ffffffffffffffffffffffffffffffffffffffff1916600160a060020a039092169190911790555050565b6108b733611a10565b565b6003546002546040805160e060020a639be2faed028152306004820152600160a060020a03928316602482015290519190921691639be2faed916044808301926020929190829003018186803b15801561091257600080fd5b505afa158015610926573d6000803e3d6000fd5b505050506040513d602081101561093c57600080fd5b50511515610982576040805160e560020a62461bcd0281526020600482015260186024820152600080516020611f0f833981519152604482015290519081900360640190fd5b61098b336119ce565b15156109cf576040805160e560020a62461bcd0281526020600482015260116024820152600080516020611f58833981519152604482015290519081900360640190fd5b6109d881611a58565b50565b6003546002546040805160e060020a639be2faed028152306004820152600160a060020a03928316602482015290519190921691639be2faed916044808301926020929190829003018186803b158015610a3457600080fd5b505afa158015610a48573d6000803e3d6000fd5b505050506040513d6020811015610a5e57600080fd5b50511515610aa4576040805160e560020a62461bcd0281526020600482015260186024820152600080516020611f0f833981519152604482015290519081900360640190fd5b610aad336119ce565b1515610af1576040805160e560020a62461bcd0281526020600482015260116024820152600080516020611f58833981519152604482015290519081900360640190fd5b610b0260048263ffffffff611ad516565b604051600160a060020a038216907f44d5fe68b00f68950fb9c1ff0a61ef7f747b1a36359a7e3a7f3324db4b87896790600090a250565b6003546002546040805160e060020a639be2faed028152306004820152600160a060020a03928316602482015290519190921691639be2faed916044808301926020929190829003018186803b158015610b9257600080fd5b505afa158015610ba6573d6000803e3d6000fd5b505050506040513d6020811015610bbc57600080fd5b50511515610c02576040805160e560020a62461bcd0281526020600482015260186024820152600080516020611f0f833981519152604482015290519081900360640190fd5b610c0b336119ce565b1515610c4f576040805160e560020a62461bcd0281526020600482015260116024820152600080516020611f58833981519152604482015290519081900360640190fd5b610c5882611a58565b80516020808301918220600160a060020a03851660009081526009909252604090912083519192610c8892611e36565b506000908152600a60205260409020805473ffffffffffffffffffffffffffffffffffffffff1916600160a060020a03939093169290921790915550565b600254600160a060020a03161515610d28576040805160e560020a62461bcd02815260206004820152601160248201527f417661746172206973206e6f7420736574000000000000000000000000000000604482015290519081900360640190fd5b6003546002546040805160e060020a639be2faed028152306004820152600160a060020a03928316602482015290519190921691639be2faed916044808301926020929190829003018186803b158015610d8157600080fd5b505afa158015610d95573d6000803e3d6000fd5b505050506040513d6020811015610dab57600080fd5b505115156108b7576040805160e560020a62461bcd0281526020600482015260186024820152600080516020611f0f833981519152604482015290519081900360640190fd5b6003546002546040805160e060020a639be2faed028152306004820152600160a060020a03928316602482015290519190921691639be2faed916044808301926020929190829003018186803b158015610e4a57600080fd5b505afa158015610e5e573d6000803e3d6000fd5b505050506040513d6020811015610e7457600080fd5b50511515610eba576040805160e560020a62461bcd0281526020600482015260186024820152600080516020611f0f833981519152604482015290519081900360640190fd5b610ec3336119ce565b1515610f07576040805160e560020a62461bcd0281526020600482015260116024820152600080516020611f58833981519152604482015290519081900360640190fd5b6109d881611b23565b60086020526000908152604090205481565b6000610f3560058363ffffffff611c8c16565b92915050565b60096020908152600091825260409182902080548351601f600260001961010060018616150201909316929092049182018490048402810184019094528084529091830182828015610fce5780601f10610fa357610100808354040283529160200191610fce565b820191906000526020600020905b815481529060010190602001808311610fb157829003601f168201915b505050505081565b6003546002546040805160e060020a639be2faed028152306004820152600160a060020a03928316602482015290519190921691639be2faed916044808301926020929190829003018186803b15801561102f57600080fd5b505afa158015611043573d6000803e3d6000fd5b505050506040513d602081101561105957600080fd5b5051151561109f576040805160e560020a62461bcd0281526020600482015260186024820152600080516020611f0f833981519152604482015290519081900360640190fd5b6110a8336119ce565b15156110ec576040805160e560020a62461bcd0281526020600482015260116024820152600080516020611f58833981519152604482015290519081900360640190fd5b6110f581611cc3565b151561114b576040805160e560020a62461bcd02815260206004820152601f60248201527f476976656e2061646472657373206973206e6f74206120636f6e747261637400604482015290519081900360640190fd5b61115c60068263ffffffff611ad516565b61116581611a58565b604051600160a060020a038216907f89c66952b48f3e96bf1d8ba1b63189520fd988a6979b8b740bd5c5d8dc53e20590600090a250565b600a60205260009081526040902054600160a060020a031681565b6007545b90565b6111c6611400565b15156111d157600080fd5b60008054604051600160a060020a03909116907f8be0079c531659141344cd1fd0a4f28419497f9722a3daafe3b4186f6b6457e0908390a36000805473ffffffffffffffffffffffffffffffffffffffff19169055565b60008133600160a060020a038216148015611324575030600160a060020a0316638da5cb5b6040518163ffffffff1660e060020a02815260040160206040518083038186803b15801561127a57600080fd5b505afa15801561128e573d6000803e3d6000fd5b505050506040513d60208110156112a457600080fd5b50516040805160e060020a638da5cb5b0281529051600160a060020a0392831692841691638da5cb5b916004808301926020929190829003018186803b1580156112ed57600080fd5b505afa158015611301573d6000803e3d6000fd5b505050506040513d602081101561131757600080fd5b5051600160a060020a0316145b8061139e575030600160a060020a0316638da5cb5b6040518163ffffffff1660e060020a02815260040160206040518083038186803b15801561136657600080fd5b505afa15801561137a573d6000803e3d6000fd5b505050506040513d602081101561139057600080fd5b5051600160a060020a031633145b15156113de5760405160e560020a62461bcd028152600401808060200182810382526029815260200180611f2f6029913960400191505060405180910390fd5b6113e784611a10565b5060019392505050565b600054600160a060020a031690565b600054600160a060020a0316331490565b60008133600160a060020a03821614801561150d575030600160a060020a0316638da5cb5b6040518163ffffffff1660e060020a02815260040160206040518083038186803b15801561146357600080fd5b505afa158015611477573d6000803e3d6000fd5b505050506040513d602081101561148d57600080fd5b50516040805160e060020a638da5cb5b0281529051600160a060020a0392831692841691638da5cb5b916004808301926020929190829003018186803b1580156114d657600080fd5b505afa1580156114ea573d6000803e3d6000fd5b505050506040513d602081101561150057600080fd5b5051600160a060020a0316145b80611587575030600160a060020a0316638da5cb5b6040518163ffffffff1660e060020a02815260040160206040518083038186803b15801561154f57600080fd5b505afa158015611563573d6000803e3d6000fd5b505050506040513d602081101561157957600080fd5b5051600160a060020a031633145b15156115c75760405160e560020a62461bcd028152600401808060200182810382526029815260200180611f2f6029913960400191505060405180910390fd5b6113e784611ccb565b600160a060020a031660009081526008602052604090205490565b6003546002546040805160e060020a639be2faed028152306004820152600160a060020a03928316602482015290519190921691639be2faed916044808301926020929190829003018186803b15801561164457600080fd5b505afa158015611658573d6000803e3d6000fd5b505050506040513d602081101561166e57600080fd5b505115156116b4576040805160e560020a62461bcd0281526020600482015260186024820152600080516020611f0f833981519152604482015290519081900360640190fd5b6116bd336119ce565b1515611701576040805160e560020a62461bcd0281526020600482015260116024820152600080516020611f58833981519152604482015290519081900360640190fd5b610f0760068263ffffffff611d1316565b6003546002546040805160e060020a639be2faed028152306004820152600160a060020a03928316602482015290519190921691639be2faed916044808301926020929190829003018186803b15801561176b57600080fd5b505afa15801561177f573d6000803e3d6000fd5b505050506040513d602081101561179557600080fd5b505115156117db576040805160e560020a62461bcd0281526020600482015260186024820152600080516020611f0f833981519152604482015290519081900360640190fd5b6117e4336119ce565b1515611828576040805160e560020a62461bcd0281526020600482015260116024820152600080516020611f58833981519152604482015290519081900360640190fd5b61183960048263ffffffff611d1316565b604051600160a060020a038216907f1747ca720b1a174a464b6513ace29b1d3190b5f632b9f34147017c81425bfde890600090a250565b6000610f3560068363ffffffff611c8c16565b6108b733611b23565b611895816119fd565b156118ea576040805160e560020a62461bcd02815260206004820152601e60248201527f43616e6e6f74207472616e7366657220746f20626c61636b6c69737465640000604482015290519081900360640190fd5b3360009081526009602090815260409182902080548351601f60026000196101006001861615020190931692909204918201849004840281018401909452808452606093928301828280156119805780601f1061195557610100808354040283529160200191611980565b820191906000526020600020905b81548152906001019060200180831161196357829003601f168201915b5050505050905060008180519060200120905061199c33611b23565b6119a583611a58565b600160a060020a03831660009081526009602090815260409091208351610c8892850190611e36565b6000610f3560018363ffffffff611c8c16565b6119e9611400565b15156119f457600080fd5b6109d881611d5f565b6000610f3560048363ffffffff611c8c16565b611a2160018263ffffffff611d1316565b604051600160a060020a038216907f869f6a5b4767d57c58d57f1ddf82e1516487f35944a19bf30a4a21bd35f6ad0590600090a250565b611a6960058263ffffffff611ad516565b611a7281611cc3565b1515611a9e57611a826001611ddc565b600160a060020a03811660009081526008602052604090204290555b604051600160a060020a038216907fee1504a83b6d4a361f4c1dc78ab59bfa30d6a3b6612c403e86bb01ef2984295f90600090a250565b600160a060020a0381161515611aea57600080fd5b611af48282611c8c565b15611afe57600080fd5b600160a060020a0316600090815260209190915260409020805460ff19166001179055565b611b3460058263ffffffff611d1316565b611b3d81611cc3565b1515611b4d57611b4d6001611df5565b600160a060020a03811660009081526009602090815260409182902080548351601f6002600019610100600186161502019093169290920491820184900484028101840190945280845260609392830182828015611bec5780601f10611bc157610100808354040283529160200191611bec565b820191906000526020600020905b815481529060010190602001808311611bcf57829003601f168201915b50508351602080860191909120600160a060020a0388166000908152600883526040808220829055600990935291822095965094611c2e945092509050611eb4565b6000818152600a6020526040808220805473ffffffffffffffffffffffffffffffffffffffff1916905551600160a060020a038516917f270d9b30cf5b0793bbfd54c9d5b94aeb49462b8148399000265144a8722da6b691a2505050565b6000600160a060020a0382161515611ca357600080fd5b50600160a060020a03166000908152602091909152604090205460ff1690565b6000903b1190565b611cdc60018263ffffffff611ad516565b604051600160a060020a038216907f3505858ac30c166c603cb64de4a970615e36a4ed8fea37ba93bc5f11a38dd30990600090a250565b600160a060020a0381161515611d2857600080fd5b611d328282611c8c565b1515611d3d57600080fd5b600160a060020a0316600090815260209190915260409020805460ff19169055565b600160a060020a0381161515611d7457600080fd5b60008054604051600160a060020a03808516939216917f8be0079c531659141344cd1fd0a4f28419497f9722a3daafe3b4186f6b6457e091a36000805473ffffffffffffffffffffffffffffffffffffffff1916600160a060020a0392909216919091179055565b600754611def908263ffffffff611e0816565b60075550565b600754611def908263ffffffff611e2116565b600082820183811015611e1a57600080fd5b9392505050565b600082821115611e3057600080fd5b50900390565b828054600181600116156101000203166002900490600052602060002090601f016020900481019282601f10611e7757805160ff1916838001178555611ea4565b82800160010185558215611ea4579182015b82811115611ea4578251825591602001919060010190611e89565b50611eb0929150611ef4565b5090565b50805460018160011615610100020316600290046000825580601f10611eda57506109d8565b601f0160209004906000526020600020908101906109d891905b6111bb91905b80821115611eb05760008155600101611efa56fe536368656d65206973206e6f74207265676973746572656400000000000000004f6e6c792063616c6c61626c6520627920617661746172206f66206f776e6572206f72206f776e65726e6f74204964656e7469747941646d696e000000000000000000000000000000a165627a7a7230582033ae6dc462d2c9628b62ce41078e0b5cfd7bf74b74514b981de89f2cd80cfecb0029",
  "source": "pragma solidity 0.5.4;\n\nimport \"openzeppelin-solidity/contracts/access/Roles.sol\";\nimport \"openzeppelin-solidity/contracts/math/SafeMath.sol\";\n\nimport \"@daostack/arc/contracts/controller/Avatar.sol\";\n\nimport \"../dao/schemes/SchemeGuard.sol\";\nimport \"./IdentityAdminRole.sol\";\n\n/* @title Identity contract responsible for whitelisting\n * and keeping track of amount of whitelisted users\n */\ncontract Identity is IdentityAdminRole, SchemeGuard {\n    using Roles for Roles.Role;\n    using SafeMath for uint256;\n\n    Roles.Role private blacklist;\n    Roles.Role private whitelist;\n    Roles.Role private contracts;\n\n    uint256 private whitelistedCount;\n    mapping(address => uint) public dateAdded;\n\n    mapping (address => string) public addrToDID;\n    mapping (bytes32 => address) public didHashToAddress;\n\n    event BlacklistAdded(address indexed account);\n    event BlacklistRemoved(address indexed account);\n \n    event WhitelistedAdded(address indexed account);\n    event WhitelistedRemoved(address indexed account);\n\n    event ContractAdded(address indexed account);\n    event ContractRemoved(address indexed account);\n\n    constructor() public SchemeGuard(Avatar(0)) {}\n\n    /* @dev Adds an address as whitelisted. Eligble for claiming UBI.\n     * Can only be called by Identity Administrators.\n     * @param account address to add as whitelisted\n     */\n    function addWhitelisted(address account)\n        public\n        onlyRegistered\n        onlyIdentityAdmin\n    {\n        _addWhitelisted(account);\n    }\n\n    function addWhitelistedWithDID(address account, string memory did) \n        public\n        onlyRegistered\n        onlyIdentityAdmin \n    {\n        _addWhitelisted(account);\n\n        bytes32 pHash = keccak256(bytes(did));\n        addrToDID[account] = did;\n        didHashToAddress[pHash] = account;\n    }\n\n    /* @dev Removes an address as whitelisted.\n     * Can only be called by Identity Administrators.\n     * @param account address to remove as whitelisted\n     */\n    function removeWhitelisted(address account)\n        public\n        onlyRegistered\n        onlyIdentityAdmin\n    {\n        _removeWhitelisted(account);\n    }\n\n    function renounceWhitelisted() public {\n        _removeWhitelisted(msg.sender);\n    }\n\n    /* @dev Reverts if given address has not been added to whitelist\n     * @param account the address to check\n     * @return a bool indicating weather the address is present in whitelist\n     */\n    function isWhitelisted(address account)\n        public\n        view\n        returns (bool)\n    {\n        return whitelist.has(account);\n    }\n\n    /* @dev Gets the amount of whitelist\n     * @return a uint representing the current amount of whitelist\n     */\n    function getWhitelistedCount()\n        public\n        view\n        returns (uint)\n    {\n        return whitelistedCount;\n    }\n\n    function wasAdded(address account) public view returns (uint) {\n        return dateAdded[account];\n    }\n\n    function transferAccount(address account) public {\n        require(!isBlacklisted(account), \"Cannot transfer to blacklisted\");\n\n        string memory did = addrToDID[msg.sender];\n        bytes32 pHash = keccak256(bytes(did));\n\n        _removeWhitelisted(msg.sender);\n        _addWhitelisted(account);\n\n        addrToDID[account] = did;\n        didHashToAddress[pHash] = account;\n    }\n\n    /* @dev Adds an address to blacklist.\n     * Can only be called by Identity Administrators.\n     * @param account address to add as blacklisted\n     */\n    function addBlacklisted(address account)\n        public\n        onlyRegistered\n        onlyIdentityAdmin\n    {\n        blacklist.add(account);\n        emit BlacklistAdded(account);\n    }\n\n    /* @dev Removes an address from blacklist\n     * Can only be called by Identity Administrators.\n     * @param account address to remove as blacklisted\n     */\n    function removeBlacklisted(address account)\n        public\n        onlyRegistered\n        onlyIdentityAdmin\n    {\n        blacklist.remove(account);\n        emit BlacklistRemoved(account);\n    }\n\n    function addContract(address account)\n        public\n        onlyRegistered\n        onlyIdentityAdmin\n    {\n        require(isContract(account), \"Given address is not a contract\");\n        contracts.add(account);\n        _addWhitelisted(account);\n\n        emit ContractAdded(account);\n    }\n\n    function removeContract(address account)\n        public\n        onlyRegistered\n        onlyIdentityAdmin\n    {\n        contracts.remove(account);\n        _removeWhitelisted(account);\n    }\n\n    function isDAOContract(address account)\n        public\n        view\n        returns (bool)\n    {\n        return contracts.has(account);\n    }\n\n    function _addWhitelisted(address account) internal {\n        whitelist.add(account);\n        \n        if(!isContract(account))\n        {\n            increaseWhitelistedCount(1);\n            dateAdded[account] = now;\n        }\n\n        emit WhitelistedAdded(account);\n    }\n\n    function _removeWhitelisted(address account) internal {\n        whitelist.remove(account);\n\n        if (!isContract(account)) {\n            decreaseWhitelistedCount(1);\n        }\n\n        string memory did = addrToDID[account];\n        bytes32 pHash = keccak256(bytes(did));\n\n        delete dateAdded[account];\n        delete addrToDID[account];\n        delete didHashToAddress[pHash];\n\n        emit WhitelistedRemoved(account);\n    }\n\n    /* @dev Reverts if given address has been added to the blacklist\n     * @param account the address to check\n     * @return a bool indicating weather the address is present in the blacklist\n     */\n    function isBlacklisted(address account)\n        public\n        view\n        returns (bool)\n    {\n        return blacklist.has(account);\n    }\n\n    /* @dev Checks to see if given address is a contract\n     */\n    function isContract(address _addr)\n        view\n        internal\n        returns (bool)\n    {\n        uint length;\n        assembly { length := extcodesize(_addr) }\n        return length > 0;\n    }\n\n    /* @dev Internal function that increases count of whitelisted users by\n     * given amount\n     * @param value an uint with which the whitelisted count will increase by\n     */\n    function increaseWhitelistedCount(uint value)\n        internal\n    {\n        whitelistedCount = whitelistedCount.add(value);\n    }\n\n    /* @dev Internal function that decreases count of whitelisted users by\n     * given amount\n     * @param value an uint with which the whitelisted count will increase by\n     */\n    function decreaseWhitelistedCount(uint value)\n        internal\n    {\n        whitelistedCount = whitelistedCount.sub(value);\n    }\n}",
  "sourcePath": "/Users/hadar/workspace/GoodDollar/GoodBootstrap/packages/contracts/contracts/identity/Identity.sol",
  "compiler": {
    "name": "solc",
    "version": "0.5.4+commit.9549d8ff.Emscripten.clang"
  },
  "schemaVersion": "3.0.16",
  "updatedAt": "2019-11-05T12:50:11.122Z",
  "devdoc": {
    "methods": {
      "addIdentityAdmin(address,address)": {
        "details": "Adds a identity admin account. Is only callable by owner.\r",
        "params": {
          "account": "Address to be added\r"
        }
      },
      "isIdentityAdmin(address)": {
        "details": "Checks if account is identity admin\r",
        "params": {
          "account": "Account to check\r"
        },
        "return": "Boolean indicating if account is identity admin\r"
      },
      "isOwner()": {
        "return": "true if `msg.sender` is the owner of the contract."
      },
      "owner()": {
        "return": "the address of the owner."
      },
      "removeIdentityAdmin(address,address)": {
        "details": "Removes a identity admin account. Is only callable by owner.\r",
        "params": {
          "account": "Address to be removed\r"
        }
      },
      "renounceIdentityAdmin()": {
        "details": "Allows a privileged holder to renounce their role "
      },
      "renounceOwnership()": {
        "details": "Allows the current owner to relinquish control of the contract."
      },
      "transferOwnership(address)": {
        "details": "Allows the current owner to transfer control of the contract to a newOwner.",
        "params": {
          "newOwner": "The address to transfer ownership to."
        }
      }
    }
  },
  "userdoc": {
    "methods": {
      "renounceOwnership()": {
        "notice": "Renouncing to ownership will leave the contract without an owner. It will not be possible to call the functions with the `onlyOwner` modifier anymore."
      }
    }
  }
}