{
  "contractName": "IdentityGuardMock",
  "abi": [
    {
      "inputs": [
        {
          "internalType": "contract Identity",
          "name": "_identity",
          "type": "address"
        }
      ],
      "payable": false,
      "stateMutability": "nonpayable",
      "type": "constructor"
    },
    {
      "anonymous": false,
      "inputs": [
        {
          "indexed": true,
          "internalType": "address",
          "name": "previousOwner",
          "type": "address"
        },
        {
          "indexed": true,
          "internalType": "address",
          "name": "newOwner",
          "type": "address"
        }
      ],
      "name": "OwnershipTransferred",
      "type": "event"
    },
    {
      "constant": true,
      "inputs": [],
      "name": "identity",
      "outputs": [
        {
          "internalType": "contract Identity",
          "name": "",
          "type": "address"
        }
      ],
      "payable": false,
      "stateMutability": "view",
      "type": "function"
    },
    {
      "constant": true,
      "inputs": [],
      "name": "isOwner",
      "outputs": [
        {
          "internalType": "bool",
          "name": "",
          "type": "bool"
        }
      ],
      "payable": false,
      "stateMutability": "view",
      "type": "function"
    },
    {
      "constant": true,
      "inputs": [],
      "name": "owner",
      "outputs": [
        {
          "internalType": "address",
          "name": "",
          "type": "address"
        }
      ],
      "payable": false,
      "stateMutability": "view",
      "type": "function"
    },
    {
      "constant": false,
      "inputs": [],
      "name": "renounceOwnership",
      "outputs": [],
      "payable": false,
      "stateMutability": "nonpayable",
      "type": "function"
    },
    {
      "constant": false,
      "inputs": [
        {
          "internalType": "contract Identity",
          "name": "_identity",
          "type": "address"
        }
      ],
      "name": "setIdentity",
      "outputs": [],
      "payable": false,
      "stateMutability": "nonpayable",
      "type": "function"
    },
    {
      "constant": false,
      "inputs": [
        {
          "internalType": "address",
          "name": "newOwner",
          "type": "address"
        }
      ],
      "name": "transferOwnership",
      "outputs": [],
      "payable": false,
      "stateMutability": "nonpayable",
      "type": "function"
    },
    {
      "constant": false,
      "inputs": [
        {
          "internalType": "address",
          "name": "to",
          "type": "address"
        }
      ],
      "name": "blacklistMock",
      "outputs": [
        {
          "internalType": "bool",
          "name": "",
          "type": "bool"
        }
      ],
      "payable": false,
      "stateMutability": "nonpayable",
      "type": "function"
    },
    {
      "constant": false,
      "inputs": [
        {
          "internalType": "address",
          "name": "to",
          "type": "address"
        }
      ],
      "name": "checkWhitelisted",
      "outputs": [
        {
          "internalType": "bool",
          "name": "",
          "type": "bool"
        }
      ],
      "payable": false,
      "stateMutability": "nonpayable",
      "type": "function"
    }
  ],
  "bytecode": "0x608060405234801561001057600080fd5b5060405161070e38038061070e8339818101604052602081101561003357600080fd5b5051600080546001600160a01b031916331780825560405183926001600160a01b039290921691907f8be0079c531659141344cd1fd0a4f28419497f9722a3daafe3b4186f6b6457e0908290a36001600160a01b0381166100db576040805162461bcd60e51b815260206004820152601960248201527f537570706c696564206964656e74697479206973206e756c6c00000000000000604482015290519081900360640190fd5b600180546001600160a01b0319166001600160a01b0392909216919091179055506106038061010b6000396000f3fe608060405234801561001057600080fd5b50600436106100885760003560e01c80638da5cb5b1161005b5780638da5cb5b1461011b5780638f32d59b14610123578063b62305321461012b578063f2fde38b1461015157610088565b806320d8dad01461008d5780632c159a1a146100c75780635d5bf178146100eb578063715018a614610113575b600080fd5b6100b3600480360360208110156100a357600080fd5b50356001600160a01b0316610177565b604080519115158252519081900360200190f35b6100cf610241565b604080516001600160a01b039092168252519081900360200190f35b6101116004803603602081101561010157600080fd5b50356001600160a01b0316610250565b005b610111610339565b6100cf610394565b6100b36103a3565b6100b36004803603602081101561014157600080fd5b50356001600160a01b03166103b4565b6101116004803603602081101561016757600080fd5b50356001600160a01b0316610543565b60015460408051633af32abf60e01b81526001600160a01b038085166004830152915160009385931691633af32abf916024808301926020929190829003018186803b1580156101c657600080fd5b505afa1580156101da573d6000803e3d6000fd5b505050506040513d60208110156101f057600080fd5b5051610238576040805162461bcd60e51b81526020600482015260126024820152711a5cc81b9bdd081dda1a5d195b1a5cdd195960721b604482015290519081900360640190fd5b50600192915050565b6001546001600160a01b031681565b6102586103a3565b61026157600080fd5b806001600160a01b031663223668446040518163ffffffff1660e01b815260040160206040518083038186803b15801561029a57600080fd5b505afa1580156102ae573d6000803e3d6000fd5b505050506040513d60208110156102c457600080fd5b5051610317576040805162461bcd60e51b815260206004820152601a60248201527f4964656e74697479206973206e6f742072656769737465726564000000000000604482015290519081900360640190fd5b600180546001600160a01b0319166001600160a01b0392909216919091179055565b6103416103a3565b61034a57600080fd5b600080546040516001600160a01b03909116907f8be0079c531659141344cd1fd0a4f28419497f9722a3daafe3b4186f6b6457e0908390a3600080546001600160a01b0319169055565b6000546001600160a01b031690565b6000546001600160a01b0316331490565b6001546040805163fe575a8760e01b815233600482015290516000926001600160a01b03169163fe575a87916024808301926020929190829003018186803b1580156103ff57600080fd5b505afa158015610413573d6000803e3d6000fd5b505050506040513d602081101561042957600080fd5b505115610475576040805162461bcd60e51b815260206004820152601560248201527410d85b1b195c881a5cc8189b1858dadb1a5cdd1959605a1b604482015290519081900360640190fd5b6001546040805163fe575a8760e01b81526001600160a01b03808616600483015291518593929092169163fe575a8791602480820192602092909190829003018186803b1580156104c557600080fd5b505afa1580156104d9573d6000803e3d6000fd5b505050506040513d60208110156104ef57600080fd5b505115610238576040805162461bcd60e51b815260206004820152601760248201527f526563656976657220697320626c61636b6c6973746564000000000000000000604482015290519081900360640190fd5b61054b6103a3565b61055457600080fd5b61055d81610560565b50565b6001600160a01b03811661057357600080fd5b600080546040516001600160a01b03808516939216917f8be0079c531659141344cd1fd0a4f28419497f9722a3daafe3b4186f6b6457e091a3600080546001600160a01b0319166001600160a01b039290921691909117905556fea265627a7a723158205b692145512e7e97cd26606732d4fb90b267997da7f1ae802176d4a3f290850064736f6c63430005100032",
  "source": "pragma solidity >0.5.4;\n\nimport \"../identity/IdentityGuard.sol\";\nimport \"../identity/Identity.sol\";\n\ncontract IdentityGuardMock is IdentityGuard {\n    constructor(Identity _identity) public IdentityGuard(_identity) {}\n\n    function blacklistMock(address to)\n        public\n        onlyNotBlacklisted\n        requireNotBlacklisted(to)\n        returns (bool)\n    {\n        return true;\n    }\n\n    function checkWhitelisted(address to) public requireWhitelisted(to) returns (bool) {\n        return true;\n    }\n}\n",
  "sourcePath": "/Users/hadar/workspace/GoodDollar/GoodBootstrap/packages/contracts/contracts/mocks/IdentityGuardMock.sol",
  "compiler": {
    "name": "solc",
    "version": "0.5.16+commit.9c3226ce.Emscripten.clang"
  },
  "schemaVersion": "3.2.3",
  "updatedAt": "2021-01-27T19:47:05.845Z",
  "devdoc": {
    "methods": {
      "isOwner()": {
        "return": "true if `msg.sender` is the owner of the contract."
      },
      "owner()": {
        "return": "the address of the owner."
      },
      "renounceOwnership()": {
        "details": "Allows the current owner to relinquish control of the contract."
      },
      "transferOwnership(address)": {
        "details": "Allows the current owner to transfer control of the contract to a newOwner.",
        "params": {
          "newOwner": "The address to transfer ownership to."
        }
      }
    }
  },
  "userdoc": {
    "methods": {
      "renounceOwnership()": {
        "notice": "Renouncing to ownership will leave the contract without an owner. It will not be possible to call the functions with the `onlyOwner` modifier anymore."
      }
    }
  }
}