{
  "contractName": "IdentityGuard",
  "abi": [
    {
      "inputs": [
        {
          "internalType": "contract Identity",
          "name": "_identity",
          "type": "address"
        }
      ],
      "payable": false,
      "stateMutability": "nonpayable",
      "type": "constructor"
    },
    {
      "anonymous": false,
      "inputs": [
        {
          "indexed": true,
          "internalType": "address",
          "name": "previousOwner",
          "type": "address"
        },
        {
          "indexed": true,
          "internalType": "address",
          "name": "newOwner",
          "type": "address"
        }
      ],
      "name": "OwnershipTransferred",
      "type": "event"
    },
    {
      "constant": true,
      "inputs": [],
      "name": "identity",
      "outputs": [
        {
          "internalType": "contract Identity",
          "name": "",
          "type": "address"
        }
      ],
      "payable": false,
      "stateMutability": "view",
      "type": "function"
    },
    {
      "constant": true,
      "inputs": [],
      "name": "isOwner",
      "outputs": [
        {
          "internalType": "bool",
          "name": "",
          "type": "bool"
        }
      ],
      "payable": false,
      "stateMutability": "view",
      "type": "function"
    },
    {
      "constant": true,
      "inputs": [],
      "name": "owner",
      "outputs": [
        {
          "internalType": "address",
          "name": "",
          "type": "address"
        }
      ],
      "payable": false,
      "stateMutability": "view",
      "type": "function"
    },
    {
      "constant": false,
      "inputs": [],
      "name": "renounceOwnership",
      "outputs": [],
      "payable": false,
      "stateMutability": "nonpayable",
      "type": "function"
    },
    {
      "constant": false,
      "inputs": [
        {
          "internalType": "address",
          "name": "newOwner",
          "type": "address"
        }
      ],
      "name": "transferOwnership",
      "outputs": [],
      "payable": false,
      "stateMutability": "nonpayable",
      "type": "function"
    },
    {
      "constant": false,
      "inputs": [
        {
          "internalType": "contract Identity",
          "name": "_identity",
          "type": "address"
        }
      ],
      "name": "setIdentity",
      "outputs": [],
      "payable": false,
      "stateMutability": "nonpayable",
      "type": "function"
    }
  ],
  "bytecode": "0x608060405234801561001057600080fd5b506040516104403803806104408339818101604052602081101561003357600080fd5b5051600080546001600160a01b03191633178082556040516001600160a01b039190911691907f8be0079c531659141344cd1fd0a4f28419497f9722a3daafe3b4186f6b6457e0908290a36001600160a01b0381166100d9576040805162461bcd60e51b815260206004820152601960248201527f537570706c696564206964656e74697479206973206e756c6c00000000000000604482015290519081900360640190fd5b600180546001600160a01b0319166001600160a01b0392909216919091179055610338806101086000396000f3fe608060405234801561001057600080fd5b50600436106100625760003560e01c80632c159a1a146100675780635d5bf1781461008b578063715018a6146100b35780638da5cb5b146100bb5780638f32d59b146100c3578063f2fde38b146100df575b600080fd5b61006f610105565b604080516001600160a01b039092168252519081900360200190f35b6100b1600480360360208110156100a157600080fd5b50356001600160a01b0316610114565b005b6100b16101fd565b61006f610258565b6100cb610267565b604080519115158252519081900360200190f35b6100b1600480360360208110156100f557600080fd5b50356001600160a01b0316610278565b6001546001600160a01b031681565b61011c610267565b61012557600080fd5b806001600160a01b031663223668446040518163ffffffff1660e01b815260040160206040518083038186803b15801561015e57600080fd5b505afa158015610172573d6000803e3d6000fd5b505050506040513d602081101561018857600080fd5b50516101db576040805162461bcd60e51b815260206004820152601a60248201527f4964656e74697479206973206e6f742072656769737465726564000000000000604482015290519081900360640190fd5b600180546001600160a01b0319166001600160a01b0392909216919091179055565b610205610267565b61020e57600080fd5b600080546040516001600160a01b03909116907f8be0079c531659141344cd1fd0a4f28419497f9722a3daafe3b4186f6b6457e0908390a3600080546001600160a01b0319169055565b6000546001600160a01b031690565b6000546001600160a01b0316331490565b610280610267565b61028957600080fd5b61029281610295565b50565b6001600160a01b0381166102a857600080fd5b600080546040516001600160a01b03808516939216917f8be0079c531659141344cd1fd0a4f28419497f9722a3daafe3b4186f6b6457e091a3600080546001600160a01b0319166001600160a01b039290921691909117905556fea265627a7a72315820eecacb7824c1feca050cd0dc093443c978c61784e1f33c8dc0e25d60f6a80d3a64736f6c63430005100032",
  "source": "pragma solidity >0.5.4;\n\nimport \"./Identity.sol\";\n\nimport \"openzeppelin-solidity/contracts/ownership/Ownable.sol\";\n\n/* @title The IdentityGuard contract\n * @dev Contract containing an identity and\n * modifiers to ensure proper access\n */\ncontract IdentityGuard is Ownable {\n    Identity public identity;\n\n    /* @dev Constructor. Checks if identity is a zero address\n     * @param _identity The identity contract.\n     */\n    constructor(Identity _identity) public {\n        require(_identity != Identity(0), \"Supplied identity is null\");\n        identity = _identity;\n    }\n\n    /* @dev Modifier that requires the sender to be not blacklisted\n     */\n    modifier onlyNotBlacklisted() {\n        require(!identity.isBlacklisted(msg.sender), \"Caller is blacklisted\");\n        _;\n    }\n\n    /* @dev Modifier that requires the given address to be not blacklisted\n     * @param _account The address to be checked\n     */\n    modifier requireNotBlacklisted(address _account) {\n        require(!identity.isBlacklisted(_account), \"Receiver is blacklisted\");\n        _;\n    }\n\n    /* @dev Modifier that requires the sender to be whitelisted\n     */\n    modifier onlyWhitelisted() {\n        require(identity.isWhitelisted(msg.sender), \"is not whitelisted\");\n        _;\n    }\n\n    /* @dev Modifier that requires the given address to be whitelisted\n     * @param _account the given address\n     */\n    modifier requireWhitelisted(address _account) {\n        require(identity.isWhitelisted(_account), \"is not whitelisted\");\n        _;\n    }\n\n    /* @dev Modifier that requires the sender to be an approved DAO contract\n     */\n    modifier onlyDAOContract() {\n        require(identity.isDAOContract(msg.sender), \"is not whitelisted contract\");\n        _;\n    }\n\n    /* @dev Modifier that requires the given address to be whitelisted\n     * @param _account the given address\n     */\n    modifier requireDAOContract(address _contract) {\n        require(identity.isDAOContract(_contract), \"is not whitelisted contract\");\n        _;\n    }\n\n    /* @dev Modifier that requires the sender to have been whitelisted\n     * before or on the given date\n     * @param date The time sender must have been added before\n     */\n    modifier onlyAddedBefore(uint256 date) {\n        require(\n            identity.lastAuthenticated(msg.sender) <= date,\n            \"Was not added within period\"\n        );\n        _;\n    }\n\n    /* @dev Modifier that requires sender to be an identity admin\n     */\n    modifier onlyIdentityAdmin() {\n        require(identity.isIdentityAdmin(msg.sender), \"not IdentityAdmin\");\n        _;\n    }\n\n    /* @dev Allows owner to set a new identity contract if\n     * the given identity contract has been registered as a scheme\n     */\n    function setIdentity(Identity _identity) public onlyOwner {\n        require(_identity.isRegistered(), \"Identity is not registered\");\n        identity = _identity;\n    }\n}\n",
  "sourcePath": "/Users/hadar/workspace/GoodDollar/GoodBootstrap/packages/contracts/contracts/identity/IdentityGuard.sol",
  "compiler": {
    "name": "solc",
    "version": "0.5.16+commit.9c3226ce.Emscripten.clang"
  },
  "schemaVersion": "3.2.3",
  "updatedAt": "2021-01-27T19:47:05.827Z",
  "devdoc": {
    "methods": {
      "isOwner()": {
        "return": "true if `msg.sender` is the owner of the contract."
      },
      "owner()": {
        "return": "the address of the owner."
      },
      "renounceOwnership()": {
        "details": "Allows the current owner to relinquish control of the contract."
      },
      "transferOwnership(address)": {
        "details": "Allows the current owner to transfer control of the contract to a newOwner.",
        "params": {
          "newOwner": "The address to transfer ownership to."
        }
      }
    }
  },
  "userdoc": {
    "methods": {
      "renounceOwnership()": {
        "notice": "Renouncing to ownership will leave the contract without an owner. It will not be possible to call the functions with the `onlyOwner` modifier anymore."
      }
    }
  }
}