{
  "contractName": "IdentityGuardMock",
  "abi": [
    {
      "constant": true,
      "inputs": [],
      "name": "identity",
      "outputs": [
        {
          "name": "",
          "type": "address"
        }
      ],
      "payable": false,
      "stateMutability": "view",
      "type": "function"
    },
    {
      "constant": false,
      "inputs": [
        {
          "name": "_identity",
          "type": "address"
        },
        {
          "name": "_avatar",
          "type": "address"
        }
      ],
      "name": "setIdentity",
      "outputs": [],
      "payable": false,
      "stateMutability": "nonpayable",
      "type": "function"
    },
    {
      "constant": false,
      "inputs": [],
      "name": "renounceOwnership",
      "outputs": [],
      "payable": false,
      "stateMutability": "nonpayable",
      "type": "function"
    },
    {
      "constant": true,
      "inputs": [],
      "name": "owner",
      "outputs": [
        {
          "name": "",
          "type": "address"
        }
      ],
      "payable": false,
      "stateMutability": "view",
      "type": "function"
    },
    {
      "constant": true,
      "inputs": [],
      "name": "isOwner",
      "outputs": [
        {
          "name": "",
          "type": "bool"
        }
      ],
      "payable": false,
      "stateMutability": "view",
      "type": "function"
    },
    {
      "constant": false,
      "inputs": [
        {
          "name": "newOwner",
          "type": "address"
        }
      ],
      "name": "transferOwnership",
      "outputs": [],
      "payable": false,
      "stateMutability": "nonpayable",
      "type": "function"
    },
    {
      "inputs": [
        {
          "name": "_identity",
          "type": "address"
        }
      ],
      "payable": false,
      "stateMutability": "nonpayable",
      "type": "constructor"
    },
    {
      "anonymous": false,
      "inputs": [
        {
          "indexed": true,
          "name": "previousOwner",
          "type": "address"
        },
        {
          "indexed": true,
          "name": "newOwner",
          "type": "address"
        }
      ],
      "name": "OwnershipTransferred",
      "type": "event"
    },
    {
      "constant": false,
      "inputs": [
        {
          "name": "to",
          "type": "address"
        }
      ],
      "name": "blacklistMock",
      "outputs": [
        {
          "name": "",
          "type": "bool"
        }
      ],
      "payable": false,
      "stateMutability": "nonpayable",
      "type": "function"
    },
    {
      "constant": false,
      "inputs": [
        {
          "name": "to",
          "type": "address"
        }
      ],
      "name": "checkWhitelisted",
      "outputs": [
        {
          "name": "",
          "type": "bool"
        }
      ],
      "payable": false,
      "stateMutability": "nonpayable",
      "type": "function"
    }
  ],
  "bytecode": "0x608060405234801561001057600080fd5b506040516020806109438339810180604052602081101561003057600080fd5b505160008054600160a060020a03191633178082556040518392600160a060020a039290921691907f8be0079c531659141344cd1fd0a4f28419497f9722a3daafe3b4186f6b6457e0908290a3600160a060020a03811615156100f457604080517f08c379a000000000000000000000000000000000000000000000000000000000815260206004820152601960248201527f537570706c696564206964656e74697479206973206e756c6c00000000000000604482015290519081900360640190fd5b60018054600160a060020a031916600160a060020a03929092169190911790555061081f806101246000396000f3fe608060405234801561001057600080fd5b506004361061008c5760003560e060020a900480638da5cb5b1161005f5780638da5cb5b146101275780638f32d59b1461012f578063b623053214610137578063f2fde38b1461015d5761008c565b806320d8dad0146100915780632c159a1a146100cb57806360ee7938146100ef578063715018a61461011f575b600080fd5b6100b7600480360360208110156100a757600080fd5b5035600160a060020a0316610183565b604080519115158252519081900360200190f35b6100d3610276565b60408051600160a060020a039092168252519081900360200190f35b61011d6004803603604081101561010557600080fd5b50600160a060020a0381358116916020013516610285565b005b61011d6104d5565b6100d361053f565b6100b761054e565b6100b76004803603602081101561014d57600080fd5b5035600160a060020a031661055f565b61011d6004803603602081101561017357600080fd5b5035600160a060020a031661072e565b600154604080517f3af32abf000000000000000000000000000000000000000000000000000000008152600160a060020a038085166004830152915160009385931691633af32abf916024808301926020929190829003018186803b1580156101eb57600080fd5b505afa1580156101ff573d6000803e3d6000fd5b505050506040513d602081101561021557600080fd5b5051151561026d576040805160e560020a62461bcd02815260206004820152601260248201527f6973206e6f742077686974656c69737465640000000000000000000000000000604482015290519081900360640190fd5b50600192915050565b600154600160a060020a031681565b8033600160a060020a038216148015610395575030600160a060020a0316638da5cb5b6040518163ffffffff1660e060020a02815260040160206040518083038186803b1580156102d557600080fd5b505afa1580156102e9573d6000803e3d6000fd5b505050506040513d60208110156102ff57600080fd5b5051604080517f8da5cb5b0000000000000000000000000000000000000000000000000000000081529051600160a060020a0392831692841691638da5cb5b916004808301926020929190829003018186803b15801561035e57600080fd5b505afa158015610372573d6000803e3d6000fd5b505050506040513d602081101561038857600080fd5b5051600160a060020a0316145b8061040f575030600160a060020a0316638da5cb5b6040518163ffffffff1660e060020a02815260040160206040518083038186803b1580156103d757600080fd5b505afa1580156103eb573d6000803e3d6000fd5b505050506040513d602081101561040157600080fd5b5051600160a060020a031633145b151561044f5760405160e560020a62461bcd0281526004018080602001828103825260298152602001806107cb6029913960400191505060405180910390fd5b82600160a060020a031663223668446040518163ffffffff1660e060020a02815260040160006040518083038186803b15801561048b57600080fd5b505afa15801561049f573d6000803e3d6000fd5b50506001805473ffffffffffffffffffffffffffffffffffffffff1916600160a060020a03969096169590951790945550505050565b6104dd61054e565b15156104e857600080fd5b60008054604051600160a060020a03909116907f8be0079c531659141344cd1fd0a4f28419497f9722a3daafe3b4186f6b6457e0908390a36000805473ffffffffffffffffffffffffffffffffffffffff19169055565b600054600160a060020a031690565b600054600160a060020a0316331490565b600154604080517ffe575a870000000000000000000000000000000000000000000000000000000081523360048201529051600092600160a060020a03169163fe575a87916024808301926020929190829003018186803b1580156105c357600080fd5b505afa1580156105d7573d6000803e3d6000fd5b505050506040513d60208110156105ed57600080fd5b505115610644576040805160e560020a62461bcd02815260206004820152601560248201527f43616c6c657220697320626c61636b6c69737465640000000000000000000000604482015290519081900360640190fd5b600154604080517ffe575a87000000000000000000000000000000000000000000000000000000008152600160a060020a03808616600483015291518593929092169163fe575a8791602480820192602092909190829003018186803b1580156106ad57600080fd5b505afa1580156106c1573d6000803e3d6000fd5b505050506040513d60208110156106d757600080fd5b50511561026d576040805160e560020a62461bcd02815260206004820152601760248201527f526563656976657220697320626c61636b6c6973746564000000000000000000604482015290519081900360640190fd5b61073661054e565b151561074157600080fd5b61074a8161074d565b50565b600160a060020a038116151561076257600080fd5b60008054604051600160a060020a03808516939216917f8be0079c531659141344cd1fd0a4f28419497f9722a3daafe3b4186f6b6457e091a36000805473ffffffffffffffffffffffffffffffffffffffff1916600160a060020a039290921691909117905556fe4f6e6c792063616c6c61626c6520627920617661746172206f66206f776e6572206f72206f776e6572a165627a7a7230582068ea5ab23137287ef01cc66d6be7c13683b77b2697657bcd6fcee1bd16ce46650029",
  "source": "pragma solidity 0.5.4;\n\nimport \"../identity/IdentityGuard.sol\";\nimport \"../identity/Identity.sol\";\n\ncontract IdentityGuardMock is IdentityGuard {\n\n    constructor(Identity _identity) public IdentityGuard(_identity) {}\n\n    function blacklistMock(address to) public onlyNotBlacklisted requireNotBlacklisted(to) returns(bool) {\n        return true;\n    }\n\n    function checkWhitelisted(address to) public requireWhitelisted(to) returns (bool) {\n        return true;\n    }\n}",
  "sourcePath": "/Users/hadar/workspace/GoodDollar/GoodBootstrap/packages/contracts/contracts/mocks/IdentityGuardMock.sol",
  "compiler": {
    "name": "solc",
    "version": "0.5.4+commit.9549d8ff.Emscripten.clang"
  },
  "schemaVersion": "3.0.16",
  "updatedAt": "2019-11-05T12:34:28.361Z",
  "devdoc": {
    "methods": {
      "isOwner()": {
        "return": "true if `msg.sender` is the owner of the contract."
      },
      "owner()": {
        "return": "the address of the owner."
      },
      "renounceOwnership()": {
        "details": "Allows the current owner to relinquish control of the contract."
      },
      "transferOwnership(address)": {
        "details": "Allows the current owner to transfer control of the contract to a newOwner.",
        "params": {
          "newOwner": "The address to transfer ownership to."
        }
      }
    }
  },
  "userdoc": {
    "methods": {
      "renounceOwnership()": {
        "notice": "Renouncing to ownership will leave the contract without an owner. It will not be possible to call the functions with the `onlyOwner` modifier anymore."
      }
    }
  }
}