{
  "contractName": "IdentityGuard",
  "abi": [
    {
      "constant": true,
      "inputs": [],
      "name": "identity",
      "outputs": [
        {
          "name": "",
          "type": "address"
        }
      ],
      "payable": false,
      "stateMutability": "view",
      "type": "function"
    },
    {
      "constant": false,
      "inputs": [],
      "name": "renounceOwnership",
      "outputs": [],
      "payable": false,
      "stateMutability": "nonpayable",
      "type": "function"
    },
    {
      "constant": true,
      "inputs": [],
      "name": "owner",
      "outputs": [
        {
          "name": "",
          "type": "address"
        }
      ],
      "payable": false,
      "stateMutability": "view",
      "type": "function"
    },
    {
      "constant": true,
      "inputs": [],
      "name": "isOwner",
      "outputs": [
        {
          "name": "",
          "type": "bool"
        }
      ],
      "payable": false,
      "stateMutability": "view",
      "type": "function"
    },
    {
      "constant": false,
      "inputs": [
        {
          "name": "newOwner",
          "type": "address"
        }
      ],
      "name": "transferOwnership",
      "outputs": [],
      "payable": false,
      "stateMutability": "nonpayable",
      "type": "function"
    },
    {
      "inputs": [
        {
          "name": "_identity",
          "type": "address"
        }
      ],
      "payable": false,
      "stateMutability": "nonpayable",
      "type": "constructor"
    },
    {
      "anonymous": false,
      "inputs": [
        {
          "indexed": true,
          "name": "previousOwner",
          "type": "address"
        },
        {
          "indexed": true,
          "name": "newOwner",
          "type": "address"
        }
      ],
      "name": "OwnershipTransferred",
      "type": "event"
    },
    {
      "constant": false,
      "inputs": [
        {
          "name": "_identity",
          "type": "address"
        },
        {
          "name": "_avatar",
          "type": "address"
        }
      ],
      "name": "setIdentity",
      "outputs": [],
      "payable": false,
      "stateMutability": "nonpayable",
      "type": "function"
    }
  ],
  "bytecode": "0x608060405234801561001057600080fd5b506040516020806106228339810180604052602081101561003057600080fd5b505160008054600160a060020a0319163317808255604051600160a060020a039190911691907f8be0079c531659141344cd1fd0a4f28419497f9722a3daafe3b4186f6b6457e0908290a3600160a060020a03811615156100f257604080517f08c379a000000000000000000000000000000000000000000000000000000000815260206004820152601960248201527f537570706c696564206964656e74697479206973206e756c6c00000000000000604482015290519081900360640190fd5b60018054600160a060020a031916600160a060020a0392909216919091179055610501806101216000396000f3fe608060405234801561001057600080fd5b50600436106100655760e060020a60003504632c159a1a811461006a57806360ee79381461008e578063715018a6146100be5780638da5cb5b146100c65780638f32d59b146100ce578063f2fde38b146100ea575b600080fd5b610072610110565b60408051600160a060020a039092168252519081900360200190f35b6100bc600480360360408110156100a457600080fd5b50600160a060020a038135811691602001351661011f565b005b6100bc610386565b6100726103f0565b6100d66103ff565b604080519115158252519081900360200190f35b6100bc6004803603602081101561010057600080fd5b5035600160a060020a0316610410565b600154600160a060020a031681565b8033600160a060020a03821614801561022f575030600160a060020a0316638da5cb5b6040518163ffffffff1660e060020a02815260040160206040518083038186803b15801561016f57600080fd5b505afa158015610183573d6000803e3d6000fd5b505050506040513d602081101561019957600080fd5b5051604080517f8da5cb5b0000000000000000000000000000000000000000000000000000000081529051600160a060020a0392831692841691638da5cb5b916004808301926020929190829003018186803b1580156101f857600080fd5b505afa15801561020c573d6000803e3d6000fd5b505050506040513d602081101561022257600080fd5b5051600160a060020a0316145b806102a9575030600160a060020a0316638da5cb5b6040518163ffffffff1660e060020a02815260040160206040518083038186803b15801561027157600080fd5b505afa158015610285573d6000803e3d6000fd5b505050506040513d602081101561029b57600080fd5b5051600160a060020a031633145b1515610300576040517f08c379a00000000000000000000000000000000000000000000000000000000081526004018080602001828103825260298152602001806104ad6029913960400191505060405180910390fd5b82600160a060020a031663223668446040518163ffffffff1660e060020a02815260040160006040518083038186803b15801561033c57600080fd5b505afa158015610350573d6000803e3d6000fd5b50506001805473ffffffffffffffffffffffffffffffffffffffff1916600160a060020a03969096169590951790945550505050565b61038e6103ff565b151561039957600080fd5b60008054604051600160a060020a03909116907f8be0079c531659141344cd1fd0a4f28419497f9722a3daafe3b4186f6b6457e0908390a36000805473ffffffffffffffffffffffffffffffffffffffff19169055565b600054600160a060020a031690565b600054600160a060020a0316331490565b6104186103ff565b151561042357600080fd5b61042c8161042f565b50565b600160a060020a038116151561044457600080fd5b60008054604051600160a060020a03808516939216917f8be0079c531659141344cd1fd0a4f28419497f9722a3daafe3b4186f6b6457e091a36000805473ffffffffffffffffffffffffffffffffffffffff1916600160a060020a039290921691909117905556fe4f6e6c792063616c6c61626c6520627920617661746172206f66206f776e6572206f72206f776e6572a165627a7a72305820695184e26acede44d4c9daaa4cbff5e8d2c6a175a5ae37327eca1965358a66010029",
  "source": "pragma solidity ^0.5.2;\n\nimport \"./Identity.sol\";\nimport \"../dao/AvatarGuard.sol\";\n\nimport \"@daostack/arc/contracts/controller/Avatar.sol\";\n\n/* @title The IdentityGuard contract\n * @dev Contract containing an identity and\n * modifiers to ensure proper access\n */\ncontract IdentityGuard is AvatarGuard {\n\n    Identity public identity;\n\n    /* @dev Constructor. Checks if identity is a zero address\n     * @param _identity The identity contract.\n     */\n    constructor(Identity _identity) public {\n        require(_identity != Identity(0), \"Supplied identity is null\");\n        identity = _identity;\n    }\n\n    /* @dev Modifier that requires the sender\n     * to be not blacklisted\n     */\n    modifier onlyNotBlacklisted() {\n        require(!identity.isBlacklisted(msg.sender), \"Caller is blacklisted\");\n        _;\n    }\n\n    /* @dev Modifier that requires the given address\n     * to be not blacklisted\n     * @param _account The address to be checked\n     */\n    modifier requireNotBlacklisted(address _account) {\n        require(!identity.isBlacklisted(_account), \"Receiver is blacklisted\");\n        _;\n    }\n\n    /* @dev Modifier that requires the sender\n     * to be a claimer\n     */\n    modifier onlyClaimer() {\n        require(identity.isClaimer(msg.sender), \"is not claimer\");\n        _;\n    }\n\n    /* @dev Modifier that requires the given address\n     * to be a claimer\n     * @param _account the given address\n     */\n    modifier requireClaimer(address _account) {\n        require(identity.isClaimer(_account), \"is not claimer\");\n        _;\n    }\n\n    modifier onlyAddedBefore(uint date) {\n        require(identity.wasAdded(msg.sender) <= date, \"Was not added within period\");\n        _;\n    }\n\n    modifier onlyIdentityAdmin() {\n        require(identity.isIdentityAdmin(msg.sender), \"not IdentityAdmin\");\n        _;\n    }\n\n    /* @dev Allows anyone to set a new identity contract if\n     * the given contract has been registered as a scheme\n     */\n    function setIdentity(Identity _identity, Avatar _avatar) public onlyOwnerOrAvatar(_avatar) {\n        _identity.isRegistered();\n        identity = _identity;\n    }\n}",
  "sourcePath": "/Users/hadar/workspace/GoodDollar/GoodBootstrap/packages/contracts/contracts/identity/IdentityGuard.sol",
  "compiler": {
    "name": "solc",
    "version": "0.5.4+commit.9549d8ff.Emscripten.clang"
  },
  "schemaVersion": "3.0.9",
  "updatedAt": "2019-09-22T12:47:44.217Z",
  "devdoc": {
    "methods": {
      "isOwner()": {
        "return": "true if `msg.sender` is the owner of the contract."
      },
      "owner()": {
        "return": "the address of the owner."
      },
      "renounceOwnership()": {
        "details": "Allows the current owner to relinquish control of the contract. It will not be possible to call the functions with the `onlyOwner` modifier anymore."
      },
      "transferOwnership(address)": {
        "details": "Allows the current owner to transfer control of the contract to a newOwner.",
        "params": {
          "newOwner": "The address to transfer ownership to."
        }
      }
    }
  },
  "userdoc": {
    "methods": {
      "renounceOwnership()": {
        "notice": "Renouncing ownership will leave the contract without an owner, thereby removing any functionality that is only available to the owner."
      }
    }
  }
}