{
  "contractName": "IdentityGuard",
  "abi": [
    {
      "constant": true,
      "inputs": [],
      "name": "identity",
      "outputs": [
        {
          "name": "",
          "type": "address"
        }
      ],
      "payable": false,
      "stateMutability": "view",
      "type": "function"
    },
    {
      "constant": false,
      "inputs": [],
      "name": "renounceOwnership",
      "outputs": [],
      "payable": false,
      "stateMutability": "nonpayable",
      "type": "function"
    },
    {
      "constant": true,
      "inputs": [],
      "name": "owner",
      "outputs": [
        {
          "name": "",
          "type": "address"
        }
      ],
      "payable": false,
      "stateMutability": "view",
      "type": "function"
    },
    {
      "constant": true,
      "inputs": [],
      "name": "isOwner",
      "outputs": [
        {
          "name": "",
          "type": "bool"
        }
      ],
      "payable": false,
      "stateMutability": "view",
      "type": "function"
    },
    {
      "constant": false,
      "inputs": [
        {
          "name": "newOwner",
          "type": "address"
        }
      ],
      "name": "transferOwnership",
      "outputs": [],
      "payable": false,
      "stateMutability": "nonpayable",
      "type": "function"
    },
    {
      "inputs": [
        {
          "name": "_identity",
          "type": "address"
        }
      ],
      "payable": false,
      "stateMutability": "nonpayable",
      "type": "constructor"
    },
    {
      "anonymous": false,
      "inputs": [
        {
          "indexed": true,
          "name": "previousOwner",
          "type": "address"
        },
        {
          "indexed": true,
          "name": "newOwner",
          "type": "address"
        }
      ],
      "name": "OwnershipTransferred",
      "type": "event"
    },
    {
      "constant": false,
      "inputs": [
        {
          "name": "_identity",
          "type": "address"
        }
      ],
      "name": "setIdentity",
      "outputs": [],
      "payable": false,
      "stateMutability": "nonpayable",
      "type": "function"
    }
  ],
  "bytecode": "0x608060405234801561001057600080fd5b506040516020806104d38339810180604052602081101561003057600080fd5b505160008054600160a060020a0319163317808255604051600160a060020a039190911691907f8be0079c531659141344cd1fd0a4f28419497f9722a3daafe3b4186f6b6457e0908290a3600160a060020a03811615156100f257604080517f08c379a000000000000000000000000000000000000000000000000000000000815260206004820152601960248201527f537570706c696564206964656e74697479206973206e756c6c00000000000000604482015290519081900360640190fd5b60018054600160a060020a031916600160a060020a03929092169190911790556103b2806101216000396000f3fe608060405234801561001057600080fd5b506004361061007e577c010000000000000000000000000000000000000000000000000000000060003504632c159a1a81146100835780635d5bf178146100a7578063715018a6146100cf5780638da5cb5b146100d75780638f32d59b146100df578063f2fde38b146100fb575b600080fd5b61008b610121565b60408051600160a060020a039092168252519081900360200190f35b6100cd600480360360208110156100bd57600080fd5b5035600160a060020a0316610130565b005b6100cd610260565b61008b6102ca565b6100e76102d9565b604080519115158252519081900360200190f35b6100cd6004803603602081101561011157600080fd5b5035600160a060020a03166102ea565b600154600160a060020a031681565b6101386102d9565b151561014357600080fd5b80600160a060020a031663223668446040518163ffffffff167c010000000000000000000000000000000000000000000000000000000002815260040160206040518083038186803b15801561019857600080fd5b505afa1580156101ac573d6000803e3d6000fd5b505050506040513d60208110156101c257600080fd5b5051151561023157604080517f08c379a000000000000000000000000000000000000000000000000000000000815260206004820152601a60248201527f4964656e74697479206973206e6f742072656769737465726564000000000000604482015290519081900360640190fd5b6001805473ffffffffffffffffffffffffffffffffffffffff1916600160a060020a0392909216919091179055565b6102686102d9565b151561027357600080fd5b60008054604051600160a060020a03909116907f8be0079c531659141344cd1fd0a4f28419497f9722a3daafe3b4186f6b6457e0908390a36000805473ffffffffffffffffffffffffffffffffffffffff19169055565b600054600160a060020a031690565b600054600160a060020a0316331490565b6102f26102d9565b15156102fd57600080fd5b61030681610309565b50565b600160a060020a038116151561031e57600080fd5b60008054604051600160a060020a03808516939216917f8be0079c531659141344cd1fd0a4f28419497f9722a3daafe3b4186f6b6457e091a36000805473ffffffffffffffffffffffffffffffffffffffff1916600160a060020a039290921691909117905556fea165627a7a723058209940864554f67280273063b976615cd62920700d948967cec95ce4a28ce064d00029",
  "source": "pragma solidity 0.5.4;\n\nimport \"./Identity.sol\";\n\nimport \"openzeppelin-solidity/contracts/ownership/Ownable.sol\";\n\n/* @title The IdentityGuard contract\n * @dev Contract containing an identity and\n * modifiers to ensure proper access\n */\ncontract IdentityGuard is Ownable{\n\n    Identity public identity;\n\n    /* @dev Constructor. Checks if identity is a zero address\n     * @param _identity The identity contract.\n     */\n    constructor(Identity _identity) public {\n        require(_identity != Identity(0), \"Supplied identity is null\");\n        identity = _identity;\n    }\n\n    /* @dev Modifier that requires the sender to be not blacklisted\n     */\n    modifier onlyNotBlacklisted() {\n        require(!identity.isBlacklisted(msg.sender), \"Caller is blacklisted\");\n        _;\n    }\n\n    /* @dev Modifier that requires the given address to be not blacklisted\n     * @param _account The address to be checked\n     */\n    modifier requireNotBlacklisted(address _account) {\n        require(!identity.isBlacklisted(_account), \"Receiver is blacklisted\");\n        _;\n    }\n\n    /* @dev Modifier that requires the sender to be whitelisted\n     */\n    modifier onlyWhitelisted() {\n        require(identity.isWhitelisted(msg.sender), \"is not whitelisted\");\n        _;\n    }\n\n    /* @dev Modifier that requires the given address to be whitelisted\n     * @param _account the given address\n     */\n    modifier requireWhitelisted(address _account) {\n        require(identity.isWhitelisted(_account), \"is not whitelisted\");\n        _;\n    }\n\n    /* @dev Modifier that requires the sender to have been whitelisted\n     * before or on the given date\n     * @param date The time sender must have been added before\n     */\n    modifier onlyAddedBefore(uint256 date) {\n        require(identity.wasAdded(msg.sender) <= date, \"Was not added within period\");\n        _;\n    }\n\n    /* @dev Modifier that requires sender to be an identity admin\n     */\n    modifier onlyIdentityAdmin() {\n        require(identity.isIdentityAdmin(msg.sender), \"not IdentityAdmin\");\n        _;\n    }\n\n    /* @dev Allows owner to set a new identity contract if\n     * the given identity contract has been registered as a scheme\n     */\n    function setIdentity(Identity _identity) public onlyOwner {\n        require(_identity.isRegistered(), \"Identity is not registered\");\n        identity = _identity;\n    }\n}",
  "sourcePath": "/Users/hadar/workspace/GoodDollar/GoodBootstrap/packages/contracts/contracts/identity/IdentityGuard.sol",
  "compiler": {
    "name": "solc",
    "version": "0.5.4+commit.9549d8ff.Emscripten.clang"
  },
  "schemaVersion": "3.0.16",
  "updatedAt": "2020-04-26T07:05:12.881Z",
  "devdoc": {
    "methods": {
      "isOwner()": {
        "return": "true if `msg.sender` is the owner of the contract."
      },
      "owner()": {
        "return": "the address of the owner."
      },
      "renounceOwnership()": {
        "details": "Allows the current owner to relinquish control of the contract."
      },
      "transferOwnership(address)": {
        "details": "Allows the current owner to transfer control of the contract to a newOwner.",
        "params": {
          "newOwner": "The address to transfer ownership to."
        }
      }
    }
  },
  "userdoc": {
    "methods": {
      "renounceOwnership()": {
        "notice": "Renouncing to ownership will leave the contract without an owner. It will not be possible to call the functions with the `onlyOwner` modifier anymore."
      }
    }
  }
}