{
  "contractName": "Identity",
  "abi": [
    {
      "constant": true,
      "inputs": [
        {
          "name": "account",
          "type": "address"
        }
      ],
      "name": "isWhitelisted",
      "outputs": [
        {
          "name": "",
          "type": "bool"
        }
      ],
      "payable": false,
      "stateMutability": "view",
      "type": "function"
    },
    {
      "constant": false,
      "inputs": [],
      "name": "renounceWhitelistAdmin",
      "outputs": [],
      "payable": false,
      "stateMutability": "nonpayable",
      "type": "function"
    },
    {
      "constant": true,
      "inputs": [
        {
          "name": "",
          "type": "address"
        }
      ],
      "name": "addrToDID",
      "outputs": [
        {
          "name": "",
          "type": "string"
        }
      ],
      "payable": false,
      "stateMutability": "view",
      "type": "function"
    },
    {
      "constant": true,
      "inputs": [
        {
          "name": "",
          "type": "bytes32"
        }
      ],
      "name": "didHashToAddress",
      "outputs": [
        {
          "name": "",
          "type": "address"
        }
      ],
      "payable": false,
      "stateMutability": "view",
      "type": "function"
    },
    {
      "constant": false,
      "inputs": [
        {
          "name": "account",
          "type": "address"
        }
      ],
      "name": "addWhitelistAdmin",
      "outputs": [],
      "payable": false,
      "stateMutability": "nonpayable",
      "type": "function"
    },
    {
      "constant": true,
      "inputs": [],
      "name": "whiteListedCount",
      "outputs": [
        {
          "name": "",
          "type": "uint256"
        }
      ],
      "payable": false,
      "stateMutability": "view",
      "type": "function"
    },
    {
      "constant": true,
      "inputs": [
        {
          "name": "account",
          "type": "address"
        }
      ],
      "name": "isWhitelistAdmin",
      "outputs": [
        {
          "name": "",
          "type": "bool"
        }
      ],
      "payable": false,
      "stateMutability": "view",
      "type": "function"
    },
    {
      "inputs": [],
      "payable": false,
      "stateMutability": "nonpayable",
      "type": "constructor"
    },
    {
      "anonymous": false,
      "inputs": [
        {
          "indexed": true,
          "name": "account",
          "type": "address"
        }
      ],
      "name": "WhitelistedAdded",
      "type": "event"
    },
    {
      "anonymous": false,
      "inputs": [
        {
          "indexed": true,
          "name": "account",
          "type": "address"
        }
      ],
      "name": "WhitelistedRemoved",
      "type": "event"
    },
    {
      "anonymous": false,
      "inputs": [
        {
          "indexed": true,
          "name": "account",
          "type": "address"
        }
      ],
      "name": "WhitelistAdminAdded",
      "type": "event"
    },
    {
      "anonymous": false,
      "inputs": [
        {
          "indexed": true,
          "name": "account",
          "type": "address"
        }
      ],
      "name": "WhitelistAdminRemoved",
      "type": "event"
    },
    {
      "constant": true,
      "inputs": [
        {
          "name": "_account",
          "type": "address"
        }
      ],
      "name": "isVerified",
      "outputs": [
        {
          "name": "",
          "type": "bool"
        }
      ],
      "payable": false,
      "stateMutability": "view",
      "type": "function"
    },
    {
      "constant": false,
      "inputs": [
        {
          "name": "account",
          "type": "address"
        },
        {
          "name": "did",
          "type": "string"
        }
      ],
      "name": "addWhitelistedWithDID",
      "outputs": [],
      "payable": false,
      "stateMutability": "nonpayable",
      "type": "function"
    },
    {
      "constant": false,
      "inputs": [
        {
          "name": "newAccount",
          "type": "address"
        }
      ],
      "name": "transferAccount",
      "outputs": [],
      "payable": false,
      "stateMutability": "nonpayable",
      "type": "function"
    },
    {
      "constant": false,
      "inputs": [
        {
          "name": "account",
          "type": "address"
        }
      ],
      "name": "addWhitelisted",
      "outputs": [],
      "payable": false,
      "stateMutability": "nonpayable",
      "type": "function"
    },
    {
      "constant": false,
      "inputs": [
        {
          "name": "account",
          "type": "address"
        }
      ],
      "name": "removeWhitelisted",
      "outputs": [],
      "payable": false,
      "stateMutability": "nonpayable",
      "type": "function"
    },
    {
      "constant": false,
      "inputs": [],
      "name": "renounceWhitelisted",
      "outputs": [],
      "payable": false,
      "stateMutability": "nonpayable",
      "type": "function"
    },
    {
      "constant": false,
      "inputs": [
        {
          "name": "_account",
          "type": "address"
        },
        {
          "name": "_did",
          "type": "string"
        }
      ],
      "name": "whiteListUser",
      "outputs": [],
      "payable": false,
      "stateMutability": "nonpayable",
      "type": "function"
    },
    {
      "constant": false,
      "inputs": [
        {
          "name": "_account",
          "type": "address"
        }
      ],
      "name": "blackListUser",
      "outputs": [],
      "payable": false,
      "stateMutability": "nonpayable",
      "type": "function"
    }
  ],
  "bytecode": "0x608060405260006002553480156200001657600080fd5b506200002b3364010000000062000045810204565b6200003f3364010000000062000097810204565b62000388565b6200006060008264010000000062000dff6200014a82021704565b604051600160a060020a038216907f22380c05984257a1cb900161c713dd71d39e74820f1aea43bd3f1bdd2096129990600090a250565b620000ab33640100000000620001f1810204565b151562000104576040517f08c379a0000000000000000000000000000000000000000000000000000000008152600401808060200182810382526040815260200180620013c76040913960400191505060405180910390fd5b620001188164010000000062000213810204565b15620001245762000147565b6200013d8164010000000062000b5e6200023082021704565b6002805460010190555b50565b6200015f8282640100000000620002b1810204565b15620001cc57604080517f08c379a000000000000000000000000000000000000000000000000000000000815260206004820152601f60248201527f526f6c65733a206163636f756e7420616c72656164792068617320726f6c6500604482015290519081900360640190fd5b600160a060020a0316600090815260209190915260409020805460ff19166001179055565b60006200020d818364010000000062000c02620002b182021704565b92915050565b60006200020d60018364010000000062000c02620002b182021704565b6200024433640100000000620001f1810204565b15156200029d576040517f08c379a0000000000000000000000000000000000000000000000000000000008152600401808060200182810382526040815260200180620013c76040913960400191505060405180910390fd5b620001478164010000000062000336810204565b6000600160a060020a038216151562000316576040517f08c379a0000000000000000000000000000000000000000000000000000000008152600401808060200182810382526022815260200180620013a56022913960400191505060405180910390fd5b50600160a060020a03166000908152602091909152604090205460ff1690565b6200035160018264010000000062000dff6200014a82021704565b604051600160a060020a038216907fee1504a83b6d4a361f4c1dc78ab59bfa30d6a3b6612c403e86bb01ef2984295f90600090a250565b61100d80620003986000396000f3fe608060405234801561001057600080fd5b5060043610610112576000357c01000000000000000000000000000000000000000000000000000000009004806367c75937116100b4578063b9209e3311610083578063b9209e331461044d578063bb5f747b14610473578063d6cd947314610499578063e4852b9b146104a157610112565b806367c759371461031e5780637362d9c8146103575780638ec4b4f61461037d578063a79525b71461043357610112565b8063291d9549116100f0578063291d95491461021b5780633af32abf146102415780634c5a628c1461027b57806354f9f7a31461028357610112565b806310154bad1461011757806316f3a12d1461013f5780631b02709914610165575b600080fd5b61013d6004803603602081101561012d57600080fd5b5035600160a060020a03166104c7565b005b61013d6004803603602081101561015557600080fd5b5035600160a060020a0316610539565b61013d6004803603604081101561017b57600080fd5b600160a060020a0382351691908101906040810160208201356401000000008111156101a657600080fd5b8201836020820111156101b857600080fd5b803590602001918460018302840111640100000000831117156101da57600080fd5b91908080601f016020809104026020016040519081016040528093929190818152602001838380828437600092019190915250929550610542945050505050565b61013d6004803603602081101561023157600080fd5b5035600160a060020a031661061e565b6102676004803603602081101561025757600080fd5b5035600160a060020a0316610792565b604080519115158252519081900360200190f35b61013d6107ab565b6102a96004803603602081101561029957600080fd5b5035600160a060020a03166107b6565b6040805160208082528351818301528351919283929083019185019080838360005b838110156102e35781810151838201526020016102cb565b50505050905090810190601f1680156103105780820380516001836020036101000a031916815260200191505b509250505060405180910390f35b61033b6004803603602081101561033457600080fd5b5035610851565b60408051600160a060020a039092168252519081900360200190f35b61013d6004803603602081101561036d57600080fd5b5035600160a060020a031661086c565b61013d6004803603604081101561039357600080fd5b600160a060020a0382351691908101906040810160208201356401000000008111156103be57600080fd5b8201836020820111156103d057600080fd5b803590602001918460018302840111640100000000831117156103f257600080fd5b91908080601f0160208091040260200160405190810160405280939291908181526020018383808284376000920191909152509295506108be945050505050565b61043b6108c8565b60408051918252519081900360200190f35b6102676004803603602081101561046357600080fd5b5035600160a060020a03166108ce565b6102676004803603602081101561048957600080fd5b5035600160a060020a03166108d9565b61013d6108eb565b61013d600480360360208110156104b757600080fd5b5035600160a060020a0316610a04565b6104d0336108d9565b15156105105760405160e560020a62461bcd028152600401808060200182810382526040815260200180610fa26040913960400191505060405180910390fd5b61051981610792565b1561052357610536565b61052c81610b5e565b6002805460010190555b50565b6105368161061e565b61054b336108d9565b151561058b5760405160e560020a62461bcd028152600401808060200182810382526040815260200180610fa26040913960400191505060405180910390fd5b61059482610792565b1561059e5761061a565b6105a782610b5e565b600280546001019055600160a060020a038216600090815260036020908152604090912082516105d992840190610e83565b5080516020808301919091206000908152600490915260409020805473ffffffffffffffffffffffffffffffffffffffff1916600160a060020a0384161790555b5050565b610627336108d9565b15156106675760405160e560020a62461bcd028152600401808060200182810382526040815260200180610fa26040913960400191505060405180910390fd5b61067081610792565b151561067b57610536565b61068481610bb0565b600280546000199081018255600160a060020a038316600090815260036020908152604091829020805483516001821615610100029095011694909404601f8101829004820284018201909252818352606093919083018282801561072a5780601f106106ff5761010080835404028352916020019161072a565b820191906000526020600020905b81548152906001019060200180831161070d57829003601f168201915b50505050600160a060020a0384166000908152600360205260408120929350610754929150610f01565b60008151111561061a5780516020918201206000908152600490915260409020805473ffffffffffffffffffffffffffffffffffffffff1916905550565b60006107a560018363ffffffff610c0216565b92915050565b6107b433610c6e565b565b60036020908152600091825260409182902080548351601f6002600019610100600186161502019093169290920491820184900484028101840190945280845290918301828280156108495780601f1061081e57610100808354040283529160200191610849565b820191906000526020600020905b81548152906001019060200180831161082c57829003601f168201915b505050505081565b600460205260009081526040902054600160a060020a031681565b610875336108d9565b15156108b55760405160e560020a62461bcd028152600401808060200182810382526040815260200180610fa26040913960400191505060405180910390fd5b61053681610cb6565b61061a8282610542565b60025481565b60006107a582610792565b60006107a5818363ffffffff610c0216565b6108f433610792565b15156108ff576107b4565b610907610cfe565b60028054600019908101825533600090815260036020908152604091829020805483516001821615610100029095011694909404601f810182900482028401820190925281835260609391908301828280156109a45780601f10610979576101008083540402835291602001916109a4565b820191906000526020600020905b81548152906001019060200180831161098757829003601f168201915b50503360009081526003602052604081209495506109c79493509150610f019050565b6000815111156105365780516020918201206000908152600490915260409020805473ffffffffffffffffffffffffffffffffffffffff19169055565b33610a0e81610792565b1515610a1a5750610536565b600160a060020a03811660009081526003602090815260409182902080548351601f6002600019610100600186161502019093169290920491820184900484028101840190945280845260609392830182828015610ab95780601f10610a8e57610100808354040283529160200191610ab9565b820191906000526020600020905b815481529060010190602001808311610a9c57829003601f168201915b505083516020808601918220600160a060020a038a1660009081526003909252604090912086519697509095610af59550909350909150610e83565b506000818152600460209081526040808320805473ffffffffffffffffffffffffffffffffffffffff1916600160a060020a03898116919091179091558616835260039091528120610b4691610f01565b610b4f83610d03565b610b5884610d4b565b50505050565b610b67336108d9565b1515610ba75760405160e560020a62461bcd028152600401808060200182810382526040815260200180610fa26040913960400191505060405180910390fd5b61053681610d4b565b610bb9336108d9565b1515610bf95760405160e560020a62461bcd028152600401808060200182810382526040815260200180610fa26040913960400191505060405180910390fd5b61053681610d03565b6000600160a060020a0382161515610c4e5760405160e560020a62461bcd028152600401808060200182810382526022815260200180610f806022913960400191505060405180910390fd5b50600160a060020a03166000908152602091909152604090205460ff1690565b610c7f60008263ffffffff610d9316565b604051600160a060020a038216907f0a8eb35e5ca14b3d6f28e4abf2f128dbab231a58b56e89beb5d636115001e16590600090a250565b610cc760008263ffffffff610dff16565b604051600160a060020a038216907f22380c05984257a1cb900161c713dd71d39e74820f1aea43bd3f1bdd2096129990600090a250565b6107b4335b610d1460018263ffffffff610d9316565b604051600160a060020a038216907f270d9b30cf5b0793bbfd54c9d5b94aeb49462b8148399000265144a8722da6b690600090a250565b610d5c60018263ffffffff610dff16565b604051600160a060020a038216907fee1504a83b6d4a361f4c1dc78ab59bfa30d6a3b6612c403e86bb01ef2984295f90600090a250565b610d9d8282610c02565b1515610ddd5760405160e560020a62461bcd028152600401808060200182810382526021815260200180610f5f6021913960400191505060405180910390fd5b600160a060020a0316600090815260209190915260409020805460ff19169055565b610e098282610c02565b15610e5e576040805160e560020a62461bcd02815260206004820152601f60248201527f526f6c65733a206163636f756e7420616c72656164792068617320726f6c6500604482015290519081900360640190fd5b600160a060020a0316600090815260209190915260409020805460ff19166001179055565b828054600181600116156101000203166002900490600052602060002090601f016020900481019282601f10610ec457805160ff1916838001178555610ef1565b82800160010185558215610ef1579182015b82811115610ef1578251825591602001919060010190610ed6565b50610efd929150610f41565b5090565b50805460018160011615610100020316600290046000825580601f10610f275750610536565b601f01602090049060005260206000209081019061053691905b610f5b91905b80821115610efd5760008155600101610f47565b9056fe526f6c65733a206163636f756e7420646f6573206e6f74206861766520726f6c65526f6c65733a206163636f756e7420697320746865207a65726f206164647265737357686974656c69737441646d696e526f6c653a2063616c6c657220646f6573206e6f742068617665207468652057686974656c69737441646d696e20726f6c65a165627a7a72305820cd7479df08271fc04324227038e4378549a812d9951b795972bb54e5c98ce7ea0029526f6c65733a206163636f756e7420697320746865207a65726f206164647265737357686974656c69737441646d696e526f6c653a2063616c6c657220646f6573206e6f742068617665207468652057686974656c69737441646d696e20726f6c65",
  "source": "pragma solidity ^0.5.0;\r\n\r\nimport \"openzeppelin-solidity/contracts/ownership/Ownable.sol\";\r\nimport \"openzeppelin-solidity/contracts/access/roles/WhitelistedRole.sol\";\r\n\r\ncontract Identity is WhitelistedRole {\r\n    \r\n  uint256 public whiteListedCount = 0;\r\n  mapping (address => string) public addrToDID;\r\n  mapping (bytes32 => address) public didHashToAddress;\r\n\r\n  constructor() public {\r\n    addWhitelisted(msg.sender);\r\n  }\r\n  \r\n  /**\r\n    @return if the user is whitelisted or not\r\n  */\r\n  function isVerified(\r\n    address _account\r\n  ) public view returns(bool) {\r\n    return isWhitelisted(_account);\r\n  }\r\n\r\n  function addWhitelistedWithDID(address account, string memory did) public onlyWhitelistAdmin {\r\n    if(isWhitelisted(account)) return;\r\n    super.addWhitelisted(account);\r\n    whiteListedCount += 1;\r\n    addrToDID[account] = did;\r\n    bytes32 pHash = keccak256(bytes(did));\r\n    didHashToAddress[pHash] = account;\r\n  }\r\n\r\n  function transferAccount(address newAccount) public {\r\n    address oldAccount = msg.sender;\r\n    if(!isWhitelisted(oldAccount)) return;\r\n    string memory did = addrToDID[oldAccount];\r\n    bytes32 pHash = keccak256(bytes(did));\r\n    addrToDID[newAccount] = did;\r\n    didHashToAddress[pHash] = newAccount;\r\n    delete addrToDID[oldAccount];\r\n    super._removeWhitelisted(oldAccount);\r\n    super._addWhitelisted(newAccount);\r\n  }\r\n  \r\n  function addWhitelisted(address account) public onlyWhitelistAdmin {\r\n    if(isWhitelisted(account)) return;\r\n    super.addWhitelisted(account);\r\n    whiteListedCount += 1;\r\n  }\r\n\r\n  function removeWhitelisted(address account) public onlyWhitelistAdmin {\r\n    if(!isWhitelisted(account)) return;\r\n    super.removeWhitelisted(account);\r\n    whiteListedCount -= 1;\r\n    string memory did = addrToDID[account];\r\n    delete addrToDID[account];\r\n    if(bytes(did).length > 0) {\r\n      bytes32 pHash = keccak256(bytes(did));\r\n      delete didHashToAddress[pHash];\r\n    }\r\n  }\r\n  /**\r\n    Removes the user from the whitelist, Removes the user DID from records, removes the DID hash to address mapping\r\n   */\r\n  function renounceWhitelisted() public {\r\n    if(!isWhitelisted(msg.sender)) return;\r\n    super.renounceWhitelisted();\r\n    whiteListedCount -= 1;\r\n    string memory did = addrToDID[msg.sender];\r\n    delete addrToDID[msg.sender];\r\n    if(bytes(did).length > 0) {\r\n      bytes32 pHash = keccak256(bytes(did));\r\n      delete didHashToAddress[pHash];\r\n    }\r\n  }\r\n  function whiteListUser(address _account, string memory _did) public {\r\n    addWhitelistedWithDID(_account, _did);\r\n  }\r\n\r\n  function blackListUser(address _account) public {\r\n    removeWhitelisted(_account);\r\n  }\r\n  \r\n}\r\n",
  "sourcePath": "/Users/hadar/workspace/GoodDollar/GoodBootstrap/packages/contracts/contracts/Identity.sol",
  "compiler": {
    "name": "solc",
    "version": "0.5.2+commit.1df8f40c.Emscripten.clang"
  },
  "schemaVersion": "3.0.10",
  "updatedAt": "2019-09-24T20:42:35.550Z",
  "devdoc": {
    "methods": {
      "isVerified(address)": {
        "return": "if the user is whitelisted or not\r"
      }
    }
  },
  "userdoc": {
    "methods": {
      "renounceWhitelisted()": {
        "notice": "Removes the user from the whitelist, Removes the user DID from records, removes the DID hash to address mapping\r"
      }
    }
  }
}