{
  "contractName": "Identity",
  "abi": [
    {
      "constant": false,
      "inputs": [
        {
          "name": "_avatar",
          "type": "address"
        }
      ],
      "name": "setAvatar",
      "outputs": [],
      "payable": false,
      "stateMutability": "nonpayable",
      "type": "function"
    },
    {
      "constant": false,
      "inputs": [],
      "name": "renounceIdentityAdmin",
      "outputs": [],
      "payable": false,
      "stateMutability": "nonpayable",
      "type": "function"
    },
    {
      "constant": true,
      "inputs": [],
      "name": "isRegistered",
      "outputs": [],
      "payable": false,
      "stateMutability": "view",
      "type": "function"
    },
    {
      "constant": true,
      "inputs": [
        {
          "name": "",
          "type": "address"
        }
      ],
      "name": "addrToDID",
      "outputs": [
        {
          "name": "",
          "type": "string"
        }
      ],
      "payable": false,
      "stateMutability": "view",
      "type": "function"
    },
    {
      "constant": true,
      "inputs": [
        {
          "name": "",
          "type": "bytes32"
        }
      ],
      "name": "didHashToAddress",
      "outputs": [
        {
          "name": "",
          "type": "address"
        }
      ],
      "payable": false,
      "stateMutability": "view",
      "type": "function"
    },
    {
      "constant": false,
      "inputs": [],
      "name": "renounceOwnership",
      "outputs": [],
      "payable": false,
      "stateMutability": "nonpayable",
      "type": "function"
    },
    {
      "constant": false,
      "inputs": [
        {
          "name": "account",
          "type": "address"
        },
        {
          "name": "_avatar",
          "type": "address"
        }
      ],
      "name": "removeIdentityAdmin",
      "outputs": [
        {
          "name": "",
          "type": "bool"
        }
      ],
      "payable": false,
      "stateMutability": "nonpayable",
      "type": "function"
    },
    {
      "constant": true,
      "inputs": [],
      "name": "owner",
      "outputs": [
        {
          "name": "",
          "type": "address"
        }
      ],
      "payable": false,
      "stateMutability": "view",
      "type": "function"
    },
    {
      "constant": true,
      "inputs": [],
      "name": "isOwner",
      "outputs": [
        {
          "name": "",
          "type": "bool"
        }
      ],
      "payable": false,
      "stateMutability": "view",
      "type": "function"
    },
    {
      "constant": false,
      "inputs": [
        {
          "name": "account",
          "type": "address"
        },
        {
          "name": "_avatar",
          "type": "address"
        }
      ],
      "name": "addIdentityAdmin",
      "outputs": [
        {
          "name": "",
          "type": "bool"
        }
      ],
      "payable": false,
      "stateMutability": "nonpayable",
      "type": "function"
    },
    {
      "constant": true,
      "inputs": [
        {
          "name": "account",
          "type": "address"
        }
      ],
      "name": "isIdentityAdmin",
      "outputs": [
        {
          "name": "",
          "type": "bool"
        }
      ],
      "payable": false,
      "stateMutability": "view",
      "type": "function"
    },
    {
      "constant": false,
      "inputs": [
        {
          "name": "newOwner",
          "type": "address"
        }
      ],
      "name": "transferOwnership",
      "outputs": [],
      "payable": false,
      "stateMutability": "nonpayable",
      "type": "function"
    },
    {
      "inputs": [],
      "payable": false,
      "stateMutability": "nonpayable",
      "type": "constructor"
    },
    {
      "anonymous": false,
      "inputs": [
        {
          "indexed": true,
          "name": "account",
          "type": "address"
        }
      ],
      "name": "BlacklistAdded",
      "type": "event"
    },
    {
      "anonymous": false,
      "inputs": [
        {
          "indexed": true,
          "name": "account",
          "type": "address"
        }
      ],
      "name": "BlacklistRemoved",
      "type": "event"
    },
    {
      "anonymous": false,
      "inputs": [
        {
          "indexed": true,
          "name": "account",
          "type": "address"
        }
      ],
      "name": "ClaimerAdded",
      "type": "event"
    },
    {
      "anonymous": false,
      "inputs": [
        {
          "indexed": true,
          "name": "account",
          "type": "address"
        }
      ],
      "name": "ClaimerRemoved",
      "type": "event"
    },
    {
      "anonymous": false,
      "inputs": [
        {
          "indexed": true,
          "name": "account",
          "type": "address"
        }
      ],
      "name": "IdentityAdminAdded",
      "type": "event"
    },
    {
      "anonymous": false,
      "inputs": [
        {
          "indexed": true,
          "name": "account",
          "type": "address"
        }
      ],
      "name": "IdentityAdminRemoved",
      "type": "event"
    },
    {
      "anonymous": false,
      "inputs": [
        {
          "indexed": true,
          "name": "previousOwner",
          "type": "address"
        },
        {
          "indexed": true,
          "name": "newOwner",
          "type": "address"
        }
      ],
      "name": "OwnershipTransferred",
      "type": "event"
    },
    {
      "constant": false,
      "inputs": [
        {
          "name": "account",
          "type": "address"
        }
      ],
      "name": "addClaimer",
      "outputs": [],
      "payable": false,
      "stateMutability": "nonpayable",
      "type": "function"
    },
    {
      "constant": false,
      "inputs": [
        {
          "name": "account",
          "type": "address"
        },
        {
          "name": "did",
          "type": "string"
        }
      ],
      "name": "addClaimerWithDID",
      "outputs": [],
      "payable": false,
      "stateMutability": "nonpayable",
      "type": "function"
    },
    {
      "constant": false,
      "inputs": [
        {
          "name": "account",
          "type": "address"
        }
      ],
      "name": "removeClaimer",
      "outputs": [],
      "payable": false,
      "stateMutability": "nonpayable",
      "type": "function"
    },
    {
      "constant": false,
      "inputs": [],
      "name": "renounceClaimer",
      "outputs": [],
      "payable": false,
      "stateMutability": "nonpayable",
      "type": "function"
    },
    {
      "constant": true,
      "inputs": [
        {
          "name": "account",
          "type": "address"
        }
      ],
      "name": "isClaimer",
      "outputs": [
        {
          "name": "",
          "type": "bool"
        }
      ],
      "payable": false,
      "stateMutability": "view",
      "type": "function"
    },
    {
      "constant": true,
      "inputs": [],
      "name": "getClaimerCount",
      "outputs": [
        {
          "name": "",
          "type": "uint256"
        }
      ],
      "payable": false,
      "stateMutability": "view",
      "type": "function"
    },
    {
      "constant": true,
      "inputs": [
        {
          "name": "account",
          "type": "address"
        }
      ],
      "name": "wasAdded",
      "outputs": [
        {
          "name": "",
          "type": "uint256"
        }
      ],
      "payable": false,
      "stateMutability": "view",
      "type": "function"
    },
    {
      "constant": false,
      "inputs": [
        {
          "name": "account",
          "type": "address"
        }
      ],
      "name": "transferAccount",
      "outputs": [],
      "payable": false,
      "stateMutability": "nonpayable",
      "type": "function"
    },
    {
      "constant": false,
      "inputs": [
        {
          "name": "account",
          "type": "address"
        }
      ],
      "name": "addBlacklisted",
      "outputs": [],
      "payable": false,
      "stateMutability": "nonpayable",
      "type": "function"
    },
    {
      "constant": false,
      "inputs": [
        {
          "name": "account",
          "type": "address"
        }
      ],
      "name": "removeBlacklisted",
      "outputs": [],
      "payable": false,
      "stateMutability": "nonpayable",
      "type": "function"
    },
    {
      "constant": true,
      "inputs": [
        {
          "name": "account",
          "type": "address"
        }
      ],
      "name": "isBlacklisted",
      "outputs": [
        {
          "name": "",
          "type": "bool"
        }
      ],
      "payable": false,
      "stateMutability": "view",
      "type": "function"
    }
  ],
  "bytecode": "0x608060405260038054600160a060020a03191690553480156200002157600080fd5b5060008054600160a060020a0319163317808255604051600160a060020a03919091169082907f8be0079c531659141344cd1fd0a4f28419497f9722a3daafe3b4186f6b6457e0908290a3620000803364010000000062000168810204565b60028054600160a060020a031916600160a060020a03838116919091179182905516156200016157600260009054906101000a9004600160a060020a0316600160a060020a0316638da5cb5b6040518163ffffffff167c010000000000000000000000000000000000000000000000000000000002815260040160206040518083038186803b1580156200011357600080fd5b505afa15801562000128573d6000803e3d6000fd5b505050506040513d60208110156200013f57600080fd5b505160038054600160a060020a031916600160a060020a039092169190911790555b506200024d565b6200018360018264010000000062001689620001ba82021704565b604051600160a060020a038216907f3505858ac30c166c603cb64de4a970615e36a4ed8fea37ba93bc5f11a38dd30990600090a250565b600160a060020a0381161515620001d057600080fd5b620001e5828264010000000062000215810204565b15620001f057600080fd5b600160a060020a0316600090815260209190915260409020805460ff19166001179055565b6000600160a060020a03821615156200022d57600080fd5b50600160a060020a03166000908152602091909152604090205460ff1690565b611b68806200025d6000396000f3fe608060405234801561001057600080fd5b50600436106101515760003560e060020a900480638da5cb5b116100c7578063e0404dcd11610080578063e0404dcd14610478578063e4852b9b14610480578063e5ecaf59146104a6578063f0490b8a146104cc578063f2fde38b146104f2578063fe575a871461051857610151565b80638da5cb5b146103d45780638f32d59b146103dc5780638fc45ea3146103e4578063908f3a2f146103fe578063993d22261461042c578063c6a276c21461045257610151565b80632ea66401116101195780632ea66401146101ee57806354f9f7a31461021457806367c75937146102af578063715018a6146102e85780638209c21c146102f05780638bd60aa8146103a657610151565b8063086cfca8146101565780630f10a8b81461017e57806310a8aecd14610186578063188efc16146101c057806322366844146101e6575b600080fd5b61017c6004803603602081101561016c57600080fd5b5035600160a060020a031661053e565b005b61017c6107ba565b6101ac6004803603602081101561019c57600080fd5b5035600160a060020a03166107c5565b604080519115158252519081900360200190f35b61017c600480360360208110156101d657600080fd5b5035600160a060020a03166107de565b61017c61093c565b61017c6004803603602081101561020457600080fd5b5035600160a060020a0316610a67565b61023a6004803603602081101561022a57600080fd5b5035600160a060020a0316610b89565b6040805160208082528351818301528351919283929083019185019080838360005b8381101561027457818101518382015260200161025c565b50505050905090810190601f1680156102a15780820380516001836020036101000a031916815260200191505b509250505060405180910390f35b6102cc600480360360208110156102c557600080fd5b5035610c24565b60408051600160a060020a039092168252519081900360200190f35b61017c610c3f565b61017c6004803603604081101561030657600080fd5b600160a060020a03823516919081019060408101602082013564010000000081111561033157600080fd5b82018360208201111561034357600080fd5b8035906020019184600183028401116401000000008311171561036557600080fd5b91908080601f016020809104026020016040519081016040528093929190818152602001838380828437600092019190915250929550610ca9945050505050565b6101ac600480360360408110156103bc57600080fd5b50600160a060020a0381358116916020013516610e36565b6102cc610fff565b6101ac61100f565b6103ec611020565b60408051918252519081900360200190f35b6101ac6004803603604081101561041457600080fd5b50600160a060020a0381358116916020013516611026565b6103ec6004803603602081101561044257600080fd5b5035600160a060020a03166111e5565b61017c6004803603602081101561046857600080fd5b5035600160a060020a0316611200565b61017c61135e565b61017c6004803603602081101561049657600080fd5b5035600160a060020a0316611367565b6101ac600480360360208110156104bc57600080fd5b5035600160a060020a03166114a9565b61017c600480360360208110156104e257600080fd5b5035600160a060020a03166114bc565b61017c6004803603602081101561050857600080fd5b5035600160a060020a03166115db565b6101ac6004803603602081101561052e57600080fd5b5035600160a060020a03166115f7565b8033600160a060020a038216148015610638575030600160a060020a0316638da5cb5b6040518163ffffffff1660e060020a02815260040160206040518083038186803b15801561058e57600080fd5b505afa1580156105a2573d6000803e3d6000fd5b505050506040513d60208110156105b857600080fd5b50516040805160e060020a638da5cb5b0281529051600160a060020a0392831692841691638da5cb5b916004808301926020929190829003018186803b15801561060157600080fd5b505afa158015610615573d6000803e3d6000fd5b505050506040513d602081101561062b57600080fd5b5051600160a060020a0316145b806106b2575030600160a060020a0316638da5cb5b6040518163ffffffff1660e060020a02815260040160206040518083038186803b15801561067a57600080fd5b505afa15801561068e573d6000803e3d6000fd5b505050506040513d60208110156106a457600080fd5b5051600160a060020a031633145b15156106f25760405160e560020a62461bcd028152600401808060200182810382526029815260200180611af46029913960400191505060405180910390fd5b6002805473ffffffffffffffffffffffffffffffffffffffff1916600160a060020a0384811691909117918290556040805160e060020a638da5cb5b02815290519290911691638da5cb5b91600480820192602092909190829003018186803b15801561075e57600080fd5b505afa158015610772573d6000803e3d6000fd5b505050506040513d602081101561078857600080fd5b50516003805473ffffffffffffffffffffffffffffffffffffffff1916600160a060020a039092169190911790555050565b6107c33361160a565b565b60006107d860058363ffffffff61165216565b92915050565b6003546002546040805160e060020a639be2faed028152306004820152600160a060020a03928316602482015290519190921691639be2faed916044808301926020929190829003018186803b15801561083757600080fd5b505afa15801561084b573d6000803e3d6000fd5b505050506040513d602081101561086157600080fd5b505115156108a7576040805160e560020a62461bcd0281526020600482015260186024820152600080516020611ad4833981519152604482015290519081900360640190fd5b6108b0336114a9565b15156108f4576040805160e560020a62461bcd0281526020600482015260116024820152600080516020611b1d833981519152604482015290519081900360640190fd5b61090560048263ffffffff61168916565b604051600160a060020a038216907f44d5fe68b00f68950fb9c1ff0a61ef7f747b1a36359a7e3a7f3324db4b87896790600090a250565b600254600160a060020a0316151561099e576040805160e560020a62461bcd02815260206004820152601160248201527f417661746172206973206e6f7420736574000000000000000000000000000000604482015290519081900360640190fd5b6003546002546040805160e060020a639be2faed028152306004820152600160a060020a03928316602482015290519190921691639be2faed916044808301926020929190829003018186803b1580156109f757600080fd5b505afa158015610a0b573d6000803e3d6000fd5b505050506040513d6020811015610a2157600080fd5b505115156107c3576040805160e560020a62461bcd0281526020600482015260186024820152600080516020611ad4833981519152604482015290519081900360640190fd5b6003546002546040805160e060020a639be2faed028152306004820152600160a060020a03928316602482015290519190921691639be2faed916044808301926020929190829003018186803b158015610ac057600080fd5b505afa158015610ad4573d6000803e3d6000fd5b505050506040513d6020811015610aea57600080fd5b50511515610b30576040805160e560020a62461bcd0281526020600482015260186024820152600080516020611ad4833981519152604482015290519081900360640190fd5b610b39336114a9565b1515610b7d576040805160e560020a62461bcd0281526020600482015260116024820152600080516020611b1d833981519152604482015290519081900360640190fd5b610b86816116d7565b50565b60086020908152600091825260409182902080548351601f600260001961010060018616150201909316929092049182018490048402810184019094528084529091830182828015610c1c5780601f10610bf157610100808354040283529160200191610c1c565b820191906000526020600020905b815481529060010190602001808311610bff57829003601f168201915b505050505081565b600960205260009081526040902054600160a060020a031681565b610c4761100f565b1515610c5257600080fd5b60008054604051600160a060020a03909116907f8be0079c531659141344cd1fd0a4f28419497f9722a3daafe3b4186f6b6457e0908390a36000805473ffffffffffffffffffffffffffffffffffffffff19169055565b6003546002546040805160e060020a639be2faed028152306004820152600160a060020a03928316602482015290519190921691639be2faed916044808301926020929190829003018186803b158015610d0257600080fd5b505afa158015610d16573d6000803e3d6000fd5b505050506040513d6020811015610d2c57600080fd5b50511515610d72576040805160e560020a62461bcd0281526020600482015260186024820152600080516020611ad4833981519152604482015290519081900360640190fd5b610d7b336114a9565b1515610dbf576040805160e560020a62461bcd0281526020600482015260116024820152600080516020611b1d833981519152604482015290519081900360640190fd5b610dc8826116d7565b80516020808301918220600160a060020a03851660009081526008909252604090912083519192610df8926119fb565b506000908152600960205260409020805473ffffffffffffffffffffffffffffffffffffffff1916600160a060020a03939093169290921790915550565b60008133600160a060020a038216148015610f32575030600160a060020a0316638da5cb5b6040518163ffffffff1660e060020a02815260040160206040518083038186803b158015610e8857600080fd5b505afa158015610e9c573d6000803e3d6000fd5b505050506040513d6020811015610eb257600080fd5b50516040805160e060020a638da5cb5b0281529051600160a060020a0392831692841691638da5cb5b916004808301926020929190829003018186803b158015610efb57600080fd5b505afa158015610f0f573d6000803e3d6000fd5b505050506040513d6020811015610f2557600080fd5b5051600160a060020a0316145b80610fac575030600160a060020a0316638da5cb5b6040518163ffffffff1660e060020a02815260040160206040518083038186803b158015610f7457600080fd5b505afa158015610f88573d6000803e3d6000fd5b505050506040513d6020811015610f9e57600080fd5b5051600160a060020a031633145b1515610fec5760405160e560020a62461bcd028152600401808060200182810382526029815260200180611af46029913960400191505060405180910390fd5b610ff58461160a565b5060019392505050565b600054600160a060020a03165b90565b600054600160a060020a0316331490565b60065490565b60008133600160a060020a038216148015611122575030600160a060020a0316638da5cb5b6040518163ffffffff1660e060020a02815260040160206040518083038186803b15801561107857600080fd5b505afa15801561108c573d6000803e3d6000fd5b505050506040513d60208110156110a257600080fd5b50516040805160e060020a638da5cb5b0281529051600160a060020a0392831692841691638da5cb5b916004808301926020929190829003018186803b1580156110eb57600080fd5b505afa1580156110ff573d6000803e3d6000fd5b505050506040513d602081101561111557600080fd5b5051600160a060020a0316145b8061119c575030600160a060020a0316638da5cb5b6040518163ffffffff1660e060020a02815260040160206040518083038186803b15801561116457600080fd5b505afa158015611178573d6000803e3d6000fd5b505050506040513d602081101561118e57600080fd5b5051600160a060020a031633145b15156111dc5760405160e560020a62461bcd028152600401808060200182810382526029815260200180611af46029913960400191505060405180910390fd5b610ff584611736565b600160a060020a031660009081526007602052604090205490565b6003546002546040805160e060020a639be2faed028152306004820152600160a060020a03928316602482015290519190921691639be2faed916044808301926020929190829003018186803b15801561125957600080fd5b505afa15801561126d573d6000803e3d6000fd5b505050506040513d602081101561128357600080fd5b505115156112c9576040805160e560020a62461bcd0281526020600482015260186024820152600080516020611ad4833981519152604482015290519081900360640190fd5b6112d2336114a9565b1515611316576040805160e560020a62461bcd0281526020600482015260116024820152600080516020611b1d833981519152604482015290519081900360640190fd5b61132760048263ffffffff61177e16565b604051600160a060020a038216907f1747ca720b1a174a464b6513ace29b1d3190b5f632b9f34147017c81425bfde890600090a250565b6107c3336117ca565b611370816115f7565b156113c5576040805160e560020a62461bcd02815260206004820152601e60248201527f43616e6e6f74207472616e7366657220746f20626c61636b6c69737465640000604482015290519081900360640190fd5b3360009081526008602090815260409182902080548351601f600260001961010060018616150201909316929092049182018490048402810184019094528084526060939283018282801561145b5780601f106114305761010080835404028352916020019161145b565b820191906000526020600020905b81548152906001019060200180831161143e57829003601f168201915b50505050509050600081805190602001209050611477336117ca565b611480836116d7565b600160a060020a03831660009081526008602090815260409091208351610df8928501906119fb565b60006107d860018363ffffffff61165216565b6003546002546040805160e060020a639be2faed028152306004820152600160a060020a03928316602482015290519190921691639be2faed916044808301926020929190829003018186803b15801561151557600080fd5b505afa158015611529573d6000803e3d6000fd5b505050506040513d602081101561153f57600080fd5b50511515611585576040805160e560020a62461bcd0281526020600482015260186024820152600080516020611ad4833981519152604482015290519081900360640190fd5b61158e336114a9565b15156115d2576040805160e560020a62461bcd0281526020600482015260116024820152600080516020611b1d833981519152604482015290519081900360640190fd5b610b86816117ca565b6115e361100f565b15156115ee57600080fd5b610b8681611924565b60006107d860048363ffffffff61165216565b61161b60018263ffffffff61177e16565b604051600160a060020a038216907f869f6a5b4767d57c58d57f1ddf82e1516487f35944a19bf30a4a21bd35f6ad0590600090a250565b6000600160a060020a038216151561166957600080fd5b50600160a060020a03166000908152602091909152604090205460ff1690565b600160a060020a038116151561169e57600080fd5b6116a88282611652565b156116b257600080fd5b600160a060020a0316600090815260209190915260409020805460ff19166001179055565b6116e860058263ffffffff61168916565b6116f260016119a1565b600160a060020a038116600081815260076020526040808220429055517fff9a8f4e0a39755c20c899b46171e470382709479fce2aa1e388f95edfe017399190a250565b61174760018263ffffffff61168916565b604051600160a060020a038216907f3505858ac30c166c603cb64de4a970615e36a4ed8fea37ba93bc5f11a38dd30990600090a250565b600160a060020a038116151561179357600080fd5b61179d8282611652565b15156117a857600080fd5b600160a060020a0316600090815260209190915260409020805460ff19169055565b6117db60058263ffffffff61177e16565b6117e560016119ba565b600160a060020a03811660009081526008602090815260409182902080548351601f60026000196101006001861615020190931692909204918201849004840281018401909452808452606093928301828280156118845780601f1061185957610100808354040283529160200191611884565b820191906000526020600020905b81548152906001019060200180831161186757829003601f168201915b50508351602080860191909120600160a060020a03881660009081526007835260408082208290556008909352918220959650946118c6945092509050611a79565b600081815260096020526040808220805473ffffffffffffffffffffffffffffffffffffffff1916905551600160a060020a038516917f30acaa541089592567cd4ce36437c68778a43e66dc1a9e7031e4496faf45932591a2505050565b600160a060020a038116151561193957600080fd5b60008054604051600160a060020a03808516939216917f8be0079c531659141344cd1fd0a4f28419497f9722a3daafe3b4186f6b6457e091a36000805473ffffffffffffffffffffffffffffffffffffffff1916600160a060020a0392909216919091179055565b6006546119b4908263ffffffff6119cd16565b60065550565b6006546119b4908263ffffffff6119e616565b6000828201838110156119df57600080fd5b9392505050565b6000828211156119f557600080fd5b50900390565b828054600181600116156101000203166002900490600052602060002090601f016020900481019282601f10611a3c57805160ff1916838001178555611a69565b82800160010185558215611a69579182015b82811115611a69578251825591602001919060010190611a4e565b50611a75929150611ab9565b5090565b50805460018160011615610100020316600290046000825580601f10611a9f5750610b86565b601f016020900490600052602060002090810190610b8691905b61100c91905b80821115611a755760008155600101611abf56fe536368656d65206973206e6f74207265676973746572656400000000000000004f6e6c792063616c6c61626c6520627920617661746172206f66206f776e6572206f72206f776e65726e6f74204964656e7469747941646d696e000000000000000000000000000000a165627a7a72305820232c10e209e014e57da1c8aaa63e9a0335b6b70def7ad672d345f13f467cc9a50029",
  "source": "pragma solidity 0.5.4;\n\nimport \"openzeppelin-solidity/contracts/access/Roles.sol\";\nimport \"openzeppelin-solidity/contracts/math/SafeMath.sol\";\n\nimport \"@daostack/arc/contracts/controller/Avatar.sol\";\n\nimport \"../dao/schemes/SchemeGuard.sol\";\nimport \"./IdentityAdminRole.sol\";\n\n/* @title Identity contract responsible for whitelisting\n * and keeping track of amount of whitelisted users\n */\ncontract Identity is IdentityAdminRole, SchemeGuard {\n    using Roles for Roles.Role;\n    using SafeMath for uint256;\n\n    Roles.Role private blacklist;\n    Roles.Role private claimers;\n\n    uint256 private claimerCount;\n    mapping(address => uint) dateAdded;\n\n    mapping (address => string) public addrToDID;\n    mapping (bytes32 => address) public didHashToAddress;\n\n    event BlacklistAdded(address indexed account);\n    event BlacklistRemoved(address indexed account);\n \n    event ClaimerAdded(address indexed account);\n    event ClaimerRemoved(address indexed account);\n\n    constructor() public SchemeGuard(Avatar(0)) {}\n\n    /* @dev Adds an address as a claimer. Eligble for claiming UBI.\n     * Can only be called by Identity Administrators.\n     * @param account address to add as a claimer\n     */\n    function addClaimer(address account)\n        public\n        onlyRegistered\n        onlyIdentityAdmin\n    {\n        _addClaimer(account);\n    }\n\n    function addClaimerWithDID(address account, string memory did) \n        public\n        onlyRegistered\n        onlyIdentityAdmin \n    {\n        _addClaimer(account);\n\n        bytes32 pHash = keccak256(bytes(did));\n        addrToDID[account] = did;\n        didHashToAddress[pHash] = account;\n    }\n\n    /* @dev Removes an address as a claimer.\n     * Can only be called by Identity Administrators.\n     * @param account address to remove as a claimer\n     */\n    function removeClaimer(address account)\n        public\n        onlyRegistered\n        onlyIdentityAdmin\n    {\n        _removeClaimer(account);\n    }\n\n    function renounceClaimer() public {\n        _removeClaimer(msg.sender);\n    }\n\n    /* @dev Reverts if given address has not been added to claimers\n     * @param account the address to check\n     * @return a bool indicating weather the address is present in claimers\n     */\n    function isClaimer(address account)\n        public\n        view\n        returns (bool)\n    {\n        return claimers.has(account);\n    }\n\n    /* @dev Gets the amount of claimers\n     * @return a uint representing the current amount of claimers\n     */\n    function getClaimerCount()\n        public\n        view\n        returns (uint)\n    {\n        return claimerCount;\n    }\n\n    function wasAdded(address account) public view returns (uint) {\n        return dateAdded[account];\n    }\n\n    function transferAccount(address account) public {\n        require(!isBlacklisted(account), \"Cannot transfer to blacklisted\");\n\n        string memory did = addrToDID[msg.sender];\n        bytes32 pHash = keccak256(bytes(did));\n\n        _removeClaimer(msg.sender);\n        _addClaimer(account);\n\n        addrToDID[account] = did;\n        didHashToAddress[pHash] = account;\n    }\n\n    /* @dev Adds an address to blacklist.\n     * Can only be called by Identity Administrators.\n     * @param account address to add as blacklisted\n     */\n    function addBlacklisted(address account)\n        public\n        onlyRegistered\n        onlyIdentityAdmin\n    {\n        blacklist.add(account);\n        emit BlacklistAdded(account);\n    }\n\n    /* @dev Removes an address from blacklist\n     * Can only be called by Identity Administrators.\n     * @param account address to remove as blacklisted\n     */\n    function removeBlacklisted(address account)\n        public\n        onlyRegistered\n        onlyIdentityAdmin\n    {\n        blacklist.remove(account);\n        emit BlacklistRemoved(account);\n    }\n\n    function _addClaimer(address account) internal {\n        claimers.add(account);\n        \n        increaseClaimerCount(1);\n        dateAdded[account] = now;\n        \n        emit ClaimerAdded(account);\n    }\n\n    function _removeClaimer(address account) internal {\n        claimers.remove(account);\n\n        decreaseClaimerCount(1);\n\n        string memory did = addrToDID[account];\n        bytes32 pHash = keccak256(bytes(did));\n\n        delete dateAdded[account];\n        delete addrToDID[account];\n        delete didHashToAddress[pHash];\n\n        emit ClaimerRemoved(account);\n    }\n\n    /* @dev Reverts if given address has been added to the blacklist\n     * @param account the address to check\n     * @return a bool indicating weather the address is present in the blacklist\n     */\n    function isBlacklisted(address account)\n        public\n        view\n        returns (bool)\n    {\n        return blacklist.has(account);\n    }\n\n    /* @dev Internal function that increases count of whitelisted users by\n     * given amount\n     * @param value an uint with which the whitelisted count will increase by\n     */\n    function increaseClaimerCount(uint value)\n        internal\n    {\n        claimerCount = claimerCount.add(value);\n    }\n\n    /* @dev Internal function that decreases count of whitelisted users by\n     * given amount\n     * @param value an uint with which the whitelisted count will increase by\n     */\n    function decreaseClaimerCount(uint value)\n        internal\n    {\n        claimerCount = claimerCount.sub(value);\n    }\n}",
  "sourcePath": "/Users/madsjorgensen/Documents/Work/GoodContracts/contracts/identity/Identity.sol",
  "compiler": {
    "name": "solc",
    "version": "0.5.4+commit.9549d8ff.Emscripten.clang"
  },
  "schemaVersion": "3.0.11",
  "updatedAt": "2019-09-20T12:15:12.506Z",
  "devdoc": {
    "methods": {
      "addIdentityAdmin(address,address)": {
        "details": "Adds a identity admin account. Is only callable by owner.\r",
        "params": {
          "account": "Address to be added\r"
        }
      },
      "isIdentityAdmin(address)": {
        "details": "Checks if account is identity admin\r",
        "params": {
          "account": "Account to check\r"
        },
        "return": "Boolean indicating if account is identity admin\r"
      },
      "isOwner()": {
        "return": "true if `msg.sender` is the owner of the contract."
      },
      "owner()": {
        "return": "the address of the owner."
      },
      "removeIdentityAdmin(address,address)": {
        "details": "Removes a identity admin account. Is only callable by owner.\r",
        "params": {
          "account": "Address to be removed\r"
        }
      },
      "renounceIdentityAdmin()": {
        "details": "Allows a privileged holder to renounce their role "
      },
      "renounceOwnership()": {
        "details": "Allows the current owner to relinquish control of the contract."
      },
      "transferOwnership(address)": {
        "details": "Allows the current owner to transfer control of the contract to a newOwner.",
        "params": {
          "newOwner": "The address to transfer ownership to."
        }
      }
    }
  },
  "userdoc": {
    "methods": {
      "renounceOwnership()": {
        "notice": "Renouncing to ownership will leave the contract without an owner. It will not be possible to call the functions with the `onlyOwner` modifier anymore."
      }
    }
  }
}