{
  "contractName": "Identity",
  "abi": [
    {
      "constant": true,
      "inputs": [],
      "name": "whiteListedUserCount",
      "outputs": [
        {
          "name": "",
          "type": "uint8"
        }
      ],
      "payable": false,
      "stateMutability": "view",
      "type": "function",
      "signature": "0x58e0bef4"
    },
    {
      "constant": false,
      "inputs": [],
      "name": "renounceOwnership",
      "outputs": [],
      "payable": false,
      "stateMutability": "nonpayable",
      "type": "function",
      "signature": "0x715018a6"
    },
    {
      "constant": true,
      "inputs": [],
      "name": "owner",
      "outputs": [
        {
          "name": "",
          "type": "address"
        }
      ],
      "payable": false,
      "stateMutability": "view",
      "type": "function",
      "signature": "0x8da5cb5b"
    },
    {
      "constant": true,
      "inputs": [],
      "name": "isOwner",
      "outputs": [
        {
          "name": "",
          "type": "bool"
        }
      ],
      "payable": false,
      "stateMutability": "view",
      "type": "function",
      "signature": "0x8f32d59b"
    },
    {
      "constant": false,
      "inputs": [
        {
          "name": "newOwner",
          "type": "address"
        }
      ],
      "name": "transferOwnership",
      "outputs": [],
      "payable": false,
      "stateMutability": "nonpayable",
      "type": "function",
      "signature": "0xf2fde38b"
    },
    {
      "inputs": [],
      "payable": false,
      "stateMutability": "nonpayable",
      "type": "constructor",
      "signature": "constructor"
    },
    {
      "anonymous": false,
      "inputs": [
        {
          "indexed": true,
          "name": "previousOwner",
          "type": "address"
        },
        {
          "indexed": true,
          "name": "newOwner",
          "type": "address"
        }
      ],
      "name": "OwnershipTransferred",
      "type": "event",
      "signature": "0x8be0079c531659141344cd1fd0a4f28419497f9722a3daafe3b4186f6b6457e0"
    },
    {
      "constant": true,
      "inputs": [
        {
          "name": "_account",
          "type": "address"
        }
      ],
      "name": "checkUser",
      "outputs": [
        {
          "name": "",
          "type": "bool"
        }
      ],
      "payable": false,
      "stateMutability": "view",
      "type": "function",
      "signature": "0x1e9d48cf"
    },
    {
      "constant": false,
      "inputs": [
        {
          "name": "_account",
          "type": "address"
        }
      ],
      "name": "whiteListUser",
      "outputs": [
        {
          "name": "",
          "type": "bool"
        }
      ],
      "payable": false,
      "stateMutability": "nonpayable",
      "type": "function",
      "signature": "0x1536ca40"
    }
  ],
  "bytecode": "0x608060405234801561001057600080fd5b5060008054600160a060020a0319163317808255604051600160a060020a039190911691907f8be0079c531659141344cd1fd0a4f28419497f9722a3daafe3b4186f6b6457e0908290a36002805460ff1990811660019081179092553360009081526020839052604090208054909116909117905561038f806100946000396000f3fe6080604052600436106100825763ffffffff7c01000000000000000000000000000000000000000000000000000000006000350416631536ca4081146100875780631e9d48cf146100ce57806358e0bef414610101578063715018a61461012c5780638da5cb5b146101435780638f32d59b14610174578063f2fde38b14610189575b600080fd5b34801561009357600080fd5b506100ba600480360360208110156100aa57600080fd5b5035600160a060020a03166101bc565b604080519115158252519081900360200190f35b3480156100da57600080fd5b506100ba600480360360208110156100f157600080fd5b5035600160a060020a0316610216565b34801561010d57600080fd5b50610116610234565b6040805160ff9092168252519081900360200190f35b34801561013857600080fd5b5061014161023d565b005b34801561014f57600080fd5b506101586102a7565b60408051600160a060020a039092168252519081900360200190f35b34801561018057600080fd5b506100ba6102b6565b34801561019557600080fd5b50610141600480360360208110156101ac57600080fd5b5035600160a060020a03166102c7565b6000806101c833610216565b90508015156101d657600080fd5b5050600160a060020a03166000908152600160208190526040909120805460ff1990811683179091556002805460ff808216850116921691909117905590565b600160a060020a031660009081526001602052604090205460ff1690565b60025460ff1681565b6102456102b6565b151561025057600080fd5b60008054604051600160a060020a03909116907f8be0079c531659141344cd1fd0a4f28419497f9722a3daafe3b4186f6b6457e0908390a36000805473ffffffffffffffffffffffffffffffffffffffff19169055565b600054600160a060020a031690565b600054600160a060020a0316331490565b6102cf6102b6565b15156102da57600080fd5b6102e3816102e6565b50565b600160a060020a03811615156102fb57600080fd5b60008054604051600160a060020a03808516939216917f8be0079c531659141344cd1fd0a4f28419497f9722a3daafe3b4186f6b6457e091a36000805473ffffffffffffffffffffffffffffffffffffffff1916600160a060020a039290921691909117905556fea165627a7a72305820de763243b485757417635f8c2803f9a0d7f5199d26ac2539940733e197eeebdd0029",
  "source": "pragma solidity ^0.5.0;\r\n\r\nimport 'openzeppelin-solidity/contracts/ownership/Ownable.sol';\r\n\r\ncontract Identity is Ownable {\r\n    mapping(address => bool) private white_listed;\r\n\r\n    uint8 public whiteListedUserCount;\r\n\r\n\r\n    constructor() public {\r\n        whiteListedUserCount = 1;\r\n        white_listed[msg.sender] = true;\r\n    }\r\n\r\n    modifier whiteListed() {\r\n        bool check = checkUser(msg.sender);\r\n        require(check);\r\n        _;\r\n    }   \r\n    \r\n    function checkUser(\r\n        address _account\r\n    ) public view returns(bool) {\r\n        return white_listed[_account];\r\n    }\r\n\r\n    /*\r\n        whitelisted users can white list others.\r\n    */\r\n    function whiteListUser(\r\n        address _account\r\n    ) public whiteListed returns(bool) {\r\n        white_listed[_account] = true;\r\n        whiteListedUserCount = whiteListedUserCount + 1;\r\n        return true;\r\n    }\r\n\r\n     \r\n}\r\n",
  "sourcePath": "C:\\Users\\hadarro\\Documents\\GoodDollar\\GoodContracts\\contracts\\Identity.sol",
  "compiler": {
    "name": "solc",
    "version": "0.5.0+commit.1d4f565a.Emscripten.clang"
  },
  "schemaVersion": "3.0.1",
  "updatedAt": "2019-01-24T12:00:15.449Z",
  "devdoc": {
    "methods": {
      "isOwner()": {
        "return": "true if `msg.sender` is the owner of the contract."
      },
      "owner()": {
        "return": "the address of the owner."
      },
      "renounceOwnership()": {
        "details": "Allows the current owner to relinquish control of the contract."
      },
      "transferOwnership(address)": {
        "details": "Allows the current owner to transfer control of the contract to a newOwner.",
        "params": {
          "newOwner": "The address to transfer ownership to."
        }
      }
    }
  },
  "userdoc": {
    "methods": {
      "renounceOwnership()": {
        "notice": "Renouncing to ownership will leave the contract without an owner. It will not be possible to call the functions with the `onlyOwner` modifier anymore."
      }
    }
  }
}