{
  "contractName": "Identity",
  "abi": [
    {
      "constant": false,
      "inputs": [
        {
          "name": "_avatar",
          "type": "address"
        }
      ],
      "name": "setAvatar",
      "outputs": [],
      "payable": false,
      "stateMutability": "nonpayable",
      "type": "function"
    },
    {
      "constant": false,
      "inputs": [],
      "name": "renounceIdentityAdmin",
      "outputs": [],
      "payable": false,
      "stateMutability": "nonpayable",
      "type": "function"
    },
    {
      "constant": true,
      "inputs": [],
      "name": "isRegistered",
      "outputs": [
        {
          "name": "",
          "type": "bool"
        }
      ],
      "payable": false,
      "stateMutability": "view",
      "type": "function"
    },
    {
      "constant": false,
      "inputs": [
        {
          "name": "account",
          "type": "address"
        }
      ],
      "name": "addIdentityAdmin",
      "outputs": [
        {
          "name": "",
          "type": "bool"
        }
      ],
      "payable": false,
      "stateMutability": "nonpayable",
      "type": "function"
    },
    {
      "constant": true,
      "inputs": [
        {
          "name": "",
          "type": "address"
        }
      ],
      "name": "dateAdded",
      "outputs": [
        {
          "name": "",
          "type": "uint256"
        }
      ],
      "payable": false,
      "stateMutability": "view",
      "type": "function"
    },
    {
      "constant": false,
      "inputs": [],
      "name": "unpause",
      "outputs": [],
      "payable": false,
      "stateMutability": "nonpayable",
      "type": "function"
    },
    {
      "constant": true,
      "inputs": [
        {
          "name": "account",
          "type": "address"
        }
      ],
      "name": "isPauser",
      "outputs": [
        {
          "name": "",
          "type": "bool"
        }
      ],
      "payable": false,
      "stateMutability": "view",
      "type": "function"
    },
    {
      "constant": true,
      "inputs": [
        {
          "name": "",
          "type": "address"
        }
      ],
      "name": "addrToDID",
      "outputs": [
        {
          "name": "",
          "type": "string"
        }
      ],
      "payable": false,
      "stateMutability": "view",
      "type": "function"
    },
    {
      "constant": true,
      "inputs": [],
      "name": "paused",
      "outputs": [
        {
          "name": "",
          "type": "bool"
        }
      ],
      "payable": false,
      "stateMutability": "view",
      "type": "function"
    },
    {
      "constant": true,
      "inputs": [
        {
          "name": "",
          "type": "bytes32"
        }
      ],
      "name": "didHashToAddress",
      "outputs": [
        {
          "name": "",
          "type": "address"
        }
      ],
      "payable": false,
      "stateMutability": "view",
      "type": "function"
    },
    {
      "constant": false,
      "inputs": [],
      "name": "renouncePauser",
      "outputs": [],
      "payable": false,
      "stateMutability": "nonpayable",
      "type": "function"
    },
    {
      "constant": false,
      "inputs": [],
      "name": "renounceOwnership",
      "outputs": [],
      "payable": false,
      "stateMutability": "nonpayable",
      "type": "function"
    },
    {
      "constant": false,
      "inputs": [
        {
          "name": "account",
          "type": "address"
        }
      ],
      "name": "addPauser",
      "outputs": [],
      "payable": false,
      "stateMutability": "nonpayable",
      "type": "function"
    },
    {
      "constant": false,
      "inputs": [],
      "name": "pause",
      "outputs": [],
      "payable": false,
      "stateMutability": "nonpayable",
      "type": "function"
    },
    {
      "constant": true,
      "inputs": [],
      "name": "owner",
      "outputs": [
        {
          "name": "",
          "type": "address"
        }
      ],
      "payable": false,
      "stateMutability": "view",
      "type": "function"
    },
    {
      "constant": true,
      "inputs": [],
      "name": "isOwner",
      "outputs": [
        {
          "name": "",
          "type": "bool"
        }
      ],
      "payable": false,
      "stateMutability": "view",
      "type": "function"
    },
    {
      "constant": true,
      "inputs": [],
      "name": "whitelistedCount",
      "outputs": [
        {
          "name": "",
          "type": "uint256"
        }
      ],
      "payable": false,
      "stateMutability": "view",
      "type": "function"
    },
    {
      "constant": true,
      "inputs": [],
      "name": "whitelistedContracts",
      "outputs": [
        {
          "name": "",
          "type": "uint256"
        }
      ],
      "payable": false,
      "stateMutability": "view",
      "type": "function"
    },
    {
      "constant": true,
      "inputs": [
        {
          "name": "account",
          "type": "address"
        }
      ],
      "name": "isIdentityAdmin",
      "outputs": [
        {
          "name": "",
          "type": "bool"
        }
      ],
      "payable": false,
      "stateMutability": "view",
      "type": "function"
    },
    {
      "constant": false,
      "inputs": [
        {
          "name": "newOwner",
          "type": "address"
        }
      ],
      "name": "transferOwnership",
      "outputs": [],
      "payable": false,
      "stateMutability": "nonpayable",
      "type": "function"
    },
    {
      "constant": false,
      "inputs": [
        {
          "name": "account",
          "type": "address"
        }
      ],
      "name": "removeIdentityAdmin",
      "outputs": [
        {
          "name": "",
          "type": "bool"
        }
      ],
      "payable": false,
      "stateMutability": "nonpayable",
      "type": "function"
    },
    {
      "inputs": [],
      "payable": false,
      "stateMutability": "nonpayable",
      "type": "constructor"
    },
    {
      "anonymous": false,
      "inputs": [
        {
          "indexed": true,
          "name": "account",
          "type": "address"
        }
      ],
      "name": "BlacklistAdded",
      "type": "event"
    },
    {
      "anonymous": false,
      "inputs": [
        {
          "indexed": true,
          "name": "account",
          "type": "address"
        }
      ],
      "name": "BlacklistRemoved",
      "type": "event"
    },
    {
      "anonymous": false,
      "inputs": [
        {
          "indexed": true,
          "name": "account",
          "type": "address"
        }
      ],
      "name": "WhitelistedAdded",
      "type": "event"
    },
    {
      "anonymous": false,
      "inputs": [
        {
          "indexed": true,
          "name": "account",
          "type": "address"
        }
      ],
      "name": "WhitelistedRemoved",
      "type": "event"
    },
    {
      "anonymous": false,
      "inputs": [
        {
          "indexed": true,
          "name": "account",
          "type": "address"
        }
      ],
      "name": "ContractAdded",
      "type": "event"
    },
    {
      "anonymous": false,
      "inputs": [
        {
          "indexed": true,
          "name": "account",
          "type": "address"
        }
      ],
      "name": "ContractRemoved",
      "type": "event"
    },
    {
      "anonymous": false,
      "inputs": [
        {
          "indexed": false,
          "name": "account",
          "type": "address"
        }
      ],
      "name": "Paused",
      "type": "event"
    },
    {
      "anonymous": false,
      "inputs": [
        {
          "indexed": false,
          "name": "account",
          "type": "address"
        }
      ],
      "name": "Unpaused",
      "type": "event"
    },
    {
      "anonymous": false,
      "inputs": [
        {
          "indexed": true,
          "name": "account",
          "type": "address"
        }
      ],
      "name": "PauserAdded",
      "type": "event"
    },
    {
      "anonymous": false,
      "inputs": [
        {
          "indexed": true,
          "name": "account",
          "type": "address"
        }
      ],
      "name": "PauserRemoved",
      "type": "event"
    },
    {
      "anonymous": false,
      "inputs": [
        {
          "indexed": true,
          "name": "account",
          "type": "address"
        }
      ],
      "name": "IdentityAdminAdded",
      "type": "event"
    },
    {
      "anonymous": false,
      "inputs": [
        {
          "indexed": true,
          "name": "account",
          "type": "address"
        }
      ],
      "name": "IdentityAdminRemoved",
      "type": "event"
    },
    {
      "anonymous": false,
      "inputs": [
        {
          "indexed": true,
          "name": "previousOwner",
          "type": "address"
        },
        {
          "indexed": true,
          "name": "newOwner",
          "type": "address"
        }
      ],
      "name": "OwnershipTransferred",
      "type": "event"
    },
    {
      "constant": false,
      "inputs": [
        {
          "name": "account",
          "type": "address"
        }
      ],
      "name": "addWhitelisted",
      "outputs": [],
      "payable": false,
      "stateMutability": "nonpayable",
      "type": "function"
    },
    {
      "constant": false,
      "inputs": [
        {
          "name": "account",
          "type": "address"
        },
        {
          "name": "did",
          "type": "string"
        }
      ],
      "name": "addWhitelistedWithDID",
      "outputs": [],
      "payable": false,
      "stateMutability": "nonpayable",
      "type": "function"
    },
    {
      "constant": false,
      "inputs": [
        {
          "name": "account",
          "type": "address"
        }
      ],
      "name": "removeWhitelisted",
      "outputs": [],
      "payable": false,
      "stateMutability": "nonpayable",
      "type": "function"
    },
    {
      "constant": false,
      "inputs": [],
      "name": "renounceWhitelisted",
      "outputs": [],
      "payable": false,
      "stateMutability": "nonpayable",
      "type": "function"
    },
    {
      "constant": true,
      "inputs": [
        {
          "name": "account",
          "type": "address"
        }
      ],
      "name": "isWhitelisted",
      "outputs": [
        {
          "name": "",
          "type": "bool"
        }
      ],
      "payable": false,
      "stateMutability": "view",
      "type": "function"
    },
    {
      "constant": true,
      "inputs": [
        {
          "name": "account",
          "type": "address"
        }
      ],
      "name": "wasAdded",
      "outputs": [
        {
          "name": "",
          "type": "uint256"
        }
      ],
      "payable": false,
      "stateMutability": "view",
      "type": "function"
    },
    {
      "constant": false,
      "inputs": [
        {
          "name": "account",
          "type": "address"
        }
      ],
      "name": "transferAccount",
      "outputs": [],
      "payable": false,
      "stateMutability": "nonpayable",
      "type": "function"
    },
    {
      "constant": false,
      "inputs": [
        {
          "name": "account",
          "type": "address"
        }
      ],
      "name": "addBlacklisted",
      "outputs": [],
      "payable": false,
      "stateMutability": "nonpayable",
      "type": "function"
    },
    {
      "constant": false,
      "inputs": [
        {
          "name": "account",
          "type": "address"
        }
      ],
      "name": "removeBlacklisted",
      "outputs": [],
      "payable": false,
      "stateMutability": "nonpayable",
      "type": "function"
    },
    {
      "constant": false,
      "inputs": [
        {
          "name": "account",
          "type": "address"
        }
      ],
      "name": "addContract",
      "outputs": [],
      "payable": false,
      "stateMutability": "nonpayable",
      "type": "function"
    },
    {
      "constant": false,
      "inputs": [
        {
          "name": "account",
          "type": "address"
        }
      ],
      "name": "removeContract",
      "outputs": [],
      "payable": false,
      "stateMutability": "nonpayable",
      "type": "function"
    },
    {
      "constant": true,
      "inputs": [
        {
          "name": "account",
          "type": "address"
        }
      ],
      "name": "isDAOContract",
      "outputs": [
        {
          "name": "",
          "type": "bool"
        }
      ],
      "payable": false,
      "stateMutability": "view",
      "type": "function"
    },
    {
      "constant": true,
      "inputs": [
        {
          "name": "account",
          "type": "address"
        }
      ],
      "name": "isBlacklisted",
      "outputs": [
        {
          "name": "",
          "type": "bool"
        }
      ],
      "payable": false,
      "stateMutability": "view",
      "type": "function"
    }
  ],
  "bytecode": "0x608060405260038054600160a060020a031916905560006009819055600a553480156200002b57600080fd5b5060008054600160a060020a0319163317808255604051600160a060020a03919091169082907f8be0079c531659141344cd1fd0a4f28419497f9722a3daafe3b4186f6b6457e0908290a36200008a3364010000000062000190810204565b60028054600160a060020a031916600160a060020a03838116919091179182905516156200016b57600260009054906101000a9004600160a060020a0316600160a060020a0316638da5cb5b6040518163ffffffff167c010000000000000000000000000000000000000000000000000000000002815260040160206040518083038186803b1580156200011d57600080fd5b505afa15801562000132573d6000803e3d6000fd5b505050506040513d60208110156200014957600080fd5b505160038054600160a060020a031916600160a060020a039092169190911790555b506200018033640100000000620001e2810204565b6005805460ff19169055620002c7565b620001ab600182640100000000620018a36200023482021704565b604051600160a060020a038216907f3505858ac30c166c603cb64de4a970615e36a4ed8fea37ba93bc5f11a38dd30990600090a250565b620001fd600482640100000000620018a36200023482021704565b604051600160a060020a038216907f6719d08c1888103bea251a4ed56406bd0c3e69723c8a1686e017e7bbe159b6f890600090a250565b600160a060020a03811615156200024a57600080fd5b6200025f82826401000000006200028f810204565b156200026a57600080fd5b600160a060020a0316600090815260209190915260409020805460ff19166001179055565b6000600160a060020a0382161515620002a757600080fd5b50600160a060020a03166000908152602091909152604090205460ff1690565b611e5f80620002d76000396000f3fe608060405234801561001057600080fd5b5060043610610223576000357c010000000000000000000000000000000000000000000000000000000090048063715018a611610137578063c375c2ef116100ca578063e4852b9b11610099578063e4852b9b1461064e578063e5ecaf5914610674578063f2fde38b1461069a578063f7d7f9cc146106c0578063fe575a87146106e657610223565b8063c375c2ef146105d4578063c6a276c2146105fa578063c73cc4ae14610620578063d6cd94731461064657610223565b80638f32d59b116101065780638f32d59b14610596578063993d22261461059e578063b2a1de22146105c4578063b30f7e7f146105cc57610223565b8063715018a61461055857806382dc1ec4146105605780638456cb59146105865780638da5cb5b1461058e57610223565b80632bc298ac116101ba57806354f9f7a31161018957806354f9f7a31461044e5780635c975abb146104e95780635f539d69146104f157806367c75937146105175780636ef8d66d1461055057610223565b80632bc298ac146103c25780633af32abf146103fa5780633f4ba83a1461042057806346fbf68e1461042857610223565b80631b027099116101f65780631b027099146102a4578063223668441461035a578063291d9549146103765780632b32e46c1461039c57610223565b8063086cfca8146102285780630f10a8b81461025057806310154bad14610258578063188efc161461027e575b600080fd5b61024e6004803603602081101561023e57600080fd5b5035600160a060020a031661070c565b005b61024e6107e2565b61024e6004803603602081101561026e57600080fd5b5035600160a060020a03166107ed565b61024e6004803603602081101561029457600080fd5b5035600160a060020a03166108a2565b61024e600480360360408110156102ba57600080fd5b600160a060020a0382351691908101906040810160208201356401000000008111156102e557600080fd5b8201836020820111156102f757600080fd5b8035906020019184600183028401116401000000008311171561031957600080fd5b91908080601f016020809104026020016040519081016040528093929190818152602001838380828437600092019190915250929550610993945050505050565b610362610a4a565b604080519115158252519081900360200190f35b61024e6004803603602081101561038c57600080fd5b5035600160a060020a0316610b5f565b610362600480360360208110156103b257600080fd5b5035600160a060020a0316610c11565b6103e8600480360360208110156103d857600080fd5b5035600160a060020a0316610c37565b60408051918252519081900360200190f35b6103626004803603602081101561041057600080fd5b5035600160a060020a0316610c49565b61024e610c62565b6103626004803603602081101561043e57600080fd5b5035600160a060020a0316610cc6565b6104746004803603602081101561046457600080fd5b5035600160a060020a0316610cd9565b6040805160208082528351818301528351919283929083019185019080838360005b838110156104ae578181015183820152602001610496565b50505050905090810190601f1680156104db5780820380516001836020036101000a031916815260200191505b509250505060405180910390f35b610362610d74565b61024e6004803603602081101561050757600080fd5b5035600160a060020a0316610d7d565b6105346004803603602081101561052d57600080fd5b5035610ed6565b60408051600160a060020a039092168252519081900360200190f35b61024e610ef1565b61024e610efa565b61024e6004803603602081101561057657600080fd5b5035600160a060020a0316610f57565b61024e610f74565b610534610fda565b610362610fe9565b6103e8600480360360208110156105b457600080fd5b5035600160a060020a0316610ffa565b6103e8611015565b6103e861101b565b61024e600480360360208110156105ea57600080fd5b5035600160a060020a0316611021565b61024e6004803603602081101561061057600080fd5b5035600160a060020a031661111b565b6103626004803603602081101561063657600080fd5b5035600160a060020a031661120c565b61024e61121f565b61024e6004803603602081101561066457600080fd5b5035600160a060020a0316611238565b6103626004803603602081101561068a57600080fd5b5035600160a060020a0316611777565b61024e600480360360208110156106b057600080fd5b5035600160a060020a031661178a565b610362600480360360208110156106d657600080fd5b5035600160a060020a03166117a6565b610362600480360360208110156106fc57600080fd5b5035600160a060020a03166117c4565b610714610fe9565b151561071f57600080fd5b60028054600160a060020a031916600160a060020a038381169190911791829055604080517f8da5cb5b00000000000000000000000000000000000000000000000000000000815290519290911691638da5cb5b91600480820192602092909190829003018186803b15801561079457600080fd5b505afa1580156107a8573d6000803e3d6000fd5b505050506040513d60208110156107be57600080fd5b505160038054600160a060020a031916600160a060020a0390921691909117905550565b6107eb336117d7565b565b6107f5610a4a565b1515610839576040805160e560020a62461bcd0281526020600482015260186024820152600080516020611df4833981519152604482015290519081900360640190fd5b61084233611777565b1515610886576040805160e560020a62461bcd0281526020600482015260116024820152600080516020611e14833981519152604482015290519081900360640190fd5b60055460ff161561089657600080fd5b61089f8161181f565b50565b6108aa610a4a565b15156108ee576040805160e560020a62461bcd0281526020600482015260186024820152600080516020611df4833981519152604482015290519081900360640190fd5b6108f733611777565b151561093b576040805160e560020a62461bcd0281526020600482015260116024820152600080516020611e14833981519152604482015290519081900360640190fd5b60055460ff161561094b57600080fd5b61095c60068263ffffffff6118a316565b604051600160a060020a038216907f44d5fe68b00f68950fb9c1ff0a61ef7f747b1a36359a7e3a7f3324db4b87896790600090a250565b61099b610a4a565b15156109df576040805160e560020a62461bcd0281526020600482015260186024820152600080516020611df4833981519152604482015290519081900360640190fd5b6109e833611777565b1515610a2c576040805160e560020a62461bcd0281526020600482015260116024820152600080516020611e14833981519152604482015290519081900360640190fd5b60055460ff1615610a3c57600080fd5b610a4682826118f1565b5050565b600254600090600160a060020a03161515610aaf576040805160e560020a62461bcd02815260206004820152601160248201527f417661746172206973206e6f7420736574000000000000000000000000000000604482015290519081900360640190fd5b600354600254604080517f9be2faed000000000000000000000000000000000000000000000000000000008152306004820152600160a060020a03928316602482015290519190921691639be2faed916044808301926020929190829003018186803b158015610b1e57600080fd5b505afa158015610b32573d6000803e3d6000fd5b505050506040513d6020811015610b4857600080fd5b50511515610b5857506000610b5c565b5060015b90565b610b67610a4a565b1515610bab576040805160e560020a62461bcd0281526020600482015260186024820152600080516020611df4833981519152604482015290519081900360640190fd5b610bb433611777565b1515610bf8576040805160e560020a62461bcd0281526020600482015260116024820152600080516020611e14833981519152604482015290519081900360640190fd5b60055460ff1615610c0857600080fd5b61089f816119c9565b6000610c1b610fe9565b1515610c2657600080fd5b610c2f82611b48565b506001919050565b600b6020526000908152604090205481565b6000610c5c60078363ffffffff611b9016565b92915050565b610c6b33610cc6565b1515610c7657600080fd5b60055460ff161515610c8757600080fd5b6005805460ff191690556040805133815290517f5db9ee0a495bf2e6ff9c91a7834c1ba4fdd244a5e8aa4e537bd38aeae4b073aa9181900360200190a1565b6000610c5c60048363ffffffff611b9016565b600c6020908152600091825260409182902080548351601f600260001961010060018616150201909316929092049182018490048402810184019094528084529091830182828015610d6c5780601f10610d4157610100808354040283529160200191610d6c565b820191906000526020600020905b815481529060010190602001808311610d4f57829003601f168201915b505050505081565b60055460ff1690565b610d85610a4a565b1515610dc9576040805160e560020a62461bcd0281526020600482015260186024820152600080516020611df4833981519152604482015290519081900360640190fd5b610dd233611777565b1515610e16576040805160e560020a62461bcd0281526020600482015260116024820152600080516020611e14833981519152604482015290519081900360640190fd5b60055460ff1615610e2657600080fd5b610e2f81611bc7565b1515610e85576040805160e560020a62461bcd02815260206004820152601f60248201527f476976656e2061646472657373206973206e6f74206120636f6e747261637400604482015290519081900360640190fd5b610e9660088263ffffffff6118a316565b610e9f8161181f565b604051600160a060020a038216907f89c66952b48f3e96bf1d8ba1b63189520fd988a6979b8b740bd5c5d8dc53e20590600090a250565b600d60205260009081526040902054600160a060020a031681565b6107eb33611bcf565b610f02610fe9565b1515610f0d57600080fd5b60008054604051600160a060020a03909116907f8be0079c531659141344cd1fd0a4f28419497f9722a3daafe3b4186f6b6457e0908390a360008054600160a060020a0319169055565b610f6033610cc6565b1515610f6b57600080fd5b61089f81611c17565b610f7d33610cc6565b1515610f8857600080fd5b60055460ff1615610f9857600080fd5b6005805460ff191660011790556040805133815290517f62e78cea01bee320cd4e420270b5ea74000d11b0c9f74754ebdbfc544b05a2589181900360200190a1565b600054600160a060020a031690565b600054600160a060020a0316331490565b600160a060020a03166000908152600b602052604090205490565b60095481565b600a5481565b611029610a4a565b151561106d576040805160e560020a62461bcd0281526020600482015260186024820152600080516020611df4833981519152604482015290519081900360640190fd5b61107633611777565b15156110ba576040805160e560020a62461bcd0281526020600482015260116024820152600080516020611e14833981519152604482015290519081900360640190fd5b60055460ff16156110ca57600080fd5b6110db60088263ffffffff611c5f16565b6110e4816119c9565b604051600160a060020a038216907f8d30d41865a0b811b9545d879520d2dde9f4cc49e4241f486ad9752bc904b56590600090a250565b611123610a4a565b1515611167576040805160e560020a62461bcd0281526020600482015260186024820152600080516020611df4833981519152604482015290519081900360640190fd5b61117033611777565b15156111b4576040805160e560020a62461bcd0281526020600482015260116024820152600080516020611e14833981519152604482015290519081900360640190fd5b60055460ff16156111c457600080fd5b6111d560068263ffffffff611c5f16565b604051600160a060020a038216907f1747ca720b1a174a464b6513ace29b1d3190b5f632b9f34147017c81425bfde890600090a250565b6000610c5c60088363ffffffff611b9016565b60055460ff161561122f57600080fd5b6107eb336119c9565b60055460ff161561124857600080fd5b600254604080517fe1758bd80000000000000000000000000000000000000000000000000000000081529051600092600160a060020a03169163e1758bd8916004808301926020929190829003018186803b1580156112a657600080fd5b505afa1580156112ba573d6000803e3d6000fd5b505050506040513d60208110156112d057600080fd5b505190506112dd826117c4565b15611332576040805160e560020a62461bcd02815260206004820152601e60248201527f43616e6e6f74207472616e7366657220746f20626c61636b6c69737465640000604482015290519081900360640190fd5b80600160a060020a03166370a08231836040518263ffffffff167c01000000000000000000000000000000000000000000000000000000000281526004018082600160a060020a0316600160a060020a0316815260200191505060206040518083038186803b1580156113a457600080fd5b505afa1580156113b8573d6000803e3d6000fd5b505050506040513d60208110156113ce57600080fd5b505115611425576040805160e560020a62461bcd02815260206004820152601960248201527f4163636f756e7420697320616c726561647920696e2075736500000000000000604482015290519081900360640190fd5b6040805160208181018352600091829052600160a060020a0385168252600c9052819020905181547fc5d2460186f7233c927e7db2dcc703c0e500b653ca82273b7bfad8045d85a470929190819083906002600019610100600184161502019091160480156114cb5780601f106114a95761010080835404028352918201916114cb565b820191906000526020600020905b8154815290600101906020018083116114b7575b5050915050604051809103902014151561152f576040805160e560020a62461bcd02815260206004820152601760248201527f6164647265737320616c72656164792068617320444944000000000000000000604482015290519081900360640190fd5b336000908152600c602090815260409182902080548351601f60026000196101006001861615020190931692909204918201849004840281018401909452808452606093928301828280156115c55780601f1061159a576101008083540402835291602001916115c5565b820191906000526020600020905b8154815290600101906020018083116115a857829003601f168201915b505050505090506000818051906020012090506115e18461181f565b604080517f70a082310000000000000000000000000000000000000000000000000000000081523360048201529051600091600160a060020a038616916370a0823191602480820192602092909190829003018186803b15801561164457600080fd5b505afa158015611658573d6000803e3d6000fd5b505050506040513d602081101561166e57600080fd5b5051604080517f23b872dd000000000000000000000000000000000000000000000000000000008152336004820152600160a060020a038881166024830152604482018490529151929350908616916323b872dd916064808201926020929091908290030181600087803b1580156116e557600080fd5b505af11580156116f9573d6000803e3d6000fd5b505050506040513d602081101561170f57600080fd5b5061171b9050336119c9565b600160a060020a0385166000908152600c60209081526040909120845161174492860190611d1b565b50506000908152600d602052604090208054600160a060020a031916600160a060020a0394909416939093179092555050565b6000610c5c60018363ffffffff611b9016565b611792610fe9565b151561179d57600080fd5b61089f81611cab565b60006117b0610fe9565b15156117bb57600080fd5b610c2f826117d7565b6000610c5c60068363ffffffff611b9016565b6117e860018263ffffffff611c5f16565b604051600160a060020a038216907f869f6a5b4767d57c58d57f1ddf82e1516487f35944a19bf30a4a21bd35f6ad0590600090a250565b61183060078263ffffffff6118a316565b600980546001019055600160a060020a0381166000908152600b6020526040902042905561185d81611bc7565b1561186c57600a805460010190555b604051600160a060020a038216907fee1504a83b6d4a361f4c1dc78ab59bfa30d6a3b6612c403e86bb01ef2984295f90600090a250565b600160a060020a03811615156118b857600080fd5b6118c28282611b90565b156118cc57600080fd5b600160a060020a0316600090815260209190915260409020805460ff19166001179055565b80516020808301919091206000818152600d909252604090912054600160a060020a03161561196a576040805160e560020a62461bcd02815260206004820152601660248201527f44494420616c7265616479207265676973746572656400000000000000000000604482015290519081900360640190fd5b600160a060020a0383166000908152600c60209081526040909120835161199392850190611d1b565b506000818152600d602052604090208054600160a060020a031916600160a060020a0385161790556119c48361181f565b505050565b6119da60078263ffffffff611c5f16565b60098054600019019055600160a060020a0381166000908152600b6020526040812055611a0681611bc7565b15611a1657600a80546000190190555b600160a060020a0381166000908152600c602090815260409182902080548351601f6002600019610100600186161502019093169290920491820184900484028101840190945280845260609392830182828015611ab55780601f10611a8a57610100808354040283529160200191611ab5565b820191906000526020600020905b815481529060010190602001808311611a9857829003601f168201915b50508351602080860191909120600160a060020a0388166000908152600b83526040808220829055600c90935291822095965094611af7945092509050611d99565b6000818152600d60205260408082208054600160a060020a031916905551600160a060020a038516917f270d9b30cf5b0793bbfd54c9d5b94aeb49462b8148399000265144a8722da6b691a2505050565b611b5960018263ffffffff6118a316565b604051600160a060020a038216907f3505858ac30c166c603cb64de4a970615e36a4ed8fea37ba93bc5f11a38dd30990600090a250565b6000600160a060020a0382161515611ba757600080fd5b50600160a060020a03166000908152602091909152604090205460ff1690565b6000903b1190565b611be060048263ffffffff611c5f16565b604051600160a060020a038216907fcd265ebaf09df2871cc7bd4133404a235ba12eff2041bb89d9c714a2621c7c7e90600090a250565b611c2860048263ffffffff6118a316565b604051600160a060020a038216907f6719d08c1888103bea251a4ed56406bd0c3e69723c8a1686e017e7bbe159b6f890600090a250565b600160a060020a0381161515611c7457600080fd5b611c7e8282611b90565b1515611c8957600080fd5b600160a060020a0316600090815260209190915260409020805460ff19169055565b600160a060020a0381161515611cc057600080fd5b60008054604051600160a060020a03808516939216917f8be0079c531659141344cd1fd0a4f28419497f9722a3daafe3b4186f6b6457e091a360008054600160a060020a031916600160a060020a0392909216919091179055565b828054600181600116156101000203166002900490600052602060002090601f016020900481019282601f10611d5c57805160ff1916838001178555611d89565b82800160010185558215611d89579182015b82811115611d89578251825591602001919060010190611d6e565b50611d95929150611dd9565b5090565b50805460018160011615610100020316600290046000825580601f10611dbf575061089f565b601f01602090049060005260206000209081019061089f91905b610b5c91905b80821115611d955760008155600101611ddf56fe536368656d65206973206e6f74207265676973746572656400000000000000006e6f74204964656e7469747941646d696e000000000000000000000000000000a165627a7a723058206ddbf88b2803245aa5c5852b0f63d1e95eebecad3113eccba3949bcb5af161a90029",
  "source": "pragma solidity 0.5.4;\n\nimport \"openzeppelin-solidity/contracts/access/Roles.sol\";\nimport \"openzeppelin-solidity/contracts/math/SafeMath.sol\";\nimport \"openzeppelin-solidity/contracts/lifecycle/Pausable.sol\";\n\nimport \"@daostack/arc/contracts/controller/Avatar.sol\";\n\nimport \"../dao/schemes/SchemeGuard.sol\";\nimport \"./IdentityAdminRole.sol\";\n\n/* @title Identity contract responsible for whitelisting\n * and keeping track of amount of whitelisted users\n */\ncontract Identity is IdentityAdminRole, SchemeGuard, Pausable {\n    using Roles for Roles.Role;\n    using SafeMath for uint256;\n\n    Roles.Role private blacklist;\n    Roles.Role private whitelist;\n    Roles.Role private contracts;\n\n    uint256 public whitelistedCount = 0;\n    uint256 public whitelistedContracts = 0;\n\n    mapping(address => uint256) public dateAdded;\n\n    mapping (address => string) public addrToDID;\n    mapping (bytes32 => address) public didHashToAddress;\n\n    event BlacklistAdded(address indexed account);\n    event BlacklistRemoved(address indexed account);\n \n    event WhitelistedAdded(address indexed account);\n    event WhitelistedRemoved(address indexed account);\n\n    event ContractAdded(address indexed account);\n    event ContractRemoved(address indexed account);\n\n    constructor() public SchemeGuard(Avatar(0)) {}\n\n    /* @dev Adds an address as whitelisted.\n     * Can only be called by Identity Administrators.\n     * @param account address to add as whitelisted\n     */\n    function addWhitelisted(address account)\n        public\n        onlyRegistered\n        onlyIdentityAdmin\n        whenNotPaused\n    {\n        _addWhitelisted(account);\n    }\n\n    /* @dev Adds an address as whitelisted under a specific ID\n     * @param account The address to add\n     * @param did the ID to add account under\n     */\n    function addWhitelistedWithDID(address account, string memory did) \n        public\n        onlyRegistered\n        onlyIdentityAdmin\n        whenNotPaused\n    {\n        _addWhitelistedWithDID(account, did);\n    }\n\n    /* @dev Removes an address as whitelisted.\n     * Can only be called by Identity Administrators.\n     * @param account address to remove as whitelisted\n     */\n    function removeWhitelisted(address account)\n        public\n        onlyRegistered\n        onlyIdentityAdmin\n        whenNotPaused\n    {\n        _removeWhitelisted(account);\n    }\n\n    /* @dev Renounces message sender from whitelisted\n     */\n    function renounceWhitelisted() public whenNotPaused {\n        _removeWhitelisted(msg.sender);\n    }\n\n    /* @dev Returns true if given address has been added to whitelist\n     * @param account the address to check\n     * @return a bool indicating weather the address is present in whitelist\n     */\n    function isWhitelisted(address account)\n        public\n        view\n        returns (bool)\n    {\n        return whitelist.has(account);\n    }\n\n    /* @dev Function that gives the date the given user was added\n     * @param account The address to check\n     * @return The date the address was added\n     */\n    function wasAdded(address account) public view returns (uint256) {\n        return dateAdded[account];\n    }\n\n    /* @dev Function to transfer whitelisted privilege to another address\n     * relocates did of sender to give address\n     * @param account The address to transfer to\n     */\n    function transferAccount(address account) public whenNotPaused {\n        ERC20 token = avatar.nativeToken();\n\n        require(!isBlacklisted(account), \"Cannot transfer to blacklisted\");\n        require(token.balanceOf(account) == 0, \"Account is already in use\");\n\n        require(keccak256(bytes(addrToDID[account])) == keccak256(bytes(\"\")), \"address already has DID\");\n\n        string memory did = addrToDID[msg.sender];\n        bytes32 pHash = keccak256(bytes(did));\n\n        _addWhitelisted(account);\n        uint256 balance = token.balanceOf(msg.sender);\n        token.transferFrom(msg.sender, account, balance);\n        _removeWhitelisted(msg.sender);\n\n        addrToDID[account] = did;\n        didHashToAddress[pHash] = account;\n    }\n\n    /* @dev Adds an address to blacklist.\n     * Can only be called by Identity Administrators.\n     * @param account address to add as blacklisted\n     */\n    function addBlacklisted(address account)\n        public\n        onlyRegistered\n        onlyIdentityAdmin\n        whenNotPaused\n    {\n        blacklist.add(account);\n        emit BlacklistAdded(account);\n    }\n\n    /* @dev Removes an address from blacklist\n     * Can only be called by Identity Administrators.\n     * @param account address to remove as blacklisted\n     */\n    function removeBlacklisted(address account)\n        public\n        onlyRegistered\n        onlyIdentityAdmin\n        whenNotPaused\n    {\n        blacklist.remove(account);\n        emit BlacklistRemoved(account);\n    }\n\n    /* @dev Function to add a Contract to list of contracts\n     * @param account The address to add\n     */\n    function addContract(address account)\n        public\n        onlyRegistered\n        onlyIdentityAdmin\n        whenNotPaused\n    {\n        require(isContract(account), \"Given address is not a contract\");\n        contracts.add(account);\n        _addWhitelisted(account);\n\n        emit ContractAdded(account);\n    }\n\n    /* @dev Function to remove a Contract from list of contracts\n     * @param account The address to add\n     */\n    function removeContract(address account)\n        public\n        onlyRegistered\n        onlyIdentityAdmin\n        whenNotPaused\n    {\n        contracts.remove(account);\n        _removeWhitelisted(account);\n\n        emit ContractRemoved(account);\n    }\n\n    /* @dev Function to check if given contract is on list of contracts.\n     * @param address to check\n     * @return a bool indicating if address is on list of contracts\n     */\n    function isDAOContract(address account)\n        public\n        view\n        returns (bool)\n    {\n        return contracts.has(account);\n    }\n\n    /* @dev Internal function to add to whitelisted\n     * @param account the address to add\n     */\n    function _addWhitelisted(address account) internal {\n        whitelist.add(account);\n        \n        whitelistedCount += 1;\n        dateAdded[account] = now;\n\n        if(isContract(account))\n        {\n            whitelistedContracts += 1;\n        }\n\n        emit WhitelistedAdded(account);\n    }\n\n    /* @dev Internal whitelisting with did function.\n     * @param account the address to add\n     * @param did the id to register account under\n     */\n    function _addWhitelistedWithDID(address account, string memory did) internal {\n        bytes32 pHash = keccak256(bytes(did));\n        require(didHashToAddress[pHash] == address(0), \"DID already registered\");\n\n        addrToDID[account] = did;\n        didHashToAddress[pHash] = account;\n\n        _addWhitelisted(account);\n    }\n\n    /* @dev Internal function to remove from whitelisted\n     * @param account the address to add\n     */\n    function _removeWhitelisted(address account) internal {\n        whitelist.remove(account);\n\n        whitelistedCount -= 1;\n        delete dateAdded[account];\n\n        if (isContract(account)) {\n            whitelistedContracts -= 1;\n        }\n\n        string memory did = addrToDID[account];\n        bytes32 pHash = keccak256(bytes(did));\n\n        delete dateAdded[account];\n        delete addrToDID[account];\n        delete didHashToAddress[pHash];\n\n        emit WhitelistedRemoved(account);\n    }\n\n    /* @dev Returns true if given address has been added to the blacklist\n     * @param account the address to check\n     * @return a bool indicating weather the address is present in the blacklist\n     */\n    function isBlacklisted(address account)\n        public\n        view\n        returns (bool)\n    {\n        return blacklist.has(account);\n    }\n\n    /* @dev Function to see if given address is a contract\n     * @return true if address is a contract\n     */\n    function isContract(address _addr)\n        view\n        internal\n        returns (bool)\n    {\n        uint256 length;\n        assembly { length := extcodesize(_addr) }\n        return length > 0;\n    }\n}",
  "sourcePath": "/Users/hadar/workspace/GoodDollar/GoodBootstrap/packages/contracts/contracts/identity/Identity.sol",
  "compiler": {
    "name": "solc",
    "version": "0.5.4+commit.9549d8ff.Emscripten.clang"
  },
  "schemaVersion": "3.0.16",
  "updatedAt": "2020-04-26T12:12:31.026Z",
  "devdoc": {
    "methods": {
      "addIdentityAdmin(address)": {
        "details": "Adds a identity admin account. Is only callable by owner.\r",
        "params": {
          "account": "Address to be added\r"
        },
        "return": "true if successful\r"
      },
      "isIdentityAdmin(address)": {
        "details": "Checks if account is identity admin\r",
        "params": {
          "account": "Account to check\r"
        },
        "return": "Boolean indicating if account is identity admin\r"
      },
      "isOwner()": {
        "return": "true if `msg.sender` is the owner of the contract."
      },
      "owner()": {
        "return": "the address of the owner."
      },
      "pause()": {
        "details": "called by the owner to pause, triggers stopped state"
      },
      "paused()": {
        "return": "true if the contract is paused, false otherwise."
      },
      "removeIdentityAdmin(address)": {
        "details": "Removes a identity admin account. Is only callable by owner.\r",
        "params": {
          "account": "Address to be removed\r"
        },
        "return": "true if successful\r"
      },
      "renounceIdentityAdmin()": {
        "details": "Allows an admin to renounce their role\r"
      },
      "renounceOwnership()": {
        "details": "Allows the current owner to relinquish control of the contract."
      },
      "transferOwnership(address)": {
        "details": "Allows the current owner to transfer control of the contract to a newOwner.",
        "params": {
          "newOwner": "The address to transfer ownership to."
        }
      },
      "unpause()": {
        "details": "called by the owner to unpause, returns to normal state"
      }
    }
  },
  "userdoc": {
    "methods": {
      "renounceOwnership()": {
        "notice": "Renouncing to ownership will leave the contract without an owner. It will not be possible to call the functions with the `onlyOwner` modifier anymore."
      }
    }
  }
}