{
  "contractName": "Identity",
  "abi": [
    {
      "constant": false,
      "inputs": [
        {
          "name": "_avatar",
          "type": "address"
        }
      ],
      "name": "setAvatar",
      "outputs": [],
      "payable": false,
      "stateMutability": "nonpayable",
      "type": "function"
    },
    {
      "constant": false,
      "inputs": [],
      "name": "renounceIdentityAdmin",
      "outputs": [],
      "payable": false,
      "stateMutability": "nonpayable",
      "type": "function"
    },
    {
      "constant": true,
      "inputs": [],
      "name": "isRegistered",
      "outputs": [],
      "payable": false,
      "stateMutability": "view",
      "type": "function"
    },
    {
      "constant": true,
      "inputs": [
        {
          "name": "",
          "type": "address"
        }
      ],
      "name": "addrToDID",
      "outputs": [
        {
          "name": "",
          "type": "string"
        }
      ],
      "payable": false,
      "stateMutability": "view",
      "type": "function"
    },
    {
      "constant": true,
      "inputs": [
        {
          "name": "",
          "type": "bytes32"
        }
      ],
      "name": "didHashToAddress",
      "outputs": [
        {
          "name": "",
          "type": "address"
        }
      ],
      "payable": false,
      "stateMutability": "view",
      "type": "function"
    },
    {
      "constant": false,
      "inputs": [],
      "name": "renounceOwnership",
      "outputs": [],
      "payable": false,
      "stateMutability": "nonpayable",
      "type": "function"
    },
    {
      "constant": false,
      "inputs": [
        {
          "name": "account",
          "type": "address"
        },
        {
          "name": "_avatar",
          "type": "address"
        }
      ],
      "name": "removeIdentityAdmin",
      "outputs": [
        {
          "name": "",
          "type": "bool"
        }
      ],
      "payable": false,
      "stateMutability": "nonpayable",
      "type": "function"
    },
    {
      "constant": true,
      "inputs": [],
      "name": "owner",
      "outputs": [
        {
          "name": "",
          "type": "address"
        }
      ],
      "payable": false,
      "stateMutability": "view",
      "type": "function"
    },
    {
      "constant": true,
      "inputs": [],
      "name": "isOwner",
      "outputs": [
        {
          "name": "",
          "type": "bool"
        }
      ],
      "payable": false,
      "stateMutability": "view",
      "type": "function"
    },
    {
      "constant": false,
      "inputs": [
        {
          "name": "account",
          "type": "address"
        },
        {
          "name": "_avatar",
          "type": "address"
        }
      ],
      "name": "addIdentityAdmin",
      "outputs": [
        {
          "name": "",
          "type": "bool"
        }
      ],
      "payable": false,
      "stateMutability": "nonpayable",
      "type": "function"
    },
    {
      "constant": true,
      "inputs": [
        {
          "name": "account",
          "type": "address"
        }
      ],
      "name": "isIdentityAdmin",
      "outputs": [
        {
          "name": "",
          "type": "bool"
        }
      ],
      "payable": false,
      "stateMutability": "view",
      "type": "function"
    },
    {
      "constant": false,
      "inputs": [
        {
          "name": "newOwner",
          "type": "address"
        }
      ],
      "name": "transferOwnership",
      "outputs": [],
      "payable": false,
      "stateMutability": "nonpayable",
      "type": "function"
    },
    {
      "inputs": [],
      "payable": false,
      "stateMutability": "nonpayable",
      "type": "constructor"
    },
    {
      "anonymous": false,
      "inputs": [
        {
          "indexed": true,
          "name": "account",
          "type": "address"
        }
      ],
      "name": "BlacklistAdded",
      "type": "event"
    },
    {
      "anonymous": false,
      "inputs": [
        {
          "indexed": true,
          "name": "account",
          "type": "address"
        }
      ],
      "name": "BlacklistRemoved",
      "type": "event"
    },
    {
      "anonymous": false,
      "inputs": [
        {
          "indexed": true,
          "name": "account",
          "type": "address"
        }
      ],
      "name": "ClaimerAdded",
      "type": "event"
    },
    {
      "anonymous": false,
      "inputs": [
        {
          "indexed": true,
          "name": "account",
          "type": "address"
        }
      ],
      "name": "ClaimerRemoved",
      "type": "event"
    },
    {
      "anonymous": false,
      "inputs": [
        {
          "indexed": true,
          "name": "account",
          "type": "address"
        }
      ],
      "name": "IdentityAdminAdded",
      "type": "event"
    },
    {
      "anonymous": false,
      "inputs": [
        {
          "indexed": true,
          "name": "account",
          "type": "address"
        }
      ],
      "name": "IdentityAdminRemoved",
      "type": "event"
    },
    {
      "anonymous": false,
      "inputs": [
        {
          "indexed": true,
          "name": "previousOwner",
          "type": "address"
        },
        {
          "indexed": true,
          "name": "newOwner",
          "type": "address"
        }
      ],
      "name": "OwnershipTransferred",
      "type": "event"
    },
    {
      "constant": false,
      "inputs": [
        {
          "name": "account",
          "type": "address"
        }
      ],
      "name": "addClaimer",
      "outputs": [],
      "payable": false,
      "stateMutability": "nonpayable",
      "type": "function"
    },
    {
      "constant": false,
      "inputs": [
        {
          "name": "account",
          "type": "address"
        },
        {
          "name": "did",
          "type": "string"
        }
      ],
      "name": "addClaimerWithDID",
      "outputs": [],
      "payable": false,
      "stateMutability": "nonpayable",
      "type": "function"
    },
    {
      "constant": false,
      "inputs": [
        {
          "name": "account",
          "type": "address"
        }
      ],
      "name": "removeClaimer",
      "outputs": [],
      "payable": false,
      "stateMutability": "nonpayable",
      "type": "function"
    },
    {
      "constant": false,
      "inputs": [],
      "name": "renounceClaimer",
      "outputs": [],
      "payable": false,
      "stateMutability": "nonpayable",
      "type": "function"
    },
    {
      "constant": true,
      "inputs": [
        {
          "name": "account",
          "type": "address"
        }
      ],
      "name": "isClaimer",
      "outputs": [
        {
          "name": "",
          "type": "bool"
        }
      ],
      "payable": false,
      "stateMutability": "view",
      "type": "function"
    },
    {
      "constant": true,
      "inputs": [],
      "name": "getClaimerCount",
      "outputs": [
        {
          "name": "",
          "type": "uint256"
        }
      ],
      "payable": false,
      "stateMutability": "view",
      "type": "function"
    },
    {
      "constant": true,
      "inputs": [
        {
          "name": "account",
          "type": "address"
        }
      ],
      "name": "wasAdded",
      "outputs": [
        {
          "name": "",
          "type": "uint256"
        }
      ],
      "payable": false,
      "stateMutability": "view",
      "type": "function"
    },
    {
      "constant": true,
      "inputs": [
        {
          "name": "did",
          "type": "string"
        }
      ],
      "name": "wasAddedDID",
      "outputs": [
        {
          "name": "",
          "type": "uint256"
        }
      ],
      "payable": false,
      "stateMutability": "view",
      "type": "function"
    },
    {
      "constant": false,
      "inputs": [
        {
          "name": "account",
          "type": "address"
        }
      ],
      "name": "transferAccount",
      "outputs": [],
      "payable": false,
      "stateMutability": "nonpayable",
      "type": "function"
    },
    {
      "constant": false,
      "inputs": [
        {
          "name": "account",
          "type": "address"
        }
      ],
      "name": "addBlacklisted",
      "outputs": [],
      "payable": false,
      "stateMutability": "nonpayable",
      "type": "function"
    },
    {
      "constant": false,
      "inputs": [
        {
          "name": "account",
          "type": "address"
        }
      ],
      "name": "removeBlacklisted",
      "outputs": [],
      "payable": false,
      "stateMutability": "nonpayable",
      "type": "function"
    },
    {
      "constant": true,
      "inputs": [
        {
          "name": "account",
          "type": "address"
        }
      ],
      "name": "isBlacklisted",
      "outputs": [
        {
          "name": "",
          "type": "bool"
        }
      ],
      "payable": false,
      "stateMutability": "view",
      "type": "function"
    }
  ],
  "bytecode": "0x608060405260038054600160a060020a03191690553480156200002157600080fd5b5060008054600160a060020a0319163317808255604051600160a060020a03919091169082907f8be0079c531659141344cd1fd0a4f28419497f9722a3daafe3b4186f6b6457e0908290a3620000803364010000000062000168810204565b60028054600160a060020a031916600160a060020a03838116919091179182905516156200016157600260009054906101000a9004600160a060020a0316600160a060020a0316638da5cb5b6040518163ffffffff167c010000000000000000000000000000000000000000000000000000000002815260040160206040518083038186803b1580156200011357600080fd5b505afa15801562000128573d6000803e3d6000fd5b505050506040513d60208110156200013f57600080fd5b505160038054600160a060020a031916600160a060020a039092169190911790555b506200024d565b62000183600182640100000000620018af620001ba82021704565b604051600160a060020a038216907f3505858ac30c166c603cb64de4a970615e36a4ed8fea37ba93bc5f11a38dd30990600090a250565b600160a060020a0381161515620001d057600080fd5b620001e5828264010000000062000215810204565b15620001f057600080fd5b600160a060020a0316600090815260209190915260409020805460ff19166001179055565b6000600160a060020a03821615156200022d57600080fd5b50600160a060020a03166000908152602091909152604090205460ff1690565b611c93806200025d6000396000f3fe608060405234801561001057600080fd5b506004361061015c5760003560e060020a900480638da5cb5b116100c7578063e0404dcd11610080578063e0404dcd14610529578063e4852b9b14610531578063e5ecaf5914610557578063f0490b8a1461057d578063f2fde38b146105a3578063fe575a87146105c95761015c565b80638da5cb5b146104975780638f32d59b1461049f5780638fc45ea3146104a7578063908f3a2f146104af578063993d2226146104dd578063c6a276c2146105035761015c565b806354f9f7a31161011957806354f9f7a31461021f57806367c75937146102ba578063715018a6146102f35780637366c5b9146102fb5780638209c21c146103b35780638bd60aa8146104695761015c565b8063086cfca8146101615780630f10a8b81461018957806310a8aecd14610191578063188efc16146101cb57806322366844146101f15780632ea66401146101f9575b600080fd5b6101876004803603602081101561017757600080fd5b5035600160a060020a03166105ef565b005b61018761086b565b6101b7600480360360208110156101a757600080fd5b5035600160a060020a0316610876565b604080519115158252519081900360200190f35b610187600480360360208110156101e157600080fd5b5035600160a060020a031661088f565b6101876109ed565b6101876004803603602081101561020f57600080fd5b5035600160a060020a0316610b18565b6102456004803603602081101561023557600080fd5b5035600160a060020a0316610c3a565b6040805160208082528351818301528351919283929083019185019080838360005b8381101561027f578181015183820152602001610267565b50505050905090810190601f1680156102ac5780820380516001836020036101000a031916815260200191505b509250505060405180910390f35b6102d7600480360360208110156102d057600080fd5b5035610cd5565b60408051600160a060020a039092168252519081900360200190f35b610187610cf0565b6103a16004803603602081101561031157600080fd5b81019060208101813564010000000081111561032c57600080fd5b82018360208201111561033e57600080fd5b8035906020019184600183028401116401000000008311171561036057600080fd5b91908080601f016020809104026020016040519081016040528093929190818152602001838380828437600092019190915250929550610d5a945050505050565b60408051918252519081900360200190f35b610187600480360360408110156103c957600080fd5b600160a060020a0382351691908101906040810160208201356401000000008111156103f457600080fd5b82018360208201111561040657600080fd5b8035906020019184600183028401116401000000008311171561042857600080fd5b91908080601f016020809104026020016040519081016040528093929190818152602001838380828437600092019190915250929550610dc2945050505050565b6101b76004803603604081101561047f57600080fd5b50600160a060020a0381358116916020013516610fb0565b6102d7611179565b6101b7611189565b6103a161119a565b6101b7600480360360408110156104c557600080fd5b50600160a060020a03813581169160200135166111a0565b6103a1600480360360208110156104f357600080fd5b5035600160a060020a031661135f565b6101876004803603602081101561051957600080fd5b5035600160a060020a031661137a565b6101876114d8565b6101876004803603602081101561054757600080fd5b5035600160a060020a03166114e1565b6101b76004803603602081101561056d57600080fd5b5035600160a060020a03166116cf565b6101876004803603602081101561059357600080fd5b5035600160a060020a03166116e2565b610187600480360360208110156105b957600080fd5b5035600160a060020a0316611801565b6101b7600480360360208110156105df57600080fd5b5035600160a060020a031661181d565b8033600160a060020a0382161480156106e9575030600160a060020a0316638da5cb5b6040518163ffffffff1660e060020a02815260040160206040518083038186803b15801561063f57600080fd5b505afa158015610653573d6000803e3d6000fd5b505050506040513d602081101561066957600080fd5b50516040805160e060020a638da5cb5b0281529051600160a060020a0392831692841691638da5cb5b916004808301926020929190829003018186803b1580156106b257600080fd5b505afa1580156106c6573d6000803e3d6000fd5b505050506040513d60208110156106dc57600080fd5b5051600160a060020a0316145b80610763575030600160a060020a0316638da5cb5b6040518163ffffffff1660e060020a02815260040160206040518083038186803b15801561072b57600080fd5b505afa15801561073f573d6000803e3d6000fd5b505050506040513d602081101561075557600080fd5b5051600160a060020a031633145b15156107a35760405160e560020a62461bcd028152600401808060200182810382526029815260200180611c1f6029913960400191505060405180910390fd5b6002805473ffffffffffffffffffffffffffffffffffffffff1916600160a060020a0384811691909117918290556040805160e060020a638da5cb5b02815290519290911691638da5cb5b91600480820192602092909190829003018186803b15801561080f57600080fd5b505afa158015610823573d6000803e3d6000fd5b505050506040513d602081101561083957600080fd5b50516003805473ffffffffffffffffffffffffffffffffffffffff1916600160a060020a039092169190911790555050565b61087433611830565b565b600061088960058363ffffffff61187816565b92915050565b6003546002546040805160e060020a639be2faed028152306004820152600160a060020a03928316602482015290519190921691639be2faed916044808301926020929190829003018186803b1580156108e857600080fd5b505afa1580156108fc573d6000803e3d6000fd5b505050506040513d602081101561091257600080fd5b50511515610958576040805160e560020a62461bcd0281526020600482015260186024820152600080516020611bff833981519152604482015290519081900360640190fd5b610961336116cf565b15156109a5576040805160e560020a62461bcd0281526020600482015260116024820152600080516020611c48833981519152604482015290519081900360640190fd5b6109b660048263ffffffff6118af16565b604051600160a060020a038216907f44d5fe68b00f68950fb9c1ff0a61ef7f747b1a36359a7e3a7f3324db4b87896790600090a250565b600254600160a060020a03161515610a4f576040805160e560020a62461bcd02815260206004820152601160248201527f417661746172206973206e6f7420736574000000000000000000000000000000604482015290519081900360640190fd5b6003546002546040805160e060020a639be2faed028152306004820152600160a060020a03928316602482015290519190921691639be2faed916044808301926020929190829003018186803b158015610aa857600080fd5b505afa158015610abc573d6000803e3d6000fd5b505050506040513d6020811015610ad257600080fd5b50511515610874576040805160e560020a62461bcd0281526020600482015260186024820152600080516020611bff833981519152604482015290519081900360640190fd5b6003546002546040805160e060020a639be2faed028152306004820152600160a060020a03928316602482015290519190921691639be2faed916044808301926020929190829003018186803b158015610b7157600080fd5b505afa158015610b85573d6000803e3d6000fd5b505050506040513d6020811015610b9b57600080fd5b50511515610be1576040805160e560020a62461bcd0281526020600482015260186024820152600080516020611bff833981519152604482015290519081900360640190fd5b610bea336116cf565b1515610c2e576040805160e560020a62461bcd0281526020600482015260116024820152600080516020611c48833981519152604482015290519081900360640190fd5b610c37816118fd565b50565b60086020908152600091825260409182902080548351601f600260001961010060018616150201909316929092049182018490048402810184019094528084529091830182828015610ccd5780601f10610ca257610100808354040283529160200191610ccd565b820191906000526020600020905b815481529060010190602001808311610cb057829003601f168201915b505050505081565b600960205260009081526040902054600160a060020a031681565b610cf8611189565b1515610d0357600080fd5b60008054604051600160a060020a03909116907f8be0079c531659141344cd1fd0a4f28419497f9722a3daafe3b4186f6b6457e0908390a36000805473ffffffffffffffffffffffffffffffffffffffff19169055565b6000600a826040518082805190602001908083835b60208310610d8e5780518252601f199092019160209182019101610d6f565b51815160209384036101000a6000190180199092169116179052920194855250604051938490030190922054949350505050565b6003546002546040805160e060020a639be2faed028152306004820152600160a060020a03928316602482015290519190921691639be2faed916044808301926020929190829003018186803b158015610e1b57600080fd5b505afa158015610e2f573d6000803e3d6000fd5b505050506040513d6020811015610e4557600080fd5b50511515610e8b576040805160e560020a62461bcd0281526020600482015260186024820152600080516020611bff833981519152604482015290519081900360640190fd5b610e94336116cf565b1515610ed8576040805160e560020a62461bcd0281526020600482015260116024820152600080516020611c48833981519152604482015290519081900360640190fd5b610ee1826118fd565b80516020820181812060405190924292600a928692909182918083835b60208310610f1d5780518252601f199092019160209182019101610efe565b51815160209384036101000a600019018019909216911617905292019485525060408051948590038201909420949094555050600160a060020a038516600090815260088352208351610f7292850190611b26565b506000908152600960205260409020805473ffffffffffffffffffffffffffffffffffffffff1916600160a060020a03939093169290921790915550565b60008133600160a060020a0382161480156110ac575030600160a060020a0316638da5cb5b6040518163ffffffff1660e060020a02815260040160206040518083038186803b15801561100257600080fd5b505afa158015611016573d6000803e3d6000fd5b505050506040513d602081101561102c57600080fd5b50516040805160e060020a638da5cb5b0281529051600160a060020a0392831692841691638da5cb5b916004808301926020929190829003018186803b15801561107557600080fd5b505afa158015611089573d6000803e3d6000fd5b505050506040513d602081101561109f57600080fd5b5051600160a060020a0316145b80611126575030600160a060020a0316638da5cb5b6040518163ffffffff1660e060020a02815260040160206040518083038186803b1580156110ee57600080fd5b505afa158015611102573d6000803e3d6000fd5b505050506040513d602081101561111857600080fd5b5051600160a060020a031633145b15156111665760405160e560020a62461bcd028152600401808060200182810382526029815260200180611c1f6029913960400191505060405180910390fd5b61116f84611830565b5060019392505050565b600054600160a060020a03165b90565b600054600160a060020a0316331490565b60065490565b60008133600160a060020a03821614801561129c575030600160a060020a0316638da5cb5b6040518163ffffffff1660e060020a02815260040160206040518083038186803b1580156111f257600080fd5b505afa158015611206573d6000803e3d6000fd5b505050506040513d602081101561121c57600080fd5b50516040805160e060020a638da5cb5b0281529051600160a060020a0392831692841691638da5cb5b916004808301926020929190829003018186803b15801561126557600080fd5b505afa158015611279573d6000803e3d6000fd5b505050506040513d602081101561128f57600080fd5b5051600160a060020a0316145b80611316575030600160a060020a0316638da5cb5b6040518163ffffffff1660e060020a02815260040160206040518083038186803b1580156112de57600080fd5b505afa1580156112f2573d6000803e3d6000fd5b505050506040513d602081101561130857600080fd5b5051600160a060020a031633145b15156113565760405160e560020a62461bcd028152600401808060200182810382526029815260200180611c1f6029913960400191505060405180910390fd5b61116f8461195c565b600160a060020a031660009081526007602052604090205490565b6003546002546040805160e060020a639be2faed028152306004820152600160a060020a03928316602482015290519190921691639be2faed916044808301926020929190829003018186803b1580156113d357600080fd5b505afa1580156113e7573d6000803e3d6000fd5b505050506040513d60208110156113fd57600080fd5b50511515611443576040805160e560020a62461bcd0281526020600482015260186024820152600080516020611bff833981519152604482015290519081900360640190fd5b61144c336116cf565b1515611490576040805160e560020a62461bcd0281526020600482015260116024820152600080516020611c48833981519152604482015290519081900360640190fd5b6114a160048263ffffffff6119a416565b604051600160a060020a038216907f1747ca720b1a174a464b6513ace29b1d3190b5f632b9f34147017c81425bfde890600090a250565b610874336119f0565b6114ea8161181d565b1561153f576040805160e560020a62461bcd02815260206004820152601e60248201527f43616e6e6f74207472616e7366657220746f20626c61636b6c69737465640000604482015290519081900360640190fd5b611548336119f0565b611551816118fd565b3360009081526008602090815260409182902080548351601f60026000196101006001861615020190931692909204918201849004840281018401909452808452606093928301828280156115e75780601f106115bc576101008083540402835291602001916115e7565b820191906000526020600020905b8154815290600101906020018083116115ca57829003601f168201915b505083516020850181812060405196975095429550600a9450879350918291908083835b6020831061162a5780518252601f19909201916020918201910161160b565b51815160209384036101000a600019018019909216911617905292019485525060408051948590038201909420949094555050600160a060020a03851660009081526008835220835161167f92850190611b26565b506000818152600960209081526040808320805473ffffffffffffffffffffffffffffffffffffffff1916600160a060020a038816179055338352600890915281206116ca91611ba4565b505050565b600061088960018363ffffffff61187816565b6003546002546040805160e060020a639be2faed028152306004820152600160a060020a03928316602482015290519190921691639be2faed916044808301926020929190829003018186803b15801561173b57600080fd5b505afa15801561174f573d6000803e3d6000fd5b505050506040513d602081101561176557600080fd5b505115156117ab576040805160e560020a62461bcd0281526020600482015260186024820152600080516020611bff833981519152604482015290519081900360640190fd5b6117b4336116cf565b15156117f8576040805160e560020a62461bcd0281526020600482015260116024820152600080516020611c48833981519152604482015290519081900360640190fd5b610c37816119f0565b611809611189565b151561181457600080fd5b610c3781611a4f565b600061088960048363ffffffff61187816565b61184160018263ffffffff6119a416565b604051600160a060020a038216907f869f6a5b4767d57c58d57f1ddf82e1516487f35944a19bf30a4a21bd35f6ad0590600090a250565b6000600160a060020a038216151561188f57600080fd5b50600160a060020a03166000908152602091909152604090205460ff1690565b600160a060020a03811615156118c457600080fd5b6118ce8282611878565b156118d857600080fd5b600160a060020a0316600090815260209190915260409020805460ff19166001179055565b61190e60058263ffffffff6118af16565b6119186001611acc565b600160a060020a038116600081815260076020526040808220429055517fff9a8f4e0a39755c20c899b46171e470382709479fce2aa1e388f95edfe017399190a250565b61196d60018263ffffffff6118af16565b604051600160a060020a038216907f3505858ac30c166c603cb64de4a970615e36a4ed8fea37ba93bc5f11a38dd30990600090a250565b600160a060020a03811615156119b957600080fd5b6119c38282611878565b15156119ce57600080fd5b600160a060020a0316600090815260209190915260409020805460ff19169055565b611a0160058263ffffffff6119a416565b611a0b6001611ae5565b600160a060020a038116600081815260076020526040808220829055517f30acaa541089592567cd4ce36437c68778a43e66dc1a9e7031e4496faf4593259190a250565b600160a060020a0381161515611a6457600080fd5b60008054604051600160a060020a03808516939216917f8be0079c531659141344cd1fd0a4f28419497f9722a3daafe3b4186f6b6457e091a36000805473ffffffffffffffffffffffffffffffffffffffff1916600160a060020a0392909216919091179055565b600654611adf908263ffffffff611af816565b60065550565b600654611adf908263ffffffff611b1116565b600082820183811015611b0a57600080fd5b9392505050565b600082821115611b2057600080fd5b50900390565b828054600181600116156101000203166002900490600052602060002090601f016020900481019282601f10611b6757805160ff1916838001178555611b94565b82800160010185558215611b94579182015b82811115611b94578251825591602001919060010190611b79565b50611ba0929150611be4565b5090565b50805460018160011615610100020316600290046000825580601f10611bca5750610c37565b601f016020900490600052602060002090810190610c3791905b61118691905b80821115611ba05760008155600101611bea56fe536368656d65206973206e6f74207265676973746572656400000000000000004f6e6c792063616c6c61626c6520627920617661746172206f66206f776e6572206f72206f776e65726e6f74204964656e7469747941646d696e000000000000000000000000000000a165627a7a72305820628786eb2459e5a2bebe9a0d89fed2acad470c2ce5e63336e7042c3f81d7643d0029",
  "source": "pragma solidity 0.5.4;\n\nimport \"openzeppelin-solidity/contracts/access/Roles.sol\";\nimport \"openzeppelin-solidity/contracts/math/SafeMath.sol\";\n\nimport \"@daostack/arc/contracts/controller/Avatar.sol\";\n\nimport \"../dao/schemes/SchemeGuard.sol\";\nimport \"./IdentityAdminRole.sol\";\n\n/* @title Identity contract responsible for whitelisting\n * and keeping track of amount of whitelisted users\n */\ncontract Identity is IdentityAdminRole, SchemeGuard {\n    using Roles for Roles.Role;\n    using SafeMath for uint256;\n\n    Roles.Role private blacklist;\n    Roles.Role private claimers;\n\n    uint256 private claimerCount;\n    mapping(address => uint) dateAdded;\n\n    mapping (address => string) public addrToDID;\n    mapping (bytes32 => address) public didHashToAddress;\n    mapping (string => uint) didLastAdded;\n\n    event BlacklistAdded(address indexed account);\n    event BlacklistRemoved(address indexed account);\n \n    event ClaimerAdded(address indexed account);\n    event ClaimerRemoved(address indexed account);\n\n    constructor() public SchemeGuard(Avatar(0)) {}\n\n    /* @dev Adds an address as a claimer. Eligble for claiming UBI.\n     * Can only be called by Identity Administrators.\n     * @param account address to add as a claimer\n     */\n    function addClaimer(address account)\n        public\n        onlyRegistered\n        onlyIdentityAdmin\n    {\n        _addClaimer(account);\n    }\n\n    function addClaimerWithDID(address account, string memory did) \n        public\n        onlyRegistered\n        onlyIdentityAdmin \n    {\n        _addClaimer(account);\n\n        bytes32 pHash = keccak256(bytes(did));\n        didLastAdded[did] = now;\n        addrToDID[account] = did;\n        didHashToAddress[pHash] = account;\n    }\n\n    /* @dev Removes an address as a claimer.\n     * Can only be called by Identity Administrators.\n     * @param account address to remove as a claimer\n     */\n    function removeClaimer(address account)\n        public\n        onlyRegistered\n        onlyIdentityAdmin\n    {\n        _removeClaimer(account);\n    }\n\n    function renounceClaimer() public {\n        _removeClaimer(msg.sender);\n    }\n\n    /* @dev Reverts if given address has not been added to claimers\n     * @param account the address to check\n     * @return a bool indicating weather the address is present in claimers\n     */\n    function isClaimer(address account)\n        public\n        view\n        returns (bool)\n    {\n        return claimers.has(account);\n    }\n\n    /* @dev Gets the amount of claimers\n     * @return a uint representing the current amount of claimers\n     */\n    function getClaimerCount()\n        public\n        view\n        returns (uint)\n    {\n        return claimerCount;\n    }\n\n    function wasAdded(address account) public view returns (uint) {\n        return dateAdded[account];\n    }\n\n    function wasAddedDID(string memory did) public view returns (uint) {\n        return didLastAdded[did];\n    }\n\n    function transferAccount(address account) public {\n        require(!isBlacklisted(account), \"Cannot transfer to blacklisted\");\n\n        _removeClaimer(msg.sender);\n        _addClaimer(account);\n\n        string memory did = addrToDID[msg.sender];\n        bytes32 pHash = keccak256(bytes(did));\n        didLastAdded[did] = now;\n        addrToDID[account] = did;\n        didHashToAddress[pHash] = account;\n\n        delete addrToDID[msg.sender];\n    }\n\n    /* @dev Adds an address to blacklist.\n     * Can only be called by Identity Administrators.\n     * @param account address to add as blacklisted\n     */\n    function addBlacklisted(address account)\n        public\n        onlyRegistered\n        onlyIdentityAdmin\n    {\n        blacklist.add(account);\n        emit BlacklistAdded(account);\n    }\n\n    /* @dev Removes an address from blacklist\n     * Can only be called by Identity Administrators.\n     * @param account address to remove as blacklisted\n     */\n    function removeBlacklisted(address account)\n        public\n        onlyRegistered\n        onlyIdentityAdmin\n    {\n        blacklist.remove(account);\n        emit BlacklistRemoved(account);\n    }\n\n    function _addClaimer(address account) internal {\n        claimers.add(account);\n        \n        increaseClaimerCount(1);\n        dateAdded[account] = now;\n        \n        emit ClaimerAdded(account);\n    }\n\n    function _removeClaimer(address account) internal {\n        claimers.remove(account);\n\n        decreaseClaimerCount(1);\n        delete dateAdded[account];\n\n        emit ClaimerRemoved(account);\n    }\n\n    /* @dev Reverts if given address has been added to the blacklist\n     * @param account the address to check\n     * @return a bool indicating weather the address is present in the blacklist\n     */\n    function isBlacklisted(address account)\n        public\n        view\n        returns (bool)\n    {\n        return blacklist.has(account);\n    }\n\n    /* @dev Internal function that increases count of whitelisted users by\n     * given amount\n     * @param value an uint with which the whitelisted count will increase by\n     */\n    function increaseClaimerCount(uint value)\n        internal\n    {\n        claimerCount = claimerCount.add(value);\n    }\n\n    /* @dev Internal function that decreases count of whitelisted users by\n     * given amount\n     * @param value an uint with which the whitelisted count will increase by\n     */\n    function decreaseClaimerCount(uint value)\n        internal\n    {\n        claimerCount = claimerCount.sub(value);\n    }\n}",
  "sourcePath": "/Users/madsjorgensen/Documents/Work/GoodContracts/contracts/identity/Identity.sol",
  "compiler": {
    "name": "solc",
    "version": "0.5.4+commit.9549d8ff.Emscripten.clang"
  },
  "schemaVersion": "3.0.11",
  "updatedAt": "2019-09-09T10:59:10.892Z",
  "devdoc": {
    "methods": {
      "addIdentityAdmin(address,address)": {
        "details": "Adds a identity admin account. Is only callable by owner.\r",
        "params": {
          "account": "Address to be added\r"
        }
      },
      "isIdentityAdmin(address)": {
        "details": "Checks if account is identity admin\r",
        "params": {
          "account": "Account to check\r"
        },
        "return": "Boolean indicating if account is identity admin\r"
      },
      "isOwner()": {
        "return": "true if `msg.sender` is the owner of the contract."
      },
      "owner()": {
        "return": "the address of the owner."
      },
      "removeIdentityAdmin(address,address)": {
        "details": "Removes a identity admin account. Is only callable by owner.\r",
        "params": {
          "account": "Address to be removed\r"
        }
      },
      "renounceIdentityAdmin()": {
        "details": "Allows a privileged holder to renounce their role "
      },
      "renounceOwnership()": {
        "details": "Allows the current owner to relinquish control of the contract."
      },
      "transferOwnership(address)": {
        "details": "Allows the current owner to transfer control of the contract to a newOwner.",
        "params": {
          "newOwner": "The address to transfer ownership to."
        }
      }
    }
  },
  "userdoc": {
    "methods": {
      "renounceOwnership()": {
        "notice": "Renouncing to ownership will leave the contract without an owner. It will not be possible to call the functions with the `onlyOwner` modifier anymore."
      }
    }
  }
}