{
  "contractName": "Identity",
  "abi": [
    {
      "constant": true,
      "inputs": [],
      "name": "whiteListedUserCount",
      "outputs": [
        {
          "name": "",
          "type": "uint8"
        }
      ],
      "payable": false,
      "stateMutability": "view",
      "type": "function",
      "signature": "0x58e0bef4"
    },
    {
      "constant": false,
      "inputs": [],
      "name": "renounceOwnership",
      "outputs": [],
      "payable": false,
      "stateMutability": "nonpayable",
      "type": "function",
      "signature": "0x715018a6"
    },
    {
      "constant": true,
      "inputs": [],
      "name": "owner",
      "outputs": [
        {
          "name": "",
          "type": "address"
        }
      ],
      "payable": false,
      "stateMutability": "view",
      "type": "function",
      "signature": "0x8da5cb5b"
    },
    {
      "constant": true,
      "inputs": [],
      "name": "isOwner",
      "outputs": [
        {
          "name": "",
          "type": "bool"
        }
      ],
      "payable": false,
      "stateMutability": "view",
      "type": "function",
      "signature": "0x8f32d59b"
    },
    {
      "constant": false,
      "inputs": [
        {
          "name": "newOwner",
          "type": "address"
        }
      ],
      "name": "transferOwnership",
      "outputs": [],
      "payable": false,
      "stateMutability": "nonpayable",
      "type": "function",
      "signature": "0xf2fde38b"
    },
    {
      "inputs": [],
      "payable": false,
      "stateMutability": "nonpayable",
      "type": "constructor",
      "signature": "constructor"
    },
    {
      "anonymous": false,
      "inputs": [
        {
          "indexed": true,
          "name": "previousOwner",
          "type": "address"
        },
        {
          "indexed": true,
          "name": "newOwner",
          "type": "address"
        }
      ],
      "name": "OwnershipTransferred",
      "type": "event",
      "signature": "0x8be0079c531659141344cd1fd0a4f28419497f9722a3daafe3b4186f6b6457e0"
    },
    {
      "constant": true,
      "inputs": [
        {
          "name": "_account",
          "type": "address"
        }
      ],
      "name": "checkUser",
      "outputs": [
        {
          "name": "",
          "type": "bool"
        }
      ],
      "payable": false,
      "stateMutability": "view",
      "type": "function",
      "signature": "0x1e9d48cf"
    },
    {
      "constant": false,
      "inputs": [
        {
          "name": "_account",
          "type": "address"
        }
      ],
      "name": "whiteListUser",
      "outputs": [
        {
          "name": "",
          "type": "bool"
        }
      ],
      "payable": false,
      "stateMutability": "nonpayable",
      "type": "function",
      "signature": "0x1536ca40"
    }
  ],
  "bytecode": "0x608060405234801561001057600080fd5b5060008054600160a060020a0319163317808255604051600160a060020a039190911691907f8be0079c531659141344cd1fd0a4f28419497f9722a3daafe3b4186f6b6457e0908290a36002805460ff19908116600190811790925533600090815260208390526040902080549091169091179055610359806100946000396000f3006080604052600436106100825763ffffffff7c01000000000000000000000000000000000000000000000000000000006000350416631536ca4081146100875780631e9d48cf146100bc57806358e0bef4146100dd578063715018a6146101085780638da5cb5b1461011f5780638f32d59b14610150578063f2fde38b14610165575b600080fd5b34801561009357600080fd5b506100a8600160a060020a0360043516610186565b604080519115158252519081900360200190f35b3480156100c857600080fd5b506100a8600160a060020a03600435166101e0565b3480156100e957600080fd5b506100f26101fe565b6040805160ff9092168252519081900360200190f35b34801561011457600080fd5b5061011d610207565b005b34801561012b57600080fd5b50610134610271565b60408051600160a060020a039092168252519081900360200190f35b34801561015c57600080fd5b506100a8610280565b34801561017157600080fd5b5061011d600160a060020a0360043516610291565b600080610192336101e0565b90508015156101a057600080fd5b5050600160a060020a03166000908152600160208190526040909120805460ff1990811683179091556002805460ff808216850116921691909117905590565b600160a060020a031660009081526001602052604090205460ff1690565b60025460ff1681565b61020f610280565b151561021a57600080fd5b60008054604051600160a060020a03909116907f8be0079c531659141344cd1fd0a4f28419497f9722a3daafe3b4186f6b6457e0908390a36000805473ffffffffffffffffffffffffffffffffffffffff19169055565b600054600160a060020a031690565b600054600160a060020a0316331490565b610299610280565b15156102a457600080fd5b6102ad816102b0565b50565b600160a060020a03811615156102c557600080fd5b60008054604051600160a060020a03808516939216917f8be0079c531659141344cd1fd0a4f28419497f9722a3daafe3b4186f6b6457e091a36000805473ffffffffffffffffffffffffffffffffffffffff1916600160a060020a03929092169190911790555600a165627a7a72305820b74b2c89634aba32b59fa70f3516f1cf7292ce8cc87b069a2cba15f0293aa5d50029",
  "source": "pragma solidity ^0.4.24;\n\nimport 'openzeppelin-solidity/contracts/ownership/Ownable.sol';\n\ncontract Identity is Ownable {\n    mapping(address => bool) private white_listed;\n\n    uint8 public whiteListedUserCount;\n\n\n    constructor() public {\n        whiteListedUserCount = 1;\n        white_listed[msg.sender] = true;\n    }\n\n    modifier whiteListed() {\n        bool check = checkUser(msg.sender);\n        require(check);\n        _;\n    }   \n    \n    function checkUser(\n        address _account\n    ) public view returns(bool) {\n        return white_listed[_account];\n    }\n\n    /*\n        whitelisted users can white list others.\n    */\n    function whiteListUser(\n        address _account\n    ) public whiteListed returns(bool) {\n        white_listed[_account] = true;\n        whiteListedUserCount = whiteListedUserCount + 1;\n        return true;\n    }\n\n     \n}\n",
  "sourcePath": "/home/sirpy/workspace/gooddollar/GoodContracts/contracts/Identity.sol",
  "compiler": {
    "name": "solc",
    "version": "0.4.25+commit.59dbf8f1.Emscripten.clang"
  },
  "schemaVersion": "3.0.0",
  "updatedAt": "2018-12-19T13:12:28.747Z",
  "devdoc": {
    "methods": {
      "isOwner()": {
        "return": "true if `msg.sender` is the owner of the contract."
      },
      "owner()": {
        "return": "the address of the owner."
      },
      "renounceOwnership()": {
        "details": "Allows the current owner to relinquish control of the contract."
      },
      "transferOwnership(address)": {
        "details": "Allows the current owner to transfer control of the contract to a newOwner.",
        "params": {
          "newOwner": "The address to transfer ownership to."
        }
      }
    }
  },
  "userdoc": {
    "methods": {
      "renounceOwnership()": {
        "notice": "Renouncing to ownership will leave the contract without an owner. It will not be possible to call the functions with the `onlyOwner` modifier anymore."
      }
    }
  }
}