{
  "contractName": "Identity",
  "abi": [
    {
      "constant": false,
      "inputs": [
        {
          "name": "_avatar",
          "type": "address"
        }
      ],
      "name": "setAvatar",
      "outputs": [],
      "payable": false,
      "stateMutability": "nonpayable",
      "type": "function"
    },
    {
      "constant": false,
      "inputs": [],
      "name": "renounceIdentityAdmin",
      "outputs": [],
      "payable": false,
      "stateMutability": "nonpayable",
      "type": "function"
    },
    {
      "constant": true,
      "inputs": [],
      "name": "isRegistered",
      "outputs": [],
      "payable": false,
      "stateMutability": "view",
      "type": "function"
    },
    {
      "constant": true,
      "inputs": [
        {
          "name": "",
          "type": "address"
        }
      ],
      "name": "addrToDID",
      "outputs": [
        {
          "name": "",
          "type": "string"
        }
      ],
      "payable": false,
      "stateMutability": "view",
      "type": "function"
    },
    {
      "constant": true,
      "inputs": [
        {
          "name": "",
          "type": "bytes32"
        }
      ],
      "name": "didHashToAddress",
      "outputs": [
        {
          "name": "",
          "type": "address"
        }
      ],
      "payable": false,
      "stateMutability": "view",
      "type": "function"
    },
    {
      "constant": false,
      "inputs": [],
      "name": "renounceOwnership",
      "outputs": [],
      "payable": false,
      "stateMutability": "nonpayable",
      "type": "function"
    },
    {
      "constant": false,
      "inputs": [
        {
          "name": "account",
          "type": "address"
        },
        {
          "name": "_avatar",
          "type": "address"
        }
      ],
      "name": "removeIdentityAdmin",
      "outputs": [
        {
          "name": "",
          "type": "bool"
        }
      ],
      "payable": false,
      "stateMutability": "nonpayable",
      "type": "function"
    },
    {
      "constant": true,
      "inputs": [],
      "name": "owner",
      "outputs": [
        {
          "name": "",
          "type": "address"
        }
      ],
      "payable": false,
      "stateMutability": "view",
      "type": "function"
    },
    {
      "constant": true,
      "inputs": [],
      "name": "isOwner",
      "outputs": [
        {
          "name": "",
          "type": "bool"
        }
      ],
      "payable": false,
      "stateMutability": "view",
      "type": "function"
    },
    {
      "constant": false,
      "inputs": [
        {
          "name": "account",
          "type": "address"
        },
        {
          "name": "_avatar",
          "type": "address"
        }
      ],
      "name": "addIdentityAdmin",
      "outputs": [
        {
          "name": "",
          "type": "bool"
        }
      ],
      "payable": false,
      "stateMutability": "nonpayable",
      "type": "function"
    },
    {
      "constant": true,
      "inputs": [
        {
          "name": "account",
          "type": "address"
        }
      ],
      "name": "isIdentityAdmin",
      "outputs": [
        {
          "name": "",
          "type": "bool"
        }
      ],
      "payable": false,
      "stateMutability": "view",
      "type": "function"
    },
    {
      "constant": false,
      "inputs": [
        {
          "name": "newOwner",
          "type": "address"
        }
      ],
      "name": "transferOwnership",
      "outputs": [],
      "payable": false,
      "stateMutability": "nonpayable",
      "type": "function"
    },
    {
      "inputs": [],
      "payable": false,
      "stateMutability": "nonpayable",
      "type": "constructor"
    },
    {
      "anonymous": false,
      "inputs": [
        {
          "indexed": true,
          "name": "account",
          "type": "address"
        }
      ],
      "name": "BlacklistAdded",
      "type": "event"
    },
    {
      "anonymous": false,
      "inputs": [
        {
          "indexed": true,
          "name": "account",
          "type": "address"
        }
      ],
      "name": "BlacklistRemoved",
      "type": "event"
    },
    {
      "anonymous": false,
      "inputs": [
        {
          "indexed": true,
          "name": "account",
          "type": "address"
        }
      ],
      "name": "WhitelistedAdded",
      "type": "event"
    },
    {
      "anonymous": false,
      "inputs": [
        {
          "indexed": true,
          "name": "account",
          "type": "address"
        }
      ],
      "name": "WhitelistedRemoved",
      "type": "event"
    },
    {
      "anonymous": false,
      "inputs": [
        {
          "indexed": true,
          "name": "account",
          "type": "address"
        }
      ],
      "name": "ContractAdded",
      "type": "event"
    },
    {
      "anonymous": false,
      "inputs": [
        {
          "indexed": true,
          "name": "account",
          "type": "address"
        }
      ],
      "name": "ContractRemoved",
      "type": "event"
    },
    {
      "anonymous": false,
      "inputs": [
        {
          "indexed": true,
          "name": "account",
          "type": "address"
        }
      ],
      "name": "IdentityAdminAdded",
      "type": "event"
    },
    {
      "anonymous": false,
      "inputs": [
        {
          "indexed": true,
          "name": "account",
          "type": "address"
        }
      ],
      "name": "IdentityAdminRemoved",
      "type": "event"
    },
    {
      "anonymous": false,
      "inputs": [
        {
          "indexed": true,
          "name": "previousOwner",
          "type": "address"
        },
        {
          "indexed": true,
          "name": "newOwner",
          "type": "address"
        }
      ],
      "name": "OwnershipTransferred",
      "type": "event"
    },
    {
      "constant": false,
      "inputs": [
        {
          "name": "account",
          "type": "address"
        }
      ],
      "name": "addWhitelisted",
      "outputs": [],
      "payable": false,
      "stateMutability": "nonpayable",
      "type": "function"
    },
    {
      "constant": false,
      "inputs": [
        {
          "name": "account",
          "type": "address"
        },
        {
          "name": "did",
          "type": "string"
        }
      ],
      "name": "addWhitelistedWithDID",
      "outputs": [],
      "payable": false,
      "stateMutability": "nonpayable",
      "type": "function"
    },
    {
      "constant": false,
      "inputs": [
        {
          "name": "account",
          "type": "address"
        }
      ],
      "name": "removeWhitelisted",
      "outputs": [],
      "payable": false,
      "stateMutability": "nonpayable",
      "type": "function"
    },
    {
      "constant": false,
      "inputs": [],
      "name": "renounceWhitelisted",
      "outputs": [],
      "payable": false,
      "stateMutability": "nonpayable",
      "type": "function"
    },
    {
      "constant": true,
      "inputs": [
        {
          "name": "account",
          "type": "address"
        }
      ],
      "name": "isWhitelisted",
      "outputs": [
        {
          "name": "",
          "type": "bool"
        }
      ],
      "payable": false,
      "stateMutability": "view",
      "type": "function"
    },
    {
      "constant": true,
      "inputs": [],
      "name": "getWhitelistedCount",
      "outputs": [
        {
          "name": "",
          "type": "uint256"
        }
      ],
      "payable": false,
      "stateMutability": "view",
      "type": "function"
    },
    {
      "constant": true,
      "inputs": [
        {
          "name": "account",
          "type": "address"
        }
      ],
      "name": "wasAdded",
      "outputs": [
        {
          "name": "",
          "type": "uint256"
        }
      ],
      "payable": false,
      "stateMutability": "view",
      "type": "function"
    },
    {
      "constant": false,
      "inputs": [
        {
          "name": "account",
          "type": "address"
        }
      ],
      "name": "transferAccount",
      "outputs": [],
      "payable": false,
      "stateMutability": "nonpayable",
      "type": "function"
    },
    {
      "constant": false,
      "inputs": [
        {
          "name": "account",
          "type": "address"
        }
      ],
      "name": "addBlacklisted",
      "outputs": [],
      "payable": false,
      "stateMutability": "nonpayable",
      "type": "function"
    },
    {
      "constant": false,
      "inputs": [
        {
          "name": "account",
          "type": "address"
        }
      ],
      "name": "removeBlacklisted",
      "outputs": [],
      "payable": false,
      "stateMutability": "nonpayable",
      "type": "function"
    },
    {
      "constant": false,
      "inputs": [
        {
          "name": "account",
          "type": "address"
        }
      ],
      "name": "addContract",
      "outputs": [],
      "payable": false,
      "stateMutability": "nonpayable",
      "type": "function"
    },
    {
      "constant": false,
      "inputs": [
        {
          "name": "account",
          "type": "address"
        }
      ],
      "name": "removeContract",
      "outputs": [],
      "payable": false,
      "stateMutability": "nonpayable",
      "type": "function"
    },
    {
      "constant": true,
      "inputs": [
        {
          "name": "account",
          "type": "address"
        }
      ],
      "name": "isDAOContract",
      "outputs": [
        {
          "name": "",
          "type": "bool"
        }
      ],
      "payable": false,
      "stateMutability": "view",
      "type": "function"
    },
    {
      "constant": true,
      "inputs": [
        {
          "name": "account",
          "type": "address"
        }
      ],
      "name": "isBlacklisted",
      "outputs": [
        {
          "name": "",
          "type": "bool"
        }
      ],
      "payable": false,
      "stateMutability": "view",
      "type": "function"
    }
  ],
  "bytecode": "0x608060405260038054600160a060020a03191690553480156200002157600080fd5b5060008054600160a060020a0319163317808255604051600160a060020a03919091169082907f8be0079c531659141344cd1fd0a4f28419497f9722a3daafe3b4186f6b6457e0908290a3620000803364010000000062000168810204565b60028054600160a060020a031916600160a060020a03838116919091179182905516156200016157600260009054906101000a9004600160a060020a0316600160a060020a0316638da5cb5b6040518163ffffffff167c010000000000000000000000000000000000000000000000000000000002815260040160206040518083038186803b1580156200011357600080fd5b505afa15801562000128573d6000803e3d6000fd5b505050506040513d60208110156200013f57600080fd5b505160038054600160a060020a031916600160a060020a039092169190911790555b506200024d565b6200018360018264010000000062001a82620001ba82021704565b604051600160a060020a038216907f3505858ac30c166c603cb64de4a970615e36a4ed8fea37ba93bc5f11a38dd30990600090a250565b600160a060020a0381161515620001d057600080fd5b620001e5828264010000000062000215810204565b15620001f057600080fd5b600160a060020a0316600090815260209190915260409020805460ff19166001179055565b6000600160a060020a03821615156200022d57600080fd5b50600160a060020a03166000908152602091909152604090205460ff1690565b611f50806200025d6000396000f3fe608060405234801561001057600080fd5b50600436106101925760003560e060020a900480638bd60aa8116100e2578063c6a276c21161009b578063e4852b9b11610075578063e4852b9b14610559578063e5ecaf591461057f578063f2fde38b146105a5578063fe575a87146105cb57610192565b8063c6a276c214610505578063c73cc4ae1461052b578063d6cd94731461055157610192565b80638bd60aa81461044d5780638da5cb5b1461047b5780638f32d59b14610483578063908f3a2f1461048b578063993d2226146104b9578063c375c2ef146104df57610192565b8063291d95491161014f5780635f539d69116101295780635f539d69146103cc57806367c75937146103f2578063681a06d71461042b578063715018a61461044557610192565b8063291d9549146102d15780633af32abf146102f757806354f9f7a31461033157610192565b8063086cfca8146101975780630f10a8b8146101bf57806310154bad146101c7578063188efc16146101ed5780631b0270991461021357806322366844146102c9575b600080fd5b6101bd600480360360208110156101ad57600080fd5b5035600160a060020a03166105f1565b005b6101bd61086d565b6101bd600480360360208110156101dd57600080fd5b5035600160a060020a0316610878565b6101bd6004803603602081101561020357600080fd5b5035600160a060020a031661099a565b6101bd6004803603604081101561022957600080fd5b600160a060020a03823516919081019060408101602082013564010000000081111561025457600080fd5b82018360208201111561026657600080fd5b8035906020019184600183028401116401000000008311171561028857600080fd5b91908080601f016020809104026020016040519081016040528093929190818152602001838380828437600092019190915250929550610af8945050505050565b6101bd610c85565b6101bd600480360360208110156102e757600080fd5b5035600160a060020a0316610db0565b61031d6004803603602081101561030d57600080fd5b5035600160a060020a0316610ecf565b604080519115158252519081900360200190f35b6103576004803603602081101561034757600080fd5b5035600160a060020a0316610ee8565b6040805160208082528351818301528351919283929083019185019080838360005b83811015610391578181015183820152602001610379565b50505050905090810190601f1680156103be5780820380516001836020036101000a031916815260200191505b509250505060405180910390f35b6101bd600480360360208110156103e257600080fd5b5035600160a060020a0316610f83565b61040f6004803603602081101561040857600080fd5b5035611149565b60408051600160a060020a039092168252519081900360200190f35b610433611164565b60408051918252519081900360200190f35b6101bd61116b565b61031d6004803603604081101561046357600080fd5b50600160a060020a03813581169160200135166111d5565b61040f61139e565b61031d6113ad565b61031d600480360360408110156104a157600080fd5b50600160a060020a03813581169160200135166113be565b610433600480360360208110156104cf57600080fd5b5035600160a060020a031661157d565b6101bd600480360360208110156104f557600080fd5b5035600160a060020a0316611598565b6101bd6004803603602081101561051b57600080fd5b5035600160a060020a03166116bf565b61031d6004803603602081101561054157600080fd5b5035600160a060020a031661181d565b6101bd611830565b6101bd6004803603602081101561056f57600080fd5b5035600160a060020a0316611839565b61031d6004803603602081101561059557600080fd5b5035600160a060020a031661197b565b6101bd600480360360208110156105bb57600080fd5b5035600160a060020a031661198e565b61031d600480360360208110156105e157600080fd5b5035600160a060020a03166119aa565b8033600160a060020a0382161480156106eb575030600160a060020a0316638da5cb5b6040518163ffffffff1660e060020a02815260040160206040518083038186803b15801561064157600080fd5b505afa158015610655573d6000803e3d6000fd5b505050506040513d602081101561066b57600080fd5b50516040805160e060020a638da5cb5b0281529051600160a060020a0392831692841691638da5cb5b916004808301926020929190829003018186803b1580156106b457600080fd5b505afa1580156106c8573d6000803e3d6000fd5b505050506040513d60208110156106de57600080fd5b5051600160a060020a0316145b80610765575030600160a060020a0316638da5cb5b6040518163ffffffff1660e060020a02815260040160206040518083038186803b15801561072d57600080fd5b505afa158015610741573d6000803e3d6000fd5b505050506040513d602081101561075757600080fd5b5051600160a060020a031633145b15156107a55760405160e560020a62461bcd028152600401808060200182810382526029815260200180611edc6029913960400191505060405180910390fd5b6002805473ffffffffffffffffffffffffffffffffffffffff1916600160a060020a0384811691909117918290556040805160e060020a638da5cb5b02815290519290911691638da5cb5b91600480820192602092909190829003018186803b15801561081157600080fd5b505afa158015610825573d6000803e3d6000fd5b505050506040513d602081101561083b57600080fd5b50516003805473ffffffffffffffffffffffffffffffffffffffff1916600160a060020a039092169190911790555050565b610876336119bd565b565b6003546002546040805160e060020a639be2faed028152306004820152600160a060020a03928316602482015290519190921691639be2faed916044808301926020929190829003018186803b1580156108d157600080fd5b505afa1580156108e5573d6000803e3d6000fd5b505050506040513d60208110156108fb57600080fd5b50511515610941576040805160e560020a62461bcd0281526020600482015260186024820152600080516020611ebc833981519152604482015290519081900360640190fd5b61094a3361197b565b151561098e576040805160e560020a62461bcd0281526020600482015260116024820152600080516020611f05833981519152604482015290519081900360640190fd5b61099781611a05565b50565b6003546002546040805160e060020a639be2faed028152306004820152600160a060020a03928316602482015290519190921691639be2faed916044808301926020929190829003018186803b1580156109f357600080fd5b505afa158015610a07573d6000803e3d6000fd5b505050506040513d6020811015610a1d57600080fd5b50511515610a63576040805160e560020a62461bcd0281526020600482015260186024820152600080516020611ebc833981519152604482015290519081900360640190fd5b610a6c3361197b565b1515610ab0576040805160e560020a62461bcd0281526020600482015260116024820152600080516020611f05833981519152604482015290519081900360640190fd5b610ac160048263ffffffff611a8216565b604051600160a060020a038216907f44d5fe68b00f68950fb9c1ff0a61ef7f747b1a36359a7e3a7f3324db4b87896790600090a250565b6003546002546040805160e060020a639be2faed028152306004820152600160a060020a03928316602482015290519190921691639be2faed916044808301926020929190829003018186803b158015610b5157600080fd5b505afa158015610b65573d6000803e3d6000fd5b505050506040513d6020811015610b7b57600080fd5b50511515610bc1576040805160e560020a62461bcd0281526020600482015260186024820152600080516020611ebc833981519152604482015290519081900360640190fd5b610bca3361197b565b1515610c0e576040805160e560020a62461bcd0281526020600482015260116024820152600080516020611f05833981519152604482015290519081900360640190fd5b610c1782611a05565b80516020808301918220600160a060020a03851660009081526009909252604090912083519192610c4792611de3565b506000908152600a60205260409020805473ffffffffffffffffffffffffffffffffffffffff1916600160a060020a03939093169290921790915550565b600254600160a060020a03161515610ce7576040805160e560020a62461bcd02815260206004820152601160248201527f417661746172206973206e6f7420736574000000000000000000000000000000604482015290519081900360640190fd5b6003546002546040805160e060020a639be2faed028152306004820152600160a060020a03928316602482015290519190921691639be2faed916044808301926020929190829003018186803b158015610d4057600080fd5b505afa158015610d54573d6000803e3d6000fd5b505050506040513d6020811015610d6a57600080fd5b50511515610876576040805160e560020a62461bcd0281526020600482015260186024820152600080516020611ebc833981519152604482015290519081900360640190fd5b6003546002546040805160e060020a639be2faed028152306004820152600160a060020a03928316602482015290519190921691639be2faed916044808301926020929190829003018186803b158015610e0957600080fd5b505afa158015610e1d573d6000803e3d6000fd5b505050506040513d6020811015610e3357600080fd5b50511515610e79576040805160e560020a62461bcd0281526020600482015260186024820152600080516020611ebc833981519152604482015290519081900360640190fd5b610e823361197b565b1515610ec6576040805160e560020a62461bcd0281526020600482015260116024820152600080516020611f05833981519152604482015290519081900360640190fd5b61099781611ad0565b6000610ee260058363ffffffff611c3916565b92915050565b60096020908152600091825260409182902080548351601f600260001961010060018616150201909316929092049182018490048402810184019094528084529091830182828015610f7b5780601f10610f5057610100808354040283529160200191610f7b565b820191906000526020600020905b815481529060010190602001808311610f5e57829003601f168201915b505050505081565b6003546002546040805160e060020a639be2faed028152306004820152600160a060020a03928316602482015290519190921691639be2faed916044808301926020929190829003018186803b158015610fdc57600080fd5b505afa158015610ff0573d6000803e3d6000fd5b505050506040513d602081101561100657600080fd5b5051151561104c576040805160e560020a62461bcd0281526020600482015260186024820152600080516020611ebc833981519152604482015290519081900360640190fd5b6110553361197b565b1515611099576040805160e560020a62461bcd0281526020600482015260116024820152600080516020611f05833981519152604482015290519081900360640190fd5b6110a281611c70565b15156110f8576040805160e560020a62461bcd02815260206004820152601f60248201527f476976656e2061646472657373206973206e6f74206120636f6e747261637400604482015290519081900360640190fd5b61110960068263ffffffff611a8216565b61111281611a05565b604051600160a060020a038216907f89c66952b48f3e96bf1d8ba1b63189520fd988a6979b8b740bd5c5d8dc53e20590600090a250565b600a60205260009081526040902054600160a060020a031681565b6007545b90565b6111736113ad565b151561117e57600080fd5b60008054604051600160a060020a03909116907f8be0079c531659141344cd1fd0a4f28419497f9722a3daafe3b4186f6b6457e0908390a36000805473ffffffffffffffffffffffffffffffffffffffff19169055565b60008133600160a060020a0382161480156112d1575030600160a060020a0316638da5cb5b6040518163ffffffff1660e060020a02815260040160206040518083038186803b15801561122757600080fd5b505afa15801561123b573d6000803e3d6000fd5b505050506040513d602081101561125157600080fd5b50516040805160e060020a638da5cb5b0281529051600160a060020a0392831692841691638da5cb5b916004808301926020929190829003018186803b15801561129a57600080fd5b505afa1580156112ae573d6000803e3d6000fd5b505050506040513d60208110156112c457600080fd5b5051600160a060020a0316145b8061134b575030600160a060020a0316638da5cb5b6040518163ffffffff1660e060020a02815260040160206040518083038186803b15801561131357600080fd5b505afa158015611327573d6000803e3d6000fd5b505050506040513d602081101561133d57600080fd5b5051600160a060020a031633145b151561138b5760405160e560020a62461bcd028152600401808060200182810382526029815260200180611edc6029913960400191505060405180910390fd5b611394846119bd565b5060019392505050565b600054600160a060020a031690565b600054600160a060020a0316331490565b60008133600160a060020a0382161480156114ba575030600160a060020a0316638da5cb5b6040518163ffffffff1660e060020a02815260040160206040518083038186803b15801561141057600080fd5b505afa158015611424573d6000803e3d6000fd5b505050506040513d602081101561143a57600080fd5b50516040805160e060020a638da5cb5b0281529051600160a060020a0392831692841691638da5cb5b916004808301926020929190829003018186803b15801561148357600080fd5b505afa158015611497573d6000803e3d6000fd5b505050506040513d60208110156114ad57600080fd5b5051600160a060020a0316145b80611534575030600160a060020a0316638da5cb5b6040518163ffffffff1660e060020a02815260040160206040518083038186803b1580156114fc57600080fd5b505afa158015611510573d6000803e3d6000fd5b505050506040513d602081101561152657600080fd5b5051600160a060020a031633145b15156115745760405160e560020a62461bcd028152600401808060200182810382526029815260200180611edc6029913960400191505060405180910390fd5b61139484611c78565b600160a060020a031660009081526008602052604090205490565b6003546002546040805160e060020a639be2faed028152306004820152600160a060020a03928316602482015290519190921691639be2faed916044808301926020929190829003018186803b1580156115f157600080fd5b505afa158015611605573d6000803e3d6000fd5b505050506040513d602081101561161b57600080fd5b50511515611661576040805160e560020a62461bcd0281526020600482015260186024820152600080516020611ebc833981519152604482015290519081900360640190fd5b61166a3361197b565b15156116ae576040805160e560020a62461bcd0281526020600482015260116024820152600080516020611f05833981519152604482015290519081900360640190fd5b610ec660068263ffffffff611cc016565b6003546002546040805160e060020a639be2faed028152306004820152600160a060020a03928316602482015290519190921691639be2faed916044808301926020929190829003018186803b15801561171857600080fd5b505afa15801561172c573d6000803e3d6000fd5b505050506040513d602081101561174257600080fd5b50511515611788576040805160e560020a62461bcd0281526020600482015260186024820152600080516020611ebc833981519152604482015290519081900360640190fd5b6117913361197b565b15156117d5576040805160e560020a62461bcd0281526020600482015260116024820152600080516020611f05833981519152604482015290519081900360640190fd5b6117e660048263ffffffff611cc016565b604051600160a060020a038216907f1747ca720b1a174a464b6513ace29b1d3190b5f632b9f34147017c81425bfde890600090a250565b6000610ee260068363ffffffff611c3916565b61087633611ad0565b611842816119aa565b15611897576040805160e560020a62461bcd02815260206004820152601e60248201527f43616e6e6f74207472616e7366657220746f20626c61636b6c69737465640000604482015290519081900360640190fd5b3360009081526009602090815260409182902080548351601f600260001961010060018616150201909316929092049182018490048402810184019094528084526060939283018282801561192d5780601f106119025761010080835404028352916020019161192d565b820191906000526020600020905b81548152906001019060200180831161191057829003601f168201915b5050505050905060008180519060200120905061194933611ad0565b61195283611a05565b600160a060020a03831660009081526009602090815260409091208351610c4792850190611de3565b6000610ee260018363ffffffff611c3916565b6119966113ad565b15156119a157600080fd5b61099781611d0c565b6000610ee260048363ffffffff611c3916565b6119ce60018263ffffffff611cc016565b604051600160a060020a038216907f869f6a5b4767d57c58d57f1ddf82e1516487f35944a19bf30a4a21bd35f6ad0590600090a250565b611a1660058263ffffffff611a8216565b611a1f81611c70565b1515611a4b57611a2f6001611d89565b600160a060020a03811660009081526008602052604090204290555b604051600160a060020a038216907fee1504a83b6d4a361f4c1dc78ab59bfa30d6a3b6612c403e86bb01ef2984295f90600090a250565b600160a060020a0381161515611a9757600080fd5b611aa18282611c39565b15611aab57600080fd5b600160a060020a0316600090815260209190915260409020805460ff19166001179055565b611ae160058263ffffffff611cc016565b611aea81611c70565b1515611afa57611afa6001611da2565b600160a060020a03811660009081526009602090815260409182902080548351601f6002600019610100600186161502019093169290920491820184900484028101840190945280845260609392830182828015611b995780601f10611b6e57610100808354040283529160200191611b99565b820191906000526020600020905b815481529060010190602001808311611b7c57829003601f168201915b50508351602080860191909120600160a060020a0388166000908152600883526040808220829055600990935291822095965094611bdb945092509050611e61565b6000818152600a6020526040808220805473ffffffffffffffffffffffffffffffffffffffff1916905551600160a060020a038516917f270d9b30cf5b0793bbfd54c9d5b94aeb49462b8148399000265144a8722da6b691a2505050565b6000600160a060020a0382161515611c5057600080fd5b50600160a060020a03166000908152602091909152604090205460ff1690565b6000903b1190565b611c8960018263ffffffff611a8216565b604051600160a060020a038216907f3505858ac30c166c603cb64de4a970615e36a4ed8fea37ba93bc5f11a38dd30990600090a250565b600160a060020a0381161515611cd557600080fd5b611cdf8282611c39565b1515611cea57600080fd5b600160a060020a0316600090815260209190915260409020805460ff19169055565b600160a060020a0381161515611d2157600080fd5b60008054604051600160a060020a03808516939216917f8be0079c531659141344cd1fd0a4f28419497f9722a3daafe3b4186f6b6457e091a36000805473ffffffffffffffffffffffffffffffffffffffff1916600160a060020a0392909216919091179055565b600754611d9c908263ffffffff611db516565b60075550565b600754611d9c908263ffffffff611dce16565b600082820183811015611dc757600080fd5b9392505050565b600082821115611ddd57600080fd5b50900390565b828054600181600116156101000203166002900490600052602060002090601f016020900481019282601f10611e2457805160ff1916838001178555611e51565b82800160010185558215611e51579182015b82811115611e51578251825591602001919060010190611e36565b50611e5d929150611ea1565b5090565b50805460018160011615610100020316600290046000825580601f10611e875750610997565b601f01602090049060005260206000209081019061099791905b61116891905b80821115611e5d5760008155600101611ea756fe536368656d65206973206e6f74207265676973746572656400000000000000004f6e6c792063616c6c61626c6520627920617661746172206f66206f776e6572206f72206f776e65726e6f74204964656e7469747941646d696e000000000000000000000000000000a165627a7a72305820c33da7c1d7de80ddf6e457e969034f877b5f5391a14db53f94a545d8101a2db80029",
  "source": "pragma solidity 0.5.4;\n\nimport \"openzeppelin-solidity/contracts/access/Roles.sol\";\nimport \"openzeppelin-solidity/contracts/math/SafeMath.sol\";\n\nimport \"@daostack/arc/contracts/controller/Avatar.sol\";\n\nimport \"../dao/schemes/SchemeGuard.sol\";\nimport \"./IdentityAdminRole.sol\";\n\n/* @title Identity contract responsible for whitelisting\n * and keeping track of amount of whitelisted users\n */\ncontract Identity is IdentityAdminRole, SchemeGuard {\n    using Roles for Roles.Role;\n    using SafeMath for uint256;\n\n    Roles.Role private blacklist;\n    Roles.Role private whitelist;\n    Roles.Role private contracts;\n\n    uint256 private whitelistedCount;\n    mapping(address => uint) dateAdded;\n\n    mapping (address => string) public addrToDID;\n    mapping (bytes32 => address) public didHashToAddress;\n\n    event BlacklistAdded(address indexed account);\n    event BlacklistRemoved(address indexed account);\n \n    event WhitelistedAdded(address indexed account);\n    event WhitelistedRemoved(address indexed account);\n\n    event ContractAdded(address indexed account);\n    event ContractRemoved(address indexed account);\n\n    constructor() public SchemeGuard(Avatar(0)) {}\n\n    /* @dev Adds an address as whitelisted. Eligble for claiming UBI.\n     * Can only be called by Identity Administrators.\n     * @param account address to add as whitelisted\n     */\n    function addWhitelisted(address account)\n        public\n        onlyRegistered\n        onlyIdentityAdmin\n    {\n        _addWhitelisted(account);\n    }\n\n    function addWhitelistedWithDID(address account, string memory did) \n        public\n        onlyRegistered\n        onlyIdentityAdmin \n    {\n        _addWhitelisted(account);\n\n        bytes32 pHash = keccak256(bytes(did));\n        addrToDID[account] = did;\n        didHashToAddress[pHash] = account;\n    }\n\n    /* @dev Removes an address as whitelisted.\n     * Can only be called by Identity Administrators.\n     * @param account address to remove as whitelisted\n     */\n    function removeWhitelisted(address account)\n        public\n        onlyRegistered\n        onlyIdentityAdmin\n    {\n        _removeWhitelisted(account);\n    }\n\n    function renounceWhitelisted() public {\n        _removeWhitelisted(msg.sender);\n    }\n\n    /* @dev Reverts if given address has not been added to whitelist\n     * @param account the address to check\n     * @return a bool indicating weather the address is present in whitelist\n     */\n    function isWhitelisted(address account)\n        public\n        view\n        returns (bool)\n    {\n        return whitelist.has(account);\n    }\n\n    /* @dev Gets the amount of whitelist\n     * @return a uint representing the current amount of whitelist\n     */\n    function getWhitelistedCount()\n        public\n        view\n        returns (uint)\n    {\n        return whitelistedCount;\n    }\n\n    function wasAdded(address account) public view returns (uint) {\n        return dateAdded[account];\n    }\n\n    function transferAccount(address account) public {\n        require(!isBlacklisted(account), \"Cannot transfer to blacklisted\");\n\n        string memory did = addrToDID[msg.sender];\n        bytes32 pHash = keccak256(bytes(did));\n\n        _removeWhitelisted(msg.sender);\n        _addWhitelisted(account);\n\n        addrToDID[account] = did;\n        didHashToAddress[pHash] = account;\n    }\n\n    /* @dev Adds an address to blacklist.\n     * Can only be called by Identity Administrators.\n     * @param account address to add as blacklisted\n     */\n    function addBlacklisted(address account)\n        public\n        onlyRegistered\n        onlyIdentityAdmin\n    {\n        blacklist.add(account);\n        emit BlacklistAdded(account);\n    }\n\n    /* @dev Removes an address from blacklist\n     * Can only be called by Identity Administrators.\n     * @param account address to remove as blacklisted\n     */\n    function removeBlacklisted(address account)\n        public\n        onlyRegistered\n        onlyIdentityAdmin\n    {\n        blacklist.remove(account);\n        emit BlacklistRemoved(account);\n    }\n\n    function addContract(address account)\n        public\n        onlyRegistered\n        onlyIdentityAdmin\n    {\n        require(isContract(account), \"Given address is not a contract\");\n        contracts.add(account);\n        _addWhitelisted(account);\n\n        emit ContractAdded(account);\n    }\n\n    function removeContract(address account)\n        public\n        onlyRegistered\n        onlyIdentityAdmin\n    {\n        contracts.remove(account);\n        _removeWhitelisted(account);\n    }\n\n    function isDAOContract(address account)\n        public\n        view\n        returns (bool)\n    {\n        return contracts.has(account);\n    }\n\n    function _addWhitelisted(address account) internal {\n        whitelist.add(account);\n        \n        if(!isContract(account))\n        {\n            increaseWhitelistedCount(1);\n            dateAdded[account] = now;\n        }\n\n        emit WhitelistedAdded(account);\n    }\n\n    function _removeWhitelisted(address account) internal {\n        whitelist.remove(account);\n\n        if (!isContract(account)) {\n            decreaseWhitelistedCount(1);\n        }\n\n        string memory did = addrToDID[account];\n        bytes32 pHash = keccak256(bytes(did));\n\n        delete dateAdded[account];\n        delete addrToDID[account];\n        delete didHashToAddress[pHash];\n\n        emit WhitelistedRemoved(account);\n    }\n\n    /* @dev Reverts if given address has been added to the blacklist\n     * @param account the address to check\n     * @return a bool indicating weather the address is present in the blacklist\n     */\n    function isBlacklisted(address account)\n        public\n        view\n        returns (bool)\n    {\n        return blacklist.has(account);\n    }\n\n    /* @dev Checks to see if given address is a contract\n     */\n    function isContract(address _addr)\n        view\n        internal\n        returns (bool)\n    {\n        uint length;\n        assembly { length := extcodesize(_addr) }\n        return length > 0;\n    }\n\n    /* @dev Internal function that increases count of whitelisted users by\n     * given amount\n     * @param value an uint with which the whitelisted count will increase by\n     */\n    function increaseWhitelistedCount(uint value)\n        internal\n    {\n        whitelistedCount = whitelistedCount.add(value);\n    }\n\n    /* @dev Internal function that decreases count of whitelisted users by\n     * given amount\n     * @param value an uint with which the whitelisted count will increase by\n     */\n    function decreaseWhitelistedCount(uint value)\n        internal\n    {\n        whitelistedCount = whitelistedCount.sub(value);\n    }\n}",
  "sourcePath": "/Users/hadar/workspace/GoodDollar/GoodBootstrap/packages/contracts/contracts/identity/Identity.sol",
  "compiler": {
    "name": "solc",
    "version": "0.5.4+commit.9549d8ff.Emscripten.clang"
  },
  "schemaVersion": "3.0.16",
  "updatedAt": "2019-10-25T11:04:07.951Z",
  "devdoc": {
    "methods": {
      "addIdentityAdmin(address,address)": {
        "details": "Adds a identity admin account. Is only callable by owner.\r",
        "params": {
          "account": "Address to be added\r"
        }
      },
      "isIdentityAdmin(address)": {
        "details": "Checks if account is identity admin\r",
        "params": {
          "account": "Account to check\r"
        },
        "return": "Boolean indicating if account is identity admin\r"
      },
      "isOwner()": {
        "return": "true if `msg.sender` is the owner of the contract."
      },
      "owner()": {
        "return": "the address of the owner."
      },
      "removeIdentityAdmin(address,address)": {
        "details": "Removes a identity admin account. Is only callable by owner.\r",
        "params": {
          "account": "Address to be removed\r"
        }
      },
      "renounceIdentityAdmin()": {
        "details": "Allows a privileged holder to renounce their role "
      },
      "renounceOwnership()": {
        "details": "Allows the current owner to relinquish control of the contract."
      },
      "transferOwnership(address)": {
        "details": "Allows the current owner to transfer control of the contract to a newOwner.",
        "params": {
          "newOwner": "The address to transfer ownership to."
        }
      }
    }
  },
  "userdoc": {
    "methods": {
      "renounceOwnership()": {
        "notice": "Renouncing to ownership will leave the contract without an owner. It will not be possible to call the functions with the `onlyOwner` modifier anymore."
      }
    }
  }
}