{
  "contractName": "Identity",
  "abi": [
    {
      "inputs": [],
      "payable": false,
      "stateMutability": "nonpayable",
      "type": "constructor"
    },
    {
      "anonymous": false,
      "inputs": [
        {
          "indexed": true,
          "internalType": "address",
          "name": "account",
          "type": "address"
        }
      ],
      "name": "BlacklistAdded",
      "type": "event"
    },
    {
      "anonymous": false,
      "inputs": [
        {
          "indexed": true,
          "internalType": "address",
          "name": "account",
          "type": "address"
        }
      ],
      "name": "BlacklistRemoved",
      "type": "event"
    },
    {
      "anonymous": false,
      "inputs": [
        {
          "indexed": true,
          "internalType": "address",
          "name": "account",
          "type": "address"
        }
      ],
      "name": "ContractAdded",
      "type": "event"
    },
    {
      "anonymous": false,
      "inputs": [
        {
          "indexed": true,
          "internalType": "address",
          "name": "account",
          "type": "address"
        }
      ],
      "name": "ContractRemoved",
      "type": "event"
    },
    {
      "anonymous": false,
      "inputs": [
        {
          "indexed": true,
          "internalType": "address",
          "name": "account",
          "type": "address"
        }
      ],
      "name": "IdentityAdminAdded",
      "type": "event"
    },
    {
      "anonymous": false,
      "inputs": [
        {
          "indexed": true,
          "internalType": "address",
          "name": "account",
          "type": "address"
        }
      ],
      "name": "IdentityAdminRemoved",
      "type": "event"
    },
    {
      "anonymous": false,
      "inputs": [
        {
          "indexed": true,
          "internalType": "address",
          "name": "previousOwner",
          "type": "address"
        },
        {
          "indexed": true,
          "internalType": "address",
          "name": "newOwner",
          "type": "address"
        }
      ],
      "name": "OwnershipTransferred",
      "type": "event"
    },
    {
      "anonymous": false,
      "inputs": [
        {
          "indexed": false,
          "internalType": "address",
          "name": "account",
          "type": "address"
        }
      ],
      "name": "Paused",
      "type": "event"
    },
    {
      "anonymous": false,
      "inputs": [
        {
          "indexed": true,
          "internalType": "address",
          "name": "account",
          "type": "address"
        }
      ],
      "name": "PauserAdded",
      "type": "event"
    },
    {
      "anonymous": false,
      "inputs": [
        {
          "indexed": true,
          "internalType": "address",
          "name": "account",
          "type": "address"
        }
      ],
      "name": "PauserRemoved",
      "type": "event"
    },
    {
      "anonymous": false,
      "inputs": [
        {
          "indexed": false,
          "internalType": "address",
          "name": "account",
          "type": "address"
        }
      ],
      "name": "Unpaused",
      "type": "event"
    },
    {
      "anonymous": false,
      "inputs": [
        {
          "indexed": true,
          "internalType": "address",
          "name": "account",
          "type": "address"
        }
      ],
      "name": "WhitelistedAdded",
      "type": "event"
    },
    {
      "anonymous": false,
      "inputs": [
        {
          "indexed": true,
          "internalType": "address",
          "name": "account",
          "type": "address"
        }
      ],
      "name": "WhitelistedRemoved",
      "type": "event"
    },
    {
      "constant": false,
      "inputs": [
        {
          "internalType": "address",
          "name": "account",
          "type": "address"
        }
      ],
      "name": "addIdentityAdmin",
      "outputs": [
        {
          "internalType": "bool",
          "name": "",
          "type": "bool"
        }
      ],
      "payable": false,
      "stateMutability": "nonpayable",
      "type": "function"
    },
    {
      "constant": false,
      "inputs": [
        {
          "internalType": "address",
          "name": "account",
          "type": "address"
        }
      ],
      "name": "addPauser",
      "outputs": [],
      "payable": false,
      "stateMutability": "nonpayable",
      "type": "function"
    },
    {
      "constant": true,
      "inputs": [
        {
          "internalType": "address",
          "name": "",
          "type": "address"
        }
      ],
      "name": "addrToDID",
      "outputs": [
        {
          "internalType": "string",
          "name": "",
          "type": "string"
        }
      ],
      "payable": false,
      "stateMutability": "view",
      "type": "function"
    },
    {
      "constant": true,
      "inputs": [],
      "name": "authenticationPeriod",
      "outputs": [
        {
          "internalType": "uint256",
          "name": "",
          "type": "uint256"
        }
      ],
      "payable": false,
      "stateMutability": "view",
      "type": "function"
    },
    {
      "constant": true,
      "inputs": [
        {
          "internalType": "address",
          "name": "",
          "type": "address"
        }
      ],
      "name": "dateAdded",
      "outputs": [
        {
          "internalType": "uint256",
          "name": "",
          "type": "uint256"
        }
      ],
      "payable": false,
      "stateMutability": "view",
      "type": "function"
    },
    {
      "constant": true,
      "inputs": [
        {
          "internalType": "address",
          "name": "",
          "type": "address"
        }
      ],
      "name": "dateAuthenticated",
      "outputs": [
        {
          "internalType": "uint256",
          "name": "",
          "type": "uint256"
        }
      ],
      "payable": false,
      "stateMutability": "view",
      "type": "function"
    },
    {
      "constant": true,
      "inputs": [
        {
          "internalType": "bytes32",
          "name": "",
          "type": "bytes32"
        }
      ],
      "name": "didHashToAddress",
      "outputs": [
        {
          "internalType": "address",
          "name": "",
          "type": "address"
        }
      ],
      "payable": false,
      "stateMutability": "view",
      "type": "function"
    },
    {
      "constant": true,
      "inputs": [
        {
          "internalType": "address",
          "name": "account",
          "type": "address"
        }
      ],
      "name": "isIdentityAdmin",
      "outputs": [
        {
          "internalType": "bool",
          "name": "",
          "type": "bool"
        }
      ],
      "payable": false,
      "stateMutability": "view",
      "type": "function"
    },
    {
      "constant": true,
      "inputs": [],
      "name": "isOwner",
      "outputs": [
        {
          "internalType": "bool",
          "name": "",
          "type": "bool"
        }
      ],
      "payable": false,
      "stateMutability": "view",
      "type": "function"
    },
    {
      "constant": true,
      "inputs": [
        {
          "internalType": "address",
          "name": "account",
          "type": "address"
        }
      ],
      "name": "isPauser",
      "outputs": [
        {
          "internalType": "bool",
          "name": "",
          "type": "bool"
        }
      ],
      "payable": false,
      "stateMutability": "view",
      "type": "function"
    },
    {
      "constant": true,
      "inputs": [],
      "name": "isRegistered",
      "outputs": [
        {
          "internalType": "bool",
          "name": "",
          "type": "bool"
        }
      ],
      "payable": false,
      "stateMutability": "view",
      "type": "function"
    },
    {
      "constant": true,
      "inputs": [
        {
          "internalType": "address",
          "name": "scheme",
          "type": "address"
        }
      ],
      "name": "isRegistered",
      "outputs": [
        {
          "internalType": "bool",
          "name": "",
          "type": "bool"
        }
      ],
      "payable": false,
      "stateMutability": "view",
      "type": "function"
    },
    {
      "constant": true,
      "inputs": [],
      "name": "owner",
      "outputs": [
        {
          "internalType": "address",
          "name": "",
          "type": "address"
        }
      ],
      "payable": false,
      "stateMutability": "view",
      "type": "function"
    },
    {
      "constant": false,
      "inputs": [],
      "name": "pause",
      "outputs": [],
      "payable": false,
      "stateMutability": "nonpayable",
      "type": "function"
    },
    {
      "constant": true,
      "inputs": [],
      "name": "paused",
      "outputs": [
        {
          "internalType": "bool",
          "name": "",
          "type": "bool"
        }
      ],
      "payable": false,
      "stateMutability": "view",
      "type": "function"
    },
    {
      "constant": false,
      "inputs": [
        {
          "internalType": "address",
          "name": "account",
          "type": "address"
        }
      ],
      "name": "removeIdentityAdmin",
      "outputs": [
        {
          "internalType": "bool",
          "name": "",
          "type": "bool"
        }
      ],
      "payable": false,
      "stateMutability": "nonpayable",
      "type": "function"
    },
    {
      "constant": false,
      "inputs": [],
      "name": "renounceIdentityAdmin",
      "outputs": [],
      "payable": false,
      "stateMutability": "nonpayable",
      "type": "function"
    },
    {
      "constant": false,
      "inputs": [],
      "name": "renounceOwnership",
      "outputs": [],
      "payable": false,
      "stateMutability": "nonpayable",
      "type": "function"
    },
    {
      "constant": false,
      "inputs": [],
      "name": "renouncePauser",
      "outputs": [],
      "payable": false,
      "stateMutability": "nonpayable",
      "type": "function"
    },
    {
      "constant": false,
      "inputs": [
        {
          "internalType": "contract Avatar",
          "name": "_avatar",
          "type": "address"
        }
      ],
      "name": "setAvatar",
      "outputs": [],
      "payable": false,
      "stateMutability": "nonpayable",
      "type": "function"
    },
    {
      "constant": false,
      "inputs": [
        {
          "internalType": "address",
          "name": "newOwner",
          "type": "address"
        }
      ],
      "name": "transferOwnership",
      "outputs": [],
      "payable": false,
      "stateMutability": "nonpayable",
      "type": "function"
    },
    {
      "constant": false,
      "inputs": [],
      "name": "unpause",
      "outputs": [],
      "payable": false,
      "stateMutability": "nonpayable",
      "type": "function"
    },
    {
      "constant": true,
      "inputs": [],
      "name": "whitelistedContracts",
      "outputs": [
        {
          "internalType": "uint256",
          "name": "",
          "type": "uint256"
        }
      ],
      "payable": false,
      "stateMutability": "view",
      "type": "function"
    },
    {
      "constant": true,
      "inputs": [],
      "name": "whitelistedCount",
      "outputs": [
        {
          "internalType": "uint256",
          "name": "",
          "type": "uint256"
        }
      ],
      "payable": false,
      "stateMutability": "view",
      "type": "function"
    },
    {
      "constant": false,
      "inputs": [
        {
          "internalType": "uint256",
          "name": "period",
          "type": "uint256"
        }
      ],
      "name": "setAuthenticationPeriod",
      "outputs": [],
      "payable": false,
      "stateMutability": "nonpayable",
      "type": "function"
    },
    {
      "constant": false,
      "inputs": [
        {
          "internalType": "address",
          "name": "account",
          "type": "address"
        }
      ],
      "name": "authenticate",
      "outputs": [],
      "payable": false,
      "stateMutability": "nonpayable",
      "type": "function"
    },
    {
      "constant": false,
      "inputs": [
        {
          "internalType": "address",
          "name": "account",
          "type": "address"
        }
      ],
      "name": "addWhitelisted",
      "outputs": [],
      "payable": false,
      "stateMutability": "nonpayable",
      "type": "function"
    },
    {
      "constant": false,
      "inputs": [
        {
          "internalType": "address",
          "name": "account",
          "type": "address"
        },
        {
          "internalType": "string",
          "name": "did",
          "type": "string"
        }
      ],
      "name": "addWhitelistedWithDID",
      "outputs": [],
      "payable": false,
      "stateMutability": "nonpayable",
      "type": "function"
    },
    {
      "constant": false,
      "inputs": [
        {
          "internalType": "address",
          "name": "account",
          "type": "address"
        }
      ],
      "name": "removeWhitelisted",
      "outputs": [],
      "payable": false,
      "stateMutability": "nonpayable",
      "type": "function"
    },
    {
      "constant": false,
      "inputs": [],
      "name": "renounceWhitelisted",
      "outputs": [],
      "payable": false,
      "stateMutability": "nonpayable",
      "type": "function"
    },
    {
      "constant": true,
      "inputs": [
        {
          "internalType": "address",
          "name": "account",
          "type": "address"
        }
      ],
      "name": "isWhitelisted",
      "outputs": [
        {
          "internalType": "bool",
          "name": "",
          "type": "bool"
        }
      ],
      "payable": false,
      "stateMutability": "view",
      "type": "function"
    },
    {
      "constant": true,
      "inputs": [
        {
          "internalType": "address",
          "name": "account",
          "type": "address"
        }
      ],
      "name": "lastAuthenticated",
      "outputs": [
        {
          "internalType": "uint256",
          "name": "",
          "type": "uint256"
        }
      ],
      "payable": false,
      "stateMutability": "view",
      "type": "function"
    },
    {
      "constant": false,
      "inputs": [
        {
          "internalType": "address",
          "name": "account",
          "type": "address"
        }
      ],
      "name": "addBlacklisted",
      "outputs": [],
      "payable": false,
      "stateMutability": "nonpayable",
      "type": "function"
    },
    {
      "constant": false,
      "inputs": [
        {
          "internalType": "address",
          "name": "account",
          "type": "address"
        }
      ],
      "name": "removeBlacklisted",
      "outputs": [],
      "payable": false,
      "stateMutability": "nonpayable",
      "type": "function"
    },
    {
      "constant": false,
      "inputs": [
        {
          "internalType": "address",
          "name": "account",
          "type": "address"
        }
      ],
      "name": "addContract",
      "outputs": [],
      "payable": false,
      "stateMutability": "nonpayable",
      "type": "function"
    },
    {
      "constant": false,
      "inputs": [
        {
          "internalType": "address",
          "name": "account",
          "type": "address"
        }
      ],
      "name": "removeContract",
      "outputs": [],
      "payable": false,
      "stateMutability": "nonpayable",
      "type": "function"
    },
    {
      "constant": true,
      "inputs": [
        {
          "internalType": "address",
          "name": "account",
          "type": "address"
        }
      ],
      "name": "isDAOContract",
      "outputs": [
        {
          "internalType": "bool",
          "name": "",
          "type": "bool"
        }
      ],
      "payable": false,
      "stateMutability": "view",
      "type": "function"
    },
    {
      "constant": true,
      "inputs": [
        {
          "internalType": "address",
          "name": "account",
          "type": "address"
        }
      ],
      "name": "isBlacklisted",
      "outputs": [
        {
          "internalType": "bool",
          "name": "",
          "type": "bool"
        }
      ],
      "payable": false,
      "stateMutability": "view",
      "type": "function"
    }
  ],
  "bytecode": "0x6080604052600380546001600160a01b031916905560006009819055600a55600e600b553480156200003057600080fd5b50600080546001600160a01b03191633178082556040516001600160a01b03919091169082907f8be0079c531659141344cd1fd0a4f28419497f9722a3daafe3b4186f6b6457e0908290a36200008f336001600160e01b036200017916565b600280546001600160a01b0319166001600160a01b03838116919091179182905516156200015457600260009054906101000a90046001600160a01b03166001600160a01b0316638da5cb5b6040518163ffffffff1660e01b815260040160206040518083038186803b1580156200010657600080fd5b505afa1580156200011b573d6000803e3d6000fd5b505050506040513d60208110156200013257600080fd5b5051600380546001600160a01b0319166001600160a01b039092169190911790555b5062000169336001600160e01b03620001cb16565b6005805460ff19169055620002ac565b620001948160016200021d60201b620014d31790919060201c565b6040516001600160a01b038216907f3505858ac30c166c603cb64de4a970615e36a4ed8fea37ba93bc5f11a38dd30990600090a250565b620001e68160046200021d60201b620014d31790919060201c565b6040516001600160a01b038216907f6719d08c1888103bea251a4ed56406bd0c3e69723c8a1686e017e7bbe159b6f890600090a250565b6001600160a01b0381166200023157600080fd5b6200024682826001600160e01b036200027616565b156200025157600080fd5b6001600160a01b0316600090815260209190915260409020805460ff19166001179055565b60006001600160a01b0382166200028c57600080fd5b506001600160a01b03166000908152602091909152604090205460ff1690565b611a7780620002bc6000396000f3fe608060405234801561001057600080fd5b50600436106102325760003560e01c80636ef8d66d11610130578063c3c5a547116100b8578063e5ecaf591161007c578063e5ecaf59146106d7578063f2fde38b146106fd578063f7d7f9cc14610723578063fe575a8714610749578063fff930d41461076f57610232565b8063c3c5a54714610637578063c6a276c21461065d578063c73cc4ae14610683578063d6cd9473146106a9578063e1e360ba146106b157610232565b80638da5cb5b116100ff5780638da5cb5b146105f15780638f32d59b146105f9578063b2a1de2214610601578063b30f7e7f14610609578063c375c2ef1461061157610232565b80636ef8d66d146105b3578063715018a6146105bb57806382dc1ec4146105c35780638456cb59146105e957610232565b80632bc298ac116101be57806346fbf68e1161018257806346fbf68e1461048b57806354f9f7a3146104b15780635c975abb1461054c5780635f539d691461055457806367c759371461057a57610232565b80632bc298ac146103f75780632ef1afc91461042f57806331b376e2146104555780633af32abf1461045d5780633f4ba83a1461048357610232565b8063188efc1611610205578063188efc16146102b35780631b027099146102d9578063223668441461038f578063291d9549146103ab5780632b32e46c146103d157610232565b8063086cfca81461023757806308e0d29d1461025f5780630f10a8b81461028557806310154bad1461028d575b600080fd5b61025d6004803603602081101561024d57600080fd5b50356001600160a01b031661078c565b005b61025d6004803603602081101561027557600080fd5b50356001600160a01b0316610847565b61025d610908565b61025d600480360360208110156102a357600080fd5b50356001600160a01b0316610913565b61025d600480360360208110156102c957600080fd5b50356001600160a01b03166109c4565b61025d600480360360408110156102ef57600080fd5b6001600160a01b03823516919081019060408101602082013564010000000081111561031a57600080fd5b82018360208201111561032c57600080fd5b8035906020019184600183028401116401000000008311171561034e57600080fd5b91908080601f016020809104026020016040519081016040528093929190818152602001838380828437600092019190915250929550610ab1945050505050565b610397610b64565b604080519115158252519081900360200190f35b61025d600480360360208110156103c157600080fd5b50356001600160a01b0316610b75565b610397600480360360208110156103e757600080fd5b50356001600160a01b0316610c23565b61041d6004803603602081101561040d57600080fd5b50356001600160a01b0316610c48565b60408051918252519081900360200190f35b61041d6004803603602081101561044557600080fd5b50356001600160a01b0316610c5a565b61041d610c6c565b6103976004803603602081101561047357600080fd5b50356001600160a01b0316610c72565b61025d610cd2565b610397600480360360208110156104a157600080fd5b50356001600160a01b0316610d32565b6104d7600480360360208110156104c757600080fd5b50356001600160a01b0316610d4b565b6040805160208082528351818301528351919283929083019185019080838360005b838110156105115781810151838201526020016104f9565b50505050905090810190601f16801561053e5780820380516001836020036101000a031916815260200191505b509250505060405180910390f35b610397610de6565b61025d6004803603602081101561056a57600080fd5b50356001600160a01b0316610def565b6105976004803603602081101561059057600080fd5b5035610f3f565b604080516001600160a01b039092168252519081900360200190f35b61025d610f5a565b61025d610f63565b61025d600480360360208110156105d957600080fd5b50356001600160a01b0316610fbe565b61025d610fd9565b61059761103d565b61039761104c565b61041d61105d565b61041d611063565b61025d6004803603602081101561062757600080fd5b50356001600160a01b0316611069565b6103976004803603602081101561064d57600080fd5b50356001600160a01b031661115f565b61025d6004803603602081101561067357600080fd5b50356001600160a01b0316611243565b6103976004803603602081101561069957600080fd5b50356001600160a01b0316611330565b61025d611343565b61041d600480360360208110156106c757600080fd5b50356001600160a01b031661135c565b610397600480360360208110156106ed57600080fd5b50356001600160a01b0316611377565b61025d6004803603602081101561071357600080fd5b50356001600160a01b031661138a565b6103976004803603602081101561073957600080fd5b50356001600160a01b03166113a4565b6103976004803603602081101561075f57600080fd5b50356001600160a01b03166113c0565b61025d6004803603602081101561078557600080fd5b50356113d3565b61079461104c565b61079d57600080fd5b600280546001600160a01b0319166001600160a01b03838116919091179182905560408051638da5cb5b60e01b815290519290911691638da5cb5b91600480820192602092909190829003018186803b1580156107f957600080fd5b505afa15801561080d573d6000803e3d6000fd5b505050506040513d602081101561082357600080fd5b5051600380546001600160a01b0319166001600160a01b0390921691909117905550565b61084f610b64565b61088e576040805162461bcd60e51b81526020600482015260186024820152600080516020611a23833981519152604482015290519081900360640190fd5b61089733611377565b6108dc576040805162461bcd60e51b81526020600482015260116024820152703737ba1024b232b73a34ba3ca0b236b4b760791b604482015290519081900360640190fd5b60055460ff16156108ec57600080fd5b6001600160a01b03166000908152600c60205260409020429055565b610911336113f9565b565b61091b610b64565b61095a576040805162461bcd60e51b81526020600482015260186024820152600080516020611a23833981519152604482015290519081900360640190fd5b61096333611377565b6109a8576040805162461bcd60e51b81526020600482015260116024820152703737ba1024b232b73a34ba3ca0b236b4b760791b604482015290519081900360640190fd5b60055460ff16156109b857600080fd5b6109c181611441565b50565b6109cc610b64565b610a0b576040805162461bcd60e51b81526020600482015260186024820152600080516020611a23833981519152604482015290519081900360640190fd5b610a1433611377565b610a59576040805162461bcd60e51b81526020600482015260116024820152703737ba1024b232b73a34ba3ca0b236b4b760791b604482015290519081900360640190fd5b60055460ff1615610a6957600080fd5b610a7a60068263ffffffff6114d316565b6040516001600160a01b038216907f44d5fe68b00f68950fb9c1ff0a61ef7f747b1a36359a7e3a7f3324db4b87896790600090a250565b610ab9610b64565b610af8576040805162461bcd60e51b81526020600482015260186024820152600080516020611a23833981519152604482015290519081900360640190fd5b610b0133611377565b610b46576040805162461bcd60e51b81526020600482015260116024820152703737ba1024b232b73a34ba3ca0b236b4b760791b604482015290519081900360640190fd5b60055460ff1615610b5657600080fd5b610b60828261151f565b5050565b6000610b6f3061115f565b90505b90565b610b7d610b64565b610bbc576040805162461bcd60e51b81526020600482015260186024820152600080516020611a23833981519152604482015290519081900360640190fd5b610bc533611377565b610c0a576040805162461bcd60e51b81526020600482015260116024820152703737ba1024b232b73a34ba3ca0b236b4b760791b604482015290519081900360640190fd5b60055460ff1615610c1a57600080fd5b6109c1816115ed565b6000610c2d61104c565b610c3657600080fd5b610c3f8261176c565b5060015b919050565b600d6020526000908152604090205481565b600c6020526000908152604090205481565b600b5481565b6001600160a01b0381166000908152600c602052604081205481906201518090610ca390429063ffffffff6117b416565b81610caa57fe5b049050600b548111158015610ccb5750610ccb60078463ffffffff6117c916565b9392505050565b610cdb33610d32565b610ce457600080fd5b60055460ff16610cf357600080fd5b6005805460ff191690556040805133815290517f5db9ee0a495bf2e6ff9c91a7834c1ba4fdd244a5e8aa4e537bd38aeae4b073aa9181900360200190a1565b6000610d4560048363ffffffff6117c916565b92915050565b600e6020908152600091825260409182902080548351601f600260001961010060018616150201909316929092049182018490048402810184019094528084529091830182828015610dde5780601f10610db357610100808354040283529160200191610dde565b820191906000526020600020905b815481529060010190602001808311610dc157829003601f168201915b505050505081565b60055460ff1690565b610df7610b64565b610e36576040805162461bcd60e51b81526020600482015260186024820152600080516020611a23833981519152604482015290519081900360640190fd5b610e3f33611377565b610e84576040805162461bcd60e51b81526020600482015260116024820152703737ba1024b232b73a34ba3ca0b236b4b760791b604482015290519081900360640190fd5b60055460ff1615610e9457600080fd5b610e9d816117fe565b610eee576040805162461bcd60e51b815260206004820152601f60248201527f476976656e2061646472657373206973206e6f74206120636f6e747261637400604482015290519081900360640190fd5b610eff60088263ffffffff6114d316565b610f0881611441565b6040516001600160a01b038216907f89c66952b48f3e96bf1d8ba1b63189520fd988a6979b8b740bd5c5d8dc53e20590600090a250565b600f602052600090815260409020546001600160a01b031681565b61091133611804565b610f6b61104c565b610f7457600080fd5b600080546040516001600160a01b03909116907f8be0079c531659141344cd1fd0a4f28419497f9722a3daafe3b4186f6b6457e0908390a3600080546001600160a01b0319169055565b610fc733610d32565b610fd057600080fd5b6109c18161184c565b610fe233610d32565b610feb57600080fd5b60055460ff1615610ffb57600080fd5b6005805460ff191660011790556040805133815290517f62e78cea01bee320cd4e420270b5ea74000d11b0c9f74754ebdbfc544b05a2589181900360200190a1565b6000546001600160a01b031690565b6000546001600160a01b0316331490565b60095481565b600a5481565b611071610b64565b6110b0576040805162461bcd60e51b81526020600482015260186024820152600080516020611a23833981519152604482015290519081900360640190fd5b6110b933611377565b6110fe576040805162461bcd60e51b81526020600482015260116024820152703737ba1024b232b73a34ba3ca0b236b4b760791b604482015290519081900360640190fd5b60055460ff161561110e57600080fd5b61111f60088263ffffffff61189416565b611128816115ed565b6040516001600160a01b038216907f8d30d41865a0b811b9545d879520d2dde9f4cc49e4241f486ad9752bc904b56590600090a250565b6002546000906001600160a01b03166111b3576040805162461bcd60e51b8152602060048201526011602482015270105d985d185c881a5cc81b9bdd081cd95d607a1b604482015290519081900360640190fd5b60035460025460408051639be2faed60e01b81526001600160a01b038681166004830152928316602482015290519190921691639be2faed916044808301926020929190829003018186803b15801561120b57600080fd5b505afa15801561121f573d6000803e3d6000fd5b505050506040513d602081101561123557600080fd5b5051610c3f57506000610c43565b61124b610b64565b61128a576040805162461bcd60e51b81526020600482015260186024820152600080516020611a23833981519152604482015290519081900360640190fd5b61129333611377565b6112d8576040805162461bcd60e51b81526020600482015260116024820152703737ba1024b232b73a34ba3ca0b236b4b760791b604482015290519081900360640190fd5b60055460ff16156112e857600080fd5b6112f960068263ffffffff61189416565b6040516001600160a01b038216907f1747ca720b1a174a464b6513ace29b1d3190b5f632b9f34147017c81425bfde890600090a250565b6000610d4560088363ffffffff6117c916565b60055460ff161561135357600080fd5b610911336115ed565b6001600160a01b03166000908152600c602052604090205490565b6000610d4560018363ffffffff6117c916565b61139261104c565b61139b57600080fd5b6109c1816118dc565b60006113ae61104c565b6113b757600080fd5b610c3f826113f9565b6000610d4560068363ffffffff6117c916565b6113db61104c565b6113e457600080fd5b60055460ff16156113f457600080fd5b600b55565b61140a60018263ffffffff61189416565b6040516001600160a01b038216907f869f6a5b4767d57c58d57f1ddf82e1516487f35944a19bf30a4a21bd35f6ad0590600090a250565b61145260078263ffffffff6114d316565b6009805460010190556001600160a01b0381166000908152600d602090815260408083204290819055600c9092529091205561148d816117fe565b1561149c57600a805460010190555b6040516001600160a01b038216907fee1504a83b6d4a361f4c1dc78ab59bfa30d6a3b6612c403e86bb01ef2984295f90600090a250565b6001600160a01b0381166114e657600080fd5b6114f082826117c9565b156114fa57600080fd5b6001600160a01b0316600090815260209190915260409020805460ff19166001179055565b80516020808301919091206000818152600f9092526040909120546001600160a01b03161561158e576040805162461bcd60e51b815260206004820152601660248201527511125108185b1c9958591e481c9959da5cdd195c995960521b604482015290519081900360640190fd5b6001600160a01b0383166000908152600e6020908152604090912083516115b79285019061194a565b506000818152600f6020526040902080546001600160a01b0319166001600160a01b0385161790556115e883611441565b505050565b6115fe60078263ffffffff61189416565b600980546000190190556001600160a01b0381166000908152600c602052604081205561162a816117fe565b1561163a57600a80546000190190555b6001600160a01b0381166000908152600e602090815260409182902080548351601f60026000196101006001861615020190931692909204918201849004840281018401909452808452606093928301828280156116d95780601f106116ae576101008083540402835291602001916116d9565b820191906000526020600020905b8154815290600101906020018083116116bc57829003601f168201915b505083516020808601919091206001600160a01b0388166000908152600c83526040808220829055600e9093529182209596509461171b9450925090506119c8565b6000818152600f602052604080822080546001600160a01b0319169055516001600160a01b038516917f270d9b30cf5b0793bbfd54c9d5b94aeb49462b8148399000265144a8722da6b691a2505050565b61177d60018263ffffffff6114d316565b6040516001600160a01b038216907f3505858ac30c166c603cb64de4a970615e36a4ed8fea37ba93bc5f11a38dd30990600090a250565b6000828211156117c357600080fd5b50900390565b60006001600160a01b0382166117de57600080fd5b506001600160a01b03166000908152602091909152604090205460ff1690565b3b151590565b61181560048263ffffffff61189416565b6040516001600160a01b038216907fcd265ebaf09df2871cc7bd4133404a235ba12eff2041bb89d9c714a2621c7c7e90600090a250565b61185d60048263ffffffff6114d316565b6040516001600160a01b038216907f6719d08c1888103bea251a4ed56406bd0c3e69723c8a1686e017e7bbe159b6f890600090a250565b6001600160a01b0381166118a757600080fd5b6118b182826117c9565b6118ba57600080fd5b6001600160a01b0316600090815260209190915260409020805460ff19169055565b6001600160a01b0381166118ef57600080fd5b600080546040516001600160a01b03808516939216917f8be0079c531659141344cd1fd0a4f28419497f9722a3daafe3b4186f6b6457e091a3600080546001600160a01b0319166001600160a01b0392909216919091179055565b828054600181600116156101000203166002900490600052602060002090601f016020900481019282601f1061198b57805160ff19168380011785556119b8565b828001600101855582156119b8579182015b828111156119b857825182559160200191906001019061199d565b506119c4929150611a08565b5090565b50805460018160011615610100020316600290046000825580601f106119ee57506109c1565b601f0160209004906000526020600020908101906109c191905b610b7291905b808211156119c45760008155600101611a0e56fe536368656d65206973206e6f7420726567697374657265640000000000000000a265627a7a72315820b9ee462a304f3e230d9f0f2ef9572afa917d30c3fc673b5b3dfcec4898572fd064736f6c63430005100032",
  "source": "pragma solidity >0.5.4;\n\nimport \"openzeppelin-solidity/contracts/access/Roles.sol\";\nimport \"openzeppelin-solidity/contracts/math/SafeMath.sol\";\nimport \"openzeppelin-solidity/contracts/lifecycle/Pausable.sol\";\n\nimport \"@daostack/arc/contracts/controller/Avatar.sol\";\n\nimport \"../dao/schemes/SchemeGuard.sol\";\nimport \"./IdentityAdminRole.sol\";\n\n/* @title Identity contract responsible for whitelisting\n * and keeping track of amount of whitelisted users\n */\ncontract Identity is IdentityAdminRole, SchemeGuard, Pausable {\n    using Roles for Roles.Role;\n    using SafeMath for uint256;\n\n    Roles.Role private blacklist;\n    Roles.Role private whitelist;\n    Roles.Role private contracts;\n\n    uint256 public whitelistedCount = 0;\n    uint256 public whitelistedContracts = 0;\n    uint256 public authenticationPeriod = 14;\n\n    mapping(address => uint256) public dateAuthenticated;\n    mapping(address => uint256) public dateAdded;\n\n    mapping(address => string) public addrToDID;\n    mapping(bytes32 => address) public didHashToAddress;\n\n    event BlacklistAdded(address indexed account);\n    event BlacklistRemoved(address indexed account);\n\n    event WhitelistedAdded(address indexed account);\n    event WhitelistedRemoved(address indexed account);\n\n    event ContractAdded(address indexed account);\n    event ContractRemoved(address indexed account);\n\n    constructor() public SchemeGuard(Avatar(0)) {}\n\n    /* @dev Sets a new value for authenticationPeriod.\n     * Can only be called by Identity Administrators.\n     * @param period new value for authenticationPeriod\n     */\n    function setAuthenticationPeriod(uint256 period) public onlyOwner whenNotPaused {\n        authenticationPeriod = period;\n    }\n\n    /* @dev Sets the authentication date of `account`\n     * to the current time.\n     * Can only be called by Identity Administrators.\n     * @param account address to change its auth date\n     */\n    function authenticate(address account)\n        public\n        onlyRegistered\n        onlyIdentityAdmin\n        whenNotPaused\n    {\n        dateAuthenticated[account] = now;\n    }\n\n    /* @dev Adds an address as whitelisted.\n     * Can only be called by Identity Administrators.\n     * @param account address to add as whitelisted\n     */\n    function addWhitelisted(address account)\n        public\n        onlyRegistered\n        onlyIdentityAdmin\n        whenNotPaused\n    {\n        _addWhitelisted(account);\n    }\n\n    /* @dev Adds an address as whitelisted under a specific ID\n     * @param account The address to add\n     * @param did the ID to add account under\n     */\n    function addWhitelistedWithDID(address account, string memory did)\n        public\n        onlyRegistered\n        onlyIdentityAdmin\n        whenNotPaused\n    {\n        _addWhitelistedWithDID(account, did);\n    }\n\n    /* @dev Removes an address as whitelisted.\n     * Can only be called by Identity Administrators.\n     * @param account address to remove as whitelisted\n     */\n    function removeWhitelisted(address account)\n        public\n        onlyRegistered\n        onlyIdentityAdmin\n        whenNotPaused\n    {\n        _removeWhitelisted(account);\n    }\n\n    /* @dev Renounces message sender from whitelisted\n     */\n    function renounceWhitelisted() public whenNotPaused {\n        _removeWhitelisted(msg.sender);\n    }\n\n    /* @dev Returns true if given address has been added to whitelist\n     * @param account the address to check\n     * @return a bool indicating weather the address is present in whitelist\n     */\n    function isWhitelisted(address account) public view returns (bool) {\n        uint256 daysSinceAuthentication = (now.sub(dateAuthenticated[account])) / 1 days;\n        return\n            (daysSinceAuthentication <= authenticationPeriod) && whitelist.has(account);\n    }\n\n    /* @dev Function that gives the date the given user was added\n     * @param account The address to check\n     * @return The date the address was added\n     */\n    function lastAuthenticated(address account) public view returns (uint256) {\n        return dateAuthenticated[account];\n    }\n\n    // /**\n    //  *\n    //  * @dev Function to transfer whitelisted privilege to another address\n    //  * relocates did of sender to give address\n    //  * @param account The address to transfer to\n    //  */\n    // function transferAccount(address account) public whenNotPaused {\n    //     ERC20 token = avatar.nativeToken();\n    //     require(!isBlacklisted(account), \"Cannot transfer to blacklisted\");\n    //     require(token.balanceOf(account) == 0, \"Account is already in use\");\n    //     require(isWhitelisted(msg.sender), \"Requester need to be whitelisted\");\n\n    //     require(\n    //         keccak256(bytes(addrToDID[account])) == keccak256(bytes(\"\")),\n    //         \"address already has DID\"\n    //     );\n\n    //     string memory did = addrToDID[msg.sender];\n    //     bytes32 pHash = keccak256(bytes(did));\n\n    //     uint256 balance = token.balanceOf(msg.sender);\n    //     token.transferFrom(msg.sender, account, balance);\n    //     _removeWhitelisted(msg.sender);\n    //     _addWhitelisted(account);\n    //     addrToDID[account] = did;\n    //     didHashToAddress[pHash] = account;\n    // }\n\n    /* @dev Adds an address to blacklist.\n     * Can only be called by Identity Administrators.\n     * @param account address to add as blacklisted\n     */\n    function addBlacklisted(address account)\n        public\n        onlyRegistered\n        onlyIdentityAdmin\n        whenNotPaused\n    {\n        blacklist.add(account);\n        emit BlacklistAdded(account);\n    }\n\n    /* @dev Removes an address from blacklist\n     * Can only be called by Identity Administrators.\n     * @param account address to remove as blacklisted\n     */\n    function removeBlacklisted(address account)\n        public\n        onlyRegistered\n        onlyIdentityAdmin\n        whenNotPaused\n    {\n        blacklist.remove(account);\n        emit BlacklistRemoved(account);\n    }\n\n    /* @dev Function to add a Contract to list of contracts\n     * @param account The address to add\n     */\n    function addContract(address account)\n        public\n        onlyRegistered\n        onlyIdentityAdmin\n        whenNotPaused\n    {\n        require(isContract(account), \"Given address is not a contract\");\n        contracts.add(account);\n        _addWhitelisted(account);\n\n        emit ContractAdded(account);\n    }\n\n    /* @dev Function to remove a Contract from list of contracts\n     * @param account The address to add\n     */\n    function removeContract(address account)\n        public\n        onlyRegistered\n        onlyIdentityAdmin\n        whenNotPaused\n    {\n        contracts.remove(account);\n        _removeWhitelisted(account);\n\n        emit ContractRemoved(account);\n    }\n\n    /* @dev Function to check if given contract is on list of contracts.\n     * @param address to check\n     * @return a bool indicating if address is on list of contracts\n     */\n    function isDAOContract(address account) public view returns (bool) {\n        return contracts.has(account);\n    }\n\n    /* @dev Internal function to add to whitelisted\n     * @param account the address to add\n     */\n    function _addWhitelisted(address account) internal {\n        whitelist.add(account);\n\n        whitelistedCount += 1;\n        dateAdded[account] = now;\n        dateAuthenticated[account] = now;\n\n        if (isContract(account)) {\n            whitelistedContracts += 1;\n        }\n\n        emit WhitelistedAdded(account);\n    }\n\n    /* @dev Internal whitelisting with did function.\n     * @param account the address to add\n     * @param did the id to register account under\n     */\n    function _addWhitelistedWithDID(address account, string memory did) internal {\n        bytes32 pHash = keccak256(bytes(did));\n        require(didHashToAddress[pHash] == address(0), \"DID already registered\");\n\n        addrToDID[account] = did;\n        didHashToAddress[pHash] = account;\n\n        _addWhitelisted(account);\n    }\n\n    /* @dev Internal function to remove from whitelisted\n     * @param account the address to add\n     */\n    function _removeWhitelisted(address account) internal {\n        whitelist.remove(account);\n\n        whitelistedCount -= 1;\n        delete dateAuthenticated[account];\n\n        if (isContract(account)) {\n            whitelistedContracts -= 1;\n        }\n\n        string memory did = addrToDID[account];\n        bytes32 pHash = keccak256(bytes(did));\n\n        delete dateAuthenticated[account];\n        delete addrToDID[account];\n        delete didHashToAddress[pHash];\n\n        emit WhitelistedRemoved(account);\n    }\n\n    /* @dev Returns true if given address has been added to the blacklist\n     * @param account the address to check\n     * @return a bool indicating weather the address is present in the blacklist\n     */\n    function isBlacklisted(address account) public view returns (bool) {\n        return blacklist.has(account);\n    }\n\n    /* @dev Function to see if given address is a contract\n     * @return true if address is a contract\n     */\n    function isContract(address _addr) internal view returns (bool) {\n        uint256 length;\n        assembly {\n            length := extcodesize(_addr)\n        }\n        return length > 0;\n    }\n}\n",
  "sourcePath": "/Users/hadar/workspace/GoodDollar/GoodBootstrap/packages/contracts/contracts/identity/Identity.sol",
  "compiler": {
    "name": "solc",
    "version": "0.5.16+commit.9c3226ce.Emscripten.clang"
  },
  "schemaVersion": "3.2.3",
  "updatedAt": "2022-10-27T11:34:11.203Z",
  "devdoc": {
    "methods": {
      "addIdentityAdmin(address)": {
        "details": "Adds a identity admin account. Is only callable by owner.",
        "params": {
          "account": "Address to be added"
        },
        "return": "true if successful"
      },
      "isIdentityAdmin(address)": {
        "details": "Checks if account is identity admin",
        "params": {
          "account": "Account to check"
        },
        "return": "Boolean indicating if account is identity admin"
      },
      "isOwner()": {
        "return": "true if `msg.sender` is the owner of the contract."
      },
      "isRegistered()": {
        "details": "function to see if an avatar has been set and if this scheme is registered",
        "return": "true if scheme is registered"
      },
      "isRegistered(address)": {
        "details": "function to see if an avatar has been set and if this scheme is registered",
        "return": "true if scheme is registered"
      },
      "owner()": {
        "return": "the address of the owner."
      },
      "pause()": {
        "details": "called by the owner to pause, triggers stopped state"
      },
      "paused()": {
        "return": "true if the contract is paused, false otherwise."
      },
      "removeIdentityAdmin(address)": {
        "details": "Removes a identity admin account. Is only callable by owner.",
        "params": {
          "account": "Address to be removed"
        },
        "return": "true if successful"
      },
      "renounceIdentityAdmin()": {
        "details": "Allows an admin to renounce their role"
      },
      "renounceOwnership()": {
        "details": "Allows the current owner to relinquish control of the contract."
      },
      "setAvatar(address)": {
        "details": "Function to set a new avatar and controller for scheme can only be done by owner of scheme"
      },
      "transferOwnership(address)": {
        "details": "Allows the current owner to transfer control of the contract to a newOwner.",
        "params": {
          "newOwner": "The address to transfer ownership to."
        }
      },
      "unpause()": {
        "details": "called by the owner to unpause, returns to normal state"
      }
    }
  },
  "userdoc": {
    "methods": {
      "renounceOwnership()": {
        "notice": "Renouncing to ownership will leave the contract without an owner. It will not be possible to call the functions with the `onlyOwner` modifier anymore."
      }
    }
  }
}