{
  "contractName": "Identity",
  "abi": [
    {
      "constant": false,
      "inputs": [
        {
          "name": "_avatar",
          "type": "address"
        }
      ],
      "name": "setAvatar",
      "outputs": [],
      "payable": false,
      "stateMutability": "nonpayable",
      "type": "function"
    },
    {
      "constant": false,
      "inputs": [],
      "name": "renounceIdentityAdmin",
      "outputs": [],
      "payable": false,
      "stateMutability": "nonpayable",
      "type": "function"
    },
    {
      "constant": true,
      "inputs": [],
      "name": "isRegistered",
      "outputs": [
        {
          "name": "",
          "type": "bool"
        }
      ],
      "payable": false,
      "stateMutability": "view",
      "type": "function"
    },
    {
      "constant": false,
      "inputs": [
        {
          "name": "account",
          "type": "address"
        }
      ],
      "name": "addIdentityAdmin",
      "outputs": [
        {
          "name": "",
          "type": "bool"
        }
      ],
      "payable": false,
      "stateMutability": "nonpayable",
      "type": "function"
    },
    {
      "constant": true,
      "inputs": [
        {
          "name": "",
          "type": "address"
        }
      ],
      "name": "dateAdded",
      "outputs": [
        {
          "name": "",
          "type": "uint256"
        }
      ],
      "payable": false,
      "stateMutability": "view",
      "type": "function"
    },
    {
      "constant": true,
      "inputs": [
        {
          "name": "",
          "type": "address"
        }
      ],
      "name": "dateAuthenticated",
      "outputs": [
        {
          "name": "",
          "type": "uint256"
        }
      ],
      "payable": false,
      "stateMutability": "view",
      "type": "function"
    },
    {
      "constant": true,
      "inputs": [],
      "name": "authenticationPeriod",
      "outputs": [
        {
          "name": "",
          "type": "uint256"
        }
      ],
      "payable": false,
      "stateMutability": "view",
      "type": "function"
    },
    {
      "constant": false,
      "inputs": [],
      "name": "unpause",
      "outputs": [],
      "payable": false,
      "stateMutability": "nonpayable",
      "type": "function"
    },
    {
      "constant": true,
      "inputs": [
        {
          "name": "account",
          "type": "address"
        }
      ],
      "name": "isPauser",
      "outputs": [
        {
          "name": "",
          "type": "bool"
        }
      ],
      "payable": false,
      "stateMutability": "view",
      "type": "function"
    },
    {
      "constant": true,
      "inputs": [
        {
          "name": "",
          "type": "address"
        }
      ],
      "name": "addrToDID",
      "outputs": [
        {
          "name": "",
          "type": "string"
        }
      ],
      "payable": false,
      "stateMutability": "view",
      "type": "function"
    },
    {
      "constant": true,
      "inputs": [],
      "name": "paused",
      "outputs": [
        {
          "name": "",
          "type": "bool"
        }
      ],
      "payable": false,
      "stateMutability": "view",
      "type": "function"
    },
    {
      "constant": true,
      "inputs": [
        {
          "name": "",
          "type": "bytes32"
        }
      ],
      "name": "didHashToAddress",
      "outputs": [
        {
          "name": "",
          "type": "address"
        }
      ],
      "payable": false,
      "stateMutability": "view",
      "type": "function"
    },
    {
      "constant": false,
      "inputs": [],
      "name": "renouncePauser",
      "outputs": [],
      "payable": false,
      "stateMutability": "nonpayable",
      "type": "function"
    },
    {
      "constant": false,
      "inputs": [],
      "name": "renounceOwnership",
      "outputs": [],
      "payable": false,
      "stateMutability": "nonpayable",
      "type": "function"
    },
    {
      "constant": false,
      "inputs": [
        {
          "name": "account",
          "type": "address"
        }
      ],
      "name": "addPauser",
      "outputs": [],
      "payable": false,
      "stateMutability": "nonpayable",
      "type": "function"
    },
    {
      "constant": false,
      "inputs": [],
      "name": "pause",
      "outputs": [],
      "payable": false,
      "stateMutability": "nonpayable",
      "type": "function"
    },
    {
      "constant": true,
      "inputs": [],
      "name": "owner",
      "outputs": [
        {
          "name": "",
          "type": "address"
        }
      ],
      "payable": false,
      "stateMutability": "view",
      "type": "function"
    },
    {
      "constant": true,
      "inputs": [],
      "name": "isOwner",
      "outputs": [
        {
          "name": "",
          "type": "bool"
        }
      ],
      "payable": false,
      "stateMutability": "view",
      "type": "function"
    },
    {
      "constant": true,
      "inputs": [],
      "name": "whitelistedCount",
      "outputs": [
        {
          "name": "",
          "type": "uint256"
        }
      ],
      "payable": false,
      "stateMutability": "view",
      "type": "function"
    },
    {
      "constant": true,
      "inputs": [],
      "name": "whitelistedContracts",
      "outputs": [
        {
          "name": "",
          "type": "uint256"
        }
      ],
      "payable": false,
      "stateMutability": "view",
      "type": "function"
    },
    {
      "constant": true,
      "inputs": [
        {
          "name": "scheme",
          "type": "address"
        }
      ],
      "name": "isRegistered",
      "outputs": [
        {
          "name": "",
          "type": "bool"
        }
      ],
      "payable": false,
      "stateMutability": "view",
      "type": "function"
    },
    {
      "constant": true,
      "inputs": [
        {
          "name": "account",
          "type": "address"
        }
      ],
      "name": "isIdentityAdmin",
      "outputs": [
        {
          "name": "",
          "type": "bool"
        }
      ],
      "payable": false,
      "stateMutability": "view",
      "type": "function"
    },
    {
      "constant": false,
      "inputs": [
        {
          "name": "newOwner",
          "type": "address"
        }
      ],
      "name": "transferOwnership",
      "outputs": [],
      "payable": false,
      "stateMutability": "nonpayable",
      "type": "function"
    },
    {
      "constant": false,
      "inputs": [
        {
          "name": "account",
          "type": "address"
        }
      ],
      "name": "removeIdentityAdmin",
      "outputs": [
        {
          "name": "",
          "type": "bool"
        }
      ],
      "payable": false,
      "stateMutability": "nonpayable",
      "type": "function"
    },
    {
      "inputs": [],
      "payable": false,
      "stateMutability": "nonpayable",
      "type": "constructor"
    },
    {
      "anonymous": false,
      "inputs": [
        {
          "indexed": true,
          "name": "account",
          "type": "address"
        }
      ],
      "name": "BlacklistAdded",
      "type": "event"
    },
    {
      "anonymous": false,
      "inputs": [
        {
          "indexed": true,
          "name": "account",
          "type": "address"
        }
      ],
      "name": "BlacklistRemoved",
      "type": "event"
    },
    {
      "anonymous": false,
      "inputs": [
        {
          "indexed": true,
          "name": "account",
          "type": "address"
        }
      ],
      "name": "WhitelistedAdded",
      "type": "event"
    },
    {
      "anonymous": false,
      "inputs": [
        {
          "indexed": true,
          "name": "account",
          "type": "address"
        }
      ],
      "name": "WhitelistedRemoved",
      "type": "event"
    },
    {
      "anonymous": false,
      "inputs": [
        {
          "indexed": true,
          "name": "account",
          "type": "address"
        }
      ],
      "name": "ContractAdded",
      "type": "event"
    },
    {
      "anonymous": false,
      "inputs": [
        {
          "indexed": true,
          "name": "account",
          "type": "address"
        }
      ],
      "name": "ContractRemoved",
      "type": "event"
    },
    {
      "anonymous": false,
      "inputs": [
        {
          "indexed": false,
          "name": "account",
          "type": "address"
        }
      ],
      "name": "Paused",
      "type": "event"
    },
    {
      "anonymous": false,
      "inputs": [
        {
          "indexed": false,
          "name": "account",
          "type": "address"
        }
      ],
      "name": "Unpaused",
      "type": "event"
    },
    {
      "anonymous": false,
      "inputs": [
        {
          "indexed": true,
          "name": "account",
          "type": "address"
        }
      ],
      "name": "PauserAdded",
      "type": "event"
    },
    {
      "anonymous": false,
      "inputs": [
        {
          "indexed": true,
          "name": "account",
          "type": "address"
        }
      ],
      "name": "PauserRemoved",
      "type": "event"
    },
    {
      "anonymous": false,
      "inputs": [
        {
          "indexed": true,
          "name": "account",
          "type": "address"
        }
      ],
      "name": "IdentityAdminAdded",
      "type": "event"
    },
    {
      "anonymous": false,
      "inputs": [
        {
          "indexed": true,
          "name": "account",
          "type": "address"
        }
      ],
      "name": "IdentityAdminRemoved",
      "type": "event"
    },
    {
      "anonymous": false,
      "inputs": [
        {
          "indexed": true,
          "name": "previousOwner",
          "type": "address"
        },
        {
          "indexed": true,
          "name": "newOwner",
          "type": "address"
        }
      ],
      "name": "OwnershipTransferred",
      "type": "event"
    },
    {
      "constant": false,
      "inputs": [
        {
          "name": "period",
          "type": "uint256"
        }
      ],
      "name": "setAuthenticationPeriod",
      "outputs": [],
      "payable": false,
      "stateMutability": "nonpayable",
      "type": "function"
    },
    {
      "constant": false,
      "inputs": [
        {
          "name": "account",
          "type": "address"
        }
      ],
      "name": "authenticate",
      "outputs": [],
      "payable": false,
      "stateMutability": "nonpayable",
      "type": "function"
    },
    {
      "constant": false,
      "inputs": [
        {
          "name": "account",
          "type": "address"
        }
      ],
      "name": "addWhitelisted",
      "outputs": [],
      "payable": false,
      "stateMutability": "nonpayable",
      "type": "function"
    },
    {
      "constant": false,
      "inputs": [
        {
          "name": "account",
          "type": "address"
        },
        {
          "name": "did",
          "type": "string"
        }
      ],
      "name": "addWhitelistedWithDID",
      "outputs": [],
      "payable": false,
      "stateMutability": "nonpayable",
      "type": "function"
    },
    {
      "constant": false,
      "inputs": [
        {
          "name": "account",
          "type": "address"
        }
      ],
      "name": "removeWhitelisted",
      "outputs": [],
      "payable": false,
      "stateMutability": "nonpayable",
      "type": "function"
    },
    {
      "constant": false,
      "inputs": [],
      "name": "renounceWhitelisted",
      "outputs": [],
      "payable": false,
      "stateMutability": "nonpayable",
      "type": "function"
    },
    {
      "constant": true,
      "inputs": [
        {
          "name": "account",
          "type": "address"
        }
      ],
      "name": "isWhitelisted",
      "outputs": [
        {
          "name": "",
          "type": "bool"
        }
      ],
      "payable": false,
      "stateMutability": "view",
      "type": "function"
    },
    {
      "constant": true,
      "inputs": [
        {
          "name": "account",
          "type": "address"
        }
      ],
      "name": "lastAuthenticated",
      "outputs": [
        {
          "name": "",
          "type": "uint256"
        }
      ],
      "payable": false,
      "stateMutability": "view",
      "type": "function"
    },
    {
      "constant": false,
      "inputs": [
        {
          "name": "account",
          "type": "address"
        }
      ],
      "name": "addBlacklisted",
      "outputs": [],
      "payable": false,
      "stateMutability": "nonpayable",
      "type": "function"
    },
    {
      "constant": false,
      "inputs": [
        {
          "name": "account",
          "type": "address"
        }
      ],
      "name": "removeBlacklisted",
      "outputs": [],
      "payable": false,
      "stateMutability": "nonpayable",
      "type": "function"
    },
    {
      "constant": false,
      "inputs": [
        {
          "name": "account",
          "type": "address"
        }
      ],
      "name": "addContract",
      "outputs": [],
      "payable": false,
      "stateMutability": "nonpayable",
      "type": "function"
    },
    {
      "constant": false,
      "inputs": [
        {
          "name": "account",
          "type": "address"
        }
      ],
      "name": "removeContract",
      "outputs": [],
      "payable": false,
      "stateMutability": "nonpayable",
      "type": "function"
    },
    {
      "constant": true,
      "inputs": [
        {
          "name": "account",
          "type": "address"
        }
      ],
      "name": "isDAOContract",
      "outputs": [
        {
          "name": "",
          "type": "bool"
        }
      ],
      "payable": false,
      "stateMutability": "view",
      "type": "function"
    },
    {
      "constant": true,
      "inputs": [
        {
          "name": "account",
          "type": "address"
        }
      ],
      "name": "isBlacklisted",
      "outputs": [
        {
          "name": "",
          "type": "bool"
        }
      ],
      "payable": false,
      "stateMutability": "view",
      "type": "function"
    }
  ],
  "bytecode": "0x608060405260038054600160a060020a031916905560006009819055600a55600e600b553480156200003057600080fd5b5060008054600160a060020a0319163317808255604051600160a060020a03919091169082907f8be0079c531659141344cd1fd0a4f28419497f9722a3daafe3b4186f6b6457e0908290a36200008f3364010000000062000195810204565b60028054600160a060020a031916600160a060020a03838116919091179182905516156200017057600260009054906101000a9004600160a060020a0316600160a060020a0316638da5cb5b6040518163ffffffff167c010000000000000000000000000000000000000000000000000000000002815260040160206040518083038186803b1580156200012257600080fd5b505afa15801562000137573d6000803e3d6000fd5b505050506040513d60208110156200014e57600080fd5b505160038054600160a060020a031916600160a060020a039092169190911790555b506200018533640100000000620001e7810204565b6005805460ff19169055620002cc565b620001b0600182640100000000620015976200023982021704565b604051600160a060020a038216907f3505858ac30c166c603cb64de4a970615e36a4ed8fea37ba93bc5f11a38dd30990600090a250565b62000202600482640100000000620015976200023982021704565b604051600160a060020a038216907f6719d08c1888103bea251a4ed56406bd0c3e69723c8a1686e017e7bbe159b6f890600090a250565b600160a060020a03811615156200024f57600080fd5b62000264828264010000000062000294810204565b156200026f57600080fd5b600160a060020a0316600090815260209190915260409020805460ff19166001179055565b6000600160a060020a0382161515620002ac57600080fd5b50600160a060020a03166000908152602091909152604090205460ff1690565b611b8f80620002dc6000396000f3fe608060405234801561001057600080fd5b506004361061024f576000357c0100000000000000000000000000000000000000000000000000000000900480636ef8d66d1161014d578063c3c5a547116100d5578063e5ecaf5911610099578063e5ecaf59146106f4578063f2fde38b1461071a578063f7d7f9cc14610740578063fe575a8714610766578063fff930d41461078c5761024f565b8063c3c5a54714610654578063c6a276c21461067a578063c73cc4ae146106a0578063d6cd9473146106c6578063e1e360ba146106ce5761024f565b80638da5cb5b1161011c5780638da5cb5b1461060e5780638f32d59b14610616578063b2a1de221461061e578063b30f7e7f14610626578063c375c2ef1461062e5761024f565b80636ef8d66d146105d0578063715018a6146105d857806382dc1ec4146105e05780638456cb59146106065761024f565b80632bc298ac116101db57806346fbf68e1161019f57806346fbf68e146104a857806354f9f7a3146104ce5780635c975abb146105695780635f539d691461057157806367c75937146105975761024f565b80632bc298ac146104145780632ef1afc91461044c57806331b376e2146104725780633af32abf1461047a5780633f4ba83a146104a05761024f565b8063188efc1611610222578063188efc16146102d05780631b027099146102f657806322366844146103ac578063291d9549146103c85780632b32e46c146103ee5761024f565b8063086cfca81461025457806308e0d29d1461027c5780630f10a8b8146102a257806310154bad146102aa575b600080fd5b61027a6004803603602081101561026a57600080fd5b5035600160a060020a03166107a9565b005b61027a6004803603602081101561029257600080fd5b5035600160a060020a0316610899565b61027a61095e565b61027a600480360360208110156102c057600080fd5b5035600160a060020a0316610969565b61027a600480360360208110156102e657600080fd5b5035600160a060020a0316610a1e565b61027a6004803603604081101561030c57600080fd5b600160a060020a03823516919081019060408101602082013564010000000081111561033757600080fd5b82018360208201111561034957600080fd5b8035906020019184600183028401116401000000008311171561036b57600080fd5b91908080601f016020809104026020016040519081016040528093929190818152602001838380828437600092019190915250929550610b0f945050505050565b6103b4610bc6565b604080519115158252519081900360200190f35b61027a600480360360208110156103de57600080fd5b5035600160a060020a0316610bd7565b6103b46004803603602081101561040457600080fd5b5035600160a060020a0316610c89565b61043a6004803603602081101561042a57600080fd5b5035600160a060020a0316610cb0565b60408051918252519081900360200190f35b61043a6004803603602081101561046257600080fd5b5035600160a060020a0316610cc2565b61043a610cd4565b6103b46004803603602081101561049057600080fd5b5035600160a060020a0316610cda565b61027a610d3c565b6103b4600480360360208110156104be57600080fd5b5035600160a060020a0316610da0565b6104f4600480360360208110156104e457600080fd5b5035600160a060020a0316610db9565b6040805160208082528351818301528351919283929083019185019080838360005b8381101561052e578181015183820152602001610516565b50505050905090810190601f16801561055b5780820380516001836020036101000a031916815260200191505b509250505060405180910390f35b6103b4610e54565b61027a6004803603602081101561058757600080fd5b5035600160a060020a0316610e5d565b6105b4600480360360208110156105ad57600080fd5b5035610fb6565b60408051600160a060020a039092168252519081900360200190f35b61027a610fd1565b61027a610fda565b61027a600480360360208110156105f657600080fd5b5035600160a060020a0316611044565b61027a611061565b6105b46110c7565b6103b46110d6565b61043a6110e7565b61043a6110ed565b61027a6004803603602081101561064457600080fd5b5035600160a060020a03166110f3565b6103b46004803603602081101561066a57600080fd5b5035600160a060020a03166111ed565b61027a6004803603602081101561069057600080fd5b5035600160a060020a03166112fd565b6103b4600480360360208110156106b657600080fd5b5035600160a060020a03166113ee565b61027a611401565b61043a600480360360208110156106e457600080fd5b5035600160a060020a031661141a565b6103b46004803603602081101561070a57600080fd5b5035600160a060020a0316611435565b61027a6004803603602081101561073057600080fd5b5035600160a060020a0316611448565b6103b46004803603602081101561075657600080fd5b5035600160a060020a0316611464565b6103b46004803603602081101561077c57600080fd5b5035600160a060020a0316611482565b61027a600480360360208110156107a257600080fd5b5035611495565b6107b16110d6565b15156107bc57600080fd5b6002805473ffffffffffffffffffffffffffffffffffffffff1916600160a060020a038381169190911791829055604080517f8da5cb5b00000000000000000000000000000000000000000000000000000000815290519290911691638da5cb5b91600480820192602092909190829003018186803b15801561083e57600080fd5b505afa158015610852573d6000803e3d6000fd5b505050506040513d602081101561086857600080fd5b50516003805473ffffffffffffffffffffffffffffffffffffffff1916600160a060020a0390921691909117905550565b6108a1610bc6565b15156108e5576040805160e560020a62461bcd0281526020600482015260186024820152600080516020611b24833981519152604482015290519081900360640190fd5b6108ee33611435565b1515610932576040805160e560020a62461bcd0281526020600482015260116024820152600080516020611b44833981519152604482015290519081900360640190fd5b60055460ff161561094257600080fd5b600160a060020a03166000908152600c60205260409020429055565b610967336114bd565b565b610971610bc6565b15156109b5576040805160e560020a62461bcd0281526020600482015260186024820152600080516020611b24833981519152604482015290519081900360640190fd5b6109be33611435565b1515610a02576040805160e560020a62461bcd0281526020600482015260116024820152600080516020611b44833981519152604482015290519081900360640190fd5b60055460ff1615610a1257600080fd5b610a1b81611505565b50565b610a26610bc6565b1515610a6a576040805160e560020a62461bcd0281526020600482015260186024820152600080516020611b24833981519152604482015290519081900360640190fd5b610a7333611435565b1515610ab7576040805160e560020a62461bcd0281526020600482015260116024820152600080516020611b44833981519152604482015290519081900360640190fd5b60055460ff1615610ac757600080fd5b610ad860068263ffffffff61159716565b604051600160a060020a038216907f44d5fe68b00f68950fb9c1ff0a61ef7f747b1a36359a7e3a7f3324db4b87896790600090a250565b610b17610bc6565b1515610b5b576040805160e560020a62461bcd0281526020600482015260186024820152600080516020611b24833981519152604482015290519081900360640190fd5b610b6433611435565b1515610ba8576040805160e560020a62461bcd0281526020600482015260116024820152600080516020611b44833981519152604482015290519081900360640190fd5b60055460ff1615610bb857600080fd5b610bc282826115e5565b5050565b6000610bd1306111ed565b90505b90565b610bdf610bc6565b1515610c23576040805160e560020a62461bcd0281526020600482015260186024820152600080516020611b24833981519152604482015290519081900360640190fd5b610c2c33611435565b1515610c70576040805160e560020a62461bcd0281526020600482015260116024820152600080516020611b44833981519152604482015290519081900360640190fd5b60055460ff1615610c8057600080fd5b610a1b816116ca565b6000610c936110d6565b1515610c9e57600080fd5b610ca782611856565b5060015b919050565b600d6020526000908152604090205481565b600c6020526000908152604090205481565b600b5481565b600160a060020a0381166000908152600c602052604081205481906201518090610d0b90429063ffffffff61189e16565b811515610d1457fe5b049050600b548111158015610d355750610d3560078463ffffffff6118b316565b9392505050565b610d4533610da0565b1515610d5057600080fd5b60055460ff161515610d6157600080fd5b6005805460ff191690556040805133815290517f5db9ee0a495bf2e6ff9c91a7834c1ba4fdd244a5e8aa4e537bd38aeae4b073aa9181900360200190a1565b6000610db360048363ffffffff6118b316565b92915050565b600e6020908152600091825260409182902080548351601f600260001961010060018616150201909316929092049182018490048402810184019094528084529091830182828015610e4c5780601f10610e2157610100808354040283529160200191610e4c565b820191906000526020600020905b815481529060010190602001808311610e2f57829003601f168201915b505050505081565b60055460ff1690565b610e65610bc6565b1515610ea9576040805160e560020a62461bcd0281526020600482015260186024820152600080516020611b24833981519152604482015290519081900360640190fd5b610eb233611435565b1515610ef6576040805160e560020a62461bcd0281526020600482015260116024820152600080516020611b44833981519152604482015290519081900360640190fd5b60055460ff1615610f0657600080fd5b610f0f816118ea565b1515610f65576040805160e560020a62461bcd02815260206004820152601f60248201527f476976656e2061646472657373206973206e6f74206120636f6e747261637400604482015290519081900360640190fd5b610f7660088263ffffffff61159716565b610f7f81611505565b604051600160a060020a038216907f89c66952b48f3e96bf1d8ba1b63189520fd988a6979b8b740bd5c5d8dc53e20590600090a250565b600f60205260009081526040902054600160a060020a031681565b610967336118f2565b610fe26110d6565b1515610fed57600080fd5b60008054604051600160a060020a03909116907f8be0079c531659141344cd1fd0a4f28419497f9722a3daafe3b4186f6b6457e0908390a36000805473ffffffffffffffffffffffffffffffffffffffff19169055565b61104d33610da0565b151561105857600080fd5b610a1b8161193a565b61106a33610da0565b151561107557600080fd5b60055460ff161561108557600080fd5b6005805460ff191660011790556040805133815290517f62e78cea01bee320cd4e420270b5ea74000d11b0c9f74754ebdbfc544b05a2589181900360200190a1565b600054600160a060020a031690565b600054600160a060020a0316331490565b60095481565b600a5481565b6110fb610bc6565b151561113f576040805160e560020a62461bcd0281526020600482015260186024820152600080516020611b24833981519152604482015290519081900360640190fd5b61114833611435565b151561118c576040805160e560020a62461bcd0281526020600482015260116024820152600080516020611b44833981519152604482015290519081900360640190fd5b60055460ff161561119c57600080fd5b6111ad60088263ffffffff61198216565b6111b6816116ca565b604051600160a060020a038216907f8d30d41865a0b811b9545d879520d2dde9f4cc49e4241f486ad9752bc904b56590600090a250565b600254600090600160a060020a03161515611252576040805160e560020a62461bcd02815260206004820152601160248201527f417661746172206973206e6f7420736574000000000000000000000000000000604482015290519081900360640190fd5b600354600254604080517f9be2faed000000000000000000000000000000000000000000000000000000008152600160a060020a038681166004830152928316602482015290519190921691639be2faed916044808301926020929190829003018186803b1580156112c357600080fd5b505afa1580156112d7573d6000803e3d6000fd5b505050506040513d60208110156112ed57600080fd5b50511515610ca757506000610cab565b611305610bc6565b1515611349576040805160e560020a62461bcd0281526020600482015260186024820152600080516020611b24833981519152604482015290519081900360640190fd5b61135233611435565b1515611396576040805160e560020a62461bcd0281526020600482015260116024820152600080516020611b44833981519152604482015290519081900360640190fd5b60055460ff16156113a657600080fd5b6113b760068263ffffffff61198216565b604051600160a060020a038216907f1747ca720b1a174a464b6513ace29b1d3190b5f632b9f34147017c81425bfde890600090a250565b6000610db360088363ffffffff6118b316565b60055460ff161561141157600080fd5b610967336116ca565b600160a060020a03166000908152600c602052604090205490565b6000610db360018363ffffffff6118b316565b6114506110d6565b151561145b57600080fd5b610a1b816119ce565b600061146e6110d6565b151561147957600080fd5b610ca7826114bd565b6000610db360068363ffffffff6118b316565b61149d6110d6565b15156114a857600080fd5b60055460ff16156114b857600080fd5b600b55565b6114ce60018263ffffffff61198216565b604051600160a060020a038216907f869f6a5b4767d57c58d57f1ddf82e1516487f35944a19bf30a4a21bd35f6ad0590600090a250565b61151660078263ffffffff61159716565b600980546001019055600160a060020a0381166000908152600d602090815260408083204290819055600c90925290912055611551816118ea565b1561156057600a805460010190555b604051600160a060020a038216907fee1504a83b6d4a361f4c1dc78ab59bfa30d6a3b6612c403e86bb01ef2984295f90600090a250565b600160a060020a03811615156115ac57600080fd5b6115b682826118b3565b156115c057600080fd5b600160a060020a0316600090815260209190915260409020805460ff19166001179055565b80516020808301919091206000818152600f909252604090912054600160a060020a03161561165e576040805160e560020a62461bcd02815260206004820152601660248201527f44494420616c7265616479207265676973746572656400000000000000000000604482015290519081900360640190fd5b600160a060020a0383166000908152600e60209081526040909120835161168792850190611a4b565b506000818152600f60205260409020805473ffffffffffffffffffffffffffffffffffffffff1916600160a060020a0385161790556116c583611505565b505050565b6116db60078263ffffffff61198216565b60098054600019019055600160a060020a0381166000908152600c6020526040812055611707816118ea565b1561171757600a80546000190190555b600160a060020a0381166000908152600e602090815260409182902080548351601f60026000196101006001861615020190931692909204918201849004840281018401909452808452606093928301828280156117b65780601f1061178b576101008083540402835291602001916117b6565b820191906000526020600020905b81548152906001019060200180831161179957829003601f168201915b50508351602080860191909120600160a060020a0388166000908152600c83526040808220829055600e909352918220959650946117f8945092509050611ac9565b6000818152600f6020526040808220805473ffffffffffffffffffffffffffffffffffffffff1916905551600160a060020a038516917f270d9b30cf5b0793bbfd54c9d5b94aeb49462b8148399000265144a8722da6b691a2505050565b61186760018263ffffffff61159716565b604051600160a060020a038216907f3505858ac30c166c603cb64de4a970615e36a4ed8fea37ba93bc5f11a38dd30990600090a250565b6000828211156118ad57600080fd5b50900390565b6000600160a060020a03821615156118ca57600080fd5b50600160a060020a03166000908152602091909152604090205460ff1690565b6000903b1190565b61190360048263ffffffff61198216565b604051600160a060020a038216907fcd265ebaf09df2871cc7bd4133404a235ba12eff2041bb89d9c714a2621c7c7e90600090a250565b61194b60048263ffffffff61159716565b604051600160a060020a038216907f6719d08c1888103bea251a4ed56406bd0c3e69723c8a1686e017e7bbe159b6f890600090a250565b600160a060020a038116151561199757600080fd5b6119a182826118b3565b15156119ac57600080fd5b600160a060020a0316600090815260209190915260409020805460ff19169055565b600160a060020a03811615156119e357600080fd5b60008054604051600160a060020a03808516939216917f8be0079c531659141344cd1fd0a4f28419497f9722a3daafe3b4186f6b6457e091a36000805473ffffffffffffffffffffffffffffffffffffffff1916600160a060020a0392909216919091179055565b828054600181600116156101000203166002900490600052602060002090601f016020900481019282601f10611a8c57805160ff1916838001178555611ab9565b82800160010185558215611ab9579182015b82811115611ab9578251825591602001919060010190611a9e565b50611ac5929150611b09565b5090565b50805460018160011615610100020316600290046000825580601f10611aef5750610a1b565b601f016020900490600052602060002090810190610a1b91905b610bd491905b80821115611ac55760008155600101611b0f56fe536368656d65206973206e6f74207265676973746572656400000000000000006e6f74204964656e7469747941646d696e000000000000000000000000000000a165627a7a72305820b0695946521360afd02181ff07fcd6dc46bbe19065fa1f5784bd09d517b2229d0029",
  "source": "pragma solidity 0.5.4;\n\nimport \"openzeppelin-solidity/contracts/access/Roles.sol\";\nimport \"openzeppelin-solidity/contracts/math/SafeMath.sol\";\nimport \"openzeppelin-solidity/contracts/lifecycle/Pausable.sol\";\n\nimport \"@daostack/arc/contracts/controller/Avatar.sol\";\n\nimport \"../dao/schemes/SchemeGuard.sol\";\nimport \"./IdentityAdminRole.sol\";\n\n/* @title Identity contract responsible for whitelisting\n * and keeping track of amount of whitelisted users\n */\ncontract Identity is IdentityAdminRole, SchemeGuard, Pausable {\n    using Roles for Roles.Role;\n    using SafeMath for uint256;\n\n    Roles.Role private blacklist;\n    Roles.Role private whitelist;\n    Roles.Role private contracts;\n\n    uint256 public whitelistedCount = 0;\n    uint256 public whitelistedContracts = 0;\n    uint256 public authenticationPeriod = 14;\n\n    mapping(address => uint256) public dateAuthenticated;\n    mapping(address => uint256) public dateAdded;\n\n    mapping(address => string) public addrToDID;\n    mapping(bytes32 => address) public didHashToAddress;\n\n    event BlacklistAdded(address indexed account);\n    event BlacklistRemoved(address indexed account);\n\n    event WhitelistedAdded(address indexed account);\n    event WhitelistedRemoved(address indexed account);\n\n    event ContractAdded(address indexed account);\n    event ContractRemoved(address indexed account);\n\n    constructor() public SchemeGuard(Avatar(0)) {}\n\n    /* @dev Sets a new value for authenticationPeriod.\n     * Can only be called by Identity Administrators.\n     * @param period new value for authenticationPeriod\n     */\n    function setAuthenticationPeriod(uint256 period) public onlyOwner whenNotPaused {\n        authenticationPeriod = period;\n    }\n\n    /* @dev Sets the authentication date of `account`\n     * to the current time.\n     * Can only be called by Identity Administrators.\n     * @param account address to change its auth date\n     */\n    function authenticate(address account)\n        public\n        onlyRegistered\n        onlyIdentityAdmin\n        whenNotPaused\n    {\n        dateAuthenticated[account] = now;\n    }\n\n    /* @dev Adds an address as whitelisted.\n     * Can only be called by Identity Administrators.\n     * @param account address to add as whitelisted\n     */\n    function addWhitelisted(address account)\n        public\n        onlyRegistered\n        onlyIdentityAdmin\n        whenNotPaused\n    {\n        _addWhitelisted(account);\n    }\n\n    /* @dev Adds an address as whitelisted under a specific ID\n     * @param account The address to add\n     * @param did the ID to add account under\n     */\n    function addWhitelistedWithDID(address account, string memory did)\n        public\n        onlyRegistered\n        onlyIdentityAdmin\n        whenNotPaused\n    {\n        _addWhitelistedWithDID(account, did);\n    }\n\n    /* @dev Removes an address as whitelisted.\n     * Can only be called by Identity Administrators.\n     * @param account address to remove as whitelisted\n     */\n    function removeWhitelisted(address account)\n        public\n        onlyRegistered\n        onlyIdentityAdmin\n        whenNotPaused\n    {\n        _removeWhitelisted(account);\n    }\n\n    /* @dev Renounces message sender from whitelisted\n     */\n    function renounceWhitelisted() public whenNotPaused {\n        _removeWhitelisted(msg.sender);\n    }\n\n    /* @dev Returns true if given address has been added to whitelist\n     * @param account the address to check\n     * @return a bool indicating weather the address is present in whitelist\n     */\n    function isWhitelisted(address account) public view returns (bool) {\n        uint256 daysSinceAuthentication = (now.sub(dateAuthenticated[account])) / 1 days;\n        return\n            (daysSinceAuthentication <= authenticationPeriod) && whitelist.has(account);\n    }\n\n    /* @dev Function that gives the date the given user was added\n     * @param account The address to check\n     * @return The date the address was added\n     */\n    function lastAuthenticated(address account) public view returns (uint256) {\n        return dateAuthenticated[account];\n    }\n\n    // /**\n    //  *\n    //  * @dev Function to transfer whitelisted privilege to another address\n    //  * relocates did of sender to give address\n    //  * @param account The address to transfer to\n    //  */\n    // function transferAccount(address account) public whenNotPaused {\n    //     ERC20 token = avatar.nativeToken();\n    //     require(!isBlacklisted(account), \"Cannot transfer to blacklisted\");\n    //     require(token.balanceOf(account) == 0, \"Account is already in use\");\n    //     require(isWhitelisted(msg.sender), \"Requester need to be whitelisted\");\n\n    //     require(\n    //         keccak256(bytes(addrToDID[account])) == keccak256(bytes(\"\")),\n    //         \"address already has DID\"\n    //     );\n\n    //     string memory did = addrToDID[msg.sender];\n    //     bytes32 pHash = keccak256(bytes(did));\n\n    //     uint256 balance = token.balanceOf(msg.sender);\n    //     token.transferFrom(msg.sender, account, balance);\n    //     _removeWhitelisted(msg.sender);\n    //     _addWhitelisted(account);\n    //     addrToDID[account] = did;\n    //     didHashToAddress[pHash] = account;\n    // }\n\n    /* @dev Adds an address to blacklist.\n     * Can only be called by Identity Administrators.\n     * @param account address to add as blacklisted\n     */\n    function addBlacklisted(address account)\n        public\n        onlyRegistered\n        onlyIdentityAdmin\n        whenNotPaused\n    {\n        blacklist.add(account);\n        emit BlacklistAdded(account);\n    }\n\n    /* @dev Removes an address from blacklist\n     * Can only be called by Identity Administrators.\n     * @param account address to remove as blacklisted\n     */\n    function removeBlacklisted(address account)\n        public\n        onlyRegistered\n        onlyIdentityAdmin\n        whenNotPaused\n    {\n        blacklist.remove(account);\n        emit BlacklistRemoved(account);\n    }\n\n    /* @dev Function to add a Contract to list of contracts\n     * @param account The address to add\n     */\n    function addContract(address account)\n        public\n        onlyRegistered\n        onlyIdentityAdmin\n        whenNotPaused\n    {\n        require(isContract(account), \"Given address is not a contract\");\n        contracts.add(account);\n        _addWhitelisted(account);\n\n        emit ContractAdded(account);\n    }\n\n    /* @dev Function to remove a Contract from list of contracts\n     * @param account The address to add\n     */\n    function removeContract(address account)\n        public\n        onlyRegistered\n        onlyIdentityAdmin\n        whenNotPaused\n    {\n        contracts.remove(account);\n        _removeWhitelisted(account);\n\n        emit ContractRemoved(account);\n    }\n\n    /* @dev Function to check if given contract is on list of contracts.\n     * @param address to check\n     * @return a bool indicating if address is on list of contracts\n     */\n    function isDAOContract(address account) public view returns (bool) {\n        return contracts.has(account);\n    }\n\n    /* @dev Internal function to add to whitelisted\n     * @param account the address to add\n     */\n    function _addWhitelisted(address account) internal {\n        whitelist.add(account);\n\n        whitelistedCount += 1;\n        dateAdded[account] = now;\n        dateAuthenticated[account] = now;\n\n        if (isContract(account)) {\n            whitelistedContracts += 1;\n        }\n\n        emit WhitelistedAdded(account);\n    }\n\n    /* @dev Internal whitelisting with did function.\n     * @param account the address to add\n     * @param did the id to register account under\n     */\n    function _addWhitelistedWithDID(address account, string memory did) internal {\n        bytes32 pHash = keccak256(bytes(did));\n        require(didHashToAddress[pHash] == address(0), \"DID already registered\");\n\n        addrToDID[account] = did;\n        didHashToAddress[pHash] = account;\n\n        _addWhitelisted(account);\n    }\n\n    /* @dev Internal function to remove from whitelisted\n     * @param account the address to add\n     */\n    function _removeWhitelisted(address account) internal {\n        whitelist.remove(account);\n\n        whitelistedCount -= 1;\n        delete dateAuthenticated[account];\n\n        if (isContract(account)) {\n            whitelistedContracts -= 1;\n        }\n\n        string memory did = addrToDID[account];\n        bytes32 pHash = keccak256(bytes(did));\n\n        delete dateAuthenticated[account];\n        delete addrToDID[account];\n        delete didHashToAddress[pHash];\n\n        emit WhitelistedRemoved(account);\n    }\n\n    /* @dev Returns true if given address has been added to the blacklist\n     * @param account the address to check\n     * @return a bool indicating weather the address is present in the blacklist\n     */\n    function isBlacklisted(address account) public view returns (bool) {\n        return blacklist.has(account);\n    }\n\n    /* @dev Function to see if given address is a contract\n     * @return true if address is a contract\n     */\n    function isContract(address _addr) internal view returns (bool) {\n        uint256 length;\n        assembly {\n            length := extcodesize(_addr)\n        }\n        return length > 0;\n    }\n}\n",
  "sourcePath": "/Users/hadar/workspace/GoodDollar/GoodBootstrap/packages/contracts/contracts/identity/Identity.sol",
  "compiler": {
    "name": "solc",
    "version": "0.5.4+commit.9549d8ff.Emscripten.clang"
  },
  "schemaVersion": "3.0.16",
  "updatedAt": "2020-07-09T12:07:55.777Z",
  "devdoc": {
    "methods": {
      "addIdentityAdmin(address)": {
        "details": "Adds a identity admin account. Is only callable by owner.\r",
        "params": {
          "account": "Address to be added\r"
        },
        "return": "true if successful\r"
      },
      "isIdentityAdmin(address)": {
        "details": "Checks if account is identity admin\r",
        "params": {
          "account": "Account to check\r"
        },
        "return": "Boolean indicating if account is identity admin\r"
      },
      "isOwner()": {
        "return": "true if `msg.sender` is the owner of the contract."
      },
      "isRegistered()": {
        "details": "function to see if an avatar has been set and if this scheme is registered",
        "return": "true if scheme is registered"
      },
      "isRegistered(address)": {
        "details": "function to see if an avatar has been set and if this scheme is registered",
        "return": "true if scheme is registered"
      },
      "owner()": {
        "return": "the address of the owner."
      },
      "pause()": {
        "details": "called by the owner to pause, triggers stopped state"
      },
      "paused()": {
        "return": "true if the contract is paused, false otherwise."
      },
      "removeIdentityAdmin(address)": {
        "details": "Removes a identity admin account. Is only callable by owner.\r",
        "params": {
          "account": "Address to be removed\r"
        },
        "return": "true if successful\r"
      },
      "renounceIdentityAdmin()": {
        "details": "Allows an admin to renounce their role\r"
      },
      "renounceOwnership()": {
        "details": "Allows the current owner to relinquish control of the contract."
      },
      "setAvatar(address)": {
        "details": "Function to set a new avatar and controller for scheme can only be done by owner of scheme"
      },
      "transferOwnership(address)": {
        "details": "Allows the current owner to transfer control of the contract to a newOwner.",
        "params": {
          "newOwner": "The address to transfer ownership to."
        }
      },
      "unpause()": {
        "details": "called by the owner to unpause, returns to normal state"
      }
    }
  },
  "userdoc": {
    "methods": {
      "renounceOwnership()": {
        "notice": "Renouncing to ownership will leave the contract without an owner. It will not be possible to call the functions with the `onlyOwner` modifier anymore."
      }
    }
  }
}