{
  "contractName": "Identity",
  "abi": [
    {
      "constant": true,
      "inputs": [
        {
          "name": "account",
          "type": "address"
        }
      ],
      "name": "isWhitelisted",
      "outputs": [
        {
          "name": "",
          "type": "bool"
        }
      ],
      "payable": false,
      "stateMutability": "view",
      "type": "function",
      "signature": "0x3af32abf"
    },
    {
      "constant": false,
      "inputs": [],
      "name": "renounceWhitelistAdmin",
      "outputs": [],
      "payable": false,
      "stateMutability": "nonpayable",
      "type": "function",
      "signature": "0x4c5a628c"
    },
    {
      "constant": false,
      "inputs": [
        {
          "name": "account",
          "type": "address"
        }
      ],
      "name": "addWhitelistAdmin",
      "outputs": [],
      "payable": false,
      "stateMutability": "nonpayable",
      "type": "function",
      "signature": "0x7362d9c8"
    },
    {
      "constant": true,
      "inputs": [],
      "name": "whiteListedCount",
      "outputs": [
        {
          "name": "",
          "type": "uint256"
        }
      ],
      "payable": false,
      "stateMutability": "view",
      "type": "function",
      "signature": "0xa79525b7"
    },
    {
      "constant": true,
      "inputs": [
        {
          "name": "account",
          "type": "address"
        }
      ],
      "name": "isWhitelistAdmin",
      "outputs": [
        {
          "name": "",
          "type": "bool"
        }
      ],
      "payable": false,
      "stateMutability": "view",
      "type": "function",
      "signature": "0xbb5f747b"
    },
    {
      "inputs": [],
      "payable": false,
      "stateMutability": "nonpayable",
      "type": "constructor",
      "signature": "constructor"
    },
    {
      "anonymous": false,
      "inputs": [
        {
          "indexed": true,
          "name": "account",
          "type": "address"
        }
      ],
      "name": "WhitelistedAdded",
      "type": "event",
      "signature": "0xee1504a83b6d4a361f4c1dc78ab59bfa30d6a3b6612c403e86bb01ef2984295f"
    },
    {
      "anonymous": false,
      "inputs": [
        {
          "indexed": true,
          "name": "account",
          "type": "address"
        }
      ],
      "name": "WhitelistedRemoved",
      "type": "event",
      "signature": "0x270d9b30cf5b0793bbfd54c9d5b94aeb49462b8148399000265144a8722da6b6"
    },
    {
      "anonymous": false,
      "inputs": [
        {
          "indexed": true,
          "name": "account",
          "type": "address"
        }
      ],
      "name": "WhitelistAdminAdded",
      "type": "event",
      "signature": "0x22380c05984257a1cb900161c713dd71d39e74820f1aea43bd3f1bdd20961299"
    },
    {
      "anonymous": false,
      "inputs": [
        {
          "indexed": true,
          "name": "account",
          "type": "address"
        }
      ],
      "name": "WhitelistAdminRemoved",
      "type": "event",
      "signature": "0x0a8eb35e5ca14b3d6f28e4abf2f128dbab231a58b56e89beb5d636115001e165"
    },
    {
      "constant": true,
      "inputs": [
        {
          "name": "_account",
          "type": "address"
        }
      ],
      "name": "isVerified",
      "outputs": [
        {
          "name": "",
          "type": "bool"
        }
      ],
      "payable": false,
      "stateMutability": "view",
      "type": "function",
      "signature": "0xb9209e33"
    },
    {
      "constant": false,
      "inputs": [
        {
          "name": "account",
          "type": "address"
        }
      ],
      "name": "addWhitelisted",
      "outputs": [],
      "payable": false,
      "stateMutability": "nonpayable",
      "type": "function",
      "signature": "0x10154bad"
    },
    {
      "constant": false,
      "inputs": [
        {
          "name": "account",
          "type": "address"
        }
      ],
      "name": "removeWhitelisted",
      "outputs": [],
      "payable": false,
      "stateMutability": "nonpayable",
      "type": "function",
      "signature": "0x291d9549"
    },
    {
      "constant": false,
      "inputs": [],
      "name": "renounceWhitelisted",
      "outputs": [],
      "payable": false,
      "stateMutability": "nonpayable",
      "type": "function",
      "signature": "0xd6cd9473"
    },
    {
      "constant": false,
      "inputs": [
        {
          "name": "_account",
          "type": "address"
        }
      ],
      "name": "whiteListUser",
      "outputs": [],
      "payable": false,
      "stateMutability": "nonpayable",
      "type": "function",
      "signature": "0x1536ca40"
    },
    {
      "constant": false,
      "inputs": [
        {
          "name": "_account",
          "type": "address"
        }
      ],
      "name": "blackListUser",
      "outputs": [],
      "payable": false,
      "stateMutability": "nonpayable",
      "type": "function",
      "signature": "0x16f3a12d"
    }
  ],
  "bytecode": "0x6080604052600060025534801561001557600080fd5b506100283364010000000061003f810204565b61003a3364010000000061008e810204565b61022f565b6100576000826401000000006105ad6100ea82021704565b604051600160a060020a038216907f22380c05984257a1cb900161c713dd71d39e74820f1aea43bd3f1bdd2096129990600090a250565b6100a033640100000000610141810204565b15156100ab57600080fd5b6100bd81640100000000610160810204565b156100c7576100e7565b6100dd816401000000006103c761017a82021704565b6002805460010190555b50565b600160a060020a03811615156100ff57600080fd5b61011282826401000000006101a9810204565b1561011c57600080fd5b600160a060020a0316600090815260209190915260409020805460ff19166001179055565b600061015a81836401000000006104016101a982021704565b92915050565b600061015a6001836401000000006104016101a982021704565b61018c33640100000000610141810204565b151561019757600080fd5b6100e7816401000000006101e0810204565b6000600160a060020a03821615156101c057600080fd5b50600160a060020a03166000908152602091909152604090205460ff1690565b6101f86001826401000000006105ad6100ea82021704565b604051600160a060020a038216907fee1504a83b6d4a361f4c1dc78ab59bfa30d6a3b6612c403e86bb01ef2984295f90600090a250565b6106278061023e6000396000f3fe6080604052600436106100ae5763ffffffff7c010000000000000000000000000000000000000000000000000000000060003504166310154bad81146100b35780631536ca40146100e857806316f3a12d1461011b578063291d95491461014e5780633af32abf146101815780634c5a628c146101c85780637362d9c8146101dd578063a79525b714610210578063b9209e3314610237578063bb5f747b1461026a578063d6cd94731461029d575b600080fd5b3480156100bf57600080fd5b506100e6600480360360208110156100d657600080fd5b5035600160a060020a03166102b2565b005b3480156100f457600080fd5b506100e66004803603602081101561010b57600080fd5b5035600160a060020a03166102ef565b34801561012757600080fd5b506100e66004803603602081101561013e57600080fd5b5035600160a060020a03166102f8565b34801561015a57600080fd5b506100e66004803603602081101561017157600080fd5b5035600160a060020a03166102fd565b34801561018d57600080fd5b506101b4600480360360208110156101a457600080fd5b5035600160a060020a031661033b565b604080519115158252519081900360200190f35b3480156101d457600080fd5b506100e6610354565b3480156101e957600080fd5b506100e66004803603602081101561020057600080fd5b5035600160a060020a031661035f565b34801561021c57600080fd5b5061022561037c565b60408051918252519081900360200190f35b34801561024357600080fd5b506101b46004803603602081101561025a57600080fd5b5035600160a060020a0316610382565b34801561027657600080fd5b506101b46004803603602081101561028d57600080fd5b5035600160a060020a031661038d565b3480156102a957600080fd5b506100e661039f565b6102bb3361038d565b15156102c657600080fd5b6102cf8161033b565b156102d9576102ec565b6102e2816103c7565b6002805460010190555b50565b6102ec816102b2565b6102ec815b6103063361038d565b151561031157600080fd5b61031a8161033b565b1515610325576102ec565b61032e816103e4565b6002805460001901905550565b600061034e60018363ffffffff61040116565b92915050565b61035d33610438565b565b6103683361038d565b151561037357600080fd5b6102ec81610480565b60025481565b600061034e8261033b565b600061034e818363ffffffff61040116565b6103a83361033b565b15156103b35761035d565b6103bb6104c8565b60028054600019019055565b6103d03361038d565b15156103db57600080fd5b6102ec816104d1565b6103ed3361038d565b15156103f857600080fd5b6102ec81610519565b6000600160a060020a038216151561041857600080fd5b50600160a060020a03166000908152602091909152604090205460ff1690565b61044960008263ffffffff61056116565b604051600160a060020a038216907f0a8eb35e5ca14b3d6f28e4abf2f128dbab231a58b56e89beb5d636115001e16590600090a250565b61049160008263ffffffff6105ad16565b604051600160a060020a038216907f22380c05984257a1cb900161c713dd71d39e74820f1aea43bd3f1bdd2096129990600090a250565b61035d33610519565b6104e260018263ffffffff6105ad16565b604051600160a060020a038216907fee1504a83b6d4a361f4c1dc78ab59bfa30d6a3b6612c403e86bb01ef2984295f90600090a250565b61052a60018263ffffffff61056116565b604051600160a060020a038216907f270d9b30cf5b0793bbfd54c9d5b94aeb49462b8148399000265144a8722da6b690600090a250565b600160a060020a038116151561057657600080fd5b6105808282610401565b151561058b57600080fd5b600160a060020a0316600090815260209190915260409020805460ff19169055565b600160a060020a03811615156105c257600080fd5b6105cc8282610401565b156105d657600080fd5b600160a060020a0316600090815260209190915260409020805460ff1916600117905556fea165627a7a72305820bd2d1f0787210dffa4f84cb490470536481247c1a44ef2c0f166b4a7801ff4780029",
  "source": "pragma solidity ^0.5.0;\r\n\r\nimport \"openzeppelin-solidity/contracts/ownership/Ownable.sol\";\r\nimport \"openzeppelin-solidity/contracts/access/roles/WhitelistedRole.sol\";\r\n\r\ncontract Identity is WhitelistedRole {\r\n    \r\n  uint256 public whiteListedCount = 0;\r\n\r\n  constructor() public {\r\n    addWhitelisted(msg.sender);\r\n  }\r\n  \r\n  function isVerified(\r\n    address _account\r\n  ) public view returns(bool) {\r\n    return isWhitelisted(_account);\r\n  }\r\n\r\n  function addWhitelisted(address account) public onlyWhitelistAdmin {\r\n    if(isWhitelisted(account)) return;\r\n    super.addWhitelisted(account);\r\n    whiteListedCount += 1;\r\n  }\r\n\r\n  function removeWhitelisted(address account) public onlyWhitelistAdmin {\r\n    if(!isWhitelisted(account)) return;\r\n    super.removeWhitelisted(account);\r\n    whiteListedCount -= 1;\r\n  }\r\n\r\n  function renounceWhitelisted() public {\r\n    if(!isWhitelisted(msg.sender)) return;\r\n    super.renounceWhitelisted();\r\n    whiteListedCount -= 1;\r\n  }\r\n  function whiteListUser(address _account) public {\r\n    addWhitelisted(_account);\r\n  }\r\n\r\n  function blackListUser(address _account) public {\r\n    removeWhitelisted(_account);\r\n  }\r\n  \r\n}\r\n",
  "sourcePath": "C:\\Users\\hadarro\\Documents\\GoodDollar\\GoodBootstrap\\packages\\contracts\\contracts\\Identity.sol",
  "compiler": {
    "name": "solc",
    "version": "0.5.0+commit.1d4f565a.Emscripten.clang"
  },
  "schemaVersion": "3.0.1",
  "updatedAt": "2019-03-13T22:16:54.997Z",
  "devdoc": {
    "methods": {}
  },
  "userdoc": {
    "methods": {}
  }
}