{
  "contractName": "Identity",
  "abi": [
    {
      "constant": true,
      "inputs": [
        {
          "name": "account",
          "type": "address"
        }
      ],
      "name": "isWhitelisted",
      "outputs": [
        {
          "name": "",
          "type": "bool"
        }
      ],
      "payable": false,
      "stateMutability": "view",
      "type": "function"
    },
    {
      "constant": false,
      "inputs": [],
      "name": "renounceWhitelistAdmin",
      "outputs": [],
      "payable": false,
      "stateMutability": "nonpayable",
      "type": "function"
    },
    {
      "constant": true,
      "inputs": [
        {
          "name": "",
          "type": "address"
        }
      ],
      "name": "addrToDID",
      "outputs": [
        {
          "name": "",
          "type": "string"
        }
      ],
      "payable": false,
      "stateMutability": "view",
      "type": "function"
    },
    {
      "constant": true,
      "inputs": [
        {
          "name": "",
          "type": "bytes32"
        }
      ],
      "name": "didHashToAddress",
      "outputs": [
        {
          "name": "",
          "type": "address"
        }
      ],
      "payable": false,
      "stateMutability": "view",
      "type": "function"
    },
    {
      "constant": false,
      "inputs": [
        {
          "name": "account",
          "type": "address"
        }
      ],
      "name": "addWhitelistAdmin",
      "outputs": [],
      "payable": false,
      "stateMutability": "nonpayable",
      "type": "function"
    },
    {
      "constant": true,
      "inputs": [],
      "name": "whiteListedCount",
      "outputs": [
        {
          "name": "",
          "type": "uint256"
        }
      ],
      "payable": false,
      "stateMutability": "view",
      "type": "function"
    },
    {
      "constant": true,
      "inputs": [
        {
          "name": "account",
          "type": "address"
        }
      ],
      "name": "isWhitelistAdmin",
      "outputs": [
        {
          "name": "",
          "type": "bool"
        }
      ],
      "payable": false,
      "stateMutability": "view",
      "type": "function"
    },
    {
      "inputs": [],
      "payable": false,
      "stateMutability": "nonpayable",
      "type": "constructor"
    },
    {
      "anonymous": false,
      "inputs": [
        {
          "indexed": true,
          "name": "account",
          "type": "address"
        }
      ],
      "name": "WhitelistedAdded",
      "type": "event"
    },
    {
      "anonymous": false,
      "inputs": [
        {
          "indexed": true,
          "name": "account",
          "type": "address"
        }
      ],
      "name": "WhitelistedRemoved",
      "type": "event"
    },
    {
      "anonymous": false,
      "inputs": [
        {
          "indexed": true,
          "name": "account",
          "type": "address"
        }
      ],
      "name": "WhitelistAdminAdded",
      "type": "event"
    },
    {
      "anonymous": false,
      "inputs": [
        {
          "indexed": true,
          "name": "account",
          "type": "address"
        }
      ],
      "name": "WhitelistAdminRemoved",
      "type": "event"
    },
    {
      "constant": true,
      "inputs": [
        {
          "name": "_account",
          "type": "address"
        }
      ],
      "name": "isVerified",
      "outputs": [
        {
          "name": "",
          "type": "bool"
        }
      ],
      "payable": false,
      "stateMutability": "view",
      "type": "function"
    },
    {
      "constant": false,
      "inputs": [
        {
          "name": "account",
          "type": "address"
        },
        {
          "name": "did",
          "type": "string"
        }
      ],
      "name": "addWhitelistedWithDID",
      "outputs": [],
      "payable": false,
      "stateMutability": "nonpayable",
      "type": "function"
    },
    {
      "constant": false,
      "inputs": [
        {
          "name": "newAccount",
          "type": "address"
        }
      ],
      "name": "transferAccount",
      "outputs": [],
      "payable": false,
      "stateMutability": "nonpayable",
      "type": "function"
    },
    {
      "constant": false,
      "inputs": [
        {
          "name": "account",
          "type": "address"
        }
      ],
      "name": "addWhitelisted",
      "outputs": [],
      "payable": false,
      "stateMutability": "nonpayable",
      "type": "function"
    },
    {
      "constant": false,
      "inputs": [
        {
          "name": "account",
          "type": "address"
        }
      ],
      "name": "removeWhitelisted",
      "outputs": [],
      "payable": false,
      "stateMutability": "nonpayable",
      "type": "function"
    },
    {
      "constant": false,
      "inputs": [],
      "name": "renounceWhitelisted",
      "outputs": [],
      "payable": false,
      "stateMutability": "nonpayable",
      "type": "function"
    },
    {
      "constant": false,
      "inputs": [
        {
          "name": "_account",
          "type": "address"
        },
        {
          "name": "_did",
          "type": "string"
        }
      ],
      "name": "whiteListUser",
      "outputs": [],
      "payable": false,
      "stateMutability": "nonpayable",
      "type": "function"
    },
    {
      "constant": false,
      "inputs": [
        {
          "name": "_account",
          "type": "address"
        }
      ],
      "name": "blackListUser",
      "outputs": [],
      "payable": false,
      "stateMutability": "nonpayable",
      "type": "function"
    }
  ],
  "bytecode": "0x608060405260006002553480156200001657600080fd5b506200002b3364010000000062000045810204565b6200003f3364010000000062000097810204565b62000255565b6200006060008264010000000062000c6c620000fd82021704565b604051600160a060020a038216907f22380c05984257a1cb900161c713dd71d39e74820f1aea43bd3f1bdd2096129990600090a250565b620000ab3364010000000062000158810204565b1515620000b757600080fd5b620000cb816401000000006200017a810204565b15620000d757620000fa565b620000f08164010000000062000a8a6200019782021704565b6002805460010190555b50565b600160a060020a03811615156200011357600080fd5b620001288282640100000000620001cb810204565b156200013357600080fd5b600160a060020a0316600090815260209190915260409020805460ff19166001179055565b600062000174818364010000000062000ac4620001cb82021704565b92915050565b60006200017460018364010000000062000ac4620001cb82021704565b620001ab3364010000000062000158810204565b1515620001b757600080fd5b620000fa8164010000000062000203810204565b6000600160a060020a0382161515620001e357600080fd5b50600160a060020a03166000908152602091909152604090205460ff1690565b6200021e60018264010000000062000c6c620000fd82021704565b604051600160a060020a038216907fee1504a83b6d4a361f4c1dc78ab59bfa30d6a3b6612c403e86bb01ef2984295f90600090a250565b610dc180620002656000396000f3fe608060405234801561001057600080fd5b5060043610610112576000357c01000000000000000000000000000000000000000000000000000000009004806367c75937116100b4578063b9209e3311610083578063b9209e331461044d578063bb5f747b14610473578063d6cd947314610499578063e4852b9b146104a157610112565b806367c759371461031e5780637362d9c8146103575780638ec4b4f61461037d578063a79525b71461043357610112565b8063291d9549116100f0578063291d95491461021b5780633af32abf146102415780634c5a628c1461027b57806354f9f7a31461028357610112565b806310154bad1461011757806316f3a12d1461013f5780631b02709914610165575b600080fd5b61013d6004803603602081101561012d57600080fd5b5035600160a060020a03166104c7565b005b61013d6004803603602081101561015557600080fd5b5035600160a060020a0316610504565b61013d6004803603604081101561017b57600080fd5b600160a060020a0382351691908101906040810160208201356401000000008111156101a657600080fd5b8201836020820111156101b857600080fd5b803590602001918460018302840111640100000000831117156101da57600080fd5b91908080601f01602080910402602001604051908101604052809392919081815260200183838082843760009201919091525092955061050d945050505050565b61013d6004803603602081101561023157600080fd5b5035600160a060020a03166105b4565b6102676004803603602081101561025757600080fd5b5035600160a060020a03166106f3565b604080519115158252519081900360200190f35b61013d61070c565b6102a96004803603602081101561029957600080fd5b5035600160a060020a0316610717565b6040805160208082528351818301528351919283929083019185019080838360005b838110156102e35781810151838201526020016102cb565b50505050905090810190601f1680156103105780820380516001836020036101000a031916815260200191505b509250505060405180910390f35b61033b6004803603602081101561033457600080fd5b50356107b2565b60408051600160a060020a039092168252519081900360200190f35b61013d6004803603602081101561036d57600080fd5b5035600160a060020a03166107cd565b61013d6004803603604081101561039357600080fd5b600160a060020a0382351691908101906040810160208201356401000000008111156103be57600080fd5b8201836020820111156103d057600080fd5b803590602001918460018302840111640100000000831117156103f257600080fd5b91908080601f0160208091040260200160405190810160405280939291908181526020018383808284376000920191909152509295506107ea945050505050565b61043b6107f4565b60408051918252519081900360200190f35b6102676004803603602081101561046357600080fd5b5035600160a060020a03166107fa565b6102676004803603602081101561048957600080fd5b5035600160a060020a0316610805565b61013d610817565b61013d600480360360208110156104b757600080fd5b5035600160a060020a0316610930565b6104d033610805565b15156104db57600080fd5b6104e4816106f3565b156104ee57610501565b6104f781610a8a565b6002805460010190555b50565b610501816105b4565b61051633610805565b151561052157600080fd5b61052a826106f3565b15610534576105b0565b61053d82610a8a565b600280546001019055600160a060020a0382166000908152600360209081526040909120825161056f92840190610cba565b5080516020808301919091206000908152600490915260409020805473ffffffffffffffffffffffffffffffffffffffff1916600160a060020a0384161790555b5050565b6105bd33610805565b15156105c857600080fd5b6105d1816106f3565b15156105dc57610501565b6105e581610aa7565b600280546000199081018255600160a060020a038316600090815260036020908152604091829020805483516001821615610100029095011694909404601f8101829004820284018201909252818352606093919083018282801561068b5780601f106106605761010080835404028352916020019161068b565b820191906000526020600020905b81548152906001019060200180831161066e57829003601f168201915b50505050600160a060020a03841660009081526003602052604081209293506106b5929150610d38565b6000815111156105b05780516020918201206000908152600490915260409020805473ffffffffffffffffffffffffffffffffffffffff1916905550565b600061070660018363ffffffff610ac416565b92915050565b61071533610afb565b565b60036020908152600091825260409182902080548351601f6002600019610100600186161502019093169290920491820184900484028101840190945280845290918301828280156107aa5780601f1061077f576101008083540402835291602001916107aa565b820191906000526020600020905b81548152906001019060200180831161078d57829003601f168201915b505050505081565b600460205260009081526040902054600160a060020a031681565b6107d633610805565b15156107e157600080fd5b61050181610b43565b6105b0828261050d565b60025481565b6000610706826106f3565b6000610706818363ffffffff610ac416565b610820336106f3565b151561082b57610715565b610833610b8b565b60028054600019908101825533600090815260036020908152604091829020805483516001821615610100029095011694909404601f810182900482028401820190925281835260609391908301828280156108d05780601f106108a5576101008083540402835291602001916108d0565b820191906000526020600020905b8154815290600101906020018083116108b357829003601f168201915b50503360009081526003602052604081209495506108f39493509150610d389050565b6000815111156105015780516020918201206000908152600490915260409020805473ffffffffffffffffffffffffffffffffffffffff19169055565b3361093a816106f3565b15156109465750610501565b600160a060020a03811660009081526003602090815260409182902080548351601f60026000196101006001861615020190931692909204918201849004840281018401909452808452606093928301828280156109e55780601f106109ba576101008083540402835291602001916109e5565b820191906000526020600020905b8154815290600101906020018083116109c857829003601f168201915b505083516020808601918220600160a060020a038a1660009081526003909252604090912086519697509095610a219550909350909150610cba565b506000818152600460209081526040808320805473ffffffffffffffffffffffffffffffffffffffff1916600160a060020a03898116919091179091558616835260039091528120610a7291610d38565b610a7b83610b90565b610a8484610bd8565b50505050565b610a9333610805565b1515610a9e57600080fd5b61050181610bd8565b610ab033610805565b1515610abb57600080fd5b61050181610b90565b6000600160a060020a0382161515610adb57600080fd5b50600160a060020a03166000908152602091909152604090205460ff1690565b610b0c60008263ffffffff610c2016565b604051600160a060020a038216907f0a8eb35e5ca14b3d6f28e4abf2f128dbab231a58b56e89beb5d636115001e16590600090a250565b610b5460008263ffffffff610c6c16565b604051600160a060020a038216907f22380c05984257a1cb900161c713dd71d39e74820f1aea43bd3f1bdd2096129990600090a250565b610715335b610ba160018263ffffffff610c2016565b604051600160a060020a038216907f270d9b30cf5b0793bbfd54c9d5b94aeb49462b8148399000265144a8722da6b690600090a250565b610be960018263ffffffff610c6c16565b604051600160a060020a038216907fee1504a83b6d4a361f4c1dc78ab59bfa30d6a3b6612c403e86bb01ef2984295f90600090a250565b600160a060020a0381161515610c3557600080fd5b610c3f8282610ac4565b1515610c4a57600080fd5b600160a060020a0316600090815260209190915260409020805460ff19169055565b600160a060020a0381161515610c8157600080fd5b610c8b8282610ac4565b15610c9557600080fd5b600160a060020a0316600090815260209190915260409020805460ff19166001179055565b828054600181600116156101000203166002900490600052602060002090601f016020900481019282601f10610cfb57805160ff1916838001178555610d28565b82800160010185558215610d28579182015b82811115610d28578251825591602001919060010190610d0d565b50610d34929150610d78565b5090565b50805460018160011615610100020316600290046000825580601f10610d5e5750610501565b601f01602090049060005260206000209081019061050191905b610d9291905b80821115610d345760008155600101610d7e565b9056fea165627a7a723058205794fa893496a295232680f41ec69adecba4ccfea8f3b09c7969f7cc7cdca7c10029",
  "source": "pragma solidity ^0.5.0;\r\n\r\nimport \"openzeppelin-solidity/contracts/ownership/Ownable.sol\";\r\nimport \"openzeppelin-solidity/contracts/access/roles/WhitelistedRole.sol\";\r\n\r\ncontract Identity is WhitelistedRole {\r\n    \r\n  uint256 public whiteListedCount = 0;\r\n  mapping (address => string) public addrToDID;\r\n  mapping (bytes32 => address) public didHashToAddress;\r\n\r\n  constructor() public {\r\n    addWhitelisted(msg.sender);\r\n  }\r\n  \r\n  function isVerified(\r\n    address _account\r\n  ) public view returns(bool) {\r\n    return isWhitelisted(_account);\r\n  }\r\n\r\n  function addWhitelistedWithDID(address account, string memory did) public onlyWhitelistAdmin {\r\n    if(isWhitelisted(account)) return;\r\n    super.addWhitelisted(account);\r\n    whiteListedCount += 1;\r\n    addrToDID[account] = did;\r\n    bytes32 pHash = keccak256(bytes(did));\r\n    didHashToAddress[pHash] = account;\r\n  }\r\n\r\n  function transferAccount(address newAccount) public {\r\n    address oldAccount = msg.sender;\r\n    if(!isWhitelisted(oldAccount)) return;\r\n    string memory did = addrToDID[oldAccount];\r\n    bytes32 pHash = keccak256(bytes(did));\r\n    addrToDID[newAccount] = did;\r\n    didHashToAddress[pHash] = newAccount;\r\n    delete addrToDID[oldAccount];\r\n    super._removeWhitelisted(oldAccount);\r\n    super._addWhitelisted(newAccount);\r\n  }\r\n  \r\n  function addWhitelisted(address account) public onlyWhitelistAdmin {\r\n    if(isWhitelisted(account)) return;\r\n    super.addWhitelisted(account);\r\n    whiteListedCount += 1;\r\n  }\r\n\r\n  function removeWhitelisted(address account) public onlyWhitelistAdmin {\r\n    if(!isWhitelisted(account)) return;\r\n    super.removeWhitelisted(account);\r\n    whiteListedCount -= 1;\r\n    string memory did = addrToDID[account];\r\n    delete addrToDID[account];\r\n    if(bytes(did).length > 0) {\r\n      bytes32 pHash = keccak256(bytes(did));\r\n      delete didHashToAddress[pHash];\r\n    }\r\n  }\r\n\r\n  function renounceWhitelisted() public {\r\n    if(!isWhitelisted(msg.sender)) return;\r\n    super.renounceWhitelisted();\r\n    whiteListedCount -= 1;\r\n    string memory did = addrToDID[msg.sender];\r\n    delete addrToDID[msg.sender];\r\n    if(bytes(did).length > 0) {\r\n      bytes32 pHash = keccak256(bytes(did));\r\n      delete didHashToAddress[pHash];\r\n    }\r\n  }\r\n  function whiteListUser(address _account, string memory _did) public {\r\n    addWhitelistedWithDID(_account, _did);\r\n  }\r\n\r\n  function blackListUser(address _account) public {\r\n    removeWhitelisted(_account);\r\n  }\r\n  \r\n}\r\n",
  "sourcePath": "/Users/hadar/workspace/GoodDollar/GoodBootstrap/packages/contracts/contracts/Identity.sol",
  "compiler": {
    "name": "solc",
    "version": "0.5.2+commit.1df8f40c.Emscripten.clang"
  },
  "schemaVersion": "3.0.9",
  "updatedAt": "2019-08-13T14:06:31.965Z",
  "devdoc": {
    "methods": {}
  },
  "userdoc": {
    "methods": {}
  }
}