{
  "contractName": "IdentityGuardMock",
  "abi": [
    {
      "constant": true,
      "inputs": [],
      "name": "identity",
      "outputs": [
        {
          "name": "",
          "type": "address"
        }
      ],
      "payable": false,
      "stateMutability": "view",
      "type": "function"
    },
    {
      "constant": false,
      "inputs": [
        {
          "name": "_identity",
          "type": "address"
        }
      ],
      "name": "setIdentity",
      "outputs": [],
      "payable": false,
      "stateMutability": "nonpayable",
      "type": "function"
    },
    {
      "constant": false,
      "inputs": [],
      "name": "renounceOwnership",
      "outputs": [],
      "payable": false,
      "stateMutability": "nonpayable",
      "type": "function"
    },
    {
      "constant": true,
      "inputs": [],
      "name": "owner",
      "outputs": [
        {
          "name": "",
          "type": "address"
        }
      ],
      "payable": false,
      "stateMutability": "view",
      "type": "function"
    },
    {
      "constant": true,
      "inputs": [],
      "name": "isOwner",
      "outputs": [
        {
          "name": "",
          "type": "bool"
        }
      ],
      "payable": false,
      "stateMutability": "view",
      "type": "function"
    },
    {
      "constant": false,
      "inputs": [
        {
          "name": "newOwner",
          "type": "address"
        }
      ],
      "name": "transferOwnership",
      "outputs": [],
      "payable": false,
      "stateMutability": "nonpayable",
      "type": "function"
    },
    {
      "inputs": [
        {
          "name": "_identity",
          "type": "address"
        }
      ],
      "payable": false,
      "stateMutability": "nonpayable",
      "type": "constructor"
    },
    {
      "anonymous": false,
      "inputs": [
        {
          "indexed": true,
          "name": "previousOwner",
          "type": "address"
        },
        {
          "indexed": true,
          "name": "newOwner",
          "type": "address"
        }
      ],
      "name": "OwnershipTransferred",
      "type": "event"
    },
    {
      "constant": false,
      "inputs": [
        {
          "name": "to",
          "type": "address"
        }
      ],
      "name": "blacklistMock",
      "outputs": [
        {
          "name": "",
          "type": "bool"
        }
      ],
      "payable": false,
      "stateMutability": "nonpayable",
      "type": "function"
    },
    {
      "constant": false,
      "inputs": [
        {
          "name": "to",
          "type": "address"
        }
      ],
      "name": "checkWhitelisted",
      "outputs": [
        {
          "name": "",
          "type": "bool"
        }
      ],
      "payable": false,
      "stateMutability": "nonpayable",
      "type": "function"
    }
  ],
  "bytecode": "0x608060405234801561001057600080fd5b506040516020806107f48339810180604052602081101561003057600080fd5b505160008054600160a060020a03191633178082556040518392600160a060020a039290921691907f8be0079c531659141344cd1fd0a4f28419497f9722a3daafe3b4186f6b6457e0908290a3600160a060020a03811615156100f457604080517f08c379a000000000000000000000000000000000000000000000000000000000815260206004820152601960248201527f537570706c696564206964656e74697479206973206e756c6c00000000000000604482015290519081900360640190fd5b60018054600160a060020a031916600160a060020a0392909216919091179055506106d0806101246000396000f3fe608060405234801561001057600080fd5b50600436106100a5576000357c0100000000000000000000000000000000000000000000000000000000900480638da5cb5b116100785780638da5cb5b146101385780638f32d59b14610140578063b623053214610148578063f2fde38b1461016e576100a5565b806320d8dad0146100aa5780632c159a1a146100e45780635d5bf17814610108578063715018a614610130575b600080fd5b6100d0600480360360208110156100c057600080fd5b5035600160a060020a0316610194565b604080519115158252519081900360200190f35b6100ec610287565b60408051600160a060020a039092168252519081900360200190f35b61012e6004803603602081101561011e57600080fd5b5035600160a060020a0316610296565b005b61012e6103af565b6100ec610419565b6100d0610428565b6100d06004803603602081101561015e57600080fd5b5035600160a060020a0316610439565b61012e6004803603602081101561018457600080fd5b5035600160a060020a0316610608565b600154604080517f3af32abf000000000000000000000000000000000000000000000000000000008152600160a060020a038085166004830152915160009385931691633af32abf916024808301926020929190829003018186803b1580156101fc57600080fd5b505afa158015610210573d6000803e3d6000fd5b505050506040513d602081101561022657600080fd5b5051151561027e576040805160e560020a62461bcd02815260206004820152601260248201527f6973206e6f742077686974656c69737465640000000000000000000000000000604482015290519081900360640190fd5b50600192915050565b600154600160a060020a031681565b61029e610428565b15156102a957600080fd5b80600160a060020a031663223668446040518163ffffffff167c010000000000000000000000000000000000000000000000000000000002815260040160206040518083038186803b1580156102fe57600080fd5b505afa158015610312573d6000803e3d6000fd5b505050506040513d602081101561032857600080fd5b50511515610380576040805160e560020a62461bcd02815260206004820152601a60248201527f4964656e74697479206973206e6f742072656769737465726564000000000000604482015290519081900360640190fd5b6001805473ffffffffffffffffffffffffffffffffffffffff1916600160a060020a0392909216919091179055565b6103b7610428565b15156103c257600080fd5b60008054604051600160a060020a03909116907f8be0079c531659141344cd1fd0a4f28419497f9722a3daafe3b4186f6b6457e0908390a36000805473ffffffffffffffffffffffffffffffffffffffff19169055565b600054600160a060020a031690565b600054600160a060020a0316331490565b600154604080517ffe575a870000000000000000000000000000000000000000000000000000000081523360048201529051600092600160a060020a03169163fe575a87916024808301926020929190829003018186803b15801561049d57600080fd5b505afa1580156104b1573d6000803e3d6000fd5b505050506040513d60208110156104c757600080fd5b50511561051e576040805160e560020a62461bcd02815260206004820152601560248201527f43616c6c657220697320626c61636b6c69737465640000000000000000000000604482015290519081900360640190fd5b600154604080517ffe575a87000000000000000000000000000000000000000000000000000000008152600160a060020a03808616600483015291518593929092169163fe575a8791602480820192602092909190829003018186803b15801561058757600080fd5b505afa15801561059b573d6000803e3d6000fd5b505050506040513d60208110156105b157600080fd5b50511561027e576040805160e560020a62461bcd02815260206004820152601760248201527f526563656976657220697320626c61636b6c6973746564000000000000000000604482015290519081900360640190fd5b610610610428565b151561061b57600080fd5b61062481610627565b50565b600160a060020a038116151561063c57600080fd5b60008054604051600160a060020a03808516939216917f8be0079c531659141344cd1fd0a4f28419497f9722a3daafe3b4186f6b6457e091a36000805473ffffffffffffffffffffffffffffffffffffffff1916600160a060020a039290921691909117905556fea165627a7a723058204935ad08f09ea35fe2cab4eca6308b483c88bbb30f31adf2e4361f3b8fd4c6600029",
  "source": "pragma solidity 0.5.4;\n\nimport \"../identity/IdentityGuard.sol\";\nimport \"../identity/Identity.sol\";\n\ncontract IdentityGuardMock is IdentityGuard{\n\n    constructor(Identity _identity) public IdentityGuard(_identity){}\n\n    function blacklistMock(address to) public onlyNotBlacklisted requireNotBlacklisted(to) returns(bool) {\n        return true;\n    }\n\n    function checkWhitelisted(address to) public requireWhitelisted(to) returns (bool) {\n        return true;\n    }\n}",
  "sourcePath": "/Users/hadar/workspace/GoodDollar/GoodBootstrap/packages/contracts/contracts/mocks/IdentityGuardMock.sol",
  "compiler": {
    "name": "solc",
    "version": "0.5.4+commit.9549d8ff.Emscripten.clang"
  },
  "schemaVersion": "3.0.16",
  "updatedAt": "2020-07-09T11:25:14.048Z",
  "devdoc": {
    "methods": {
      "isOwner()": {
        "return": "true if `msg.sender` is the owner of the contract."
      },
      "owner()": {
        "return": "the address of the owner."
      },
      "renounceOwnership()": {
        "details": "Allows the current owner to relinquish control of the contract."
      },
      "transferOwnership(address)": {
        "details": "Allows the current owner to transfer control of the contract to a newOwner.",
        "params": {
          "newOwner": "The address to transfer ownership to."
        }
      }
    }
  },
  "userdoc": {
    "methods": {
      "renounceOwnership()": {
        "notice": "Renouncing to ownership will leave the contract without an owner. It will not be possible to call the functions with the `onlyOwner` modifier anymore."
      }
    }
  }
}