{
  "contractName": "InviteUser",
  "abi": [
    {
      "inputs": [
        {
          "internalType": "contract Avatar",
          "name": "_avatar",
          "type": "address"
        },
        {
          "internalType": "contract Identity",
          "name": "_identity",
          "type": "address"
        },
        {
          "internalType": "uint256",
          "name": "_maxBonus",
          "type": "uint256"
        },
        {
          "internalType": "uint256",
          "name": "_reward",
          "type": "uint256"
        }
      ],
      "payable": false,
      "stateMutability": "nonpayable",
      "type": "constructor"
    },
    {
      "anonymous": false,
      "inputs": [
        {
          "indexed": true,
          "internalType": "address",
          "name": "account",
          "type": "address"
        },
        {
          "indexed": false,
          "internalType": "uint256",
          "name": "amount",
          "type": "uint256"
        }
      ],
      "name": "BonusClaimed",
      "type": "event"
    },
    {
      "anonymous": false,
      "inputs": [
        {
          "indexed": true,
          "internalType": "address",
          "name": "previousOwner",
          "type": "address"
        },
        {
          "indexed": true,
          "internalType": "address",
          "name": "newOwner",
          "type": "address"
        }
      ],
      "name": "OwnershipTransferred",
      "type": "event"
    },
    {
      "anonymous": false,
      "inputs": [
        {
          "indexed": true,
          "internalType": "address",
          "name": "newUser",
          "type": "address"
        },
        {
          "indexed": true,
          "internalType": "address",
          "name": "referrer",
          "type": "address"
        }
      ],
      "name": "UserSigned",
      "type": "event"
    },
    {
      "constant": true,
      "inputs": [
        {
          "internalType": "address",
          "name": "",
          "type": "address"
        }
      ],
      "name": "claimed",
      "outputs": [
        {
          "internalType": "bool",
          "name": "",
          "type": "bool"
        }
      ],
      "payable": false,
      "stateMutability": "view",
      "type": "function"
    },
    {
      "constant": true,
      "inputs": [],
      "name": "identity",
      "outputs": [
        {
          "internalType": "contract Identity",
          "name": "",
          "type": "address"
        }
      ],
      "payable": false,
      "stateMutability": "view",
      "type": "function"
    },
    {
      "constant": true,
      "inputs": [
        {
          "internalType": "address",
          "name": "",
          "type": "address"
        }
      ],
      "name": "invited",
      "outputs": [
        {
          "internalType": "address",
          "name": "",
          "type": "address"
        }
      ],
      "payable": false,
      "stateMutability": "view",
      "type": "function"
    },
    {
      "constant": true,
      "inputs": [],
      "name": "isOwner",
      "outputs": [
        {
          "internalType": "bool",
          "name": "",
          "type": "bool"
        }
      ],
      "payable": false,
      "stateMutability": "view",
      "type": "function"
    },
    {
      "constant": true,
      "inputs": [],
      "name": "isRegistered",
      "outputs": [
        {
          "internalType": "bool",
          "name": "",
          "type": "bool"
        }
      ],
      "payable": false,
      "stateMutability": "view",
      "type": "function"
    },
    {
      "constant": true,
      "inputs": [
        {
          "internalType": "address",
          "name": "scheme",
          "type": "address"
        }
      ],
      "name": "isRegistered",
      "outputs": [
        {
          "internalType": "bool",
          "name": "",
          "type": "bool"
        }
      ],
      "payable": false,
      "stateMutability": "view",
      "type": "function"
    },
    {
      "constant": true,
      "inputs": [],
      "name": "maxBonus",
      "outputs": [
        {
          "internalType": "uint256",
          "name": "",
          "type": "uint256"
        }
      ],
      "payable": false,
      "stateMutability": "view",
      "type": "function"
    },
    {
      "constant": true,
      "inputs": [],
      "name": "owner",
      "outputs": [
        {
          "internalType": "address",
          "name": "",
          "type": "address"
        }
      ],
      "payable": false,
      "stateMutability": "view",
      "type": "function"
    },
    {
      "constant": false,
      "inputs": [],
      "name": "renounceOwnership",
      "outputs": [],
      "payable": false,
      "stateMutability": "nonpayable",
      "type": "function"
    },
    {
      "constant": true,
      "inputs": [],
      "name": "reward",
      "outputs": [
        {
          "internalType": "uint256",
          "name": "",
          "type": "uint256"
        }
      ],
      "payable": false,
      "stateMutability": "view",
      "type": "function"
    },
    {
      "constant": true,
      "inputs": [
        {
          "internalType": "address",
          "name": "",
          "type": "address"
        }
      ],
      "name": "rewarded",
      "outputs": [
        {
          "internalType": "uint256",
          "name": "",
          "type": "uint256"
        }
      ],
      "payable": false,
      "stateMutability": "view",
      "type": "function"
    },
    {
      "constant": false,
      "inputs": [
        {
          "internalType": "contract Avatar",
          "name": "_avatar",
          "type": "address"
        }
      ],
      "name": "setAvatar",
      "outputs": [],
      "payable": false,
      "stateMutability": "nonpayable",
      "type": "function"
    },
    {
      "constant": false,
      "inputs": [
        {
          "internalType": "contract Identity",
          "name": "_identity",
          "type": "address"
        }
      ],
      "name": "setIdentity",
      "outputs": [],
      "payable": false,
      "stateMutability": "nonpayable",
      "type": "function"
    },
    {
      "constant": false,
      "inputs": [
        {
          "internalType": "address",
          "name": "newOwner",
          "type": "address"
        }
      ],
      "name": "transferOwnership",
      "outputs": [],
      "payable": false,
      "stateMutability": "nonpayable",
      "type": "function"
    },
    {
      "constant": false,
      "inputs": [
        {
          "internalType": "address",
          "name": "_user",
          "type": "address"
        }
      ],
      "name": "inviteUser",
      "outputs": [
        {
          "internalType": "bool",
          "name": "",
          "type": "bool"
        }
      ],
      "payable": false,
      "stateMutability": "nonpayable",
      "type": "function"
    },
    {
      "constant": false,
      "inputs": [],
      "name": "claimReward",
      "outputs": [
        {
          "internalType": "bool",
          "name": "",
          "type": "bool"
        }
      ],
      "payable": false,
      "stateMutability": "nonpayable",
      "type": "function"
    }
  ],
  "bytecode": "0x6080604052600380546001600160a01b031916905534801561002057600080fd5b50604051610faa380380610faa8339818101604052608081101561004357600080fd5b5080516020820151604080840151606090940151600080546001600160a01b03191633178082559251949593949192869286926001600160a01b039290921691907f8be0079c531659141344cd1fd0a4f28419497f9722a3daafe3b4186f6b6457e0908290a36001600160a01b038116610104576040805162461bcd60e51b815260206004820152601960248201527f537570706c696564206964656e74697479206973206e756c6c00000000000000604482015290519081900360640190fd5b600180546001600160a01b03199081166001600160a01b039384161790915560028054909116838316179081905516156101d257600260009054906101000a90046001600160a01b03166001600160a01b0316638da5cb5b6040518163ffffffff1660e01b815260040160206040518083038186803b15801561018657600080fd5b505afa15801561019a573d6000803e3d6000fd5b505050506040513d60208110156101b057600080fd5b5051600380546001600160a01b0319166001600160a01b039092169190911790555b50808210156102125760405162461bcd60e51b8152600401808060200182810382526027815260200180610f836027913960400191505060405180910390fd5b6004919091556005555050610d578061022c6000396000f3fe608060405234801561001057600080fd5b50600436106101005760003560e01c80638da5cb5b11610097578063c429875211610066578063c429875214610221578063c884ef8314610247578063f0cd59451461026d578063f2fde38b1461029357610100565b80638da5cb5b146101e35780638f32d59b146101eb578063b88a802f146101f3578063c3c5a547146101fb57610100565b8063379f53e3116100d3578063379f53e31461018757806354c5b696146101ad5780635d5bf178146101b5578063715018a6146101db57610100565b8063086cfca814610105578063223668441461012d578063228cb733146101495780632c159a1a14610163575b600080fd5b61012b6004803603602081101561011b57600080fd5b50356001600160a01b03166102b9565b005b610135610374565b604080519115158252519081900360200190f35b610151610384565b60408051918252519081900360200190f35b61016b61038a565b604080516001600160a01b039092168252519081900360200190f35b6101516004803603602081101561019d57600080fd5b50356001600160a01b0316610399565b6101516103ab565b61012b600480360360208110156101cb57600080fd5b50356001600160a01b03166103b1565b61012b61049a565b61016b6104f5565b610135610504565b610135610515565b6101356004803603602081101561021157600080fd5b50356001600160a01b03166106ef565b6101356004803603602081101561023757600080fd5b50356001600160a01b03166107dc565b6101356004803603602081101561025d57600080fd5b50356001600160a01b03166109dd565b61016b6004803603602081101561028357600080fd5b50356001600160a01b03166109f2565b61012b600480360360208110156102a957600080fd5b50356001600160a01b0316610a0d565b6102c1610504565b6102ca57600080fd5b600280546001600160a01b0319166001600160a01b03838116919091179182905560408051638da5cb5b60e01b815290519290911691638da5cb5b91600480820192602092909190829003018186803b15801561032657600080fd5b505afa15801561033a573d6000803e3d6000fd5b505050506040513d602081101561035057600080fd5b5051600380546001600160a01b0319166001600160a01b0390921691909117905550565b600061037f306106ef565b905090565b60055481565b6001546001600160a01b031681565b60066020526000908152604090205481565b60045481565b6103b9610504565b6103c257600080fd5b806001600160a01b031663223668446040518163ffffffff1660e01b815260040160206040518083038186803b1580156103fb57600080fd5b505afa15801561040f573d6000803e3d6000fd5b505050506040513d602081101561042557600080fd5b5051610478576040805162461bcd60e51b815260206004820152601a60248201527f4964656e74697479206973206e6f742072656769737465726564000000000000604482015290519081900360640190fd5b600180546001600160a01b0319166001600160a01b0392909216919091179055565b6104a2610504565b6104ab57600080fd5b600080546040516001600160a01b03909116907f8be0079c531659141344cd1fd0a4f28419497f9722a3daafe3b4186f6b6457e0908390a3600080546001600160a01b0319169055565b6000546001600160a01b031690565b6000546001600160a01b0316331490565b600061051f610374565b61056b576040805162461bcd60e51b815260206004820152601860248201527714d8da195b59481a5cc81b9bdd081c9959da5cdd195c995960421b604482015290519081900360640190fd5b60015460408051633af32abf60e01b81523360048201819052915191926001600160a01b031691633af32abf91602480820192602092909190829003018186803b1580156105b857600080fd5b505afa1580156105cc573d6000803e3d6000fd5b505050506040513d60208110156105e257600080fd5b505161062a576040805162461bcd60e51b815260206004820152601260248201527155736572206e6f7420696e2073797374656d60701b604482015290519081900360640190fd5b3360009081526008602052604090205460ff1615610684576040805162461bcd60e51b815260206004820152601260248201527143616e6e6f7420636c61696d20747769636560701b604482015290519081900360640190fd5b336000818152600860205260409020805460ff191660011790556106a790610a2a565b336000908152600760205260409020546001600160a01b0316156106e757336000908152600760205260409020546106e7906001600160a01b0316610a2a565b600191505090565b6002546000906001600160a01b0316610743576040805162461bcd60e51b8152602060048201526011602482015270105d985d185c881a5cc81b9bdd081cd95d607a1b604482015290519081900360640190fd5b60035460025460408051639be2faed60e01b81526001600160a01b038681166004830152928316602482015290519190921691639be2faed916044808301926020929190829003018186803b15801561079b57600080fd5b505afa1580156107af573d6000803e3d6000fd5b505050506040513d60208110156107c557600080fd5b50516107d3575060006107d7565b5060015b919050565b60006107e6610374565b610832576040805162461bcd60e51b815260206004820152601860248201527714d8da195b59481a5cc81b9bdd081c9959da5cdd195c995960421b604482015290519081900360640190fd5b6001600160a01b0380831660009081526007602052604090205483911615610898576040805162461bcd60e51b8152602060048201526014602482015273155cd95c88185b1c9958591e481a5b9d9a5d195960621b604482015290519081900360640190fd5b60015460408051633af32abf60e01b81526001600160a01b03848116600483015291519190921691633af32abf916024808301926020929190829003018186803b1580156108e557600080fd5b505afa1580156108f9573d6000803e3d6000fd5b505050506040513d602081101561090f57600080fd5b50511561095c576040805162461bcd60e51b81526020600482015260166024820152755573657220616c726561647920696e2073797374656d60501b604482015290519081900360640190fd5b6001600160a01b0383163314156109af576040805162461bcd60e51b815260206004820152601260248201527121b0b73737ba1034b73b34ba329039b2b63360711b604482015290519081900360640190fd5b50506001600160a01b0316600090815260076020526040902080546001600160a01b03191633179055600190565b60086020526000908152604090205460ff1681565b6007602052600090815260409020546001600160a01b031681565b610a15610504565b610a1e57600080fd5b610a2781610c86565b50565b6004546005546001600160a01b038316600090815260066020526040902054610a589163ffffffff610cf416565b1115610b72576001600160a01b038116600090815260066020526040812054600454610a899163ffffffff610d0d16565b600480546001600160a01b038086166000818152600660209081526040808320959095556003546002548651633203f21960e11b8152978801899052602488019490945292841660448701529351959650911693636407e4329360648082019493918390030190829087803b158015610b0157600080fd5b505af1158015610b15573d6000803e3d6000fd5b505050506040513d6020811015610b2b57600080fd5b50506040805182815290516001600160a01b038416917f4e69fdc49495bcab2b4375781457ba16653a90eb4ffb6588351bdc39071433e2919081900360200190a250610a27565b6005546001600160a01b038216600090815260066020526040902054610b9d9163ffffffff610cf416565b6001600160a01b038083166000818152600660209081526040808320959095556003546005546002548751633203f21960e11b815260048101929092526024820195909552938516604485015294519490931693636407e432936064808501949193918390030190829087803b158015610c1657600080fd5b505af1158015610c2a573d6000803e3d6000fd5b505050506040513d6020811015610c4057600080fd5b505060055460408051918252516001600160a01b038316917f4e69fdc49495bcab2b4375781457ba16653a90eb4ffb6588351bdc39071433e2919081900360200190a250565b6001600160a01b038116610c9957600080fd5b600080546040516001600160a01b03808516939216917f8be0079c531659141344cd1fd0a4f28419497f9722a3daafe3b4186f6b6457e091a3600080546001600160a01b0319166001600160a01b0392909216919091179055565b600082820183811015610d0657600080fd5b9392505050565b600082821115610d1c57600080fd5b5090039056fea265627a7a72315820d5aa1c57dcb096a73250415d6cd66231bb728494e0146e8d8dee8fdebdc3e38464736f6c634300051000325265776172642063616e6e6f742062652067726561746572207468616e206d617820626f6e7573",
  "source": "pragma solidity >0.5.4;\n\nimport \"@daostack/arc/contracts/controller/Avatar.sol\";\nimport \"@daostack/arc/contracts/controller/ControllerInterface.sol\";\n\nimport \"openzeppelin-solidity/contracts/math/SafeMath.sol\";\n\nimport \"../../identity/IdentityGuard.sol\";\nimport \"./SchemeGuard.sol\";\n\n/* @title Scheme for inviting non-whitelisted users and claiming rewards\n */\ncontract InviteUser is IdentityGuard, SchemeGuard {\n    using SafeMath for uint256;\n\n    uint256 public maxBonus;\n    uint256 public reward;\n\n    mapping(address => uint256) public rewarded;\n    mapping(address => address) public invited;\n    mapping(address => bool) public claimed;\n\n    event BonusClaimed(address indexed account, uint256 amount);\n    event UserSigned(address indexed newUser, address indexed referrer);\n\n    /* @dev Constructor. Sets the amount users are rewarded per invite and\n     * the max amount addresses can claim\n     * @param _avatar The avatar of the DAO\n     * @param _identity The identity contract of the DAO\n     * @param _maxBonus The max bonus addresses can be awarded\n     * @param _reward The reward users receive per invite\n     */\n    constructor(\n        Avatar _avatar,\n        Identity _identity,\n        uint256 _maxBonus,\n        uint256 _reward\n    ) public IdentityGuard(_identity) SchemeGuard(_avatar) {\n        require(_maxBonus >= _reward, \"Reward cannot be greater than max bonus\");\n        maxBonus = _maxBonus;\n        reward = _reward;\n    }\n\n    /* @dev Modifier that requires user to not have been invited and is not whitelisted\n     * @param _user The address to check\n     */\n    modifier requireNotAdded(address _user) {\n        require(invited[_user] == address(0), \"User already invited\");\n        require(!(identity.isWhitelisted(_user)), \"User already in system\");\n        _;\n    }\n\n    /* @dev Modifier that requires user to be whitelisted\n     * @param _user The address to check\n     */\n    modifier requireAdded(address _user) {\n        require(identity.isWhitelisted(_user), \"User not in system\");\n        _;\n    }\n\n    /* @dev Function for inviting a given address. Can only be done if contract\n     * is registered and address has not received an invite yet\n     * @param _user The address to invite\n     * @return a bool indicating if the user was invited\n     */\n    function inviteUser(address _user)\n        public\n        onlyRegistered\n        requireNotAdded(_user)\n        returns (bool)\n    {\n        require(_user != msg.sender, \"Cannot invite self\");\n        invited[_user] = msg.sender;\n\n        return true;\n    }\n\n    /* @dev Function for claiming rewards from entering the system. Can only be called\n     * if contract is registered and if address has been added.\n     * @return a bool indicating if the caller has been rewarded\n     */\n    function claimReward() public onlyRegistered requireAdded(msg.sender) returns (bool) {\n        require(!claimed[msg.sender], \"Cannot claim twice\");\n\n        claimed[msg.sender] = true;\n\n        awardUser(msg.sender);\n\n        if (invited[msg.sender] != address(0)) {\n            awardUser(invited[msg.sender]);\n        }\n\n        return true;\n    }\n\n    /* @dev Internal function for rewarding an address. Rewards the address the\n     * parameter set in the constructor. If the reward makes the address exceed\n     * the maximum reward amount, the address will instead be rewarded the\n     * difference between the max reward amount and their current rewarded amount\n     */\n    function awardUser(address _user) internal {\n        if (rewarded[_user].add(reward) > maxBonus) {\n            uint256 newReward = maxBonus.sub(rewarded[_user]);\n            rewarded[_user] = maxBonus;\n            controller.mintTokens(newReward, _user, address(avatar));\n            emit BonusClaimed(_user, newReward);\n        } else {\n            rewarded[_user] = rewarded[_user].add(reward);\n            controller.mintTokens(reward, _user, address(avatar));\n\n            emit BonusClaimed(_user, reward);\n        }\n    }\n}\n",
  "sourcePath": "/Users/hadar/workspace/GoodDollar/GoodBootstrap/packages/contracts/contracts/dao/schemes/InviteUser.sol",
  "compiler": {
    "name": "solc",
    "version": "0.5.16+commit.9c3226ce.Emscripten.clang"
  },
  "schemaVersion": "3.2.3",
  "updatedAt": "2022-10-27T11:34:11.138Z",
  "devdoc": {
    "methods": {
      "isOwner()": {
        "return": "true if `msg.sender` is the owner of the contract."
      },
      "isRegistered()": {
        "details": "function to see if an avatar has been set and if this scheme is registered",
        "return": "true if scheme is registered"
      },
      "isRegistered(address)": {
        "details": "function to see if an avatar has been set and if this scheme is registered",
        "return": "true if scheme is registered"
      },
      "owner()": {
        "return": "the address of the owner."
      },
      "renounceOwnership()": {
        "details": "Allows the current owner to relinquish control of the contract."
      },
      "setAvatar(address)": {
        "details": "Function to set a new avatar and controller for scheme can only be done by owner of scheme"
      },
      "transferOwnership(address)": {
        "details": "Allows the current owner to transfer control of the contract to a newOwner.",
        "params": {
          "newOwner": "The address to transfer ownership to."
        }
      }
    }
  },
  "userdoc": {
    "methods": {
      "renounceOwnership()": {
        "notice": "Renouncing to ownership will leave the contract without an owner. It will not be possible to call the functions with the `onlyOwner` modifier anymore."
      }
    }
  }
}