{
  "contractName": "InviteUser",
  "abi": [
    {
      "constant": false,
      "inputs": [
        {
          "name": "_avatar",
          "type": "address"
        }
      ],
      "name": "setAvatar",
      "outputs": [],
      "payable": false,
      "stateMutability": "nonpayable",
      "type": "function"
    },
    {
      "constant": true,
      "inputs": [],
      "name": "isRegistered",
      "outputs": [],
      "payable": false,
      "stateMutability": "view",
      "type": "function"
    },
    {
      "constant": true,
      "inputs": [],
      "name": "reward",
      "outputs": [
        {
          "name": "",
          "type": "uint256"
        }
      ],
      "payable": false,
      "stateMutability": "view",
      "type": "function"
    },
    {
      "constant": true,
      "inputs": [],
      "name": "identity",
      "outputs": [
        {
          "name": "",
          "type": "address"
        }
      ],
      "payable": false,
      "stateMutability": "view",
      "type": "function"
    },
    {
      "constant": true,
      "inputs": [
        {
          "name": "",
          "type": "address"
        }
      ],
      "name": "rewarded",
      "outputs": [
        {
          "name": "",
          "type": "uint256"
        }
      ],
      "payable": false,
      "stateMutability": "view",
      "type": "function"
    },
    {
      "constant": true,
      "inputs": [],
      "name": "maxBonus",
      "outputs": [
        {
          "name": "",
          "type": "uint256"
        }
      ],
      "payable": false,
      "stateMutability": "view",
      "type": "function"
    },
    {
      "constant": false,
      "inputs": [
        {
          "name": "_identity",
          "type": "address"
        },
        {
          "name": "_avatar",
          "type": "address"
        }
      ],
      "name": "setIdentity",
      "outputs": [],
      "payable": false,
      "stateMutability": "nonpayable",
      "type": "function"
    },
    {
      "constant": false,
      "inputs": [],
      "name": "renounceOwnership",
      "outputs": [],
      "payable": false,
      "stateMutability": "nonpayable",
      "type": "function"
    },
    {
      "constant": true,
      "inputs": [],
      "name": "owner",
      "outputs": [
        {
          "name": "",
          "type": "address"
        }
      ],
      "payable": false,
      "stateMutability": "view",
      "type": "function"
    },
    {
      "constant": true,
      "inputs": [],
      "name": "isOwner",
      "outputs": [
        {
          "name": "",
          "type": "bool"
        }
      ],
      "payable": false,
      "stateMutability": "view",
      "type": "function"
    },
    {
      "constant": true,
      "inputs": [
        {
          "name": "",
          "type": "address"
        }
      ],
      "name": "claimed",
      "outputs": [
        {
          "name": "",
          "type": "bool"
        }
      ],
      "payable": false,
      "stateMutability": "view",
      "type": "function"
    },
    {
      "constant": true,
      "inputs": [
        {
          "name": "",
          "type": "address"
        }
      ],
      "name": "invited",
      "outputs": [
        {
          "name": "",
          "type": "address"
        }
      ],
      "payable": false,
      "stateMutability": "view",
      "type": "function"
    },
    {
      "constant": false,
      "inputs": [
        {
          "name": "newOwner",
          "type": "address"
        }
      ],
      "name": "transferOwnership",
      "outputs": [],
      "payable": false,
      "stateMutability": "nonpayable",
      "type": "function"
    },
    {
      "inputs": [
        {
          "name": "_avatar",
          "type": "address"
        },
        {
          "name": "_identity",
          "type": "address"
        },
        {
          "name": "_maxBonus",
          "type": "uint256"
        },
        {
          "name": "_reward",
          "type": "uint256"
        }
      ],
      "payable": false,
      "stateMutability": "nonpayable",
      "type": "constructor"
    },
    {
      "anonymous": false,
      "inputs": [
        {
          "indexed": true,
          "name": "account",
          "type": "address"
        },
        {
          "indexed": false,
          "name": "amount",
          "type": "uint256"
        }
      ],
      "name": "BonusClaimed",
      "type": "event"
    },
    {
      "anonymous": false,
      "inputs": [
        {
          "indexed": true,
          "name": "newUser",
          "type": "address"
        },
        {
          "indexed": true,
          "name": "referrer",
          "type": "address"
        }
      ],
      "name": "UserSigned",
      "type": "event"
    },
    {
      "anonymous": false,
      "inputs": [
        {
          "indexed": true,
          "name": "previousOwner",
          "type": "address"
        },
        {
          "indexed": true,
          "name": "newOwner",
          "type": "address"
        }
      ],
      "name": "OwnershipTransferred",
      "type": "event"
    },
    {
      "constant": false,
      "inputs": [
        {
          "name": "_user",
          "type": "address"
        }
      ],
      "name": "inviteUser",
      "outputs": [
        {
          "name": "",
          "type": "bool"
        }
      ],
      "payable": false,
      "stateMutability": "nonpayable",
      "type": "function"
    },
    {
      "constant": false,
      "inputs": [],
      "name": "claimReward",
      "outputs": [
        {
          "name": "",
          "type": "bool"
        }
      ],
      "payable": false,
      "stateMutability": "nonpayable",
      "type": "function"
    }
  ],
  "bytecode": "0x608060405260038054600160a060020a031916905534801561002057600080fd5b506040516080806114bf8339810180604052608081101561004057600080fd5b508051602082015160408084015160609094015160008054600160a060020a0319163317808255925194959394919286928692600160a060020a039290921691907f8be0079c531659141344cd1fd0a4f28419497f9722a3daafe3b4186f6b6457e0908290a3600160a060020a038116151561011d57604080517f08c379a000000000000000000000000000000000000000000000000000000000815260206004820152601960248201527f537570706c696564206964656e74697479206973206e756c6c00000000000000604482015290519081900360640190fd5b60018054600160a060020a0319908116600160a060020a0393841617909155600280549091168383161790819055161561020757600260009054906101000a9004600160a060020a0316600160a060020a0316638da5cb5b6040518163ffffffff167c010000000000000000000000000000000000000000000000000000000002815260040160206040518083038186803b1580156101bb57600080fd5b505afa1580156101cf573d6000803e3d6000fd5b505050506040513d60208110156101e557600080fd5b505160038054600160a060020a031916600160a060020a039092169190911790555b50600491909155600555505061129d806102226000396000f3fe608060405234801561001057600080fd5b50600436106100f95760003560e060020a90048063715018a61161009b578063c42987521161006a578063c4298752146101fc578063c884ef8314610222578063f0cd594514610248578063f2fde38b1461026e576100f9565b8063715018a6146101c85780638da5cb5b146101d05780638f32d59b146101d8578063b88a802f146101f4576100f9565b80632c159a1a116100d75780632c159a1a14610148578063379f53e31461016c57806354c5b6961461019257806360ee79381461019a576100f9565b8063086cfca8146100fe5780632236684414610126578063228cb7331461012e575b600080fd5b6101246004803603602081101561011457600080fd5b5035600160a060020a0316610294565b005b61012461053c565b610136610691565b60408051918252519081900360200190f35b610150610697565b60408051600160a060020a039092168252519081900360200190f35b6101366004803603602081101561018257600080fd5b5035600160a060020a03166106a6565b6101366106b8565b610124600480360360408110156101b057600080fd5b50600160a060020a03813581169160200135166106be565b61012461090e565b610150610978565b6101e0610987565b604080519115158252519081900360200190f35b6101e0610998565b6101e06004803603602081101561021257600080fd5b5035600160a060020a0316610c48565b6101e06004803603602081101561023857600080fd5b5035600160a060020a0316610ed1565b6101506004803603602081101561025e57600080fd5b5035600160a060020a0316610ee6565b6101246004803603602081101561028457600080fd5b5035600160a060020a0316610f01565b8033600160a060020a0382161480156103a4575030600160a060020a0316638da5cb5b6040518163ffffffff1660e060020a02815260040160206040518083038186803b1580156102e457600080fd5b505afa1580156102f8573d6000803e3d6000fd5b505050506040513d602081101561030e57600080fd5b5051604080517f8da5cb5b0000000000000000000000000000000000000000000000000000000081529051600160a060020a0392831692841691638da5cb5b916004808301926020929190829003018186803b15801561036d57600080fd5b505afa158015610381573d6000803e3d6000fd5b505050506040513d602081101561039757600080fd5b5051600160a060020a0316145b8061041e575030600160a060020a0316638da5cb5b6040518163ffffffff1660e060020a02815260040160206040518083038186803b1580156103e657600080fd5b505afa1580156103fa573d6000803e3d6000fd5b505050506040513d602081101561041057600080fd5b5051600160a060020a031633145b151561045e5760405160e560020a62461bcd0281526004018080602001828103825260298152602001806112496029913960400191505060405180910390fd5b6002805473ffffffffffffffffffffffffffffffffffffffff1916600160a060020a038481169190911791829055604080517f8da5cb5b00000000000000000000000000000000000000000000000000000000815290519290911691638da5cb5b91600480820192602092909190829003018186803b1580156104e057600080fd5b505afa1580156104f4573d6000803e3d6000fd5b505050506040513d602081101561050a57600080fd5b50516003805473ffffffffffffffffffffffffffffffffffffffff1916600160a060020a039092169190911790555050565b600254600160a060020a0316151561059e576040805160e560020a62461bcd02815260206004820152601160248201527f417661746172206973206e6f7420736574000000000000000000000000000000604482015290519081900360640190fd5b600354600254604080517f9be2faed000000000000000000000000000000000000000000000000000000008152306004820152600160a060020a03928316602482015290519190921691639be2faed916044808301926020929190829003018186803b15801561060d57600080fd5b505afa158015610621573d6000803e3d6000fd5b505050506040513d602081101561063757600080fd5b5051151561068f576040805160e560020a62461bcd02815260206004820152601860248201527f536368656d65206973206e6f7420726567697374657265640000000000000000604482015290519081900360640190fd5b565b60055481565b600154600160a060020a031681565b60066020526000908152604090205481565b60045481565b8033600160a060020a0382161480156107ce575030600160a060020a0316638da5cb5b6040518163ffffffff1660e060020a02815260040160206040518083038186803b15801561070e57600080fd5b505afa158015610722573d6000803e3d6000fd5b505050506040513d602081101561073857600080fd5b5051604080517f8da5cb5b0000000000000000000000000000000000000000000000000000000081529051600160a060020a0392831692841691638da5cb5b916004808301926020929190829003018186803b15801561079757600080fd5b505afa1580156107ab573d6000803e3d6000fd5b505050506040513d60208110156107c157600080fd5b5051600160a060020a0316145b80610848575030600160a060020a0316638da5cb5b6040518163ffffffff1660e060020a02815260040160206040518083038186803b15801561081057600080fd5b505afa158015610824573d6000803e3d6000fd5b505050506040513d602081101561083a57600080fd5b5051600160a060020a031633145b15156108885760405160e560020a62461bcd0281526004018080602001828103825260298152602001806112496029913960400191505060405180910390fd5b82600160a060020a031663223668446040518163ffffffff1660e060020a02815260040160006040518083038186803b1580156108c457600080fd5b505afa1580156108d8573d6000803e3d6000fd5b50506001805473ffffffffffffffffffffffffffffffffffffffff1916600160a060020a03969096169590951790945550505050565b610916610987565b151561092157600080fd5b60008054604051600160a060020a03909116907f8be0079c531659141344cd1fd0a4f28419497f9722a3daafe3b4186f6b6457e0908390a36000805473ffffffffffffffffffffffffffffffffffffffff19169055565b600054600160a060020a031690565b600054600160a060020a0316331490565b600354600254604080517f9be2faed000000000000000000000000000000000000000000000000000000008152306004820152600160a060020a03928316602482015290516000939290921691639be2faed91604480820192602092909190829003018186803b158015610a0b57600080fd5b505afa158015610a1f573d6000803e3d6000fd5b505050506040513d6020811015610a3557600080fd5b50511515610a8d576040805160e560020a62461bcd02815260206004820152601860248201527f536368656d65206973206e6f7420726567697374657265640000000000000000604482015290519081900360640190fd5b600154604080517f10a8aecd000000000000000000000000000000000000000000000000000000008152336004820181905291519192600160a060020a0316916310a8aecd91602480820192602092909190829003018186803b158015610af357600080fd5b505afa158015610b07573d6000803e3d6000fd5b505050506040513d6020811015610b1d57600080fd5b50511515610b75576040805160e560020a62461bcd02815260206004820152601260248201527f55736572206e6f7420696e2073797374656d0000000000000000000000000000604482015290519081900360640190fd5b3360009081526008602052604090205460ff1615610bdd576040805160e560020a62461bcd02815260206004820152601260248201527f43616e6e6f7420636c61696d2074776963650000000000000000000000000000604482015290519081900360640190fd5b336000818152600860205260409020805460ff19166001179055610c0090610f20565b33600090815260076020526040902054600160a060020a031615610c405733600090815260076020526040902054610c4090600160a060020a0316610f20565b600191505090565b600354600254604080517f9be2faed000000000000000000000000000000000000000000000000000000008152306004820152600160a060020a03928316602482015290516000939290921691639be2faed91604480820192602092909190829003018186803b158015610cbb57600080fd5b505afa158015610ccf573d6000803e3d6000fd5b505050506040513d6020811015610ce557600080fd5b50511515610d3d576040805160e560020a62461bcd02815260206004820152601860248201527f536368656d65206973206e6f7420726567697374657265640000000000000000604482015290519081900360640190fd5b600160a060020a0380831660009081526007602052604090205483911615610daf576040805160e560020a62461bcd02815260206004820152601460248201527f5573657220616c726561647920696e7669746564000000000000000000000000604482015290519081900360640190fd5b600154604080517f10a8aecd000000000000000000000000000000000000000000000000000000008152600160a060020a038481166004830152915191909216916310a8aecd916024808301926020929190829003018186803b158015610e1557600080fd5b505afa158015610e29573d6000803e3d6000fd5b505050506040513d6020811015610e3f57600080fd5b505115610e96576040805160e560020a62461bcd02815260206004820152601660248201527f5573657220616c726561647920696e2073797374656d00000000000000000000604482015290519081900360640190fd5b5050600160a060020a03166000908152600760205260409020805473ffffffffffffffffffffffffffffffffffffffff191633179055600190565b60086020526000908152604090205460ff1681565b600760205260009081526040902054600160a060020a031681565b610f09610987565b1515610f1457600080fd5b610f1d8161119d565b50565b600454600554600160a060020a038316600090815260066020526040902054610f4e9163ffffffff61121a16565b111561107057600454600160a060020a038216600090815260066020526040812082905590610f83908063ffffffff61123316565b600354600254604080517f6407e43200000000000000000000000000000000000000000000000000000000815260048101859052600160a060020a03878116602483015292831660448201529051939450911691636407e432916064808201926020929091908290030181600087803b158015610fff57600080fd5b505af1158015611013573d6000803e3d6000fd5b505050506040513d602081101561102957600080fd5b5050604080518281529051600160a060020a038416917f4e69fdc49495bcab2b4375781457ba16653a90eb4ffb6588351bdc39071433e2919081900360200190a250610f1d565b600554600160a060020a03821660009081526006602052604090205461109b9163ffffffff61121a16565b600160a060020a0380831660008181526006602090815260408083209590955560035460055460025487517f6407e43200000000000000000000000000000000000000000000000000000000815260048101929092526024820195909552938516604485015294519490931693636407e432936064808501949193918390030190829087803b15801561112d57600080fd5b505af1158015611141573d6000803e3d6000fd5b505050506040513d602081101561115757600080fd5b50506005546040805191825251600160a060020a038316917f4e69fdc49495bcab2b4375781457ba16653a90eb4ffb6588351bdc39071433e2919081900360200190a250565b600160a060020a03811615156111b257600080fd5b60008054604051600160a060020a03808516939216917f8be0079c531659141344cd1fd0a4f28419497f9722a3daafe3b4186f6b6457e091a36000805473ffffffffffffffffffffffffffffffffffffffff1916600160a060020a0392909216919091179055565b60008282018381101561122c57600080fd5b9392505050565b60008282111561124257600080fd5b5090039056fe4f6e6c792063616c6c61626c6520627920617661746172206f66206f776e6572206f72206f776e6572a165627a7a72305820599292b14ff2c2182dd0ced31a1a9eab4a72d816e14b52e875591c0c5cf429ea0029",
  "source": "pragma solidity 0.5.4;\n\nimport \"@daostack/arc/contracts/controller/Avatar.sol\";\nimport \"@daostack/arc/contracts/controller/ControllerInterface.sol\";\n\nimport \"openzeppelin-solidity/contracts/math/SafeMath.sol\";\n\nimport \"../../identity/IdentityGuard.sol\";\nimport \"./SchemeGuard.sol\";\n\n/* @title Sign-Up bonus scheme responsible for minting\n * a given amount to users\n */\ncontract InviteUser is IdentityGuard, SchemeGuard {\n    using SafeMath for uint256;\n\n    uint256 public maxBonus;\n    uint256 public reward;\n\n    mapping(address => uint256) public rewarded;\n    mapping(address => address) public invited;\n    mapping(address => bool) public claimed;\n\n    event BonusClaimed(address indexed account, uint256 amount);\n    event UserSigned(address indexed newUser, address indexed referrer);\n\n    constructor(\n        Avatar _avatar,\n        Identity _identity,\n        uint256 _maxBonus,\n        uint256 _reward\n    )\n        public\n        IdentityGuard(_identity)\n        SchemeGuard(_avatar)\n    {\n        maxBonus = _maxBonus;\n        reward = _reward;\n    }\n\n    modifier requireNotAdded(address _user) {\n        require(invited[_user] == address(0), \"User already invited\");\n        require(!(identity.isClaimer(_user)), \"User already in system\");\n        _;\n    }\n\n    modifier requireAdded(address _user) {\n        require(identity.isClaimer(_user), \"User not in system\");\n        _;\n    }\n\n    function inviteUser(address _user)\n        public\n        onlyRegistered\n        requireNotAdded(_user)\n        returns (bool)\n    {\n        invited[_user] = msg.sender;\n\n        return true;\n    }\n\n    function claimReward()\n        public\n        onlyRegistered\n        requireAdded(msg.sender)\n        returns (bool)\n    {\n        require(!claimed[msg.sender], \"Cannot claim twice\");\n\n        claimed[msg.sender] = true;\n\n        awardUser(msg.sender);\n\n        if (invited[msg.sender] != address(0)) {\n            awardUser(invited[msg.sender]);\n        }\n\n        return true;\n    }\n\n    function awardUser(address _user) internal {\n        if (rewarded[_user].add(reward) > maxBonus) {\n            rewarded[_user] = maxBonus;\n            uint256 newReward = maxBonus.sub(rewarded[_user]);\n            controller.mintTokens(newReward, _user, address(avatar));\n            \n            emit BonusClaimed(_user, newReward);\n        }\n        \n        else {\n            rewarded[_user] = rewarded[_user].add(reward);\n            controller.mintTokens(reward, _user, address(avatar));\n\n            emit BonusClaimed(_user, reward);\n        }\n    }\n}",
  "sourcePath": "/Users/madsjorgensen/Documents/Work/GoodContracts/contracts/dao/schemes/InviteUser.sol",
  "compiler": {
    "name": "solc",
    "version": "0.5.4+commit.9549d8ff.Emscripten.clang"
  },
  "schemaVersion": "3.0.11",
  "updatedAt": "2019-09-23T08:51:23.453Z",
  "devdoc": {
    "methods": {
      "isOwner()": {
        "return": "true if `msg.sender` is the owner of the contract."
      },
      "owner()": {
        "return": "the address of the owner."
      },
      "renounceOwnership()": {
        "details": "Allows the current owner to relinquish control of the contract."
      },
      "transferOwnership(address)": {
        "details": "Allows the current owner to transfer control of the contract to a newOwner.",
        "params": {
          "newOwner": "The address to transfer ownership to."
        }
      }
    }
  },
  "userdoc": {
    "methods": {
      "renounceOwnership()": {
        "notice": "Renouncing to ownership will leave the contract without an owner. It will not be possible to call the functions with the `onlyOwner` modifier anymore."
      }
    }
  }
}