{
  "contractName": "InviteUser",
  "abi": [
    {
      "constant": false,
      "inputs": [
        {
          "name": "_avatar",
          "type": "address"
        }
      ],
      "name": "setAvatar",
      "outputs": [],
      "payable": false,
      "stateMutability": "nonpayable",
      "type": "function"
    },
    {
      "constant": true,
      "inputs": [],
      "name": "isRegistered",
      "outputs": [
        {
          "name": "",
          "type": "bool"
        }
      ],
      "payable": false,
      "stateMutability": "view",
      "type": "function"
    },
    {
      "constant": true,
      "inputs": [],
      "name": "reward",
      "outputs": [
        {
          "name": "",
          "type": "uint256"
        }
      ],
      "payable": false,
      "stateMutability": "view",
      "type": "function"
    },
    {
      "constant": true,
      "inputs": [],
      "name": "identity",
      "outputs": [
        {
          "name": "",
          "type": "address"
        }
      ],
      "payable": false,
      "stateMutability": "view",
      "type": "function"
    },
    {
      "constant": true,
      "inputs": [
        {
          "name": "",
          "type": "address"
        }
      ],
      "name": "rewarded",
      "outputs": [
        {
          "name": "",
          "type": "uint256"
        }
      ],
      "payable": false,
      "stateMutability": "view",
      "type": "function"
    },
    {
      "constant": true,
      "inputs": [],
      "name": "maxBonus",
      "outputs": [
        {
          "name": "",
          "type": "uint256"
        }
      ],
      "payable": false,
      "stateMutability": "view",
      "type": "function"
    },
    {
      "constant": false,
      "inputs": [
        {
          "name": "_identity",
          "type": "address"
        }
      ],
      "name": "setIdentity",
      "outputs": [],
      "payable": false,
      "stateMutability": "nonpayable",
      "type": "function"
    },
    {
      "constant": false,
      "inputs": [],
      "name": "renounceOwnership",
      "outputs": [],
      "payable": false,
      "stateMutability": "nonpayable",
      "type": "function"
    },
    {
      "constant": true,
      "inputs": [],
      "name": "owner",
      "outputs": [
        {
          "name": "",
          "type": "address"
        }
      ],
      "payable": false,
      "stateMutability": "view",
      "type": "function"
    },
    {
      "constant": true,
      "inputs": [],
      "name": "isOwner",
      "outputs": [
        {
          "name": "",
          "type": "bool"
        }
      ],
      "payable": false,
      "stateMutability": "view",
      "type": "function"
    },
    {
      "constant": true,
      "inputs": [
        {
          "name": "scheme",
          "type": "address"
        }
      ],
      "name": "isRegistered",
      "outputs": [
        {
          "name": "",
          "type": "bool"
        }
      ],
      "payable": false,
      "stateMutability": "view",
      "type": "function"
    },
    {
      "constant": true,
      "inputs": [
        {
          "name": "",
          "type": "address"
        }
      ],
      "name": "claimed",
      "outputs": [
        {
          "name": "",
          "type": "bool"
        }
      ],
      "payable": false,
      "stateMutability": "view",
      "type": "function"
    },
    {
      "constant": true,
      "inputs": [
        {
          "name": "",
          "type": "address"
        }
      ],
      "name": "invited",
      "outputs": [
        {
          "name": "",
          "type": "address"
        }
      ],
      "payable": false,
      "stateMutability": "view",
      "type": "function"
    },
    {
      "constant": false,
      "inputs": [
        {
          "name": "newOwner",
          "type": "address"
        }
      ],
      "name": "transferOwnership",
      "outputs": [],
      "payable": false,
      "stateMutability": "nonpayable",
      "type": "function"
    },
    {
      "inputs": [
        {
          "name": "_avatar",
          "type": "address"
        },
        {
          "name": "_identity",
          "type": "address"
        },
        {
          "name": "_maxBonus",
          "type": "uint256"
        },
        {
          "name": "_reward",
          "type": "uint256"
        }
      ],
      "payable": false,
      "stateMutability": "nonpayable",
      "type": "constructor"
    },
    {
      "anonymous": false,
      "inputs": [
        {
          "indexed": true,
          "name": "account",
          "type": "address"
        },
        {
          "indexed": false,
          "name": "amount",
          "type": "uint256"
        }
      ],
      "name": "BonusClaimed",
      "type": "event"
    },
    {
      "anonymous": false,
      "inputs": [
        {
          "indexed": true,
          "name": "newUser",
          "type": "address"
        },
        {
          "indexed": true,
          "name": "referrer",
          "type": "address"
        }
      ],
      "name": "UserSigned",
      "type": "event"
    },
    {
      "anonymous": false,
      "inputs": [
        {
          "indexed": true,
          "name": "previousOwner",
          "type": "address"
        },
        {
          "indexed": true,
          "name": "newOwner",
          "type": "address"
        }
      ],
      "name": "OwnershipTransferred",
      "type": "event"
    },
    {
      "constant": false,
      "inputs": [
        {
          "name": "_user",
          "type": "address"
        }
      ],
      "name": "inviteUser",
      "outputs": [
        {
          "name": "",
          "type": "bool"
        }
      ],
      "payable": false,
      "stateMutability": "nonpayable",
      "type": "function"
    },
    {
      "constant": false,
      "inputs": [],
      "name": "claimReward",
      "outputs": [
        {
          "name": "",
          "type": "bool"
        }
      ],
      "payable": false,
      "stateMutability": "nonpayable",
      "type": "function"
    }
  ],
  "bytecode": "0x608060405260038054600160a060020a031916905534801561002057600080fd5b506040516080806111858339810180604052608081101561004057600080fd5b508051602082015160408084015160609094015160008054600160a060020a0319163317808255925194959394919286928692600160a060020a039290921691907f8be0079c531659141344cd1fd0a4f28419497f9722a3daafe3b4186f6b6457e0908290a3600160a060020a038116151561011d57604080517f08c379a000000000000000000000000000000000000000000000000000000000815260206004820152601960248201527f537570706c696564206964656e74697479206973206e756c6c00000000000000604482015290519081900360640190fd5b60018054600160a060020a0319908116600160a060020a0393841617909155600280549091168383161790819055161561020757600260009054906101000a9004600160a060020a0316600160a060020a0316638da5cb5b6040518163ffffffff167c010000000000000000000000000000000000000000000000000000000002815260040160206040518083038186803b1580156101bb57600080fd5b505afa1580156101cf573d6000803e3d6000fd5b505050506040513d60208110156101e557600080fd5b505160038054600160a060020a031916600160a060020a039092169190911790555b5080821015610261576040517f08c379a000000000000000000000000000000000000000000000000000000000815260040180806020018281038252602781526020018061115e6027913960400191505060405180910390fd5b6004919091556005555050610ee38061027b6000396000f3fe608060405234801561001057600080fd5b506004361061011d576000357c0100000000000000000000000000000000000000000000000000000000900480638da5cb5b116100b4578063c429875211610083578063c42987521461023e578063c884ef8314610264578063f0cd59451461028a578063f2fde38b146102b05761011d565b80638da5cb5b146102005780638f32d59b14610208578063b88a802f14610210578063c3c5a547146102185761011d565b8063379f53e3116100f0578063379f53e3146101a457806354c5b696146101ca5780635d5bf178146101d2578063715018a6146101f85761011d565b8063086cfca814610122578063223668441461014a578063228cb733146101665780632c159a1a14610180575b600080fd5b6101486004803603602081101561013857600080fd5b5035600160a060020a03166102d6565b005b6101526103c6565b604080519115158252519081900360200190f35b61016e6103d6565b60408051918252519081900360200190f35b6101886103dc565b60408051600160a060020a039092168252519081900360200190f35b61016e600480360360208110156101ba57600080fd5b5035600160a060020a03166103eb565b61016e6103fd565b610148600480360360208110156101e857600080fd5b5035600160a060020a0316610403565b61014861051c565b610188610586565b610152610595565b6101526105a6565b6101526004803603602081101561022e57600080fd5b5035600160a060020a03166107c1565b6101526004803603602081101561025457600080fd5b5035600160a060020a03166108da565b6101526004803603602081101561027a57600080fd5b5035600160a060020a0316610b2f565b610188600480360360208110156102a057600080fd5b5035600160a060020a0316610b44565b610148600480360360208110156102c657600080fd5b5035600160a060020a0316610b5f565b6102de610595565b15156102e957600080fd5b6002805473ffffffffffffffffffffffffffffffffffffffff1916600160a060020a038381169190911791829055604080517f8da5cb5b00000000000000000000000000000000000000000000000000000000815290519290911691638da5cb5b91600480820192602092909190829003018186803b15801561036b57600080fd5b505afa15801561037f573d6000803e3d6000fd5b505050506040513d602081101561039557600080fd5b50516003805473ffffffffffffffffffffffffffffffffffffffff1916600160a060020a0390921691909117905550565b60006103d1306107c1565b905090565b60055481565b600154600160a060020a031681565b60066020526000908152604090205481565b60045481565b61040b610595565b151561041657600080fd5b80600160a060020a031663223668446040518163ffffffff167c010000000000000000000000000000000000000000000000000000000002815260040160206040518083038186803b15801561046b57600080fd5b505afa15801561047f573d6000803e3d6000fd5b505050506040513d602081101561049557600080fd5b505115156104ed576040805160e560020a62461bcd02815260206004820152601a60248201527f4964656e74697479206973206e6f742072656769737465726564000000000000604482015290519081900360640190fd5b6001805473ffffffffffffffffffffffffffffffffffffffff1916600160a060020a0392909216919091179055565b610524610595565b151561052f57600080fd5b60008054604051600160a060020a03909116907f8be0079c531659141344cd1fd0a4f28419497f9722a3daafe3b4186f6b6457e0908390a36000805473ffffffffffffffffffffffffffffffffffffffff19169055565b600054600160a060020a031690565b600054600160a060020a0316331490565b60006105b06103c6565b1515610606576040805160e560020a62461bcd02815260206004820152601860248201527f536368656d65206973206e6f7420726567697374657265640000000000000000604482015290519081900360640190fd5b600154604080517f3af32abf000000000000000000000000000000000000000000000000000000008152336004820181905291519192600160a060020a031691633af32abf91602480820192602092909190829003018186803b15801561066c57600080fd5b505afa158015610680573d6000803e3d6000fd5b505050506040513d602081101561069657600080fd5b505115156106ee576040805160e560020a62461bcd02815260206004820152601260248201527f55736572206e6f7420696e2073797374656d0000000000000000000000000000604482015290519081900360640190fd5b3360009081526008602052604090205460ff1615610756576040805160e560020a62461bcd02815260206004820152601260248201527f43616e6e6f7420636c61696d2074776963650000000000000000000000000000604482015290519081900360640190fd5b336000818152600860205260409020805460ff1916600117905561077990610b7e565b33600090815260076020526040902054600160a060020a0316156107b957336000908152600760205260409020546107b990600160a060020a0316610b7e565b600191505090565b600254600090600160a060020a03161515610826576040805160e560020a62461bcd02815260206004820152601160248201527f417661746172206973206e6f7420736574000000000000000000000000000000604482015290519081900360640190fd5b600354600254604080517f9be2faed000000000000000000000000000000000000000000000000000000008152600160a060020a038681166004830152928316602482015290519190921691639be2faed916044808301926020929190829003018186803b15801561089757600080fd5b505afa1580156108ab573d6000803e3d6000fd5b505050506040513d60208110156108c157600080fd5b505115156108d1575060006108d5565b5060015b919050565b60006108e46103c6565b151561093a576040805160e560020a62461bcd02815260206004820152601860248201527f536368656d65206973206e6f7420726567697374657265640000000000000000604482015290519081900360640190fd5b600160a060020a03808316600090815260076020526040902054839116156109ac576040805160e560020a62461bcd02815260206004820152601460248201527f5573657220616c726561647920696e7669746564000000000000000000000000604482015290519081900360640190fd5b600154604080517f3af32abf000000000000000000000000000000000000000000000000000000008152600160a060020a03848116600483015291519190921691633af32abf916024808301926020929190829003018186803b158015610a1257600080fd5b505afa158015610a26573d6000803e3d6000fd5b505050506040513d6020811015610a3c57600080fd5b505115610a93576040805160e560020a62461bcd02815260206004820152601660248201527f5573657220616c726561647920696e2073797374656d00000000000000000000604482015290519081900360640190fd5b600160a060020a038316331415610af4576040805160e560020a62461bcd02815260206004820152601260248201527f43616e6e6f7420696e766974652073656c660000000000000000000000000000604482015290519081900360640190fd5b5050600160a060020a03166000908152600760205260409020805473ffffffffffffffffffffffffffffffffffffffff191633179055600190565b60086020526000908152604090205460ff1681565b600760205260009081526040902054600160a060020a031681565b610b67610595565b1515610b7257600080fd5b610b7b81610e0c565b50565b600454600554600160a060020a038316600090815260066020526040902054610bac9163ffffffff610e8916565b1115610cdf57600160a060020a038116600090815260066020526040812054600454610bdd9163ffffffff610ea216565b60048054600160a060020a0380861660008181526006602090815260408083209590955560035460025486517f6407e432000000000000000000000000000000000000000000000000000000008152978801899052602488019490945292841660448701529351959650911693636407e4329360648082019493918390030190829087803b158015610c6e57600080fd5b505af1158015610c82573d6000803e3d6000fd5b505050506040513d6020811015610c9857600080fd5b5050604080518281529051600160a060020a038416917f4e69fdc49495bcab2b4375781457ba16653a90eb4ffb6588351bdc39071433e2919081900360200190a250610b7b565b600554600160a060020a038216600090815260066020526040902054610d0a9163ffffffff610e8916565b600160a060020a0380831660008181526006602090815260408083209590955560035460055460025487517f6407e43200000000000000000000000000000000000000000000000000000000815260048101929092526024820195909552938516604485015294519490931693636407e432936064808501949193918390030190829087803b158015610d9c57600080fd5b505af1158015610db0573d6000803e3d6000fd5b505050506040513d6020811015610dc657600080fd5b50506005546040805191825251600160a060020a038316917f4e69fdc49495bcab2b4375781457ba16653a90eb4ffb6588351bdc39071433e2919081900360200190a250565b600160a060020a0381161515610e2157600080fd5b60008054604051600160a060020a03808516939216917f8be0079c531659141344cd1fd0a4f28419497f9722a3daafe3b4186f6b6457e091a36000805473ffffffffffffffffffffffffffffffffffffffff1916600160a060020a0392909216919091179055565b600082820183811015610e9b57600080fd5b9392505050565b600082821115610eb157600080fd5b5090039056fea165627a7a72305820eb610f39301b26b0a53e7c5358615a301c9d6cc892837e25d4d3c29718290bef00295265776172642063616e6e6f742062652067726561746572207468616e206d617820626f6e7573",
  "source": "pragma solidity 0.5.4;\n\nimport \"@daostack/arc/contracts/controller/Avatar.sol\";\nimport \"@daostack/arc/contracts/controller/ControllerInterface.sol\";\n\nimport \"openzeppelin-solidity/contracts/math/SafeMath.sol\";\n\nimport \"../../identity/IdentityGuard.sol\";\nimport \"./SchemeGuard.sol\";\n\n/* @title Scheme for inviting non-whitelisted users and claiming rewards\n */\ncontract InviteUser is IdentityGuard, SchemeGuard {\n    using SafeMath for uint256;\n\n    uint256 public maxBonus;\n    uint256 public reward;\n\n    mapping(address => uint256) public rewarded;\n    mapping(address => address) public invited;\n    mapping(address => bool) public claimed;\n\n    event BonusClaimed(address indexed account, uint256 amount);\n    event UserSigned(address indexed newUser, address indexed referrer);\n\n    /* @dev Constructor. Sets the amount users are rewarded per invite and\n     * the max amount addresses can claim\n     * @param _avatar The avatar of the DAO\n     * @param _identity The identity contract of the DAO\n     * @param _maxBonus The max bonus addresses can be awarded\n     * @param _reward The reward users receive per invite\n     */\n    constructor(\n        Avatar _avatar,\n        Identity _identity,\n        uint256 _maxBonus,\n        uint256 _reward\n    )\n        public\n        IdentityGuard(_identity)\n        SchemeGuard(_avatar)\n    {\n        require(_maxBonus >= _reward, \"Reward cannot be greater than max bonus\");\n        maxBonus = _maxBonus;\n        reward = _reward;\n    }\n\n    /* @dev Modifier that requires user to not have been invited and is not whitelisted\n     * @param _user The address to check\n     */\n    modifier requireNotAdded(address _user) {\n        require(invited[_user] == address(0), \"User already invited\");\n        require(!(identity.isWhitelisted(_user)), \"User already in system\");\n        _;\n    }\n\n    /* @dev Modifier that requires user to be whitelisted\n     * @param _user The address to check\n     */\n    modifier requireAdded(address _user) {\n        require(identity.isWhitelisted(_user), \"User not in system\");\n        _;\n    }\n\n    /* @dev Function for inviting a given address. Can only be done if contract\n     * is registered and address has not received an invite yet\n     * @param _user The address to invite\n     * @return a bool indicating if the user was invited\n     */\n    function inviteUser(address _user)\n        public\n        onlyRegistered\n        requireNotAdded(_user)\n        returns (bool)\n    {\n        require(_user != msg.sender, \"Cannot invite self\");\n        invited[_user] = msg.sender;\n\n        return true;\n    }\n\n    /* @dev Function for claiming rewards from entering the system. Can only be called\n     * if contract is registered and if address has been added.\n     * @return a bool indicating if the caller has been rewarded\n     */\n    function claimReward()\n        public\n        onlyRegistered\n        requireAdded(msg.sender)\n        returns (bool)\n    {\n        require(!claimed[msg.sender], \"Cannot claim twice\");\n\n        claimed[msg.sender] = true;\n\n        awardUser(msg.sender);\n\n        if (invited[msg.sender] != address(0)) {\n            awardUser(invited[msg.sender]);\n        }\n\n        return true;\n    }\n\n    /* @dev Internal function for rewarding an address. Rewards the address the\n     * parameter set in the constructor. If the reward makes the address exceed\n     * the maximum reward amount, the address will instead be rewarded the\n     * difference between the max reward amount and their current rewarded amount\n     */\n    function awardUser(address _user) internal {\n        if (rewarded[_user].add(reward) > maxBonus) {\n            uint256 newReward = maxBonus.sub(rewarded[_user]);\n            rewarded[_user] = maxBonus;\n            controller.mintTokens(newReward, _user, address(avatar));\n            emit BonusClaimed(_user, newReward);\n        }\n        else {\n            rewarded[_user] = rewarded[_user].add(reward);\n            controller.mintTokens(reward, _user, address(avatar));\n\n            emit BonusClaimed(_user, reward);\n        }\n    }\n}",
  "sourcePath": "/Users/hadar/workspace/GoodDollar/GoodBootstrap/packages/contracts/contracts/dao/schemes/InviteUser.sol",
  "compiler": {
    "name": "solc",
    "version": "0.5.4+commit.9549d8ff.Emscripten.clang"
  },
  "schemaVersion": "3.0.16",
  "updatedAt": "2020-07-09T11:25:13.976Z",
  "devdoc": {
    "methods": {
      "isOwner()": {
        "return": "true if `msg.sender` is the owner of the contract."
      },
      "isRegistered()": {
        "details": "function to see if an avatar has been set and if this scheme is registered",
        "return": "true if scheme is registered"
      },
      "isRegistered(address)": {
        "details": "function to see if an avatar has been set and if this scheme is registered",
        "return": "true if scheme is registered"
      },
      "owner()": {
        "return": "the address of the owner."
      },
      "renounceOwnership()": {
        "details": "Allows the current owner to relinquish control of the contract."
      },
      "setAvatar(address)": {
        "details": "Function to set a new avatar and controller for scheme can only be done by owner of scheme"
      },
      "transferOwnership(address)": {
        "details": "Allows the current owner to transfer control of the contract to a newOwner.",
        "params": {
          "newOwner": "The address to transfer ownership to."
        }
      }
    }
  },
  "userdoc": {
    "methods": {
      "renounceOwnership()": {
        "notice": "Renouncing to ownership will leave the contract without an owner. It will not be possible to call the functions with the `onlyOwner` modifier anymore."
      }
    }
  }
}