{
  "contractName": "InviteUser",
  "abi": [
    {
      "constant": false,
      "inputs": [
        {
          "name": "_avatar",
          "type": "address"
        }
      ],
      "name": "setAvatar",
      "outputs": [],
      "payable": false,
      "stateMutability": "nonpayable",
      "type": "function"
    },
    {
      "constant": true,
      "inputs": [],
      "name": "isRegistered",
      "outputs": [
        {
          "name": "",
          "type": "bool"
        }
      ],
      "payable": false,
      "stateMutability": "view",
      "type": "function"
    },
    {
      "constant": true,
      "inputs": [],
      "name": "reward",
      "outputs": [
        {
          "name": "",
          "type": "uint256"
        }
      ],
      "payable": false,
      "stateMutability": "view",
      "type": "function"
    },
    {
      "constant": true,
      "inputs": [],
      "name": "identity",
      "outputs": [
        {
          "name": "",
          "type": "address"
        }
      ],
      "payable": false,
      "stateMutability": "view",
      "type": "function"
    },
    {
      "constant": true,
      "inputs": [
        {
          "name": "",
          "type": "address"
        }
      ],
      "name": "rewarded",
      "outputs": [
        {
          "name": "",
          "type": "uint256"
        }
      ],
      "payable": false,
      "stateMutability": "view",
      "type": "function"
    },
    {
      "constant": true,
      "inputs": [],
      "name": "maxBonus",
      "outputs": [
        {
          "name": "",
          "type": "uint256"
        }
      ],
      "payable": false,
      "stateMutability": "view",
      "type": "function"
    },
    {
      "constant": false,
      "inputs": [
        {
          "name": "_identity",
          "type": "address"
        }
      ],
      "name": "setIdentity",
      "outputs": [],
      "payable": false,
      "stateMutability": "nonpayable",
      "type": "function"
    },
    {
      "constant": false,
      "inputs": [],
      "name": "renounceOwnership",
      "outputs": [],
      "payable": false,
      "stateMutability": "nonpayable",
      "type": "function"
    },
    {
      "constant": true,
      "inputs": [],
      "name": "owner",
      "outputs": [
        {
          "name": "",
          "type": "address"
        }
      ],
      "payable": false,
      "stateMutability": "view",
      "type": "function"
    },
    {
      "constant": true,
      "inputs": [],
      "name": "isOwner",
      "outputs": [
        {
          "name": "",
          "type": "bool"
        }
      ],
      "payable": false,
      "stateMutability": "view",
      "type": "function"
    },
    {
      "constant": true,
      "inputs": [
        {
          "name": "",
          "type": "address"
        }
      ],
      "name": "claimed",
      "outputs": [
        {
          "name": "",
          "type": "bool"
        }
      ],
      "payable": false,
      "stateMutability": "view",
      "type": "function"
    },
    {
      "constant": true,
      "inputs": [
        {
          "name": "",
          "type": "address"
        }
      ],
      "name": "invited",
      "outputs": [
        {
          "name": "",
          "type": "address"
        }
      ],
      "payable": false,
      "stateMutability": "view",
      "type": "function"
    },
    {
      "constant": false,
      "inputs": [
        {
          "name": "newOwner",
          "type": "address"
        }
      ],
      "name": "transferOwnership",
      "outputs": [],
      "payable": false,
      "stateMutability": "nonpayable",
      "type": "function"
    },
    {
      "inputs": [
        {
          "name": "_avatar",
          "type": "address"
        },
        {
          "name": "_identity",
          "type": "address"
        },
        {
          "name": "_maxBonus",
          "type": "uint256"
        },
        {
          "name": "_reward",
          "type": "uint256"
        }
      ],
      "payable": false,
      "stateMutability": "nonpayable",
      "type": "constructor"
    },
    {
      "anonymous": false,
      "inputs": [
        {
          "indexed": true,
          "name": "account",
          "type": "address"
        },
        {
          "indexed": false,
          "name": "amount",
          "type": "uint256"
        }
      ],
      "name": "BonusClaimed",
      "type": "event"
    },
    {
      "anonymous": false,
      "inputs": [
        {
          "indexed": true,
          "name": "newUser",
          "type": "address"
        },
        {
          "indexed": true,
          "name": "referrer",
          "type": "address"
        }
      ],
      "name": "UserSigned",
      "type": "event"
    },
    {
      "anonymous": false,
      "inputs": [
        {
          "indexed": true,
          "name": "previousOwner",
          "type": "address"
        },
        {
          "indexed": true,
          "name": "newOwner",
          "type": "address"
        }
      ],
      "name": "OwnershipTransferred",
      "type": "event"
    },
    {
      "constant": false,
      "inputs": [
        {
          "name": "_user",
          "type": "address"
        }
      ],
      "name": "inviteUser",
      "outputs": [
        {
          "name": "",
          "type": "bool"
        }
      ],
      "payable": false,
      "stateMutability": "nonpayable",
      "type": "function"
    },
    {
      "constant": false,
      "inputs": [],
      "name": "claimReward",
      "outputs": [
        {
          "name": "",
          "type": "bool"
        }
      ],
      "payable": false,
      "stateMutability": "nonpayable",
      "type": "function"
    }
  ],
  "bytecode": "0x608060405260038054600160a060020a031916905534801561002057600080fd5b506040516080806111408339810180604052608081101561004057600080fd5b508051602082015160408084015160609094015160008054600160a060020a0319163317808255925194959394919286928692600160a060020a039290921691907f8be0079c531659141344cd1fd0a4f28419497f9722a3daafe3b4186f6b6457e0908290a3600160a060020a038116151561011d57604080517f08c379a000000000000000000000000000000000000000000000000000000000815260206004820152601960248201527f537570706c696564206964656e74697479206973206e756c6c00000000000000604482015290519081900360640190fd5b60018054600160a060020a0319908116600160a060020a0393841617909155600280549091168383161790819055161561020757600260009054906101000a9004600160a060020a0316600160a060020a0316638da5cb5b6040518163ffffffff167c010000000000000000000000000000000000000000000000000000000002815260040160206040518083038186803b1580156101bb57600080fd5b505afa1580156101cf573d6000803e3d6000fd5b505050506040513d60208110156101e557600080fd5b505160038054600160a060020a031916600160a060020a039092169190911790555b5080821015610261576040517f08c379a00000000000000000000000000000000000000000000000000000000081526004018080602001828103825260278152602001806111196027913960400191505060405180910390fd5b6004919091556005555050610e9e8061027b6000396000f3fe608060405234801561001057600080fd5b5060043610610112576000357c010000000000000000000000000000000000000000000000000000000090048063715018a6116100b4578063c429875211610083578063c42987521461020d578063c884ef8314610233578063f0cd594514610259578063f2fde38b1461027f57610112565b8063715018a6146101ed5780638da5cb5b146101f55780638f32d59b146101fd578063b88a802f1461020557610112565b80632c159a1a116100f05780632c159a1a14610175578063379f53e31461019957806354c5b696146101bf5780635d5bf178146101c757610112565b8063086cfca814610117578063223668441461013f578063228cb7331461015b575b600080fd5b61013d6004803603602081101561012d57600080fd5b5035600160a060020a03166102a5565b005b610147610395565b604080519115158252519081900360200190f35b6101636104aa565b60408051918252519081900360200190f35b61017d6104b0565b60408051600160a060020a039092168252519081900360200190f35b610163600480360360208110156101af57600080fd5b5035600160a060020a03166104bf565b6101636104d1565b61013d600480360360208110156101dd57600080fd5b5035600160a060020a03166104d7565b61013d6105f0565b61017d61065a565b610147610669565b61014761067a565b6101476004803603602081101561022357600080fd5b5035600160a060020a0316610895565b6101476004803603602081101561024957600080fd5b5035600160a060020a0316610aea565b61017d6004803603602081101561026f57600080fd5b5035600160a060020a0316610aff565b61013d6004803603602081101561029557600080fd5b5035600160a060020a0316610b1a565b6102ad610669565b15156102b857600080fd5b6002805473ffffffffffffffffffffffffffffffffffffffff1916600160a060020a038381169190911791829055604080517f8da5cb5b00000000000000000000000000000000000000000000000000000000815290519290911691638da5cb5b91600480820192602092909190829003018186803b15801561033a57600080fd5b505afa15801561034e573d6000803e3d6000fd5b505050506040513d602081101561036457600080fd5b50516003805473ffffffffffffffffffffffffffffffffffffffff1916600160a060020a0390921691909117905550565b600254600090600160a060020a031615156103fa576040805160e560020a62461bcd02815260206004820152601160248201527f417661746172206973206e6f7420736574000000000000000000000000000000604482015290519081900360640190fd5b600354600254604080517f9be2faed000000000000000000000000000000000000000000000000000000008152306004820152600160a060020a03928316602482015290519190921691639be2faed916044808301926020929190829003018186803b15801561046957600080fd5b505afa15801561047d573d6000803e3d6000fd5b505050506040513d602081101561049357600080fd5b505115156104a3575060006104a7565b5060015b90565b60055481565b600154600160a060020a031681565b60066020526000908152604090205481565b60045481565b6104df610669565b15156104ea57600080fd5b80600160a060020a031663223668446040518163ffffffff167c010000000000000000000000000000000000000000000000000000000002815260040160206040518083038186803b15801561053f57600080fd5b505afa158015610553573d6000803e3d6000fd5b505050506040513d602081101561056957600080fd5b505115156105c1576040805160e560020a62461bcd02815260206004820152601a60248201527f4964656e74697479206973206e6f742072656769737465726564000000000000604482015290519081900360640190fd5b6001805473ffffffffffffffffffffffffffffffffffffffff1916600160a060020a0392909216919091179055565b6105f8610669565b151561060357600080fd5b60008054604051600160a060020a03909116907f8be0079c531659141344cd1fd0a4f28419497f9722a3daafe3b4186f6b6457e0908390a36000805473ffffffffffffffffffffffffffffffffffffffff19169055565b600054600160a060020a031690565b600054600160a060020a0316331490565b6000610684610395565b15156106da576040805160e560020a62461bcd02815260206004820152601860248201527f536368656d65206973206e6f7420726567697374657265640000000000000000604482015290519081900360640190fd5b600154604080517f3af32abf000000000000000000000000000000000000000000000000000000008152336004820181905291519192600160a060020a031691633af32abf91602480820192602092909190829003018186803b15801561074057600080fd5b505afa158015610754573d6000803e3d6000fd5b505050506040513d602081101561076a57600080fd5b505115156107c2576040805160e560020a62461bcd02815260206004820152601260248201527f55736572206e6f7420696e2073797374656d0000000000000000000000000000604482015290519081900360640190fd5b3360009081526008602052604090205460ff161561082a576040805160e560020a62461bcd02815260206004820152601260248201527f43616e6e6f7420636c61696d2074776963650000000000000000000000000000604482015290519081900360640190fd5b336000818152600860205260409020805460ff1916600117905561084d90610b39565b33600090815260076020526040902054600160a060020a03161561088d573360009081526007602052604090205461088d90600160a060020a0316610b39565b600191505090565b600061089f610395565b15156108f5576040805160e560020a62461bcd02815260206004820152601860248201527f536368656d65206973206e6f7420726567697374657265640000000000000000604482015290519081900360640190fd5b600160a060020a0380831660009081526007602052604090205483911615610967576040805160e560020a62461bcd02815260206004820152601460248201527f5573657220616c726561647920696e7669746564000000000000000000000000604482015290519081900360640190fd5b600154604080517f3af32abf000000000000000000000000000000000000000000000000000000008152600160a060020a03848116600483015291519190921691633af32abf916024808301926020929190829003018186803b1580156109cd57600080fd5b505afa1580156109e1573d6000803e3d6000fd5b505050506040513d60208110156109f757600080fd5b505115610a4e576040805160e560020a62461bcd02815260206004820152601660248201527f5573657220616c726561647920696e2073797374656d00000000000000000000604482015290519081900360640190fd5b600160a060020a038316331415610aaf576040805160e560020a62461bcd02815260206004820152601260248201527f43616e6e6f7420696e766974652073656c660000000000000000000000000000604482015290519081900360640190fd5b5050600160a060020a03166000908152600760205260409020805473ffffffffffffffffffffffffffffffffffffffff191633179055600190565b60086020526000908152604090205460ff1681565b600760205260009081526040902054600160a060020a031681565b610b22610669565b1515610b2d57600080fd5b610b3681610dc7565b50565b600454600554600160a060020a038316600090815260066020526040902054610b679163ffffffff610e4416565b1115610c9a57600160a060020a038116600090815260066020526040812054600454610b989163ffffffff610e5d16565b60048054600160a060020a0380861660008181526006602090815260408083209590955560035460025486517f6407e432000000000000000000000000000000000000000000000000000000008152978801899052602488019490945292841660448701529351959650911693636407e4329360648082019493918390030190829087803b158015610c2957600080fd5b505af1158015610c3d573d6000803e3d6000fd5b505050506040513d6020811015610c5357600080fd5b5050604080518281529051600160a060020a038416917f4e69fdc49495bcab2b4375781457ba16653a90eb4ffb6588351bdc39071433e2919081900360200190a250610b36565b600554600160a060020a038216600090815260066020526040902054610cc59163ffffffff610e4416565b600160a060020a0380831660008181526006602090815260408083209590955560035460055460025487517f6407e43200000000000000000000000000000000000000000000000000000000815260048101929092526024820195909552938516604485015294519490931693636407e432936064808501949193918390030190829087803b158015610d5757600080fd5b505af1158015610d6b573d6000803e3d6000fd5b505050506040513d6020811015610d8157600080fd5b50506005546040805191825251600160a060020a038316917f4e69fdc49495bcab2b4375781457ba16653a90eb4ffb6588351bdc39071433e2919081900360200190a250565b600160a060020a0381161515610ddc57600080fd5b60008054604051600160a060020a03808516939216917f8be0079c531659141344cd1fd0a4f28419497f9722a3daafe3b4186f6b6457e091a36000805473ffffffffffffffffffffffffffffffffffffffff1916600160a060020a0392909216919091179055565b600082820183811015610e5657600080fd5b9392505050565b600082821115610e6c57600080fd5b5090039056fea165627a7a72305820f22ce4c6bfdbad3e68ec8e0d9289e068d7de104425bfe4eed1ee246861ccdb9f00295265776172642063616e6e6f742062652067726561746572207468616e206d617820626f6e7573",
  "source": "pragma solidity 0.5.4;\n\nimport \"@daostack/arc/contracts/controller/Avatar.sol\";\nimport \"@daostack/arc/contracts/controller/ControllerInterface.sol\";\n\nimport \"openzeppelin-solidity/contracts/math/SafeMath.sol\";\n\nimport \"../../identity/IdentityGuard.sol\";\nimport \"./SchemeGuard.sol\";\n\n/* @title Scheme for inviting non-whitelisted users and claiming rewards\n */\ncontract InviteUser is IdentityGuard, SchemeGuard {\n    using SafeMath for uint256;\n\n    uint256 public maxBonus;\n    uint256 public reward;\n\n    mapping(address => uint256) public rewarded;\n    mapping(address => address) public invited;\n    mapping(address => bool) public claimed;\n\n    event BonusClaimed(address indexed account, uint256 amount);\n    event UserSigned(address indexed newUser, address indexed referrer);\n\n    /* @dev Constructor. Sets the amount users are rewarded per invite and\n     * the max amount addresses can claim\n     * @param _avatar The avatar of the DAO\n     * @param _identity The identity contract of the DAO\n     * @param _maxBonus The max bonus addresses can be awarded\n     * @param _reward The reward users receive per invite\n     */\n    constructor(\n        Avatar _avatar,\n        Identity _identity,\n        uint256 _maxBonus,\n        uint256 _reward\n    )\n        public\n        IdentityGuard(_identity)\n        SchemeGuard(_avatar)\n    {\n        require(_maxBonus >= _reward, \"Reward cannot be greater than max bonus\");\n        maxBonus = _maxBonus;\n        reward = _reward;\n    }\n\n    /* @dev Modifier that requires user to not have been invited and is not whitelisted\n     * @param _user The address to check\n     */\n    modifier requireNotAdded(address _user) {\n        require(invited[_user] == address(0), \"User already invited\");\n        require(!(identity.isWhitelisted(_user)), \"User already in system\");\n        _;\n    }\n\n    /* @dev Modifier that requires user to be whitelisted\n     * @param _user The address to check\n     */\n    modifier requireAdded(address _user) {\n        require(identity.isWhitelisted(_user), \"User not in system\");\n        _;\n    }\n\n    /* @dev Function for inviting a given address. Can only be done if contract\n     * is registered and address has not received an invite yet\n     * @param _user The address to invite\n     * @return a bool indicating if the user was invited\n     */\n    function inviteUser(address _user)\n        public\n        onlyRegistered\n        requireNotAdded(_user)\n        returns (bool)\n    {\n        require(_user != msg.sender, \"Cannot invite self\");\n        invited[_user] = msg.sender;\n\n        return true;\n    }\n\n    /* @dev Function for claiming rewards from entering the system. Can only be called\n     * if contract is registered and if address has been added.\n     * @return a bool indicating if the caller has been rewarded\n     */\n    function claimReward()\n        public\n        onlyRegistered\n        requireAdded(msg.sender)\n        returns (bool)\n    {\n        require(!claimed[msg.sender], \"Cannot claim twice\");\n\n        claimed[msg.sender] = true;\n\n        awardUser(msg.sender);\n\n        if (invited[msg.sender] != address(0)) {\n            awardUser(invited[msg.sender]);\n        }\n\n        return true;\n    }\n\n    /* @dev Internal function for rewarding an address. Rewards the address the\n     * parameter set in the constructor. If the reward makes the address exceed\n     * the maximum reward amount, the address will instead be rewarded the\n     * difference between the max reward amount and their current rewarded amount\n     */\n    function awardUser(address _user) internal {\n        if (rewarded[_user].add(reward) > maxBonus) {\n            uint256 newReward = maxBonus.sub(rewarded[_user]);\n            rewarded[_user] = maxBonus;\n            controller.mintTokens(newReward, _user, address(avatar));\n            emit BonusClaimed(_user, newReward);\n        }\n        else {\n            rewarded[_user] = rewarded[_user].add(reward);\n            controller.mintTokens(reward, _user, address(avatar));\n\n            emit BonusClaimed(_user, reward);\n        }\n    }\n}",
  "sourcePath": "/Users/hadar/workspace/GoodDollar/GoodBootstrap/packages/contracts/contracts/dao/schemes/InviteUser.sol",
  "compiler": {
    "name": "solc",
    "version": "0.5.4+commit.9549d8ff.Emscripten.clang"
  },
  "schemaVersion": "3.0.16",
  "updatedAt": "2020-04-26T07:05:12.847Z",
  "devdoc": {
    "methods": {
      "isOwner()": {
        "return": "true if `msg.sender` is the owner of the contract."
      },
      "owner()": {
        "return": "the address of the owner."
      },
      "renounceOwnership()": {
        "details": "Allows the current owner to relinquish control of the contract."
      },
      "transferOwnership(address)": {
        "details": "Allows the current owner to transfer control of the contract to a newOwner.",
        "params": {
          "newOwner": "The address to transfer ownership to."
        }
      }
    }
  },
  "userdoc": {
    "methods": {
      "renounceOwnership()": {
        "notice": "Renouncing to ownership will leave the contract without an owner. It will not be possible to call the functions with the `onlyOwner` modifier anymore."
      }
    }
  }
}