{
  "contractName": "OneTimePayments",
  "abi": [
    {
      "inputs": [
        {
          "internalType": "contract Avatar",
          "name": "_avatar",
          "type": "address"
        },
        {
          "internalType": "contract Identity",
          "name": "_identity",
          "type": "address"
        }
      ],
      "payable": false,
      "stateMutability": "nonpayable",
      "type": "constructor"
    },
    {
      "anonymous": false,
      "inputs": [
        {
          "indexed": true,
          "internalType": "address",
          "name": "previousOwner",
          "type": "address"
        },
        {
          "indexed": true,
          "internalType": "address",
          "name": "newOwner",
          "type": "address"
        }
      ],
      "name": "OwnershipTransferred",
      "type": "event"
    },
    {
      "anonymous": false,
      "inputs": [
        {
          "indexed": true,
          "internalType": "address",
          "name": "from",
          "type": "address"
        },
        {
          "indexed": false,
          "internalType": "address",
          "name": "paymentId",
          "type": "address"
        },
        {
          "indexed": false,
          "internalType": "uint256",
          "name": "amount",
          "type": "uint256"
        }
      ],
      "name": "PaymentCancel",
      "type": "event"
    },
    {
      "anonymous": false,
      "inputs": [
        {
          "indexed": true,
          "internalType": "address",
          "name": "from",
          "type": "address"
        },
        {
          "indexed": false,
          "internalType": "address",
          "name": "paymentId",
          "type": "address"
        },
        {
          "indexed": false,
          "internalType": "uint256",
          "name": "amount",
          "type": "uint256"
        }
      ],
      "name": "PaymentDeposit",
      "type": "event"
    },
    {
      "anonymous": false,
      "inputs": [
        {
          "indexed": true,
          "internalType": "address",
          "name": "from",
          "type": "address"
        },
        {
          "indexed": true,
          "internalType": "address",
          "name": "to",
          "type": "address"
        },
        {
          "indexed": true,
          "internalType": "address",
          "name": "paymentId",
          "type": "address"
        },
        {
          "indexed": false,
          "internalType": "uint256",
          "name": "amount",
          "type": "uint256"
        }
      ],
      "name": "PaymentWithdraw",
      "type": "event"
    },
    {
      "constant": true,
      "inputs": [],
      "name": "identity",
      "outputs": [
        {
          "internalType": "contract Identity",
          "name": "",
          "type": "address"
        }
      ],
      "payable": false,
      "stateMutability": "view",
      "type": "function"
    },
    {
      "constant": true,
      "inputs": [],
      "name": "isOwner",
      "outputs": [
        {
          "internalType": "bool",
          "name": "",
          "type": "bool"
        }
      ],
      "payable": false,
      "stateMutability": "view",
      "type": "function"
    },
    {
      "constant": true,
      "inputs": [],
      "name": "isRegistered",
      "outputs": [
        {
          "internalType": "bool",
          "name": "",
          "type": "bool"
        }
      ],
      "payable": false,
      "stateMutability": "view",
      "type": "function"
    },
    {
      "constant": true,
      "inputs": [
        {
          "internalType": "address",
          "name": "scheme",
          "type": "address"
        }
      ],
      "name": "isRegistered",
      "outputs": [
        {
          "internalType": "bool",
          "name": "",
          "type": "bool"
        }
      ],
      "payable": false,
      "stateMutability": "view",
      "type": "function"
    },
    {
      "constant": true,
      "inputs": [],
      "name": "owner",
      "outputs": [
        {
          "internalType": "address",
          "name": "",
          "type": "address"
        }
      ],
      "payable": false,
      "stateMutability": "view",
      "type": "function"
    },
    {
      "constant": true,
      "inputs": [
        {
          "internalType": "address",
          "name": "",
          "type": "address"
        }
      ],
      "name": "payments",
      "outputs": [
        {
          "internalType": "bool",
          "name": "hasPayment",
          "type": "bool"
        },
        {
          "internalType": "uint256",
          "name": "paymentAmount",
          "type": "uint256"
        },
        {
          "internalType": "address",
          "name": "paymentSender",
          "type": "address"
        }
      ],
      "payable": false,
      "stateMutability": "view",
      "type": "function"
    },
    {
      "constant": false,
      "inputs": [],
      "name": "renounceOwnership",
      "outputs": [],
      "payable": false,
      "stateMutability": "nonpayable",
      "type": "function"
    },
    {
      "constant": false,
      "inputs": [
        {
          "internalType": "contract Avatar",
          "name": "_avatar",
          "type": "address"
        }
      ],
      "name": "setAvatar",
      "outputs": [],
      "payable": false,
      "stateMutability": "nonpayable",
      "type": "function"
    },
    {
      "constant": false,
      "inputs": [
        {
          "internalType": "contract Identity",
          "name": "_identity",
          "type": "address"
        }
      ],
      "name": "setIdentity",
      "outputs": [],
      "payable": false,
      "stateMutability": "nonpayable",
      "type": "function"
    },
    {
      "constant": false,
      "inputs": [
        {
          "internalType": "address",
          "name": "newOwner",
          "type": "address"
        }
      ],
      "name": "transferOwnership",
      "outputs": [],
      "payable": false,
      "stateMutability": "nonpayable",
      "type": "function"
    },
    {
      "constant": false,
      "inputs": [],
      "name": "start",
      "outputs": [],
      "payable": false,
      "stateMutability": "nonpayable",
      "type": "function"
    },
    {
      "constant": false,
      "inputs": [
        {
          "internalType": "address",
          "name": "sender",
          "type": "address"
        },
        {
          "internalType": "uint256",
          "name": "value",
          "type": "uint256"
        },
        {
          "internalType": "bytes",
          "name": "data",
          "type": "bytes"
        }
      ],
      "name": "onTokenTransfer",
      "outputs": [
        {
          "internalType": "bool",
          "name": "",
          "type": "bool"
        }
      ],
      "payable": false,
      "stateMutability": "nonpayable",
      "type": "function"
    },
    {
      "constant": false,
      "inputs": [
        {
          "internalType": "address",
          "name": "paymentId",
          "type": "address"
        },
        {
          "internalType": "bytes",
          "name": "signature",
          "type": "bytes"
        }
      ],
      "name": "withdraw",
      "outputs": [],
      "payable": false,
      "stateMutability": "nonpayable",
      "type": "function"
    },
    {
      "constant": false,
      "inputs": [
        {
          "internalType": "address",
          "name": "paymentId",
          "type": "address"
        }
      ],
      "name": "cancel",
      "outputs": [],
      "payable": false,
      "stateMutability": "nonpayable",
      "type": "function"
    },
    {
      "constant": true,
      "inputs": [
        {
          "internalType": "address",
          "name": "paymentId",
          "type": "address"
        }
      ],
      "name": "hasPayment",
      "outputs": [
        {
          "internalType": "bool",
          "name": "",
          "type": "bool"
        }
      ],
      "payable": false,
      "stateMutability": "view",
      "type": "function"
    }
  ],
  "bytecode": "0x6080604052600280546001600160a01b031916905534801561002057600080fd5b5060405161146d38038061146d8339818101604052604081101561004357600080fd5b508051602090910151600080546001600160a01b031916331780825560405183928592849284926001600160a01b039290921691907f8be0079c531659141344cd1fd0a4f28419497f9722a3daafe3b4186f6b6457e0908290a3600180546001600160a01b0319166001600160a01b038381169190911791829055161561015e57600160009054906101000a90046001600160a01b03166001600160a01b0316638da5cb5b6040518163ffffffff1660e01b815260040160206040518083038186803b15801561011257600080fd5b505afa158015610126573d6000803e3d6000fd5b505050506040513d602081101561013c57600080fd5b5051600280546001600160a01b0319166001600160a01b039092169190911790555b506001600160a01b0381166101ba576040805162461bcd60e51b815260206004820152601960248201527f537570706c696564206964656e74697479206973206e756c6c00000000000000604482015290519081900360640190fd5b600380546001600160a01b039092166001600160a01b03199092169190911790555050505061127f806101ee6000396000f3fe608060405234801561001057600080fd5b50600436106100f55760003560e01c80638da5cb5b11610097578063be9a655511610066578063be9a655514610327578063c3c5a5471461032f578063e2982c2114610355578063f2fde38b146103a4576100f5565b80638da5cb5b1461026c5780638f32d59b146102745780639ea781161461027c578063a4c0ed36146102a2576100f5565b80634bb78b14116100d35780634bb78b14146101625780634c33fe94146102185780635d5bf1781461023e578063715018a614610264576100f5565b8063086cfca8146100fa57806322366844146101225780632c159a1a1461013e575b600080fd5b6101206004803603602081101561011057600080fd5b50356001600160a01b03166103ca565b005b61012a610485565b604080519115158252519081900360200190f35b610146610495565b604080516001600160a01b039092168252519081900360200190f35b6101206004803603604081101561017857600080fd5b6001600160a01b0382351691908101906040810160208201356401000000008111156101a357600080fd5b8201836020820111156101b557600080fd5b803590602001918460018302840111640100000000831117156101d757600080fd5b91908080601f0160208091040260200160405190810160405280939291908181526020018383808284376000920191909152509295506104a4945050505050565b6101206004803603602081101561022e57600080fd5b50356001600160a01b03166105e9565b6101206004803603602081101561025457600080fd5b50356001600160a01b03166106c7565b6101206107b0565b61014661080b565b61012a61081a565b61012a6004803603602081101561029257600080fd5b50356001600160a01b031661082b565b61012a600480360360608110156102b857600080fd5b6001600160a01b03823516916020810135918101906060810160408201356401000000008111156102e857600080fd5b8201836020820111156102fa57600080fd5b8035906020019184600183028401116401000000008311171561031c57600080fd5b50909250905061084d565b610120610aa3565b61012a6004803603602081101561034557600080fd5b50356001600160a01b0316610b01565b61037b6004803603602081101561036b57600080fd5b50356001600160a01b0316610bed565b60408051931515845260208401929092526001600160a01b031682820152519081900360600190f35b610120600480360360208110156103ba57600080fd5b50356001600160a01b0316610c1b565b6103d261081a565b6103db57600080fd5b600180546001600160a01b0319166001600160a01b03838116919091179182905560408051638da5cb5b60e01b815290519290911691638da5cb5b91600480820192602092909190829003018186803b15801561043757600080fd5b505afa15801561044b573d6000803e3d6000fd5b505050506040513d602081101561046157600080fd5b5051600280546001600160a01b0319166001600160a01b0390921691909117905550565b600061049030610b01565b905090565b6003546001600160a01b031681565b6104ac610485565b6104f8576040805162461bcd60e51b815260206004820152601860248201527714d8da195b59481a5cc81b9bdd081c9959da5cdd195c995960421b604482015290519081900360640190fd5b60006105043383610c38565b9050826001600160a01b0316816001600160a01b03161461056c576040805162461bcd60e51b815260206004820152601860248201527f5369676e6174757265206973206e6f7420636f72726563740000000000000000604482015290519081900360640190fd5b6001600160a01b038084166000908152600460205260409020600181015460029091015490911661059d8583610c98565b6040805183815290516001600160a01b03808816923392918516917f39ca68a9f5d8038e871ef25a6622a56579cda4a6eedf63813574d23652e940489181900360200190a45050505050565b6001600160a01b0381811660009081526004602052604090206002015416331461065a576040805162461bcd60e51b815260206004820152601d60248201527f43616e206f6e6c792062652063616c6c65642062792063726561746f72000000604482015290519081900360640190fd5b6001600160a01b0381166000908152600460205260409020600101546106808282610c98565b604080516001600160a01b038416815260208101839052815133927fb1f6a8f6b8fb527cfeec0df589160bc2a92ff715097117cb250e823c7106bc2f928290030190a25050565b6106cf61081a565b6106d857600080fd5b806001600160a01b031663223668446040518163ffffffff1660e01b815260040160206040518083038186803b15801561071157600080fd5b505afa158015610725573d6000803e3d6000fd5b505050506040513d602081101561073b57600080fd5b505161078e576040805162461bcd60e51b815260206004820152601a60248201527f4964656e74697479206973206e6f742072656769737465726564000000000000604482015290519081900360640190fd5b600380546001600160a01b0319166001600160a01b0392909216919091179055565b6107b861081a565b6107c157600080fd5b600080546040516001600160a01b03909116907f8be0079c531659141344cd1fd0a4f28419497f9722a3daafe3b4186f6b6457e0908390a3600080546001600160a01b0319169055565b6000546001600160a01b031690565b6000546001600160a01b0316331490565b6001600160a01b03811660009081526004602052604090205460ff165b919050565b6000610857610485565b6108a3576040805162461bcd60e51b815260206004820152601860248201527714d8da195b59481a5cc81b9bdd081c9959da5cdd195c995960421b604482015290519081900360640190fd5b6000838360208110156108b557600080fd5b50356001600160a01b031660008181526004602052604090205490915060ff1615610927576040805162461bcd60e51b815260206004820152601860248201527f7061796d656e74496420616c726561647920696e207573650000000000000000604482015290519081900360640190fd5b600160009054906101000a90046001600160a01b03166001600160a01b031663e1758bd86040518163ffffffff1660e01b815260040160206040518083038186803b15801561097557600080fd5b505afa158015610989573d6000803e3d6000fd5b505050506040513d602081101561099f57600080fd5b50516001600160a01b031633146109f5576040805162461bcd60e51b81526020600482015260156024820152744f6e6c792063616c6c61626c65206279207468697360581b604482015290519081900360640190fd5b60408051606081018252600180825260208083018981526001600160a01b038b81168587018181528883166000818152600487528990209751885460ff19169015151788559351958701959095559351600290950180546001600160a01b031916959091169490941790935583519283528201889052825190927f6c9f23ee41b34196a6e871314d55c3a0cce3399afc5d09755d171ea06547e073928290030190a250600195945050505050565b610aab610485565b610af7576040805162461bcd60e51b815260206004820152601860248201527714d8da195b59481a5cc81b9bdd081c9959da5cdd195c995960421b604482015290519081900360640190fd5b610aff610e52565b565b6001546000906001600160a01b0316610b55576040805162461bcd60e51b8152602060048201526011602482015270105d985d185c881a5cc81b9bdd081cd95d607a1b604482015290519081900360640190fd5b60025460015460408051639be2faed60e01b81526001600160a01b038681166004830152928316602482015290519190921691639be2faed916044808301926020929190829003018186803b158015610bad57600080fd5b505afa158015610bc1573d6000803e3d6000fd5b505050506040513d6020811015610bd757600080fd5b5051610be557506000610848565b506001919050565b60046020526000908152604090208054600182015460029092015460ff90911691906001600160a01b031683565b610c2361081a565b610c2c57600080fd5b610c35816110ba565b50565b600080610c7f8460405160200180826001600160a01b03166001600160a01b031660601b815260140191505060405160208183030381529060405280519060200120611128565b90506000610c8d8285611179565b925050505b92915050565b6001600160a01b03821660009081526004602052604090205460ff16610cfc576040805162461bcd60e51b81526020600482015260146024820152737061796d656e744964206e6f7420696e2075736560601b604482015290519081900360640190fd5b6001600160a01b03808316600090815260046020818152604092839020805460ff191690556001548351631c2eb17b60e31b8152935194169363e1758bd8938084019390829003018186803b158015610d5457600080fd5b505afa158015610d68573d6000803e3d6000fd5b505050506040513d6020811015610d7e57600080fd5b50516040805163a9059cbb60e01b81523360048201526024810184905290516001600160a01b039092169163a9059cbb916044808201926020929091908290030181600087803b158015610dd157600080fd5b505af1158015610de5573d6000803e3d6000fd5b505050506040513d6020811015610dfb57600080fd5b5051610e4e576040805162461bcd60e51b815260206004820152601860248201527f7769746864726177207472616e73666572206661696c65640000000000000000604482015290519081900360640190fd5b5050565b610e5a610485565b610ea6576040805162461bcd60e51b815260206004820152601860248201527714d8da195b59481a5cc81b9bdd081c9959da5cdd195c995960421b604482015290519081900360640190fd5b6002546003546040805130602480830191909152825180830382018152604492830184526020810180516001600160e01b0316635f539d6960e01b17815260015494516368db844d60e11b81526001600160a01b03968716600482018181529688169582018690526000606483018190526080958301958652845160848401528451989099169863d1b7089a989197949695909493909260a40191808383885b83811015610f5e578181015183820152602001610f46565b50505050905090810190601f168015610f8b5780820380516001836020036101000a031916815260200191505b5095505050505050600060405180830381600087803b158015610fad57600080fd5b505af1158015610fc1573d6000803e3d6000fd5b505050506040513d6000823e601f3d908101601f191682016040908152811015610fea57600080fd5b81516020830180516040519294929383019291908464010000000082111561101157600080fd5b90830190602082018581111561102657600080fd5b825164010000000081118282018810171561104057600080fd5b82525081516020918201929091019080838360005b8381101561106d578181015183820152602001611055565b50505050905090810190601f16801561109a5780820380516001836020036101000a031916815260200191505b506040525050600154610aff93506001600160a01b03169150610c1b9050565b6001600160a01b0381166110cd57600080fd5b600080546040516001600160a01b03808516939216917f8be0079c531659141344cd1fd0a4f28419497f9722a3daafe3b4186f6b6457e091a3600080546001600160a01b0319166001600160a01b0392909216919091179055565b604080517f19457468657265756d205369676e6564204d6573736167653a0a333200000000602080830191909152603c8083019490945282518083039094018452605c909101909152815191012090565b60008060008084516041146111945760009350505050610c92565b50505060208201516040830151606084015160001a601b8110156111b657601b015b8060ff16601b141580156111ce57508060ff16601c14155b156111df5760009350505050610c92565b6040805160008152602080820180845289905260ff8416828401526060820186905260808201859052915160019260a0808401939192601f1981019281900390910190855afa158015611236573d6000803e3d6000fd5b505050602060405103519350505050610c9256fea265627a7a723158201fcd54957491a6f32f8365fd3ebc2f11ca897b93a1f0ae08dadeaf2fb1e5100864736f6c63430005100032",
  "source": "pragma solidity >0.5.4;\n\nimport \"@daostack/arc/contracts/controller/Avatar.sol\";\nimport \"openzeppelin-solidity/contracts/math/SafeMath.sol\";\nimport \"openzeppelin-solidity/contracts/cryptography/ECDSA.sol\";\n\nimport \"./FeelessScheme.sol\";\n\n/* @title One Time payment scheme\n * Scheme that allows address to deposit tokens for any address to withdraw\n */\ncontract OneTimePayments is FeelessScheme {\n    using SafeMath for uint256;\n\n    struct Payment {\n        bool hasPayment;\n        uint256 paymentAmount;\n        address paymentSender;\n    }\n\n    mapping(address => Payment) public payments;\n\n    event PaymentDeposit(address indexed from, address paymentId, uint256 amount);\n    event PaymentCancel(address indexed from, address paymentId, uint256 amount);\n    event PaymentWithdraw(\n        address indexed from,\n        address indexed to,\n        address indexed paymentId,\n        uint256 amount\n    );\n\n    /* @dev Constructor\n     * @param _avatar The avatar of the DAO\n     * @param _identity The identity contract\n     * @param _gasLimit The gas limit\n     */\n    constructor(Avatar _avatar, Identity _identity)\n        public\n        FeelessScheme(_identity, _avatar)\n    {}\n\n    /* @dev Start function. Adds this contract to identity as a feeless scheme.\n     * Can only be called if scheme is registered\n     */\n    function start() public onlyRegistered {\n        addRights();\n    }\n\n    /* @dev ERC677 on token transfer function. When transferAndCall is called on this contract,\n     * this function is called, depositing the payment amount under the hash of the given bytes.\n     * Reverts if hash is already in use. Can only be called by token contract.\n     * @param sender the address of the sender\n     * @param value the amount to deposit\n     * @param data The given paymentId which should be a fresh address of a wallet\n     */\n    function onTokenTransfer(\n        address sender,\n        uint256 value,\n        bytes calldata data\n    ) external onlyRegistered returns (bool) {\n        address paymentId = abi.decode(data, (address));\n\n        require(!payments[paymentId].hasPayment, \"paymentId already in use\");\n        require(msg.sender == address(avatar.nativeToken()), \"Only callable by this\");\n\n        payments[paymentId] = Payment(true, value, sender);\n\n        emit PaymentDeposit(sender, paymentId, value);\n\n        return true;\n    }\n\n    /* @dev Withdrawal function.\n     * allows the sender that proves ownership of paymentId to withdraw\n     * @param paymentId the address of the public key that the\n     *   rightful receiver of the payment knows the private key to\n     * @param signature the signature of a the message containing the msg.sender address signed\n     *   with the private key.\n     */\n    function withdraw(address paymentId, bytes memory signature) public onlyRegistered {\n        address signer = signerOfAddress(msg.sender, signature);\n        require(signer == paymentId, \"Signature is not correct\");\n\n        uint256 value = payments[paymentId].paymentAmount;\n        address sender = payments[paymentId].paymentSender;\n\n        _withdraw(paymentId, value);\n        emit PaymentWithdraw(sender, msg.sender, paymentId, value);\n    }\n\n    /* @dev Cancel function\n     * allows only creator of payment to cancel\n     * @param paymentId The paymentId of the payment to cancel\n     */\n    function cancel(address paymentId) public {\n        require(\n            payments[paymentId].paymentSender == msg.sender,\n            \"Can only be called by creator\"\n        );\n\n        uint256 value = payments[paymentId].paymentAmount;\n\n        _withdraw(paymentId, value);\n        emit PaymentCancel(msg.sender, paymentId, value);\n    }\n\n    /* @dev Internal withdraw function\n     * @param paymentId the paymentId of the payment\n     * @param value the amopunt in the payment\n     */\n    function _withdraw(address paymentId, uint256 value) internal {\n        require(payments[paymentId].hasPayment, \"paymentId not in use\");\n\n        payments[paymentId].hasPayment = false;\n\n        require(\n            avatar.nativeToken().transfer(msg.sender, value),\n            \"withdraw transfer failed\"\n        );\n    }\n\n    /* @dev function to check if a payment hash is in use\n     * @param paymentId the given paymentId\n     */\n    function hasPayment(address paymentId) public view returns (bool) {\n        return payments[paymentId].hasPayment;\n    }\n\n    /* @dev gives the signer address of the signature and the message\n     * @param message the plain-text message that is signed by the signature\n     * @param signature the signature of the plain-text message\n     */\n    function signerOfAddress(address message, bytes memory signature)\n        internal\n        pure\n        returns (address)\n    {\n        bytes32 signedMessage = ECDSA.toEthSignedMessageHash(\n            keccak256(abi.encodePacked(message))\n        );\n        address signer = ECDSA.recover(signedMessage, signature);\n        return signer;\n    }\n}\n",
  "sourcePath": "/Users/hadar/workspace/GoodDollar/GoodBootstrap/packages/contracts/contracts/dao/schemes/OneTimePayments.sol",
  "compiler": {
    "name": "solc",
    "version": "0.5.16+commit.9c3226ce.Emscripten.clang"
  },
  "schemaVersion": "3.2.3",
  "updatedAt": "2021-01-27T19:48:00.150Z",
  "networkType": "ethereum",
  "devdoc": {
    "methods": {
      "isOwner()": {
        "return": "true if `msg.sender` is the owner of the contract."
      },
      "isRegistered()": {
        "details": "function to see if an avatar has been set and if this scheme is registered",
        "return": "true if scheme is registered"
      },
      "isRegistered(address)": {
        "details": "function to see if an avatar has been set and if this scheme is registered",
        "return": "true if scheme is registered"
      },
      "owner()": {
        "return": "the address of the owner."
      },
      "renounceOwnership()": {
        "details": "Allows the current owner to relinquish control of the contract."
      },
      "setAvatar(address)": {
        "details": "Function to set a new avatar and controller for scheme can only be done by owner of scheme"
      },
      "transferOwnership(address)": {
        "details": "Allows the current owner to transfer control of the contract to a newOwner.",
        "params": {
          "newOwner": "The address to transfer ownership to."
        }
      }
    }
  },
  "userdoc": {
    "methods": {
      "renounceOwnership()": {
        "notice": "Renouncing to ownership will leave the contract without an owner. It will not be possible to call the functions with the `onlyOwner` modifier anymore."
      }
    }
  }
}