{
  "contractName": "OneTimePaymentLinks",
  "abi": [
    {
      "constant": true,
      "inputs": [
        {
          "name": "",
          "type": "bytes32"
        }
      ],
      "name": "payments",
      "outputs": [
        {
          "name": "",
          "type": "uint256"
        }
      ],
      "payable": false,
      "stateMutability": "view",
      "type": "function"
    },
    {
      "constant": true,
      "inputs": [
        {
          "name": "",
          "type": "address"
        }
      ],
      "name": "erc677Deposits",
      "outputs": [
        {
          "name": "",
          "type": "uint256"
        }
      ],
      "payable": false,
      "stateMutability": "view",
      "type": "function"
    },
    {
      "constant": false,
      "inputs": [],
      "name": "renounceOwnership",
      "outputs": [],
      "payable": false,
      "stateMutability": "nonpayable",
      "type": "function"
    },
    {
      "constant": true,
      "inputs": [
        {
          "name": "",
          "type": "bytes32"
        }
      ],
      "name": "senders",
      "outputs": [
        {
          "name": "",
          "type": "address"
        }
      ],
      "payable": false,
      "stateMutability": "view",
      "type": "function"
    },
    {
      "constant": true,
      "inputs": [],
      "name": "owner",
      "outputs": [
        {
          "name": "",
          "type": "address"
        }
      ],
      "payable": false,
      "stateMutability": "view",
      "type": "function"
    },
    {
      "constant": true,
      "inputs": [],
      "name": "isOwner",
      "outputs": [
        {
          "name": "",
          "type": "bool"
        }
      ],
      "payable": false,
      "stateMutability": "view",
      "type": "function"
    },
    {
      "constant": true,
      "inputs": [
        {
          "name": "",
          "type": "bytes32"
        }
      ],
      "name": "hashes",
      "outputs": [
        {
          "name": "",
          "type": "bool"
        }
      ],
      "payable": false,
      "stateMutability": "view",
      "type": "function"
    },
    {
      "constant": false,
      "inputs": [
        {
          "name": "newOwner",
          "type": "address"
        }
      ],
      "name": "transferOwnership",
      "outputs": [],
      "payable": false,
      "stateMutability": "nonpayable",
      "type": "function"
    },
    {
      "inputs": [
        {
          "name": "_token",
          "type": "address"
        }
      ],
      "payable": false,
      "stateMutability": "nonpayable",
      "type": "constructor"
    },
    {
      "anonymous": false,
      "inputs": [
        {
          "indexed": true,
          "name": "from",
          "type": "address"
        },
        {
          "indexed": false,
          "name": "hash",
          "type": "bytes32"
        },
        {
          "indexed": false,
          "name": "amount",
          "type": "uint256"
        }
      ],
      "name": "PaymentDeposit",
      "type": "event"
    },
    {
      "anonymous": false,
      "inputs": [
        {
          "indexed": true,
          "name": "from",
          "type": "address"
        },
        {
          "indexed": false,
          "name": "hash",
          "type": "bytes32"
        },
        {
          "indexed": false,
          "name": "amount",
          "type": "uint256"
        }
      ],
      "name": "PaymentCancel",
      "type": "event"
    },
    {
      "anonymous": false,
      "inputs": [
        {
          "indexed": true,
          "name": "from",
          "type": "address"
        },
        {
          "indexed": true,
          "name": "to",
          "type": "address"
        },
        {
          "indexed": true,
          "name": "hash",
          "type": "bytes32"
        },
        {
          "indexed": false,
          "name": "amount",
          "type": "uint256"
        }
      ],
      "name": "PaymentWithdraw",
      "type": "event"
    },
    {
      "anonymous": false,
      "inputs": [
        {
          "indexed": true,
          "name": "previousOwner",
          "type": "address"
        },
        {
          "indexed": true,
          "name": "newOwner",
          "type": "address"
        }
      ],
      "name": "OwnershipTransferred",
      "type": "event"
    },
    {
      "constant": false,
      "inputs": [
        {
          "name": "_from",
          "type": "address"
        },
        {
          "name": "_value",
          "type": "uint256"
        },
        {
          "name": "_data",
          "type": "bytes"
        }
      ],
      "name": "onTokenTransfer",
      "outputs": [
        {
          "name": "",
          "type": "bool"
        }
      ],
      "payable": false,
      "stateMutability": "nonpayable",
      "type": "function"
    },
    {
      "constant": false,
      "inputs": [
        {
          "name": "_from",
          "type": "address"
        },
        {
          "name": "_hash",
          "type": "bytes32"
        },
        {
          "name": "_amount",
          "type": "uint256"
        }
      ],
      "name": "deposit",
      "outputs": [],
      "payable": false,
      "stateMutability": "nonpayable",
      "type": "function"
    },
    {
      "constant": false,
      "inputs": [
        {
          "name": "_code",
          "type": "string"
        }
      ],
      "name": "withdraw",
      "outputs": [],
      "payable": false,
      "stateMutability": "nonpayable",
      "type": "function"
    },
    {
      "constant": false,
      "inputs": [
        {
          "name": "_hash",
          "type": "bytes32"
        }
      ],
      "name": "cancel",
      "outputs": [],
      "payable": false,
      "stateMutability": "nonpayable",
      "type": "function"
    },
    {
      "constant": true,
      "inputs": [
        {
          "name": "hash",
          "type": "bytes32"
        }
      ],
      "name": "isLinkUsed",
      "outputs": [
        {
          "name": "",
          "type": "bool"
        }
      ],
      "payable": false,
      "stateMutability": "view",
      "type": "function"
    }
  ],
  "bytecode": "0x608060405234801561001057600080fd5b50604051602080610ce98339810180604052602081101561003057600080fd5b505160008054600160a060020a0319163317808255604051600160a060020a039190911691907f8be0079c531659141344cd1fd0a4f28419497f9722a3daafe3b4186f6b6457e0908290a360058054600160a060020a031916600160a060020a0392909216919091179055610c3f806100aa6000396000f3fe608060405234801561001057600080fd5b50600436106100ec576000357c0100000000000000000000000000000000000000000000000000000000900480638f32d59b116100a9578063d658d2e911610083578063d658d2e9146102f5578063eb2243f814610312578063f2fde38b14610344578063f8d296661461036a576100ec565b80638f32d59b14610237578063a4c0ed3614610253578063c4d252f5146102d8576100ec565b80630716326d146100f157806328bdf0541461012057806331fb67c214610146578063715018a6146101ee57806386556a64146101f65780638da5cb5b1461022f575b600080fd5b61010e6004803603602081101561010757600080fd5b5035610387565b60408051918252519081900360200190f35b61010e6004803603602081101561013657600080fd5b5035600160a060020a0316610399565b6101ec6004803603602081101561015c57600080fd5b81019060208101813564010000000081111561017757600080fd5b82018360208201111561018957600080fd5b803590602001918460018302840111640100000000831117156101ab57600080fd5b91908080601f0160208091040260200160405190810160405280939291908181526020018383808284376000920191909152509295506103ab945050505050565b005b6101ec61057e565b6102136004803603602081101561020c57600080fd5b50356105e8565b60408051600160a060020a039092168252519081900360200190f35b610213610603565b61023f610612565b604080519115158252519081900360200190f35b61023f6004803603606081101561026957600080fd5b600160a060020a038235169160208101359181019060608101604082013564010000000081111561029957600080fd5b8201836020820111156102ab57600080fd5b803590602001918460018302840111640100000000831117156102cd57600080fd5b509092509050610623565b6101ec600480360360208110156102ee57600080fd5b50356106bf565b61023f6004803603602081101561030b57600080fd5b5035610873565b6101ec6004803603606081101561032857600080fd5b50600160a060020a038135169060208101359060400135610888565b6101ec6004803603602081101561035a57600080fd5b5035600160a060020a0316610a8e565b61023f6004803603602081101561038057600080fd5b5035610aad565b60016020526000908152604090205481565b60046020526000908152604090205481565b6000816040516020018082805190602001908083835b602083106103e05780518252601f1990920191602091820191016103c1565b6001836020036101000a038019825116818451168082178552505050505050905001915050604051602081830303815290604052805190602001209050600060016000838152602001908152602001600020541115156104745760405160e560020a62461bcd02815260040180806020018281038252602b815260200180610bc8602b913960400191505060405180910390fd5b60008181526001602090815260408083205460055482517fa9059cbb0000000000000000000000000000000000000000000000000000000081523360048201526024810183905292519194600160a060020a039091169363a9059cbb936044808201949293918390030190829087803b1580156104f057600080fd5b505af1158015610504573d6000803e3d6000fd5b505050506040513d602081101561051a57600080fd5b505060008281526001602090815260408083208390556003825291829020548251848152925185933393600160a060020a03909316927f7916ac3cfcbebd3d4758001d4cb35090e6133052fbb4b2723795eec73d935d9e92918290030190a4505050565b610586610612565b151561059157600080fd5b60008054604051600160a060020a03909116907f8be0079c531659141344cd1fd0a4f28419497f9722a3daafe3b4186f6b6457e0908390a36000805473ffffffffffffffffffffffffffffffffffffffff19169055565b600360205260009081526040902054600160a060020a031681565b600054600160a060020a031690565b600054600160a060020a0316331490565b600554600090600160a060020a0316331461063d57600080fd5b600160a060020a03851660009081526004602052604080822086905551309085908590808383808284376040519201945060009350909150508083038183865af19150503d80600081146106ad576040519150601f19603f3d011682016040523d82523d6000602084013e6106b2565b606091505b5090979650505050505050565b600081815260036020526040902054600160a060020a031633146107175760405160e560020a62461bcd028152600401808060200182810382526021815260200180610bf36021913960400191505060405180910390fd5b6000818152600160205260408120541161077b576040805160e560020a62461bcd02815260206004820152601960248201527f7061796d656e742077697468647261776e20616c726561647900000000000000604482015290519081900360640190fd5b60008181526001602090815260408083205460055482517fa9059cbb0000000000000000000000000000000000000000000000000000000081523360048201526024810183905292519194600160a060020a039091169363a9059cbb936044808201949293918390030190829087803b1580156107f757600080fd5b505af115801561080b573d6000803e3d6000fd5b505050506040513d602081101561082157600080fd5b50506000828152600160209081526040808320929092558151848152908101839052815133927f1039f839fdf70628f6c6f59f7e83e73ca366995c075078d2e568e6aafec1603d928290030190a25050565b60026020526000908152604090205460ff1681565b60008281526002602052604090205460ff16156108ef576040805160e560020a62461bcd02815260206004820152601160248201527f6861736820616c72656164792075736564000000000000000000000000000000604482015290519081900360640190fd5b60008111610947576040805160e560020a62461bcd02815260206004820152601160248201527f616d6f756e742063616e27742062652030000000000000000000000000000000604482015290519081900360640190fd5b6109518382610ac2565b15156109f957600554604080517f23b872dd000000000000000000000000000000000000000000000000000000008152600160a060020a03868116600483015230602483015260448201859052915191909216916323b872dd9160648083019260209291908290030181600087803b1580156109cc57600080fd5b505af11580156109e0573d6000803e3d6000fd5b505050506040513d60208110156109f657600080fd5b50505b600082815260016020818152604080842085905560028252808420805460ff19169093179092556003815291819020805473ffffffffffffffffffffffffffffffffffffffff1916600160a060020a0387169081179091558151858152928301849052815190927fd1da8c349433a2063f51681b47160eb0509c0a6eb40f6446dbbc05b232737d2392908290030190a2505050565b610a96610612565b1515610aa157600080fd5b610aaa81610b35565b50565b60009081526002602052604090205460ff1690565b600160a060020a0382166000908152600460205260408120548211610b2b57600160a060020a038316600090815260046020526040902054610b0a908363ffffffff610bb216565b600160a060020a038416600090815260046020526040902055506001610b2f565b5060005b92915050565b600160a060020a0381161515610b4a57600080fd5b60008054604051600160a060020a03808516939216917f8be0079c531659141344cd1fd0a4f28419497f9722a3daafe3b4186f6b6457e091a36000805473ffffffffffffffffffffffffffffffffffffffff1916600160a060020a0392909216919091179055565b600082821115610bc157600080fd5b5090039056fe7061796d656e742077697468647261776e20616c7265616479206f7220636f646520696e636f7272656374796f7520617265206e6f7420746865206f776e6572206f6620746865206c696e6ba165627a7a72305820d2a86d401349c6697d11e5ea59919a6920feefd9dc13f4fad6c1adf9348cfb600029",
  "source": "pragma solidity ^0.5.0;\n\nimport \"openzeppelin-solidity/contracts/ownership/Ownable.sol\";\nimport \"openzeppelin-solidity/contracts/token/ERC20/ERC20.sol\";\nimport \"./token/ERC677Receiver.sol\";\n\ncontract OneTimePaymentLinks is Ownable {\n\n    using SafeMath for uint256;\n\n    event PaymentDeposit(address indexed from, bytes32 hash, uint amount);\n    event PaymentCancel(address indexed from, bytes32 hash, uint amount);\n    event PaymentWithdraw(address indexed from, address indexed to, bytes32 indexed hash, uint amount);\n\n    mapping(bytes32 => uint) public payments;   \n    mapping(bytes32 => bool) public hashes;\n    mapping(bytes32 => address) public senders;\n    mapping(address => uint) public erc677Deposits;\n    ERC20 private token;\n\n    constructor(address _token) public {\n        token = ERC20(_token);\n    }\n\n    function onTokenTransfer(address _from, uint256 _value, bytes calldata _data) external returns(bool) {\n        //make sure its not called by outsiders\n        require(msg.sender == address(token));\n        erc677Deposits[_from] = _value;\n        (bool res,) = address(this).call(_data);\n        // (bool res,) = address(this).call(msg.value)(_data);\n        return res;        \n    }\n    /**\n    helper function to allow deposits via erc677 transfer and call\n     */\n    function transferFromDeposit(address _from, uint256 _value) internal returns (bool) {\n        if(erc677Deposits[_from]>=_value)\n        {\n            erc677Deposits[_from] = erc677Deposits[_from].sub(_value);\n            return true;\n        }\n        return false;\n    }\n  /**\n  Deposit funds into a one time link\n  @param _from the address of the depositor (used to be compatible with approveandcall)\n  @param _hash to unique one time link code hashed (sha3)\n  @param _amount the amount payable by the link\n  */\n  function deposit(address _from, bytes32 _hash, uint _amount) public {\n    require(hashes[_hash]==false,\"hash already used\");        \n    require(_amount>0,\"amount can't be 0\");\n    if(!transferFromDeposit(_from,_amount))\n        token.transferFrom(_from,address(this),_amount);\n    payments[_hash] = _amount;\n    hashes[_hash] = true;\n    senders[_hash] = _from;\n    emit PaymentDeposit(_from,_hash,_amount);\n  }\n\n  /**\n  withdraw funds from a one time link\n  @param _code the code of the one time link that once sha3 matches existing link\n  */\n  function withdraw(string memory _code) public {\n    bytes32 hash = keccak256(abi.encodePacked(_code));\n    require(payments[hash]>0,\"payment withdrawn already or code incorrect\");\n    uint amount = payments[hash];\n    token.transfer(msg.sender,amount);\n    payments[hash] = 0;\n    emit PaymentWithdraw(senders[hash],msg.sender,hash,amount);\n  }\n\n  /**\n  cancel one time link by owner\n  @param _hash the hash of the link\n  */\n  function cancel(bytes32 _hash) public {\n    require(senders[_hash]==msg.sender,\"you are not the owner of the link\");\n    require(payments[_hash]>0,\"payment withdrawn already\");\n    uint amount = payments[_hash];\n    token.transfer(msg.sender,amount);\n    payments[_hash] = 0;\n    emit PaymentCancel(msg.sender,_hash,amount);\n  }\n\n  function isLinkUsed(bytes32 hash) public view returns (bool) {\n    return hashes[hash];\n  }\n\n\n     \n}\n",
  "sourcePath": "/Users/hadar/workspace/GoodDollar/GoodBootstrap/packages/contracts/contracts/OneTimePaymentLinks.sol",
  "compiler": {
    "name": "solc",
    "version": "0.5.2+commit.1df8f40c.Emscripten.clang"
  },
  "schemaVersion": "3.0.9",
  "updatedAt": "2019-08-13T14:06:31.997Z",
  "devdoc": {
    "methods": {
      "cancel(bytes32)": {
        "params": {
          "_hash": "the hash of the link"
        }
      },
      "deposit(address,bytes32,uint256)": {
        "params": {
          "_amount": "the amount payable by the link",
          "_from": "the address of the depositor (used to be compatible with approveandcall)",
          "_hash": "to unique one time link code hashed (sha3)"
        }
      },
      "isOwner()": {
        "return": "true if `msg.sender` is the owner of the contract."
      },
      "owner()": {
        "return": "the address of the owner."
      },
      "renounceOwnership()": {
        "details": "Allows the current owner to relinquish control of the contract. It will not be possible to call the functions with the `onlyOwner` modifier anymore."
      },
      "transferOwnership(address)": {
        "details": "Allows the current owner to transfer control of the contract to a newOwner.",
        "params": {
          "newOwner": "The address to transfer ownership to."
        }
      },
      "withdraw(string)": {
        "params": {
          "_code": "the code of the one time link that once sha3 matches existing link"
        }
      }
    }
  },
  "userdoc": {
    "methods": {
      "cancel(bytes32)": {
        "notice": "cancel one time link by owner"
      },
      "deposit(address,bytes32,uint256)": {
        "notice": "Deposit funds into a one time link"
      },
      "renounceOwnership()": {
        "notice": "Renouncing ownership will leave the contract without an owner, thereby removing any functionality that is only available to the owner."
      },
      "withdraw(string)": {
        "notice": "withdraw funds from a one time link"
      }
    }
  }
}