{
  "contractName": "OneTimePayments",
  "abi": [
    {
      "constant": false,
      "inputs": [
        {
          "name": "_avatar",
          "type": "address"
        }
      ],
      "name": "setAvatar",
      "outputs": [],
      "payable": false,
      "stateMutability": "nonpayable",
      "type": "function"
    },
    {
      "constant": true,
      "inputs": [],
      "name": "isRegistered",
      "outputs": [
        {
          "name": "",
          "type": "bool"
        }
      ],
      "payable": false,
      "stateMutability": "view",
      "type": "function"
    },
    {
      "constant": true,
      "inputs": [],
      "name": "identity",
      "outputs": [
        {
          "name": "",
          "type": "address"
        }
      ],
      "payable": false,
      "stateMutability": "view",
      "type": "function"
    },
    {
      "constant": false,
      "inputs": [
        {
          "name": "_identity",
          "type": "address"
        }
      ],
      "name": "setIdentity",
      "outputs": [],
      "payable": false,
      "stateMutability": "nonpayable",
      "type": "function"
    },
    {
      "constant": false,
      "inputs": [],
      "name": "renounceOwnership",
      "outputs": [],
      "payable": false,
      "stateMutability": "nonpayable",
      "type": "function"
    },
    {
      "constant": true,
      "inputs": [],
      "name": "owner",
      "outputs": [
        {
          "name": "",
          "type": "address"
        }
      ],
      "payable": false,
      "stateMutability": "view",
      "type": "function"
    },
    {
      "constant": true,
      "inputs": [],
      "name": "isOwner",
      "outputs": [
        {
          "name": "",
          "type": "bool"
        }
      ],
      "payable": false,
      "stateMutability": "view",
      "type": "function"
    },
    {
      "constant": true,
      "inputs": [
        {
          "name": "scheme",
          "type": "address"
        }
      ],
      "name": "isRegistered",
      "outputs": [
        {
          "name": "",
          "type": "bool"
        }
      ],
      "payable": false,
      "stateMutability": "view",
      "type": "function"
    },
    {
      "constant": true,
      "inputs": [
        {
          "name": "",
          "type": "address"
        }
      ],
      "name": "payments",
      "outputs": [
        {
          "name": "hasPayment",
          "type": "bool"
        },
        {
          "name": "paymentAmount",
          "type": "uint256"
        },
        {
          "name": "paymentSender",
          "type": "address"
        }
      ],
      "payable": false,
      "stateMutability": "view",
      "type": "function"
    },
    {
      "constant": false,
      "inputs": [
        {
          "name": "newOwner",
          "type": "address"
        }
      ],
      "name": "transferOwnership",
      "outputs": [],
      "payable": false,
      "stateMutability": "nonpayable",
      "type": "function"
    },
    {
      "inputs": [
        {
          "name": "_avatar",
          "type": "address"
        },
        {
          "name": "_identity",
          "type": "address"
        }
      ],
      "payable": false,
      "stateMutability": "nonpayable",
      "type": "constructor"
    },
    {
      "anonymous": false,
      "inputs": [
        {
          "indexed": true,
          "name": "from",
          "type": "address"
        },
        {
          "indexed": false,
          "name": "paymentId",
          "type": "address"
        },
        {
          "indexed": false,
          "name": "amount",
          "type": "uint256"
        }
      ],
      "name": "PaymentDeposit",
      "type": "event"
    },
    {
      "anonymous": false,
      "inputs": [
        {
          "indexed": true,
          "name": "from",
          "type": "address"
        },
        {
          "indexed": false,
          "name": "paymentId",
          "type": "address"
        },
        {
          "indexed": false,
          "name": "amount",
          "type": "uint256"
        }
      ],
      "name": "PaymentCancel",
      "type": "event"
    },
    {
      "anonymous": false,
      "inputs": [
        {
          "indexed": true,
          "name": "from",
          "type": "address"
        },
        {
          "indexed": true,
          "name": "to",
          "type": "address"
        },
        {
          "indexed": true,
          "name": "paymentId",
          "type": "address"
        },
        {
          "indexed": false,
          "name": "amount",
          "type": "uint256"
        }
      ],
      "name": "PaymentWithdraw",
      "type": "event"
    },
    {
      "anonymous": false,
      "inputs": [
        {
          "indexed": true,
          "name": "previousOwner",
          "type": "address"
        },
        {
          "indexed": true,
          "name": "newOwner",
          "type": "address"
        }
      ],
      "name": "OwnershipTransferred",
      "type": "event"
    },
    {
      "constant": false,
      "inputs": [],
      "name": "start",
      "outputs": [],
      "payable": false,
      "stateMutability": "nonpayable",
      "type": "function"
    },
    {
      "constant": false,
      "inputs": [
        {
          "name": "sender",
          "type": "address"
        },
        {
          "name": "value",
          "type": "uint256"
        },
        {
          "name": "data",
          "type": "bytes"
        }
      ],
      "name": "onTokenTransfer",
      "outputs": [
        {
          "name": "",
          "type": "bool"
        }
      ],
      "payable": false,
      "stateMutability": "nonpayable",
      "type": "function"
    },
    {
      "constant": false,
      "inputs": [
        {
          "name": "paymentId",
          "type": "address"
        },
        {
          "name": "signature",
          "type": "bytes"
        }
      ],
      "name": "withdraw",
      "outputs": [],
      "payable": false,
      "stateMutability": "nonpayable",
      "type": "function"
    },
    {
      "constant": false,
      "inputs": [
        {
          "name": "paymentId",
          "type": "address"
        }
      ],
      "name": "cancel",
      "outputs": [],
      "payable": false,
      "stateMutability": "nonpayable",
      "type": "function"
    },
    {
      "constant": true,
      "inputs": [
        {
          "name": "paymentId",
          "type": "address"
        }
      ],
      "name": "hasPayment",
      "outputs": [
        {
          "name": "",
          "type": "bool"
        }
      ],
      "payable": false,
      "stateMutability": "view",
      "type": "function"
    }
  ],
  "bytecode": "0x608060405260028054600160a060020a031916905534801561002057600080fd5b5060405160408061158c8339810180604052604081101561004057600080fd5b50805160209091015160008054600160a060020a03191633178082556040518392859284928492600160a060020a039290921691907f8be0079c531659141344cd1fd0a4f28419497f9722a3daafe3b4186f6b6457e0908290a360018054600160a060020a031916600160a060020a038381169190911791829055161561017757600160009054906101000a9004600160a060020a0316600160a060020a0316638da5cb5b6040518163ffffffff167c010000000000000000000000000000000000000000000000000000000002815260040160206040518083038186803b15801561012b57600080fd5b505afa15801561013f573d6000803e3d6000fd5b505050506040513d602081101561015557600080fd5b505160028054600160a060020a031916600160a060020a039092169190911790555b50600160a060020a03811615156101ef57604080517f08c379a000000000000000000000000000000000000000000000000000000000815260206004820152601960248201527f537570706c696564206964656e74697479206973206e756c6c00000000000000604482015290519081900360640190fd5b60038054600160a060020a03909216600160a060020a031990921691909117905550505050611369806102236000396000f3fe608060405234801561001057600080fd5b50600436106100f95760003560e060020a900480638da5cb5b1161009b578063be9a65551161006a578063be9a65551461032b578063c3c5a54714610333578063e2982c2114610359578063f2fde38b146103a8576100f9565b80638da5cb5b146102705780638f32d59b146102785780639ea7811614610280578063a4c0ed36146102a6576100f9565b80634bb78b14116100d75780634bb78b14146101665780634c33fe941461021c5780635d5bf17814610242578063715018a614610268576100f9565b8063086cfca8146100fe57806322366844146101265780632c159a1a14610142575b600080fd5b6101246004803603602081101561011457600080fd5b5035600160a060020a03166103ce565b005b61012e6104be565b604080519115158252519081900360200190f35b61014a6104ce565b60408051600160a060020a039092168252519081900360200190f35b6101246004803603604081101561017c57600080fd5b600160a060020a0382351691908101906040810160208201356401000000008111156101a757600080fd5b8201836020820111156101b957600080fd5b803590602001918460018302840111640100000000831117156101db57600080fd5b91908080601f0160208091040260200160405190810160405280939291908181526020018383808284376000920191909152509295506104dd945050505050565b6101246004803603602081101561023257600080fd5b5035600160a060020a0316610617565b6101246004803603602081101561025857600080fd5b5035600160a060020a03166106f8565b6101246107f8565b61014a610862565b61012e610871565b61012e6004803603602081101561029657600080fd5b5035600160a060020a0316610882565b61012e600480360360608110156102bc57600080fd5b600160a060020a03823516916020810135918101906060810160408201356401000000008111156102ec57600080fd5b8201836020820111156102fe57600080fd5b8035906020019184600183028401116401000000008311171561032057600080fd5b5090925090506108a4565b610124610b10565b61012e6004803603602081101561034957600080fd5b5035600160a060020a0316610b66565b61037f6004803603602081101561036f57600080fd5b5035600160a060020a0316610c7e565b6040805193151584526020840192909252600160a060020a031682820152519081900360600190f35b610124600480360360208110156103be57600080fd5b5035600160a060020a0316610cac565b6103d6610871565b15156103e157600080fd5b6001805473ffffffffffffffffffffffffffffffffffffffff1916600160a060020a038381169190911791829055604080517f8da5cb5b00000000000000000000000000000000000000000000000000000000815290519290911691638da5cb5b91600480820192602092909190829003018186803b15801561046357600080fd5b505afa158015610477573d6000803e3d6000fd5b505050506040513d602081101561048d57600080fd5b50516002805473ffffffffffffffffffffffffffffffffffffffff1916600160a060020a0390921691909117905550565b60006104c930610b66565b905090565b600354600160a060020a031681565b6104e56104be565b1515610529576040805160e560020a62461bcd028152602060048201526018602482015260008051602061131e833981519152604482015290519081900360640190fd5b60006105353383610ccb565b9050600160a060020a038082169084161461059a576040805160e560020a62461bcd02815260206004820152601860248201527f5369676e6174757265206973206e6f7420636f72726563740000000000000000604482015290519081900360640190fd5b600160a060020a03808416600090815260046020526040902060018101546002909101549091166105cb8583610d37565b604080518381529051600160a060020a03808816923392918516917f39ca68a9f5d8038e871ef25a6622a56579cda4a6eedf63813574d23652e940489181900360200190a45050505050565b600160a060020a0381811660009081526004602052604090206002015416331461068b576040805160e560020a62461bcd02815260206004820152601d60248201527f43616e206f6e6c792062652063616c6c65642062792063726561746f72000000604482015290519081900360640190fd5b600160a060020a0381166000908152600460205260409020600101546106b18282610d37565b60408051600160a060020a038416815260208101839052815133927fb1f6a8f6b8fb527cfeec0df589160bc2a92ff715097117cb250e823c7106bc2f928290030190a25050565b610700610871565b151561070b57600080fd5b80600160a060020a031663223668446040518163ffffffff1660e060020a02815260040160206040518083038186803b15801561074757600080fd5b505afa15801561075b573d6000803e3d6000fd5b505050506040513d602081101561077157600080fd5b505115156107c9576040805160e560020a62461bcd02815260206004820152601a60248201527f4964656e74697479206973206e6f742072656769737465726564000000000000604482015290519081900360640190fd5b6003805473ffffffffffffffffffffffffffffffffffffffff1916600160a060020a0392909216919091179055565b610800610871565b151561080b57600080fd5b60008054604051600160a060020a03909116907f8be0079c531659141344cd1fd0a4f28419497f9722a3daafe3b4186f6b6457e0908390a36000805473ffffffffffffffffffffffffffffffffffffffff19169055565b600054600160a060020a031690565b600054600160a060020a0316331490565b600160a060020a03811660009081526004602052604090205460ff165b919050565b60006108ae6104be565b15156108f2576040805160e560020a62461bcd028152602060048201526018602482015260008051602061131e833981519152604482015290519081900360640190fd5b60008383602081101561090457600080fd5b5035600160a060020a031660008181526004602052604090205490915060ff1615610979576040805160e560020a62461bcd02815260206004820152601860248201527f7061796d656e74496420616c726561647920696e207573650000000000000000604482015290519081900360640190fd5b600160009054906101000a9004600160a060020a0316600160a060020a031663e1758bd86040518163ffffffff1660e060020a02815260040160206040518083038186803b1580156109ca57600080fd5b505afa1580156109de573d6000803e3d6000fd5b505050506040513d60208110156109f457600080fd5b5051600160a060020a03163314610a55576040805160e560020a62461bcd02815260206004820152601560248201527f4f6e6c792063616c6c61626c6520627920746869730000000000000000000000604482015290519081900360640190fd5b6040805160608101825260018082526020808301898152600160a060020a038b81168587018181528883166000818152600487528990209751885460ff191690151517885593519587019590955593516002909501805473ffffffffffffffffffffffffffffffffffffffff1916959091169490941790935583519283528201889052825190927f6c9f23ee41b34196a6e871314d55c3a0cce3399afc5d09755d171ea06547e073928290030190a250600195945050505050565b610b186104be565b1515610b5c576040805160e560020a62461bcd028152602060048201526018602482015260008051602061131e833981519152604482015290519081900360640190fd5b610b64610f36565b565b600154600090600160a060020a03161515610bcb576040805160e560020a62461bcd02815260206004820152601160248201527f417661746172206973206e6f7420736574000000000000000000000000000000604482015290519081900360640190fd5b600254600154604080517f9be2faed000000000000000000000000000000000000000000000000000000008152600160a060020a038681166004830152928316602482015290519190921691639be2faed916044808301926020929190829003018186803b158015610c3c57600080fd5b505afa158015610c50573d6000803e3d6000fd5b505050506040513d6020811015610c6657600080fd5b50511515610c765750600061089f565b506001919050565b60046020526000908152604090208054600182015460029092015460ff9091169190600160a060020a031683565b610cb4610871565b1515610cbf57600080fd5b610cc881611179565b50565b600080610d1e846040516020018082600160a060020a0316600160a060020a03166c01000000000000000000000000028152601401915050604051602081830303815290604052805190602001206111f6565b90506000610d2c8285611247565b925050505b92915050565b600160a060020a03821660009081526004602052604090205460ff161515610da9576040805160e560020a62461bcd02815260206004820152601460248201527f7061796d656e744964206e6f7420696e20757365000000000000000000000000604482015290519081900360640190fd5b600160a060020a03808316600090815260046020818152604092839020805460ff1916905560015483517fe1758bd8000000000000000000000000000000000000000000000000000000008152935194169363e1758bd8938084019390829003018186803b158015610e1a57600080fd5b505afa158015610e2e573d6000803e3d6000fd5b505050506040513d6020811015610e4457600080fd5b5051604080517fa9059cbb000000000000000000000000000000000000000000000000000000008152336004820152602481018490529051600160a060020a039092169163a9059cbb916044808201926020929091908290030181600087803b158015610eb057600080fd5b505af1158015610ec4573d6000803e3d6000fd5b505050506040513d6020811015610eda57600080fd5b50511515610f32576040805160e560020a62461bcd02815260206004820152601860248201527f7769746864726177207472616e73666572206661696c65640000000000000000604482015290519081900360640190fd5b5050565b610f3e6104be565b1515610f82576040805160e560020a62461bcd028152602060048201526018602482015260008051602061131e833981519152604482015290519081900360640190fd5b6002546003546040805130602480830191909152825180830382018152604492830184526020810180517bffffffffffffffffffffffffffffffffffffffffffffffffffffffff167f5f539d690000000000000000000000000000000000000000000000000000000017815260015494517fd1b7089a000000000000000000000000000000000000000000000000000000008152600160a060020a03968716600482018181529688169582018690526000606483018190526080958301958652845160848401528451989099169863d1b7089a989197949695909493909260a40191808383885b83811015611081578181015183820152602001611069565b50505050905090810190601f1680156110ae5780820380516001836020036101000a031916815260200191505b5095505050505050600060405180830381600087803b1580156110d057600080fd5b505af11580156110e4573d6000803e3d6000fd5b505050506040513d6000823e601f3d908101601f19168201604090815281101561110d57600080fd5b81516020830180519193928301929164010000000081111561112e57600080fd5b8201602081018481111561114157600080fd5b815164010000000081118282018710171561115b57600080fd5b5050600154610b649550600160a060020a03169350610cac92505050565b600160a060020a038116151561118e57600080fd5b60008054604051600160a060020a03808516939216917f8be0079c531659141344cd1fd0a4f28419497f9722a3daafe3b4186f6b6457e091a36000805473ffffffffffffffffffffffffffffffffffffffff1916600160a060020a0392909216919091179055565b604080517f19457468657265756d205369676e6564204d6573736167653a0a333200000000602080830191909152603c8083019490945282518083039094018452605c909101909152815191012090565b600080600080845160411415156112645760009350505050610d31565b50505060208201516040830151606084015160001a601b60ff8216101561128957601b015b8060ff16601b141580156112a157508060ff16601c14155b156112b25760009350505050610d31565b6040805160008152602080820180845289905260ff8416828401526060820186905260808201859052915160019260a0808401939192601f1981019281900390910190855afa158015611309573d6000803e3d6000fd5b505050602060405103519350505050610d3156fe536368656d65206973206e6f7420726567697374657265640000000000000000a165627a7a72305820c9af94648f75bdd224a804486afe4ccddcebab66a5b68706193f387482a57a710029",
  "source": "pragma solidity 0.5.4;\n\nimport \"@daostack/arc/contracts/controller/Avatar.sol\";\nimport \"openzeppelin-solidity/contracts/math/SafeMath.sol\";\nimport \"openzeppelin-solidity/contracts/cryptography/ECDSA.sol\";\n\nimport \"./FeelessScheme.sol\";\n\n\n/* @title One Time payment scheme\n * Scheme that allows address to deposit tokens for any address to withdraw\n */\ncontract OneTimePayments is FeelessScheme {\n    using SafeMath for uint256;\n\n    struct Payment {\n        bool hasPayment;\n        uint256 paymentAmount;\n        address paymentSender;\n    }\n\n    mapping(address => Payment) public payments;\n\n    event PaymentDeposit(address indexed from, address paymentId, uint256 amount);\n    event PaymentCancel(address indexed from, address paymentId, uint256 amount);\n    event PaymentWithdraw(\n        address indexed from,\n        address indexed to,\n        address indexed paymentId,\n        uint256 amount\n    );\n\n    /* @dev Constructor\n     * @param _avatar The avatar of the DAO\n     * @param _identity The identity contract\n     * @param _gasLimit The gas limit\n     */\n    constructor(Avatar _avatar, Identity _identity)\n        public\n        FeelessScheme(_identity, _avatar)\n    {}\n\n    /* @dev Start function. Adds this contract to identity as a feeless scheme.\n     * Can only be called if scheme is registered\n     */\n    function start() public onlyRegistered {\n        addRights();\n    }\n\n    /* @dev ERC677 on token transfer function. When transferAndCall is called on this contract,\n     * this function is called, depositing the payment amount under the hash of the given bytes.\n     * Reverts if hash is already in use. Can only be called by token contract.\n     * @param sender the address of the sender\n     * @param value the amount to deposit\n     * @param data The given paymentId which should be a fresh address of a wallet\n     */\n    function onTokenTransfer(\n        address sender,\n        uint256 value,\n        bytes calldata data\n    ) external onlyRegistered returns (bool) {\n        address paymentId = abi.decode(data, (address));\n\n        require(!payments[paymentId].hasPayment, \"paymentId already in use\");\n        require(msg.sender == address(avatar.nativeToken()), \"Only callable by this\");\n\n        payments[paymentId] = Payment(true, value, sender);\n\n        emit PaymentDeposit(sender, paymentId, value);\n\n        return true;\n    }\n\n    /* @dev Withdrawal function.\n     * allows the sender that proves ownership of paymentId to withdraw\n     * @param paymentId the address of the public key that the\n     *   rightful receiver of the payment knows the private key to\n     * @param signature the signature of a the message containing the msg.sender address signed\n     *   with the private key.\n     */\n    function withdraw(address paymentId, bytes memory signature) public onlyRegistered {\n        address signer = signerOfAddress(msg.sender, signature);\n        require(signer == paymentId, \"Signature is not correct\");\n\n        uint256 value = payments[paymentId].paymentAmount;\n        address sender = payments[paymentId].paymentSender;\n\n        _withdraw(paymentId, value);\n        emit PaymentWithdraw(sender, msg.sender, paymentId, value);\n    }\n\n    /* @dev Cancel function\n     * allows only creator of payment to cancel\n     * @param paymentId The paymentId of the payment to cancel\n     */\n    function cancel(address paymentId) public {\n        require(\n            payments[paymentId].paymentSender == msg.sender,\n            \"Can only be called by creator\"\n        );\n\n        uint256 value = payments[paymentId].paymentAmount;\n\n        _withdraw(paymentId, value);\n        emit PaymentCancel(msg.sender, paymentId, value);\n    }\n\n    /* @dev Internal withdraw function\n     * @param paymentId the paymentId of the payment\n     * @param value the amopunt in the payment\n     */\n    function _withdraw(address paymentId, uint256 value) internal {\n        require(payments[paymentId].hasPayment, \"paymentId not in use\");\n\n        payments[paymentId].hasPayment = false;\n\n        require(\n            avatar.nativeToken().transfer(msg.sender, value),\n            \"withdraw transfer failed\"\n        );\n    }\n\n    /* @dev function to check if a payment hash is in use\n     * @param paymentId the given paymentId\n     */\n    function hasPayment(address paymentId) public view returns (bool) {\n        return payments[paymentId].hasPayment;\n    }\n\n    /* @dev gives the signer address of the signature and the message\n     * @param message the plain-text message that is signed by the signature\n     * @param signature the signature of the plain-text message\n     */\n    function signerOfAddress(address message, bytes memory signature)\n        internal\n        pure\n        returns (address)\n    {\n        bytes32 signedMessage = ECDSA.toEthSignedMessageHash(\n            keccak256(abi.encodePacked(message))\n        );\n        address signer = ECDSA.recover(signedMessage, signature);\n        return signer;\n    }\n}\n",
  "sourcePath": "/Users/hadar/workspace/GoodDollar/GoodBootstrap/packages/contracts/contracts/dao/schemes/OneTimePayments.sol",
  "compiler": {
    "name": "solc",
    "version": "0.5.4+commit.9549d8ff.Emscripten.clang"
  },
  "schemaVersion": "3.0.16",
  "updatedAt": "2020-07-09T12:07:55.822Z",
  "devdoc": {
    "methods": {
      "isOwner()": {
        "return": "true if `msg.sender` is the owner of the contract."
      },
      "isRegistered()": {
        "details": "function to see if an avatar has been set and if this scheme is registered",
        "return": "true if scheme is registered"
      },
      "isRegistered(address)": {
        "details": "function to see if an avatar has been set and if this scheme is registered",
        "return": "true if scheme is registered"
      },
      "owner()": {
        "return": "the address of the owner."
      },
      "renounceOwnership()": {
        "details": "Allows the current owner to relinquish control of the contract."
      },
      "setAvatar(address)": {
        "details": "Function to set a new avatar and controller for scheme can only be done by owner of scheme"
      },
      "transferOwnership(address)": {
        "details": "Allows the current owner to transfer control of the contract to a newOwner.",
        "params": {
          "newOwner": "The address to transfer ownership to."
        }
      }
    }
  },
  "userdoc": {
    "methods": {
      "renounceOwnership()": {
        "notice": "Renouncing to ownership will leave the contract without an owner. It will not be possible to call the functions with the `onlyOwner` modifier anymore."
      }
    }
  }
}