{
  "contractName": "OneTimePaymentLinks",
  "abi": [
    {
      "constant": true,
      "inputs": [
        {
          "name": "",
          "type": "bytes32"
        }
      ],
      "name": "payments",
      "outputs": [
        {
          "name": "",
          "type": "uint256"
        }
      ],
      "payable": false,
      "stateMutability": "view",
      "type": "function",
      "signature": "0x0716326d"
    },
    {
      "constant": true,
      "inputs": [
        {
          "name": "",
          "type": "address"
        }
      ],
      "name": "erc677Deposits",
      "outputs": [
        {
          "name": "",
          "type": "uint256"
        }
      ],
      "payable": false,
      "stateMutability": "view",
      "type": "function",
      "signature": "0x28bdf054"
    },
    {
      "constant": false,
      "inputs": [],
      "name": "renounceOwnership",
      "outputs": [],
      "payable": false,
      "stateMutability": "nonpayable",
      "type": "function",
      "signature": "0x715018a6"
    },
    {
      "constant": true,
      "inputs": [
        {
          "name": "",
          "type": "bytes32"
        }
      ],
      "name": "senders",
      "outputs": [
        {
          "name": "",
          "type": "address"
        }
      ],
      "payable": false,
      "stateMutability": "view",
      "type": "function",
      "signature": "0x86556a64"
    },
    {
      "constant": true,
      "inputs": [],
      "name": "owner",
      "outputs": [
        {
          "name": "",
          "type": "address"
        }
      ],
      "payable": false,
      "stateMutability": "view",
      "type": "function",
      "signature": "0x8da5cb5b"
    },
    {
      "constant": true,
      "inputs": [],
      "name": "isOwner",
      "outputs": [
        {
          "name": "",
          "type": "bool"
        }
      ],
      "payable": false,
      "stateMutability": "view",
      "type": "function",
      "signature": "0x8f32d59b"
    },
    {
      "constant": true,
      "inputs": [
        {
          "name": "",
          "type": "bytes32"
        }
      ],
      "name": "hashes",
      "outputs": [
        {
          "name": "",
          "type": "bool"
        }
      ],
      "payable": false,
      "stateMutability": "view",
      "type": "function",
      "signature": "0xd658d2e9"
    },
    {
      "constant": false,
      "inputs": [
        {
          "name": "newOwner",
          "type": "address"
        }
      ],
      "name": "transferOwnership",
      "outputs": [],
      "payable": false,
      "stateMutability": "nonpayable",
      "type": "function",
      "signature": "0xf2fde38b"
    },
    {
      "inputs": [
        {
          "name": "_token",
          "type": "address"
        }
      ],
      "payable": false,
      "stateMutability": "nonpayable",
      "type": "constructor",
      "signature": "constructor"
    },
    {
      "anonymous": false,
      "inputs": [
        {
          "indexed": true,
          "name": "from",
          "type": "address"
        },
        {
          "indexed": false,
          "name": "hash",
          "type": "bytes32"
        },
        {
          "indexed": false,
          "name": "amount",
          "type": "uint256"
        }
      ],
      "name": "PaymentDeposit",
      "type": "event",
      "signature": "0xd1da8c349433a2063f51681b47160eb0509c0a6eb40f6446dbbc05b232737d23"
    },
    {
      "anonymous": false,
      "inputs": [
        {
          "indexed": true,
          "name": "from",
          "type": "address"
        },
        {
          "indexed": false,
          "name": "hash",
          "type": "bytes32"
        },
        {
          "indexed": false,
          "name": "amount",
          "type": "uint256"
        }
      ],
      "name": "PaymentCancel",
      "type": "event",
      "signature": "0x1039f839fdf70628f6c6f59f7e83e73ca366995c075078d2e568e6aafec1603d"
    },
    {
      "anonymous": false,
      "inputs": [
        {
          "indexed": true,
          "name": "from",
          "type": "address"
        },
        {
          "indexed": true,
          "name": "to",
          "type": "address"
        },
        {
          "indexed": true,
          "name": "hash",
          "type": "bytes32"
        },
        {
          "indexed": false,
          "name": "amount",
          "type": "uint256"
        }
      ],
      "name": "PaymentWithdraw",
      "type": "event",
      "signature": "0x7916ac3cfcbebd3d4758001d4cb35090e6133052fbb4b2723795eec73d935d9e"
    },
    {
      "anonymous": false,
      "inputs": [
        {
          "indexed": true,
          "name": "previousOwner",
          "type": "address"
        },
        {
          "indexed": true,
          "name": "newOwner",
          "type": "address"
        }
      ],
      "name": "OwnershipTransferred",
      "type": "event",
      "signature": "0x8be0079c531659141344cd1fd0a4f28419497f9722a3daafe3b4186f6b6457e0"
    },
    {
      "constant": false,
      "inputs": [
        {
          "name": "_from",
          "type": "address"
        },
        {
          "name": "_value",
          "type": "uint256"
        },
        {
          "name": "_data",
          "type": "bytes"
        }
      ],
      "name": "onTokenTransfer",
      "outputs": [
        {
          "name": "",
          "type": "bool"
        }
      ],
      "payable": false,
      "stateMutability": "nonpayable",
      "type": "function",
      "signature": "0xa4c0ed36"
    },
    {
      "constant": false,
      "inputs": [
        {
          "name": "_from",
          "type": "address"
        },
        {
          "name": "_hash",
          "type": "bytes32"
        },
        {
          "name": "_amount",
          "type": "uint256"
        }
      ],
      "name": "deposit",
      "outputs": [],
      "payable": false,
      "stateMutability": "nonpayable",
      "type": "function",
      "signature": "0xeb2243f8"
    },
    {
      "constant": false,
      "inputs": [
        {
          "name": "_code",
          "type": "string"
        }
      ],
      "name": "withdraw",
      "outputs": [],
      "payable": false,
      "stateMutability": "nonpayable",
      "type": "function",
      "signature": "0x31fb67c2"
    },
    {
      "constant": false,
      "inputs": [
        {
          "name": "_hash",
          "type": "bytes32"
        }
      ],
      "name": "cancel",
      "outputs": [],
      "payable": false,
      "stateMutability": "nonpayable",
      "type": "function",
      "signature": "0xc4d252f5"
    },
    {
      "constant": true,
      "inputs": [
        {
          "name": "hash",
          "type": "bytes32"
        }
      ],
      "name": "isLinkUsed",
      "outputs": [
        {
          "name": "",
          "type": "bool"
        }
      ],
      "payable": false,
      "stateMutability": "view",
      "type": "function",
      "signature": "0xf8d29666"
    }
  ],
  "bytecode": "0x608060405234801561001057600080fd5b50604051602080610d968339810180604052602081101561003057600080fd5b505160008054600160a060020a0319163317808255604051600160a060020a039190911691907f8be0079c531659141344cd1fd0a4f28419497f9722a3daafe3b4186f6b6457e0908290a360058054600160a060020a031916600160a060020a0392909216919091179055610cec806100aa6000396000f3fe6080604052600436106100c45763ffffffff7c01000000000000000000000000000000000000000000000000000000006000350416630716326d81146100c957806328bdf0541461010557806331fb67c214610138578063715018a6146101ed57806386556a64146102025780638da5cb5b146102485780638f32d59b1461025d578063a4c0ed3614610286578063c4d252f514610318578063d658d2e914610342578063eb2243f81461036c578063f2fde38b146103ab578063f8d29666146103de575b600080fd5b3480156100d557600080fd5b506100f3600480360360208110156100ec57600080fd5b5035610408565b60408051918252519081900360200190f35b34801561011157600080fd5b506100f36004803603602081101561012857600080fd5b5035600160a060020a031661041a565b34801561014457600080fd5b506101eb6004803603602081101561015b57600080fd5b81019060208101813564010000000081111561017657600080fd5b82018360208201111561018857600080fd5b803590602001918460018302840111640100000000831117156101aa57600080fd5b91908080601f01602080910402602001604051908101604052809392919081815260200183838082843760009201919091525092955061042c945050505050565b005b3480156101f957600080fd5b506101eb61063b565b34801561020e57600080fd5b5061022c6004803603602081101561022557600080fd5b50356106a5565b60408051600160a060020a039092168252519081900360200190f35b34801561025457600080fd5b5061022c6106c0565b34801561026957600080fd5b506102726106cf565b604080519115158252519081900360200190f35b34801561029257600080fd5b50610272600480360360608110156102a957600080fd5b600160a060020a03823516916020810135918101906060810160408201356401000000008111156102d957600080fd5b8201836020820111156102eb57600080fd5b8035906020019184600183028401116401000000008311171561030d57600080fd5b5090925090506106e0565b34801561032457600080fd5b506101eb6004803603602081101561033b57600080fd5b503561077c565b34801561034e57600080fd5b506102726004803603602081101561036557600080fd5b503561096c565b34801561037857600080fd5b506101eb6004803603606081101561038f57600080fd5b50600160a060020a038135169060208101359060400135610981565b3480156103b757600080fd5b506101eb600480360360208110156103ce57600080fd5b5035600160a060020a0316610b87565b3480156103ea57600080fd5b506102726004803603602081101561040157600080fd5b5035610ba6565b60016020526000908152604090205481565b60046020526000908152604090205481565b6000816040516020018082805190602001908083835b602083106104615780518252601f199092019160209182019101610442565b6001836020036101000a03801982511681845116808217855250505050505090500191505060405160208183030381529060405280519060200120905060006001600083815260200190815260200160002054111515610531576040805160e560020a62461bcd02815260206004820152602b60248201527f7061796d656e742077697468647261776e20616c7265616479206f7220636f6460448201527f6520696e636f7272656374000000000000000000000000000000000000000000606482015290519081900360840190fd5b60008181526001602090815260408083205460055482517fa9059cbb0000000000000000000000000000000000000000000000000000000081523360048201526024810183905292519194600160a060020a039091169363a9059cbb936044808201949293918390030190829087803b1580156105ad57600080fd5b505af11580156105c1573d6000803e3d6000fd5b505050506040513d60208110156105d757600080fd5b505060008281526001602090815260408083208390556003825291829020548251848152925185933393600160a060020a03909316927f7916ac3cfcbebd3d4758001d4cb35090e6133052fbb4b2723795eec73d935d9e92918290030190a4505050565b6106436106cf565b151561064e57600080fd5b60008054604051600160a060020a03909116907f8be0079c531659141344cd1fd0a4f28419497f9722a3daafe3b4186f6b6457e0908390a36000805473ffffffffffffffffffffffffffffffffffffffff19169055565b600360205260009081526040902054600160a060020a031681565b600054600160a060020a031690565b600054600160a060020a0316331490565b600554600090600160a060020a031633146106fa57600080fd5b600160a060020a03851660009081526004602052604080822086905551309085908590808383808284376040519201945060009350909150508083038183865af19150503d806000811461076a576040519150601f19603f3d011682016040523d82523d6000602084013e61076f565b606091505b5090979650505050505050565b600081815260036020526040902054600160a060020a03163314610810576040805160e560020a62461bcd02815260206004820152602160248201527f796f7520617265206e6f7420746865206f776e6572206f6620746865206c696e60448201527f6b00000000000000000000000000000000000000000000000000000000000000606482015290519081900360840190fd5b60008181526001602052604081205411610874576040805160e560020a62461bcd02815260206004820152601960248201527f7061796d656e742077697468647261776e20616c726561647900000000000000604482015290519081900360640190fd5b60008181526001602090815260408083205460055482517fa9059cbb0000000000000000000000000000000000000000000000000000000081523360048201526024810183905292519194600160a060020a039091169363a9059cbb936044808201949293918390030190829087803b1580156108f057600080fd5b505af1158015610904573d6000803e3d6000fd5b505050506040513d602081101561091a57600080fd5b50506000828152600160209081526040808320929092558151848152908101839052815133927f1039f839fdf70628f6c6f59f7e83e73ca366995c075078d2e568e6aafec1603d928290030190a25050565b60026020526000908152604090205460ff1681565b60008281526002602052604090205460ff16156109e8576040805160e560020a62461bcd02815260206004820152601160248201527f6861736820616c72656164792075736564000000000000000000000000000000604482015290519081900360640190fd5b60008111610a40576040805160e560020a62461bcd02815260206004820152601160248201527f616d6f756e742063616e27742062652030000000000000000000000000000000604482015290519081900360640190fd5b610a4a8382610bbb565b1515610af257600554604080517f23b872dd000000000000000000000000000000000000000000000000000000008152600160a060020a03868116600483015230602483015260448201859052915191909216916323b872dd9160648083019260209291908290030181600087803b158015610ac557600080fd5b505af1158015610ad9573d6000803e3d6000fd5b505050506040513d6020811015610aef57600080fd5b50505b600082815260016020818152604080842085905560028252808420805460ff19169093179092556003815291819020805473ffffffffffffffffffffffffffffffffffffffff1916600160a060020a0387169081179091558151858152928301849052815190927fd1da8c349433a2063f51681b47160eb0509c0a6eb40f6446dbbc05b232737d2392908290030190a2505050565b610b8f6106cf565b1515610b9a57600080fd5b610ba381610c2e565b50565b60009081526002602052604090205460ff1690565b600160a060020a0382166000908152600460205260408120548211610c2457600160a060020a038316600090815260046020526040902054610c03908363ffffffff610cab16565b600160a060020a038416600090815260046020526040902055506001610c28565b5060005b92915050565b600160a060020a0381161515610c4357600080fd5b60008054604051600160a060020a03808516939216917f8be0079c531659141344cd1fd0a4f28419497f9722a3daafe3b4186f6b6457e091a36000805473ffffffffffffffffffffffffffffffffffffffff1916600160a060020a0392909216919091179055565b600082821115610cba57600080fd5b5090039056fea165627a7a72305820f4b5c5f6c05e1d2351372414d5918689b4cfb90ef4f4479ce4987695627a2b100029",
  "source": "pragma solidity ^0.5.0;\r\n\r\nimport \"openzeppelin-solidity/contracts/ownership/Ownable.sol\";\r\nimport \"openzeppelin-solidity/contracts/token/ERC20/ERC20.sol\";\r\nimport \"./token/ERC677Receiver.sol\";\r\n\r\ncontract OneTimePaymentLinks is Ownable {\r\n\r\n    using SafeMath for uint256;\r\n\r\n    event PaymentDeposit(address indexed from, bytes32 hash, uint amount);\r\n    event PaymentCancel(address indexed from, bytes32 hash, uint amount);\r\n    event PaymentWithdraw(address indexed from, address indexed to, bytes32 indexed hash, uint amount);\r\n\r\n    mapping(bytes32 => uint) public payments;   \r\n    mapping(bytes32 => bool) public hashes;\r\n    mapping(bytes32 => address) public senders;\r\n    mapping(address => uint) public erc677Deposits;\r\n    ERC20 private token;\r\n\r\n    constructor(address _token) public {\r\n        token = ERC20(_token);\r\n    }\r\n\r\n    function onTokenTransfer(address _from, uint256 _value, bytes calldata _data) external returns(bool) {\r\n        //make sure its not called by outsiders\r\n        require(msg.sender == address(token));\r\n        erc677Deposits[_from] = _value;\r\n        (bool res,) = address(this).call(_data);\r\n        // (bool res,) = address(this).call(msg.value)(_data);\r\n        return res;        \r\n    }\r\n    /**\r\n    helper function to allow deposits via erc677 transfer and call\r\n     */\r\n    function transferFromDeposit(address _from, uint256 _value) internal returns (bool) {\r\n        if(erc677Deposits[_from]>=_value)\r\n        {\r\n            erc677Deposits[_from] = erc677Deposits[_from].sub(_value);\r\n            return true;\r\n        }\r\n        return false;\r\n    }\r\n  /**\r\n  Deposit funds into a one time link\r\n  @param _from the address of the depositor (used to be compatible with approveandcall)\r\n  @param _hash to unique one time link code hashed (sha3)\r\n  @param _amount the amount payable by the link\r\n  */\r\n  function deposit(address _from, bytes32 _hash, uint _amount) public {\r\n    require(hashes[_hash]==false,\"hash already used\");        \r\n    require(_amount>0,\"amount can't be 0\");\r\n    if(!transferFromDeposit(_from,_amount))\r\n        token.transferFrom(_from,address(this),_amount);\r\n    payments[_hash] = _amount;\r\n    hashes[_hash] = true;\r\n    senders[_hash] = _from;\r\n    emit PaymentDeposit(_from,_hash,_amount);\r\n  }\r\n\r\n  /**\r\n  withdraw funds from a one time link\r\n  @param _code the code of the one time link that once sha3 matches existing link\r\n  */\r\n  function withdraw(string memory _code) public {\r\n    bytes32 hash = keccak256(abi.encodePacked(_code));\r\n    require(payments[hash]>0,\"payment withdrawn already or code incorrect\");\r\n    uint amount = payments[hash];\r\n    token.transfer(msg.sender,amount);\r\n    payments[hash] = 0;\r\n    emit PaymentWithdraw(senders[hash],msg.sender,hash,amount);\r\n  }\r\n\r\n  /**\r\n  cancel one time link by owner\r\n  @param _hash the hash of the link\r\n  */\r\n  function cancel(bytes32 _hash) public {\r\n    require(senders[_hash]==msg.sender,\"you are not the owner of the link\");\r\n    require(payments[_hash]>0,\"payment withdrawn already\");\r\n    uint amount = payments[_hash];\r\n    token.transfer(msg.sender,amount);\r\n    payments[_hash] = 0;\r\n    emit PaymentCancel(msg.sender,_hash,amount);\r\n  }\r\n\r\n  function isLinkUsed(bytes32 hash) public view returns (bool) {\r\n    return hashes[hash];\r\n  }\r\n\r\n\r\n     \r\n}\r\n",
  "sourcePath": "C:/Users/hadarro/Documents/GoodDollar/GoodBootstrap/packages/contracts/contracts/OneTimePaymentLinks.sol",
  "compiler": {
    "name": "solc",
    "version": "0.5.0+commit.1d4f565a.Emscripten.clang"
  },
  "schemaVersion": "3.0.1",
  "updatedAt": "2019-03-31T09:12:12.160Z",
  "devdoc": {
    "methods": {
      "cancel(bytes32)": {
        "params": {
          "_hash": "the hash of the link\r"
        }
      },
      "deposit(address,bytes32,uint256)": {
        "params": {
          "_amount": "the amount payable by the link\r",
          "_from": "the address of the depositor (used to be compatible with approveandcall)\r",
          "_hash": "to unique one time link code hashed (sha3)\r"
        }
      },
      "isOwner()": {
        "return": "true if `msg.sender` is the owner of the contract."
      },
      "owner()": {
        "return": "the address of the owner."
      },
      "renounceOwnership()": {
        "details": "Allows the current owner to relinquish control of the contract."
      },
      "transferOwnership(address)": {
        "details": "Allows the current owner to transfer control of the contract to a newOwner.",
        "params": {
          "newOwner": "The address to transfer ownership to."
        }
      },
      "withdraw(string)": {
        "params": {
          "_code": "the code of the one time link that once sha3 matches existing link\r"
        }
      }
    }
  },
  "userdoc": {
    "methods": {
      "cancel(bytes32)": {
        "notice": "cancel one time link by owner\r"
      },
      "deposit(address,bytes32,uint256)": {
        "notice": "Deposit funds into a one time link\r"
      },
      "renounceOwnership()": {
        "notice": "Renouncing to ownership will leave the contract without an owner. It will not be possible to call the functions with the `onlyOwner` modifier anymore."
      },
      "withdraw(string)": {
        "notice": "withdraw funds from a one time link\r"
      }
    }
  }
}