{
  "contractName": "OneTimePaymentLinks",
  "abi": [
    {
      "constant": true,
      "inputs": [
        {
          "name": "",
          "type": "bytes32"
        }
      ],
      "name": "payments",
      "outputs": [
        {
          "name": "",
          "type": "uint256"
        }
      ],
      "payable": false,
      "stateMutability": "view",
      "type": "function",
      "signature": "0x0716326d"
    },
    {
      "constant": true,
      "inputs": [
        {
          "name": "",
          "type": "address"
        }
      ],
      "name": "erc677Deposits",
      "outputs": [
        {
          "name": "",
          "type": "uint256"
        }
      ],
      "payable": false,
      "stateMutability": "view",
      "type": "function",
      "signature": "0x28bdf054"
    },
    {
      "constant": false,
      "inputs": [],
      "name": "renounceOwnership",
      "outputs": [],
      "payable": false,
      "stateMutability": "nonpayable",
      "type": "function",
      "signature": "0x715018a6"
    },
    {
      "constant": true,
      "inputs": [],
      "name": "owner",
      "outputs": [
        {
          "name": "",
          "type": "address"
        }
      ],
      "payable": false,
      "stateMutability": "view",
      "type": "function",
      "signature": "0x8da5cb5b"
    },
    {
      "constant": true,
      "inputs": [],
      "name": "isOwner",
      "outputs": [
        {
          "name": "",
          "type": "bool"
        }
      ],
      "payable": false,
      "stateMutability": "view",
      "type": "function",
      "signature": "0x8f32d59b"
    },
    {
      "constant": true,
      "inputs": [
        {
          "name": "",
          "type": "bytes32"
        }
      ],
      "name": "hashes",
      "outputs": [
        {
          "name": "",
          "type": "bool"
        }
      ],
      "payable": false,
      "stateMutability": "view",
      "type": "function",
      "signature": "0xd658d2e9"
    },
    {
      "constant": false,
      "inputs": [
        {
          "name": "newOwner",
          "type": "address"
        }
      ],
      "name": "transferOwnership",
      "outputs": [],
      "payable": false,
      "stateMutability": "nonpayable",
      "type": "function",
      "signature": "0xf2fde38b"
    },
    {
      "inputs": [
        {
          "name": "_token",
          "type": "address"
        }
      ],
      "payable": false,
      "stateMutability": "nonpayable",
      "type": "constructor",
      "signature": "constructor"
    },
    {
      "anonymous": false,
      "inputs": [
        {
          "indexed": true,
          "name": "sender",
          "type": "address"
        },
        {
          "indexed": false,
          "name": "hash",
          "type": "bytes32"
        },
        {
          "indexed": false,
          "name": "amount",
          "type": "uint256"
        }
      ],
      "name": "PaymentDeposit",
      "type": "event",
      "signature": "0xd1da8c349433a2063f51681b47160eb0509c0a6eb40f6446dbbc05b232737d23"
    },
    {
      "anonymous": false,
      "inputs": [
        {
          "indexed": true,
          "name": "reciever",
          "type": "address"
        },
        {
          "indexed": true,
          "name": "hash",
          "type": "bytes32"
        },
        {
          "indexed": false,
          "name": "amount",
          "type": "uint256"
        }
      ],
      "name": "PaymentWithdraw",
      "type": "event",
      "signature": "0xb73bde277bc3ed9285dfa69a0321ef9456fba88d1362c9cfd758a6a18e1b62e9"
    },
    {
      "anonymous": false,
      "inputs": [
        {
          "indexed": true,
          "name": "previousOwner",
          "type": "address"
        },
        {
          "indexed": true,
          "name": "newOwner",
          "type": "address"
        }
      ],
      "name": "OwnershipTransferred",
      "type": "event",
      "signature": "0x8be0079c531659141344cd1fd0a4f28419497f9722a3daafe3b4186f6b6457e0"
    },
    {
      "constant": false,
      "inputs": [
        {
          "name": "_from",
          "type": "address"
        },
        {
          "name": "_value",
          "type": "uint256"
        },
        {
          "name": "_data",
          "type": "bytes"
        }
      ],
      "name": "onTokenTransfer",
      "outputs": [
        {
          "name": "",
          "type": "bool"
        }
      ],
      "payable": false,
      "stateMutability": "nonpayable",
      "type": "function",
      "signature": "0xa4c0ed36"
    },
    {
      "constant": false,
      "inputs": [
        {
          "name": "_from",
          "type": "address"
        },
        {
          "name": "_hash",
          "type": "bytes32"
        },
        {
          "name": "_amount",
          "type": "uint256"
        }
      ],
      "name": "deposit",
      "outputs": [],
      "payable": false,
      "stateMutability": "nonpayable",
      "type": "function",
      "signature": "0xeb2243f8"
    },
    {
      "constant": false,
      "inputs": [
        {
          "name": "_code",
          "type": "string"
        }
      ],
      "name": "withdraw",
      "outputs": [],
      "payable": false,
      "stateMutability": "nonpayable",
      "type": "function",
      "signature": "0x31fb67c2"
    },
    {
      "constant": true,
      "inputs": [
        {
          "name": "hash",
          "type": "bytes32"
        }
      ],
      "name": "isLinkUsed",
      "outputs": [
        {
          "name": "",
          "type": "bool"
        }
      ],
      "payable": false,
      "stateMutability": "view",
      "type": "function",
      "signature": "0xf8d29666"
    }
  ],
  "bytecode": "0x608060405234801561001057600080fd5b50604051602080610b308339810180604052602081101561003057600080fd5b505160008054600160a060020a0319163317808255604051600160a060020a039190911691907f8be0079c531659141344cd1fd0a4f28419497f9722a3daafe3b4186f6b6457e0908290a360048054600160a060020a031916600160a060020a0392909216919091179055610a86806100aa6000396000f3fe6080604052600436106100ae5763ffffffff7c01000000000000000000000000000000000000000000000000000000006000350416630716326d81146100b357806328bdf054146100ef57806331fb67c214610122578063715018a6146101d75780638da5cb5b146101ec5780638f32d59b1461021d578063a4c0ed3614610246578063d658d2e9146102d8578063eb2243f814610302578063f2fde38b14610341578063f8d2966614610374575b600080fd5b3480156100bf57600080fd5b506100dd600480360360208110156100d657600080fd5b503561039e565b60408051918252519081900360200190f35b3480156100fb57600080fd5b506100dd6004803603602081101561011257600080fd5b5035600160a060020a03166103b0565b34801561012e57600080fd5b506101d56004803603602081101561014557600080fd5b81019060208101813564010000000081111561016057600080fd5b82018360208201111561017257600080fd5b8035906020019184600183028401116401000000008311171561019457600080fd5b91908080601f0160208091040260200160405190810160405280939291908181526020018383808284376000920191909152509295506103c2945050505050565b005b3480156101e357600080fd5b506101d56105d6565b3480156101f857600080fd5b50610201610640565b60408051600160a060020a039092168252519081900360200190f35b34801561022957600080fd5b5061023261064f565b604080519115158252519081900360200190f35b34801561025257600080fd5b506102326004803603606081101561026957600080fd5b600160a060020a038235169160208101359181019060608101604082013564010000000081111561029957600080fd5b8201836020820111156102ab57600080fd5b803590602001918460018302840111640100000000831117156102cd57600080fd5b509092509050610660565b3480156102e457600080fd5b50610232600480360360208110156102fb57600080fd5b50356106fc565b34801561030e57600080fd5b506101d56004803603606081101561032557600080fd5b50600160a060020a038135169060208101359060400135610711565b34801561034d57600080fd5b506101d56004803603602081101561036457600080fd5b5035600160a060020a0316610921565b34801561038057600080fd5b506102326004803603602081101561039757600080fd5b5035610940565b60016020526000908152604090205481565b60036020526000908152604090205481565b6000816040516020018082805190602001908083835b602083106103f75780518252601f1990920191602091820191016103d8565b6001836020036101000a038019825116818451168082178552505050505050905001915050604051602081830303815290604052805190602001209050600060016000838152602001908152602001600020541115156104de57604080517f08c379a000000000000000000000000000000000000000000000000000000000815260206004820152602b60248201527f7061796d656e742077697468647261776e20616c7265616479206f7220636f6460448201527f6520696e636f7272656374000000000000000000000000000000000000000000606482015290519081900360840190fd5b6000818152600160209081526040808320546004805483517fa9059cbb00000000000000000000000000000000000000000000000000000000815233928101929092526024820183905292519194600160a060020a039093169363a9059cbb9360448084019492938390030190829087803b15801561055c57600080fd5b505af1158015610570573d6000803e3d6000fd5b505050506040513d602081101561058657600080fd5b505060008281526001602090815260408083209290925581518381529151849233927fb73bde277bc3ed9285dfa69a0321ef9456fba88d1362c9cfd758a6a18e1b62e992918290030190a3505050565b6105de61064f565b15156105e957600080fd5b60008054604051600160a060020a03909116907f8be0079c531659141344cd1fd0a4f28419497f9722a3daafe3b4186f6b6457e0908390a36000805473ffffffffffffffffffffffffffffffffffffffff19169055565b600054600160a060020a031690565b600054600160a060020a0316331490565b600454600090600160a060020a0316331461067a57600080fd5b600160a060020a03851660009081526003602052604080822086905551309085908590808383808284376040519201945060009350909150508083038183865af19150503d80600081146106ea576040519150601f19603f3d011682016040523d82523d6000602084013e6106ef565b606091505b5090979650505050505050565b60026020526000908152604090205460ff1681565b60008281526002602052604090205460ff161561078f57604080517f08c379a000000000000000000000000000000000000000000000000000000000815260206004820152601160248201527f6861736820616c72656164792075736564000000000000000000000000000000604482015290519081900360640190fd5b600081116107fe57604080517f08c379a000000000000000000000000000000000000000000000000000000000815260206004820152601160248201527f616d6f756e742063616e27742062652030000000000000000000000000000000604482015290519081900360640190fd5b6108088382610955565b15156108b45760048054604080517f23b872dd000000000000000000000000000000000000000000000000000000008152600160a060020a038781169482019490945230602482015260448101859052905192909116916323b872dd916064808201926020929091908290030181600087803b15801561088757600080fd5b505af115801561089b573d6000803e3d6000fd5b505050506040513d60208110156108b157600080fd5b50505b60008281526001602081815260408084208590556002825292839020805460ff191690921790915581518481529081018390528151600160a060020a038616927fd1da8c349433a2063f51681b47160eb0509c0a6eb40f6446dbbc05b232737d23928290030190a2505050565b61092961064f565b151561093457600080fd5b61093d816109c8565b50565b60009081526002602052604090205460ff1690565b600160a060020a03821660009081526003602052604081205482116109be57600160a060020a03831660009081526003602052604090205461099d908363ffffffff610a4516565b600160a060020a0384166000908152600360205260409020555060016109c2565b5060005b92915050565b600160a060020a03811615156109dd57600080fd5b60008054604051600160a060020a03808516939216917f8be0079c531659141344cd1fd0a4f28419497f9722a3daafe3b4186f6b6457e091a36000805473ffffffffffffffffffffffffffffffffffffffff1916600160a060020a0392909216919091179055565b600082821115610a5457600080fd5b5090039056fea165627a7a723058206f3b09dc045344a198be66bfb964c13f61e84cfc8f3ad0c1d6c7a9692944bffc0029",
  "source": "pragma solidity ^0.5.0;\r\n\r\nimport \"openzeppelin-solidity/contracts/ownership/Ownable.sol\";\r\nimport \"openzeppelin-solidity/contracts/token/ERC20/ERC20.sol\";\r\nimport \"./token/ERC677Receiver.sol\";\r\n\r\ncontract OneTimePaymentLinks is Ownable {\r\n\r\n    using SafeMath for uint256;\r\n\r\n    event PaymentDeposit(address indexed sender, bytes32 hash, uint amount);\r\n    event PaymentWithdraw(address indexed reciever, bytes32 indexed hash, uint amount);\r\n\r\n    mapping(bytes32 => uint) public payments;   \r\n    mapping(bytes32 => bool) public hashes;\r\n    mapping(address => uint) public erc677Deposits;\r\n    ERC20 private token;\r\n\r\n    constructor(address _token) public {\r\n        token = ERC20(_token);\r\n    }\r\n\r\n    function onTokenTransfer(address _from, uint256 _value, bytes calldata _data) external returns(bool) {\r\n        //make sure its not called by outsiders\r\n        require(msg.sender == address(token));\r\n        erc677Deposits[_from] = _value;\r\n        (bool res,) = address(this).call(_data);\r\n        // (bool res,) = address(this).call(msg.value)(_data);\r\n        return res;        \r\n    }\r\n    /**\r\n    helper function to allow deposits via erc677 transfer and call\r\n     */\r\n    function transferFromDeposit(address _from, uint256 _value) internal returns (bool) {\r\n        if(erc677Deposits[_from]>=_value)\r\n        {\r\n            erc677Deposits[_from] = erc677Deposits[_from].sub(_value);\r\n            return true;\r\n        }\r\n        return false;\r\n    }\r\n  /**\r\n  Deposit funds into a one time link\r\n  @param _from the address of the depositor (used to be compatible with approveandcall)\r\n  @param _hash to unique one time link code hashed (sha3)\r\n  @param _amount the amount payable by the link\r\n  */\r\n  function deposit(address _from, bytes32 _hash, uint _amount) public {\r\n    require(hashes[_hash]==false,\"hash already used\");        \r\n    require(_amount>0,\"amount can't be 0\");\r\n    if(!transferFromDeposit(_from,_amount))\r\n        token.transferFrom(_from,address(this),_amount);\r\n    payments[_hash] = _amount;\r\n    hashes[_hash] = true;\r\n    emit PaymentDeposit(_from,_hash,_amount);\r\n  }\r\n\r\n  /**\r\n  withdraw funds from a one time link\r\n  @param _code the code of the one time link that once sha3 matches existing link\r\n  */\r\n  function withdraw(string memory _code) public {\r\n    bytes32 hash = keccak256(abi.encodePacked(_code));\r\n    require(payments[hash]>0,\"payment withdrawn already or code incorrect\");\r\n    uint amount = payments[hash];\r\n    token.transfer(msg.sender,amount);\r\n    payments[hash] = 0;\r\n    emit PaymentWithdraw(msg.sender,hash,amount);\r\n  }\r\n\r\n  function isLinkUsed(bytes32 hash) public view returns (bool) {\r\n    return hashes[hash];\r\n  }\r\n\r\n\r\n     \r\n}\r\n",
  "sourcePath": "c:/Users/hadarro/Documents/GoodDollar/GoodContracts/contracts/OneTimePaymentLinks.sol",
  "compiler": {
    "name": "solc",
    "version": "0.5.0+commit.1d4f565a.Emscripten.clang"
  },
  "schemaVersion": "3.0.1",
  "updatedAt": "2019-02-21T10:14:27.898Z",
  "devdoc": {
    "methods": {
      "deposit(address,bytes32,uint256)": {
        "params": {
          "_amount": "the amount payable by the link\r",
          "_from": "the address of the depositor (used to be compatible with approveandcall)\r",
          "_hash": "to unique one time link code hashed (sha3)\r"
        }
      },
      "isOwner()": {
        "return": "true if `msg.sender` is the owner of the contract."
      },
      "owner()": {
        "return": "the address of the owner."
      },
      "renounceOwnership()": {
        "details": "Allows the current owner to relinquish control of the contract."
      },
      "transferOwnership(address)": {
        "details": "Allows the current owner to transfer control of the contract to a newOwner.",
        "params": {
          "newOwner": "The address to transfer ownership to."
        }
      },
      "withdraw(string)": {
        "params": {
          "_code": "the code of the one time link that once sha3 matches existing link\r"
        }
      }
    }
  },
  "userdoc": {
    "methods": {
      "deposit(address,bytes32,uint256)": {
        "notice": "Deposit funds into a one time link\r"
      },
      "renounceOwnership()": {
        "notice": "Renouncing to ownership will leave the contract without an owner. It will not be possible to call the functions with the `onlyOwner` modifier anymore."
      },
      "withdraw(string)": {
        "notice": "withdraw funds from a one time link\r"
      }
    }
  }
}