{
  "contractName": "OneTimePayments",
  "abi": [
    {
      "constant": true,
      "inputs": [
        {
          "name": "",
          "type": "bytes32"
        }
      ],
      "name": "payments",
      "outputs": [
        {
          "name": "hasPayment",
          "type": "bool"
        },
        {
          "name": "paymentAmount",
          "type": "uint256"
        },
        {
          "name": "paymentSender",
          "type": "address"
        }
      ],
      "payable": false,
      "stateMutability": "view",
      "type": "function"
    },
    {
      "constant": false,
      "inputs": [
        {
          "name": "_avatar",
          "type": "address"
        }
      ],
      "name": "setAvatar",
      "outputs": [],
      "payable": false,
      "stateMutability": "nonpayable",
      "type": "function"
    },
    {
      "constant": true,
      "inputs": [],
      "name": "isRegistered",
      "outputs": [],
      "payable": false,
      "stateMutability": "view",
      "type": "function"
    },
    {
      "constant": true,
      "inputs": [],
      "name": "identity",
      "outputs": [
        {
          "name": "",
          "type": "address"
        }
      ],
      "payable": false,
      "stateMutability": "view",
      "type": "function"
    },
    {
      "constant": false,
      "inputs": [
        {
          "name": "_identity",
          "type": "address"
        },
        {
          "name": "_avatar",
          "type": "address"
        }
      ],
      "name": "setIdentity",
      "outputs": [],
      "payable": false,
      "stateMutability": "nonpayable",
      "type": "function"
    },
    {
      "constant": false,
      "inputs": [],
      "name": "renounceOwnership",
      "outputs": [],
      "payable": false,
      "stateMutability": "nonpayable",
      "type": "function"
    },
    {
      "constant": true,
      "inputs": [],
      "name": "owner",
      "outputs": [
        {
          "name": "",
          "type": "address"
        }
      ],
      "payable": false,
      "stateMutability": "view",
      "type": "function"
    },
    {
      "constant": true,
      "inputs": [],
      "name": "isOwner",
      "outputs": [
        {
          "name": "",
          "type": "bool"
        }
      ],
      "payable": false,
      "stateMutability": "view",
      "type": "function"
    },
    {
      "constant": false,
      "inputs": [
        {
          "name": "newOwner",
          "type": "address"
        }
      ],
      "name": "transferOwnership",
      "outputs": [],
      "payable": false,
      "stateMutability": "nonpayable",
      "type": "function"
    },
    {
      "constant": true,
      "inputs": [],
      "name": "gasLimit",
      "outputs": [
        {
          "name": "",
          "type": "uint256"
        }
      ],
      "payable": false,
      "stateMutability": "view",
      "type": "function"
    },
    {
      "inputs": [
        {
          "name": "_avatar",
          "type": "address"
        },
        {
          "name": "_identity",
          "type": "address"
        },
        {
          "name": "_gasLimit",
          "type": "uint256"
        }
      ],
      "payable": false,
      "stateMutability": "nonpayable",
      "type": "constructor"
    },
    {
      "anonymous": false,
      "inputs": [
        {
          "indexed": true,
          "name": "from",
          "type": "address"
        },
        {
          "indexed": false,
          "name": "hash",
          "type": "bytes32"
        },
        {
          "indexed": false,
          "name": "amount",
          "type": "uint256"
        }
      ],
      "name": "PaymentDeposit",
      "type": "event"
    },
    {
      "anonymous": false,
      "inputs": [
        {
          "indexed": true,
          "name": "from",
          "type": "address"
        },
        {
          "indexed": false,
          "name": "hash",
          "type": "bytes32"
        },
        {
          "indexed": false,
          "name": "amount",
          "type": "uint256"
        }
      ],
      "name": "PaymentCancel",
      "type": "event"
    },
    {
      "anonymous": false,
      "inputs": [
        {
          "indexed": true,
          "name": "from",
          "type": "address"
        },
        {
          "indexed": true,
          "name": "to",
          "type": "address"
        },
        {
          "indexed": true,
          "name": "hash",
          "type": "bytes32"
        },
        {
          "indexed": false,
          "name": "amount",
          "type": "uint256"
        }
      ],
      "name": "PaymentWithdraw",
      "type": "event"
    },
    {
      "anonymous": false,
      "inputs": [
        {
          "indexed": true,
          "name": "previousOwner",
          "type": "address"
        },
        {
          "indexed": true,
          "name": "newOwner",
          "type": "address"
        }
      ],
      "name": "OwnershipTransferred",
      "type": "event"
    },
    {
      "constant": false,
      "inputs": [],
      "name": "start",
      "outputs": [],
      "payable": false,
      "stateMutability": "nonpayable",
      "type": "function"
    },
    {
      "constant": false,
      "inputs": [
        {
          "name": "sender",
          "type": "address"
        },
        {
          "name": "value",
          "type": "uint256"
        },
        {
          "name": "data",
          "type": "bytes"
        }
      ],
      "name": "onTokenTransfer",
      "outputs": [
        {
          "name": "",
          "type": "bool"
        }
      ],
      "payable": false,
      "stateMutability": "nonpayable",
      "type": "function"
    },
    {
      "constant": false,
      "inputs": [
        {
          "name": "code",
          "type": "string"
        }
      ],
      "name": "withdraw",
      "outputs": [],
      "payable": false,
      "stateMutability": "nonpayable",
      "type": "function"
    },
    {
      "constant": false,
      "inputs": [
        {
          "name": "hash",
          "type": "bytes32"
        }
      ],
      "name": "cancel",
      "outputs": [],
      "payable": false,
      "stateMutability": "nonpayable",
      "type": "function"
    },
    {
      "constant": true,
      "inputs": [
        {
          "name": "hash",
          "type": "bytes32"
        }
      ],
      "name": "hasPayment",
      "outputs": [
        {
          "name": "",
          "type": "bool"
        }
      ],
      "payable": false,
      "stateMutability": "view",
      "type": "function"
    }
  ],
  "bytecode": "0x608060405260028054600160a060020a031916905534801561002057600080fd5b506040516060806118b88339810180604052606081101561004057600080fd5b508051602082015160409283015160008054600160a060020a031916331780825594519394929391928492869284928492600160a060020a039190911691907f8be0079c531659141344cd1fd0a4f28419497f9722a3daafe3b4186f6b6457e0908290a360018054600160a060020a031916600160a060020a038381169190911791829055161561018157600160009054906101000a9004600160a060020a0316600160a060020a0316638da5cb5b6040518163ffffffff167c010000000000000000000000000000000000000000000000000000000002815260040160206040518083038186803b15801561013557600080fd5b505afa158015610149573d6000803e3d6000fd5b505050506040513d602081101561015f57600080fd5b505160028054600160a060020a031916600160a060020a039092169190911790555b50600160a060020a03811615156101f957604080517f08c379a000000000000000000000000000000000000000000000000000000000815260206004820152601960248201527f537570706c696564206964656e74697479206973206e756c6c00000000000000604482015290519081900360640190fd5b60038054600160a060020a03909216600160a060020a031990921691909117905550506004555050611688806102306000396000f3fe608060405234801561001057600080fd5b50600436106100f95760003560e060020a90048063715018a61161009b578063be9a65551161006a578063be9a65551461033a578063c4d252f514610342578063f2fde38b1461035f578063f68016b714610385576100f9565b8063715018a61461029d5780638da5cb5b146102a55780638f32d59b146102ad578063a4c0ed36146102b5576100f9565b80632c159a1a116100d75780632c159a1a1461017457806331fb67c2146101985780634a2091961461023e57806360ee79381461026f576100f9565b80630716326d146100fe578063086cfca814610144578063223668441461016c575b600080fd5b61011b6004803603602081101561011457600080fd5b503561039f565b6040805193151584526020840192909252600160a060020a031682820152519081900360600190f35b61016a6004803603602081101561015a57600080fd5b5035600160a060020a03166103cd565b005b61016a610675565b61017c6107a2565b60408051600160a060020a039092168252519081900360200190f35b61016a600480360360208110156101ae57600080fd5b8101906020810181356401000000008111156101c957600080fd5b8201836020820111156101db57600080fd5b803590602001918460018302840111640100000000831117156101fd57600080fd5b91908080601f0160208091040260200160405190810160405280939291908181526020018383808284376000920191909152509295506107b1945050505050565b61025b6004803603602081101561025457600080fd5b50356109bb565b604080519115158252519081900360200190f35b61016a6004803603604081101561028557600080fd5b50600160a060020a03813581169160200135166109d0565b61016a610c20565b61017c610c8a565b61025b610c99565b61025b600480360360608110156102cb57600080fd5b600160a060020a03823516916020810135918101906060810160408201356401000000008111156102fb57600080fd5b82018360208201111561030d57600080fd5b8035906020019184600183028401116401000000008311171561032f57600080fd5b509092509050610caa565b61016a610f8a565b61016a6004803603602081101561035857600080fd5b503561105b565b61016a6004803603602081101561037557600080fd5b5035600160a060020a0316611126565b61038d611145565b60408051918252519081900360200190f35b60056020526000908152604090208054600182015460029092015460ff9091169190600160a060020a031683565b8033600160a060020a0382161480156104dd575030600160a060020a0316638da5cb5b6040518163ffffffff1660e060020a02815260040160206040518083038186803b15801561041d57600080fd5b505afa158015610431573d6000803e3d6000fd5b505050506040513d602081101561044757600080fd5b5051604080517f8da5cb5b0000000000000000000000000000000000000000000000000000000081529051600160a060020a0392831692841691638da5cb5b916004808301926020929190829003018186803b1580156104a657600080fd5b505afa1580156104ba573d6000803e3d6000fd5b505050506040513d60208110156104d057600080fd5b5051600160a060020a0316145b80610557575030600160a060020a0316638da5cb5b6040518163ffffffff1660e060020a02815260040160206040518083038186803b15801561051f57600080fd5b505afa158015610533573d6000803e3d6000fd5b505050506040513d602081101561054957600080fd5b5051600160a060020a031633145b15156105975760405160e560020a62461bcd0281526004018080602001828103825260298152602001806116346029913960400191505060405180910390fd5b6001805473ffffffffffffffffffffffffffffffffffffffff1916600160a060020a038481169190911791829055604080517f8da5cb5b00000000000000000000000000000000000000000000000000000000815290519290911691638da5cb5b91600480820192602092909190829003018186803b15801561061957600080fd5b505afa15801561062d573d6000803e3d6000fd5b505050506040513d602081101561064357600080fd5b50516002805473ffffffffffffffffffffffffffffffffffffffff1916600160a060020a039092169190911790555050565b600154600160a060020a031615156106d7576040805160e560020a62461bcd02815260206004820152601160248201527f417661746172206973206e6f7420736574000000000000000000000000000000604482015290519081900360640190fd5b6002546001546040805160e060020a639be2faed028152306004820152600160a060020a03928316602482015290519190921691639be2faed916044808301926020929190829003018186803b15801561073057600080fd5b505afa158015610744573d6000803e3d6000fd5b505050506040513d602081101561075a57600080fd5b505115156107a0576040805160e560020a62461bcd0281526020600482015260186024820152600080516020611614833981519152604482015290519081900360640190fd5b565b600354600160a060020a031681565b6002546001546040805160e060020a639be2faed028152306004820152600160a060020a03928316602482015290519190921691639be2faed916044808301926020929190829003018186803b15801561080a57600080fd5b505afa15801561081e573d6000803e3d6000fd5b505050506040513d602081101561083457600080fd5b5051151561087a576040805160e560020a62461bcd0281526020600482015260186024820152600080516020611614833981519152604482015290519081900360640190fd5b6004545a11156108d4576040805160e560020a62461bcd02815260206004820152601760248201527f43616e6e6f742065786365656420676173206c696d6974000000000000000000604482015290519081900360640190fd5b6000816040516020018082805190602001908083835b602083106109095780518252601f1990920191602091820191016108ea565b51815160209384036101000a60001901801990921691161790526040805192909401828103601f190183528452815191810191909120600081815260059092529290206001810154600290910154929550935050600160a060020a03169050610972838361114b565b60408051838152905184913391600160a060020a038516917f7916ac3cfcbebd3d4758001d4cb35090e6133052fbb4b2723795eec73d935d9e919081900360200190a450505050565b60009081526005602052604090205460ff1690565b8033600160a060020a038216148015610ae0575030600160a060020a0316638da5cb5b6040518163ffffffff1660e060020a02815260040160206040518083038186803b158015610a2057600080fd5b505afa158015610a34573d6000803e3d6000fd5b505050506040513d6020811015610a4a57600080fd5b5051604080517f8da5cb5b0000000000000000000000000000000000000000000000000000000081529051600160a060020a0392831692841691638da5cb5b916004808301926020929190829003018186803b158015610aa957600080fd5b505afa158015610abd573d6000803e3d6000fd5b505050506040513d6020811015610ad357600080fd5b5051600160a060020a0316145b80610b5a575030600160a060020a0316638da5cb5b6040518163ffffffff1660e060020a02815260040160206040518083038186803b158015610b2257600080fd5b505afa158015610b36573d6000803e3d6000fd5b505050506040513d6020811015610b4c57600080fd5b5051600160a060020a031633145b1515610b9a5760405160e560020a62461bcd0281526004018080602001828103825260298152602001806116346029913960400191505060405180910390fd5b82600160a060020a031663223668446040518163ffffffff1660e060020a02815260040160006040518083038186803b158015610bd657600080fd5b505afa158015610bea573d6000803e3d6000fd5b50506003805473ffffffffffffffffffffffffffffffffffffffff1916600160a060020a03969096169590951790945550505050565b610c28610c99565b1515610c3357600080fd5b60008054604051600160a060020a03909116907f8be0079c531659141344cd1fd0a4f28419497f9722a3daafe3b4186f6b6457e0908390a36000805473ffffffffffffffffffffffffffffffffffffffff19169055565b600054600160a060020a031690565b600054600160a060020a0316331490565b6002546001546040805160e060020a639be2faed028152306004820152600160a060020a03928316602482015290516000939290921691639be2faed91604480820192602092909190829003018186803b158015610d0757600080fd5b505afa158015610d1b573d6000803e3d6000fd5b505050506040513d6020811015610d3157600080fd5b50511515610d77576040805160e560020a62461bcd0281526020600482015260186024820152600080516020611614833981519152604482015290519081900360640190fd5b600083836020811015610d8957600080fd5b503560008181526005602052604090205490915060ff1615610df5576040805160e560020a62461bcd02815260206004820152601360248201527f4861736820616c726561647920696e2075736500000000000000000000000000604482015290519081900360640190fd5b600160009054906101000a9004600160a060020a0316600160a060020a031663e1758bd86040518163ffffffff1660e060020a02815260040160206040518083038186803b158015610e4657600080fd5b505afa158015610e5a573d6000803e3d6000fd5b505050506040513d6020811015610e7057600080fd5b5051600160a060020a03163314610ed1576040805160e560020a62461bcd02815260206004820152601560248201527f4f6e6c792063616c6c61626c6520627920746869730000000000000000000000604482015290519081900360640190fd5b6040805160608101825260018082526020808301898152600160a060020a038b81168587018181526000898152600586528890209651875460ff191690151517875592519486019490945590516002909401805473ffffffffffffffffffffffffffffffffffffffff191694909116939093179092558251848152918201889052825190927fd1da8c349433a2063f51681b47160eb0509c0a6eb40f6446dbbc05b232737d23928290030190a250600195945050505050565b6002546001546040805160e060020a639be2faed028152306004820152600160a060020a03928316602482015290519190921691639be2faed916044808301926020929190829003018186803b158015610fe357600080fd5b505afa158015610ff7573d6000803e3d6000fd5b505050506040513d602081101561100d57600080fd5b50511515611053576040805160e560020a62461bcd0281526020600482015260186024820152600080516020611614833981519152604482015290519081900360640190fd5b6107a06112eb565b600081815260056020526040902060020154600160a060020a031633146110cc576040805160e560020a62461bcd02815260206004820152601d60248201527f43616e206f6e6c792062652063616c6c65642062792063726561746f72000000604482015290519081900360640190fd5b6000818152600560205260409020600101546110e8828261114b565b6040805183815260208101839052815133927f1039f839fdf70628f6c6f59f7e83e73ca366995c075078d2e568e6aafec1603d928290030190a25050565b61112e610c99565b151561113957600080fd5b61114281611596565b50565b60045481565b60008281526005602052604090205460ff1615156111b3576040805160e560020a62461bcd02815260206004820152600f60248201527f48617368206e6f7420696e207573650000000000000000000000000000000000604482015290519081900360640190fd5b600082815260056020908152604091829020805460ff1916905560015482517fe1758bd80000000000000000000000000000000000000000000000000000000081529251600160a060020a039091169263e1758bd8926004808301939192829003018186803b15801561122557600080fd5b505afa158015611239573d6000803e3d6000fd5b505050506040513d602081101561124f57600080fd5b5051604080517fa9059cbb000000000000000000000000000000000000000000000000000000008152336004820152602481018490529051600160a060020a039092169163a9059cbb916044808201926020929091908290030181600087803b1580156112bb57600080fd5b505af11580156112cf573d6000803e3d6000fd5b505050506040513d60208110156112e557600080fd5b50505050565b6002546001546040805160e060020a639be2faed028152306004820152600160a060020a03928316602482015290519190921691639be2faed916044808301926020929190829003018186803b15801561134457600080fd5b505afa158015611358573d6000803e3d6000fd5b505050506040513d602081101561136e57600080fd5b505115156113b4576040805160e560020a62461bcd0281526020600482015260186024820152600080516020611614833981519152604482015290519081900360640190fd5b6002546003546040805130602480830191909152825180830382018152604492830184526020810180517bffffffffffffffffffffffffffffffffffffffffffffffffffffffff167f5f539d690000000000000000000000000000000000000000000000000000000017815260015494517fd1b7089a000000000000000000000000000000000000000000000000000000008152600160a060020a03968716600482018181529688169582018690526000606483018190526080958301958652845160848401528451989099169863d1b7089a989197949695909493909260a40191808383885b838110156114b357818101518382015260200161149b565b50505050905090810190601f1680156114e05780820380516001836020036101000a031916815260200191505b5095505050505050600060405180830381600087803b15801561150257600080fd5b505af1158015611516573d6000803e3d6000fd5b505050506040513d6000823e601f3d908101601f19168201604090815281101561153f57600080fd5b81516020830180519193928301929164010000000081111561156057600080fd5b8201602081018481111561157357600080fd5b815164010000000081118282018710171561158d57600080fd5b50505050505050565b600160a060020a03811615156115ab57600080fd5b60008054604051600160a060020a03808516939216917f8be0079c531659141344cd1fd0a4f28419497f9722a3daafe3b4186f6b6457e091a36000805473ffffffffffffffffffffffffffffffffffffffff1916600160a060020a039290921691909117905556fe536368656d65206973206e6f74207265676973746572656400000000000000004f6e6c792063616c6c61626c6520627920617661746172206f66206f776e6572206f72206f776e6572a165627a7a7230582076f1f3d914b1150c95362d6cecb41ba276bd295b7905249cadfab2f4bdf8d33e0029",
  "source": "pragma solidity 0.5.4;\n\nimport \"@daostack/arc/contracts/controller/Avatar.sol\";\nimport \"openzeppelin-solidity/contracts/math/SafeMath.sol\";\n\nimport \"./FeelessScheme.sol\";\n\n/* @title One Time payment scheme\n * Scheme that allows address to deposit tokens for any address to withdraw\n *\n * Note that this current implementation suffers from the possibility that\n * Malicious users could frontrun any withdrawal by listening to and then \n * copying any transaction before it is confirmed and raising gas price\n * to ensure it is picked up first. \n */\ncontract OneTimePayments is FeelessScheme {\n    using SafeMath for uint256;\n\n    uint256 public gasLimit;\n\n    struct Payment {\n        bool hasPayment;\n        uint256 paymentAmount;\n        address paymentSender;\n    }\n\n    mapping(bytes32 => Payment) public payments;\n\n    event PaymentDeposit(address indexed from, bytes32 hash, uint256 amount);\n    event PaymentCancel(address indexed from, bytes32 hash, uint256 amount);\n    event PaymentWithdraw(address indexed from, address indexed to, bytes32 indexed hash, uint256 amount);\n\n    constructor(\n        Avatar _avatar,\n        Identity _identity,\n        uint256 _gasLimit\n    )\n        public\n        FeelessScheme(_identity, _avatar)\n    {\n        gasLimit = _gasLimit;\n    }\n    \n    function start()\n        public\n        onlyRegistered\n    {\n        addRights();\n    }\n\n    /* @dev ERC677 on transfer function. When transferAndCall is called, the non-taxed \n     * remainder of the transfer is stored in a payment under a hash of the given data.\n     * @param sender the address of the sender\n     * @param value the amount to deposit\n     * @param data The given hash\n     */\n    function onTokenTransfer(address sender, uint256 value, bytes calldata data)\n        external\n        onlyRegistered\n        returns (bool)\n    {\n        bytes32 hash = abi.decode(data, (bytes32));\n\n        require(!payments[hash].hasPayment, \"Hash already in use\");\n        require(msg.sender == address(avatar.nativeToken()), \"Only callable by this\");\n\n        payments[hash] = Payment(true, value, sender);\n\n        emit PaymentDeposit(sender, hash, value);\n\n        return true;\n    }\n\n    /* @dev Withdrawal function. \n     * allows users with the original string of a hash to\n     * withdraw a payment. Currently vulnerable to frontrunning\n     * @pram code The string to encode into hash of payment\n     */\n    function withdraw(string memory code) public onlyRegistered {\n        require(gasleft() <= gasLimit, \"Cannot exceed gas limit\");\n        bytes32 hash = keccak256(abi.encodePacked(code));\n        uint256 value = payments[hash].paymentAmount;\n        address sender = payments[hash].paymentSender;\n\n        _withdraw(hash, value);\n        emit PaymentWithdraw(sender, msg.sender, hash, value);\n    }\n\n    /* @dev Cancel function\n     * allows only creator of payment to withdraw\n     * @param code The string to encode into hash of payment \n     */\n    function cancel(bytes32 hash) public {\n\n        require(payments[hash].paymentSender == msg.sender, \"Can only be called by creator\");\n        \n        uint256 value = payments[hash].paymentAmount;\n\n        _withdraw(hash, value);\n        emit PaymentCancel(msg.sender, hash, value);\n    }\n\n    /* @dev Internal withdraw function\n     * @param hash the hash of the payment\n     * @param value the amopunt in the payment\n     */\n    function _withdraw(bytes32 hash, uint256 value) internal {\n        require(payments[hash].hasPayment, \"Hash not in use\");\n\n        payments[hash].hasPayment = false;\n\n        avatar.nativeToken().transfer(msg.sender, value);\n    }\n\n    /* @dev function to check if a payment hash is in use\n     * @param hash the given bytes32 hash\n     */\n    function hasPayment(bytes32 hash) public view returns (bool) {\n        return payments[hash].hasPayment;\n    }\n}\n",
  "sourcePath": "/Users/hadar/workspace/GoodDollar/GoodBootstrap/packages/contracts/contracts/dao/schemes/OneTimePayments.sol",
  "compiler": {
    "name": "solc",
    "version": "0.5.4+commit.9549d8ff.Emscripten.clang"
  },
  "schemaVersion": "3.0.16",
  "updatedAt": "2019-10-27T06:47:33.099Z",
  "devdoc": {
    "methods": {
      "isOwner()": {
        "return": "true if `msg.sender` is the owner of the contract."
      },
      "owner()": {
        "return": "the address of the owner."
      },
      "renounceOwnership()": {
        "details": "Allows the current owner to relinquish control of the contract."
      },
      "transferOwnership(address)": {
        "details": "Allows the current owner to transfer control of the contract to a newOwner.",
        "params": {
          "newOwner": "The address to transfer ownership to."
        }
      }
    }
  },
  "userdoc": {
    "methods": {
      "renounceOwnership()": {
        "notice": "Renouncing to ownership will leave the contract without an owner. It will not be possible to call the functions with the `onlyOwner` modifier anymore."
      }
    }
  }
}