{
  "contractName": "OneTimePayments",
  "abi": [
    {
      "constant": false,
      "inputs": [
        {
          "name": "_avatar",
          "type": "address"
        }
      ],
      "name": "setAvatar",
      "outputs": [],
      "payable": false,
      "stateMutability": "nonpayable",
      "type": "function"
    },
    {
      "constant": true,
      "inputs": [],
      "name": "isRegistered",
      "outputs": [],
      "payable": false,
      "stateMutability": "view",
      "type": "function"
    },
    {
      "constant": false,
      "inputs": [],
      "name": "renounceOwnership",
      "outputs": [],
      "payable": false,
      "stateMutability": "nonpayable",
      "type": "function"
    },
    {
      "constant": true,
      "inputs": [],
      "name": "owner",
      "outputs": [
        {
          "name": "",
          "type": "address"
        }
      ],
      "payable": false,
      "stateMutability": "view",
      "type": "function"
    },
    {
      "constant": true,
      "inputs": [],
      "name": "isOwner",
      "outputs": [
        {
          "name": "",
          "type": "bool"
        }
      ],
      "payable": false,
      "stateMutability": "view",
      "type": "function"
    },
    {
      "constant": false,
      "inputs": [
        {
          "name": "newOwner",
          "type": "address"
        }
      ],
      "name": "transferOwnership",
      "outputs": [],
      "payable": false,
      "stateMutability": "nonpayable",
      "type": "function"
    },
    {
      "inputs": [
        {
          "name": "_avatar",
          "type": "address"
        },
        {
          "name": "_gasLimit",
          "type": "uint256"
        }
      ],
      "payable": false,
      "stateMutability": "nonpayable",
      "type": "constructor"
    },
    {
      "anonymous": false,
      "inputs": [
        {
          "indexed": true,
          "name": "from",
          "type": "address"
        },
        {
          "indexed": false,
          "name": "hash",
          "type": "bytes32"
        },
        {
          "indexed": false,
          "name": "amount",
          "type": "uint256"
        }
      ],
      "name": "PaymentDeposited",
      "type": "event"
    },
    {
      "anonymous": false,
      "inputs": [
        {
          "indexed": true,
          "name": "from",
          "type": "address"
        },
        {
          "indexed": false,
          "name": "hash",
          "type": "bytes32"
        },
        {
          "indexed": false,
          "name": "amount",
          "type": "uint256"
        }
      ],
      "name": "PaymentCancelled",
      "type": "event"
    },
    {
      "anonymous": false,
      "inputs": [
        {
          "indexed": true,
          "name": "to",
          "type": "address"
        },
        {
          "indexed": true,
          "name": "hash",
          "type": "bytes32"
        },
        {
          "indexed": false,
          "name": "amount",
          "type": "uint256"
        }
      ],
      "name": "PaymentWithdrawn",
      "type": "event"
    },
    {
      "anonymous": false,
      "inputs": [
        {
          "indexed": true,
          "name": "previousOwner",
          "type": "address"
        },
        {
          "indexed": true,
          "name": "newOwner",
          "type": "address"
        }
      ],
      "name": "OwnershipTransferred",
      "type": "event"
    },
    {
      "constant": false,
      "inputs": [
        {
          "name": "sender",
          "type": "address"
        },
        {
          "name": "value",
          "type": "uint256"
        },
        {
          "name": "data",
          "type": "bytes"
        }
      ],
      "name": "onTokenTransfer",
      "outputs": [
        {
          "name": "",
          "type": "bool"
        }
      ],
      "payable": false,
      "stateMutability": "nonpayable",
      "type": "function"
    },
    {
      "constant": false,
      "inputs": [
        {
          "name": "code",
          "type": "string"
        }
      ],
      "name": "withdraw",
      "outputs": [],
      "payable": false,
      "stateMutability": "nonpayable",
      "type": "function"
    },
    {
      "constant": false,
      "inputs": [
        {
          "name": "code",
          "type": "string"
        }
      ],
      "name": "cancel",
      "outputs": [],
      "payable": false,
      "stateMutability": "nonpayable",
      "type": "function"
    },
    {
      "constant": true,
      "inputs": [
        {
          "name": "hash",
          "type": "bytes32"
        }
      ],
      "name": "hasPayment",
      "outputs": [
        {
          "name": "",
          "type": "bool"
        }
      ],
      "payable": false,
      "stateMutability": "view",
      "type": "function"
    }
  ],
  "bytecode": "0x608060405260028054600160a060020a031916905534801561002057600080fd5b5060405160408061123d8339810180604052604081101561004057600080fd5b50805160209091015160008054600160a060020a03191633178082556040518492600160a060020a039290921691907f8be0079c531659141344cd1fd0a4f28419497f9722a3daafe3b4186f6b6457e0908290a360018054600160a060020a031916600160a060020a038381169190911791829055161561017157600160009054906101000a9004600160a060020a0316600160a060020a0316638da5cb5b6040518163ffffffff167c010000000000000000000000000000000000000000000000000000000002815260040160206040518083038186803b15801561012557600080fd5b505afa158015610139573d6000803e3d6000fd5b505050506040513d602081101561014f57600080fd5b505160028054600160a060020a031916600160a060020a039092169190911790555b50600355506110b8806101856000396000f3fe608060405234801561001057600080fd5b50600436106100a25760003560e060020a90048063715018a61161006a578063715018a6146102545780638da5cb5b1461025c5780638f32d59b14610280578063a4c0ed3614610288578063f2fde38b1461030d576100a2565b8063086cfca8146100a75780630b4f3f3d146100cf578063223668441461017557806331fb67c21461017d5780634a20919614610223575b600080fd5b6100cd600480360360208110156100bd57600080fd5b5035600160a060020a0316610333565b005b6100cd600480360360208110156100e557600080fd5b81019060208101813564010000000081111561010057600080fd5b82018360208201111561011257600080fd5b8035906020019184600183028401116401000000008311171561013457600080fd5b91908080601f0160208091040260200160405190810160405280939291908181526020018383808284376000920191909152509295506105db945050505050565b6100cd610710565b6100cd6004803603602081101561019357600080fd5b8101906020810181356401000000008111156101ae57600080fd5b8201836020820111156101c057600080fd5b803590602001918460018302840111640100000000831117156101e257600080fd5b91908080601f016020809104026020016040519081016040528093929190818152602001838380828437600092019190915250929550610865945050505050565b6102406004803603602081101561023957600080fd5b5035610a29565b604080519115158252519081900360200190f35b6100cd610a3e565b610264610aa8565b60408051600160a060020a039092168252519081900360200190f35b610240610ab7565b6102406004803603606081101561029e57600080fd5b600160a060020a03823516916020810135918101906060810160408201356401000000008111156102ce57600080fd5b8201836020820111156102e057600080fd5b8035906020019184600183028401116401000000008311171561030257600080fd5b509092509050610ac8565b6100cd6004803603602081101561032357600080fd5b5035600160a060020a0316610dd0565b8033600160a060020a038216148015610443575030600160a060020a0316638da5cb5b6040518163ffffffff1660e060020a02815260040160206040518083038186803b15801561038357600080fd5b505afa158015610397573d6000803e3d6000fd5b505050506040513d60208110156103ad57600080fd5b5051604080517f8da5cb5b0000000000000000000000000000000000000000000000000000000081529051600160a060020a0392831692841691638da5cb5b916004808301926020929190829003018186803b15801561040c57600080fd5b505afa158015610420573d6000803e3d6000fd5b505050506040513d602081101561043657600080fd5b5051600160a060020a0316145b806104bd575030600160a060020a0316638da5cb5b6040518163ffffffff1660e060020a02815260040160206040518083038186803b15801561048557600080fd5b505afa158015610499573d6000803e3d6000fd5b505050506040513d60208110156104af57600080fd5b5051600160a060020a031633145b15156104fd5760405160e560020a62461bcd0281526004018080602001828103825260298152602001806110646029913960400191505060405180910390fd5b6001805473ffffffffffffffffffffffffffffffffffffffff1916600160a060020a038481169190911791829055604080517f8da5cb5b00000000000000000000000000000000000000000000000000000000815290519290911691638da5cb5b91600480820192602092909190829003018186803b15801561057f57600080fd5b505afa158015610593573d6000803e3d6000fd5b505050506040513d60208110156105a957600080fd5b50516002805473ffffffffffffffffffffffffffffffffffffffff1916600160a060020a039092169190911790555050565b6000816040516020018082805190602001908083835b602083106106105780518252601f1990920191602091820191016105f1565b51815160209384036101000a60001901801990921691161790526040805192909401828103601f19018352845281519181019190912060008181526004909252929020600181015460029091015492955093505033600160a060020a039091161490506106c7576040805160e560020a62461bcd02815260206004820152601d60248201527f43616e206f6e6c792062652063616c6c65642062792063726561746f72000000604482015290519081900360640190fd5b6106d18282610def565b6040805183815260208101839052815133927f711e01f5a44aa3f0ce707ec078d022bb8c20ac72f12712f0d98ffdcbdbd9d99b928290030190a2505050565b600154600160a060020a03161515610772576040805160e560020a62461bcd02815260206004820152601160248201527f417661746172206973206e6f7420736574000000000000000000000000000000604482015290519081900360640190fd5b600254600154604080517f9be2faed000000000000000000000000000000000000000000000000000000008152306004820152600160a060020a03928316602482015290519190921691639be2faed916044808301926020929190829003018186803b1580156107e157600080fd5b505afa1580156107f5573d6000803e3d6000fd5b505050506040513d602081101561080b57600080fd5b50511515610863576040805160e560020a62461bcd02815260206004820152601860248201527f536368656d65206973206e6f7420726567697374657265640000000000000000604482015290519081900360640190fd5b565b600254600154604080517f9be2faed000000000000000000000000000000000000000000000000000000008152306004820152600160a060020a03928316602482015290519190921691639be2faed916044808301926020929190829003018186803b1580156108d457600080fd5b505afa1580156108e8573d6000803e3d6000fd5b505050506040513d60208110156108fe57600080fd5b50511515610956576040805160e560020a62461bcd02815260206004820152601860248201527f536368656d65206973206e6f7420726567697374657265640000000000000000604482015290519081900360640190fd5b6000816040516020018082805190602001908083835b6020831061098b5780518252601f19909201916020918201910161096c565b6001836020036101000a0380198251168184511680821785525050505050509050019150506040516020818303038152906040528051906020012090506000600460008381526020019081526020016000206001015490506109ed8282610def565b604080518281529051839133917fedd6e26b9ac727e55b60bc6d930f3ea8d1297cb24e896356ddcfbb095cae7d2a9181900360200190a3505050565b60009081526004602052604090205460ff1690565b610a46610ab7565b1515610a5157600080fd5b60008054604051600160a060020a03909116907f8be0079c531659141344cd1fd0a4f28419497f9722a3daafe3b4186f6b6457e0908390a36000805473ffffffffffffffffffffffffffffffffffffffff19169055565b600054600160a060020a031690565b600054600160a060020a0316331490565b600254600154604080517f9be2faed000000000000000000000000000000000000000000000000000000008152306004820152600160a060020a03928316602482015290516000939290921691639be2faed91604480820192602092909190829003018186803b158015610b3b57600080fd5b505afa158015610b4f573d6000803e3d6000fd5b505050506040513d6020811015610b6557600080fd5b50511515610bbd576040805160e560020a62461bcd02815260206004820152601860248201527f536368656d65206973206e6f7420726567697374657265640000000000000000604482015290519081900360640190fd5b600083836020811015610bcf57600080fd5b503560008181526004602052604090205490915060ff1615610c3b576040805160e560020a62461bcd02815260206004820152601360248201527f4861736820616c726561647920696e2075736500000000000000000000000000604482015290519081900360640190fd5b600160009054906101000a9004600160a060020a0316600160a060020a031663e1758bd86040518163ffffffff1660e060020a02815260040160206040518083038186803b158015610c8c57600080fd5b505afa158015610ca0573d6000803e3d6000fd5b505050506040513d6020811015610cb657600080fd5b5051600160a060020a03163314610d17576040805160e560020a62461bcd02815260206004820152601560248201527f4f6e6c792063616c6c61626c6520627920746869730000000000000000000000604482015290519081900360640190fd5b6040805160608101825260018082526020808301898152600160a060020a038b81168587018181526000898152600486528890209651875460ff191690151517875592519486019490945590516002909401805473ffffffffffffffffffffffffffffffffffffffff191694909116939093179092558251848152918201889052825190927f97ca182dc20544b48078c7a1033923acd3e251359ee15fe48576935ac6144b4f928290030190a250600195945050505050565b610dd8610ab7565b1515610de357600080fd5b610dec81610fe6565b50565b6003545a10610e48576040805160e560020a62461bcd02815260206004820152601760248201527f43616e6e6f742065786365656420676173206c696d6974000000000000000000604482015290519081900360640190fd5b60008281526004602052604090205460ff161515610eb0576040805160e560020a62461bcd02815260206004820152600f60248201527f48617368206e6f7420696e207573650000000000000000000000000000000000604482015290519081900360640190fd5b600082815260046020818152604092839020805460ff1916905560015483517fe1758bd80000000000000000000000000000000000000000000000000000000081529351600160a060020a039091169363e1758bd893818101939291829003018186803b158015610f2057600080fd5b505afa158015610f34573d6000803e3d6000fd5b505050506040513d6020811015610f4a57600080fd5b5051604080517fa9059cbb000000000000000000000000000000000000000000000000000000008152336004820152602481018490529051600160a060020a039092169163a9059cbb916044808201926020929091908290030181600087803b158015610fb657600080fd5b505af1158015610fca573d6000803e3d6000fd5b505050506040513d6020811015610fe057600080fd5b50505050565b600160a060020a0381161515610ffb57600080fd5b60008054604051600160a060020a03808516939216917f8be0079c531659141344cd1fd0a4f28419497f9722a3daafe3b4186f6b6457e091a36000805473ffffffffffffffffffffffffffffffffffffffff1916600160a060020a039290921691909117905556fe4f6e6c792063616c6c61626c6520627920617661746172206f66206f776e6572206f72206f776e6572a165627a7a723058203ff3484672ae37e918b312d69327c08229be579ff1ded0fc1895ff89f932e6170029",
  "source": "pragma solidity 0.5.4;\n\nimport \"@daostack/arc/contracts/controller/Avatar.sol\";\nimport \"openzeppelin-solidity/contracts/math/SafeMath.sol\";\n\nimport \"./SchemeGuard.sol\";\n\n/* @title One Time payment scheme\n * Scheme that allows address to deposit tokens for any address to withdraw\n *\n * Note that this current implementation suffers from the possibility that\n * Malicious users could frontrun any withdrawal by listening to and then \n * copying any transaction before it is confirmed and raising gas price\n * to ensure it is picked up first. \n */\ncontract OneTimePayments is SchemeGuard {\n    using SafeMath for uint256;\n\n    uint256 gasLimit;\n\n    struct Payment {\n        bool hasPayment;\n        uint256 paymentAmount;\n        address paymentSender;\n    }\n\n    mapping(bytes32 => Payment) payments;\n\n    event PaymentDeposited(address indexed from, bytes32 hash, uint256 amount);\n    event PaymentCancelled(address indexed from, bytes32 hash, uint256 amount);\n    event PaymentWithdrawn(address indexed to, bytes32 indexed hash, uint256 amount);\n\n    constructor(\n        Avatar _avatar,\n        uint256 _gasLimit\n    )\n        public\n        SchemeGuard(_avatar)\n    {\n        gasLimit = _gasLimit;\n    }\n    \n    /* @dev ERC677 on transfer function. When transferAndCall is called, the non-taxed \n     * remainder of the transfer is stored in a payment under a hash of the given data.\n     * @param sender the address of the sender\n     * @param value the amount to deposit\n     * @param data The given hash\n     */\n    function onTokenTransfer(address sender, uint256 value, bytes calldata data)\n        external\n        onlyRegistered\n        returns (bool)\n    {\n        bytes32 hash = abi.decode(data, (bytes32));\n\n        require(!payments[hash].hasPayment, \"Hash already in use\");\n        require(msg.sender == address(avatar.nativeToken()), \"Only callable by this\");\n\n        payments[hash] = Payment(true, value, sender);\n\n        emit PaymentDeposited(sender, hash, value);\n\n        return true;\n    }\n\n    /* @dev Withdrawal function. \n     * allows users with the original string of a hash to\n     * withdraw a payment. Currently vulnerable to frontrunning\n     * @pram code The string to encode into hash of payment\n     */\n    function withdraw(string memory code) public onlyRegistered {\n        bytes32 hash = keccak256(abi.encodePacked(code));\n        uint256 value = payments[hash].paymentAmount;\n\n        _withdraw(hash, value);\n        emit PaymentWithdrawn(msg.sender, hash, value);\n    }\n\n    /* @dev Cancel function\n     * allows only creator of payment to withdraw\n     * @param code The string to encode into hash of payment \n     */\n    function cancel(string memory code) public {\n        bytes32 hash = keccak256(abi.encodePacked(code));\n        uint256 value = payments[hash].paymentAmount;\n\n        require(payments[hash].paymentSender == msg.sender, \"Can only be called by creator\");\n\n        _withdraw(hash, value);\n        emit PaymentCancelled(msg.sender, hash, value);\n    }\n\n    /* @dev Internal withdraw function\n     * @param hash the hash of the payment\n     * @param value the amopunt in the payment\n     */\n    function _withdraw(bytes32 hash, uint256 value) internal {\n        require(gasleft() < gasLimit, \"Cannot exceed gas limit\");\n\n        require(payments[hash].hasPayment, \"Hash not in use\");\n\n        payments[hash].hasPayment = false;\n\n        avatar.nativeToken().transfer(msg.sender, value);\n    }\n\n    /* @dev function to check if a payment hash is in use\n     * @param hash the given bytes32 hash\n     */\n    function hasPayment(bytes32 hash) public view returns (bool) {\n        return payments[hash].hasPayment;\n    }\n}\n",
  "sourcePath": "/Users/madsjorgensen/Documents/Work/GoodContracts/contracts/dao/schemes/OneTimePayments.sol",
  "compiler": {
    "name": "solc",
    "version": "0.5.4+commit.9549d8ff.Emscripten.clang"
  },
  "schemaVersion": "3.0.11",
  "updatedAt": "2019-09-11T14:06:57.748Z",
  "devdoc": {
    "methods": {
      "isOwner()": {
        "return": "true if `msg.sender` is the owner of the contract."
      },
      "owner()": {
        "return": "the address of the owner."
      },
      "renounceOwnership()": {
        "details": "Allows the current owner to relinquish control of the contract."
      },
      "transferOwnership(address)": {
        "details": "Allows the current owner to transfer control of the contract to a newOwner.",
        "params": {
          "newOwner": "The address to transfer ownership to."
        }
      }
    }
  },
  "userdoc": {
    "methods": {
      "renounceOwnership()": {
        "notice": "Renouncing to ownership will leave the contract without an owner. It will not be possible to call the functions with the `onlyOwner` modifier anymore."
      }
    }
  }
}