{
  "contractName": "OneTimePaymentLinks",
  "abi": [
    {
      "constant": true,
      "inputs": [
        {
          "name": "",
          "type": "bytes32"
        }
      ],
      "name": "payments",
      "outputs": [
        {
          "name": "",
          "type": "uint256"
        }
      ],
      "payable": false,
      "stateMutability": "view",
      "type": "function"
    },
    {
      "constant": false,
      "inputs": [],
      "name": "renounceOwnership",
      "outputs": [],
      "payable": false,
      "stateMutability": "nonpayable",
      "type": "function"
    },
    {
      "constant": true,
      "inputs": [],
      "name": "owner",
      "outputs": [
        {
          "name": "",
          "type": "address"
        }
      ],
      "payable": false,
      "stateMutability": "view",
      "type": "function"
    },
    {
      "constant": true,
      "inputs": [],
      "name": "isOwner",
      "outputs": [
        {
          "name": "",
          "type": "bool"
        }
      ],
      "payable": false,
      "stateMutability": "view",
      "type": "function"
    },
    {
      "constant": true,
      "inputs": [
        {
          "name": "",
          "type": "bytes32"
        }
      ],
      "name": "hashes",
      "outputs": [
        {
          "name": "",
          "type": "bool"
        }
      ],
      "payable": false,
      "stateMutability": "view",
      "type": "function"
    },
    {
      "constant": false,
      "inputs": [
        {
          "name": "newOwner",
          "type": "address"
        }
      ],
      "name": "transferOwnership",
      "outputs": [],
      "payable": false,
      "stateMutability": "nonpayable",
      "type": "function"
    },
    {
      "inputs": [
        {
          "name": "_token",
          "type": "address"
        }
      ],
      "payable": false,
      "stateMutability": "nonpayable",
      "type": "constructor"
    },
    {
      "anonymous": false,
      "inputs": [
        {
          "indexed": false,
          "name": "sender",
          "type": "address"
        },
        {
          "indexed": false,
          "name": "hash",
          "type": "bytes32"
        },
        {
          "indexed": false,
          "name": "amount",
          "type": "uint256"
        }
      ],
      "name": "PaymentDeposit",
      "type": "event"
    },
    {
      "anonymous": false,
      "inputs": [
        {
          "indexed": false,
          "name": "reciever",
          "type": "address"
        },
        {
          "indexed": false,
          "name": "hash",
          "type": "bytes32"
        },
        {
          "indexed": false,
          "name": "amount",
          "type": "uint256"
        }
      ],
      "name": "PaymentWithdraw",
      "type": "event"
    },
    {
      "anonymous": false,
      "inputs": [
        {
          "indexed": true,
          "name": "previousOwner",
          "type": "address"
        },
        {
          "indexed": true,
          "name": "newOwner",
          "type": "address"
        }
      ],
      "name": "OwnershipTransferred",
      "type": "event"
    },
    {
      "constant": false,
      "inputs": [
        {
          "name": "_from",
          "type": "address"
        },
        {
          "name": "_hash",
          "type": "bytes32"
        },
        {
          "name": "_amount",
          "type": "uint256"
        }
      ],
      "name": "deposit",
      "outputs": [],
      "payable": false,
      "stateMutability": "nonpayable",
      "type": "function"
    },
    {
      "constant": false,
      "inputs": [
        {
          "name": "_code",
          "type": "string"
        }
      ],
      "name": "withdraw",
      "outputs": [],
      "payable": false,
      "stateMutability": "nonpayable",
      "type": "function"
    },
    {
      "constant": true,
      "inputs": [
        {
          "name": "hash",
          "type": "bytes32"
        }
      ],
      "name": "isLinkUsed",
      "outputs": [
        {
          "name": "",
          "type": "bool"
        }
      ],
      "payable": false,
      "stateMutability": "view",
      "type": "function"
    }
  ],
  "bytecode": "0x608060405234801561001057600080fd5b506040516020806109178339810180604052602081101561003057600080fd5b505160008054600160a060020a0319163317808255604051600160a060020a039190911691907f8be0079c531659141344cd1fd0a4f28419497f9722a3daafe3b4186f6b6457e0908290a360038054600160a060020a031916600160a060020a039290921691909117905561086d806100aa6000396000f3fe6080604052600436106100985763ffffffff7c01000000000000000000000000000000000000000000000000000000006000350416630716326d811461009d57806331fb67c2146100d9578063715018a61461018e5780638da5cb5b146101a35780638f32d59b146101d4578063d658d2e9146101fd578063eb2243f814610227578063f2fde38b14610266578063f8d2966614610299575b600080fd5b3480156100a957600080fd5b506100c7600480360360208110156100c057600080fd5b50356102c3565b60408051918252519081900360200190f35b3480156100e557600080fd5b5061018c600480360360208110156100fc57600080fd5b81019060208101813564010000000081111561011757600080fd5b82018360208201111561012957600080fd5b8035906020019184600183028401116401000000008311171561014b57600080fd5b91908080601f0160208091040260200160405190810160405280939291908181526020018383808284376000920191909152509295506102d5945050505050565b005b34801561019a57600080fd5b5061018c6104f0565b3480156101af57600080fd5b506101b861055a565b60408051600160a060020a039092168252519081900360200190f35b3480156101e057600080fd5b506101e9610569565b604080519115158252519081900360200190f35b34801561020957600080fd5b506101e96004803603602081101561022057600080fd5b503561057a565b34801561023357600080fd5b5061018c6004803603606081101561024a57600080fd5b50600160a060020a03813516906020810135906040013561058f565b34801561027257600080fd5b5061018c6004803603602081101561028957600080fd5b5035600160a060020a0316610790565b3480156102a557600080fd5b506101e9600480360360208110156102bc57600080fd5b50356107af565b60016020526000908152604090205481565b6000816040516020018082805190602001908083835b6020831061030a5780518252601f1990920191602091820191016102eb565b6001836020036101000a038019825116818451168082178552505050505050905001915050604051602081830303815290604052805190602001209050600060016000838152602001908152602001600020541115156103f157604080517f08c379a000000000000000000000000000000000000000000000000000000000815260206004820152602b60248201527f7061796d656e742077697468647261776e20616c7265616479206f7220636f6460448201527f6520696e636f7272656374000000000000000000000000000000000000000000606482015290519081900360840190fd5b60008181526001602090815260408083205460035482517fa9059cbb0000000000000000000000000000000000000000000000000000000081523360048201526024810183905292519194600160a060020a039091169363a9059cbb936044808201949293918390030190829087803b15801561046d57600080fd5b505af1158015610481573d6000803e3d6000fd5b505050506040513d602081101561049757600080fd5b5050600082815260016020908152604080832092909255815133815290810184905280820183905290517fb73bde277bc3ed9285dfa69a0321ef9456fba88d1362c9cfd758a6a18e1b62e99181900360600190a1505050565b6104f8610569565b151561050357600080fd5b60008054604051600160a060020a03909116907f8be0079c531659141344cd1fd0a4f28419497f9722a3daafe3b4186f6b6457e0908390a36000805473ffffffffffffffffffffffffffffffffffffffff19169055565b600054600160a060020a031690565b600054600160a060020a0316331490565b60026020526000908152604090205460ff1681565b60008281526002602052604090205460ff161561060d57604080517f08c379a000000000000000000000000000000000000000000000000000000000815260206004820152601160248201527f6861736820616c72656164792075736564000000000000000000000000000000604482015290519081900360640190fd5b6000811161067c57604080517f08c379a000000000000000000000000000000000000000000000000000000000815260206004820152601160248201527f616d6f756e742063616e27742062652030000000000000000000000000000000604482015290519081900360640190fd5b600354604080517f23b872dd000000000000000000000000000000000000000000000000000000008152600160a060020a03868116600483015230602483015260448201859052915191909216916323b872dd9160648083019260209291908290030181600087803b1580156106f157600080fd5b505af1158015610705573d6000803e3d6000fd5b505050506040513d602081101561071b57600080fd5b505060008281526001602081815260408084208590556002825292839020805460ff19169092179091558151600160a060020a038616815290810184905280820183905290517fd1da8c349433a2063f51681b47160eb0509c0a6eb40f6446dbbc05b232737d239181900360600190a1505050565b610798610569565b15156107a357600080fd5b6107ac816107c4565b50565b60009081526002602052604090205460ff1690565b600160a060020a03811615156107d957600080fd5b60008054604051600160a060020a03808516939216917f8be0079c531659141344cd1fd0a4f28419497f9722a3daafe3b4186f6b6457e091a36000805473ffffffffffffffffffffffffffffffffffffffff1916600160a060020a039290921691909117905556fea165627a7a7230582005384113171da418e73a86dc8a174b42d2e8893728a22e0d5cdb472c1439b8d30029",
  "source": "pragma solidity ^0.5.0;\n\nimport 'openzeppelin-solidity/contracts/ownership/Ownable.sol';\nimport \"openzeppelin-solidity/contracts/token/ERC20/ERC20.sol\";\n\ncontract OneTimePaymentLinks is Ownable {\n\n    using SafeMath for uint256;\n\n    event PaymentDeposit(address sender, bytes32 hash, uint amount);\n    event PaymentWithdraw(address reciever, bytes32 hash, uint amount);\n\n    mapping(bytes32 => uint) public payments;   \n    mapping(bytes32 => bool) public hashes;\n    ERC20 private token;\n\n    constructor(address _token) public {\n        token = ERC20(_token);\n    }\n\n    /**\n    Deposit funds into a one time link\n    @param _from the address of the depositor (used to be compatible with approveandcall)\n    @param _hash to unique one time link code hashed (sha3)\n    @param _amount the amount payable by the link\n     */\n    function deposit(address _from, bytes32 _hash, uint _amount) public {\n        require(hashes[_hash]==false,\"hash already used\");        \n        require(_amount>0,\"amount can't be 0\");        \n        token.transferFrom(_from,address(this),_amount);\n        payments[_hash] = _amount;\n        hashes[_hash] = true;\n        emit PaymentDeposit(_from,_hash,_amount);\n    }\n\n    /**\n    withdraw funds from a one time link\n    @param _code the code of the one time link that once sha3 matches existing link\n     */\n    function withdraw(string memory _code) public {\n        bytes32 hash = keccak256(abi.encodePacked(_code));\n        require(payments[hash]>0,\"payment withdrawn already or code incorrect\");\n        uint amount = payments[hash];\n        token.transfer(msg.sender,amount);\n        payments[hash] = 0;\n        emit PaymentWithdraw(msg.sender,hash,amount);\n    }\n\n    function isLinkUsed(bytes32 hash) public view returns (bool) {\n        return hashes[hash];\n    }\n\n\n     \n}\n",
  "sourcePath": "C:/Users/hadarro/Documents/GoodDollar/GoodContracts/contracts/OneTimePaymentLinks.sol",
  "compiler": {
    "name": "solc",
    "version": "0.5.0+commit.1d4f565a.Emscripten.clang"
  },
  "schemaVersion": "3.0.1",
  "updatedAt": "2019-02-05T12:59:33.836Z",
  "devdoc": {
    "methods": {
      "deposit(address,bytes32,uint256)": {
        "params": {
          "_amount": "the amount payable by the link",
          "_from": "the address of the depositor (used to be compatible with approveandcall)",
          "_hash": "to unique one time link code hashed (sha3)"
        }
      },
      "isOwner()": {
        "return": "true if `msg.sender` is the owner of the contract."
      },
      "owner()": {
        "return": "the address of the owner."
      },
      "renounceOwnership()": {
        "details": "Allows the current owner to relinquish control of the contract."
      },
      "transferOwnership(address)": {
        "details": "Allows the current owner to transfer control of the contract to a newOwner.",
        "params": {
          "newOwner": "The address to transfer ownership to."
        }
      },
      "withdraw(string)": {
        "params": {
          "_code": "the code of the one time link that once sha3 matches existing link"
        }
      }
    }
  },
  "userdoc": {
    "methods": {
      "deposit(address,bytes32,uint256)": {
        "notice": "Deposit funds into a one time link"
      },
      "renounceOwnership()": {
        "notice": "Renouncing to ownership will leave the contract without an owner. It will not be possible to call the functions with the `onlyOwner` modifier anymore."
      },
      "withdraw(string)": {
        "notice": "withdraw funds from a one time link"
      }
    }
  }
}