{
  "contractName": "OneTimePayments",
  "abi": [
    {
      "constant": false,
      "inputs": [
        {
          "name": "_avatar",
          "type": "address"
        }
      ],
      "name": "setAvatar",
      "outputs": [],
      "payable": false,
      "stateMutability": "nonpayable",
      "type": "function"
    },
    {
      "constant": true,
      "inputs": [],
      "name": "isRegistered",
      "outputs": [],
      "payable": false,
      "stateMutability": "view",
      "type": "function"
    },
    {
      "constant": false,
      "inputs": [],
      "name": "renounceOwnership",
      "outputs": [],
      "payable": false,
      "stateMutability": "nonpayable",
      "type": "function"
    },
    {
      "constant": true,
      "inputs": [],
      "name": "owner",
      "outputs": [
        {
          "name": "",
          "type": "address"
        }
      ],
      "payable": false,
      "stateMutability": "view",
      "type": "function"
    },
    {
      "constant": true,
      "inputs": [],
      "name": "isOwner",
      "outputs": [
        {
          "name": "",
          "type": "bool"
        }
      ],
      "payable": false,
      "stateMutability": "view",
      "type": "function"
    },
    {
      "constant": false,
      "inputs": [
        {
          "name": "newOwner",
          "type": "address"
        }
      ],
      "name": "transferOwnership",
      "outputs": [],
      "payable": false,
      "stateMutability": "nonpayable",
      "type": "function"
    },
    {
      "inputs": [
        {
          "name": "_avatar",
          "type": "address"
        },
        {
          "name": "_gasLimit",
          "type": "uint256"
        }
      ],
      "payable": false,
      "stateMutability": "nonpayable",
      "type": "constructor"
    },
    {
      "anonymous": false,
      "inputs": [
        {
          "indexed": true,
          "name": "from",
          "type": "address"
        },
        {
          "indexed": false,
          "name": "hash",
          "type": "bytes32"
        },
        {
          "indexed": false,
          "name": "amount",
          "type": "uint256"
        }
      ],
      "name": "PaymentDeposited",
      "type": "event"
    },
    {
      "anonymous": false,
      "inputs": [
        {
          "indexed": true,
          "name": "from",
          "type": "address"
        },
        {
          "indexed": false,
          "name": "hash",
          "type": "bytes32"
        },
        {
          "indexed": false,
          "name": "amount",
          "type": "uint256"
        }
      ],
      "name": "PaymentCancelled",
      "type": "event"
    },
    {
      "anonymous": false,
      "inputs": [
        {
          "indexed": true,
          "name": "to",
          "type": "address"
        },
        {
          "indexed": true,
          "name": "hash",
          "type": "bytes32"
        },
        {
          "indexed": false,
          "name": "amount",
          "type": "uint256"
        }
      ],
      "name": "PaymentWithdrawn",
      "type": "event"
    },
    {
      "anonymous": false,
      "inputs": [
        {
          "indexed": true,
          "name": "previousOwner",
          "type": "address"
        },
        {
          "indexed": true,
          "name": "newOwner",
          "type": "address"
        }
      ],
      "name": "OwnershipTransferred",
      "type": "event"
    },
    {
      "constant": false,
      "inputs": [
        {
          "name": "sender",
          "type": "address"
        },
        {
          "name": "value",
          "type": "uint256"
        },
        {
          "name": "data",
          "type": "bytes"
        }
      ],
      "name": "onTokenTransfer",
      "outputs": [
        {
          "name": "",
          "type": "bool"
        }
      ],
      "payable": false,
      "stateMutability": "nonpayable",
      "type": "function"
    },
    {
      "constant": false,
      "inputs": [
        {
          "name": "code",
          "type": "string"
        }
      ],
      "name": "withdraw",
      "outputs": [],
      "payable": false,
      "stateMutability": "nonpayable",
      "type": "function"
    },
    {
      "constant": true,
      "inputs": [
        {
          "name": "hash",
          "type": "bytes32"
        }
      ],
      "name": "hasPayment",
      "outputs": [
        {
          "name": "",
          "type": "bool"
        }
      ],
      "payable": false,
      "stateMutability": "view",
      "type": "function"
    }
  ],
  "bytecode": "0x608060405260028054600160a060020a031916905534801561002057600080fd5b506040516040806110388339810180604052604081101561004057600080fd5b50805160209091015160008054600160a060020a03191633178082556040518492600160a060020a039290921691907f8be0079c531659141344cd1fd0a4f28419497f9722a3daafe3b4186f6b6457e0908290a360018054600160a060020a031916600160a060020a038381169190911791829055161561017157600160009054906101000a9004600160a060020a0316600160a060020a0316638da5cb5b6040518163ffffffff167c010000000000000000000000000000000000000000000000000000000002815260040160206040518083038186803b15801561012557600080fd5b505afa158015610139573d6000803e3d6000fd5b505050506040513d602081101561014f57600080fd5b505160028054600160a060020a031916600160a060020a039092169190911790555b5060035550610eb3806101856000396000f3fe608060405234801561001057600080fd5b50600436106100975760003560e060020a90048063715018a61161006a578063715018a6146101a35780638da5cb5b146101ab5780638f32d59b146101cf578063a4c0ed36146101d7578063f2fde38b1461025c57610097565b8063086cfca81461009c57806322366844146100c457806331fb67c2146100cc5780634a20919614610172575b600080fd5b6100c2600480360360208110156100b257600080fd5b5035600160a060020a0316610282565b005b6100c261052a565b6100c2600480360360208110156100e257600080fd5b8101906020810181356401000000008111156100fd57600080fd5b82018360208201111561010f57600080fd5b8035906020019184600183028401116401000000008311171561013157600080fd5b91908080601f01602080910402602001604051908101604052809392919081815260200183838082843760009201919091525092955061067f945050505050565b61018f6004803603602081101561018857600080fd5b5035610a1b565b604080519115158252519081900360200190f35b6100c2610a30565b6101b3610a9a565b60408051600160a060020a039092168252519081900360200190f35b61018f610aa9565b61018f600480360360608110156101ed57600080fd5b600160a060020a038235169160208101359181019060608101604082013564010000000081111561021d57600080fd5b82018360208201111561022f57600080fd5b8035906020019184600183028401116401000000008311171561025157600080fd5b509092509050610aba565b6100c26004803603602081101561027257600080fd5b5035600160a060020a0316610dc2565b8033600160a060020a038216148015610392575030600160a060020a0316638da5cb5b6040518163ffffffff1660e060020a02815260040160206040518083038186803b1580156102d257600080fd5b505afa1580156102e6573d6000803e3d6000fd5b505050506040513d60208110156102fc57600080fd5b5051604080517f8da5cb5b0000000000000000000000000000000000000000000000000000000081529051600160a060020a0392831692841691638da5cb5b916004808301926020929190829003018186803b15801561035b57600080fd5b505afa15801561036f573d6000803e3d6000fd5b505050506040513d602081101561038557600080fd5b5051600160a060020a0316145b8061040c575030600160a060020a0316638da5cb5b6040518163ffffffff1660e060020a02815260040160206040518083038186803b1580156103d457600080fd5b505afa1580156103e8573d6000803e3d6000fd5b505050506040513d60208110156103fe57600080fd5b5051600160a060020a031633145b151561044c5760405160e560020a62461bcd028152600401808060200182810382526029815260200180610e5f6029913960400191505060405180910390fd5b6001805473ffffffffffffffffffffffffffffffffffffffff1916600160a060020a038481169190911791829055604080517f8da5cb5b00000000000000000000000000000000000000000000000000000000815290519290911691638da5cb5b91600480820192602092909190829003018186803b1580156104ce57600080fd5b505afa1580156104e2573d6000803e3d6000fd5b505050506040513d60208110156104f857600080fd5b50516002805473ffffffffffffffffffffffffffffffffffffffff1916600160a060020a039092169190911790555050565b600154600160a060020a0316151561058c576040805160e560020a62461bcd02815260206004820152601160248201527f417661746172206973206e6f7420736574000000000000000000000000000000604482015290519081900360640190fd5b600254600154604080517f9be2faed000000000000000000000000000000000000000000000000000000008152306004820152600160a060020a03928316602482015290519190921691639be2faed916044808301926020929190829003018186803b1580156105fb57600080fd5b505afa15801561060f573d6000803e3d6000fd5b505050506040513d602081101561062557600080fd5b5051151561067d576040805160e560020a62461bcd02815260206004820152601860248201527f536368656d65206973206e6f7420726567697374657265640000000000000000604482015290519081900360640190fd5b565b600254600154604080517f9be2faed000000000000000000000000000000000000000000000000000000008152306004820152600160a060020a03928316602482015290519190921691639be2faed916044808301926020929190829003018186803b1580156106ee57600080fd5b505afa158015610702573d6000803e3d6000fd5b505050506040513d602081101561071857600080fd5b50511515610770576040805160e560020a62461bcd02815260206004820152601860248201527f536368656d65206973206e6f7420726567697374657265640000000000000000604482015290519081900360640190fd5b6003545a106107c9576040805160e560020a62461bcd02815260206004820152601760248201527f43616e6e6f742065786365656420676173206c696d6974000000000000000000604482015290519081900360640190fd5b6000816040516020018082805190602001908083835b602083106107fe5780518252601f1990920191602091820191016107df565b51815160209384036101000a60001901801990921691161790526040805192909401828103601f19018352845281519181019190912060008181526004909252929020549194505060ff16151591506108a39050576040805160e560020a62461bcd02815260206004820152600f60248201527f48617368206e6f7420696e207573650000000000000000000000000000000000604482015290519081900360640190fd5b600081815260046020818152604092839020600180820154825460ff19169092555484517fe1758bd800000000000000000000000000000000000000000000000000000000815294519194600160a060020a039091169363e1758bd893828201939092909190829003018186803b15801561091d57600080fd5b505afa158015610931573d6000803e3d6000fd5b505050506040513d602081101561094757600080fd5b5051604080517fa9059cbb000000000000000000000000000000000000000000000000000000008152336004820152602481018490529051600160a060020a039092169163a9059cbb916044808201926020929091908290030181600087803b1580156109b357600080fd5b505af11580156109c7573d6000803e3d6000fd5b505050506040513d60208110156109dd57600080fd5b5050604080518281529051839133917fedd6e26b9ac727e55b60bc6d930f3ea8d1297cb24e896356ddcfbb095cae7d2a9181900360200190a3505050565b60009081526004602052604090205460ff1690565b610a38610aa9565b1515610a4357600080fd5b60008054604051600160a060020a03909116907f8be0079c531659141344cd1fd0a4f28419497f9722a3daafe3b4186f6b6457e0908390a36000805473ffffffffffffffffffffffffffffffffffffffff19169055565b600054600160a060020a031690565b600054600160a060020a0316331490565b600254600154604080517f9be2faed000000000000000000000000000000000000000000000000000000008152306004820152600160a060020a03928316602482015290516000939290921691639be2faed91604480820192602092909190829003018186803b158015610b2d57600080fd5b505afa158015610b41573d6000803e3d6000fd5b505050506040513d6020811015610b5757600080fd5b50511515610baf576040805160e560020a62461bcd02815260206004820152601860248201527f536368656d65206973206e6f7420726567697374657265640000000000000000604482015290519081900360640190fd5b600083836020811015610bc157600080fd5b503560008181526004602052604090205490915060ff1615610c2d576040805160e560020a62461bcd02815260206004820152601360248201527f4861736820616c726561647920696e2075736500000000000000000000000000604482015290519081900360640190fd5b600160009054906101000a9004600160a060020a0316600160a060020a031663e1758bd86040518163ffffffff1660e060020a02815260040160206040518083038186803b158015610c7e57600080fd5b505afa158015610c92573d6000803e3d6000fd5b505050506040513d6020811015610ca857600080fd5b5051600160a060020a03163314610d09576040805160e560020a62461bcd02815260206004820152601560248201527f4f6e6c792063616c6c61626c6520627920746869730000000000000000000000604482015290519081900360640190fd5b6040805160608101825260018082526020808301898152600160a060020a038b81168587018181526000898152600486528890209651875460ff191690151517875592519486019490945590516002909401805473ffffffffffffffffffffffffffffffffffffffff191694909116939093179092558251848152918201889052825190927f97ca182dc20544b48078c7a1033923acd3e251359ee15fe48576935ac6144b4f928290030190a250600195945050505050565b610dca610aa9565b1515610dd557600080fd5b610dde81610de1565b50565b600160a060020a0381161515610df657600080fd5b60008054604051600160a060020a03808516939216917f8be0079c531659141344cd1fd0a4f28419497f9722a3daafe3b4186f6b6457e091a36000805473ffffffffffffffffffffffffffffffffffffffff1916600160a060020a039290921691909117905556fe4f6e6c792063616c6c61626c6520627920617661746172206f66206f776e6572206f72206f776e6572a165627a7a72305820d607eb148cc2790293296eae5e8525b07729b37fa9a6a70ff881386aa62286110029",
  "source": "pragma solidity 0.5.4;\n\nimport \"@daostack/arc/contracts/controller/Avatar.sol\";\nimport \"openzeppelin-solidity/contracts/math/SafeMath.sol\";\n\nimport \"./SchemeGuard.sol\";\n\n/* @title One Time payment scheme\n * Scheme that allows address to deposit tokens for any address to withdraw\n *\n * Note that this current implementation suffers from the possibility that\n * Malicious users could frontrun any withdrawal by listening to and then \n * copying any transaction before it is confirmed and raising gas price\n * to ensure it is picked up first. \n */\ncontract OneTimePayments is SchemeGuard {\n    using SafeMath for uint256;\n\n    uint256 gasLimit;\n\n    struct Payment {\n        bool hasPayment;\n        uint256 paymentAmount;\n        address paymentSender;\n    }\n\n    mapping(bytes32 => Payment) payments;\n\n    event PaymentDeposited(address indexed from, bytes32 hash, uint256 amount);\n    event PaymentCancelled(address indexed from, bytes32 hash, uint256 amount);\n    event PaymentWithdrawn(address indexed to, bytes32 indexed hash, uint256 amount);\n\n    constructor(\n        Avatar _avatar,\n        uint256 _gasLimit\n    )\n        public\n        SchemeGuard(_avatar)\n    {\n        gasLimit = _gasLimit;\n    }\n    \n    /* @dev ERC677 on transfer function. When transferAndCall is called, the non-taxed \n     * remainder of the transfer is stored in a payment under a hash of the given data.\n     * @param sender the address of the sender\n     * @param value the amount to deposit\n     * @param data The given hash\n     */\n    function onTokenTransfer(address sender, uint256 value, bytes calldata data)\n        external\n        onlyRegistered\n        returns (bool)\n    {\n        bytes32 hash = abi.decode(data, (bytes32));\n\n        require(!payments[hash].hasPayment, \"Hash already in use\");\n        require(msg.sender == address(avatar.nativeToken()), \"Only callable by this\");\n\n        payments[hash] = Payment(true, value, sender);\n\n        emit PaymentDeposited(sender, hash, value);\n\n        return true;\n    }\n\n    /* @dev [WIP] Withdrawal function. \n     * allows users with the original string of a hash to\n     * withdraw a payment. Currently vulnerable to frontrunning\n     * @pram code The string to encode into hash of payment\n     */\n    function withdraw(string memory code) public onlyRegistered {\n        require(gasleft() < gasLimit, \"Cannot exceed gas limit\");\n\n        bytes32 hash = keccak256(abi.encodePacked(code));\n\n        require(payments[hash].hasPayment, \"Hash not in use\");\n\n        uint256 value = payments[hash].paymentAmount;\n        payments[hash].hasPayment = false;\n\n        avatar.nativeToken().transfer(msg.sender, value);\n\n        emit PaymentWithdrawn(msg.sender, hash, value);\n    }\n\n    /* @dev function to check if a payment hash is in use\n     * @param hash the given bytes32 hash\n     */\n    function hasPayment(bytes32 hash) public view returns (bool) {\n        return payments[hash].hasPayment;\n    }\n}\n",
  "sourcePath": "/Users/madsjorgensen/Documents/Work/GoodContracts/contracts/dao/schemes/OneTimePayments.sol",
  "compiler": {
    "name": "solc",
    "version": "0.5.4+commit.9549d8ff.Emscripten.clang"
  },
  "schemaVersion": "3.0.11",
  "updatedAt": "2019-09-11T12:15:50.824Z",
  "devdoc": {
    "methods": {
      "isOwner()": {
        "return": "true if `msg.sender` is the owner of the contract."
      },
      "owner()": {
        "return": "the address of the owner."
      },
      "renounceOwnership()": {
        "details": "Allows the current owner to relinquish control of the contract."
      },
      "transferOwnership(address)": {
        "details": "Allows the current owner to transfer control of the contract to a newOwner.",
        "params": {
          "newOwner": "The address to transfer ownership to."
        }
      }
    }
  },
  "userdoc": {
    "methods": {
      "renounceOwnership()": {
        "notice": "Renouncing to ownership will leave the contract without an owner. It will not be possible to call the functions with the `onlyOwner` modifier anymore."
      }
    }
  }
}