{
  "contractName": "RedemptionFunctional",
  "abi": [
    {
      "constant": true,
      "inputs": [],
      "name": "identity",
      "outputs": [
        {
          "name": "",
          "type": "address"
        }
      ],
      "payable": false,
      "stateMutability": "view",
      "type": "function",
      "signature": "0x2c159a1a"
    },
    {
      "constant": false,
      "inputs": [],
      "name": "renounceOwnership",
      "outputs": [],
      "payable": false,
      "stateMutability": "nonpayable",
      "type": "function",
      "signature": "0x715018a6"
    },
    {
      "constant": true,
      "inputs": [],
      "name": "data",
      "outputs": [
        {
          "name": "",
          "type": "address"
        }
      ],
      "payable": false,
      "stateMutability": "view",
      "type": "function",
      "signature": "0x73d4a13a"
    },
    {
      "constant": true,
      "inputs": [],
      "name": "market",
      "outputs": [
        {
          "name": "",
          "type": "address"
        }
      ],
      "payable": false,
      "stateMutability": "view",
      "type": "function",
      "signature": "0x80f55605"
    },
    {
      "constant": true,
      "inputs": [],
      "name": "owner",
      "outputs": [
        {
          "name": "",
          "type": "address"
        }
      ],
      "payable": false,
      "stateMutability": "view",
      "type": "function",
      "signature": "0x8da5cb5b"
    },
    {
      "constant": true,
      "inputs": [],
      "name": "isOwner",
      "outputs": [
        {
          "name": "",
          "type": "bool"
        }
      ],
      "payable": false,
      "stateMutability": "view",
      "type": "function",
      "signature": "0x8f32d59b"
    },
    {
      "constant": false,
      "inputs": [
        {
          "name": "newOwner",
          "type": "address"
        }
      ],
      "name": "transferOwnership",
      "outputs": [],
      "payable": false,
      "stateMutability": "nonpayable",
      "type": "function",
      "signature": "0xf2fde38b"
    },
    {
      "inputs": [
        {
          "name": "_identity_contract",
          "type": "address"
        },
        {
          "name": "_data_contract",
          "type": "address"
        },
        {
          "name": "_token",
          "type": "address"
        }
      ],
      "payable": false,
      "stateMutability": "nonpayable",
      "type": "constructor",
      "signature": "constructor"
    },
    {
      "anonymous": false,
      "inputs": [
        {
          "indexed": false,
          "name": "base",
          "type": "uint256"
        },
        {
          "indexed": false,
          "name": "interest",
          "type": "uint256"
        },
        {
          "indexed": false,
          "name": "total",
          "type": "uint256"
        }
      ],
      "name": "ClaimCalculated",
      "type": "event",
      "signature": "0x76b03c1ddb0eed95349136d3ad39d1ac569f094ada768b7d7d248dee9b5c60a5"
    },
    {
      "anonymous": false,
      "inputs": [
        {
          "indexed": true,
          "name": "previousOwner",
          "type": "address"
        },
        {
          "indexed": true,
          "name": "newOwner",
          "type": "address"
        }
      ],
      "name": "OwnershipTransferred",
      "type": "event",
      "signature": "0x8be0079c531659141344cd1fd0a4f28419497f9722a3daafe3b4186f6b6457e0"
    },
    {
      "constant": true,
      "inputs": [],
      "name": "getLastClaimed",
      "outputs": [
        {
          "name": "",
          "type": "uint256"
        }
      ],
      "payable": false,
      "stateMutability": "view",
      "type": "function",
      "signature": "0x00f1ec20"
    },
    {
      "constant": false,
      "inputs": [],
      "name": "claimTokens",
      "outputs": [
        {
          "name": "",
          "type": "bool"
        }
      ],
      "payable": false,
      "stateMutability": "nonpayable",
      "type": "function",
      "signature": "0x48c54b9d"
    },
    {
      "constant": true,
      "inputs": [],
      "name": "checkEntitlement",
      "outputs": [
        {
          "name": "",
          "type": "uint256"
        }
      ],
      "payable": false,
      "stateMutability": "view",
      "type": "function",
      "signature": "0x98d6621b"
    }
  ],
  "bytecode": "0x608060405234801561001057600080fd5b50604051606080610b708339810180604052606081101561003057600080fd5b508051602082015160409283015160008054600160a060020a03191633178082559451939492939192600160a060020a0316917f8be0079c531659141344cd1fd0a4f28419497f9722a3daafe3b4186f6b6457e0908290a360018054600160a060020a03948516600160a060020a031991821617909155600280549385169382169390931790925560038054919093169116179055610a9c806100d46000396000f3fe6080604052600436106100895763ffffffff60e060020a600035041662f1ec20811461008e5780632c159a1a146100b557806348c54b9d146100e6578063715018a61461010f57806373d4a13a1461012657806380f556051461013b5780638da5cb5b146101505780638f32d59b1461016557806398d6621b1461017a578063f2fde38b1461018f575b600080fd5b34801561009a57600080fd5b506100a36101c2565b60408051918252519081900360200190f35b3480156100c157600080fd5b506100ca610257565b60408051600160a060020a039092168252519081900360200190f35b3480156100f257600080fd5b506100fb610266565b604080519115158252519081900360200190f35b34801561011b57600080fd5b506101246104ea565b005b34801561013257600080fd5b506100ca610554565b34801561014757600080fd5b506100ca610563565b34801561015c57600080fd5b506100ca610572565b34801561017157600080fd5b506100fb610581565b34801561018657600080fd5b506100a3610592565b34801561019b57600080fd5b50610124600480360360208110156101b257600080fd5b5035600160a060020a03166106e6565b600254604080517f799cb3b40000000000000000000000000000000000000000000000000000000081523360048201529051600092600160a060020a03169163799cb3b4916024808301926020929190829003018186803b15801561022657600080fd5b505afa15801561023a573d6000803e3d6000fd5b505050506040513d602081101561025057600080fd5b5051905090565b600154600160a060020a031681565b600154604080517fb9209e3300000000000000000000000000000000000000000000000000000000815233600482015290516000928392600160a060020a039091169163b9209e3391602480820192602092909190829003018186803b1580156102cf57600080fd5b505afa1580156102e3573d6000803e3d6000fd5b505050506040513d60208110156102f957600080fd5b5051905080151561030957600080fd5b600254604080517f799cb3b400000000000000000000000000000000000000000000000000000000815233600482015290514292600160a060020a03169163799cb3b4916024808301926020929190829003018186803b15801561036c57600080fd5b505afa158015610380573d6000803e3d6000fd5b505050506040513d602081101561039657600080fd5b50516201518001106103a757600080fd5b600254604080517f130cf3450000000000000000000000000000000000000000000000000000000081523360048201529051600160a060020a039092169163130cf345916024808201926020929091908290030181600087803b15801561040d57600080fd5b505af1158015610421573d6000803e3d6000fd5b505050506040513d602081101561043757600080fd5b5060009050610444610705565b600354604080517f40c10f19000000000000000000000000000000000000000000000000000000008152336004820152602481018490529051929350600160a060020a03909116916340c10f19916044808201926020929091908290030181600087803b1580156104b457600080fd5b505af11580156104c8573d6000803e3d6000fd5b505050506040513d60208110156104de57600080fd5b506001935050505b5090565b6104f2610581565b15156104fd57600080fd5b60008054604051600160a060020a03909116907f8be0079c531659141344cd1fd0a4f28419497f9722a3daafe3b4186f6b6457e0908390a36000805473ffffffffffffffffffffffffffffffffffffffff19169055565b600254600160a060020a031681565b600354600160a060020a031681565b600054600160a060020a031690565b600054600160a060020a0316331490565b600154604080517fb9209e3300000000000000000000000000000000000000000000000000000000815233600482015290516000928392600160a060020a039091169163b9209e3391602480820192602092909190829003018186803b1580156105fb57600080fd5b505afa15801561060f573d6000803e3d6000fd5b505050506040513d602081101561062557600080fd5b5051905080151561063557600080fd5b600254604080517f799cb3b400000000000000000000000000000000000000000000000000000000815233600482015290514292600160a060020a03169163799cb3b4916024808301926020929190829003018186803b15801561069857600080fd5b505afa1580156106ac573d6000803e3d6000fd5b505050506040513d60208110156106c257600080fd5b5051620151800111156106d857600091506104e6565b6106e0610705565b91505090565b6106ee610581565b15156106f957600080fd5b61070281610974565b50565b600354604080517f31f9e35b000000000000000000000000000000000000000000000000000000008152905160009260649284926107a592600160a060020a0316916331f9e35b916004808301926020929190829003018186803b15801561076c57600080fd5b505afa158015610780573d6000803e3d6000fd5b505050506040513d602081101561079657600080fd5b5051839063ffffffff6109f116565b90506000610836600360009054906101000a9004600160a060020a0316600160a060020a03166318160ddd6040518163ffffffff1660e060020a02815260040160206040518083038186803b1580156107fd57600080fd5b505afa158015610811573d6000803e3d6000fd5b505050506040513d602081101561082757600080fd5b5051839063ffffffff610a0c16565b9050610848818463ffffffff610a3716565b90506108d7600360009054906101000a9004600160a060020a0316600160a060020a03166318160ddd6040518163ffffffff1660e060020a02815260040160206040518083038186803b15801561089e57600080fd5b505afa1580156108b2573d6000803e3d6000fd5b505050506040513d60208110156108c857600080fd5b5051829063ffffffff610a5b16565b9050600061096b600160009054906101000a9004600160a060020a0316600160a060020a03166358e0bef46040518163ffffffff1660e060020a02815260040160206040518083038186803b15801561092f57600080fd5b505afa158015610943573d6000803e3d6000fd5b505050506040513d602081101561095957600080fd5b5051839060ff1663ffffffff610a3716565b94505050505090565b600160a060020a038116151561098957600080fd5b60008054604051600160a060020a03808516939216917f8be0079c531659141344cd1fd0a4f28419497f9722a3daafe3b4186f6b6457e091a36000805473ffffffffffffffffffffffffffffffffffffffff1916600160a060020a0392909216919091179055565b600082820183811015610a0357600080fd5b90505b92915050565b6000821515610a1d57506000610a06565b828202828482811515610a2c57fe5b0414610a0357600080fd5b6000808211610a4557600080fd5b60008284811515610a5257fe5b04949350505050565b600082821115610a6a57600080fd5b5090039056fea165627a7a7230582007da6d35e1c12b897272cf42193df8c7b461e51b729b52d1bbb6d442b2b0ee630029",
  "source": "pragma solidity ^0.5.0;\r\n\r\nimport 'openzeppelin-solidity/contracts/math/SafeMath.sol';\r\nimport 'openzeppelin-solidity/contracts/ownership/Ownable.sol';\r\n\r\nimport './GoodDollarReserve.sol';\r\nimport './RedemptionData.sol';\r\nimport './Identity.sol';\r\n\r\ncontract RedemptionFunctional is Ownable {\r\n    using SafeMath for uint256;\r\n\r\n    Identity public identity;\r\n    RedemptionData public data;\r\n    GoodDollarReserve public market;\r\n\r\n    event ClaimCalculated(uint256 base, uint256 interest, uint256 total);\r\n\r\n    modifier whiteListed() {\r\n        bool check = identity.isVerified(msg.sender);\r\n        require(check);\r\n        _;\r\n    }  \r\n\r\n    constructor(address _identity_contract, address _data_contract, address _token) public {\r\n        identity = Identity(_identity_contract);\r\n        data = RedemptionData(_data_contract);\r\n        market = GoodDollarReserve(_token);\r\n    }\r\n\r\n    \r\n\r\n    function getLastClaimed() public view returns(uint256) {\r\n        return data.getLastClaimed(msg.sender);\r\n    }\r\n\r\n\r\n\r\n    function calculateClaim() internal view returns(uint256) {\r\n        uint256 base = 100;\r\n        uint256 interest = base.add(market.inflationRate());\r\n        uint256 total = interest.mul(market.totalSupply());\r\n        total = total.div(base);\r\n        // total at this point is the existing supply plus\r\n        // the suggested total interest, so we need to remove\r\n        // the existing supply - what was causing the issue\r\n        // in the earlier calculation.\r\n        total = total.sub(market.totalSupply());\r\n        uint256 amount = total.div(identity.whiteListedUserCount());\r\n        //emit ClaimCalculated(base,interest,total);\r\n        return amount;\r\n    }\r\n\r\n    function claimTokens() public whiteListed returns(bool) {\r\n        require(data.getLastClaimed(msg.sender) + 1 days < now);\r\n\r\n        data.setLastClaimed(msg.sender);\r\n        uint256 amount = calculateClaim();\r\n        market.mint(msg.sender, amount);\r\n\r\n        return true;\r\n    }\r\n    /**\r\n     * @dev Function to check how many tokens a user is entitled to mint\r\n     * @return Number of tokens you are entitled to\r\n     */\r\n    function checkEntitlement() public whiteListed view returns(uint) {\r\n        if(data.getLastClaimed(msg.sender) + 1 days > now)\r\n          return 0;\r\n        return calculateClaim();\r\n    }\r\n}\r\n",
  "sourcePath": "C:/Users/hadarro/Documents/GoodDollar/GoodContracts/contracts/RedemptionFunctional.sol",
  "compiler": {
    "name": "solc",
    "version": "0.5.0+commit.1d4f565a.Emscripten.clang"
  },
  "schemaVersion": "3.0.1",
  "updatedAt": "2019-02-05T12:35:42.221Z",
  "devdoc": {
    "methods": {
      "checkEntitlement()": {
        "details": "Function to check how many tokens a user is entitled to mint\r",
        "return": "Number of tokens you are entitled to\r"
      },
      "isOwner()": {
        "return": "true if `msg.sender` is the owner of the contract."
      },
      "owner()": {
        "return": "the address of the owner."
      },
      "renounceOwnership()": {
        "details": "Allows the current owner to relinquish control of the contract."
      },
      "transferOwnership(address)": {
        "details": "Allows the current owner to transfer control of the contract to a newOwner.",
        "params": {
          "newOwner": "The address to transfer ownership to."
        }
      }
    }
  },
  "userdoc": {
    "methods": {
      "renounceOwnership()": {
        "notice": "Renouncing to ownership will leave the contract without an owner. It will not be possible to call the functions with the `onlyOwner` modifier anymore."
      }
    }
  }
}