{
  "contractName": "RedemptionData",
  "abi": [
    {
      "constant": false,
      "inputs": [],
      "name": "renounceOwnership",
      "outputs": [],
      "payable": false,
      "stateMutability": "nonpayable",
      "type": "function",
      "signature": "0x715018a6"
    },
    {
      "constant": true,
      "inputs": [],
      "name": "owner",
      "outputs": [
        {
          "name": "",
          "type": "address"
        }
      ],
      "payable": false,
      "stateMutability": "view",
      "type": "function",
      "signature": "0x8da5cb5b"
    },
    {
      "constant": true,
      "inputs": [],
      "name": "isOwner",
      "outputs": [
        {
          "name": "",
          "type": "bool"
        }
      ],
      "payable": false,
      "stateMutability": "view",
      "type": "function",
      "signature": "0x8f32d59b"
    },
    {
      "constant": false,
      "inputs": [
        {
          "name": "newOwner",
          "type": "address"
        }
      ],
      "name": "transferOwnership",
      "outputs": [],
      "payable": false,
      "stateMutability": "nonpayable",
      "type": "function",
      "signature": "0xf2fde38b"
    },
    {
      "inputs": [],
      "payable": false,
      "stateMutability": "nonpayable",
      "type": "constructor",
      "signature": "constructor"
    },
    {
      "anonymous": false,
      "inputs": [
        {
          "indexed": true,
          "name": "Account",
          "type": "address"
        },
        {
          "indexed": false,
          "name": "Time",
          "type": "uint256"
        }
      ],
      "name": "SetClaim",
      "type": "event",
      "signature": "0xfeade32aeee64616e3e6ab962ce2f5ac32e4224847165dbc4f9df38e93f56d68"
    },
    {
      "anonymous": false,
      "inputs": [
        {
          "indexed": true,
          "name": "previousOwner",
          "type": "address"
        },
        {
          "indexed": true,
          "name": "newOwner",
          "type": "address"
        }
      ],
      "name": "OwnershipTransferred",
      "type": "event",
      "signature": "0x8be0079c531659141344cd1fd0a4f28419497f9722a3daafe3b4186f6b6457e0"
    },
    {
      "constant": true,
      "inputs": [
        {
          "name": "_account",
          "type": "address"
        }
      ],
      "name": "getLastClaimed",
      "outputs": [
        {
          "name": "",
          "type": "uint256"
        }
      ],
      "payable": false,
      "stateMutability": "view",
      "type": "function",
      "signature": "0x799cb3b4"
    },
    {
      "constant": false,
      "inputs": [
        {
          "name": "_account",
          "type": "address"
        }
      ],
      "name": "setLastClaimed",
      "outputs": [
        {
          "name": "",
          "type": "bool"
        }
      ],
      "payable": false,
      "stateMutability": "nonpayable",
      "type": "function",
      "signature": "0x130cf345"
    }
  ],
  "bytecode": "0x608060405234801561001057600080fd5b5060008054600160a060020a0319163317808255604051600160a060020a039190911691907f8be0079c531659141344cd1fd0a4f28419497f9722a3daafe3b4186f6b6457e0908290a3610351806100696000396000f3fe6080604052600436106100775763ffffffff7c0100000000000000000000000000000000000000000000000000000000600035041663130cf345811461007c578063715018a6146100c3578063799cb3b4146100da5780638da5cb5b1461011f5780638f32d59b14610150578063f2fde38b14610165575b600080fd5b34801561008857600080fd5b506100af6004803603602081101561009f57600080fd5b5035600160a060020a0316610198565b604080519115158252519081900360200190f35b3480156100cf57600080fd5b506100d86101ce565b005b3480156100e657600080fd5b5061010d600480360360208110156100fd57600080fd5b5035600160a060020a0316610238565b60408051918252519081900360200190f35b34801561012b57600080fd5b50610134610269565b60408051600160a060020a039092168252519081900360200190f35b34801561015c57600080fd5b506100af610278565b34801561017157600080fd5b506100d86004803603602081101561018857600080fd5b5035600160a060020a0316610289565b60006101a2610278565b15156101ad57600080fd5b50600160a060020a0316600090815260016020819052604090912042905590565b6101d6610278565b15156101e157600080fd5b60008054604051600160a060020a03909116907f8be0079c531659141344cd1fd0a4f28419497f9722a3daafe3b4186f6b6457e0908390a36000805473ffffffffffffffffffffffffffffffffffffffff19169055565b6000610242610278565b151561024d57600080fd5b50600160a060020a031660009081526001602052604090205490565b600054600160a060020a031690565b600054600160a060020a0316331490565b610291610278565b151561029c57600080fd5b6102a5816102a8565b50565b600160a060020a03811615156102bd57600080fd5b60008054604051600160a060020a03808516939216917f8be0079c531659141344cd1fd0a4f28419497f9722a3daafe3b4186f6b6457e091a36000805473ffffffffffffffffffffffffffffffffffffffff1916600160a060020a039290921691909117905556fea165627a7a72305820287092f77d2baac2e929635e7ea005db15c512d377d64abc8155803ee90c623d0029",
  "source": "pragma solidity ^0.5.0;\r\n\r\nimport 'openzeppelin-solidity/contracts/token/ERC20/ERC20.sol';\r\nimport 'openzeppelin-solidity/contracts/ownership/Ownable.sol';\r\n\r\ncontract RedemptionData is Ownable {\r\n    mapping(address => uint256) private last_claimed;\r\n\r\n\r\n    event SetClaim(address indexed Account, uint256 Time);\r\n\r\n    constructor() public {\r\n    }\r\n\r\n    function getLastClaimed(\r\n        address _account\r\n    ) public view onlyOwner returns(uint256) {\r\n        return last_claimed[_account]; \r\n    }\r\n\r\n    function setLastClaimed(\r\n        address _account\r\n    ) public onlyOwner returns(bool) {\r\n        last_claimed[_account] = now;\r\n        return true;\r\n    }\r\n    \r\n}\r\n",
  "sourcePath": "C:\\Users\\hadarro\\Documents\\GoodDollar\\GoodContracts\\contracts\\RedemptionData.sol",
  "compiler": {
    "name": "solc",
    "version": "0.5.0+commit.1d4f565a.Emscripten.clang"
  },
  "schemaVersion": "3.0.1",
  "updatedAt": "2019-02-20T10:52:46.427Z",
  "devdoc": {
    "methods": {
      "isOwner()": {
        "return": "true if `msg.sender` is the owner of the contract."
      },
      "owner()": {
        "return": "the address of the owner."
      },
      "renounceOwnership()": {
        "details": "Allows the current owner to relinquish control of the contract."
      },
      "transferOwnership(address)": {
        "details": "Allows the current owner to transfer control of the contract to a newOwner.",
        "params": {
          "newOwner": "The address to transfer ownership to."
        }
      }
    }
  },
  "userdoc": {
    "methods": {
      "renounceOwnership()": {
        "notice": "Renouncing to ownership will leave the contract without an owner. It will not be possible to call the functions with the `onlyOwner` modifier anymore."
      }
    }
  }
}