{
  "contractName": "RedemptionData",
  "abi": [
    {
      "constant": false,
      "inputs": [],
      "name": "renounceOwnership",
      "outputs": [],
      "payable": false,
      "stateMutability": "nonpayable",
      "type": "function"
    },
    {
      "constant": true,
      "inputs": [],
      "name": "owner",
      "outputs": [
        {
          "name": "",
          "type": "address"
        }
      ],
      "payable": false,
      "stateMutability": "view",
      "type": "function"
    },
    {
      "constant": true,
      "inputs": [],
      "name": "isOwner",
      "outputs": [
        {
          "name": "",
          "type": "bool"
        }
      ],
      "payable": false,
      "stateMutability": "view",
      "type": "function"
    },
    {
      "constant": false,
      "inputs": [
        {
          "name": "newOwner",
          "type": "address"
        }
      ],
      "name": "transferOwnership",
      "outputs": [],
      "payable": false,
      "stateMutability": "nonpayable",
      "type": "function"
    },
    {
      "inputs": [],
      "payable": false,
      "stateMutability": "nonpayable",
      "type": "constructor"
    },
    {
      "anonymous": false,
      "inputs": [
        {
          "indexed": true,
          "name": "Account",
          "type": "address"
        },
        {
          "indexed": false,
          "name": "Time",
          "type": "uint256"
        }
      ],
      "name": "SetClaim",
      "type": "event"
    },
    {
      "anonymous": false,
      "inputs": [
        {
          "indexed": true,
          "name": "previousOwner",
          "type": "address"
        },
        {
          "indexed": true,
          "name": "newOwner",
          "type": "address"
        }
      ],
      "name": "OwnershipTransferred",
      "type": "event"
    },
    {
      "constant": true,
      "inputs": [
        {
          "name": "_account",
          "type": "address"
        }
      ],
      "name": "getLastClaimed",
      "outputs": [
        {
          "name": "",
          "type": "uint256"
        }
      ],
      "payable": false,
      "stateMutability": "view",
      "type": "function"
    },
    {
      "constant": false,
      "inputs": [
        {
          "name": "_account",
          "type": "address"
        }
      ],
      "name": "setLastClaimed",
      "outputs": [
        {
          "name": "",
          "type": "bool"
        }
      ],
      "payable": false,
      "stateMutability": "nonpayable",
      "type": "function"
    }
  ],
  "bytecode": "0x608060405234801561001057600080fd5b5060008054600160a060020a0319163317808255604051600160a060020a039190911691907f8be0079c531659141344cd1fd0a4f28419497f9722a3daafe3b4186f6b6457e0908290a361030a806100696000396000f3fe608060405234801561001057600080fd5b506004361061007e577c01000000000000000000000000000000000000000000000000000000006000350463130cf3458114610083578063715018a6146100bd578063799cb3b4146100c75780638da5cb5b146100ff5780638f32d59b14610123578063f2fde38b1461012b575b600080fd5b6100a96004803603602081101561009957600080fd5b5035600160a060020a0316610151565b604080519115158252519081900360200190f35b6100c5610187565b005b6100ed600480360360208110156100dd57600080fd5b5035600160a060020a03166101f1565b60408051918252519081900360200190f35b610107610222565b60408051600160a060020a039092168252519081900360200190f35b6100a9610231565b6100c56004803603602081101561014157600080fd5b5035600160a060020a0316610242565b600061015b610231565b151561016657600080fd5b50600160a060020a0316600090815260016020819052604090912042905590565b61018f610231565b151561019a57600080fd5b60008054604051600160a060020a03909116907f8be0079c531659141344cd1fd0a4f28419497f9722a3daafe3b4186f6b6457e0908390a36000805473ffffffffffffffffffffffffffffffffffffffff19169055565b60006101fb610231565b151561020657600080fd5b50600160a060020a031660009081526001602052604090205490565b600054600160a060020a031690565b600054600160a060020a0316331490565b61024a610231565b151561025557600080fd5b61025e81610261565b50565b600160a060020a038116151561027657600080fd5b60008054604051600160a060020a03808516939216917f8be0079c531659141344cd1fd0a4f28419497f9722a3daafe3b4186f6b6457e091a36000805473ffffffffffffffffffffffffffffffffffffffff1916600160a060020a039290921691909117905556fea165627a7a72305820b4592ce9a48327cb06c235c9098b6d1c8d7fd454d01af87091a09212fe6e64ec0029",
  "source": "pragma solidity ^0.5.0;\n\nimport 'openzeppelin-solidity/contracts/token/ERC20/ERC20.sol';\nimport 'openzeppelin-solidity/contracts/ownership/Ownable.sol';\n\ncontract RedemptionData is Ownable {\n    mapping(address => uint256) private last_claimed;\n\n\n    event SetClaim(address indexed Account, uint256 Time);\n\n    constructor() public {\n    }\n\n    function getLastClaimed(\n        address _account\n    ) public view onlyOwner returns(uint256) {\n        return last_claimed[_account]; \n    }\n\n    function setLastClaimed(\n        address _account\n    ) public onlyOwner returns(bool) {\n        last_claimed[_account] = now;\n        return true;\n    }\n    \n}\n",
  "sourcePath": "/Users/hadar/workspace/GoodDollar/GoodBootstrap/packages/contracts/contracts/RedemptionData.sol",
  "compiler": {
    "name": "solc",
    "version": "0.5.2+commit.1df8f40c.Emscripten.clang"
  },
  "schemaVersion": "3.0.9",
  "updatedAt": "2019-08-13T14:06:31.981Z",
  "devdoc": {
    "methods": {
      "isOwner()": {
        "return": "true if `msg.sender` is the owner of the contract."
      },
      "owner()": {
        "return": "the address of the owner."
      },
      "renounceOwnership()": {
        "details": "Allows the current owner to relinquish control of the contract. It will not be possible to call the functions with the `onlyOwner` modifier anymore."
      },
      "transferOwnership(address)": {
        "details": "Allows the current owner to transfer control of the contract to a newOwner.",
        "params": {
          "newOwner": "The address to transfer ownership to."
        }
      }
    }
  },
  "userdoc": {
    "methods": {
      "renounceOwnership()": {
        "notice": "Renouncing ownership will leave the contract without an owner, thereby removing any functionality that is only available to the owner."
      }
    }
  }
}