{
  "contractName": "RemoveAdmin",
  "abi": [
    {
      "constant": false,
      "inputs": [
        {
          "name": "_avatar",
          "type": "address"
        }
      ],
      "name": "setAvatar",
      "outputs": [],
      "payable": false,
      "stateMutability": "nonpayable",
      "type": "function"
    },
    {
      "constant": true,
      "inputs": [],
      "name": "isRegistered",
      "outputs": [
        {
          "name": "",
          "type": "bool"
        }
      ],
      "payable": false,
      "stateMutability": "view",
      "type": "function"
    },
    {
      "constant": true,
      "inputs": [],
      "name": "identity",
      "outputs": [
        {
          "name": "",
          "type": "address"
        }
      ],
      "payable": false,
      "stateMutability": "view",
      "type": "function"
    },
    {
      "constant": false,
      "inputs": [],
      "name": "renounceOwnership",
      "outputs": [],
      "payable": false,
      "stateMutability": "nonpayable",
      "type": "function"
    },
    {
      "constant": true,
      "inputs": [],
      "name": "owner",
      "outputs": [
        {
          "name": "",
          "type": "address"
        }
      ],
      "payable": false,
      "stateMutability": "view",
      "type": "function"
    },
    {
      "constant": true,
      "inputs": [],
      "name": "isOwner",
      "outputs": [
        {
          "name": "",
          "type": "bool"
        }
      ],
      "payable": false,
      "stateMutability": "view",
      "type": "function"
    },
    {
      "constant": false,
      "inputs": [
        {
          "name": "newOwner",
          "type": "address"
        }
      ],
      "name": "transferOwnership",
      "outputs": [],
      "payable": false,
      "stateMutability": "nonpayable",
      "type": "function"
    },
    {
      "constant": true,
      "inputs": [],
      "name": "admin",
      "outputs": [
        {
          "name": "",
          "type": "address"
        }
      ],
      "payable": false,
      "stateMutability": "view",
      "type": "function"
    },
    {
      "inputs": [
        {
          "name": "_avatar",
          "type": "address"
        },
        {
          "name": "_identity",
          "type": "address"
        },
        {
          "name": "_admin",
          "type": "address"
        }
      ],
      "payable": false,
      "stateMutability": "nonpayable",
      "type": "constructor"
    },
    {
      "anonymous": false,
      "inputs": [
        {
          "indexed": true,
          "name": "previousOwner",
          "type": "address"
        },
        {
          "indexed": true,
          "name": "newOwner",
          "type": "address"
        }
      ],
      "name": "OwnershipTransferred",
      "type": "event"
    },
    {
      "constant": false,
      "inputs": [],
      "name": "start",
      "outputs": [],
      "payable": false,
      "stateMutability": "nonpayable",
      "type": "function"
    }
  ],
  "bytecode": "0x608060405260028054600160a060020a031916905534801561002057600080fd5b50604051606080610a238339810180604052606081101561004057600080fd5b508051602082015160409283015160008054600160a060020a031916331780825594519394929391928592600160a060020a039190911691907f8be0079c531659141344cd1fd0a4f28419497f9722a3daafe3b4186f6b6457e0908290a360018054600160a060020a031916600160a060020a038381169190911791829055161561017b57600160009054906101000a9004600160a060020a0316600160a060020a0316638da5cb5b6040518163ffffffff167c010000000000000000000000000000000000000000000000000000000002815260040160206040518083038186803b15801561012f57600080fd5b505afa158015610143573d6000803e3d6000fd5b505050506040513d602081101561015957600080fd5b505160028054600160a060020a031916600160a060020a039092169190911790555b5081600160a060020a031663e5ecaf59826040518263ffffffff167c01000000000000000000000000000000000000000000000000000000000281526004018082600160a060020a0316600160a060020a0316815260200191505060206040518083038186803b1580156101ee57600080fd5b505afa158015610202573d6000803e3d6000fd5b505050506040513d602081101561021857600080fd5b5051151561028757604080517f08c379a000000000000000000000000000000000000000000000000000000000815260206004820152601a60248201527f476976656e2061646472657373206973206e6f742061646d696e000000000000604482015290519081900360640190fd5b60038054600160a060020a03938416600160a060020a0319918216179091556004805492909316911617905550610760806102c36000396000f3fe608060405234801561001057600080fd5b50600436106100b0576000357c0100000000000000000000000000000000000000000000000000000000900480638da5cb5b116100835780638da5cb5b146101255780638f32d59b1461012d578063be9a655514610135578063f2fde38b1461013d578063f851a44014610163576100b0565b8063086cfca8146100b557806322366844146100dd5780632c159a1a146100f9578063715018a61461011d575b600080fd5b6100db600480360360208110156100cb57600080fd5b5035600160a060020a031661016b565b005b6100e561025b565b604080519115158252519081900360200190f35b610101610387565b60408051600160a060020a039092168252519081900360200190f35b6100db610396565b610101610400565b6100e561040f565b6100db610420565b6100db6004803603602081101561015357600080fd5b5035600160a060020a0316610689565b6101016106a8565b61017361040f565b151561017e57600080fd5b6001805473ffffffffffffffffffffffffffffffffffffffff1916600160a060020a038381169190911791829055604080517f8da5cb5b00000000000000000000000000000000000000000000000000000000815290519290911691638da5cb5b91600480820192602092909190829003018186803b15801561020057600080fd5b505afa158015610214573d6000803e3d6000fd5b505050506040513d602081101561022a57600080fd5b50516002805473ffffffffffffffffffffffffffffffffffffffff1916600160a060020a0390921691909117905550565b600154600090600160a060020a031615156102d757604080517f08c379a000000000000000000000000000000000000000000000000000000000815260206004820152601160248201527f417661746172206973206e6f7420736574000000000000000000000000000000604482015290519081900360640190fd5b600254600154604080517f9be2faed000000000000000000000000000000000000000000000000000000008152306004820152600160a060020a03928316602482015290519190921691639be2faed916044808301926020929190829003018186803b15801561034657600080fd5b505afa15801561035a573d6000803e3d6000fd5b505050506040513d602081101561037057600080fd5b5051151561038057506000610384565b5060015b90565b600354600160a060020a031681565b61039e61040f565b15156103a957600080fd5b60008054604051600160a060020a03909116907f8be0079c531659141344cd1fd0a4f28419497f9722a3daafe3b4186f6b6457e0908390a36000805473ffffffffffffffffffffffffffffffffffffffff19169055565b600054600160a060020a031690565b600054600160a060020a0316331490565b61042861025b565b151561049557604080517f08c379a000000000000000000000000000000000000000000000000000000000815260206004820152601860248201527f536368656d65206973206e6f7420726567697374657265640000000000000000604482015290519081900360640190fd5b6002546003546004805460408051600160a060020a03928316602480830191909152825180830382018152604492830184526020810180517bffffffffffffffffffffffffffffffffffffffffffffffffffffffff167ff7d7f9cc0000000000000000000000000000000000000000000000000000000017815260015494517fd1b7089a0000000000000000000000000000000000000000000000000000000081529786169688018781529486169388018490526000606489018190526080938901938452825160848a01528251969099169863d1b7089a9892969495909490939260a4019190808383885b83811015610599578181015183820152602001610581565b50505050905090810190601f1680156105c65780820380516001836020036101000a031916815260200191505b5095505050505050600060405180830381600087803b1580156105e857600080fd5b505af11580156105fc573d6000803e3d6000fd5b505050506040513d6000823e601f3d908101601f19168201604090815281101561062557600080fd5b81516020830180519193928301929164010000000081111561064657600080fd5b8201602081018481111561065957600080fd5b815164010000000081118282018710171561067357600080fd5b5050600154600160a060020a0316945050505050ff5b61069161040f565b151561069c57600080fd5b6106a5816106b7565b50565b600454600160a060020a031681565b600160a060020a03811615156106cc57600080fd5b60008054604051600160a060020a03808516939216917f8be0079c531659141344cd1fd0a4f28419497f9722a3daafe3b4186f6b6457e091a36000805473ffffffffffffffffffffffffffffffffffffffff1916600160a060020a039290921691909117905556fea165627a7a72305820504df723821e3fc64fe32c06e31bf1dff6cbcd431f708deb3295dcc4f3105cbf0029",
  "source": "pragma solidity 0.5.4;\n\nimport \"@daostack/arc/contracts/controller/Avatar.sol\";\nimport \"@daostack/arc/contracts/controller/ControllerInterface.sol\";\n\nimport \"../../identity/Identity.sol\";\nimport \"./SchemeGuard.sol\";\n\n/* @title Scheme responsible for removing a given address from identity admins\n */\ncontract RemoveAdmin is SchemeGuard {\n\n    Identity public identity;\n    address public admin;\n\n    /* @dev Constructor. Reverts if given address is not an identity admin.\n     * @param _avatar The avatar of the DAO\n     * @param _identity The identity contract\n     * @param _admin The address to remove\n     */\n    constructor(\n        Avatar _avatar,\n        Identity _identity,\n        address _admin\n    )\n        public\n        SchemeGuard(_avatar)\n    {\n        require(_identity.isIdentityAdmin(_admin), \"Given address is not admin\");\n        identity = _identity;\n        admin = _admin;\n    }\n\n    /* @dev Starts scheme, removing the address from identity admins.\n     * Can only be called if scheme has been registered by the DAO.\n     * Self-destructs after removing admin, transferring any remaining\n     * ETH on the contract to the address of the avatar of the DAO.\n     */\n    function start() public onlyRegistered {\n\n        controller.genericCall(\n            address(identity),\n            abi.encodeWithSignature(\"removeIdentityAdmin(address)\", admin),\n            avatar,\n            0);\n\n        selfdestruct(address(avatar));\n    }\n}\n",
  "sourcePath": "/Users/hadar/workspace/GoodDollar/GoodBootstrap/packages/contracts/contracts/dao/schemes/RemoveAdmin.sol",
  "compiler": {
    "name": "solc",
    "version": "0.5.4+commit.9549d8ff.Emscripten.clang"
  },
  "schemaVersion": "3.0.16",
  "updatedAt": "2020-03-30T19:38:07.999Z",
  "devdoc": {
    "methods": {
      "isOwner()": {
        "return": "true if `msg.sender` is the owner of the contract."
      },
      "owner()": {
        "return": "the address of the owner."
      },
      "renounceOwnership()": {
        "details": "Allows the current owner to relinquish control of the contract."
      },
      "transferOwnership(address)": {
        "details": "Allows the current owner to transfer control of the contract to a newOwner.",
        "params": {
          "newOwner": "The address to transfer ownership to."
        }
      }
    }
  },
  "userdoc": {
    "methods": {
      "renounceOwnership()": {
        "notice": "Renouncing to ownership will leave the contract without an owner. It will not be possible to call the functions with the `onlyOwner` modifier anymore."
      }
    }
  }
}