{
  "contractName": "RemoveAdmin",
  "abi": [
    {
      "inputs": [
        {
          "internalType": "contract Avatar",
          "name": "_avatar",
          "type": "address"
        },
        {
          "internalType": "contract Identity",
          "name": "_identity",
          "type": "address"
        },
        {
          "internalType": "address",
          "name": "_admin",
          "type": "address"
        }
      ],
      "payable": false,
      "stateMutability": "nonpayable",
      "type": "constructor"
    },
    {
      "anonymous": false,
      "inputs": [
        {
          "indexed": true,
          "internalType": "address",
          "name": "previousOwner",
          "type": "address"
        },
        {
          "indexed": true,
          "internalType": "address",
          "name": "newOwner",
          "type": "address"
        }
      ],
      "name": "OwnershipTransferred",
      "type": "event"
    },
    {
      "constant": true,
      "inputs": [],
      "name": "admin",
      "outputs": [
        {
          "internalType": "address",
          "name": "",
          "type": "address"
        }
      ],
      "payable": false,
      "stateMutability": "view",
      "type": "function"
    },
    {
      "constant": true,
      "inputs": [],
      "name": "identity",
      "outputs": [
        {
          "internalType": "contract Identity",
          "name": "",
          "type": "address"
        }
      ],
      "payable": false,
      "stateMutability": "view",
      "type": "function"
    },
    {
      "constant": true,
      "inputs": [],
      "name": "isOwner",
      "outputs": [
        {
          "internalType": "bool",
          "name": "",
          "type": "bool"
        }
      ],
      "payable": false,
      "stateMutability": "view",
      "type": "function"
    },
    {
      "constant": true,
      "inputs": [],
      "name": "isRegistered",
      "outputs": [
        {
          "internalType": "bool",
          "name": "",
          "type": "bool"
        }
      ],
      "payable": false,
      "stateMutability": "view",
      "type": "function"
    },
    {
      "constant": true,
      "inputs": [
        {
          "internalType": "address",
          "name": "scheme",
          "type": "address"
        }
      ],
      "name": "isRegistered",
      "outputs": [
        {
          "internalType": "bool",
          "name": "",
          "type": "bool"
        }
      ],
      "payable": false,
      "stateMutability": "view",
      "type": "function"
    },
    {
      "constant": true,
      "inputs": [],
      "name": "owner",
      "outputs": [
        {
          "internalType": "address",
          "name": "",
          "type": "address"
        }
      ],
      "payable": false,
      "stateMutability": "view",
      "type": "function"
    },
    {
      "constant": false,
      "inputs": [],
      "name": "renounceOwnership",
      "outputs": [],
      "payable": false,
      "stateMutability": "nonpayable",
      "type": "function"
    },
    {
      "constant": false,
      "inputs": [
        {
          "internalType": "contract Avatar",
          "name": "_avatar",
          "type": "address"
        }
      ],
      "name": "setAvatar",
      "outputs": [],
      "payable": false,
      "stateMutability": "nonpayable",
      "type": "function"
    },
    {
      "constant": false,
      "inputs": [
        {
          "internalType": "address",
          "name": "newOwner",
          "type": "address"
        }
      ],
      "name": "transferOwnership",
      "outputs": [],
      "payable": false,
      "stateMutability": "nonpayable",
      "type": "function"
    },
    {
      "constant": false,
      "inputs": [],
      "name": "start",
      "outputs": [],
      "payable": false,
      "stateMutability": "nonpayable",
      "type": "function"
    }
  ],
  "bytecode": "0x6080604052600280546001600160a01b031916905534801561002057600080fd5b5060405161096c38038061096c8339818101604052606081101561004357600080fd5b5080516020820151604092830151600080546001600160a01b0319163317808255945193949293919285926001600160a01b039190911691907f8be0079c531659141344cd1fd0a4f28419497f9722a3daafe3b4186f6b6457e0908290a3600180546001600160a01b0319166001600160a01b038381169190911791829055161561016257600160009054906101000a90046001600160a01b03166001600160a01b0316638da5cb5b6040518163ffffffff1660e01b815260040160206040518083038186803b15801561011657600080fd5b505afa15801561012a573d6000803e3d6000fd5b505050506040513d602081101561014057600080fd5b5051600280546001600160a01b0319166001600160a01b039092169190911790555b50816001600160a01b031663e5ecaf59826040518263ffffffff1660e01b815260040180826001600160a01b03166001600160a01b0316815260200191505060206040518083038186803b1580156101b957600080fd5b505afa1580156101cd573d6000803e3d6000fd5b505050506040513d60208110156101e357600080fd5b5051610236576040805162461bcd60e51b815260206004820152601a60248201527f476976656e2061646472657373206973206e6f742061646d696e000000000000604482015290519081900360640190fd5b600380546001600160a01b039384166001600160a01b03199182161790915560048054929093169116179055506106fa806102726000396000f3fe608060405234801561001057600080fd5b506004361061009e5760003560e01c80638f32d59b116100665780638f32d59b1461011b578063be9a655514610123578063c3c5a5471461012b578063f2fde38b14610151578063f851a440146101775761009e565b8063086cfca8146100a357806322366844146100cb5780632c159a1a146100e7578063715018a61461010b5780638da5cb5b14610113575b600080fd5b6100c9600480360360208110156100b957600080fd5b50356001600160a01b031661017f565b005b6100d361023a565b604080519115158252519081900360200190f35b6100ef61024a565b604080516001600160a01b039092168252519081900360200190f35b6100c9610259565b6100ef6102b4565b6100d36102c3565b6100c96102d4565b6100d36004803603602081101561014157600080fd5b50356001600160a01b031661053e565b6100c96004803603602081101561016757600080fd5b50356001600160a01b031661062b565b6100ef610648565b6101876102c3565b61019057600080fd5b600180546001600160a01b0319166001600160a01b03838116919091179182905560408051638da5cb5b60e01b815290519290911691638da5cb5b91600480820192602092909190829003018186803b1580156101ec57600080fd5b505afa158015610200573d6000803e3d6000fd5b505050506040513d602081101561021657600080fd5b5051600280546001600160a01b0319166001600160a01b0390921691909117905550565b60006102453061053e565b905090565b6003546001600160a01b031681565b6102616102c3565b61026a57600080fd5b600080546040516001600160a01b03909116907f8be0079c531659141344cd1fd0a4f28419497f9722a3daafe3b4186f6b6457e0908390a3600080546001600160a01b0319169055565b6000546001600160a01b031690565b6000546001600160a01b0316331490565b6102dc61023a565b61032d576040805162461bcd60e51b815260206004820152601860248201527f536368656d65206973206e6f7420726567697374657265640000000000000000604482015290519081900360640190fd5b60025460035460048054604080516001600160a01b03928316602480830191909152825180830382018152604492830184526020810180516001600160e01b0316633df5fe7360e21b17815260015494516368db844d60e11b81529786169688018781529486169388018490526000606489018190526080938901938452825160848a01528251969099169863d1b7089a9892969495909490939260a4019190808383885b838110156103ea5781810151838201526020016103d2565b50505050905090810190601f1680156104175780820380516001836020036101000a031916815260200191505b5095505050505050600060405180830381600087803b15801561043957600080fd5b505af115801561044d573d6000803e3d6000fd5b505050506040513d6000823e601f3d908101601f19168201604090815281101561047657600080fd5b81516020830180516040519294929383019291908464010000000082111561049d57600080fd5b9083019060208201858111156104b257600080fd5b82516401000000008111828201881017156104cc57600080fd5b82525081516020918201929091019080838360005b838110156104f95781810151838201526020016104e1565b50505050905090810190601f1680156105265780820380516001836020036101000a031916815260200191505b5060405250506001546001600160a01b031692505050ff5b6001546000906001600160a01b0316610592576040805162461bcd60e51b8152602060048201526011602482015270105d985d185c881a5cc81b9bdd081cd95d607a1b604482015290519081900360640190fd5b60025460015460408051639be2faed60e01b81526001600160a01b038681166004830152928316602482015290519190921691639be2faed916044808301926020929190829003018186803b1580156105ea57600080fd5b505afa1580156105fe573d6000803e3d6000fd5b505050506040513d602081101561061457600080fd5b505161062257506000610626565b5060015b919050565b6106336102c3565b61063c57600080fd5b61064581610657565b50565b6004546001600160a01b031681565b6001600160a01b03811661066a57600080fd5b600080546040516001600160a01b03808516939216917f8be0079c531659141344cd1fd0a4f28419497f9722a3daafe3b4186f6b6457e091a3600080546001600160a01b0319166001600160a01b039290921691909117905556fea265627a7a723158206a43a42bf7eaf5991be29dcb0d4246fea288f22d514773a90e5355af5028ba8964736f6c63430005100032",
  "source": "pragma solidity >0.5.4;\n\nimport \"@daostack/arc/contracts/controller/Avatar.sol\";\nimport \"@daostack/arc/contracts/controller/ControllerInterface.sol\";\n\nimport \"../../identity/Identity.sol\";\nimport \"./SchemeGuard.sol\";\n\n/* @title Scheme responsible for removing a given address from identity admins\n */\ncontract RemoveAdmin is SchemeGuard {\n    Identity public identity;\n    address public admin;\n\n    /* @dev Constructor. Reverts if given address is not an identity admin.\n     * @param _avatar The avatar of the DAO\n     * @param _identity The identity contract\n     * @param _admin The address to remove\n     */\n    constructor(\n        Avatar _avatar,\n        Identity _identity,\n        address _admin\n    ) public SchemeGuard(_avatar) {\n        require(_identity.isIdentityAdmin(_admin), \"Given address is not admin\");\n        identity = _identity;\n        admin = _admin;\n    }\n\n    /* @dev Starts scheme, removing the address from identity admins.\n     * Can only be called if scheme has been registered by the DAO.\n     * Self-destructs after removing admin, transferring any remaining\n     * ETH on the contract to the address of the avatar of the DAO.\n     */\n    function start() public onlyRegistered {\n        controller.genericCall(\n            address(identity),\n            abi.encodeWithSignature(\"removeIdentityAdmin(address)\", admin),\n            avatar,\n            0\n        );\n\n        selfdestruct(address(avatar));\n    }\n}\n",
  "sourcePath": "/Users/hadar/workspace/GoodDollar/GoodBootstrap/packages/contracts/contracts/dao/schemes/RemoveAdmin.sol",
  "compiler": {
    "name": "solc",
    "version": "0.5.16+commit.9c3226ce.Emscripten.clang"
  },
  "schemaVersion": "3.2.3",
  "updatedAt": "2021-01-27T19:47:05.682Z",
  "devdoc": {
    "methods": {
      "isOwner()": {
        "return": "true if `msg.sender` is the owner of the contract."
      },
      "isRegistered()": {
        "details": "function to see if an avatar has been set and if this scheme is registered",
        "return": "true if scheme is registered"
      },
      "isRegistered(address)": {
        "details": "function to see if an avatar has been set and if this scheme is registered",
        "return": "true if scheme is registered"
      },
      "owner()": {
        "return": "the address of the owner."
      },
      "renounceOwnership()": {
        "details": "Allows the current owner to relinquish control of the contract."
      },
      "setAvatar(address)": {
        "details": "Function to set a new avatar and controller for scheme can only be done by owner of scheme"
      },
      "transferOwnership(address)": {
        "details": "Allows the current owner to transfer control of the contract to a newOwner.",
        "params": {
          "newOwner": "The address to transfer ownership to."
        }
      }
    }
  },
  "userdoc": {
    "methods": {
      "renounceOwnership()": {
        "notice": "Renouncing to ownership will leave the contract without an owner. It will not be possible to call the functions with the `onlyOwner` modifier anymore."
      }
    }
  }
}