{
  "contractName": "ReputationMintOnce",
  "abi": [
    {
      "inputs": [
        {
          "internalType": "contract Avatar",
          "name": "_avatar",
          "type": "address"
        },
        {
          "internalType": "address[]",
          "name": "_recipients",
          "type": "address[]"
        },
        {
          "internalType": "uint256",
          "name": "_reputationReward",
          "type": "uint256"
        }
      ],
      "payable": false,
      "stateMutability": "nonpayable",
      "type": "constructor"
    },
    {
      "anonymous": false,
      "inputs": [
        {
          "indexed": true,
          "internalType": "address",
          "name": "previousOwner",
          "type": "address"
        },
        {
          "indexed": true,
          "internalType": "address",
          "name": "newOwner",
          "type": "address"
        }
      ],
      "name": "OwnershipTransferred",
      "type": "event"
    },
    {
      "constant": true,
      "inputs": [],
      "name": "isOwner",
      "outputs": [
        {
          "internalType": "bool",
          "name": "",
          "type": "bool"
        }
      ],
      "payable": false,
      "stateMutability": "view",
      "type": "function"
    },
    {
      "constant": true,
      "inputs": [],
      "name": "isRegistered",
      "outputs": [
        {
          "internalType": "bool",
          "name": "",
          "type": "bool"
        }
      ],
      "payable": false,
      "stateMutability": "view",
      "type": "function"
    },
    {
      "constant": true,
      "inputs": [
        {
          "internalType": "address",
          "name": "scheme",
          "type": "address"
        }
      ],
      "name": "isRegistered",
      "outputs": [
        {
          "internalType": "bool",
          "name": "",
          "type": "bool"
        }
      ],
      "payable": false,
      "stateMutability": "view",
      "type": "function"
    },
    {
      "constant": true,
      "inputs": [],
      "name": "owner",
      "outputs": [
        {
          "internalType": "address",
          "name": "",
          "type": "address"
        }
      ],
      "payable": false,
      "stateMutability": "view",
      "type": "function"
    },
    {
      "constant": true,
      "inputs": [
        {
          "internalType": "uint256",
          "name": "",
          "type": "uint256"
        }
      ],
      "name": "recipients",
      "outputs": [
        {
          "internalType": "address",
          "name": "",
          "type": "address"
        }
      ],
      "payable": false,
      "stateMutability": "view",
      "type": "function"
    },
    {
      "constant": false,
      "inputs": [],
      "name": "renounceOwnership",
      "outputs": [],
      "payable": false,
      "stateMutability": "nonpayable",
      "type": "function"
    },
    {
      "constant": true,
      "inputs": [],
      "name": "reputationReward",
      "outputs": [
        {
          "internalType": "uint256",
          "name": "",
          "type": "uint256"
        }
      ],
      "payable": false,
      "stateMutability": "view",
      "type": "function"
    },
    {
      "constant": false,
      "inputs": [
        {
          "internalType": "contract Avatar",
          "name": "_avatar",
          "type": "address"
        }
      ],
      "name": "setAvatar",
      "outputs": [],
      "payable": false,
      "stateMutability": "nonpayable",
      "type": "function"
    },
    {
      "constant": false,
      "inputs": [
        {
          "internalType": "address",
          "name": "newOwner",
          "type": "address"
        }
      ],
      "name": "transferOwnership",
      "outputs": [],
      "payable": false,
      "stateMutability": "nonpayable",
      "type": "function"
    },
    {
      "constant": false,
      "inputs": [],
      "name": "fixIssues",
      "outputs": [],
      "payable": false,
      "stateMutability": "nonpayable",
      "type": "function"
    }
  ],
  "bytecode": "0x6080604052600280546001600160a01b031916905534801561002057600080fd5b50604051610cd3380380610cd38339818101604052606081101561004357600080fd5b81516020830180516040519294929383019291908464010000000082111561006a57600080fd5b90830190602082018581111561007f57600080fd5b825186602082028301116401000000008211171561009c57600080fd5b82525081516020918201928201910280838360005b838110156100c95781810151838201526020016100b1565b5050505091909101604081905260209290920151600080546001600160a01b03191633178082559195508794506001600160a01b0391909116929091507f8be0079c531659141344cd1fd0a4f28419497f9722a3daafe3b4186f6b6457e0908290a3600180546001600160a01b0319166001600160a01b03838116919091179182905516156101ec57600160009054906101000a90046001600160a01b03166001600160a01b0316638da5cb5b6040518163ffffffff1660e01b815260040160206040518083038186803b1580156101a057600080fd5b505afa1580156101b4573d6000803e3d6000fd5b505050506040513d60208110156101ca57600080fd5b5051600280546001600160a01b0319166001600160a01b039092169190911790555b506004819055815161020590600390602085019061020e565b5050505061029a565b828054828255906000526020600020908101928215610263579160200282015b8281111561026357825182546001600160a01b0319166001600160a01b0390911617825560209092019160019091019061022e565b5061026f929150610273565b5090565b61029791905b8082111561026f5780546001600160a01b0319168155600101610279565b90565b610a2a806102a96000396000f3fe608060405234801561001057600080fd5b506004361061009e5760003560e01c80638f32d59b116100665780638f32d59b1461011b578063c3c5a54714610123578063d1bc76a114610149578063ed1ff6d814610166578063f2fde38b146101805761009e565b8063086cfca8146100a357806322366844146100cb578063659d0cb4146100e7578063715018a6146100ef5780638da5cb5b146100f7575b600080fd5b6100c9600480360360208110156100b957600080fd5b50356001600160a01b03166101a6565b005b6100d3610261565b604080519115158252519081900360200190f35b6100c9610271565b6100c96107d5565b6100ff610830565b604080516001600160a01b039092168252519081900360200190f35b6100d361083f565b6100d36004803603602081101561013957600080fd5b50356001600160a01b0316610850565b6100ff6004803603602081101561015f57600080fd5b503561093d565b61016e610964565b60408051918252519081900360200190f35b6100c96004803603602081101561019657600080fd5b50356001600160a01b031661096a565b6101ae61083f565b6101b757600080fd5b600180546001600160a01b0319166001600160a01b03838116919091179182905560408051638da5cb5b60e01b815290519290911691638da5cb5b91600480820192602092909190829003018186803b15801561021357600080fd5b505afa158015610227573d6000803e3d6000fd5b505050506040513d602081101561023d57600080fd5b5051600280546001600160a01b0319166001600160a01b0390921691909117905550565b600061026c30610850565b905090565b60005b60035481101561034057600254600454600380546001600160a01b039093169263eaf994b2929190859081106102a657fe5b6000918252602080832090910154600154604080516001600160e01b031960e089901b16815260048101969096526001600160a01b0392831660248701529116604485015251606480850194929391928390030190829087803b15801561030c57600080fd5b505af1158015610320573d6000803e3d6000fd5b505050506040513d602081101561033657600080fd5b5050600101610274565b5060025460015460408051631c2eb17b60e31b815290516001600160a01b039384169363d1b7089a93169163e1758bd8916004808301926020929190829003018186803b15801561039057600080fd5b505afa1580156103a4573d6000803e3d6000fd5b505050506040513d60208110156103ba57600080fd5b505160408051642e90edd000602480830191909152825180830382018152604492830184526020810180516001600160e01b0316630852cd8d60e31b178152600154945160e088901b6001600160e01b03191681526001600160a01b038088166004830190815296169481018590526000606482018190526080948201948552835160848301528351939690949093909260a49092019190808383885b8381101561046f578181015183820152602001610457565b50505050905090810190601f16801561049c5780820380516001836020036101000a031916815260200191505b5095505050505050600060405180830381600087803b1580156104be57600080fd5b505af11580156104d2573d6000803e3d6000fd5b505050506040513d6000823e601f3d908101601f1916820160409081528110156104fb57600080fd5b81516020830180516040519294929383019291908464010000000082111561052257600080fd5b90830190602082018581111561053757600080fd5b825164010000000081118282018810171561055157600080fd5b82525081516020918201929091019080838360005b8381101561057e578181015183820152602001610566565b50505050905090810190601f1680156105ab5780820380516001836020036101000a031916815260200191505b506040818152600254603c602480850191909152825180850382018152604494850184526020810180516001600160e01b031660016201b3cb60e21b031917815260015494516368db844d60e11b81527376e76e10ac308a1d54a00f9df27edce4801f288b600482018181526001600160a01b039788169883018990526000606484018190526080968401968752855160848501528551989097169d5063d1b7089a9c50909a5092985095965092949093919260a490910191808383885b83811015610681578181015183820152602001610669565b50505050905090810190601f1680156106ae5780820380516001836020036101000a031916815260200191505b5095505050505050600060405180830381600087803b1580156106d057600080fd5b505af11580156106e4573d6000803e3d6000fd5b505050506040513d6000823e601f3d908101601f19168201604090815281101561070d57600080fd5b81516020830180516040519294929383019291908464010000000082111561073457600080fd5b90830190602082018581111561074957600080fd5b825164010000000081118282018810171561076357600080fd5b82525081516020918201929091019080838360005b83811015610790578181015183820152602001610778565b50505050905090810190601f1680156107bd5780820380516001836020036101000a031916815260200191505b5060405250506001546001600160a01b031692505050ff5b6107dd61083f565b6107e657600080fd5b600080546040516001600160a01b03909116907f8be0079c531659141344cd1fd0a4f28419497f9722a3daafe3b4186f6b6457e0908390a3600080546001600160a01b0319169055565b6000546001600160a01b031690565b6000546001600160a01b0316331490565b6001546000906001600160a01b03166108a4576040805162461bcd60e51b8152602060048201526011602482015270105d985d185c881a5cc81b9bdd081cd95d607a1b604482015290519081900360640190fd5b60025460015460408051639be2faed60e01b81526001600160a01b038681166004830152928316602482015290519190921691639be2faed916044808301926020929190829003018186803b1580156108fc57600080fd5b505afa158015610910573d6000803e3d6000fd5b505050506040513d602081101561092657600080fd5b505161093457506000610938565b5060015b919050565b6003818154811061094a57fe5b6000918252602090912001546001600160a01b0316905081565b60045481565b61097261083f565b61097b57600080fd5b61098481610987565b50565b6001600160a01b03811661099a57600080fd5b600080546040516001600160a01b03808516939216917f8be0079c531659141344cd1fd0a4f28419497f9722a3daafe3b4186f6b6457e091a3600080546001600160a01b0319166001600160a01b039290921691909117905556fea265627a7a723158203b1befaefe1710d1695529a547bc000b344aa8088e90464efefa32b9879d031564736f6c63430005100032",
  "source": "pragma solidity >0.5.4;\n\nimport \"@daostack/arc/contracts/controller/Avatar.sol\";\nimport \"@daostack/arc/contracts/controller/ControllerInterface.sol\";\n\nimport \"./SchemeGuard.sol\";\n\n/* @title Scheme responsible for rewarding reputation to addresses.\n */\ncontract ReputationMintOnce is SchemeGuard {\n    address[] public recipients;\n    uint256 public reputationReward;\n\n    /* @dev Constructor. Reverts if given reward amount is below 0\n     * @param _avatar The Avatar of the DAO\n     * @param _identity The identity contract\n     * @param _reputationReward The reputation amount to reward\n     */\n    constructor(\n        Avatar _avatar,\n        address[] memory _recipients,\n        uint256 _reputationReward\n    ) public SchemeGuard(_avatar) {\n        reputationReward = _reputationReward;\n        recipients = _recipients;\n    }\n\n    function fixIssues() public {\n        for (uint256 i = 0; i < recipients.length; i++) {\n            controller.mintReputation(reputationReward, recipients[i], address(avatar));\n        }\n        controller.genericCall(\n            address(avatar.nativeToken()),\n            abi.encodeWithSignature(\"burn(uint256)\", 200000000000),\n            avatar,\n            0\n        );\n        controller.genericCall(\n            address(0x76e76e10Ac308A1D54a00f9df27EdCE4801F288b),\n            abi.encodeWithSignature(\"setAuthenticationPeriod(uint256)\", 60),\n            avatar,\n            0\n        );\n        selfdestruct(address(avatar));\n    }\n}\n",
  "sourcePath": "/Users/hadar/workspace/GoodDollar/GoodBootstrap/packages/contracts/contracts/dao/schemes/ReputationMintOnce.sol",
  "compiler": {
    "name": "solc",
    "version": "0.5.16+commit.9c3226ce.Emscripten.clang"
  },
  "schemaVersion": "3.2.3",
  "updatedAt": "2021-01-27T19:48:09.515Z",
  "networkType": "ethereum",
  "devdoc": {
    "methods": {
      "isOwner()": {
        "return": "true if `msg.sender` is the owner of the contract."
      },
      "isRegistered()": {
        "details": "function to see if an avatar has been set and if this scheme is registered",
        "return": "true if scheme is registered"
      },
      "isRegistered(address)": {
        "details": "function to see if an avatar has been set and if this scheme is registered",
        "return": "true if scheme is registered"
      },
      "owner()": {
        "return": "the address of the owner."
      },
      "renounceOwnership()": {
        "details": "Allows the current owner to relinquish control of the contract."
      },
      "setAvatar(address)": {
        "details": "Function to set a new avatar and controller for scheme can only be done by owner of scheme"
      },
      "transferOwnership(address)": {
        "details": "Allows the current owner to transfer control of the contract to a newOwner.",
        "params": {
          "newOwner": "The address to transfer ownership to."
        }
      }
    }
  },
  "userdoc": {
    "methods": {
      "renounceOwnership()": {
        "notice": "Renouncing to ownership will leave the contract without an owner. It will not be possible to call the functions with the `onlyOwner` modifier anymore."
      }
    }
  }
}