{
  "contractName": "ReputationReward",
  "abi": [
    {
      "inputs": [
        {
          "internalType": "contract Avatar",
          "name": "_avatar",
          "type": "address"
        },
        {
          "internalType": "contract Identity",
          "name": "_identity",
          "type": "address"
        },
        {
          "internalType": "uint256",
          "name": "_reputationReward",
          "type": "uint256"
        }
      ],
      "payable": false,
      "stateMutability": "nonpayable",
      "type": "constructor"
    },
    {
      "anonymous": false,
      "inputs": [
        {
          "indexed": true,
          "internalType": "address",
          "name": "previousOwner",
          "type": "address"
        },
        {
          "indexed": true,
          "internalType": "address",
          "name": "newOwner",
          "type": "address"
        }
      ],
      "name": "OwnershipTransferred",
      "type": "event"
    },
    {
      "constant": true,
      "inputs": [],
      "name": "creator",
      "outputs": [
        {
          "internalType": "address",
          "name": "",
          "type": "address"
        }
      ],
      "payable": false,
      "stateMutability": "view",
      "type": "function"
    },
    {
      "constant": true,
      "inputs": [],
      "name": "identity",
      "outputs": [
        {
          "internalType": "contract Identity",
          "name": "",
          "type": "address"
        }
      ],
      "payable": false,
      "stateMutability": "view",
      "type": "function"
    },
    {
      "constant": true,
      "inputs": [],
      "name": "isOwner",
      "outputs": [
        {
          "internalType": "bool",
          "name": "",
          "type": "bool"
        }
      ],
      "payable": false,
      "stateMutability": "view",
      "type": "function"
    },
    {
      "constant": true,
      "inputs": [],
      "name": "isRegistered",
      "outputs": [
        {
          "internalType": "bool",
          "name": "",
          "type": "bool"
        }
      ],
      "payable": false,
      "stateMutability": "view",
      "type": "function"
    },
    {
      "constant": true,
      "inputs": [
        {
          "internalType": "address",
          "name": "scheme",
          "type": "address"
        }
      ],
      "name": "isRegistered",
      "outputs": [
        {
          "internalType": "bool",
          "name": "",
          "type": "bool"
        }
      ],
      "payable": false,
      "stateMutability": "view",
      "type": "function"
    },
    {
      "constant": true,
      "inputs": [],
      "name": "owner",
      "outputs": [
        {
          "internalType": "address",
          "name": "",
          "type": "address"
        }
      ],
      "payable": false,
      "stateMutability": "view",
      "type": "function"
    },
    {
      "constant": false,
      "inputs": [],
      "name": "renounceOwnership",
      "outputs": [],
      "payable": false,
      "stateMutability": "nonpayable",
      "type": "function"
    },
    {
      "constant": true,
      "inputs": [],
      "name": "reputationReward",
      "outputs": [
        {
          "internalType": "uint256",
          "name": "",
          "type": "uint256"
        }
      ],
      "payable": false,
      "stateMutability": "view",
      "type": "function"
    },
    {
      "constant": false,
      "inputs": [
        {
          "internalType": "contract Avatar",
          "name": "_avatar",
          "type": "address"
        }
      ],
      "name": "setAvatar",
      "outputs": [],
      "payable": false,
      "stateMutability": "nonpayable",
      "type": "function"
    },
    {
      "constant": false,
      "inputs": [
        {
          "internalType": "contract Identity",
          "name": "_identity",
          "type": "address"
        }
      ],
      "name": "setIdentity",
      "outputs": [],
      "payable": false,
      "stateMutability": "nonpayable",
      "type": "function"
    },
    {
      "constant": false,
      "inputs": [
        {
          "internalType": "address",
          "name": "newOwner",
          "type": "address"
        }
      ],
      "name": "transferOwnership",
      "outputs": [],
      "payable": false,
      "stateMutability": "nonpayable",
      "type": "function"
    }
  ],
  "bytecode": "0x6080604052600380546001600160a01b031916905534801561002057600080fd5b5060405161080a38038061080a8339818101604052606081101561004357600080fd5b5080516020820151604092830151600080546001600160a01b03191633178082559451939492939192859285926001600160a01b039290921691907f8be0079c531659141344cd1fd0a4f28419497f9722a3daafe3b4186f6b6457e0908290a36001600160a01b0381166100fe576040805162461bcd60e51b815260206004820152601960248201527f537570706c696564206964656e74697479206973206e756c6c00000000000000604482015290519081900360640190fd5b600180546001600160a01b03199081166001600160a01b039384161790915560028054909116838316179081905516156101cc57600260009054906101000a90046001600160a01b03166001600160a01b0316638da5cb5b6040518163ffffffff1660e01b815260040160206040518083038186803b15801561018057600080fd5b505afa158015610194573d6000803e3d6000fd5b505050506040513d60208110156101aa57600080fd5b5051600380546001600160a01b0319166001600160a01b039092169190911790555b5060008111610222576040805162461bcd60e51b815260206004820181905260248201527f72657075746174696f6e207265776172642063616e6e6f74206265207a65726f604482015290519081900360640190fd5b600480546001600160a01b0319163317905560055550506105c2806102486000396000f3fe608060405234801561001057600080fd5b50600436106100a95760003560e01c8063715018a611610071578063715018a6146101445780638da5cb5b1461014c5780638f32d59b14610154578063c3c5a5471461015c578063ed1ff6d814610182578063f2fde38b1461019c576100a9565b806302d05d3f146100ae578063086cfca8146100d257806322366844146100fa5780632c159a1a146101165780635d5bf1781461011e575b600080fd5b6100b66101c2565b604080516001600160a01b039092168252519081900360200190f35b6100f8600480360360208110156100e857600080fd5b50356001600160a01b03166101d1565b005b61010261028c565b604080519115158252519081900360200190f35b6100b661029c565b6100f86004803603602081101561013457600080fd5b50356001600160a01b03166102ab565b6100f8610394565b6100b66103ef565b6101026103fe565b6101026004803603602081101561017257600080fd5b50356001600160a01b031661040f565b61018a6104fc565b60408051918252519081900360200190f35b6100f8600480360360208110156101b257600080fd5b50356001600160a01b0316610502565b6004546001600160a01b031681565b6101d96103fe565b6101e257600080fd5b600280546001600160a01b0319166001600160a01b03838116919091179182905560408051638da5cb5b60e01b815290519290911691638da5cb5b91600480820192602092909190829003018186803b15801561023e57600080fd5b505afa158015610252573d6000803e3d6000fd5b505050506040513d602081101561026857600080fd5b5051600380546001600160a01b0319166001600160a01b0390921691909117905550565b60006102973061040f565b905090565b6001546001600160a01b031681565b6102b36103fe565b6102bc57600080fd5b806001600160a01b031663223668446040518163ffffffff1660e01b815260040160206040518083038186803b1580156102f557600080fd5b505afa158015610309573d6000803e3d6000fd5b505050506040513d602081101561031f57600080fd5b5051610372576040805162461bcd60e51b815260206004820152601a60248201527f4964656e74697479206973206e6f742072656769737465726564000000000000604482015290519081900360640190fd5b600180546001600160a01b0319166001600160a01b0392909216919091179055565b61039c6103fe565b6103a557600080fd5b600080546040516001600160a01b03909116907f8be0079c531659141344cd1fd0a4f28419497f9722a3daafe3b4186f6b6457e0908390a3600080546001600160a01b0319169055565b6000546001600160a01b031690565b6000546001600160a01b0316331490565b6002546000906001600160a01b0316610463576040805162461bcd60e51b8152602060048201526011602482015270105d985d185c881a5cc81b9bdd081cd95d607a1b604482015290519081900360640190fd5b60035460025460408051639be2faed60e01b81526001600160a01b038681166004830152928316602482015290519190921691639be2faed916044808301926020929190829003018186803b1580156104bb57600080fd5b505afa1580156104cf573d6000803e3d6000fd5b505050506040513d60208110156104e557600080fd5b50516104f3575060006104f7565b5060015b919050565b60055481565b61050a6103fe565b61051357600080fd5b61051c8161051f565b50565b6001600160a01b03811661053257600080fd5b600080546040516001600160a01b03808516939216917f8be0079c531659141344cd1fd0a4f28419497f9722a3daafe3b4186f6b6457e091a3600080546001600160a01b0319166001600160a01b039290921691909117905556fea265627a7a7231582000357e3ea4b921553e26cac7bae68bcab4bb01927aa6b0d16f86c35ae74a58ba64736f6c63430005100032",
  "source": "pragma solidity >0.5.4;\n\nimport \"@daostack/arc/contracts/controller/Avatar.sol\";\nimport \"@daostack/arc/contracts/controller/ControllerInterface.sol\";\n\nimport \"../../identity/IdentityGuard.sol\";\nimport \"./SchemeGuard.sol\";\n\n/* @title Scheme responsible for rewarding reputation to addresses.\n */\ncontract ReputationReward is IdentityGuard, SchemeGuard {\n    address public creator;\n    uint256 public reputationReward;\n\n    /* @dev Constructor. Reverts if given reward amount is below 0\n     * @param _avatar The Avatar of the DAO\n     * @param _identity The identity contract\n     * @param _reputationReward The reputation amount to reward\n     */\n    constructor(\n        Avatar _avatar,\n        Identity _identity,\n        uint256 _reputationReward\n    ) public IdentityGuard(_identity) SchemeGuard(_avatar) {\n        require(_reputationReward > 0, \"reputation reward cannot be zero\");\n\n        creator = msg.sender;\n        reputationReward = _reputationReward;\n    }\n\n    /* @dev Internal function to reward a given address with the rewarding amount.\n     * @param _to the address to reward\n     * Reverts if given address isn't whitelisted or scheme isn't registered\n     * @return true if amount was minted\n     */\n    function rewardAddress(address _to)\n        internal\n        requireWhitelisted(_to)\n        onlyRegistered\n        returns (bool)\n    {\n        controller.mintReputation(reputationReward, _to, address(avatar));\n        return true;\n    }\n}\n",
  "sourcePath": "/Users/hadar/workspace/GoodDollar/GoodBootstrap/packages/contracts/contracts/dao/schemes/ReputationReward.sol",
  "compiler": {
    "name": "solc",
    "version": "0.5.16+commit.9c3226ce.Emscripten.clang"
  },
  "schemaVersion": "3.2.3",
  "updatedAt": "2022-10-27T11:34:11.159Z",
  "devdoc": {
    "methods": {
      "isOwner()": {
        "return": "true if `msg.sender` is the owner of the contract."
      },
      "isRegistered()": {
        "details": "function to see if an avatar has been set and if this scheme is registered",
        "return": "true if scheme is registered"
      },
      "isRegistered(address)": {
        "details": "function to see if an avatar has been set and if this scheme is registered",
        "return": "true if scheme is registered"
      },
      "owner()": {
        "return": "the address of the owner."
      },
      "renounceOwnership()": {
        "details": "Allows the current owner to relinquish control of the contract."
      },
      "setAvatar(address)": {
        "details": "Function to set a new avatar and controller for scheme can only be done by owner of scheme"
      },
      "transferOwnership(address)": {
        "details": "Allows the current owner to transfer control of the contract to a newOwner.",
        "params": {
          "newOwner": "The address to transfer ownership to."
        }
      }
    }
  },
  "userdoc": {
    "methods": {
      "renounceOwnership()": {
        "notice": "Renouncing to ownership will leave the contract without an owner. It will not be possible to call the functions with the `onlyOwner` modifier anymore."
      }
    }
  }
}