{
  "contractName": "ReputationReward",
  "abi": [
    {
      "constant": true,
      "inputs": [],
      "name": "creator",
      "outputs": [
        {
          "name": "",
          "type": "address"
        }
      ],
      "payable": false,
      "stateMutability": "view",
      "type": "function"
    },
    {
      "constant": false,
      "inputs": [
        {
          "name": "_avatar",
          "type": "address"
        }
      ],
      "name": "setAvatar",
      "outputs": [],
      "payable": false,
      "stateMutability": "nonpayable",
      "type": "function"
    },
    {
      "constant": true,
      "inputs": [],
      "name": "isRegistered",
      "outputs": [
        {
          "name": "",
          "type": "bool"
        }
      ],
      "payable": false,
      "stateMutability": "view",
      "type": "function"
    },
    {
      "constant": true,
      "inputs": [],
      "name": "identity",
      "outputs": [
        {
          "name": "",
          "type": "address"
        }
      ],
      "payable": false,
      "stateMutability": "view",
      "type": "function"
    },
    {
      "constant": false,
      "inputs": [
        {
          "name": "_identity",
          "type": "address"
        }
      ],
      "name": "setIdentity",
      "outputs": [],
      "payable": false,
      "stateMutability": "nonpayable",
      "type": "function"
    },
    {
      "constant": false,
      "inputs": [],
      "name": "renounceOwnership",
      "outputs": [],
      "payable": false,
      "stateMutability": "nonpayable",
      "type": "function"
    },
    {
      "constant": true,
      "inputs": [],
      "name": "owner",
      "outputs": [
        {
          "name": "",
          "type": "address"
        }
      ],
      "payable": false,
      "stateMutability": "view",
      "type": "function"
    },
    {
      "constant": true,
      "inputs": [],
      "name": "isOwner",
      "outputs": [
        {
          "name": "",
          "type": "bool"
        }
      ],
      "payable": false,
      "stateMutability": "view",
      "type": "function"
    },
    {
      "constant": true,
      "inputs": [
        {
          "name": "scheme",
          "type": "address"
        }
      ],
      "name": "isRegistered",
      "outputs": [
        {
          "name": "",
          "type": "bool"
        }
      ],
      "payable": false,
      "stateMutability": "view",
      "type": "function"
    },
    {
      "constant": true,
      "inputs": [],
      "name": "reputationReward",
      "outputs": [
        {
          "name": "",
          "type": "uint256"
        }
      ],
      "payable": false,
      "stateMutability": "view",
      "type": "function"
    },
    {
      "constant": false,
      "inputs": [
        {
          "name": "newOwner",
          "type": "address"
        }
      ],
      "name": "transferOwnership",
      "outputs": [],
      "payable": false,
      "stateMutability": "nonpayable",
      "type": "function"
    },
    {
      "inputs": [
        {
          "name": "_avatar",
          "type": "address"
        },
        {
          "name": "_identity",
          "type": "address"
        },
        {
          "name": "_reputationReward",
          "type": "uint256"
        }
      ],
      "payable": false,
      "stateMutability": "nonpayable",
      "type": "constructor"
    },
    {
      "anonymous": false,
      "inputs": [
        {
          "indexed": true,
          "name": "previousOwner",
          "type": "address"
        },
        {
          "indexed": true,
          "name": "newOwner",
          "type": "address"
        }
      ],
      "name": "OwnershipTransferred",
      "type": "event"
    }
  ],
  "bytecode": "0x608060405260038054600160a060020a031916905534801561002057600080fd5b5060405160608061094c8339810180604052606081101561004057600080fd5b508051602082015160409283015160008054600160a060020a0319163317808255945193949293919285928592600160a060020a039290921691907f8be0079c531659141344cd1fd0a4f28419497f9722a3daafe3b4186f6b6457e0908290a3600160a060020a038116151561011757604080517f08c379a000000000000000000000000000000000000000000000000000000000815260206004820152601960248201527f537570706c696564206964656e74697479206973206e756c6c00000000000000604482015290519081900360640190fd5b60018054600160a060020a0319908116600160a060020a0393841617909155600280549091168383161790819055161561020157600260009054906101000a9004600160a060020a0316600160a060020a0316638da5cb5b6040518163ffffffff167c010000000000000000000000000000000000000000000000000000000002815260040160206040518083038186803b1580156101b557600080fd5b505afa1580156101c9573d6000803e3d6000fd5b505050506040513d60208110156101df57600080fd5b505160038054600160a060020a031916600160a060020a039092169190911790555b506000811161027157604080517f08c379a000000000000000000000000000000000000000000000000000000000815260206004820181905260248201527f72657075746174696f6e207265776172642063616e6e6f74206265207a65726f604482015290519081900360640190fd5b60048054600160a060020a0319163317905560055550506106b5806102976000396000f3fe608060405234801561001057600080fd5b50600436106100c6576000357c010000000000000000000000000000000000000000000000000000000090048063715018a61161008e578063715018a6146101615780638da5cb5b146101695780638f32d59b14610171578063c3c5a54714610179578063ed1ff6d81461019f578063f2fde38b146101b9576100c6565b806302d05d3f146100cb578063086cfca8146100ef57806322366844146101175780632c159a1a146101335780635d5bf1781461013b575b600080fd5b6100d36101df565b60408051600160a060020a039092168252519081900360200190f35b6101156004803603602081101561010557600080fd5b5035600160a060020a03166101ee565b005b61011f6102de565b604080519115158252519081900360200190f35b6100d36102ee565b6101156004803603602081101561015157600080fd5b5035600160a060020a03166102fd565b61011561042d565b6100d3610497565b61011f6104a6565b61011f6004803603602081101561018f57600080fd5b5035600160a060020a03166104b7565b6101a76105e7565b60408051918252519081900360200190f35b610115600480360360208110156101cf57600080fd5b5035600160a060020a03166105ed565b600454600160a060020a031681565b6101f66104a6565b151561020157600080fd5b6002805473ffffffffffffffffffffffffffffffffffffffff1916600160a060020a038381169190911791829055604080517f8da5cb5b00000000000000000000000000000000000000000000000000000000815290519290911691638da5cb5b91600480820192602092909190829003018186803b15801561028357600080fd5b505afa158015610297573d6000803e3d6000fd5b505050506040513d60208110156102ad57600080fd5b50516003805473ffffffffffffffffffffffffffffffffffffffff1916600160a060020a0390921691909117905550565b60006102e9306104b7565b905090565b600154600160a060020a031681565b6103056104a6565b151561031057600080fd5b80600160a060020a031663223668446040518163ffffffff167c010000000000000000000000000000000000000000000000000000000002815260040160206040518083038186803b15801561036557600080fd5b505afa158015610379573d6000803e3d6000fd5b505050506040513d602081101561038f57600080fd5b505115156103fe57604080517f08c379a000000000000000000000000000000000000000000000000000000000815260206004820152601a60248201527f4964656e74697479206973206e6f742072656769737465726564000000000000604482015290519081900360640190fd5b6001805473ffffffffffffffffffffffffffffffffffffffff1916600160a060020a0392909216919091179055565b6104356104a6565b151561044057600080fd5b60008054604051600160a060020a03909116907f8be0079c531659141344cd1fd0a4f28419497f9722a3daafe3b4186f6b6457e0908390a36000805473ffffffffffffffffffffffffffffffffffffffff19169055565b600054600160a060020a031690565b600054600160a060020a0316331490565b600254600090600160a060020a0316151561053357604080517f08c379a000000000000000000000000000000000000000000000000000000000815260206004820152601160248201527f417661746172206973206e6f7420736574000000000000000000000000000000604482015290519081900360640190fd5b600354600254604080517f9be2faed000000000000000000000000000000000000000000000000000000008152600160a060020a038681166004830152928316602482015290519190921691639be2faed916044808301926020929190829003018186803b1580156105a457600080fd5b505afa1580156105b8573d6000803e3d6000fd5b505050506040513d60208110156105ce57600080fd5b505115156105de575060006105e2565b5060015b919050565b60055481565b6105f56104a6565b151561060057600080fd5b6106098161060c565b50565b600160a060020a038116151561062157600080fd5b60008054604051600160a060020a03808516939216917f8be0079c531659141344cd1fd0a4f28419497f9722a3daafe3b4186f6b6457e091a36000805473ffffffffffffffffffffffffffffffffffffffff1916600160a060020a039290921691909117905556fea165627a7a723058201644e90790eb48c21bc64035678a7c16c9b795d40fb0add03a31b4061b14adea0029",
  "source": "pragma solidity 0.5.4;\n\nimport \"@daostack/arc/contracts/controller/Avatar.sol\";\nimport \"@daostack/arc/contracts/controller/ControllerInterface.sol\";\n\nimport \"../../identity/IdentityGuard.sol\";\nimport \"./SchemeGuard.sol\";\n\n/* @title Scheme responsible for rewarding reputation to addresses.\n */\ncontract ReputationReward is IdentityGuard, SchemeGuard {\n\n    address public creator;\n    uint256 public reputationReward;\n\n    /* @dev Constructor. Reverts if given reward amount is below 0\n     * @param _avatar The Avatar of the DAO\n     * @param _identity The identity contract\n     * @param _reputationReward The reputation amount to reward\n     */\n    constructor(\n        Avatar _avatar,\n        Identity _identity,\n        uint256 _reputationReward\n    )\n        public\n        IdentityGuard(_identity)\n        SchemeGuard(_avatar)\n    {\n        require(_reputationReward > 0, \"reputation reward cannot be zero\" );\n\n        creator = msg.sender;\n        reputationReward = _reputationReward;\n    }\n\n    /* @dev Internal function to reward a given address with the rewarding amount.\n     * @param _to the address to reward\n     * Reverts if given address isn't whitelisted or scheme isn't registered\n     * @return true if amount was minted\n     */\n    function rewardAddress(address _to)\n        internal\n        requireWhitelisted(_to)\n        onlyRegistered\n        returns (bool)\n    {\n        controller.mintReputation(reputationReward, _to, address(avatar));\n        return true;\n    } \n}",
  "sourcePath": "/Users/hadar/workspace/GoodDollar/GoodBootstrap/packages/contracts/contracts/dao/schemes/ReputationReward.sol",
  "compiler": {
    "name": "solc",
    "version": "0.5.4+commit.9549d8ff.Emscripten.clang"
  },
  "schemaVersion": "3.0.16",
  "updatedAt": "2020-07-09T11:25:13.992Z",
  "devdoc": {
    "methods": {
      "isOwner()": {
        "return": "true if `msg.sender` is the owner of the contract."
      },
      "isRegistered()": {
        "details": "function to see if an avatar has been set and if this scheme is registered",
        "return": "true if scheme is registered"
      },
      "isRegistered(address)": {
        "details": "function to see if an avatar has been set and if this scheme is registered",
        "return": "true if scheme is registered"
      },
      "owner()": {
        "return": "the address of the owner."
      },
      "renounceOwnership()": {
        "details": "Allows the current owner to relinquish control of the contract."
      },
      "setAvatar(address)": {
        "details": "Function to set a new avatar and controller for scheme can only be done by owner of scheme"
      },
      "transferOwnership(address)": {
        "details": "Allows the current owner to transfer control of the contract to a newOwner.",
        "params": {
          "newOwner": "The address to transfer ownership to."
        }
      }
    }
  },
  "userdoc": {
    "methods": {
      "renounceOwnership()": {
        "notice": "Renouncing to ownership will leave the contract without an owner. It will not be possible to call the functions with the `onlyOwner` modifier anymore."
      }
    }
  }
}