{
  "contractName": "ReserveMinter",
  "abi": [
    {
      "inputs": [
        {
          "internalType": "contract Avatar",
          "name": "_avatar",
          "type": "address"
        },
        {
          "internalType": "uint256",
          "name": "_amount",
          "type": "uint256"
        },
        {
          "internalType": "address",
          "name": "_receiver",
          "type": "address"
        }
      ],
      "payable": false,
      "stateMutability": "nonpayable",
      "type": "constructor"
    },
    {
      "anonymous": false,
      "inputs": [
        {
          "indexed": true,
          "internalType": "address",
          "name": "previousOwner",
          "type": "address"
        },
        {
          "indexed": true,
          "internalType": "address",
          "name": "newOwner",
          "type": "address"
        }
      ],
      "name": "OwnershipTransferred",
      "type": "event"
    },
    {
      "anonymous": false,
      "inputs": [
        {
          "indexed": true,
          "internalType": "address",
          "name": "by",
          "type": "address"
        },
        {
          "indexed": false,
          "internalType": "uint256",
          "name": "time",
          "type": "uint256"
        }
      ],
      "name": "SchemeEnded",
      "type": "event"
    },
    {
      "anonymous": false,
      "inputs": [
        {
          "indexed": true,
          "internalType": "address",
          "name": "by",
          "type": "address"
        },
        {
          "indexed": false,
          "internalType": "uint256",
          "name": "time",
          "type": "uint256"
        }
      ],
      "name": "SchemeStarted",
      "type": "event"
    },
    {
      "constant": true,
      "inputs": [],
      "name": "amount",
      "outputs": [
        {
          "internalType": "uint256",
          "name": "",
          "type": "uint256"
        }
      ],
      "payable": false,
      "stateMutability": "view",
      "type": "function"
    },
    {
      "constant": false,
      "inputs": [],
      "name": "end",
      "outputs": [],
      "payable": false,
      "stateMutability": "nonpayable",
      "type": "function"
    },
    {
      "constant": true,
      "inputs": [],
      "name": "isActive",
      "outputs": [
        {
          "internalType": "bool",
          "name": "",
          "type": "bool"
        }
      ],
      "payable": false,
      "stateMutability": "view",
      "type": "function"
    },
    {
      "constant": true,
      "inputs": [],
      "name": "isOwner",
      "outputs": [
        {
          "internalType": "bool",
          "name": "",
          "type": "bool"
        }
      ],
      "payable": false,
      "stateMutability": "view",
      "type": "function"
    },
    {
      "constant": true,
      "inputs": [],
      "name": "isRegistered",
      "outputs": [
        {
          "internalType": "bool",
          "name": "",
          "type": "bool"
        }
      ],
      "payable": false,
      "stateMutability": "view",
      "type": "function"
    },
    {
      "constant": true,
      "inputs": [
        {
          "internalType": "address",
          "name": "scheme",
          "type": "address"
        }
      ],
      "name": "isRegistered",
      "outputs": [
        {
          "internalType": "bool",
          "name": "",
          "type": "bool"
        }
      ],
      "payable": false,
      "stateMutability": "view",
      "type": "function"
    },
    {
      "constant": true,
      "inputs": [],
      "name": "owner",
      "outputs": [
        {
          "internalType": "address",
          "name": "",
          "type": "address"
        }
      ],
      "payable": false,
      "stateMutability": "view",
      "type": "function"
    },
    {
      "constant": true,
      "inputs": [],
      "name": "periodEnd",
      "outputs": [
        {
          "internalType": "uint256",
          "name": "",
          "type": "uint256"
        }
      ],
      "payable": false,
      "stateMutability": "view",
      "type": "function"
    },
    {
      "constant": true,
      "inputs": [],
      "name": "periodStart",
      "outputs": [
        {
          "internalType": "uint256",
          "name": "",
          "type": "uint256"
        }
      ],
      "payable": false,
      "stateMutability": "view",
      "type": "function"
    },
    {
      "constant": true,
      "inputs": [],
      "name": "receiver",
      "outputs": [
        {
          "internalType": "address",
          "name": "",
          "type": "address"
        }
      ],
      "payable": false,
      "stateMutability": "view",
      "type": "function"
    },
    {
      "constant": false,
      "inputs": [],
      "name": "renounceOwnership",
      "outputs": [],
      "payable": false,
      "stateMutability": "nonpayable",
      "type": "function"
    },
    {
      "constant": false,
      "inputs": [
        {
          "internalType": "contract Avatar",
          "name": "_avatar",
          "type": "address"
        }
      ],
      "name": "setAvatar",
      "outputs": [],
      "payable": false,
      "stateMutability": "nonpayable",
      "type": "function"
    },
    {
      "constant": false,
      "inputs": [
        {
          "internalType": "address",
          "name": "newOwner",
          "type": "address"
        }
      ],
      "name": "transferOwnership",
      "outputs": [],
      "payable": false,
      "stateMutability": "nonpayable",
      "type": "function"
    },
    {
      "constant": false,
      "inputs": [],
      "name": "start",
      "outputs": [],
      "payable": false,
      "stateMutability": "nonpayable",
      "type": "function"
    }
  ],
  "bytecode": "0x6080604052600580546001600160a01b031916905534801561002057600080fd5b50604051610cc6380380610cc68339818101604052606081101561004357600080fd5b5080516020820151604090920151909190824260028102828183106100995760405162461bcd60e51b8152600401808060200182810382526026815260200180610ca06026913960400191505060405180910390fd5b600092835560019190915560028054610100600160a81b0319166101006001600160a01b03938416021760ff1916905560038054336001600160a01b03199091161790819055604051911691907f8be0079c531659141344cd1fd0a4f28419497f9722a3daafe3b4186f6b6457e0908290a3600480546001600160a01b0319166001600160a01b03838116919091179182905516156101c0576004805460408051638da5cb5b60e01b815290516001600160a01b0390921692638da5cb5b928282019260209290829003018186803b15801561017457600080fd5b505afa158015610188573d6000803e3d6000fd5b505050506040513d602081101561019e57600080fd5b5051600580546001600160a01b0319166001600160a01b039092169190911790555b506001600160a01b03811661021c576040805162461bcd60e51b815260206004820152601f60248201527f72656365697665722063616e6e6f74206265206e756c6c206164647265737300604482015290519081900360640190fd5b60008211610271576040805162461bcd60e51b815260206004820152601660248201527f526573657276652063616e6e6f74206265207a65726f00000000000000000000604482015290519081900360640190fd5b600791909155600680546001600160a01b0319166001600160a01b03909216919091179055506109fa806102a66000396000f3fe608060405234801561001057600080fd5b50600436106100ea5760003560e01c8063aa8c217c1161008c578063eda4e6d611610066578063eda4e6d6146101bf578063efbe1c1c146101c7578063f2fde38b146101cf578063f7260d3e146101f5576100ea565b8063aa8c217c14610189578063be9a655514610191578063c3c5a54714610199576100ea565b8063506ec095116100c8578063506ec0951461013b578063715018a6146101555780638da5cb5b1461015d5780638f32d59b14610181576100ea565b8063086cfca8146100ef578063223668441461011757806322f3e2d414610133575b600080fd5b6101156004803603602081101561010557600080fd5b50356001600160a01b03166101fd565b005b61011f6102b4565b604080519115158252519081900360200190f35b61011f6102c4565b6101436102cd565b60408051918252519081900360200190f35b6101156102d3565b61016561032e565b604080516001600160a01b039092168252519081900360200190f35b61011f61033d565b61014361034e565b610115610354565b61011f600480360360208110156101af57600080fd5b50356001600160a01b0316610656565b610143610745565b61011561074b565b610115600480360360208110156101e557600080fd5b50356001600160a01b03166107b5565b6101656107cf565b61020561033d565b61020e57600080fd5b600480546001600160a01b0319166001600160a01b038381169190911780835560408051638da5cb5b60e01b815290519190921692638da5cb5b92808201926020929091829003018186803b15801561026657600080fd5b505afa15801561027a573d6000803e3d6000fd5b505050506040513d602081101561029057600080fd5b5051600580546001600160a01b0319166001600160a01b0390921691909117905550565b60006102bf30610656565b905090565b60025460ff1681565b60015481565b6102db61033d565b6102e457600080fd5b6003546040516000916001600160a01b0316907f8be0079c531659141344cd1fd0a4f28419497f9722a3daafe3b4186f6b6457e0908390a3600380546001600160a01b0319169055565b6003546001600160a01b031690565b6003546001600160a01b0316331490565b60075481565b61035c6102b4565b6103ad576040805162461bcd60e51b815260206004820152601860248201527f536368656d65206973206e6f7420726567697374657265640000000000000000604482015290519081900360640190fd5b6103b56107de565b6000600460009054906101000a90046001600160a01b03166001600160a01b031663e1758bd86040518163ffffffff1660e01b815260040160206040518083038186803b15801561040557600080fd5b505afa158015610419573d6000803e3d6000fd5b505050506040513d602081101561042f57600080fd5b5051600554600654600754604080516001600160a01b03938416602480830191909152604480830194909452825180830385018152606492830184526020810180516001600160e01b03166340c10f1960e01b1781526004805495516368db844d60e11b8152888b1691810191825295881696860187905260009486018590526080938601938452825160848701528251999a50969097169763d1b7089a978a9792969592939260a40191808383885b838110156104f75781810151838201526020016104df565b50505050905090810190601f1680156105245780820380516001836020036101000a031916815260200191505b5095505050505050600060405180830381600087803b15801561054657600080fd5b505af115801561055a573d6000803e3d6000fd5b505050506040513d6000823e601f3d908101601f19168201604090815281101561058357600080fd5b8151602083018051604051929492938301929190846401000000008211156105aa57600080fd5b9083019060208201858111156105bf57600080fd5b82516401000000008111828201881017156105d957600080fd5b82525081516020918201929091019080838360005b838110156106065781810151838201526020016105ee565b50505050905090810190601f1680156106335780820380516001836020036101000a031916815260200191505b50604052505060045461065393506001600160a01b031691506108c49050565b50565b6004546000906001600160a01b03166106aa576040805162461bcd60e51b8152602060048201526011602482015270105d985d185c881a5cc81b9bdd081cd95d607a1b604482015290519081900360640190fd5b6005546004805460408051639be2faed60e01b81526001600160a01b03878116948201949094529183166024830152519190921691639be2faed916044808301926020929190829003018186803b15801561070457600080fd5b505afa158015610718573d6000803e3d6000fd5b505050506040513d602081101561072e57600080fd5b505161073c57506000610740565b5060015b919050565b60005481565b600154421015610799576040805162461bcd60e51b81526020600482015260146024820152731c195c9a5bd9081a185cc81b9bdd08195b99195960621b604482015290519081900360640190fd5b6002546107b39061010090046001600160a01b03166108c4565b565b6107bd61033d565b6107c657600080fd5b61065381610956565b6006546001600160a01b031681565b60005442101580156107f1575060015442105b610832576040805162461bcd60e51b815260206004820152600d60248201526c1b9bdd081a5b881c195c9a5bd9609a1b604482015290519081900360640190fd5b60025460ff161561087f576040805162461bcd60e51b815260206004820152601260248201527163616e6e6f7420737461727420747769636560701b604482015290519081900360640190fd5b6002805460ff1916600117905560408051428152905133917f727dd98701807c5fdf715b9f1fd7d87461a558e2ab3e05935add76e42e330fa3919081900360200190a2565b60025460ff1661090b576040805162461bcd60e51b815260206004820152600d60248201526c6973206e6f742061637469766560981b604482015290519081900360640190fd5b6002805460ff1916905560408051428152905133917ef689ee9beb942c1c9c0d6642687ace05a9000d5f2979d344163c57829fa779919081900360200190a2806001600160a01b0316ff5b6001600160a01b03811661096957600080fd5b6003546040516001600160a01b038084169216907f8be0079c531659141344cd1fd0a4f28419497f9722a3daafe3b4186f6b6457e090600090a3600380546001600160a01b0319166001600160a01b039290921691909117905556fea265627a7a72315820b581ed094063a556c8229cd0d2a010a9c0ebe1ae930d3d6a1e1152db7c21ebd464736f6c6343000510003273746172742063616e6e6f74206265206166746572206e6f7220657175616c20746f20656e64",
  "source": "pragma solidity >0.5.4;\n\nimport \"@daostack/arc/contracts/controller/Avatar.sol\";\nimport \"@daostack/arc/contracts/controller/ControllerInterface.sol\";\n\nimport \"./ActivePeriod.sol\";\nimport \"./SchemeGuard.sol\";\n\n/* @title Scheme contract responsible for minting to a given recipient.\n */\ncontract ReserveMinter is ActivePeriod, SchemeGuard {\n    address public receiver;\n    uint256 public amount;\n\n    /* @dev Constructor.\n     * @param _avatar The avatar of the DAO\n     * @param _amount The amount to mint to receiver\n     * @param _receiver The address to receive minted amount\n     */\n    constructor(\n        Avatar _avatar,\n        uint256 _amount,\n        address _receiver\n    ) public ActivePeriod(now, now * 2, _avatar) SchemeGuard(_avatar) {\n        require(_receiver != address(0), \"receiver cannot be null address\");\n        require(_amount > 0, \"Reserve cannot be zero\");\n\n        amount = _amount;\n        receiver = _receiver;\n    }\n\n    /* @dev Start function. Mints the given amount to\n     * the receiver given in the constructor, then ends the scheme\n     */\n    function start() public onlyRegistered {\n        super.start();\n\n        DAOToken token = avatar.nativeToken();\n\n        controller.genericCall(\n            address(token),\n            abi.encodeWithSignature(\"mint(address,uint256)\", receiver, amount),\n            avatar,\n            0\n        );\n\n        super.internalEnd(avatar);\n    }\n}\n",
  "sourcePath": "/Users/hadar/workspace/GoodDollar/GoodBootstrap/packages/contracts/contracts/dao/schemes/ReserveMinter.sol",
  "compiler": {
    "name": "solc",
    "version": "0.5.16+commit.9c3226ce.Emscripten.clang"
  },
  "schemaVersion": "3.2.3",
  "updatedAt": "2022-10-27T11:34:11.161Z",
  "devdoc": {
    "methods": {
      "isOwner()": {
        "return": "true if `msg.sender` is the owner of the contract."
      },
      "isRegistered()": {
        "details": "function to see if an avatar has been set and if this scheme is registered",
        "return": "true if scheme is registered"
      },
      "isRegistered(address)": {
        "details": "function to see if an avatar has been set and if this scheme is registered",
        "return": "true if scheme is registered"
      },
      "owner()": {
        "return": "the address of the owner."
      },
      "renounceOwnership()": {
        "details": "Allows the current owner to relinquish control of the contract."
      },
      "setAvatar(address)": {
        "details": "Function to set a new avatar and controller for scheme can only be done by owner of scheme"
      },
      "transferOwnership(address)": {
        "details": "Allows the current owner to transfer control of the contract to a newOwner.",
        "params": {
          "newOwner": "The address to transfer ownership to."
        }
      }
    }
  },
  "userdoc": {
    "methods": {
      "renounceOwnership()": {
        "notice": "Renouncing to ownership will leave the contract without an owner. It will not be possible to call the functions with the `onlyOwner` modifier anymore."
      }
    }
  }
}