{
  "contractName": "ReserveMinter",
  "abi": [
    {
      "constant": false,
      "inputs": [
        {
          "name": "_avatar",
          "type": "address"
        }
      ],
      "name": "setAvatar",
      "outputs": [],
      "payable": false,
      "stateMutability": "nonpayable",
      "type": "function"
    },
    {
      "constant": true,
      "inputs": [],
      "name": "isRegistered",
      "outputs": [
        {
          "name": "",
          "type": "bool"
        }
      ],
      "payable": false,
      "stateMutability": "view",
      "type": "function"
    },
    {
      "constant": true,
      "inputs": [],
      "name": "isActive",
      "outputs": [
        {
          "name": "",
          "type": "bool"
        }
      ],
      "payable": false,
      "stateMutability": "view",
      "type": "function"
    },
    {
      "constant": true,
      "inputs": [],
      "name": "periodEnd",
      "outputs": [
        {
          "name": "",
          "type": "uint256"
        }
      ],
      "payable": false,
      "stateMutability": "view",
      "type": "function"
    },
    {
      "constant": false,
      "inputs": [],
      "name": "renounceOwnership",
      "outputs": [],
      "payable": false,
      "stateMutability": "nonpayable",
      "type": "function"
    },
    {
      "constant": false,
      "inputs": [
        {
          "name": "_avatar",
          "type": "address"
        }
      ],
      "name": "end",
      "outputs": [],
      "payable": false,
      "stateMutability": "nonpayable",
      "type": "function"
    },
    {
      "constant": true,
      "inputs": [],
      "name": "owner",
      "outputs": [
        {
          "name": "",
          "type": "address"
        }
      ],
      "payable": false,
      "stateMutability": "view",
      "type": "function"
    },
    {
      "constant": true,
      "inputs": [],
      "name": "isOwner",
      "outputs": [
        {
          "name": "",
          "type": "bool"
        }
      ],
      "payable": false,
      "stateMutability": "view",
      "type": "function"
    },
    {
      "constant": true,
      "inputs": [],
      "name": "amount",
      "outputs": [
        {
          "name": "",
          "type": "uint256"
        }
      ],
      "payable": false,
      "stateMutability": "view",
      "type": "function"
    },
    {
      "constant": true,
      "inputs": [],
      "name": "periodStart",
      "outputs": [
        {
          "name": "",
          "type": "uint256"
        }
      ],
      "payable": false,
      "stateMutability": "view",
      "type": "function"
    },
    {
      "constant": false,
      "inputs": [
        {
          "name": "newOwner",
          "type": "address"
        }
      ],
      "name": "transferOwnership",
      "outputs": [],
      "payable": false,
      "stateMutability": "nonpayable",
      "type": "function"
    },
    {
      "constant": true,
      "inputs": [],
      "name": "receiver",
      "outputs": [
        {
          "name": "",
          "type": "address"
        }
      ],
      "payable": false,
      "stateMutability": "view",
      "type": "function"
    },
    {
      "inputs": [
        {
          "name": "_avatar",
          "type": "address"
        },
        {
          "name": "_amount",
          "type": "uint256"
        },
        {
          "name": "_receiver",
          "type": "address"
        }
      ],
      "payable": false,
      "stateMutability": "nonpayable",
      "type": "constructor"
    },
    {
      "anonymous": false,
      "inputs": [
        {
          "indexed": true,
          "name": "previousOwner",
          "type": "address"
        },
        {
          "indexed": true,
          "name": "newOwner",
          "type": "address"
        }
      ],
      "name": "OwnershipTransferred",
      "type": "event"
    },
    {
      "anonymous": false,
      "inputs": [
        {
          "indexed": true,
          "name": "by",
          "type": "address"
        },
        {
          "indexed": false,
          "name": "time",
          "type": "uint256"
        }
      ],
      "name": "SchemeStarted",
      "type": "event"
    },
    {
      "anonymous": false,
      "inputs": [
        {
          "indexed": true,
          "name": "by",
          "type": "address"
        },
        {
          "indexed": false,
          "name": "time",
          "type": "uint256"
        }
      ],
      "name": "SchemeEnded",
      "type": "event"
    },
    {
      "constant": false,
      "inputs": [],
      "name": "start",
      "outputs": [],
      "payable": false,
      "stateMutability": "nonpayable",
      "type": "function"
    }
  ],
  "bytecode": "0x608060405260048054600160a060020a031916905534801561002057600080fd5b50604051606080610dc68339810180604052606081101561004057600080fd5b50805160208201516040909201519091908242600281028082106100af576040517f08c379a0000000000000000000000000000000000000000000000000000000008152600401808060200182810382526026815260200180610da06026913960400191505060405180910390fd5b600091825560015560028054600160a860020a0319166101003381029190911791829055604051600160a060020a03919092041691907f8be0079c531659141344cd1fd0a4f28419497f9722a3daafe3b4186f6b6457e0908290a360038054600160a060020a031916600160a060020a03838116919091179182905516156101e757600360009054906101000a9004600160a060020a0316600160a060020a0316638da5cb5b6040518163ffffffff167c010000000000000000000000000000000000000000000000000000000002815260040160206040518083038186803b15801561019b57600080fd5b505afa1580156101af573d6000803e3d6000fd5b505050506040513d60208110156101c557600080fd5b505160048054600160a060020a031916600160a060020a039092169190911790555b50600160a060020a038116151561025f57604080517f08c379a000000000000000000000000000000000000000000000000000000000815260206004820152601f60248201527f72656365697665722063616e6e6f74206265206e756c6c206164647265737300604482015290519081900360640190fd5b600082116102ce57604080517f08c379a000000000000000000000000000000000000000000000000000000000815260206004820152601660248201527f526573657276652063616e6e6f74206265207a65726f00000000000000000000604482015290519081900360640190fd5b60069190915560058054600160a060020a031916600160a060020a0390921691909117905550610a9d806103036000396000f3fe608060405234801561001057600080fd5b50600436106100ec576000357c0100000000000000000000000000000000000000000000000000000000900480638da5cb5b116100a9578063be9a655511610083578063be9a6555146101b9578063eda4e6d6146101c1578063f2fde38b146101c9578063f7260d3e146101ef576100ec565b80638da5cb5b146101855780638f32d59b146101a9578063aa8c217c146101b1576100ec565b8063086cfca8146100f1578063223668441461011957806322f3e2d414610135578063506ec0951461013d578063715018a6146101575780638c4dd39d1461015f575b600080fd5b6101176004803603602081101561010757600080fd5b5035600160a060020a03166101f7565b005b6101216102e7565b604080519115158252519081900360200190f35b6101216103fc565b610145610405565b60408051918252519081900360200190f35b61011761040b565b6101176004803603602081101561017557600080fd5b5035600160a060020a031661047b565b61018d6104e1565b60408051600160a060020a039092168252519081900360200190f35b6101216104f5565b61014561050b565b610117610511565b610145610807565b610117600480360360208110156101df57600080fd5b5035600160a060020a031661080d565b61018d610829565b6101ff6104f5565b151561020a57600080fd5b6003805473ffffffffffffffffffffffffffffffffffffffff1916600160a060020a038381169190911791829055604080517f8da5cb5b00000000000000000000000000000000000000000000000000000000815290519290911691638da5cb5b91600480820192602092909190829003018186803b15801561028c57600080fd5b505afa1580156102a0573d6000803e3d6000fd5b505050506040513d60208110156102b657600080fd5b50516004805473ffffffffffffffffffffffffffffffffffffffff1916600160a060020a0390921691909117905550565b600354600090600160a060020a0316151561034c576040805160e560020a62461bcd02815260206004820152601160248201527f417661746172206973206e6f7420736574000000000000000000000000000000604482015290519081900360640190fd5b60048054600354604080517f9be2faed0000000000000000000000000000000000000000000000000000000081523094810194909452600160a060020a03918216602485015251911691639be2faed916044808301926020929190829003018186803b1580156103bb57600080fd5b505afa1580156103cf573d6000803e3d6000fd5b505050506040513d60208110156103e557600080fd5b505115156103f5575060006103f9565b5060015b90565b60025460ff1681565b60015481565b6104136104f5565b151561041e57600080fd5b6002546040516000916101009004600160a060020a0316907f8be0079c531659141344cd1fd0a4f28419497f9722a3daafe3b4186f6b6457e0908390a36002805474ffffffffffffffffffffffffffffffffffffffff0019169055565b6001544210156104d5576040805160e560020a62461bcd02815260206004820152601460248201527f706572696f6420686173206e6f7420656e646564000000000000000000000000604482015290519081900360640190fd5b6104de81610838565b50565b6002546101009004600160a060020a031690565b6002546101009004600160a060020a0316331490565b60065481565b6105196102e7565b151561056f576040805160e560020a62461bcd02815260206004820152601860248201527f536368656d65206973206e6f7420726567697374657265640000000000000000604482015290519081900360640190fd5b6105776108df565b600354604080517fe1758bd80000000000000000000000000000000000000000000000000000000081529051600092600160a060020a03169163e1758bd8916004808301926020929190829003018186803b1580156105d557600080fd5b505afa1580156105e9573d6000803e3d6000fd5b505050506040513d60208110156105ff57600080fd5b50516004805460055460065460408051600160a060020a03938416602480830191909152604480830194909452825180830385018152606492830184526020810180517bffffffffffffffffffffffffffffffffffffffffffffffffffffffff167f40c10f190000000000000000000000000000000000000000000000000000000017815260035494517fd1b7089a000000000000000000000000000000000000000000000000000000008152878b16998101998a5294871695850186905260009385018490526080928501928352815160848601528151999a50959096169763d1b7089a978a97969394909360a490910191808383885b8381101561070f5781810151838201526020016106f7565b50505050905090810190601f16801561073c5780820380516001836020036101000a031916815260200191505b5095505050505050600060405180830381600087803b15801561075e57600080fd5b505af1158015610772573d6000803e3d6000fd5b505050506040513d6000823e601f3d908101601f19168201604090815281101561079b57600080fd5b8151602083018051919392830192916401000000008111156107bc57600080fd5b820160208101848111156107cf57600080fd5b81516401000000008111828201871017156107e957600080fd5b50506003546104de9550600160a060020a0316935061083892505050565b60005481565b6108156104f5565b151561082057600080fd5b6104de816109e8565b600554600160a060020a031681565b60025460ff161515610894576040805160e560020a62461bcd02815260206004820152600d60248201527f6973206e6f742061637469766500000000000000000000000000000000000000604482015290519081900360640190fd5b6002805460ff1916905560408051428152905133917ef689ee9beb942c1c9c0d6642687ace05a9000d5f2979d344163c57829fa779919081900360200190a280600160a060020a0316ff5b60005442101580156108f2575060015442105b1515610948576040805160e560020a62461bcd02815260206004820152600d60248201527f6e6f7420696e20706572696f6400000000000000000000000000000000000000604482015290519081900360640190fd5b60025460ff16156109a3576040805160e560020a62461bcd02815260206004820152601260248201527f63616e6e6f742073746172742074776963650000000000000000000000000000604482015290519081900360640190fd5b6002805460ff1916600117905560408051428152905133917f727dd98701807c5fdf715b9f1fd7d87461a558e2ab3e05935add76e42e330fa3919081900360200190a2565b600160a060020a03811615156109fd57600080fd5b600254604051600160a060020a0380841692610100900416907f8be0079c531659141344cd1fd0a4f28419497f9722a3daafe3b4186f6b6457e090600090a360028054600160a060020a039092166101000274ffffffffffffffffffffffffffffffffffffffff001990921691909117905556fea165627a7a72305820ad5b791b244131989d946de4df5acfbe6a15b11eb678578b6d78685f6b91d62d002973746172742063616e6e6f74206265206166746572206e6f7220657175616c20746f20656e64",
  "source": "pragma solidity 0.5.4;\n\nimport \"@daostack/arc/contracts/controller/Avatar.sol\";\nimport \"@daostack/arc/contracts/controller/ControllerInterface.sol\";\n\nimport \"./ActivePeriod.sol\";\nimport \"./SchemeGuard.sol\";\n\n/* @title Scheme contract responsible for minting to a given recipient.\n */\ncontract ReserveMinter is ActivePeriod, SchemeGuard {\n\n    address public receiver;\n    uint256 public amount;\n\n    /* @dev Constructor.\n     * @param _avatar The avatar of the DAO\n     * @param _amount The amount to mint to receiver\n     * @param _receiver The address to receive minted amount\n     */\n    constructor(\n        Avatar _avatar,\n        uint256 _amount,\n        address _receiver\n    )\n        public\n        ActivePeriod(now, now*2)\n        SchemeGuard(_avatar)\n    {\n        require(_receiver != address(0), \"receiver cannot be null address\");\n        require(_amount > 0, \"Reserve cannot be zero\");\n\n        amount = _amount;\n        receiver = _receiver;\n    }\n\n    /* @dev Start function. Mints the given amount to\n     * the receiver given in the constructor, then ends the scheme\n     */\n    function start() public onlyRegistered {\n        super.start();\n\n        DAOToken token = avatar.nativeToken();\n\n        controller.genericCall(\n            address(token),\n            abi.encodeWithSignature(\"mint(address,uint256)\", receiver, amount),\n            avatar,\n            0);\n\n        super.internalEnd(avatar);\n    }\n}\n",
  "sourcePath": "/Users/hadar/workspace/GoodDollar/GoodBootstrap/packages/contracts/contracts/dao/schemes/ReserveMinter.sol",
  "compiler": {
    "name": "solc",
    "version": "0.5.4+commit.9549d8ff.Emscripten.clang"
  },
  "schemaVersion": "3.0.16",
  "updatedAt": "2020-04-26T07:05:12.857Z",
  "devdoc": {
    "methods": {
      "isOwner()": {
        "return": "true if `msg.sender` is the owner of the contract."
      },
      "owner()": {
        "return": "the address of the owner."
      },
      "renounceOwnership()": {
        "details": "Allows the current owner to relinquish control of the contract."
      },
      "transferOwnership(address)": {
        "details": "Allows the current owner to transfer control of the contract to a newOwner.",
        "params": {
          "newOwner": "The address to transfer ownership to."
        }
      }
    }
  },
  "userdoc": {
    "methods": {
      "renounceOwnership()": {
        "notice": "Renouncing to ownership will leave the contract without an owner. It will not be possible to call the functions with the `onlyOwner` modifier anymore."
      }
    }
  }
}