{
  "contractName": "ReserveRelayer",
  "abi": [
    {
      "constant": false,
      "inputs": [
        {
          "name": "_avatar",
          "type": "address"
        }
      ],
      "name": "setAvatar",
      "outputs": [],
      "payable": false,
      "stateMutability": "nonpayable",
      "type": "function"
    },
    {
      "constant": true,
      "inputs": [],
      "name": "isRegistered",
      "outputs": [],
      "payable": false,
      "stateMutability": "view",
      "type": "function"
    },
    {
      "constant": true,
      "inputs": [],
      "name": "isActive",
      "outputs": [
        {
          "name": "",
          "type": "bool"
        }
      ],
      "payable": false,
      "stateMutability": "view",
      "type": "function"
    },
    {
      "constant": true,
      "inputs": [],
      "name": "identity",
      "outputs": [
        {
          "name": "",
          "type": "address"
        }
      ],
      "payable": false,
      "stateMutability": "view",
      "type": "function"
    },
    {
      "constant": true,
      "inputs": [],
      "name": "periodEnd",
      "outputs": [
        {
          "name": "",
          "type": "uint256"
        }
      ],
      "payable": false,
      "stateMutability": "view",
      "type": "function"
    },
    {
      "constant": false,
      "inputs": [
        {
          "name": "_identity",
          "type": "address"
        },
        {
          "name": "_avatar",
          "type": "address"
        }
      ],
      "name": "setIdentity",
      "outputs": [],
      "payable": false,
      "stateMutability": "nonpayable",
      "type": "function"
    },
    {
      "constant": false,
      "inputs": [],
      "name": "renounceOwnership",
      "outputs": [],
      "payable": false,
      "stateMutability": "nonpayable",
      "type": "function"
    },
    {
      "constant": false,
      "inputs": [
        {
          "name": "_avatar",
          "type": "address"
        }
      ],
      "name": "end",
      "outputs": [],
      "payable": false,
      "stateMutability": "nonpayable",
      "type": "function"
    },
    {
      "constant": true,
      "inputs": [],
      "name": "owner",
      "outputs": [
        {
          "name": "",
          "type": "address"
        }
      ],
      "payable": false,
      "stateMutability": "view",
      "type": "function"
    },
    {
      "constant": true,
      "inputs": [],
      "name": "isOwner",
      "outputs": [
        {
          "name": "",
          "type": "bool"
        }
      ],
      "payable": false,
      "stateMutability": "view",
      "type": "function"
    },
    {
      "constant": true,
      "inputs": [],
      "name": "periodStart",
      "outputs": [
        {
          "name": "",
          "type": "uint256"
        }
      ],
      "payable": false,
      "stateMutability": "view",
      "type": "function"
    },
    {
      "constant": false,
      "inputs": [
        {
          "name": "newOwner",
          "type": "address"
        }
      ],
      "name": "transferOwnership",
      "outputs": [],
      "payable": false,
      "stateMutability": "nonpayable",
      "type": "function"
    },
    {
      "constant": true,
      "inputs": [],
      "name": "receiver",
      "outputs": [
        {
          "name": "",
          "type": "address"
        }
      ],
      "payable": false,
      "stateMutability": "view",
      "type": "function"
    },
    {
      "inputs": [
        {
          "name": "_avatar",
          "type": "address"
        },
        {
          "name": "_identity",
          "type": "address"
        },
        {
          "name": "_receiver",
          "type": "address"
        },
        {
          "name": "_periodStart",
          "type": "uint256"
        },
        {
          "name": "_periodEnd",
          "type": "uint256"
        }
      ],
      "payable": false,
      "stateMutability": "nonpayable",
      "type": "constructor"
    },
    {
      "anonymous": false,
      "inputs": [
        {
          "indexed": true,
          "name": "previousOwner",
          "type": "address"
        },
        {
          "indexed": true,
          "name": "newOwner",
          "type": "address"
        }
      ],
      "name": "OwnershipTransferred",
      "type": "event"
    },
    {
      "anonymous": false,
      "inputs": [
        {
          "indexed": true,
          "name": "by",
          "type": "address"
        },
        {
          "indexed": false,
          "name": "time",
          "type": "uint256"
        }
      ],
      "name": "SchemeStarted",
      "type": "event"
    },
    {
      "anonymous": false,
      "inputs": [
        {
          "indexed": true,
          "name": "by",
          "type": "address"
        },
        {
          "indexed": false,
          "name": "time",
          "type": "uint256"
        }
      ],
      "name": "SchemeEnded",
      "type": "event"
    },
    {
      "constant": false,
      "inputs": [],
      "name": "start",
      "outputs": [],
      "payable": false,
      "stateMutability": "nonpayable",
      "type": "function"
    }
  ],
  "bytecode": "0x608060405260048054600160a060020a031916905534801561002057600080fd5b5060405160a080611821833981018060405260a081101561004057600080fd5b508051602082015160408301516060840151608090940151929391929091908385818185858082106100bd576040517f08c379a00000000000000000000000000000000000000000000000000000000081526004018080602001828103825260268152602001806117fb6026913960400191505060405180910390fd5b600091825560015560028054600160a860020a0319166101003381029190911791829055604051600160a060020a03919092041691907f8be0079c531659141344cd1fd0a4f28419497f9722a3daafe3b4186f6b6457e0908290a360038054600160a060020a031916600160a060020a03838116919091179182905516156101f557600360009054906101000a9004600160a060020a0316600160a060020a0316638da5cb5b6040518163ffffffff167c010000000000000000000000000000000000000000000000000000000002815260040160206040518083038186803b1580156101a957600080fd5b505afa1580156101bd573d6000803e3d6000fd5b505050506040513d60208110156101d357600080fd5b505160048054600160a060020a031916600160a060020a039092169190911790555b50600160a060020a038116151561026d57604080517f08c379a000000000000000000000000000000000000000000000000000000000815260206004820152601960248201527f537570706c696564206964656e74697479206973206e756c6c00000000000000604482015290519081900360640190fd5b60058054600160a060020a031916600160a060020a039283161790558516151591506102fc905057604080517f08c379a000000000000000000000000000000000000000000000000000000000815260206004820152601f60248201527f72656365697665722063616e6e6f74206265206e756c6c206164647265737300604482015290519081900360640190fd5b505060068054600160a060020a03909216600160a060020a031990921691909117905550506114cb806103306000396000f3fe608060405234801561001057600080fd5b50600436106100ee5760003560e060020a900480638c4dd39d11610090578063be9a65551161006a578063be9a6555146101e9578063eda4e6d6146101f1578063f2fde38b146101f9578063f7260d3e1461021f576100ee565b80638c4dd39d146101b35780638da5cb5b146101d95780638f32d59b146101e1576100ee565b80632c159a1a116100cc5780632c159a1a1461013f578063506ec0951461016357806360ee79381461017d578063715018a6146101ab576100ee565b8063086cfca8146100f3578063223668441461011b57806322f3e2d414610123575b600080fd5b6101196004803603602081101561010957600080fd5b5035600160a060020a0316610227565b005b6101196104cf565b61012b6105fc565b604080519115158252519081900360200190f35b610147610605565b60408051600160a060020a039092168252519081900360200190f35b61016b610614565b60408051918252519081900360200190f35b6101196004803603604081101561019357600080fd5b50600160a060020a038135811691602001351661061a565b61011961086a565b610119600480360360208110156101c957600080fd5b5035600160a060020a03166108da565b610147610940565b61012b610954565b61011961096a565b61016b610d74565b6101196004803603602081101561020f57600080fd5b5035600160a060020a0316610d7a565b610147610d96565b8033600160a060020a038216148015610337575030600160a060020a0316638da5cb5b6040518163ffffffff1660e060020a02815260040160206040518083038186803b15801561027757600080fd5b505afa15801561028b573d6000803e3d6000fd5b505050506040513d60208110156102a157600080fd5b5051604080517f8da5cb5b0000000000000000000000000000000000000000000000000000000081529051600160a060020a0392831692841691638da5cb5b916004808301926020929190829003018186803b15801561030057600080fd5b505afa158015610314573d6000803e3d6000fd5b505050506040513d602081101561032a57600080fd5b5051600160a060020a0316145b806103b1575030600160a060020a0316638da5cb5b6040518163ffffffff1660e060020a02815260040160206040518083038186803b15801561037957600080fd5b505afa15801561038d573d6000803e3d6000fd5b505050506040513d60208110156103a357600080fd5b5051600160a060020a031633145b15156103f15760405160e560020a62461bcd0281526004018080602001828103825260298152602001806114776029913960400191505060405180910390fd5b6003805473ffffffffffffffffffffffffffffffffffffffff1916600160a060020a038481169190911791829055604080517f8da5cb5b00000000000000000000000000000000000000000000000000000000815290519290911691638da5cb5b91600480820192602092909190829003018186803b15801561047357600080fd5b505afa158015610487573d6000803e3d6000fd5b505050506040513d602081101561049d57600080fd5b50516004805473ffffffffffffffffffffffffffffffffffffffff1916600160a060020a039092169190911790555050565b600354600160a060020a03161515610531576040805160e560020a62461bcd02815260206004820152601160248201527f417661746172206973206e6f7420736574000000000000000000000000000000604482015290519081900360640190fd5b600480546003546040805160e060020a639be2faed0281523094810194909452600160a060020a03918216602485015251911691639be2faed916044808301926020929190829003018186803b15801561058a57600080fd5b505afa15801561059e573d6000803e3d6000fd5b505050506040513d60208110156105b457600080fd5b505115156105fa576040805160e560020a62461bcd0281526020600482015260186024820152600080516020611457833981519152604482015290519081900360640190fd5b565b60025460ff1681565b600554600160a060020a031681565b60015481565b8033600160a060020a03821614801561072a575030600160a060020a0316638da5cb5b6040518163ffffffff1660e060020a02815260040160206040518083038186803b15801561066a57600080fd5b505afa15801561067e573d6000803e3d6000fd5b505050506040513d602081101561069457600080fd5b5051604080517f8da5cb5b0000000000000000000000000000000000000000000000000000000081529051600160a060020a0392831692841691638da5cb5b916004808301926020929190829003018186803b1580156106f357600080fd5b505afa158015610707573d6000803e3d6000fd5b505050506040513d602081101561071d57600080fd5b5051600160a060020a0316145b806107a4575030600160a060020a0316638da5cb5b6040518163ffffffff1660e060020a02815260040160206040518083038186803b15801561076c57600080fd5b505afa158015610780573d6000803e3d6000fd5b505050506040513d602081101561079657600080fd5b5051600160a060020a031633145b15156107e45760405160e560020a62461bcd0281526004018080602001828103825260298152602001806114776029913960400191505060405180910390fd5b82600160a060020a031663223668446040518163ffffffff1660e060020a02815260040160006040518083038186803b15801561082057600080fd5b505afa158015610834573d6000803e3d6000fd5b50506005805473ffffffffffffffffffffffffffffffffffffffff1916600160a060020a03969096169590951790945550505050565b610872610954565b151561087d57600080fd5b6002546040516000916101009004600160a060020a0316907f8be0079c531659141344cd1fd0a4f28419497f9722a3daafe3b4186f6b6457e0908390a36002805474ffffffffffffffffffffffffffffffffffffffff0019169055565b600154421015610934576040805160e560020a62461bcd02815260206004820152601460248201527f706572696f6420686173206e6f7420656e646564000000000000000000000000604482015290519081900360640190fd5b61093d81610da5565b50565b6002546101009004600160a060020a031690565b6002546101009004600160a060020a0316331490565b600480546003546040805160e060020a639be2faed0281523094810194909452600160a060020a03918216602485015251911691639be2faed916044808301926020929190829003018186803b1580156109c357600080fd5b505afa1580156109d7573d6000803e3d6000fd5b505050506040513d60208110156109ed57600080fd5b50511515610a33576040805160e560020a62461bcd0281526020600482015260186024820152600080516020611457833981519152604482015290519081900360640190fd5b610a3b610e4c565b610a43610f55565b600354604080517fe1758bd80000000000000000000000000000000000000000000000000000000081529051600092600160a060020a03169163e1758bd8916004808301926020929190829003018186803b158015610aa157600080fd5b505afa158015610ab5573d6000803e3d6000fd5b505050506040513d6020811015610acb57600080fd5b5051600354604080517f70a08231000000000000000000000000000000000000000000000000000000008152600160a060020a0392831660048201529051929350600092918416916370a0823191602480820192602092909190829003018186803b158015610b3957600080fd5b505afa158015610b4d573d6000803e3d6000fd5b505050506040513d6020811015610b6357600080fd5b50516004805460065460408051600160a060020a039283166024808301919091526044808301889052835180840382018152606493840185526020810180517bffffffffffffffffffffffffffffffffffffffffffffffffffffffff167fa9059cbb0000000000000000000000000000000000000000000000000000000017815260035495517fd1b7089a0000000000000000000000000000000000000000000000000000000081528c8816998101998a5295871692860183905260009486018590526080938601938452815160848701528151999a50959096169763d1b7089a978b9796929590939260a490910191808383885b83811015610c70578181015183820152602001610c58565b50505050905090810190601f168015610c9d5780820380516001836020036101000a031916815260200191505b5095505050505050600060405180830381600087803b158015610cbf57600080fd5b505af1158015610cd3573d6000803e3d6000fd5b505050506040513d6000823e601f3d908101601f191682016040908152811015610cfc57600080fd5b815160208301805191939283019291640100000000811115610d1d57600080fd5b82016020810184811115610d3057600080fd5b8151640100000000811182820187101715610d4a57600080fd5b50610d5b9550611203945050505050565b600354610d7090600160a060020a0316610da5565b5050565b60005481565b610d82610954565b1515610d8d57600080fd5b61093d816113cd565b600654600160a060020a031681565b60025460ff161515610e01576040805160e560020a62461bcd02815260206004820152600d60248201527f6973206e6f742061637469766500000000000000000000000000000000000000604482015290519081900360640190fd5b6002805460ff1916905560408051428152905133917ef689ee9beb942c1c9c0d6642687ace05a9000d5f2979d344163c57829fa779919081900360200190a280600160a060020a0316ff5b6000544210158015610e5f575060015442105b1515610eb5576040805160e560020a62461bcd02815260206004820152600d60248201527f6e6f7420696e20706572696f6400000000000000000000000000000000000000604482015290519081900360640190fd5b60025460ff1615610f10576040805160e560020a62461bcd02815260206004820152601260248201527f63616e6e6f742073746172742074776963650000000000000000000000000000604482015290519081900360640190fd5b6002805460ff1916600117905560408051428152905133917f727dd98701807c5fdf715b9f1fd7d87461a558e2ab3e05935add76e42e330fa3919081900360200190a2565b600480546003546040805160e060020a639be2faed0281523094810194909452600160a060020a03918216602485015251911691639be2faed916044808301926020929190829003018186803b158015610fae57600080fd5b505afa158015610fc2573d6000803e3d6000fd5b505050506040513d6020811015610fd857600080fd5b5051151561101e576040805160e560020a62461bcd0281526020600482015260186024820152600080516020611457833981519152604482015290519081900360640190fd5b600480546005546040805130602480830191909152825180830382018152604492830184526020810180517bffffffffffffffffffffffffffffffffffffffffffffffffffffffff167f5f539d690000000000000000000000000000000000000000000000000000000017815260035494517fd1b7089a000000000000000000000000000000000000000000000000000000008152600160a060020a039687169881018981529587169481018590526000606482018190526080948201948552835160848301528351979098169863d1b7089a989097939690949093909260a49092019190808383885b83811015611120578181015183820152602001611108565b50505050905090810190601f16801561114d5780820380516001836020036101000a031916815260200191505b5095505050505050600060405180830381600087803b15801561116f57600080fd5b505af1158015611183573d6000803e3d6000fd5b505050506040513d6000823e601f3d908101601f1916820160409081528110156111ac57600080fd5b8151602083018051919392830192916401000000008111156111cd57600080fd5b820160208101848111156111e057600080fd5b81516401000000008111828201871017156111fa57600080fd5b50505050505050565b600480546003546040805160e060020a639be2faed0281523094810194909452600160a060020a03918216602485015251911691639be2faed916044808301926020929190829003018186803b15801561125c57600080fd5b505afa158015611270573d6000803e3d6000fd5b505050506040513d602081101561128657600080fd5b505115156112cc576040805160e560020a62461bcd0281526020600482015260186024820152600080516020611457833981519152604482015290519081900360640190fd5b600480546005546040805130602480830191909152825180830382018152604492830184526020810180517bffffffffffffffffffffffffffffffffffffffffffffffffffffffff167fc375c2ef0000000000000000000000000000000000000000000000000000000017815260035494517fd1b7089a000000000000000000000000000000000000000000000000000000008152600160a060020a039687169881018981529587169481018590526000606482018190526080948201948552835160848301528351979098169863d1b7089a989097939690949093909260a490920191908083838883811015611120578181015183820152602001611108565b600160a060020a03811615156113e257600080fd5b600254604051600160a060020a0380841692610100900416907f8be0079c531659141344cd1fd0a4f28419497f9722a3daafe3b4186f6b6457e090600090a360028054600160a060020a039092166101000274ffffffffffffffffffffffffffffffffffffffff001990921691909117905556fe536368656d65206973206e6f74207265676973746572656400000000000000004f6e6c792063616c6c61626c6520627920617661746172206f66206f776e6572206f72206f776e6572a165627a7a72305820242a366adc9a10353786873dd250c3dfc83a6fe3af2a366425f11ac8d8dd3d16002973746172742063616e6e6f74206265206166746572206e6f7220657175616c20746f20656e64",
  "source": "pragma solidity 0.5.4;\n\nimport \"@daostack/arc/contracts/controller/Avatar.sol\";\nimport \"@daostack/arc/contracts/controller/ControllerInterface.sol\";\n\nimport \"./ActivePeriod.sol\";\nimport \"./FeelessScheme.sol\";\nimport \"./SchemeGuard.sol\";\nimport \"../../identity/Identity.sol\";\n\n/* @title Scheme contract responsible relaying fees on forign network to home network.\n * Currently, it is not possible to relay the fees directly to the ubi contract\n * on the home network, as the Token bridge only allows transfers from one address \n * to the same address on the other network, meaning that contracts with different \n * addresses are unable to relay funds to each other.\n */\ncontract ReserveRelayer is ActivePeriod, FeelessScheme {\n\n    address public receiver;\n\n    /* @dev Constructor. Checks if periodEnd variable is after periodStart.\n     * @param _periodStart period from when the contract is able to start\n     * @param _periodEnd period from when the contract is able to end\n     */\n    constructor(\n        Avatar _avatar,\n        Identity _identity,\n        address _receiver,\n        uint _periodStart,\n        uint _periodEnd\n    )\n        public\n        ActivePeriod(_periodStart, _periodEnd)\n        FeelessScheme(_identity, _avatar)\n    {\n        require(_receiver != address(0), \"receiver cannot be null address\");\n        receiver = _receiver;\n    }\n\n    /* @dev Start function. Transfers the entire reserve from the avatar to\n     * the receiver given in the constructor, then ends the scheme regardless\n     * of end period\n     */\n    function start() onlyRegistered public {\n        super.start();\n\n        addRights();\n\n        /* Transfer the fee reserve to this contract */\n        DAOToken token = avatar.nativeToken();\n        uint256 reserve = token.balanceOf(address(avatar));\n\n        controller.genericCall(\n            address(token),\n            abi.encodeWithSignature(\"transfer(address,uint256)\", receiver, reserve),\n            avatar,\n            0);\n\n        removeRights();\n\n        super.internalEnd(avatar);\n    }\n}\n",
  "sourcePath": "/Users/hadar/workspace/GoodDollar/GoodBootstrap/packages/contracts/contracts/dao/schemes/ReserveRelayer.sol",
  "compiler": {
    "name": "solc",
    "version": "0.5.4+commit.9549d8ff.Emscripten.clang"
  },
  "schemaVersion": "3.0.16",
  "updatedAt": "2019-10-24T08:14:04.913Z",
  "devdoc": {
    "methods": {
      "isOwner()": {
        "return": "true if `msg.sender` is the owner of the contract."
      },
      "owner()": {
        "return": "the address of the owner."
      },
      "renounceOwnership()": {
        "details": "Allows the current owner to relinquish control of the contract."
      },
      "transferOwnership(address)": {
        "details": "Allows the current owner to transfer control of the contract to a newOwner.",
        "params": {
          "newOwner": "The address to transfer ownership to."
        }
      }
    }
  },
  "userdoc": {
    "methods": {
      "renounceOwnership()": {
        "notice": "Renouncing to ownership will leave the contract without an owner. It will not be possible to call the functions with the `onlyOwner` modifier anymore."
      }
    }
  }
}