{
  "contractName": "ReserveRelayer",
  "abi": [
    {
      "constant": false,
      "inputs": [
        {
          "name": "_avatar",
          "type": "address"
        }
      ],
      "name": "setAvatar",
      "outputs": [],
      "payable": false,
      "stateMutability": "nonpayable",
      "type": "function"
    },
    {
      "constant": true,
      "inputs": [],
      "name": "isRegistered",
      "outputs": [
        {
          "name": "",
          "type": "bool"
        }
      ],
      "payable": false,
      "stateMutability": "view",
      "type": "function"
    },
    {
      "constant": true,
      "inputs": [],
      "name": "isActive",
      "outputs": [
        {
          "name": "",
          "type": "bool"
        }
      ],
      "payable": false,
      "stateMutability": "view",
      "type": "function"
    },
    {
      "constant": true,
      "inputs": [],
      "name": "identity",
      "outputs": [
        {
          "name": "",
          "type": "address"
        }
      ],
      "payable": false,
      "stateMutability": "view",
      "type": "function"
    },
    {
      "constant": true,
      "inputs": [],
      "name": "periodEnd",
      "outputs": [
        {
          "name": "",
          "type": "uint256"
        }
      ],
      "payable": false,
      "stateMutability": "view",
      "type": "function"
    },
    {
      "constant": false,
      "inputs": [
        {
          "name": "_identity",
          "type": "address"
        }
      ],
      "name": "setIdentity",
      "outputs": [],
      "payable": false,
      "stateMutability": "nonpayable",
      "type": "function"
    },
    {
      "constant": false,
      "inputs": [],
      "name": "renounceOwnership",
      "outputs": [],
      "payable": false,
      "stateMutability": "nonpayable",
      "type": "function"
    },
    {
      "constant": true,
      "inputs": [],
      "name": "owner",
      "outputs": [
        {
          "name": "",
          "type": "address"
        }
      ],
      "payable": false,
      "stateMutability": "view",
      "type": "function"
    },
    {
      "constant": true,
      "inputs": [],
      "name": "isOwner",
      "outputs": [
        {
          "name": "",
          "type": "bool"
        }
      ],
      "payable": false,
      "stateMutability": "view",
      "type": "function"
    },
    {
      "constant": true,
      "inputs": [
        {
          "name": "scheme",
          "type": "address"
        }
      ],
      "name": "isRegistered",
      "outputs": [
        {
          "name": "",
          "type": "bool"
        }
      ],
      "payable": false,
      "stateMutability": "view",
      "type": "function"
    },
    {
      "constant": true,
      "inputs": [],
      "name": "periodStart",
      "outputs": [
        {
          "name": "",
          "type": "uint256"
        }
      ],
      "payable": false,
      "stateMutability": "view",
      "type": "function"
    },
    {
      "constant": false,
      "inputs": [],
      "name": "end",
      "outputs": [],
      "payable": false,
      "stateMutability": "nonpayable",
      "type": "function"
    },
    {
      "constant": false,
      "inputs": [
        {
          "name": "newOwner",
          "type": "address"
        }
      ],
      "name": "transferOwnership",
      "outputs": [],
      "payable": false,
      "stateMutability": "nonpayable",
      "type": "function"
    },
    {
      "constant": true,
      "inputs": [],
      "name": "receiver",
      "outputs": [
        {
          "name": "",
          "type": "address"
        }
      ],
      "payable": false,
      "stateMutability": "view",
      "type": "function"
    },
    {
      "inputs": [
        {
          "name": "_avatar",
          "type": "address"
        },
        {
          "name": "_identity",
          "type": "address"
        },
        {
          "name": "_receiver",
          "type": "address"
        },
        {
          "name": "_periodStart",
          "type": "uint256"
        },
        {
          "name": "_periodEnd",
          "type": "uint256"
        }
      ],
      "payable": false,
      "stateMutability": "nonpayable",
      "type": "constructor"
    },
    {
      "anonymous": false,
      "inputs": [
        {
          "indexed": true,
          "name": "previousOwner",
          "type": "address"
        },
        {
          "indexed": true,
          "name": "newOwner",
          "type": "address"
        }
      ],
      "name": "OwnershipTransferred",
      "type": "event"
    },
    {
      "anonymous": false,
      "inputs": [
        {
          "indexed": true,
          "name": "by",
          "type": "address"
        },
        {
          "indexed": false,
          "name": "time",
          "type": "uint256"
        }
      ],
      "name": "SchemeStarted",
      "type": "event"
    },
    {
      "anonymous": false,
      "inputs": [
        {
          "indexed": true,
          "name": "by",
          "type": "address"
        },
        {
          "indexed": false,
          "name": "time",
          "type": "uint256"
        }
      ],
      "name": "SchemeEnded",
      "type": "event"
    },
    {
      "constant": false,
      "inputs": [],
      "name": "start",
      "outputs": [],
      "payable": false,
      "stateMutability": "nonpayable",
      "type": "function"
    }
  ],
  "bytecode": "0x608060405260058054600160a060020a031916905534801561002057600080fd5b5060405160a080611481833981018060405260a081101561004057600080fd5b50805160208201516040830151606084015160809094015192939192909190838581818585828183106100be576040517f08c379a000000000000000000000000000000000000000000000000000000000815260040180806020018281038252602681526020018061145b6026913960400191505060405180910390fd5b60009283556001919091556002805461010060a860020a031916610100600160a060020a03938416021760ff191690556003805433600160a060020a03199091161790819055604051911691907f8be0079c531659141344cd1fd0a4f28419497f9722a3daafe3b4186f6b6457e0908290a360048054600160a060020a031916600160a060020a03838116919091179182905516156101fe5760048054604080517f8da5cb5b0000000000000000000000000000000000000000000000000000000081529051600160a060020a0390921692638da5cb5b928282019260209290829003018186803b1580156101b257600080fd5b505afa1580156101c6573d6000803e3d6000fd5b505050506040513d60208110156101dc57600080fd5b505160058054600160a060020a031916600160a060020a039092169190911790555b50600160a060020a038116151561027657604080517f08c379a000000000000000000000000000000000000000000000000000000000815260206004820152601960248201527f537570706c696564206964656e74697479206973206e756c6c00000000000000604482015290519081900360640190fd5b60068054600160a060020a031916600160a060020a03928316179055851615159150610305905057604080517f08c379a000000000000000000000000000000000000000000000000000000000815260206004820152601f60248201527f72656365697665722063616e6e6f74206265206e756c6c206164647265737300604482015290519081900360640190fd5b505060078054600160a060020a03909216600160a060020a03199092169190911790555050611122806103396000396000f3fe608060405234801561001057600080fd5b50600436106100f95760003560e060020a900480638da5cb5b1161009b578063eda4e6d61161006a578063eda4e6d6146101f4578063efbe1c1c146101fc578063f2fde38b14610204578063f7260d3e1461022a576100f9565b80638da5cb5b146101b65780638f32d59b146101be578063be9a6555146101c6578063c3c5a547146101ce576100f9565b80632c159a1a116100d75780632c159a1a1461014a578063506ec0951461016e5780635d5bf17814610188578063715018a6146101ae576100f9565b8063086cfca8146100fe578063223668441461012657806322f3e2d414610142575b600080fd5b6101246004803603602081101561011457600080fd5b5035600160a060020a0316610232565b005b61012e61031e565b604080519115158252519081900360200190f35b61012e61032e565b610152610337565b60408051600160a060020a039092168252519081900360200190f35b610176610346565b60408051918252519081900360200190f35b6101246004803603602081101561019e57600080fd5b5035600160a060020a031661034c565b61012461044c565b6101526104b6565b61012e6104c5565b6101246104d6565b61012e600480360360208110156101e457600080fd5b5035600160a060020a031661086a565b610176610985565b61012461098b565b6101246004803603602081101561021a57600080fd5b5035600160a060020a0316610a01565b610152610a20565b61023a6104c5565b151561024557600080fd5b6004805473ffffffffffffffffffffffffffffffffffffffff1916600160a060020a0383811691909117808355604080517f8da5cb5b00000000000000000000000000000000000000000000000000000000815290519190921692638da5cb5b92808201926020929091829003018186803b1580156102c357600080fd5b505afa1580156102d7573d6000803e3d6000fd5b505050506040513d60208110156102ed57600080fd5b50516005805473ffffffffffffffffffffffffffffffffffffffff1916600160a060020a0390921691909117905550565b60006103293061086a565b905090565b60025460ff1681565b600654600160a060020a031681565b60015481565b6103546104c5565b151561035f57600080fd5b80600160a060020a031663223668446040518163ffffffff1660e060020a02815260040160206040518083038186803b15801561039b57600080fd5b505afa1580156103af573d6000803e3d6000fd5b505050506040513d60208110156103c557600080fd5b5051151561041d576040805160e560020a62461bcd02815260206004820152601a60248201527f4964656e74697479206973206e6f742072656769737465726564000000000000604482015290519081900360640190fd5b6006805473ffffffffffffffffffffffffffffffffffffffff1916600160a060020a0392909216919091179055565b6104546104c5565b151561045f57600080fd5b600354604051600091600160a060020a0316907f8be0079c531659141344cd1fd0a4f28419497f9722a3daafe3b4186f6b6457e0908390a36003805473ffffffffffffffffffffffffffffffffffffffff19169055565b600354600160a060020a031690565b600354600160a060020a0316331490565b6104de61031e565b1515610534576040805160e560020a62461bcd02815260206004820152601860248201527f536368656d65206973206e6f7420726567697374657265640000000000000000604482015290519081900360640190fd5b61053c610a2f565b610544610b38565b6000600460009054906101000a9004600160a060020a0316600160a060020a031663e1758bd86040518163ffffffff1660e060020a02815260040160206040518083038186803b15801561059757600080fd5b505afa1580156105ab573d6000803e3d6000fd5b505050506040513d60208110156105c157600080fd5b505160048054604080517f70a08231000000000000000000000000000000000000000000000000000000008152600160a060020a039283169381019390935251929350600092908416916370a08231916024808301926020929190829003018186803b15801561063057600080fd5b505afa158015610644573d6000803e3d6000fd5b505050506040513d602081101561065a57600080fd5b505160055460075460408051600160a060020a039283166024808301919091526044808301879052835180840382018152606493840185526020810180517bffffffffffffffffffffffffffffffffffffffffffffffffffffffff167fa9059cbb000000000000000000000000000000000000000000000000000000001781526004805496517fd1b7089a0000000000000000000000000000000000000000000000000000000081528c891691810191825296881693870184905260009587018690526080948701948552825160848801528251999a50969097169763d1b7089a978b979296939594929360a40191808383885b8381101561076657818101518382015260200161074e565b50505050905090810190601f1680156107935780820380516001836020036101000a031916815260200191505b5095505050505050600060405180830381600087803b1580156107b557600080fd5b505af11580156107c9573d6000803e3d6000fd5b505050506040513d6000823e601f3d908101601f1916820160409081528110156107f257600080fd5b81516020830180519193928301929164010000000081111561081357600080fd5b8201602081018481111561082657600080fd5b815164010000000081118282018710171561084057600080fd5b506108519550610d8f945050505050565b60045461086690600160a060020a0316610fd1565b5050565b600454600090600160a060020a031615156108cf576040805160e560020a62461bcd02815260206004820152601160248201527f417661746172206973206e6f7420736574000000000000000000000000000000604482015290519081900360640190fd5b60055460048054604080517f9be2faed000000000000000000000000000000000000000000000000000000008152600160a060020a03878116948201949094529183166024830152519190921691639be2faed916044808301926020929190829003018186803b15801561094257600080fd5b505afa158015610956573d6000803e3d6000fd5b505050506040513d602081101561096c57600080fd5b5051151561097c57506000610980565b5060015b919050565b60005481565b6001544210156109e5576040805160e560020a62461bcd02815260206004820152601460248201527f706572696f6420686173206e6f7420656e646564000000000000000000000000604482015290519081900360640190fd5b6002546109ff906101009004600160a060020a0316610fd1565b565b610a096104c5565b1515610a1457600080fd5b610a1d81611078565b50565b600754600160a060020a031681565b6000544210158015610a42575060015442105b1515610a98576040805160e560020a62461bcd02815260206004820152600d60248201527f6e6f7420696e20706572696f6400000000000000000000000000000000000000604482015290519081900360640190fd5b60025460ff1615610af3576040805160e560020a62461bcd02815260206004820152601260248201527f63616e6e6f742073746172742074776963650000000000000000000000000000604482015290519081900360640190fd5b6002805460ff1916600117905560408051428152905133917f727dd98701807c5fdf715b9f1fd7d87461a558e2ab3e05935add76e42e330fa3919081900360200190a2565b610b4061031e565b1515610b96576040805160e560020a62461bcd02815260206004820152601860248201527f536368656d65206973206e6f7420726567697374657265640000000000000000604482015290519081900360640190fd5b6005546006546040805130602480830191909152825180830382018152604492830184526020810180517bffffffffffffffffffffffffffffffffffffffffffffffffffffffff167f5f539d69000000000000000000000000000000000000000000000000000000001781526004805495517fd1b7089a000000000000000000000000000000000000000000000000000000008152600160a060020a039788169181018281529688169581018690526000606482018190526080958201958652845160848301528451989099169863d1b7089a989297949695909493909260a490920191808383885b83811015610c97578181015183820152602001610c7f565b50505050905090810190601f168015610cc45780820380516001836020036101000a031916815260200191505b5095505050505050600060405180830381600087803b158015610ce657600080fd5b505af1158015610cfa573d6000803e3d6000fd5b505050506040513d6000823e601f3d908101601f191682016040908152811015610d2357600080fd5b815160208301805191939283019291640100000000811115610d4457600080fd5b82016020810184811115610d5757600080fd5b8151640100000000811182820187101715610d7157600080fd5b50506004546109ff9550600160a060020a03169350610a0192505050565b610d9761031e565b1515610ded576040805160e560020a62461bcd02815260206004820152601860248201527f536368656d65206973206e6f7420726567697374657265640000000000000000604482015290519081900360640190fd5b6005546006546040805130602480830191909152825180830382018152604492830184526020810180517bffffffffffffffffffffffffffffffffffffffffffffffffffffffff167fc375c2ef000000000000000000000000000000000000000000000000000000001781526004805495517fd1b7089a000000000000000000000000000000000000000000000000000000008152600160a060020a039788169181018281529688169581018690526000606482018190526080958201958652845160848301528451989099169863d1b7089a989297949695909493909260a490920191808383885b83811015610eee578181015183820152602001610ed6565b50505050905090810190601f168015610f1b5780820380516001836020036101000a031916815260200191505b5095505050505050600060405180830381600087803b158015610f3d57600080fd5b505af1158015610f51573d6000803e3d6000fd5b505050506040513d6000823e601f3d908101601f191682016040908152811015610f7a57600080fd5b815160208301805191939283019291640100000000811115610f9b57600080fd5b82016020810184811115610fae57600080fd5b8151640100000000811182820187101715610fc857600080fd5b50505050505050565b60025460ff16151561102d576040805160e560020a62461bcd02815260206004820152600d60248201527f6973206e6f742061637469766500000000000000000000000000000000000000604482015290519081900360640190fd5b6002805460ff1916905560408051428152905133917ef689ee9beb942c1c9c0d6642687ace05a9000d5f2979d344163c57829fa779919081900360200190a280600160a060020a0316ff5b600160a060020a038116151561108d57600080fd5b600354604051600160a060020a038084169216907f8be0079c531659141344cd1fd0a4f28419497f9722a3daafe3b4186f6b6457e090600090a36003805473ffffffffffffffffffffffffffffffffffffffff1916600160a060020a039290921691909117905556fea165627a7a723058200defc7f183ddb08dcef2bfcb57edc1be9df629830bc012e1207bc76802671ab6002973746172742063616e6e6f74206265206166746572206e6f7220657175616c20746f20656e64",
  "source": "pragma solidity 0.5.4;\n\nimport \"@daostack/arc/contracts/controller/Avatar.sol\";\nimport \"@daostack/arc/contracts/controller/ControllerInterface.sol\";\n\nimport \"./ActivePeriod.sol\";\nimport \"./FeelessScheme.sol\";\nimport \"./SchemeGuard.sol\";\nimport \"../../identity/Identity.sol\";\n\n\n/* @title Scheme contract responsible for transferring balance of avatar to given receiver\n */\ncontract ReserveRelayer is ActivePeriod, FeelessScheme {\n    address public receiver;\n\n    /* @dev Constructor. Reverts if receiver is invalid\n     * @param _avatar The avatar of the DAO\n     * @param _identity The identity contract\n     * @param _receiver The address to receive funds\n     * @param _periodStart period from when the contract is able to start\n     * @param _periodEnd period from when the contract is able to end\n     */\n    constructor(\n        Avatar _avatar,\n        Identity _identity,\n        address _receiver,\n        uint256 _periodStart,\n        uint256 _periodEnd\n    )\n        public\n        ActivePeriod(_periodStart, _periodEnd, _avatar)\n        FeelessScheme(_identity, _avatar)\n    {\n        require(_receiver != address(0), \"receiver cannot be null address\");\n        receiver = _receiver;\n    }\n\n    /* @dev Start function. Transfers the funds of the avatar to\n     * the receiver given in the constructor, then ends the scheme\n     */\n    function start() public onlyRegistered {\n        super.start();\n\n        addRights();\n\n        /* Transfer the fee reserve to this contract */\n        DAOToken token = avatar.nativeToken();\n        uint256 reserve = token.balanceOf(address(avatar));\n\n        controller.genericCall(\n            address(token),\n            abi.encodeWithSignature(\"transfer(address,uint256)\", receiver, reserve),\n            avatar,\n            0\n        );\n\n        removeRights();\n\n        super.internalEnd(avatar);\n    }\n}\n",
  "sourcePath": "/Users/hadar/workspace/GoodDollar/GoodBootstrap/packages/contracts/contracts/dao/schemes/ReserveRelayer.sol",
  "compiler": {
    "name": "solc",
    "version": "0.5.4+commit.9549d8ff.Emscripten.clang"
  },
  "schemaVersion": "3.0.16",
  "updatedAt": "2020-07-09T11:25:13.994Z",
  "devdoc": {
    "methods": {
      "isOwner()": {
        "return": "true if `msg.sender` is the owner of the contract."
      },
      "isRegistered()": {
        "details": "function to see if an avatar has been set and if this scheme is registered",
        "return": "true if scheme is registered"
      },
      "isRegistered(address)": {
        "details": "function to see if an avatar has been set and if this scheme is registered",
        "return": "true if scheme is registered"
      },
      "owner()": {
        "return": "the address of the owner."
      },
      "renounceOwnership()": {
        "details": "Allows the current owner to relinquish control of the contract."
      },
      "setAvatar(address)": {
        "details": "Function to set a new avatar and controller for scheme can only be done by owner of scheme"
      },
      "transferOwnership(address)": {
        "details": "Allows the current owner to transfer control of the contract to a newOwner.",
        "params": {
          "newOwner": "The address to transfer ownership to."
        }
      }
    }
  },
  "userdoc": {
    "methods": {
      "renounceOwnership()": {
        "notice": "Renouncing to ownership will leave the contract without an owner. It will not be possible to call the functions with the `onlyOwner` modifier anymore."
      }
    }
  }
}