{
  "contractName": "ReserveMinter",
  "abi": [
    {
      "constant": false,
      "inputs": [
        {
          "name": "_avatar",
          "type": "address"
        }
      ],
      "name": "setAvatar",
      "outputs": [],
      "payable": false,
      "stateMutability": "nonpayable",
      "type": "function"
    },
    {
      "constant": true,
      "inputs": [],
      "name": "isRegistered",
      "outputs": [
        {
          "name": "",
          "type": "bool"
        }
      ],
      "payable": false,
      "stateMutability": "view",
      "type": "function"
    },
    {
      "constant": true,
      "inputs": [],
      "name": "isActive",
      "outputs": [
        {
          "name": "",
          "type": "bool"
        }
      ],
      "payable": false,
      "stateMutability": "view",
      "type": "function"
    },
    {
      "constant": true,
      "inputs": [],
      "name": "periodEnd",
      "outputs": [
        {
          "name": "",
          "type": "uint256"
        }
      ],
      "payable": false,
      "stateMutability": "view",
      "type": "function"
    },
    {
      "constant": false,
      "inputs": [],
      "name": "renounceOwnership",
      "outputs": [],
      "payable": false,
      "stateMutability": "nonpayable",
      "type": "function"
    },
    {
      "constant": true,
      "inputs": [],
      "name": "owner",
      "outputs": [
        {
          "name": "",
          "type": "address"
        }
      ],
      "payable": false,
      "stateMutability": "view",
      "type": "function"
    },
    {
      "constant": true,
      "inputs": [],
      "name": "isOwner",
      "outputs": [
        {
          "name": "",
          "type": "bool"
        }
      ],
      "payable": false,
      "stateMutability": "view",
      "type": "function"
    },
    {
      "constant": true,
      "inputs": [],
      "name": "amount",
      "outputs": [
        {
          "name": "",
          "type": "uint256"
        }
      ],
      "payable": false,
      "stateMutability": "view",
      "type": "function"
    },
    {
      "constant": true,
      "inputs": [
        {
          "name": "scheme",
          "type": "address"
        }
      ],
      "name": "isRegistered",
      "outputs": [
        {
          "name": "",
          "type": "bool"
        }
      ],
      "payable": false,
      "stateMutability": "view",
      "type": "function"
    },
    {
      "constant": true,
      "inputs": [],
      "name": "periodStart",
      "outputs": [
        {
          "name": "",
          "type": "uint256"
        }
      ],
      "payable": false,
      "stateMutability": "view",
      "type": "function"
    },
    {
      "constant": false,
      "inputs": [],
      "name": "end",
      "outputs": [],
      "payable": false,
      "stateMutability": "nonpayable",
      "type": "function"
    },
    {
      "constant": false,
      "inputs": [
        {
          "name": "newOwner",
          "type": "address"
        }
      ],
      "name": "transferOwnership",
      "outputs": [],
      "payable": false,
      "stateMutability": "nonpayable",
      "type": "function"
    },
    {
      "constant": true,
      "inputs": [],
      "name": "receiver",
      "outputs": [
        {
          "name": "",
          "type": "address"
        }
      ],
      "payable": false,
      "stateMutability": "view",
      "type": "function"
    },
    {
      "inputs": [
        {
          "name": "_avatar",
          "type": "address"
        },
        {
          "name": "_amount",
          "type": "uint256"
        },
        {
          "name": "_receiver",
          "type": "address"
        }
      ],
      "payable": false,
      "stateMutability": "nonpayable",
      "type": "constructor"
    },
    {
      "anonymous": false,
      "inputs": [
        {
          "indexed": true,
          "name": "previousOwner",
          "type": "address"
        },
        {
          "indexed": true,
          "name": "newOwner",
          "type": "address"
        }
      ],
      "name": "OwnershipTransferred",
      "type": "event"
    },
    {
      "anonymous": false,
      "inputs": [
        {
          "indexed": true,
          "name": "by",
          "type": "address"
        },
        {
          "indexed": false,
          "name": "time",
          "type": "uint256"
        }
      ],
      "name": "SchemeStarted",
      "type": "event"
    },
    {
      "anonymous": false,
      "inputs": [
        {
          "indexed": true,
          "name": "by",
          "type": "address"
        },
        {
          "indexed": false,
          "name": "time",
          "type": "uint256"
        }
      ],
      "name": "SchemeEnded",
      "type": "event"
    },
    {
      "constant": false,
      "inputs": [],
      "name": "start",
      "outputs": [],
      "payable": false,
      "stateMutability": "nonpayable",
      "type": "function"
    }
  ],
  "bytecode": "0x608060405260058054600160a060020a031916905534801561002057600080fd5b50604051606080610e098339810180604052606081101561004057600080fd5b5080516020820151604090920151909190824260028102828183106100b0576040517f08c379a0000000000000000000000000000000000000000000000000000000008152600401808060200182810382526026815260200180610de36026913960400191505060405180910390fd5b60009283556001919091556002805461010060a860020a031916610100600160a060020a03938416021760ff191690556003805433600160a060020a03199091161790819055604051911691907f8be0079c531659141344cd1fd0a4f28419497f9722a3daafe3b4186f6b6457e0908290a360048054600160a060020a031916600160a060020a03838116919091179182905516156101f05760048054604080517f8da5cb5b0000000000000000000000000000000000000000000000000000000081529051600160a060020a0390921692638da5cb5b928282019260209290829003018186803b1580156101a457600080fd5b505afa1580156101b8573d6000803e3d6000fd5b505050506040513d60208110156101ce57600080fd5b505160058054600160a060020a031916600160a060020a039092169190911790555b50600160a060020a038116151561026857604080517f08c379a000000000000000000000000000000000000000000000000000000000815260206004820152601f60248201527f72656365697665722063616e6e6f74206265206e756c6c206164647265737300604482015290519081900360640190fd5b600082116102d757604080517f08c379a000000000000000000000000000000000000000000000000000000000815260206004820152601660248201527f526573657276652063616e6e6f74206265207a65726f00000000000000000000604482015290519081900360640190fd5b60079190915560068054600160a060020a031916600160a060020a0390921691909117905550610ad78061030c6000396000f3fe608060405234801561001057600080fd5b5060043610610107576000357c010000000000000000000000000000000000000000000000000000000090048063aa8c217c116100a9578063eda4e6d611610083578063eda4e6d6146101dc578063efbe1c1c146101e4578063f2fde38b146101ec578063f7260d3e1461021257610107565b8063aa8c217c146101a6578063be9a6555146101ae578063c3c5a547146101b657610107565b8063506ec095116100e5578063506ec09514610158578063715018a6146101725780638da5cb5b1461017a5780638f32d59b1461019e57610107565b8063086cfca81461010c578063223668441461013457806322f3e2d414610150575b600080fd5b6101326004803603602081101561012257600080fd5b5035600160a060020a031661021a565b005b61013c610306565b604080519115158252519081900360200190f35b61013c610316565b61016061031f565b60408051918252519081900360200190f35b610132610325565b61018261038f565b60408051600160a060020a039092168252519081900360200190f35b61013c61039e565b6101606103af565b6101326103b5565b61013c600480360360208110156101cc57600080fd5b5035600160a060020a03166106bb565b6101606107d6565b6101326107dc565b6101326004803603602081101561020257600080fd5b5035600160a060020a0316610852565b61018261086e565b61022261039e565b151561022d57600080fd5b6004805473ffffffffffffffffffffffffffffffffffffffff1916600160a060020a0383811691909117808355604080517f8da5cb5b00000000000000000000000000000000000000000000000000000000815290519190921692638da5cb5b92808201926020929091829003018186803b1580156102ab57600080fd5b505afa1580156102bf573d6000803e3d6000fd5b505050506040513d60208110156102d557600080fd5b50516005805473ffffffffffffffffffffffffffffffffffffffff1916600160a060020a0390921691909117905550565b6000610311306106bb565b905090565b60025460ff1681565b60015481565b61032d61039e565b151561033857600080fd5b600354604051600091600160a060020a0316907f8be0079c531659141344cd1fd0a4f28419497f9722a3daafe3b4186f6b6457e0908390a36003805473ffffffffffffffffffffffffffffffffffffffff19169055565b600354600160a060020a031690565b600354600160a060020a0316331490565b60075481565b6103bd610306565b1515610413576040805160e560020a62461bcd02815260206004820152601860248201527f536368656d65206973206e6f7420726567697374657265640000000000000000604482015290519081900360640190fd5b61041b61087d565b6000600460009054906101000a9004600160a060020a0316600160a060020a031663e1758bd86040518163ffffffff167c010000000000000000000000000000000000000000000000000000000002815260040160206040518083038186803b15801561048757600080fd5b505afa15801561049b573d6000803e3d6000fd5b505050506040513d60208110156104b157600080fd5b505160055460065460075460408051600160a060020a03938416602480830191909152604480830194909452825180830385018152606492830184526020810180517bffffffffffffffffffffffffffffffffffffffffffffffffffffffff167f40c10f19000000000000000000000000000000000000000000000000000000001781526004805495517fd1b7089a000000000000000000000000000000000000000000000000000000008152888b1691810191825295881696860187905260009486018590526080938601938452825160848701528251999a50969097169763d1b7089a978a9792969592939260a40191808383885b838110156105c05781810151838201526020016105a8565b50505050905090810190601f1680156105ed5780820380516001836020036101000a031916815260200191505b5095505050505050600060405180830381600087803b15801561060f57600080fd5b505af1158015610623573d6000803e3d6000fd5b505050506040513d6000823e601f3d908101601f19168201604090815281101561064c57600080fd5b81516020830180519193928301929164010000000081111561066d57600080fd5b8201602081018481111561068057600080fd5b815164010000000081118282018710171561069a57600080fd5b50506004546106b89550600160a060020a0316935061098692505050565b50565b600454600090600160a060020a03161515610720576040805160e560020a62461bcd02815260206004820152601160248201527f417661746172206973206e6f7420736574000000000000000000000000000000604482015290519081900360640190fd5b60055460048054604080517f9be2faed000000000000000000000000000000000000000000000000000000008152600160a060020a03878116948201949094529183166024830152519190921691639be2faed916044808301926020929190829003018186803b15801561079357600080fd5b505afa1580156107a7573d6000803e3d6000fd5b505050506040513d60208110156107bd57600080fd5b505115156107cd575060006107d1565b5060015b919050565b60005481565b600154421015610836576040805160e560020a62461bcd02815260206004820152601460248201527f706572696f6420686173206e6f7420656e646564000000000000000000000000604482015290519081900360640190fd5b600254610850906101009004600160a060020a0316610986565b565b61085a61039e565b151561086557600080fd5b6106b881610a2d565b600654600160a060020a031681565b6000544210158015610890575060015442105b15156108e6576040805160e560020a62461bcd02815260206004820152600d60248201527f6e6f7420696e20706572696f6400000000000000000000000000000000000000604482015290519081900360640190fd5b60025460ff1615610941576040805160e560020a62461bcd02815260206004820152601260248201527f63616e6e6f742073746172742074776963650000000000000000000000000000604482015290519081900360640190fd5b6002805460ff1916600117905560408051428152905133917f727dd98701807c5fdf715b9f1fd7d87461a558e2ab3e05935add76e42e330fa3919081900360200190a2565b60025460ff1615156109e2576040805160e560020a62461bcd02815260206004820152600d60248201527f6973206e6f742061637469766500000000000000000000000000000000000000604482015290519081900360640190fd5b6002805460ff1916905560408051428152905133917ef689ee9beb942c1c9c0d6642687ace05a9000d5f2979d344163c57829fa779919081900360200190a280600160a060020a0316ff5b600160a060020a0381161515610a4257600080fd5b600354604051600160a060020a038084169216907f8be0079c531659141344cd1fd0a4f28419497f9722a3daafe3b4186f6b6457e090600090a36003805473ffffffffffffffffffffffffffffffffffffffff1916600160a060020a039290921691909117905556fea165627a7a723058205b31c0ce6e16c92647db856b183b2c0662d0da854d7635d52da4b5beb6539339002973746172742063616e6e6f74206265206166746572206e6f7220657175616c20746f20656e64",
  "source": "pragma solidity 0.5.4;\n\nimport \"@daostack/arc/contracts/controller/Avatar.sol\";\nimport \"@daostack/arc/contracts/controller/ControllerInterface.sol\";\n\nimport \"./ActivePeriod.sol\";\nimport \"./SchemeGuard.sol\";\n\n\n/* @title Scheme contract responsible for minting to a given recipient.\n */\ncontract ReserveMinter is ActivePeriod, SchemeGuard {\n    address public receiver;\n    uint256 public amount;\n\n    /* @dev Constructor.\n     * @param _avatar The avatar of the DAO\n     * @param _amount The amount to mint to receiver\n     * @param _receiver The address to receive minted amount\n     */\n    constructor(Avatar _avatar, uint256 _amount, address _receiver)\n        public\n        ActivePeriod(now, now * 2, _avatar)\n        SchemeGuard(_avatar)\n    {\n        require(_receiver != address(0), \"receiver cannot be null address\");\n        require(_amount > 0, \"Reserve cannot be zero\");\n\n        amount = _amount;\n        receiver = _receiver;\n    }\n\n    /* @dev Start function. Mints the given amount to\n     * the receiver given in the constructor, then ends the scheme\n     */\n    function start() public onlyRegistered {\n        super.start();\n\n        DAOToken token = avatar.nativeToken();\n\n        controller.genericCall(\n            address(token),\n            abi.encodeWithSignature(\"mint(address,uint256)\", receiver, amount),\n            avatar,\n            0\n        );\n\n        super.internalEnd(avatar);\n    }\n}\n",
  "sourcePath": "/Users/hadar/workspace/GoodDollar/GoodBootstrap/packages/contracts/contracts/dao/schemes/ReserveMinter.sol",
  "compiler": {
    "name": "solc",
    "version": "0.5.4+commit.9549d8ff.Emscripten.clang"
  },
  "schemaVersion": "3.0.16",
  "updatedAt": "2020-07-07T14:28:01.527Z",
  "devdoc": {
    "methods": {
      "isOwner()": {
        "return": "true if `msg.sender` is the owner of the contract."
      },
      "isRegistered()": {
        "details": "function to see if an avatar has been set and if this scheme is registered",
        "return": "true if scheme is registered"
      },
      "isRegistered(address)": {
        "details": "function to see if an avatar has been set and if this scheme is registered",
        "return": "true if scheme is registered"
      },
      "owner()": {
        "return": "the address of the owner."
      },
      "renounceOwnership()": {
        "details": "Allows the current owner to relinquish control of the contract."
      },
      "setAvatar(address)": {
        "details": "Function to set a new avatar and controller for scheme can only be done by owner of scheme"
      },
      "transferOwnership(address)": {
        "details": "Allows the current owner to transfer control of the contract to a newOwner.",
        "params": {
          "newOwner": "The address to transfer ownership to."
        }
      }
    }
  },
  "userdoc": {
    "methods": {
      "renounceOwnership()": {
        "notice": "Renouncing to ownership will leave the contract without an owner. It will not be possible to call the functions with the `onlyOwner` modifier anymore."
      }
    }
  }
}