{
  "contractName": "ReserveRelayer",
  "abi": [
    {
      "inputs": [
        {
          "internalType": "contract Avatar",
          "name": "_avatar",
          "type": "address"
        },
        {
          "internalType": "contract Identity",
          "name": "_identity",
          "type": "address"
        },
        {
          "internalType": "address",
          "name": "_receiver",
          "type": "address"
        },
        {
          "internalType": "uint256",
          "name": "_periodStart",
          "type": "uint256"
        },
        {
          "internalType": "uint256",
          "name": "_periodEnd",
          "type": "uint256"
        }
      ],
      "payable": false,
      "stateMutability": "nonpayable",
      "type": "constructor"
    },
    {
      "anonymous": false,
      "inputs": [
        {
          "indexed": true,
          "internalType": "address",
          "name": "previousOwner",
          "type": "address"
        },
        {
          "indexed": true,
          "internalType": "address",
          "name": "newOwner",
          "type": "address"
        }
      ],
      "name": "OwnershipTransferred",
      "type": "event"
    },
    {
      "anonymous": false,
      "inputs": [
        {
          "indexed": true,
          "internalType": "address",
          "name": "by",
          "type": "address"
        },
        {
          "indexed": false,
          "internalType": "uint256",
          "name": "time",
          "type": "uint256"
        }
      ],
      "name": "SchemeEnded",
      "type": "event"
    },
    {
      "anonymous": false,
      "inputs": [
        {
          "indexed": true,
          "internalType": "address",
          "name": "by",
          "type": "address"
        },
        {
          "indexed": false,
          "internalType": "uint256",
          "name": "time",
          "type": "uint256"
        }
      ],
      "name": "SchemeStarted",
      "type": "event"
    },
    {
      "constant": false,
      "inputs": [],
      "name": "end",
      "outputs": [],
      "payable": false,
      "stateMutability": "nonpayable",
      "type": "function"
    },
    {
      "constant": true,
      "inputs": [],
      "name": "identity",
      "outputs": [
        {
          "internalType": "contract Identity",
          "name": "",
          "type": "address"
        }
      ],
      "payable": false,
      "stateMutability": "view",
      "type": "function"
    },
    {
      "constant": true,
      "inputs": [],
      "name": "isActive",
      "outputs": [
        {
          "internalType": "bool",
          "name": "",
          "type": "bool"
        }
      ],
      "payable": false,
      "stateMutability": "view",
      "type": "function"
    },
    {
      "constant": true,
      "inputs": [],
      "name": "isOwner",
      "outputs": [
        {
          "internalType": "bool",
          "name": "",
          "type": "bool"
        }
      ],
      "payable": false,
      "stateMutability": "view",
      "type": "function"
    },
    {
      "constant": true,
      "inputs": [],
      "name": "isRegistered",
      "outputs": [
        {
          "internalType": "bool",
          "name": "",
          "type": "bool"
        }
      ],
      "payable": false,
      "stateMutability": "view",
      "type": "function"
    },
    {
      "constant": true,
      "inputs": [
        {
          "internalType": "address",
          "name": "scheme",
          "type": "address"
        }
      ],
      "name": "isRegistered",
      "outputs": [
        {
          "internalType": "bool",
          "name": "",
          "type": "bool"
        }
      ],
      "payable": false,
      "stateMutability": "view",
      "type": "function"
    },
    {
      "constant": true,
      "inputs": [],
      "name": "owner",
      "outputs": [
        {
          "internalType": "address",
          "name": "",
          "type": "address"
        }
      ],
      "payable": false,
      "stateMutability": "view",
      "type": "function"
    },
    {
      "constant": true,
      "inputs": [],
      "name": "periodEnd",
      "outputs": [
        {
          "internalType": "uint256",
          "name": "",
          "type": "uint256"
        }
      ],
      "payable": false,
      "stateMutability": "view",
      "type": "function"
    },
    {
      "constant": true,
      "inputs": [],
      "name": "periodStart",
      "outputs": [
        {
          "internalType": "uint256",
          "name": "",
          "type": "uint256"
        }
      ],
      "payable": false,
      "stateMutability": "view",
      "type": "function"
    },
    {
      "constant": true,
      "inputs": [],
      "name": "receiver",
      "outputs": [
        {
          "internalType": "address",
          "name": "",
          "type": "address"
        }
      ],
      "payable": false,
      "stateMutability": "view",
      "type": "function"
    },
    {
      "constant": false,
      "inputs": [],
      "name": "renounceOwnership",
      "outputs": [],
      "payable": false,
      "stateMutability": "nonpayable",
      "type": "function"
    },
    {
      "constant": false,
      "inputs": [
        {
          "internalType": "contract Avatar",
          "name": "_avatar",
          "type": "address"
        }
      ],
      "name": "setAvatar",
      "outputs": [],
      "payable": false,
      "stateMutability": "nonpayable",
      "type": "function"
    },
    {
      "constant": false,
      "inputs": [
        {
          "internalType": "contract Identity",
          "name": "_identity",
          "type": "address"
        }
      ],
      "name": "setIdentity",
      "outputs": [],
      "payable": false,
      "stateMutability": "nonpayable",
      "type": "function"
    },
    {
      "constant": false,
      "inputs": [
        {
          "internalType": "address",
          "name": "newOwner",
          "type": "address"
        }
      ],
      "name": "transferOwnership",
      "outputs": [],
      "payable": false,
      "stateMutability": "nonpayable",
      "type": "function"
    },
    {
      "constant": false,
      "inputs": [],
      "name": "start",
      "outputs": [],
      "payable": false,
      "stateMutability": "nonpayable",
      "type": "function"
    }
  ],
  "bytecode": "0x6080604052600580546001600160a01b031916905534801561002057600080fd5b5060405161135f38038061135f833981810160405260a081101561004357600080fd5b50805160208201516040830151606084015160809094015192939192909190838581818585828183106100a75760405162461bcd60e51b81526004018080602001828103825260268152602001806113396026913960400191505060405180910390fd5b600092835560019190915560028054610100600160a81b0319166101006001600160a01b03938416021760ff1916905560038054336001600160a01b03199091161790819055604051911691907f8be0079c531659141344cd1fd0a4f28419497f9722a3daafe3b4186f6b6457e0908290a3600480546001600160a01b0319166001600160a01b03838116919091179182905516156101ce576004805460408051638da5cb5b60e01b815290516001600160a01b0390921692638da5cb5b928282019260209290829003018186803b15801561018257600080fd5b505afa158015610196573d6000803e3d6000fd5b505050506040513d60208110156101ac57600080fd5b5051600580546001600160a01b0319166001600160a01b039092169190911790555b506001600160a01b03811661022a576040805162461bcd60e51b815260206004820152601960248201527f537570706c696564206964656e74697479206973206e756c6c00000000000000604482015290519081900360640190fd5b600680546001600160a01b0319166001600160a01b0392831617905585161515915061029f9050576040805162461bcd60e51b815260206004820152601f60248201527f72656365697665722063616e6e6f74206265206e756c6c206164647265737300604482015290519081900360640190fd5b5050600780546001600160a01b039092166001600160a01b03199092169190911790555050611066806102d36000396000f3fe608060405234801561001057600080fd5b50600436106100f55760003560e01c80638da5cb5b11610097578063eda4e6d611610066578063eda4e6d6146101f0578063efbe1c1c146101f8578063f2fde38b14610200578063f7260d3e14610226576100f5565b80638da5cb5b146101b25780638f32d59b146101ba578063be9a6555146101c2578063c3c5a547146101ca576100f5565b80632c159a1a116100d35780632c159a1a14610146578063506ec0951461016a5780635d5bf17814610184578063715018a6146101aa576100f5565b8063086cfca8146100fa578063223668441461012257806322f3e2d41461013e575b600080fd5b6101206004803603602081101561011057600080fd5b50356001600160a01b031661022e565b005b61012a6102e5565b604080519115158252519081900360200190f35b61012a6102f5565b61014e6102fe565b604080516001600160a01b039092168252519081900360200190f35b61017261030d565b60408051918252519081900360200190f35b6101206004803603602081101561019a57600080fd5b50356001600160a01b0316610313565b6101206103fc565b61014e610457565b61012a610466565b610120610477565b61012a600480360360208110156101e057600080fd5b50356001600160a01b0316610800565b6101726108ef565b6101206108f5565b6101206004803603602081101561021657600080fd5b50356001600160a01b031661095f565b61014e61097c565b610236610466565b61023f57600080fd5b600480546001600160a01b0319166001600160a01b038381169190911780835560408051638da5cb5b60e01b815290519190921692638da5cb5b92808201926020929091829003018186803b15801561029757600080fd5b505afa1580156102ab573d6000803e3d6000fd5b505050506040513d60208110156102c157600080fd5b5051600580546001600160a01b0319166001600160a01b0390921691909117905550565b60006102f030610800565b905090565b60025460ff1681565b6006546001600160a01b031681565b60015481565b61031b610466565b61032457600080fd5b806001600160a01b031663223668446040518163ffffffff1660e01b815260040160206040518083038186803b15801561035d57600080fd5b505afa158015610371573d6000803e3d6000fd5b505050506040513d602081101561038757600080fd5b50516103da576040805162461bcd60e51b815260206004820152601a60248201527f4964656e74697479206973206e6f742072656769737465726564000000000000604482015290519081900360640190fd5b600680546001600160a01b0319166001600160a01b0392909216919091179055565b610404610466565b61040d57600080fd5b6003546040516000916001600160a01b0316907f8be0079c531659141344cd1fd0a4f28419497f9722a3daafe3b4186f6b6457e0908390a3600380546001600160a01b0319169055565b6003546001600160a01b031690565b6003546001600160a01b0316331490565b61047f6102e5565b6104cb576040805162461bcd60e51b815260206004820152601860248201527714d8da195b59481a5cc81b9bdd081c9959da5cdd195c995960421b604482015290519081900360640190fd5b6104d361098b565b6104db610a71565b6000600460009054906101000a90046001600160a01b03166001600160a01b031663e1758bd86040518163ffffffff1660e01b815260040160206040518083038186803b15801561052b57600080fd5b505afa15801561053f573d6000803e3d6000fd5b505050506040513d602081101561055557600080fd5b505160048054604080516370a0823160e01b81526001600160a01b039283169381019390935251929350600092908416916370a08231916024808301926020929190829003018186803b1580156105ab57600080fd5b505afa1580156105bf573d6000803e3d6000fd5b505050506040513d60208110156105d557600080fd5b5051600554600754604080516001600160a01b039283166024808301919091526044808301879052835180840382018152606493840185526020810180516001600160e01b031663a9059cbb60e01b1781526004805496516368db844d60e11b81528c891691810191825296881693870184905260009587018690526080948701948552825160848801528251999a50969097169763d1b7089a978b979296939594929360a40191808383885b8381101561069a578181015183820152602001610682565b50505050905090810190601f1680156106c75780820380516001836020036101000a031916815260200191505b5095505050505050600060405180830381600087803b1580156106e957600080fd5b505af11580156106fd573d6000803e3d6000fd5b505050506040513d6000823e601f3d908101601f19168201604090815281101561072657600080fd5b81516020830180516040519294929383019291908464010000000082111561074d57600080fd5b90830190602082018581111561076257600080fd5b825164010000000081118282018810171561077c57600080fd5b82525081516020918201929091019080838360005b838110156107a9578181015183820152602001610791565b50505050905090810190601f1680156107d65780820380516001836020036101000a031916815260200191505b5060405250505050506107e7610cdb565b6004546107fc906001600160a01b0316610f30565b5050565b6004546000906001600160a01b0316610854576040805162461bcd60e51b8152602060048201526011602482015270105d985d185c881a5cc81b9bdd081cd95d607a1b604482015290519081900360640190fd5b6005546004805460408051639be2faed60e01b81526001600160a01b03878116948201949094529183166024830152519190921691639be2faed916044808301926020929190829003018186803b1580156108ae57600080fd5b505afa1580156108c2573d6000803e3d6000fd5b505050506040513d60208110156108d857600080fd5b50516108e6575060006108ea565b5060015b919050565b60005481565b600154421015610943576040805162461bcd60e51b81526020600482015260146024820152731c195c9a5bd9081a185cc81b9bdd08195b99195960621b604482015290519081900360640190fd5b60025461095d9061010090046001600160a01b0316610f30565b565b610967610466565b61097057600080fd5b61097981610fc2565b50565b6007546001600160a01b031681565b600054421015801561099e575060015442105b6109df576040805162461bcd60e51b815260206004820152600d60248201526c1b9bdd081a5b881c195c9a5bd9609a1b604482015290519081900360640190fd5b60025460ff1615610a2c576040805162461bcd60e51b815260206004820152601260248201527163616e6e6f7420737461727420747769636560701b604482015290519081900360640190fd5b6002805460ff1916600117905560408051428152905133917f727dd98701807c5fdf715b9f1fd7d87461a558e2ab3e05935add76e42e330fa3919081900360200190a2565b610a796102e5565b610ac5576040805162461bcd60e51b815260206004820152601860248201527714d8da195b59481a5cc81b9bdd081c9959da5cdd195c995960421b604482015290519081900360640190fd5b6005546006546040805130602480830191909152825180830382018152604492830184526020810180516001600160e01b0316635f539d6960e01b1781526004805495516368db844d60e11b81526001600160a01b039788169181018281529688169581018690526000606482018190526080958201958652845160848301528451989099169863d1b7089a989297949695909493909260a490920191808383885b83811015610b7f578181015183820152602001610b67565b50505050905090810190601f168015610bac5780820380516001836020036101000a031916815260200191505b5095505050505050600060405180830381600087803b158015610bce57600080fd5b505af1158015610be2573d6000803e3d6000fd5b505050506040513d6000823e601f3d908101601f191682016040908152811015610c0b57600080fd5b815160208301805160405192949293830192919084640100000000821115610c3257600080fd5b908301906020820185811115610c4757600080fd5b8251640100000000811182820188101715610c6157600080fd5b82525081516020918201929091019080838360005b83811015610c8e578181015183820152602001610c76565b50505050905090810190601f168015610cbb5780820380516001836020036101000a031916815260200191505b50604052505060045461095d93506001600160a01b0316915061095f9050565b610ce36102e5565b610d2f576040805162461bcd60e51b815260206004820152601860248201527714d8da195b59481a5cc81b9bdd081c9959da5cdd195c995960421b604482015290519081900360640190fd5b6005546006546040805130602480830191909152825180830382018152604492830184526020810180516001600160e01b031663c375c2ef60e01b1781526004805495516368db844d60e11b81526001600160a01b039788169181018281529688169581018690526000606482018190526080958201958652845160848301528451989099169863d1b7089a989297949695909493909260a490920191808383885b83811015610de9578181015183820152602001610dd1565b50505050905090810190601f168015610e165780820380516001836020036101000a031916815260200191505b5095505050505050600060405180830381600087803b158015610e3857600080fd5b505af1158015610e4c573d6000803e3d6000fd5b505050506040513d6000823e601f3d908101601f191682016040908152811015610e7557600080fd5b815160208301805160405192949293830192919084640100000000821115610e9c57600080fd5b908301906020820185811115610eb157600080fd5b8251640100000000811182820188101715610ecb57600080fd5b82525081516020918201929091019080838360005b83811015610ef8578181015183820152602001610ee0565b50505050905090810190601f168015610f255780820380516001836020036101000a031916815260200191505b506040525050505050565b60025460ff16610f77576040805162461bcd60e51b815260206004820152600d60248201526c6973206e6f742061637469766560981b604482015290519081900360640190fd5b6002805460ff1916905560408051428152905133917ef689ee9beb942c1c9c0d6642687ace05a9000d5f2979d344163c57829fa779919081900360200190a2806001600160a01b0316ff5b6001600160a01b038116610fd557600080fd5b6003546040516001600160a01b038084169216907f8be0079c531659141344cd1fd0a4f28419497f9722a3daafe3b4186f6b6457e090600090a3600380546001600160a01b0319166001600160a01b039290921691909117905556fea265627a7a72315820d056ce4ce4a914885d2d25eca503a6443b8352b253916cff9bff0f5043c5079f64736f6c6343000510003273746172742063616e6e6f74206265206166746572206e6f7220657175616c20746f20656e64",
  "source": "pragma solidity >0.5.4;\n\nimport \"@daostack/arc/contracts/controller/Avatar.sol\";\nimport \"@daostack/arc/contracts/controller/ControllerInterface.sol\";\n\nimport \"./ActivePeriod.sol\";\nimport \"./FeelessScheme.sol\";\nimport \"./SchemeGuard.sol\";\nimport \"../../identity/Identity.sol\";\n\n/* @title Scheme contract responsible for transferring balance of avatar to given receiver\n */\ncontract ReserveRelayer is ActivePeriod, FeelessScheme {\n    address public receiver;\n\n    /* @dev Constructor. Reverts if receiver is invalid\n     * @param _avatar The avatar of the DAO\n     * @param _identity The identity contract\n     * @param _receiver The address to receive funds\n     * @param _periodStart period from when the contract is able to start\n     * @param _periodEnd period from when the contract is able to end\n     */\n    constructor(\n        Avatar _avatar,\n        Identity _identity,\n        address _receiver,\n        uint256 _periodStart,\n        uint256 _periodEnd\n    )\n        public\n        ActivePeriod(_periodStart, _periodEnd, _avatar)\n        FeelessScheme(_identity, _avatar)\n    {\n        require(_receiver != address(0), \"receiver cannot be null address\");\n        receiver = _receiver;\n    }\n\n    /* @dev Start function. Transfers the funds of the avatar to\n     * the receiver given in the constructor, then ends the scheme\n     */\n    function start() public onlyRegistered {\n        super.start();\n\n        addRights();\n\n        /* Transfer the fee reserve to this contract */\n        DAOToken token = avatar.nativeToken();\n        uint256 reserve = token.balanceOf(address(avatar));\n\n        controller.genericCall(\n            address(token),\n            abi.encodeWithSignature(\"transfer(address,uint256)\", receiver, reserve),\n            avatar,\n            0\n        );\n\n        removeRights();\n\n        super.internalEnd(avatar);\n    }\n}\n",
  "sourcePath": "/Users/hadar/workspace/GoodDollar/GoodBootstrap/packages/contracts/contracts/dao/schemes/ReserveRelayer.sol",
  "compiler": {
    "name": "solc",
    "version": "0.5.16+commit.9c3226ce.Emscripten.clang"
  },
  "schemaVersion": "3.2.3",
  "updatedAt": "2022-10-27T11:34:11.163Z",
  "devdoc": {
    "methods": {
      "isOwner()": {
        "return": "true if `msg.sender` is the owner of the contract."
      },
      "isRegistered()": {
        "details": "function to see if an avatar has been set and if this scheme is registered",
        "return": "true if scheme is registered"
      },
      "isRegistered(address)": {
        "details": "function to see if an avatar has been set and if this scheme is registered",
        "return": "true if scheme is registered"
      },
      "owner()": {
        "return": "the address of the owner."
      },
      "renounceOwnership()": {
        "details": "Allows the current owner to relinquish control of the contract."
      },
      "setAvatar(address)": {
        "details": "Function to set a new avatar and controller for scheme can only be done by owner of scheme"
      },
      "transferOwnership(address)": {
        "details": "Allows the current owner to transfer control of the contract to a newOwner.",
        "params": {
          "newOwner": "The address to transfer ownership to."
        }
      }
    }
  },
  "userdoc": {
    "methods": {
      "renounceOwnership()": {
        "notice": "Renouncing to ownership will leave the contract without an owner. It will not be possible to call the functions with the `onlyOwner` modifier anymore."
      }
    }
  }
}