{
  "contractName": "ReserveRelayer",
  "abi": [
    {
      "constant": false,
      "inputs": [
        {
          "name": "_avatar",
          "type": "address"
        }
      ],
      "name": "setAvatar",
      "outputs": [],
      "payable": false,
      "stateMutability": "nonpayable",
      "type": "function"
    },
    {
      "constant": true,
      "inputs": [],
      "name": "isRegistered",
      "outputs": [],
      "payable": false,
      "stateMutability": "view",
      "type": "function"
    },
    {
      "constant": true,
      "inputs": [],
      "name": "isActive",
      "outputs": [
        {
          "name": "",
          "type": "bool"
        }
      ],
      "payable": false,
      "stateMutability": "view",
      "type": "function"
    },
    {
      "constant": true,
      "inputs": [],
      "name": "periodEnd",
      "outputs": [
        {
          "name": "",
          "type": "uint256"
        }
      ],
      "payable": false,
      "stateMutability": "view",
      "type": "function"
    },
    {
      "constant": false,
      "inputs": [],
      "name": "renounceOwnership",
      "outputs": [],
      "payable": false,
      "stateMutability": "nonpayable",
      "type": "function"
    },
    {
      "constant": false,
      "inputs": [
        {
          "name": "_avatar",
          "type": "address"
        }
      ],
      "name": "end",
      "outputs": [],
      "payable": false,
      "stateMutability": "nonpayable",
      "type": "function"
    },
    {
      "constant": true,
      "inputs": [],
      "name": "owner",
      "outputs": [
        {
          "name": "",
          "type": "address"
        }
      ],
      "payable": false,
      "stateMutability": "view",
      "type": "function"
    },
    {
      "constant": true,
      "inputs": [],
      "name": "isOwner",
      "outputs": [
        {
          "name": "",
          "type": "bool"
        }
      ],
      "payable": false,
      "stateMutability": "view",
      "type": "function"
    },
    {
      "constant": true,
      "inputs": [],
      "name": "periodStart",
      "outputs": [
        {
          "name": "",
          "type": "uint256"
        }
      ],
      "payable": false,
      "stateMutability": "view",
      "type": "function"
    },
    {
      "constant": false,
      "inputs": [
        {
          "name": "newOwner",
          "type": "address"
        }
      ],
      "name": "transferOwnership",
      "outputs": [],
      "payable": false,
      "stateMutability": "nonpayable",
      "type": "function"
    },
    {
      "constant": true,
      "inputs": [],
      "name": "receiver",
      "outputs": [
        {
          "name": "",
          "type": "address"
        }
      ],
      "payable": false,
      "stateMutability": "view",
      "type": "function"
    },
    {
      "inputs": [
        {
          "name": "_avatar",
          "type": "address"
        },
        {
          "name": "_receiver",
          "type": "address"
        },
        {
          "name": "_periodStart",
          "type": "uint256"
        },
        {
          "name": "_periodEnd",
          "type": "uint256"
        }
      ],
      "payable": false,
      "stateMutability": "nonpayable",
      "type": "constructor"
    },
    {
      "anonymous": false,
      "inputs": [
        {
          "indexed": true,
          "name": "previousOwner",
          "type": "address"
        },
        {
          "indexed": true,
          "name": "newOwner",
          "type": "address"
        }
      ],
      "name": "OwnershipTransferred",
      "type": "event"
    },
    {
      "anonymous": false,
      "inputs": [
        {
          "indexed": true,
          "name": "by",
          "type": "address"
        },
        {
          "indexed": false,
          "name": "time",
          "type": "uint256"
        }
      ],
      "name": "SchemeStarted",
      "type": "event"
    },
    {
      "anonymous": false,
      "inputs": [
        {
          "indexed": true,
          "name": "by",
          "type": "address"
        },
        {
          "indexed": false,
          "name": "time",
          "type": "uint256"
        }
      ],
      "name": "SchemeEnded",
      "type": "event"
    },
    {
      "constant": false,
      "inputs": [],
      "name": "start",
      "outputs": [
        {
          "name": "",
          "type": "bool"
        }
      ],
      "payable": false,
      "stateMutability": "nonpayable",
      "type": "function"
    }
  ],
  "bytecode": "0x608060405260048054600160a060020a031916905534801561002057600080fd5b506040516080806110798339810180604052608081101561004057600080fd5b50805160208201516040830151606090930151919290918382828082106100b2576040517f08c379a00000000000000000000000000000000000000000000000000000000081526004018080602001828103825260268152602001806110536026913960400191505060405180910390fd5b600091825560015560028054600160a860020a0319166101003381029190911791829055604051600160a060020a03919092041691907f8be0079c531659141344cd1fd0a4f28419497f9722a3daafe3b4186f6b6457e0908290a360038054600160a060020a031916600160a060020a03838116919091179182905516156101ea57600360009054906101000a9004600160a060020a0316600160a060020a0316638da5cb5b6040518163ffffffff167c010000000000000000000000000000000000000000000000000000000002815260040160206040518083038186803b15801561019e57600080fd5b505afa1580156101b2573d6000803e3d6000fd5b505050506040513d60208110156101c857600080fd5b505160048054600160a060020a031916600160a060020a039092169190911790555b50600160a060020a038316151561026257604080517f08c379a000000000000000000000000000000000000000000000000000000000815260206004820152601f60248201527f72656365697665722063616e6e6f74206265206e756c6c206164647265737300604482015290519081900360640190fd5b505060058054600160a060020a031916600160a060020a039290921691909117905550610dbf806102946000396000f3fe608060405234801561001057600080fd5b50600436106100b85760003560e060020a900480638da5cb5b116100755780638da5cb5b146101515780638f32d59b14610175578063be9a65551461017d578063eda4e6d614610185578063f2fde38b1461018d578063f7260d3e146101b3576100b8565b8063086cfca8146100bd57806322366844146100e557806322f3e2d4146100ed578063506ec09514610109578063715018a6146101235780638c4dd39d1461012b575b600080fd5b6100e3600480360360208110156100d357600080fd5b5035600160a060020a03166101bb565b005b6100e3610463565b6100f56105b8565b604080519115158252519081900360200190f35b6101116105c1565b60408051918252519081900360200190f35b6100e36105c7565b6100e36004803603602081101561014157600080fd5b5035600160a060020a0316610637565b61015961069d565b60408051600160a060020a039092168252519081900360200190f35b6100f56106b1565b6100f56106c7565b610111610afb565b6100e3600480360360208110156101a357600080fd5b5035600160a060020a0316610b01565b610159610b1d565b8033600160a060020a0382161480156102cb575030600160a060020a0316638da5cb5b6040518163ffffffff1660e060020a02815260040160206040518083038186803b15801561020b57600080fd5b505afa15801561021f573d6000803e3d6000fd5b505050506040513d602081101561023557600080fd5b5051604080517f8da5cb5b0000000000000000000000000000000000000000000000000000000081529051600160a060020a0392831692841691638da5cb5b916004808301926020929190829003018186803b15801561029457600080fd5b505afa1580156102a8573d6000803e3d6000fd5b505050506040513d60208110156102be57600080fd5b5051600160a060020a0316145b80610345575030600160a060020a0316638da5cb5b6040518163ffffffff1660e060020a02815260040160206040518083038186803b15801561030d57600080fd5b505afa158015610321573d6000803e3d6000fd5b505050506040513d602081101561033757600080fd5b5051600160a060020a031633145b15156103855760405160e560020a62461bcd028152600401808060200182810382526029815260200180610d6b6029913960400191505060405180910390fd5b6003805473ffffffffffffffffffffffffffffffffffffffff1916600160a060020a038481169190911791829055604080517f8da5cb5b00000000000000000000000000000000000000000000000000000000815290519290911691638da5cb5b91600480820192602092909190829003018186803b15801561040757600080fd5b505afa15801561041b573d6000803e3d6000fd5b505050506040513d602081101561043157600080fd5b50516004805473ffffffffffffffffffffffffffffffffffffffff1916600160a060020a039092169190911790555050565b600354600160a060020a031615156104c5576040805160e560020a62461bcd02815260206004820152601160248201527f417661746172206973206e6f7420736574000000000000000000000000000000604482015290519081900360640190fd5b60048054600354604080517f9be2faed0000000000000000000000000000000000000000000000000000000081523094810194909452600160a060020a03918216602485015251911691639be2faed916044808301926020929190829003018186803b15801561053457600080fd5b505afa158015610548573d6000803e3d6000fd5b505050506040513d602081101561055e57600080fd5b505115156105b6576040805160e560020a62461bcd02815260206004820152601860248201527f536368656d65206973206e6f7420726567697374657265640000000000000000604482015290519081900360640190fd5b565b60025460ff1681565b60015481565b6105cf6106b1565b15156105da57600080fd5b6002546040516000916101009004600160a060020a0316907f8be0079c531659141344cd1fd0a4f28419497f9722a3daafe3b4186f6b6457e0908390a36002805474ffffffffffffffffffffffffffffffffffffffff0019169055565b600154421015610691576040805160e560020a62461bcd02815260206004820152601460248201527f706572696f6420686173206e6f7420656e646564000000000000000000000000604482015290519081900360640190fd5b61069a81610b2c565b50565b6002546101009004600160a060020a031690565b6002546101009004600160a060020a0316331490565b60048054600354604080517f9be2faed0000000000000000000000000000000000000000000000000000000081523094810194909452600160a060020a039182166024850152516000939190921691639be2faed91604480820192602092909190829003018186803b15801561073c57600080fd5b505afa158015610750573d6000803e3d6000fd5b505050506040513d602081101561076657600080fd5b505115156107be576040805160e560020a62461bcd02815260206004820152601860248201527f536368656d65206973206e6f7420726567697374657265640000000000000000604482015290519081900360640190fd5b6107c6610bd3565b15156107d157600080fd5b600354604080517fe1758bd80000000000000000000000000000000000000000000000000000000081529051600092600160a060020a03169163e1758bd8916004808301926020929190829003018186803b15801561082f57600080fd5b505afa158015610843573d6000803e3d6000fd5b505050506040513d602081101561085957600080fd5b5051600354604080517f70a08231000000000000000000000000000000000000000000000000000000008152600160a060020a0392831660048201529051929350600092918416916370a0823191602480820192602092909190829003018186803b1580156108c757600080fd5b505afa1580156108db573d6000803e3d6000fd5b505050506040513d60208110156108f157600080fd5b50516004805460055460408051600160a060020a039283166024808301919091526044808301889052835180840382018152606493840185526020810180517bffffffffffffffffffffffffffffffffffffffffffffffffffffffff167fa9059cbb0000000000000000000000000000000000000000000000000000000017815260035495517fd1b7089a0000000000000000000000000000000000000000000000000000000081528c8816998101998a5295871692860183905260009486018590526080938601938452815160848701528151999a50959096169763d1b7089a978b9796929590939260a490910191808383885b838110156109fe5781810151838201526020016109e6565b50505050905090810190601f168015610a2b5780820380516001836020036101000a031916815260200191505b5095505050505050600060405180830381600087803b158015610a4d57600080fd5b505af1158015610a61573d6000803e3d6000fd5b505050506040513d6000823e601f3d908101601f191682016040908152811015610a8a57600080fd5b815160208301805191939283019291640100000000811115610aab57600080fd5b82016020810184811115610abe57600080fd5b8151640100000000811182820187101715610ad857600080fd5b5050600354610af69550600160a060020a03169350610b2c92505050565b505090565b60005481565b610b096106b1565b1515610b1457600080fd5b61069a81610ce1565b600554600160a060020a031681565b60025460ff161515610b88576040805160e560020a62461bcd02815260206004820152600d60248201527f6973206e6f742061637469766500000000000000000000000000000000000000604482015290519081900360640190fd5b6002805460ff1916905560408051428152905133917ef689ee9beb942c1c9c0d6642687ace05a9000d5f2979d344163c57829fa779919081900360200190a280600160a060020a0316ff5b600080544210158015610be7575060015442105b1515610c3d576040805160e560020a62461bcd02815260206004820152600d60248201527f6e6f7420696e20706572696f6400000000000000000000000000000000000000604482015290519081900360640190fd5b60025460ff1615610c98576040805160e560020a62461bcd02815260206004820152601260248201527f63616e6e6f742073746172742074776963650000000000000000000000000000604482015290519081900360640190fd5b6002805460ff1916600117905560408051428152905133917f727dd98701807c5fdf715b9f1fd7d87461a558e2ab3e05935add76e42e330fa3919081900360200190a250600190565b600160a060020a0381161515610cf657600080fd5b600254604051600160a060020a0380841692610100900416907f8be0079c531659141344cd1fd0a4f28419497f9722a3daafe3b4186f6b6457e090600090a360028054600160a060020a039092166101000274ffffffffffffffffffffffffffffffffffffffff001990921691909117905556fe4f6e6c792063616c6c61626c6520627920617661746172206f66206f776e6572206f72206f776e6572a165627a7a7230582046af8918e2742eb8025c585934be8921f686646c40d1890dce6332d7565ffdd3002973746172742063616e6e6f74206265206166746572206e6f7220657175616c20746f20656e64",
  "source": "pragma solidity 0.5.4;\n\nimport \"@daostack/arc/contracts/controller/Avatar.sol\";\nimport \"@daostack/arc/contracts/controller/ControllerInterface.sol\";\n\nimport \"./ActivePeriod.sol\";\nimport \"./SchemeGuard.sol\";\n\n/* @title Scheme contract responsible relaying fees on forign network to home network.\n * Currently, it is not possible to relay the fees directly to the ubi contract\n * on the home network, as the Token bridge only allows transfers from one address \n * to the same address on the other network, meaning that contracts with different \n * addresses are unable to relay funds to each other.\n */\ncontract ReserveRelayer is ActivePeriod, SchemeGuard {\n\n    address public receiver;\n\n    /* @dev Constructor. Checks if periodEnd variable is after periodStart.\n     * @param _periodStart period from when the contract is able to start\n     * @param _periodEnd period from when the contract is able to end\n     */\n    constructor(\n        Avatar _avatar,\n        address _receiver,\n        uint _periodStart,\n        uint _periodEnd\n    )\n        public\n        ActivePeriod(_periodStart, _periodEnd)\n        SchemeGuard(_avatar)\n    {\n        require(_receiver != address(0), \"receiver cannot be null address\");\n        receiver = _receiver;\n    }\n\n    /* @dev Start function. Transfers the entire reserve from the avatar to\n     * the receiver given in the constructor, then ends the scheme regardless\n     * of end period\n     */\n    function start() onlyRegistered public returns(bool) {\n        require(super.start());\n\n        /* Transfer the fee reserve to this contract */\n        DAOToken token = avatar.nativeToken();\n        uint256 reserve = token.balanceOf(address(avatar));\n\n        controller.genericCall(\n            address(token),\n            abi.encodeWithSignature(\"transfer(address,uint256)\", receiver, reserve),\n            avatar,\n            0);\n\n        super.internalEnd(avatar);\n    }\n}\n",
  "sourcePath": "/Users/madsjorgensen/Documents/Work/GoodContracts/contracts/dao/schemes/ReserveRelayer.sol",
  "compiler": {
    "name": "solc",
    "version": "0.5.4+commit.9549d8ff.Emscripten.clang"
  },
  "schemaVersion": "3.0.11",
  "updatedAt": "2019-09-23T09:22:14.750Z",
  "devdoc": {
    "methods": {
      "isOwner()": {
        "return": "true if `msg.sender` is the owner of the contract."
      },
      "owner()": {
        "return": "the address of the owner."
      },
      "renounceOwnership()": {
        "details": "Allows the current owner to relinquish control of the contract."
      },
      "transferOwnership(address)": {
        "details": "Allows the current owner to transfer control of the contract to a newOwner.",
        "params": {
          "newOwner": "The address to transfer ownership to."
        }
      }
    }
  },
  "userdoc": {
    "methods": {
      "renounceOwnership()": {
        "notice": "Renouncing to ownership will leave the contract without an owner. It will not be possible to call the functions with the `onlyOwner` modifier anymore."
      }
    }
  }
}