{
  "contractName": "ReserveRelayer",
  "abi": [
    {
      "constant": false,
      "inputs": [
        {
          "name": "_avatar",
          "type": "address"
        }
      ],
      "name": "setAvatar",
      "outputs": [],
      "payable": false,
      "stateMutability": "nonpayable",
      "type": "function"
    },
    {
      "constant": true,
      "inputs": [],
      "name": "isRegistered",
      "outputs": [
        {
          "name": "",
          "type": "bool"
        }
      ],
      "payable": false,
      "stateMutability": "view",
      "type": "function"
    },
    {
      "constant": true,
      "inputs": [],
      "name": "isActive",
      "outputs": [
        {
          "name": "",
          "type": "bool"
        }
      ],
      "payable": false,
      "stateMutability": "view",
      "type": "function"
    },
    {
      "constant": true,
      "inputs": [],
      "name": "identity",
      "outputs": [
        {
          "name": "",
          "type": "address"
        }
      ],
      "payable": false,
      "stateMutability": "view",
      "type": "function"
    },
    {
      "constant": true,
      "inputs": [],
      "name": "periodEnd",
      "outputs": [
        {
          "name": "",
          "type": "uint256"
        }
      ],
      "payable": false,
      "stateMutability": "view",
      "type": "function"
    },
    {
      "constant": false,
      "inputs": [
        {
          "name": "_identity",
          "type": "address"
        }
      ],
      "name": "setIdentity",
      "outputs": [],
      "payable": false,
      "stateMutability": "nonpayable",
      "type": "function"
    },
    {
      "constant": false,
      "inputs": [],
      "name": "renounceOwnership",
      "outputs": [],
      "payable": false,
      "stateMutability": "nonpayable",
      "type": "function"
    },
    {
      "constant": false,
      "inputs": [
        {
          "name": "_avatar",
          "type": "address"
        }
      ],
      "name": "end",
      "outputs": [],
      "payable": false,
      "stateMutability": "nonpayable",
      "type": "function"
    },
    {
      "constant": true,
      "inputs": [],
      "name": "owner",
      "outputs": [
        {
          "name": "",
          "type": "address"
        }
      ],
      "payable": false,
      "stateMutability": "view",
      "type": "function"
    },
    {
      "constant": true,
      "inputs": [],
      "name": "isOwner",
      "outputs": [
        {
          "name": "",
          "type": "bool"
        }
      ],
      "payable": false,
      "stateMutability": "view",
      "type": "function"
    },
    {
      "constant": true,
      "inputs": [],
      "name": "periodStart",
      "outputs": [
        {
          "name": "",
          "type": "uint256"
        }
      ],
      "payable": false,
      "stateMutability": "view",
      "type": "function"
    },
    {
      "constant": false,
      "inputs": [
        {
          "name": "newOwner",
          "type": "address"
        }
      ],
      "name": "transferOwnership",
      "outputs": [],
      "payable": false,
      "stateMutability": "nonpayable",
      "type": "function"
    },
    {
      "constant": true,
      "inputs": [],
      "name": "receiver",
      "outputs": [
        {
          "name": "",
          "type": "address"
        }
      ],
      "payable": false,
      "stateMutability": "view",
      "type": "function"
    },
    {
      "inputs": [
        {
          "name": "_avatar",
          "type": "address"
        },
        {
          "name": "_identity",
          "type": "address"
        },
        {
          "name": "_receiver",
          "type": "address"
        },
        {
          "name": "_periodStart",
          "type": "uint256"
        },
        {
          "name": "_periodEnd",
          "type": "uint256"
        }
      ],
      "payable": false,
      "stateMutability": "nonpayable",
      "type": "constructor"
    },
    {
      "anonymous": false,
      "inputs": [
        {
          "indexed": true,
          "name": "previousOwner",
          "type": "address"
        },
        {
          "indexed": true,
          "name": "newOwner",
          "type": "address"
        }
      ],
      "name": "OwnershipTransferred",
      "type": "event"
    },
    {
      "anonymous": false,
      "inputs": [
        {
          "indexed": true,
          "name": "by",
          "type": "address"
        },
        {
          "indexed": false,
          "name": "time",
          "type": "uint256"
        }
      ],
      "name": "SchemeStarted",
      "type": "event"
    },
    {
      "anonymous": false,
      "inputs": [
        {
          "indexed": true,
          "name": "by",
          "type": "address"
        },
        {
          "indexed": false,
          "name": "time",
          "type": "uint256"
        }
      ],
      "name": "SchemeEnded",
      "type": "event"
    },
    {
      "constant": false,
      "inputs": [],
      "name": "start",
      "outputs": [],
      "payable": false,
      "stateMutability": "nonpayable",
      "type": "function"
    }
  ],
  "bytecode": "0x608060405260048054600160a060020a031916905534801561002057600080fd5b5060405160a0806113a1833981018060405260a081101561004057600080fd5b508051602082015160408301516060840151608090940151929391929091908385818185858082106100bd576040517f08c379a000000000000000000000000000000000000000000000000000000000815260040180806020018281038252602681526020018061137b6026913960400191505060405180910390fd5b600091825560015560028054600160a860020a0319166101003381029190911791829055604051600160a060020a03919092041691907f8be0079c531659141344cd1fd0a4f28419497f9722a3daafe3b4186f6b6457e0908290a360038054600160a060020a031916600160a060020a03838116919091179182905516156101f557600360009054906101000a9004600160a060020a0316600160a060020a0316638da5cb5b6040518163ffffffff167c010000000000000000000000000000000000000000000000000000000002815260040160206040518083038186803b1580156101a957600080fd5b505afa1580156101bd573d6000803e3d6000fd5b505050506040513d60208110156101d357600080fd5b505160048054600160a060020a031916600160a060020a039092169190911790555b50600160a060020a038116151561026d57604080517f08c379a000000000000000000000000000000000000000000000000000000000815260206004820152601960248201527f537570706c696564206964656e74697479206973206e756c6c00000000000000604482015290519081900360640190fd5b60058054600160a060020a031916600160a060020a039283161790558516151591506102fc905057604080517f08c379a000000000000000000000000000000000000000000000000000000000815260206004820152601f60248201527f72656365697665722063616e6e6f74206265206e756c6c206164647265737300604482015290519081900360640190fd5b505060068054600160a060020a03909216600160a060020a0319909216919091179055505061104b806103306000396000f3fe608060405234801561001057600080fd5b5060043610610107576000357c0100000000000000000000000000000000000000000000000000000000900480638c4dd39d116100a9578063be9a655511610083578063be9a6555146101fa578063eda4e6d614610202578063f2fde38b1461020a578063f7260d3e1461023057610107565b80638c4dd39d146101c45780638da5cb5b146101ea5780638f32d59b146101f257610107565b80632c159a1a116100e55780632c159a1a14610158578063506ec0951461017c5780635d5bf17814610196578063715018a6146101bc57610107565b8063086cfca81461010c578063223668441461013457806322f3e2d414610150575b600080fd5b6101326004803603602081101561012257600080fd5b5035600160a060020a0316610238565b005b61013c610328565b604080519115158252519081900360200190f35b61013c61043d565b610160610446565b60408051600160a060020a039092168252519081900360200190f35b610184610455565b60408051918252519081900360200190f35b610132600480360360208110156101ac57600080fd5b5035600160a060020a031661045b565b610132610574565b610132600480360360208110156101da57600080fd5b5035600160a060020a03166105e4565b61016061064a565b61013c61065e565b610132610674565b610184610a13565b6101326004803603602081101561022057600080fd5b5035600160a060020a0316610a19565b610160610a35565b61024061065e565b151561024b57600080fd5b6003805473ffffffffffffffffffffffffffffffffffffffff1916600160a060020a038381169190911791829055604080517f8da5cb5b00000000000000000000000000000000000000000000000000000000815290519290911691638da5cb5b91600480820192602092909190829003018186803b1580156102cd57600080fd5b505afa1580156102e1573d6000803e3d6000fd5b505050506040513d60208110156102f757600080fd5b50516004805473ffffffffffffffffffffffffffffffffffffffff1916600160a060020a0390921691909117905550565b600354600090600160a060020a0316151561038d576040805160e560020a62461bcd02815260206004820152601160248201527f417661746172206973206e6f7420736574000000000000000000000000000000604482015290519081900360640190fd5b60048054600354604080517f9be2faed0000000000000000000000000000000000000000000000000000000081523094810194909452600160a060020a03918216602485015251911691639be2faed916044808301926020929190829003018186803b1580156103fc57600080fd5b505afa158015610410573d6000803e3d6000fd5b505050506040513d602081101561042657600080fd5b505115156104365750600061043a565b5060015b90565b60025460ff1681565b600554600160a060020a031681565b60015481565b61046361065e565b151561046e57600080fd5b80600160a060020a031663223668446040518163ffffffff167c010000000000000000000000000000000000000000000000000000000002815260040160206040518083038186803b1580156104c357600080fd5b505afa1580156104d7573d6000803e3d6000fd5b505050506040513d60208110156104ed57600080fd5b50511515610545576040805160e560020a62461bcd02815260206004820152601a60248201527f4964656e74697479206973206e6f742072656769737465726564000000000000604482015290519081900360640190fd5b6005805473ffffffffffffffffffffffffffffffffffffffff1916600160a060020a0392909216919091179055565b61057c61065e565b151561058757600080fd5b6002546040516000916101009004600160a060020a0316907f8be0079c531659141344cd1fd0a4f28419497f9722a3daafe3b4186f6b6457e0908390a36002805474ffffffffffffffffffffffffffffffffffffffff0019169055565b60015442101561063e576040805160e560020a62461bcd02815260206004820152601460248201527f706572696f6420686173206e6f7420656e646564000000000000000000000000604482015290519081900360640190fd5b61064781610a44565b50565b6002546101009004600160a060020a031690565b6002546101009004600160a060020a0316331490565b61067c610328565b15156106d2576040805160e560020a62461bcd02815260206004820152601860248201527f536368656d65206973206e6f7420726567697374657265640000000000000000604482015290519081900360640190fd5b6106da610aeb565b6106e2610bf4565b600354604080517fe1758bd80000000000000000000000000000000000000000000000000000000081529051600092600160a060020a03169163e1758bd8916004808301926020929190829003018186803b15801561074057600080fd5b505afa158015610754573d6000803e3d6000fd5b505050506040513d602081101561076a57600080fd5b5051600354604080517f70a08231000000000000000000000000000000000000000000000000000000008152600160a060020a0392831660048201529051929350600092918416916370a0823191602480820192602092909190829003018186803b1580156107d857600080fd5b505afa1580156107ec573d6000803e3d6000fd5b505050506040513d602081101561080257600080fd5b50516004805460065460408051600160a060020a039283166024808301919091526044808301889052835180840382018152606493840185526020810180517bffffffffffffffffffffffffffffffffffffffffffffffffffffffff167fa9059cbb0000000000000000000000000000000000000000000000000000000017815260035495517fd1b7089a0000000000000000000000000000000000000000000000000000000081528c8816998101998a5295871692860183905260009486018590526080938601938452815160848701528151999a50959096169763d1b7089a978b9796929590939260a490910191808383885b8381101561090f5781810151838201526020016108f7565b50505050905090810190601f16801561093c5780820380516001836020036101000a031916815260200191505b5095505050505050600060405180830381600087803b15801561095e57600080fd5b505af1158015610972573d6000803e3d6000fd5b505050506040513d6000823e601f3d908101601f19168201604090815281101561099b57600080fd5b8151602083018051919392830192916401000000008111156109bc57600080fd5b820160208101848111156109cf57600080fd5b81516401000000008111828201871017156109e957600080fd5b506109fa9550610e37945050505050565b600354610a0f90600160a060020a0316610a44565b5050565b60005481565b610a2161065e565b1515610a2c57600080fd5b61064781610f96565b600654600160a060020a031681565b60025460ff161515610aa0576040805160e560020a62461bcd02815260206004820152600d60248201527f6973206e6f742061637469766500000000000000000000000000000000000000604482015290519081900360640190fd5b6002805460ff1916905560408051428152905133917ef689ee9beb942c1c9c0d6642687ace05a9000d5f2979d344163c57829fa779919081900360200190a280600160a060020a0316ff5b6000544210158015610afe575060015442105b1515610b54576040805160e560020a62461bcd02815260206004820152600d60248201527f6e6f7420696e20706572696f6400000000000000000000000000000000000000604482015290519081900360640190fd5b60025460ff1615610baf576040805160e560020a62461bcd02815260206004820152601260248201527f63616e6e6f742073746172742074776963650000000000000000000000000000604482015290519081900360640190fd5b6002805460ff1916600117905560408051428152905133917f727dd98701807c5fdf715b9f1fd7d87461a558e2ab3e05935add76e42e330fa3919081900360200190a2565b610bfc610328565b1515610c52576040805160e560020a62461bcd02815260206004820152601860248201527f536368656d65206973206e6f7420726567697374657265640000000000000000604482015290519081900360640190fd5b600480546005546040805130602480830191909152825180830382018152604492830184526020810180517bffffffffffffffffffffffffffffffffffffffffffffffffffffffff167f5f539d690000000000000000000000000000000000000000000000000000000017815260035494517fd1b7089a000000000000000000000000000000000000000000000000000000008152600160a060020a039687169881018981529587169481018590526000606482018190526080948201948552835160848301528351979098169863d1b7089a989097939690949093909260a49092019190808383885b83811015610d54578181015183820152602001610d3c565b50505050905090810190601f168015610d815780820380516001836020036101000a031916815260200191505b5095505050505050600060405180830381600087803b158015610da357600080fd5b505af1158015610db7573d6000803e3d6000fd5b505050506040513d6000823e601f3d908101601f191682016040908152811015610de057600080fd5b815160208301805191939283019291640100000000811115610e0157600080fd5b82016020810184811115610e1457600080fd5b8151640100000000811182820187101715610e2e57600080fd5b50505050505050565b610e3f610328565b1515610e95576040805160e560020a62461bcd02815260206004820152601860248201527f536368656d65206973206e6f7420726567697374657265640000000000000000604482015290519081900360640190fd5b600480546005546040805130602480830191909152825180830382018152604492830184526020810180517bffffffffffffffffffffffffffffffffffffffffffffffffffffffff167fc375c2ef0000000000000000000000000000000000000000000000000000000017815260035494517fd1b7089a000000000000000000000000000000000000000000000000000000008152600160a060020a039687169881018981529587169481018590526000606482018190526080948201948552835160848301528351979098169863d1b7089a989097939690949093909260a490920191908083838883811015610d54578181015183820152602001610d3c565b600160a060020a0381161515610fab57600080fd5b600254604051600160a060020a0380841692610100900416907f8be0079c531659141344cd1fd0a4f28419497f9722a3daafe3b4186f6b6457e090600090a360028054600160a060020a039092166101000274ffffffffffffffffffffffffffffffffffffffff001990921691909117905556fea165627a7a72305820b406dafe9f5e08aa4b9f20c69c21b1fab5c0eed3581cc44d18248b42d9f76bc1002973746172742063616e6e6f74206265206166746572206e6f7220657175616c20746f20656e64",
  "source": "pragma solidity 0.5.4;\n\nimport \"@daostack/arc/contracts/controller/Avatar.sol\";\nimport \"@daostack/arc/contracts/controller/ControllerInterface.sol\";\n\nimport \"./ActivePeriod.sol\";\nimport \"./FeelessScheme.sol\";\nimport \"./SchemeGuard.sol\";\nimport \"../../identity/Identity.sol\";\n\n/* @title Scheme contract responsible for transferring balance of avatar to given receiver\n */\ncontract ReserveRelayer is ActivePeriod, FeelessScheme {\n\n    address public receiver;\n\n    /* @dev Constructor. Reverts if receiver is invalid\n     * @param _avatar The avatar of the DAO\n     * @param _identity The identity contract\n     * @param _receiver The address to receive funds\n     * @param _periodStart period from when the contract is able to start\n     * @param _periodEnd period from when the contract is able to end\n     */\n    constructor(\n        Avatar _avatar,\n        Identity _identity,\n        address _receiver,\n        uint256 _periodStart,\n        uint256 _periodEnd\n    )\n        public\n        ActivePeriod(_periodStart, _periodEnd)\n        FeelessScheme(_identity, _avatar)\n    {\n        require(_receiver != address(0), \"receiver cannot be null address\");\n        receiver = _receiver;\n    }\n\n    /* @dev Start function. Transfers the funds of the avatar to\n     * the receiver given in the constructor, then ends the scheme\n     */\n    function start() public onlyRegistered {\n        super.start();\n\n        addRights();\n\n        /* Transfer the fee reserve to this contract */\n        DAOToken token = avatar.nativeToken();\n        uint256 reserve = token.balanceOf(address(avatar));\n\n        controller.genericCall(\n            address(token),\n            abi.encodeWithSignature(\"transfer(address,uint256)\", receiver, reserve),\n            avatar,\n            0);\n\n        removeRights();\n\n        super.internalEnd(avatar);\n    }\n}\n",
  "sourcePath": "/Users/hadar/workspace/GoodDollar/GoodBootstrap/packages/contracts/contracts/dao/schemes/ReserveRelayer.sol",
  "compiler": {
    "name": "solc",
    "version": "0.5.4+commit.9549d8ff.Emscripten.clang"
  },
  "schemaVersion": "3.0.16",
  "updatedAt": "2020-04-26T07:05:12.858Z",
  "devdoc": {
    "methods": {
      "isOwner()": {
        "return": "true if `msg.sender` is the owner of the contract."
      },
      "owner()": {
        "return": "the address of the owner."
      },
      "renounceOwnership()": {
        "details": "Allows the current owner to relinquish control of the contract."
      },
      "transferOwnership(address)": {
        "details": "Allows the current owner to transfer control of the contract to a newOwner.",
        "params": {
          "newOwner": "The address to transfer ownership to."
        }
      }
    }
  },
  "userdoc": {
    "methods": {
      "renounceOwnership()": {
        "notice": "Renouncing to ownership will leave the contract without an owner. It will not be possible to call the functions with the `onlyOwner` modifier anymore."
      }
    }
  }
}