{
  "contractName": "SchemeGuard",
  "abi": [
    {
      "constant": false,
      "inputs": [],
      "name": "renounceOwnership",
      "outputs": [],
      "payable": false,
      "stateMutability": "nonpayable",
      "type": "function"
    },
    {
      "constant": true,
      "inputs": [],
      "name": "owner",
      "outputs": [
        {
          "name": "",
          "type": "address"
        }
      ],
      "payable": false,
      "stateMutability": "view",
      "type": "function"
    },
    {
      "constant": true,
      "inputs": [],
      "name": "isOwner",
      "outputs": [
        {
          "name": "",
          "type": "bool"
        }
      ],
      "payable": false,
      "stateMutability": "view",
      "type": "function"
    },
    {
      "constant": false,
      "inputs": [
        {
          "name": "newOwner",
          "type": "address"
        }
      ],
      "name": "transferOwnership",
      "outputs": [],
      "payable": false,
      "stateMutability": "nonpayable",
      "type": "function"
    },
    {
      "inputs": [
        {
          "name": "_avatar",
          "type": "address"
        }
      ],
      "payable": false,
      "stateMutability": "nonpayable",
      "type": "constructor"
    },
    {
      "anonymous": false,
      "inputs": [
        {
          "indexed": true,
          "name": "previousOwner",
          "type": "address"
        },
        {
          "indexed": true,
          "name": "newOwner",
          "type": "address"
        }
      ],
      "name": "OwnershipTransferred",
      "type": "event"
    },
    {
      "constant": false,
      "inputs": [
        {
          "name": "_avatar",
          "type": "address"
        }
      ],
      "name": "setAvatar",
      "outputs": [],
      "payable": false,
      "stateMutability": "nonpayable",
      "type": "function"
    },
    {
      "constant": true,
      "inputs": [],
      "name": "isRegistered",
      "outputs": [
        {
          "name": "",
          "type": "bool"
        }
      ],
      "payable": false,
      "stateMutability": "view",
      "type": "function"
    },
    {
      "constant": true,
      "inputs": [
        {
          "name": "scheme",
          "type": "address"
        }
      ],
      "name": "isRegistered",
      "outputs": [
        {
          "name": "",
          "type": "bool"
        }
      ],
      "payable": false,
      "stateMutability": "view",
      "type": "function"
    }
  ],
  "bytecode": "0x608060405260028054600160a060020a031916905534801561002057600080fd5b5060405160208061065d8339810180604052602081101561004057600080fd5b505160008054600160a060020a0319163317808255604051600160a060020a039190911691907f8be0079c531659141344cd1fd0a4f28419497f9722a3daafe3b4186f6b6457e0908290a360018054600160a060020a031916600160a060020a038381169190911791829055161561016857600160009054906101000a9004600160a060020a0316600160a060020a0316638da5cb5b6040518163ffffffff167c010000000000000000000000000000000000000000000000000000000002815260040160206040518083038186803b15801561011c57600080fd5b505afa158015610130573d6000803e3d6000fd5b505050506040513d602081101561014657600080fd5b505160028054600160a060020a031916600160a060020a039092169190911790555b506104e5806101786000396000f3fe608060405234801561001057600080fd5b506004361061009a576000357c0100000000000000000000000000000000000000000000000000000000900480638da5cb5b116100785780638da5cb5b146100eb5780638f32d59b1461010f578063c3c5a54714610117578063f2fde38b1461013d5761009a565b8063086cfca81461009f57806322366844146100c7578063715018a6146100e3575b600080fd5b6100c5600480360360208110156100b557600080fd5b5035600160a060020a0316610163565b005b6100cf610253565b604080519115158252519081900360200190f35b6100c5610263565b6100f36102cd565b60408051600160a060020a039092168252519081900360200190f35b6100cf6102dc565b6100cf6004803603602081101561012d57600080fd5b5035600160a060020a03166102ed565b6100c56004803603602081101561015357600080fd5b5035600160a060020a031661041d565b61016b6102dc565b151561017657600080fd5b6001805473ffffffffffffffffffffffffffffffffffffffff1916600160a060020a038381169190911791829055604080517f8da5cb5b00000000000000000000000000000000000000000000000000000000815290519290911691638da5cb5b91600480820192602092909190829003018186803b1580156101f857600080fd5b505afa15801561020c573d6000803e3d6000fd5b505050506040513d602081101561022257600080fd5b50516002805473ffffffffffffffffffffffffffffffffffffffff1916600160a060020a0390921691909117905550565b600061025e306102ed565b905090565b61026b6102dc565b151561027657600080fd5b60008054604051600160a060020a03909116907f8be0079c531659141344cd1fd0a4f28419497f9722a3daafe3b4186f6b6457e0908390a36000805473ffffffffffffffffffffffffffffffffffffffff19169055565b600054600160a060020a031690565b600054600160a060020a0316331490565b600154600090600160a060020a0316151561036957604080517f08c379a000000000000000000000000000000000000000000000000000000000815260206004820152601160248201527f417661746172206973206e6f7420736574000000000000000000000000000000604482015290519081900360640190fd5b600254600154604080517f9be2faed000000000000000000000000000000000000000000000000000000008152600160a060020a038681166004830152928316602482015290519190921691639be2faed916044808301926020929190829003018186803b1580156103da57600080fd5b505afa1580156103ee573d6000803e3d6000fd5b505050506040513d602081101561040457600080fd5b5051151561041457506000610418565b5060015b919050565b6104256102dc565b151561043057600080fd5b6104398161043c565b50565b600160a060020a038116151561045157600080fd5b60008054604051600160a060020a03808516939216917f8be0079c531659141344cd1fd0a4f28419497f9722a3daafe3b4186f6b6457e091a36000805473ffffffffffffffffffffffffffffffffffffffff1916600160a060020a039290921691909117905556fea165627a7a72305820b11d28618613b9be80d842c6c4bb600682536464ab2050984b1779e2ab1ce3ea0029",
  "source": "pragma solidity 0.5.4;\n\nimport \"openzeppelin-solidity/contracts/ownership/Ownable.sol\";\nimport \"@daostack/arc/contracts/controller/Avatar.sol\";\nimport \"@daostack/arc/contracts/controller/ControllerInterface.sol\";\n\n\n/* @dev abstract contract for ensuring that schemes have been registered properly\n * Allows setting zero Avatar in situations where the Avatar hasn't been created yet\n */\ncontract SchemeGuard is Ownable {\n    Avatar avatar;\n    ControllerInterface internal controller = ControllerInterface(0);\n\n    /** @dev Constructor. only sets controller if given avatar is not null.\n     * @param _avatar The avatar of the DAO.\n     */\n    constructor(Avatar _avatar) public {\n        avatar = _avatar;\n\n        if (avatar != Avatar(0)) {\n            controller = ControllerInterface(avatar.owner());\n        }\n    }\n\n    /** @dev modifier to check if caller is avatar\n     */\n    modifier onlyAvatar() {\n        require(address(avatar) == msg.sender, \"only Avatar can call this method\");\n        _;\n    }\n\n    /** @dev modifier to check if scheme is registered\n     */\n    modifier onlyRegistered() {\n        require(isRegistered(), \"Scheme is not registered\");\n        _;\n    }\n\n    /** @dev modifier to check if scheme is not registered\n     */\n    modifier onlyNotRegistered() {\n        require(!isRegistered(), \"Scheme is registered\");\n        _;\n    }\n\n    /** @dev modifier to check if call is a scheme that is registered\n     */\n    modifier onlyRegisteredCaller() {\n        require(isRegistered(msg.sender), \"Calling scheme is not registered\");\n        _;\n    }\n\n    /** @dev Function to set a new avatar and controller for scheme\n     * can only be done by owner of scheme\n     */\n    function setAvatar(Avatar _avatar) public onlyOwner {\n        avatar = _avatar;\n        controller = ControllerInterface(avatar.owner());\n    }\n\n    /** @dev function to see if an avatar has been set and if this scheme is registered\n     * @return true if scheme is registered\n     */\n    function isRegistered() public view returns (bool) {\n        return isRegistered(address(this));\n    }\n\n    /** @dev function to see if an avatar has been set and if this scheme is registered\n     * @return true if scheme is registered\n     */\n    function isRegistered(address scheme) public view returns (bool) {\n        require(avatar != Avatar(0), \"Avatar is not set\");\n\n        if (!(controller.isSchemeRegistered(scheme, address(avatar)))) {\n            return false;\n        }\n        return true;\n    }\n}\n",
  "sourcePath": "/Users/hadar/workspace/GoodDollar/GoodBootstrap/packages/contracts/contracts/dao/schemes/SchemeGuard.sol",
  "compiler": {
    "name": "solc",
    "version": "0.5.4+commit.9549d8ff.Emscripten.clang"
  },
  "schemaVersion": "3.0.16",
  "updatedAt": "2020-07-07T14:28:01.539Z",
  "devdoc": {
    "methods": {
      "constructor": {
        "details": "Constructor. only sets controller if given avatar is not null.",
        "params": {
          "_avatar": "The avatar of the DAO."
        }
      },
      "isOwner()": {
        "return": "true if `msg.sender` is the owner of the contract."
      },
      "isRegistered()": {
        "details": "function to see if an avatar has been set and if this scheme is registered",
        "return": "true if scheme is registered"
      },
      "isRegistered(address)": {
        "details": "function to see if an avatar has been set and if this scheme is registered",
        "return": "true if scheme is registered"
      },
      "owner()": {
        "return": "the address of the owner."
      },
      "renounceOwnership()": {
        "details": "Allows the current owner to relinquish control of the contract."
      },
      "setAvatar(address)": {
        "details": "Function to set a new avatar and controller for scheme can only be done by owner of scheme"
      },
      "transferOwnership(address)": {
        "details": "Allows the current owner to transfer control of the contract to a newOwner.",
        "params": {
          "newOwner": "The address to transfer ownership to."
        }
      }
    }
  },
  "userdoc": {
    "methods": {
      "renounceOwnership()": {
        "notice": "Renouncing to ownership will leave the contract without an owner. It will not be possible to call the functions with the `onlyOwner` modifier anymore."
      }
    }
  }
}