{
  "contractName": "SchemeGuard",
  "abi": [
    {
      "constant": false,
      "inputs": [],
      "name": "renounceOwnership",
      "outputs": [],
      "payable": false,
      "stateMutability": "nonpayable",
      "type": "function"
    },
    {
      "constant": true,
      "inputs": [],
      "name": "owner",
      "outputs": [
        {
          "name": "",
          "type": "address"
        }
      ],
      "payable": false,
      "stateMutability": "view",
      "type": "function"
    },
    {
      "constant": true,
      "inputs": [],
      "name": "isOwner",
      "outputs": [
        {
          "name": "",
          "type": "bool"
        }
      ],
      "payable": false,
      "stateMutability": "view",
      "type": "function"
    },
    {
      "constant": false,
      "inputs": [
        {
          "name": "newOwner",
          "type": "address"
        }
      ],
      "name": "transferOwnership",
      "outputs": [],
      "payable": false,
      "stateMutability": "nonpayable",
      "type": "function"
    },
    {
      "inputs": [
        {
          "name": "_avatar",
          "type": "address"
        }
      ],
      "payable": false,
      "stateMutability": "nonpayable",
      "type": "constructor"
    },
    {
      "anonymous": false,
      "inputs": [
        {
          "indexed": true,
          "name": "previousOwner",
          "type": "address"
        },
        {
          "indexed": true,
          "name": "newOwner",
          "type": "address"
        }
      ],
      "name": "OwnershipTransferred",
      "type": "event"
    },
    {
      "constant": false,
      "inputs": [
        {
          "name": "_avatar",
          "type": "address"
        }
      ],
      "name": "setAvatar",
      "outputs": [],
      "payable": false,
      "stateMutability": "nonpayable",
      "type": "function"
    },
    {
      "constant": true,
      "inputs": [],
      "name": "isRegistered",
      "outputs": [
        {
          "name": "",
          "type": "bool"
        }
      ],
      "payable": false,
      "stateMutability": "view",
      "type": "function"
    }
  ],
  "bytecode": "0x608060405260028054600160a060020a031916905534801561002057600080fd5b506040516020806106078339810180604052602081101561004057600080fd5b505160008054600160a060020a0319163317808255604051600160a060020a039190911691907f8be0079c531659141344cd1fd0a4f28419497f9722a3daafe3b4186f6b6457e0908290a360018054600160a060020a031916600160a060020a038381169190911791829055161561016857600160009054906101000a9004600160a060020a0316600160a060020a0316638da5cb5b6040518163ffffffff167c010000000000000000000000000000000000000000000000000000000002815260040160206040518083038186803b15801561011c57600080fd5b505afa158015610130573d6000803e3d6000fd5b505050506040513d602081101561014657600080fd5b505160028054600160a060020a031916600160a060020a039092169190911790555b5061048f806101786000396000f3fe608060405234801561001057600080fd5b506004361061007e577c01000000000000000000000000000000000000000000000000000000006000350463086cfca8811461008357806322366844146100ab578063715018a6146100c75780638da5cb5b146100cf5780638f32d59b146100f3578063f2fde38b146100fb575b600080fd5b6100a96004803603602081101561009957600080fd5b5035600160a060020a0316610121565b005b6100b3610211565b604080519115158252519081900360200190f35b6100a961033d565b6100d76103a7565b60408051600160a060020a039092168252519081900360200190f35b6100b36103b6565b6100a96004803603602081101561011157600080fd5b5035600160a060020a03166103c7565b6101296103b6565b151561013457600080fd5b6001805473ffffffffffffffffffffffffffffffffffffffff1916600160a060020a038381169190911791829055604080517f8da5cb5b00000000000000000000000000000000000000000000000000000000815290519290911691638da5cb5b91600480820192602092909190829003018186803b1580156101b657600080fd5b505afa1580156101ca573d6000803e3d6000fd5b505050506040513d60208110156101e057600080fd5b50516002805473ffffffffffffffffffffffffffffffffffffffff1916600160a060020a0390921691909117905550565b600154600090600160a060020a0316151561028d57604080517f08c379a000000000000000000000000000000000000000000000000000000000815260206004820152601160248201527f417661746172206973206e6f7420736574000000000000000000000000000000604482015290519081900360640190fd5b600254600154604080517f9be2faed000000000000000000000000000000000000000000000000000000008152306004820152600160a060020a03928316602482015290519190921691639be2faed916044808301926020929190829003018186803b1580156102fc57600080fd5b505afa158015610310573d6000803e3d6000fd5b505050506040513d602081101561032657600080fd5b505115156103365750600061033a565b5060015b90565b6103456103b6565b151561035057600080fd5b60008054604051600160a060020a03909116907f8be0079c531659141344cd1fd0a4f28419497f9722a3daafe3b4186f6b6457e0908390a36000805473ffffffffffffffffffffffffffffffffffffffff19169055565b600054600160a060020a031690565b600054600160a060020a0316331490565b6103cf6103b6565b15156103da57600080fd5b6103e3816103e6565b50565b600160a060020a03811615156103fb57600080fd5b60008054604051600160a060020a03808516939216917f8be0079c531659141344cd1fd0a4f28419497f9722a3daafe3b4186f6b6457e091a36000805473ffffffffffffffffffffffffffffffffffffffff1916600160a060020a039290921691909117905556fea165627a7a72305820d687e114b40aad2b2728f8247be3c4b9d17c06f7b1590d6a9155f0258d411df20029",
  "source": "pragma solidity 0.5.4;\n\nimport \"openzeppelin-solidity/contracts/ownership/Ownable.sol\";\nimport \"@daostack/arc/contracts/controller/Avatar.sol\";\nimport \"@daostack/arc/contracts/controller/ControllerInterface.sol\";\n\n/* @dev abstract contract for ensuring that schemes have been registered properly\n * Allows setting zero Avatar in situations where the Avatar hasn't been created yet\n */\ncontract SchemeGuard is Ownable {\n\n    Avatar avatar;\n    ControllerInterface controller = ControllerInterface(0);\n\n    /* @dev Constructor. only sets controller if given avatar is not null.\n     * @param _avatar The avatar of the DAO.\n     */\n    constructor(Avatar _avatar) public {\n        avatar = _avatar;\n\n        if (avatar != Avatar(0)) {\n            controller = ControllerInterface(avatar.owner());\n        }\n    }\n\n    /* @dev modifier to check if scheme is registered\n     */\n    modifier onlyRegistered() {\n        require(isRegistered(), \"Scheme is not registered\");\n        _;\n    }\n\n    /* @dev modifier to check if scheme is not registered\n     */\n    modifier onlyNotRegistered() {\n        require(!isRegistered(), \"Scheme is registered\");\n        _;\n    }\n\n    /* @dev Function to set a new avatar and controller for scheme\n     * can only be done by owner of scheme\n     */\n    function setAvatar(Avatar _avatar) public onlyOwner {\n        avatar = _avatar;\n        controller = ControllerInterface(avatar.owner());\n    }\n\n    /* @dev function to see if an avatar has been set and if this scheme is registered\n     * @return true if scheme is registered\n     */\n    function isRegistered() public view returns(bool) {\n        require(avatar != Avatar(0), \"Avatar is not set\");\n\n        if (!(controller.isSchemeRegistered(address(this), address(avatar)))) {\n            return false;\n        }\n        return true;\n    }\n}",
  "sourcePath": "/Users/hadar/workspace/GoodDollar/GoodBootstrap/packages/contracts/contracts/dao/schemes/SchemeGuard.sol",
  "compiler": {
    "name": "solc",
    "version": "0.5.4+commit.9549d8ff.Emscripten.clang"
  },
  "schemaVersion": "3.0.16",
  "updatedAt": "2020-03-30T19:38:08.004Z",
  "devdoc": {
    "methods": {
      "isOwner()": {
        "return": "true if `msg.sender` is the owner of the contract."
      },
      "owner()": {
        "return": "the address of the owner."
      },
      "renounceOwnership()": {
        "details": "Allows the current owner to relinquish control of the contract."
      },
      "transferOwnership(address)": {
        "details": "Allows the current owner to transfer control of the contract to a newOwner.",
        "params": {
          "newOwner": "The address to transfer ownership to."
        }
      }
    }
  },
  "userdoc": {
    "methods": {
      "renounceOwnership()": {
        "notice": "Renouncing to ownership will leave the contract without an owner. It will not be possible to call the functions with the `onlyOwner` modifier anymore."
      }
    }
  }
}