{
  "contractName": "SchemeGuard",
  "abi": [
    {
      "inputs": [
        {
          "internalType": "contract Avatar",
          "name": "_avatar",
          "type": "address"
        }
      ],
      "payable": false,
      "stateMutability": "nonpayable",
      "type": "constructor"
    },
    {
      "anonymous": false,
      "inputs": [
        {
          "indexed": true,
          "internalType": "address",
          "name": "previousOwner",
          "type": "address"
        },
        {
          "indexed": true,
          "internalType": "address",
          "name": "newOwner",
          "type": "address"
        }
      ],
      "name": "OwnershipTransferred",
      "type": "event"
    },
    {
      "constant": true,
      "inputs": [],
      "name": "isOwner",
      "outputs": [
        {
          "internalType": "bool",
          "name": "",
          "type": "bool"
        }
      ],
      "payable": false,
      "stateMutability": "view",
      "type": "function"
    },
    {
      "constant": true,
      "inputs": [],
      "name": "owner",
      "outputs": [
        {
          "internalType": "address",
          "name": "",
          "type": "address"
        }
      ],
      "payable": false,
      "stateMutability": "view",
      "type": "function"
    },
    {
      "constant": false,
      "inputs": [],
      "name": "renounceOwnership",
      "outputs": [],
      "payable": false,
      "stateMutability": "nonpayable",
      "type": "function"
    },
    {
      "constant": false,
      "inputs": [
        {
          "internalType": "address",
          "name": "newOwner",
          "type": "address"
        }
      ],
      "name": "transferOwnership",
      "outputs": [],
      "payable": false,
      "stateMutability": "nonpayable",
      "type": "function"
    },
    {
      "constant": false,
      "inputs": [
        {
          "internalType": "contract Avatar",
          "name": "_avatar",
          "type": "address"
        }
      ],
      "name": "setAvatar",
      "outputs": [],
      "payable": false,
      "stateMutability": "nonpayable",
      "type": "function"
    },
    {
      "constant": true,
      "inputs": [],
      "name": "isRegistered",
      "outputs": [
        {
          "internalType": "bool",
          "name": "",
          "type": "bool"
        }
      ],
      "payable": false,
      "stateMutability": "view",
      "type": "function"
    },
    {
      "constant": true,
      "inputs": [
        {
          "internalType": "address",
          "name": "scheme",
          "type": "address"
        }
      ],
      "name": "isRegistered",
      "outputs": [
        {
          "internalType": "bool",
          "name": "",
          "type": "bool"
        }
      ],
      "payable": false,
      "stateMutability": "view",
      "type": "function"
    }
  ],
  "bytecode": "0x6080604052600280546001600160a01b031916905534801561002057600080fd5b506040516105983803806105988339818101604052602081101561004357600080fd5b5051600080546001600160a01b03191633178082556040516001600160a01b039190911691907f8be0079c531659141344cd1fd0a4f28419497f9722a3daafe3b4186f6b6457e0908290a3600180546001600160a01b0319166001600160a01b038381169190911791829055161561014f57600160009054906101000a90046001600160a01b03166001600160a01b0316638da5cb5b6040518163ffffffff1660e01b815260040160206040518083038186803b15801561010357600080fd5b505afa158015610117573d6000803e3d6000fd5b505050506040513d602081101561012d57600080fd5b5051600280546001600160a01b0319166001600160a01b039092169190911790555b506104398061015f6000396000f3fe608060405234801561001057600080fd5b506004361061007d5760003560e01c80638da5cb5b1161005b5780638da5cb5b146100ce5780638f32d59b146100f2578063c3c5a547146100fa578063f2fde38b146101205761007d565b8063086cfca81461008257806322366844146100aa578063715018a6146100c6575b600080fd5b6100a86004803603602081101561009857600080fd5b50356001600160a01b0316610146565b005b6100b2610201565b604080519115158252519081900360200190f35b6100a8610211565b6100d661026c565b604080516001600160a01b039092168252519081900360200190f35b6100b261027b565b6100b26004803603602081101561011057600080fd5b50356001600160a01b031661028c565b6100a86004803603602081101561013657600080fd5b50356001600160a01b0316610379565b61014e61027b565b61015757600080fd5b600180546001600160a01b0319166001600160a01b03838116919091179182905560408051638da5cb5b60e01b815290519290911691638da5cb5b91600480820192602092909190829003018186803b1580156101b357600080fd5b505afa1580156101c7573d6000803e3d6000fd5b505050506040513d60208110156101dd57600080fd5b5051600280546001600160a01b0319166001600160a01b0390921691909117905550565b600061020c3061028c565b905090565b61021961027b565b61022257600080fd5b600080546040516001600160a01b03909116907f8be0079c531659141344cd1fd0a4f28419497f9722a3daafe3b4186f6b6457e0908390a3600080546001600160a01b0319169055565b6000546001600160a01b031690565b6000546001600160a01b0316331490565b6001546000906001600160a01b03166102e0576040805162461bcd60e51b8152602060048201526011602482015270105d985d185c881a5cc81b9bdd081cd95d607a1b604482015290519081900360640190fd5b60025460015460408051639be2faed60e01b81526001600160a01b038681166004830152928316602482015290519190921691639be2faed916044808301926020929190829003018186803b15801561033857600080fd5b505afa15801561034c573d6000803e3d6000fd5b505050506040513d602081101561036257600080fd5b505161037057506000610374565b5060015b919050565b61038161027b565b61038a57600080fd5b61039381610396565b50565b6001600160a01b0381166103a957600080fd5b600080546040516001600160a01b03808516939216917f8be0079c531659141344cd1fd0a4f28419497f9722a3daafe3b4186f6b6457e091a3600080546001600160a01b0319166001600160a01b039290921691909117905556fea265627a7a723158209713603c1e29ac94f25dbd135e0efce20882c01cfa0bb8d28d1f2cac26bcad6e64736f6c63430005100032",
  "source": "pragma solidity >0.5.4;\n\nimport \"openzeppelin-solidity/contracts/ownership/Ownable.sol\";\nimport \"@daostack/arc/contracts/controller/Avatar.sol\";\nimport \"@daostack/arc/contracts/controller/ControllerInterface.sol\";\n\n/* @dev abstract contract for ensuring that schemes have been registered properly\n * Allows setting zero Avatar in situations where the Avatar hasn't been created yet\n */\ncontract SchemeGuard is Ownable {\n    Avatar avatar;\n    ControllerInterface internal controller = ControllerInterface(0);\n\n    /** @dev Constructor. only sets controller if given avatar is not null.\n     * @param _avatar The avatar of the DAO.\n     */\n    constructor(Avatar _avatar) public {\n        avatar = _avatar;\n\n        if (avatar != Avatar(0)) {\n            controller = ControllerInterface(avatar.owner());\n        }\n    }\n\n    /** @dev modifier to check if caller is avatar\n     */\n    modifier onlyAvatar() {\n        require(address(avatar) == msg.sender, \"only Avatar can call this method\");\n        _;\n    }\n\n    /** @dev modifier to check if scheme is registered\n     */\n    modifier onlyRegistered() {\n        require(isRegistered(), \"Scheme is not registered\");\n        _;\n    }\n\n    /** @dev modifier to check if scheme is not registered\n     */\n    modifier onlyNotRegistered() {\n        require(!isRegistered(), \"Scheme is registered\");\n        _;\n    }\n\n    /** @dev modifier to check if call is a scheme that is registered\n     */\n    modifier onlyRegisteredCaller() {\n        require(isRegistered(msg.sender), \"Calling scheme is not registered\");\n        _;\n    }\n\n    /** @dev Function to set a new avatar and controller for scheme\n     * can only be done by owner of scheme\n     */\n    function setAvatar(Avatar _avatar) public onlyOwner {\n        avatar = _avatar;\n        controller = ControllerInterface(avatar.owner());\n    }\n\n    /** @dev function to see if an avatar has been set and if this scheme is registered\n     * @return true if scheme is registered\n     */\n    function isRegistered() public view returns (bool) {\n        return isRegistered(address(this));\n    }\n\n    /** @dev function to see if an avatar has been set and if this scheme is registered\n     * @return true if scheme is registered\n     */\n    function isRegistered(address scheme) public view returns (bool) {\n        require(avatar != Avatar(0), \"Avatar is not set\");\n\n        if (!(controller.isSchemeRegistered(scheme, address(avatar)))) {\n            return false;\n        }\n        return true;\n    }\n}\n",
  "sourcePath": "/Users/hadar/workspace/GoodDollar/GoodBootstrap/packages/contracts/contracts/dao/schemes/SchemeGuard.sol",
  "compiler": {
    "name": "solc",
    "version": "0.5.16+commit.9c3226ce.Emscripten.clang"
  },
  "schemaVersion": "3.2.3",
  "updatedAt": "2021-01-27T19:47:05.710Z",
  "devdoc": {
    "methods": {
      "constructor": {
        "details": "Constructor. only sets controller if given avatar is not null.",
        "params": {
          "_avatar": "The avatar of the DAO."
        }
      },
      "isOwner()": {
        "return": "true if `msg.sender` is the owner of the contract."
      },
      "isRegistered()": {
        "details": "function to see if an avatar has been set and if this scheme is registered",
        "return": "true if scheme is registered"
      },
      "isRegistered(address)": {
        "details": "function to see if an avatar has been set and if this scheme is registered",
        "return": "true if scheme is registered"
      },
      "owner()": {
        "return": "the address of the owner."
      },
      "renounceOwnership()": {
        "details": "Allows the current owner to relinquish control of the contract."
      },
      "setAvatar(address)": {
        "details": "Function to set a new avatar and controller for scheme can only be done by owner of scheme"
      },
      "transferOwnership(address)": {
        "details": "Allows the current owner to transfer control of the contract to a newOwner.",
        "params": {
          "newOwner": "The address to transfer ownership to."
        }
      }
    }
  },
  "userdoc": {
    "methods": {
      "renounceOwnership()": {
        "notice": "Renouncing to ownership will leave the contract without an owner. It will not be possible to call the functions with the `onlyOwner` modifier anymore."
      }
    }
  }
}