{
  "contractName": "SchemeGuardMock",
  "abi": [
    {
      "constant": false,
      "inputs": [
        {
          "name": "_avatar",
          "type": "address"
        }
      ],
      "name": "setAvatar",
      "outputs": [],
      "payable": false,
      "stateMutability": "nonpayable",
      "type": "function"
    },
    {
      "constant": true,
      "inputs": [],
      "name": "isRegistered",
      "outputs": [],
      "payable": false,
      "stateMutability": "view",
      "type": "function"
    },
    {
      "constant": false,
      "inputs": [],
      "name": "renounceOwnership",
      "outputs": [],
      "payable": false,
      "stateMutability": "nonpayable",
      "type": "function"
    },
    {
      "constant": true,
      "inputs": [],
      "name": "owner",
      "outputs": [
        {
          "name": "",
          "type": "address"
        }
      ],
      "payable": false,
      "stateMutability": "view",
      "type": "function"
    },
    {
      "constant": true,
      "inputs": [],
      "name": "isOwner",
      "outputs": [
        {
          "name": "",
          "type": "bool"
        }
      ],
      "payable": false,
      "stateMutability": "view",
      "type": "function"
    },
    {
      "constant": false,
      "inputs": [
        {
          "name": "newOwner",
          "type": "address"
        }
      ],
      "name": "transferOwnership",
      "outputs": [],
      "payable": false,
      "stateMutability": "nonpayable",
      "type": "function"
    },
    {
      "inputs": [
        {
          "name": "_avatar",
          "type": "address"
        }
      ],
      "payable": false,
      "stateMutability": "nonpayable",
      "type": "constructor"
    },
    {
      "anonymous": false,
      "inputs": [
        {
          "indexed": true,
          "name": "previousOwner",
          "type": "address"
        },
        {
          "indexed": true,
          "name": "newOwner",
          "type": "address"
        }
      ],
      "name": "OwnershipTransferred",
      "type": "event"
    },
    {
      "constant": false,
      "inputs": [],
      "name": "start",
      "outputs": [
        {
          "name": "",
          "type": "bool"
        }
      ],
      "payable": false,
      "stateMutability": "nonpayable",
      "type": "function"
    },
    {
      "constant": false,
      "inputs": [],
      "name": "end",
      "outputs": [
        {
          "name": "",
          "type": "bool"
        }
      ],
      "payable": false,
      "stateMutability": "nonpayable",
      "type": "function"
    }
  ],
  "bytecode": "0x608060405260028054600160a060020a031916905534801561002057600080fd5b50604051602080610a218339810180604052602081101561004057600080fd5b505160008054600160a060020a03191633178082556040518392600160a060020a039290921691907f8be0079c531659141344cd1fd0a4f28419497f9722a3daafe3b4186f6b6457e0908290a360018054600160a060020a031916600160a060020a038381169190911791829055161561016a57600160009054906101000a9004600160a060020a0316600160a060020a0316638da5cb5b6040518163ffffffff167c010000000000000000000000000000000000000000000000000000000002815260040160206040518083038186803b15801561011e57600080fd5b505afa158015610132573d6000803e3d6000fd5b505050506040513d602081101561014857600080fd5b505160028054600160a060020a031916600160a060020a039092169190911790555b50506108a68061017b6000396000f3fe608060405234801561001057600080fd5b506004361061008c5760003560e060020a900480638f32d59b1161005f5780638f32d59b146100ed578063be9a655514610109578063efbe1c1c14610111578063f2fde38b146101195761008c565b8063086cfca81461009157806322366844146100b9578063715018a6146100c15780638da5cb5b146100c9575b600080fd5b6100b7600480360360208110156100a757600080fd5b5035600160a060020a031661013f565b005b6100b76103e7565b6100b761053c565b6100d16105a6565b60408051600160a060020a039092168252519081900360200190f35b6100f56105b5565b604080519115158252519081900360200190f35b6100f56105c6565b6100f56106c1565b6100b76004803603602081101561012f57600080fd5b5035600160a060020a03166107b5565b8033600160a060020a03821614801561024f575030600160a060020a0316638da5cb5b6040518163ffffffff1660e060020a02815260040160206040518083038186803b15801561018f57600080fd5b505afa1580156101a3573d6000803e3d6000fd5b505050506040513d60208110156101b957600080fd5b5051604080517f8da5cb5b0000000000000000000000000000000000000000000000000000000081529051600160a060020a0392831692841691638da5cb5b916004808301926020929190829003018186803b15801561021857600080fd5b505afa15801561022c573d6000803e3d6000fd5b505050506040513d602081101561024257600080fd5b5051600160a060020a0316145b806102c9575030600160a060020a0316638da5cb5b6040518163ffffffff1660e060020a02815260040160206040518083038186803b15801561029157600080fd5b505afa1580156102a5573d6000803e3d6000fd5b505050506040513d60208110156102bb57600080fd5b5051600160a060020a031633145b15156103095760405160e560020a62461bcd0281526004018080602001828103825260298152602001806108526029913960400191505060405180910390fd5b6001805473ffffffffffffffffffffffffffffffffffffffff1916600160a060020a038481169190911791829055604080517f8da5cb5b00000000000000000000000000000000000000000000000000000000815290519290911691638da5cb5b91600480820192602092909190829003018186803b15801561038b57600080fd5b505afa15801561039f573d6000803e3d6000fd5b505050506040513d60208110156103b557600080fd5b50516002805473ffffffffffffffffffffffffffffffffffffffff1916600160a060020a039092169190911790555050565b600154600160a060020a03161515610449576040805160e560020a62461bcd02815260206004820152601160248201527f417661746172206973206e6f7420736574000000000000000000000000000000604482015290519081900360640190fd5b600254600154604080517f9be2faed000000000000000000000000000000000000000000000000000000008152306004820152600160a060020a03928316602482015290519190921691639be2faed916044808301926020929190829003018186803b1580156104b857600080fd5b505afa1580156104cc573d6000803e3d6000fd5b505050506040513d60208110156104e257600080fd5b5051151561053a576040805160e560020a62461bcd02815260206004820152601860248201527f536368656d65206973206e6f7420726567697374657265640000000000000000604482015290519081900360640190fd5b565b6105446105b5565b151561054f57600080fd5b60008054604051600160a060020a03909116907f8be0079c531659141344cd1fd0a4f28419497f9722a3daafe3b4186f6b6457e0908390a36000805473ffffffffffffffffffffffffffffffffffffffff19169055565b600054600160a060020a031690565b600054600160a060020a0316331490565b600254600154604080517f9be2faed000000000000000000000000000000000000000000000000000000008152306004820152600160a060020a03928316602482015290516000939290921691639be2faed91604480820192602092909190829003018186803b15801561063957600080fd5b505afa15801561064d573d6000803e3d6000fd5b505050506040513d602081101561066357600080fd5b505115156106bb576040805160e560020a62461bcd02815260206004820152601860248201527f536368656d65206973206e6f7420726567697374657265640000000000000000604482015290519081900360640190fd5b50600190565b600254600154604080517f9be2faed000000000000000000000000000000000000000000000000000000008152306004820152600160a060020a03928316602482015290516000939290921691639be2faed91604480820192602092909190829003018186803b15801561073457600080fd5b505afa158015610748573d6000803e3d6000fd5b505050506040513d602081101561075e57600080fd5b5051156106bb576040805160e560020a62461bcd02815260206004820152601460248201527f536368656d652069732072656769737465726564000000000000000000000000604482015290519081900360640190fd5b6107bd6105b5565b15156107c857600080fd5b6107d1816107d4565b50565b600160a060020a03811615156107e957600080fd5b60008054604051600160a060020a03808516939216917f8be0079c531659141344cd1fd0a4f28419497f9722a3daafe3b4186f6b6457e091a36000805473ffffffffffffffffffffffffffffffffffffffff1916600160a060020a039290921691909117905556fe4f6e6c792063616c6c61626c6520627920617661746172206f66206f776e6572206f72206f776e6572a165627a7a7230582049c11d6ebc88fd95923634ea0628bae9086d49e32f02415779a570f380584d790029",
  "source": "pragma solidity 0.5.4;\n\nimport \"../dao/schemes/SchemeGuard.sol\";\n\ncontract SchemeGuardMock is SchemeGuard {\n\n    constructor(Avatar _avatar) public SchemeGuard(_avatar) {}\n\n    function start() public onlyRegistered returns (bool) {\n        return true;\n    }\n\n    function end() public onlyNotRegistered returns (bool) {\n        return true;\n    }    \n}",
  "sourcePath": "/Users/hadar/workspace/GoodDollar/GoodBootstrap/packages/contracts/contracts/mocks/SchemeGuardMock.sol",
  "compiler": {
    "name": "solc",
    "version": "0.5.4+commit.9549d8ff.Emscripten.clang"
  },
  "schemaVersion": "3.0.16",
  "updatedAt": "2020-04-16T00:32:59.121Z",
  "devdoc": {
    "methods": {
      "isOwner()": {
        "return": "true if `msg.sender` is the owner of the contract."
      },
      "owner()": {
        "return": "the address of the owner."
      },
      "renounceOwnership()": {
        "details": "Allows the current owner to relinquish control of the contract."
      },
      "transferOwnership(address)": {
        "details": "Allows the current owner to transfer control of the contract to a newOwner.",
        "params": {
          "newOwner": "The address to transfer ownership to."
        }
      }
    }
  },
  "userdoc": {
    "methods": {
      "renounceOwnership()": {
        "notice": "Renouncing to ownership will leave the contract without an owner. It will not be possible to call the functions with the `onlyOwner` modifier anymore."
      }
    }
  }
}