{
  "contractName": "SchemeGuard",
  "abi": [
    {
      "constant": false,
      "inputs": [],
      "name": "renounceOwnership",
      "outputs": [],
      "payable": false,
      "stateMutability": "nonpayable",
      "type": "function"
    },
    {
      "constant": true,
      "inputs": [],
      "name": "owner",
      "outputs": [
        {
          "name": "",
          "type": "address"
        }
      ],
      "payable": false,
      "stateMutability": "view",
      "type": "function"
    },
    {
      "constant": true,
      "inputs": [],
      "name": "isOwner",
      "outputs": [
        {
          "name": "",
          "type": "bool"
        }
      ],
      "payable": false,
      "stateMutability": "view",
      "type": "function"
    },
    {
      "constant": false,
      "inputs": [
        {
          "name": "newOwner",
          "type": "address"
        }
      ],
      "name": "transferOwnership",
      "outputs": [],
      "payable": false,
      "stateMutability": "nonpayable",
      "type": "function"
    },
    {
      "inputs": [
        {
          "name": "_avatar",
          "type": "address"
        }
      ],
      "payable": false,
      "stateMutability": "nonpayable",
      "type": "constructor"
    },
    {
      "anonymous": false,
      "inputs": [
        {
          "indexed": true,
          "name": "previousOwner",
          "type": "address"
        },
        {
          "indexed": true,
          "name": "newOwner",
          "type": "address"
        }
      ],
      "name": "OwnershipTransferred",
      "type": "event"
    },
    {
      "constant": false,
      "inputs": [
        {
          "name": "_avatar",
          "type": "address"
        }
      ],
      "name": "setAvatar",
      "outputs": [],
      "payable": false,
      "stateMutability": "nonpayable",
      "type": "function"
    },
    {
      "constant": true,
      "inputs": [],
      "name": "isRegistered",
      "outputs": [],
      "payable": false,
      "stateMutability": "view",
      "type": "function"
    }
  ],
  "bytecode": "0x608060405260028054600160a060020a031916905534801561002057600080fd5b5060405160208061083d8339810180604052602081101561004057600080fd5b505160008054600160a060020a0319163317808255604051600160a060020a039190911691907f8be0079c531659141344cd1fd0a4f28419497f9722a3daafe3b4186f6b6457e0908290a360018054600160a060020a031916600160a060020a038381169190911791829055161561016857600160009054906101000a9004600160a060020a0316600160a060020a0316638da5cb5b6040518163ffffffff167c010000000000000000000000000000000000000000000000000000000002815260040160206040518083038186803b15801561011c57600080fd5b505afa158015610130573d6000803e3d6000fd5b505050506040513d602081101561014657600080fd5b505160028054600160a060020a031916600160a060020a039092169190911790555b506106c5806101786000396000f3fe608060405234801561001057600080fd5b50600436106100655760e060020a6000350463086cfca8811461006a5780632236684414610092578063715018a61461009a5780638da5cb5b146100a25780638f32d59b146100c6578063f2fde38b146100e2575b600080fd5b6100906004803603602081101561008057600080fd5b5035600160a060020a0316610108565b005b6100906103c7565b61009061054a565b6100aa6105b4565b60408051600160a060020a039092168252519081900360200190f35b6100ce6105c3565b604080519115158252519081900360200190f35b610090600480360360208110156100f857600080fd5b5035600160a060020a03166105d4565b8033600160a060020a038216148015610218575030600160a060020a0316638da5cb5b6040518163ffffffff1660e060020a02815260040160206040518083038186803b15801561015857600080fd5b505afa15801561016c573d6000803e3d6000fd5b505050506040513d602081101561018257600080fd5b5051604080517f8da5cb5b0000000000000000000000000000000000000000000000000000000081529051600160a060020a0392831692841691638da5cb5b916004808301926020929190829003018186803b1580156101e157600080fd5b505afa1580156101f5573d6000803e3d6000fd5b505050506040513d602081101561020b57600080fd5b5051600160a060020a0316145b80610292575030600160a060020a0316638da5cb5b6040518163ffffffff1660e060020a02815260040160206040518083038186803b15801561025a57600080fd5b505afa15801561026e573d6000803e3d6000fd5b505050506040513d602081101561028457600080fd5b5051600160a060020a031633145b15156102e9576040517f08c379a00000000000000000000000000000000000000000000000000000000081526004018080602001828103825260298152602001806106716029913960400191505060405180910390fd5b6001805473ffffffffffffffffffffffffffffffffffffffff1916600160a060020a038481169190911791829055604080517f8da5cb5b00000000000000000000000000000000000000000000000000000000815290519290911691638da5cb5b91600480820192602092909190829003018186803b15801561036b57600080fd5b505afa15801561037f573d6000803e3d6000fd5b505050506040513d602081101561039557600080fd5b50516002805473ffffffffffffffffffffffffffffffffffffffff1916600160a060020a039092169190911790555050565b600154600160a060020a0316151561044057604080517f08c379a000000000000000000000000000000000000000000000000000000000815260206004820152601160248201527f417661746172206973206e6f7420736574000000000000000000000000000000604482015290519081900360640190fd5b600254600154604080517f9be2faed000000000000000000000000000000000000000000000000000000008152306004820152600160a060020a03928316602482015290519190921691639be2faed916044808301926020929190829003018186803b1580156104af57600080fd5b505afa1580156104c3573d6000803e3d6000fd5b505050506040513d60208110156104d957600080fd5b5051151561054857604080517f08c379a000000000000000000000000000000000000000000000000000000000815260206004820152601860248201527f536368656d65206973206e6f7420726567697374657265640000000000000000604482015290519081900360640190fd5b565b6105526105c3565b151561055d57600080fd5b60008054604051600160a060020a03909116907f8be0079c531659141344cd1fd0a4f28419497f9722a3daafe3b4186f6b6457e0908390a36000805473ffffffffffffffffffffffffffffffffffffffff19169055565b600054600160a060020a031690565b600054600160a060020a0316331490565b6105dc6105c3565b15156105e757600080fd5b6105f0816105f3565b50565b600160a060020a038116151561060857600080fd5b60008054604051600160a060020a03808516939216917f8be0079c531659141344cd1fd0a4f28419497f9722a3daafe3b4186f6b6457e091a36000805473ffffffffffffffffffffffffffffffffffffffff1916600160a060020a039290921691909117905556fe4f6e6c792063616c6c61626c6520627920617661746172206f66206f776e6572206f72206f776e6572a165627a7a723058208631de02fc301d06561e9c54039118fa4129524ed5b059f24e1fbb8b061026ee0029",
  "source": "pragma solidity 0.5.4;\n\nimport \"@daostack/arc/contracts/controller/Avatar.sol\";\nimport \"@daostack/arc/contracts/controller/ControllerInterface.sol\";\n\nimport \"../AvatarGuard.sol\";\n\n/* @dev abstract contract for ensuring that schemes have been registered properly\n * Allows setting zero Avatar in scenarios where Avatar hasn't been created yet \n */\ncontract SchemeGuard is AvatarGuard {\n\n    Avatar avatar;\n    ControllerInterface controller = ControllerInterface(0);\n\n    constructor(Avatar _avatar) public {\n        avatar = _avatar;\n\n        if (avatar != Avatar(0)) {\n            controller = ControllerInterface(avatar.owner());\n        }\n    }\n\n    /* @dev checks if scheme is registered\n     */\n    modifier onlyRegistered() {\n        require(controller.isSchemeRegistered(address(this), address(avatar)),\n         \"Scheme is not registered\");\n        _;\n    }\n\n    /* @dev Checks if scheme is not registered\n     */\n    modifier onlyNotRegistered() {\n        require(!controller.isSchemeRegistered(address(this), address(avatar)),\n         \"Scheme is registered\");\n        _;\n    }\n\n    /* @dev Sets a new given avatar and controller for scheme\n     * can only be done by owner of scheme\n     */\n    function setAvatar(Avatar _avatar) public onlyOwnerOrAvatar(_avatar) {\n        avatar = _avatar;\n        controller = ControllerInterface(avatar.owner());\n    }\n\n    /* @dev function to see if an avatar has been set and if scheme is registered\n     */\n    function isRegistered() public view {\n        require(avatar != Avatar(0), \"Avatar is not set\");\n        require(controller.isSchemeRegistered(address(this), address(avatar)), \"Scheme is not registered\");\n    }\n}",
  "sourcePath": "/Users/hadar/workspace/GoodDollar/GoodBootstrap/packages/contracts/contracts/dao/schemes/SchemeGuard.sol",
  "compiler": {
    "name": "solc",
    "version": "0.5.4+commit.9549d8ff.Emscripten.clang"
  },
  "schemaVersion": "3.0.16",
  "updatedAt": "2019-10-29T07:48:35.252Z",
  "devdoc": {
    "methods": {
      "isOwner()": {
        "return": "true if `msg.sender` is the owner of the contract."
      },
      "owner()": {
        "return": "the address of the owner."
      },
      "renounceOwnership()": {
        "details": "Allows the current owner to relinquish control of the contract."
      },
      "transferOwnership(address)": {
        "details": "Allows the current owner to transfer control of the contract to a newOwner.",
        "params": {
          "newOwner": "The address to transfer ownership to."
        }
      }
    }
  },
  "userdoc": {
    "methods": {
      "renounceOwnership()": {
        "notice": "Renouncing to ownership will leave the contract without an owner. It will not be possible to call the functions with the `onlyOwner` modifier anymore."
      }
    }
  }
}