{
  "contractName": "SchemeRegistrar",
  "abi": [
    {
      "constant": true,
      "inputs": [
        {
          "name": "",
          "type": "bytes32"
        }
      ],
      "name": "parameters",
      "outputs": [
        {
          "name": "voteRegisterParams",
          "type": "bytes32"
        },
        {
          "name": "voteRemoveParams",
          "type": "bytes32"
        },
        {
          "name": "intVote",
          "type": "address"
        }
      ],
      "payable": false,
      "stateMutability": "view",
      "type": "function"
    },
    {
      "constant": true,
      "inputs": [
        {
          "name": "",
          "type": "address"
        },
        {
          "name": "",
          "type": "bytes32"
        }
      ],
      "name": "organizationsProposals",
      "outputs": [
        {
          "name": "scheme",
          "type": "address"
        },
        {
          "name": "addScheme",
          "type": "bool"
        },
        {
          "name": "parametersHash",
          "type": "bytes32"
        },
        {
          "name": "permissions",
          "type": "bytes4"
        }
      ],
      "payable": false,
      "stateMutability": "view",
      "type": "function"
    },
    {
      "constant": true,
      "inputs": [
        {
          "name": "",
          "type": "address"
        },
        {
          "name": "",
          "type": "bytes32"
        }
      ],
      "name": "proposalsInfo",
      "outputs": [
        {
          "name": "blockNumber",
          "type": "uint256"
        },
        {
          "name": "avatar",
          "type": "address"
        }
      ],
      "payable": false,
      "stateMutability": "view",
      "type": "function"
    },
    {
      "constant": true,
      "inputs": [
        {
          "name": "_stakingToken",
          "type": "address"
        },
        {
          "name": "_proposalId",
          "type": "bytes32"
        }
      ],
      "name": "balanceOfStakingToken",
      "outputs": [
        {
          "name": "",
          "type": "uint256"
        }
      ],
      "payable": false,
      "stateMutability": "view",
      "type": "function"
    },
    {
      "constant": true,
      "inputs": [
        {
          "name": "_owner",
          "type": "address"
        },
        {
          "name": "_proposalId",
          "type": "bytes32"
        }
      ],
      "name": "reputationOf",
      "outputs": [
        {
          "name": "",
          "type": "uint256"
        }
      ],
      "payable": false,
      "stateMutability": "view",
      "type": "function"
    },
    {
      "constant": true,
      "inputs": [
        {
          "name": "_proposalId",
          "type": "bytes32"
        }
      ],
      "name": "getTotalReputationSupply",
      "outputs": [
        {
          "name": "",
          "type": "uint256"
        }
      ],
      "payable": false,
      "stateMutability": "view",
      "type": "function"
    },
    {
      "constant": false,
      "inputs": [
        {
          "name": "_stakingToken",
          "type": "address"
        },
        {
          "name": "_beneficiary",
          "type": "address"
        },
        {
          "name": "_amount",
          "type": "uint256"
        },
        {
          "name": "_proposalId",
          "type": "bytes32"
        }
      ],
      "name": "stakingTokenTransfer",
      "outputs": [
        {
          "name": "",
          "type": "bool"
        }
      ],
      "payable": false,
      "stateMutability": "nonpayable",
      "type": "function"
    },
    {
      "constant": false,
      "inputs": [
        {
          "name": "_amount",
          "type": "uint256"
        },
        {
          "name": "_beneficiary",
          "type": "address"
        },
        {
          "name": "_proposalId",
          "type": "bytes32"
        }
      ],
      "name": "mintReputation",
      "outputs": [
        {
          "name": "",
          "type": "bool"
        }
      ],
      "payable": false,
      "stateMutability": "nonpayable",
      "type": "function"
    },
    {
      "constant": false,
      "inputs": [
        {
          "name": "_amount",
          "type": "uint256"
        },
        {
          "name": "_beneficiary",
          "type": "address"
        },
        {
          "name": "_proposalId",
          "type": "bytes32"
        }
      ],
      "name": "burnReputation",
      "outputs": [
        {
          "name": "",
          "type": "bool"
        }
      ],
      "payable": false,
      "stateMutability": "nonpayable",
      "type": "function"
    },
    {
      "anonymous": false,
      "inputs": [
        {
          "indexed": true,
          "name": "_avatar",
          "type": "address"
        },
        {
          "indexed": true,
          "name": "_proposalId",
          "type": "bytes32"
        },
        {
          "indexed": true,
          "name": "_intVoteInterface",
          "type": "address"
        },
        {
          "indexed": false,
          "name": "_scheme",
          "type": "address"
        },
        {
          "indexed": false,
          "name": "_parametersHash",
          "type": "bytes32"
        },
        {
          "indexed": false,
          "name": "_permissions",
          "type": "bytes4"
        },
        {
          "indexed": false,
          "name": "_descriptionHash",
          "type": "string"
        }
      ],
      "name": "NewSchemeProposal",
      "type": "event"
    },
    {
      "anonymous": false,
      "inputs": [
        {
          "indexed": true,
          "name": "_avatar",
          "type": "address"
        },
        {
          "indexed": true,
          "name": "_proposalId",
          "type": "bytes32"
        },
        {
          "indexed": true,
          "name": "_intVoteInterface",
          "type": "address"
        },
        {
          "indexed": false,
          "name": "_scheme",
          "type": "address"
        },
        {
          "indexed": false,
          "name": "_descriptionHash",
          "type": "string"
        }
      ],
      "name": "RemoveSchemeProposal",
      "type": "event"
    },
    {
      "anonymous": false,
      "inputs": [
        {
          "indexed": true,
          "name": "_avatar",
          "type": "address"
        },
        {
          "indexed": true,
          "name": "_proposalId",
          "type": "bytes32"
        },
        {
          "indexed": false,
          "name": "_param",
          "type": "int256"
        }
      ],
      "name": "ProposalExecuted",
      "type": "event"
    },
    {
      "anonymous": false,
      "inputs": [
        {
          "indexed": true,
          "name": "_avatar",
          "type": "address"
        },
        {
          "indexed": true,
          "name": "_proposalId",
          "type": "bytes32"
        }
      ],
      "name": "ProposalDeleted",
      "type": "event"
    },
    {
      "constant": false,
      "inputs": [
        {
          "name": "_proposalId",
          "type": "bytes32"
        },
        {
          "name": "_param",
          "type": "int256"
        }
      ],
      "name": "executeProposal",
      "outputs": [
        {
          "name": "",
          "type": "bool"
        }
      ],
      "payable": false,
      "stateMutability": "nonpayable",
      "type": "function"
    },
    {
      "constant": false,
      "inputs": [
        {
          "name": "_voteRegisterParams",
          "type": "bytes32"
        },
        {
          "name": "_voteRemoveParams",
          "type": "bytes32"
        },
        {
          "name": "_intVote",
          "type": "address"
        }
      ],
      "name": "setParameters",
      "outputs": [
        {
          "name": "",
          "type": "bytes32"
        }
      ],
      "payable": false,
      "stateMutability": "nonpayable",
      "type": "function"
    },
    {
      "constant": true,
      "inputs": [
        {
          "name": "_voteRegisterParams",
          "type": "bytes32"
        },
        {
          "name": "_voteRemoveParams",
          "type": "bytes32"
        },
        {
          "name": "_intVote",
          "type": "address"
        }
      ],
      "name": "getParametersHash",
      "outputs": [
        {
          "name": "",
          "type": "bytes32"
        }
      ],
      "payable": false,
      "stateMutability": "pure",
      "type": "function"
    },
    {
      "constant": false,
      "inputs": [
        {
          "name": "_avatar",
          "type": "address"
        },
        {
          "name": "_scheme",
          "type": "address"
        },
        {
          "name": "_parametersHash",
          "type": "bytes32"
        },
        {
          "name": "_permissions",
          "type": "bytes4"
        },
        {
          "name": "_descriptionHash",
          "type": "string"
        }
      ],
      "name": "proposeScheme",
      "outputs": [
        {
          "name": "",
          "type": "bytes32"
        }
      ],
      "payable": false,
      "stateMutability": "nonpayable",
      "type": "function"
    },
    {
      "constant": false,
      "inputs": [
        {
          "name": "_avatar",
          "type": "address"
        },
        {
          "name": "_scheme",
          "type": "address"
        },
        {
          "name": "_descriptionHash",
          "type": "string"
        }
      ],
      "name": "proposeToRemoveScheme",
      "outputs": [
        {
          "name": "",
          "type": "bytes32"
        }
      ],
      "payable": false,
      "stateMutability": "nonpayable",
      "type": "function"
    }
  ],
  "bytecode": "0x608060405234801561001057600080fd5b50611c1f806100206000396000f3fe608060405234801561001057600080fd5b50600436106100ee5760003560e060020a900480639588378e11610090578063bea75f281161006a578063bea75f28146103e1578063d29b5d2f1461041d578063e7ac593e1461044f578063f81f8bf61461050e576100ee565b80639588378e146103615780639d4c162d1461038d578063b551c373146103c4576100ee565b80635099e006116100cc5780635099e006146101e157806360bdbb3f146102b65780636b8eb40314610303578063771822611461032f576100ee565b806302506804146100f357806306e3a978146101375780630a6687fd1461019d575b600080fd5b6101106004803603602081101561010957600080fd5b5035610540565b604080519384526020840192909252600160a060020a031682820152519081900360600190f35b6101636004803603604081101561014d57600080fd5b50600160a060020a038135169060200135610569565b60408051600160a060020a039095168552921515602085015283830191909152600160e060020a0319166060830152519081900360800190f35b6101cf600480360360608110156101b357600080fd5b5080359060208101359060400135600160a060020a03166105bf565b60408051918252519081900360200190f35b6101cf600480360360a08110156101f757600080fd5b600160a060020a038235811692602081013590911691604082013591600160e060020a03196060820135169181019060a08101608082013564010000000081111561024157600080fd5b82018360208201111561025357600080fd5b8035906020019184600183028401116401000000008311171561027557600080fd5b91908080601f01602080910402602001604051908101604052809392919081815260200183838082843760009201919091525092955061061b945050505050565b6102e2600480360360408110156102cc57600080fd5b50600160a060020a0381351690602001356109d7565b60408051928352600160a060020a0390911660208301528051918290030190f35b6101cf6004803603604081101561031957600080fd5b50600160a060020a038135169060200135610a01565b6101cf6004803603606081101561034557600080fd5b5080359060208101359060400135600160a060020a0316610ac6565b6101cf6004803603604081101561037757600080fd5b50600160a060020a038135169060200135610b13565b6103b0600480360360408110156103a357600080fd5b5080359060200135610c3f565b604080519115158252519081900360200190f35b6101cf600480360360208110156103da57600080fd5b5035611024565b6103b0600480360360808110156103f757600080fd5b50600160a060020a0381358116916020810135909116906040810135906060013561117c565b6103b06004803603606081101561043357600080fd5b50803590600160a060020a03602082013516906040013561133a565b6101cf6004803603606081101561046557600080fd5b600160a060020a03823581169260208101359091169181019060608101604082013564010000000081111561049957600080fd5b8201836020820111156104ab57600080fd5b803590602001918460018302840111640100000000831117156104cd57600080fd5b91908080601f0160208091040260200160405190810160405280939291908181526020018383808284376000920191909152509295506114ef945050505050565b6103b06004803603606081101561052457600080fd5b50803590600160a060020a0360208201351690604001356117a0565b6002602081905260009182526040909120805460018201549190920154600160a060020a031683565b60016020818152600093845260408085209091529183529120805491810154600290910154600160a060020a0383169274010000000000000000000000000000000000000000900460ff16919060e060020a0284565b6000806105cd858585610ac6565b600081815260026020819052604090912087815560018101879055018054600160a060020a03861673ffffffffffffffffffffffffffffffffffffffff199091161790559150509392505050565b6000600160a060020a038516151561067d576040805160e560020a62461bcd02815260206004820152601560248201527f736368656d652063616e6e6f74206265207a65726f0000000000000000000000604482015290519081900360640190fd5b610685611b75565b600260006106928961191d565b81526020808201929092526040908101600090812082516060810184528154808252600183015482870152600292830154600160a060020a0390811683870181905286517f88737b5e000000000000000000000000000000000000000000000000000000008152600481019590955260248501929092523360448501528d166064840152935190955091936388737b5e9260848084019382900301818787803b15801561073e57600080fd5b505af1158015610752573d6000803e3d6000fd5b505050506040513d602081101561076857600080fd5b50519050610774611b95565b60806040519081016040528089600160a060020a03168152602001600115158152602001888152602001877bffffffffffffffffffffffffffffffffffffffffffffffffffffffff191681525090508260400151600160a060020a0316828a600160a060020a03167fcc9180a05805acc3615b472c3ba00cdc9cd2c6e0e0b3648d60eb58f2c1001b848b8b8b8b6040518085600160a060020a0316600160a060020a03168152602001848152602001837bffffffffffffffffffffffffffffffffffffffffffffffffffffffff19167bffffffffffffffffffffffffffffffffffffffffffffffffffffffff1916815260200180602001828103825283818151815260200191508051906020019080838360005b838110156108a0578181015183820152602001610888565b50505050905090810190601f1680156108cd5780820380516001836020036101000a031916815260200191505b509550505050505060405180910390a4600160a060020a03808a166000818152600160208181526040808420888552825280842087518154848a01511515740100000000000000000000000000000000000000000274ff000000000000000000000000000000000000000019928a1673ffffffffffffffffffffffffffffffffffffffff19928316179290921691909117825582890151828601556060909801516002909101805460e060020a90920463ffffffff1990921691909117905580518082018252438152808301958652988101518616845283825280842088855290915290912095518655905194018054949091169390911692909217909155905095945050505050565b600060208181529281526040808220909352908152208054600190910154600160a060020a031682565b33600090815260208181526040808320848452909152812060010154600160a060020a0316801515610a37576000915050610ac0565b83600160a060020a03166370a08231826040518263ffffffff1660e060020a0281526004018082600160a060020a0316600160a060020a0316815260200191505060206040518083038186803b158015610a9057600080fd5b505afa158015610aa4573d6000803e3d6000fd5b505050506040513d6020811015610aba57600080fd5b50519150505b92915050565b6040805160208082019590955280820193909352600160a060020a03919091166c010000000000000000000000000260608301528051808303605401815260749092019052805191012090565b6000610b1d611bbc565b503360009081526020818152604080832085845282529182902082518084019093528054835260010154600160a060020a03169082018190521515610b66576000915050610ac0565b8060200151600160a060020a03166389ae1c906040518163ffffffff1660e060020a02815260040160206040518083038186803b158015610ba657600080fd5b505afa158015610bba573d6000803e3d6000fd5b505050506040513d6020811015610bd057600080fd5b50518151604080517f4ee2cd7e000000000000000000000000000000000000000000000000000000008152600160a060020a038881166004830152602482019390935290519190921691634ee2cd7e916044808301926020929190829003018186803b158015610a9057600080fd5b336000908152602081815260408083208584529091528120600101548390600160a060020a03161515610caa576040805160e560020a62461bcd0281526020600482015260126024820152600080516020611bd4833981519152604482015290519081900360640190fd5b33600090815260208181526040808320878452909152902060010154600160a060020a0316610cd7611b95565b50600160a060020a0381811660009081526001602081815260408084208a8552825292839020835160808101855281549586168082527401000000000000000000000000000000000000000090960460ff1615159281019290925291820154928101929092526002015460e060020a02600160e060020a0319166060820152901515610d6257600080fd5b600160a060020a03821660008181526001602081815260408084208b8552909152808320805474ffffffffffffffffffffffffffffffffffffffffff191681559182018390556002909101805463ffffffff19169055518892917f6bc0cb9e9967b59a69ace442598e1df4368d38661bd5c0800fbcbc9fe855fbbe91a38460011415610fd857600082600160a060020a0316638da5cb5b6040518163ffffffff1660e060020a02815260040160206040518083038186803b158015610e2657600080fd5b505afa158015610e3a573d6000803e3d6000fd5b505050506040513d6020811015610e5057600080fd5b5051602083015190915015610f25578151604080840151606085015182517fe869d45f000000000000000000000000000000000000000000000000000000008152600160a060020a0394851660048201526024810192909252600160e060020a0319166044820152858316606482015290519183169163e869d45f916084808201926020929091908290030181600087803b158015610eee57600080fd5b505af1158015610f02573d6000803e3d6000fd5b505050506040513d6020811015610f1857600080fd5b50511515610f2557600080fd5b81602001511515610fd6578151604080517f039de01d000000000000000000000000000000000000000000000000000000008152600160a060020a039283166004820152858316602482015290519183169163039de01d916044808201926020929091908290030181600087803b158015610f9f57600080fd5b505af1158015610fb3573d6000803e3d6000fd5b505050506040513d6020811015610fc957600080fd5b50511515610fd657600080fd5b505b6040805186815290518791600160a060020a038516917fd2632e80f5364f02aded1c64e8a04637b7c8bb9c2db2bedf4b6ac47c013acbc09181900360200190a350600195945050505050565b600061102e611bbc565b503360009081526020818152604080832085845282529182902082518084019093528054835260010154600160a060020a03169082018190521515611077576000915050611177565b8060200151600160a060020a03166389ae1c906040518163ffffffff1660e060020a02815260040160206040518083038186803b1580156110b757600080fd5b505afa1580156110cb573d6000803e3d6000fd5b505050506040513d60208110156110e157600080fd5b50518151604080517f981b24d0000000000000000000000000000000000000000000000000000000008152600481019290925251600160a060020a039092169163981b24d091602480820192602092909190829003018186803b15801561114757600080fd5b505afa15801561115b573d6000803e3d6000fd5b505050506040513d602081101561117157600080fd5b50519150505b919050565b336000908152602081815260408083208484529091528120600101548290600160a060020a031615156111e7576040805160e560020a62461bcd0281526020600482015260126024820152600080516020611bd4833981519152604482015290519081900360640190fd5b33600090815260208181526040808320868452909152902060010154600160a060020a031680151561121d576000925050611331565b80600160a060020a0316638da5cb5b6040518163ffffffff1660e060020a02815260040160206040518083038186803b15801561125957600080fd5b505afa15801561126d573d6000803e3d6000fd5b505050506040513d602081101561128357600080fd5b5051604080517fb9a04cdd000000000000000000000000000000000000000000000000000000008152600160a060020a038a8116600483015289811660248301526044820189905284811660648301529151919092169163b9a04cdd9160848083019260209291908290030181600087803b15801561130157600080fd5b505af1158015611315573d6000803e3d6000fd5b505050506040513d602081101561132b57600080fd5b50519250505b50949350505050565b336000908152602081815260408083208484529091528120600101548290600160a060020a031615156113a5576040805160e560020a62461bcd0281526020600482015260126024820152600080516020611bd4833981519152604482015290519081900360640190fd5b33600090815260208181526040808320868452909152902060010154600160a060020a03168015156113db5760009250506114e7565b80600160a060020a0316638da5cb5b6040518163ffffffff1660e060020a02815260040160206040518083038186803b15801561141757600080fd5b505afa15801561142b573d6000803e3d6000fd5b505050506040513d602081101561144157600080fd5b5051604080517feaf994b200000000000000000000000000000000000000000000000000000000815260048101899052600160a060020a03888116602483015284811660448301529151919092169163eaf994b29160648083019260209291908290030181600087803b1580156114b757600080fd5b505af11580156114cb573d6000803e3d6000fd5b505050506040513d60208110156114e157600080fd5b50519250505b509392505050565b6000600160a060020a0383161515611551576040805160e560020a62461bcd02815260206004820152601560248201527f736368656d652063616e6e6f74206265207a65726f0000000000000000000000604482015290519081900360640190fd5b600061155c8561191d565b9050611566611b75565b506000818152600260208181526040808420815160608101835281548152600182015481850181905291850154600160a060020a0390811682850181905284517f88737b5e000000000000000000000000000000000000000000000000000000008152600481019790975260248701939093523360448701528b166064860152915191949093909284926388737b5e92608480820193929182900301818787803b15801561161357600080fd5b505af1158015611627573d6000803e3d6000fd5b505050506040513d602081101561163d57600080fd5b5051600160a060020a0389811660008181526001602090815260408083208684528252808320805473ffffffffffffffffffffffffffffffffffffffff19168e871690811790915581519081528083018281528d51928201929092528c519697509488169587957f504b6bd2558241a5f0532c970f3444e1fc24e1f7cf3d7c49a8d213bd612e9055948f948f9492936060850192918601918190849084905b838110156116f45781810151838201526020016116dc565b50505050905090810190601f1680156117215780820380516001836020036101000a031916815260200191505b50935050505060405180910390a4604080518082018252438152600160a060020a03998a166020808301918252958301518b1660009081528087528381208582529096529190942093518455516001909301805473ffffffffffffffffffffffffffffffffffffffff1916939098169290921790965595945050505050565b336000908152602081815260408083208484529091528120600101548290600160a060020a0316151561180b576040805160e560020a62461bcd0281526020600482015260126024820152600080516020611bd4833981519152604482015290519081900360640190fd5b33600090815260208181526040808320868452909152902060010154600160a060020a03168015156118415760009250506114e7565b80600160a060020a0316638da5cb5b6040518163ffffffff1660e060020a02815260040160206040518083038186803b15801561187d57600080fd5b505afa158015611891573d6000803e3d6000fd5b505050506040513d60208110156118a757600080fd5b5051604080517f6e94d27800000000000000000000000000000000000000000000000000000000815260048101899052600160a060020a038881166024830152848116604483015291519190921691636e94d2789160648083019260209291908290030181600087803b1580156114b757600080fd5b600081600160a060020a0316638da5cb5b6040518163ffffffff1660e060020a02815260040160206040518083038186803b15801561195b57600080fd5b505afa15801561196f573d6000803e3d6000fd5b505050506040513d602081101561198557600080fd5b5051604080517f9be2faed000000000000000000000000000000000000000000000000000000008152306004820152600160a060020a03858116602483015291519190921691639be2faed916044808301926020929190829003018186803b1580156119f057600080fd5b505afa158015611a04573d6000803e3d6000fd5b505050506040513d6020811015611a1a57600080fd5b50511515611a72576040805160e560020a62461bcd02815260206004820152601860248201527f736368656d65206973206e6f7420726567697374657265640000000000000000604482015290519081900360640190fd5b81600160a060020a0316638da5cb5b6040518163ffffffff1660e060020a02815260040160206040518083038186803b158015611aae57600080fd5b505afa158015611ac2573d6000803e3d6000fd5b505050506040513d6020811015611ad857600080fd5b5051604080517f1c4d5608000000000000000000000000000000000000000000000000000000008152306004820152600160a060020a03858116602483015291519190921691631c4d5608916044808301926020929190829003018186803b158015611b4357600080fd5b505afa158015611b57573d6000803e3d6000fd5b505050506040513d6020811015611b6d57600080fd5b505192915050565b604080516060810182526000808252602082018190529181019190915290565b60408051608081018252600080825260208201819052918101829052606081019190915290565b60408051808201909152600080825260208201529056fe6f6e6c7920566f74696e674d616368696e650000000000000000000000000000a165627a7a72305820f4037c928f6b344825020cfc613a4100b3f2a3c9556a9fe8f82cc51c9febab230029",
  "source": "pragma solidity ^0.5.4;\n\nimport \"@daostack/infra/contracts/votingMachines/IntVoteInterface.sol\";\nimport \"@daostack/infra/contracts/votingMachines/VotingMachineCallbacksInterface.sol\";\nimport \"./UniversalScheme.sol\";\nimport \"../votingMachines/VotingMachineCallbacks.sol\";\n\n\n/**\n * @title A registrar for Schemes for organizations\n * @dev The SchemeRegistrar is used for registering and unregistering schemes at organizations\n */\n\ncontract SchemeRegistrar is UniversalScheme, VotingMachineCallbacks, ProposalExecuteInterface {\n    event NewSchemeProposal(\n        address indexed _avatar,\n        bytes32 indexed _proposalId,\n        address indexed _intVoteInterface,\n        address _scheme,\n        bytes32 _parametersHash,\n        bytes4 _permissions,\n        string _descriptionHash\n    );\n\n    event RemoveSchemeProposal(address indexed _avatar,\n        bytes32 indexed _proposalId,\n        address indexed _intVoteInterface,\n        address _scheme,\n        string _descriptionHash\n    );\n\n    event ProposalExecuted(address indexed _avatar, bytes32 indexed _proposalId, int256 _param);\n    event ProposalDeleted(address indexed _avatar, bytes32 indexed _proposalId);\n\n    // a SchemeProposal is a  proposal to add or remove a scheme to/from the an organization\n    struct SchemeProposal {\n        address scheme; //\n        bool addScheme; // true: add a scheme, false: remove a scheme.\n        bytes32 parametersHash;\n        bytes4 permissions;\n    }\n\n    // A mapping from the organization (Avatar) address to the saved data of the organization:\n    mapping(address=>mapping(bytes32=>SchemeProposal)) public organizationsProposals;\n\n    // A mapping from hashes to parameters (use to store a particular configuration on the controller)\n    struct Parameters {\n        bytes32 voteRegisterParams;\n        bytes32 voteRemoveParams;\n        IntVoteInterface intVote;\n    }\n\n    mapping(bytes32=>Parameters) public parameters;\n\n    /**\n    * @dev execution of proposals, can only be called by the voting machine in which the vote is held.\n    * @param _proposalId the ID of the voting in the voting machine\n    * @param _param a parameter of the voting result, 1 yes and 2 is no.\n    */\n    function executeProposal(bytes32 _proposalId, int256 _param) external onlyVotingMachine(_proposalId) returns(bool) {\n        Avatar avatar = proposalsInfo[msg.sender][_proposalId].avatar;\n        SchemeProposal memory proposal = organizationsProposals[address(avatar)][_proposalId];\n        require(proposal.scheme != address(0));\n        delete organizationsProposals[address(avatar)][_proposalId];\n        emit ProposalDeleted(address(avatar), _proposalId);\n        if (_param == 1) {\n\n          // Define controller and get the params:\n            ControllerInterface controller = ControllerInterface(avatar.owner());\n\n          // Add a scheme:\n            if (proposal.addScheme) {\n                require(controller.registerScheme(\n                        proposal.scheme,\n                        proposal.parametersHash,\n                        proposal.permissions,\n                        address(avatar))\n                );\n            }\n          // Remove a scheme:\n            if (!proposal.addScheme) {\n                require(controller.unregisterScheme(proposal.scheme, address(avatar)));\n            }\n        }\n        emit ProposalExecuted(address(avatar), _proposalId, _param);\n        return true;\n    }\n\n    /**\n    * @dev hash the parameters, save them if necessary, and return the hash value\n    */\n    function setParameters(\n        bytes32 _voteRegisterParams,\n        bytes32 _voteRemoveParams,\n        IntVoteInterface _intVote\n    ) public returns(bytes32)\n    {\n        bytes32 paramsHash = getParametersHash(_voteRegisterParams, _voteRemoveParams, _intVote);\n        parameters[paramsHash].voteRegisterParams = _voteRegisterParams;\n        parameters[paramsHash].voteRemoveParams = _voteRemoveParams;\n        parameters[paramsHash].intVote = _intVote;\n        return paramsHash;\n    }\n\n    function getParametersHash(\n        bytes32 _voteRegisterParams,\n        bytes32 _voteRemoveParams,\n        IntVoteInterface _intVote\n    ) public pure returns(bytes32)\n    {\n        return keccak256(abi.encodePacked(_voteRegisterParams, _voteRemoveParams, _intVote));\n    }\n\n    /**\n    * @dev create a proposal to register a scheme\n    * @param _avatar the address of the organization the scheme will be registered for\n    * @param _scheme the address of the scheme to be registered\n    * @param _parametersHash a hash of the configuration of the _scheme\n    * @param _permissions the permission of the scheme to be registered\n    * @param _descriptionHash proposal's description hash\n    * @return a proposal Id\n    * @dev NB: not only proposes the vote, but also votes for it\n    */\n    function proposeScheme(\n        Avatar _avatar,\n        address _scheme,\n        bytes32 _parametersHash,\n        bytes4 _permissions,\n        string memory _descriptionHash\n    )\n    public\n    returns(bytes32)\n    {\n        // propose\n        require(_scheme != address(0), \"scheme cannot be zero\");\n        Parameters memory controllerParams = parameters[getParametersFromController(_avatar)];\n\n        bytes32 proposalId = controllerParams.intVote.propose(\n            2,\n            controllerParams.voteRegisterParams,\n            msg.sender,\n            address(_avatar)\n        );\n\n        SchemeProposal memory proposal = SchemeProposal({\n            scheme: _scheme,\n            parametersHash: _parametersHash,\n            addScheme: true,\n            permissions: _permissions\n        });\n        emit NewSchemeProposal(\n            address(_avatar),\n            proposalId,\n            address(controllerParams.intVote),\n            _scheme, _parametersHash,\n            _permissions,\n            _descriptionHash\n        );\n        organizationsProposals[address(_avatar)][proposalId] = proposal;\n        proposalsInfo[address(controllerParams.intVote)][proposalId] = ProposalInfo({\n            blockNumber:block.number,\n            avatar:_avatar\n        });\n        return proposalId;\n    }\n\n    /**\n    * @dev propose to remove a scheme for a controller\n    * @param _avatar the address of the controller from which we want to remove a scheme\n    * @param _scheme the address of the scheme we want to remove\n    * @param _descriptionHash proposal description hash\n    * NB: not only registers the proposal, but also votes for it\n    */\n    function proposeToRemoveScheme(Avatar _avatar, address _scheme, string memory _descriptionHash)\n    public\n    returns(bytes32)\n    {\n        require(_scheme != address(0), \"scheme cannot be zero\");\n        bytes32 paramsHash = getParametersFromController(_avatar);\n        Parameters memory params = parameters[paramsHash];\n\n        IntVoteInterface intVote = params.intVote;\n        bytes32 proposalId = intVote.propose(2, params.voteRemoveParams, msg.sender, address(_avatar));\n        organizationsProposals[address(_avatar)][proposalId].scheme = _scheme;\n        emit RemoveSchemeProposal(address(_avatar), proposalId, address(intVote), _scheme, _descriptionHash);\n        proposalsInfo[address(params.intVote)][proposalId] = ProposalInfo({\n            blockNumber:block.number,\n            avatar:_avatar\n        });\n        return proposalId;\n    }\n}\n",
  "sourcePath": "@daostack/arc/contracts/universalSchemes/SchemeRegistrar.sol",
  "compiler": {
    "name": "solc",
    "version": "0.5.4+commit.9549d8ff.Emscripten.clang"
  },
  "schemaVersion": "3.0.16",
  "updatedAt": "2020-04-13T09:09:30.639Z",
  "devdoc": {
    "details": "The SchemeRegistrar is used for registering and unregistering schemes at organizations",
    "methods": {
      "executeProposal(bytes32,int256)": {
        "details": "execution of proposals, can only be called by the voting machine in which the vote is held.",
        "params": {
          "_param": "a parameter of the voting result, 1 yes and 2 is no.",
          "_proposalId": "the ID of the voting in the voting machine"
        }
      },
      "proposeScheme(address,address,bytes32,bytes4,string)": {
        "details": "create a proposal to register a schemeNB: not only proposes the vote, but also votes for it",
        "params": {
          "_avatar": "the address of the organization the scheme will be registered for",
          "_descriptionHash": "proposal's description hash",
          "_parametersHash": "a hash of the configuration of the _scheme",
          "_permissions": "the permission of the scheme to be registered",
          "_scheme": "the address of the scheme to be registered"
        },
        "return": "a proposal Id"
      },
      "proposeToRemoveScheme(address,address,string)": {
        "details": "propose to remove a scheme for a controller",
        "params": {
          "_avatar": "the address of the controller from which we want to remove a scheme",
          "_descriptionHash": "proposal description hash NB: not only registers the proposal, but also votes for it",
          "_scheme": "the address of the scheme we want to remove"
        }
      },
      "setParameters(bytes32,bytes32,address)": {
        "details": "hash the parameters, save them if necessary, and return the hash value"
      }
    },
    "title": "A registrar for Schemes for organizations"
  },
  "userdoc": {
    "methods": {}
  }
}