{
  "contractName": "SignUpBonus",
  "abi": [
    {
      "inputs": [
        {
          "internalType": "contract Avatar",
          "name": "_avatar",
          "type": "address"
        },
        {
          "internalType": "contract Identity",
          "name": "_identity",
          "type": "address"
        },
        {
          "internalType": "uint256",
          "name": "_initalReserve",
          "type": "uint256"
        },
        {
          "internalType": "uint256",
          "name": "_maxBonus",
          "type": "uint256"
        }
      ],
      "payable": false,
      "stateMutability": "nonpayable",
      "type": "constructor"
    },
    {
      "anonymous": false,
      "inputs": [
        {
          "indexed": true,
          "internalType": "address",
          "name": "account",
          "type": "address"
        },
        {
          "indexed": false,
          "internalType": "uint256",
          "name": "amount",
          "type": "uint256"
        }
      ],
      "name": "BonusClaimed",
      "type": "event"
    },
    {
      "anonymous": false,
      "inputs": [
        {
          "indexed": true,
          "internalType": "address",
          "name": "previousOwner",
          "type": "address"
        },
        {
          "indexed": true,
          "internalType": "address",
          "name": "newOwner",
          "type": "address"
        }
      ],
      "name": "OwnershipTransferred",
      "type": "event"
    },
    {
      "anonymous": false,
      "inputs": [
        {
          "indexed": true,
          "internalType": "address",
          "name": "by",
          "type": "address"
        },
        {
          "indexed": false,
          "internalType": "uint256",
          "name": "time",
          "type": "uint256"
        }
      ],
      "name": "SchemeEnded",
      "type": "event"
    },
    {
      "anonymous": false,
      "inputs": [
        {
          "indexed": true,
          "internalType": "address",
          "name": "by",
          "type": "address"
        },
        {
          "indexed": false,
          "internalType": "uint256",
          "name": "time",
          "type": "uint256"
        }
      ],
      "name": "SchemeStarted",
      "type": "event"
    },
    {
      "anonymous": false,
      "inputs": [
        {
          "indexed": false,
          "internalType": "uint256",
          "name": "balance",
          "type": "uint256"
        },
        {
          "indexed": false,
          "internalType": "uint256",
          "name": "time",
          "type": "uint256"
        }
      ],
      "name": "SignUpStarted",
      "type": "event"
    },
    {
      "constant": true,
      "inputs": [],
      "name": "identity",
      "outputs": [
        {
          "internalType": "contract Identity",
          "name": "",
          "type": "address"
        }
      ],
      "payable": false,
      "stateMutability": "view",
      "type": "function"
    },
    {
      "constant": true,
      "inputs": [],
      "name": "initalReserve",
      "outputs": [
        {
          "internalType": "uint256",
          "name": "",
          "type": "uint256"
        }
      ],
      "payable": false,
      "stateMutability": "view",
      "type": "function"
    },
    {
      "constant": true,
      "inputs": [],
      "name": "isActive",
      "outputs": [
        {
          "internalType": "bool",
          "name": "",
          "type": "bool"
        }
      ],
      "payable": false,
      "stateMutability": "view",
      "type": "function"
    },
    {
      "constant": true,
      "inputs": [],
      "name": "isOwner",
      "outputs": [
        {
          "internalType": "bool",
          "name": "",
          "type": "bool"
        }
      ],
      "payable": false,
      "stateMutability": "view",
      "type": "function"
    },
    {
      "constant": true,
      "inputs": [],
      "name": "isRegistered",
      "outputs": [
        {
          "internalType": "bool",
          "name": "",
          "type": "bool"
        }
      ],
      "payable": false,
      "stateMutability": "view",
      "type": "function"
    },
    {
      "constant": true,
      "inputs": [
        {
          "internalType": "address",
          "name": "scheme",
          "type": "address"
        }
      ],
      "name": "isRegistered",
      "outputs": [
        {
          "internalType": "bool",
          "name": "",
          "type": "bool"
        }
      ],
      "payable": false,
      "stateMutability": "view",
      "type": "function"
    },
    {
      "constant": true,
      "inputs": [],
      "name": "maxBonus",
      "outputs": [
        {
          "internalType": "uint256",
          "name": "",
          "type": "uint256"
        }
      ],
      "payable": false,
      "stateMutability": "view",
      "type": "function"
    },
    {
      "constant": true,
      "inputs": [],
      "name": "owner",
      "outputs": [
        {
          "internalType": "address",
          "name": "",
          "type": "address"
        }
      ],
      "payable": false,
      "stateMutability": "view",
      "type": "function"
    },
    {
      "constant": true,
      "inputs": [],
      "name": "periodEnd",
      "outputs": [
        {
          "internalType": "uint256",
          "name": "",
          "type": "uint256"
        }
      ],
      "payable": false,
      "stateMutability": "view",
      "type": "function"
    },
    {
      "constant": true,
      "inputs": [],
      "name": "periodStart",
      "outputs": [
        {
          "internalType": "uint256",
          "name": "",
          "type": "uint256"
        }
      ],
      "payable": false,
      "stateMutability": "view",
      "type": "function"
    },
    {
      "constant": false,
      "inputs": [],
      "name": "renounceOwnership",
      "outputs": [],
      "payable": false,
      "stateMutability": "nonpayable",
      "type": "function"
    },
    {
      "constant": false,
      "inputs": [
        {
          "internalType": "contract Avatar",
          "name": "_avatar",
          "type": "address"
        }
      ],
      "name": "setAvatar",
      "outputs": [],
      "payable": false,
      "stateMutability": "nonpayable",
      "type": "function"
    },
    {
      "constant": false,
      "inputs": [
        {
          "internalType": "contract Identity",
          "name": "_identity",
          "type": "address"
        }
      ],
      "name": "setIdentity",
      "outputs": [],
      "payable": false,
      "stateMutability": "nonpayable",
      "type": "function"
    },
    {
      "constant": false,
      "inputs": [
        {
          "internalType": "address",
          "name": "newOwner",
          "type": "address"
        }
      ],
      "name": "transferOwnership",
      "outputs": [],
      "payable": false,
      "stateMutability": "nonpayable",
      "type": "function"
    },
    {
      "constant": false,
      "inputs": [],
      "name": "start",
      "outputs": [],
      "payable": false,
      "stateMutability": "nonpayable",
      "type": "function"
    },
    {
      "constant": false,
      "inputs": [],
      "name": "end",
      "outputs": [],
      "payable": false,
      "stateMutability": "nonpayable",
      "type": "function"
    },
    {
      "constant": false,
      "inputs": [
        {
          "internalType": "address",
          "name": "_user",
          "type": "address"
        },
        {
          "internalType": "uint256",
          "name": "_amount",
          "type": "uint256"
        }
      ],
      "name": "awardUser",
      "outputs": [],
      "payable": false,
      "stateMutability": "nonpayable",
      "type": "function"
    }
  ],
  "bytecode": "0x6080604052600580546001600160a01b031916905534801561002057600080fd5b5060405162001a1c38038062001a1c8339818101604052608081101561004557600080fd5b5080516020820151604083015160609093015191929091828481814260028102828183106100a55760405162461bcd60e51b8152600401808060200182810382526026815260200180620019f66026913960400191505060405180910390fd5b600092835560019190915560028054610100600160a81b0319166101006001600160a01b03938416021760ff1916905560038054336001600160a01b03199091161790819055604051911691907f8be0079c531659141344cd1fd0a4f28419497f9722a3daafe3b4186f6b6457e0908290a3600480546001600160a01b0319166001600160a01b03838116919091179182905516156101cc576004805460408051638da5cb5b60e01b815290516001600160a01b0390921692638da5cb5b928282019260209290829003018186803b15801561018057600080fd5b505afa158015610194573d6000803e3d6000fd5b505050506040513d60208110156101aa57600080fd5b5051600580546001600160a01b0319166001600160a01b039092169190911790555b506001600160a01b038116610228576040805162461bcd60e51b815260206004820152601960248201527f537570706c696564206964656e74697479206973206e756c6c00000000000000604482015290519081900360640190fd5b600680546001600160a01b039092166001600160a01b031990921691909117905550508061029d576040805162461bcd60e51b815260206004820152601860248201527f4d617820626f6e75732063616e6e6f74206265207a65726f0000000000000000604482015290519081900360640190fd5b600891909155600755505061173e80620002b86000396000f3fe608060405234801561001057600080fd5b506004361061010b5760003560e01c80638da5cb5b116100a2578063be9a655511610071578063be9a655514610214578063c3c5a5471461021c578063eda4e6d614610242578063efbe1c1c1461024a578063f2fde38b146102525761010b565b80638da5cb5b146101d05780638f32d59b146101d85780639d0afd9d146101e0578063bd7fbbd6146101e85761010b565b8063506ec095116100de578063506ec0951461018057806354c5b6961461019a5780635d5bf178146101a2578063715018a6146101c85761010b565b8063086cfca814610110578063223668441461013857806322f3e2d4146101545780632c159a1a1461015c575b600080fd5b6101366004803603602081101561012657600080fd5b50356001600160a01b0316610278565b005b61014061032f565b604080519115158252519081900360200190f35b61014061033f565b610164610348565b604080516001600160a01b039092168252519081900360200190f35b610188610357565b60408051918252519081900360200190f35b61018861035d565b610136600480360360208110156101b857600080fd5b50356001600160a01b0316610363565b61013661044c565b6101646104a7565b6101406104b6565b6101886104c7565b610136600480360360408110156101fe57600080fd5b506001600160a01b0381351690602001356104cd565b610136610818565b6101406004803603602081101561023257600080fd5b50356001600160a01b0316610c93565b610188610d82565b610136610d88565b6101366004803603602081101561026857600080fd5b50356001600160a01b031661102b565b6102806104b6565b61028957600080fd5b600480546001600160a01b0319166001600160a01b038381169190911780835560408051638da5cb5b60e01b815290519190921692638da5cb5b92808201926020929091829003018186803b1580156102e157600080fd5b505afa1580156102f5573d6000803e3d6000fd5b505050506040513d602081101561030b57600080fd5b5051600580546001600160a01b0319166001600160a01b0390921691909117905550565b600061033a30610c93565b905090565b60025460ff1681565b6006546001600160a01b031681565b60015481565b60075481565b61036b6104b6565b61037457600080fd5b806001600160a01b031663223668446040518163ffffffff1660e01b815260040160206040518083038186803b1580156103ad57600080fd5b505afa1580156103c1573d6000803e3d6000fd5b505050506040513d60208110156103d757600080fd5b505161042a576040805162461bcd60e51b815260206004820152601a60248201527f4964656e74697479206973206e6f742072656769737465726564000000000000604482015290519081900360640190fd5b600680546001600160a01b0319166001600160a01b0392909216919091179055565b6104546104b6565b61045d57600080fd5b6003546040516000916001600160a01b0316907f8be0079c531659141344cd1fd0a4f28419497f9722a3daafe3b4186f6b6457e0908390a3600380546001600160a01b0319169055565b6003546001600160a01b031690565b6003546001600160a01b0316331490565b60085481565b60025460ff16610514576040805162461bcd60e51b815260206004820152600d60248201526c6973206e6f742061637469766560981b604482015290519081900360640190fd5b6006546040805163e5ecaf5960e01b815233600482015290516001600160a01b039092169163e5ecaf5991602480820192602092909190829003018186803b15801561055f57600080fd5b505afa158015610573573d6000803e3d6000fd5b505050506040513d602081101561058957600080fd5b50516105d0576040805162461bcd60e51b81526020600482015260116024820152703737ba1024b232b73a34ba3ca0b236b4b760791b604482015290519081900360640190fd5b6000600460009054906101000a90046001600160a01b03166001600160a01b031663e1758bd86040518163ffffffff1660e01b815260040160206040518083038186803b15801561062057600080fd5b505afa158015610634573d6000803e3d6000fd5b505050506040513d602081101561064a57600080fd5b50516007546001600160a01b0385166000908152600960205260409020549192509061067c908463ffffffff61104816565b11156106cf576040805162461bcd60e51b815260206004820152601c60248201527f43616e6e6f742061776172642075736572206265796f6e64206d617800000000604482015290519081900360640190fd5b6001600160a01b0383166000908152600960205260409020546106f8908363ffffffff61104816565b6001600160a01b03808516600081815260096020908152604080832095909555845163a9059cbb60e01b815260048101939093526024830187905293519285169363a9059cbb93604480850194929391928390030190829087803b15801561075f57600080fd5b505af1158015610773573d6000803e3d6000fd5b505050506040513d602081101561078957600080fd5b50516107d4576040805162461bcd60e51b8152602060048201526015602482015274185dd85c99081d1c985b9cd9995c8819985a5b1959605a1b604482015290519081900360640190fd5b6040805183815290516001600160a01b038516917f4e69fdc49495bcab2b4375781457ba16653a90eb4ffb6588351bdc39071433e2919081900360200190a2505050565b61082061032f565b61086c576040805162461bcd60e51b815260206004820152601860248201527714d8da195b59481a5cc81b9bdd081c9959da5cdd195c995960421b604482015290519081900360640190fd5b610874611061565b61087c611147565b6000600460009054906101000a90046001600160a01b03166001600160a01b031663e1758bd86040518163ffffffff1660e01b815260040160206040518083038186803b1580156108cc57600080fd5b505afa1580156108e0573d6000803e3d6000fd5b505050506040513d60208110156108f657600080fd5b505160085490915015610be55760048054604080516370a0823160e01b81526001600160a01b039283169381019390935251600092918416916370a08231916024808301926020929190829003018186803b15801561095457600080fd5b505afa158015610968573d6000803e3d6000fd5b505050506040513d602081101561097e57600080fd5b50516008549091508110156109da576040805162461bcd60e51b815260206004820152601960248201527f4e6f7420656e6f7567682066756e647320746f20737461727400000000000000604482015290519081900360640190fd5b6005546008546040805130602480830191909152604480830194909452825180830385018152606492830184526020810180516001600160e01b031663a9059cbb60e01b1781526004805495516368db844d60e11b81526001600160a01b038b811692820192835296871697810188905260009581018690526080948101948552835160848201528351969098169763d1b7089a978b979496909590949293909260a490920191808383885b83811015610a9e578181015183820152602001610a86565b50505050905090810190601f168015610acb5780820380516001836020036101000a031916815260200191505b5095505050505050600060405180830381600087803b158015610aed57600080fd5b505af1158015610b01573d6000803e3d6000fd5b505050506040513d6000823e601f3d908101601f191682016040908152811015610b2a57600080fd5b815160208301805160405192949293830192919084640100000000821115610b5157600080fd5b908301906020820185811115610b6657600080fd5b8251640100000000811182820188101715610b8057600080fd5b82525081516020918201929091019080838360005b83811015610bad578181015183820152602001610b95565b50505050905090810190601f168015610bda5780820380516001836020036101000a031916815260200191505b506040525050505050505b604080516370a0823160e01b815230600482015290517fa1769ec43d495e21f6131b09e38e916f9ba443a007237f5786530db044785073916001600160a01b038416916370a0823191602480820192602092909190829003018186803b158015610c4e57600080fd5b505afa158015610c62573d6000803e3d6000fd5b505050506040513d6020811015610c7857600080fd5b5051604080519182524260208301528051918290030190a150565b6004546000906001600160a01b0316610ce7576040805162461bcd60e51b8152602060048201526011602482015270105d985d185c881a5cc81b9bdd081cd95d607a1b604482015290519081900360640190fd5b6005546004805460408051639be2faed60e01b81526001600160a01b03878116948201949094529183166024830152519190921691639be2faed916044808301926020929190829003018186803b158015610d4157600080fd5b505afa158015610d55573d6000803e3d6000fd5b505050506040513d6020811015610d6b57600080fd5b5051610d7957506000610d7d565b5060015b919050565b60005481565b6006546040805163e5ecaf5960e01b815233600482015290516001600160a01b039092169163e5ecaf5991602480820192602092909190829003018186803b158015610dd357600080fd5b505afa158015610de7573d6000803e3d6000fd5b505050506040513d6020811015610dfd57600080fd5b5051610e44576040805162461bcd60e51b81526020600482015260116024820152703737ba1024b232b73a34ba3ca0b236b4b760791b604482015290519081900360640190fd5b6000600460009054906101000a90046001600160a01b03166001600160a01b031663e1758bd86040518163ffffffff1660e01b815260040160206040518083038186803b158015610e9457600080fd5b505afa158015610ea8573d6000803e3d6000fd5b505050506040513d6020811015610ebe57600080fd5b5051604080516370a0823160e01b815230600482015290519192506000916001600160a01b038416916370a08231916024808301926020929190829003018186803b158015610f0c57600080fd5b505afa158015610f20573d6000803e3d6000fd5b505050506040513d6020811015610f3657600080fd5b50519050801561100a57600480546040805163a9059cbb60e01b81526001600160a01b039283169381019390935260248301849052519084169163a9059cbb9160448083019260209291908290030181600087803b158015610f9757600080fd5b505af1158015610fab573d6000803e3d6000fd5b505050506040513d6020811015610fc157600080fd5b505161100a576040805162461bcd60e51b8152602060048201526013602482015272195b99081d1c985b9cd9995c8819985a5b1959606a1b604482015290519081900360640190fd5b6110126113b3565b600454611027906001600160a01b0316611608565b5050565b6110336104b6565b61103c57600080fd5b6110458161169a565b50565b60008282018381101561105a57600080fd5b9392505050565b6000544210158015611074575060015442105b6110b5576040805162461bcd60e51b815260206004820152600d60248201526c1b9bdd081a5b881c195c9a5bd9609a1b604482015290519081900360640190fd5b60025460ff1615611102576040805162461bcd60e51b815260206004820152601260248201527163616e6e6f7420737461727420747769636560701b604482015290519081900360640190fd5b6002805460ff1916600117905560408051428152905133917f727dd98701807c5fdf715b9f1fd7d87461a558e2ab3e05935add76e42e330fa3919081900360200190a2565b61114f61032f565b61119b576040805162461bcd60e51b815260206004820152601860248201527714d8da195b59481a5cc81b9bdd081c9959da5cdd195c995960421b604482015290519081900360640190fd5b6005546006546040805130602480830191909152825180830382018152604492830184526020810180516001600160e01b0316635f539d6960e01b1781526004805495516368db844d60e11b81526001600160a01b039788169181018281529688169581018690526000606482018190526080958201958652845160848301528451989099169863d1b7089a989297949695909493909260a490920191808383885b8381101561125557818101518382015260200161123d565b50505050905090810190601f1680156112825780820380516001836020036101000a031916815260200191505b5095505050505050600060405180830381600087803b1580156112a457600080fd5b505af11580156112b8573d6000803e3d6000fd5b505050506040513d6000823e601f3d908101601f1916820160409081528110156112e157600080fd5b81516020830180516040519294929383019291908464010000000082111561130857600080fd5b90830190602082018581111561131d57600080fd5b825164010000000081118282018810171561133757600080fd5b82525081516020918201929091019080838360005b8381101561136457818101518382015260200161134c565b50505050905090810190601f1680156113915780820380516001836020036101000a031916815260200191505b5060405250506004546113b193506001600160a01b0316915061102b9050565b565b6113bb61032f565b611407576040805162461bcd60e51b815260206004820152601860248201527714d8da195b59481a5cc81b9bdd081c9959da5cdd195c995960421b604482015290519081900360640190fd5b6005546006546040805130602480830191909152825180830382018152604492830184526020810180516001600160e01b031663c375c2ef60e01b1781526004805495516368db844d60e11b81526001600160a01b039788169181018281529688169581018690526000606482018190526080958201958652845160848301528451989099169863d1b7089a989297949695909493909260a490920191808383885b838110156114c15781810151838201526020016114a9565b50505050905090810190601f1680156114ee5780820380516001836020036101000a031916815260200191505b5095505050505050600060405180830381600087803b15801561151057600080fd5b505af1158015611524573d6000803e3d6000fd5b505050506040513d6000823e601f3d908101601f19168201604090815281101561154d57600080fd5b81516020830180516040519294929383019291908464010000000082111561157457600080fd5b90830190602082018581111561158957600080fd5b82516401000000008111828201881017156115a357600080fd5b82525081516020918201929091019080838360005b838110156115d05781810151838201526020016115b8565b50505050905090810190601f1680156115fd5780820380516001836020036101000a031916815260200191505b506040525050505050565b60025460ff1661164f576040805162461bcd60e51b815260206004820152600d60248201526c6973206e6f742061637469766560981b604482015290519081900360640190fd5b6002805460ff1916905560408051428152905133917ef689ee9beb942c1c9c0d6642687ace05a9000d5f2979d344163c57829fa779919081900360200190a2806001600160a01b0316ff5b6001600160a01b0381166116ad57600080fd5b6003546040516001600160a01b038084169216907f8be0079c531659141344cd1fd0a4f28419497f9722a3daafe3b4186f6b6457e090600090a3600380546001600160a01b0319166001600160a01b039290921691909117905556fea265627a7a723158207d0779fd092aa141b934f7939fa6038ae6921537955d590f752bf5609408d66964736f6c6343000510003273746172742063616e6e6f74206265206166746572206e6f7220657175616c20746f20656e64",
  "source": "pragma solidity >0.5.4;\n\nimport \"@daostack/arc/contracts/controller/Avatar.sol\";\nimport \"@daostack/arc/contracts/controller/ControllerInterface.sol\";\n\nimport \"openzeppelin-solidity/contracts/math/SafeMath.sol\";\n\nimport \"../../identity/IdentityGuard.sol\";\nimport \"../../token/GoodDollar.sol\";\nimport \"./ActivePeriod.sol\";\nimport \"./FeelessScheme.sol\";\nimport \"./SchemeGuard.sol\";\n\n/* @title Sign-Up bonus scheme responsible for transferring\n * a given amount of GoodDollar to users\n */\ncontract SignUpBonus is ActivePeriod, FeelessScheme {\n    using SafeMath for uint256;\n\n    uint256 public maxBonus;\n    uint256 public initalReserve;\n\n    mapping(address => uint256) rewarded;\n\n    event SignUpStarted(uint256 balance, uint256 time);\n    event BonusClaimed(address indexed account, uint256 amount);\n\n    /* @dev Constructor\n     * @param _avatar The avatar of the DAO\n     * @param _identity The identity contract\n     * @param _initialReserve The amount to transfer from the avatar at start.\n     * @param _maxBonus The max amount a user can be awarded\n     */\n    constructor(\n        Avatar _avatar,\n        Identity _identity,\n        uint256 _initalReserve,\n        uint256 _maxBonus\n    ) public ActivePeriod(now, now * 2, _avatar) FeelessScheme(_identity, _avatar) {\n        require(_maxBonus > 0, \"Max bonus cannot be zero\");\n\n        initalReserve = _initalReserve;\n        maxBonus = _maxBonus;\n    }\n\n    /* @dev Start function. Activates the contract and transfers the given\n     * reserve from the avatar to this contract.\n     * Reverts if the Avatar doesn't have any funds.\n     */\n    function start() public onlyRegistered {\n        super.start();\n        addRights();\n\n        DAOToken token = avatar.nativeToken();\n\n        if (initalReserve > 0) {\n            uint256 reserve = token.balanceOf(address(avatar));\n\n            require(reserve >= initalReserve, \"Not enough funds to start\");\n\n            controller.genericCall(\n                address(token),\n                abi.encodeWithSignature(\n                    \"transfer(address,uint256)\",\n                    address(this),\n                    initalReserve\n                ),\n                avatar,\n                0\n            );\n        }\n        emit SignUpStarted(token.balanceOf(address(this)), now);\n    }\n\n    /* @dev End function. Deactivates the contract and transfers any\n     * remaining GoodDollar back to the avatar. Can be called at any\n     * Time by identity admins\n     */\n    function end() public onlyIdentityAdmin {\n        DAOToken token = avatar.nativeToken();\n\n        uint256 remainingReserve = token.balanceOf(address(this));\n        if (remainingReserve > 0) {\n            require(\n                token.transfer(address(avatar), remainingReserve),\n                \"end transfer failed\"\n            );\n        }\n\n        removeRights();\n        super.internalEnd(avatar);\n    }\n\n    /* @dev Function for awarding users. Can only be done by identity admins\n     * while contract is active. Reverts if rewarding beyond max allowed amount\n     * @param _user The address to award\n     * @param _amount The amount to award\n     */\n    function awardUser(address _user, uint256 _amount)\n        public\n        requireActive\n        onlyIdentityAdmin\n    {\n        GoodDollar token = GoodDollar(address(avatar.nativeToken()));\n        require(rewarded[_user].add(_amount) <= maxBonus, \"Cannot award user beyond max\");\n\n        rewarded[_user] = rewarded[_user].add(_amount);\n        require(token.transfer(_user, _amount), \"award transfer failed\");\n\n        emit BonusClaimed(_user, _amount);\n    }\n}\n",
  "sourcePath": "/Users/hadar/workspace/GoodDollar/GoodBootstrap/packages/contracts/contracts/dao/schemes/SignUpBonus.sol",
  "compiler": {
    "name": "solc",
    "version": "0.5.16+commit.9c3226ce.Emscripten.clang"
  },
  "schemaVersion": "3.2.3",
  "updatedAt": "2022-10-27T11:34:11.176Z",
  "devdoc": {
    "methods": {
      "isOwner()": {
        "return": "true if `msg.sender` is the owner of the contract."
      },
      "isRegistered()": {
        "details": "function to see if an avatar has been set and if this scheme is registered",
        "return": "true if scheme is registered"
      },
      "isRegistered(address)": {
        "details": "function to see if an avatar has been set and if this scheme is registered",
        "return": "true if scheme is registered"
      },
      "owner()": {
        "return": "the address of the owner."
      },
      "renounceOwnership()": {
        "details": "Allows the current owner to relinquish control of the contract."
      },
      "setAvatar(address)": {
        "details": "Function to set a new avatar and controller for scheme can only be done by owner of scheme"
      },
      "transferOwnership(address)": {
        "details": "Allows the current owner to transfer control of the contract to a newOwner.",
        "params": {
          "newOwner": "The address to transfer ownership to."
        }
      }
    }
  },
  "userdoc": {
    "methods": {
      "renounceOwnership()": {
        "notice": "Renouncing to ownership will leave the contract without an owner. It will not be possible to call the functions with the `onlyOwner` modifier anymore."
      }
    }
  }
}