{
  "contractName": "SignUpBonus",
  "abi": [
    {
      "constant": false,
      "inputs": [
        {
          "name": "_avatar",
          "type": "address"
        }
      ],
      "name": "setAvatar",
      "outputs": [],
      "payable": false,
      "stateMutability": "nonpayable",
      "type": "function"
    },
    {
      "constant": true,
      "inputs": [],
      "name": "isRegistered",
      "outputs": [
        {
          "name": "",
          "type": "bool"
        }
      ],
      "payable": false,
      "stateMutability": "view",
      "type": "function"
    },
    {
      "constant": true,
      "inputs": [],
      "name": "isActive",
      "outputs": [
        {
          "name": "",
          "type": "bool"
        }
      ],
      "payable": false,
      "stateMutability": "view",
      "type": "function"
    },
    {
      "constant": true,
      "inputs": [],
      "name": "identity",
      "outputs": [
        {
          "name": "",
          "type": "address"
        }
      ],
      "payable": false,
      "stateMutability": "view",
      "type": "function"
    },
    {
      "constant": true,
      "inputs": [],
      "name": "periodEnd",
      "outputs": [
        {
          "name": "",
          "type": "uint256"
        }
      ],
      "payable": false,
      "stateMutability": "view",
      "type": "function"
    },
    {
      "constant": true,
      "inputs": [],
      "name": "maxBonus",
      "outputs": [
        {
          "name": "",
          "type": "uint256"
        }
      ],
      "payable": false,
      "stateMutability": "view",
      "type": "function"
    },
    {
      "constant": false,
      "inputs": [
        {
          "name": "_identity",
          "type": "address"
        }
      ],
      "name": "setIdentity",
      "outputs": [],
      "payable": false,
      "stateMutability": "nonpayable",
      "type": "function"
    },
    {
      "constant": false,
      "inputs": [],
      "name": "renounceOwnership",
      "outputs": [],
      "payable": false,
      "stateMutability": "nonpayable",
      "type": "function"
    },
    {
      "constant": true,
      "inputs": [],
      "name": "owner",
      "outputs": [
        {
          "name": "",
          "type": "address"
        }
      ],
      "payable": false,
      "stateMutability": "view",
      "type": "function"
    },
    {
      "constant": true,
      "inputs": [],
      "name": "isOwner",
      "outputs": [
        {
          "name": "",
          "type": "bool"
        }
      ],
      "payable": false,
      "stateMutability": "view",
      "type": "function"
    },
    {
      "constant": true,
      "inputs": [],
      "name": "initalReserve",
      "outputs": [
        {
          "name": "",
          "type": "uint256"
        }
      ],
      "payable": false,
      "stateMutability": "view",
      "type": "function"
    },
    {
      "constant": true,
      "inputs": [],
      "name": "periodStart",
      "outputs": [
        {
          "name": "",
          "type": "uint256"
        }
      ],
      "payable": false,
      "stateMutability": "view",
      "type": "function"
    },
    {
      "constant": false,
      "inputs": [
        {
          "name": "newOwner",
          "type": "address"
        }
      ],
      "name": "transferOwnership",
      "outputs": [],
      "payable": false,
      "stateMutability": "nonpayable",
      "type": "function"
    },
    {
      "inputs": [
        {
          "name": "_avatar",
          "type": "address"
        },
        {
          "name": "_identity",
          "type": "address"
        },
        {
          "name": "_initalReserve",
          "type": "uint256"
        },
        {
          "name": "_maxBonus",
          "type": "uint256"
        }
      ],
      "payable": false,
      "stateMutability": "nonpayable",
      "type": "constructor"
    },
    {
      "anonymous": false,
      "inputs": [
        {
          "indexed": false,
          "name": "balance",
          "type": "uint256"
        },
        {
          "indexed": false,
          "name": "time",
          "type": "uint256"
        }
      ],
      "name": "SignUpStarted",
      "type": "event"
    },
    {
      "anonymous": false,
      "inputs": [
        {
          "indexed": true,
          "name": "account",
          "type": "address"
        },
        {
          "indexed": false,
          "name": "amount",
          "type": "uint256"
        }
      ],
      "name": "BonusClaimed",
      "type": "event"
    },
    {
      "anonymous": false,
      "inputs": [
        {
          "indexed": true,
          "name": "previousOwner",
          "type": "address"
        },
        {
          "indexed": true,
          "name": "newOwner",
          "type": "address"
        }
      ],
      "name": "OwnershipTransferred",
      "type": "event"
    },
    {
      "anonymous": false,
      "inputs": [
        {
          "indexed": true,
          "name": "by",
          "type": "address"
        },
        {
          "indexed": false,
          "name": "time",
          "type": "uint256"
        }
      ],
      "name": "SchemeStarted",
      "type": "event"
    },
    {
      "anonymous": false,
      "inputs": [
        {
          "indexed": true,
          "name": "by",
          "type": "address"
        },
        {
          "indexed": false,
          "name": "time",
          "type": "uint256"
        }
      ],
      "name": "SchemeEnded",
      "type": "event"
    },
    {
      "constant": false,
      "inputs": [],
      "name": "start",
      "outputs": [],
      "payable": false,
      "stateMutability": "nonpayable",
      "type": "function"
    },
    {
      "constant": false,
      "inputs": [
        {
          "name": "",
          "type": "address"
        }
      ],
      "name": "end",
      "outputs": [],
      "payable": false,
      "stateMutability": "nonpayable",
      "type": "function"
    },
    {
      "constant": false,
      "inputs": [
        {
          "name": "_user",
          "type": "address"
        },
        {
          "name": "_amount",
          "type": "uint256"
        }
      ],
      "name": "awardUser",
      "outputs": [],
      "payable": false,
      "stateMutability": "nonpayable",
      "type": "function"
    }
  ],
  "bytecode": "0x608060405260048054600160a060020a031916905534801561002057600080fd5b5060405160808062001ac48339810180604052608081101561004157600080fd5b50805160208201516040830151606090930151919290918284818142600281028082106100ba576040517f08c379a000000000000000000000000000000000000000000000000000000000815260040180806020018281038252602681526020018062001a9e6026913960400191505060405180910390fd5b600091825560015560028054600160a860020a0319166101003381029190911791829055604051600160a060020a03919092041691907f8be0079c531659141344cd1fd0a4f28419497f9722a3daafe3b4186f6b6457e0908290a360038054600160a060020a031916600160a060020a03838116919091179182905516156101f257600360009054906101000a9004600160a060020a0316600160a060020a0316638da5cb5b6040518163ffffffff167c010000000000000000000000000000000000000000000000000000000002815260040160206040518083038186803b1580156101a657600080fd5b505afa1580156101ba573d6000803e3d6000fd5b505050506040513d60208110156101d057600080fd5b505160048054600160a060020a031916600160a060020a039092169190911790555b50600160a060020a038116151561026a57604080517f08c379a000000000000000000000000000000000000000000000000000000000815260206004820152601960248201527f537570706c696564206964656e74697479206973206e756c6c00000000000000604482015290519081900360640190fd5b60058054600160a060020a031916600160a060020a03929092169190911790555050600081116102fb57604080517f08c379a000000000000000000000000000000000000000000000000000000000815260206004820152601860248201527f4d617820626f6e75732063616e6e6f74206265207a65726f0000000000000000604482015290519081900360640190fd5b600791909155600655505061178880620003166000396000f3fe608060405234801561001057600080fd5b506004361061011d576000357c0100000000000000000000000000000000000000000000000000000000900480638c4dd39d116100b4578063bd7fbbd611610083578063bd7fbbd614610220578063be9a65551461024c578063eda4e6d614610254578063f2fde38b1461025c5761011d565b80638c4dd39d146101e25780638da5cb5b146102085780638f32d59b146102105780639d0afd9d146102185761011d565b8063506ec095116100f0578063506ec0951461019257806354c5b696146101ac5780635d5bf178146101b4578063715018a6146101da5761011d565b8063086cfca814610122578063223668441461014a57806322f3e2d4146101665780632c159a1a1461016e575b600080fd5b6101486004803603602081101561013857600080fd5b5035600160a060020a0316610282565b005b610152610372565b604080519115158252519081900360200190f35b610152610487565b610176610490565b60408051600160a060020a039092168252519081900360200190f35b61019a61049f565b60408051918252519081900360200190f35b61019a6104a5565b610148600480360360208110156101ca57600080fd5b5035600160a060020a03166104ab565b6101486105c4565b610148600480360360208110156101f857600080fd5b5035600160a060020a0316610634565b6101766108fe565b610152610912565b61019a610928565b6101486004803603604081101561023657600080fd5b50600160a060020a03813516906020013561092e565b610148610c99565b61019a611143565b6101486004803603602081101561027257600080fd5b5035600160a060020a0316611149565b61028a610912565b151561029557600080fd5b6003805473ffffffffffffffffffffffffffffffffffffffff1916600160a060020a038381169190911791829055604080517f8da5cb5b00000000000000000000000000000000000000000000000000000000815290519290911691638da5cb5b91600480820192602092909190829003018186803b15801561031757600080fd5b505afa15801561032b573d6000803e3d6000fd5b505050506040513d602081101561034157600080fd5b50516004805473ffffffffffffffffffffffffffffffffffffffff1916600160a060020a0390921691909117905550565b600354600090600160a060020a031615156103d7576040805160e560020a62461bcd02815260206004820152601160248201527f417661746172206973206e6f7420736574000000000000000000000000000000604482015290519081900360640190fd5b60048054600354604080517f9be2faed0000000000000000000000000000000000000000000000000000000081523094810194909452600160a060020a03918216602485015251911691639be2faed916044808301926020929190829003018186803b15801561044657600080fd5b505afa15801561045a573d6000803e3d6000fd5b505050506040513d602081101561047057600080fd5b5051151561048057506000610484565b5060015b90565b60025460ff1681565b600554600160a060020a031681565b60015481565b60065481565b6104b3610912565b15156104be57600080fd5b80600160a060020a031663223668446040518163ffffffff167c010000000000000000000000000000000000000000000000000000000002815260040160206040518083038186803b15801561051357600080fd5b505afa158015610527573d6000803e3d6000fd5b505050506040513d602081101561053d57600080fd5b50511515610595576040805160e560020a62461bcd02815260206004820152601a60248201527f4964656e74697479206973206e6f742072656769737465726564000000000000604482015290519081900360640190fd5b6005805473ffffffffffffffffffffffffffffffffffffffff1916600160a060020a0392909216919091179055565b6105cc610912565b15156105d757600080fd5b6002546040516000916101009004600160a060020a0316907f8be0079c531659141344cd1fd0a4f28419497f9722a3daafe3b4186f6b6457e0908390a36002805474ffffffffffffffffffffffffffffffffffffffff0019169055565b600554604080517fe5ecaf590000000000000000000000000000000000000000000000000000000081523360048201529051600160a060020a039092169163e5ecaf5991602480820192602092909190829003018186803b15801561069857600080fd5b505afa1580156106ac573d6000803e3d6000fd5b505050506040513d60208110156106c257600080fd5b5051151561071a576040805160e560020a62461bcd02815260206004820152601160248201527f6e6f74204964656e7469747941646d696e000000000000000000000000000000604482015290519081900360640190fd5b600354604080517fe1758bd80000000000000000000000000000000000000000000000000000000081529051600092600160a060020a03169163e1758bd8916004808301926020929190829003018186803b15801561077857600080fd5b505afa15801561078c573d6000803e3d6000fd5b505050506040513d60208110156107a257600080fd5b5051604080517f70a082310000000000000000000000000000000000000000000000000000000081523060048201529051919250600091600160a060020a038416916370a08231916024808301926020929190829003018186803b15801561080957600080fd5b505afa15801561081d573d6000803e3d6000fd5b505050506040513d602081101561083357600080fd5b5051905060008111156108dc57600354604080517fa9059cbb000000000000000000000000000000000000000000000000000000008152600160a060020a0392831660048201526024810184905290519184169163a9059cbb916044808201926020929091908290030181600087803b1580156108af57600080fd5b505af11580156108c3573d6000803e3d6000fd5b505050506040513d60208110156108d957600080fd5b50505b6108e4611168565b6003546108f990600160a060020a03166113ab565b505050565b6002546101009004600160a060020a031690565b6002546101009004600160a060020a0316331490565b60075481565b60025460ff16151561098a576040805160e560020a62461bcd02815260206004820152600d60248201527f6973206e6f742061637469766500000000000000000000000000000000000000604482015290519081900360640190fd5b600554604080517fe5ecaf590000000000000000000000000000000000000000000000000000000081523360048201529051600160a060020a039092169163e5ecaf5991602480820192602092909190829003018186803b1580156109ee57600080fd5b505afa158015610a02573d6000803e3d6000fd5b505050506040513d6020811015610a1857600080fd5b50511515610a70576040805160e560020a62461bcd02815260206004820152601160248201527f6e6f74204964656e7469747941646d696e000000000000000000000000000000604482015290519081900360640190fd5b600354604080517fe1758bd80000000000000000000000000000000000000000000000000000000081529051600092600160a060020a03169163e1758bd8916004808301926020929190829003018186803b158015610ace57600080fd5b505afa158015610ae2573d6000803e3d6000fd5b505050506040513d6020811015610af857600080fd5b5051600654600160a060020a03851660009081526008602052604090205491925090610b2a908463ffffffff61145216565b1115610b80576040805160e560020a62461bcd02815260206004820152601c60248201527f43616e6e6f742061776172642075736572206265796f6e64206d617800000000604482015290519081900360640190fd5b600160a060020a038316600090815260086020526040902054610ba9908363ffffffff61145216565b600160a060020a0380851660008181526008602090815260408083209590955584517fa9059cbb00000000000000000000000000000000000000000000000000000000815260048101939093526024830187905293519285169363a9059cbb93604480850194929391928390030190829087803b158015610c2957600080fd5b505af1158015610c3d573d6000803e3d6000fd5b505050506040513d6020811015610c5357600080fd5b5050604080518381529051600160a060020a038516917f4e69fdc49495bcab2b4375781457ba16653a90eb4ffb6588351bdc39071433e2919081900360200190a2505050565b610ca1610372565b1515610cf7576040805160e560020a62461bcd02815260206004820152601860248201527f536368656d65206973206e6f7420726567697374657265640000000000000000604482015290519081900360640190fd5b610cff61146b565b610d07611574565b600354604080517fe1758bd80000000000000000000000000000000000000000000000000000000081529051600092600160a060020a03169163e1758bd8916004808301926020929190829003018186803b158015610d6557600080fd5b505afa158015610d79573d6000803e3d6000fd5b505050506040513d6020811015610d8f57600080fd5b50516007549091506000101561107c57600354604080517f70a08231000000000000000000000000000000000000000000000000000000008152600160a060020a03928316600482015290516000928416916370a08231916024808301926020929190829003018186803b158015610e0657600080fd5b505afa158015610e1a573d6000803e3d6000fd5b505050506040513d6020811015610e3057600080fd5b5051600754909150811015610e8f576040805160e560020a62461bcd02815260206004820152601960248201527f4e6f7420656e6f7567682066756e647320746f20737461727400000000000000604482015290519081900360640190fd5b600480546007546040805130602480830191909152604480830194909452825180830385018152606492830184526020810180517bffffffffffffffffffffffffffffffffffffffffffffffffffffffff167fa9059cbb0000000000000000000000000000000000000000000000000000000017815260035494517fd1b7089a000000000000000000000000000000000000000000000000000000008152600160a060020a038b8116998201998a5295861696810187905260009481018590526080938101938452825160848201528251959097169763d1b7089a978b9793969395949193919260a490910191808383885b83811015610f99578181015183820152602001610f81565b50505050905090810190601f168015610fc65780820380516001836020036101000a031916815260200191505b5095505050505050600060405180830381600087803b158015610fe857600080fd5b505af1158015610ffc573d6000803e3d6000fd5b505050506040513d6000823e601f3d908101601f19168201604090815281101561102557600080fd5b81516020830180519193928301929164010000000081111561104657600080fd5b8201602081018481111561105957600080fd5b815164010000000081118282018710171561107357600080fd5b50505050505050505b604080517f70a0823100000000000000000000000000000000000000000000000000000000815230600482015290517fa1769ec43d495e21f6131b09e38e916f9ba443a007237f5786530db04478507391600160a060020a038416916370a0823191602480820192602092909190829003018186803b1580156110fe57600080fd5b505afa158015611112573d6000803e3d6000fd5b505050506040513d602081101561112857600080fd5b5051604080519182524260208301528051918290030190a150565b60005481565b611151610912565b151561115c57600080fd5b611165816116d3565b50565b611170610372565b15156111c6576040805160e560020a62461bcd02815260206004820152601860248201527f536368656d65206973206e6f7420726567697374657265640000000000000000604482015290519081900360640190fd5b600480546005546040805130602480830191909152825180830382018152604492830184526020810180517bffffffffffffffffffffffffffffffffffffffffffffffffffffffff167fc375c2ef0000000000000000000000000000000000000000000000000000000017815260035494517fd1b7089a000000000000000000000000000000000000000000000000000000008152600160a060020a039687169881018981529587169481018590526000606482018190526080948201948552835160848301528351979098169863d1b7089a989097939690949093909260a49092019190808383885b838110156112c85781810151838201526020016112b0565b50505050905090810190601f1680156112f55780820380516001836020036101000a031916815260200191505b5095505050505050600060405180830381600087803b15801561131757600080fd5b505af115801561132b573d6000803e3d6000fd5b505050506040513d6000823e601f3d908101601f19168201604090815281101561135457600080fd5b81516020830180519193928301929164010000000081111561137557600080fd5b8201602081018481111561138857600080fd5b81516401000000008111828201871017156113a257600080fd5b50505050505050565b60025460ff161515611407576040805160e560020a62461bcd02815260206004820152600d60248201527f6973206e6f742061637469766500000000000000000000000000000000000000604482015290519081900360640190fd5b6002805460ff1916905560408051428152905133917ef689ee9beb942c1c9c0d6642687ace05a9000d5f2979d344163c57829fa779919081900360200190a280600160a060020a0316ff5b60008282018381101561146457600080fd5b9392505050565b600054421015801561147e575060015442105b15156114d4576040805160e560020a62461bcd02815260206004820152600d60248201527f6e6f7420696e20706572696f6400000000000000000000000000000000000000604482015290519081900360640190fd5b60025460ff161561152f576040805160e560020a62461bcd02815260206004820152601260248201527f63616e6e6f742073746172742074776963650000000000000000000000000000604482015290519081900360640190fd5b6002805460ff1916600117905560408051428152905133917f727dd98701807c5fdf715b9f1fd7d87461a558e2ab3e05935add76e42e330fa3919081900360200190a2565b61157c610372565b15156115d2576040805160e560020a62461bcd02815260206004820152601860248201527f536368656d65206973206e6f7420726567697374657265640000000000000000604482015290519081900360640190fd5b600480546005546040805130602480830191909152825180830382018152604492830184526020810180517bffffffffffffffffffffffffffffffffffffffffffffffffffffffff167f5f539d690000000000000000000000000000000000000000000000000000000017815260035494517fd1b7089a000000000000000000000000000000000000000000000000000000008152600160a060020a039687169881018981529587169481018590526000606482018190526080948201948552835160848301528351979098169863d1b7089a989097939690949093909260a4909201919080838388838110156112c85781810151838201526020016112b0565b600160a060020a03811615156116e857600080fd5b600254604051600160a060020a0380841692610100900416907f8be0079c531659141344cd1fd0a4f28419497f9722a3daafe3b4186f6b6457e090600090a360028054600160a060020a039092166101000274ffffffffffffffffffffffffffffffffffffffff001990921691909117905556fea165627a7a7230582097e846a992c9d941924ff78aa62637f85cb22c335c0f1ad190f42a8809f5f64a002973746172742063616e6e6f74206265206166746572206e6f7220657175616c20746f20656e64",
  "source": "pragma solidity 0.5.4;\n\nimport \"@daostack/arc/contracts/controller/Avatar.sol\";\nimport \"@daostack/arc/contracts/controller/ControllerInterface.sol\";\n\nimport \"openzeppelin-solidity/contracts/math/SafeMath.sol\";\n\nimport \"../../identity/IdentityGuard.sol\";\nimport \"../../token/GoodDollar.sol\";\nimport \"./ActivePeriod.sol\";\nimport \"./FeelessScheme.sol\";\nimport \"./SchemeGuard.sol\";\n\n/* @title Sign-Up bonus scheme responsible for transferring\n * a given amount of GoodDollar to users\n */\ncontract SignUpBonus is ActivePeriod, FeelessScheme {\n    using SafeMath for uint256;\n\n    uint256 public maxBonus;\n    uint256 public initalReserve;\n\n    mapping(address => uint256) rewarded;\n\n    event SignUpStarted(uint256 balance, uint256 time);\n    event BonusClaimed(address indexed account, uint256 amount);\n\n    /* @dev Constructor\n     * @param _avatar The avatar of the DAO\n     * @param _identity The identity contract\n     * @param _initialReserve The amount to transfer from the avatar at start.\n     * @param _maxBonus The max amount a user can be awarded\n     */\n    constructor(\n        Avatar _avatar,\n        Identity _identity,\n        uint256 _initalReserve,\n        uint256 _maxBonus\n    )\n        public\n        ActivePeriod(now, now * 2)\n        FeelessScheme(_identity, _avatar)\n    {\n        require(_maxBonus > 0, \"Max bonus cannot be zero\");\n\n        initalReserve = _initalReserve;\n        maxBonus = _maxBonus;\n    }\n\n    /* @dev Start function. Activates the contract and transfers the given\n     * reserve from the avatar to this contract.\n     * Reverts if the Avatar doesn't have any funds.\n     */\n    function start() public onlyRegistered {\n        super.start();\n        addRights();\n\n        DAOToken token = avatar.nativeToken();\n\n        if ( initalReserve > 0) {\n            uint256 reserve = token.balanceOf(address(avatar));\n\n            require(reserve >= initalReserve, \"Not enough funds to start\");\n\n            controller.genericCall(\n                address(token),\n                abi.encodeWithSignature(\"transfer(address,uint256)\", address(this), initalReserve),\n                avatar,\n                0\n            );\n        }\n        emit SignUpStarted(token.balanceOf(address(this)), now);\n    }\n\n    /* @dev End function. Deactivates the contract and transfers any\n     * remaining GoodDollar back to the avatar. Can be called at any\n     * Time by identity admins\n     */\n    function end(Avatar /*_avatar*/) public onlyIdentityAdmin {\n        DAOToken token = avatar.nativeToken();\n\n        uint256 remainingReserve = token.balanceOf(address(this));\n        if (remainingReserve > 0) {\n            token.transfer(address(avatar), remainingReserve);\n        }\n\n        removeRights();\n        super.internalEnd(avatar);\n    }\n\n    /* @dev Function for awarding users. Can only be done by identity admins\n     * while contract is active. Reverts if rewarding beyond max allowed amount\n     * @param _user The address to award\n     * @param _amount The amount to award\n     */\n    function awardUser(address _user, uint256 _amount) public requireActive onlyIdentityAdmin {\n        GoodDollar token = GoodDollar(address(avatar.nativeToken()));\n        require(rewarded[_user].add(_amount) <= maxBonus, \"Cannot award user beyond max\");\n\n        rewarded[_user] = rewarded[_user].add(_amount);\n        token.transfer(_user, _amount);\n\n        emit BonusClaimed(_user, _amount);\n    }\n }",
  "sourcePath": "/Users/hadar/workspace/GoodDollar/GoodBootstrap/packages/contracts/contracts/dao/schemes/SignUpBonus.sol",
  "compiler": {
    "name": "solc",
    "version": "0.5.4+commit.9549d8ff.Emscripten.clang"
  },
  "schemaVersion": "3.0.16",
  "updatedAt": "2020-04-26T12:11:45.465Z",
  "devdoc": {
    "methods": {
      "isOwner()": {
        "return": "true if `msg.sender` is the owner of the contract."
      },
      "owner()": {
        "return": "the address of the owner."
      },
      "renounceOwnership()": {
        "details": "Allows the current owner to relinquish control of the contract."
      },
      "transferOwnership(address)": {
        "details": "Allows the current owner to transfer control of the contract to a newOwner.",
        "params": {
          "newOwner": "The address to transfer ownership to."
        }
      }
    }
  },
  "userdoc": {
    "methods": {
      "renounceOwnership()": {
        "notice": "Renouncing to ownership will leave the contract without an owner. It will not be possible to call the functions with the `onlyOwner` modifier anymore."
      }
    }
  }
}