{
  "contractName": "SignUpBonus",
  "abi": [
    {
      "constant": false,
      "inputs": [
        {
          "name": "_avatar",
          "type": "address"
        }
      ],
      "name": "setAvatar",
      "outputs": [],
      "payable": false,
      "stateMutability": "nonpayable",
      "type": "function"
    },
    {
      "constant": true,
      "inputs": [],
      "name": "isRegistered",
      "outputs": [
        {
          "name": "",
          "type": "bool"
        }
      ],
      "payable": false,
      "stateMutability": "view",
      "type": "function"
    },
    {
      "constant": true,
      "inputs": [],
      "name": "isActive",
      "outputs": [
        {
          "name": "",
          "type": "bool"
        }
      ],
      "payable": false,
      "stateMutability": "view",
      "type": "function"
    },
    {
      "constant": true,
      "inputs": [],
      "name": "identity",
      "outputs": [
        {
          "name": "",
          "type": "address"
        }
      ],
      "payable": false,
      "stateMutability": "view",
      "type": "function"
    },
    {
      "constant": true,
      "inputs": [],
      "name": "periodEnd",
      "outputs": [
        {
          "name": "",
          "type": "uint256"
        }
      ],
      "payable": false,
      "stateMutability": "view",
      "type": "function"
    },
    {
      "constant": true,
      "inputs": [],
      "name": "maxBonus",
      "outputs": [
        {
          "name": "",
          "type": "uint256"
        }
      ],
      "payable": false,
      "stateMutability": "view",
      "type": "function"
    },
    {
      "constant": false,
      "inputs": [
        {
          "name": "_identity",
          "type": "address"
        }
      ],
      "name": "setIdentity",
      "outputs": [],
      "payable": false,
      "stateMutability": "nonpayable",
      "type": "function"
    },
    {
      "constant": false,
      "inputs": [],
      "name": "renounceOwnership",
      "outputs": [],
      "payable": false,
      "stateMutability": "nonpayable",
      "type": "function"
    },
    {
      "constant": true,
      "inputs": [],
      "name": "owner",
      "outputs": [
        {
          "name": "",
          "type": "address"
        }
      ],
      "payable": false,
      "stateMutability": "view",
      "type": "function"
    },
    {
      "constant": true,
      "inputs": [],
      "name": "isOwner",
      "outputs": [
        {
          "name": "",
          "type": "bool"
        }
      ],
      "payable": false,
      "stateMutability": "view",
      "type": "function"
    },
    {
      "constant": true,
      "inputs": [],
      "name": "initalReserve",
      "outputs": [
        {
          "name": "",
          "type": "uint256"
        }
      ],
      "payable": false,
      "stateMutability": "view",
      "type": "function"
    },
    {
      "constant": true,
      "inputs": [
        {
          "name": "scheme",
          "type": "address"
        }
      ],
      "name": "isRegistered",
      "outputs": [
        {
          "name": "",
          "type": "bool"
        }
      ],
      "payable": false,
      "stateMutability": "view",
      "type": "function"
    },
    {
      "constant": true,
      "inputs": [],
      "name": "periodStart",
      "outputs": [
        {
          "name": "",
          "type": "uint256"
        }
      ],
      "payable": false,
      "stateMutability": "view",
      "type": "function"
    },
    {
      "constant": false,
      "inputs": [
        {
          "name": "newOwner",
          "type": "address"
        }
      ],
      "name": "transferOwnership",
      "outputs": [],
      "payable": false,
      "stateMutability": "nonpayable",
      "type": "function"
    },
    {
      "inputs": [
        {
          "name": "_avatar",
          "type": "address"
        },
        {
          "name": "_identity",
          "type": "address"
        },
        {
          "name": "_initalReserve",
          "type": "uint256"
        },
        {
          "name": "_maxBonus",
          "type": "uint256"
        }
      ],
      "payable": false,
      "stateMutability": "nonpayable",
      "type": "constructor"
    },
    {
      "anonymous": false,
      "inputs": [
        {
          "indexed": false,
          "name": "balance",
          "type": "uint256"
        },
        {
          "indexed": false,
          "name": "time",
          "type": "uint256"
        }
      ],
      "name": "SignUpStarted",
      "type": "event"
    },
    {
      "anonymous": false,
      "inputs": [
        {
          "indexed": true,
          "name": "account",
          "type": "address"
        },
        {
          "indexed": false,
          "name": "amount",
          "type": "uint256"
        }
      ],
      "name": "BonusClaimed",
      "type": "event"
    },
    {
      "anonymous": false,
      "inputs": [
        {
          "indexed": true,
          "name": "previousOwner",
          "type": "address"
        },
        {
          "indexed": true,
          "name": "newOwner",
          "type": "address"
        }
      ],
      "name": "OwnershipTransferred",
      "type": "event"
    },
    {
      "anonymous": false,
      "inputs": [
        {
          "indexed": true,
          "name": "by",
          "type": "address"
        },
        {
          "indexed": false,
          "name": "time",
          "type": "uint256"
        }
      ],
      "name": "SchemeStarted",
      "type": "event"
    },
    {
      "anonymous": false,
      "inputs": [
        {
          "indexed": true,
          "name": "by",
          "type": "address"
        },
        {
          "indexed": false,
          "name": "time",
          "type": "uint256"
        }
      ],
      "name": "SchemeEnded",
      "type": "event"
    },
    {
      "constant": false,
      "inputs": [],
      "name": "start",
      "outputs": [],
      "payable": false,
      "stateMutability": "nonpayable",
      "type": "function"
    },
    {
      "constant": false,
      "inputs": [],
      "name": "end",
      "outputs": [],
      "payable": false,
      "stateMutability": "nonpayable",
      "type": "function"
    },
    {
      "constant": false,
      "inputs": [
        {
          "name": "_user",
          "type": "address"
        },
        {
          "name": "_amount",
          "type": "uint256"
        }
      ],
      "name": "awardUser",
      "outputs": [],
      "payable": false,
      "stateMutability": "nonpayable",
      "type": "function"
    }
  ],
  "bytecode": "0x608060405260058054600160a060020a03191690553480156200002157600080fd5b5060405160808062001c35833981018060405260808110156200004357600080fd5b508051602082015160408301516060909301519192909182848181426002810282818310620000be576040517f08c379a000000000000000000000000000000000000000000000000000000000815260040180806020018281038252602681526020018062001c0f6026913960400191505060405180910390fd5b60009283556001919091556002805461010060a860020a031916610100600160a060020a03938416021760ff191690556003805433600160a060020a03199091161790819055604051911691907f8be0079c531659141344cd1fd0a4f28419497f9722a3daafe3b4186f6b6457e0908290a360048054600160a060020a031916600160a060020a0383811691909117918290551615620002025760048054604080517f8da5cb5b0000000000000000000000000000000000000000000000000000000081529051600160a060020a0390921692638da5cb5b928282019260209290829003018186803b158015620001b457600080fd5b505afa158015620001c9573d6000803e3d6000fd5b505050506040513d6020811015620001e057600080fd5b505160058054600160a060020a031916600160a060020a039092169190911790555b50600160a060020a03811615156200027b57604080517f08c379a000000000000000000000000000000000000000000000000000000000815260206004820152601960248201527f537570706c696564206964656e74697479206973206e756c6c00000000000000604482015290519081900360640190fd5b60068054600160a060020a031916600160a060020a03929092169190911790555050600081116200030d57604080517f08c379a000000000000000000000000000000000000000000000000000000000815260206004820152601860248201527f4d617820626f6e75732063616e6e6f74206265207a65726f0000000000000000604482015290519081900360640190fd5b60089190915560075550506118e780620003286000396000f3fe608060405234801561001057600080fd5b506004361061010f5760003560e060020a900480638da5cb5b116100a6578063be9a655511610075578063be9a655514610218578063c3c5a54714610220578063eda4e6d614610246578063efbe1c1c1461024e578063f2fde38b146102565761010f565b80638da5cb5b146101d45780638f32d59b146101dc5780639d0afd9d146101e4578063bd7fbbd6146101ec5761010f565b8063506ec095116100e2578063506ec0951461018457806354c5b6961461019e5780635d5bf178146101a6578063715018a6146101cc5761010f565b8063086cfca814610114578063223668441461013c57806322f3e2d4146101585780632c159a1a14610160575b600080fd5b61013a6004803603602081101561012a57600080fd5b5035600160a060020a031661027c565b005b610144610368565b604080519115158252519081900360200190f35b610144610378565b610168610381565b60408051600160a060020a039092168252519081900360200190f35b61018c610390565b60408051918252519081900360200190f35b61018c610396565b61013a600480360360208110156101bc57600080fd5b5035600160a060020a031661039c565b61013a61049c565b610168610506565b610144610515565b61018c610526565b61013a6004803603604081101561020257600080fd5b50600160a060020a03813516906020013561052c565b61013a6108e2565b6101446004803603602081101561023657600080fd5b5035600160a060020a0316610d85565b61018c610ea0565b61013a610ea6565b61013a6004803603602081101561026c57600080fd5b5035600160a060020a03166111ba565b610284610515565b151561028f57600080fd5b6004805473ffffffffffffffffffffffffffffffffffffffff1916600160a060020a0383811691909117808355604080517f8da5cb5b00000000000000000000000000000000000000000000000000000000815290519190921692638da5cb5b92808201926020929091829003018186803b15801561030d57600080fd5b505afa158015610321573d6000803e3d6000fd5b505050506040513d602081101561033757600080fd5b50516005805473ffffffffffffffffffffffffffffffffffffffff1916600160a060020a0390921691909117905550565b600061037330610d85565b905090565b60025460ff1681565b600654600160a060020a031681565b60015481565b60075481565b6103a4610515565b15156103af57600080fd5b80600160a060020a031663223668446040518163ffffffff1660e060020a02815260040160206040518083038186803b1580156103eb57600080fd5b505afa1580156103ff573d6000803e3d6000fd5b505050506040513d602081101561041557600080fd5b5051151561046d576040805160e560020a62461bcd02815260206004820152601a60248201527f4964656e74697479206973206e6f742072656769737465726564000000000000604482015290519081900360640190fd5b6006805473ffffffffffffffffffffffffffffffffffffffff1916600160a060020a0392909216919091179055565b6104a4610515565b15156104af57600080fd5b600354604051600091600160a060020a0316907f8be0079c531659141344cd1fd0a4f28419497f9722a3daafe3b4186f6b6457e0908390a36003805473ffffffffffffffffffffffffffffffffffffffff19169055565b600354600160a060020a031690565b600354600160a060020a0316331490565b60085481565b60025460ff161515610588576040805160e560020a62461bcd02815260206004820152600d60248201527f6973206e6f742061637469766500000000000000000000000000000000000000604482015290519081900360640190fd5b600654604080517fe5ecaf590000000000000000000000000000000000000000000000000000000081523360048201529051600160a060020a039092169163e5ecaf5991602480820192602092909190829003018186803b1580156105ec57600080fd5b505afa158015610600573d6000803e3d6000fd5b505050506040513d602081101561061657600080fd5b5051151561066e576040805160e560020a62461bcd02815260206004820152601160248201527f6e6f74204964656e7469747941646d696e000000000000000000000000000000604482015290519081900360640190fd5b6000600460009054906101000a9004600160a060020a0316600160a060020a031663e1758bd86040518163ffffffff1660e060020a02815260040160206040518083038186803b1580156106c157600080fd5b505afa1580156106d5573d6000803e3d6000fd5b505050506040513d60208110156106eb57600080fd5b5051600754600160a060020a0385166000908152600960205260409020549192509061071d908463ffffffff6111d916565b1115610773576040805160e560020a62461bcd02815260206004820152601c60248201527f43616e6e6f742061776172642075736572206265796f6e64206d617800000000604482015290519081900360640190fd5b600160a060020a03831660009081526009602052604090205461079c908363ffffffff6111d916565b600160a060020a0380851660008181526009602090815260408083209590955584517fa9059cbb00000000000000000000000000000000000000000000000000000000815260048101939093526024830187905293519285169363a9059cbb93604480850194929391928390030190829087803b15801561081c57600080fd5b505af1158015610830573d6000803e3d6000fd5b505050506040513d602081101561084657600080fd5b5051151561089e576040805160e560020a62461bcd02815260206004820152601560248201527f6177617264207472616e73666572206661696c65640000000000000000000000604482015290519081900360640190fd5b604080518381529051600160a060020a038516917f4e69fdc49495bcab2b4375781457ba16653a90eb4ffb6588351bdc39071433e2919081900360200190a2505050565b6108ea610368565b1515610940576040805160e560020a62461bcd02815260206004820152601860248201527f536368656d65206973206e6f7420726567697374657265640000000000000000604482015290519081900360640190fd5b6109486111f2565b6109506112fb565b6000600460009054906101000a9004600160a060020a0316600160a060020a031663e1758bd86040518163ffffffff1660e060020a02815260040160206040518083038186803b1580156109a357600080fd5b505afa1580156109b7573d6000803e3d6000fd5b505050506040513d60208110156109cd57600080fd5b505160085490915060001015610cbe5760048054604080517f70a08231000000000000000000000000000000000000000000000000000000008152600160a060020a039283169381019390935251600092918416916370a08231916024808301926020929190829003018186803b158015610a4757600080fd5b505afa158015610a5b573d6000803e3d6000fd5b505050506040513d6020811015610a7157600080fd5b5051600854909150811015610ad0576040805160e560020a62461bcd02815260206004820152601960248201527f4e6f7420656e6f7567682066756e647320746f20737461727400000000000000604482015290519081900360640190fd5b6005546008546040805130602480830191909152604480830194909452825180830385018152606492830184526020810180517bffffffffffffffffffffffffffffffffffffffffffffffffffffffff167fa9059cbb000000000000000000000000000000000000000000000000000000001781526004805495517fd1b7089a000000000000000000000000000000000000000000000000000000008152600160a060020a038b811692820192835296871697810188905260009581018690526080948101948552835160848201528351969098169763d1b7089a978b979496909590949293909260a490920191808383885b83811015610bdb578181015183820152602001610bc3565b50505050905090810190601f168015610c085780820380516001836020036101000a031916815260200191505b5095505050505050600060405180830381600087803b158015610c2a57600080fd5b505af1158015610c3e573d6000803e3d6000fd5b505050506040513d6000823e601f3d908101601f191682016040908152811015610c6757600080fd5b815160208301805191939283019291640100000000811115610c8857600080fd5b82016020810184811115610c9b57600080fd5b8151640100000000811182820187101715610cb557600080fd5b50505050505050505b604080517f70a0823100000000000000000000000000000000000000000000000000000000815230600482015290517fa1769ec43d495e21f6131b09e38e916f9ba443a007237f5786530db04478507391600160a060020a038416916370a0823191602480820192602092909190829003018186803b158015610d4057600080fd5b505afa158015610d54573d6000803e3d6000fd5b505050506040513d6020811015610d6a57600080fd5b5051604080519182524260208301528051918290030190a150565b600454600090600160a060020a03161515610dea576040805160e560020a62461bcd02815260206004820152601160248201527f417661746172206973206e6f7420736574000000000000000000000000000000604482015290519081900360640190fd5b60055460048054604080517f9be2faed000000000000000000000000000000000000000000000000000000008152600160a060020a03878116948201949094529183166024830152519190921691639be2faed916044808301926020929190829003018186803b158015610e5d57600080fd5b505afa158015610e71573d6000803e3d6000fd5b505050506040513d6020811015610e8757600080fd5b50511515610e9757506000610e9b565b5060015b919050565b60005481565b600654604080517fe5ecaf590000000000000000000000000000000000000000000000000000000081523360048201529051600160a060020a039092169163e5ecaf5991602480820192602092909190829003018186803b158015610f0a57600080fd5b505afa158015610f1e573d6000803e3d6000fd5b505050506040513d6020811015610f3457600080fd5b50511515610f8c576040805160e560020a62461bcd02815260206004820152601160248201527f6e6f74204964656e7469747941646d696e000000000000000000000000000000604482015290519081900360640190fd5b6000600460009054906101000a9004600160a060020a0316600160a060020a031663e1758bd86040518163ffffffff1660e060020a02815260040160206040518083038186803b158015610fdf57600080fd5b505afa158015610ff3573d6000803e3d6000fd5b505050506040513d602081101561100957600080fd5b5051604080517f70a082310000000000000000000000000000000000000000000000000000000081523060048201529051919250600091600160a060020a038416916370a08231916024808301926020929190829003018186803b15801561107057600080fd5b505afa158015611084573d6000803e3d6000fd5b505050506040513d602081101561109a57600080fd5b5051905060008111156111995760048054604080517fa9059cbb000000000000000000000000000000000000000000000000000000008152600160a060020a039283169381019390935260248301849052519084169163a9059cbb9160448083019260209291908290030181600087803b15801561111757600080fd5b505af115801561112b573d6000803e3d6000fd5b505050506040513d602081101561114157600080fd5b50511515611199576040805160e560020a62461bcd02815260206004820152601360248201527f656e64207472616e73666572206661696c656400000000000000000000000000604482015290519081900360640190fd5b6111a1611554565b6004546111b690600160a060020a0316611796565b5050565b6111c2610515565b15156111cd57600080fd5b6111d68161183d565b50565b6000828201838110156111eb57600080fd5b9392505050565b6000544210158015611205575060015442105b151561125b576040805160e560020a62461bcd02815260206004820152600d60248201527f6e6f7420696e20706572696f6400000000000000000000000000000000000000604482015290519081900360640190fd5b60025460ff16156112b6576040805160e560020a62461bcd02815260206004820152601260248201527f63616e6e6f742073746172742074776963650000000000000000000000000000604482015290519081900360640190fd5b6002805460ff1916600117905560408051428152905133917f727dd98701807c5fdf715b9f1fd7d87461a558e2ab3e05935add76e42e330fa3919081900360200190a2565b611303610368565b1515611359576040805160e560020a62461bcd02815260206004820152601860248201527f536368656d65206973206e6f7420726567697374657265640000000000000000604482015290519081900360640190fd5b6005546006546040805130602480830191909152825180830382018152604492830184526020810180517bffffffffffffffffffffffffffffffffffffffffffffffffffffffff167f5f539d69000000000000000000000000000000000000000000000000000000001781526004805495517fd1b7089a000000000000000000000000000000000000000000000000000000008152600160a060020a039788169181018281529688169581018690526000606482018190526080958201958652845160848301528451989099169863d1b7089a989297949695909493909260a490920191808383885b8381101561145a578181015183820152602001611442565b50505050905090810190601f1680156114875780820380516001836020036101000a031916815260200191505b5095505050505050600060405180830381600087803b1580156114a957600080fd5b505af11580156114bd573d6000803e3d6000fd5b505050506040513d6000823e601f3d908101601f1916820160409081528110156114e657600080fd5b81516020830180519193928301929164010000000081111561150757600080fd5b8201602081018481111561151a57600080fd5b815164010000000081118282018710171561153457600080fd5b50506004546115529550600160a060020a031693506111ba92505050565b565b61155c610368565b15156115b2576040805160e560020a62461bcd02815260206004820152601860248201527f536368656d65206973206e6f7420726567697374657265640000000000000000604482015290519081900360640190fd5b6005546006546040805130602480830191909152825180830382018152604492830184526020810180517bffffffffffffffffffffffffffffffffffffffffffffffffffffffff167fc375c2ef000000000000000000000000000000000000000000000000000000001781526004805495517fd1b7089a000000000000000000000000000000000000000000000000000000008152600160a060020a039788169181018281529688169581018690526000606482018190526080958201958652845160848301528451989099169863d1b7089a989297949695909493909260a490920191808383885b838110156116b357818101518382015260200161169b565b50505050905090810190601f1680156116e05780820380516001836020036101000a031916815260200191505b5095505050505050600060405180830381600087803b15801561170257600080fd5b505af1158015611716573d6000803e3d6000fd5b505050506040513d6000823e601f3d908101601f19168201604090815281101561173f57600080fd5b81516020830180519193928301929164010000000081111561176057600080fd5b8201602081018481111561177357600080fd5b815164010000000081118282018710171561178d57600080fd5b50505050505050565b60025460ff1615156117f2576040805160e560020a62461bcd02815260206004820152600d60248201527f6973206e6f742061637469766500000000000000000000000000000000000000604482015290519081900360640190fd5b6002805460ff1916905560408051428152905133917ef689ee9beb942c1c9c0d6642687ace05a9000d5f2979d344163c57829fa779919081900360200190a280600160a060020a0316ff5b600160a060020a038116151561185257600080fd5b600354604051600160a060020a038084169216907f8be0079c531659141344cd1fd0a4f28419497f9722a3daafe3b4186f6b6457e090600090a36003805473ffffffffffffffffffffffffffffffffffffffff1916600160a060020a039290921691909117905556fea165627a7a72305820ba3e5612299d15781850d2c647ccb8ac5eda2bbb2f8750e893743bc8c3265762002973746172742063616e6e6f74206265206166746572206e6f7220657175616c20746f20656e64",
  "source": "pragma solidity 0.5.4;\n\nimport \"@daostack/arc/contracts/controller/Avatar.sol\";\nimport \"@daostack/arc/contracts/controller/ControllerInterface.sol\";\n\nimport \"openzeppelin-solidity/contracts/math/SafeMath.sol\";\n\nimport \"../../identity/IdentityGuard.sol\";\nimport \"../../token/GoodDollar.sol\";\nimport \"./ActivePeriod.sol\";\nimport \"./FeelessScheme.sol\";\nimport \"./SchemeGuard.sol\";\n\n\n/* @title Sign-Up bonus scheme responsible for transferring\n * a given amount of GoodDollar to users\n */\ncontract SignUpBonus is ActivePeriod, FeelessScheme {\n    using SafeMath for uint256;\n\n    uint256 public maxBonus;\n    uint256 public initalReserve;\n\n    mapping(address => uint256) rewarded;\n\n    event SignUpStarted(uint256 balance, uint256 time);\n    event BonusClaimed(address indexed account, uint256 amount);\n\n    /* @dev Constructor\n     * @param _avatar The avatar of the DAO\n     * @param _identity The identity contract\n     * @param _initialReserve The amount to transfer from the avatar at start.\n     * @param _maxBonus The max amount a user can be awarded\n     */\n    constructor(\n        Avatar _avatar,\n        Identity _identity,\n        uint256 _initalReserve,\n        uint256 _maxBonus\n    ) public ActivePeriod(now, now * 2, _avatar) FeelessScheme(_identity, _avatar) {\n        require(_maxBonus > 0, \"Max bonus cannot be zero\");\n\n        initalReserve = _initalReserve;\n        maxBonus = _maxBonus;\n    }\n\n    /* @dev Start function. Activates the contract and transfers the given\n     * reserve from the avatar to this contract.\n     * Reverts if the Avatar doesn't have any funds.\n     */\n    function start() public onlyRegistered {\n        super.start();\n        addRights();\n\n        DAOToken token = avatar.nativeToken();\n\n        if (initalReserve > 0) {\n            uint256 reserve = token.balanceOf(address(avatar));\n\n            require(reserve >= initalReserve, \"Not enough funds to start\");\n\n            controller.genericCall(\n                address(token),\n                abi.encodeWithSignature(\n                    \"transfer(address,uint256)\",\n                    address(this),\n                    initalReserve\n                ),\n                avatar,\n                0\n            );\n        }\n        emit SignUpStarted(token.balanceOf(address(this)), now);\n    }\n\n    /* @dev End function. Deactivates the contract and transfers any\n     * remaining GoodDollar back to the avatar. Can be called at any\n     * Time by identity admins\n     */\n    function end() public onlyIdentityAdmin {\n        DAOToken token = avatar.nativeToken();\n\n        uint256 remainingReserve = token.balanceOf(address(this));\n        if (remainingReserve > 0) {\n            require(\n                token.transfer(address(avatar), remainingReserve),\n                \"end transfer failed\"\n            );\n        }\n\n        removeRights();\n        super.internalEnd(avatar);\n    }\n\n    /* @dev Function for awarding users. Can only be done by identity admins\n     * while contract is active. Reverts if rewarding beyond max allowed amount\n     * @param _user The address to award\n     * @param _amount The amount to award\n     */\n    function awardUser(address _user, uint256 _amount)\n        public\n        requireActive\n        onlyIdentityAdmin\n    {\n        GoodDollar token = GoodDollar(address(avatar.nativeToken()));\n        require(rewarded[_user].add(_amount) <= maxBonus, \"Cannot award user beyond max\");\n\n        rewarded[_user] = rewarded[_user].add(_amount);\n        require(token.transfer(_user, _amount), \"award transfer failed\");\n\n        emit BonusClaimed(_user, _amount);\n    }\n}\n",
  "sourcePath": "/Users/hadar/workspace/GoodDollar/GoodBootstrap/packages/contracts/contracts/dao/schemes/SignUpBonus.sol",
  "compiler": {
    "name": "solc",
    "version": "0.5.4+commit.9549d8ff.Emscripten.clang"
  },
  "schemaVersion": "3.0.16",
  "updatedAt": "2020-07-09T12:07:51.261Z",
  "devdoc": {
    "methods": {
      "isOwner()": {
        "return": "true if `msg.sender` is the owner of the contract."
      },
      "isRegistered()": {
        "details": "function to see if an avatar has been set and if this scheme is registered",
        "return": "true if scheme is registered"
      },
      "isRegistered(address)": {
        "details": "function to see if an avatar has been set and if this scheme is registered",
        "return": "true if scheme is registered"
      },
      "owner()": {
        "return": "the address of the owner."
      },
      "renounceOwnership()": {
        "details": "Allows the current owner to relinquish control of the contract."
      },
      "setAvatar(address)": {
        "details": "Function to set a new avatar and controller for scheme can only be done by owner of scheme"
      },
      "transferOwnership(address)": {
        "details": "Allows the current owner to transfer control of the contract to a newOwner.",
        "params": {
          "newOwner": "The address to transfer ownership to."
        }
      }
    }
  },
  "userdoc": {
    "methods": {
      "renounceOwnership()": {
        "notice": "Renouncing to ownership will leave the contract without an owner. It will not be possible to call the functions with the `onlyOwner` modifier anymore."
      }
    }
  }
}