{
  "contractName": "SignUpBonus",
  "abi": [
    {
      "constant": false,
      "inputs": [
        {
          "name": "_avatar",
          "type": "address"
        }
      ],
      "name": "setAvatar",
      "outputs": [],
      "payable": false,
      "stateMutability": "nonpayable",
      "type": "function"
    },
    {
      "constant": true,
      "inputs": [],
      "name": "isRegistered",
      "outputs": [],
      "payable": false,
      "stateMutability": "view",
      "type": "function"
    },
    {
      "constant": true,
      "inputs": [],
      "name": "isActive",
      "outputs": [
        {
          "name": "",
          "type": "bool"
        }
      ],
      "payable": false,
      "stateMutability": "view",
      "type": "function"
    },
    {
      "constant": true,
      "inputs": [],
      "name": "identity",
      "outputs": [
        {
          "name": "",
          "type": "address"
        }
      ],
      "payable": false,
      "stateMutability": "view",
      "type": "function"
    },
    {
      "constant": true,
      "inputs": [],
      "name": "periodEnd",
      "outputs": [
        {
          "name": "",
          "type": "uint256"
        }
      ],
      "payable": false,
      "stateMutability": "view",
      "type": "function"
    },
    {
      "constant": true,
      "inputs": [],
      "name": "maxBonus",
      "outputs": [
        {
          "name": "",
          "type": "uint256"
        }
      ],
      "payable": false,
      "stateMutability": "view",
      "type": "function"
    },
    {
      "constant": false,
      "inputs": [
        {
          "name": "_identity",
          "type": "address"
        },
        {
          "name": "_avatar",
          "type": "address"
        }
      ],
      "name": "setIdentity",
      "outputs": [],
      "payable": false,
      "stateMutability": "nonpayable",
      "type": "function"
    },
    {
      "constant": false,
      "inputs": [],
      "name": "renounceOwnership",
      "outputs": [],
      "payable": false,
      "stateMutability": "nonpayable",
      "type": "function"
    },
    {
      "constant": true,
      "inputs": [],
      "name": "owner",
      "outputs": [
        {
          "name": "",
          "type": "address"
        }
      ],
      "payable": false,
      "stateMutability": "view",
      "type": "function"
    },
    {
      "constant": true,
      "inputs": [],
      "name": "isOwner",
      "outputs": [
        {
          "name": "",
          "type": "bool"
        }
      ],
      "payable": false,
      "stateMutability": "view",
      "type": "function"
    },
    {
      "constant": true,
      "inputs": [],
      "name": "initalReserve",
      "outputs": [
        {
          "name": "",
          "type": "uint256"
        }
      ],
      "payable": false,
      "stateMutability": "view",
      "type": "function"
    },
    {
      "constant": true,
      "inputs": [],
      "name": "periodStart",
      "outputs": [
        {
          "name": "",
          "type": "uint256"
        }
      ],
      "payable": false,
      "stateMutability": "view",
      "type": "function"
    },
    {
      "constant": false,
      "inputs": [
        {
          "name": "newOwner",
          "type": "address"
        }
      ],
      "name": "transferOwnership",
      "outputs": [],
      "payable": false,
      "stateMutability": "nonpayable",
      "type": "function"
    },
    {
      "inputs": [
        {
          "name": "_avatar",
          "type": "address"
        },
        {
          "name": "_identity",
          "type": "address"
        },
        {
          "name": "_initalReserve",
          "type": "uint256"
        },
        {
          "name": "_maxBonus",
          "type": "uint256"
        }
      ],
      "payable": false,
      "stateMutability": "nonpayable",
      "type": "constructor"
    },
    {
      "anonymous": false,
      "inputs": [
        {
          "indexed": false,
          "name": "balance",
          "type": "uint256"
        },
        {
          "indexed": false,
          "name": "time",
          "type": "uint256"
        }
      ],
      "name": "SignUpStarted",
      "type": "event"
    },
    {
      "anonymous": false,
      "inputs": [
        {
          "indexed": true,
          "name": "account",
          "type": "address"
        },
        {
          "indexed": false,
          "name": "amount",
          "type": "uint256"
        }
      ],
      "name": "BonusClaimed",
      "type": "event"
    },
    {
      "anonymous": false,
      "inputs": [
        {
          "indexed": true,
          "name": "previousOwner",
          "type": "address"
        },
        {
          "indexed": true,
          "name": "newOwner",
          "type": "address"
        }
      ],
      "name": "OwnershipTransferred",
      "type": "event"
    },
    {
      "anonymous": false,
      "inputs": [
        {
          "indexed": true,
          "name": "by",
          "type": "address"
        },
        {
          "indexed": false,
          "name": "time",
          "type": "uint256"
        }
      ],
      "name": "SchemeStarted",
      "type": "event"
    },
    {
      "anonymous": false,
      "inputs": [
        {
          "indexed": true,
          "name": "by",
          "type": "address"
        },
        {
          "indexed": false,
          "name": "time",
          "type": "uint256"
        }
      ],
      "name": "SchemeEnded",
      "type": "event"
    },
    {
      "constant": false,
      "inputs": [],
      "name": "start",
      "outputs": [],
      "payable": false,
      "stateMutability": "nonpayable",
      "type": "function"
    },
    {
      "constant": false,
      "inputs": [
        {
          "name": "",
          "type": "address"
        }
      ],
      "name": "end",
      "outputs": [],
      "payable": false,
      "stateMutability": "nonpayable",
      "type": "function"
    },
    {
      "constant": false,
      "inputs": [
        {
          "name": "_user",
          "type": "address"
        },
        {
          "name": "_amount",
          "type": "uint256"
        }
      ],
      "name": "awardUser",
      "outputs": [],
      "payable": false,
      "stateMutability": "nonpayable",
      "type": "function"
    }
  ],
  "bytecode": "0x608060405260048054600160a060020a03191690553480156200002157600080fd5b5060405160808062001ede833981018060405260808110156200004357600080fd5b5080516020820151604083015160609093015191929091828481814260028102808210620000bd576040517f08c379a000000000000000000000000000000000000000000000000000000000815260040180806020018281038252602681526020018062001eb86026913960400191505060405180910390fd5b600091825560015560028054600160a860020a0319166101003381029190911791829055604051600160a060020a03919092041691907f8be0079c531659141344cd1fd0a4f28419497f9722a3daafe3b4186f6b6457e0908290a360038054600160a060020a031916600160a060020a0383811691909117918290551615620001f957600360009054906101000a9004600160a060020a0316600160a060020a0316638da5cb5b6040518163ffffffff167c010000000000000000000000000000000000000000000000000000000002815260040160206040518083038186803b158015620001ab57600080fd5b505afa158015620001c0573d6000803e3d6000fd5b505050506040513d6020811015620001d757600080fd5b505160048054600160a060020a031916600160a060020a039092169190911790555b50600160a060020a03811615156200027257604080517f08c379a000000000000000000000000000000000000000000000000000000000815260206004820152601960248201527f537570706c696564206964656e74697479206973206e756c6c00000000000000604482015290519081900360640190fd5b60058054600160a060020a03909216600160a060020a031990921691909117905550506007919091556006555050611c0880620002b06000396000f3fe608060405234801561001057600080fd5b50600436106101045760003560e060020a900480638c4dd39d1161009b578063bd7fbbd61161006a578063bd7fbbd61461020f578063be9a65551461023b578063eda4e6d614610243578063f2fde38b1461024b57610104565b80638c4dd39d146101d15780638da5cb5b146101f75780638f32d59b146101ff5780639d0afd9d1461020757610104565b8063506ec095116100d7578063506ec0951461017957806354c5b6961461019357806360ee79381461019b578063715018a6146101c957610104565b8063086cfca814610109578063223668441461013157806322f3e2d4146101395780632c159a1a14610155575b600080fd5b61012f6004803603602081101561011f57600080fd5b5035600160a060020a0316610271565b005b61012f610519565b610141610646565b604080519115158252519081900360200190f35b61015d61064f565b60408051600160a060020a039092168252519081900360200190f35b61018161065e565b60408051918252519081900360200190f35b610181610664565b61012f600480360360408110156101b157600080fd5b50600160a060020a038135811691602001351661066a565b61012f6108ba565b61012f600480360360208110156101e757600080fd5b5035600160a060020a031661092a565b61015d610bf4565b610141610c08565b610181610c1e565b61012f6004803603604081101561022557600080fd5b50600160a060020a038135169060200135610c24565b61012f610f8f565b6101816114a4565b61012f6004803603602081101561026157600080fd5b5035600160a060020a03166114aa565b8033600160a060020a038216148015610381575030600160a060020a0316638da5cb5b6040518163ffffffff1660e060020a02815260040160206040518083038186803b1580156102c157600080fd5b505afa1580156102d5573d6000803e3d6000fd5b505050506040513d60208110156102eb57600080fd5b5051604080517f8da5cb5b0000000000000000000000000000000000000000000000000000000081529051600160a060020a0392831692841691638da5cb5b916004808301926020929190829003018186803b15801561034a57600080fd5b505afa15801561035e573d6000803e3d6000fd5b505050506040513d602081101561037457600080fd5b5051600160a060020a0316145b806103fb575030600160a060020a0316638da5cb5b6040518163ffffffff1660e060020a02815260040160206040518083038186803b1580156103c357600080fd5b505afa1580156103d7573d6000803e3d6000fd5b505050506040513d60208110156103ed57600080fd5b5051600160a060020a031633145b151561043b5760405160e560020a62461bcd028152600401808060200182810382526029815260200180611bb46029913960400191505060405180910390fd5b6003805473ffffffffffffffffffffffffffffffffffffffff1916600160a060020a038481169190911791829055604080517f8da5cb5b00000000000000000000000000000000000000000000000000000000815290519290911691638da5cb5b91600480820192602092909190829003018186803b1580156104bd57600080fd5b505afa1580156104d1573d6000803e3d6000fd5b505050506040513d60208110156104e757600080fd5b50516004805473ffffffffffffffffffffffffffffffffffffffff1916600160a060020a039092169190911790555050565b600354600160a060020a0316151561057b576040805160e560020a62461bcd02815260206004820152601160248201527f417661746172206973206e6f7420736574000000000000000000000000000000604482015290519081900360640190fd5b600480546003546040805160e060020a639be2faed0281523094810194909452600160a060020a03918216602485015251911691639be2faed916044808301926020929190829003018186803b1580156105d457600080fd5b505afa1580156105e8573d6000803e3d6000fd5b505050506040513d60208110156105fe57600080fd5b50511515610644576040805160e560020a62461bcd0281526020600482015260186024820152600080516020611b94833981519152604482015290519081900360640190fd5b565b60025460ff1681565b600554600160a060020a031681565b60015481565b60065481565b8033600160a060020a03821614801561077a575030600160a060020a0316638da5cb5b6040518163ffffffff1660e060020a02815260040160206040518083038186803b1580156106ba57600080fd5b505afa1580156106ce573d6000803e3d6000fd5b505050506040513d60208110156106e457600080fd5b5051604080517f8da5cb5b0000000000000000000000000000000000000000000000000000000081529051600160a060020a0392831692841691638da5cb5b916004808301926020929190829003018186803b15801561074357600080fd5b505afa158015610757573d6000803e3d6000fd5b505050506040513d602081101561076d57600080fd5b5051600160a060020a0316145b806107f4575030600160a060020a0316638da5cb5b6040518163ffffffff1660e060020a02815260040160206040518083038186803b1580156107bc57600080fd5b505afa1580156107d0573d6000803e3d6000fd5b505050506040513d60208110156107e657600080fd5b5051600160a060020a031633145b15156108345760405160e560020a62461bcd028152600401808060200182810382526029815260200180611bb46029913960400191505060405180910390fd5b82600160a060020a031663223668446040518163ffffffff1660e060020a02815260040160006040518083038186803b15801561087057600080fd5b505afa158015610884573d6000803e3d6000fd5b50506005805473ffffffffffffffffffffffffffffffffffffffff1916600160a060020a03969096169590951790945550505050565b6108c2610c08565b15156108cd57600080fd5b6002546040516000916101009004600160a060020a0316907f8be0079c531659141344cd1fd0a4f28419497f9722a3daafe3b4186f6b6457e0908390a36002805474ffffffffffffffffffffffffffffffffffffffff0019169055565b600554604080517fe5ecaf590000000000000000000000000000000000000000000000000000000081523360048201529051600160a060020a039092169163e5ecaf5991602480820192602092909190829003018186803b15801561098e57600080fd5b505afa1580156109a2573d6000803e3d6000fd5b505050506040513d60208110156109b857600080fd5b50511515610a10576040805160e560020a62461bcd02815260206004820152601160248201527f6e6f74204964656e7469747941646d696e000000000000000000000000000000604482015290519081900360640190fd5b600354604080517fe1758bd80000000000000000000000000000000000000000000000000000000081529051600092600160a060020a03169163e1758bd8916004808301926020929190829003018186803b158015610a6e57600080fd5b505afa158015610a82573d6000803e3d6000fd5b505050506040513d6020811015610a9857600080fd5b5051604080517f70a082310000000000000000000000000000000000000000000000000000000081523060048201529051919250600091600160a060020a038416916370a08231916024808301926020929190829003018186803b158015610aff57600080fd5b505afa158015610b13573d6000803e3d6000fd5b505050506040513d6020811015610b2957600080fd5b505190506000811115610bd257600354604080517fa9059cbb000000000000000000000000000000000000000000000000000000008152600160a060020a0392831660048201526024810184905290519184169163a9059cbb916044808201926020929091908290030181600087803b158015610ba557600080fd5b505af1158015610bb9573d6000803e3d6000fd5b505050506040513d6020811015610bcf57600080fd5b50505b610bda6114c9565b600354610bef90600160a060020a0316611777565b505050565b6002546101009004600160a060020a031690565b6002546101009004600160a060020a0316331490565b60075481565b60025460ff161515610c80576040805160e560020a62461bcd02815260206004820152600d60248201527f6973206e6f742061637469766500000000000000000000000000000000000000604482015290519081900360640190fd5b600554604080517fe5ecaf590000000000000000000000000000000000000000000000000000000081523360048201529051600160a060020a039092169163e5ecaf5991602480820192602092909190829003018186803b158015610ce457600080fd5b505afa158015610cf8573d6000803e3d6000fd5b505050506040513d6020811015610d0e57600080fd5b50511515610d66576040805160e560020a62461bcd02815260206004820152601160248201527f6e6f74204964656e7469747941646d696e000000000000000000000000000000604482015290519081900360640190fd5b600354604080517fe1758bd80000000000000000000000000000000000000000000000000000000081529051600092600160a060020a03169163e1758bd8916004808301926020929190829003018186803b158015610dc457600080fd5b505afa158015610dd8573d6000803e3d6000fd5b505050506040513d6020811015610dee57600080fd5b5051600654600160a060020a03851660009081526008602052604090205491925090610e20908463ffffffff61181e16565b1115610e76576040805160e560020a62461bcd02815260206004820152601c60248201527f43616e6e6f742061776172642075736572206265796f6e64206d617800000000604482015290519081900360640190fd5b600160a060020a038316600090815260086020526040902054610e9f908363ffffffff61181e16565b600160a060020a0380851660008181526008602090815260408083209590955584517fa9059cbb00000000000000000000000000000000000000000000000000000000815260048101939093526024830187905293519285169363a9059cbb93604480850194929391928390030190829087803b158015610f1f57600080fd5b505af1158015610f33573d6000803e3d6000fd5b505050506040513d6020811015610f4957600080fd5b5050604080518381529051600160a060020a038516917f4e69fdc49495bcab2b4375781457ba16653a90eb4ffb6588351bdc39071433e2919081900360200190a2505050565b600480546003546040805160e060020a639be2faed0281523094810194909452600160a060020a03918216602485015251911691639be2faed916044808301926020929190829003018186803b158015610fe857600080fd5b505afa158015610ffc573d6000803e3d6000fd5b505050506040513d602081101561101257600080fd5b50511515611058576040805160e560020a62461bcd0281526020600482015260186024820152600080516020611b94833981519152604482015290519081900360640190fd5b611060611837565b611068611940565b600354604080517fe1758bd80000000000000000000000000000000000000000000000000000000081529051600092600160a060020a03169163e1758bd8916004808301926020929190829003018186803b1580156110c657600080fd5b505afa1580156110da573d6000803e3d6000fd5b505050506040513d60208110156110f057600080fd5b5051600754909150600010156113dd57600354604080517f70a08231000000000000000000000000000000000000000000000000000000008152600160a060020a03928316600482015290516000928416916370a08231916024808301926020929190829003018186803b15801561116757600080fd5b505afa15801561117b573d6000803e3d6000fd5b505050506040513d602081101561119157600080fd5b50516007549091508110156111f0576040805160e560020a62461bcd02815260206004820152601960248201527f4e6f7420656e6f7567682066756e647320746f20737461727400000000000000604482015290519081900360640190fd5b600480546007546040805130602480830191909152604480830194909452825180830385018152606492830184526020810180517bffffffffffffffffffffffffffffffffffffffffffffffffffffffff167fa9059cbb0000000000000000000000000000000000000000000000000000000017815260035494517fd1b7089a000000000000000000000000000000000000000000000000000000008152600160a060020a038b8116998201998a5295861696810187905260009481018590526080938101938452825160848201528251959097169763d1b7089a978b9793969395949193919260a490910191808383885b838110156112fa5781810151838201526020016112e2565b50505050905090810190601f1680156113275780820380516001836020036101000a031916815260200191505b5095505050505050600060405180830381600087803b15801561134957600080fd5b505af115801561135d573d6000803e3d6000fd5b505050506040513d6000823e601f3d908101601f19168201604090815281101561138657600080fd5b8151602083018051919392830192916401000000008111156113a757600080fd5b820160208101848111156113ba57600080fd5b81516401000000008111828201871017156113d457600080fd5b50505050505050505b604080517f70a0823100000000000000000000000000000000000000000000000000000000815230600482015290517fa1769ec43d495e21f6131b09e38e916f9ba443a007237f5786530db04478507391600160a060020a038416916370a0823191602480820192602092909190829003018186803b15801561145f57600080fd5b505afa158015611473573d6000803e3d6000fd5b505050506040513d602081101561148957600080fd5b5051604080519182524260208301528051918290030190a150565b60005481565b6114b2610c08565b15156114bd57600080fd5b6114c681611b0a565b50565b600480546003546040805160e060020a639be2faed0281523094810194909452600160a060020a03918216602485015251911691639be2faed916044808301926020929190829003018186803b15801561152257600080fd5b505afa158015611536573d6000803e3d6000fd5b505050506040513d602081101561154c57600080fd5b50511515611592576040805160e560020a62461bcd0281526020600482015260186024820152600080516020611b94833981519152604482015290519081900360640190fd5b600480546005546040805130602480830191909152825180830382018152604492830184526020810180517bffffffffffffffffffffffffffffffffffffffffffffffffffffffff167fc375c2ef0000000000000000000000000000000000000000000000000000000017815260035494517fd1b7089a000000000000000000000000000000000000000000000000000000008152600160a060020a039687169881018981529587169481018590526000606482018190526080948201948552835160848301528351979098169863d1b7089a989097939690949093909260a49092019190808383885b8381101561169457818101518382015260200161167c565b50505050905090810190601f1680156116c15780820380516001836020036101000a031916815260200191505b5095505050505050600060405180830381600087803b1580156116e357600080fd5b505af11580156116f7573d6000803e3d6000fd5b505050506040513d6000823e601f3d908101601f19168201604090815281101561172057600080fd5b81516020830180519193928301929164010000000081111561174157600080fd5b8201602081018481111561175457600080fd5b815164010000000081118282018710171561176e57600080fd5b50505050505050565b60025460ff1615156117d3576040805160e560020a62461bcd02815260206004820152600d60248201527f6973206e6f742061637469766500000000000000000000000000000000000000604482015290519081900360640190fd5b6002805460ff1916905560408051428152905133917ef689ee9beb942c1c9c0d6642687ace05a9000d5f2979d344163c57829fa779919081900360200190a280600160a060020a0316ff5b60008282018381101561183057600080fd5b9392505050565b600054421015801561184a575060015442105b15156118a0576040805160e560020a62461bcd02815260206004820152600d60248201527f6e6f7420696e20706572696f6400000000000000000000000000000000000000604482015290519081900360640190fd5b60025460ff16156118fb576040805160e560020a62461bcd02815260206004820152601260248201527f63616e6e6f742073746172742074776963650000000000000000000000000000604482015290519081900360640190fd5b6002805460ff1916600117905560408051428152905133917f727dd98701807c5fdf715b9f1fd7d87461a558e2ab3e05935add76e42e330fa3919081900360200190a2565b600480546003546040805160e060020a639be2faed0281523094810194909452600160a060020a03918216602485015251911691639be2faed916044808301926020929190829003018186803b15801561199957600080fd5b505afa1580156119ad573d6000803e3d6000fd5b505050506040513d60208110156119c357600080fd5b50511515611a09576040805160e560020a62461bcd0281526020600482015260186024820152600080516020611b94833981519152604482015290519081900360640190fd5b600480546005546040805130602480830191909152825180830382018152604492830184526020810180517bffffffffffffffffffffffffffffffffffffffffffffffffffffffff167f5f539d690000000000000000000000000000000000000000000000000000000017815260035494517fd1b7089a000000000000000000000000000000000000000000000000000000008152600160a060020a039687169881018981529587169481018590526000606482018190526080948201948552835160848301528351979098169863d1b7089a989097939690949093909260a49092019190808383888381101561169457818101518382015260200161167c565b600160a060020a0381161515611b1f57600080fd5b600254604051600160a060020a0380841692610100900416907f8be0079c531659141344cd1fd0a4f28419497f9722a3daafe3b4186f6b6457e090600090a360028054600160a060020a039092166101000274ffffffffffffffffffffffffffffffffffffffff001990921691909117905556fe536368656d65206973206e6f74207265676973746572656400000000000000004f6e6c792063616c6c61626c6520627920617661746172206f66206f776e6572206f72206f776e6572a165627a7a72305820026d6166053077d282709de2b8732ef56b13e52730fd05b0a69db01dfa9d999c002973746172742063616e6e6f74206265206166746572206e6f7220657175616c20746f20656e64",
  "source": "pragma solidity 0.5.4;\n\nimport \"@daostack/arc/contracts/controller/Avatar.sol\";\nimport \"@daostack/arc/contracts/controller/ControllerInterface.sol\";\n\nimport \"openzeppelin-solidity/contracts/math/SafeMath.sol\";\n\nimport \"../../identity/IdentityGuard.sol\";\nimport \"../../token/GoodDollar.sol\";\nimport \"./ActivePeriod.sol\";\nimport \"./FeelessScheme.sol\";\nimport \"./SchemeGuard.sol\";\n\n/* @title Sign-Up bonus scheme responsible for minting\n * a given amount to users\n */\ncontract SignUpBonus is ActivePeriod, FeelessScheme {\n    using SafeMath for uint256;\n\n    uint256 public maxBonus;\n    uint256 public initalReserve;\n\n    mapping(address => uint256) rewarded;\n\n    event SignUpStarted(uint256 balance, uint time);\n    event BonusClaimed(address indexed account, uint256 amount);\n\n    constructor(\n        Avatar _avatar,\n        Identity _identity,\n        uint256 _initalReserve,\n        uint256 _maxBonus\n    )\n        public\n        ActivePeriod(now, now * 2)\n        FeelessScheme(_identity, _avatar)\n    {\n        initalReserve = _initalReserve;\n        maxBonus = _maxBonus;\n    }\n\n    function start() public onlyRegistered {\n        super.start();\n        addRights();\n\n        DAOToken token = avatar.nativeToken();\n\n        if ( initalReserve > 0) {\n            uint256 reserve = token.balanceOf(address(avatar));\n\n            require(reserve >= initalReserve, \"Not enough funds to start\");\n\n            controller.genericCall(\n                address(token),\n                abi.encodeWithSignature(\"transfer(address,uint256)\", address(this), initalReserve),\n                avatar,\n                0\n            );\n        }\n        emit SignUpStarted(token.balanceOf(address(this)), now);\n    }\n\n    function end(Avatar /*_avatar*/) public onlyIdentityAdmin {\n        DAOToken token = avatar.nativeToken();\n\n        uint256 remainingReserve = token.balanceOf(address(this));\n        if (remainingReserve > 0) {\n            token.transfer(address(avatar), remainingReserve);\n        }\n\n        removeRights();\n        super.internalEnd(avatar);\n    }\n\n    function awardUser(address _user, uint256 _amount) public requireActive onlyIdentityAdmin {\n        GoodDollar token = GoodDollar(address(avatar.nativeToken()));\n        require(rewarded[_user].add(_amount) <= maxBonus, \"Cannot award user beyond max\");\n\n        rewarded[_user] = rewarded[_user].add(_amount);\n        token.transfer(_user, _amount);\n\n        emit BonusClaimed(_user, _amount);\n    }\n }",
  "sourcePath": "/Users/hadar/workspace/GoodDollar/GoodBootstrap/packages/contracts/contracts/dao/schemes/SignUpBonus.sol",
  "compiler": {
    "name": "solc",
    "version": "0.5.4+commit.9549d8ff.Emscripten.clang"
  },
  "schemaVersion": "3.0.16",
  "updatedAt": "2019-10-28T16:48:56.012Z",
  "devdoc": {
    "methods": {
      "isOwner()": {
        "return": "true if `msg.sender` is the owner of the contract."
      },
      "owner()": {
        "return": "the address of the owner."
      },
      "renounceOwnership()": {
        "details": "Allows the current owner to relinquish control of the contract."
      },
      "transferOwnership(address)": {
        "details": "Allows the current owner to transfer control of the contract to a newOwner.",
        "params": {
          "newOwner": "The address to transfer ownership to."
        }
      }
    }
  },
  "userdoc": {
    "methods": {
      "renounceOwnership()": {
        "notice": "Renouncing to ownership will leave the contract without an owner. It will not be possible to call the functions with the `onlyOwner` modifier anymore."
      }
    }
  }
}