{
  "contractName": "TransferAndCallMock",
  "abi": [
    {
      "constant": true,
      "inputs": [],
      "name": "calledFallback",
      "outputs": [
        {
          "name": "",
          "type": "bool"
        }
      ],
      "payable": false,
      "stateMutability": "view",
      "type": "function"
    },
    {
      "constant": true,
      "inputs": [],
      "name": "value",
      "outputs": [
        {
          "name": "",
          "type": "uint256"
        }
      ],
      "payable": false,
      "stateMutability": "view",
      "type": "function"
    },
    {
      "constant": true,
      "inputs": [],
      "name": "sender",
      "outputs": [
        {
          "name": "",
          "type": "address"
        }
      ],
      "payable": false,
      "stateMutability": "view",
      "type": "function"
    },
    {
      "constant": false,
      "inputs": [
        {
          "name": "_sender",
          "type": "address"
        },
        {
          "name": "_value",
          "type": "uint256"
        },
        {
          "name": "_data",
          "type": "bytes"
        }
      ],
      "name": "onTokenTransfer",
      "outputs": [
        {
          "name": "",
          "type": "bool"
        }
      ],
      "payable": false,
      "stateMutability": "nonpayable",
      "type": "function"
    },
    {
      "constant": false,
      "inputs": [],
      "name": "mockTransfer",
      "outputs": [
        {
          "name": "",
          "type": "bool"
        }
      ],
      "payable": false,
      "stateMutability": "nonpayable",
      "type": "function"
    },
    {
      "constant": true,
      "inputs": [],
      "name": "wasCalled",
      "outputs": [
        {
          "name": "",
          "type": "bool"
        }
      ],
      "payable": false,
      "stateMutability": "view",
      "type": "function"
    }
  ],
  "bytecode": "0x60806040526002805460ff1916905534801561001a57600080fd5b506102a38061002a6000396000f3fe608060405234801561001057600080fd5b506004361061007e577c01000000000000000000000000000000000000000000000000000000006000350463390f642681146100835780633fa4f2451461009f5780634554d23e146100b957806367e404ce146100c1578063a4c0ed36146100f2578063c680362214610184575b600080fd5b61008b61018c565b604080519115158252519081900360200190f35b6100a7610195565b60408051918252519081900360200190f35b61008b61019b565b6100c96101ae565b6040805173ffffffffffffffffffffffffffffffffffffffff9092168252519081900360200190f35b61008b6004803603606081101561010857600080fd5b73ffffffffffffffffffffffffffffffffffffffff8235169160208101359181019060608101604082013564010000000081111561014557600080fd5b82018360208201111561015757600080fd5b8035906020019184600183028401116401000000008311171561017957600080fd5b5090925090506101ca565b61008b61026e565b60025460ff1681565b60015481565b6002805460ff1916600190811790915590565b60005473ffffffffffffffffffffffffffffffffffffffff1681565b6000805473ffffffffffffffffffffffffffffffffffffffff191673ffffffffffffffffffffffffffffffffffffffff861617815560018490556040518190309085908590808383808284376040519201945060009350909150508083038183865af19150503d806000811461025c576040519150601f19603f3d011682016040523d82523d6000602084013e610261565b606091505b5090979650505050505050565b60025460ff169056fea165627a7a72305820d8a5eb6549ad355d6e6a9d0586d07b114afaeac119db4970fc841d1318a26e900029",
  "source": "pragma solidity 0.5.4;\n\nimport \"../token/ERC677/ERC677Receiver.sol\";\n\ncontract TransferAndCallMock is ERC677Receiver {\n    address public sender;\n    uint256 public value;\n\n    bool public calledFallback = false;\n\n    function onTokenTransfer(address _sender, uint256 _value, bytes calldata _data)\n        external\n        returns(bool)\n    {\n        sender = _sender;\n        value = _value;\n\n        (bool res,) = address(this).call(_data);\n        return res;\n    }\n\n    function mockTransfer() public returns (bool) {\n        calledFallback = true;\n        return true;\n    }\n\n    function wasCalled() public view returns(bool) {\n        return calledFallback;\n    }\n}",
  "sourcePath": "/Users/hadar/workspace/GoodDollar/GoodBootstrap/packages/contracts/contracts/mocks/TransferAndCallMock.sol",
  "compiler": {
    "name": "solc",
    "version": "0.5.4+commit.9549d8ff.Emscripten.clang"
  },
  "schemaVersion": "3.0.16",
  "updatedAt": "2020-03-30T19:38:08.036Z",
  "devdoc": {
    "methods": {}
  },
  "userdoc": {
    "methods": {}
  }
}