{
  "contractName": "TransferAndCallMock",
  "abi": [
    {
      "constant": true,
      "inputs": [],
      "name": "calledFallback",
      "outputs": [
        {
          "internalType": "bool",
          "name": "",
          "type": "bool"
        }
      ],
      "payable": false,
      "stateMutability": "view",
      "type": "function"
    },
    {
      "constant": true,
      "inputs": [],
      "name": "sender",
      "outputs": [
        {
          "internalType": "address",
          "name": "",
          "type": "address"
        }
      ],
      "payable": false,
      "stateMutability": "view",
      "type": "function"
    },
    {
      "constant": true,
      "inputs": [],
      "name": "value",
      "outputs": [
        {
          "internalType": "uint256",
          "name": "",
          "type": "uint256"
        }
      ],
      "payable": false,
      "stateMutability": "view",
      "type": "function"
    },
    {
      "constant": false,
      "inputs": [
        {
          "internalType": "address",
          "name": "_sender",
          "type": "address"
        },
        {
          "internalType": "uint256",
          "name": "_value",
          "type": "uint256"
        },
        {
          "internalType": "bytes",
          "name": "_data",
          "type": "bytes"
        }
      ],
      "name": "onTokenTransfer",
      "outputs": [
        {
          "internalType": "bool",
          "name": "",
          "type": "bool"
        }
      ],
      "payable": false,
      "stateMutability": "nonpayable",
      "type": "function"
    },
    {
      "constant": false,
      "inputs": [],
      "name": "mockTransfer",
      "outputs": [
        {
          "internalType": "bool",
          "name": "",
          "type": "bool"
        }
      ],
      "payable": false,
      "stateMutability": "nonpayable",
      "type": "function"
    },
    {
      "constant": true,
      "inputs": [],
      "name": "wasCalled",
      "outputs": [
        {
          "internalType": "bool",
          "name": "",
          "type": "bool"
        }
      ],
      "payable": false,
      "stateMutability": "view",
      "type": "function"
    }
  ],
  "bytecode": "0x60806040526002805460ff1916905534801561001a57600080fd5b5061024f8061002a6000396000f3fe608060405234801561001057600080fd5b50600436106100625760003560e01c8063390f6426146100675780633fa4f245146100835780634554d23e1461009d57806367e404ce146100a5578063a4c0ed36146100c9578063c68036221461014e575b600080fd5b61006f610156565b604080519115158252519081900360200190f35b61008b61015f565b60408051918252519081900360200190f35b61006f610165565b6100ad610178565b604080516001600160a01b039092168252519081900360200190f35b61006f600480360360608110156100df57600080fd5b6001600160a01b038235169160208101359181019060608101604082013564010000000081111561010f57600080fd5b82018360208201111561012157600080fd5b8035906020019184600183028401116401000000008311171561014357600080fd5b509092509050610187565b61006f610211565b60025460ff1681565b60015481565b6002805460ff1916600190811790915590565b6000546001600160a01b031681565b600080546001600160a01b0319166001600160a01b03861617815560018490556040518190309085908590808383808284376040519201945060009350909150508083038183865af19150503d80600081146101ff576040519150601f19603f3d011682016040523d82523d6000602084013e610204565b606091505b5090979650505050505050565b60025460ff169056fea265627a7a72315820b14b53ac334bf487ed5e682282f783e63902a7ef1f67274292945094c27c330e64736f6c63430005100032",
  "source": "pragma solidity >0.5.4;\n\nimport \"../token/ERC677/ERC677Receiver.sol\";\n\ncontract TransferAndCallMock is ERC677Receiver {\n    address public sender;\n    uint256 public value;\n\n    bool public calledFallback = false;\n\n    function onTokenTransfer(\n        address _sender,\n        uint256 _value,\n        bytes calldata _data\n    ) external returns (bool) {\n        sender = _sender;\n        value = _value;\n\n        (bool res, ) = address(this).call(_data);\n        return res;\n    }\n\n    function mockTransfer() public returns (bool) {\n        calledFallback = true;\n        return true;\n    }\n\n    function wasCalled() public view returns (bool) {\n        return calledFallback;\n    }\n}\n",
  "sourcePath": "/Users/hadar/workspace/GoodDollar/GoodBootstrap/packages/contracts/contracts/mocks/TransferAndCallMock.sol",
  "compiler": {
    "name": "solc",
    "version": "0.5.16+commit.9c3226ce.Emscripten.clang"
  },
  "schemaVersion": "3.2.3",
  "updatedAt": "2022-10-27T11:34:11.247Z",
  "devdoc": {
    "methods": {}
  },
  "userdoc": {
    "methods": {}
  }
}