{
  "contractName": "UBI",
  "abi": [
    {
      "constant": true,
      "inputs": [
        {
          "name": "",
          "type": "address"
        }
      ],
      "name": "lastClaimed",
      "outputs": [
        {
          "name": "",
          "type": "uint256"
        }
      ],
      "payable": false,
      "stateMutability": "view",
      "type": "function"
    },
    {
      "constant": true,
      "inputs": [],
      "name": "getDailyStats",
      "outputs": [
        {
          "name": "count",
          "type": "uint256"
        },
        {
          "name": "amount",
          "type": "uint256"
        }
      ],
      "payable": false,
      "stateMutability": "view",
      "type": "function"
    },
    {
      "constant": false,
      "inputs": [
        {
          "name": "_avatar",
          "type": "address"
        }
      ],
      "name": "setAvatar",
      "outputs": [],
      "payable": false,
      "stateMutability": "nonpayable",
      "type": "function"
    },
    {
      "constant": true,
      "inputs": [],
      "name": "isRegistered",
      "outputs": [],
      "payable": false,
      "stateMutability": "view",
      "type": "function"
    },
    {
      "constant": true,
      "inputs": [],
      "name": "isActive",
      "outputs": [
        {
          "name": "",
          "type": "bool"
        }
      ],
      "payable": false,
      "stateMutability": "view",
      "type": "function"
    },
    {
      "constant": true,
      "inputs": [],
      "name": "identity",
      "outputs": [
        {
          "name": "",
          "type": "address"
        }
      ],
      "payable": false,
      "stateMutability": "view",
      "type": "function"
    },
    {
      "constant": false,
      "inputs": [],
      "name": "claim",
      "outputs": [
        {
          "name": "",
          "type": "bool"
        }
      ],
      "payable": false,
      "stateMutability": "nonpayable",
      "type": "function"
    },
    {
      "constant": true,
      "inputs": [],
      "name": "periodEnd",
      "outputs": [
        {
          "name": "",
          "type": "uint256"
        }
      ],
      "payable": false,
      "stateMutability": "view",
      "type": "function"
    },
    {
      "constant": true,
      "inputs": [],
      "name": "currentDay",
      "outputs": [
        {
          "name": "",
          "type": "uint256"
        }
      ],
      "payable": false,
      "stateMutability": "view",
      "type": "function"
    },
    {
      "constant": false,
      "inputs": [
        {
          "name": "_identity",
          "type": "address"
        },
        {
          "name": "_avatar",
          "type": "address"
        }
      ],
      "name": "setIdentity",
      "outputs": [],
      "payable": false,
      "stateMutability": "nonpayable",
      "type": "function"
    },
    {
      "constant": false,
      "inputs": [],
      "name": "renounceOwnership",
      "outputs": [],
      "payable": false,
      "stateMutability": "nonpayable",
      "type": "function"
    },
    {
      "constant": true,
      "inputs": [],
      "name": "claimDistribution",
      "outputs": [
        {
          "name": "",
          "type": "uint256"
        }
      ],
      "payable": false,
      "stateMutability": "view",
      "type": "function"
    },
    {
      "constant": false,
      "inputs": [
        {
          "name": "",
          "type": "address"
        }
      ],
      "name": "end",
      "outputs": [],
      "payable": false,
      "stateMutability": "nonpayable",
      "type": "function"
    },
    {
      "constant": true,
      "inputs": [],
      "name": "owner",
      "outputs": [
        {
          "name": "",
          "type": "address"
        }
      ],
      "payable": false,
      "stateMutability": "view",
      "type": "function"
    },
    {
      "constant": true,
      "inputs": [],
      "name": "isOwner",
      "outputs": [
        {
          "name": "",
          "type": "bool"
        }
      ],
      "payable": false,
      "stateMutability": "view",
      "type": "function"
    },
    {
      "constant": true,
      "inputs": [
        {
          "name": "day",
          "type": "uint256"
        }
      ],
      "name": "getClaimerCount",
      "outputs": [
        {
          "name": "",
          "type": "uint256"
        }
      ],
      "payable": false,
      "stateMutability": "view",
      "type": "function"
    },
    {
      "constant": true,
      "inputs": [
        {
          "name": "day",
          "type": "uint256"
        }
      ],
      "name": "getClaimAmount",
      "outputs": [
        {
          "name": "",
          "type": "uint256"
        }
      ],
      "payable": false,
      "stateMutability": "view",
      "type": "function"
    },
    {
      "constant": true,
      "inputs": [],
      "name": "lastCalc",
      "outputs": [
        {
          "name": "",
          "type": "uint256"
        }
      ],
      "payable": false,
      "stateMutability": "view",
      "type": "function"
    },
    {
      "constant": true,
      "inputs": [],
      "name": "periodStart",
      "outputs": [
        {
          "name": "",
          "type": "uint256"
        }
      ],
      "payable": false,
      "stateMutability": "view",
      "type": "function"
    },
    {
      "constant": false,
      "inputs": [
        {
          "name": "newOwner",
          "type": "address"
        }
      ],
      "name": "transferOwnership",
      "outputs": [],
      "payable": false,
      "stateMutability": "nonpayable",
      "type": "function"
    },
    {
      "inputs": [
        {
          "name": "_avatar",
          "type": "address"
        },
        {
          "name": "_identity",
          "type": "address"
        },
        {
          "name": "_initialReserve",
          "type": "uint256"
        },
        {
          "name": "_periodStart",
          "type": "uint256"
        },
        {
          "name": "_periodEnd",
          "type": "uint256"
        }
      ],
      "payable": false,
      "stateMutability": "nonpayable",
      "type": "constructor"
    },
    {
      "anonymous": false,
      "inputs": [
        {
          "indexed": false,
          "name": "balance",
          "type": "uint256"
        },
        {
          "indexed": false,
          "name": "time",
          "type": "uint256"
        }
      ],
      "name": "UBIStarted",
      "type": "event"
    },
    {
      "anonymous": false,
      "inputs": [
        {
          "indexed": true,
          "name": "claimer",
          "type": "address"
        },
        {
          "indexed": false,
          "name": "amount",
          "type": "uint256"
        }
      ],
      "name": "UBIClaimed",
      "type": "event"
    },
    {
      "anonymous": false,
      "inputs": [
        {
          "indexed": false,
          "name": "claimers",
          "type": "uint256"
        },
        {
          "indexed": false,
          "name": "claimamount",
          "type": "uint256"
        }
      ],
      "name": "UBIEnded",
      "type": "event"
    },
    {
      "anonymous": false,
      "inputs": [
        {
          "indexed": true,
          "name": "previousOwner",
          "type": "address"
        },
        {
          "indexed": true,
          "name": "newOwner",
          "type": "address"
        }
      ],
      "name": "OwnershipTransferred",
      "type": "event"
    },
    {
      "anonymous": false,
      "inputs": [
        {
          "indexed": true,
          "name": "by",
          "type": "address"
        },
        {
          "indexed": false,
          "name": "time",
          "type": "uint256"
        }
      ],
      "name": "SchemeStarted",
      "type": "event"
    },
    {
      "anonymous": false,
      "inputs": [
        {
          "indexed": true,
          "name": "by",
          "type": "address"
        },
        {
          "indexed": false,
          "name": "time",
          "type": "uint256"
        }
      ],
      "name": "SchemeEnded",
      "type": "event"
    },
    {
      "constant": false,
      "inputs": [],
      "name": "start",
      "outputs": [],
      "payable": false,
      "stateMutability": "nonpayable",
      "type": "function"
    }
  ],
  "bytecode": "0x608060405260048054600160a060020a03191690553480156200002157600080fd5b5060405160a0806200224c833981018060405260a08110156200004357600080fd5b508051602082015160408301516060840151608090940151929391929091908484848484838581818585808210620000c7576040517f08c379a0000000000000000000000000000000000000000000000000000000008152600401808060200182810382526026815260200180620022266026913960400191505060405180910390fd5b600091825560015560028054600160a860020a0319166101003381029190911791829055604051600160a060020a03919092041691907f8be0079c531659141344cd1fd0a4f28419497f9722a3daafe3b4186f6b6457e0908290a360038054600160a060020a031916600160a060020a03838116919091179182905516156200020357600360009054906101000a9004600160a060020a0316600160a060020a0316638da5cb5b6040518163ffffffff167c010000000000000000000000000000000000000000000000000000000002815260040160206040518083038186803b158015620001b557600080fd5b505afa158015620001ca573d6000803e3d6000fd5b505050506040513d6020811015620001e157600080fd5b505160048054600160a060020a031916600160a060020a039092169190911790555b50600160a060020a03811615156200027c57604080517f08c379a000000000000000000000000000000000000000000000000000000000815260206004820152601960248201527f537570706c696564206964656e74697479206973206e756c6c00000000000000604482015290519081900360640190fd5b60058054600160a060020a03909216600160a060020a03199092169190911790555050506006919091555050505050505050611f6880620002be6000396000f3fe608060405234801561001057600080fd5b506004361061013b5760003560e060020a90048063715018a6116100bc578063be9a655511610080578063be9a655514610295578063c7a76adf1461029d578063cef63600146102ba578063e6a847a6146102d7578063eda4e6d6146102df578063f2fde38b146102e75761013b565b8063715018a61461024f578063884a41be146102575780638c4dd39d1461025f5780638da5cb5b146102855780638f32d59b1461028d5761013b565b80632c159a1a116101035780632c159a1a146101e55780634e71d92d14610209578063506ec095146102115780635c9302c91461021957806360ee7938146102215761013b565b8063013eba9214610140578063069786ea14610178578063086cfca81461019957806322366844146101c157806322f3e2d4146101c9575b600080fd5b6101666004803603602081101561015657600080fd5b5035600160a060020a031661030d565b60408051918252519081900360200190f35b61018061031f565b6040805192835260208301919091528051918290030190f35b6101bf600480360360208110156101af57600080fd5b5035600160a060020a0316610340565b005b6101bf6105e8565b6101d1610715565b604080519115158252519081900360200190f35b6101ed61071e565b60408051600160a060020a039092168252519081900360200190f35b6101d161072d565b610166610bc8565b610166610bce565b6101bf6004803603604081101561023757600080fd5b50600160a060020a0381358116916020013516610bd4565b6101bf610e24565b610166610e94565b6101bf6004803603602081101561027557600080fd5b5035600160a060020a0316610e9a565b6101ed6110ac565b6101d16110c0565b6101bf6110d6565b610166600480360360208110156102b357600080fd5b50356111db565b610166600480360360208110156102d057600080fd5b50356111f0565b610166611205565b61016661120b565b6101bf600480360360208110156102fd57600080fd5b5035600160a060020a0316611211565b60096020526000908152604090205481565b60008061032d600a546111db565b610338600a546111f0565b915091509091565b8033600160a060020a038216148015610450575030600160a060020a0316638da5cb5b6040518163ffffffff1660e060020a02815260040160206040518083038186803b15801561039057600080fd5b505afa1580156103a4573d6000803e3d6000fd5b505050506040513d60208110156103ba57600080fd5b5051604080517f8da5cb5b0000000000000000000000000000000000000000000000000000000081529051600160a060020a0392831692841691638da5cb5b916004808301926020929190829003018186803b15801561041957600080fd5b505afa15801561042d573d6000803e3d6000fd5b505050506040513d602081101561044357600080fd5b5051600160a060020a0316145b806104ca575030600160a060020a0316638da5cb5b6040518163ffffffff1660e060020a02815260040160206040518083038186803b15801561049257600080fd5b505afa1580156104a6573d6000803e3d6000fd5b505050506040513d60208110156104bc57600080fd5b5051600160a060020a031633145b151561050a5760405160e560020a62461bcd028152600401808060200182810382526029815260200180611f146029913960400191505060405180910390fd5b6003805473ffffffffffffffffffffffffffffffffffffffff1916600160a060020a038481169190911791829055604080517f8da5cb5b00000000000000000000000000000000000000000000000000000000815290519290911691638da5cb5b91600480820192602092909190829003018186803b15801561058c57600080fd5b505afa1580156105a0573d6000803e3d6000fd5b505050506040513d60208110156105b657600080fd5b50516004805473ffffffffffffffffffffffffffffffffffffffff1916600160a060020a039092169190911790555050565b600354600160a060020a0316151561064a576040805160e560020a62461bcd02815260206004820152601160248201527f417661746172206973206e6f7420736574000000000000000000000000000000604482015290519081900360640190fd5b600480546003546040805160e060020a639be2faed0281523094810194909452600160a060020a03918216602485015251911691639be2faed916044808301926020929190829003018186803b1580156106a357600080fd5b505afa1580156106b7573d6000803e3d6000fd5b505050506040513d60208110156106cd57600080fd5b50511515610713576040805160e560020a62461bcd0281526020600482015260186024820152600080516020611ef4833981519152604482015290519081900360640190fd5b565b60025460ff1681565b600554600160a060020a031681565b60025460009060ff16151561078c576040805160e560020a62461bcd02815260206004820152600d60248201527f6973206e6f742061637469766500000000000000000000000000000000000000604482015290519081900360640190fd5b600554604080517f3af32abf0000000000000000000000000000000000000000000000000000000081523360048201529051600160a060020a0390921691633af32abf91602480820192602092909190829003018186803b1580156107f057600080fd5b505afa158015610804573d6000803e3d6000fd5b505050506040513d602081101561081a57600080fd5b50511515610872576040805160e560020a62461bcd02815260206004820152601260248201527f6973206e6f742077686974656c69737465640000000000000000000000000000604482015290519081900360640190fd5b600054600554604080517f993d222600000000000000000000000000000000000000000000000000000000815233600482015290518392600160a060020a03169163993d2226916024808301926020929190829003018186803b1580156108d857600080fd5b505afa1580156108ec573d6000803e3d6000fd5b505050506040513d602081101561090257600080fd5b5051111561095a576040805160e560020a62461bcd02815260206004820152601b60248201527f576173206e6f742061646465642077697468696e20706572696f640000000000604482015290519081900360640190fd5b600a54600090815260086020908152604080832033845290915290205460ff16156109cf576040805160e560020a62461bcd02815260206004820152601360248201527f68617320616c726561647920636c61696d656400000000000000000000000000604482015290519081900360640190fd5b6003546040805160e360020a631c2eb17b0281529051600092600160a060020a03169163e1758bd8916004808301926020929190829003018186803b158015610a1757600080fd5b505afa158015610a2b573d6000803e3d6000fd5b505050506040513d6020811015610a4157600080fd5b5051600a54600090815260086020908152604080832033808552908352818420805460ff1916600117905560075482517fa9059cbb000000000000000000000000000000000000000000000000000000008152600481019290925260248201529051939450600160a060020a0385169363a9059cbb93604480840194938390030190829087803b158015610ad457600080fd5b505af1158015610ae8573d6000803e3d6000fd5b505050506040513d6020811015610afe57600080fd5b5050600a546000908152600860205260409020600190810154610b269163ffffffff61123016565b600a805460009081526008602052604080822060010193909355600754915481529190912060020154610b5e9163ffffffff61123016565b600a546000908152600860209081526040808320600201939093553380835260098252918390204290556007548351908152925191927f89ed24731df6b066e4c5186901fffdba18cd9a10f07494aff900bdee260d1304929081900390910190a260019250505090565b60015481565b600a5481565b8033600160a060020a038216148015610ce4575030600160a060020a0316638da5cb5b6040518163ffffffff1660e060020a02815260040160206040518083038186803b158015610c2457600080fd5b505afa158015610c38573d6000803e3d6000fd5b505050506040513d6020811015610c4e57600080fd5b5051604080517f8da5cb5b0000000000000000000000000000000000000000000000000000000081529051600160a060020a0392831692841691638da5cb5b916004808301926020929190829003018186803b158015610cad57600080fd5b505afa158015610cc1573d6000803e3d6000fd5b505050506040513d6020811015610cd757600080fd5b5051600160a060020a0316145b80610d5e575030600160a060020a0316638da5cb5b6040518163ffffffff1660e060020a02815260040160206040518083038186803b158015610d2657600080fd5b505afa158015610d3a573d6000803e3d6000fd5b505050506040513d6020811015610d5057600080fd5b5051600160a060020a031633145b1515610d9e5760405160e560020a62461bcd028152600401808060200182810382526029815260200180611f146029913960400191505060405180910390fd5b82600160a060020a031663223668446040518163ffffffff1660e060020a02815260040160006040518083038186803b158015610dda57600080fd5b505afa158015610dee573d6000803e3d6000fd5b50506005805473ffffffffffffffffffffffffffffffffffffffff1916600160a060020a03969096169590951790945550505050565b610e2c6110c0565b1515610e3757600080fd5b6002546040516000916101009004600160a060020a0316907f8be0079c531659141344cd1fd0a4f28419497f9722a3daafe3b4186f6b6457e0908390a36002805474ffffffffffffffffffffffffffffffffffffffff0019169055565b60075481565b600154421015610ef4576040805160e560020a62461bcd02815260206004820152601460248201527f706572696f6420686173206e6f7420656e646564000000000000000000000000604482015290519081900360640190fd5b6003546040805160e360020a631c2eb17b0281529051600092600160a060020a03169163e1758bd8916004808301926020929190829003018186803b158015610f3c57600080fd5b505afa158015610f50573d6000803e3d6000fd5b505050506040513d6020811015610f6657600080fd5b50516040805160e060020a6370a082310281523060048201529051919250600091600160a060020a038416916370a08231916024808301926020929190829003018186803b158015610fb757600080fd5b505afa158015610fcb573d6000803e3d6000fd5b505050506040513d6020811015610fe157600080fd5b50519050600081111561108a57600354604080517fa9059cbb000000000000000000000000000000000000000000000000000000008152600160a060020a0392831660048201526024810184905290519184169163a9059cbb916044808201926020929091908290030181600087803b15801561105d57600080fd5b505af1158015611071573d6000803e3d6000fd5b505050506040513d602081101561108757600080fd5b50505b611092611249565b6003546110a790600160a060020a03166114f7565b505050565b6002546101009004600160a060020a031690565b6002546101009004600160a060020a0316331490565b6110de61155a565b6003546040805160e360020a631c2eb17b0281529051600092600160a060020a03169163e1758bd8916004808301926020929190829003018186803b15801561112657600080fd5b505afa15801561113a573d6000803e3d6000fd5b505050506040513d602081101561115057600080fd5b50516040805160e060020a6370a0823102815230600482015290519192506111d591600160a060020a038416916370a08231916024808301926020929190829003018186803b1580156111a257600080fd5b505afa1580156111b6573d6000803e3d6000fd5b505050506040513d60208110156111cc57600080fd5b50516000611a32565b60075550565b60009081526008602052604090206001015490565b60009081526008602052604090206002015490565b600b5481565b60005481565b6112196110c0565b151561122457600080fd5b61122d81611acc565b50565b60008282018381101561124257600080fd5b9392505050565b600480546003546040805160e060020a639be2faed0281523094810194909452600160a060020a03918216602485015251911691639be2faed916044808301926020929190829003018186803b1580156112a257600080fd5b505afa1580156112b6573d6000803e3d6000fd5b505050506040513d60208110156112cc57600080fd5b50511515611312576040805160e560020a62461bcd0281526020600482015260186024820152600080516020611ef4833981519152604482015290519081900360640190fd5b600480546005546040805130602480830191909152825180830382018152604492830184526020810180517bffffffffffffffffffffffffffffffffffffffffffffffffffffffff167fc375c2ef0000000000000000000000000000000000000000000000000000000017815260035494517fd1b7089a000000000000000000000000000000000000000000000000000000008152600160a060020a039687169881018981529587169481018590526000606482018190526080948201948552835160848301528351979098169863d1b7089a989097939690949093909260a49092019190808383885b838110156114145781810151838201526020016113fc565b50505050905090810190601f1680156114415780820380516001836020036101000a031916815260200191505b5095505050505050600060405180830381600087803b15801561146357600080fd5b505af1158015611477573d6000803e3d6000fd5b505050506040513d6000823e601f3d908101601f1916820160409081528110156114a057600080fd5b8151602083018051919392830192916401000000008111156114c157600080fd5b820160208101848111156114d457600080fd5b81516401000000008111828201871017156114ee57600080fd5b50505050505050565b600154421015611551576040805160e560020a62461bcd02815260206004820152601460248201527f706572696f6420686173206e6f7420656e646564000000000000000000000000604482015290519081900360640190fd5b61122d81611b55565b600480546003546040805160e060020a639be2faed0281523094810194909452600160a060020a03918216602485015251911691639be2faed916044808301926020929190829003018186803b1580156115b357600080fd5b505afa1580156115c7573d6000803e3d6000fd5b505050506040513d60208110156115dd57600080fd5b50511515611623576040805160e560020a62461bcd0281526020600482015260186024820152600080516020611ef4833981519152604482015290519081900360640190fd5b61162b611bfc565b611633611d05565b6000600a81905542600b556003546040805160e360020a631c2eb17b0281529051600160a060020a039092169163e1758bd891600480820192602092909190829003018186803b15801561168657600080fd5b505afa15801561169a573d6000803e3d6000fd5b505050506040513d60208110156116b057600080fd5b505160065490915060001015611981576003546040805160e060020a6370a08231028152600160a060020a0392831660048201529051918316916370a0823191602480820192602092909190829003018186803b15801561171057600080fd5b505afa158015611724573d6000803e3d6000fd5b505050506040513d602081101561173a57600080fd5b50516006541115611795576040805160e560020a62461bcd02815260206004820152601960248201527f4e6f7420656e6f7567682066756e647320746f20737461727400000000000000604482015290519081900360640190fd5b600480546006546040805130602480830191909152604480830194909452825180830385018152606492830184526020810180517bffffffffffffffffffffffffffffffffffffffffffffffffffffffff167fa9059cbb0000000000000000000000000000000000000000000000000000000017815260035494517fd1b7089a000000000000000000000000000000000000000000000000000000008152600160a060020a038a8116998201998a5295861696810187905260009481018590526080938101938452825160848201528251959097169763d1b7089a978a9793969395949193919260a490910191808383885b8381101561189f578181015183820152602001611887565b50505050905090810190601f1680156118cc5780820380516001836020036101000a031916815260200191505b5095505050505050600060405180830381600087803b1580156118ee57600080fd5b505af1158015611902573d6000803e3d6000fd5b505050506040513d6000823e601f3d908101601f19168201604090815281101561192b57600080fd5b81516020830180519193928301929164010000000081111561194c57600080fd5b8201602081018481111561195f57600080fd5b815164010000000081118282018710171561197957600080fd5b505050505050505b6040805160e060020a6370a0823102815230600482015290517faaf5e5cfa7e44b7c9cfc845d0cc96adc1c5a4c802d3572523f740424a3ce4fb291600160a060020a038416916370a0823191602480820192602092909190829003018186803b1580156119ed57600080fd5b505afa158015611a01573d6000803e3d6000fd5b505050506040513d6020811015611a1757600080fd5b5051604080519182524260208301528051918290030190a150565b600080600560009054906101000a9004600160a060020a0316600160a060020a031663681a06d76040518163ffffffff1660e060020a02815260040160206040518083038186803b158015611a8657600080fd5b505afa158015611a9a573d6000803e3d6000fd5b505050506040513d6020811015611ab057600080fd5b50519050611ac4848263ffffffff611ecf16565b949350505050565b600160a060020a0381161515611ae157600080fd5b600254604051600160a060020a0380841692610100900416907f8be0079c531659141344cd1fd0a4f28419497f9722a3daafe3b4186f6b6457e090600090a360028054600160a060020a039092166101000274ffffffffffffffffffffffffffffffffffffffff0019909216919091179055565b60025460ff161515611bb1576040805160e560020a62461bcd02815260206004820152600d60248201527f6973206e6f742061637469766500000000000000000000000000000000000000604482015290519081900360640190fd5b6002805460ff1916905560408051428152905133917ef689ee9beb942c1c9c0d6642687ace05a9000d5f2979d344163c57829fa779919081900360200190a280600160a060020a0316ff5b6000544210158015611c0f575060015442105b1515611c65576040805160e560020a62461bcd02815260206004820152600d60248201527f6e6f7420696e20706572696f6400000000000000000000000000000000000000604482015290519081900360640190fd5b60025460ff1615611cc0576040805160e560020a62461bcd02815260206004820152601260248201527f63616e6e6f742073746172742074776963650000000000000000000000000000604482015290519081900360640190fd5b6002805460ff1916600117905560408051428152905133917f727dd98701807c5fdf715b9f1fd7d87461a558e2ab3e05935add76e42e330fa3919081900360200190a2565b600480546003546040805160e060020a639be2faed0281523094810194909452600160a060020a03918216602485015251911691639be2faed916044808301926020929190829003018186803b158015611d5e57600080fd5b505afa158015611d72573d6000803e3d6000fd5b505050506040513d6020811015611d8857600080fd5b50511515611dce576040805160e560020a62461bcd0281526020600482015260186024820152600080516020611ef4833981519152604482015290519081900360640190fd5b600480546005546040805130602480830191909152825180830382018152604492830184526020810180517bffffffffffffffffffffffffffffffffffffffffffffffffffffffff167f5f539d690000000000000000000000000000000000000000000000000000000017815260035494517fd1b7089a000000000000000000000000000000000000000000000000000000008152600160a060020a039687169881018981529587169481018590526000606482018190526080948201948552835160848301528351979098169863d1b7089a989097939690949093909260a4909201919080838388838110156114145781810151838201526020016113fc565b6000808211611edd57600080fd5b60008284811515611eea57fe5b0494935050505056fe536368656d65206973206e6f74207265676973746572656400000000000000004f6e6c792063616c6c61626c6520627920617661746172206f66206f776e6572206f72206f776e6572a165627a7a723058208cd3023151d041a0f09250969f289cde9b0a88aaa2a2d96a0d136e6af52b9092002973746172742063616e6e6f74206265206166746572206e6f7220657175616c20746f20656e64",
  "source": "pragma solidity 0.5.4;\n\nimport \"@daostack/arc/contracts/controller/Avatar.sol\";\nimport \"@daostack/arc/contracts/controller/ControllerInterface.sol\";\n\nimport \"openzeppelin-solidity/contracts/math/SafeMath.sol\";\n\nimport \"../../identity/Identity.sol\";\nimport \"../../identity/IdentityGuard.sol\";\n\nimport \"../../token/GoodDollar.sol\";\n\nimport \"./ActivePeriod.sol\";\nimport \"./FeelessScheme.sol\";\n\n/* @title Base contract template for UBI scheme \n */\ncontract AbstractUBI is ActivePeriod, FeelessScheme {\n    using SafeMath for uint256;\n\n    uint256 initialReserve;\n\n    uint256 public claimDistribution;\n\n    struct Day {\n        mapping (address => bool) hasClaimed;\n        uint256 amountOfClaimers;\n        uint256 claimAmount;\n    }\n\n    mapping (uint => Day) claimDay;\n\n    mapping (address => uint) public lastClaimed;\n\n    uint public currentDay;\n    uint public lastCalc;\n\n    event UBIStarted(uint256 balance, uint time);\n    event UBIClaimed(address indexed claimer, uint256 amount);\n    event UBIEnded(uint256 claimers, uint256 claimamount);\n    /**\n     * @dev Constructor. Checks if avatar is a zero address\n     * and if periodEnd variable is after periodStart.\n     * @param _avatar the avatar contract\n     * @param _periodStart period from when the contract is able to start\n     * @param _periodEnd period from when the contract is able to end\n     */\n    constructor(\n        Avatar _avatar,\n        Identity _identity,\n        uint256 _initialReserve,\n        uint _periodStart,\n        uint _periodEnd\n    )\n        public\n        ActivePeriod(_periodStart, _periodEnd)\n        FeelessScheme(_identity, _avatar)\n    {\n        initialReserve = _initialReserve;\n    }\n\n    /**\n     * @dev function that returns an uint256 that\n     * represents the amount each claimer can claim.\n     * @param reserve the account balance to calculate from\n     * @return The distribution for each claimer\n     */\n    function distributionFormula(uint256 reserve, address user) internal returns(uint256);\n\n    /* @dev function that gets the amount of people who claimed on the given day\n     * @param day the day to get claimer count from, with 0 being the starting day\n     * @returns an integer indicating the amount of people who claimed that day\n     */\n    function getClaimerCount(uint day) public view returns (uint256) {\n        return claimDay[day].amountOfClaimers;\n    }\n\n    /* @dev function that gets the amount that was claimed on the given day\n     * @param day the day to get claimer count from, with 0 being the starting day\n     * @returns an integer indicating the amount that has been claimed on the given day\n     */\n    function getClaimAmount(uint day) public view returns (uint256) {\n        return claimDay[day].claimAmount;\n    }\n\n    /* @dev function that gets count of claimers and amount claimed for the most recent\n     * day where claiming transpired.\n     * @returns the amount of claimers and the amount claimed. \n     */\n    function getDailyStats() public view returns (uint256 count, uint256 amount) {\n        return (getClaimerCount(currentDay), getClaimAmount(currentDay));\n    }\n\n    /* @dev Function that commences distribution period on contract.\n     * Can only be called after periodStart and before periodEnd and\n     * can only be done once. The reserve is sent\n     * to this contract to allow claimers to claim from said reserve.\n     * The claim distribution is then calculated and true is returned\n     * to indicate that claiming can be done.\n     */\n    function start() public onlyRegistered {\n        super.start();\n        addRights();\n\n        currentDay = 0;\n        lastCalc = now;\n\n        // Transfer the fee reserve to this contract\n        DAOToken token = avatar.nativeToken();\n\n        if(initialReserve > 0) {\n            require(initialReserve <= token.balanceOf(address(avatar)), \"Not enough funds to start\");\n\n            controller.genericCall(\n                address(token),\n                abi.encodeWithSignature(\"transfer(address,uint256)\", address(this), initialReserve),\n                avatar,\n                0);\n        }\n        emit UBIStarted(token.balanceOf(address(this)), now);\n    }\n\n    /**\n     * @dev Function that ends the claiming period. Can only be done if\n     * Contract has been started and periodEnd is passed.\n     * Sends the remaining funds on contract back to the avatar contract\n     * address\n     */\n    function end(Avatar /*_avatar*/) public requirePeriodEnd {\n\n        DAOToken token = avatar.nativeToken();\n\n        uint256 remainingReserve = token.balanceOf(address(this));\n\n        if (remainingReserve > 0) {\n            token.transfer(address(avatar), remainingReserve);\n        }\n\n        removeRights();\n        super.end(avatar);\n    }\n\n    /* @dev Function that claims UBI to message sender.\n     * Each claimer can only claim once per UBI contract\n     */\n    function claim() \n        public \n        requireActive\n        onlyWhitelisted\n        onlyAddedBefore(periodStart)\n        returns(bool)\n    {\n        require(!claimDay[currentDay].hasClaimed[msg.sender], \"has already claimed\");\n\n        GoodDollar token = GoodDollar(address(avatar.nativeToken()));\n\n        claimDay[currentDay].hasClaimed[msg.sender] = true;\n        token.transfer(msg.sender, claimDistribution);\n\n        claimDay[currentDay].amountOfClaimers = claimDay[currentDay].amountOfClaimers.add(1);\n        claimDay[currentDay].claimAmount = claimDay[currentDay].claimAmount.add(claimDistribution);\n\n        lastClaimed[msg.sender] = now;\n        \n        emit UBIClaimed(msg.sender, claimDistribution);\n        return true;\n    }\n}\n\n/* @title UBI scheme contract responsible for calculating distribution\n * and performing the distribution itself\n */\ncontract UBI is AbstractUBI {\n\n    /* @dev Constructor. Checks if avatar is a zero address\n     * and if periodEnd variable is after periodStart.\n     * @param _avatar the avatar contract\n     * @param _identity the identity contract\n     * @param _periodStart period from when the contract is able to start\n     * @param _periodEnd period from when the contract is able to end\n     */\n    constructor(\n        Avatar _avatar,\n        Identity _identity,\n        uint256 _initialReserve,\n        uint _periodStart,\n        uint _periodEnd\n    )\n        public\n        AbstractUBI(_avatar, _identity, _initialReserve, _periodStart, _periodEnd)\n    {}\n\n    /* @dev function that returns an uint256 that\n     * represents the amount each claimer can claim.\n     * @param reserve the account balance to calculate from\n     * @return The reserve divided by the amount of registered claimers\n     */\n    function distributionFormula(uint256 reserve, address /*user*/) internal returns(uint256) {\n        uint claimers = identity.getWhitelistedCount();\n        return reserve.div(claimers);\n    }\n\n    /* @dev starts scheme and calculates dispersion of UBI\n     * @returns a bool indicating if scheme has started\n     */\n    function start() public {\n        super.start();\n\n        DAOToken token = avatar.nativeToken();\n        claimDistribution = distributionFormula(token.balanceOf(address(this)), address(0));\n\n    }    \n}\n",
  "sourcePath": "/Users/hadar/workspace/GoodDollar/GoodBootstrap/packages/contracts/contracts/dao/schemes/UBI.sol",
  "compiler": {
    "name": "solc",
    "version": "0.5.4+commit.9549d8ff.Emscripten.clang"
  },
  "schemaVersion": "3.0.16",
  "updatedAt": "2019-10-24T08:14:04.923Z",
  "devdoc": {
    "methods": {
      "end(address)": {
        "details": "Function that ends the claiming period. Can only be done if Contract has been started and periodEnd is passed. Sends the remaining funds on contract back to the avatar contract address"
      },
      "isOwner()": {
        "return": "true if `msg.sender` is the owner of the contract."
      },
      "owner()": {
        "return": "the address of the owner."
      },
      "renounceOwnership()": {
        "details": "Allows the current owner to relinquish control of the contract."
      },
      "transferOwnership(address)": {
        "details": "Allows the current owner to transfer control of the contract to a newOwner.",
        "params": {
          "newOwner": "The address to transfer ownership to."
        }
      }
    }
  },
  "userdoc": {
    "methods": {
      "renounceOwnership()": {
        "notice": "Renouncing to ownership will leave the contract without an owner. It will not be possible to call the functions with the `onlyOwner` modifier anymore."
      }
    }
  }
}