{
  "contractName": "UBI",
  "abi": [
    {
      "inputs": [
        {
          "internalType": "contract Avatar",
          "name": "_avatar",
          "type": "address"
        },
        {
          "internalType": "contract Identity",
          "name": "_identity",
          "type": "address"
        },
        {
          "internalType": "uint256",
          "name": "_initialReserve",
          "type": "uint256"
        },
        {
          "internalType": "uint256",
          "name": "_periodStart",
          "type": "uint256"
        },
        {
          "internalType": "uint256",
          "name": "_periodEnd",
          "type": "uint256"
        }
      ],
      "payable": false,
      "stateMutability": "nonpayable",
      "type": "constructor"
    },
    {
      "anonymous": false,
      "inputs": [
        {
          "indexed": true,
          "internalType": "address",
          "name": "previousOwner",
          "type": "address"
        },
        {
          "indexed": true,
          "internalType": "address",
          "name": "newOwner",
          "type": "address"
        }
      ],
      "name": "OwnershipTransferred",
      "type": "event"
    },
    {
      "anonymous": false,
      "inputs": [
        {
          "indexed": true,
          "internalType": "address",
          "name": "by",
          "type": "address"
        },
        {
          "indexed": false,
          "internalType": "uint256",
          "name": "time",
          "type": "uint256"
        }
      ],
      "name": "SchemeEnded",
      "type": "event"
    },
    {
      "anonymous": false,
      "inputs": [
        {
          "indexed": true,
          "internalType": "address",
          "name": "by",
          "type": "address"
        },
        {
          "indexed": false,
          "internalType": "uint256",
          "name": "time",
          "type": "uint256"
        }
      ],
      "name": "SchemeStarted",
      "type": "event"
    },
    {
      "anonymous": false,
      "inputs": [
        {
          "indexed": true,
          "internalType": "address",
          "name": "claimer",
          "type": "address"
        },
        {
          "indexed": false,
          "internalType": "uint256",
          "name": "amount",
          "type": "uint256"
        }
      ],
      "name": "UBIClaimed",
      "type": "event"
    },
    {
      "anonymous": false,
      "inputs": [
        {
          "indexed": false,
          "internalType": "uint256",
          "name": "claimers",
          "type": "uint256"
        },
        {
          "indexed": false,
          "internalType": "uint256",
          "name": "claimamount",
          "type": "uint256"
        }
      ],
      "name": "UBIEnded",
      "type": "event"
    },
    {
      "anonymous": false,
      "inputs": [
        {
          "indexed": false,
          "internalType": "uint256",
          "name": "balance",
          "type": "uint256"
        },
        {
          "indexed": false,
          "internalType": "uint256",
          "name": "time",
          "type": "uint256"
        }
      ],
      "name": "UBIStarted",
      "type": "event"
    },
    {
      "constant": false,
      "inputs": [],
      "name": "claim",
      "outputs": [
        {
          "internalType": "bool",
          "name": "",
          "type": "bool"
        }
      ],
      "payable": false,
      "stateMutability": "nonpayable",
      "type": "function"
    },
    {
      "constant": true,
      "inputs": [],
      "name": "claimDistribution",
      "outputs": [
        {
          "internalType": "uint256",
          "name": "",
          "type": "uint256"
        }
      ],
      "payable": false,
      "stateMutability": "view",
      "type": "function"
    },
    {
      "constant": true,
      "inputs": [],
      "name": "currentDay",
      "outputs": [
        {
          "internalType": "uint256",
          "name": "",
          "type": "uint256"
        }
      ],
      "payable": false,
      "stateMutability": "view",
      "type": "function"
    },
    {
      "constant": false,
      "inputs": [],
      "name": "end",
      "outputs": [],
      "payable": false,
      "stateMutability": "nonpayable",
      "type": "function"
    },
    {
      "constant": true,
      "inputs": [
        {
          "internalType": "uint256",
          "name": "day",
          "type": "uint256"
        }
      ],
      "name": "getClaimAmount",
      "outputs": [
        {
          "internalType": "uint256",
          "name": "",
          "type": "uint256"
        }
      ],
      "payable": false,
      "stateMutability": "view",
      "type": "function"
    },
    {
      "constant": true,
      "inputs": [
        {
          "internalType": "uint256",
          "name": "day",
          "type": "uint256"
        }
      ],
      "name": "getClaimerCount",
      "outputs": [
        {
          "internalType": "uint256",
          "name": "",
          "type": "uint256"
        }
      ],
      "payable": false,
      "stateMutability": "view",
      "type": "function"
    },
    {
      "constant": true,
      "inputs": [],
      "name": "getDailyStats",
      "outputs": [
        {
          "internalType": "uint256",
          "name": "count",
          "type": "uint256"
        },
        {
          "internalType": "uint256",
          "name": "amount",
          "type": "uint256"
        }
      ],
      "payable": false,
      "stateMutability": "view",
      "type": "function"
    },
    {
      "constant": true,
      "inputs": [],
      "name": "identity",
      "outputs": [
        {
          "internalType": "contract Identity",
          "name": "",
          "type": "address"
        }
      ],
      "payable": false,
      "stateMutability": "view",
      "type": "function"
    },
    {
      "constant": true,
      "inputs": [],
      "name": "isActive",
      "outputs": [
        {
          "internalType": "bool",
          "name": "",
          "type": "bool"
        }
      ],
      "payable": false,
      "stateMutability": "view",
      "type": "function"
    },
    {
      "constant": true,
      "inputs": [],
      "name": "isOwner",
      "outputs": [
        {
          "internalType": "bool",
          "name": "",
          "type": "bool"
        }
      ],
      "payable": false,
      "stateMutability": "view",
      "type": "function"
    },
    {
      "constant": true,
      "inputs": [],
      "name": "isRegistered",
      "outputs": [
        {
          "internalType": "bool",
          "name": "",
          "type": "bool"
        }
      ],
      "payable": false,
      "stateMutability": "view",
      "type": "function"
    },
    {
      "constant": true,
      "inputs": [
        {
          "internalType": "address",
          "name": "scheme",
          "type": "address"
        }
      ],
      "name": "isRegistered",
      "outputs": [
        {
          "internalType": "bool",
          "name": "",
          "type": "bool"
        }
      ],
      "payable": false,
      "stateMutability": "view",
      "type": "function"
    },
    {
      "constant": true,
      "inputs": [
        {
          "internalType": "address",
          "name": "",
          "type": "address"
        }
      ],
      "name": "lastClaimed",
      "outputs": [
        {
          "internalType": "uint256",
          "name": "",
          "type": "uint256"
        }
      ],
      "payable": false,
      "stateMutability": "view",
      "type": "function"
    },
    {
      "constant": true,
      "inputs": [],
      "name": "owner",
      "outputs": [
        {
          "internalType": "address",
          "name": "",
          "type": "address"
        }
      ],
      "payable": false,
      "stateMutability": "view",
      "type": "function"
    },
    {
      "constant": true,
      "inputs": [],
      "name": "periodEnd",
      "outputs": [
        {
          "internalType": "uint256",
          "name": "",
          "type": "uint256"
        }
      ],
      "payable": false,
      "stateMutability": "view",
      "type": "function"
    },
    {
      "constant": true,
      "inputs": [],
      "name": "periodStart",
      "outputs": [
        {
          "internalType": "uint256",
          "name": "",
          "type": "uint256"
        }
      ],
      "payable": false,
      "stateMutability": "view",
      "type": "function"
    },
    {
      "constant": false,
      "inputs": [],
      "name": "renounceOwnership",
      "outputs": [],
      "payable": false,
      "stateMutability": "nonpayable",
      "type": "function"
    },
    {
      "constant": false,
      "inputs": [
        {
          "internalType": "contract Avatar",
          "name": "_avatar",
          "type": "address"
        }
      ],
      "name": "setAvatar",
      "outputs": [],
      "payable": false,
      "stateMutability": "nonpayable",
      "type": "function"
    },
    {
      "constant": false,
      "inputs": [
        {
          "internalType": "contract Identity",
          "name": "_identity",
          "type": "address"
        }
      ],
      "name": "setIdentity",
      "outputs": [],
      "payable": false,
      "stateMutability": "nonpayable",
      "type": "function"
    },
    {
      "constant": false,
      "inputs": [
        {
          "internalType": "address",
          "name": "newOwner",
          "type": "address"
        }
      ],
      "name": "transferOwnership",
      "outputs": [],
      "payable": false,
      "stateMutability": "nonpayable",
      "type": "function"
    },
    {
      "constant": false,
      "inputs": [],
      "name": "start",
      "outputs": [],
      "payable": false,
      "stateMutability": "nonpayable",
      "type": "function"
    }
  ],
  "bytecode": "0x6080604052600580546001600160a01b03191690553480156200002157600080fd5b5060405162001e6538038062001e65833981810160405260a08110156200004757600080fd5b50805160208201516040830151606084015160809094015192939192909190848484848483858181858582818310620000b25760405162461bcd60e51b815260040180806020018281038252602681526020018062001e3f6026913960400191505060405180910390fd5b600092835560019190915560028054610100600160a81b0319166101006001600160a01b03938416021760ff1916905560038054336001600160a01b03199091161790819055604051911691907f8be0079c531659141344cd1fd0a4f28419497f9722a3daafe3b4186f6b6457e0908290a3600480546001600160a01b0319166001600160a01b0383811691909117918290551615620001dd576004805460408051638da5cb5b60e01b815290516001600160a01b0390921692638da5cb5b928282019260209290829003018186803b1580156200018f57600080fd5b505afa158015620001a4573d6000803e3d6000fd5b505050506040513d6020811015620001bb57600080fd5b5051600580546001600160a01b0319166001600160a01b039092169190911790555b506001600160a01b0381166200023a576040805162461bcd60e51b815260206004820152601960248201527f537570706c696564206964656e74697479206973206e756c6c00000000000000604482015290519081900360640190fd5b600680546001600160a01b0319166001600160a01b0392831617908190556007969096556040805163b30f7e7f60e01b815290516200035b995096909116965063b30f7e7f956004808301965060209550909350908390030190508186803b158015620002a657600080fd5b505afa158015620002bb573d6000803e3d6000fd5b505050506040513d6020811015620002d257600080fd5b505160065460408051635950ef1160e11b815290516001600160a01b039092169163b2a1de2291600480820192602092909190829003018186803b1580156200031a57600080fd5b505afa1580156200032f573d6000803e3d6000fd5b505050506040513d60208110156200034657600080fd5b5051906200036a602090811b62000e7617901c565b600c5550620003809350505050565b6000828211156200037a57600080fd5b50900390565b611aaf80620003906000396000f3fe608060405234801561001057600080fd5b50600436106101375760003560e01c8063715018a6116100b8578063c3c5a5471161007c578063c3c5a5471461026b578063c7a76adf14610291578063cef63600146102ae578063eda4e6d6146102cb578063efbe1c1c146102d3578063f2fde38b146102db57610137565b8063715018a614610243578063884a41be1461024b5780638da5cb5b146102535780638f32d59b1461025b578063be9a65551461026357610137565b80632c159a1a116100ff5780632c159a1a146101e15780634e71d92d14610205578063506ec0951461020d5780635c9302c9146102155780635d5bf1781461021d57610137565b8063013eba921461013c578063069786ea14610174578063086cfca81461019557806322366844146101bd57806322f3e2d4146101d9575b600080fd5b6101626004803603602081101561015257600080fd5b50356001600160a01b0316610301565b60408051918252519081900360200190f35b61017c610313565b6040805192835260208301919091528051918290030190f35b6101bb600480360360208110156101ab57600080fd5b50356001600160a01b0316610356565b005b6101c561040d565b604080519115158252519081900360200190f35b6101c561041d565b6101e9610426565b604080516001600160a01b039092168252519081900360200190f35b6101c5610435565b610162610892565b610162610898565b6101bb6004803603602081101561023357600080fd5b50356001600160a01b031661089e565b6101bb610987565b6101626109e2565b6101e96109e8565b6101c56109f7565b6101bb610a08565b6101c56004803603602081101561028157600080fd5b50356001600160a01b0316610b12565b610162600480360360208110156102a757600080fd5b5035610c01565b610162600480360360208110156102c457600080fd5b5035610c16565b610162610c2b565b6101bb610c31565b6101bb600480360360208110156102f157600080fd5b50356001600160a01b0316610e59565b600a6020526000908152604090205481565b60008060006201518061033160005442610e7690919063ffffffff16565b8161033857fe5b04905061034481610c01565b61034d82610c16565b92509250509091565b61035e6109f7565b61036757600080fd5b600480546001600160a01b0319166001600160a01b038381169190911780835560408051638da5cb5b60e01b815290519190921692638da5cb5b92808201926020929091829003018186803b1580156103bf57600080fd5b505afa1580156103d3573d6000803e3d6000fd5b505050506040513d60208110156103e957600080fd5b5051600580546001600160a01b0319166001600160a01b0390921691909117905550565b600061041830610b12565b905090565b60025460ff1681565b6006546001600160a01b031681565b60025460009060ff1661047f576040805162461bcd60e51b815260206004820152600d60248201526c6973206e6f742061637469766560981b604482015290519081900360640190fd5b60065460408051633af32abf60e01b815233600482015290516001600160a01b0390921691633af32abf91602480820192602092909190829003018186803b1580156104ca57600080fd5b505afa1580156104de573d6000803e3d6000fd5b505050506040513d60208110156104f457600080fd5b505161053c576040805162461bcd60e51b81526020600482015260126024820152711a5cc81b9bdd081dda1a5d195b1a5cdd195960721b604482015290519081900360640190fd5b600054600654604080516370f1b05d60e11b8152336004820152905183926001600160a01b03169163e1e360ba916024808301926020929190829003018186803b15801561058957600080fd5b505afa15801561059d573d6000803e3d6000fd5b505050506040513d60208110156105b357600080fd5b50511115610608576040805162461bcd60e51b815260206004820152601b60248201527f576173206e6f742061646465642077697468696e20706572696f640000000000604482015290519081900360640190fd5b600b54600090815260096020908152604080832033845290915290205460ff1615610670576040805162461bcd60e51b81526020600482015260136024820152721a185cc8185b1c9958591e4818db185a5b5959606a1b604482015290519081900360640190fd5b600b5460009081526009602090815260408083203384528252808320805460ff19166001179055600480548251631c2eb17b60e31b815292516001600160a01b03919091169363e1758bd8938084019391929190829003018186803b1580156106d857600080fd5b505afa1580156106ec573d6000803e3d6000fd5b505050506040513d602081101561070257600080fd5b5051600b54600090815260096020526040902060019081015491925061072e919063ffffffff610e8b16565b600b8054600090815260096020526040808220600101939093556008549154815291909120600201546107669163ffffffff610e8b16565b600b5460009081526009602090815260408083206002019390935533808352600a8252838320429055600854845163a9059cbb60e01b81526004810192909252602482015292516001600160a01b0385169363a9059cbb9360448083019493928390030190829087803b1580156107dc57600080fd5b505af11580156107f0573d6000803e3d6000fd5b505050506040513d602081101561080657600080fd5b5051610851576040805162461bcd60e51b815260206004820152601560248201527418db185a5b481d1c985b9cd9995c8819985a5b1959605a1b604482015290519081900360640190fd5b600854604080519182525133917f89ed24731df6b066e4c5186901fffdba18cd9a10f07494aff900bdee260d1304919081900360200190a260019250505090565b60015481565b600b5481565b6108a66109f7565b6108af57600080fd5b806001600160a01b031663223668446040518163ffffffff1660e01b815260040160206040518083038186803b1580156108e857600080fd5b505afa1580156108fc573d6000803e3d6000fd5b505050506040513d602081101561091257600080fd5b5051610965576040805162461bcd60e51b815260206004820152601a60248201527f4964656e74697479206973206e6f742072656769737465726564000000000000604482015290519081900360640190fd5b600680546001600160a01b0319166001600160a01b0392909216919091179055565b61098f6109f7565b61099857600080fd5b6003546040516000916001600160a01b0316907f8be0079c531659141344cd1fd0a4f28419497f9722a3daafe3b4186f6b6457e0908390a3600380546001600160a01b0319169055565b60085481565b6003546001600160a01b031690565b6003546001600160a01b0316331490565b610a10610ea4565b6000600460009054906101000a90046001600160a01b03166001600160a01b031663e1758bd86040518163ffffffff1660e01b815260040160206040518083038186803b158015610a6057600080fd5b505afa158015610a74573d6000803e3d6000fd5b505050506040513d6020811015610a8a57600080fd5b5051604080516370a0823160e01b81523060048201529051919250610b0c916001600160a01b038416916370a08231916024808301926020929190829003018186803b158015610ad957600080fd5b505afa158015610aed573d6000803e3d6000fd5b505050506040513d6020811015610b0357600080fd5b50516000611331565b60085550565b6004546000906001600160a01b0316610b66576040805162461bcd60e51b8152602060048201526011602482015270105d985d185c881a5cc81b9bdd081cd95d607a1b604482015290519081900360640190fd5b6005546004805460408051639be2faed60e01b81526001600160a01b03878116948201949094529183166024830152519190921691639be2faed916044808301926020929190829003018186803b158015610bc057600080fd5b505afa158015610bd4573d6000803e3d6000fd5b505050506040513d6020811015610bea57600080fd5b5051610bf857506000610bfc565b5060015b919050565b60009081526009602052604090206001015490565b60009081526009602052604090206002015490565b60005481565b600154421015610c7f576040805162461bcd60e51b81526020600482015260146024820152731c195c9a5bd9081a185cc81b9bdd08195b99195960621b604482015290519081900360640190fd5b6000600460009054906101000a90046001600160a01b03166001600160a01b031663e1758bd86040518163ffffffff1660e01b815260040160206040518083038186803b158015610ccf57600080fd5b505afa158015610ce3573d6000803e3d6000fd5b505050506040513d6020811015610cf957600080fd5b5051604080516370a0823160e01b815230600482015290519192506000916001600160a01b038416916370a08231916024808301926020929190829003018186803b158015610d4757600080fd5b505afa158015610d5b573d6000803e3d6000fd5b505050506040513d6020811015610d7157600080fd5b505190508015610e4557600480546040805163a9059cbb60e01b81526001600160a01b039283169381019390935260248301849052519084169163a9059cbb9160448083019260209291908290030181600087803b158015610dd257600080fd5b505af1158015610de6573d6000803e3d6000fd5b505050506040513d6020811015610dfc57600080fd5b5051610e45576040805162461bcd60e51b8152602060048201526013602482015272195b99081d1c985b9cd9995c8819985a5b1959606a1b604482015290519081900360640190fd5b610e4d611348565b610e5561159d565b5050565b610e616109f7565b610e6a57600080fd5b610e7381611607565b50565b600082821115610e8557600080fd5b50900390565b600082820183811015610e9d57600080fd5b9392505050565b610eac61040d565b610ef8576040805162461bcd60e51b815260206004820152601860248201527714d8da195b59481a5cc81b9bdd081c9959da5cdd195c995960421b604482015290519081900360640190fd5b610f00611676565b610f0861175c565b62015180610f2160005442610e7690919063ffffffff16565b81610f2857fe5b04600b556004805460408051631c2eb17b60e31b815290516000936001600160a01b039093169263e1758bd892808201926020929091829003018186803b158015610f7257600080fd5b505afa158015610f86573d6000803e3d6000fd5b505050506040513d6020811015610f9c57600080fd5b5051600754909150156112835760048054604080516370a0823160e01b81526001600160a01b039283169381019390935251908316916370a08231916024808301926020929190829003018186803b158015610ff757600080fd5b505afa15801561100b573d6000803e3d6000fd5b505050506040513d602081101561102157600080fd5b50516007541115611079576040805162461bcd60e51b815260206004820152601960248201527f4e6f7420656e6f7567682066756e647320746f20737461727400000000000000604482015290519081900360640190fd5b6005546007546040805130602480830191909152604480830194909452825180830385018152606492830184526020810180516001600160e01b031663a9059cbb60e01b1781526004805495516368db844d60e11b81526001600160a01b038a811692820192835296871697810188905260009581018690526080948101948552835160848201528351969098169763d1b7089a978a979496909590949293909260a490920191808383885b8381101561113d578181015183820152602001611125565b50505050905090810190601f16801561116a5780820380516001836020036101000a031916815260200191505b5095505050505050600060405180830381600087803b15801561118c57600080fd5b505af11580156111a0573d6000803e3d6000fd5b505050506040513d6000823e601f3d908101601f1916820160409081528110156111c957600080fd5b8151602083018051604051929492938301929190846401000000008211156111f057600080fd5b90830190602082018581111561120557600080fd5b825164010000000081118282018810171561121f57600080fd5b82525081516020918201929091019080838360005b8381101561124c578181015183820152602001611234565b50505050905090810190601f1680156112795780820380516001836020036101000a031916815260200191505b5060405250505050505b604080516370a0823160e01b815230600482015290517faaf5e5cfa7e44b7c9cfc845d0cc96adc1c5a4c802d3572523f740424a3ce4fb2916001600160a01b038416916370a0823191602480820192602092909190829003018186803b1580156112ec57600080fd5b505afa158015611300573d6000803e3d6000fd5b505050506040513d602081101561131657600080fd5b5051604080519182524260208301528051918290030190a150565b6000610e9d600c54846119c690919063ffffffff16565b61135061040d565b61139c576040805162461bcd60e51b815260206004820152601860248201527714d8da195b59481a5cc81b9bdd081c9959da5cdd195c995960421b604482015290519081900360640190fd5b6005546006546040805130602480830191909152825180830382018152604492830184526020810180516001600160e01b031663c375c2ef60e01b1781526004805495516368db844d60e11b81526001600160a01b039788169181018281529688169581018690526000606482018190526080958201958652845160848301528451989099169863d1b7089a989297949695909493909260a490920191808383885b8381101561145657818101518382015260200161143e565b50505050905090810190601f1680156114835780820380516001836020036101000a031916815260200191505b5095505050505050600060405180830381600087803b1580156114a557600080fd5b505af11580156114b9573d6000803e3d6000fd5b505050506040513d6000823e601f3d908101601f1916820160409081528110156114e257600080fd5b81516020830180516040519294929383019291908464010000000082111561150957600080fd5b90830190602082018581111561151e57600080fd5b825164010000000081118282018810171561153857600080fd5b82525081516020918201929091019080838360005b8381101561156557818101518382015260200161154d565b50505050905090810190601f1680156115925780820380516001836020036101000a031916815260200191505b506040525050505050565b6001544210156115eb576040805162461bcd60e51b81526020600482015260146024820152731c195c9a5bd9081a185cc81b9bdd08195b99195960621b604482015290519081900360640190fd5b6002546116059061010090046001600160a01b03166119e8565b565b6001600160a01b03811661161a57600080fd5b6003546040516001600160a01b038084169216907f8be0079c531659141344cd1fd0a4f28419497f9722a3daafe3b4186f6b6457e090600090a3600380546001600160a01b0319166001600160a01b0392909216919091179055565b6000544210158015611689575060015442105b6116ca576040805162461bcd60e51b815260206004820152600d60248201526c1b9bdd081a5b881c195c9a5bd9609a1b604482015290519081900360640190fd5b60025460ff1615611717576040805162461bcd60e51b815260206004820152601260248201527163616e6e6f7420737461727420747769636560701b604482015290519081900360640190fd5b6002805460ff1916600117905560408051428152905133917f727dd98701807c5fdf715b9f1fd7d87461a558e2ab3e05935add76e42e330fa3919081900360200190a2565b61176461040d565b6117b0576040805162461bcd60e51b815260206004820152601860248201527714d8da195b59481a5cc81b9bdd081c9959da5cdd195c995960421b604482015290519081900360640190fd5b6005546006546040805130602480830191909152825180830382018152604492830184526020810180516001600160e01b0316635f539d6960e01b1781526004805495516368db844d60e11b81526001600160a01b039788169181018281529688169581018690526000606482018190526080958201958652845160848301528451989099169863d1b7089a989297949695909493909260a490920191808383885b8381101561186a578181015183820152602001611852565b50505050905090810190601f1680156118975780820380516001836020036101000a031916815260200191505b5095505050505050600060405180830381600087803b1580156118b957600080fd5b505af11580156118cd573d6000803e3d6000fd5b505050506040513d6000823e601f3d908101601f1916820160409081528110156118f657600080fd5b81516020830180516040519294929383019291908464010000000082111561191d57600080fd5b90830190602082018581111561193257600080fd5b825164010000000081118282018810171561194c57600080fd5b82525081516020918201929091019080838360005b83811015611979578181015183820152602001611961565b50505050905090810190601f1680156119a65780820380516001836020036101000a031916815260200191505b50604052505060045461160593506001600160a01b03169150610e599050565b60008082116119d457600080fd5b60008284816119df57fe5b04949350505050565b60025460ff16611a2f576040805162461bcd60e51b815260206004820152600d60248201526c6973206e6f742061637469766560981b604482015290519081900360640190fd5b6002805460ff1916905560408051428152905133917ef689ee9beb942c1c9c0d6642687ace05a9000d5f2979d344163c57829fa779919081900360200190a2806001600160a01b0316fffea265627a7a72315820841b5eca8976de91a04b2ec60bffd384426b8c372c91199808fd9077eb2b8f9564736f6c6343000510003273746172742063616e6e6f74206265206166746572206e6f7220657175616c20746f20656e64",
  "source": "pragma solidity >0.5.4;\n\nimport \"@daostack/arc/contracts/controller/Avatar.sol\";\nimport \"@daostack/arc/contracts/controller/ControllerInterface.sol\";\n\nimport \"openzeppelin-solidity/contracts/math/SafeMath.sol\";\n\nimport \"../../identity/Identity.sol\";\nimport \"../../identity/IdentityGuard.sol\";\n\nimport \"../../token/GoodDollar.sol\";\n\nimport \"./ActivePeriod.sol\";\nimport \"./FeelessScheme.sol\";\n\n/* @title Base contract template for UBI scheme\n */\ncontract AbstractUBI is ActivePeriod, FeelessScheme {\n    using SafeMath for uint256;\n\n    uint256 initialReserve;\n\n    uint256 public claimDistribution;\n\n    struct Day {\n        mapping(address => bool) hasClaimed;\n        uint256 amountOfClaimers;\n        uint256 claimAmount;\n    }\n\n    mapping(uint256 => Day) claimDay;\n\n    mapping(address => uint256) public lastClaimed;\n\n    uint256 public currentDay;\n\n    event UBIStarted(uint256 balance, uint256 time);\n    event UBIClaimed(address indexed claimer, uint256 amount);\n    event UBIEnded(uint256 claimers, uint256 claimamount);\n\n    /**\n     * @dev Constructor. Checks if avatar is a zero address\n     * and if periodEnd variable is after periodStart.\n     * @param _avatar the avatar contract\n     * @param _periodStart period from when the contract is able to start\n     * @param _periodEnd period from when the contract is able to end\n     */\n    constructor(\n        Avatar _avatar,\n        Identity _identity,\n        uint256 _initialReserve,\n        uint256 _periodStart,\n        uint256 _periodEnd\n    )\n        public\n        ActivePeriod(_periodStart, _periodEnd, _avatar)\n        FeelessScheme(_identity, _avatar)\n    {\n        initialReserve = _initialReserve;\n    }\n\n    /**\n     * @dev function that returns an uint256 that\n     * represents the amount each claimer can claim.\n     * @param reserve the account balance to calculate from\n     * @return The distribution for each claimer\n     */\n    function distributionFormula(uint256 reserve, address user)\n        internal\n        returns (uint256);\n\n    /* @dev function that gets the amount of people who claimed on the given day\n     * @param day the day to get claimer count from, with 0 being the starting day\n     * @return an integer indicating the amount of people who claimed that day\n     */\n    function getClaimerCount(uint256 day) public view returns (uint256) {\n        return claimDay[day].amountOfClaimers;\n    }\n\n    /* @dev function that gets the amount that was claimed on the given day\n     * @param day the day to get claimer count from, with 0 being the starting day\n     * @return an integer indicating the amount that has been claimed on the given day\n     */\n    function getClaimAmount(uint256 day) public view returns (uint256) {\n        return claimDay[day].claimAmount;\n    }\n\n    /* @dev function that gets count of claimers and amount claimed for the current day\n     * @return the amount of claimers and the amount claimed.\n     */\n    function getDailyStats() public view returns (uint256 count, uint256 amount) {\n        uint256 today = (now.sub(periodStart)) / 1 days;\n        return (getClaimerCount(today), getClaimAmount(today));\n    }\n\n    /* @dev Function that commences distribution period on contract.\n     * Can only be called after periodStart and before periodEnd and\n     * can only be done once. The reserve is sent\n     * to this contract to allow claimers to claim from said reserve.\n     * The claim distribution is then calculated and true is returned\n     * to indicate that claiming can be done.\n     */\n    function start() public onlyRegistered {\n        super.start();\n        addRights();\n\n        currentDay = now.sub(periodStart) / 1 days;\n\n        // Transfer the fee reserve to this contract\n        DAOToken token = avatar.nativeToken();\n\n        if (initialReserve > 0) {\n            require(\n                initialReserve <= token.balanceOf(address(avatar)),\n                \"Not enough funds to start\"\n            );\n\n            controller.genericCall(\n                address(token),\n                abi.encodeWithSignature(\n                    \"transfer(address,uint256)\",\n                    address(this),\n                    initialReserve\n                ),\n                avatar,\n                0\n            );\n        }\n        emit UBIStarted(token.balanceOf(address(this)), now);\n    }\n\n    /**\n     * @dev Function that ends the claiming period. Can only be done if\n     * Contract has been started and periodEnd is passed.\n     * Sends the remaining funds on contract back to the avatar contract\n     * address\n     */\n    function end() public requirePeriodEnd {\n        DAOToken token = avatar.nativeToken();\n\n        uint256 remainingReserve = token.balanceOf(address(this));\n\n        if (remainingReserve > 0) {\n            require(\n                token.transfer(address(avatar), remainingReserve),\n                \"end transfer failed\"\n            );\n        }\n\n        removeRights();\n        super.end();\n    }\n\n    /* @dev UBI claiming function. Can only be called by users that were\n     * whitelisted before start of contract\n     * Each claimer can only claim once per UBI contract\n     * @return true if the user claimed successfully\n     */\n    function claim()\n        public\n        requireActive\n        onlyWhitelisted\n        onlyAddedBefore(periodStart)\n        returns (bool)\n    {\n        require(!claimDay[currentDay].hasClaimed[msg.sender], \"has already claimed\");\n        claimDay[currentDay].hasClaimed[msg.sender] = true;\n\n        GoodDollar token = GoodDollar(address(avatar.nativeToken()));\n\n        claimDay[currentDay].amountOfClaimers = claimDay[currentDay].amountOfClaimers.add(\n            1\n        );\n        claimDay[currentDay].claimAmount = claimDay[currentDay].claimAmount.add(\n            claimDistribution\n        );\n\n        lastClaimed[msg.sender] = now;\n        require(token.transfer(msg.sender, claimDistribution), \"claim transfer failed\");\n        emit UBIClaimed(msg.sender, claimDistribution);\n        return true;\n    }\n}\n\n/* @title UBI scheme contract responsible for calculating a distribution\n * based on amount of whitelisted users\n */\ncontract UBI is AbstractUBI {\n    uint256 claimers;\n\n    /* @dev Constructor. Checks if avatar is a zero address\n     * and if periodEnd variable is after periodStart.\n     * @param _avatar the avatar contract\n     * @param _identity the identity contract\n     * @param _periodStart period from when the contract is able to start\n     * @param _periodEnd period from when the contract is able to end\n     */\n    constructor(\n        Avatar _avatar,\n        Identity _identity,\n        uint256 _initialReserve,\n        uint256 _periodStart,\n        uint256 _periodEnd\n    ) public AbstractUBI(_avatar, _identity, _initialReserve, _periodStart, _periodEnd) {\n        claimers = (identity.whitelistedCount()).sub(identity.whitelistedContracts());\n    }\n\n    /* @dev function that calculated the amount each claimer can claim.\n     * amount to claim is the amount of GoodDollar contract holds\n     * divided by amount of eligible claimers\n     * @param reserve the account balance to calculate from\n     * @return The reserve divided by the amount of registered claimers\n     */\n    function distributionFormula(\n        uint256 reserve,\n        address /*user*/\n    ) internal returns (uint256) {\n        return reserve.div(claimers);\n    }\n\n    /* @dev starts scheme and calculates distribution of UBI\n     */\n    function start() public {\n        super.start();\n\n        DAOToken token = avatar.nativeToken();\n        claimDistribution = distributionFormula(\n            token.balanceOf(address(this)),\n            address(0)\n        );\n    }\n}\n",
  "sourcePath": "/Users/hadar/workspace/GoodDollar/GoodBootstrap/packages/contracts/contracts/dao/schemes/UBI.sol",
  "compiler": {
    "name": "solc",
    "version": "0.5.16+commit.9c3226ce.Emscripten.clang"
  },
  "schemaVersion": "3.2.3",
  "updatedAt": "2021-01-27T19:47:05.763Z",
  "devdoc": {
    "methods": {
      "end()": {
        "details": "Function that ends the claiming period. Can only be done if Contract has been started and periodEnd is passed. Sends the remaining funds on contract back to the avatar contract address"
      },
      "isOwner()": {
        "return": "true if `msg.sender` is the owner of the contract."
      },
      "isRegistered()": {
        "details": "function to see if an avatar has been set and if this scheme is registered",
        "return": "true if scheme is registered"
      },
      "isRegistered(address)": {
        "details": "function to see if an avatar has been set and if this scheme is registered",
        "return": "true if scheme is registered"
      },
      "owner()": {
        "return": "the address of the owner."
      },
      "renounceOwnership()": {
        "details": "Allows the current owner to relinquish control of the contract."
      },
      "setAvatar(address)": {
        "details": "Function to set a new avatar and controller for scheme can only be done by owner of scheme"
      },
      "transferOwnership(address)": {
        "details": "Allows the current owner to transfer control of the contract to a newOwner.",
        "params": {
          "newOwner": "The address to transfer ownership to."
        }
      }
    }
  },
  "userdoc": {
    "methods": {
      "renounceOwnership()": {
        "notice": "Renouncing to ownership will leave the contract without an owner. It will not be possible to call the functions with the `onlyOwner` modifier anymore."
      }
    }
  }
}