{
  "contractName": "UpgradesRegistrar",
  "abi": [
    {
      "anonymous": false,
      "inputs": [
        {
          "indexed": true,
          "internalType": "address",
          "name": "_avatar",
          "type": "address"
        },
        {
          "indexed": true,
          "internalType": "bytes32",
          "name": "_proposalId",
          "type": "bytes32"
        },
        {
          "indexed": true,
          "internalType": "address",
          "name": "_intVoteInterface",
          "type": "address"
        },
        {
          "indexed": false,
          "internalType": "address",
          "name": "_scheme",
          "type": "address"
        },
        {
          "indexed": false,
          "internalType": "bytes32",
          "name": "_parametersHash",
          "type": "bytes32"
        },
        {
          "indexed": false,
          "internalType": "bytes4",
          "name": "_permissions",
          "type": "bytes4"
        },
        {
          "indexed": false,
          "internalType": "string",
          "name": "_descriptionHash",
          "type": "string"
        }
      ],
      "name": "NewSchemeProposal",
      "type": "event"
    },
    {
      "anonymous": false,
      "inputs": [
        {
          "indexed": true,
          "internalType": "address",
          "name": "_avatar",
          "type": "address"
        },
        {
          "indexed": true,
          "internalType": "bytes32",
          "name": "_proposalId",
          "type": "bytes32"
        }
      ],
      "name": "ProposalDeleted",
      "type": "event"
    },
    {
      "anonymous": false,
      "inputs": [
        {
          "indexed": true,
          "internalType": "address",
          "name": "_avatar",
          "type": "address"
        },
        {
          "indexed": true,
          "internalType": "bytes32",
          "name": "_proposalId",
          "type": "bytes32"
        },
        {
          "indexed": false,
          "internalType": "int256",
          "name": "_param",
          "type": "int256"
        }
      ],
      "name": "ProposalExecuted",
      "type": "event"
    },
    {
      "anonymous": false,
      "inputs": [
        {
          "indexed": true,
          "internalType": "address",
          "name": "_avatar",
          "type": "address"
        },
        {
          "indexed": true,
          "internalType": "bytes32",
          "name": "_proposalId",
          "type": "bytes32"
        },
        {
          "indexed": true,
          "internalType": "address",
          "name": "_intVoteInterface",
          "type": "address"
        },
        {
          "indexed": false,
          "internalType": "address",
          "name": "_scheme",
          "type": "address"
        },
        {
          "indexed": false,
          "internalType": "string",
          "name": "_descriptionHash",
          "type": "string"
        }
      ],
      "name": "RemoveSchemeProposal",
      "type": "event"
    },
    {
      "anonymous": false,
      "inputs": [
        {
          "indexed": true,
          "internalType": "address",
          "name": "proxy",
          "type": "address"
        },
        {
          "indexed": false,
          "internalType": "address",
          "name": "impl",
          "type": "address"
        },
        {
          "indexed": false,
          "internalType": "bytes32",
          "name": "proposalId",
          "type": "bytes32"
        }
      ],
      "name": "UpgradedImpl",
      "type": "event"
    },
    {
      "constant": true,
      "inputs": [
        {
          "internalType": "contract IERC20",
          "name": "_stakingToken",
          "type": "address"
        },
        {
          "internalType": "bytes32",
          "name": "_proposalId",
          "type": "bytes32"
        }
      ],
      "name": "balanceOfStakingToken",
      "outputs": [
        {
          "internalType": "uint256",
          "name": "",
          "type": "uint256"
        }
      ],
      "payable": false,
      "stateMutability": "view",
      "type": "function"
    },
    {
      "constant": false,
      "inputs": [
        {
          "internalType": "uint256",
          "name": "_amount",
          "type": "uint256"
        },
        {
          "internalType": "address",
          "name": "_beneficiary",
          "type": "address"
        },
        {
          "internalType": "bytes32",
          "name": "_proposalId",
          "type": "bytes32"
        }
      ],
      "name": "burnReputation",
      "outputs": [
        {
          "internalType": "bool",
          "name": "",
          "type": "bool"
        }
      ],
      "payable": false,
      "stateMutability": "nonpayable",
      "type": "function"
    },
    {
      "constant": true,
      "inputs": [
        {
          "internalType": "bytes32",
          "name": "_voteRegisterParams",
          "type": "bytes32"
        },
        {
          "internalType": "bytes32",
          "name": "_voteRemoveParams",
          "type": "bytes32"
        },
        {
          "internalType": "contract IntVoteInterface",
          "name": "_intVote",
          "type": "address"
        }
      ],
      "name": "getParametersHash",
      "outputs": [
        {
          "internalType": "bytes32",
          "name": "",
          "type": "bytes32"
        }
      ],
      "payable": false,
      "stateMutability": "pure",
      "type": "function"
    },
    {
      "constant": true,
      "inputs": [
        {
          "internalType": "bytes32",
          "name": "_proposalId",
          "type": "bytes32"
        }
      ],
      "name": "getTotalReputationSupply",
      "outputs": [
        {
          "internalType": "uint256",
          "name": "",
          "type": "uint256"
        }
      ],
      "payable": false,
      "stateMutability": "view",
      "type": "function"
    },
    {
      "constant": false,
      "inputs": [
        {
          "internalType": "uint256",
          "name": "_amount",
          "type": "uint256"
        },
        {
          "internalType": "address",
          "name": "_beneficiary",
          "type": "address"
        },
        {
          "internalType": "bytes32",
          "name": "_proposalId",
          "type": "bytes32"
        }
      ],
      "name": "mintReputation",
      "outputs": [
        {
          "internalType": "bool",
          "name": "",
          "type": "bool"
        }
      ],
      "payable": false,
      "stateMutability": "nonpayable",
      "type": "function"
    },
    {
      "constant": true,
      "inputs": [
        {
          "internalType": "address",
          "name": "",
          "type": "address"
        },
        {
          "internalType": "bytes32",
          "name": "",
          "type": "bytes32"
        }
      ],
      "name": "organizationsProposals",
      "outputs": [
        {
          "internalType": "address",
          "name": "scheme",
          "type": "address"
        },
        {
          "internalType": "bool",
          "name": "addScheme",
          "type": "bool"
        },
        {
          "internalType": "bytes32",
          "name": "parametersHash",
          "type": "bytes32"
        },
        {
          "internalType": "bytes4",
          "name": "permissions",
          "type": "bytes4"
        }
      ],
      "payable": false,
      "stateMutability": "view",
      "type": "function"
    },
    {
      "constant": true,
      "inputs": [
        {
          "internalType": "bytes32",
          "name": "",
          "type": "bytes32"
        }
      ],
      "name": "parameters",
      "outputs": [
        {
          "internalType": "bytes32",
          "name": "voteRegisterParams",
          "type": "bytes32"
        },
        {
          "internalType": "bytes32",
          "name": "voteRemoveParams",
          "type": "bytes32"
        },
        {
          "internalType": "contract IntVoteInterface",
          "name": "intVote",
          "type": "address"
        }
      ],
      "payable": false,
      "stateMutability": "view",
      "type": "function"
    },
    {
      "constant": true,
      "inputs": [
        {
          "internalType": "address",
          "name": "",
          "type": "address"
        },
        {
          "internalType": "bytes32",
          "name": "",
          "type": "bytes32"
        }
      ],
      "name": "proposalsInfo",
      "outputs": [
        {
          "internalType": "uint256",
          "name": "blockNumber",
          "type": "uint256"
        },
        {
          "internalType": "contract Avatar",
          "name": "avatar",
          "type": "address"
        }
      ],
      "payable": false,
      "stateMutability": "view",
      "type": "function"
    },
    {
      "constant": false,
      "inputs": [
        {
          "internalType": "contract Avatar",
          "name": "_avatar",
          "type": "address"
        },
        {
          "internalType": "address",
          "name": "_scheme",
          "type": "address"
        },
        {
          "internalType": "bytes32",
          "name": "_parametersHash",
          "type": "bytes32"
        },
        {
          "internalType": "bytes4",
          "name": "_permissions",
          "type": "bytes4"
        },
        {
          "internalType": "string",
          "name": "_descriptionHash",
          "type": "string"
        }
      ],
      "name": "proposeScheme",
      "outputs": [
        {
          "internalType": "bytes32",
          "name": "",
          "type": "bytes32"
        }
      ],
      "payable": false,
      "stateMutability": "nonpayable",
      "type": "function"
    },
    {
      "constant": false,
      "inputs": [
        {
          "internalType": "contract Avatar",
          "name": "_avatar",
          "type": "address"
        },
        {
          "internalType": "address",
          "name": "_scheme",
          "type": "address"
        },
        {
          "internalType": "string",
          "name": "_descriptionHash",
          "type": "string"
        }
      ],
      "name": "proposeToRemoveScheme",
      "outputs": [
        {
          "internalType": "bytes32",
          "name": "",
          "type": "bytes32"
        }
      ],
      "payable": false,
      "stateMutability": "nonpayable",
      "type": "function"
    },
    {
      "constant": true,
      "inputs": [
        {
          "internalType": "address",
          "name": "_owner",
          "type": "address"
        },
        {
          "internalType": "bytes32",
          "name": "_proposalId",
          "type": "bytes32"
        }
      ],
      "name": "reputationOf",
      "outputs": [
        {
          "internalType": "uint256",
          "name": "",
          "type": "uint256"
        }
      ],
      "payable": false,
      "stateMutability": "view",
      "type": "function"
    },
    {
      "constant": false,
      "inputs": [
        {
          "internalType": "bytes32",
          "name": "_voteRegisterParams",
          "type": "bytes32"
        },
        {
          "internalType": "bytes32",
          "name": "_voteRemoveParams",
          "type": "bytes32"
        },
        {
          "internalType": "contract IntVoteInterface",
          "name": "_intVote",
          "type": "address"
        }
      ],
      "name": "setParameters",
      "outputs": [
        {
          "internalType": "bytes32",
          "name": "",
          "type": "bytes32"
        }
      ],
      "payable": false,
      "stateMutability": "nonpayable",
      "type": "function"
    },
    {
      "constant": false,
      "inputs": [
        {
          "internalType": "contract IERC20",
          "name": "_stakingToken",
          "type": "address"
        },
        {
          "internalType": "address",
          "name": "_beneficiary",
          "type": "address"
        },
        {
          "internalType": "uint256",
          "name": "_amount",
          "type": "uint256"
        },
        {
          "internalType": "bytes32",
          "name": "_proposalId",
          "type": "bytes32"
        }
      ],
      "name": "stakingTokenTransfer",
      "outputs": [
        {
          "internalType": "bool",
          "name": "",
          "type": "bool"
        }
      ],
      "payable": false,
      "stateMutability": "nonpayable",
      "type": "function"
    },
    {
      "constant": true,
      "inputs": [
        {
          "internalType": "bytes32",
          "name": "",
          "type": "bytes32"
        }
      ],
      "name": "upgrades",
      "outputs": [
        {
          "internalType": "uint256",
          "name": "timeLockEnd",
          "type": "uint256"
        },
        {
          "internalType": "address",
          "name": "scheme",
          "type": "address"
        }
      ],
      "payable": false,
      "stateMutability": "view",
      "type": "function"
    },
    {
      "constant": false,
      "inputs": [
        {
          "internalType": "bytes32",
          "name": "_proposalId",
          "type": "bytes32"
        },
        {
          "internalType": "int256",
          "name": "_param",
          "type": "int256"
        }
      ],
      "name": "executeProposal",
      "outputs": [
        {
          "internalType": "bool",
          "name": "",
          "type": "bool"
        }
      ],
      "payable": false,
      "stateMutability": "nonpayable",
      "type": "function"
    },
    {
      "constant": false,
      "inputs": [
        {
          "internalType": "bytes32",
          "name": "_proposalId",
          "type": "bytes32"
        }
      ],
      "name": "executeUpgrade",
      "outputs": [],
      "payable": false,
      "stateMutability": "nonpayable",
      "type": "function"
    }
  ],
  "bytecode": "0x608060405234801561001057600080fd5b50611ddd806100206000396000f3fe608060405234801561001057600080fd5b50600436106101005760003560e01c80637718226111610097578063bea75f2811610066578063bea75f281461042f578063d29b5d2f1461046b578063e7ac593e1461049d578063f81f8bf61461055c57610100565b8063771822611461037d5780639588378e146103af5780639d4c162d146103db578063b551c3731461041257610100565b80635099e006116100d35780635099e006146102125780635a0d2b13146102e757806360bdbb3f146103255780636b8eb4031461035157610100565b8063025068041461010557806306e3a978146101495780630a6687fd146101af5780633b6520cb146101f3575b600080fd5b6101226004803603602081101561011b57600080fd5b503561058e565b6040805193845260208401929092526001600160a01b031682820152519081900360600190f35b6101756004803603604081101561015f57600080fd5b506001600160a01b0381351690602001356105b7565b604080516001600160a01b0390951685529215156020850152838301919091526001600160e01b0319166060830152519081900360800190f35b6101e1600480360360608110156101c557600080fd5b50803590602081013590604001356001600160a01b03166105f9565b60408051918252519081900360200190f35b6102106004803603602081101561020957600080fd5b5035610648565b005b6101e1600480360360a081101561022857600080fd5b6001600160a01b0382358116926020810135909116916040820135916001600160e01b03196060820135169181019060a08101608082013564010000000081111561027257600080fd5b82018360208201111561028457600080fd5b803590602001918460018302840111640100000000831117156102a657600080fd5b91908080601f016020809104026020016040519081016040528093929190818152602001838380828437600092019190915250929550610ae0945050505050565b610304600480360360208110156102fd57600080fd5b5035610e05565b604080519283526001600160a01b0390911660208301528051918290030190f35b6103046004803603604081101561033b57600080fd5b506001600160a01b038135169060200135610e27565b6101e16004803603604081101561036757600080fd5b506001600160a01b038135169060200135610e51565b6101e16004803603606081101561039357600080fd5b50803590602081013590604001356001600160a01b0316610f11565b6101e1600480360360408110156103c557600080fd5b506001600160a01b038135169060200135610f59565b6103fe600480360360408110156103f157600080fd5b5080359060200135611067565b604080519115158252519081900360200190f35b6101e16004803603602081101561042857600080fd5b50356112e8565b6103fe6004803603608081101561044557600080fd5b506001600160a01b03813581169160208101359091169060408101359060600135611422565b6103fe6004803603606081101561048157600080fd5b508035906001600160a01b0360208201351690604001356115c4565b6101e1600480360360608110156104b357600080fd5b6001600160a01b0382358116926020810135909116918101906060810160408201356401000000008111156104e757600080fd5b8201836020820111156104f957600080fd5b8035906020019184600183028401116401000000008311171561051b57600080fd5b91908080601f01602080910402602001604051908101604052809392919081815260200183838082843760009201919091525092955061175d945050505050565b6103fe6004803603606081101561057257600080fd5b508035906001600160a01b0360208201351690604001356119ce565b60026020819052600091825260409091208054600182015491909201546001600160a01b031683565b600160208181526000938452604080852090915291835291208054918101546002909101546001600160a01b03831692600160a01b900460ff16919060e01b84565b600080610607858585610f11565b6000818152600260208190526040909120878155600181018790550180546001600160a01b0386166001600160a01b03199091161790559150509392505050565b610650611d4a565b50600081815260036020908152604091829020825180840190935280548084526001909101546001600160a01b0316918301919091524210156106935750610add565b600082815260036020908152604080832083815560010180546001600160a01b031916905583820151815163ec55688960e01b815291519093926001600160a01b0385169263ec5568899260048083019392829003018186803b1580156106f957600080fd5b505afa15801561070d573d6000803e3d6000fd5b505050506040513d602081101561072357600080fd5b505160408051630f91c56360e21b815290519192506000916001600160a01b03851691633e47158c916004808301926020929190829003018186803b15801561076b57600080fd5b505afa15801561077f573d6000803e3d6000fd5b505050506040513d602081101561079557600080fd5b505160408051620481eb60e61b815290519192506000916001600160a01b038616916301207ac0916004808301926020929190829003018186803b1580156107dc57600080fd5b505afa1580156107f0573d6000803e3d6000fd5b505050506040513d602081101561080657600080fd5b5051604080516309c82f5360e31b815290519192506060916001600160a01b03871691634e417a98916004808301926000929190829003018186803b15801561084e57600080fd5b505afa158015610862573d6000803e3d6000fd5b505050506040513d6000823e601f3d908101601f19168201604052602081101561088b57600080fd5b81019080805160405193929190846401000000008211156108ab57600080fd5b9083019060208201858111156108c057600080fd5b82516401000000008111828201881017156108da57600080fd5b82525081516020918201929091019080838360005b838110156109075781810151838201526020016108ef565b50505050905090810190601f1680156109345780820380516001836020036101000a031916815260200191505b50604052505081519192505015610a2457604051639623609d60e01b81526001600160a01b0385811660048301908152848216602484015260606044840190815284516064850152845192871693639623609d938993889388939192909160840190602085019080838360005b838110156109b95781810151838201526020016109a1565b50505050905090810190601f1680156109e65780820380516001836020036101000a031916815260200191505b50945050505050600060405180830381600087803b158015610a0757600080fd5b505af1158015610a1b573d6000803e3d6000fd5b50505050610a90565b6040805163266a23b160e21b81526001600160a01b03868116600483015284811660248301529151918516916399a88ec49160448082019260009290919082900301818387803b158015610a7757600080fd5b505af1158015610a8b573d6000803e3d6000fd5b505050505b604080516001600160a01b038481168252602082018a90528251908716927f2487c0241f75017a4069bfe44038429697dcd2f0a33794780e54e8022e2a7997928290030190a25050505050505b50565b60006001600160a01b038516610b35576040805162461bcd60e51b8152602060048201526015602482015274736368656d652063616e6e6f74206265207a65726f60581b604482015290519081900360640190fd5b610b3d611d61565b60026000610b4a89611b2f565b815260208082019290925260409081016000908120825160608101845281548082526001830154828701526002928301546001600160a01b039081168387018190528651634439bdaf60e11b8152600481019590955260248501929092523360448501528d166064840152935190955091936388737b5e9260848084019382900301818787803b158015610bdd57600080fd5b505af1158015610bf1573d6000803e3d6000fd5b505050506040513d6020811015610c0757600080fd5b50519050610c13611d81565b6040518060800160405280896001600160a01b03168152602001600115158152602001888152602001876001600160e01b031916815250905082604001516001600160a01b0316828a6001600160a01b03167fcc9180a05805acc3615b472c3ba00cdc9cd2c6e0e0b3648d60eb58f2c1001b848b8b8b8b60405180856001600160a01b03166001600160a01b03168152602001848152602001836001600160e01b0319166001600160e01b031916815260200180602001828103825283818151815260200191508051906020019080838360005b83811015610cff578181015183820152602001610ce7565b50505050905090810190601f168015610d2c5780820380516001836020036101000a031916815260200191505b509550505050505060405180910390a46001600160a01b03808a166000818152600160208181526040808420888552825280842087518154848a01511515600160a01b0260ff60a01b19928a166001600160a01b0319928316179290921691909117825582890151828601556060909801516002909101805460e09290921c63ffffffff1990921691909117905580518082018252438152808301958652988101518616845283825280842088855290915290912095518655905194018054949091169390911692909217909155905095945050505050565b600360205260009081526040902080546001909101546001600160a01b031682565b6000602081815292815260408082209093529081522080546001909101546001600160a01b031682565b336000908152602081815260408083208484529091528120600101546001600160a01b031680610e85576000915050610f0b565b836001600160a01b03166370a08231826040518263ffffffff1660e01b815260040180826001600160a01b03166001600160a01b0316815260200191505060206040518083038186803b158015610edb57600080fd5b505afa158015610eef573d6000803e3d6000fd5b505050506040513d6020811015610f0557600080fd5b50519150505b92915050565b6040805160208082019590955280820193909352606091821b6bffffffffffffffffffffffff1916918301919091528051808303605401815260749092019052805191012090565b6000610f63611d4a565b5033600090815260208181526040808320858452825291829020825180840190935280548352600101546001600160a01b0316908201819052610faa576000915050610f0b565b80602001516001600160a01b03166389ae1c906040518163ffffffff1660e01b815260040160206040518083038186803b158015610fe757600080fd5b505afa158015610ffb573d6000803e3d6000fd5b505050506040513d602081101561101157600080fd5b505181516040805163277166bf60e11b81526001600160a01b038881166004830152602482019390935290519190921691634ee2cd7e916044808301926020929190829003018186803b158015610edb57600080fd5b3360009081526020818152604080832085845290915281206001015483906001600160a01b03166110d4576040805162461bcd60e51b81526020600482015260126024820152716f6e6c7920566f74696e674d616368696e6560701b604482015290519081900360640190fd5b336000908152602081815260408083208784529091529020600101546001600160a01b0316611101611d81565b506001600160a01b0381811660009081526001602081815260408084208a855282529283902083516080810185528154958616808252600160a01b90960460ff1615159281019290925291820154928101929092526002015460e01b6001600160e01b03191660608201529061117657600080fd5b6001600160a01b03821660008181526001602081815260408084208b855290915280832080546001600160a81b03191681559182018390556002909101805463ffffffff19169055518892917f6bc0cb9e9967b59a69ace442598e1df4368d38661bd5c0800fbcbc9fe855fbbe91a3846001141561129c5780600001516001600160a01b031663778d46236040518163ffffffff1660e01b815260040160206040518083038186803b15801561122b57600080fd5b505afa15801561123f573d6000803e3d6000fd5b505050506040513d602081101561125557600080fd5b50516000878152600360205260409020610e10909102420181558151600190910180546001600160a01b0319166001600160a01b0390921691909117905561129c86610648565b60408051868152905187916001600160a01b038516917fd2632e80f5364f02aded1c64e8a04637b7c8bb9c2db2bedf4b6ac47c013acbc09181900360200190a350600195945050505050565b60006112f2611d4a565b5033600090815260208181526040808320858452825291829020825180840190935280548352600101546001600160a01b031690820181905261133957600091505061141d565b80602001516001600160a01b03166389ae1c906040518163ffffffff1660e01b815260040160206040518083038186803b15801561137657600080fd5b505afa15801561138a573d6000803e3d6000fd5b505050506040513d60208110156113a057600080fd5b5051815160408051630981b24d60e41b81526004810192909252516001600160a01b039092169163981b24d091602480820192602092909190829003018186803b1580156113ed57600080fd5b505afa158015611401573d6000803e3d6000fd5b505050506040513d602081101561141757600080fd5b50519150505b919050565b3360009081526020818152604080832084845290915281206001015482906001600160a01b031661148f576040805162461bcd60e51b81526020600482015260126024820152716f6e6c7920566f74696e674d616368696e6560701b604482015290519081900360640190fd5b336000908152602081815260408083208684529091529020600101546001600160a01b0316806114c35760009250506115bb565b806001600160a01b0316638da5cb5b6040518163ffffffff1660e01b815260040160206040518083038186803b1580156114fc57600080fd5b505afa158015611510573d6000803e3d6000fd5b505050506040513d602081101561152657600080fd5b50516040805163b9a04cdd60e01b81526001600160a01b038a8116600483015289811660248301526044820189905284811660648301529151919092169163b9a04cdd9160848083019260209291908290030181600087803b15801561158b57600080fd5b505af115801561159f573d6000803e3d6000fd5b505050506040513d60208110156115b557600080fd5b50519250505b50949350505050565b3360009081526020818152604080832084845290915281206001015482906001600160a01b0316611631576040805162461bcd60e51b81526020600482015260126024820152716f6e6c7920566f74696e674d616368696e6560701b604482015290519081900360640190fd5b336000908152602081815260408083208684529091529020600101546001600160a01b031680611665576000925050611755565b806001600160a01b0316638da5cb5b6040518163ffffffff1660e01b815260040160206040518083038186803b15801561169e57600080fd5b505afa1580156116b2573d6000803e3d6000fd5b505050506040513d60208110156116c857600080fd5b50516040805163757cca5960e11b8152600481018990526001600160a01b03888116602483015284811660448301529151919092169163eaf994b29160648083019260209291908290030181600087803b15801561172557600080fd5b505af1158015611739573d6000803e3d6000fd5b505050506040513d602081101561174f57600080fd5b50519250505b509392505050565b60006001600160a01b0383166117b2576040805162461bcd60e51b8152602060048201526015602482015274736368656d652063616e6e6f74206265207a65726f60581b604482015290519081900360640190fd5b60006117bd85611b2f565b90506117c7611d61565b5060008181526002602081815260408084208151606081018352815481526001820154818501819052918501546001600160a01b039081168285018190528451634439bdaf60e11b8152600481019790975260248701939093523360448701528b166064860152915191949093909284926388737b5e92608480820193929182900301818787803b15801561185b57600080fd5b505af115801561186f573d6000803e3d6000fd5b505050506040513d602081101561188557600080fd5b50516001600160a01b038981166000818152600160209081526040808320868452825280832080546001600160a01b0319168e871690811790915581519081528083018281528d51928201929092528c519697509488169587957f504b6bd2558241a5f0532c970f3444e1fc24e1f7cf3d7c49a8d213bd612e9055948f948f9492936060850192918601918190849084905b8381101561192f578181015183820152602001611917565b50505050905090810190601f16801561195c5780820380516001836020036101000a031916815260200191505b50935050505060405180910390a46040805180820182524381526001600160a01b03998a166020808301918252958301518b166000908152808752838120858252909652919094209351845551600190930180546001600160a01b031916939098169290921790965595945050505050565b3360009081526020818152604080832084845290915281206001015482906001600160a01b0316611a3b576040805162461bcd60e51b81526020600482015260126024820152716f6e6c7920566f74696e674d616368696e6560701b604482015290519081900360640190fd5b336000908152602081815260408083208684529091529020600101546001600160a01b031680611a6f576000925050611755565b806001600160a01b0316638da5cb5b6040518163ffffffff1660e01b815260040160206040518083038186803b158015611aa857600080fd5b505afa158015611abc573d6000803e3d6000fd5b505050506040513d6020811015611ad257600080fd5b505160408051630dd29a4f60e31b8152600481018990526001600160a01b038881166024830152848116604483015291519190921691636e94d2789160648083019260209291908290030181600087803b15801561172557600080fd5b6000816001600160a01b0316638da5cb5b6040518163ffffffff1660e01b815260040160206040518083038186803b158015611b6a57600080fd5b505afa158015611b7e573d6000803e3d6000fd5b505050506040513d6020811015611b9457600080fd5b505160408051639be2faed60e01b81523060048201526001600160a01b03858116602483015291519190921691639be2faed916044808301926020929190829003018186803b158015611be657600080fd5b505afa158015611bfa573d6000803e3d6000fd5b505050506040513d6020811015611c1057600080fd5b5051611c63576040805162461bcd60e51b815260206004820152601860248201527f736368656d65206973206e6f7420726567697374657265640000000000000000604482015290519081900360640190fd5b816001600160a01b0316638da5cb5b6040518163ffffffff1660e01b815260040160206040518083038186803b158015611c9c57600080fd5b505afa158015611cb0573d6000803e3d6000fd5b505050506040513d6020811015611cc657600080fd5b505160408051630389aac160e31b81523060048201526001600160a01b03858116602483015291519190921691631c4d5608916044808301926020929190829003018186803b158015611d1857600080fd5b505afa158015611d2c573d6000803e3d6000fd5b505050506040513d6020811015611d4257600080fd5b505192915050565b604080518082019091526000808252602082015290565b604080516060810182526000808252602082018190529181019190915290565b6040805160808101825260008082526020820181905291810182905260608101919091529056fea265627a7a7231582006957a0c0e7ffbeedbccc12b76c81073f62d5a4934931e98d219ce1b4cebc84064736f6c63430005100032",
  "source": "import \"@daostack/arc/contracts/universalSchemes/SchemeRegistrar.sol\";\n\ninterface ProxyAdmin {\n    function upgrade(address proxy, address  impl) external;\n    function  upgradeAndCall(address proxy, address  impl, bytes calldata callData) external  payable;\n}\n\n/* @title Scheme for upgrading an upgradable contract to new impl\n* see openzeppelin upgradables\n */\ncontract UpgradeImplScheme {\n\n    address public newImpl;\n    address public proxy;\n    address public proxyAdmin;\n    bytes public callData;\n    uint public timeLockHours;\n\n    /* @dev constructor.\n     */\n    constructor(address _newImpl, address _proxy, address _proxyAdmin, bytes memory _callData, uint _timeLockHours) public {\n        newImpl = _newImpl;\n        proxy = _proxy;\n        proxyAdmin = _proxyAdmin;\n        callData = _callData;\n        timeLockHours = _timeLockHours;\n    }\n\n}\n\ncontract UpgradesRegistrar is SchemeRegistrar {\n    struct Upgrade {\n        uint timeLockEnd;\n        address scheme;\n    }\n\n    event UpgradedImpl(address indexed proxy, address impl, bytes32 proposalId);\n\n    mapping(bytes32=>Upgrade) public upgrades; \n\n    /**\n    * @dev execution of proposals, can only be called by the voting machine in which the vote is held.\n    * @param _proposalId the ID of the voting in the voting machine\n    * @param _param a parameter of the voting result, 1 yes and 2 is no.\n    */\n    function executeProposal(bytes32 _proposalId, int256 _param) external onlyVotingMachine(_proposalId) returns(bool) {        \n        Avatar avatar = proposalsInfo[msg.sender][_proposalId].avatar;\n        SchemeProposal memory proposal = organizationsProposals[address(avatar)][_proposalId];\n        require(proposal.scheme != address(0));\n        delete organizationsProposals[address(avatar)][_proposalId];\n        emit ProposalDeleted(address(avatar), _proposalId);\n        if (_param == 1) {\n            upgrades[_proposalId].timeLockEnd =  now  + UpgradeImplScheme(proposal.scheme).timeLockHours() * 1 hours;\n            upgrades[_proposalId].scheme = proposal.scheme;\n            executeUpgrade(_proposalId);\n        }\n        emit ProposalExecuted(address(avatar), _proposalId, _param);\n        return true;\n    }\n\n    function executeUpgrade(bytes32 _proposalId) public\n    {\n        Upgrade memory upgrade = upgrades[_proposalId];\n        if(upgrade.timeLockEnd > now) return;\n        \n        delete upgrades[_proposalId];\n        UpgradeImplScheme  updScheme = UpgradeImplScheme(upgrade.scheme);\n        address proxy = updScheme.proxy();\n        address proxyAdmin = updScheme.proxyAdmin();\n        address newImpl = updScheme.newImpl();\n        bytes memory callData = updScheme.callData();\n\n        if(callData.length > 0)\n        {\n            ProxyAdmin(proxyAdmin).upgradeAndCall(proxy,newImpl,callData);\n        }\n        else {\n            ProxyAdmin(proxyAdmin).upgrade(proxy,newImpl);\n        }\n\n        emit UpgradedImpl(proxy, newImpl,  _proposalId);\n        \n    }\n}",
  "sourcePath": "/Users/hadar/workspace/GoodDollar/GoodBootstrap/packages/contracts/contracts/dao/UpgradesRegistrar.sol",
  "compiler": {
    "name": "solc",
    "version": "0.5.16+commit.9c3226ce.Emscripten.clang"
  },
  "schemaVersion": "3.2.3",
  "updatedAt": "2022-10-27T11:34:11.098Z",
  "devdoc": {
    "methods": {
      "executeProposal(bytes32,int256)": {
        "details": "execution of proposals, can only be called by the voting machine in which the vote is held.",
        "params": {
          "_param": "a parameter of the voting result, 1 yes and 2 is no.",
          "_proposalId": "the ID of the voting in the voting machine"
        }
      },
      "proposeScheme(address,address,bytes32,bytes4,string)": {
        "details": "create a proposal to register a schemeNB: not only proposes the vote, but also votes for it",
        "params": {
          "_avatar": "the address of the organization the scheme will be registered for",
          "_descriptionHash": "proposal's description hash",
          "_parametersHash": "a hash of the configuration of the _scheme",
          "_permissions": "the permission of the scheme to be registered",
          "_scheme": "the address of the scheme to be registered"
        },
        "return": "a proposal Id"
      },
      "proposeToRemoveScheme(address,address,string)": {
        "details": "propose to remove a scheme for a controller",
        "params": {
          "_avatar": "the address of the controller from which we want to remove a scheme",
          "_descriptionHash": "proposal description hash NB: not only registers the proposal, but also votes for it",
          "_scheme": "the address of the scheme we want to remove"
        }
      },
      "setParameters(bytes32,bytes32,address)": {
        "details": "hash the parameters, save them if necessary, and return the hash value"
      }
    }
  },
  "userdoc": {
    "methods": {}
  }
}