{
  "contractName": "UpgradeImplScheme",
  "abi": [
    {
      "inputs": [
        {
          "internalType": "address",
          "name": "_newImpl",
          "type": "address"
        },
        {
          "internalType": "address",
          "name": "_proxy",
          "type": "address"
        },
        {
          "internalType": "address",
          "name": "_proxyAdmin",
          "type": "address"
        },
        {
          "internalType": "bytes",
          "name": "_callData",
          "type": "bytes"
        },
        {
          "internalType": "uint256",
          "name": "_timeLockHours",
          "type": "uint256"
        }
      ],
      "payable": false,
      "stateMutability": "nonpayable",
      "type": "constructor"
    },
    {
      "constant": true,
      "inputs": [],
      "name": "callData",
      "outputs": [
        {
          "internalType": "bytes",
          "name": "",
          "type": "bytes"
        }
      ],
      "payable": false,
      "stateMutability": "view",
      "type": "function"
    },
    {
      "constant": true,
      "inputs": [],
      "name": "newImpl",
      "outputs": [
        {
          "internalType": "address",
          "name": "",
          "type": "address"
        }
      ],
      "payable": false,
      "stateMutability": "view",
      "type": "function"
    },
    {
      "constant": true,
      "inputs": [],
      "name": "proxy",
      "outputs": [
        {
          "internalType": "address",
          "name": "",
          "type": "address"
        }
      ],
      "payable": false,
      "stateMutability": "view",
      "type": "function"
    },
    {
      "constant": true,
      "inputs": [],
      "name": "proxyAdmin",
      "outputs": [
        {
          "internalType": "address",
          "name": "",
          "type": "address"
        }
      ],
      "payable": false,
      "stateMutability": "view",
      "type": "function"
    },
    {
      "constant": true,
      "inputs": [],
      "name": "timeLockHours",
      "outputs": [
        {
          "internalType": "uint256",
          "name": "",
          "type": "uint256"
        }
      ],
      "payable": false,
      "stateMutability": "view",
      "type": "function"
    }
  ],
  "bytecode": "0x608060405234801561001057600080fd5b50604051610420380380610420833981810160405260a081101561003357600080fd5b81516020830151604080850151606086018051925194969395919493918201928464010000000082111561006657600080fd5b90830190602082018581111561007b57600080fd5b825164010000000081118282018810171561009557600080fd5b82525081516020918201929091019080838360005b838110156100c25781810151838201526020016100aa565b50505050905090810190601f1680156100ef5780820380516001836020036101000a031916815260200191505b50604052602090810151600080546001600160a01b03808b166001600160a01b031992831617909255600180548a84169083161790556002805492891692909116919091179055845190935061014b9250600391850190610159565b50600455506101f492505050565b828054600181600116156101000203166002900490600052602060002090601f016020900481019282601f1061019a57805160ff19168380011785556101c7565b828001600101855582156101c7579182015b828111156101c75782518255916020019190600101906101ac565b506101d39291506101d7565b5090565b6101f191905b808211156101d357600081556001016101dd565b90565b61021d806102036000396000f3fe608060405234801561001057600080fd5b50600436106100575760003560e01c806301207ac01461005c5780633e47158c146100805780634e417a9814610088578063778d462314610105578063ec5568891461011f575b600080fd5b610064610127565b604080516001600160a01b039092168252519081900360200190f35b610064610136565b610090610145565b6040805160208082528351818301528351919283929083019185019080838360005b838110156100ca5781810151838201526020016100b2565b50505050905090810190601f1680156100f75780820380516001836020036101000a031916815260200191505b509250505060405180910390f35b61010d6101d3565b60408051918252519081900360200190f35b6100646101d9565b6000546001600160a01b031681565b6002546001600160a01b031681565b6003805460408051602060026001851615610100026000190190941693909304601f810184900484028201840190925281815292918301828280156101cb5780601f106101a0576101008083540402835291602001916101cb565b820191906000526020600020905b8154815290600101906020018083116101ae57829003601f168201915b505050505081565b60045481565b6001546001600160a01b03168156fea265627a7a723158201945c4f2e10d693a21a447c1cb168351248f270045d39b78f61e4c15ed8584b264736f6c63430005100032",
  "source": "import \"@daostack/arc/contracts/universalSchemes/SchemeRegistrar.sol\";\n\ninterface ProxyAdmin {\n    function upgrade(address proxy, address  impl) external;\n    function  upgradeAndCall(address proxy, address  impl, bytes calldata callData) external  payable;\n}\n\n/* @title Scheme for upgrading an upgradable contract to new impl\n* see openzeppelin upgradables\n */\ncontract UpgradeImplScheme {\n\n    address public newImpl;\n    address public proxy;\n    address public proxyAdmin;\n    bytes public callData;\n    uint public timeLockHours;\n\n    /* @dev constructor.\n     */\n    constructor(address _newImpl, address _proxy, address _proxyAdmin, bytes memory _callData, uint _timeLockHours) public {\n        newImpl = _newImpl;\n        proxy = _proxy;\n        proxyAdmin = _proxyAdmin;\n        callData = _callData;\n        timeLockHours = _timeLockHours;\n    }\n\n}\n\ncontract UpgradesRegistrar is SchemeRegistrar {\n    struct Upgrade {\n        uint timeLockEnd;\n        address scheme;\n    }\n\n    event UpgradedImpl(address indexed proxy, address impl, bytes32 proposalId);\n\n    mapping(bytes32=>Upgrade) public upgrades; \n\n    /**\n    * @dev execution of proposals, can only be called by the voting machine in which the vote is held.\n    * @param _proposalId the ID of the voting in the voting machine\n    * @param _param a parameter of the voting result, 1 yes and 2 is no.\n    */\n    function executeProposal(bytes32 _proposalId, int256 _param) external onlyVotingMachine(_proposalId) returns(bool) {        \n        Avatar avatar = proposalsInfo[msg.sender][_proposalId].avatar;\n        SchemeProposal memory proposal = organizationsProposals[address(avatar)][_proposalId];\n        require(proposal.scheme != address(0));\n        delete organizationsProposals[address(avatar)][_proposalId];\n        emit ProposalDeleted(address(avatar), _proposalId);\n        if (_param == 1) {\n            upgrades[_proposalId].timeLockEnd =  now  + UpgradeImplScheme(proposal.scheme).timeLockHours() * 1 hours;\n            upgrades[_proposalId].scheme = proposal.scheme;\n            executeUpgrade(_proposalId);\n        }\n        emit ProposalExecuted(address(avatar), _proposalId, _param);\n        return true;\n    }\n\n    function executeUpgrade(bytes32 _proposalId) public\n    {\n        Upgrade memory upgrade = upgrades[_proposalId];\n        if(upgrade.timeLockEnd > now) return;\n        \n        delete upgrades[_proposalId];\n        UpgradeImplScheme  updScheme = UpgradeImplScheme(upgrade.scheme);\n        address proxy = updScheme.proxy();\n        address proxyAdmin = updScheme.proxyAdmin();\n        address newImpl = updScheme.newImpl();\n        bytes memory callData = updScheme.callData();\n\n        if(callData.length > 0)\n        {\n            ProxyAdmin(proxyAdmin).upgradeAndCall(proxy,newImpl,callData);\n        }\n        else {\n            ProxyAdmin(proxyAdmin).upgrade(proxy,newImpl);\n        }\n\n        emit UpgradedImpl(proxy, newImpl,  _proposalId);\n        \n    }\n}",
  "sourcePath": "/Users/hadar/workspace/GoodDollar/GoodBootstrap/packages/contracts/contracts/dao/UpgradesRegistrar.sol",
  "compiler": {
    "name": "solc",
    "version": "0.5.16+commit.9c3226ce.Emscripten.clang"
  },
  "schemaVersion": "3.2.3",
  "updatedAt": "2021-01-27T19:47:05.551Z",
  "devdoc": {
    "methods": {}
  },
  "userdoc": {
    "methods": {}
  }
}